{
  "contractName": "WarpNFTClaimControl",
  "abi": [
    {
      "inputs": [
        {
          "internalType": "contract WarpNFTFactory",
          "name": "_NFTfactory",
          "type": "address"
        },
        {
          "internalType": "string",
          "name": "_epic",
          "type": "string"
        },
        {
          "internalType": "string",
          "name": "_legendary",
          "type": "string"
        },
        {
          "internalType": "string",
          "name": "_rare",
          "type": "string"
        },
        {
          "internalType": "string",
          "name": "_social",
          "type": "string"
        }
      ],
      "stateMutability": "nonpayable",
      "type": "constructor"
    },
    {
      "anonymous": false,
      "inputs": [
        {
          "indexed": true,
          "internalType": "address",
          "name": "previousOwner",
          "type": "address"
        },
        {
          "indexed": true,
          "internalType": "address",
          "name": "newOwner",
          "type": "address"
        }
      ],
      "name": "OwnershipTransferred",
      "type": "event"
    },
    {
      "inputs": [],
      "name": "WNFTF",
      "outputs": [
        {
          "internalType": "contract WarpNFTFactory",
          "name": "",
          "type": "address"
        }
      ],
      "stateMutability": "view",
      "type": "function"
    },
    {
      "inputs": [
        {
          "internalType": "address",
          "name": "",
          "type": "address"
        }
      ],
      "name": "epicClaimed",
      "outputs": [
        {
          "internalType": "bool",
          "name": "",
          "type": "bool"
        }
      ],
      "stateMutability": "view",
      "type": "function"
    },
    {
      "inputs": [
        {
          "internalType": "uint256",
          "name": "",
          "type": "uint256"
        }
      ],
      "name": "epicList",
      "outputs": [
        {
          "internalType": "address",
          "name": "",
          "type": "address"
        }
      ],
      "stateMutability": "view",
      "type": "function"
    },
    {
      "inputs": [],
      "name": "epicURI",
      "outputs": [
        {
          "internalType": "string",
          "name": "",
          "type": "string"
        }
      ],
      "stateMutability": "view",
      "type": "function"
    },
    {
      "inputs": [
        {
          "internalType": "address",
          "name": "",
          "type": "address"
        }
      ],
      "name": "epicWhiteList",
      "outputs": [
        {
          "internalType": "bool",
          "name": "",
          "type": "bool"
        }
      ],
      "stateMutability": "view",
      "type": "function"
    },
    {
      "inputs": [
        {
          "internalType": "address",
          "name": "",
          "type": "address"
        }
      ],
      "name": "legendaryClaimed",
      "outputs": [
        {
          "internalType": "bool",
          "name": "",
          "type": "bool"
        }
      ],
      "stateMutability": "view",
      "type": "function"
    },
    {
      "inputs": [
        {
          "internalType": "uint256",
          "name": "",
          "type": "uint256"
        }
      ],
      "name": "legendaryList",
      "outputs": [
        {
          "internalType": "address",
          "name": "",
          "type": "address"
        }
      ],
      "stateMutability": "view",
      "type": "function"
    },
    {
      "inputs": [],
      "name": "legendaryURI",
      "outputs": [
        {
          "internalType": "string",
          "name": "",
          "type": "string"
        }
      ],
      "stateMutability": "view",
      "type": "function"
    },
    {
      "inputs": [
        {
          "internalType": "address",
          "name": "",
          "type": "address"
        }
      ],
      "name": "legendaryWhiteList",
      "outputs": [
        {
          "internalType": "bool",
          "name": "",
          "type": "bool"
        }
      ],
      "stateMutability": "view",
      "type": "function"
    },
    {
      "inputs": [],
      "name": "owner",
      "outputs": [
        {
          "internalType": "address",
          "name": "",
          "type": "address"
        }
      ],
      "stateMutability": "view",
      "type": "function"
    },
    {
      "inputs": [
        {
          "internalType": "address",
          "name": "",
          "type": "address"
        }
      ],
      "name": "rareClaimed",
      "outputs": [
        {
          "internalType": "bool",
          "name": "",
          "type": "bool"
        }
      ],
      "stateMutability": "view",
      "type": "function"
    },
    {
      "inputs": [
        {
          "internalType": "uint256",
          "name": "",
          "type": "uint256"
        }
      ],
      "name": "rareList",
      "outputs": [
        {
          "internalType": "address",
          "name": "",
          "type": "address"
        }
      ],
      "stateMutability": "view",
      "type": "function"
    },
    {
      "inputs": [],
      "name": "rareURI",
      "outputs": [
        {
          "internalType": "string",
          "name": "",
          "type": "string"
        }
      ],
      "stateMutability": "view",
      "type": "function"
    },
    {
      "inputs": [
        {
          "internalType": "address",
          "name": "",
          "type": "address"
        }
      ],
      "name": "rareWhiteList",
      "outputs": [
        {
          "internalType": "bool",
          "name": "",
          "type": "bool"
        }
      ],
      "stateMutability": "view",
      "type": "function"
    },
    {
      "inputs": [],
      "name": "renounceOwnership",
      "outputs": [],
      "stateMutability": "nonpayable",
      "type": "function"
    },
    {
      "inputs": [
        {
          "internalType": "address",
          "name": "",
          "type": "address"
        }
      ],
      "name": "socialClaimed",
      "outputs": [
        {
          "internalType": "bool",
          "name": "",
          "type": "bool"
        }
      ],
      "stateMutability": "view",
      "type": "function"
    },
    {
      "inputs": [
        {
          "internalType": "uint256",
          "name": "",
          "type": "uint256"
        }
      ],
      "name": "socialList",
      "outputs": [
        {
          "internalType": "address",
          "name": "",
          "type": "address"
        }
      ],
      "stateMutability": "view",
      "type": "function"
    },
    {
      "inputs": [],
      "name": "socialURI",
      "outputs": [
        {
          "internalType": "string",
          "name": "",
          "type": "string"
        }
      ],
      "stateMutability": "view",
      "type": "function"
    },
    {
      "inputs": [
        {
          "internalType": "address",
          "name": "",
          "type": "address"
        }
      ],
      "name": "socialWhiteList",
      "outputs": [
        {
          "internalType": "bool",
          "name": "",
          "type": "bool"
        }
      ],
      "stateMutability": "view",
      "type": "function"
    },
    {
      "inputs": [
        {
          "internalType": "address",
          "name": "newOwner",
          "type": "address"
        }
      ],
      "name": "transferOwnership",
      "outputs": [],
      "stateMutability": "nonpayable",
      "type": "function"
    },
    {
      "inputs": [
        {
          "internalType": "address[]",
          "name": "_addresses",
          "type": "address[]"
        }
      ],
      "name": "epicWhiteLister",
      "outputs": [],
      "stateMutability": "nonpayable",
      "type": "function"
    },
    {
      "inputs": [
        {
          "internalType": "address[]",
          "name": "_addresses",
          "type": "address[]"
        }
      ],
      "name": "legendaryWhiteLister",
      "outputs": [],
      "stateMutability": "nonpayable",
      "type": "function"
    },
    {
      "inputs": [
        {
          "internalType": "address[]",
          "name": "_addresses",
          "type": "address[]"
        }
      ],
      "name": "rareWhiteLister",
      "outputs": [],
      "stateMutability": "nonpayable",
      "type": "function"
    },
    {
      "inputs": [
        {
          "internalType": "address[]",
          "name": "_addresses",
          "type": "address[]"
        }
      ],
      "name": "socialWhiteLister",
      "outputs": [],
      "stateMutability": "nonpayable",
      "type": "function"
    },
    {
      "inputs": [],
      "name": "claimNFTs",
      "outputs": [],
      "stateMutability": "nonpayable",
      "type": "function"
    }
  ],
  "bytecode": "0x60806040523480156200001157600080fd5b506040516200194a3803806200194a833981810160405260a08110156200003757600080fd5b8151602083018051604051929492938301929190846401000000008211156200005f57600080fd5b9083019060208201858111156200007557600080fd5b82516401000000008111828201881017156200009057600080fd5b82525081516020918201929091019080838360005b83811015620000bf578181015183820152602001620000a5565b50505050905090810190601f168015620000ed5780820380516001836020036101000a031916815260200191505b50604052602001805160405193929190846401000000008211156200011157600080fd5b9083019060208201858111156200012757600080fd5b82516401000000008111828201881017156200014257600080fd5b82525081516020918201929091019080838360005b838110156200017157818101518382015260200162000157565b50505050905090810190601f1680156200019f5780820380516001836020036101000a031916815260200191505b5060405260200180516040519392919084640100000000821115620001c357600080fd5b908301906020820185811115620001d957600080fd5b8251640100000000811182820188101715620001f457600080fd5b82525081516020918201929091019080838360005b838110156200022357818101518382015260200162000209565b50505050905090810190601f168015620002515780820380516001836020036101000a031916815260200191505b50604052602001805160405193929190846401000000008211156200027557600080fd5b9083019060208201858111156200028b57600080fd5b8251640100000000811182820188101715620002a657600080fd5b82525081516020918201929091019080838360005b83811015620002d5578181015183820152602001620002bb565b50505050905090810190601f168015620003035780820380516001836020036101000a031916815260200191505b5060405250505060006200031c620003e460201b60201c565b600080546001600160a01b0319166001600160a01b0383169081178255604051929350917f8be0079c531659141344cd1fd0a4f28419497f9722a3daafe3b4186f6b6457e0908290a350600180546001600160a01b0319166001600160a01b038716179055835162000396906002906020870190620003e9565b508251620003ac906003906020860190620003e9565b508151620003c2906004906020850190620003e9565b508051620003d8906005906020840190620003e9565b5050505050506200048b565b335b90565b828054600181600116156101000203166002900490600052602060002090601f016020900481019282601f106200042c57805160ff19168380011785556200045c565b828001600101855582156200045c579182015b828111156200045c5782518255916020019190600101906200043f565b506200046a9291506200046e565b5090565b620003e691905b808211156200046a576000815560010162000475565b6114af806200049b6000396000f3fe608060405234801561001057600080fd5b50600436106101735760003560e01c8063522aa2d2116100de578063aa4f3c8111610097578063c851bfea11610071578063c851bfea1461063c578063cda7a94414610662578063d8437b791461066a578063f2fde38b1461068757610173565b8063aa4f3c81146105d3578063ad6e2148146105f0578063b71363791461061657610173565b8063522aa2d21461047157806355a3130914610512578063608b2e3b1461051a578063715018a6146105bb578063876511c6146105c35780638da5cb5b146105cb57610173565b80632947bb43116101305780632947bb43146103a15780632b41c943146103da5780633e3547c7146103f757806343e110e31461041d578063488bb6d71461044357806349d51f1a1461046957610173565b80630657ae641461017857806309451c67146101b25780630d22df9e1461022f578063194d77891461023757806319b02dc3146102da5780631c0be1e71461037b575b600080fd5b61019e6004803603602081101561018e57600080fd5b50356001600160a01b03166106ad565b604080519115158252519081900360200190f35b6101ba6106c2565b6040805160208082528351818301528351919283929083019185019080838360005b838110156101f45781810151838201526020016101dc565b50505050905090810190601f1680156102215780820380516001836020036101000a031916815260200191505b509250505060405180910390f35b6101ba61074d565b6102d86004803603602081101561024d57600080fd5b810190602081018135600160201b81111561026757600080fd5b82018360208201111561027957600080fd5b803590602001918460208302840111600160201b8311171561029a57600080fd5b9190808060200260200160405190810160405280939291908181526020018383602002808284376000920191909152509295506107a8945050505050565b005b6102d8600480360360208110156102f057600080fd5b810190602081018135600160201b81111561030a57600080fd5b82018360208201111561031c57600080fd5b803590602001918460208302840111600160201b8311171561033d57600080fd5b9190808060200260200160405190810160405280939291908181526020018383602002808284376000920191909152509295506108b4945050505050565b61019e6004803603602081101561039157600080fd5b50356001600160a01b03166109bc565b6103be600480360360208110156103b757600080fd5b50356109d1565b604080516001600160a01b039092168252519081900360200190f35b6103be600480360360208110156103f057600080fd5b50356109f8565b61019e6004803603602081101561040d57600080fd5b50356001600160a01b0316610a05565b61019e6004803603602081101561043357600080fd5b50356001600160a01b0316610a1a565b61019e6004803603602081101561045957600080fd5b50356001600160a01b0316610a2f565b6101ba610a44565b6102d86004803603602081101561048757600080fd5b810190602081018135600160201b8111156104a157600080fd5b8201836020820111156104b357600080fd5b803590602001918460208302840111600160201b831117156104d457600080fd5b919080806020026020016040519081016040528093929190818152602001838360200280828437600092019190915250929550610a9f945050505050565b6102d8610ba7565b6102d86004803603602081101561053057600080fd5b810190602081018135600160201b81111561054a57600080fd5b82018360208201111561055c57600080fd5b803590602001918460208302840111600160201b8311171561057d57600080fd5b9190808060200260200160405190810160405280939291908181526020018383602002808284376000920191909152509295506110bb945050505050565b6102d86111c3565b6101ba611265565b6103be6112c0565b6103be600480360360208110156105e957600080fd5b50356112cf565b61019e6004803603602081101561060657600080fd5b50356001600160a01b03166112dc565b61019e6004803603602081101561062c57600080fd5b50356001600160a01b03166112f1565b61019e6004803603602081101561065257600080fd5b50356001600160a01b0316611306565b6103be61131b565b6103be6004803603602081101561068057600080fd5b503561132a565b6102d86004803603602081101561069d57600080fd5b50356001600160a01b0316611337565b600f6020526000908152604090205460ff1681565b6002805460408051602060018416156101000260001901909316849004601f810184900484028201840190925281815292918301828280156107455780601f1061071a57610100808354040283529160200191610745565b820191906000526020600020905b81548152906001019060200180831161072857829003601f168201915b505050505081565b6005805460408051602060026001851615610100026000190190941693909304601f810184900484028201840190925281815292918301828280156107455780601f1061071a57610100808354040283529160200191610745565b6107b061142f565b6000546001600160a01b03908116911614610800576040805162461bcd60e51b8152602060048201819052602482015260008051602061145a833981519152604482015290519081900360640190fd5b60005b81518110156108b0576001600a600084848151811061081e57fe5b60200260200101516001600160a01b03166001600160a01b0316815260200190815260200160002060006101000a81548160ff021916908315150217905550600682828151811061086b57fe5b60209081029190910181015182546001808201855560009485529290932090920180546001600160a01b0319166001600160a01b039093169290921790915501610803565b5050565b6108bc61142f565b6000546001600160a01b0390811691161461090c576040805162461bcd60e51b8152602060048201819052602482015260008051602061145a833981519152604482015290519081900360640190fd5b60005b81518110156108b0576001600d600084848151811061092a57fe5b60200260200101516001600160a01b03166001600160a01b0316815260200190815260200160002060006101000a81548160ff021916908315150217905550600982828151811061097757fe5b60209081029190910181015182546001808201855560009485529290932090920180546001600160a01b0319166001600160a01b03909316929092179091550161090f565b600e6020526000908152604090205460ff1681565b600881815481106109de57fe5b6000918252602090912001546001600160a01b0316905081565b600781815481106109de57fe5b600d6020526000908152604090205460ff1681565b600c6020526000908152604090205460ff1681565b600b6020526000908152604090205460ff1681565b6004805460408051602060026001851615610100026000190190941693909304601f810184900484028201840190925281815292918301828280156107455780601f1061071a57610100808354040283529160200191610745565b610aa761142f565b6000546001600160a01b03908116911614610af7576040805162461bcd60e51b8152602060048201819052602482015260008051602061145a833981519152604482015290519081900360640190fd5b60005b81518110156108b0576001600c6000848481518110610b1557fe5b60200260200101516001600160a01b03166001600160a01b0316815260200190815260200160002060006101000a81548160ff0219169083151502179055506008828281518110610b6257fe5b60209081029190910181015182546001808201855560009485529290932090920180546001600160a01b0319166001600160a01b039093169290921790915501610afa565b336000908152600a602052604090205460ff16151560011415610ce957336000908152600e602052604090205460ff1615610be157600080fd5b60018054604051638aec6a2360e01b81523360048201818152602483018590526060604484019081526002805460001981891615610100020116819004606486018190526001600160a01b0390961696638aec6a2396949590949193929160849091019084908015610c945780601f10610c6957610100808354040283529160200191610c94565b820191906000526020600020905b815481529060010190602001808311610c7757829003601f168201915b5050945050505050600060405180830381600087803b158015610cb657600080fd5b505af1158015610cca573d6000803e3d6000fd5b5050336000908152600e60205260409020805460ff1916600117905550505b336000908152600b602052604090205460ff16151560011415610e2f57336000908152600f602052604090205460ff1615610d2357600080fd5b60018054604051638aec6a2360e01b8152336004820181815260026024840181905260606044850190815260038054600019988116156101000298909801909716829004606486018190526001600160a01b0390961696638aec6a2396949592949093926084019084908015610dda5780601f10610daf57610100808354040283529160200191610dda565b820191906000526020600020905b815481529060010190602001808311610dbd57829003601f168201915b5050945050505050600060405180830381600087803b158015610dfc57600080fd5b505af1158015610e10573d6000803e3d6000fd5b5050336000908152600f60205260409020805460ff1916600117905550505b336000908152600c602052604090205460ff16151560011415610f74573360009081526010602052604090205460ff1615610e6957600080fd5b60018054604051638aec6a2360e01b8152336004828101828152600360248501819052606060448601908152835460026000199982161561010002999099011697909704606486018190526001600160a01b0390961696638aec6a23969495919490916084019084908015610f1f5780601f10610ef457610100808354040283529160200191610f1f565b820191906000526020600020905b815481529060010190602001808311610f0257829003601f168201915b5050945050505050600060405180830381600087803b158015610f4157600080fd5b505af1158015610f55573d6000803e3d6000fd5b5050336000908152601060205260409020805460ff1916600117905550505b336000908152600d602052604090205460ff161515600114156110b9573360009081526011602052604090205460ff1615610fae57600080fd5b60018054604051638aec6a2360e01b8152336004828101828152602484018290526060604485019081526005805460026000199982161561010002999099011697909704606486018190526001600160a01b0390961696638aec6a239694959394909360840190849080156110645780601f1061103957610100808354040283529160200191611064565b820191906000526020600020905b81548152906001019060200180831161104757829003601f168201915b5050945050505050600060405180830381600087803b15801561108657600080fd5b505af115801561109a573d6000803e3d6000fd5b5050336000908152601160205260409020805460ff1916600117905550505b565b6110c361142f565b6000546001600160a01b03908116911614611113576040805162461bcd60e51b8152602060048201819052602482015260008051602061145a833981519152604482015290519081900360640190fd5b60005b81518110156108b0576001600b600084848151811061113157fe5b60200260200101516001600160a01b03166001600160a01b0316815260200190815260200160002060006101000a81548160ff021916908315150217905550600782828151811061117e57fe5b60209081029190910181015182546001808201855560009485529290932090920180546001600160a01b0319166001600160a01b039093169290921790915501611116565b6111cb61142f565b6000546001600160a01b0390811691161461121b576040805162461bcd60e51b8152602060048201819052602482015260008051602061145a833981519152604482015290519081900360640190fd5b600080546040516001600160a01b03909116907f8be0079c531659141344cd1fd0a4f28419497f9722a3daafe3b4186f6b6457e0908390a3600080546001600160a01b0319169055565b6003805460408051602060026001851615610100026000190190941693909304601f810184900484028201840190925281815292918301828280156107455780601f1061071a57610100808354040283529160200191610745565b6000546001600160a01b031690565b600981815481106109de57fe5b60106020526000908152604090205460ff1681565b600a6020526000908152604090205460ff1681565b60116020526000908152604090205460ff1681565b6001546001600160a01b031681565b600681815481106109de57fe5b61133f61142f565b6000546001600160a01b0390811691161461138f576040805162461bcd60e51b8152602060048201819052602482015260008051602061145a833981519152604482015290519081900360640190fd5b6001600160a01b0381166113d45760405162461bcd60e51b81526004018080602001828103825260268152602001806114346026913960400191505060405180910390fd5b600080546040516001600160a01b03808516939216917f8be0079c531659141344cd1fd0a4f28419497f9722a3daafe3b4186f6b6457e091a3600080546001600160a01b0319166001600160a01b0392909216919091179055565b339056fe4f776e61626c653a206e6577206f776e657220697320746865207a65726f20616464726573734f776e61626c653a2063616c6c6572206973206e6f7420746865206f776e6572a26469706673582212207c0d38087f451762584d48dbc6093a26fd8a1201e9151cdb5946b59a4e0b495564736f6c63430006060033",
  "immutableReferences": {},
  "source": "pragma solidity ^0.6.0;\n\nimport \"@openzeppelin/contracts/access/Ownable.sol\";\nimport \"./WarpNFTFactory.sol\";\n\ncontract WarpNFTClaimControl is Ownable {\n  WarpNFTFactory public WNFTF;\n\n  string public epicURI;\n  string public legendaryURI;\n  string public rareURI;\n  string public socialURI;\n\n\n  address[] public epicList;\n  address[] public legendaryList;\n  address[] public rareList;\n  address[] public socialList;\n\n  mapping(address => bool) public epicWhiteList;\n  mapping(address => bool) public legendaryWhiteList;\n  mapping(address => bool) public rareWhiteList;\n  mapping(address => bool) public socialWhiteList;\n  mapping(address => bool) public epicClaimed;\n  mapping(address => bool) public legendaryClaimed;\n  mapping(address => bool) public rareClaimed;\n  mapping(address => bool) public socialClaimed;\n\n/**\n@notice the constructor function is fired only once during contract deployment\n@param _NFTfactory is the address of the WarpNFTFactory contract\n@param _epic is the URI specific to the epic NFT metadata\n@param _legendary is the URI specific to the legendary NFT metadata\n@param _rare is the URI specific to the rare NFT metadata\n@param _social is the URI specific to the social NFT metadata\n**/\n  constructor(\n    WarpNFTFactory _NFTfactory,\n    string memory _epic,\n    string memory _legendary,\n    string memory _rare,\n    string memory _social\n  ) public {\n    WNFTF = _NFTfactory;\n    epicURI = _epic;\n    legendaryURI = _legendary;\n    rareURI = _rare;\n    socialURI = _social;\n  }\n\n/**\n@notice epicWhiteLister takes in an array of addresses and whitelists them to receive the epic NFT\n@param _addresses is an array of addresses to be whitelisted\n@dev this function is protected by the onlyOwner modifier and can only be called by the owner of this contract\n**/\nfunction epicWhiteLister(address[] memory _addresses) public onlyOwner {\n    for (uint256 i = 0; i < _addresses.length; ++i) {\n        epicWhiteList[_addresses[i]] = true;\n        epicList.push(_addresses[i]);\n    }\n}\n\n/**\n@notice legendaryWhiteLister takes in an array of addresses and whitelists them to receive the legendary NFT\n@param _addresses is an array of addresses to be whitelisted\n@dev this function is protected by the onlyOwner modifier and can only be called by the owner of this contract\n**/\nfunction legendaryWhiteLister(address[] memory _addresses) public onlyOwner {\n    for (uint256 i = 0; i < _addresses.length; ++i) {\n        legendaryWhiteList[_addresses[i]] = true;\n        legendaryList.push(_addresses[i]);\n    }\n}\n\n/**\n@notice rareWhiteLister takes in an array of addresses and whitelists them to receive the rare NFT\n@param _addresses is an array of addresses to be whitelisted\n@dev this function is protected by the onlyOwner modifier and can only be called by the owner of this contract\n**/\nfunction rareWhiteLister(address[] memory _addresses) public onlyOwner {\n    for (uint256 i = 0; i < _addresses.length; ++i) {\n        rareWhiteList[_addresses[i]] = true;\n        rareList.push(_addresses[i]);\n    }\n}\n\n/**\n@notice socialWhiteLister takes in an array of addresses and whitelists them to receive the social NFT\n@param _addresses is an array of addresses to be whitelisted\n@dev this function is protected by the onlyOwner modifier and can only be called by the owner of this contract\n**/\nfunction socialWhiteLister(address[] memory _addresses) public onlyOwner {\n    for (uint256 i = 0; i < _addresses.length; ++i) {\n        socialWhiteList[_addresses[i]] = true;\n        socialList.push(_addresses[i]);\n    }\n}\n\n/**\n@notice claimNFTs is a public function that allows a end user to claim ALL of the NFT's they are owed by the warp platform\n@dev this function uses the address whitelists to distribute the appropriate NFT's to warp users\n@dev this function sets a tokens type when minting a new token. A tokens type can be used by other warp contracts\n      to determine what type of token a user holds\n      Type 1: Epic NFT\n      Type 2: Legendary NFT\n      Type 3: Rare NFT\n      Type 4: Social NFT\n**/\nfunction claimNFTs() public {\n\n  if(epicWhiteList[msg.sender] == true) {\n    require(epicClaimed[msg.sender] == false);\n    WNFTF.mintNewNFT(msg.sender, 1, epicURI);\n    epicClaimed[msg.sender] = true;\n  }\n\n  if(legendaryWhiteList[msg.sender] == true) {\n    require(legendaryClaimed[msg.sender] == false);\n    WNFTF.mintNewNFT(msg.sender, 2, legendaryURI);\n    legendaryClaimed[msg.sender] = true;\n  }\n\n  if(rareWhiteList[msg.sender] == true) {\n    require(rareClaimed[msg.sender] == false);\n    WNFTF.mintNewNFT(msg.sender, 3, rareURI);\n    rareClaimed[msg.sender] = true;\n  }\n\n  if(socialWhiteList[msg.sender] == true) {\n    require(socialClaimed[msg.sender] == false);\n    WNFTF.mintNewNFT(msg.sender, 4, socialURI);\n    socialClaimed[msg.sender] = true;\n  }\n\n}\n\n}\n",
  "sourcePath": "/home/stan36/repos/Warp/nft-distribute/contracts/WarpNFTClaimControl.sol",
  "compiler": {
    "name": "solc",
    "version": "0.6.6+commit.6c089d02.Emscripten.clang"
  },
  "schemaVersion": "3.3.2",
  "updatedAt": "2020-12-14T03:48:07.985Z",
  "devdoc": {
    "methods": {
      "claimNFTs()": {
        "details": "this function uses the address whitelists to distribute the appropriate NFT's to warp usersthis function sets a tokens type when minting a new token. A tokens type can be used by other warp contracts to determine what type of token a user holds Type 1: Epic NFT Type 2: Legendary NFT Type 3: Rare NFT Type 4: Social NFT*"
      },
      "constructor": {
        "params": {
          "_NFTfactory": "is the address of the WarpNFTFactory contract",
          "_epic": "is the URI specific to the epic NFT metadata",
          "_legendary": "is the URI specific to the legendary NFT metadata",
          "_rare": "is the URI specific to the rare NFT metadata",
          "_social": "is the URI specific to the social NFT metadata*"
        }
      },
      "epicWhiteLister(address[])": {
        "details": "this function is protected by the onlyOwner modifier and can only be called by the owner of this contract*",
        "params": {
          "_addresses": "is an array of addresses to be whitelisted"
        }
      },
      "legendaryWhiteLister(address[])": {
        "details": "this function is protected by the onlyOwner modifier and can only be called by the owner of this contract*",
        "params": {
          "_addresses": "is an array of addresses to be whitelisted"
        }
      },
      "owner()": {
        "details": "Returns the address of the current owner."
      },
      "rareWhiteLister(address[])": {
        "details": "this function is protected by the onlyOwner modifier and can only be called by the owner of this contract*",
        "params": {
          "_addresses": "is an array of addresses to be whitelisted"
        }
      },
      "renounceOwnership()": {
        "details": "Leaves the contract without owner. It will not be possible to call `onlyOwner` functions anymore. Can only be called by the current owner.     * NOTE: Renouncing ownership will leave the contract without an owner, thereby removing any functionality that is only available to the owner."
      },
      "socialWhiteLister(address[])": {
        "details": "this function is protected by the onlyOwner modifier and can only be called by the owner of this contract*",
        "params": {
          "_addresses": "is an array of addresses to be whitelisted"
        }
      },
      "transferOwnership(address)": {
        "details": "Transfers ownership of the contract to a new account (`newOwner`). Can only be called by the current owner."
      }
    }
  },
  "userdoc": {
    "methods": {
      "claimNFTs()": {
        "notice": "claimNFTs is a public function that allows a end user to claim ALL of the NFT's they are owed by the warp platform"
      },
      "constructor": "the constructor function is fired only once during contract deployment",
      "epicWhiteLister(address[])": {
        "notice": "epicWhiteLister takes in an array of addresses and whitelists them to receive the epic NFT"
      },
      "legendaryWhiteLister(address[])": {
        "notice": "legendaryWhiteLister takes in an array of addresses and whitelists them to receive the legendary NFT"
      },
      "rareWhiteLister(address[])": {
        "notice": "rareWhiteLister takes in an array of addresses and whitelists them to receive the rare NFT"
      },
      "socialWhiteLister(address[])": {
        "notice": "socialWhiteLister takes in an array of addresses and whitelists them to receive the social NFT"
      }
    }
  }
}