{
  "contractName": "WarpNFTClaimControl",
  "abi": [
    {
      "inputs": [
        {
          "internalType": "contract WarpNFTEpic",
          "name": "_NFTEpic",
          "type": "address"
        },
        {
          "internalType": "contract WarpNFTLegendary",
          "name": "_NFTLegendary",
          "type": "address"
        },
        {
          "internalType": "contract WarpNFTRare",
          "name": "_NFTRare",
          "type": "address"
        },
        {
          "internalType": "contract WarpNFTSocial",
          "name": "_NFTSocial",
          "type": "address"
        }
      ],
      "stateMutability": "nonpayable",
      "type": "constructor"
    },
    {
      "anonymous": false,
      "inputs": [
        {
          "indexed": true,
          "internalType": "address",
          "name": "previousOwner",
          "type": "address"
        },
        {
          "indexed": true,
          "internalType": "address",
          "name": "newOwner",
          "type": "address"
        }
      ],
      "name": "OwnershipTransferred",
      "type": "event"
    },
    {
      "inputs": [],
      "name": "WNFTE",
      "outputs": [
        {
          "internalType": "contract WarpNFTEpic",
          "name": "",
          "type": "address"
        }
      ],
      "stateMutability": "view",
      "type": "function",
      "constant": true
    },
    {
      "inputs": [],
      "name": "WNFTL",
      "outputs": [
        {
          "internalType": "contract WarpNFTLegendary",
          "name": "",
          "type": "address"
        }
      ],
      "stateMutability": "view",
      "type": "function",
      "constant": true
    },
    {
      "inputs": [],
      "name": "WNFTR",
      "outputs": [
        {
          "internalType": "contract WarpNFTRare",
          "name": "",
          "type": "address"
        }
      ],
      "stateMutability": "view",
      "type": "function",
      "constant": true
    },
    {
      "inputs": [],
      "name": "WNFTS",
      "outputs": [
        {
          "internalType": "contract WarpNFTSocial",
          "name": "",
          "type": "address"
        }
      ],
      "stateMutability": "view",
      "type": "function",
      "constant": true
    },
    {
      "inputs": [
        {
          "internalType": "address",
          "name": "",
          "type": "address"
        }
      ],
      "name": "epicClaimed",
      "outputs": [
        {
          "internalType": "bool",
          "name": "",
          "type": "bool"
        }
      ],
      "stateMutability": "view",
      "type": "function",
      "constant": true
    },
    {
      "inputs": [
        {
          "internalType": "uint256",
          "name": "",
          "type": "uint256"
        }
      ],
      "name": "epicList",
      "outputs": [
        {
          "internalType": "address",
          "name": "",
          "type": "address"
        }
      ],
      "stateMutability": "view",
      "type": "function",
      "constant": true
    },
    {
      "inputs": [
        {
          "internalType": "address",
          "name": "",
          "type": "address"
        }
      ],
      "name": "epicWhiteList",
      "outputs": [
        {
          "internalType": "bool",
          "name": "",
          "type": "bool"
        }
      ],
      "stateMutability": "view",
      "type": "function",
      "constant": true
    },
    {
      "inputs": [
        {
          "internalType": "address",
          "name": "",
          "type": "address"
        }
      ],
      "name": "legendaryClaimed",
      "outputs": [
        {
          "internalType": "bool",
          "name": "",
          "type": "bool"
        }
      ],
      "stateMutability": "view",
      "type": "function",
      "constant": true
    },
    {
      "inputs": [
        {
          "internalType": "uint256",
          "name": "",
          "type": "uint256"
        }
      ],
      "name": "legendaryList",
      "outputs": [
        {
          "internalType": "address",
          "name": "",
          "type": "address"
        }
      ],
      "stateMutability": "view",
      "type": "function",
      "constant": true
    },
    {
      "inputs": [
        {
          "internalType": "address",
          "name": "",
          "type": "address"
        }
      ],
      "name": "legendaryWhiteList",
      "outputs": [
        {
          "internalType": "bool",
          "name": "",
          "type": "bool"
        }
      ],
      "stateMutability": "view",
      "type": "function",
      "constant": true
    },
    {
      "inputs": [],
      "name": "owner",
      "outputs": [
        {
          "internalType": "address",
          "name": "",
          "type": "address"
        }
      ],
      "stateMutability": "view",
      "type": "function",
      "constant": true
    },
    {
      "inputs": [
        {
          "internalType": "address",
          "name": "",
          "type": "address"
        }
      ],
      "name": "rareClaimed",
      "outputs": [
        {
          "internalType": "bool",
          "name": "",
          "type": "bool"
        }
      ],
      "stateMutability": "view",
      "type": "function",
      "constant": true
    },
    {
      "inputs": [
        {
          "internalType": "uint256",
          "name": "",
          "type": "uint256"
        }
      ],
      "name": "rareList",
      "outputs": [
        {
          "internalType": "address",
          "name": "",
          "type": "address"
        }
      ],
      "stateMutability": "view",
      "type": "function",
      "constant": true
    },
    {
      "inputs": [
        {
          "internalType": "address",
          "name": "",
          "type": "address"
        }
      ],
      "name": "rareWhiteList",
      "outputs": [
        {
          "internalType": "bool",
          "name": "",
          "type": "bool"
        }
      ],
      "stateMutability": "view",
      "type": "function",
      "constant": true
    },
    {
      "inputs": [],
      "name": "renounceOwnership",
      "outputs": [],
      "stateMutability": "nonpayable",
      "type": "function"
    },
    {
      "inputs": [
        {
          "internalType": "address",
          "name": "",
          "type": "address"
        }
      ],
      "name": "socialClaimed",
      "outputs": [
        {
          "internalType": "bool",
          "name": "",
          "type": "bool"
        }
      ],
      "stateMutability": "view",
      "type": "function",
      "constant": true
    },
    {
      "inputs": [
        {
          "internalType": "uint256",
          "name": "",
          "type": "uint256"
        }
      ],
      "name": "socialList",
      "outputs": [
        {
          "internalType": "address",
          "name": "",
          "type": "address"
        }
      ],
      "stateMutability": "view",
      "type": "function",
      "constant": true
    },
    {
      "inputs": [
        {
          "internalType": "address",
          "name": "",
          "type": "address"
        }
      ],
      "name": "socialWhiteList",
      "outputs": [
        {
          "internalType": "bool",
          "name": "",
          "type": "bool"
        }
      ],
      "stateMutability": "view",
      "type": "function",
      "constant": true
    },
    {
      "inputs": [
        {
          "internalType": "address",
          "name": "newOwner",
          "type": "address"
        }
      ],
      "name": "transferOwnership",
      "outputs": [],
      "stateMutability": "nonpayable",
      "type": "function"
    },
    {
      "inputs": [
        {
          "internalType": "address[]",
          "name": "_addresses",
          "type": "address[]"
        }
      ],
      "name": "epicWhiteLister",
      "outputs": [],
      "stateMutability": "nonpayable",
      "type": "function"
    },
    {
      "inputs": [
        {
          "internalType": "address[]",
          "name": "_addresses",
          "type": "address[]"
        }
      ],
      "name": "legendaryWhiteLister",
      "outputs": [],
      "stateMutability": "nonpayable",
      "type": "function"
    },
    {
      "inputs": [
        {
          "internalType": "address[]",
          "name": "_addresses",
          "type": "address[]"
        }
      ],
      "name": "rareWhiteLister",
      "outputs": [],
      "stateMutability": "nonpayable",
      "type": "function"
    },
    {
      "inputs": [
        {
          "internalType": "address[]",
          "name": "_addresses",
          "type": "address[]"
        }
      ],
      "name": "socialWhiteLister",
      "outputs": [],
      "stateMutability": "nonpayable",
      "type": "function"
    },
    {
      "inputs": [],
      "name": "claimNFTs",
      "outputs": [],
      "stateMutability": "nonpayable",
      "type": "function"
    },
    {
      "inputs": [
        {
          "internalType": "address",
          "name": "_newCCadd",
          "type": "address"
        }
      ],
      "name": "upgradeClaimControl",
      "outputs": [],
      "stateMutability": "nonpayable",
      "type": "function"
    },
    {
      "inputs": [
        {
          "internalType": "string",
          "name": "_newURI",
          "type": "string"
        }
      ],
      "name": "updateEpicURI",
      "outputs": [],
      "stateMutability": "nonpayable",
      "type": "function"
    },
    {
      "inputs": [
        {
          "internalType": "string",
          "name": "_newURI",
          "type": "string"
        }
      ],
      "name": "updateLegendaryURI",
      "outputs": [],
      "stateMutability": "nonpayable",
      "type": "function"
    },
    {
      "inputs": [
        {
          "internalType": "string",
          "name": "_newURI",
          "type": "string"
        }
      ],
      "name": "updateRareURI",
      "outputs": [],
      "stateMutability": "nonpayable",
      "type": "function"
    },
    {
      "inputs": [
        {
          "internalType": "string",
          "name": "_newURI",
          "type": "string"
        }
      ],
      "name": "updateSocialURI",
      "outputs": [],
      "stateMutability": "nonpayable",
      "type": "function"
    },
    {
      "inputs": [
        {
          "internalType": "address",
          "name": "_account",
          "type": "address"
        }
      ],
      "name": "hasEpic",
      "outputs": [
        {
          "internalType": "bool",
          "name": "",
          "type": "bool"
        }
      ],
      "stateMutability": "view",
      "type": "function",
      "constant": true
    },
    {
      "inputs": [
        {
          "internalType": "address",
          "name": "_account",
          "type": "address"
        }
      ],
      "name": "hasLegendary",
      "outputs": [
        {
          "internalType": "bool",
          "name": "",
          "type": "bool"
        }
      ],
      "stateMutability": "view",
      "type": "function",
      "constant": true
    },
    {
      "inputs": [
        {
          "internalType": "address",
          "name": "_account",
          "type": "address"
        }
      ],
      "name": "hasRare",
      "outputs": [
        {
          "internalType": "bool",
          "name": "",
          "type": "bool"
        }
      ],
      "stateMutability": "view",
      "type": "function",
      "constant": true
    },
    {
      "inputs": [
        {
          "internalType": "address",
          "name": "_account",
          "type": "address"
        }
      ],
      "name": "hasSocial",
      "outputs": [
        {
          "internalType": "bool",
          "name": "",
          "type": "bool"
        }
      ],
      "stateMutability": "view",
      "type": "function",
      "constant": true
    },
    {
      "inputs": [
        {
          "internalType": "address",
          "name": "_account",
          "type": "address"
        }
      ],
      "name": "canClaim",
      "outputs": [
        {
          "internalType": "bool",
          "name": "",
          "type": "bool"
        }
      ],
      "stateMutability": "view",
      "type": "function",
      "constant": true
    }
  ],
  "bytecode": "0x608060405234801561001057600080fd5b50604051611d9c380380611d9c8339818101604052608081101561003357600080fd5b5080516020820151604083015160609093015191929091600061005d6001600160e01b036100fa16565b600080546001600160a01b0319166001600160a01b0383169081178255604051929350917f8be0079c531659141344cd1fd0a4f28419497f9722a3daafe3b4186f6b6457e0908290a350600180546001600160a01b039586166001600160a01b03199182161790915560028054948616948216949094179093556003805492851692841692909217909155600480549190931691161790556100fe565b3390565b611c8f8061010d6000396000f3fe608060405234801561001057600080fd5b50600436106102065760003560e01c8063612004051161011a578063ad6e2148116100ad578063c851bfea1161007c578063c851bfea14610922578063d8437b7914610948578063deaf0a0a14610965578063f18e22f914610a09578063f2fde38b14610a1157610206565b8063ad6e21481461088a578063b7136379146108b0578063bbe55b89146108d6578063bf3506c1146108fc57610206565b806386a8d8eb116100e957806386a8d8eb146108375780638da5cb5b1461085d578063970aa03614610865578063aa4f3c811461086d57610206565b8063612004051461077b57806369d23351146107835780636c8162331461078b578063715018a61461082f57610206565b80632b41c9431161019d578063488bb6d71161016c578063488bb6d714610567578063522aa2d21461058d57806355a313091461062e57806356cc63a014610636578063608b2e3b146106da57610206565b80632b41c943146104d85780633a9011bf146104f55780633e3547c71461051b57806343e110e31461054157610206565b80631c0be1e7116101d95780631c0be1e7146103af57806321d63d5b146103d557806326395b28146104795780632947bb431461049f57610206565b80630657ae641461020b5780630b040aec14610245578063194d77891461026d57806319b02dc31461030e575b600080fd5b6102316004803603602081101561022157600080fd5b50356001600160a01b0316610a37565b604080519115158252519081900360200190f35b61026b6004803603602081101561025b57600080fd5b50356001600160a01b0316610a4c565b005b61026b6004803603602081101561028357600080fd5b810190602081018135600160201b81111561029d57600080fd5b8201836020820111156102af57600080fd5b803590602001918460208302840111600160201b831117156102d057600080fd5b919080806020026020016040519081016040528093929190818152602001838360200280828437600092019190915250929550610c43945050505050565b61026b6004803603602081101561032457600080fd5b810190602081018135600160201b81111561033e57600080fd5b82018360208201111561035057600080fd5b803590602001918460208302840111600160201b8311171561037157600080fd5b919080806020026020016040519081016040528093929190818152602001838360200280828437600092019190915250929550610d4f945050505050565b610231600480360360208110156103c557600080fd5b50356001600160a01b0316610e57565b61026b600480360360208110156103eb57600080fd5b810190602081018135600160201b81111561040557600080fd5b82018360208201111561041757600080fd5b803590602001918460018302840111600160201b8311171561043857600080fd5b91908080601f016020809104026020016040519081016040528093929190818152602001838380828437600092019190915250929550610e6c945050505050565b6102316004803603602081101561048f57600080fd5b50356001600160a01b0316610f70565b6104bc600480360360208110156104b557600080fd5b5035611008565b604080516001600160a01b039092168252519081900360200190f35b6104bc600480360360208110156104ee57600080fd5b503561102f565b6102316004803603602081101561050b57600080fd5b50356001600160a01b031661103c565b6102316004803603602081101561053157600080fd5b50356001600160a01b031661108b565b6102316004803603602081101561055757600080fd5b50356001600160a01b03166110a0565b6102316004803603602081101561057d57600080fd5b50356001600160a01b03166110b5565b61026b600480360360208110156105a357600080fd5b810190602081018135600160201b8111156105bd57600080fd5b8201836020820111156105cf57600080fd5b803590602001918460208302840111600160201b831117156105f057600080fd5b9190808060200260200160405190810160405280939291908181526020018383602002808284376000920191909152509295506110ca945050505050565b61026b6111d2565b61026b6004803603602081101561064c57600080fd5b810190602081018135600160201b81111561066657600080fd5b82018360208201111561067857600080fd5b803590602001918460018302840111600160201b8311171561069957600080fd5b91908080601f0160208091040260200160405190810160405280939291908181526020018383808284376000920191909152509295506114b5945050505050565b61026b600480360360208110156106f057600080fd5b810190602081018135600160201b81111561070a57600080fd5b82018360208201111561071c57600080fd5b803590602001918460208302840111600160201b8311171561073d57600080fd5b91908080602002602001604051908101604052809392919081815260200183836020028082843760009201919091525092955061156a945050505050565b6104bc611672565b6104bc611681565b61026b600480360360208110156107a157600080fd5b810190602081018135600160201b8111156107bb57600080fd5b8201836020820111156107cd57600080fd5b803590602001918460018302840111600160201b831117156107ee57600080fd5b91908080601f016020809104026020016040519081016040528093929190818152602001838380828437600092019190915250929550611690945050505050565b61026b611745565b6102316004803603602081101561084d57600080fd5b50356001600160a01b03166117e7565b6104bc611836565b6104bc611845565b6104bc6004803603602081101561088357600080fd5b5035611854565b610231600480360360208110156108a057600080fd5b50356001600160a01b0316611861565b610231600480360360208110156108c657600080fd5b50356001600160a01b0316611876565b610231600480360360208110156108ec57600080fd5b50356001600160a01b031661188b565b6102316004803603602081101561091257600080fd5b50356001600160a01b03166118dd565b6102316004803603602081101561093857600080fd5b50356001600160a01b0316611a31565b6104bc6004803603602081101561095e57600080fd5b5035611a46565b61026b6004803603602081101561097b57600080fd5b810190602081018135600160201b81111561099557600080fd5b8201836020820111156109a757600080fd5b803590602001918460018302840111600160201b831117156109c857600080fd5b91908080601f016020809104026020016040519081016040528093929190818152602001838380828437600092019190915250929550611a53945050505050565b6104bc611b08565b61026b60048036036020811015610a2757600080fd5b50356001600160a01b0316611b17565b600e6020526000908152604090205460ff1681565b610a54611c0f565b6000546001600160a01b03908116911614610aa4576040805162461bcd60e51b81526020600482018190526024820152600080516020611c3a833981519152604482015290519081900360640190fd5b6001546040805163f2fde38b60e01b81526001600160a01b0384811660048301529151919092169163f2fde38b91602480830192600092919082900301818387803b158015610af257600080fd5b505af1158015610b06573d6000803e3d6000fd5b50506002546040805163f2fde38b60e01b81526001600160a01b038681166004830152915191909216935063f2fde38b9250602480830192600092919082900301818387803b158015610b5857600080fd5b505af1158015610b6c573d6000803e3d6000fd5b50506003546040805163f2fde38b60e01b81526001600160a01b038681166004830152915191909216935063f2fde38b9250602480830192600092919082900301818387803b158015610bbe57600080fd5b505af1158015610bd2573d6000803e3d6000fd5b5050600480546040805163f2fde38b60e01b81526001600160a01b0387811694820194909452905192909116935063f2fde38b925060248082019260009290919082900301818387803b158015610c2857600080fd5b505af1158015610c3c573d6000803e3d6000fd5b5050505050565b610c4b611c0f565b6000546001600160a01b03908116911614610c9b576040805162461bcd60e51b81526020600482018190526024820152600080516020611c3a833981519152604482015290519081900360640190fd5b60005b8151811015610d4b57600160096000848481518110610cb957fe5b60200260200101516001600160a01b03166001600160a01b0316815260200190815260200160002060006101000a81548160ff0219169083151502179055506005828281518110610d0657fe5b60209081029190910181015182546001808201855560009485529290932090920180546001600160a01b0319166001600160a01b039093169290921790915501610c9e565b5050565b610d57611c0f565b6000546001600160a01b03908116911614610da7576040805162461bcd60e51b81526020600482018190526024820152600080516020611c3a833981519152604482015290519081900360640190fd5b60005b8151811015610d4b576001600c6000848481518110610dc557fe5b60200260200101516001600160a01b03166001600160a01b0316815260200190815260200160002060006101000a81548160ff0219169083151502179055506008828281518110610e1257fe5b60209081029190910181015182546001808201855560009485529290932090920180546001600160a01b0319166001600160a01b039093169290921790915501610daa565b600d6020526000908152604090205460ff1681565b610e74611c0f565b6000546001600160a01b03908116911614610ec4576040805162461bcd60e51b81526020600482018190526024820152600080516020611c3a833981519152604482015290519081900360640190fd5b600254604051630d3c52bd60e31b81526020600482018181528451602484015284516001600160a01b03909416936369e295e893869383926044909201919085019080838360005b83811015610f24578181015183820152602001610f0c565b50505050905090810190601f168015610f515780820380516001836020036101000a031916815260200191505b5092505050600060405180830381600087803b158015610c2857600080fd5b600154604080516370a0823160e01b81526001600160a01b0384811660048301529151600093849316916370a08231916024808301926020929190829003018186803b158015610fbf57600080fd5b505afa158015610fd3573d6000803e3d6000fd5b505050506040513d6020811015610fe957600080fd5b505190508015610ffd576001915050611003565b60009150505b919050565b6007818154811061101557fe5b6000918252602090912001546001600160a01b0316905081565b6006818154811061101557fe5b600354604080516370a0823160e01b81526001600160a01b0384811660048301529151600093849316916370a08231916024808301926020929190829003018186803b158015610fbf57600080fd5b600c6020526000908152604090205460ff1681565b600b6020526000908152604090205460ff1681565b600a6020526000908152604090205460ff1681565b6110d2611c0f565b6000546001600160a01b03908116911614611122576040805162461bcd60e51b81526020600482018190526024820152600080516020611c3a833981519152604482015290519081900360640190fd5b60005b8151811015610d4b576001600b600084848151811061114057fe5b60200260200101516001600160a01b03166001600160a01b0316815260200190815260200160002060006101000a81548160ff021916908315150217905550600782828151811061118d57fe5b60209081029190910181015182546001808201855560009485529290932090920180546001600160a01b0319166001600160a01b039093169290921790915501611125565b3360009081526009602052604090205460ff16151560011480156112065750336000908152600d602052604090205460ff16155b1561128a57600154604080516365568ecb60e01b815233600482015290516001600160a01b03909216916365568ecb9160248082019260009290919082900301818387803b15801561125757600080fd5b505af115801561126b573d6000803e3d6000fd5b5050336000908152600d60205260409020805460ff1916600117905550505b336000908152600a602052604090205460ff16151560011480156112be5750336000908152600e602052604090205460ff16155b1561134257600254604080516365568ecb60e01b815233600482015290516001600160a01b03909216916365568ecb9160248082019260009290919082900301818387803b15801561130f57600080fd5b505af1158015611323573d6000803e3d6000fd5b5050336000908152600e60205260409020805460ff1916600117905550505b336000908152600b602052604090205460ff16151560011480156113765750336000908152600f602052604090205460ff16155b156113fa57600354604080516365568ecb60e01b815233600482015290516001600160a01b03909216916365568ecb9160248082019260009290919082900301818387803b1580156113c757600080fd5b505af11580156113db573d6000803e3d6000fd5b5050336000908152600f60205260409020805460ff1916600117905550505b336000908152600c602052604090205460ff161515600114801561142e57503360009081526010602052604090205460ff16155b156114b35760048054604080516365568ecb60e01b81523393810193909352516001600160a01b03909116916365568ecb91602480830192600092919082900301818387803b15801561148057600080fd5b505af1158015611494573d6000803e3d6000fd5b5050336000908152601060205260409020805460ff1916600117905550505b565b6114bd611c0f565b6000546001600160a01b0390811691161461150d576040805162461bcd60e51b81526020600482018190526024820152600080516020611c3a833981519152604482015290519081900360640190fd5b600154604051630d3c52bd60e31b81526020600482018181528451602484015284516001600160a01b03909416936369e295e893869383926044909201919085019080838360008315610f24578181015183820152602001610f0c565b611572611c0f565b6000546001600160a01b039081169116146115c2576040805162461bcd60e51b81526020600482018190526024820152600080516020611c3a833981519152604482015290519081900360640190fd5b60005b8151811015610d4b576001600a60008484815181106115e057fe5b60200260200101516001600160a01b03166001600160a01b0316815260200190815260200160002060006101000a81548160ff021916908315150217905550600682828151811061162d57fe5b60209081029190910181015182546001808201855560009485529290932090920180546001600160a01b0319166001600160a01b0390931692909217909155016115c5565b6001546001600160a01b031681565b6002546001600160a01b031681565b611698611c0f565b6000546001600160a01b039081169116146116e8576040805162461bcd60e51b81526020600482018190526024820152600080516020611c3a833981519152604482015290519081900360640190fd5b60048054604051630d3c52bd60e31b815260209281018381528451602483015284516001600160a01b03909316936369e295e893869383926044909101919085019080838360008315610f24578181015183820152602001610f0c565b61174d611c0f565b6000546001600160a01b0390811691161461179d576040805162461bcd60e51b81526020600482018190526024820152600080516020611c3a833981519152604482015290519081900360640190fd5b600080546040516001600160a01b03909116907f8be0079c531659141344cd1fd0a4f28419497f9722a3daafe3b4186f6b6457e0908390a3600080546001600160a01b0319169055565b600254604080516370a0823160e01b81526001600160a01b0384811660048301529151600093849316916370a08231916024808301926020929190829003018186803b158015610fbf57600080fd5b6000546001600160a01b031690565b6004546001600160a01b031681565b6008818154811061101557fe5b600f6020526000908152604090205460ff1681565b60096020526000908152604090205460ff1681565b60048054604080516370a0823160e01b81526001600160a01b03858116948201949094529051600093849316916370a08231916024808301926020929190829003018186803b158015610fbf57600080fd5b6001600160a01b03811660009081526009602052604081205460ff161515600114801561192357506001600160a01b0382166000908152600d602052604090205460ff16155b1561193057506001611003565b6001600160a01b0382166000908152600a602052604090205460ff161515600114801561197657506001600160a01b0382166000908152600e602052604090205460ff16155b1561198357506001611003565b6001600160a01b0382166000908152600b602052604090205460ff16151560011480156119c957506001600160a01b0382166000908152600f602052604090205460ff16155b156119d657506001611003565b6001600160a01b0382166000908152600c602052604090205460ff1615156001148015611a1c57506001600160a01b03821660009081526010602052604090205460ff16155b15611a2957506001611003565b506000611003565b60106020526000908152604090205460ff1681565b6005818154811061101557fe5b611a5b611c0f565b6000546001600160a01b03908116911614611aab576040805162461bcd60e51b81526020600482018190526024820152600080516020611c3a833981519152604482015290519081900360640190fd5b600354604051630d3c52bd60e31b81526020600482018181528451602484015284516001600160a01b03909416936369e295e893869383926044909201919085019080838360008315610f24578181015183820152602001610f0c565b6003546001600160a01b031681565b611b1f611c0f565b6000546001600160a01b03908116911614611b6f576040805162461bcd60e51b81526020600482018190526024820152600080516020611c3a833981519152604482015290519081900360640190fd5b6001600160a01b038116611bb45760405162461bcd60e51b8152600401808060200182810382526026815260200180611c146026913960400191505060405180910390fd5b600080546040516001600160a01b03808516939216917f8be0079c531659141344cd1fd0a4f28419497f9722a3daafe3b4186f6b6457e091a3600080546001600160a01b0319166001600160a01b0392909216919091179055565b339056fe4f776e61626c653a206e6577206f776e657220697320746865207a65726f20616464726573734f776e61626c653a2063616c6c6572206973206e6f7420746865206f776e6572a26469706673582212200815f7e7a748dd1c2e7c8c9723a33097c58a0b335389ea472b3f29ee11e2d8ff64736f6c63430006060033",
  "immutableReferences": {},
  "source": "pragma solidity ^0.6.0;\n\nimport \"@openzeppelin/contracts/access/Ownable.sol\";\nimport \"./WarpNFTEpic.sol\";\nimport \"./WarpNFTLegendary.sol\";\nimport \"./WarpNFTRare.sol\";\nimport \"./WarpNFTSocial.sol\";\n\ncontract WarpNFTClaimControl is Ownable {\n  WarpNFTEpic public WNFTE;\n  WarpNFTLegendary public WNFTL;\n  WarpNFTRare public WNFTR;\n  WarpNFTSocial public WNFTS;\n\n\n\n  address[] public epicList;\n  address[] public legendaryList;\n  address[] public rareList;\n  address[] public socialList;\n\n  mapping(address => bool) public epicWhiteList;\n  mapping(address => bool) public legendaryWhiteList;\n  mapping(address => bool) public rareWhiteList;\n  mapping(address => bool) public socialWhiteList;\n\n  mapping(address => bool) public epicClaimed;\n  mapping(address => bool) public legendaryClaimed;\n  mapping(address => bool) public rareClaimed;\n  mapping(address => bool) public socialClaimed;\n\n/**\n@notice the constructor function is fired only once during contract deployment\n\n**/\n  constructor(\n    WarpNFTEpic _NFTEpic,\n    WarpNFTLegendary _NFTLegendary,\n    WarpNFTRare _NFTRare,\n    WarpNFTSocial _NFTSocial\n  ) public {\n    WNFTE = _NFTEpic;\n    WNFTL = _NFTLegendary;\n    WNFTR = _NFTRare;\n    WNFTS = _NFTSocial;\n  }\n\n/**\n@notice epicWhiteLister takes in an array of addresses and whitelists them to receive the epic NFT\n@param _addresses is an array of addresses to be whitelisted\n@dev this function is protected by the onlyOwner modifier and can only be called by the owner of this contract\n**/\nfunction epicWhiteLister(address[] memory _addresses) public onlyOwner {\n    for (uint256 i = 0; i < _addresses.length; ++i) {\n        epicWhiteList[_addresses[i]] = true;\n        epicList.push(_addresses[i]);\n    }\n}\n\n/**\n@notice legendaryWhiteLister takes in an array of addresses and whitelists them to receive the legendary NFT\n@param _addresses is an array of addresses to be whitelisted\n@dev this function is protected by the onlyOwner modifier and can only be called by the owner of this contract\n**/\nfunction legendaryWhiteLister(address[] memory _addresses) public onlyOwner {\n    for (uint256 i = 0; i < _addresses.length; ++i) {\n        legendaryWhiteList[_addresses[i]] = true;\n        legendaryList.push(_addresses[i]);\n    }\n}\n\n/**\n@notice rareWhiteLister takes in an array of addresses and whitelists them to receive the rare NFT\n@param _addresses is an array of addresses to be whitelisted\n@dev this function is protected by the onlyOwner modifier and can only be called by the owner of this contract\n**/\nfunction rareWhiteLister(address[] memory _addresses) public onlyOwner {\n    for (uint256 i = 0; i < _addresses.length; ++i) {\n        rareWhiteList[_addresses[i]] = true;\n        rareList.push(_addresses[i]);\n    }\n}\n\n/**\n@notice socialWhiteLister takes in an array of addresses and whitelists them to receive the social NFT\n@param _addresses is an array of addresses to be whitelisted\n@dev this function is protected by the onlyOwner modifier and can only be called by the owner of this contract\n**/\nfunction socialWhiteLister(address[] memory _addresses) public onlyOwner {\n    for (uint256 i = 0; i < _addresses.length; ++i) {\n        socialWhiteList[_addresses[i]] = true;\n        socialList.push(_addresses[i]);\n    }\n}\n\n/**\n@notice claimNFTs is a public function that allows a end user to claim ALL of the NFT's they are owed by the warp platform\n@dev this function uses the address whitelists to distribute the appropriate NFT's to warp users\n@dev this function sets a tokens type when minting a new token. A tokens type can be used by other warp contracts\n      to determine what type of token a user holds\n      Type 1: Epic NFT\n      Type 2: Legendary NFT\n      Type 3: Rare NFT\n      Type 4: Social NFT\n**/\nfunction claimNFTs() public {\n\n  if(epicWhiteList[msg.sender] == true && epicClaimed[msg.sender] == false) {\n    WNFTE.mintNewNFT(msg.sender);\n    epicClaimed[msg.sender] = true;\n  }\n\n  if(legendaryWhiteList[msg.sender] == true && legendaryClaimed[msg.sender] == false) {\n    WNFTL.mintNewNFT(msg.sender);\n    legendaryClaimed[msg.sender] = true;\n  }\n\n  if(rareWhiteList[msg.sender] == true && rareClaimed[msg.sender] == false) {\n    WNFTR.mintNewNFT(msg.sender);\n    rareClaimed[msg.sender] = true;\n  }\n\n  if(socialWhiteList[msg.sender] == true && socialClaimed[msg.sender] == false) {\n    WNFTS.mintNewNFT(msg.sender);\n    socialClaimed[msg.sender] = true;\n  }\n}\n/**\n@notice upgradeClaimControl allows the owner of this contract to transfer ownership of all of the\n        NFT contracts to a new claim control contract in the case of a future upgrade\n@param _newCCadd is the address of the new Claim control contract\n**/\nfunction upgradeClaimControl(address _newCCadd) public onlyOwner {\n  WNFTE.transferOwnership(_newCCadd);\n  WNFTL.transferOwnership(_newCCadd);\n  WNFTR.transferOwnership(_newCCadd);\n  WNFTS.transferOwnership(_newCCadd);\n}\n\n/**\n@notice updateEpicURI allows the owner of this contract to update the stored URI\n@param _newURI is the new URI for the tokens\n**/\nfunction updateEpicURI(string memory _newURI) public onlyOwner {\n  WNFTE.updateAllURIs(_newURI);\n}\n/**\nnotice updateLegendaryURI allows the owner of this contract to update the stored URI\nparam _newURI is the new URI for the tokens\n**/\nfunction updateLegendaryURI(string memory _newURI) public onlyOwner {\n  WNFTL.updateAllURIs(_newURI);\n}\n\n/**\n@notice updateRareURI allows the owner of this contract to update the stored URI\n@param _newURI is the new URI for the tokens\n**/\nfunction updateRareURI(string memory _newURI) public onlyOwner {\n  WNFTR.updateAllURIs(_newURI);\n}\n/**\n@notice updateSocialURI allows the owner of this contract to update the stored URI\n@param _newURI is the new URI for the tokens\n**/\nfunction updateSocialURI(string memory _newURI) public onlyOwner {\n  WNFTS.updateAllURIs(_newURI);\n}\n\n///view function to check if an account holds a certain NFT\nfunction hasEpic(address _account) public view returns(bool) {\n  uint numOfTokens = WNFTE.balanceOf(_account);\n  if(numOfTokens > 0) {\n    return true;\n  } else {\n    return false;\n  }\n}\n\nfunction hasLegendary(address _account) public view returns(bool) {\n  uint numOfTokens = WNFTL.balanceOf(_account);\n  if(numOfTokens > 0) {\n    return true;\n  } else {\n    return false;\n  }\n}\n\nfunction hasRare(address _account) public view returns(bool) {\n  uint numOfTokens = WNFTR.balanceOf(_account);\n  if(numOfTokens > 0) {\n    return true;\n  } else {\n    return false;\n  }\n}\n\nfunction hasSocial(address _account) public view returns(bool) {\n  uint numOfTokens = WNFTS.balanceOf(_account);\n  if(numOfTokens > 0) {\n    return true;\n  } else {\n    return false;\n  }\n}\n\n///view function to check if an account has claimed their NFTs\nfunction canClaim(address _account) public view returns(bool) {\n  if(epicWhiteList[_account] == true && epicClaimed[_account] == false) {\n    return true;\n  } else if(legendaryWhiteList[_account] == true && legendaryClaimed[_account] == false) {\n    return true;\n  } else if(rareWhiteList[_account] == true && rareClaimed[_account] == false) {\n    return true;\n  } else if(socialWhiteList[_account] == true && socialClaimed[_account] == false) {\n    return true;\n  } else {\n    return false;\n  }\n}\n\n\n}\n",
  "sourcePath": "/home/stan36/repos/Warp/nft-distribute/contracts/WarpNFTClaimControl.sol",
  "compiler": {
    "name": "solc",
    "version": "0.6.6+commit.6c089d02.Emscripten.clang"
  },
  "schemaVersion": "3.3.2",
  "updatedAt": "2020-12-16T00:47:53.177Z",
  "networkType": "ethereum",
  "devdoc": {
    "methods": {
      "claimNFTs()": {
        "details": "this function uses the address whitelists to distribute the appropriate NFT's to warp usersthis function sets a tokens type when minting a new token. A tokens type can be used by other warp contracts to determine what type of token a user holds Type 1: Epic NFT Type 2: Legendary NFT Type 3: Rare NFT Type 4: Social NFT*"
      },
      "epicWhiteLister(address[])": {
        "details": "this function is protected by the onlyOwner modifier and can only be called by the owner of this contract*",
        "params": {
          "_addresses": "is an array of addresses to be whitelisted"
        }
      },
      "legendaryWhiteLister(address[])": {
        "details": "this function is protected by the onlyOwner modifier and can only be called by the owner of this contract*",
        "params": {
          "_addresses": "is an array of addresses to be whitelisted"
        }
      },
      "owner()": {
        "details": "Returns the address of the current owner."
      },
      "rareWhiteLister(address[])": {
        "details": "this function is protected by the onlyOwner modifier and can only be called by the owner of this contract*",
        "params": {
          "_addresses": "is an array of addresses to be whitelisted"
        }
      },
      "renounceOwnership()": {
        "details": "Leaves the contract without owner. It will not be possible to call `onlyOwner` functions anymore. Can only be called by the current owner.     * NOTE: Renouncing ownership will leave the contract without an owner, thereby removing any functionality that is only available to the owner."
      },
      "socialWhiteLister(address[])": {
        "details": "this function is protected by the onlyOwner modifier and can only be called by the owner of this contract*",
        "params": {
          "_addresses": "is an array of addresses to be whitelisted"
        }
      },
      "transferOwnership(address)": {
        "details": "Transfers ownership of the contract to a new account (`newOwner`). Can only be called by the current owner."
      },
      "updateEpicURI(string)": {
        "params": {
          "_newURI": "is the new URI for the tokens*"
        }
      },
      "updateRareURI(string)": {
        "params": {
          "_newURI": "is the new URI for the tokens*"
        }
      },
      "updateSocialURI(string)": {
        "params": {
          "_newURI": "is the new URI for the tokens*"
        }
      },
      "upgradeClaimControl(address)": {
        "params": {
          "_newCCadd": "is the address of the new Claim control contract*"
        }
      }
    }
  },
  "userdoc": {
    "methods": {
      "canClaim(address)": {
        "notice": "view function to check if an account has claimed their NFTs"
      },
      "claimNFTs()": {
        "notice": "claimNFTs is a public function that allows a end user to claim ALL of the NFT's they are owed by the warp platform"
      },
      "constructor": "the constructor function is fired only once during contract deployment*",
      "epicWhiteLister(address[])": {
        "notice": "epicWhiteLister takes in an array of addresses and whitelists them to receive the epic NFT"
      },
      "hasEpic(address)": {
        "notice": "view function to check if an account holds a certain NFT"
      },
      "legendaryWhiteLister(address[])": {
        "notice": "legendaryWhiteLister takes in an array of addresses and whitelists them to receive the legendary NFT"
      },
      "rareWhiteLister(address[])": {
        "notice": "rareWhiteLister takes in an array of addresses and whitelists them to receive the rare NFT"
      },
      "socialWhiteLister(address[])": {
        "notice": "socialWhiteLister takes in an array of addresses and whitelists them to receive the social NFT"
      },
      "updateEpicURI(string)": {
        "notice": "updateEpicURI allows the owner of this contract to update the stored URI"
      },
      "updateLegendaryURI(string)": {
        "notice": "notice updateLegendaryURI allows the owner of this contract to update the stored URI param _newURI is the new URI for the tokens*"
      },
      "updateRareURI(string)": {
        "notice": "updateRareURI allows the owner of this contract to update the stored URI"
      },
      "updateSocialURI(string)": {
        "notice": "updateSocialURI allows the owner of this contract to update the stored URI"
      },
      "upgradeClaimControl(address)": {
        "notice": "upgradeClaimControl allows the owner of this contract to transfer ownership of all of the NFT contracts to a new claim control contract in the case of a future upgrade"
      }
    }
  }
}