{
  "contractName": "WarpNFTClaimControl",
  "abi": [
    {
      "inputs": [
        {
          "internalType": "contract WarpNFTEpic",
          "name": "_NFTEpic",
          "type": "address"
        },
        {
          "internalType": "contract WarpNFTLegendary",
          "name": "_NFTLegendary",
          "type": "address"
        },
        {
          "internalType": "contract WarpNFTRare",
          "name": "_NFTRare",
          "type": "address"
        },
        {
          "internalType": "contract WarpNFTSocial",
          "name": "_NFTSocial",
          "type": "address"
        }
      ],
      "stateMutability": "nonpayable",
      "type": "constructor"
    },
    {
      "anonymous": false,
      "inputs": [
        {
          "indexed": true,
          "internalType": "address",
          "name": "previousOwner",
          "type": "address"
        },
        {
          "indexed": true,
          "internalType": "address",
          "name": "newOwner",
          "type": "address"
        }
      ],
      "name": "OwnershipTransferred",
      "type": "event"
    },
    {
      "inputs": [],
      "name": "WNFTE",
      "outputs": [
        {
          "internalType": "contract WarpNFTEpic",
          "name": "",
          "type": "address"
        }
      ],
      "stateMutability": "view",
      "type": "function"
    },
    {
      "inputs": [],
      "name": "WNFTL",
      "outputs": [
        {
          "internalType": "contract WarpNFTLegendary",
          "name": "",
          "type": "address"
        }
      ],
      "stateMutability": "view",
      "type": "function"
    },
    {
      "inputs": [],
      "name": "WNFTR",
      "outputs": [
        {
          "internalType": "contract WarpNFTRare",
          "name": "",
          "type": "address"
        }
      ],
      "stateMutability": "view",
      "type": "function"
    },
    {
      "inputs": [],
      "name": "WNFTS",
      "outputs": [
        {
          "internalType": "contract WarpNFTSocial",
          "name": "",
          "type": "address"
        }
      ],
      "stateMutability": "view",
      "type": "function"
    },
    {
      "inputs": [
        {
          "internalType": "address",
          "name": "",
          "type": "address"
        }
      ],
      "name": "epicClaimed",
      "outputs": [
        {
          "internalType": "bool",
          "name": "",
          "type": "bool"
        }
      ],
      "stateMutability": "view",
      "type": "function"
    },
    {
      "inputs": [
        {
          "internalType": "uint256",
          "name": "",
          "type": "uint256"
        }
      ],
      "name": "epicList",
      "outputs": [
        {
          "internalType": "address",
          "name": "",
          "type": "address"
        }
      ],
      "stateMutability": "view",
      "type": "function"
    },
    {
      "inputs": [
        {
          "internalType": "address",
          "name": "",
          "type": "address"
        }
      ],
      "name": "epicWhiteList",
      "outputs": [
        {
          "internalType": "bool",
          "name": "",
          "type": "bool"
        }
      ],
      "stateMutability": "view",
      "type": "function"
    },
    {
      "inputs": [
        {
          "internalType": "address",
          "name": "",
          "type": "address"
        }
      ],
      "name": "legendaryClaimed",
      "outputs": [
        {
          "internalType": "bool",
          "name": "",
          "type": "bool"
        }
      ],
      "stateMutability": "view",
      "type": "function"
    },
    {
      "inputs": [
        {
          "internalType": "uint256",
          "name": "",
          "type": "uint256"
        }
      ],
      "name": "legendaryList",
      "outputs": [
        {
          "internalType": "address",
          "name": "",
          "type": "address"
        }
      ],
      "stateMutability": "view",
      "type": "function"
    },
    {
      "inputs": [
        {
          "internalType": "address",
          "name": "",
          "type": "address"
        }
      ],
      "name": "legendaryWhiteList",
      "outputs": [
        {
          "internalType": "bool",
          "name": "",
          "type": "bool"
        }
      ],
      "stateMutability": "view",
      "type": "function"
    },
    {
      "inputs": [],
      "name": "owner",
      "outputs": [
        {
          "internalType": "address",
          "name": "",
          "type": "address"
        }
      ],
      "stateMutability": "view",
      "type": "function"
    },
    {
      "inputs": [
        {
          "internalType": "address",
          "name": "",
          "type": "address"
        }
      ],
      "name": "rareClaimed",
      "outputs": [
        {
          "internalType": "bool",
          "name": "",
          "type": "bool"
        }
      ],
      "stateMutability": "view",
      "type": "function"
    },
    {
      "inputs": [
        {
          "internalType": "uint256",
          "name": "",
          "type": "uint256"
        }
      ],
      "name": "rareList",
      "outputs": [
        {
          "internalType": "address",
          "name": "",
          "type": "address"
        }
      ],
      "stateMutability": "view",
      "type": "function"
    },
    {
      "inputs": [
        {
          "internalType": "address",
          "name": "",
          "type": "address"
        }
      ],
      "name": "rareWhiteList",
      "outputs": [
        {
          "internalType": "bool",
          "name": "",
          "type": "bool"
        }
      ],
      "stateMutability": "view",
      "type": "function"
    },
    {
      "inputs": [],
      "name": "renounceOwnership",
      "outputs": [],
      "stateMutability": "nonpayable",
      "type": "function"
    },
    {
      "inputs": [
        {
          "internalType": "address",
          "name": "",
          "type": "address"
        }
      ],
      "name": "socialClaimed",
      "outputs": [
        {
          "internalType": "bool",
          "name": "",
          "type": "bool"
        }
      ],
      "stateMutability": "view",
      "type": "function"
    },
    {
      "inputs": [
        {
          "internalType": "uint256",
          "name": "",
          "type": "uint256"
        }
      ],
      "name": "socialList",
      "outputs": [
        {
          "internalType": "address",
          "name": "",
          "type": "address"
        }
      ],
      "stateMutability": "view",
      "type": "function"
    },
    {
      "inputs": [
        {
          "internalType": "address",
          "name": "",
          "type": "address"
        }
      ],
      "name": "socialWhiteList",
      "outputs": [
        {
          "internalType": "bool",
          "name": "",
          "type": "bool"
        }
      ],
      "stateMutability": "view",
      "type": "function"
    },
    {
      "inputs": [
        {
          "internalType": "address",
          "name": "newOwner",
          "type": "address"
        }
      ],
      "name": "transferOwnership",
      "outputs": [],
      "stateMutability": "nonpayable",
      "type": "function"
    },
    {
      "inputs": [
        {
          "internalType": "address[]",
          "name": "_addresses",
          "type": "address[]"
        }
      ],
      "name": "epicWhiteLister",
      "outputs": [],
      "stateMutability": "nonpayable",
      "type": "function"
    },
    {
      "inputs": [
        {
          "internalType": "address[]",
          "name": "_addresses",
          "type": "address[]"
        }
      ],
      "name": "legendaryWhiteLister",
      "outputs": [],
      "stateMutability": "nonpayable",
      "type": "function"
    },
    {
      "inputs": [
        {
          "internalType": "address[]",
          "name": "_addresses",
          "type": "address[]"
        }
      ],
      "name": "rareWhiteLister",
      "outputs": [],
      "stateMutability": "nonpayable",
      "type": "function"
    },
    {
      "inputs": [
        {
          "internalType": "address[]",
          "name": "_addresses",
          "type": "address[]"
        }
      ],
      "name": "socialWhiteLister",
      "outputs": [],
      "stateMutability": "nonpayable",
      "type": "function"
    },
    {
      "inputs": [],
      "name": "claimNFTs",
      "outputs": [],
      "stateMutability": "nonpayable",
      "type": "function"
    },
    {
      "inputs": [
        {
          "internalType": "address",
          "name": "_account",
          "type": "address"
        }
      ],
      "name": "hasEpic",
      "outputs": [
        {
          "internalType": "bool",
          "name": "",
          "type": "bool"
        }
      ],
      "stateMutability": "view",
      "type": "function"
    },
    {
      "inputs": [
        {
          "internalType": "address",
          "name": "_account",
          "type": "address"
        }
      ],
      "name": "hasLegendary",
      "outputs": [
        {
          "internalType": "bool",
          "name": "",
          "type": "bool"
        }
      ],
      "stateMutability": "view",
      "type": "function"
    },
    {
      "inputs": [
        {
          "internalType": "address",
          "name": "_account",
          "type": "address"
        }
      ],
      "name": "hasRare",
      "outputs": [
        {
          "internalType": "bool",
          "name": "",
          "type": "bool"
        }
      ],
      "stateMutability": "view",
      "type": "function"
    },
    {
      "inputs": [
        {
          "internalType": "address",
          "name": "_account",
          "type": "address"
        }
      ],
      "name": "hasSocial",
      "outputs": [
        {
          "internalType": "bool",
          "name": "",
          "type": "bool"
        }
      ],
      "stateMutability": "view",
      "type": "function"
    },
    {
      "inputs": [
        {
          "internalType": "address",
          "name": "_account",
          "type": "address"
        }
      ],
      "name": "canClaim",
      "outputs": [
        {
          "internalType": "bool",
          "name": "",
          "type": "bool"
        }
      ],
      "stateMutability": "view",
      "type": "function"
    },
    {
      "inputs": [
        {
          "internalType": "address",
          "name": "_newCCadd",
          "type": "address"
        }
      ],
      "name": "upgradeClaimControl",
      "outputs": [],
      "stateMutability": "nonpayable",
      "type": "function"
    }
  ],
  "bytecode": "0x608060405234801561001057600080fd5b506040516117b53803806117b58339818101604052608081101561003357600080fd5b5080516020820151604083015160609093015191929091600061005d6001600160e01b036100fa16565b600080546001600160a01b0319166001600160a01b0383169081178255604051929350917f8be0079c531659141344cd1fd0a4f28419497f9722a3daafe3b4186f6b6457e0908290a350600180546001600160a01b039586166001600160a01b03199182161790915560028054948616948216949094179093556003805492851692841692909217909155600480549190931691161790556100fe565b3390565b6116a88061010d6000396000f3fe608060405234801561001057600080fd5b50600436106101da5760003560e01c80636120040511610104578063ad6e2148116100a2578063c851bfea11610071578063c851bfea1461070a578063d8437b7914610730578063f18e22f91461074d578063f2fde38b14610755576101da565b8063ad6e214814610672578063b713637914610698578063bbe55b89146106be578063bf3506c1146106e4576101da565b806386a8d8eb116100de57806386a8d8eb1461061f5780638da5cb5b14610645578063970aa0361461064d578063aa4f3c8114610655576101da565b8063612004051461060757806369d233511461060f578063715018a614610617576101da565b80632b41c9431161017c578063488bb6d71161014b578063488bb6d714610497578063522aa2d2146104bd57806355a313091461055e578063608b2e3b14610566576101da565b80632b41c943146104085780633a9011bf146104255780633e3547c71461044b57806343e110e314610471576101da565b806319b02dc3116101b857806319b02dc3146102e25780631c0be1e71461038357806326395b28146103a95780632947bb43146103cf576101da565b80630657ae64146101df5780630b040aec14610219578063194d778914610241575b600080fd5b610205600480360360208110156101f557600080fd5b50356001600160a01b031661077b565b604080519115158252519081900360200190f35b61023f6004803603602081101561022f57600080fd5b50356001600160a01b0316610790565b005b61023f6004803603602081101561025757600080fd5b810190602081018135600160201b81111561027157600080fd5b82018360208201111561028357600080fd5b803590602001918460208302840111600160201b831117156102a457600080fd5b919080806020026020016040519081016040528093929190818152602001838360200280828437600092019190915250929550610987945050505050565b61023f600480360360208110156102f857600080fd5b810190602081018135600160201b81111561031257600080fd5b82018360208201111561032457600080fd5b803590602001918460208302840111600160201b8311171561034557600080fd5b919080806020026020016040519081016040528093929190818152602001838360200280828437600092019190915250929550610a93945050505050565b6102056004803603602081101561039957600080fd5b50356001600160a01b0316610b9b565b610205600480360360208110156103bf57600080fd5b50356001600160a01b0316610bb0565b6103ec600480360360208110156103e557600080fd5b5035610c48565b604080516001600160a01b039092168252519081900360200190f35b6103ec6004803603602081101561041e57600080fd5b5035610c6f565b6102056004803603602081101561043b57600080fd5b50356001600160a01b0316610c7c565b6102056004803603602081101561046157600080fd5b50356001600160a01b0316610ccb565b6102056004803603602081101561048757600080fd5b50356001600160a01b0316610ce0565b610205600480360360208110156104ad57600080fd5b50356001600160a01b0316610cf5565b61023f600480360360208110156104d357600080fd5b810190602081018135600160201b8111156104ed57600080fd5b8201836020820111156104ff57600080fd5b803590602001918460208302840111600160201b8311171561052057600080fd5b919080806020026020016040519081016040528093929190818152602001838360200280828437600092019190915250929550610d0a945050505050565b61023f610e12565b61023f6004803603602081101561057c57600080fd5b810190602081018135600160201b81111561059657600080fd5b8201836020820111156105a857600080fd5b803590602001918460208302840111600160201b831117156105c957600080fd5b9190808060200260200160405190810160405280939291908181526020018383602002808284376000920191909152509295506110f5945050505050565b6103ec6111fd565b6103ec61120c565b61023f61121b565b6102056004803603602081101561063557600080fd5b50356001600160a01b03166112bd565b6103ec61130c565b6103ec61131b565b6103ec6004803603602081101561066b57600080fd5b503561132a565b6102056004803603602081101561068857600080fd5b50356001600160a01b0316611337565b610205600480360360208110156106ae57600080fd5b50356001600160a01b031661134c565b610205600480360360208110156106d457600080fd5b50356001600160a01b0316611361565b610205600480360360208110156106fa57600080fd5b50356001600160a01b03166113b3565b6102056004803603602081101561072057600080fd5b50356001600160a01b03166114ff565b6103ec6004803603602081101561074657600080fd5b5035611514565b6103ec611521565b61023f6004803603602081101561076b57600080fd5b50356001600160a01b0316611530565b600e6020526000908152604090205460ff1681565b610798611628565b6000546001600160a01b039081169116146107e8576040805162461bcd60e51b81526020600482018190526024820152600080516020611653833981519152604482015290519081900360640190fd5b6001546040805163f2fde38b60e01b81526001600160a01b0384811660048301529151919092169163f2fde38b91602480830192600092919082900301818387803b15801561083657600080fd5b505af115801561084a573d6000803e3d6000fd5b50506002546040805163f2fde38b60e01b81526001600160a01b038681166004830152915191909216935063f2fde38b9250602480830192600092919082900301818387803b15801561089c57600080fd5b505af11580156108b0573d6000803e3d6000fd5b50506003546040805163f2fde38b60e01b81526001600160a01b038681166004830152915191909216935063f2fde38b9250602480830192600092919082900301818387803b15801561090257600080fd5b505af1158015610916573d6000803e3d6000fd5b5050600480546040805163f2fde38b60e01b81526001600160a01b0387811694820194909452905192909116935063f2fde38b925060248082019260009290919082900301818387803b15801561096c57600080fd5b505af1158015610980573d6000803e3d6000fd5b5050505050565b61098f611628565b6000546001600160a01b039081169116146109df576040805162461bcd60e51b81526020600482018190526024820152600080516020611653833981519152604482015290519081900360640190fd5b60005b8151811015610a8f576001600960008484815181106109fd57fe5b60200260200101516001600160a01b03166001600160a01b0316815260200190815260200160002060006101000a81548160ff0219169083151502179055506005828281518110610a4a57fe5b60209081029190910181015182546001808201855560009485529290932090920180546001600160a01b0319166001600160a01b0390931692909217909155016109e2565b5050565b610a9b611628565b6000546001600160a01b03908116911614610aeb576040805162461bcd60e51b81526020600482018190526024820152600080516020611653833981519152604482015290519081900360640190fd5b60005b8151811015610a8f576001600c6000848481518110610b0957fe5b60200260200101516001600160a01b03166001600160a01b0316815260200190815260200160002060006101000a81548160ff0219169083151502179055506008828281518110610b5657fe5b60209081029190910181015182546001808201855560009485529290932090920180546001600160a01b0319166001600160a01b039093169290921790915501610aee565b600d6020526000908152604090205460ff1681565b600154604080516370a0823160e01b81526001600160a01b0384811660048301529151600093849316916370a08231916024808301926020929190829003018186803b158015610bff57600080fd5b505afa158015610c13573d6000803e3d6000fd5b505050506040513d6020811015610c2957600080fd5b505190508015610c3d576001915050610c43565b60009150505b919050565b60078181548110610c5557fe5b6000918252602090912001546001600160a01b0316905081565b60068181548110610c5557fe5b600354604080516370a0823160e01b81526001600160a01b0384811660048301529151600093849316916370a08231916024808301926020929190829003018186803b158015610bff57600080fd5b600c6020526000908152604090205460ff1681565b600b6020526000908152604090205460ff1681565b600a6020526000908152604090205460ff1681565b610d12611628565b6000546001600160a01b03908116911614610d62576040805162461bcd60e51b81526020600482018190526024820152600080516020611653833981519152604482015290519081900360640190fd5b60005b8151811015610a8f576001600b6000848481518110610d8057fe5b60200260200101516001600160a01b03166001600160a01b0316815260200190815260200160002060006101000a81548160ff0219169083151502179055506007828281518110610dcd57fe5b60209081029190910181015182546001808201855560009485529290932090920180546001600160a01b0319166001600160a01b039093169290921790915501610d65565b3360009081526009602052604090205460ff1615156001148015610e465750336000908152600d602052604090205460ff16155b15610eca57600154604080516365568ecb60e01b815233600482015290516001600160a01b03909216916365568ecb9160248082019260009290919082900301818387803b158015610e9757600080fd5b505af1158015610eab573d6000803e3d6000fd5b5050336000908152600d60205260409020805460ff1916600117905550505b336000908152600a602052604090205460ff1615156001148015610efe5750336000908152600e602052604090205460ff16155b15610f8257600254604080516365568ecb60e01b815233600482015290516001600160a01b03909216916365568ecb9160248082019260009290919082900301818387803b158015610f4f57600080fd5b505af1158015610f63573d6000803e3d6000fd5b5050336000908152600e60205260409020805460ff1916600117905550505b336000908152600b602052604090205460ff1615156001148015610fb65750336000908152600f602052604090205460ff16155b1561103a57600354604080516365568ecb60e01b815233600482015290516001600160a01b03909216916365568ecb9160248082019260009290919082900301818387803b15801561100757600080fd5b505af115801561101b573d6000803e3d6000fd5b5050336000908152600f60205260409020805460ff1916600117905550505b336000908152600c602052604090205460ff161515600114801561106e57503360009081526010602052604090205460ff16155b156110f35760048054604080516365568ecb60e01b81523393810193909352516001600160a01b03909116916365568ecb91602480830192600092919082900301818387803b1580156110c057600080fd5b505af11580156110d4573d6000803e3d6000fd5b5050336000908152601060205260409020805460ff1916600117905550505b565b6110fd611628565b6000546001600160a01b0390811691161461114d576040805162461bcd60e51b81526020600482018190526024820152600080516020611653833981519152604482015290519081900360640190fd5b60005b8151811015610a8f576001600a600084848151811061116b57fe5b60200260200101516001600160a01b03166001600160a01b0316815260200190815260200160002060006101000a81548160ff02191690831515021790555060068282815181106111b857fe5b60209081029190910181015182546001808201855560009485529290932090920180546001600160a01b0319166001600160a01b039093169290921790915501611150565b6001546001600160a01b031681565b6002546001600160a01b031681565b611223611628565b6000546001600160a01b03908116911614611273576040805162461bcd60e51b81526020600482018190526024820152600080516020611653833981519152604482015290519081900360640190fd5b600080546040516001600160a01b03909116907f8be0079c531659141344cd1fd0a4f28419497f9722a3daafe3b4186f6b6457e0908390a3600080546001600160a01b0319169055565b600254604080516370a0823160e01b81526001600160a01b0384811660048301529151600093849316916370a08231916024808301926020929190829003018186803b158015610bff57600080fd5b6000546001600160a01b031690565b6004546001600160a01b031681565b60088181548110610c5557fe5b600f6020526000908152604090205460ff1681565b60096020526000908152604090205460ff1681565b60048054604080516370a0823160e01b81526001600160a01b03858116948201949094529051600093849316916370a08231916024808301926020929190829003018186803b158015610bff57600080fd5b6001600160a01b03811660009081526009602052604081205460ff16151560011480156113f957506001600160a01b0382166000908152600d602052604090205460ff16155b1561140657506001610c43565b6001600160a01b0382166000908152600a602052604090205460ff161515600114801561144c57506001600160a01b0382166000908152600e602052604090205460ff16155b1561145957506001610c43565b6001600160a01b0382166000908152600b602052604090205460ff161515600114801561149f57506001600160a01b0382166000908152600f602052604090205460ff16155b156114ac57506001610c43565b6001600160a01b0382166000908152600c602052604090205460ff16151560011480156114f257506001600160a01b03821660009081526010602052604090205460ff16155b15610c4357506001610c43565b60106020526000908152604090205460ff1681565b60058181548110610c5557fe5b6003546001600160a01b031681565b611538611628565b6000546001600160a01b03908116911614611588576040805162461bcd60e51b81526020600482018190526024820152600080516020611653833981519152604482015290519081900360640190fd5b6001600160a01b0381166115cd5760405162461bcd60e51b815260040180806020018281038252602681526020018061162d6026913960400191505060405180910390fd5b600080546040516001600160a01b03808516939216917f8be0079c531659141344cd1fd0a4f28419497f9722a3daafe3b4186f6b6457e091a3600080546001600160a01b0319166001600160a01b0392909216919091179055565b339056fe4f776e61626c653a206e6577206f776e657220697320746865207a65726f20616464726573734f776e61626c653a2063616c6c6572206973206e6f7420746865206f776e6572a2646970667358221220244cfce4e26b78ffd63727d490342f1e9f531348a43eb4ab1f14197ceca873aa64736f6c63430006060033",
  "immutableReferences": {},
  "source": "pragma solidity ^0.6.0;\n\nimport \"@openzeppelin/contracts/access/Ownable.sol\";\nimport \"./WarpNFTEpic.sol\";\nimport \"./WarpNFTLegendary.sol\";\nimport \"./WarpNFTRare.sol\";\nimport \"./WarpNFTSocial.sol\";\n\ncontract WarpNFTClaimControl is Ownable {\n  WarpNFTEpic public WNFTE;\n  WarpNFTLegendary public WNFTL;\n  WarpNFTRare public WNFTR;\n  WarpNFTSocial public WNFTS;\n\n\n\n  address[] public epicList;\n  address[] public legendaryList;\n  address[] public rareList;\n  address[] public socialList;\n\n  mapping(address => bool) public epicWhiteList;\n  mapping(address => bool) public legendaryWhiteList;\n  mapping(address => bool) public rareWhiteList;\n  mapping(address => bool) public socialWhiteList;\n\n  mapping(address => bool) public epicClaimed;\n  mapping(address => bool) public legendaryClaimed;\n  mapping(address => bool) public rareClaimed;\n  mapping(address => bool) public socialClaimed;\n\n/**\n@notice the constructor function is fired only once during contract deployment\n\n**/\n  constructor(\n    WarpNFTEpic _NFTEpic,\n    WarpNFTLegendary _NFTLegendary,\n    WarpNFTRare _NFTRare,\n    WarpNFTSocial _NFTSocial\n  ) public {\n    WNFTE = _NFTEpic;\n    WNFTL = _NFTLegendary;\n    WNFTR = _NFTRare;\n    WNFTS = _NFTSocial;\n  }\n\n/**\n@notice epicWhiteLister takes in an array of addresses and whitelists them to receive the epic NFT\n@param _addresses is an array of addresses to be whitelisted\n@dev this function is protected by the onlyOwner modifier and can only be called by the owner of this contract\n**/\nfunction epicWhiteLister(address[] memory _addresses) public onlyOwner {\n    for (uint256 i = 0; i < _addresses.length; ++i) {\n        epicWhiteList[_addresses[i]] = true;\n        epicList.push(_addresses[i]);\n    }\n}\n\n/**\n@notice legendaryWhiteLister takes in an array of addresses and whitelists them to receive the legendary NFT\n@param _addresses is an array of addresses to be whitelisted\n@dev this function is protected by the onlyOwner modifier and can only be called by the owner of this contract\n**/\nfunction legendaryWhiteLister(address[] memory _addresses) public onlyOwner {\n    for (uint256 i = 0; i < _addresses.length; ++i) {\n        legendaryWhiteList[_addresses[i]] = true;\n        legendaryList.push(_addresses[i]);\n    }\n}\n\n/**\n@notice rareWhiteLister takes in an array of addresses and whitelists them to receive the rare NFT\n@param _addresses is an array of addresses to be whitelisted\n@dev this function is protected by the onlyOwner modifier and can only be called by the owner of this contract\n**/\nfunction rareWhiteLister(address[] memory _addresses) public onlyOwner {\n    for (uint256 i = 0; i < _addresses.length; ++i) {\n        rareWhiteList[_addresses[i]] = true;\n        rareList.push(_addresses[i]);\n    }\n}\n\n/**\n@notice socialWhiteLister takes in an array of addresses and whitelists them to receive the social NFT\n@param _addresses is an array of addresses to be whitelisted\n@dev this function is protected by the onlyOwner modifier and can only be called by the owner of this contract\n**/\nfunction socialWhiteLister(address[] memory _addresses) public onlyOwner {\n    for (uint256 i = 0; i < _addresses.length; ++i) {\n        socialWhiteList[_addresses[i]] = true;\n        socialList.push(_addresses[i]);\n    }\n}\n\n/**\n@notice claimNFTs is a public function that allows a end user to claim ALL of the NFT's they are owed by the warp platform\n@dev this function uses the address whitelists to distribute the appropriate NFT's to warp users\n@dev this function sets a tokens type when minting a new token. A tokens type can be used by other warp contracts\n      to determine what type of token a user holds\n      Type 1: Epic NFT\n      Type 2: Legendary NFT\n      Type 3: Rare NFT\n      Type 4: Social NFT\n**/\nfunction claimNFTs() public {\n\n  if(epicWhiteList[msg.sender] == true && epicClaimed[msg.sender] == false) {\n    WNFTE.mintNewNFT(msg.sender);\n    epicClaimed[msg.sender] = true;\n  }\n\n  if(legendaryWhiteList[msg.sender] == true && legendaryClaimed[msg.sender] == false) {\n    WNFTL.mintNewNFT(msg.sender);\n    legendaryClaimed[msg.sender] = true;\n  }\n\n  if(rareWhiteList[msg.sender] == true && rareClaimed[msg.sender] == false) {\n    WNFTR.mintNewNFT(msg.sender);\n    rareClaimed[msg.sender] = true;\n  }\n\n  if(socialWhiteList[msg.sender] == true && socialClaimed[msg.sender] == false) {\n    WNFTS.mintNewNFT(msg.sender);\n    socialClaimed[msg.sender] = true;\n  }\n}\n///view function to check if an account holds a certain NFT\nfunction hasEpic(address _account) public view returns(bool) {\n  uint numOfTokens = WNFTE.balanceOf(_account);\n  if(numOfTokens > 0) {\n    return true;\n  } else {\n    return false;\n  }\n}\n\nfunction hasLegendary(address _account) public view returns(bool) {\n  uint numOfTokens = WNFTL.balanceOf(_account);\n  if(numOfTokens > 0) {\n    return true;\n  } else {\n    return false;\n  }\n}\n\nfunction hasRare(address _account) public view returns(bool) {\n  uint numOfTokens = WNFTR.balanceOf(_account);\n  if(numOfTokens > 0) {\n    return true;\n  } else {\n    return false;\n  }\n}\n\nfunction hasSocial(address _account) public view returns(bool) {\n  uint numOfTokens = WNFTS.balanceOf(_account);\n  if(numOfTokens > 0) {\n    return true;\n  } else {\n    return false;\n  }\n}\n\n\nfunction canClaim(address _account) public view returns(bool) {\n  if(epicWhiteList[_account] == true && epicClaimed[_account] == false) {\n    return true;\n  }\n  if(legendaryWhiteList[_account] == true && legendaryClaimed[_account] == false) {\n    return true;\n  }\n  if(rareWhiteList[_account] == true && rareClaimed[_account] == false) {\n    return true;\n  }\n  if(socialWhiteList[_account] == true && socialClaimed[_account] == false) {\n    return true;\n  }\n}\n\n\nfunction upgradeClaimControl(address _newCCadd) public onlyOwner {\n  WNFTE.transferOwnership(_newCCadd);\n  WNFTL.transferOwnership(_newCCadd);\n  WNFTR.transferOwnership(_newCCadd);\n  WNFTS.transferOwnership(_newCCadd);\n\n}\n\n}\n",
  "sourcePath": "/home/stan36/repos/Warp/nft-distribute/contracts/WarpNFTClaimControl.sol",
  "compiler": {
    "name": "solc",
    "version": "0.6.6+commit.6c089d02.Emscripten.clang"
  },
  "schemaVersion": "3.3.2",
  "updatedAt": "2020-12-15T22:55:09.521Z",
  "devdoc": {
    "methods": {
      "claimNFTs()": {
        "details": "this function uses the address whitelists to distribute the appropriate NFT's to warp usersthis function sets a tokens type when minting a new token. A tokens type can be used by other warp contracts to determine what type of token a user holds Type 1: Epic NFT Type 2: Legendary NFT Type 3: Rare NFT Type 4: Social NFT*"
      },
      "epicWhiteLister(address[])": {
        "details": "this function is protected by the onlyOwner modifier and can only be called by the owner of this contract*",
        "params": {
          "_addresses": "is an array of addresses to be whitelisted"
        }
      },
      "legendaryWhiteLister(address[])": {
        "details": "this function is protected by the onlyOwner modifier and can only be called by the owner of this contract*",
        "params": {
          "_addresses": "is an array of addresses to be whitelisted"
        }
      },
      "owner()": {
        "details": "Returns the address of the current owner."
      },
      "rareWhiteLister(address[])": {
        "details": "this function is protected by the onlyOwner modifier and can only be called by the owner of this contract*",
        "params": {
          "_addresses": "is an array of addresses to be whitelisted"
        }
      },
      "renounceOwnership()": {
        "details": "Leaves the contract without owner. It will not be possible to call `onlyOwner` functions anymore. Can only be called by the current owner.     * NOTE: Renouncing ownership will leave the contract without an owner, thereby removing any functionality that is only available to the owner."
      },
      "socialWhiteLister(address[])": {
        "details": "this function is protected by the onlyOwner modifier and can only be called by the owner of this contract*",
        "params": {
          "_addresses": "is an array of addresses to be whitelisted"
        }
      },
      "transferOwnership(address)": {
        "details": "Transfers ownership of the contract to a new account (`newOwner`). Can only be called by the current owner."
      }
    }
  },
  "userdoc": {
    "methods": {
      "claimNFTs()": {
        "notice": "claimNFTs is a public function that allows a end user to claim ALL of the NFT's they are owed by the warp platform"
      },
      "constructor": "the constructor function is fired only once during contract deployment*",
      "epicWhiteLister(address[])": {
        "notice": "epicWhiteLister takes in an array of addresses and whitelists them to receive the epic NFT"
      },
      "hasEpic(address)": {
        "notice": "view function to check if an account holds a certain NFT"
      },
      "legendaryWhiteLister(address[])": {
        "notice": "legendaryWhiteLister takes in an array of addresses and whitelists them to receive the legendary NFT"
      },
      "rareWhiteLister(address[])": {
        "notice": "rareWhiteLister takes in an array of addresses and whitelists them to receive the rare NFT"
      },
      "socialWhiteLister(address[])": {
        "notice": "socialWhiteLister takes in an array of addresses and whitelists them to receive the social NFT"
      }
    }
  }
}