{
  "contractName": "WarpNFTClaimControl",
  "abi": [
    {
      "inputs": [
        {
          "internalType": "contract WarpNFTEpic",
          "name": "_NFTEpic",
          "type": "address"
        },
        {
          "internalType": "contract WarpNFTLegendary",
          "name": "_NFTLegendary",
          "type": "address"
        },
        {
          "internalType": "contract WarpNFTRare",
          "name": "_NFTRare",
          "type": "address"
        },
        {
          "internalType": "contract WarpNFTSocial",
          "name": "_NFTSocial",
          "type": "address"
        }
      ],
      "stateMutability": "nonpayable",
      "type": "constructor"
    },
    {
      "anonymous": false,
      "inputs": [
        {
          "indexed": true,
          "internalType": "address",
          "name": "previousOwner",
          "type": "address"
        },
        {
          "indexed": true,
          "internalType": "address",
          "name": "newOwner",
          "type": "address"
        }
      ],
      "name": "OwnershipTransferred",
      "type": "event"
    },
    {
      "inputs": [],
      "name": "WNFTE",
      "outputs": [
        {
          "internalType": "contract WarpNFTEpic",
          "name": "",
          "type": "address"
        }
      ],
      "stateMutability": "view",
      "type": "function"
    },
    {
      "inputs": [],
      "name": "WNFTL",
      "outputs": [
        {
          "internalType": "contract WarpNFTLegendary",
          "name": "",
          "type": "address"
        }
      ],
      "stateMutability": "view",
      "type": "function"
    },
    {
      "inputs": [],
      "name": "WNFTR",
      "outputs": [
        {
          "internalType": "contract WarpNFTRare",
          "name": "",
          "type": "address"
        }
      ],
      "stateMutability": "view",
      "type": "function"
    },
    {
      "inputs": [],
      "name": "WNFTS",
      "outputs": [
        {
          "internalType": "contract WarpNFTSocial",
          "name": "",
          "type": "address"
        }
      ],
      "stateMutability": "view",
      "type": "function"
    },
    {
      "inputs": [
        {
          "internalType": "address",
          "name": "",
          "type": "address"
        }
      ],
      "name": "epicClaimed",
      "outputs": [
        {
          "internalType": "bool",
          "name": "",
          "type": "bool"
        }
      ],
      "stateMutability": "view",
      "type": "function"
    },
    {
      "inputs": [
        {
          "internalType": "uint256",
          "name": "",
          "type": "uint256"
        }
      ],
      "name": "epicList",
      "outputs": [
        {
          "internalType": "address",
          "name": "",
          "type": "address"
        }
      ],
      "stateMutability": "view",
      "type": "function"
    },
    {
      "inputs": [
        {
          "internalType": "address",
          "name": "",
          "type": "address"
        }
      ],
      "name": "epicWhiteList",
      "outputs": [
        {
          "internalType": "bool",
          "name": "",
          "type": "bool"
        }
      ],
      "stateMutability": "view",
      "type": "function"
    },
    {
      "inputs": [
        {
          "internalType": "address",
          "name": "",
          "type": "address"
        }
      ],
      "name": "legendaryClaimed",
      "outputs": [
        {
          "internalType": "bool",
          "name": "",
          "type": "bool"
        }
      ],
      "stateMutability": "view",
      "type": "function"
    },
    {
      "inputs": [
        {
          "internalType": "uint256",
          "name": "",
          "type": "uint256"
        }
      ],
      "name": "legendaryList",
      "outputs": [
        {
          "internalType": "address",
          "name": "",
          "type": "address"
        }
      ],
      "stateMutability": "view",
      "type": "function"
    },
    {
      "inputs": [
        {
          "internalType": "address",
          "name": "",
          "type": "address"
        }
      ],
      "name": "legendaryWhiteList",
      "outputs": [
        {
          "internalType": "bool",
          "name": "",
          "type": "bool"
        }
      ],
      "stateMutability": "view",
      "type": "function"
    },
    {
      "inputs": [],
      "name": "owner",
      "outputs": [
        {
          "internalType": "address",
          "name": "",
          "type": "address"
        }
      ],
      "stateMutability": "view",
      "type": "function"
    },
    {
      "inputs": [
        {
          "internalType": "address",
          "name": "",
          "type": "address"
        }
      ],
      "name": "rareClaimed",
      "outputs": [
        {
          "internalType": "bool",
          "name": "",
          "type": "bool"
        }
      ],
      "stateMutability": "view",
      "type": "function"
    },
    {
      "inputs": [
        {
          "internalType": "uint256",
          "name": "",
          "type": "uint256"
        }
      ],
      "name": "rareList",
      "outputs": [
        {
          "internalType": "address",
          "name": "",
          "type": "address"
        }
      ],
      "stateMutability": "view",
      "type": "function"
    },
    {
      "inputs": [
        {
          "internalType": "address",
          "name": "",
          "type": "address"
        }
      ],
      "name": "rareWhiteList",
      "outputs": [
        {
          "internalType": "bool",
          "name": "",
          "type": "bool"
        }
      ],
      "stateMutability": "view",
      "type": "function"
    },
    {
      "inputs": [],
      "name": "renounceOwnership",
      "outputs": [],
      "stateMutability": "nonpayable",
      "type": "function"
    },
    {
      "inputs": [
        {
          "internalType": "address",
          "name": "",
          "type": "address"
        }
      ],
      "name": "socialClaimed",
      "outputs": [
        {
          "internalType": "bool",
          "name": "",
          "type": "bool"
        }
      ],
      "stateMutability": "view",
      "type": "function"
    },
    {
      "inputs": [
        {
          "internalType": "uint256",
          "name": "",
          "type": "uint256"
        }
      ],
      "name": "socialList",
      "outputs": [
        {
          "internalType": "address",
          "name": "",
          "type": "address"
        }
      ],
      "stateMutability": "view",
      "type": "function"
    },
    {
      "inputs": [
        {
          "internalType": "address",
          "name": "",
          "type": "address"
        }
      ],
      "name": "socialWhiteList",
      "outputs": [
        {
          "internalType": "bool",
          "name": "",
          "type": "bool"
        }
      ],
      "stateMutability": "view",
      "type": "function"
    },
    {
      "inputs": [
        {
          "internalType": "address",
          "name": "newOwner",
          "type": "address"
        }
      ],
      "name": "transferOwnership",
      "outputs": [],
      "stateMutability": "nonpayable",
      "type": "function"
    },
    {
      "inputs": [
        {
          "internalType": "address[]",
          "name": "_addresses",
          "type": "address[]"
        }
      ],
      "name": "epicWhiteLister",
      "outputs": [],
      "stateMutability": "nonpayable",
      "type": "function"
    },
    {
      "inputs": [
        {
          "internalType": "address[]",
          "name": "_addresses",
          "type": "address[]"
        }
      ],
      "name": "legendaryWhiteLister",
      "outputs": [],
      "stateMutability": "nonpayable",
      "type": "function"
    },
    {
      "inputs": [
        {
          "internalType": "address[]",
          "name": "_addresses",
          "type": "address[]"
        }
      ],
      "name": "rareWhiteLister",
      "outputs": [],
      "stateMutability": "nonpayable",
      "type": "function"
    },
    {
      "inputs": [
        {
          "internalType": "address[]",
          "name": "_addresses",
          "type": "address[]"
        }
      ],
      "name": "socialWhiteLister",
      "outputs": [],
      "stateMutability": "nonpayable",
      "type": "function"
    },
    {
      "inputs": [],
      "name": "claimNFTs",
      "outputs": [],
      "stateMutability": "nonpayable",
      "type": "function"
    }
  ],
  "bytecode": "0x608060405234801561001057600080fd5b506040516111883803806111888339818101604052608081101561003357600080fd5b5080516020820151604083015160609093015191929091600061005d6001600160e01b036100fa16565b600080546001600160a01b0319166001600160a01b0383169081178255604051929350917f8be0079c531659141344cd1fd0a4f28419497f9722a3daafe3b4186f6b6457e0908290a350600180546001600160a01b039586166001600160a01b03199182161790915560028054948616948216949094179093556003805492851692841692909217909155600480549190931691161790556100fe565b3390565b61107b8061010d6000396000f3fe608060405234801561001057600080fd5b50600436106101585760003560e01c806361200405116100c3578063ad6e21481161007c578063ad6e214814610558578063b71363791461057e578063c851bfea146105a4578063d8437b79146105ca578063f18e22f9146105e7578063f2fde38b146105ef57610158565b8063612004051461051357806369d233511461051b578063715018a6146105235780638da5cb5b1461052b578063970aa03614610533578063aa4f3c811461053b57610158565b80633e3547c7116101155780633e3547c71461035757806343e110e31461037d578063488bb6d7146103a3578063522aa2d2146103c957806355a313091461046a578063608b2e3b1461047257610158565b80630657ae641461015d578063194d77891461019757806319b02dc31461023a5780631c0be1e7146102db5780632947bb43146103015780632b41c9431461033a575b600080fd5b6101836004803603602081101561017357600080fd5b50356001600160a01b0316610615565b604080519115158252519081900360200190f35b610238600480360360208110156101ad57600080fd5b810190602081018135600160201b8111156101c757600080fd5b8201836020820111156101d957600080fd5b803590602001918460208302840111600160201b831117156101fa57600080fd5b91908080602002602001604051908101604052809392919081815260200183836020028082843760009201919091525092955061062a945050505050565b005b6102386004803603602081101561025057600080fd5b810190602081018135600160201b81111561026a57600080fd5b82018360208201111561027c57600080fd5b803590602001918460208302840111600160201b8311171561029d57600080fd5b919080806020026020016040519081016040528093929190818152602001838360200280828437600092019190915250929550610736945050505050565b610183600480360360208110156102f157600080fd5b50356001600160a01b031661083e565b61031e6004803603602081101561031757600080fd5b5035610853565b604080516001600160a01b039092168252519081900360200190f35b61031e6004803603602081101561035057600080fd5b503561087a565b6101836004803603602081101561036d57600080fd5b50356001600160a01b0316610887565b6101836004803603602081101561039357600080fd5b50356001600160a01b031661089c565b610183600480360360208110156103b957600080fd5b50356001600160a01b03166108b1565b610238600480360360208110156103df57600080fd5b810190602081018135600160201b8111156103f957600080fd5b82018360208201111561040b57600080fd5b803590602001918460208302840111600160201b8311171561042c57600080fd5b9190808060200260200160405190810160405280939291908181526020018383602002808284376000920191909152509295506108c6945050505050565b6102386109ce565b6102386004803603602081101561048857600080fd5b810190602081018135600160201b8111156104a257600080fd5b8201836020820111156104b457600080fd5b803590602001918460208302840111600160201b831117156104d557600080fd5b919080806020026020016040519081016040528093929190818152602001838360200280828437600092019190915250929550610cb5945050505050565b61031e610dbd565b61031e610dcc565b610238610ddb565b61031e610e7d565b61031e610e8c565b61031e6004803603602081101561055157600080fd5b5035610e9b565b6101836004803603602081101561056e57600080fd5b50356001600160a01b0316610ea8565b6101836004803603602081101561059457600080fd5b50356001600160a01b0316610ebd565b610183600480360360208110156105ba57600080fd5b50356001600160a01b0316610ed2565b61031e600480360360208110156105e057600080fd5b5035610ee7565b61031e610ef4565b6102386004803603602081101561060557600080fd5b50356001600160a01b0316610f03565b600e6020526000908152604090205460ff1681565b610632610ffb565b6000546001600160a01b03908116911614610682576040805162461bcd60e51b81526020600482018190526024820152600080516020611026833981519152604482015290519081900360640190fd5b60005b8151811015610732576001600960008484815181106106a057fe5b60200260200101516001600160a01b03166001600160a01b0316815260200190815260200160002060006101000a81548160ff02191690831515021790555060058282815181106106ed57fe5b60209081029190910181015182546001808201855560009485529290932090920180546001600160a01b0319166001600160a01b039093169290921790915501610685565b5050565b61073e610ffb565b6000546001600160a01b0390811691161461078e576040805162461bcd60e51b81526020600482018190526024820152600080516020611026833981519152604482015290519081900360640190fd5b60005b8151811015610732576001600c60008484815181106107ac57fe5b60200260200101516001600160a01b03166001600160a01b0316815260200190815260200160002060006101000a81548160ff02191690831515021790555060088282815181106107f957fe5b60209081029190910181015182546001808201855560009485529290932090920180546001600160a01b0319166001600160a01b039093169290921790915501610791565b600d6020526000908152604090205460ff1681565b6007818154811061086057fe5b6000918252602090912001546001600160a01b0316905081565b6006818154811061086057fe5b600c6020526000908152604090205460ff1681565b600b6020526000908152604090205460ff1681565b600a6020526000908152604090205460ff1681565b6108ce610ffb565b6000546001600160a01b0390811691161461091e576040805162461bcd60e51b81526020600482018190526024820152600080516020611026833981519152604482015290519081900360640190fd5b60005b8151811015610732576001600b600084848151811061093c57fe5b60200260200101516001600160a01b03166001600160a01b0316815260200190815260200160002060006101000a81548160ff021916908315150217905550600782828151811061098957fe5b60209081029190910181015182546001808201855560009485529290932090920180546001600160a01b0319166001600160a01b039093169290921790915501610921565b3360009081526009602052604090205460ff16151560011415610a8757336000908152600d602052604090205460ff1615610a0857600080fd5b600154604080516365568ecb60e01b815233600482015290516001600160a01b03909216916365568ecb9160248082019260009290919082900301818387803b158015610a5457600080fd5b505af1158015610a68573d6000803e3d6000fd5b5050336000908152600d60205260409020805460ff1916600117905550505b336000908152600a602052604090205460ff16151560011415610b4057336000908152600e602052604090205460ff1615610ac157600080fd5b600254604080516365568ecb60e01b815233600482015290516001600160a01b03909216916365568ecb9160248082019260009290919082900301818387803b158015610b0d57600080fd5b505af1158015610b21573d6000803e3d6000fd5b5050336000908152600e60205260409020805460ff1916600117905550505b336000908152600b602052604090205460ff16151560011415610bf957336000908152600f602052604090205460ff1615610b7a57600080fd5b600354604080516365568ecb60e01b815233600482015290516001600160a01b03909216916365568ecb9160248082019260009290919082900301818387803b158015610bc657600080fd5b505af1158015610bda573d6000803e3d6000fd5b5050336000908152600f60205260409020805460ff1916600117905550505b336000908152600c602052604090205460ff16151560011415610cb3573360009081526010602052604090205460ff1615610c3357600080fd5b60048054604080516365568ecb60e01b81523393810193909352516001600160a01b03909116916365568ecb91602480830192600092919082900301818387803b158015610c8057600080fd5b505af1158015610c94573d6000803e3d6000fd5b5050336000908152601060205260409020805460ff1916600117905550505b565b610cbd610ffb565b6000546001600160a01b03908116911614610d0d576040805162461bcd60e51b81526020600482018190526024820152600080516020611026833981519152604482015290519081900360640190fd5b60005b8151811015610732576001600a6000848481518110610d2b57fe5b60200260200101516001600160a01b03166001600160a01b0316815260200190815260200160002060006101000a81548160ff0219169083151502179055506006828281518110610d7857fe5b60209081029190910181015182546001808201855560009485529290932090920180546001600160a01b0319166001600160a01b039093169290921790915501610d10565b6001546001600160a01b031681565b6002546001600160a01b031681565b610de3610ffb565b6000546001600160a01b03908116911614610e33576040805162461bcd60e51b81526020600482018190526024820152600080516020611026833981519152604482015290519081900360640190fd5b600080546040516001600160a01b03909116907f8be0079c531659141344cd1fd0a4f28419497f9722a3daafe3b4186f6b6457e0908390a3600080546001600160a01b0319169055565b6000546001600160a01b031690565b6004546001600160a01b031681565b6008818154811061086057fe5b600f6020526000908152604090205460ff1681565b60096020526000908152604090205460ff1681565b60106020526000908152604090205460ff1681565b6005818154811061086057fe5b6003546001600160a01b031681565b610f0b610ffb565b6000546001600160a01b03908116911614610f5b576040805162461bcd60e51b81526020600482018190526024820152600080516020611026833981519152604482015290519081900360640190fd5b6001600160a01b038116610fa05760405162461bcd60e51b81526004018080602001828103825260268152602001806110006026913960400191505060405180910390fd5b600080546040516001600160a01b03808516939216917f8be0079c531659141344cd1fd0a4f28419497f9722a3daafe3b4186f6b6457e091a3600080546001600160a01b0319166001600160a01b0392909216919091179055565b339056fe4f776e61626c653a206e6577206f776e657220697320746865207a65726f20616464726573734f776e61626c653a2063616c6c6572206973206e6f7420746865206f776e6572a2646970667358221220df39c9de734e95a11b1f373faf1536814f829af0e1606cdf4b340ad6c889606064736f6c63430006060033",
  "immutableReferences": {},
  "source": "pragma solidity ^0.6.0;\n\nimport \"@openzeppelin/contracts/access/Ownable.sol\";\nimport \"./WarpNFTEpic.sol\";\nimport \"./WarpNFTLegendary.sol\";\nimport \"./WarpNFTRare.sol\";\nimport \"./WarpNFTSocial.sol\";\n\ncontract WarpNFTClaimControl is Ownable {\n  WarpNFTEpic public WNFTE;\n  WarpNFTLegendary public WNFTL;\n  WarpNFTRare public WNFTR;\n  WarpNFTSocial public WNFTS;\n\n\n\n  address[] public epicList;\n  address[] public legendaryList;\n  address[] public rareList;\n  address[] public socialList;\n\n  mapping(address => bool) public epicWhiteList;\n  mapping(address => bool) public legendaryWhiteList;\n  mapping(address => bool) public rareWhiteList;\n  mapping(address => bool) public socialWhiteList;\n  mapping(address => bool) public epicClaimed;\n  mapping(address => bool) public legendaryClaimed;\n  mapping(address => bool) public rareClaimed;\n  mapping(address => bool) public socialClaimed;\n\n/**\n@notice the constructor function is fired only once during contract deployment\n\n**/\n  constructor(\n    WarpNFTEpic _NFTEpic,\n    WarpNFTLegendary _NFTLegendary,\n    WarpNFTRare _NFTRare,\n    WarpNFTSocial _NFTSocial\n  ) public {\n    WNFTE = _NFTEpic;\n    WNFTL = _NFTLegendary;\n    WNFTR = _NFTRare;\n    WNFTS = _NFTSocial;\n  }\n\n/**\n@notice epicWhiteLister takes in an array of addresses and whitelists them to receive the epic NFT\n@param _addresses is an array of addresses to be whitelisted\n@dev this function is protected by the onlyOwner modifier and can only be called by the owner of this contract\n**/\nfunction epicWhiteLister(address[] memory _addresses) public onlyOwner {\n    for (uint256 i = 0; i < _addresses.length; ++i) {\n        epicWhiteList[_addresses[i]] = true;\n        epicList.push(_addresses[i]);\n    }\n}\n\n/**\n@notice legendaryWhiteLister takes in an array of addresses and whitelists them to receive the legendary NFT\n@param _addresses is an array of addresses to be whitelisted\n@dev this function is protected by the onlyOwner modifier and can only be called by the owner of this contract\n**/\nfunction legendaryWhiteLister(address[] memory _addresses) public onlyOwner {\n    for (uint256 i = 0; i < _addresses.length; ++i) {\n        legendaryWhiteList[_addresses[i]] = true;\n        legendaryList.push(_addresses[i]);\n    }\n}\n\n/**\n@notice rareWhiteLister takes in an array of addresses and whitelists them to receive the rare NFT\n@param _addresses is an array of addresses to be whitelisted\n@dev this function is protected by the onlyOwner modifier and can only be called by the owner of this contract\n**/\nfunction rareWhiteLister(address[] memory _addresses) public onlyOwner {\n    for (uint256 i = 0; i < _addresses.length; ++i) {\n        rareWhiteList[_addresses[i]] = true;\n        rareList.push(_addresses[i]);\n    }\n}\n\n/**\n@notice socialWhiteLister takes in an array of addresses and whitelists them to receive the social NFT\n@param _addresses is an array of addresses to be whitelisted\n@dev this function is protected by the onlyOwner modifier and can only be called by the owner of this contract\n**/\nfunction socialWhiteLister(address[] memory _addresses) public onlyOwner {\n    for (uint256 i = 0; i < _addresses.length; ++i) {\n        socialWhiteList[_addresses[i]] = true;\n        socialList.push(_addresses[i]);\n    }\n}\n\n/**\n@notice claimNFTs is a public function that allows a end user to claim ALL of the NFT's they are owed by the warp platform\n@dev this function uses the address whitelists to distribute the appropriate NFT's to warp users\n@dev this function sets a tokens type when minting a new token. A tokens type can be used by other warp contracts\n      to determine what type of token a user holds\n      Type 1: Epic NFT\n      Type 2: Legendary NFT\n      Type 3: Rare NFT\n      Type 4: Social NFT\n**/\nfunction claimNFTs() public {\n\n  if(epicWhiteList[msg.sender] == true) {\n    require(epicClaimed[msg.sender] == false);\n    WNFTE.mintNewNFT(msg.sender);\n    epicClaimed[msg.sender] = true;\n  }\n\n  if(legendaryWhiteList[msg.sender] == true) {\n    require(legendaryClaimed[msg.sender] == false);\n    WNFTL.mintNewNFT(msg.sender);\n    legendaryClaimed[msg.sender] = true;\n  }\n\n  if(rareWhiteList[msg.sender] == true) {\n    require(rareClaimed[msg.sender] == false);\n    WNFTR.mintNewNFT(msg.sender);\n    rareClaimed[msg.sender] = true;\n  }\n\n  if(socialWhiteList[msg.sender] == true) {\n    require(socialClaimed[msg.sender] == false);\n    WNFTS.mintNewNFT(msg.sender);\n    socialClaimed[msg.sender] = true;\n  }\n\n}\n\n}\n",
  "sourcePath": "/home/stan36/repos/Warp/nft-distribute/contracts/WarpNFTClaimControl.sol",
  "compiler": {
    "name": "solc",
    "version": "0.6.6+commit.6c089d02.Emscripten.clang"
  },
  "schemaVersion": "3.3.2",
  "updatedAt": "2020-12-14T19:08:09.308Z",
  "devdoc": {
    "methods": {
      "claimNFTs()": {
        "details": "this function uses the address whitelists to distribute the appropriate NFT's to warp usersthis function sets a tokens type when minting a new token. A tokens type can be used by other warp contracts to determine what type of token a user holds Type 1: Epic NFT Type 2: Legendary NFT Type 3: Rare NFT Type 4: Social NFT*"
      },
      "epicWhiteLister(address[])": {
        "details": "this function is protected by the onlyOwner modifier and can only be called by the owner of this contract*",
        "params": {
          "_addresses": "is an array of addresses to be whitelisted"
        }
      },
      "legendaryWhiteLister(address[])": {
        "details": "this function is protected by the onlyOwner modifier and can only be called by the owner of this contract*",
        "params": {
          "_addresses": "is an array of addresses to be whitelisted"
        }
      },
      "owner()": {
        "details": "Returns the address of the current owner."
      },
      "rareWhiteLister(address[])": {
        "details": "this function is protected by the onlyOwner modifier and can only be called by the owner of this contract*",
        "params": {
          "_addresses": "is an array of addresses to be whitelisted"
        }
      },
      "renounceOwnership()": {
        "details": "Leaves the contract without owner. It will not be possible to call `onlyOwner` functions anymore. Can only be called by the current owner.     * NOTE: Renouncing ownership will leave the contract without an owner, thereby removing any functionality that is only available to the owner."
      },
      "socialWhiteLister(address[])": {
        "details": "this function is protected by the onlyOwner modifier and can only be called by the owner of this contract*",
        "params": {
          "_addresses": "is an array of addresses to be whitelisted"
        }
      },
      "transferOwnership(address)": {
        "details": "Transfers ownership of the contract to a new account (`newOwner`). Can only be called by the current owner."
      }
    }
  },
  "userdoc": {
    "methods": {
      "claimNFTs()": {
        "notice": "claimNFTs is a public function that allows a end user to claim ALL of the NFT's they are owed by the warp platform"
      },
      "constructor": "the constructor function is fired only once during contract deployment*",
      "epicWhiteLister(address[])": {
        "notice": "epicWhiteLister takes in an array of addresses and whitelists them to receive the epic NFT"
      },
      "legendaryWhiteLister(address[])": {
        "notice": "legendaryWhiteLister takes in an array of addresses and whitelists them to receive the legendary NFT"
      },
      "rareWhiteLister(address[])": {
        "notice": "rareWhiteLister takes in an array of addresses and whitelists them to receive the rare NFT"
      },
      "socialWhiteLister(address[])": {
        "notice": "socialWhiteLister takes in an array of addresses and whitelists them to receive the social NFT"
      }
    }
  }
}