{
  "contractName": "WarpNFTLegendary",
  "abi": [
    {
      "inputs": [
        {
          "internalType": "string",
          "name": "_URI",
          "type": "string"
        }
      ],
      "stateMutability": "nonpayable",
      "type": "constructor"
    },
    {
      "anonymous": false,
      "inputs": [
        {
          "indexed": true,
          "internalType": "address",
          "name": "owner",
          "type": "address"
        },
        {
          "indexed": true,
          "internalType": "address",
          "name": "approved",
          "type": "address"
        },
        {
          "indexed": true,
          "internalType": "uint256",
          "name": "tokenId",
          "type": "uint256"
        }
      ],
      "name": "Approval",
      "type": "event"
    },
    {
      "anonymous": false,
      "inputs": [
        {
          "indexed": true,
          "internalType": "address",
          "name": "owner",
          "type": "address"
        },
        {
          "indexed": true,
          "internalType": "address",
          "name": "operator",
          "type": "address"
        },
        {
          "indexed": false,
          "internalType": "bool",
          "name": "approved",
          "type": "bool"
        }
      ],
      "name": "ApprovalForAll",
      "type": "event"
    },
    {
      "anonymous": false,
      "inputs": [
        {
          "indexed": true,
          "internalType": "address",
          "name": "previousOwner",
          "type": "address"
        },
        {
          "indexed": true,
          "internalType": "address",
          "name": "newOwner",
          "type": "address"
        }
      ],
      "name": "OwnershipTransferred",
      "type": "event"
    },
    {
      "anonymous": false,
      "inputs": [
        {
          "indexed": true,
          "internalType": "address",
          "name": "from",
          "type": "address"
        },
        {
          "indexed": true,
          "internalType": "address",
          "name": "to",
          "type": "address"
        },
        {
          "indexed": true,
          "internalType": "uint256",
          "name": "tokenId",
          "type": "uint256"
        }
      ],
      "name": "Transfer",
      "type": "event"
    },
    {
      "inputs": [],
      "name": "URI",
      "outputs": [
        {
          "internalType": "string",
          "name": "",
          "type": "string"
        }
      ],
      "stateMutability": "view",
      "type": "function",
      "constant": true
    },
    {
      "inputs": [
        {
          "internalType": "address",
          "name": "to",
          "type": "address"
        },
        {
          "internalType": "uint256",
          "name": "tokenId",
          "type": "uint256"
        }
      ],
      "name": "approve",
      "outputs": [],
      "stateMutability": "nonpayable",
      "type": "function"
    },
    {
      "inputs": [
        {
          "internalType": "address",
          "name": "owner",
          "type": "address"
        }
      ],
      "name": "balanceOf",
      "outputs": [
        {
          "internalType": "uint256",
          "name": "",
          "type": "uint256"
        }
      ],
      "stateMutability": "view",
      "type": "function",
      "constant": true
    },
    {
      "inputs": [],
      "name": "baseURI",
      "outputs": [
        {
          "internalType": "string",
          "name": "",
          "type": "string"
        }
      ],
      "stateMutability": "view",
      "type": "function",
      "constant": true
    },
    {
      "inputs": [
        {
          "internalType": "uint256",
          "name": "tokenId",
          "type": "uint256"
        }
      ],
      "name": "getApproved",
      "outputs": [
        {
          "internalType": "address",
          "name": "",
          "type": "address"
        }
      ],
      "stateMutability": "view",
      "type": "function",
      "constant": true
    },
    {
      "inputs": [],
      "name": "idTracker",
      "outputs": [
        {
          "internalType": "uint256",
          "name": "",
          "type": "uint256"
        }
      ],
      "stateMutability": "view",
      "type": "function",
      "constant": true
    },
    {
      "inputs": [
        {
          "internalType": "address",
          "name": "owner",
          "type": "address"
        },
        {
          "internalType": "address",
          "name": "operator",
          "type": "address"
        }
      ],
      "name": "isApprovedForAll",
      "outputs": [
        {
          "internalType": "bool",
          "name": "",
          "type": "bool"
        }
      ],
      "stateMutability": "view",
      "type": "function",
      "constant": true
    },
    {
      "inputs": [],
      "name": "name",
      "outputs": [
        {
          "internalType": "string",
          "name": "",
          "type": "string"
        }
      ],
      "stateMutability": "view",
      "type": "function",
      "constant": true
    },
    {
      "inputs": [],
      "name": "owner",
      "outputs": [
        {
          "internalType": "address",
          "name": "",
          "type": "address"
        }
      ],
      "stateMutability": "view",
      "type": "function",
      "constant": true
    },
    {
      "inputs": [
        {
          "internalType": "uint256",
          "name": "tokenId",
          "type": "uint256"
        }
      ],
      "name": "ownerOf",
      "outputs": [
        {
          "internalType": "address",
          "name": "",
          "type": "address"
        }
      ],
      "stateMutability": "view",
      "type": "function",
      "constant": true
    },
    {
      "inputs": [],
      "name": "renounceOwnership",
      "outputs": [],
      "stateMutability": "nonpayable",
      "type": "function"
    },
    {
      "inputs": [
        {
          "internalType": "address",
          "name": "from",
          "type": "address"
        },
        {
          "internalType": "address",
          "name": "to",
          "type": "address"
        },
        {
          "internalType": "uint256",
          "name": "tokenId",
          "type": "uint256"
        }
      ],
      "name": "safeTransferFrom",
      "outputs": [],
      "stateMutability": "nonpayable",
      "type": "function"
    },
    {
      "inputs": [
        {
          "internalType": "address",
          "name": "from",
          "type": "address"
        },
        {
          "internalType": "address",
          "name": "to",
          "type": "address"
        },
        {
          "internalType": "uint256",
          "name": "tokenId",
          "type": "uint256"
        },
        {
          "internalType": "bytes",
          "name": "_data",
          "type": "bytes"
        }
      ],
      "name": "safeTransferFrom",
      "outputs": [],
      "stateMutability": "nonpayable",
      "type": "function"
    },
    {
      "inputs": [
        {
          "internalType": "address",
          "name": "operator",
          "type": "address"
        },
        {
          "internalType": "bool",
          "name": "approved",
          "type": "bool"
        }
      ],
      "name": "setApprovalForAll",
      "outputs": [],
      "stateMutability": "nonpayable",
      "type": "function"
    },
    {
      "inputs": [
        {
          "internalType": "bytes4",
          "name": "interfaceId",
          "type": "bytes4"
        }
      ],
      "name": "supportsInterface",
      "outputs": [
        {
          "internalType": "bool",
          "name": "",
          "type": "bool"
        }
      ],
      "stateMutability": "view",
      "type": "function",
      "constant": true
    },
    {
      "inputs": [],
      "name": "symbol",
      "outputs": [
        {
          "internalType": "string",
          "name": "",
          "type": "string"
        }
      ],
      "stateMutability": "view",
      "type": "function",
      "constant": true
    },
    {
      "inputs": [
        {
          "internalType": "uint256",
          "name": "index",
          "type": "uint256"
        }
      ],
      "name": "tokenByIndex",
      "outputs": [
        {
          "internalType": "uint256",
          "name": "",
          "type": "uint256"
        }
      ],
      "stateMutability": "view",
      "type": "function",
      "constant": true
    },
    {
      "inputs": [
        {
          "internalType": "address",
          "name": "owner",
          "type": "address"
        },
        {
          "internalType": "uint256",
          "name": "index",
          "type": "uint256"
        }
      ],
      "name": "tokenOfOwnerByIndex",
      "outputs": [
        {
          "internalType": "uint256",
          "name": "",
          "type": "uint256"
        }
      ],
      "stateMutability": "view",
      "type": "function",
      "constant": true
    },
    {
      "inputs": [
        {
          "internalType": "uint256",
          "name": "tokenId",
          "type": "uint256"
        }
      ],
      "name": "tokenURI",
      "outputs": [
        {
          "internalType": "string",
          "name": "",
          "type": "string"
        }
      ],
      "stateMutability": "view",
      "type": "function",
      "constant": true
    },
    {
      "inputs": [],
      "name": "totalSupply",
      "outputs": [
        {
          "internalType": "uint256",
          "name": "",
          "type": "uint256"
        }
      ],
      "stateMutability": "view",
      "type": "function",
      "constant": true
    },
    {
      "inputs": [
        {
          "internalType": "address",
          "name": "from",
          "type": "address"
        },
        {
          "internalType": "address",
          "name": "to",
          "type": "address"
        },
        {
          "internalType": "uint256",
          "name": "tokenId",
          "type": "uint256"
        }
      ],
      "name": "transferFrom",
      "outputs": [],
      "stateMutability": "nonpayable",
      "type": "function"
    },
    {
      "inputs": [
        {
          "internalType": "address",
          "name": "newOwner",
          "type": "address"
        }
      ],
      "name": "transferOwnership",
      "outputs": [],
      "stateMutability": "nonpayable",
      "type": "function"
    },
    {
      "inputs": [
        {
          "internalType": "address",
          "name": "_to",
          "type": "address"
        }
      ],
      "name": "mintNewNFT",
      "outputs": [],
      "stateMutability": "nonpayable",
      "type": "function"
    },
    {
      "inputs": [
        {
          "internalType": "string",
          "name": "_newURI",
          "type": "string"
        }
      ],
      "name": "updateAllURIs",
      "outputs": [],
      "stateMutability": "nonpayable",
      "type": "function"
    },
    {
      "inputs": [
        {
          "internalType": "uint256",
          "name": "_tokenID",
          "type": "uint256"
        }
      ],
      "name": "updateTokenURI",
      "outputs": [],
      "stateMutability": "nonpayable",
      "type": "function"
    }
  ],
  "bytecode": "0x60806040523480156200001157600080fd5b506040516200266b3803806200266b833981810160405260208110156200003757600080fd5b81019080805160405193929190846401000000008211156200005857600080fd5b9083019060208201858111156200006e57600080fd5b82516401000000008111828201881017156200008957600080fd5b82525081516020918201929091019080838360005b83811015620000b85781810151838201526020016200009e565b50505050905090810190601f168015620000e65780820380516001836020036101000a031916815260200191505b506040525050506040518060400160405280601281526020017115d85c9c08131959d95b99185c9e4813919560721b8152506040518060400160405280600581526020016415d313919560da1b8152506000620001486200024e60201b60201c565b600080546001600160a01b0319166001600160a01b0383169081178255604051929350917f8be0079c531659141344cd1fd0a4f28419497f9722a3daafe3b4186f6b6457e0908290a350620001ad6301ffc9a760e01b6001600160e01b036200025316565b8151620001c2906007906020850190620002db565b508051620001d8906008906020840190620002db565b50620001f46380ac58cd60e01b6001600160e01b036200025316565b6200020f635b5e139f60e01b6001600160e01b036200025316565b6200022a63780e9d6360e01b6001600160e01b036200025316565b505080516200024190600c906020840190620002db565b50506000600b556200037d565b335b90565b6001600160e01b03198082161415620002b3576040805162461bcd60e51b815260206004820152601c60248201527f4552433136353a20696e76616c696420696e7465726661636520696400000000604482015290519081900360640190fd5b6001600160e01b0319166000908152600160208190526040909120805460ff19169091179055565b828054600181600116156101000203166002900490600052602060002090601f016020900481019282601f106200031e57805160ff19168380011785556200034e565b828001600101855582156200034e579182015b828111156200034e57825182559160200191906001019062000331565b506200035c92915062000360565b5090565b6200025091905b808211156200035c576000815560010162000367565b6122de806200038d6000396000f3fe608060405234801561001057600080fd5b50600436106101735760003560e01c80636352211e116100de5780638da5cb5b11610097578063b88d4fde11610071578063b88d4fde146104f0578063c87b56dd146105b6578063e985e9c5146105d3578063f2fde38b1461060157610173565b80638da5cb5b146104b257806395d89b41146104ba578063a22cb465146104c257610173565b80636352211e1461039357806365568ecb146103b057806369e295e8146103d65780636c0360eb1461047c57806370a0823114610484578063715018a6146104aa57610173565b80631b7fe6b6116101305780631b7fe6b6146102b957806323b872dd146102c15780632f745c59146102f757806342842e0e146103235780634f6ccce7146103595780635bca20161461037657610173565b806301ffc9a71461017857806306fdde03146101b3578063081812fc14610230578063095ea7b3146102695780631141d7de1461029757806318160ddd1461029f575b600080fd5b61019f6004803603602081101561018e57600080fd5b50356001600160e01b031916610627565b604080519115158252519081900360200190f35b6101bb61064a565b6040805160208082528351818301528351919283929083019185019080838360005b838110156101f55781810151838201526020016101dd565b50505050905090810190601f1680156102225780820380516001836020036101000a031916815260200191505b509250505060405180910390f35b61024d6004803603602081101561024657600080fd5b50356106e1565b604080516001600160a01b039092168252519081900360200190f35b6102956004803603604081101561027f57600080fd5b506001600160a01b038135169060200135610743565b005b6101bb61081e565b6102a76108ac565b60408051918252519081900360200190f35b6102a76108bd565b610295600480360360608110156102d757600080fd5b506001600160a01b038135811691602081013590911690604001356108c3565b6102a76004803603604081101561030d57600080fd5b506001600160a01b03813516906020013561091a565b6102956004803603606081101561033957600080fd5b506001600160a01b0381358116916020810135909116906040013561094b565b6102a76004803603602081101561036f57600080fd5b5035610966565b6102956004803603602081101561038c57600080fd5b5035610982565b61024d600480360360208110156103a957600080fd5b5035610a3a565b610295600480360360208110156103c657600080fd5b50356001600160a01b0316610a68565b610295600480360360208110156103ec57600080fd5b81019060208101813564010000000081111561040757600080fd5b82018360208201111561041957600080fd5b8035906020019184600183028401116401000000008311171561043b57600080fd5b91908080601f016020809104026020016040519081016040528093929190818152602001838380828437600092019190915250929550610b3e945050505050565b6101bb610bad565b6102a76004803603602081101561049a57600080fd5b50356001600160a01b0316610c0e565b610295610c76565b61024d610d18565b6101bb610d27565b610295600480360360408110156104d857600080fd5b506001600160a01b0381351690602001351515610d88565b6102956004803603608081101561050657600080fd5b6001600160a01b0382358116926020810135909116916040820135919081019060808101606082013564010000000081111561054157600080fd5b82018360208201111561055357600080fd5b8035906020019184600183028401116401000000008311171561057557600080fd5b91908080601f016020809104026020016040519081016040528093929190818152602001838380828437600092019190915250929550610e8d945050505050565b6101bb600480360360208110156105cc57600080fd5b5035610eeb565b61019f600480360360408110156105e957600080fd5b506001600160a01b0381358116916020013516611192565b6102956004803603602081101561061757600080fd5b50356001600160a01b03166111c0565b6001600160e01b0319811660009081526001602052604090205460ff165b919050565b60078054604080516020601f60026000196101006001881615020190951694909404938401819004810282018101909252828152606093909290918301828280156106d65780601f106106ab576101008083540402835291602001916106d6565b820191906000526020600020905b8154815290600101906020018083116106b957829003601f168201915b505050505090505b90565b60006106ec826112b8565b6107275760405162461bcd60e51b815260040180806020018281038252602c815260200180612187602c913960400191505060405180910390fd5b506000908152600560205260409020546001600160a01b031690565b600061074e82610a3a565b9050806001600160a01b0316836001600160a01b031614156107a15760405162461bcd60e51b81526004018080602001828103825260218152602001806122576021913960400191505060405180910390fd5b806001600160a01b03166107b36112cb565b6001600160a01b031614806107d457506107d4816107cf6112cb565b611192565b61080f5760405162461bcd60e51b81526004018080602001828103825260388152602001806120da6038913960400191505060405180910390fd5b61081983836112cf565b505050565b600c805460408051602060026001851615610100026000190190941693909304601f810184900484028201840190925281815292918301828280156108a45780601f10610879576101008083540402835291602001916108a4565b820191906000526020600020905b81548152906001019060200180831161088757829003601f168201915b505050505081565b60006108b8600361133d565b905090565b600b5481565b6108d46108ce6112cb565b82611348565b61090f5760405162461bcd60e51b81526004018080602001828103825260318152602001806122786031913960400191505060405180910390fd5b6108198383836113ec565b6001600160a01b0382166000908152600260205260408120610942908363ffffffff61154a16565b90505b92915050565b61081983838360405180602001604052806000815250610e8d565b60008061097a60038463ffffffff61155616565b509392505050565b3361098c82610a3a565b6001600160a01b03161461099f57600080fd5b600c805460408051602060026001851615610100026000190190941693909304601f8101849004840282018401909252818152610a3793859391929091830182828015610a2d5780601f10610a0257610100808354040283529160200191610a2d565b820191906000526020600020905b815481529060010190602001808311610a1057829003601f168201915b5050505050611572565b50565b60006109458260405180606001604052806029815260200161213c602991396003919063ffffffff6115d516565b610a706112cb565b6000546001600160a01b03908116911614610ac0576040805162461bcd60e51b815260206004820181905260248201526000805160206121df833981519152604482015290519081900360640190fd5b610acc81600b546115ec565b600b54600c8054604080516020601f60026000196101006001881615020190951694909404938401819004810282018101909252828152610b32949390929091830182828015610a2d5780601f10610a0257610100808354040283529160200191610a2d565b50600b80546001019055565b610b466112cb565b6000546001600160a01b03908116911614610b96576040805162461bcd60e51b815260206004820181905260248201526000805160206121df833981519152604482015290519081900360640190fd5b8051610ba990600c906020840190611f77565b5050565b600a8054604080516020601f60026000196101006001881615020190951694909404938401819004810282018101909252828152606093909290918301828280156106d65780601f106106ab576101008083540402835291602001916106d6565b60006001600160a01b038216610c555760405162461bcd60e51b815260040180806020018281038252602a815260200180612112602a913960400191505060405180910390fd5b6001600160a01b03821660009081526002602052604090206109459061133d565b610c7e6112cb565b6000546001600160a01b03908116911614610cce576040805162461bcd60e51b815260206004820181905260248201526000805160206121df833981519152604482015290519081900360640190fd5b600080546040516001600160a01b03909116907f8be0079c531659141344cd1fd0a4f28419497f9722a3daafe3b4186f6b6457e0908390a3600080546001600160a01b0319169055565b6000546001600160a01b031690565b60088054604080516020601f60026000196101006001881615020190951694909404938401819004810282018101909252828152606093909290918301828280156106d65780601f106106ab576101008083540402835291602001916106d6565b610d906112cb565b6001600160a01b0316826001600160a01b03161415610df6576040805162461bcd60e51b815260206004820152601960248201527f4552433732313a20617070726f766520746f2063616c6c657200000000000000604482015290519081900360640190fd5b8060066000610e036112cb565b6001600160a01b03908116825260208083019390935260409182016000908120918716808252919093529120805460ff191692151592909217909155610e476112cb565b60408051841515815290516001600160a01b0392909216917f17307eab39ab6107e8899845ad3d59bd9653f200f220920489ca2b5937696c319181900360200190a35050565b610e9e610e986112cb565b83611348565b610ed95760405162461bcd60e51b81526004018080602001828103825260318152602001806122786031913960400191505060405180910390fd5b610ee584848484611606565b50505050565b6060610ef6826112b8565b610f315760405162461bcd60e51b815260040180806020018281038252602f815260200180612228602f913960400191505060405180910390fd5b60008281526009602090815260409182902080548351601f6002600019610100600186161502019093169290920491820184900484028101840190945280845260609392830182828015610fc65780601f10610f9b57610100808354040283529160200191610fc6565b820191906000526020600020905b815481529060010190602001808311610fa957829003601f168201915b5050600a5493945050505060026000196101006001841615020190911604610fef579050610645565b8051156110c057600a8160405160200180838054600181600116156101000203166002900480156110575780601f10611035576101008083540402835291820191611057565b820191906000526020600020905b815481529060010190602001808311611043575b5050825160208401908083835b602083106110835780518252601f199092019160209182019101611064565b6001836020036101000a03801982511681845116808217855250505050505090500192505050604051602081830303815290604052915050610645565b600a6110cb84611658565b60405160200180838054600181600116156101000203166002900480156111295780601f10611107576101008083540402835291820191611129565b820191906000526020600020905b815481529060010190602001808311611115575b5050825160208401908083835b602083106111555780518252601f199092019160209182019101611136565b6001836020036101000a03801982511681845116808217855250505050505090500192505050604051602081830303815290604052915050919050565b6001600160a01b03918216600090815260066020908152604080832093909416825291909152205460ff1690565b6111c86112cb565b6000546001600160a01b03908116911614611218576040805162461bcd60e51b815260206004820181905260248201526000805160206121df833981519152604482015290519081900360640190fd5b6001600160a01b03811661125d5760405162461bcd60e51b81526004018080602001828103825260268152602001806120646026913960400191505060405180910390fd5b600080546040516001600160a01b03808516939216917f8be0079c531659141344cd1fd0a4f28419497f9722a3daafe3b4186f6b6457e091a3600080546001600160a01b0319166001600160a01b0392909216919091179055565b600061094560038363ffffffff61173316565b3390565b600081815260056020526040902080546001600160a01b0319166001600160a01b038416908117909155819061130482610a3a565b6001600160a01b03167f8c5be1e5ebec7d5bd14f71427d1e84f3dd0314c0f7b2291e5b200ac8c7c3b92560405160405180910390a45050565b60006109458261173f565b6000611353826112b8565b61138e5760405162461bcd60e51b815260040180806020018281038252602c8152602001806120ae602c913960400191505060405180910390fd5b600061139983610a3a565b9050806001600160a01b0316846001600160a01b031614806113d45750836001600160a01b03166113c9846106e1565b6001600160a01b0316145b806113e457506113e48185611192565b949350505050565b826001600160a01b03166113ff82610a3a565b6001600160a01b0316146114445760405162461bcd60e51b81526004018080602001828103825260298152602001806121ff6029913960400191505060405180910390fd5b6001600160a01b0382166114895760405162461bcd60e51b815260040180806020018281038252602481526020018061208a6024913960400191505060405180910390fd5b611494838383610819565b61149f6000826112cf565b6001600160a01b03831660009081526002602052604090206114c7908263ffffffff61174316565b506001600160a01b03821660009081526002602052604090206114f0908263ffffffff61174f16565b506115036003828463ffffffff61175b16565b5080826001600160a01b0316846001600160a01b03167fddf252ad1be2c89b69c2b068fc378daa952ba7f163c4a11628f55a4df523b3ef60405160405180910390a4505050565b60006109428383611771565b600080808061156586866117d5565b9097909650945050505050565b61157b826112b8565b6115b65760405162461bcd60e51b815260040180806020018281038252602c8152602001806121b3602c913960400191505060405180910390fd5b6000828152600960209081526040909120825161081992840190611f77565b60006115e2848484611850565b90505b9392505050565b610ba982826040518060200160405280600081525061191a565b6116118484846113ec565b61161d8484848461196c565b610ee55760405162461bcd60e51b81526004018080602001828103825260328152602001806120326032913960400191505060405180910390fd5b60608161167d57506040805180820190915260018152600360fc1b6020820152610645565b8160005b811561169557600101600a82049150611681565b60608167ffffffffffffffff811180156116ae57600080fd5b506040519080825280601f01601f1916602001820160405280156116d9576020820181803683370190505b50859350905060001982015b831561172a57600a840660300160f81b8282806001900393508151811061170857fe5b60200101906001600160f81b031916908160001a905350600a840493506116e5565b50949350505050565b60006109428383611aec565b5490565b60006109428383611b04565b60006109428383611bca565b60006115e284846001600160a01b038516611c14565b815460009082106117b35760405162461bcd60e51b81526004018080602001828103825260228152602001806120106022913960400191505060405180910390fd5b8260000182815481106117c257fe5b9060005260206000200154905092915050565b8154600090819083106118195760405162461bcd60e51b81526004018080602001828103825260228152602001806121656022913960400191505060405180910390fd5b600084600001848154811061182a57fe5b906000526020600020906002020190508060000154816001015492509250509250929050565b600082815260018401602052604081205482816118eb5760405162461bcd60e51b81526004018080602001828103825283818151815260200191508051906020019080838360005b838110156118b0578181015183820152602001611898565b50505050905090810190601f1680156118dd5780820380516001836020036101000a031916815260200191505b509250505060405180910390fd5b508460000160018203815481106118fe57fe5b9060005260206000209060020201600101549150509392505050565b6119248383611cab565b611931600084848461196c565b6108195760405162461bcd60e51b81526004018080602001828103825260328152602001806120326032913960400191505060405180910390fd5b6000611980846001600160a01b0316611de5565b61198c575060016113e4565b6060611ab2630a85bd0160e11b6119a16112cb565b88878760405160240180856001600160a01b03166001600160a01b03168152602001846001600160a01b03166001600160a01b0316815260200183815260200180602001828103825283818151815260200191508051906020019080838360005b83811015611a1a578181015183820152602001611a02565b50505050905090810190601f168015611a475780820380516001836020036101000a031916815260200191505b5095505050505050604051602081830303815290604052906001600160e01b0319166020820180516001600160e01b038381831617835250505050604051806060016040528060328152602001612032603291396001600160a01b038816919063ffffffff611deb16565b90506000818060200190516020811015611acb57600080fd5b50516001600160e01b031916630a85bd0160e11b1492505050949350505050565b60009081526001919091016020526040902054151590565b60008181526001830160205260408120548015611bc05783546000198083019190810190600090879083908110611b3757fe5b9060005260206000200154905080876000018481548110611b5457fe5b600091825260208083209091019290925582815260018981019092526040902090840190558654879080611b8457fe5b60019003818190600052602060002001600090559055866001016000878152602001908152602001600020600090556001945050505050610945565b6000915050610945565b6000611bd68383611aec565b611c0c57508154600181810184556000848152602080822090930184905584548482528286019093526040902091909155610945565b506000610945565b600082815260018401602052604081205480611c795750506040805180820182528381526020808201848152865460018181018955600089815284812095516002909302909501918255915190820155865486845281880190925292909120556115e5565b82856000016001830381548110611c8c57fe5b90600052602060002090600202016001018190555060009150506115e5565b6001600160a01b038216611d06576040805162461bcd60e51b815260206004820181905260248201527f4552433732313a206d696e7420746f20746865207a65726f2061646472657373604482015290519081900360640190fd5b611d0f816112b8565b15611d61576040805162461bcd60e51b815260206004820152601c60248201527f4552433732313a20746f6b656e20616c7265616479206d696e74656400000000604482015290519081900360640190fd5b611d6d60008383610819565b6001600160a01b0382166000908152600260205260409020611d95908263ffffffff61174f16565b50611da86003828463ffffffff61175b16565b5060405181906001600160a01b038416906000907fddf252ad1be2c89b69c2b068fc378daa952ba7f163c4a11628f55a4df523b3ef908290a45050565b3b151590565b60606115e2848460008585611dff85611de5565b611e50576040805162461bcd60e51b815260206004820152601d60248201527f416464726573733a2063616c6c20746f206e6f6e2d636f6e7472616374000000604482015290519081900360640190fd5b60006060866001600160a01b031685876040518082805190602001908083835b60208310611e8f5780518252601f199092019160209182019101611e70565b6001836020036101000a03801982511681845116808217855250505050505090500191505060006040518083038185875af1925050503d8060008114611ef1576040519150601f19603f3d011682016040523d82523d6000602084013e611ef6565b606091505b5091509150611f06828286611f11565b979650505050505050565b60608315611f205750816115e5565b825115611f305782518084602001fd5b60405162461bcd60e51b81526020600482018181528451602484015284518593919283926044019190850190808383600083156118b0578181015183820152602001611898565b828054600181600116156101000203166002900490600052602060002090601f016020900481019282601f10611fb857805160ff1916838001178555611fe5565b82800160010185558215611fe5579182015b82811115611fe5578251825591602001919060010190611fca565b50611ff1929150611ff5565b5090565b6106de91905b80821115611ff15760008155600101611ffb56fe456e756d657261626c655365743a20696e646578206f7574206f6620626f756e64734552433732313a207472616e7366657220746f206e6f6e20455243373231526563656976657220696d706c656d656e7465724f776e61626c653a206e6577206f776e657220697320746865207a65726f20616464726573734552433732313a207472616e7366657220746f20746865207a65726f20616464726573734552433732313a206f70657261746f7220717565727920666f72206e6f6e6578697374656e7420746f6b656e4552433732313a20617070726f76652063616c6c6572206973206e6f74206f776e6572206e6f7220617070726f76656420666f7220616c6c4552433732313a2062616c616e636520717565727920666f7220746865207a65726f20616464726573734552433732313a206f776e657220717565727920666f72206e6f6e6578697374656e7420746f6b656e456e756d657261626c654d61703a20696e646578206f7574206f6620626f756e64734552433732313a20617070726f76656420717565727920666f72206e6f6e6578697374656e7420746f6b656e4552433732314d657461646174613a2055524920736574206f66206e6f6e6578697374656e7420746f6b656e4f776e61626c653a2063616c6c6572206973206e6f7420746865206f776e65724552433732313a207472616e73666572206f6620746f6b656e2074686174206973206e6f74206f776e4552433732314d657461646174613a2055524920717565727920666f72206e6f6e6578697374656e7420746f6b656e4552433732313a20617070726f76616c20746f2063757272656e74206f776e65724552433732313a207472616e736665722063616c6c6572206973206e6f74206f776e6572206e6f7220617070726f766564a26469706673582212204d798aeeedb17fe47a781f656cd6e7b8aa43b668fafb6657f432cd1e7e5ec1d764736f6c63430006060033",
  "immutableReferences": {},
  "source": "pragma solidity ^0.6.0;\n\nimport \"@openzeppelin/contracts/access/Ownable.sol\";\nimport \"@openzeppelin/contracts/token/ERC721/ERC721.sol\";\n\ncontract WarpNFTLegendary is Ownable, ERC721 {\n  uint public idTracker;\n  string public URI;\n\n\n/**\n@notice the constructor function is fired only once during contract deployment\n@param _URI is a base address added to the front of every input tokenURI\n@dev assuming all NFT URI metadata is based on a URL he baseURI would be something like https://\n**/\n  constructor(string memory _URI) ERC721(\"Warp Legendary NFT\", \"WLNFT\") public {\n    URI = _URI;\n    idTracker = 0;\n  }\n\n/**\n@notice mintNewNFT allows the owner of this contract to mint an input address a newNFT\n@param _to is the address the NFT is being minted to\n**/\n  function mintNewNFT(address _to) public onlyOwner {\n    _safeMint(_to, idTracker);\n    _setTokenURI(idTracker, URI);\n    idTracker++;\n  }\n\n/**\n@notice updateAllURIs allows the owner of this contract to manually update the token URI\n@param _newURI is the new URI for the tokens\n**/\n  function updateAllURIs(string memory _newURI) public onlyOwner {\n    URI = _newURI;\n  }\n\n/**\n@notice updateTokenURI allows the owner of a token to update his tokens URI after the owner\n        sets a new one for use\n@param _tokenID is the ID of the token being upgraded\n**/\n  function updateTokenURI(uint _tokenID) public {\n    require(ownerOf(_tokenID) == msg.sender);\n    _setTokenURI(_tokenID, URI);\n  }\n\n}\n",
  "sourcePath": "/home/stan36/repos/Warp/nft-distribute/contracts/WarpNFTLegendary.sol",
  "compiler": {
    "name": "solc",
    "version": "0.6.6+commit.6c089d02.Emscripten.clang"
  },
  "schemaVersion": "3.3.2",
  "updatedAt": "2020-12-16T00:47:53.186Z",
  "networkType": "ethereum",
  "devdoc": {
    "methods": {
      "approve(address,uint256)": {
        "details": "See {IERC721-approve}."
      },
      "balanceOf(address)": {
        "details": "See {IERC721-balanceOf}."
      },
      "baseURI()": {
        "details": "Returns the base URI set via {_setBaseURI}. This will be automatically added as a prefix in {tokenURI} to each token's URI, or to the token ID if no specific URI is set for that token ID."
      },
      "constructor": {
        "details": "assuming all NFT URI metadata is based on a URL he baseURI would be something like https://*",
        "params": {
          "_URI": "is a base address added to the front of every input tokenURI"
        }
      },
      "getApproved(uint256)": {
        "details": "See {IERC721-getApproved}."
      },
      "isApprovedForAll(address,address)": {
        "details": "See {IERC721-isApprovedForAll}."
      },
      "mintNewNFT(address)": {
        "params": {
          "_to": "is the address the NFT is being minted to*"
        }
      },
      "name()": {
        "details": "See {IERC721Metadata-name}."
      },
      "owner()": {
        "details": "Returns the address of the current owner."
      },
      "ownerOf(uint256)": {
        "details": "See {IERC721-ownerOf}."
      },
      "renounceOwnership()": {
        "details": "Leaves the contract without owner. It will not be possible to call `onlyOwner` functions anymore. Can only be called by the current owner.     * NOTE: Renouncing ownership will leave the contract without an owner, thereby removing any functionality that is only available to the owner."
      },
      "safeTransferFrom(address,address,uint256)": {
        "details": "See {IERC721-safeTransferFrom}."
      },
      "safeTransferFrom(address,address,uint256,bytes)": {
        "details": "See {IERC721-safeTransferFrom}."
      },
      "setApprovalForAll(address,bool)": {
        "details": "See {IERC721-setApprovalForAll}."
      },
      "supportsInterface(bytes4)": {
        "details": "See {IERC165-supportsInterface}.     * Time complexity O(1), guaranteed to always use less than 30 000 gas."
      },
      "symbol()": {
        "details": "See {IERC721Metadata-symbol}."
      },
      "tokenByIndex(uint256)": {
        "details": "See {IERC721Enumerable-tokenByIndex}."
      },
      "tokenOfOwnerByIndex(address,uint256)": {
        "details": "See {IERC721Enumerable-tokenOfOwnerByIndex}."
      },
      "tokenURI(uint256)": {
        "details": "See {IERC721Metadata-tokenURI}."
      },
      "totalSupply()": {
        "details": "See {IERC721Enumerable-totalSupply}."
      },
      "transferFrom(address,address,uint256)": {
        "details": "See {IERC721-transferFrom}."
      },
      "transferOwnership(address)": {
        "details": "Transfers ownership of the contract to a new account (`newOwner`). Can only be called by the current owner."
      },
      "updateAllURIs(string)": {
        "params": {
          "_newURI": "is the new URI for the tokens*"
        }
      },
      "updateTokenURI(uint256)": {
        "params": {
          "_tokenID": "is the ID of the token being upgraded*"
        }
      }
    }
  },
  "userdoc": {
    "methods": {
      "constructor": "the constructor function is fired only once during contract deployment",
      "mintNewNFT(address)": {
        "notice": "mintNewNFT allows the owner of this contract to mint an input address a newNFT"
      },
      "updateAllURIs(string)": {
        "notice": "updateAllURIs allows the owner of this contract to manually update the token URI"
      },
      "updateTokenURI(uint256)": {
        "notice": "updateTokenURI allows the owner of a token to update his tokens URI after the owner sets a new one for use"
      }
    }
  }
}