{
  "contractName": "WarpNFTFactory",
  "abi": [
    {
      "inputs": [
        {
          "internalType": "string",
          "name": "_baseURI",
          "type": "string"
        }
      ],
      "stateMutability": "nonpayable",
      "type": "constructor"
    },
    {
      "anonymous": false,
      "inputs": [
        {
          "indexed": true,
          "internalType": "address",
          "name": "owner",
          "type": "address"
        },
        {
          "indexed": true,
          "internalType": "address",
          "name": "approved",
          "type": "address"
        },
        {
          "indexed": true,
          "internalType": "uint256",
          "name": "tokenId",
          "type": "uint256"
        }
      ],
      "name": "Approval",
      "type": "event"
    },
    {
      "anonymous": false,
      "inputs": [
        {
          "indexed": true,
          "internalType": "address",
          "name": "owner",
          "type": "address"
        },
        {
          "indexed": true,
          "internalType": "address",
          "name": "operator",
          "type": "address"
        },
        {
          "indexed": false,
          "internalType": "bool",
          "name": "approved",
          "type": "bool"
        }
      ],
      "name": "ApprovalForAll",
      "type": "event"
    },
    {
      "anonymous": false,
      "inputs": [
        {
          "indexed": true,
          "internalType": "address",
          "name": "previousOwner",
          "type": "address"
        },
        {
          "indexed": true,
          "internalType": "address",
          "name": "newOwner",
          "type": "address"
        }
      ],
      "name": "OwnershipTransferred",
      "type": "event"
    },
    {
      "anonymous": false,
      "inputs": [
        {
          "indexed": true,
          "internalType": "address",
          "name": "from",
          "type": "address"
        },
        {
          "indexed": true,
          "internalType": "address",
          "name": "to",
          "type": "address"
        },
        {
          "indexed": true,
          "internalType": "uint256",
          "name": "tokenId",
          "type": "uint256"
        }
      ],
      "name": "Transfer",
      "type": "event"
    },
    {
      "inputs": [
        {
          "internalType": "address",
          "name": "to",
          "type": "address"
        },
        {
          "internalType": "uint256",
          "name": "tokenId",
          "type": "uint256"
        }
      ],
      "name": "approve",
      "outputs": [],
      "stateMutability": "nonpayable",
      "type": "function"
    },
    {
      "inputs": [
        {
          "internalType": "address",
          "name": "owner",
          "type": "address"
        }
      ],
      "name": "balanceOf",
      "outputs": [
        {
          "internalType": "uint256",
          "name": "",
          "type": "uint256"
        }
      ],
      "stateMutability": "view",
      "type": "function"
    },
    {
      "inputs": [],
      "name": "baseURI",
      "outputs": [
        {
          "internalType": "string",
          "name": "",
          "type": "string"
        }
      ],
      "stateMutability": "view",
      "type": "function"
    },
    {
      "inputs": [
        {
          "internalType": "uint256",
          "name": "tokenId",
          "type": "uint256"
        }
      ],
      "name": "getApproved",
      "outputs": [
        {
          "internalType": "address",
          "name": "",
          "type": "address"
        }
      ],
      "stateMutability": "view",
      "type": "function"
    },
    {
      "inputs": [],
      "name": "idTracker",
      "outputs": [
        {
          "internalType": "uint256",
          "name": "",
          "type": "uint256"
        }
      ],
      "stateMutability": "view",
      "type": "function"
    },
    {
      "inputs": [
        {
          "internalType": "address",
          "name": "owner",
          "type": "address"
        },
        {
          "internalType": "address",
          "name": "operator",
          "type": "address"
        }
      ],
      "name": "isApprovedForAll",
      "outputs": [
        {
          "internalType": "bool",
          "name": "",
          "type": "bool"
        }
      ],
      "stateMutability": "view",
      "type": "function"
    },
    {
      "inputs": [],
      "name": "name",
      "outputs": [
        {
          "internalType": "string",
          "name": "",
          "type": "string"
        }
      ],
      "stateMutability": "view",
      "type": "function"
    },
    {
      "inputs": [],
      "name": "owner",
      "outputs": [
        {
          "internalType": "address",
          "name": "",
          "type": "address"
        }
      ],
      "stateMutability": "view",
      "type": "function"
    },
    {
      "inputs": [
        {
          "internalType": "uint256",
          "name": "tokenId",
          "type": "uint256"
        }
      ],
      "name": "ownerOf",
      "outputs": [
        {
          "internalType": "address",
          "name": "",
          "type": "address"
        }
      ],
      "stateMutability": "view",
      "type": "function"
    },
    {
      "inputs": [],
      "name": "renounceOwnership",
      "outputs": [],
      "stateMutability": "nonpayable",
      "type": "function"
    },
    {
      "inputs": [
        {
          "internalType": "address",
          "name": "from",
          "type": "address"
        },
        {
          "internalType": "address",
          "name": "to",
          "type": "address"
        },
        {
          "internalType": "uint256",
          "name": "tokenId",
          "type": "uint256"
        }
      ],
      "name": "safeTransferFrom",
      "outputs": [],
      "stateMutability": "nonpayable",
      "type": "function"
    },
    {
      "inputs": [
        {
          "internalType": "address",
          "name": "from",
          "type": "address"
        },
        {
          "internalType": "address",
          "name": "to",
          "type": "address"
        },
        {
          "internalType": "uint256",
          "name": "tokenId",
          "type": "uint256"
        },
        {
          "internalType": "bytes",
          "name": "_data",
          "type": "bytes"
        }
      ],
      "name": "safeTransferFrom",
      "outputs": [],
      "stateMutability": "nonpayable",
      "type": "function"
    },
    {
      "inputs": [
        {
          "internalType": "address",
          "name": "operator",
          "type": "address"
        },
        {
          "internalType": "bool",
          "name": "approved",
          "type": "bool"
        }
      ],
      "name": "setApprovalForAll",
      "outputs": [],
      "stateMutability": "nonpayable",
      "type": "function"
    },
    {
      "inputs": [
        {
          "internalType": "bytes4",
          "name": "interfaceId",
          "type": "bytes4"
        }
      ],
      "name": "supportsInterface",
      "outputs": [
        {
          "internalType": "bool",
          "name": "",
          "type": "bool"
        }
      ],
      "stateMutability": "view",
      "type": "function"
    },
    {
      "inputs": [],
      "name": "symbol",
      "outputs": [
        {
          "internalType": "string",
          "name": "",
          "type": "string"
        }
      ],
      "stateMutability": "view",
      "type": "function"
    },
    {
      "inputs": [
        {
          "internalType": "uint256",
          "name": "index",
          "type": "uint256"
        }
      ],
      "name": "tokenByIndex",
      "outputs": [
        {
          "internalType": "uint256",
          "name": "",
          "type": "uint256"
        }
      ],
      "stateMutability": "view",
      "type": "function"
    },
    {
      "inputs": [
        {
          "internalType": "address",
          "name": "owner",
          "type": "address"
        },
        {
          "internalType": "uint256",
          "name": "index",
          "type": "uint256"
        }
      ],
      "name": "tokenOfOwnerByIndex",
      "outputs": [
        {
          "internalType": "uint256",
          "name": "",
          "type": "uint256"
        }
      ],
      "stateMutability": "view",
      "type": "function"
    },
    {
      "inputs": [
        {
          "internalType": "uint256",
          "name": "",
          "type": "uint256"
        }
      ],
      "name": "tokenType",
      "outputs": [
        {
          "internalType": "uint256",
          "name": "",
          "type": "uint256"
        }
      ],
      "stateMutability": "view",
      "type": "function"
    },
    {
      "inputs": [
        {
          "internalType": "uint256",
          "name": "tokenId",
          "type": "uint256"
        }
      ],
      "name": "tokenURI",
      "outputs": [
        {
          "internalType": "string",
          "name": "",
          "type": "string"
        }
      ],
      "stateMutability": "view",
      "type": "function"
    },
    {
      "inputs": [],
      "name": "totalSupply",
      "outputs": [
        {
          "internalType": "uint256",
          "name": "",
          "type": "uint256"
        }
      ],
      "stateMutability": "view",
      "type": "function"
    },
    {
      "inputs": [
        {
          "internalType": "address",
          "name": "from",
          "type": "address"
        },
        {
          "internalType": "address",
          "name": "to",
          "type": "address"
        },
        {
          "internalType": "uint256",
          "name": "tokenId",
          "type": "uint256"
        }
      ],
      "name": "transferFrom",
      "outputs": [],
      "stateMutability": "nonpayable",
      "type": "function"
    },
    {
      "inputs": [
        {
          "internalType": "address",
          "name": "newOwner",
          "type": "address"
        }
      ],
      "name": "transferOwnership",
      "outputs": [],
      "stateMutability": "nonpayable",
      "type": "function"
    },
    {
      "inputs": [
        {
          "internalType": "address",
          "name": "_to",
          "type": "address"
        },
        {
          "internalType": "uint256",
          "name": "_type",
          "type": "uint256"
        },
        {
          "internalType": "string",
          "name": "_tokenURI",
          "type": "string"
        }
      ],
      "name": "mintNewNFT",
      "outputs": [],
      "stateMutability": "nonpayable",
      "type": "function"
    },
    {
      "inputs": [
        {
          "internalType": "address",
          "name": "_account",
          "type": "address"
        }
      ],
      "name": "getUserRewardLevel",
      "outputs": [
        {
          "internalType": "uint256",
          "name": "",
          "type": "uint256"
        }
      ],
      "stateMutability": "view",
      "type": "function"
    }
  ],
  "bytecode": "0x60806040523480156200001157600080fd5b506040516200252f3803806200252f833981810160405260208110156200003757600080fd5b81019080805160405193929190846401000000008211156200005857600080fd5b9083019060208201858111156200006e57600080fd5b82516401000000008111828201881017156200008957600080fd5b82525081516020918201929091019080838360005b83811015620000b85781810151838201526020016200009e565b50505050905090810190601f168015620000e65780820380516001836020036101000a031916815260200191505b506040525050506040518060400160405280600781526020016615d85c9c13919560ca1b8152506040518060400160405280600481526020016315d3919560e21b81525060006200013c6200023c60201b60201c565b600080546001600160a01b0319166001600160a01b0383169081178255604051929350917f8be0079c531659141344cd1fd0a4f28419497f9722a3daafe3b4186f6b6457e0908290a350620001a16301ffc9a760e01b6001600160e01b036200024116565b8151620001b6906007906020850190620002e2565b508051620001cc906008906020840190620002e2565b50620001e86380ac58cd60e01b6001600160e01b036200024116565b62000203635b5e139f60e01b6001600160e01b036200024116565b6200021e63780e9d6360e01b6001600160e01b036200024116565b50620002359050816001600160e01b03620002c916565b5062000384565b335b90565b6001600160e01b03198082161415620002a1576040805162461bcd60e51b815260206004820152601c60248201527f4552433136353a20696e76616c696420696e7465726661636520696400000000604482015290519081900360640190fd5b6001600160e01b0319166000908152600160208190526040909120805460ff19169091179055565b8051620002de90600a906020840190620002e2565b5050565b828054600181600116156101000203166002900490600052602060002090601f016020900481019282601f106200032557805160ff191683800117855562000355565b8280016001018555821562000355579182015b828111156200035557825182559160200191906001019062000338565b506200036392915062000367565b5090565b6200023e91905b808211156200036357600081556001016200036e565b61219b80620003946000396000f3fe608060405234801561001057600080fd5b50600436106101585760003560e01c806370a08231116100c3578063b88d4fde1161007c578063b88d4fde1461049f578063bdcb1b7f14610565578063c87b56dd1461058b578063e6c3b1f6146105a8578063e985e9c5146105c5578063f2fde38b146105f357610158565b806370a0823114610378578063715018a61461039e5780638aec6a23146103a65780638da5cb5b1461046157806395d89b4114610469578063a22cb4651461047157610158565b806323b872dd1161011557806323b872dd1461029e5780632f745c59146102d457806342842e0e146103005780634f6ccce7146103365780636352211e146103535780636c0360eb1461037057610158565b806301ffc9a71461015d57806306fdde0314610198578063081812fc14610215578063095ea7b31461024e57806318160ddd1461027c5780631b7fe6b614610296575b600080fd5b6101846004803603602081101561017357600080fd5b50356001600160e01b031916610619565b604080519115158252519081900360200190f35b6101a061063c565b6040805160208082528351818301528351919283929083019185019080838360005b838110156101da5781810151838201526020016101c2565b50505050905090810190601f1680156102075780820380516001836020036101000a031916815260200191505b509250505060405180910390f35b6102326004803603602081101561022b57600080fd5b50356106d3565b604080516001600160a01b039092168252519081900360200190f35b61027a6004803603604081101561026457600080fd5b506001600160a01b038135169060200135610735565b005b610284610810565b60408051918252519081900360200190f35b610284610821565b61027a600480360360608110156102b457600080fd5b506001600160a01b03813581169160208101359091169060400135610827565b610284600480360360408110156102ea57600080fd5b506001600160a01b03813516906020013561087e565b61027a6004803603606081101561031657600080fd5b506001600160a01b038135811691602081013590911690604001356108af565b6102846004803603602081101561034c57600080fd5b50356108ca565b6102326004803603602081101561036957600080fd5b50356108e6565b6101a0610914565b6102846004803603602081101561038e57600080fd5b50356001600160a01b0316610975565b61027a6109dd565b61027a600480360360608110156103bc57600080fd5b6001600160a01b03823516916020810135918101906060810160408201356401000000008111156103ec57600080fd5b8201836020820111156103fe57600080fd5b8035906020019184600183028401116401000000008311171561042057600080fd5b91908080601f016020809104026020016040519081016040528093929190818152602001838380828437600092019190915250929550610a91945050505050565b610232610b2b565b6101a0610b3a565b61027a6004803603604081101561048757600080fd5b506001600160a01b0381351690602001351515610b9b565b61027a600480360360808110156104b557600080fd5b6001600160a01b038235811692602081013590911691604082013591908101906080810160608201356401000000008111156104f057600080fd5b82018360208201111561050257600080fd5b8035906020019184600183028401116401000000008311171561052457600080fd5b91908080601f016020809104026020016040519081016040528093929190818152602001838380828437600092019190915250929550610ca0945050505050565b6102846004803603602081101561057b57600080fd5b50356001600160a01b0316610cfe565b6101a0600480360360208110156105a157600080fd5b5035610da0565b610284600480360360208110156105be57600080fd5b5035611047565b610184600480360360408110156105db57600080fd5b506001600160a01b0381358116916020013516611059565b61027a6004803603602081101561060957600080fd5b50356001600160a01b0316611087565b6001600160e01b0319811660009081526001602052604090205460ff165b919050565b60078054604080516020601f60026000196101006001881615020190951694909404938401819004810282018101909252828152606093909290918301828280156106c85780601f1061069d576101008083540402835291602001916106c8565b820191906000526020600020905b8154815290600101906020018083116106ab57829003601f168201915b505050505090505b90565b60006106de82611191565b6107195760405162461bcd60e51b815260040180806020018281038252602c815260200180612064602c913960400191505060405180910390fd5b506000908152600560205260409020546001600160a01b031690565b6000610740826108e6565b9050806001600160a01b0316836001600160a01b031614156107935760405162461bcd60e51b81526004018080602001828103825260218152602001806121146021913960400191505060405180910390fd5b806001600160a01b03166107a56111a4565b6001600160a01b031614806107c657506107c6816107c16111a4565b611059565b6108015760405162461bcd60e51b8152600401808060200182810382526038815260200180611fb76038913960400191505060405180910390fd5b61080b83836111a8565b505050565b600061081c6003611216565b905090565b600b5481565b6108386108326111a4565b82611221565b6108735760405162461bcd60e51b81526004018080602001828103825260318152602001806121356031913960400191505060405180910390fd5b61080b8383836112c5565b6001600160a01b03821660009081526002602052604081206108a6908363ffffffff61142316565b90505b92915050565b61080b83838360405180602001604052806000815250610ca0565b6000806108de60038463ffffffff61142f16565b509392505050565b60006108a982604051806060016040528060298152602001612019602991396003919063ffffffff61144b16565b600a8054604080516020601f60026000196101006001881615020190951694909404938401819004810282018101909252828152606093909290918301828280156106c85780601f1061069d576101008083540402835291602001916106c8565b60006001600160a01b0382166109bc5760405162461bcd60e51b815260040180806020018281038252602a815260200180611fef602a913960400191505060405180910390fd5b6001600160a01b03821660009081526002602052604090206108a990611216565b6109e56111a4565b6000546001600160a01b03908116911614610a47576040805162461bcd60e51b815260206004820181905260248201527f4f776e61626c653a2063616c6c6572206973206e6f7420746865206f776e6572604482015290519081900360640190fd5b600080546040516001600160a01b03909116907f8be0079c531659141344cd1fd0a4f28419497f9722a3daafe3b4186f6b6457e0908390a3600080546001600160a01b0319169055565b610a996111a4565b6000546001600160a01b03908116911614610afb576040805162461bcd60e51b815260206004820181905260248201527f4f776e61626c653a2063616c6c6572206973206e6f7420746865206f776e6572604482015290519081900360640190fd5b600b54610b09908490611462565b610b15600b5482611480565b50600b546000908152600c602052604090205550565b6000546001600160a01b031690565b60088054604080516020601f60026000196101006001881615020190951694909404938401819004810282018101909252828152606093909290918301828280156106c85780601f1061069d576101008083540402835291602001916106c8565b610ba36111a4565b6001600160a01b0316826001600160a01b03161415610c09576040805162461bcd60e51b815260206004820152601960248201527f4552433732313a20617070726f766520746f2063616c6c657200000000000000604482015290519081900360640190fd5b8060066000610c166111a4565b6001600160a01b03908116825260208083019390935260409182016000908120918716808252919093529120805460ff191692151592909217909155610c5a6111a4565b60408051841515815290516001600160a01b0392909216917f17307eab39ab6107e8899845ad3d59bd9653f200f220920489ca2b5937696c319181900360200190a35050565b610cb1610cab6111a4565b83611221565b610cec5760405162461bcd60e51b81526004018080602001828103825260318152602001806121356031913960400191505060405180910390fd5b610cf8848484846114e3565b50505050565b600080610d0a83610975565b90508015610d905760005b600b54811015610d8a576000610d2a826108e6565b9050806001600160a01b0316856001600160a01b03161415610d81576000828152600c6020526040902054600414610d7557506000908152600c602052604090205491506106379050565b60009350505050610637565b50600101610d15565b50610d9a565b6000915050610637565b50919050565b6060610dab82611191565b610de65760405162461bcd60e51b815260040180806020018281038252602f8152602001806120e5602f913960400191505060405180910390fd5b60008281526009602090815260409182902080548351601f6002600019610100600186161502019093169290920491820184900484028101840190945280845260609392830182828015610e7b5780601f10610e5057610100808354040283529160200191610e7b565b820191906000526020600020905b815481529060010190602001808311610e5e57829003601f168201915b5050600a5493945050505060026000196101006001841615020190911604610ea4579050610637565b805115610f7557600a816040516020018083805460018160011615610100020316600290048015610f0c5780601f10610eea576101008083540402835291820191610f0c565b820191906000526020600020905b815481529060010190602001808311610ef8575b5050825160208401908083835b60208310610f385780518252601f199092019160209182019101610f19565b6001836020036101000a03801982511681845116808217855250505050505090500192505050604051602081830303815290604052915050610637565b600a610f8084611535565b6040516020018083805460018160011615610100020316600290048015610fde5780601f10610fbc576101008083540402835291820191610fde565b820191906000526020600020905b815481529060010190602001808311610fca575b5050825160208401908083835b6020831061100a5780518252601f199092019160209182019101610feb565b6001836020036101000a03801982511681845116808217855250505050505090500192505050604051602081830303815290604052915050919050565b600c6020526000908152604090205481565b6001600160a01b03918216600090815260066020908152604080832093909416825291909152205460ff1690565b61108f6111a4565b6000546001600160a01b039081169116146110f1576040805162461bcd60e51b815260206004820181905260248201527f4f776e61626c653a2063616c6c6572206973206e6f7420746865206f776e6572604482015290519081900360640190fd5b6001600160a01b0381166111365760405162461bcd60e51b8152600401808060200182810382526026815260200180611f416026913960400191505060405180910390fd5b600080546040516001600160a01b03808516939216917f8be0079c531659141344cd1fd0a4f28419497f9722a3daafe3b4186f6b6457e091a3600080546001600160a01b0319166001600160a01b0392909216919091179055565b60006108a960038363ffffffff61161016565b3390565b600081815260056020526040902080546001600160a01b0319166001600160a01b03841690811790915581906111dd826108e6565b6001600160a01b03167f8c5be1e5ebec7d5bd14f71427d1e84f3dd0314c0f7b2291e5b200ac8c7c3b92560405160405180910390a45050565b60006108a98261161c565b600061122c82611191565b6112675760405162461bcd60e51b815260040180806020018281038252602c815260200180611f8b602c913960400191505060405180910390fd5b6000611272836108e6565b9050806001600160a01b0316846001600160a01b031614806112ad5750836001600160a01b03166112a2846106d3565b6001600160a01b0316145b806112bd57506112bd8185611059565b949350505050565b826001600160a01b03166112d8826108e6565b6001600160a01b03161461131d5760405162461bcd60e51b81526004018080602001828103825260298152602001806120bc6029913960400191505060405180910390fd5b6001600160a01b0382166113625760405162461bcd60e51b8152600401808060200182810382526024815260200180611f676024913960400191505060405180910390fd5b61136d83838361080b565b6113786000826111a8565b6001600160a01b03831660009081526002602052604090206113a0908263ffffffff61162016565b506001600160a01b03821660009081526002602052604090206113c9908263ffffffff61162c16565b506113dc6003828463ffffffff61163816565b5080826001600160a01b0316846001600160a01b03167fddf252ad1be2c89b69c2b068fc378daa952ba7f163c4a11628f55a4df523b3ef60405160405180910390a4505050565b60006108a6838361164e565b600080808061143e86866116b2565b9097909650945050505050565b600061145884848461172d565b90505b9392505050565b61147c8282604051806020016040528060008152506117f7565b5050565b61148982611191565b6114c45760405162461bcd60e51b815260040180806020018281038252602c815260200180612090602c913960400191505060405180910390fd5b6000828152600960209081526040909120825161080b92840190611e54565b6114ee8484846112c5565b6114fa84848484611849565b610cf85760405162461bcd60e51b8152600401808060200182810382526032815260200180611f0f6032913960400191505060405180910390fd5b60608161155a57506040805180820190915260018152600360fc1b6020820152610637565b8160005b811561157257600101600a8204915061155e565b60608167ffffffffffffffff8111801561158b57600080fd5b506040519080825280601f01601f1916602001820160405280156115b6576020820181803683370190505b50859350905060001982015b831561160757600a840660300160f81b828280600190039350815181106115e557fe5b60200101906001600160f81b031916908160001a905350600a840493506115c2565b50949350505050565b60006108a683836119c9565b5490565b60006108a683836119e1565b60006108a68383611aa7565b600061145884846001600160a01b038516611af1565b815460009082106116905760405162461bcd60e51b8152600401808060200182810382526022815260200180611eed6022913960400191505060405180910390fd5b82600001828154811061169f57fe5b9060005260206000200154905092915050565b8154600090819083106116f65760405162461bcd60e51b81526004018080602001828103825260228152602001806120426022913960400191505060405180910390fd5b600084600001848154811061170757fe5b906000526020600020906002020190508060000154816001015492509250509250929050565b600082815260018401602052604081205482816117c85760405162461bcd60e51b81526004018080602001828103825283818151815260200191508051906020019080838360005b8381101561178d578181015183820152602001611775565b50505050905090810190601f1680156117ba5780820380516001836020036101000a031916815260200191505b509250505060405180910390fd5b508460000160018203815481106117db57fe5b9060005260206000209060020201600101549150509392505050565b6118018383611b88565b61180e6000848484611849565b61080b5760405162461bcd60e51b8152600401808060200182810382526032815260200180611f0f6032913960400191505060405180910390fd5b600061185d846001600160a01b0316611cc2565b611869575060016112bd565b606061198f630a85bd0160e11b61187e6111a4565b88878760405160240180856001600160a01b03166001600160a01b03168152602001846001600160a01b03166001600160a01b0316815260200183815260200180602001828103825283818151815260200191508051906020019080838360005b838110156118f75781810151838201526020016118df565b50505050905090810190601f1680156119245780820380516001836020036101000a031916815260200191505b5095505050505050604051602081830303815290604052906001600160e01b0319166020820180516001600160e01b038381831617835250505050604051806060016040528060328152602001611f0f603291396001600160a01b038816919063ffffffff611cc816565b905060008180602001905160208110156119a857600080fd5b50516001600160e01b031916630a85bd0160e11b1492505050949350505050565b60009081526001919091016020526040902054151590565b60008181526001830160205260408120548015611a9d5783546000198083019190810190600090879083908110611a1457fe5b9060005260206000200154905080876000018481548110611a3157fe5b600091825260208083209091019290925582815260018981019092526040902090840190558654879080611a6157fe5b600190038181906000526020600020016000905590558660010160008781526020019081526020016000206000905560019450505050506108a9565b60009150506108a9565b6000611ab383836119c9565b611ae9575081546001818101845560008481526020808220909301849055845484825282860190935260409020919091556108a9565b5060006108a9565b600082815260018401602052604081205480611b5657505060408051808201825283815260208082018481528654600181810189556000898152848120955160029093029095019182559151908201558654868452818801909252929091205561145b565b82856000016001830381548110611b6957fe5b906000526020600020906002020160010181905550600091505061145b565b6001600160a01b038216611be3576040805162461bcd60e51b815260206004820181905260248201527f4552433732313a206d696e7420746f20746865207a65726f2061646472657373604482015290519081900360640190fd5b611bec81611191565b15611c3e576040805162461bcd60e51b815260206004820152601c60248201527f4552433732313a20746f6b656e20616c7265616479206d696e74656400000000604482015290519081900360640190fd5b611c4a6000838361080b565b6001600160a01b0382166000908152600260205260409020611c72908263ffffffff61162c16565b50611c856003828463ffffffff61163816565b5060405181906001600160a01b038416906000907fddf252ad1be2c89b69c2b068fc378daa952ba7f163c4a11628f55a4df523b3ef908290a45050565b3b151590565b6060611458848460008585611cdc85611cc2565b611d2d576040805162461bcd60e51b815260206004820152601d60248201527f416464726573733a2063616c6c20746f206e6f6e2d636f6e7472616374000000604482015290519081900360640190fd5b60006060866001600160a01b031685876040518082805190602001908083835b60208310611d6c5780518252601f199092019160209182019101611d4d565b6001836020036101000a03801982511681845116808217855250505050505090500191505060006040518083038185875af1925050503d8060008114611dce576040519150601f19603f3d011682016040523d82523d6000602084013e611dd3565b606091505b5091509150611de3828286611dee565b979650505050505050565b60608315611dfd57508161145b565b825115611e0d5782518084602001fd5b60405162461bcd60e51b815260206004820181815284516024840152845185939192839260440191908501908083836000831561178d578181015183820152602001611775565b828054600181600116156101000203166002900490600052602060002090601f016020900481019282601f10611e9557805160ff1916838001178555611ec2565b82800160010185558215611ec2579182015b82811115611ec2578251825591602001919060010190611ea7565b50611ece929150611ed2565b5090565b6106d091905b80821115611ece5760008155600101611ed856fe456e756d657261626c655365743a20696e646578206f7574206f6620626f756e64734552433732313a207472616e7366657220746f206e6f6e20455243373231526563656976657220696d706c656d656e7465724f776e61626c653a206e6577206f776e657220697320746865207a65726f20616464726573734552433732313a207472616e7366657220746f20746865207a65726f20616464726573734552433732313a206f70657261746f7220717565727920666f72206e6f6e6578697374656e7420746f6b656e4552433732313a20617070726f76652063616c6c6572206973206e6f74206f776e6572206e6f7220617070726f76656420666f7220616c6c4552433732313a2062616c616e636520717565727920666f7220746865207a65726f20616464726573734552433732313a206f776e657220717565727920666f72206e6f6e6578697374656e7420746f6b656e456e756d657261626c654d61703a20696e646578206f7574206f6620626f756e64734552433732313a20617070726f76656420717565727920666f72206e6f6e6578697374656e7420746f6b656e4552433732314d657461646174613a2055524920736574206f66206e6f6e6578697374656e7420746f6b656e4552433732313a207472616e73666572206f6620746f6b656e2074686174206973206e6f74206f776e4552433732314d657461646174613a2055524920717565727920666f72206e6f6e6578697374656e7420746f6b656e4552433732313a20617070726f76616c20746f2063757272656e74206f776e65724552433732313a207472616e736665722063616c6c6572206973206e6f74206f776e6572206e6f7220617070726f766564a2646970667358221220554ba51b69d022bad731f7dea1a94ae2f4431e5ef85d4902d1029faa1df827d264736f6c63430006060033",
  "immutableReferences": {},
  "source": "pragma solidity ^0.6.0;\n\nimport \"@openzeppelin/contracts/access/Ownable.sol\";\nimport \"@openzeppelin/contracts/token/ERC721/ERC721.sol\";\n\ncontract WarpNFTFactory is Ownable, ERC721 {\n  uint public idTracker;\n\n  mapping(uint => uint) public tokenType;\n\n/**\n@notice the constructor function is fired only once during contract deployment\n@param _baseURI is a base address added to the front of every input tokenURI\n@dev assuming all NFT URI metadata is based on a URL he baseURI would be something like https://\n**/\n  constructor(string memory _baseURI) ERC721(\"WarpNFT\", \"WNFT\") public {\n    _setBaseURI(_baseURI);\n  }\n\n/**\n@notice mintNewNFT allows the owner of this contract to mint an input address a newNFT\n@param _to is the address the NFT is being minted to\n@param _type is a number delineating what type of token the user holds for use on chain\n@param _tokenURI is the input URI that links over the newly created NFT's token data\n**/\n  function mintNewNFT(address _to, uint _type, string memory _tokenURI) public onlyOwner {\n    idTracker = idTracker++;\n    _safeMint(_to, idTracker);\n    _setTokenURI(idTracker, _tokenURI);\n    tokenType[idTracker] = _type;\n  }\n\n/**\n@notice getUserRewardLevel is used to retreive the token type of a token an account holds\n@param _account is the account in question\n@dev this function first checks if the account holds any NFTs. If the account does hold NFT's\n      then this function loops through each NFT to determine which type of NFT the account holds.\n      If the account holds a token that is type 1-3 this function will return its token type. If\n      the account doesnt hold any NFT's OR only holds a social NFT it will return 0. As social NFTs are the\n      last type to be created for an account in the claim NFT function other NFTs should be found first meaning this\n      function will return their type first.\n**/\n  function getUserRewardLevel(address _account) public view returns(uint) {\n      uint numOfTokensHeld = balanceOf(_account);\n      if(numOfTokensHeld > 0) {\n        for (uint256 i = 0; i < idTracker; ++i) {\n          address isAddress = ownerOf(i);\n          if(_account == isAddress) {\n            if(tokenType[i] != 4){\n              return tokenType[i];\n            } else {\n              return 0;\n            }\n          }\n        }\n      } else {\n        return 0;\n      }\n  }\n\n}\n",
  "sourcePath": "/home/stan36/repos/Warp/nft-distribute/contracts/WarpNFTFactory.sol",
  "compiler": {
    "name": "solc",
    "version": "0.6.6+commit.6c089d02.Emscripten.clang"
  },
  "schemaVersion": "3.3.2",
  "updatedAt": "2020-12-14T03:48:08.001Z",
  "devdoc": {
    "methods": {
      "approve(address,uint256)": {
        "details": "See {IERC721-approve}."
      },
      "balanceOf(address)": {
        "details": "See {IERC721-balanceOf}."
      },
      "baseURI()": {
        "details": "Returns the base URI set via {_setBaseURI}. This will be automatically added as a prefix in {tokenURI} to each token's URI, or to the token ID if no specific URI is set for that token ID."
      },
      "constructor": {
        "details": "assuming all NFT URI metadata is based on a URL he baseURI would be something like https://*",
        "params": {
          "_baseURI": "is a base address added to the front of every input tokenURI"
        }
      },
      "getApproved(uint256)": {
        "details": "See {IERC721-getApproved}."
      },
      "getUserRewardLevel(address)": {
        "details": "this function first checks if the account holds any NFTs. If the account does hold NFT's then this function loops through each NFT to determine which type of NFT the account holds. If the account holds a token that is type 1-3 this function will return its token type. If the account doesnt hold any NFT's OR only holds a social NFT it will return 0. As social NFTs are the last type to be created for an account in the claim NFT function other NFTs should be found first meaning this function will return their type first.*",
        "params": {
          "_account": "is the account in question"
        }
      },
      "isApprovedForAll(address,address)": {
        "details": "See {IERC721-isApprovedForAll}."
      },
      "mintNewNFT(address,uint256,string)": {
        "params": {
          "_to": "is the address the NFT is being minted to",
          "_tokenURI": "is the input URI that links over the newly created NFT's token data*",
          "_type": "is a number delineating what type of token the user holds for use on chain"
        }
      },
      "name()": {
        "details": "See {IERC721Metadata-name}."
      },
      "owner()": {
        "details": "Returns the address of the current owner."
      },
      "ownerOf(uint256)": {
        "details": "See {IERC721-ownerOf}."
      },
      "renounceOwnership()": {
        "details": "Leaves the contract without owner. It will not be possible to call `onlyOwner` functions anymore. Can only be called by the current owner.     * NOTE: Renouncing ownership will leave the contract without an owner, thereby removing any functionality that is only available to the owner."
      },
      "safeTransferFrom(address,address,uint256)": {
        "details": "See {IERC721-safeTransferFrom}."
      },
      "safeTransferFrom(address,address,uint256,bytes)": {
        "details": "See {IERC721-safeTransferFrom}."
      },
      "setApprovalForAll(address,bool)": {
        "details": "See {IERC721-setApprovalForAll}."
      },
      "supportsInterface(bytes4)": {
        "details": "See {IERC165-supportsInterface}.     * Time complexity O(1), guaranteed to always use less than 30 000 gas."
      },
      "symbol()": {
        "details": "See {IERC721Metadata-symbol}."
      },
      "tokenByIndex(uint256)": {
        "details": "See {IERC721Enumerable-tokenByIndex}."
      },
      "tokenOfOwnerByIndex(address,uint256)": {
        "details": "See {IERC721Enumerable-tokenOfOwnerByIndex}."
      },
      "tokenURI(uint256)": {
        "details": "See {IERC721Metadata-tokenURI}."
      },
      "totalSupply()": {
        "details": "See {IERC721Enumerable-totalSupply}."
      },
      "transferFrom(address,address,uint256)": {
        "details": "See {IERC721-transferFrom}."
      },
      "transferOwnership(address)": {
        "details": "Transfers ownership of the contract to a new account (`newOwner`). Can only be called by the current owner."
      }
    }
  },
  "userdoc": {
    "methods": {
      "constructor": "the constructor function is fired only once during contract deployment",
      "getUserRewardLevel(address)": {
        "notice": "getUserRewardLevel is used to retreive the token type of a token an account holds"
      },
      "mintNewNFT(address,uint256,string)": {
        "notice": "mintNewNFT allows the owner of this contract to mint an input address a newNFT"
      }
    }
  }
}