{
  "contractName": "WarpNFTRare",
  "abi": [
    {
      "inputs": [
        {
          "internalType": "string",
          "name": "_URI",
          "type": "string"
        }
      ],
      "stateMutability": "nonpayable",
      "type": "constructor"
    },
    {
      "anonymous": false,
      "inputs": [
        {
          "indexed": true,
          "internalType": "address",
          "name": "owner",
          "type": "address"
        },
        {
          "indexed": true,
          "internalType": "address",
          "name": "approved",
          "type": "address"
        },
        {
          "indexed": true,
          "internalType": "uint256",
          "name": "tokenId",
          "type": "uint256"
        }
      ],
      "name": "Approval",
      "type": "event"
    },
    {
      "anonymous": false,
      "inputs": [
        {
          "indexed": true,
          "internalType": "address",
          "name": "owner",
          "type": "address"
        },
        {
          "indexed": true,
          "internalType": "address",
          "name": "operator",
          "type": "address"
        },
        {
          "indexed": false,
          "internalType": "bool",
          "name": "approved",
          "type": "bool"
        }
      ],
      "name": "ApprovalForAll",
      "type": "event"
    },
    {
      "anonymous": false,
      "inputs": [
        {
          "indexed": true,
          "internalType": "address",
          "name": "previousOwner",
          "type": "address"
        },
        {
          "indexed": true,
          "internalType": "address",
          "name": "newOwner",
          "type": "address"
        }
      ],
      "name": "OwnershipTransferred",
      "type": "event"
    },
    {
      "anonymous": false,
      "inputs": [
        {
          "indexed": true,
          "internalType": "address",
          "name": "from",
          "type": "address"
        },
        {
          "indexed": true,
          "internalType": "address",
          "name": "to",
          "type": "address"
        },
        {
          "indexed": true,
          "internalType": "uint256",
          "name": "tokenId",
          "type": "uint256"
        }
      ],
      "name": "Transfer",
      "type": "event"
    },
    {
      "inputs": [],
      "name": "URI",
      "outputs": [
        {
          "internalType": "string",
          "name": "",
          "type": "string"
        }
      ],
      "stateMutability": "view",
      "type": "function"
    },
    {
      "inputs": [
        {
          "internalType": "address",
          "name": "to",
          "type": "address"
        },
        {
          "internalType": "uint256",
          "name": "tokenId",
          "type": "uint256"
        }
      ],
      "name": "approve",
      "outputs": [],
      "stateMutability": "nonpayable",
      "type": "function"
    },
    {
      "inputs": [
        {
          "internalType": "address",
          "name": "owner",
          "type": "address"
        }
      ],
      "name": "balanceOf",
      "outputs": [
        {
          "internalType": "uint256",
          "name": "",
          "type": "uint256"
        }
      ],
      "stateMutability": "view",
      "type": "function"
    },
    {
      "inputs": [],
      "name": "baseURI",
      "outputs": [
        {
          "internalType": "string",
          "name": "",
          "type": "string"
        }
      ],
      "stateMutability": "view",
      "type": "function"
    },
    {
      "inputs": [
        {
          "internalType": "uint256",
          "name": "tokenId",
          "type": "uint256"
        }
      ],
      "name": "getApproved",
      "outputs": [
        {
          "internalType": "address",
          "name": "",
          "type": "address"
        }
      ],
      "stateMutability": "view",
      "type": "function"
    },
    {
      "inputs": [],
      "name": "idTracker",
      "outputs": [
        {
          "internalType": "uint256",
          "name": "",
          "type": "uint256"
        }
      ],
      "stateMutability": "view",
      "type": "function"
    },
    {
      "inputs": [
        {
          "internalType": "address",
          "name": "owner",
          "type": "address"
        },
        {
          "internalType": "address",
          "name": "operator",
          "type": "address"
        }
      ],
      "name": "isApprovedForAll",
      "outputs": [
        {
          "internalType": "bool",
          "name": "",
          "type": "bool"
        }
      ],
      "stateMutability": "view",
      "type": "function"
    },
    {
      "inputs": [],
      "name": "name",
      "outputs": [
        {
          "internalType": "string",
          "name": "",
          "type": "string"
        }
      ],
      "stateMutability": "view",
      "type": "function"
    },
    {
      "inputs": [],
      "name": "owner",
      "outputs": [
        {
          "internalType": "address",
          "name": "",
          "type": "address"
        }
      ],
      "stateMutability": "view",
      "type": "function"
    },
    {
      "inputs": [
        {
          "internalType": "uint256",
          "name": "tokenId",
          "type": "uint256"
        }
      ],
      "name": "ownerOf",
      "outputs": [
        {
          "internalType": "address",
          "name": "",
          "type": "address"
        }
      ],
      "stateMutability": "view",
      "type": "function"
    },
    {
      "inputs": [],
      "name": "renounceOwnership",
      "outputs": [],
      "stateMutability": "nonpayable",
      "type": "function"
    },
    {
      "inputs": [
        {
          "internalType": "address",
          "name": "from",
          "type": "address"
        },
        {
          "internalType": "address",
          "name": "to",
          "type": "address"
        },
        {
          "internalType": "uint256",
          "name": "tokenId",
          "type": "uint256"
        }
      ],
      "name": "safeTransferFrom",
      "outputs": [],
      "stateMutability": "nonpayable",
      "type": "function"
    },
    {
      "inputs": [
        {
          "internalType": "address",
          "name": "from",
          "type": "address"
        },
        {
          "internalType": "address",
          "name": "to",
          "type": "address"
        },
        {
          "internalType": "uint256",
          "name": "tokenId",
          "type": "uint256"
        },
        {
          "internalType": "bytes",
          "name": "_data",
          "type": "bytes"
        }
      ],
      "name": "safeTransferFrom",
      "outputs": [],
      "stateMutability": "nonpayable",
      "type": "function"
    },
    {
      "inputs": [
        {
          "internalType": "address",
          "name": "operator",
          "type": "address"
        },
        {
          "internalType": "bool",
          "name": "approved",
          "type": "bool"
        }
      ],
      "name": "setApprovalForAll",
      "outputs": [],
      "stateMutability": "nonpayable",
      "type": "function"
    },
    {
      "inputs": [
        {
          "internalType": "bytes4",
          "name": "interfaceId",
          "type": "bytes4"
        }
      ],
      "name": "supportsInterface",
      "outputs": [
        {
          "internalType": "bool",
          "name": "",
          "type": "bool"
        }
      ],
      "stateMutability": "view",
      "type": "function"
    },
    {
      "inputs": [],
      "name": "symbol",
      "outputs": [
        {
          "internalType": "string",
          "name": "",
          "type": "string"
        }
      ],
      "stateMutability": "view",
      "type": "function"
    },
    {
      "inputs": [
        {
          "internalType": "uint256",
          "name": "index",
          "type": "uint256"
        }
      ],
      "name": "tokenByIndex",
      "outputs": [
        {
          "internalType": "uint256",
          "name": "",
          "type": "uint256"
        }
      ],
      "stateMutability": "view",
      "type": "function"
    },
    {
      "inputs": [
        {
          "internalType": "address",
          "name": "owner",
          "type": "address"
        },
        {
          "internalType": "uint256",
          "name": "index",
          "type": "uint256"
        }
      ],
      "name": "tokenOfOwnerByIndex",
      "outputs": [
        {
          "internalType": "uint256",
          "name": "",
          "type": "uint256"
        }
      ],
      "stateMutability": "view",
      "type": "function"
    },
    {
      "inputs": [
        {
          "internalType": "uint256",
          "name": "tokenId",
          "type": "uint256"
        }
      ],
      "name": "tokenURI",
      "outputs": [
        {
          "internalType": "string",
          "name": "",
          "type": "string"
        }
      ],
      "stateMutability": "view",
      "type": "function"
    },
    {
      "inputs": [],
      "name": "totalSupply",
      "outputs": [
        {
          "internalType": "uint256",
          "name": "",
          "type": "uint256"
        }
      ],
      "stateMutability": "view",
      "type": "function"
    },
    {
      "inputs": [
        {
          "internalType": "address",
          "name": "from",
          "type": "address"
        },
        {
          "internalType": "address",
          "name": "to",
          "type": "address"
        },
        {
          "internalType": "uint256",
          "name": "tokenId",
          "type": "uint256"
        }
      ],
      "name": "transferFrom",
      "outputs": [],
      "stateMutability": "nonpayable",
      "type": "function"
    },
    {
      "inputs": [
        {
          "internalType": "address",
          "name": "newOwner",
          "type": "address"
        }
      ],
      "name": "transferOwnership",
      "outputs": [],
      "stateMutability": "nonpayable",
      "type": "function"
    },
    {
      "inputs": [
        {
          "internalType": "address",
          "name": "_to",
          "type": "address"
        }
      ],
      "name": "mintNewNFT",
      "outputs": [],
      "stateMutability": "nonpayable",
      "type": "function"
    }
  ],
  "bytecode": "0x60806040523480156200001157600080fd5b506040516200249938038062002499833981810160405260208110156200003757600080fd5b81019080805160405193929190846401000000008211156200005857600080fd5b9083019060208201858111156200006e57600080fd5b82516401000000008111828201881017156200008957600080fd5b82525081516020918201929091019080838360005b83811015620000b85781810151838201526020016200009e565b50505050905090810190601f168015620000e65780820380516001836020036101000a031916815260200191505b506040525050506040518060400160405280600d81526020016c15d85c9c0814985c9948139195609a1b8152506040518060400160405280600581526020016415d493919560da1b8152506000620001436200024460201b60201c565b600080546001600160a01b0319166001600160a01b0383169081178255604051929350917f8be0079c531659141344cd1fd0a4f28419497f9722a3daafe3b4186f6b6457e0908290a350620001a86301ffc9a760e01b6001600160e01b036200024916565b8151620001bd906007906020850190620002d1565b508051620001d3906008906020840190620002d1565b50620001ef6380ac58cd60e01b6001600160e01b036200024916565b6200020a635b5e139f60e01b6001600160e01b036200024916565b6200022563780e9d6360e01b6001600160e01b036200024916565b505080516200023c90600c906020840190620002d1565b505062000373565b335b90565b6001600160e01b03198082161415620002a9576040805162461bcd60e51b815260206004820152601c60248201527f4552433136353a20696e76616c696420696e7465726661636520696400000000604482015290519081900360640190fd5b6001600160e01b0319166000908152600160208190526040909120805460ff19169091179055565b828054600181600116156101000203166002900490600052602060002090601f016020900481019282601f106200031457805160ff191683800117855562000344565b8280016001018555821562000344579182015b828111156200034457825182559160200191906001019062000327565b506200035292915062000356565b5090565b6200024691905b808211156200035257600081556001016200035d565b61211680620003836000396000f3fe608060405234801561001057600080fd5b506004361061014d5760003560e01c80636352211e116100c357806395d89b411161007c57806395d89b41146103d1578063a22cb465146103d9578063b88d4fde14610407578063c87b56dd146104cd578063e985e9c5146104ea578063f2fde38b146105185761014d565b80636352211e1461035057806365568ecb1461036d5780636c0360eb1461039357806370a082311461039b578063715018a6146103c15780638da5cb5b146103c95761014d565b806318160ddd1161011557806318160ddd146102795780631b7fe6b61461029357806323b872dd1461029b5780632f745c59146102d157806342842e0e146102fd5780634f6ccce7146103335761014d565b806301ffc9a71461015257806306fdde031461018d578063081812fc1461020a578063095ea7b3146102435780631141d7de14610271575b600080fd5b6101796004803603602081101561016857600080fd5b50356001600160e01b03191661053e565b604080519115158252519081900360200190f35b610195610561565b6040805160208082528351818301528351919283929083019185019080838360005b838110156101cf5781810151838201526020016101b7565b50505050905090810190601f1680156101fc5780820380516001836020036101000a031916815260200191505b509250505060405180910390f35b6102276004803603602081101561022057600080fd5b50356105f8565b604080516001600160a01b039092168252519081900360200190f35b61026f6004803603604081101561025957600080fd5b506001600160a01b03813516906020013561065a565b005b610195610735565b6102816107c3565b60408051918252519081900360200190f35b6102816107d4565b61026f600480360360608110156102b157600080fd5b506001600160a01b038135811691602081013590911690604001356107da565b610281600480360360408110156102e757600080fd5b506001600160a01b038135169060200135610831565b61026f6004803603606081101561031357600080fd5b506001600160a01b03813581169160208101359091169060400135610862565b6102816004803603602081101561034957600080fd5b503561087d565b6102276004803603602081101561036657600080fd5b5035610899565b61026f6004803603602081101561038357600080fd5b50356001600160a01b03166108c7565b6101956109dd565b610281600480360360208110156103b157600080fd5b50356001600160a01b0316610a3e565b61026f610aa6565b610227610b5a565b610195610b69565b61026f600480360360408110156103ef57600080fd5b506001600160a01b0381351690602001351515610bca565b61026f6004803603608081101561041d57600080fd5b6001600160a01b0382358116926020810135909116916040820135919081019060808101606082013564010000000081111561045857600080fd5b82018360208201111561046a57600080fd5b8035906020019184600183028401116401000000008311171561048c57600080fd5b91908080601f016020809104026020016040519081016040528093929190818152602001838380828437600092019190915250929550610ccf945050505050565b610195600480360360208110156104e357600080fd5b5035610d2d565b6101796004803603604081101561050057600080fd5b506001600160a01b0381358116916020013516610fd4565b61026f6004803603602081101561052e57600080fd5b50356001600160a01b0316611002565b6001600160e01b0319811660009081526001602052604090205460ff165b919050565b60078054604080516020601f60026000196101006001881615020190951694909404938401819004810282018101909252828152606093909290918301828280156105ed5780601f106105c2576101008083540402835291602001916105ed565b820191906000526020600020905b8154815290600101906020018083116105d057829003601f168201915b505050505090505b90565b60006106038261110c565b61063e5760405162461bcd60e51b815260040180806020018281038252602c815260200180611fdf602c913960400191505060405180910390fd5b506000908152600560205260409020546001600160a01b031690565b600061066582610899565b9050806001600160a01b0316836001600160a01b031614156106b85760405162461bcd60e51b815260040180806020018281038252602181526020018061208f6021913960400191505060405180910390fd5b806001600160a01b03166106ca61111f565b6001600160a01b031614806106eb57506106eb816106e661111f565b610fd4565b6107265760405162461bcd60e51b8152600401808060200182810382526038815260200180611f326038913960400191505060405180910390fd5b6107308383611123565b505050565b600c805460408051602060026001851615610100026000190190941693909304601f810184900484028201840190925281815292918301828280156107bb5780601f10610790576101008083540402835291602001916107bb565b820191906000526020600020905b81548152906001019060200180831161079e57829003601f168201915b505050505081565b60006107cf6003611191565b905090565b600b5481565b6107eb6107e561111f565b8261119c565b6108265760405162461bcd60e51b81526004018080602001828103825260318152602001806120b06031913960400191505060405180910390fd5b610730838383611240565b6001600160a01b0382166000908152600260205260408120610859908363ffffffff61139e16565b90505b92915050565b61073083838360405180602001604052806000815250610ccf565b60008061089160038463ffffffff6113aa16565b509392505050565b600061085c82604051806060016040528060298152602001611f94602991396003919063ffffffff6113c616565b6108cf61111f565b6000546001600160a01b03908116911614610931576040805162461bcd60e51b815260206004820181905260248201527f4f776e61626c653a2063616c6c6572206973206e6f7420746865206f776e6572604482015290519081900360640190fd5b600b5461093f9082906113dd565b600b54600c8054604080516020601f600260001961010060018816150201909516949094049384018190048102820181019092528281526109da9493909290918301828280156109d05780601f106109a5576101008083540402835291602001916109d0565b820191906000526020600020905b8154815290600101906020018083116109b357829003601f168201915b50505050506113fb565b50565b600a8054604080516020601f60026000196101006001881615020190951694909404938401819004810282018101909252828152606093909290918301828280156105ed5780601f106105c2576101008083540402835291602001916105ed565b60006001600160a01b038216610a855760405162461bcd60e51b815260040180806020018281038252602a815260200180611f6a602a913960400191505060405180910390fd5b6001600160a01b038216600090815260026020526040902061085c90611191565b610aae61111f565b6000546001600160a01b03908116911614610b10576040805162461bcd60e51b815260206004820181905260248201527f4f776e61626c653a2063616c6c6572206973206e6f7420746865206f776e6572604482015290519081900360640190fd5b600080546040516001600160a01b03909116907f8be0079c531659141344cd1fd0a4f28419497f9722a3daafe3b4186f6b6457e0908390a3600080546001600160a01b0319169055565b6000546001600160a01b031690565b60088054604080516020601f60026000196101006001881615020190951694909404938401819004810282018101909252828152606093909290918301828280156105ed5780601f106105c2576101008083540402835291602001916105ed565b610bd261111f565b6001600160a01b0316826001600160a01b03161415610c38576040805162461bcd60e51b815260206004820152601960248201527f4552433732313a20617070726f766520746f2063616c6c657200000000000000604482015290519081900360640190fd5b8060066000610c4561111f565b6001600160a01b03908116825260208083019390935260409182016000908120918716808252919093529120805460ff191692151592909217909155610c8961111f565b60408051841515815290516001600160a01b0392909216917f17307eab39ab6107e8899845ad3d59bd9653f200f220920489ca2b5937696c319181900360200190a35050565b610ce0610cda61111f565b8361119c565b610d1b5760405162461bcd60e51b81526004018080602001828103825260318152602001806120b06031913960400191505060405180910390fd5b610d278484848461145e565b50505050565b6060610d388261110c565b610d735760405162461bcd60e51b815260040180806020018281038252602f815260200180612060602f913960400191505060405180910390fd5b60008281526009602090815260409182902080548351601f6002600019610100600186161502019093169290920491820184900484028101840190945280845260609392830182828015610e085780601f10610ddd57610100808354040283529160200191610e08565b820191906000526020600020905b815481529060010190602001808311610deb57829003601f168201915b5050600a5493945050505060026000196101006001841615020190911604610e3157905061055c565b805115610f0257600a816040516020018083805460018160011615610100020316600290048015610e995780601f10610e77576101008083540402835291820191610e99565b820191906000526020600020905b815481529060010190602001808311610e85575b5050825160208401908083835b60208310610ec55780518252601f199092019160209182019101610ea6565b6001836020036101000a0380198251168184511680821785525050505050509050019250505060405160208183030381529060405291505061055c565b600a610f0d846114b0565b6040516020018083805460018160011615610100020316600290048015610f6b5780601f10610f49576101008083540402835291820191610f6b565b820191906000526020600020905b815481529060010190602001808311610f57575b5050825160208401908083835b60208310610f975780518252601f199092019160209182019101610f78565b6001836020036101000a03801982511681845116808217855250505050505090500192505050604051602081830303815290604052915050919050565b6001600160a01b03918216600090815260066020908152604080832093909416825291909152205460ff1690565b61100a61111f565b6000546001600160a01b0390811691161461106c576040805162461bcd60e51b815260206004820181905260248201527f4f776e61626c653a2063616c6c6572206973206e6f7420746865206f776e6572604482015290519081900360640190fd5b6001600160a01b0381166110b15760405162461bcd60e51b8152600401808060200182810382526026815260200180611ebc6026913960400191505060405180910390fd5b600080546040516001600160a01b03808516939216917f8be0079c531659141344cd1fd0a4f28419497f9722a3daafe3b4186f6b6457e091a3600080546001600160a01b0319166001600160a01b0392909216919091179055565b600061085c60038363ffffffff61158b16565b3390565b600081815260056020526040902080546001600160a01b0319166001600160a01b038416908117909155819061115882610899565b6001600160a01b03167f8c5be1e5ebec7d5bd14f71427d1e84f3dd0314c0f7b2291e5b200ac8c7c3b92560405160405180910390a45050565b600061085c82611597565b60006111a78261110c565b6111e25760405162461bcd60e51b815260040180806020018281038252602c815260200180611f06602c913960400191505060405180910390fd5b60006111ed83610899565b9050806001600160a01b0316846001600160a01b031614806112285750836001600160a01b031661121d846105f8565b6001600160a01b0316145b8061123857506112388185610fd4565b949350505050565b826001600160a01b031661125382610899565b6001600160a01b0316146112985760405162461bcd60e51b81526004018080602001828103825260298152602001806120376029913960400191505060405180910390fd5b6001600160a01b0382166112dd5760405162461bcd60e51b8152600401808060200182810382526024815260200180611ee26024913960400191505060405180910390fd5b6112e8838383610730565b6112f3600082611123565b6001600160a01b038316600090815260026020526040902061131b908263ffffffff61159b16565b506001600160a01b0382166000908152600260205260409020611344908263ffffffff6115a716565b506113576003828463ffffffff6115b316565b5080826001600160a01b0316846001600160a01b03167fddf252ad1be2c89b69c2b068fc378daa952ba7f163c4a11628f55a4df523b3ef60405160405180910390a4505050565b600061085983836115c9565b60008080806113b9868661162d565b9097909650945050505050565b60006113d38484846116a8565b90505b9392505050565b6113f7828260405180602001604052806000815250611772565b5050565b6114048261110c565b61143f5760405162461bcd60e51b815260040180806020018281038252602c81526020018061200b602c913960400191505060405180910390fd5b6000828152600960209081526040909120825161073092840190611dcf565b611469848484611240565b611475848484846117c4565b610d275760405162461bcd60e51b8152600401808060200182810382526032815260200180611e8a6032913960400191505060405180910390fd5b6060816114d557506040805180820190915260018152600360fc1b602082015261055c565b8160005b81156114ed57600101600a820491506114d9565b60608167ffffffffffffffff8111801561150657600080fd5b506040519080825280601f01601f191660200182016040528015611531576020820181803683370190505b50859350905060001982015b831561158257600a840660300160f81b8282806001900393508151811061156057fe5b60200101906001600160f81b031916908160001a905350600a8404935061153d565b50949350505050565b60006108598383611944565b5490565b6000610859838361195c565b60006108598383611a22565b60006113d384846001600160a01b038516611a6c565b8154600090821061160b5760405162461bcd60e51b8152600401808060200182810382526022815260200180611e686022913960400191505060405180910390fd5b82600001828154811061161a57fe5b9060005260206000200154905092915050565b8154600090819083106116715760405162461bcd60e51b8152600401808060200182810382526022815260200180611fbd6022913960400191505060405180910390fd5b600084600001848154811061168257fe5b906000526020600020906002020190508060000154816001015492509250509250929050565b600082815260018401602052604081205482816117435760405162461bcd60e51b81526004018080602001828103825283818151815260200191508051906020019080838360005b838110156117085781810151838201526020016116f0565b50505050905090810190601f1680156117355780820380516001836020036101000a031916815260200191505b509250505060405180910390fd5b5084600001600182038154811061175657fe5b9060005260206000209060020201600101549150509392505050565b61177c8383611b03565b61178960008484846117c4565b6107305760405162461bcd60e51b8152600401808060200182810382526032815260200180611e8a6032913960400191505060405180910390fd5b60006117d8846001600160a01b0316611c3d565b6117e457506001611238565b606061190a630a85bd0160e11b6117f961111f565b88878760405160240180856001600160a01b03166001600160a01b03168152602001846001600160a01b03166001600160a01b0316815260200183815260200180602001828103825283818151815260200191508051906020019080838360005b8381101561187257818101518382015260200161185a565b50505050905090810190601f16801561189f5780820380516001836020036101000a031916815260200191505b5095505050505050604051602081830303815290604052906001600160e01b0319166020820180516001600160e01b038381831617835250505050604051806060016040528060328152602001611e8a603291396001600160a01b038816919063ffffffff611c4316565b9050600081806020019051602081101561192357600080fd5b50516001600160e01b031916630a85bd0160e11b1492505050949350505050565b60009081526001919091016020526040902054151590565b60008181526001830160205260408120548015611a18578354600019808301919081019060009087908390811061198f57fe5b90600052602060002001549050808760000184815481106119ac57fe5b6000918252602080832090910192909255828152600189810190925260409020908401905586548790806119dc57fe5b6001900381819060005260206000200160009055905586600101600087815260200190815260200160002060009055600194505050505061085c565b600091505061085c565b6000611a2e8383611944565b611a645750815460018181018455600084815260208082209093018490558454848252828601909352604090209190915561085c565b50600061085c565b600082815260018401602052604081205480611ad15750506040805180820182528381526020808201848152865460018181018955600089815284812095516002909302909501918255915190820155865486845281880190925292909120556113d6565b82856000016001830381548110611ae457fe5b90600052602060002090600202016001018190555060009150506113d6565b6001600160a01b038216611b5e576040805162461bcd60e51b815260206004820181905260248201527f4552433732313a206d696e7420746f20746865207a65726f2061646472657373604482015290519081900360640190fd5b611b678161110c565b15611bb9576040805162461bcd60e51b815260206004820152601c60248201527f4552433732313a20746f6b656e20616c7265616479206d696e74656400000000604482015290519081900360640190fd5b611bc560008383610730565b6001600160a01b0382166000908152600260205260409020611bed908263ffffffff6115a716565b50611c006003828463ffffffff6115b316565b5060405181906001600160a01b038416906000907fddf252ad1be2c89b69c2b068fc378daa952ba7f163c4a11628f55a4df523b3ef908290a45050565b3b151590565b60606113d3848460008585611c5785611c3d565b611ca8576040805162461bcd60e51b815260206004820152601d60248201527f416464726573733a2063616c6c20746f206e6f6e2d636f6e7472616374000000604482015290519081900360640190fd5b60006060866001600160a01b031685876040518082805190602001908083835b60208310611ce75780518252601f199092019160209182019101611cc8565b6001836020036101000a03801982511681845116808217855250505050505090500191505060006040518083038185875af1925050503d8060008114611d49576040519150601f19603f3d011682016040523d82523d6000602084013e611d4e565b606091505b5091509150611d5e828286611d69565b979650505050505050565b60608315611d785750816113d6565b825115611d885782518084602001fd5b60405162461bcd60e51b81526020600482018181528451602484015284518593919283926044019190850190808383600083156117085781810151838201526020016116f0565b828054600181600116156101000203166002900490600052602060002090601f016020900481019282601f10611e1057805160ff1916838001178555611e3d565b82800160010185558215611e3d579182015b82811115611e3d578251825591602001919060010190611e22565b50611e49929150611e4d565b5090565b6105f591905b80821115611e495760008155600101611e5356fe456e756d657261626c655365743a20696e646578206f7574206f6620626f756e64734552433732313a207472616e7366657220746f206e6f6e20455243373231526563656976657220696d706c656d656e7465724f776e61626c653a206e6577206f776e657220697320746865207a65726f20616464726573734552433732313a207472616e7366657220746f20746865207a65726f20616464726573734552433732313a206f70657261746f7220717565727920666f72206e6f6e6578697374656e7420746f6b656e4552433732313a20617070726f76652063616c6c6572206973206e6f74206f776e6572206e6f7220617070726f76656420666f7220616c6c4552433732313a2062616c616e636520717565727920666f7220746865207a65726f20616464726573734552433732313a206f776e657220717565727920666f72206e6f6e6578697374656e7420746f6b656e456e756d657261626c654d61703a20696e646578206f7574206f6620626f756e64734552433732313a20617070726f76656420717565727920666f72206e6f6e6578697374656e7420746f6b656e4552433732314d657461646174613a2055524920736574206f66206e6f6e6578697374656e7420746f6b656e4552433732313a207472616e73666572206f6620746f6b656e2074686174206973206e6f74206f776e4552433732314d657461646174613a2055524920717565727920666f72206e6f6e6578697374656e7420746f6b656e4552433732313a20617070726f76616c20746f2063757272656e74206f776e65724552433732313a207472616e736665722063616c6c6572206973206e6f74206f776e6572206e6f7220617070726f766564a26469706673582212209c36b0486263794478d23872ecfe60817190f1b93d11f5c55f3dcf919a2ab9a964736f6c63430006060033",
  "immutableReferences": {},
  "source": "pragma solidity ^0.6.0;\n\nimport \"@openzeppelin/contracts/access/Ownable.sol\";\nimport \"@openzeppelin/contracts/token/ERC721/ERC721.sol\";\n\ncontract WarpNFTRare is Ownable, ERC721 {\n  uint public idTracker;\n  string public URI;\n\n\n/**\n@notice the constructor function is fired only once during contract deployment\n@param _URI is a base address added to the front of every input tokenURI\n@dev assuming all NFT URI metadata is based on a URL he baseURI would be something like https://\n**/\n  constructor(string memory _URI) ERC721(\"Warp Rare NFT\", \"WRNFT\") public {\n    URI = _URI;\n  }\n\n/**\n@notice mintNewNFT allows the owner of this contract to mint an input address a newNFT\n@param _to is the address the NFT is being minted to\n**/\n  function mintNewNFT(address _to) public onlyOwner {\n    idTracker = idTracker++;\n    _safeMint(_to, idTracker);\n    _setTokenURI(idTracker, URI);\n  }\n\n\n\n}\n",
  "sourcePath": "/home/stan36/repos/Warp/nft-distribute/contracts/WarpNFTRare.sol",
  "compiler": {
    "name": "solc",
    "version": "0.6.6+commit.6c089d02.Emscripten.clang"
  },
  "schemaVersion": "3.3.2",
  "updatedAt": "2020-12-14T19:08:09.313Z",
  "devdoc": {
    "methods": {
      "approve(address,uint256)": {
        "details": "See {IERC721-approve}."
      },
      "balanceOf(address)": {
        "details": "See {IERC721-balanceOf}."
      },
      "baseURI()": {
        "details": "Returns the base URI set via {_setBaseURI}. This will be automatically added as a prefix in {tokenURI} to each token's URI, or to the token ID if no specific URI is set for that token ID."
      },
      "constructor": {
        "details": "assuming all NFT URI metadata is based on a URL he baseURI would be something like https://*",
        "params": {
          "_URI": "is a base address added to the front of every input tokenURI"
        }
      },
      "getApproved(uint256)": {
        "details": "See {IERC721-getApproved}."
      },
      "isApprovedForAll(address,address)": {
        "details": "See {IERC721-isApprovedForAll}."
      },
      "mintNewNFT(address)": {
        "params": {
          "_to": "is the address the NFT is being minted to*"
        }
      },
      "name()": {
        "details": "See {IERC721Metadata-name}."
      },
      "owner()": {
        "details": "Returns the address of the current owner."
      },
      "ownerOf(uint256)": {
        "details": "See {IERC721-ownerOf}."
      },
      "renounceOwnership()": {
        "details": "Leaves the contract without owner. It will not be possible to call `onlyOwner` functions anymore. Can only be called by the current owner.     * NOTE: Renouncing ownership will leave the contract without an owner, thereby removing any functionality that is only available to the owner."
      },
      "safeTransferFrom(address,address,uint256)": {
        "details": "See {IERC721-safeTransferFrom}."
      },
      "safeTransferFrom(address,address,uint256,bytes)": {
        "details": "See {IERC721-safeTransferFrom}."
      },
      "setApprovalForAll(address,bool)": {
        "details": "See {IERC721-setApprovalForAll}."
      },
      "supportsInterface(bytes4)": {
        "details": "See {IERC165-supportsInterface}.     * Time complexity O(1), guaranteed to always use less than 30 000 gas."
      },
      "symbol()": {
        "details": "See {IERC721Metadata-symbol}."
      },
      "tokenByIndex(uint256)": {
        "details": "See {IERC721Enumerable-tokenByIndex}."
      },
      "tokenOfOwnerByIndex(address,uint256)": {
        "details": "See {IERC721Enumerable-tokenOfOwnerByIndex}."
      },
      "tokenURI(uint256)": {
        "details": "See {IERC721Metadata-tokenURI}."
      },
      "totalSupply()": {
        "details": "See {IERC721Enumerable-totalSupply}."
      },
      "transferFrom(address,address,uint256)": {
        "details": "See {IERC721-transferFrom}."
      },
      "transferOwnership(address)": {
        "details": "Transfers ownership of the contract to a new account (`newOwner`). Can only be called by the current owner."
      }
    }
  },
  "userdoc": {
    "methods": {
      "constructor": "the constructor function is fired only once during contract deployment",
      "mintNewNFT(address)": {
        "notice": "mintNewNFT allows the owner of this contract to mint an input address a newNFT"
      }
    }
  }
}