{
  "contractName": "WarpNFTClaimControl",
  "abi": [
    {
      "inputs": [
        {
          "internalType": "contract WarpNFTEpic",
          "name": "_NFTEpic",
          "type": "address"
        },
        {
          "internalType": "contract WarpNFTLegendary",
          "name": "_NFTLegendary",
          "type": "address"
        },
        {
          "internalType": "contract WarpNFTRare",
          "name": "_NFTRare",
          "type": "address"
        },
        {
          "internalType": "contract WarpNFTSocial",
          "name": "_NFTSocial",
          "type": "address"
        }
      ],
      "stateMutability": "nonpayable",
      "type": "constructor"
    },
    {
      "anonymous": false,
      "inputs": [
        {
          "indexed": true,
          "internalType": "address",
          "name": "previousOwner",
          "type": "address"
        },
        {
          "indexed": true,
          "internalType": "address",
          "name": "newOwner",
          "type": "address"
        }
      ],
      "name": "OwnershipTransferred",
      "type": "event"
    },
    {
      "inputs": [],
      "name": "WNFTE",
      "outputs": [
        {
          "internalType": "contract WarpNFTEpic",
          "name": "",
          "type": "address"
        }
      ],
      "stateMutability": "view",
      "type": "function",
      "constant": true
    },
    {
      "inputs": [],
      "name": "WNFTL",
      "outputs": [
        {
          "internalType": "contract WarpNFTLegendary",
          "name": "",
          "type": "address"
        }
      ],
      "stateMutability": "view",
      "type": "function",
      "constant": true
    },
    {
      "inputs": [],
      "name": "WNFTR",
      "outputs": [
        {
          "internalType": "contract WarpNFTRare",
          "name": "",
          "type": "address"
        }
      ],
      "stateMutability": "view",
      "type": "function",
      "constant": true
    },
    {
      "inputs": [],
      "name": "WNFTS",
      "outputs": [
        {
          "internalType": "contract WarpNFTSocial",
          "name": "",
          "type": "address"
        }
      ],
      "stateMutability": "view",
      "type": "function",
      "constant": true
    },
    {
      "inputs": [
        {
          "internalType": "address",
          "name": "",
          "type": "address"
        }
      ],
      "name": "epicClaimed",
      "outputs": [
        {
          "internalType": "bool",
          "name": "",
          "type": "bool"
        }
      ],
      "stateMutability": "view",
      "type": "function",
      "constant": true
    },
    {
      "inputs": [
        {
          "internalType": "uint256",
          "name": "",
          "type": "uint256"
        }
      ],
      "name": "epicList",
      "outputs": [
        {
          "internalType": "address",
          "name": "",
          "type": "address"
        }
      ],
      "stateMutability": "view",
      "type": "function",
      "constant": true
    },
    {
      "inputs": [
        {
          "internalType": "address",
          "name": "",
          "type": "address"
        }
      ],
      "name": "epicWhiteList",
      "outputs": [
        {
          "internalType": "bool",
          "name": "",
          "type": "bool"
        }
      ],
      "stateMutability": "view",
      "type": "function",
      "constant": true
    },
    {
      "inputs": [
        {
          "internalType": "address",
          "name": "",
          "type": "address"
        }
      ],
      "name": "legendaryClaimed",
      "outputs": [
        {
          "internalType": "bool",
          "name": "",
          "type": "bool"
        }
      ],
      "stateMutability": "view",
      "type": "function",
      "constant": true
    },
    {
      "inputs": [
        {
          "internalType": "uint256",
          "name": "",
          "type": "uint256"
        }
      ],
      "name": "legendaryList",
      "outputs": [
        {
          "internalType": "address",
          "name": "",
          "type": "address"
        }
      ],
      "stateMutability": "view",
      "type": "function",
      "constant": true
    },
    {
      "inputs": [
        {
          "internalType": "address",
          "name": "",
          "type": "address"
        }
      ],
      "name": "legendaryWhiteList",
      "outputs": [
        {
          "internalType": "bool",
          "name": "",
          "type": "bool"
        }
      ],
      "stateMutability": "view",
      "type": "function",
      "constant": true
    },
    {
      "inputs": [],
      "name": "owner",
      "outputs": [
        {
          "internalType": "address",
          "name": "",
          "type": "address"
        }
      ],
      "stateMutability": "view",
      "type": "function",
      "constant": true
    },
    {
      "inputs": [
        {
          "internalType": "address",
          "name": "",
          "type": "address"
        }
      ],
      "name": "rareClaimed",
      "outputs": [
        {
          "internalType": "bool",
          "name": "",
          "type": "bool"
        }
      ],
      "stateMutability": "view",
      "type": "function",
      "constant": true
    },
    {
      "inputs": [
        {
          "internalType": "uint256",
          "name": "",
          "type": "uint256"
        }
      ],
      "name": "rareList",
      "outputs": [
        {
          "internalType": "address",
          "name": "",
          "type": "address"
        }
      ],
      "stateMutability": "view",
      "type": "function",
      "constant": true
    },
    {
      "inputs": [
        {
          "internalType": "address",
          "name": "",
          "type": "address"
        }
      ],
      "name": "rareWhiteList",
      "outputs": [
        {
          "internalType": "bool",
          "name": "",
          "type": "bool"
        }
      ],
      "stateMutability": "view",
      "type": "function",
      "constant": true
    },
    {
      "inputs": [],
      "name": "renounceOwnership",
      "outputs": [],
      "stateMutability": "nonpayable",
      "type": "function"
    },
    {
      "inputs": [
        {
          "internalType": "address",
          "name": "",
          "type": "address"
        }
      ],
      "name": "socialClaimed",
      "outputs": [
        {
          "internalType": "bool",
          "name": "",
          "type": "bool"
        }
      ],
      "stateMutability": "view",
      "type": "function",
      "constant": true
    },
    {
      "inputs": [
        {
          "internalType": "uint256",
          "name": "",
          "type": "uint256"
        }
      ],
      "name": "socialList",
      "outputs": [
        {
          "internalType": "address",
          "name": "",
          "type": "address"
        }
      ],
      "stateMutability": "view",
      "type": "function",
      "constant": true
    },
    {
      "inputs": [
        {
          "internalType": "address",
          "name": "",
          "type": "address"
        }
      ],
      "name": "socialWhiteList",
      "outputs": [
        {
          "internalType": "bool",
          "name": "",
          "type": "bool"
        }
      ],
      "stateMutability": "view",
      "type": "function",
      "constant": true
    },
    {
      "inputs": [
        {
          "internalType": "address",
          "name": "newOwner",
          "type": "address"
        }
      ],
      "name": "transferOwnership",
      "outputs": [],
      "stateMutability": "nonpayable",
      "type": "function"
    },
    {
      "inputs": [
        {
          "internalType": "address[]",
          "name": "_addresses",
          "type": "address[]"
        }
      ],
      "name": "epicWhiteLister",
      "outputs": [],
      "stateMutability": "nonpayable",
      "type": "function"
    },
    {
      "inputs": [
        {
          "internalType": "address[]",
          "name": "_addresses",
          "type": "address[]"
        }
      ],
      "name": "legendaryWhiteLister",
      "outputs": [],
      "stateMutability": "nonpayable",
      "type": "function"
    },
    {
      "inputs": [
        {
          "internalType": "address[]",
          "name": "_addresses",
          "type": "address[]"
        }
      ],
      "name": "rareWhiteLister",
      "outputs": [],
      "stateMutability": "nonpayable",
      "type": "function"
    },
    {
      "inputs": [
        {
          "internalType": "address[]",
          "name": "_addresses",
          "type": "address[]"
        }
      ],
      "name": "socialWhiteLister",
      "outputs": [],
      "stateMutability": "nonpayable",
      "type": "function"
    },
    {
      "inputs": [],
      "name": "claimNFTs",
      "outputs": [],
      "stateMutability": "nonpayable",
      "type": "function"
    },
    {
      "inputs": [
        {
          "internalType": "address",
          "name": "_account",
          "type": "address"
        }
      ],
      "name": "hasEpic",
      "outputs": [
        {
          "internalType": "bool",
          "name": "",
          "type": "bool"
        }
      ],
      "stateMutability": "view",
      "type": "function",
      "constant": true
    },
    {
      "inputs": [
        {
          "internalType": "address",
          "name": "_account",
          "type": "address"
        }
      ],
      "name": "hasLegendary",
      "outputs": [
        {
          "internalType": "bool",
          "name": "",
          "type": "bool"
        }
      ],
      "stateMutability": "view",
      "type": "function",
      "constant": true
    },
    {
      "inputs": [
        {
          "internalType": "address",
          "name": "_account",
          "type": "address"
        }
      ],
      "name": "hasRare",
      "outputs": [
        {
          "internalType": "bool",
          "name": "",
          "type": "bool"
        }
      ],
      "stateMutability": "view",
      "type": "function",
      "constant": true
    },
    {
      "inputs": [
        {
          "internalType": "address",
          "name": "_account",
          "type": "address"
        }
      ],
      "name": "hasSocial",
      "outputs": [
        {
          "internalType": "bool",
          "name": "",
          "type": "bool"
        }
      ],
      "stateMutability": "view",
      "type": "function",
      "constant": true
    }
  ],
  "bytecode": "0x608060405234801561001057600080fd5b506040516114143803806114148339818101604052608081101561003357600080fd5b5080516020820151604083015160609093015191929091600061005d6001600160e01b036100fa16565b600080546001600160a01b0319166001600160a01b0383169081178255604051929350917f8be0079c531659141344cd1fd0a4f28419497f9722a3daafe3b4186f6b6457e0908290a350600180546001600160a01b039586166001600160a01b03199182161790915560028054948616948216949094179093556003805492851692841692909217909155600480549190931691161790556100fe565b3390565b6113078061010d6000396000f3fe608060405234801561001057600080fd5b50600436106101c45760003560e01c806361200405116100f9578063ad6e214811610097578063c851bfea11610071578063c851bfea146106a8578063d8437b79146106ce578063f18e22f9146106eb578063f2fde38b146106f3576101c4565b8063ad6e214814610636578063b71363791461065c578063bbe55b8914610682576101c4565b806386a8d8eb116100d357806386a8d8eb146105e35780638da5cb5b14610609578063970aa03614610611578063aa4f3c8114610619576101c4565b806361200405146105cb57806369d23351146105d3578063715018a6146105db576101c4565b80633a9011bf11610166578063488bb6d711610140578063488bb6d71461045b578063522aa2d21461048157806355a3130914610522578063608b2e3b1461052a576101c4565b80633a9011bf146103e95780633e3547c71461040f57806343e110e314610435576101c4565b80631c0be1e7116101a25780631c0be1e71461034757806326395b281461036d5780632947bb43146103935780632b41c943146103cc576101c4565b80630657ae64146101c9578063194d77891461020357806319b02dc3146102a6575b600080fd5b6101ef600480360360208110156101df57600080fd5b50356001600160a01b0316610719565b604080519115158252519081900360200190f35b6102a46004803603602081101561021957600080fd5b810190602081018135600160201b81111561023357600080fd5b82018360208201111561024557600080fd5b803590602001918460208302840111600160201b8311171561026657600080fd5b91908080602002602001604051908101604052809392919081815260200183836020028082843760009201919091525092955061072e945050505050565b005b6102a4600480360360208110156102bc57600080fd5b810190602081018135600160201b8111156102d657600080fd5b8201836020820111156102e857600080fd5b803590602001918460208302840111600160201b8311171561030957600080fd5b91908080602002602001604051908101604052809392919081815260200183836020028082843760009201919091525092955061083a945050505050565b6101ef6004803603602081101561035d57600080fd5b50356001600160a01b0316610942565b6101ef6004803603602081101561038357600080fd5b50356001600160a01b0316610957565b6103b0600480360360208110156103a957600080fd5b50356109ef565b604080516001600160a01b039092168252519081900360200190f35b6103b0600480360360208110156103e257600080fd5b5035610a16565b6101ef600480360360208110156103ff57600080fd5b50356001600160a01b0316610a23565b6101ef6004803603602081101561042557600080fd5b50356001600160a01b0316610a72565b6101ef6004803603602081101561044b57600080fd5b50356001600160a01b0316610a87565b6101ef6004803603602081101561047157600080fd5b50356001600160a01b0316610a9c565b6102a46004803603602081101561049757600080fd5b810190602081018135600160201b8111156104b157600080fd5b8201836020820111156104c357600080fd5b803590602001918460208302840111600160201b831117156104e457600080fd5b919080806020026020016040519081016040528093929190818152602001838360200280828437600092019190915250929550610ab1945050505050565b6102a4610bb9565b6102a46004803603602081101561054057600080fd5b810190602081018135600160201b81111561055a57600080fd5b82018360208201111561056c57600080fd5b803590602001918460208302840111600160201b8311171561058d57600080fd5b919080806020026020016040519081016040528093929190818152602001838360200280828437600092019190915250929550610ea0945050505050565b6103b0610fa8565b6103b0610fb7565b6102a4610fc6565b6101ef600480360360208110156105f957600080fd5b50356001600160a01b0316611068565b6103b06110b7565b6103b06110c6565b6103b06004803603602081101561062f57600080fd5b50356110d5565b6101ef6004803603602081101561064c57600080fd5b50356001600160a01b03166110e2565b6101ef6004803603602081101561067257600080fd5b50356001600160a01b03166110f7565b6101ef6004803603602081101561069857600080fd5b50356001600160a01b031661110c565b6101ef600480360360208110156106be57600080fd5b50356001600160a01b031661115e565b6103b0600480360360208110156106e457600080fd5b5035611173565b6103b0611180565b6102a46004803603602081101561070957600080fd5b50356001600160a01b031661118f565b600e6020526000908152604090205460ff1681565b610736611287565b6000546001600160a01b03908116911614610786576040805162461bcd60e51b815260206004820181905260248201526000805160206112b2833981519152604482015290519081900360640190fd5b60005b8151811015610836576001600960008484815181106107a457fe5b60200260200101516001600160a01b03166001600160a01b0316815260200190815260200160002060006101000a81548160ff02191690831515021790555060058282815181106107f157fe5b60209081029190910181015182546001808201855560009485529290932090920180546001600160a01b0319166001600160a01b039093169290921790915501610789565b5050565b610842611287565b6000546001600160a01b03908116911614610892576040805162461bcd60e51b815260206004820181905260248201526000805160206112b2833981519152604482015290519081900360640190fd5b60005b8151811015610836576001600c60008484815181106108b057fe5b60200260200101516001600160a01b03166001600160a01b0316815260200190815260200160002060006101000a81548160ff02191690831515021790555060088282815181106108fd57fe5b60209081029190910181015182546001808201855560009485529290932090920180546001600160a01b0319166001600160a01b039093169290921790915501610895565b600d6020526000908152604090205460ff1681565b600154604080516370a0823160e01b81526001600160a01b0384811660048301529151600093849316916370a08231916024808301926020929190829003018186803b1580156109a657600080fd5b505afa1580156109ba573d6000803e3d6000fd5b505050506040513d60208110156109d057600080fd5b5051905080156109e45760019150506109ea565b60009150505b919050565b600781815481106109fc57fe5b6000918252602090912001546001600160a01b0316905081565b600681815481106109fc57fe5b600354604080516370a0823160e01b81526001600160a01b0384811660048301529151600093849316916370a08231916024808301926020929190829003018186803b1580156109a657600080fd5b600c6020526000908152604090205460ff1681565b600b6020526000908152604090205460ff1681565b600a6020526000908152604090205460ff1681565b610ab9611287565b6000546001600160a01b03908116911614610b09576040805162461bcd60e51b815260206004820181905260248201526000805160206112b2833981519152604482015290519081900360640190fd5b60005b8151811015610836576001600b6000848481518110610b2757fe5b60200260200101516001600160a01b03166001600160a01b0316815260200190815260200160002060006101000a81548160ff0219169083151502179055506007828281518110610b7457fe5b60209081029190910181015182546001808201855560009485529290932090920180546001600160a01b0319166001600160a01b039093169290921790915501610b0c565b3360009081526009602052604090205460ff16151560011415610c7257336000908152600d602052604090205460ff1615610bf357600080fd5b600154604080516365568ecb60e01b815233600482015290516001600160a01b03909216916365568ecb9160248082019260009290919082900301818387803b158015610c3f57600080fd5b505af1158015610c53573d6000803e3d6000fd5b5050336000908152600d60205260409020805460ff1916600117905550505b336000908152600a602052604090205460ff16151560011415610d2b57336000908152600e602052604090205460ff1615610cac57600080fd5b600254604080516365568ecb60e01b815233600482015290516001600160a01b03909216916365568ecb9160248082019260009290919082900301818387803b158015610cf857600080fd5b505af1158015610d0c573d6000803e3d6000fd5b5050336000908152600e60205260409020805460ff1916600117905550505b336000908152600b602052604090205460ff16151560011415610de457336000908152600f602052604090205460ff1615610d6557600080fd5b600354604080516365568ecb60e01b815233600482015290516001600160a01b03909216916365568ecb9160248082019260009290919082900301818387803b158015610db157600080fd5b505af1158015610dc5573d6000803e3d6000fd5b5050336000908152600f60205260409020805460ff1916600117905550505b336000908152600c602052604090205460ff16151560011415610e9e573360009081526010602052604090205460ff1615610e1e57600080fd5b60048054604080516365568ecb60e01b81523393810193909352516001600160a01b03909116916365568ecb91602480830192600092919082900301818387803b158015610e6b57600080fd5b505af1158015610e7f573d6000803e3d6000fd5b5050336000908152601060205260409020805460ff1916600117905550505b565b610ea8611287565b6000546001600160a01b03908116911614610ef8576040805162461bcd60e51b815260206004820181905260248201526000805160206112b2833981519152604482015290519081900360640190fd5b60005b8151811015610836576001600a6000848481518110610f1657fe5b60200260200101516001600160a01b03166001600160a01b0316815260200190815260200160002060006101000a81548160ff0219169083151502179055506006828281518110610f6357fe5b60209081029190910181015182546001808201855560009485529290932090920180546001600160a01b0319166001600160a01b039093169290921790915501610efb565b6001546001600160a01b031681565b6002546001600160a01b031681565b610fce611287565b6000546001600160a01b0390811691161461101e576040805162461bcd60e51b815260206004820181905260248201526000805160206112b2833981519152604482015290519081900360640190fd5b600080546040516001600160a01b03909116907f8be0079c531659141344cd1fd0a4f28419497f9722a3daafe3b4186f6b6457e0908390a3600080546001600160a01b0319169055565b600254604080516370a0823160e01b81526001600160a01b0384811660048301529151600093849316916370a08231916024808301926020929190829003018186803b1580156109a657600080fd5b6000546001600160a01b031690565b6004546001600160a01b031681565b600881815481106109fc57fe5b600f6020526000908152604090205460ff1681565b60096020526000908152604090205460ff1681565b60048054604080516370a0823160e01b81526001600160a01b03858116948201949094529051600093849316916370a08231916024808301926020929190829003018186803b1580156109a657600080fd5b60106020526000908152604090205460ff1681565b600581815481106109fc57fe5b6003546001600160a01b031681565b611197611287565b6000546001600160a01b039081169116146111e7576040805162461bcd60e51b815260206004820181905260248201526000805160206112b2833981519152604482015290519081900360640190fd5b6001600160a01b03811661122c5760405162461bcd60e51b815260040180806020018281038252602681526020018061128c6026913960400191505060405180910390fd5b600080546040516001600160a01b03808516939216917f8be0079c531659141344cd1fd0a4f28419497f9722a3daafe3b4186f6b6457e091a3600080546001600160a01b0319166001600160a01b0392909216919091179055565b339056fe4f776e61626c653a206e6577206f776e657220697320746865207a65726f20616464726573734f776e61626c653a2063616c6c6572206973206e6f7420746865206f776e6572a264697066735822122040e7a43c3295d20ec33f361f2567ff733800a851e381130db461c599bb334b0564736f6c63430006060033",
  "immutableReferences": {},
  "source": "pragma solidity ^0.6.0;\n\nimport \"@openzeppelin/contracts/access/Ownable.sol\";\nimport \"./WarpNFTEpic.sol\";\nimport \"./WarpNFTLegendary.sol\";\nimport \"./WarpNFTRare.sol\";\nimport \"./WarpNFTSocial.sol\";\n\ncontract WarpNFTClaimControl is Ownable {\n  WarpNFTEpic public WNFTE;\n  WarpNFTLegendary public WNFTL;\n  WarpNFTRare public WNFTR;\n  WarpNFTSocial public WNFTS;\n\n\n\n  address[] public epicList;\n  address[] public legendaryList;\n  address[] public rareList;\n  address[] public socialList;\n\n  mapping(address => bool) public epicWhiteList;\n  mapping(address => bool) public legendaryWhiteList;\n  mapping(address => bool) public rareWhiteList;\n  mapping(address => bool) public socialWhiteList;\n  mapping(address => bool) public epicClaimed;\n  mapping(address => bool) public legendaryClaimed;\n  mapping(address => bool) public rareClaimed;\n  mapping(address => bool) public socialClaimed;\n\n/**\n@notice the constructor function is fired only once during contract deployment\n\n**/\n  constructor(\n    WarpNFTEpic _NFTEpic,\n    WarpNFTLegendary _NFTLegendary,\n    WarpNFTRare _NFTRare,\n    WarpNFTSocial _NFTSocial\n  ) public {\n    WNFTE = _NFTEpic;\n    WNFTL = _NFTLegendary;\n    WNFTR = _NFTRare;\n    WNFTS = _NFTSocial;\n  }\n\n/**\n@notice epicWhiteLister takes in an array of addresses and whitelists them to receive the epic NFT\n@param _addresses is an array of addresses to be whitelisted\n@dev this function is protected by the onlyOwner modifier and can only be called by the owner of this contract\n**/\nfunction epicWhiteLister(address[] memory _addresses) public onlyOwner {\n    for (uint256 i = 0; i < _addresses.length; ++i) {\n        epicWhiteList[_addresses[i]] = true;\n        epicList.push(_addresses[i]);\n    }\n}\n\n/**\n@notice legendaryWhiteLister takes in an array of addresses and whitelists them to receive the legendary NFT\n@param _addresses is an array of addresses to be whitelisted\n@dev this function is protected by the onlyOwner modifier and can only be called by the owner of this contract\n**/\nfunction legendaryWhiteLister(address[] memory _addresses) public onlyOwner {\n    for (uint256 i = 0; i < _addresses.length; ++i) {\n        legendaryWhiteList[_addresses[i]] = true;\n        legendaryList.push(_addresses[i]);\n    }\n}\n\n/**\n@notice rareWhiteLister takes in an array of addresses and whitelists them to receive the rare NFT\n@param _addresses is an array of addresses to be whitelisted\n@dev this function is protected by the onlyOwner modifier and can only be called by the owner of this contract\n**/\nfunction rareWhiteLister(address[] memory _addresses) public onlyOwner {\n    for (uint256 i = 0; i < _addresses.length; ++i) {\n        rareWhiteList[_addresses[i]] = true;\n        rareList.push(_addresses[i]);\n    }\n}\n\n/**\n@notice socialWhiteLister takes in an array of addresses and whitelists them to receive the social NFT\n@param _addresses is an array of addresses to be whitelisted\n@dev this function is protected by the onlyOwner modifier and can only be called by the owner of this contract\n**/\nfunction socialWhiteLister(address[] memory _addresses) public onlyOwner {\n    for (uint256 i = 0; i < _addresses.length; ++i) {\n        socialWhiteList[_addresses[i]] = true;\n        socialList.push(_addresses[i]);\n    }\n}\n\n/**\n@notice claimNFTs is a public function that allows a end user to claim ALL of the NFT's they are owed by the warp platform\n@dev this function uses the address whitelists to distribute the appropriate NFT's to warp users\n@dev this function sets a tokens type when minting a new token. A tokens type can be used by other warp contracts\n      to determine what type of token a user holds\n      Type 1: Epic NFT\n      Type 2: Legendary NFT\n      Type 3: Rare NFT\n      Type 4: Social NFT\n**/\nfunction claimNFTs() public {\n\n  if(epicWhiteList[msg.sender] == true) {\n    require(epicClaimed[msg.sender] == false);\n    WNFTE.mintNewNFT(msg.sender);\n    epicClaimed[msg.sender] = true;\n  }\n\n  if(legendaryWhiteList[msg.sender] == true) {\n    require(legendaryClaimed[msg.sender] == false);\n    WNFTL.mintNewNFT(msg.sender);\n    legendaryClaimed[msg.sender] = true;\n  }\n\n  if(rareWhiteList[msg.sender] == true) {\n    require(rareClaimed[msg.sender] == false);\n    WNFTR.mintNewNFT(msg.sender);\n    rareClaimed[msg.sender] = true;\n  }\n\n  if(socialWhiteList[msg.sender] == true) {\n    require(socialClaimed[msg.sender] == false);\n    WNFTS.mintNewNFT(msg.sender);\n    socialClaimed[msg.sender] = true;\n  }\n}\n///view function to check if an account holds a certain NFT\nfunction hasEpic(address _account) public view returns(bool) {\n  uint numOfTokens = WNFTE.balanceOf(_account);\n  if(numOfTokens > 0) {\n    return true;\n  } else {\n    return false;\n  }\n}\n\nfunction hasLegendary(address _account) public view returns(bool) {\n  uint numOfTokens = WNFTL.balanceOf(_account);\n  if(numOfTokens > 0) {\n    return true;\n  } else {\n    return false;\n  }\n}\n\nfunction hasRare(address _account) public view returns(bool) {\n  uint numOfTokens = WNFTR.balanceOf(_account);\n  if(numOfTokens > 0) {\n    return true;\n  } else {\n    return false;\n  }\n}\n\nfunction hasSocial(address _account) public view returns(bool) {\n  uint numOfTokens = WNFTS.balanceOf(_account);\n  if(numOfTokens > 0) {\n    return true;\n  } else {\n    return false;\n  }\n}\n\n}\n",
  "sourcePath": "/home/stan36/repos/Warp/nft-distribute/contracts/WarpNFTClaimControl.sol",
  "compiler": {
    "name": "solc",
    "version": "0.6.6+commit.6c089d02.Emscripten.clang"
  },
  "schemaVersion": "3.3.2",
  "updatedAt": "2020-12-15T02:04:28.677Z",
  "networkType": "ethereum",
  "devdoc": {
    "methods": {
      "claimNFTs()": {
        "details": "this function uses the address whitelists to distribute the appropriate NFT's to warp usersthis function sets a tokens type when minting a new token. A tokens type can be used by other warp contracts to determine what type of token a user holds Type 1: Epic NFT Type 2: Legendary NFT Type 3: Rare NFT Type 4: Social NFT*"
      },
      "epicWhiteLister(address[])": {
        "details": "this function is protected by the onlyOwner modifier and can only be called by the owner of this contract*",
        "params": {
          "_addresses": "is an array of addresses to be whitelisted"
        }
      },
      "legendaryWhiteLister(address[])": {
        "details": "this function is protected by the onlyOwner modifier and can only be called by the owner of this contract*",
        "params": {
          "_addresses": "is an array of addresses to be whitelisted"
        }
      },
      "owner()": {
        "details": "Returns the address of the current owner."
      },
      "rareWhiteLister(address[])": {
        "details": "this function is protected by the onlyOwner modifier and can only be called by the owner of this contract*",
        "params": {
          "_addresses": "is an array of addresses to be whitelisted"
        }
      },
      "renounceOwnership()": {
        "details": "Leaves the contract without owner. It will not be possible to call `onlyOwner` functions anymore. Can only be called by the current owner.     * NOTE: Renouncing ownership will leave the contract without an owner, thereby removing any functionality that is only available to the owner."
      },
      "socialWhiteLister(address[])": {
        "details": "this function is protected by the onlyOwner modifier and can only be called by the owner of this contract*",
        "params": {
          "_addresses": "is an array of addresses to be whitelisted"
        }
      },
      "transferOwnership(address)": {
        "details": "Transfers ownership of the contract to a new account (`newOwner`). Can only be called by the current owner."
      }
    }
  },
  "userdoc": {
    "methods": {
      "claimNFTs()": {
        "notice": "claimNFTs is a public function that allows a end user to claim ALL of the NFT's they are owed by the warp platform"
      },
      "constructor": "the constructor function is fired only once during contract deployment*",
      "epicWhiteLister(address[])": {
        "notice": "epicWhiteLister takes in an array of addresses and whitelists them to receive the epic NFT"
      },
      "hasEpic(address)": {
        "notice": "view function to check if an account holds a certain NFT"
      },
      "legendaryWhiteLister(address[])": {
        "notice": "legendaryWhiteLister takes in an array of addresses and whitelists them to receive the legendary NFT"
      },
      "rareWhiteLister(address[])": {
        "notice": "rareWhiteLister takes in an array of addresses and whitelists them to receive the rare NFT"
      },
      "socialWhiteLister(address[])": {
        "notice": "socialWhiteLister takes in an array of addresses and whitelists them to receive the social NFT"
      }
    }
  }
}