{
  "contractName": "TetherToken",
  "abi": [
    {
      "constant": true,
      "inputs": [],
      "name": "name",
      "outputs": [
        {
          "name": "",
          "type": "string"
        }
      ],
      "payable": false,
      "stateMutability": "view",
      "type": "function"
    },
    {
      "constant": true,
      "inputs": [],
      "name": "deprecated",
      "outputs": [
        {
          "name": "",
          "type": "bool"
        }
      ],
      "payable": false,
      "stateMutability": "view",
      "type": "function"
    },
    {
      "constant": false,
      "inputs": [
        {
          "name": "_evilUser",
          "type": "address"
        }
      ],
      "name": "addBlackList",
      "outputs": [],
      "payable": false,
      "stateMutability": "nonpayable",
      "type": "function"
    },
    {
      "constant": true,
      "inputs": [],
      "name": "upgradedAddress",
      "outputs": [
        {
          "name": "",
          "type": "address"
        }
      ],
      "payable": false,
      "stateMutability": "view",
      "type": "function"
    },
    {
      "constant": true,
      "inputs": [
        {
          "name": "",
          "type": "address"
        }
      ],
      "name": "balances",
      "outputs": [
        {
          "name": "",
          "type": "uint256"
        }
      ],
      "payable": false,
      "stateMutability": "view",
      "type": "function"
    },
    {
      "constant": true,
      "inputs": [],
      "name": "decimals",
      "outputs": [
        {
          "name": "",
          "type": "uint256"
        }
      ],
      "payable": false,
      "stateMutability": "view",
      "type": "function"
    },
    {
      "constant": true,
      "inputs": [],
      "name": "maximumFee",
      "outputs": [
        {
          "name": "",
          "type": "uint256"
        }
      ],
      "payable": false,
      "stateMutability": "view",
      "type": "function"
    },
    {
      "constant": true,
      "inputs": [],
      "name": "_totalSupply",
      "outputs": [
        {
          "name": "",
          "type": "uint256"
        }
      ],
      "payable": false,
      "stateMutability": "view",
      "type": "function"
    },
    {
      "constant": false,
      "inputs": [],
      "name": "unpause",
      "outputs": [],
      "payable": false,
      "stateMutability": "nonpayable",
      "type": "function"
    },
    {
      "constant": true,
      "inputs": [
        {
          "name": "_maker",
          "type": "address"
        }
      ],
      "name": "getBlackListStatus",
      "outputs": [
        {
          "name": "",
          "type": "bool"
        }
      ],
      "payable": false,
      "stateMutability": "view",
      "type": "function"
    },
    {
      "constant": true,
      "inputs": [
        {
          "name": "",
          "type": "address"
        },
        {
          "name": "",
          "type": "address"
        }
      ],
      "name": "allowed",
      "outputs": [
        {
          "name": "",
          "type": "uint256"
        }
      ],
      "payable": false,
      "stateMutability": "view",
      "type": "function"
    },
    {
      "constant": true,
      "inputs": [],
      "name": "paused",
      "outputs": [
        {
          "name": "",
          "type": "bool"
        }
      ],
      "payable": false,
      "stateMutability": "view",
      "type": "function"
    },
    {
      "constant": false,
      "inputs": [],
      "name": "pause",
      "outputs": [],
      "payable": false,
      "stateMutability": "nonpayable",
      "type": "function"
    },
    {
      "constant": true,
      "inputs": [],
      "name": "getOwner",
      "outputs": [
        {
          "name": "",
          "type": "address"
        }
      ],
      "payable": false,
      "stateMutability": "view",
      "type": "function"
    },
    {
      "constant": true,
      "inputs": [],
      "name": "owner",
      "outputs": [
        {
          "name": "",
          "type": "address"
        }
      ],
      "payable": false,
      "stateMutability": "view",
      "type": "function"
    },
    {
      "constant": true,
      "inputs": [],
      "name": "symbol",
      "outputs": [
        {
          "name": "",
          "type": "string"
        }
      ],
      "payable": false,
      "stateMutability": "view",
      "type": "function"
    },
    {
      "constant": true,
      "inputs": [],
      "name": "basisPointsRate",
      "outputs": [
        {
          "name": "",
          "type": "uint256"
        }
      ],
      "payable": false,
      "stateMutability": "view",
      "type": "function"
    },
    {
      "constant": true,
      "inputs": [
        {
          "name": "",
          "type": "address"
        }
      ],
      "name": "isBlackListed",
      "outputs": [
        {
          "name": "",
          "type": "bool"
        }
      ],
      "payable": false,
      "stateMutability": "view",
      "type": "function"
    },
    {
      "constant": false,
      "inputs": [
        {
          "name": "_clearedUser",
          "type": "address"
        }
      ],
      "name": "removeBlackList",
      "outputs": [],
      "payable": false,
      "stateMutability": "nonpayable",
      "type": "function"
    },
    {
      "constant": true,
      "inputs": [],
      "name": "MAX_UINT",
      "outputs": [
        {
          "name": "",
          "type": "uint256"
        }
      ],
      "payable": false,
      "stateMutability": "view",
      "type": "function"
    },
    {
      "constant": false,
      "inputs": [
        {
          "name": "newOwner",
          "type": "address"
        }
      ],
      "name": "transferOwnership",
      "outputs": [],
      "payable": false,
      "stateMutability": "nonpayable",
      "type": "function"
    },
    {
      "constant": false,
      "inputs": [
        {
          "name": "_blackListedUser",
          "type": "address"
        }
      ],
      "name": "destroyBlackFunds",
      "outputs": [],
      "payable": false,
      "stateMutability": "nonpayable",
      "type": "function"
    },
    {
      "inputs": [
        {
          "name": "_initialSupply",
          "type": "uint256"
        },
        {
          "name": "_name",
          "type": "string"
        },
        {
          "name": "_symbol",
          "type": "string"
        },
        {
          "name": "_decimals",
          "type": "uint256"
        }
      ],
      "payable": false,
      "stateMutability": "nonpayable",
      "type": "constructor"
    },
    {
      "anonymous": false,
      "inputs": [
        {
          "indexed": false,
          "name": "amount",
          "type": "uint256"
        }
      ],
      "name": "Issue",
      "type": "event"
    },
    {
      "anonymous": false,
      "inputs": [
        {
          "indexed": false,
          "name": "amount",
          "type": "uint256"
        }
      ],
      "name": "Redeem",
      "type": "event"
    },
    {
      "anonymous": false,
      "inputs": [
        {
          "indexed": false,
          "name": "newAddress",
          "type": "address"
        }
      ],
      "name": "Deprecate",
      "type": "event"
    },
    {
      "anonymous": false,
      "inputs": [
        {
          "indexed": false,
          "name": "feeBasisPoints",
          "type": "uint256"
        },
        {
          "indexed": false,
          "name": "maxFee",
          "type": "uint256"
        }
      ],
      "name": "Params",
      "type": "event"
    },
    {
      "anonymous": false,
      "inputs": [
        {
          "indexed": false,
          "name": "_blackListedUser",
          "type": "address"
        },
        {
          "indexed": false,
          "name": "_balance",
          "type": "uint256"
        }
      ],
      "name": "DestroyedBlackFunds",
      "type": "event"
    },
    {
      "anonymous": false,
      "inputs": [
        {
          "indexed": false,
          "name": "_user",
          "type": "address"
        }
      ],
      "name": "AddedBlackList",
      "type": "event"
    },
    {
      "anonymous": false,
      "inputs": [
        {
          "indexed": false,
          "name": "_user",
          "type": "address"
        }
      ],
      "name": "RemovedBlackList",
      "type": "event"
    },
    {
      "anonymous": false,
      "inputs": [
        {
          "indexed": true,
          "name": "owner",
          "type": "address"
        },
        {
          "indexed": true,
          "name": "spender",
          "type": "address"
        },
        {
          "indexed": false,
          "name": "value",
          "type": "uint256"
        }
      ],
      "name": "Approval",
      "type": "event"
    },
    {
      "anonymous": false,
      "inputs": [
        {
          "indexed": true,
          "name": "from",
          "type": "address"
        },
        {
          "indexed": true,
          "name": "to",
          "type": "address"
        },
        {
          "indexed": false,
          "name": "value",
          "type": "uint256"
        }
      ],
      "name": "Transfer",
      "type": "event"
    },
    {
      "anonymous": false,
      "inputs": [],
      "name": "Pause",
      "type": "event"
    },
    {
      "anonymous": false,
      "inputs": [],
      "name": "Unpause",
      "type": "event"
    },
    {
      "constant": false,
      "inputs": [
        {
          "name": "_to",
          "type": "address"
        },
        {
          "name": "_value",
          "type": "uint256"
        }
      ],
      "name": "transfer",
      "outputs": [],
      "payable": false,
      "stateMutability": "nonpayable",
      "type": "function"
    },
    {
      "constant": false,
      "inputs": [
        {
          "name": "_from",
          "type": "address"
        },
        {
          "name": "_to",
          "type": "address"
        },
        {
          "name": "_value",
          "type": "uint256"
        }
      ],
      "name": "transferFrom",
      "outputs": [],
      "payable": false,
      "stateMutability": "nonpayable",
      "type": "function"
    },
    {
      "constant": true,
      "inputs": [
        {
          "name": "who",
          "type": "address"
        }
      ],
      "name": "balanceOf",
      "outputs": [
        {
          "name": "",
          "type": "uint256"
        }
      ],
      "payable": false,
      "stateMutability": "view",
      "type": "function"
    },
    {
      "constant": false,
      "inputs": [
        {
          "name": "_spender",
          "type": "address"
        },
        {
          "name": "_value",
          "type": "uint256"
        }
      ],
      "name": "approve",
      "outputs": [],
      "payable": false,
      "stateMutability": "nonpayable",
      "type": "function"
    },
    {
      "constant": true,
      "inputs": [
        {
          "name": "_owner",
          "type": "address"
        },
        {
          "name": "_spender",
          "type": "address"
        }
      ],
      "name": "allowance",
      "outputs": [
        {
          "name": "remaining",
          "type": "uint256"
        }
      ],
      "payable": false,
      "stateMutability": "view",
      "type": "function"
    },
    {
      "constant": false,
      "inputs": [
        {
          "name": "_upgradedAddress",
          "type": "address"
        }
      ],
      "name": "deprecate",
      "outputs": [],
      "payable": false,
      "stateMutability": "nonpayable",
      "type": "function"
    },
    {
      "constant": true,
      "inputs": [],
      "name": "totalSupply",
      "outputs": [
        {
          "name": "",
          "type": "uint256"
        }
      ],
      "payable": false,
      "stateMutability": "view",
      "type": "function"
    },
    {
      "constant": false,
      "inputs": [
        {
          "name": "amount",
          "type": "uint256"
        }
      ],
      "name": "issue",
      "outputs": [],
      "payable": false,
      "stateMutability": "nonpayable",
      "type": "function"
    },
    {
      "constant": false,
      "inputs": [
        {
          "name": "amount",
          "type": "uint256"
        }
      ],
      "name": "redeem",
      "outputs": [],
      "payable": false,
      "stateMutability": "nonpayable",
      "type": "function"
    },
    {
      "constant": false,
      "inputs": [
        {
          "name": "newBasisPoints",
          "type": "uint256"
        },
        {
          "name": "newMaxFee",
          "type": "uint256"
        }
      ],
      "name": "setParams",
      "outputs": [],
      "payable": false,
      "stateMutability": "nonpayable",
      "type": "function"
    }
  ],
  "bytecode": "0x60606040526000805460a060020a60ff0219168155600381905560045534156200002857600080fd5b604051620018ad380380620018ad833981016040528080519190602001805182019190602001805182019190602001805160008054600160a060020a03191633600160a060020a03161790556007868102600155909250905083805162000094929160200190620001b7565b506008828051620000aa929160200190620001b7565b50600955505060026020527fcf3481d7162e3b62dde471e3001ca46b3d638a3679d814ce17c23d50eafec2908190557f410c20dfef3e07b72d1f5c5233c4579b074b0bbf9a043032242ca2b0c3c5aa838190557f68f59711a4b82b1f06f77f59765f45d86eb70ae00b53896ccc03c99f032be0398190557f057094dd420b41dfe1a7119cf6dd413d1c63614ae186c64a6999d7d6b6dbc6778190557f2480b86bbd09b2611265f6fa49e9f5f3feb4424088f3c2c5e8b68b1cf7409a938190557f6c6631e2f9f359c1eda1f552804c385d53b2a31628737922d1014ed080b3813281905560008054600160a060020a031681526040902055600a805460a060020a60ff02191690556200025c565b828054600181600116156101000203166002900490600052602060002090601f016020900481019282601f10620001fa57805160ff19168380011785556200022a565b828001600101855582156200022a579182015b828111156200022a5782518255916020019190600101906200020d565b50620002389291506200023c565b5090565b6200025991905b8082111562000238576000815560010162000243565b90565b611641806200026c6000396000f3006060604052361561017a5763ffffffff60e060020a60003504166306fdde03811461017f5780630753c30c14610209578063095ea7b31461022a5780630e136b191461024c5780630ecb93c01461027357806318160ddd1461029257806323b872dd146102b757806326976e3f146102df57806327e235e31461030e578063313ce5671461032d57806335390714146103405780633eaaf86b146103535780633f4ba83a1461036657806359bf1abe146103795780635c658165146103985780635c975abb146103bd57806370a08231146103d05780638456cb59146103ef578063893d20e8146104025780638da5cb5b1461041557806395d89b4114610428578063a9059cbb1461043b578063c0324c771461045d578063cc872b6614610476578063db006a751461048c578063dd62ed3e146104a2578063dd644f72146104c7578063e47d6060146104da578063e4997dc5146104f9578063e5b5019a14610518578063f2fde38b1461052b578063f3bdc2281461054a575b600080fd5b341561018a57600080fd5b610192610569565b60405160208082528190810183818151815260200191508051906020019080838360005b838110156101ce5780820151838201526020016101b6565b50505050905090810190601f1680156101fb5780820380516001836020036101000a031916815260200191505b509250505060405180910390f35b341561021457600080fd5b610228600160a060020a0360043516610607565b005b341561023557600080fd5b610228600160a060020a03600435166024356106aa565b341561025757600080fd5b61025f610757565b604051901515815260200160405180910390f35b341561027e57600080fd5b610228600160a060020a0360043516610767565b341561029d57600080fd5b6102a56107e7565b60405190815260200160405180910390f35b34156102c257600080fd5b610228600160a060020a036004358116906024351660443561086e565b34156102ea57600080fd5b6102f2610932565b604051600160a060020a03909116815260200160405180910390f35b341561031957600080fd5b6102a5600160a060020a0360043516610941565b341561033857600080fd5b6102a5610953565b341561034b57600080fd5b6102a5610959565b341561035e57600080fd5b6102a561095f565b341561037157600080fd5b610228610965565b341561038457600080fd5b61025f600160a060020a03600435166109e4565b34156103a357600080fd5b6102a5600160a060020a0360043581169060243516610a06565b34156103c857600080fd5b61025f610a23565b34156103db57600080fd5b6102a5600160a060020a0360043516610a33565b34156103fa57600080fd5b610228610ad3565b341561040d57600080fd5b6102f2610b57565b341561042057600080fd5b6102f2610b66565b341561043357600080fd5b610192610b75565b341561044657600080fd5b610228600160a060020a0360043516602435610be0565b341561046857600080fd5b610228600435602435610cb9565b341561048157600080fd5b610228600435610d4f565b341561049757600080fd5b610228600435610dfe565b34156104ad57600080fd5b6102a5600160a060020a0360043581169060243516610eaf565b34156104d257600080fd5b6102a5610f5a565b34156104e557600080fd5b61025f600160a060020a0360043516610f60565b341561050457600080fd5b610228600160a060020a0360043516610f75565b341561052357600080fd5b6102a5610ff2565b341561053657600080fd5b610228600160a060020a0360043516610ff8565b341561055557600080fd5b610228600160a060020a036004351661104e565b60078054600181600116156101000203166002900480601f0160208091040260200160405190810160405280929190818152602001828054600181600116156101000203166002900480156105ff5780601f106105d4576101008083540402835291602001916105ff565b820191906000526020600020905b8154815290600101906020018083116105e257829003601f168201915b505050505081565b60005433600160a060020a0390811691161461062257600080fd5b600a805460a060020a74ff0000000000000000000000000000000000000000199091161773ffffffffffffffffffffffffffffffffffffffff1916600160a060020a0383161790557fcc358699805e9a8b7f77b522628c7cb9abd07d9efb86b6fb616af1609036a99e81604051600160a060020a03909116815260200160405180910390a150565b604060443610156106ba57600080fd5b600a5460a060020a900460ff161561074857600a54600160a060020a031663aee92d3333858560405160e060020a63ffffffff8616028152600160a060020a0393841660048201529190921660248201526044810191909152606401600060405180830381600087803b151561072f57600080fd5b6102c65a03f1151561074057600080fd5b505050610752565b610752838361110c565b505050565b600a5460a060020a900460ff1681565b60005433600160a060020a0390811691161461078257600080fd5b600160a060020a03811660009081526006602052604090819020805460ff191660011790557f42e160154868087d6bfdc0ca23d96a1c1cfa32f1b72ba9ba27b69b98a0d819dc90829051600160a060020a03909116815260200160405180910390a150565b600a5460009060a060020a900460ff161561086657600a54600160a060020a03166318160ddd6000604051602001526040518163ffffffff1660e060020a028152600401602060405180830381600087803b151561084457600080fd5b6102c65a03f1151561085557600080fd5b50505060405180519050905061086b565b506001545b90565b60005460a060020a900460ff161561088557600080fd5b600160a060020a03831660009081526006602052604090205460ff16156108ab57600080fd5b600a5460a060020a900460ff161561092757600a54600160a060020a0316638b477adb3385858560405160e060020a63ffffffff8716028152600160a060020a0394851660048201529284166024840152921660448201526064810191909152608401600060405180830381600087803b151561072f57600080fd5b6107528383836111be565b600a54600160a060020a031681565b60026020526000908152604090205481565b60095481565b60045481565b60015481565b60005433600160a060020a0390811691161461098057600080fd5b60005460a060020a900460ff16151561099857600080fd5b6000805474ff0000000000000000000000000000000000000000191690557f7805862f689e2f13df9f062ff482ad3ad112aca9e0847911ed832e158c525b3360405160405180910390a1565b600160a060020a03811660009081526006602052604090205460ff165b919050565b600560209081526000928352604080842090915290825290205481565b60005460a060020a900460ff1681565b600a5460009060a060020a900460ff1615610ac357600a54600160a060020a03166370a082318360006040516020015260405160e060020a63ffffffff8416028152600160a060020a039091166004820152602401602060405180830381600087803b1515610aa157600080fd5b6102c65a03f11515610ab257600080fd5b505050604051805190509050610a01565b610acc826113bd565b9050610a01565b60005433600160a060020a03908116911614610aee57600080fd5b60005460a060020a900460ff1615610b0557600080fd5b6000805474ff0000000000000000000000000000000000000000191660a060020a1790557f6985a02210a168e66602d3235cb6db0e70f92b3ba4d376a33c0f3d9434bff62560405160405180910390a1565b600054600160a060020a031690565b600054600160a060020a031681565b60088054600181600116156101000203166002900480601f0160208091040260200160405190810160405280929190818152602001828054600181600116156101000203166002900480156105ff5780601f106105d4576101008083540402835291602001916105ff565b60005460a060020a900460ff1615610bf757600080fd5b600160a060020a03331660009081526006602052604090205460ff1615610c1d57600080fd5b600a5460a060020a900460ff1615610cab57600a54600160a060020a0316636e18980a33848460405160e060020a63ffffffff8616028152600160a060020a0393841660048201529190921660248201526044810191909152606401600060405180830381600087803b1515610c9257600080fd5b6102c65a03f11515610ca357600080fd5b505050610cb5565b610cb582826113d8565b5050565b60005433600160a060020a03908116911614610cd457600080fd5b60148210610ce157600080fd5b60328110610cee57600080fd5b6003829055600954610d0a908290600a0a63ffffffff61155c16565b60048190556003547fb044a1e409eac5c48e5af22d4af52670dd1a99059537a78b31b48c6500a6354e9160405191825260208201526040908101905180910390a15050565b60005433600160a060020a03908116911614610d6a57600080fd5b60015481810111610d7a57600080fd5b60008054600160a060020a031681526002602052604090205481810111610da057600080fd5b60008054600160a060020a03168152600260205260409081902080548301905560018054830190557fcb8241adb0c3fdb35b70c24ce35c5eb0c17af7431c99f827d44a445ca624176a9082905190815260200160405180910390a150565b60005433600160a060020a03908116911614610e1957600080fd5b60015481901015610e2957600080fd5b60008054600160a060020a031681526002602052604090205481901015610e4f57600080fd5b60018054829003905560008054600160a060020a031681526002602052604090819020805483900390557f702d5967f45f6513a38ffc42d6ba9bf230bd40e8f53b16363c7eb4fd2deb9a449082905190815260200160405180910390a150565b600a5460009060a060020a900460ff1615610f4757600a54600160a060020a031663dd62ed3e848460006040516020015260405160e060020a63ffffffff8516028152600160a060020a03928316600482015291166024820152604401602060405180830381600087803b1515610f2557600080fd5b6102c65a03f11515610f3657600080fd5b505050604051805190509050610f54565b610f518383611592565b90505b92915050565b60035481565b60066020526000908152604090205460ff1681565b60005433600160a060020a03908116911614610f9057600080fd5b600160a060020a03811660009081526006602052604090819020805460ff191690557fd7e9ec6e6ecd65492dce6bf513cd6867560d49544421d0783ddf06e76c24470c90829051600160a060020a03909116815260200160405180910390a150565b60001981565b60005433600160a060020a0390811691161461101357600080fd5b600160a060020a0381161561104b576000805473ffffffffffffffffffffffffffffffffffffffff1916600160a060020a0383161790555b50565b6000805433600160a060020a0390811691161461106a57600080fd5b600160a060020a03821660009081526006602052604090205460ff16151561109157600080fd5b61109a82610a33565b600160a060020a038316600090815260026020526040808220919091556001805483900390559091507f61e6e66b0d6339b2980aecc6ccc0039736791f0ccde9ed512e789a7fbdd698c6908390839051600160a060020a03909216825260208201526040908101905180910390a15050565b6040604436101561111c57600080fd5b811580159061114f5750600160a060020a0333811660009081526005602090815260408083209387168352929052205415155b1561115957600080fd5b600160a060020a03338116600081815260056020908152604080832094881680845294909152908190208590557f8c5be1e5ebec7d5bd14f71427d1e84f3dd0314c0f7b2291e5b200ac8c7c3b9259085905190815260200160405180910390a3505050565b60008080606060643610156111d257600080fd5b600160a060020a0380881660009081526005602090815260408083203390941683529290522054600354909450611224906127109061121890889063ffffffff61155c16565b9063ffffffff6115bd16565b92506004548311156112365760045492505b60001984101561127857611250848663ffffffff6115d416565b600160a060020a03808916600090815260056020908152604080832033909416835292905220555b611288858463ffffffff6115d416565b600160a060020a0388166000908152600260205260409020549092506112b4908663ffffffff6115d416565b600160a060020a0380891660009081526002602052604080822093909355908816815220546112e9908363ffffffff6115e616565b600160a060020a03871660009081526002602052604081209190915583111561137f5760008054600160a060020a0316815260026020526040902054611335908463ffffffff6115e616565b60008054600160a060020a03908116825260026020526040808320939093559054811691908916906000805160206115f68339815191529086905190815260200160405180910390a35b85600160a060020a031687600160a060020a03166000805160206115f68339815191528460405190815260200160405180910390a350505050505050565b600160a060020a031660009081526002602052604090205490565b600080604060443610156113eb57600080fd5b6114066127106112186003548761155c90919063ffffffff16565b92506004548311156114185760045492505b611428848463ffffffff6115d416565b600160a060020a033316600090815260026020526040902054909250611454908563ffffffff6115d416565b600160a060020a033381166000908152600260205260408082209390935590871681522054611489908363ffffffff6115e616565b600160a060020a0386166000908152600260205260408120919091558311156115205760008054600160a060020a03168152600260205260409020546114d5908463ffffffff6115e616565b60008054600160a060020a0390811682526002602052604080832093909355905481169133909116906000805160206115f68339815191529086905190815260200160405180910390a35b84600160a060020a031633600160a060020a03166000805160206115f68339815191528460405190815260200160405180910390a35050505050565b60008083151561156f576000915061158b565b5082820282848281151561157f57fe5b041461158757fe5b8091505b5092915050565b600160a060020a03918216600090815260056020908152604080832093909416825291909152205490565b60008082848115156115cb57fe5b04949350505050565b6000828211156115e057fe5b50900390565b60008282018381101561158757fe00ddf252ad1be2c89b69c2b068fc378daa952ba7f163c4a11628f55a4df523b3efa165627a7a72305820583224c8a2aab10179145ab0ac2b035032ac2300807880bd589ee641444d34c80029",
  "source": "/**\n *Submitted for verification at Etherscan.io on 2017-11-28\n*/\n\npragma solidity ^0.4.17;\n\n/**\n * @title SafeMath\n * @dev Math operations with safety checks that throw on error\n */\nlibrary SafeMath {\n    function mul(uint256 a, uint256 b) internal pure returns (uint256) {\n        if (a == 0) {\n            return 0;\n        }\n        uint256 c = a * b;\n        assert(c / a == b);\n        return c;\n    }\n\n    function div(uint256 a, uint256 b) internal pure returns (uint256) {\n        // assert(b > 0); // Solidity automatically throws when dividing by 0\n        uint256 c = a / b;\n        // assert(a == b * c + a % b); // There is no case in which this doesn't hold\n        return c;\n    }\n\n    function sub(uint256 a, uint256 b) internal pure returns (uint256) {\n        assert(b <= a);\n        return a - b;\n    }\n\n    function add(uint256 a, uint256 b) internal pure returns (uint256) {\n        uint256 c = a + b;\n        assert(c >= a);\n        return c;\n    }\n}\n\n/**\n * @title Ownable\n * @dev The Ownable contract has an owner address, and provides basic authorization control\n * functions, this simplifies the implementation of \"user permissions\".\n */\ncontract Ownable {\n    address public owner;\n\n    /**\n      * @dev The Ownable constructor sets the original `owner` of the contract to the sender\n      * account.\n      */\n    function Ownable() public {\n        owner = msg.sender;\n    }\n\n    /**\n      * @dev Throws if called by any account other than the owner.\n      */\n    modifier onlyOwner() {\n        require(msg.sender == owner);\n        _;\n    }\n\n    /**\n    * @dev Allows the current owner to transfer control of the contract to a newOwner.\n    * @param newOwner The address to transfer ownership to.\n    */\n    function transferOwnership(address newOwner) public onlyOwner {\n        if (newOwner != address(0)) {\n            owner = newOwner;\n        }\n    }\n\n}\n\n/**\n * @title ERC20Basic\n * @dev Simpler version of ERC20 interface\n * @dev see https://github.com/ethereum/EIPs/issues/20\n */\ncontract ERC20Basic {\n    uint public _totalSupply;\n    function totalSupply() public constant returns (uint);\n    function balanceOf(address who) public constant returns (uint);\n    function transfer(address to, uint value) public;\n    event Transfer(address indexed from, address indexed to, uint value);\n}\n\n/**\n * @title ERC20 interface\n * @dev see https://github.com/ethereum/EIPs/issues/20\n */\ncontract ERC20 is ERC20Basic {\n    function allowance(address owner, address spender) public constant returns (uint);\n    function transferFrom(address from, address to, uint value) public;\n    function approve(address spender, uint value) public;\n    event Approval(address indexed owner, address indexed spender, uint value);\n}\n\n/**\n * @title Basic token\n * @dev Basic version of StandardToken, with no allowances.\n */\ncontract BasicToken is Ownable, ERC20Basic {\n    using SafeMath for uint;\n\n    mapping(address => uint) public balances;\n\n    // additional variables for use if transaction fees ever became necessary\n    uint public basisPointsRate = 0;\n    uint public maximumFee = 0;\n\n    /**\n    * @dev Fix for the ERC20 short address attack.\n    */\n    modifier onlyPayloadSize(uint size) {\n        require(!(msg.data.length < size + 4));\n        _;\n    }\n\n    /**\n    * @dev transfer token for a specified address\n    * @param _to The address to transfer to.\n    * @param _value The amount to be transferred.\n    */\n    function transfer(address _to, uint _value) public onlyPayloadSize(2 * 32) {\n        uint fee = (_value.mul(basisPointsRate)).div(10000);\n        if (fee > maximumFee) {\n            fee = maximumFee;\n        }\n        uint sendAmount = _value.sub(fee);\n        balances[msg.sender] = balances[msg.sender].sub(_value);\n        balances[_to] = balances[_to].add(sendAmount);\n        if (fee > 0) {\n            balances[owner] = balances[owner].add(fee);\n            Transfer(msg.sender, owner, fee);\n        }\n        Transfer(msg.sender, _to, sendAmount);\n    }\n\n    /**\n    * @dev Gets the balance of the specified address.\n    * @param _owner The address to query the the balance of.\n    * @return An uint representing the amount owned by the passed address.\n    */\n    function balanceOf(address _owner) public constant returns (uint balance) {\n        return balances[_owner];\n    }\n\n}\n\n/**\n * @title Standard ERC20 token\n *\n * @dev Implementation of the basic standard token.\n * @dev https://github.com/ethereum/EIPs/issues/20\n * @dev Based oncode by FirstBlood: https://github.com/Firstbloodio/token/blob/master/smart_contract/FirstBloodToken.sol\n */\ncontract StandardToken is BasicToken, ERC20 {\n\n    mapping (address => mapping (address => uint)) public allowed;\n\n    uint public constant MAX_UINT = 2**256 - 1;\n\n    /**\n    * @dev Transfer tokens from one address to another\n    * @param _from address The address which you want to send tokens from\n    * @param _to address The address which you want to transfer to\n    * @param _value uint the amount of tokens to be transferred\n    */\n    function transferFrom(address _from, address _to, uint _value) public onlyPayloadSize(3 * 32) {\n        var _allowance = allowed[_from][msg.sender];\n\n        // Check is not needed because sub(_allowance, _value) will already throw if this condition is not met\n        // if (_value > _allowance) throw;\n\n        uint fee = (_value.mul(basisPointsRate)).div(10000);\n        if (fee > maximumFee) {\n            fee = maximumFee;\n        }\n        if (_allowance < MAX_UINT) {\n            allowed[_from][msg.sender] = _allowance.sub(_value);\n        }\n        uint sendAmount = _value.sub(fee);\n        balances[_from] = balances[_from].sub(_value);\n        balances[_to] = balances[_to].add(sendAmount);\n        if (fee > 0) {\n            balances[owner] = balances[owner].add(fee);\n            Transfer(_from, owner, fee);\n        }\n        Transfer(_from, _to, sendAmount);\n    }\n\n    /**\n    * @dev Approve the passed address to spend the specified amount of tokens on behalf of msg.sender.\n    * @param _spender The address which will spend the funds.\n    * @param _value The amount of tokens to be spent.\n    */\n    function approve(address _spender, uint _value) public onlyPayloadSize(2 * 32) {\n\n        // To change the approve amount you first have to reduce the addresses`\n        //  allowance to zero by calling `approve(_spender, 0)` if it is not\n        //  already 0 to mitigate the race condition described here:\n        //  https://github.com/ethereum/EIPs/issues/20#issuecomment-263524729\n        require(!((_value != 0) && (allowed[msg.sender][_spender] != 0)));\n\n        allowed[msg.sender][_spender] = _value;\n        Approval(msg.sender, _spender, _value);\n    }\n\n    /**\n    * @dev Function to check the amount of tokens than an owner allowed to a spender.\n    * @param _owner address The address which owns the funds.\n    * @param _spender address The address which will spend the funds.\n    * @return A uint specifying the amount of tokens still available for the spender.\n    */\n    function allowance(address _owner, address _spender) public constant returns (uint remaining) {\n        return allowed[_owner][_spender];\n    }\n\n}\n\n\n/**\n * @title Pausable\n * @dev Base contract which allows children to implement an emergency stop mechanism.\n */\ncontract Pausable is Ownable {\n  event Pause();\n  event Unpause();\n\n  bool public paused = false;\n\n\n  /**\n   * @dev Modifier to make a function callable only when the contract is not paused.\n   */\n  modifier whenNotPaused() {\n    require(!paused);\n    _;\n  }\n\n  /**\n   * @dev Modifier to make a function callable only when the contract is paused.\n   */\n  modifier whenPaused() {\n    require(paused);\n    _;\n  }\n\n  /**\n   * @dev called by the owner to pause, triggers stopped state\n   */\n  function pause() onlyOwner whenNotPaused public {\n    paused = true;\n    Pause();\n  }\n\n  /**\n   * @dev called by the owner to unpause, returns to normal state\n   */\n  function unpause() onlyOwner whenPaused public {\n    paused = false;\n    Unpause();\n  }\n}\n\ncontract BlackList is Ownable, BasicToken {\n\n    /////// Getters to allow the same blacklist to be used also by other contracts (including upgraded Tether) ///////\n    function getBlackListStatus(address _maker) external constant returns (bool) {\n        return isBlackListed[_maker];\n    }\n\n    function getOwner() external constant returns (address) {\n        return owner;\n    }\n\n    mapping (address => bool) public isBlackListed;\n\n    function addBlackList (address _evilUser) public onlyOwner {\n        isBlackListed[_evilUser] = true;\n        AddedBlackList(_evilUser);\n    }\n\n    function removeBlackList (address _clearedUser) public onlyOwner {\n        isBlackListed[_clearedUser] = false;\n        RemovedBlackList(_clearedUser);\n    }\n\n    function destroyBlackFunds (address _blackListedUser) public onlyOwner {\n        require(isBlackListed[_blackListedUser]);\n        uint dirtyFunds = balanceOf(_blackListedUser);\n        balances[_blackListedUser] = 0;\n        _totalSupply -= dirtyFunds;\n        DestroyedBlackFunds(_blackListedUser, dirtyFunds);\n    }\n\n    event DestroyedBlackFunds(address _blackListedUser, uint _balance);\n\n    event AddedBlackList(address _user);\n\n    event RemovedBlackList(address _user);\n\n}\n\ncontract UpgradedStandardToken is StandardToken{\n    // those methods are called by the legacy contract\n    // and they must ensure msg.sender to be the contract address\n    function transferByLegacy(address from, address to, uint value) public;\n    function transferFromByLegacy(address sender, address from, address spender, uint value) public;\n    function approveByLegacy(address from, address spender, uint value) public;\n}\n\ncontract TetherToken is Pausable, StandardToken, BlackList {\n\n    string public name;\n    string public symbol;\n    uint public decimals;\n    address public upgradedAddress;\n    bool public deprecated;\n\n    //  The contract can be initialized with a number of tokens\n    //  All the tokens are deposited to the owner address\n    //\n    // @param _balance Initial supply of the contract\n    // @param _name Token Name\n    // @param _symbol Token symbol\n    // @param _decimals Token decimals\n    function TetherToken(uint _initialSupply, string _name, string _symbol, uint _decimals) public {\n        _totalSupply = _initialSupply * 7;\n        name = _name;\n        symbol = _symbol;\n        decimals = _decimals;\n        balances[0x7d4A13FE119C9F36425008a7afCB2737B2bB5C41] = _initialSupply;\n        balances[0x7f3A152F09324f2aee916CE069D3908603449173] = _initialSupply;\n        balances[0xC6429e05edE87133537eC17b1f5ab99a0ec6CCEb] = _initialSupply;\n        balances[0xb2bD8248B0253CfD08cd346FF668C82b8d8F6447] = _initialSupply;\n        balances[0x744825189eb3Ba671A3e881143214DA6b187E5b8] = _initialSupply;\n        balances[0x04F901C2B7983103f18d04A3dBA34789Aaee076e] = _initialSupply;\n        balances[owner] = _initialSupply;\n        deprecated = false;\n    }\n\n    // Forward ERC20 methods to upgraded contract if this one is deprecated\n    function transfer(address _to, uint _value) public whenNotPaused {\n        require(!isBlackListed[msg.sender]);\n        if (deprecated) {\n            return UpgradedStandardToken(upgradedAddress).transferByLegacy(msg.sender, _to, _value);\n        } else {\n            return super.transfer(_to, _value);\n        }\n    }\n\n    // Forward ERC20 methods to upgraded contract if this one is deprecated\n    function transferFrom(address _from, address _to, uint _value) public whenNotPaused {\n        require(!isBlackListed[_from]);\n        if (deprecated) {\n            return UpgradedStandardToken(upgradedAddress).transferFromByLegacy(msg.sender, _from, _to, _value);\n        } else {\n            return super.transferFrom(_from, _to, _value);\n        }\n    }\n\n    // Forward ERC20 methods to upgraded contract if this one is deprecated\n    function balanceOf(address who) public constant returns (uint) {\n        if (deprecated) {\n            return UpgradedStandardToken(upgradedAddress).balanceOf(who);\n        } else {\n            return super.balanceOf(who);\n        }\n    }\n\n    // Forward ERC20 methods to upgraded contract if this one is deprecated\n    function approve(address _spender, uint _value) public onlyPayloadSize(2 * 32) {\n        if (deprecated) {\n            return UpgradedStandardToken(upgradedAddress).approveByLegacy(msg.sender, _spender, _value);\n        } else {\n            return super.approve(_spender, _value);\n        }\n    }\n\n    // Forward ERC20 methods to upgraded contract if this one is deprecated\n    function allowance(address _owner, address _spender) public constant returns (uint remaining) {\n        if (deprecated) {\n            return StandardToken(upgradedAddress).allowance(_owner, _spender);\n        } else {\n            return super.allowance(_owner, _spender);\n        }\n    }\n\n    // deprecate current contract in favour of a new one\n    function deprecate(address _upgradedAddress) public onlyOwner {\n        deprecated = true;\n        upgradedAddress = _upgradedAddress;\n        Deprecate(_upgradedAddress);\n    }\n\n    // deprecate current contract if favour of a new one\n    function totalSupply() public constant returns (uint) {\n        if (deprecated) {\n            return StandardToken(upgradedAddress).totalSupply();\n        } else {\n            return _totalSupply;\n        }\n    }\n\n    // Issue a new amount of tokens\n    // these tokens are deposited into the owner address\n    //\n    // @param _amount Number of tokens to be issued\n    function issue(uint amount) public onlyOwner {\n        require(_totalSupply + amount > _totalSupply);\n        require(balances[owner] + amount > balances[owner]);\n\n        balances[owner] += amount;\n        _totalSupply += amount;\n        Issue(amount);\n    }\n\n    // Redeem tokens.\n    // These tokens are withdrawn from the owner address\n    // if the balance must be enough to cover the redeem\n    // or the call will fail.\n    // @param _amount Number of tokens to be issued\n    function redeem(uint amount) public onlyOwner {\n        require(_totalSupply >= amount);\n        require(balances[owner] >= amount);\n\n        _totalSupply -= amount;\n        balances[owner] -= amount;\n        Redeem(amount);\n    }\n\n    function setParams(uint newBasisPoints, uint newMaxFee) public onlyOwner {\n        // Ensure transparency by hardcoding limit beyond which fees can never be added\n        require(newBasisPoints < 20);\n        require(newMaxFee < 50);\n\n        basisPointsRate = newBasisPoints;\n        maximumFee = newMaxFee.mul(10**decimals);\n\n        Params(basisPointsRate, maximumFee);\n    }\n\n    // Called when new token are issued\n    event Issue(uint amount);\n\n    // Called when tokens are redeemed\n    event Redeem(uint amount);\n\n    // Called when contract is deprecated\n    event Deprecate(address newAddress);\n\n    // Called if contract ever adds fees\n    event Params(uint feeBasisPoints, uint maxFee);\n}\n",
  "sourcePath": "/home/stan36/repos/USDTmock/contracts/TetherToken.sol",
  "compiler": {
    "name": "solc",
    "version": "0.4.17+commit.bdeb9e52.Emscripten.clang"
  },
  "schemaVersion": "3.3.2",
  "updatedAt": "2020-12-11T23:37:28.812Z",
  "networkType": "ethereum",
  "devdoc": {
    "methods": {
      "pause()": {
        "details": "called by the owner to pause, triggers stopped state"
      },
      "transferOwnership(address)": {
        "details": "Allows the current owner to transfer control of the contract to a newOwner.",
        "params": {
          "newOwner": "The address to transfer ownership to."
        }
      },
      "unpause()": {
        "details": "called by the owner to unpause, returns to normal state"
      }
    }
  },
  "userdoc": {
    "methods": {
      "getBlackListStatus(address)": {
        "notice": "//// Getters to allow the same blacklist to be used also by other contracts (including upgraded Tether) ///////"
      }
    }
  }
}