{
  "contractName": "UniswapLPOracleInstance",
  "abi": [
    {
      "inputs": [
        {
          "internalType": "address",
          "name": "_factory",
          "type": "address"
        },
        {
          "internalType": "address",
          "name": "_tokenA",
          "type": "address"
        },
        {
          "internalType": "address",
          "name": "_tokenB",
          "type": "address"
        }
      ],
      "stateMutability": "nonpayable",
      "type": "constructor"
    },
    {
      "anonymous": false,
      "inputs": [
        {
          "indexed": true,
          "internalType": "address",
          "name": "previousOwner",
          "type": "address"
        },
        {
          "indexed": true,
          "internalType": "address",
          "name": "newOwner",
          "type": "address"
        }
      ],
      "name": "OwnershipTransferred",
      "type": "event"
    },
    {
      "inputs": [],
      "name": "PERIOD",
      "outputs": [
        {
          "internalType": "uint256",
          "name": "",
          "type": "uint256"
        }
      ],
      "stateMutability": "view",
      "type": "function"
    },
    {
      "inputs": [],
      "name": "blockTimestampLast",
      "outputs": [
        {
          "internalType": "uint32",
          "name": "",
          "type": "uint32"
        }
      ],
      "stateMutability": "view",
      "type": "function"
    },
    {
      "inputs": [],
      "name": "firstRun",
      "outputs": [
        {
          "internalType": "bool",
          "name": "",
          "type": "bool"
        }
      ],
      "stateMutability": "view",
      "type": "function"
    },
    {
      "inputs": [],
      "name": "owner",
      "outputs": [
        {
          "internalType": "address",
          "name": "",
          "type": "address"
        }
      ],
      "stateMutability": "view",
      "type": "function"
    },
    {
      "inputs": [],
      "name": "pair",
      "outputs": [
        {
          "internalType": "contract IUniswapV2Pair",
          "name": "",
          "type": "address"
        }
      ],
      "stateMutability": "view",
      "type": "function"
    },
    {
      "inputs": [],
      "name": "price0Average",
      "outputs": [
        {
          "internalType": "uint224",
          "name": "_x",
          "type": "uint224"
        }
      ],
      "stateMutability": "view",
      "type": "function"
    },
    {
      "inputs": [],
      "name": "price0CumulativeLast",
      "outputs": [
        {
          "internalType": "uint256",
          "name": "",
          "type": "uint256"
        }
      ],
      "stateMutability": "view",
      "type": "function"
    },
    {
      "inputs": [],
      "name": "price1Average",
      "outputs": [
        {
          "internalType": "uint224",
          "name": "_x",
          "type": "uint224"
        }
      ],
      "stateMutability": "view",
      "type": "function"
    },
    {
      "inputs": [],
      "name": "price1CumulativeLast",
      "outputs": [
        {
          "internalType": "uint256",
          "name": "",
          "type": "uint256"
        }
      ],
      "stateMutability": "view",
      "type": "function"
    },
    {
      "inputs": [],
      "name": "renounceOwnership",
      "outputs": [],
      "stateMutability": "nonpayable",
      "type": "function"
    },
    {
      "inputs": [],
      "name": "token0",
      "outputs": [
        {
          "internalType": "address",
          "name": "",
          "type": "address"
        }
      ],
      "stateMutability": "view",
      "type": "function"
    },
    {
      "inputs": [],
      "name": "token1",
      "outputs": [
        {
          "internalType": "address",
          "name": "",
          "type": "address"
        }
      ],
      "stateMutability": "view",
      "type": "function"
    },
    {
      "inputs": [
        {
          "internalType": "address",
          "name": "newOwner",
          "type": "address"
        }
      ],
      "name": "transferOwnership",
      "outputs": [],
      "stateMutability": "nonpayable",
      "type": "function"
    },
    {
      "inputs": [],
      "name": "update",
      "outputs": [],
      "stateMutability": "nonpayable",
      "type": "function"
    },
    {
      "inputs": [
        {
          "internalType": "address",
          "name": "token",
          "type": "address"
        },
        {
          "internalType": "uint256",
          "name": "amount",
          "type": "uint256"
        }
      ],
      "name": "consult",
      "outputs": [
        {
          "internalType": "uint256",
          "name": "price",
          "type": "uint256"
        }
      ],
      "stateMutability": "nonpayable",
      "type": "function"
    },
    {
      "inputs": [
        {
          "internalType": "address",
          "name": "token",
          "type": "address"
        },
        {
          "internalType": "uint256",
          "name": "amount",
          "type": "uint256"
        }
      ],
      "name": "viewPrice",
      "outputs": [
        {
          "internalType": "uint256",
          "name": "price",
          "type": "uint256"
        }
      ],
      "stateMutability": "view",
      "type": "function"
    }
  ],
  "bytecode": "0x60806040523480156200001157600080fd5b50604051620016e9380380620016e9833981810160405260608110156200003757600080fd5b508051602082015160409092015190919060006200005d6001600160e01b036200046c16565b600080546001600160a01b0319166001600160a01b0383169081178255604051929350917f8be0079c531659141344cd1fd0a4f28419497f9722a3daafe3b4186f6b6457e0908290a350806001600160a01b0316826001600160a01b0316141562000103576040805160208082018352600191829052600780546001600160e01b0319908116841790915583519182019093528190526008805490921617905562000463565b60006200011d8484846200047060201b62000a541760201c565b905080600160006101000a8154816001600160a01b0302191690836001600160a01b03160217905550806001600160a01b0316630dfe16816040518163ffffffff1660e01b815260040160206040518083038186803b1580156200018057600080fd5b505afa15801562000195573d6000803e3d6000fd5b505050506040513d6020811015620001ac57600080fd5b5051600280546001600160a01b0319166001600160a01b039283161790556040805163d21220a760e01b815290519183169163d21220a791600480820192602092909190829003018186803b1580156200020557600080fd5b505afa1580156200021a573d6000803e3d6000fd5b505050506040513d60208110156200023157600080fd5b5051600380546001600160a01b0319166001600160a01b0392831617905560408051635909c0d560e01b8152905191831691635909c0d591600480820192602092909190829003018186803b1580156200028a57600080fd5b505afa1580156200029f573d6000803e3d6000fd5b505050506040513d6020811015620002b657600080fd5b5051600490815560408051635a3d549360e01b815290516001600160a01b03841692635a3d549392808201926020929091829003018186803b158015620002fc57600080fd5b505afa15801562000311573d6000803e3d6000fd5b505050506040513d60208110156200032857600080fd5b505160055560408051630240bc6b60e21b8152905160009182916001600160a01b03851691630902f1ac916004808301926060929190829003018186803b1580156200037357600080fd5b505afa15801562000388573d6000803e3d6000fd5b505050506040513d60608110156200039f57600080fd5b50805160208201516040909201516006805463ffffffff191663ffffffff909216919091179055925090506001600160701b03821615801590620003eb57506001600160701b03811615155b6200042b576040805162461bcd60e51b815260206004820152600b60248201526a4e4f5f524553455256455360a81b604482015290519081900360640190fd5b6006805460ff60201b1916640100000000179055620004526001600160e01b036200054d16565b50506006805460ff60201b19169055505b50505062000a1e565b3390565b600080806200048985856001600160e01b036200066f16565b604080516001600160601b0319606094851b811660208084019190915293851b81166034830152825160288184030181526048830184528051908501207fff0000000000000000000000000000000000000000000000000000000000000060688401529a90941b9093166069840152607d8301989098527f96e8ac4277198ff8b6f785478aa9a39f403cb768dd02cbee326c3e7da348845f609d808401919091528851808403909101815260bd909201909752805196019590952095945050505050565b60008060006200057d600160009054906101000a90046001600160a01b03166200075260201b620007a61760201c565b600654929550909350915063ffffffff908116820390610e10908216101580620005b65750600654640100000000900460ff1615156001145b15620006695760405180602001604052808263ffffffff16600454870381620005db57fe5b046001600160e01b039081169091529051600780546001600160e01b031916919092161790556040805160208101909152600554819063ffffffff8416908603816200062357fe5b046001600160e01b039081169091529051600880546001600160e01b03191691909216179055600484905560058390556006805463ffffffff191663ffffffff84161790555b50505050565b600080826001600160a01b0316846001600160a01b03161415620006c55760405162461bcd60e51b8152600401808060200182810382526025815260200180620016c46025913960400191505060405180910390fd5b826001600160a01b0316846001600160a01b031610620006e7578284620006ea565b83835b90925090506001600160a01b0382166200074b576040805162461bcd60e51b815260206004820152601e60248201527f556e697377617056324c6962726172793a205a45524f5f414444524553530000604482015290519081900360640190fd5b9250929050565b60008080620007696001600160e01b036200095516565b9050836001600160a01b0316635909c0d56040518163ffffffff1660e01b815260040160206040518083038186803b158015620007a557600080fd5b505afa158015620007ba573d6000803e3d6000fd5b505050506040513d6020811015620007d157600080fd5b505160408051635a3d549360e01b815290519194506001600160a01b03861691635a3d549391600480820192602092909190829003018186803b1580156200081857600080fd5b505afa1580156200082d573d6000803e3d6000fd5b505050506040513d60208110156200084457600080fd5b505160408051630240bc6b60e21b81529051919350600091829182916001600160a01b03891691630902f1ac916004808301926060929190829003018186803b1580156200089157600080fd5b505afa158015620008a6573d6000803e3d6000fd5b505050506040513d6060811015620008bd57600080fd5b5080516020820151604090920151909450909250905063ffffffff808216908516146200094b57600081850390508063ffffffff166200090984866200095f60201b6200097f1760201c565b600001516001600160e01b031602870196508063ffffffff166200093985856200095f60201b6200097f1760201c565b516001600160e01b0316029590950194505b5050509193909250565b63ffffffff421690565b6200096962000a0c565b6000826001600160701b031611620009c8576040805162461bcd60e51b815260206004820152601760248201527f4669786564506f696e743a204449565f42595f5a45524f000000000000000000604482015290519081900360640190fd5b6040805160208101909152806001600160701b038416600160701b600160e01b03607087901b1681620009f757fe5b046001600160e01b0316815250905092915050565b60408051602081019091526000815290565b610c968062000a2e6000396000f3fe608060405234801561001057600080fd5b50600436106101005760003560e01c8063a2e6204511610097578063c3e75bda11610066578063c3e75bda146101f9578063c5700a0214610215578063d21220a714610236578063f2fde38b1461023e57610100565b8063a2e62045146101d9578063a6bb4539146101e1578063a8aa1b31146101e9578063b4d1d795146101f157610100565b80635e6aaf2c116100d35780635e6aaf2c14610177578063715018a61461019b5780638da5cb5b146101a5578063949c4fa3146101ad57610100565b80630dfe1681146101055780633ddac953146101295780635909c0d5146101675780635a3d54931461016f575b600080fd5b61010d610264565b604080516001600160a01b039092168252519081900360200190f35b6101556004803603604081101561013f57600080fd5b506001600160a01b038135169060200135610273565b60408051918252519081900360200190f35b61015561037e565b610155610384565b61017f61038a565b604080516001600160e01b039092168252519081900360200190f35b6101a3610399565b005b61010d61044d565b610155600480360360408110156101c357600080fd5b506001600160a01b03813516906020013561045c565b6101a36104b9565b61017f6105c3565b61010d6105d2565b6101556105e1565b6102016105e7565b604080519115158252519081900360200190f35b61021d6105f8565b6040805163ffffffff9092168252519081900360200190f35b61010d610604565b6101a36004803603602081101561025457600080fd5b50356001600160a01b0316610613565b6002546001600160a01b031681565b6002546000906001600160a01b031661028d575080610378565b6002546001600160a01b03848116911614156102ed576102ab6104b9565b60408051602081019091526007546001600160e01b031681526102dd906102d8908463ffffffff61071d16565b61079b565b6001600160901b03169050610378565b6003546001600160a01b0384811691161461033f576040805162461bcd60e51b815260206004820152600d60248201526c24a72b20a624a22faa27a5a2a760991b604482015290519081900360640190fd5b60408051602081019091526008546001600160e01b0316815261036c906102d8908463ffffffff61071d16565b6001600160901b031690505b92915050565b60045481565b60055481565b6008546001600160e01b031681565b6103a16107a2565b6000546001600160a01b03908116911614610403576040805162461bcd60e51b815260206004820181905260248201527f4f776e61626c653a2063616c6c6572206973206e6f7420746865206f776e6572604482015290519081900360640190fd5b600080546040516001600160a01b03909116907f8be0079c531659141344cd1fd0a4f28419497f9722a3daafe3b4186f6b6457e0908390a3600080546001600160a01b0319169055565b6000546001600160a01b031690565b6002546000906001600160a01b0316610476575080610378565b6002546001600160a01b03848116911614156102ed5760408051602081019091526007546001600160e01b031681526102dd906102d8908463ffffffff61071d16565b600154600090819081906104d5906001600160a01b03166107a6565b600654929550909350915063ffffffff908116820390610e1090821610158061050d5750600654640100000000900460ff1615156001145b156105bd5760405180602001604052808263ffffffff1660045487038161053057fe5b046001600160e01b039081169091529051600780546001600160e01b031916919092161790556040805160208101909152600554819063ffffffff84169086038161057757fe5b046001600160e01b039081169091529051600880546001600160e01b03191691909216179055600484905560058390556006805463ffffffff191663ffffffff84161790555b50505050565b6007546001600160e01b031681565b6001546001600160a01b031681565b610e1081565b600654640100000000900460ff1681565b60065463ffffffff1681565b6003546001600160a01b031681565b61061b6107a2565b6000546001600160a01b0390811691161461067d576040805162461bcd60e51b815260206004820181905260248201527f4f776e61626c653a2063616c6c6572206973206e6f7420746865206f776e6572604482015290519081900360640190fd5b6001600160a01b0381166106c25760405162461bcd60e51b8152600401808060200182810382526026815260200180610bf36026913960400191505060405180910390fd5b600080546040516001600160a01b03808516939216917f8be0079c531659141344cd1fd0a4f28419497f9722a3daafe3b4186f6b6457e091a3600080546001600160a01b0319166001600160a01b0392909216919091179055565b610725610a2f565b600082158061074b57505082516001600160e01b03168281029083828161074857fe5b04145b6107865760405162461bcd60e51b8152600401808060200182810382526023815260200180610c3e6023913960400191505060405180910390fd5b60408051602081019091529081529392505050565b5160701c90565b3390565b60008060006107b3610975565b9050836001600160a01b0316635909c0d56040518163ffffffff1660e01b815260040160206040518083038186803b1580156107ee57600080fd5b505afa158015610802573d6000803e3d6000fd5b505050506040513d602081101561081857600080fd5b505160408051635a3d549360e01b815290519194506001600160a01b03861691635a3d549391600480820192602092909190829003018186803b15801561085e57600080fd5b505afa158015610872573d6000803e3d6000fd5b505050506040513d602081101561088857600080fd5b505160408051630240bc6b60e21b81529051919350600091829182916001600160a01b03891691630902f1ac916004808301926060929190829003018186803b1580156108d457600080fd5b505afa1580156108e8573d6000803e3d6000fd5b505050506040513d60608110156108fe57600080fd5b5080516020820151604090920151909450909250905063ffffffff8082169085161461096b5780840363ffffffff8116610938848661097f565b516001600160e01b031602969096019563ffffffff8116610959858561097f565b516001600160e01b0316029590950194505b5050509193909250565b63ffffffff421690565b610987610a42565b6000826001600160701b0316116109e5576040805162461bcd60e51b815260206004820152601760248201527f4669786564506f696e743a204449565f42595f5a45524f000000000000000000604482015290519081900360640190fd5b6040805160208101909152806001600160701b0384166dffffffffffffffffffffffffffff60701b607087901b1681610a1a57fe5b046001600160e01b0316815250905092915050565b6040518060200160405280600081525090565b60408051602081019091526000815290565b6000806000610a638585610b14565b604080516bffffffffffffffffffffffff19606094851b811660208084019190915293851b81166034830152825160288184030181526048830184528051908501206001600160f81b031960688401529a90941b9093166069840152607d8301989098527f96e8ac4277198ff8b6f785478aa9a39f403cb768dd02cbee326c3e7da348845f609d808401919091528851808403909101815260bd909201909752805196019590952095945050505050565b600080826001600160a01b0316846001600160a01b03161415610b685760405162461bcd60e51b8152600401808060200182810382526025815260200180610c196025913960400191505060405180910390fd5b826001600160a01b0316846001600160a01b031610610b88578284610b8b565b83835b90925090506001600160a01b038216610beb576040805162461bcd60e51b815260206004820152601e60248201527f556e697377617056324c6962726172793a205a45524f5f414444524553530000604482015290519081900360640190fd5b925092905056fe4f776e61626c653a206e6577206f776e657220697320746865207a65726f2061646472657373556e697377617056324c6962726172793a204944454e544943414c5f4144445245535345534669786564506f696e743a204d554c5449504c49434154494f4e5f4f564552464c4f57a26469706673582212205f4ad33033b43372549df36ea8c24c3d00b93bfb3fcb6abeb854e60009f8ce0164736f6c63430006060033556e697377617056324c6962726172793a204944454e544943414c5f414444524553534553",
  "immutableReferences": {},
  "source": "pragma solidity ^0.6.2;\r\n\r\nimport \"@openzeppelin/contracts/access/Ownable.sol\";\r\nimport \"@uniswap/v2-core/contracts/interfaces/IUniswapV2Factory.sol\";\r\nimport \"@uniswap/v2-core/contracts/interfaces/IUniswapV2Pair.sol\";\r\nimport \"@uniswap/lib/contracts/libraries/FixedPoint.sol\";\r\nimport \"@uniswap/v2-periphery/contracts/libraries/UniswapV2OracleLibrary.sol\";\r\nimport \"@uniswap/v2-periphery/contracts/libraries/UniswapV2Library.sol\";\r\n\r\ncontract UniswapLPOracleInstance is Ownable {\r\n    using SafeMath for uint256;\r\n\r\n    // fixed window oracle that recomputes the average price for the entire period once every period\r\n    // note that the price average is only guaranteed to be over at least 1 period, but may be over a longer period\r\n\r\n    using FixedPoint for *;\r\n\r\n    uint256 public constant PERIOD = 1 hours;\r\n\r\n    IUniswapV2Pair public pair;\r\n    address public token0;\r\n    address public token1;\r\n\r\n    uint256 public price0CumulativeLast;\r\n    uint256 public price1CumulativeLast;\r\n    uint32 public blockTimestampLast;\r\n    bool public firstRun;\r\n    FixedPoint.uq112x112 public price0Average;\r\n    FixedPoint.uq112x112 public price1Average;\r\n\r\n    /**\r\n    @notice the constructor function is fired once during token creation to initialize the oracle contract to a specific token pair\r\n    @param _factory is the address of the Uniswap factory contract\r\n    @param _tokenA is the address of the asset being looked up\r\n    @param _tokenB is the address of the USDC token\r\n    **/\r\n    constructor(\r\n        address _factory,\r\n        address _tokenA,\r\n        address _tokenB\r\n    ) public {\r\n        if (_tokenA == _tokenB) {\r\n            price0Average = FixedPoint.uq112x112(uint224(1));\r\n            price1Average = FixedPoint.uq112x112(uint224(1));\r\n        } else {\r\n            IUniswapV2Pair _pair = IUniswapV2Pair(\r\n                UniswapV2Library.pairFor(_factory, _tokenA, _tokenB)\r\n            );\r\n            pair = _pair;\r\n            token0 = _pair.token0();\r\n            token1 = _pair.token1();\r\n            price0CumulativeLast = _pair.price0CumulativeLast(); // fetch the current accumulated price value (1 / 0)\r\n            price1CumulativeLast = _pair.price1CumulativeLast(); // fetch the current accumulated price value (0 / 1)\r\n            uint112 reserve0;\r\n            uint112 reserve1;\r\n            (reserve0, reserve1, blockTimestampLast) = _pair.getReserves();\r\n            require(reserve0 != 0 && reserve1 != 0, \"NO_RESERVES\"); // ensure that there's liquidity in the pair\r\n            firstRun = true;\r\n            update();\r\n            firstRun = false;\r\n        }\r\n    }\r\n\r\n    /**\r\n    @notice update updates the prices for the input token pair over a set 24hour period\r\n    @dev this is an internal function called by consult if the timeElapsed is greater than 24 hours\r\n    **/\r\n    function update() public {\r\n        (\r\n            uint256 price0Cumulative,\r\n            uint256 price1Cumulative,\r\n            uint32 blockTimestamp\r\n        ) = UniswapV2OracleLibrary.currentCumulativePrices(address(pair));\r\n        uint32 timeElapsed = blockTimestamp - blockTimestampLast; // overflow is desired\r\n\r\n        //check if this is the first update\r\n        if (timeElapsed >= PERIOD || firstRun == true) {\r\n            // ensure that at least one full period has passed since the last update\r\n            // cumulative price is in (uq112x112 price * seconds) units so we simply wrap it after division by time elapsed\r\n            price0Average = FixedPoint.uq112x112(\r\n                uint224((price0Cumulative - price0CumulativeLast) / timeElapsed)\r\n            );\r\n            price1Average = FixedPoint.uq112x112(\r\n                uint224((price1Cumulative - price1CumulativeLast) / timeElapsed)\r\n            );\r\n\r\n            price0CumulativeLast = price0Cumulative;\r\n            price1CumulativeLast = price1Cumulative;\r\n            blockTimestampLast = blockTimestamp;\r\n        }\r\n    }\r\n\r\n    /**\r\n    @notice consult returns the price of a token in USDC\r\n    @return price is the price of one asset in USDC(example 1WETH in USDC)\r\n    **/\r\n    function consult(address token, uint256 amount)\r\n        external\r\n        returns (uint256 price)\r\n    {\r\n        if (token0 == address(0)) {\r\n            return amount;\r\n        }\r\n\r\n        if (token == token0) {\r\n            update();\r\n            price = price0Average.mul(amount).decode144();\r\n        } else {\r\n            require(token == token1, \"INVALID_TOKEN\");\r\n            price = price1Average.mul(amount).decode144();\r\n        }\r\n    }\r\n\r\n    /**\r\n    @notice viewPrice is a view function that retreives the current price without having to run the update function\r\n    @return price is the price of one asset in USDC(example 1WETH in USDC)\r\n    **/\r\n    function viewPrice(address token, uint256 amount)\r\n        external\r\n        view\r\n        returns (uint256 price)\r\n    {\r\n        if (token0 == address(0)) {\r\n            return amount;\r\n        }\r\n\r\n        if (token == token0) {\r\n            price = price0Average.mul(amount).decode144();\r\n        } else {\r\n            require(token == token1, \"INVALID_TOKEN\");\r\n            price = price1Average.mul(amount).decode144();\r\n        }\r\n    }\r\n}\r\n",
  "sourcePath": "E:\\dOrg\\warp\\Smart-Contracts\\contracts\\UniswapLPOracleInstance.sol",
  "compiler": {
    "name": "solc",
    "version": "0.6.6+commit.6c089d02.Emscripten.clang"
  },
  "schemaVersion": "3.3.2",
  "updatedAt": "2020-12-16T05:36:31.401Z",
  "devdoc": {
    "methods": {
      "constructor": {
        "params": {
          "_factory": "is the address of the Uniswap factory contract",
          "_tokenA": "is the address of the asset being looked up",
          "_tokenB": "is the address of the USDC token*"
        }
      },
      "owner()": {
        "details": "Returns the address of the current owner."
      },
      "renounceOwnership()": {
        "details": "Leaves the contract without owner. It will not be possible to call `onlyOwner` functions anymore. Can only be called by the current owner.     * NOTE: Renouncing ownership will leave the contract without an owner, thereby removing any functionality that is only available to the owner."
      },
      "transferOwnership(address)": {
        "details": "Transfers ownership of the contract to a new account (`newOwner`). Can only be called by the current owner."
      },
      "update()": {
        "details": "this is an internal function called by consult if the timeElapsed is greater than 24 hours*"
      }
    }
  },
  "userdoc": {
    "methods": {
      "constructor": "the constructor function is fired once during token creation to initialize the oracle contract to a specific token pair",
      "consult(address,uint256)": {
        "notice": "consult returns the price of a token in USDC"
      },
      "update()": {
        "notice": "update updates the prices for the input token pair over a set 24hour period"
      },
      "viewPrice(address,uint256)": {
        "notice": "viewPrice is a view function that retreives the current price without having to run the update function"
      }
    }
  }
}