{
  "contractName": "UniswapLPOracleFactory",
  "abi": [
    {
      "inputs": [
        {
          "internalType": "address",
          "name": "usdcAdd",
          "type": "address"
        },
        {
          "internalType": "address",
          "name": "_uniFactoryAdd",
          "type": "address"
        },
        {
          "internalType": "address",
          "name": "_uniRouterAddress",
          "type": "address"
        }
      ],
      "stateMutability": "nonpayable",
      "type": "constructor"
    },
    {
      "anonymous": false,
      "inputs": [
        {
          "indexed": true,
          "internalType": "address",
          "name": "previousOwner",
          "type": "address"
        },
        {
          "indexed": true,
          "internalType": "address",
          "name": "newOwner",
          "type": "address"
        }
      ],
      "name": "OwnershipTransferred",
      "type": "event"
    },
    {
      "inputs": [
        {
          "internalType": "address",
          "name": "",
          "type": "address"
        },
        {
          "internalType": "uint256",
          "name": "",
          "type": "uint256"
        }
      ],
      "name": "LPAssetTracker",
      "outputs": [
        {
          "internalType": "address",
          "name": "",
          "type": "address"
        }
      ],
      "stateMutability": "view",
      "type": "function"
    },
    {
      "inputs": [],
      "name": "factory",
      "outputs": [
        {
          "internalType": "address",
          "name": "",
          "type": "address"
        }
      ],
      "stateMutability": "view",
      "type": "function"
    },
    {
      "inputs": [
        {
          "internalType": "address",
          "name": "",
          "type": "address"
        }
      ],
      "name": "instanceTracker",
      "outputs": [
        {
          "internalType": "address",
          "name": "",
          "type": "address"
        }
      ],
      "stateMutability": "view",
      "type": "function"
    },
    {
      "inputs": [],
      "name": "owner",
      "outputs": [
        {
          "internalType": "address",
          "name": "",
          "type": "address"
        }
      ],
      "stateMutability": "view",
      "type": "function"
    },
    {
      "inputs": [],
      "name": "renounceOwnership",
      "outputs": [],
      "stateMutability": "nonpayable",
      "type": "function"
    },
    {
      "inputs": [
        {
          "internalType": "address",
          "name": "",
          "type": "address"
        }
      ],
      "name": "tokenToUSDC",
      "outputs": [
        {
          "internalType": "address",
          "name": "",
          "type": "address"
        }
      ],
      "stateMutability": "view",
      "type": "function"
    },
    {
      "inputs": [
        {
          "internalType": "address",
          "name": "newOwner",
          "type": "address"
        }
      ],
      "name": "transferOwnership",
      "outputs": [],
      "stateMutability": "nonpayable",
      "type": "function"
    },
    {
      "inputs": [],
      "name": "uniswapRouter",
      "outputs": [
        {
          "internalType": "contract IUniswapV2Router02",
          "name": "",
          "type": "address"
        }
      ],
      "stateMutability": "view",
      "type": "function"
    },
    {
      "inputs": [],
      "name": "usdc_add",
      "outputs": [
        {
          "internalType": "address",
          "name": "",
          "type": "address"
        }
      ],
      "stateMutability": "view",
      "type": "function"
    },
    {
      "inputs": [],
      "name": "USDC",
      "outputs": [
        {
          "internalType": "address",
          "name": "",
          "type": "address"
        }
      ],
      "stateMutability": "view",
      "type": "function"
    },
    {
      "inputs": [],
      "name": "OneUSDC",
      "outputs": [
        {
          "internalType": "uint256",
          "name": "",
          "type": "uint256"
        }
      ],
      "stateMutability": "view",
      "type": "function"
    },
    {
      "inputs": [
        {
          "internalType": "address",
          "name": "token",
          "type": "address"
        }
      ],
      "name": "OneToken",
      "outputs": [
        {
          "internalType": "uint256",
          "name": "",
          "type": "uint256"
        }
      ],
      "stateMutability": "view",
      "type": "function"
    },
    {
      "inputs": [
        {
          "internalType": "address",
          "name": "_tokenA",
          "type": "address"
        },
        {
          "internalType": "address",
          "name": "_tokenB",
          "type": "address"
        },
        {
          "internalType": "address",
          "name": "_lpToken",
          "type": "address"
        }
      ],
      "name": "createNewOracles",
      "outputs": [],
      "stateMutability": "nonpayable",
      "type": "function"
    },
    {
      "inputs": [
        {
          "internalType": "address",
          "name": "_lpToken",
          "type": "address"
        }
      ],
      "name": "getUnderlyingPrice",
      "outputs": [
        {
          "internalType": "uint256",
          "name": "",
          "type": "uint256"
        }
      ],
      "stateMutability": "nonpayable",
      "type": "function"
    },
    {
      "inputs": [
        {
          "internalType": "uint256",
          "name": "supply",
          "type": "uint256"
        },
        {
          "internalType": "uint256",
          "name": "value0",
          "type": "uint256"
        },
        {
          "internalType": "uint256",
          "name": "value1",
          "type": "uint256"
        },
        {
          "internalType": "uint8",
          "name": "supplyDecimals",
          "type": "uint8"
        }
      ],
      "name": "_calculatePriceOfLP",
      "outputs": [
        {
          "internalType": "uint256",
          "name": "",
          "type": "uint256"
        }
      ],
      "stateMutability": "pure",
      "type": "function"
    },
    {
      "inputs": [
        {
          "internalType": "address",
          "name": "_lpToken",
          "type": "address"
        }
      ],
      "name": "viewUnderlyingPrice",
      "outputs": [
        {
          "internalType": "uint256",
          "name": "",
          "type": "uint256"
        }
      ],
      "stateMutability": "view",
      "type": "function"
    },
    {
      "inputs": [
        {
          "internalType": "address",
          "name": "_token",
          "type": "address"
        },
        {
          "internalType": "uint256",
          "name": "_amount",
          "type": "uint256"
        }
      ],
      "name": "viewPriceOfToken",
      "outputs": [
        {
          "internalType": "uint256",
          "name": "",
          "type": "uint256"
        }
      ],
      "stateMutability": "view",
      "type": "function"
    },
    {
      "inputs": [
        {
          "internalType": "address",
          "name": "_token",
          "type": "address"
        },
        {
          "internalType": "uint256",
          "name": "_amount",
          "type": "uint256"
        }
      ],
      "name": "getPriceOfToken",
      "outputs": [
        {
          "internalType": "uint256",
          "name": "",
          "type": "uint256"
        }
      ],
      "stateMutability": "nonpayable",
      "type": "function"
    }
  ],
  "bytecode": "0x608060405234801561001057600080fd5b50604051612e4c380380612e4c8339818101604052606081101561003357600080fd5b508051602082015160409092015190919060006100576001600160e01b036100e116565b600080546001600160a01b0319166001600160a01b0383169081178255604051929350917f8be0079c531659141344cd1fd0a4f28419497f9722a3daafe3b4186f6b6457e0908290a350600380546001600160a01b03199081166001600160a01b0393841617909155600180548216948316949094179093556002805490931691161790556100e5565b3390565b612d58806100f46000396000f3fe60806040523480156200001157600080fd5b5060043610620001305760003560e01c80638da5cb5b11620000b1578063c45a0155116200007b578063c45a0155146200030f578063f2fde38b1462000319578063f9160f3d1462000342578063fa7827d2146200036b578063fc57d4df14620003755762000130565b80638da5cb5b14620002975780639485bada14620002a15780639adc328b14620002dc578063b04c6d3f14620002e65762000130565b8063715018a611620000ff578063715018a61462000213578063735de9f7146200021f5780637ef69d12146200022957806388c342ea146200025e57806389a30271146200028d5762000130565b80631a2a16b514620001355780633373a44714620001765780634d9f612014620001bb57806358ca41f514620001ea575b600080fd5b62000164600480360360408110156200014d57600080fd5b506001600160a01b0381351690602001356200039e565b60408051918252519081900360200190f35b6200019f600480360360208110156200018e57600080fd5b50356001600160a01b0316620004bc565b604080516001600160a01b039092168252519081900360200190f35b6200019f60048036036040811015620001d357600080fd5b506001600160a01b038135169060200135620004d7565b62000164600480360360208110156200020257600080fd5b50356001600160a01b03166200050d565b6200021d62000588565b005b6200019f6200063f565b62000164600480360360808110156200024157600080fd5b508035906020810135906040810135906060013560ff166200064e565b62000164600480360360408110156200027657600080fd5b506001600160a01b03813516906020013562000679565b6200019f62000778565b6200019f62000788565b6200021d60048036036060811015620002b957600080fd5b506001600160a01b03813581169160208101358216916040909101351662000797565b6200019f62000a0e565b6200016460048036036020811015620002fe57600080fd5b50356001600160a01b031662000a1d565b6200019f62000df5565b6200021d600480360360208110156200033157600080fd5b50356001600160a01b031662000e04565b6200019f600480360360208110156200035a57600080fd5b50356001600160a01b031662000f13565b6200016462000f2e565b62000164600480360360208110156200038d57600080fd5b50356001600160a01b031662000f4d565b6001600160a01b03828116600090815260066020526040812054909116620003f85760405162461bcd60e51b815260040180806020018281038252602881526020018062002cfb6028913960400191505060405180910390fd5b6001600160a01b038084166000908152600660205260409020541682620004275762000424846200050d565b92505b806001600160a01b031663949c4fa385856040518363ffffffff1660e01b815260040180836001600160a01b03166001600160a01b031681526020018281526020019250505060206040518083038186803b1580156200048657600080fd5b505afa1580156200049b573d6000803e3d6000fd5b505050506040513d6020811015620004b257600080fd5b5051949350505050565b6005602052600090815260409020546001600160a01b031681565b60046020528160005260406000208181548110620004f157fe5b6000918252602090912001546001600160a01b03169150829050565b600080829050806001600160a01b031663313ce5676040518163ffffffff1660e01b815260040160206040518083038186803b1580156200054d57600080fd5b505afa15801562000562573d6000803e3d6000fd5b505050506040513d60208110156200057957600080fd5b505160ff16600a0a9392505050565b62000592620011d1565b6000546001600160a01b03908116911614620005f5576040805162461bcd60e51b815260206004820181905260248201527f4f776e61626c653a2063616c6c6572206973206e6f7420746865206f776e6572604482015290519081900360640190fd5b600080546040516001600160a01b03909116907f8be0079c531659141344cd1fd0a4f28419497f9722a3daafe3b4186f6b6457e0908390a3600080546001600160a01b0319169055565b6003546001600160a01b031681565b600083830160ff8316600a81900a820287848183816200066a57fe5b049a9950505050505050505050565b6001600160a01b03828116600090815260066020526040812054909116620006d35760405162461bcd60e51b815260040180806020018281038252602881526020018062002cfb6028913960400191505060405180910390fd5b6001600160a01b0380841660009081526006602052604090205416826200070257620006ff846200050d565b92505b806001600160a01b0316633ddac95385856040518363ffffffff1660e01b815260040180836001600160a01b03166001600160a01b0316815260200182815260200192505050602060405180830381600087803b1580156200076357600080fd5b505af11580156200049b573d6000803e3d6000fd5b6001546001600160a01b03165b90565b6000546001600160a01b031690565b620007a1620011d1565b6000546001600160a01b0390811691161462000804576040805162461bcd60e51b815260206004820181905260248201527f4f776e61626c653a2063616c6c6572206973206e6f7420746865206f776e6572604482015290519081900360640190fd5b600080620008138585620011d5565b6001600160a01b038083166000908152600660205260409020549294509092501680620008d0576002546001546040516001600160a01b0392831692869216906200085e9062001527565b6001600160a01b03938416815291831660208301529091166040808301919091525190819003606001906000f0801580156200089e573d6000803e3d6000fd5b506001600160a01b03848116600090815260066020526040902080546001600160a01b03191691831691909117905590505b6001600160a01b03808316600090815260066020526040902054168062000987576002546001546040516001600160a01b039283169286921690620009159062001527565b6001600160a01b03938416815291831660208301529091166040808301919091525190819003606001906000f08015801562000955573d6000803e3d6000fd5b506001600160a01b03848116600090815260066020526040902080546001600160a01b03191691831691909117905590505b6040805180820182526001600160a01b0380851682528381166020808401919091529088166000908152600490915291909120620009c791600262001535565b506001600160a01b0391821660009081526005602052604080822080549685166001600160a01b031997881617905591831681522080549290911691909216179055505050565b6001546001600160a01b031681565b6001600160a01b0381166000908152600460209081526040808320805482518185028101850190935280835260609383018282801562000a8757602002820191906000526020600020905b81546001600160a01b0316815260019091019060200180831162000a68575b5050505050905060008160008151811062000a9e57fe5b6020026020010151905060008260018151811062000ab857fe5b6020026020010151905060008062000b6d600260009054906101000a90046001600160a01b0316600560008860008151811062000af157fe5b60200260200101516001600160a01b03166001600160a01b0316815260200190815260200160002060009054906101000a90046001600160a01b0316600560008960018151811062000b3f57fe5b6020908102919091018101516001600160a01b039081168352908201929092526040016000205416620012b2565b915091506000846001600160a01b031663949c4fa3600560008960008151811062000b9457fe5b6020908102919091018101516001600160a01b0390811683528282019390935260409182016000205482516001600160e01b031960e087901b16815293166004840152602483018890529051604480840193829003018186803b15801562000bfb57600080fd5b505afa15801562000c10573d6000803e3d6000fd5b505050506040513d602081101562000c2757600080fd5b505186519091506000906001600160a01b0386169063949c4fa39060059084908b90600190811062000c5557fe5b6020908102919091018101516001600160a01b0390811683528282019390935260409182016000205482516001600160e01b031960e087901b16815293166004840152602483018890529051604480840193829003018186803b15801562000cbc57600080fd5b505afa15801562000cd1573d6000803e3d6000fd5b505050506040513d602081101562000ce857600080fd5b5051604080516318160ddd60e01b815290519192508a916000916001600160a01b038416916318160ddd91600480820192602092909190829003018186803b15801562000d3457600080fd5b505afa15801562000d49573d6000803e3d6000fd5b505050506040513d602081101562000d6057600080fd5b50516040805163313ce56760e01b8152905191925062000de6918391879187916001600160a01b0388169163313ce56791600480820192602092909190829003018186803b15801562000db257600080fd5b505afa15801562000dc7573d6000803e3d6000fd5b505050506040513d602081101562000dde57600080fd5b50516200064e565b9b9a5050505050505050505050565b6002546001600160a01b031681565b62000e0e620011d1565b6000546001600160a01b0390811691161462000e71576040805162461bcd60e51b815260206004820181905260248201527f4f776e61626c653a2063616c6c6572206973206e6f7420746865206f776e6572604482015290519081900360640190fd5b6001600160a01b03811662000eb85760405162461bcd60e51b815260040180806020018281038252602681526020018062002cb06026913960400191505060405180910390fd5b600080546040516001600160a01b03808516939216917f8be0079c531659141344cd1fd0a4f28419497f9722a3daafe3b4186f6b6457e091a3600080546001600160a01b0319166001600160a01b0392909216919091179055565b6006602052600090815260409020546001600160a01b031681565b60015460009062000f48906001600160a01b03166200050d565b905090565b6001600160a01b0381166000908152600460209081526040808320805482518185028101850190935280835260609383018282801562000fb757602002820191906000526020600020905b81546001600160a01b0316815260019091019060200180831162000f98575b5050505050905060008160008151811062000fce57fe5b6020026020010151905060008260018151811062000fe857fe5b6020026020010151905060008062001021600260009054906101000a90046001600160a01b0316600560008860008151811062000af157fe5b915091506000846001600160a01b0316633ddac95360056000896000815181106200104857fe5b60200260200101516001600160a01b03166001600160a01b0316815260200190815260200160002060009054906101000a90046001600160a01b0316856040518363ffffffff1660e01b815260040180836001600160a01b03166001600160a01b0316815260200182815260200192505050602060405180830381600087803b158015620010d557600080fd5b505af1158015620010ea573d6000803e3d6000fd5b505050506040513d60208110156200110157600080fd5b505186519091506000906001600160a01b03861690633ddac9539060059084908b9060019081106200112f57fe5b60200260200101516001600160a01b03166001600160a01b0316815260200190815260200160002060009054906101000a90046001600160a01b0316856040518363ffffffff1660e01b815260040180836001600160a01b03166001600160a01b0316815260200182815260200192505050602060405180830381600087803b158015620011bc57600080fd5b505af115801562000cd1573d6000803e3d6000fd5b3390565b600080826001600160a01b0316846001600160a01b0316141562001236576040805162461bcd60e51b81526020600482015260136024820152724944454e544943414c5f41444452455353455360681b604482015290519081900360640190fd5b826001600160a01b0316846001600160a01b031610620012585782846200125b565b83835b90925090506001600160a01b038216620012ab576040805162461bcd60e51b815260206004820152600c60248201526b5a45524f5f4144445245535360a01b604482015290519081900360640190fd5b9250929050565b6000806000620012c3858562001389565b509050600080620012d688888862001465565b6001600160a01b0316630902f1ac6040518163ffffffff1660e01b815260040160606040518083038186803b1580156200130f57600080fd5b505afa15801562001324573d6000803e3d6000fd5b505050506040513d60608110156200133b57600080fd5b5080516020909101516dffffffffffffffffffffffffffff91821693501690506001600160a01b0387811690841614620013775780826200137a565b81815b90999098509650505050505050565b600080826001600160a01b0316846001600160a01b03161415620013df5760405162461bcd60e51b815260040180806020018281038252602581526020018062002cd66025913960400191505060405180910390fd5b826001600160a01b0316846001600160a01b0316106200140157828462001404565b83835b90925090506001600160a01b038216620012ab576040805162461bcd60e51b815260206004820152601e60248201527f556e697377617056324c6962726172793a205a45524f5f414444524553530000604482015290519081900360640190fd5b600080600062001476858562001389565b604080516bffffffffffffffffffffffff19606094851b811660208084019190915293851b81166034830152825160288184030181526048830184528051908501206001600160f81b031960688401529a90941b9093166069840152607d8301989098527f96e8ac4277198ff8b6f785478aa9a39f403cb768dd02cbee326c3e7da348845f609d808401919091528851808403909101815260bd909201909752805196019590952095945050505050565b6116e980620015c783390190565b8280548282559060005260206000209081019282156200158d579160200282015b828111156200158d57825182546001600160a01b0319166001600160a01b0390911617825560209092019160019091019062001556565b506200159b9291506200159f565b5090565b6200078591905b808211156200159b5780546001600160a01b0319168155600101620015a656fe60806040523480156200001157600080fd5b50604051620016e9380380620016e9833981810160405260608110156200003757600080fd5b508051602082015160409092015190919060006200005d6001600160e01b036200046c16565b600080546001600160a01b0319166001600160a01b0383169081178255604051929350917f8be0079c531659141344cd1fd0a4f28419497f9722a3daafe3b4186f6b6457e0908290a350806001600160a01b0316826001600160a01b0316141562000103576040805160208082018352600191829052600780546001600160e01b0319908116841790915583519182019093528190526008805490921617905562000463565b60006200011d8484846200047060201b62000a541760201c565b905080600160006101000a8154816001600160a01b0302191690836001600160a01b03160217905550806001600160a01b0316630dfe16816040518163ffffffff1660e01b815260040160206040518083038186803b1580156200018057600080fd5b505afa15801562000195573d6000803e3d6000fd5b505050506040513d6020811015620001ac57600080fd5b5051600280546001600160a01b0319166001600160a01b039283161790556040805163d21220a760e01b815290519183169163d21220a791600480820192602092909190829003018186803b1580156200020557600080fd5b505afa1580156200021a573d6000803e3d6000fd5b505050506040513d60208110156200023157600080fd5b5051600380546001600160a01b0319166001600160a01b0392831617905560408051635909c0d560e01b8152905191831691635909c0d591600480820192602092909190829003018186803b1580156200028a57600080fd5b505afa1580156200029f573d6000803e3d6000fd5b505050506040513d6020811015620002b657600080fd5b5051600490815560408051635a3d549360e01b815290516001600160a01b03841692635a3d549392808201926020929091829003018186803b158015620002fc57600080fd5b505afa15801562000311573d6000803e3d6000fd5b505050506040513d60208110156200032857600080fd5b505160055560408051630240bc6b60e21b8152905160009182916001600160a01b03851691630902f1ac916004808301926060929190829003018186803b1580156200037357600080fd5b505afa15801562000388573d6000803e3d6000fd5b505050506040513d60608110156200039f57600080fd5b50805160208201516040909201516006805463ffffffff191663ffffffff909216919091179055925090506001600160701b03821615801590620003eb57506001600160701b03811615155b6200042b576040805162461bcd60e51b815260206004820152600b60248201526a4e4f5f524553455256455360a81b604482015290519081900360640190fd5b6006805460ff60201b1916640100000000179055620004526001600160e01b036200054d16565b50506006805460ff60201b19169055505b50505062000a1e565b3390565b600080806200048985856001600160e01b036200066f16565b604080516001600160601b0319606094851b811660208084019190915293851b81166034830152825160288184030181526048830184528051908501207fff0000000000000000000000000000000000000000000000000000000000000060688401529a90941b9093166069840152607d8301989098527f96e8ac4277198ff8b6f785478aa9a39f403cb768dd02cbee326c3e7da348845f609d808401919091528851808403909101815260bd909201909752805196019590952095945050505050565b60008060006200057d600160009054906101000a90046001600160a01b03166200075260201b620007a61760201c565b600654929550909350915063ffffffff908116820390610e10908216101580620005b65750600654640100000000900460ff1615156001145b15620006695760405180602001604052808263ffffffff16600454870381620005db57fe5b046001600160e01b039081169091529051600780546001600160e01b031916919092161790556040805160208101909152600554819063ffffffff8416908603816200062357fe5b046001600160e01b039081169091529051600880546001600160e01b03191691909216179055600484905560058390556006805463ffffffff191663ffffffff84161790555b50505050565b600080826001600160a01b0316846001600160a01b03161415620006c55760405162461bcd60e51b8152600401808060200182810382526025815260200180620016c46025913960400191505060405180910390fd5b826001600160a01b0316846001600160a01b031610620006e7578284620006ea565b83835b90925090506001600160a01b0382166200074b576040805162461bcd60e51b815260206004820152601e60248201527f556e697377617056324c6962726172793a205a45524f5f414444524553530000604482015290519081900360640190fd5b9250929050565b60008080620007696001600160e01b036200095516565b9050836001600160a01b0316635909c0d56040518163ffffffff1660e01b815260040160206040518083038186803b158015620007a557600080fd5b505afa158015620007ba573d6000803e3d6000fd5b505050506040513d6020811015620007d157600080fd5b505160408051635a3d549360e01b815290519194506001600160a01b03861691635a3d549391600480820192602092909190829003018186803b1580156200081857600080fd5b505afa1580156200082d573d6000803e3d6000fd5b505050506040513d60208110156200084457600080fd5b505160408051630240bc6b60e21b81529051919350600091829182916001600160a01b03891691630902f1ac916004808301926060929190829003018186803b1580156200089157600080fd5b505afa158015620008a6573d6000803e3d6000fd5b505050506040513d6060811015620008bd57600080fd5b5080516020820151604090920151909450909250905063ffffffff808216908516146200094b57600081850390508063ffffffff166200090984866200095f60201b6200097f1760201c565b600001516001600160e01b031602870196508063ffffffff166200093985856200095f60201b6200097f1760201c565b516001600160e01b0316029590950194505b5050509193909250565b63ffffffff421690565b6200096962000a0c565b6000826001600160701b031611620009c8576040805162461bcd60e51b815260206004820152601760248201527f4669786564506f696e743a204449565f42595f5a45524f000000000000000000604482015290519081900360640190fd5b6040805160208101909152806001600160701b038416600160701b600160e01b03607087901b1681620009f757fe5b046001600160e01b0316815250905092915050565b60408051602081019091526000815290565b610c968062000a2e6000396000f3fe608060405234801561001057600080fd5b50600436106101005760003560e01c8063a2e6204511610097578063c3e75bda11610066578063c3e75bda146101f9578063c5700a0214610215578063d21220a714610236578063f2fde38b1461023e57610100565b8063a2e62045146101d9578063a6bb4539146101e1578063a8aa1b31146101e9578063b4d1d795146101f157610100565b80635e6aaf2c116100d35780635e6aaf2c14610177578063715018a61461019b5780638da5cb5b146101a5578063949c4fa3146101ad57610100565b80630dfe1681146101055780633ddac953146101295780635909c0d5146101675780635a3d54931461016f575b600080fd5b61010d610264565b604080516001600160a01b039092168252519081900360200190f35b6101556004803603604081101561013f57600080fd5b506001600160a01b038135169060200135610273565b60408051918252519081900360200190f35b61015561037e565b610155610384565b61017f61038a565b604080516001600160e01b039092168252519081900360200190f35b6101a3610399565b005b61010d61044d565b610155600480360360408110156101c357600080fd5b506001600160a01b03813516906020013561045c565b6101a36104b9565b61017f6105c3565b61010d6105d2565b6101556105e1565b6102016105e7565b604080519115158252519081900360200190f35b61021d6105f8565b6040805163ffffffff9092168252519081900360200190f35b61010d610604565b6101a36004803603602081101561025457600080fd5b50356001600160a01b0316610613565b6002546001600160a01b031681565b6002546000906001600160a01b031661028d575080610378565b6002546001600160a01b03848116911614156102ed576102ab6104b9565b60408051602081019091526007546001600160e01b031681526102dd906102d8908463ffffffff61071d16565b61079b565b6001600160901b03169050610378565b6003546001600160a01b0384811691161461033f576040805162461bcd60e51b815260206004820152600d60248201526c24a72b20a624a22faa27a5a2a760991b604482015290519081900360640190fd5b60408051602081019091526008546001600160e01b0316815261036c906102d8908463ffffffff61071d16565b6001600160901b031690505b92915050565b60045481565b60055481565b6008546001600160e01b031681565b6103a16107a2565b6000546001600160a01b03908116911614610403576040805162461bcd60e51b815260206004820181905260248201527f4f776e61626c653a2063616c6c6572206973206e6f7420746865206f776e6572604482015290519081900360640190fd5b600080546040516001600160a01b03909116907f8be0079c531659141344cd1fd0a4f28419497f9722a3daafe3b4186f6b6457e0908390a3600080546001600160a01b0319169055565b6000546001600160a01b031690565b6002546000906001600160a01b0316610476575080610378565b6002546001600160a01b03848116911614156102ed5760408051602081019091526007546001600160e01b031681526102dd906102d8908463ffffffff61071d16565b600154600090819081906104d5906001600160a01b03166107a6565b600654929550909350915063ffffffff908116820390610e1090821610158061050d5750600654640100000000900460ff1615156001145b156105bd5760405180602001604052808263ffffffff1660045487038161053057fe5b046001600160e01b039081169091529051600780546001600160e01b031916919092161790556040805160208101909152600554819063ffffffff84169086038161057757fe5b046001600160e01b039081169091529051600880546001600160e01b03191691909216179055600484905560058390556006805463ffffffff191663ffffffff84161790555b50505050565b6007546001600160e01b031681565b6001546001600160a01b031681565b610e1081565b600654640100000000900460ff1681565b60065463ffffffff1681565b6003546001600160a01b031681565b61061b6107a2565b6000546001600160a01b0390811691161461067d576040805162461bcd60e51b815260206004820181905260248201527f4f776e61626c653a2063616c6c6572206973206e6f7420746865206f776e6572604482015290519081900360640190fd5b6001600160a01b0381166106c25760405162461bcd60e51b8152600401808060200182810382526026815260200180610bf36026913960400191505060405180910390fd5b600080546040516001600160a01b03808516939216917f8be0079c531659141344cd1fd0a4f28419497f9722a3daafe3b4186f6b6457e091a3600080546001600160a01b0319166001600160a01b0392909216919091179055565b610725610a2f565b600082158061074b57505082516001600160e01b03168281029083828161074857fe5b04145b6107865760405162461bcd60e51b8152600401808060200182810382526023815260200180610c3e6023913960400191505060405180910390fd5b60408051602081019091529081529392505050565b5160701c90565b3390565b60008060006107b3610975565b9050836001600160a01b0316635909c0d56040518163ffffffff1660e01b815260040160206040518083038186803b1580156107ee57600080fd5b505afa158015610802573d6000803e3d6000fd5b505050506040513d602081101561081857600080fd5b505160408051635a3d549360e01b815290519194506001600160a01b03861691635a3d549391600480820192602092909190829003018186803b15801561085e57600080fd5b505afa158015610872573d6000803e3d6000fd5b505050506040513d602081101561088857600080fd5b505160408051630240bc6b60e21b81529051919350600091829182916001600160a01b03891691630902f1ac916004808301926060929190829003018186803b1580156108d457600080fd5b505afa1580156108e8573d6000803e3d6000fd5b505050506040513d60608110156108fe57600080fd5b5080516020820151604090920151909450909250905063ffffffff8082169085161461096b5780840363ffffffff8116610938848661097f565b516001600160e01b031602969096019563ffffffff8116610959858561097f565b516001600160e01b0316029590950194505b5050509193909250565b63ffffffff421690565b610987610a42565b6000826001600160701b0316116109e5576040805162461bcd60e51b815260206004820152601760248201527f4669786564506f696e743a204449565f42595f5a45524f000000000000000000604482015290519081900360640190fd5b6040805160208101909152806001600160701b0384166dffffffffffffffffffffffffffff60701b607087901b1681610a1a57fe5b046001600160e01b0316815250905092915050565b6040518060200160405280600081525090565b60408051602081019091526000815290565b6000806000610a638585610b14565b604080516bffffffffffffffffffffffff19606094851b811660208084019190915293851b81166034830152825160288184030181526048830184528051908501206001600160f81b031960688401529a90941b9093166069840152607d8301989098527f96e8ac4277198ff8b6f785478aa9a39f403cb768dd02cbee326c3e7da348845f609d808401919091528851808403909101815260bd909201909752805196019590952095945050505050565b600080826001600160a01b0316846001600160a01b03161415610b685760405162461bcd60e51b8152600401808060200182810382526025815260200180610c196025913960400191505060405180910390fd5b826001600160a01b0316846001600160a01b031610610b88578284610b8b565b83835b90925090506001600160a01b038216610beb576040805162461bcd60e51b815260206004820152601e60248201527f556e697377617056324c6962726172793a205a45524f5f414444524553530000604482015290519081900360640190fd5b925092905056fe4f776e61626c653a206e6577206f776e657220697320746865207a65726f2061646472657373556e697377617056324c6962726172793a204944454e544943414c5f4144445245535345534669786564506f696e743a204d554c5449504c49434154494f4e5f4f564552464c4f57a26469706673582212205f4ad33033b43372549df36ea8c24c3d00b93bfb3fcb6abeb854e60009f8ce0164736f6c63430006060033556e697377617056324c6962726172793a204944454e544943414c5f4144445245535345534f776e61626c653a206e6577206f776e657220697320746865207a65726f2061646472657373556e697377617056324c6962726172793a204944454e544943414c5f414444524553534553546f6b656e206e6f7420726567697374657265642077697468206120555344432070616972696e67a2646970667358221220c8c23e261c3bef34a45970f956d2125743c356257188e13a0501ccc6555b8d4a64736f6c63430006060033",
  "immutableReferences": {},
  "source": "pragma solidity ^0.6.2;\r\n\r\nimport \"@openzeppelin/contracts/access/Ownable.sol\";\r\n\r\nimport \"@uniswap/v2-periphery/contracts/UniswapV2Router02.sol\";\r\nimport \"@uniswap/v2-periphery/contracts/libraries/UniswapV2Library.sol\";\r\nimport \"./UniswapLPOracleInstance.sol\";\r\nimport \"./interfaces/ExtendedIERC20.sol\";\r\n\r\n////////////////////////////////////////////////////////////////////////////////////////////\r\n/// @title UniswapLPOracleFactory\r\n/// @author Christopher Dixon\r\n////////////////////////////////////////////////////////////////////////////////////////////\r\n/**\r\nThe UniswapLPOracleFactory contract is designed to produce individual UniswapLPOracleInstance contracts\r\nThis contract uses the OpenZeppelin contract Library to inherit functions from\r\n  Ownable.sol\r\n**/\r\n\r\ncontract UniswapLPOracleFactory is Ownable {\r\n    using SafeMath for uint256;\r\n    address public usdc_add;\r\n    address public factory;\r\n    IUniswapV2Router02 public uniswapRouter;\r\n\r\n    mapping(address => address[]) public LPAssetTracker;\r\n    mapping(address => address) public instanceTracker;\r\n    mapping(address => address) public tokenToUSDC;\r\n\r\n    /**\r\n    @notice constructor function is fired once during contract creation. This constructor initializes uniswapRouter\r\n            as a usable contract instance within the UniswapLPOracleFactory\r\n    @param usdcAdd is the address of the ERC20 USDC address\r\n    @param _uniFactoryAdd is the address of the uniswap factory contract\r\n    **/\r\n    constructor(\r\n        address usdcAdd,\r\n        address _uniFactoryAdd,\r\n        address _uniRouterAddress\r\n    ) public {\r\n        uniswapRouter = IUniswapV2Router02(_uniRouterAddress);\r\n        usdc_add = usdcAdd;\r\n        factory = _uniFactoryAdd;\r\n    }\r\n\r\n    function USDC() public view returns (address) {\r\n        return usdc_add;\r\n    }\r\n\r\n    function OneUSDC() public view returns (uint256) {\r\n        return OneToken(usdc_add);\r\n    }\r\n\r\n    function OneToken(address token) public view returns (uint256) {\r\n        ExtendedIERC20 ercToken = ExtendedIERC20(token);\r\n        return uint256(10)**uint256(ercToken.decimals());\r\n    }\r\n\r\n    function sortTokens(address tokenA, address tokenB)\r\n        internal\r\n        pure\r\n        returns (address token0, address token1)\r\n    {\r\n        require(tokenA != tokenB, \"IDENTICAL_ADDRESSES\");\r\n        (token0, token1) = tokenA < tokenB\r\n            ? (tokenA, tokenB)\r\n            : (tokenB, tokenA);\r\n        require(token0 != address(0), \"ZERO_ADDRESS\");\r\n    }\r\n\r\n    /**\r\n    @notice createNewOracle allows the owner of this contract to deploy deploy two new asset oracle contracts\r\n            when a new LP token is whitelisted. this contract will link the address of an LP token contract to\r\n            two seperate oracles that are designed to look up the price of their respective assets in USDC. This\r\n            will allow us to calculate the price of one at LP token token from the prices of their underlying assets\r\n\r\n    @param _tokenA is the address of the first token in an Liquidity pair\r\n    @param _tokenB is the address of the second token in a liquidity pair\r\n    @param _lpToken is the address of the token that this oracle will provide a price feed for\r\n    **/\r\n    function createNewOracles(\r\n        address _tokenA,\r\n        address _tokenB,\r\n        address _lpToken\r\n    ) public onlyOwner {\r\n        (address token0, address token1) = sortTokens(_tokenA, _tokenB);\r\n\r\n        address oracle1 = tokenToUSDC[token0];\r\n        if (oracle1 == address(0)) {\r\n            oracle1 = address(\r\n                new UniswapLPOracleInstance(factory, token0, usdc_add)\r\n            );\r\n            tokenToUSDC[token0] = oracle1;\r\n        }\r\n\r\n        address oracle2 = tokenToUSDC[token1];\r\n        if (oracle2 == address(0)) {\r\n            oracle2 = address(\r\n                new UniswapLPOracleInstance(factory, token1, usdc_add)\r\n            );\r\n            tokenToUSDC[token1] = oracle2;\r\n        }\r\n\r\n        LPAssetTracker[_lpToken] = [oracle1, oracle2];\r\n        instanceTracker[oracle1] = token0;\r\n        instanceTracker[oracle2] = token1;\r\n    }\r\n\r\n    /**\r\n    @notice getUnderlyingPrice allows for the price calculation and retrieval of a LP tokens price\r\n    @param _lpToken is the address of the LP token  whos asset price is being retrieved\r\n    @return returns the price of one LP token\r\n    **/\r\n    function getUnderlyingPrice(address _lpToken) public returns (uint256) {\r\n        address[] memory oracleAdds = LPAssetTracker[_lpToken];\r\n        //retreives the oracle contract addresses for each asset that makes up a LP\r\n        UniswapLPOracleInstance oracle1 = UniswapLPOracleInstance(\r\n            oracleAdds[0]\r\n        );\r\n        UniswapLPOracleInstance oracle2 = UniswapLPOracleInstance(\r\n            oracleAdds[1]\r\n        );\r\n\r\n        (uint256 reserveA, uint256 reserveB) = UniswapV2Library.getReserves(\r\n            factory,\r\n            instanceTracker[oracleAdds[0]],\r\n            instanceTracker[oracleAdds[1]]\r\n        );\r\n\r\n        uint256 priceAsset1 = oracle1.consult(\r\n            instanceTracker[oracleAdds[0]],\r\n            reserveA\r\n        );\r\n        uint256 priceAsset2 = oracle2.consult(\r\n            instanceTracker[oracleAdds[1]],\r\n            reserveB\r\n        );\r\n\r\n        // Get the total supply of the pool\r\n        IERC20 lpToken = IERC20(_lpToken);\r\n        uint256 totalSupplyOfLP = lpToken.totalSupply();\r\n\r\n        return\r\n            _calculatePriceOfLP(\r\n                totalSupplyOfLP,\r\n                priceAsset1,\r\n                priceAsset2,\r\n                lpToken.decimals()\r\n            );\r\n        //return USDC price of the pool divided by totalSupply of its LPs to get price\r\n        //of one LP\r\n    }\r\n\r\n    function _calculatePriceOfLP(\r\n        uint256 supply,\r\n        uint256 value0,\r\n        uint256 value1,\r\n        uint8 supplyDecimals\r\n    ) public pure returns (uint256) {\r\n        uint256 totalValue = value0 + value1;\r\n        uint16 shiftAmount = supplyDecimals;\r\n        uint256 valueShifted = totalValue * uint256(10)**shiftAmount;\r\n        uint256 supplyShifted = supply;\r\n        uint256 valuePerSupply = valueShifted / supplyShifted;\r\n\r\n        return valuePerSupply;\r\n    }\r\n\r\n    /**\r\n    @notice viewUnderlyingPrice allows for the price retrieval of a LP tokens price\r\n    @param _lpToken is the address of the LP token  whos asset price is being retrieved\r\n    @return returns the price of one LP token\r\n    **/\r\n    function viewUnderlyingPrice(address _lpToken)\r\n        public\r\n        view\r\n        returns (uint256)\r\n    {\r\n        address[] memory oracleAdds = LPAssetTracker[_lpToken];\r\n        //retreives the oracle contract addresses for each asset that makes up a LP\r\n        UniswapLPOracleInstance oracle1 = UniswapLPOracleInstance(\r\n            oracleAdds[0]\r\n        );\r\n        UniswapLPOracleInstance oracle2 = UniswapLPOracleInstance(\r\n            oracleAdds[1]\r\n        );\r\n        // instantiates both ase usable oracle instances\r\n        (uint256 reserveA, uint256 reserveB) = UniswapV2Library.getReserves(\r\n            factory,\r\n            instanceTracker[oracleAdds[0]],\r\n            instanceTracker[oracleAdds[1]]\r\n        );\r\n\r\n        uint256 priceAsset1 = oracle1.viewPrice(\r\n            instanceTracker[oracleAdds[0]],\r\n            reserveA\r\n        );\r\n        uint256 priceAsset2 = oracle2.viewPrice(\r\n            instanceTracker[oracleAdds[1]],\r\n            reserveB\r\n        );\r\n\r\n        // Get the total supply of the pool\r\n        IERC20 lpToken = IERC20(_lpToken);\r\n        uint256 totalSupplyOfLP = lpToken.totalSupply();\r\n\r\n        return\r\n            _calculatePriceOfLP(\r\n                totalSupplyOfLP,\r\n                priceAsset1,\r\n                priceAsset2,\r\n                lpToken.decimals()\r\n            );\r\n        //return USDC price of the pool divided by totalSupply of its LPs to get price\r\n        //of one LP\r\n    }\r\n\r\n    function viewPriceOfToken(address _token, uint256 _amount)\r\n        public\r\n        view\r\n        returns (uint256)\r\n    {\r\n        require(\r\n            tokenToUSDC[_token] != address(0),\r\n            \"Token not registered with a USDC pairing\"\r\n        );\r\n\r\n        UniswapLPOracleInstance oracle = UniswapLPOracleInstance(\r\n            tokenToUSDC[_token]\r\n        );\r\n        if (_amount == 0) {\r\n            _amount = OneToken(_token);\r\n        }\r\n        return oracle.viewPrice(_token, _amount);\r\n    }\r\n\r\n    function getPriceOfToken(address _token, uint256 _amount)\r\n        public\r\n        returns (uint256)\r\n    {\r\n        require(\r\n            tokenToUSDC[_token] != address(0),\r\n            \"Token not registered with a USDC pairing\"\r\n        );\r\n\r\n        UniswapLPOracleInstance oracle = UniswapLPOracleInstance(\r\n            tokenToUSDC[_token]\r\n        );\r\n        if (_amount == 0) {\r\n            _amount = OneToken(_token);\r\n        }\r\n        return oracle.consult(_token, _amount);\r\n    }\r\n}\r\n",
  "sourcePath": "E:/dOrg/warp/Smart-Contracts/contracts/UniswapLPOracleFactory.sol",
  "compiler": {
    "name": "solc",
    "version": "0.6.6+commit.6c089d02.Emscripten.clang"
  },
  "schemaVersion": "3.3.2",
  "updatedAt": "2020-12-13T03:14:18.762Z",
  "devdoc": {
    "methods": {
      "constructor": {
        "params": {
          "_uniFactoryAdd": "is the address of the uniswap factory contract*",
          "usdcAdd": "is the address of the ERC20 USDC address"
        }
      },
      "createNewOracles(address,address,address)": {
        "params": {
          "_lpToken": "is the address of the token that this oracle will provide a price feed for*",
          "_tokenA": "is the address of the first token in an Liquidity pair",
          "_tokenB": "is the address of the second token in a liquidity pair"
        }
      },
      "getUnderlyingPrice(address)": {
        "params": {
          "_lpToken": "is the address of the LP token  whos asset price is being retrieved"
        },
        "returns": {
          "_0": "returns the price of one LP token*"
        }
      },
      "owner()": {
        "details": "Returns the address of the current owner."
      },
      "renounceOwnership()": {
        "details": "Leaves the contract without owner. It will not be possible to call `onlyOwner` functions anymore. Can only be called by the current owner.     * NOTE: Renouncing ownership will leave the contract without an owner, thereby removing any functionality that is only available to the owner."
      },
      "transferOwnership(address)": {
        "details": "Transfers ownership of the contract to a new account (`newOwner`). Can only be called by the current owner."
      },
      "viewUnderlyingPrice(address)": {
        "params": {
          "_lpToken": "is the address of the LP token  whos asset price is being retrieved"
        },
        "returns": {
          "_0": "returns the price of one LP token*"
        }
      }
    }
  },
  "userdoc": {
    "methods": {
      "constructor": "constructor function is fired once during contract creation. This constructor initializes uniswapRouter as a usable contract instance within the UniswapLPOracleFactory",
      "createNewOracles(address,address,address)": {
        "notice": "createNewOracle allows the owner of this contract to deploy deploy two new asset oracle contracts when a new LP token is whitelisted. this contract will link the address of an LP token contract to two seperate oracles that are designed to look up the price of their respective assets in USDC. This will allow us to calculate the price of one at LP token token from the prices of their underlying assets"
      },
      "getUnderlyingPrice(address)": {
        "notice": "getUnderlyingPrice allows for the price calculation and retrieval of a LP tokens price"
      },
      "viewUnderlyingPrice(address)": {
        "notice": "viewUnderlyingPrice allows for the price retrieval of a LP tokens price"
      }
    },
    "notice": "The UniswapLPOracleFactory contract is designed to produce individual UniswapLPOracleInstance contracts This contract uses the OpenZeppelin contract Library to inherit functions from Ownable.sol*"
  }
}