{
  "contractName": "UniswapLPOracleInstance",
  "abi": [
    {
      "inputs": [
        {
          "internalType": "address",
          "name": "_factory",
          "type": "address"
        },
        {
          "internalType": "address",
          "name": "_tokenA",
          "type": "address"
        },
        {
          "internalType": "address",
          "name": "_tokenB",
          "type": "address"
        }
      ],
      "stateMutability": "nonpayable",
      "type": "constructor"
    },
    {
      "anonymous": false,
      "inputs": [
        {
          "indexed": true,
          "internalType": "address",
          "name": "previousOwner",
          "type": "address"
        },
        {
          "indexed": true,
          "internalType": "address",
          "name": "newOwner",
          "type": "address"
        }
      ],
      "name": "OwnershipTransferred",
      "type": "event"
    },
    {
      "inputs": [],
      "name": "PERIOD",
      "outputs": [
        {
          "internalType": "uint256",
          "name": "",
          "type": "uint256"
        }
      ],
      "stateMutability": "view",
      "type": "function"
    },
    {
      "inputs": [],
      "name": "blockTimestampLast",
      "outputs": [
        {
          "internalType": "uint32",
          "name": "",
          "type": "uint32"
        }
      ],
      "stateMutability": "view",
      "type": "function"
    },
    {
      "inputs": [],
      "name": "firstRun",
      "outputs": [
        {
          "internalType": "bool",
          "name": "",
          "type": "bool"
        }
      ],
      "stateMutability": "view",
      "type": "function"
    },
    {
      "inputs": [],
      "name": "owner",
      "outputs": [
        {
          "internalType": "address",
          "name": "",
          "type": "address"
        }
      ],
      "stateMutability": "view",
      "type": "function"
    },
    {
      "inputs": [],
      "name": "pair",
      "outputs": [
        {
          "internalType": "contract IUniswapV2Pair",
          "name": "",
          "type": "address"
        }
      ],
      "stateMutability": "view",
      "type": "function"
    },
    {
      "inputs": [],
      "name": "price0Average",
      "outputs": [
        {
          "internalType": "uint224",
          "name": "_x",
          "type": "uint224"
        }
      ],
      "stateMutability": "view",
      "type": "function"
    },
    {
      "inputs": [],
      "name": "price0CumulativeLast",
      "outputs": [
        {
          "internalType": "uint256",
          "name": "",
          "type": "uint256"
        }
      ],
      "stateMutability": "view",
      "type": "function"
    },
    {
      "inputs": [],
      "name": "price1Average",
      "outputs": [
        {
          "internalType": "uint224",
          "name": "_x",
          "type": "uint224"
        }
      ],
      "stateMutability": "view",
      "type": "function"
    },
    {
      "inputs": [],
      "name": "price1CumulativeLast",
      "outputs": [
        {
          "internalType": "uint256",
          "name": "",
          "type": "uint256"
        }
      ],
      "stateMutability": "view",
      "type": "function"
    },
    {
      "inputs": [],
      "name": "renounceOwnership",
      "outputs": [],
      "stateMutability": "nonpayable",
      "type": "function"
    },
    {
      "inputs": [],
      "name": "token0",
      "outputs": [
        {
          "internalType": "address",
          "name": "",
          "type": "address"
        }
      ],
      "stateMutability": "view",
      "type": "function"
    },
    {
      "inputs": [],
      "name": "token1",
      "outputs": [
        {
          "internalType": "address",
          "name": "",
          "type": "address"
        }
      ],
      "stateMutability": "view",
      "type": "function"
    },
    {
      "inputs": [
        {
          "internalType": "address",
          "name": "newOwner",
          "type": "address"
        }
      ],
      "name": "transferOwnership",
      "outputs": [],
      "stateMutability": "nonpayable",
      "type": "function"
    },
    {
      "inputs": [],
      "name": "update",
      "outputs": [],
      "stateMutability": "nonpayable",
      "type": "function"
    },
    {
      "inputs": [
        {
          "internalType": "address",
          "name": "token",
          "type": "address"
        },
        {
          "internalType": "uint256",
          "name": "amount",
          "type": "uint256"
        }
      ],
      "name": "consult",
      "outputs": [
        {
          "internalType": "uint256",
          "name": "price",
          "type": "uint256"
        }
      ],
      "stateMutability": "nonpayable",
      "type": "function"
    },
    {
      "inputs": [
        {
          "internalType": "address",
          "name": "token",
          "type": "address"
        },
        {
          "internalType": "uint256",
          "name": "amount",
          "type": "uint256"
        }
      ],
      "name": "viewPrice",
      "outputs": [
        {
          "internalType": "uint256",
          "name": "price",
          "type": "uint256"
        }
      ],
      "stateMutability": "view",
      "type": "function"
    }
  ],
  "bytecode": "0x60806040523480156200001157600080fd5b50604051620016ce380380620016ce833981810160405260608110156200003757600080fd5b508051602082015160409092015190919060006200005d6001600160e01b036200047e16565b600080546001600160a01b0319166001600160a01b0383169081178255604051929350917f8be0079c531659141344cd1fd0a4f28419497f9722a3daafe3b4186f6b6457e0908290a350806001600160a01b0316826001600160a01b0316141562000103576040805160208082018352600191829052600780546001600160e01b0319908116841790915583519182019093528190526008805490921617905562000475565b60006200011d8484846200048260201b62000a271760201c565b905080600160006101000a8154816001600160a01b0302191690836001600160a01b03160217905550806001600160a01b0316630dfe16816040518163ffffffff1660e01b815260040160206040518083038186803b1580156200018057600080fd5b505afa15801562000195573d6000803e3d6000fd5b505050506040513d6020811015620001ac57600080fd5b5051600280546001600160a01b0319166001600160a01b039283161790556040805163d21220a760e01b815290519183169163d21220a791600480820192602092909190829003018186803b1580156200020557600080fd5b505afa1580156200021a573d6000803e3d6000fd5b505050506040513d60208110156200023157600080fd5b5051600380546001600160a01b0319166001600160a01b0392831617905560408051635909c0d560e01b8152905191831691635909c0d591600480820192602092909190829003018186803b1580156200028a57600080fd5b505afa1580156200029f573d6000803e3d6000fd5b505050506040513d6020811015620002b657600080fd5b5051600490815560408051635a3d549360e01b815290516001600160a01b03841692635a3d549392808201926020929091829003018186803b158015620002fc57600080fd5b505afa15801562000311573d6000803e3d6000fd5b505050506040513d60208110156200032857600080fd5b505160055560408051630240bc6b60e21b8152905160009182916001600160a01b03851691630902f1ac916004808301926060929190829003018186803b1580156200037357600080fd5b505afa15801562000388573d6000803e3d6000fd5b505050506040513d60608110156200039f57600080fd5b50805160208201516040909201516006805463ffffffff191663ffffffff909216919091179055925090506001600160701b03821615801590620003eb57506001600160701b03811615155b6200043d576040805162461bcd60e51b815260206004820181905260248201527f4578616d706c654f7261636c6553696d706c653a204e4f5f5245534552564553604482015290519081900360640190fd5b6006805460ff60201b1916640100000000179055620004646001600160e01b036200055f16565b50506006805460ff60201b19169055505b50505062000a30565b3390565b600080806200049b85856001600160e01b036200068116565b604080516001600160601b0319606094851b811660208084019190915293851b81166034830152825160288184030181526048830184528051908501207fff0000000000000000000000000000000000000000000000000000000000000060688401529a90941b9093166069840152607d8301989098527f96e8ac4277198ff8b6f785478aa9a39f403cb768dd02cbee326c3e7da348845f609d808401919091528851808403909101815260bd909201909752805196019590952095945050505050565b60008060006200058f600160009054906101000a90046001600160a01b03166200076460201b620007861760201c565b600654929550909350915063ffffffff908116820390610e10908216101580620005c85750600654640100000000900460ff1615156001145b156200067b5760405180602001604052808263ffffffff16600454870381620005ed57fe5b046001600160e01b039081169091529051600780546001600160e01b031916919092161790556040805160208101909152600554819063ffffffff8416908603816200063557fe5b046001600160e01b039081169091529051600880546001600160e01b03191691909216179055600484905560058390556006805463ffffffff191663ffffffff84161790555b50505050565b600080826001600160a01b0316846001600160a01b03161415620006d75760405162461bcd60e51b8152600401808060200182810382526025815260200180620016a96025913960400191505060405180910390fd5b826001600160a01b0316846001600160a01b031610620006f9578284620006fc565b83835b90925090506001600160a01b0382166200075d576040805162461bcd60e51b815260206004820152601e60248201527f556e697377617056324c6962726172793a205a45524f5f414444524553530000604482015290519081900360640190fd5b9250929050565b600080806200077b6001600160e01b036200096716565b9050836001600160a01b0316635909c0d56040518163ffffffff1660e01b815260040160206040518083038186803b158015620007b757600080fd5b505afa158015620007cc573d6000803e3d6000fd5b505050506040513d6020811015620007e357600080fd5b505160408051635a3d549360e01b815290519194506001600160a01b03861691635a3d549391600480820192602092909190829003018186803b1580156200082a57600080fd5b505afa1580156200083f573d6000803e3d6000fd5b505050506040513d60208110156200085657600080fd5b505160408051630240bc6b60e21b81529051919350600091829182916001600160a01b03891691630902f1ac916004808301926060929190829003018186803b158015620008a357600080fd5b505afa158015620008b8573d6000803e3d6000fd5b505050506040513d6060811015620008cf57600080fd5b5080516020820151604090920151909450909250905063ffffffff808216908516146200095d57600081850390508063ffffffff166200091b84866200097160201b6200095f1760201c565b600001516001600160e01b031602870196508063ffffffff166200094b85856200097160201b6200095f1760201c565b516001600160e01b0316029590950194505b5050509193909250565b63ffffffff421690565b6200097b62000a1e565b6000826001600160701b031611620009da576040805162461bcd60e51b815260206004820152601760248201527f4669786564506f696e743a204449565f42595f5a45524f000000000000000000604482015290519081900360640190fd5b6040805160208101909152806001600160701b038416600160701b600160e01b03607087901b168162000a0957fe5b046001600160e01b0316815250905092915050565b60408051602081019091526000815290565b610c698062000a406000396000f3fe608060405234801561001057600080fd5b50600436106100e05760003560e01c8063a2e6204511610087578063a2e62045146101b9578063a6bb4539146101c1578063a8aa1b31146101c9578063b4d1d795146101d1578063c3e75bda146101d9578063c5700a02146101f5578063d21220a714610216578063f2fde38b1461021e576100e0565b80630dfe1681146100e55780633ddac953146101095780635909c0d5146101475780635a3d54931461014f5780635e6aaf2c14610157578063715018a61461017b5780638da5cb5b14610185578063949c4fa31461018d575b600080fd5b6100ed610244565b604080516001600160a01b039092168252519081900360200190f35b6101356004803603604081101561011f57600080fd5b506001600160a01b038135169060200135610253565b60408051918252519081900360200190f35b61013561035e565b610135610364565b61015f61036a565b604080516001600160e01b039092168252519081900360200190f35b610183610379565b005b6100ed61042d565b610135600480360360408110156101a357600080fd5b506001600160a01b03813516906020013561043c565b610183610499565b61015f6105a3565b6100ed6105b2565b6101356105c1565b6101e16105c7565b604080519115158252519081900360200190f35b6101fd6105d8565b6040805163ffffffff9092168252519081900360200190f35b6100ed6105e4565b6101836004803603602081101561023457600080fd5b50356001600160a01b03166105f3565b6002546001600160a01b031681565b6002546000906001600160a01b031661026d575080610358565b6002546001600160a01b03848116911614156102cd5761028b610499565b60408051602081019091526007546001600160e01b031681526102bd906102b8908463ffffffff6106fd16565b61077b565b6001600160901b03169050610358565b6003546001600160a01b0384811691161461031f576040805162461bcd60e51b815260206004820152600d60248201526c24a72b20a624a22faa27a5a2a760991b604482015290519081900360640190fd5b60408051602081019091526008546001600160e01b0316815261034c906102b8908463ffffffff6106fd16565b6001600160901b031690505b92915050565b60045481565b60055481565b6008546001600160e01b031681565b610381610782565b6000546001600160a01b039081169116146103e3576040805162461bcd60e51b815260206004820181905260248201527f4f776e61626c653a2063616c6c6572206973206e6f7420746865206f776e6572604482015290519081900360640190fd5b600080546040516001600160a01b03909116907f8be0079c531659141344cd1fd0a4f28419497f9722a3daafe3b4186f6b6457e0908390a3600080546001600160a01b0319169055565b6000546001600160a01b031690565b6002546000906001600160a01b0316610456575080610358565b6002546001600160a01b03848116911614156102cd5760408051602081019091526007546001600160e01b031681526102bd906102b8908463ffffffff6106fd16565b600154600090819081906104b5906001600160a01b0316610786565b600654929550909350915063ffffffff908116820390610e109082161015806104ed5750600654640100000000900460ff1615156001145b1561059d5760405180602001604052808263ffffffff1660045487038161051057fe5b046001600160e01b039081169091529051600780546001600160e01b031916919092161790556040805160208101909152600554819063ffffffff84169086038161055757fe5b046001600160e01b039081169091529051600880546001600160e01b03191691909216179055600484905560058390556006805463ffffffff191663ffffffff84161790555b50505050565b6007546001600160e01b031681565b6001546001600160a01b031681565b610e1081565b600654640100000000900460ff1681565b60065463ffffffff1681565b6003546001600160a01b031681565b6105fb610782565b6000546001600160a01b0390811691161461065d576040805162461bcd60e51b815260206004820181905260248201527f4f776e61626c653a2063616c6c6572206973206e6f7420746865206f776e6572604482015290519081900360640190fd5b6001600160a01b0381166106a25760405162461bcd60e51b8152600401808060200182810382526026815260200180610bc66026913960400191505060405180910390fd5b600080546040516001600160a01b03808516939216917f8be0079c531659141344cd1fd0a4f28419497f9722a3daafe3b4186f6b6457e091a3600080546001600160a01b0319166001600160a01b0392909216919091179055565b610705610a02565b600082158061072b57505082516001600160e01b03168281029083828161072857fe5b04145b6107665760405162461bcd60e51b8152600401808060200182810382526023815260200180610c116023913960400191505060405180910390fd5b60408051602081019091529081529392505050565b5160701c90565b3390565b6000806000610793610955565b9050836001600160a01b0316635909c0d56040518163ffffffff1660e01b815260040160206040518083038186803b1580156107ce57600080fd5b505afa1580156107e2573d6000803e3d6000fd5b505050506040513d60208110156107f857600080fd5b505160408051635a3d549360e01b815290519194506001600160a01b03861691635a3d549391600480820192602092909190829003018186803b15801561083e57600080fd5b505afa158015610852573d6000803e3d6000fd5b505050506040513d602081101561086857600080fd5b505160408051630240bc6b60e21b81529051919350600091829182916001600160a01b03891691630902f1ac916004808301926060929190829003018186803b1580156108b457600080fd5b505afa1580156108c8573d6000803e3d6000fd5b505050506040513d60608110156108de57600080fd5b5080516020820151604090920151909450909250905063ffffffff8082169085161461094b5780840363ffffffff8116610918848661095f565b516001600160e01b031602969096019563ffffffff8116610939858561095f565b516001600160e01b0316029590950194505b5050509193909250565b63ffffffff421690565b610967610a15565b6000826001600160701b0316116109bf576040805162461bcd60e51b81526020600482015260176024820152764669786564506f696e743a204449565f42595f5a45524f60481b604482015290519081900360640190fd5b6040805160208101909152806001600160701b038416600160701b600160e01b03607087901b16816109ed57fe5b046001600160e01b0316815250905092915050565b6040518060200160405280600081525090565b60408051602081019091526000815290565b6000806000610a368585610ae7565b604080516bffffffffffffffffffffffff19606094851b811660208084019190915293851b81166034830152825160288184030181526048830184528051908501206001600160f81b031960688401529a90941b9093166069840152607d8301989098527f96e8ac4277198ff8b6f785478aa9a39f403cb768dd02cbee326c3e7da348845f609d808401919091528851808403909101815260bd909201909752805196019590952095945050505050565b600080826001600160a01b0316846001600160a01b03161415610b3b5760405162461bcd60e51b8152600401808060200182810382526025815260200180610bec6025913960400191505060405180910390fd5b826001600160a01b0316846001600160a01b031610610b5b578284610b5e565b83835b90925090506001600160a01b038216610bbe576040805162461bcd60e51b815260206004820152601e60248201527f556e697377617056324c6962726172793a205a45524f5f414444524553530000604482015290519081900360640190fd5b925092905056fe4f776e61626c653a206e6577206f776e657220697320746865207a65726f2061646472657373556e697377617056324c6962726172793a204944454e544943414c5f4144445245535345534669786564506f696e743a204d554c5449504c49434154494f4e5f4f564552464c4f57a26469706673582212206f800e4a9f3665de27195e647d4178190d8124523fdf46beac334f504fb8948464736f6c63430006060033556e697377617056324c6962726172793a204944454e544943414c5f414444524553534553",
  "immutableReferences": {},
  "source": "pragma solidity ^0.6.2;\n\nimport \"@openzeppelin/contracts/access/Ownable.sol\";\nimport \"@uniswap/v2-core/contracts/interfaces/IUniswapV2Factory.sol\";\nimport \"@uniswap/v2-core/contracts/interfaces/IUniswapV2Pair.sol\";\nimport \"@uniswap/lib/contracts/libraries/FixedPoint.sol\";\nimport \"@uniswap/v2-periphery/contracts/libraries/UniswapV2OracleLibrary.sol\";\nimport \"@uniswap/v2-periphery/contracts/libraries/UniswapV2Library.sol\";\n\ncontract UniswapLPOracleInstance is Ownable {\n    using SafeMath for uint256;\n\n    // fixed window oracle that recomputes the average price for the entire period once every period\n    // note that the price average is only guaranteed to be over at least 1 period, but may be over a longer period\n\n    using FixedPoint for *;\n\n    uint256 public constant PERIOD = 1 hours;\n\n    IUniswapV2Pair public pair;\n    address public token0;\n    address public token1;\n\n    uint256 public price0CumulativeLast;\n    uint256 public price1CumulativeLast;\n    uint32 public blockTimestampLast;\n    bool public firstRun;\n    FixedPoint.uq112x112 public price0Average;\n    FixedPoint.uq112x112 public price1Average;\n\n    /**\n@notice the constructor function is fired once during token creation to initialize the oracle contract to a specific token pair\n@param _factory is the address of the Uniswap factory contract\n@param _tokenA is the address of the asset being looked up\n@param _tokenB is the address of the USDC token\n**/\n\n    constructor(\n        address _factory,\n        address _tokenA,\n        address _tokenB\n    ) public {\n        if (_tokenA == _tokenB) {\n            price0Average = FixedPoint.uq112x112(uint224(1));\n            price1Average = FixedPoint.uq112x112(uint224(1));\n        } else {\n            IUniswapV2Pair _pair = IUniswapV2Pair(\n                UniswapV2Library.pairFor(_factory, _tokenA, _tokenB)\n            );\n            pair = _pair;\n            token0 = _pair.token0();\n            token1 = _pair.token1();\n            price0CumulativeLast = _pair.price0CumulativeLast(); // fetch the current accumulated price value (1 / 0)\n            price1CumulativeLast = _pair.price1CumulativeLast(); // fetch the current accumulated price value (0 / 1)\n            uint112 reserve0;\n            uint112 reserve1;\n            (reserve0, reserve1, blockTimestampLast) = _pair.getReserves();\n            require(\n                reserve0 != 0 && reserve1 != 0,\n                \"ExampleOracleSimple: NO_RESERVES\"\n            ); // ensure that there's liquidity in the pair\n            firstRun = true;\n            update();\n            firstRun = false;\n        }\n    }\n\n    /**\n@notice update updates the prices for the input token pair over a set 24hour period\n@dev this is an internal function called by consult if the timeElapsed is greater than 24 hours\n**/\n    function update() public {\n        (\n            uint256 price0Cumulative,\n            uint256 price1Cumulative,\n            uint32 blockTimestamp\n        ) = UniswapV2OracleLibrary.currentCumulativePrices(address(pair));\n        uint32 timeElapsed = blockTimestamp - blockTimestampLast; // overflow is desired\n\n        //check if this is the first update\n        if (timeElapsed >= PERIOD || firstRun == true) {\n            // ensure that at least one full period has passed since the last update\n            // cumulative price is in (uq112x112 price * seconds) units so we simply wrap it after division by time elapsed\n            price0Average = FixedPoint.uq112x112(\n                uint224((price0Cumulative - price0CumulativeLast) / timeElapsed)\n            );\n            price1Average = FixedPoint.uq112x112(\n                uint224((price1Cumulative - price1CumulativeLast) / timeElapsed)\n            );\n\n            price0CumulativeLast = price0Cumulative;\n            price1CumulativeLast = price1Cumulative;\n            blockTimestampLast = blockTimestamp;\n        }\n    }\n\n    /**\n@notice consult returns the price of a token in USDC\n@return price is the price of one asset in USDC(example 1WETH in USDC)\n**/\n    function consult(address token, uint amount) external returns (uint256 price) {\n        if (token0 == address(0)) {\n            return amount;\n        }\n\n        if (token == token0) {\n            update();\n            price = price0Average.mul(amount).decode144();\n        } else {\n            require(token == token1, \"INVALID_TOKEN\");\n            price = price1Average.mul(amount).decode144();\n        }\n    }\n\n    /**\n@notice viewPrice is a view function that retreives the current price without having to run the update function\n@return price is the price of one asset in USDC(example 1WETH in USDC)\n**/\n    function viewPrice(address token, uint amount) external view returns (uint256 price) {\n        if (token0 == address(0)) {\n            return amount;\n        }\n\n        if (token == token0) {\n            price = price0Average.mul(amount).decode144();\n        } else {\n            require(token == token1, \"INVALID_TOKEN\");\n            price = price1Average.mul(amount).decode144();\n        }\n    }\n}\n",
  "sourcePath": "/home/stan36/repos/Warp/Smart-Contracts/contracts/UniswapLPOracleInstance.sol",
  "compiler": {
    "name": "solc",
    "version": "0.6.6+commit.6c089d02.Emscripten.clang"
  },
  "schemaVersion": "3.3.1",
  "updatedAt": "2020-11-29T18:17:07.771Z",
  "devdoc": {
    "methods": {
      "constructor": {
        "params": {
          "_factory": "is the address of the Uniswap factory contract",
          "_tokenA": "is the address of the asset being looked up",
          "_tokenB": "is the address of the USDC token*"
        }
      },
      "owner()": {
        "details": "Returns the address of the current owner."
      },
      "renounceOwnership()": {
        "details": "Leaves the contract without owner. It will not be possible to call `onlyOwner` functions anymore. Can only be called by the current owner.     * NOTE: Renouncing ownership will leave the contract without an owner, thereby removing any functionality that is only available to the owner."
      },
      "transferOwnership(address)": {
        "details": "Transfers ownership of the contract to a new account (`newOwner`). Can only be called by the current owner."
      },
      "update()": {
        "details": "this is an internal function called by consult if the timeElapsed is greater than 24 hours*"
      }
    }
  },
  "userdoc": {
    "methods": {
      "constructor": "the constructor function is fired once during token creation to initialize the oracle contract to a specific token pair",
      "consult(address,uint256)": {
        "notice": "consult returns the price of a token in USDC"
      },
      "update()": {
        "notice": "update updates the prices for the input token pair over a set 24hour period"
      },
      "viewPrice(address,uint256)": {
        "notice": "viewPrice is a view function that retreives the current price without having to run the update function"
      }
    }
  }
}