{
  "contractName": "UniswapLPOracleFactory",
  "abi": [
    {
      "inputs": [
        {
          "internalType": "address",
          "name": "usdcAdd",
          "type": "address"
        },
        {
          "internalType": "address",
          "name": "_uniFactoryAdd",
          "type": "address"
        },
        {
          "internalType": "address",
          "name": "_uniRouterAddress",
          "type": "address"
        }
      ],
      "stateMutability": "nonpayable",
      "type": "constructor"
    },
    {
      "anonymous": false,
      "inputs": [
        {
          "indexed": true,
          "internalType": "address",
          "name": "previousOwner",
          "type": "address"
        },
        {
          "indexed": true,
          "internalType": "address",
          "name": "newOwner",
          "type": "address"
        }
      ],
      "name": "OwnershipTransferred",
      "type": "event"
    },
    {
      "inputs": [],
      "name": "factory",
      "outputs": [
        {
          "internalType": "address",
          "name": "",
          "type": "address"
        }
      ],
      "stateMutability": "view",
      "type": "function"
    },
    {
      "inputs": [],
      "name": "owner",
      "outputs": [
        {
          "internalType": "address",
          "name": "",
          "type": "address"
        }
      ],
      "stateMutability": "view",
      "type": "function"
    },
    {
      "inputs": [],
      "name": "renounceOwnership",
      "outputs": [],
      "stateMutability": "nonpayable",
      "type": "function"
    },
    {
      "inputs": [
        {
          "internalType": "address",
          "name": "newOwner",
          "type": "address"
        }
      ],
      "name": "transferOwnership",
      "outputs": [],
      "stateMutability": "nonpayable",
      "type": "function"
    },
    {
      "inputs": [],
      "name": "uniswapRouter",
      "outputs": [
        {
          "internalType": "contract IUniswapV2Router02",
          "name": "",
          "type": "address"
        }
      ],
      "stateMutability": "view",
      "type": "function"
    },
    {
      "inputs": [],
      "name": "usdc_add",
      "outputs": [
        {
          "internalType": "address",
          "name": "",
          "type": "address"
        }
      ],
      "stateMutability": "view",
      "type": "function"
    },
    {
      "inputs": [
        {
          "internalType": "address",
          "name": "_tokenA",
          "type": "address"
        },
        {
          "internalType": "address",
          "name": "_tokenB",
          "type": "address"
        },
        {
          "internalType": "address",
          "name": "_lpToken",
          "type": "address"
        }
      ],
      "name": "createNewOracles",
      "outputs": [],
      "stateMutability": "nonpayable",
      "type": "function"
    },
    {
      "inputs": [
        {
          "internalType": "address",
          "name": "_lpToken",
          "type": "address"
        }
      ],
      "name": "getUnderlyingPrice",
      "outputs": [
        {
          "internalType": "uint256",
          "name": "",
          "type": "uint256"
        }
      ],
      "stateMutability": "nonpayable",
      "type": "function"
    },
    {
      "inputs": [
        {
          "internalType": "address",
          "name": "_lpToken",
          "type": "address"
        }
      ],
      "name": "viewUnderlyingPrice",
      "outputs": [
        {
          "internalType": "uint256",
          "name": "",
          "type": "uint256"
        }
      ],
      "stateMutability": "view",
      "type": "function"
    },
    {
      "inputs": [
        {
          "internalType": "address",
          "name": "_tokenA",
          "type": "address"
        },
        {
          "internalType": "address",
          "name": "_tokenB",
          "type": "address"
        },
        {
          "internalType": "address",
          "name": "_to",
          "type": "address"
        },
        {
          "internalType": "uint256",
          "name": "_amountIn",
          "type": "uint256"
        },
        {
          "internalType": "uint256",
          "name": "_amountOutMin",
          "type": "uint256"
        }
      ],
      "name": "swapERC20",
      "outputs": [],
      "stateMutability": "nonpayable",
      "type": "function"
    }
  ],
  "bytecode": "0x608060405234801561001057600080fd5b506040516122d83803806122d88339818101604052606081101561003357600080fd5b508051602082015160409092015190919060006100576001600160e01b036100e116565b600080546001600160a01b0319166001600160a01b0383169081178255604051929350917f8be0079c531659141344cd1fd0a4f28419497f9722a3daafe3b4186f6b6457e0908290a350600380546001600160a01b03199081166001600160a01b0393841617909155600180548216948316949094179093556002805490931691161790556100e5565b3390565b6121e4806100f46000396000f3fe60806040523480156200001157600080fd5b50600436106200009a5760003560e01c8063715018a6146200009f578063735de9f714620000ab5780638da5cb5b14620000d15780639485bada14620000db5780639adc328b1462000116578063b04c6d3f1462000120578063c45a0155146200015b578063f0defe931462000165578063f2fde38b14620001aa578063fc57d4df14620001d3575b600080fd5b620000a9620001fc565b005b620000b562000291565b604080516001600160a01b039092168252519081900360200190f35b620000b5620002a0565b620000a960048036036060811015620000f357600080fd5b506001600160a01b038135811691602081013582169160409091013516620002b0565b620000b56200046d565b62000149600480360360208110156200013857600080fd5b50356001600160a01b03166200047c565b60408051918252519081900360200190f35b620000b562000786565b620000a9600480360360a08110156200017d57600080fd5b506001600160a01b0381358116916020810135821691604082013516906060810135906080013562000795565b620000a960048036036020811015620001c257600080fd5b50356001600160a01b031662000937565b6200014960048036036020811015620001eb57600080fd5b50356001600160a01b031662000a24565b6200020662000b92565b6000546001600160a01b0390811691161462000258576040805162461bcd60e51b815260206004820181905260248201526000805160206200216f833981519152604482015290519081900360640190fd5b600080546040516001600160a01b03909116906000805160206200218f833981519152908390a3600080546001600160a01b0319169055565b6003546001600160a01b031681565b6000546001600160a01b03165b90565b620002ba62000b92565b6000546001600160a01b039081169116146200030c576040805162461bcd60e51b815260206004820181905260248201526000805160206200216f833981519152604482015290519081900360640190fd5b6002546001546040516000926001600160a01b03908116928792911690620003349062000fd8565b6001600160a01b03938416815291831660208301529091166040808301919091525190819003606001906000f08015801562000374573d6000803e3d6000fd5b506002546001546040519293506000926001600160a01b0392831692879216906200039f9062000fd8565b6001600160a01b03938416815291831660208301529091166040808301919091525190819003606001906000f080158015620003df573d6000803e3d6000fd5b506040805180820182526001600160a01b0380861682528084166020808401919091529087166000908152600490915291909120919250620004249190600262000fe6565b506001600160a01b0391821660009081526005602052604080822080549785166001600160a01b0319988916179055918316815220805493909116929093169190911790915550565b6001546001600160a01b031681565b6001600160a01b03811660009081526004602090815260408083208054825181850281018501909352808352606093830182828015620004e657602002820191906000526020600020905b81546001600160a01b03168152600190910190602001808311620004c7575b50505050509050600081600081518110620004fd57fe5b602002602001015190506000826001815181106200051757fe5b602002602001015190506000826001600160a01b031663d7dcdcec6040518163ffffffff1660e01b815260040160206040518083038186803b1580156200055d57600080fd5b505afa15801562000572573d6000803e3d6000fd5b505050506040513d60208110156200058957600080fd5b5051604080516335f7373b60e21b815290519192506000916001600160a01b0385169163d7dcdcec916004808301926020929190829003018186803b158015620005d257600080fd5b505afa158015620005e7573d6000803e3d6000fd5b505050506040513d6020811015620005fe57600080fd5b5051604080516318160ddd60e01b8152905191925088916000916001600160a01b038416916318160ddd91600480820192602092909190829003018186803b1580156200064a57600080fd5b505afa1580156200065f573d6000803e3d6000fd5b505050506040513d60208110156200067657600080fd5b50516002548851919250600091829162000722916001600160a01b039091169060059084908d908290620006a657fe5b60200260200101516001600160a01b03166001600160a01b0316815260200190815260200160002060009054906101000a90046001600160a01b0316600560008d600181518110620006f457fe5b6020908102919091018101516001600160a01b03908116835290820192909252604001600020541662000b96565b909250905060006200073b838863ffffffff62000c6616565b9050600062000751838863ffffffff62000c6616565b9050600062000767838363ffffffff62000cd216565b90508581816200077357fe5b049e9d5050505050505050505050505050565b6002546001600160a01b031681565b600354603c4201906001600160a01b03166338ed17398484620007b98a8a62000d22565b88866040518663ffffffff1660e01b81526004018086815260200185815260200180602001846001600160a01b03166001600160a01b03168152602001838152602001828103825285818151815260200191508051906020019060200280838360005b83811015620008365781810151838201526020016200081c565b505050509050019650505050505050600060405180830381600087803b1580156200086057600080fd5b505af115801562000875573d6000803e3d6000fd5b505050506040513d6000823e601f3d908101601f1916820160405260208110156200089f57600080fd5b8101908080516040519392919084600160201b821115620008bf57600080fd5b908301906020820185811115620008d557600080fd5b82518660208202830111600160201b82111715620008f257600080fd5b82525081516020918201928201910280838360005b838110156200092157818101518382015260200162000907565b5050505090500160405250505050505050505050565b6200094162000b92565b6000546001600160a01b0390811691161462000993576040805162461bcd60e51b815260206004820181905260248201526000805160206200216f833981519152604482015290519081900360640190fd5b6001600160a01b038116620009da5760405162461bcd60e51b8152600401808060200182810382526026815260200180620021246026913960400191505060405180910390fd5b600080546040516001600160a01b03808516939216916000805160206200218f83398151915291a3600080546001600160a01b0319166001600160a01b0392909216919091179055565b6001600160a01b0381166000908152600460209081526040808320805482518185028101850190935280835260609383018282801562000a8e57602002820191906000526020600020905b81546001600160a01b0316815260019091019060200180831162000a6f575b5050505050905060008160008151811062000aa557fe5b6020026020010151905060008260018151811062000abf57fe5b602002602001015190506000826001600160a01b0316637eeda7036040518163ffffffff1660e01b8152600401602060405180830381600087803b15801562000b0757600080fd5b505af115801562000b1c573d6000803e3d6000fd5b505050506040513d602081101562000b3357600080fd5b505160408051637eeda70360e01b815290519192506000916001600160a01b03851691637eeda70391600480830192602092919082900301818787803b15801562000b7d57600080fd5b505af1158015620005e7573d6000803e3d6000fd5b3390565b600080600062000ba7858562000e38565b50905060008062000bba88888862000f1b565b6001600160a01b0316630902f1ac6040518163ffffffff1660e01b815260040160606040518083038186803b15801562000bf357600080fd5b505afa15801562000c08573d6000803e3d6000fd5b505050506040513d606081101562000c1f57600080fd5b5080516020909101516001600160701b0391821693501690506001600160a01b038781169084161462000c5457808262000c57565b81815b90999098509650505050505050565b600081158062000c835750508082028282828162000c8057fe5b04145b62000ccc576040805162461bcd60e51b815260206004820152601460248201527364732d6d6174682d6d756c2d6f766572666c6f7760601b604482015290519081900360640190fd5b92915050565b8082018281101562000ccc576040805162461bcd60e51b815260206004820152601460248201527364732d6d6174682d6164642d6f766572666c6f7760601b604482015290519081900360640190fd5b60408051600380825260808201909252606091829190602082018380368337019050509050838160008151811062000d5657fe5b6001600160a01b03928316602091820292909201810191909152600354604080516315ab88c960e31b81529051919093169263ad5c4648926004808301939192829003018186803b15801562000dab57600080fd5b505afa15801562000dc0573d6000803e3d6000fd5b505050506040513d602081101562000dd757600080fd5b505181518290600190811062000de957fe5b60200260200101906001600160a01b031690816001600160a01b031681525050828160028151811062000e1857fe5b6001600160a01b0390921660209283029190910190910152905092915050565b600080826001600160a01b0316846001600160a01b0316141562000e8e5760405162461bcd60e51b81526004018080602001828103825260258152602001806200214a6025913960400191505060405180910390fd5b826001600160a01b0316846001600160a01b03161062000eb057828462000eb3565b83835b90925090506001600160a01b03821662000f14576040805162461bcd60e51b815260206004820152601e60248201527f556e697377617056324c6962726172793a205a45524f5f414444524553530000604482015290519081900360640190fd5b9250929050565b600080600062000f2c858562000e38565b604080516001600160601b0319606094851b811660208084019190915293851b81166034830152825160288184030181526048830184528051908501206001600160f81b031960688401529a90941b9093166069840152607d8301989098527f96e8ac4277198ff8b6f785478aa9a39f403cb768dd02cbee326c3e7da348845f609d808401919091528851808403909101815260bd909201909752805196019590952095945050505050565b6110ac806200107883390190565b8280548282559060005260206000209081019282156200103e579160200282015b828111156200103e57825182546001600160a01b0319166001600160a01b0390911617825560209092019160019091019062001007565b506200104c92915062001050565b5090565b620002ad91905b808211156200104c5780546001600160a01b03191681556001016200105756fe60806040523480156200001157600080fd5b50604051620010ac380380620010ac833981810160405260608110156200003757600080fd5b508051602082015160409092015190919060006200005d6001600160e01b03620003ed16565b600080546001600160a01b0319166001600160a01b0383169081178255604051929350917f8be0079c531659141344cd1fd0a4f28419497f9722a3daafe3b4186f6b6457e0908290a3506000620000c1848484620003f160201b620008491760201c565b905080600160006101000a8154816001600160a01b0302191690836001600160a01b03160217905550806001600160a01b0316630dfe16816040518163ffffffff1660e01b815260040160206040518083038186803b1580156200012457600080fd5b505afa15801562000139573d6000803e3d6000fd5b505050506040513d60208110156200015057600080fd5b5051600280546001600160a01b0319166001600160a01b039283161790556040805163d21220a760e01b815290519183169163d21220a791600480820192602092909190829003018186803b158015620001a957600080fd5b505afa158015620001be573d6000803e3d6000fd5b505050506040513d6020811015620001d557600080fd5b5051600380546001600160a01b0319166001600160a01b0392831617905560408051635909c0d560e01b8152905191831691635909c0d591600480820192602092909190829003018186803b1580156200022e57600080fd5b505afa15801562000243573d6000803e3d6000fd5b505050506040513d60208110156200025a57600080fd5b5051600490815560408051635a3d549360e01b815290516001600160a01b03841692635a3d549392808201926020929091829003018186803b158015620002a057600080fd5b505afa158015620002b5573d6000803e3d6000fd5b505050506040513d6020811015620002cc57600080fd5b505160055560408051630240bc6b60e21b8152905160009182916001600160a01b03851691630902f1ac916004808301926060929190829003018186803b1580156200031757600080fd5b505afa1580156200032c573d6000803e3d6000fd5b505050506040513d60608110156200034357600080fd5b50805160208201516040909201516006805463ffffffff191663ffffffff909216919091179055925090506001600160701b038216158015906200038f57506001600160701b03811615155b620003e1576040805162461bcd60e51b815260206004820181905260248201527f4578616d706c654f7261636c6553696d706c653a204e4f5f5245534552564553604482015290519081900360640190fd5b505050505050620005b1565b3390565b600080806200040a85856001600160e01b03620004ce16565b604080516001600160601b0319606094851b811660208084019190915293851b81166034830152825160288184030181526048830184528051908501207fff0000000000000000000000000000000000000000000000000000000000000060688401529a90941b9093166069840152607d8301989098527f96e8ac4277198ff8b6f785478aa9a39f403cb768dd02cbee326c3e7da348845f609d808401919091528851808403909101815260bd909201909752805196019590952095945050505050565b600080826001600160a01b0316846001600160a01b03161415620005245760405162461bcd60e51b8152600401808060200182810382526025815260200180620010876025913960400191505060405180910390fd5b826001600160a01b0316846001600160a01b0316106200054657828462000549565b83835b90925090506001600160a01b038216620005aa576040805162461bcd60e51b815260206004820152601e60248201527f556e697377617056324c6962726172793a205a45524f5f414444524553530000604482015290519081900360640190fd5b9250929050565b610ac680620005c16000396000f3fe608060405234801561001057600080fd5b50600436106100c55760003560e01c80630dfe1681146100ca5780635909c0d5146100ee5780635a3d5493146101085780635e6aaf2c14610110578063715018a6146101345780637eeda7031461013e5780638da5cb5b14610146578063a2e620451461014e578063a6bb453914610156578063a8aa1b311461015e578063b4d1d79514610166578063c5700a021461016e578063d21220a71461018f578063d7dcdcec14610197578063f2fde38b1461019f575b600080fd5b6100d26101c5565b604080516001600160a01b039092168252519081900360200190f35b6100f66101d4565b60408051918252519081900360200190f35b6100f66101da565b6101186101e0565b604080516001600160e01b039092168252519081900360200190f35b61013c6101ef565b005b6100f661027f565b6100d26102ca565b61013c6102d9565b6101186103c8565b6100d26103d7565b6100f66103e6565b6101766103ed565b6040805163ffffffff9092168252519081900360200190f35b6100d26103f9565b6100f6610408565b61013c600480360360208110156101b557600080fd5b50356001600160a01b0316610439565b6002546001600160a01b031681565b60045481565b60055481565b6008546001600160e01b031681565b6101f761051f565b6000546001600160a01b03908116911614610247576040805162461bcd60e51b81526020600482018190526024820152600080516020610a2e833981519152604482015290519081900360640190fd5b600080546040516001600160a01b0390911690600080516020610a4e833981519152908390a3600080546001600160a01b0319169055565b60006102896102d9565b60408051602081019091526007546001600160e01b031681526102bc906102b790600163ffffffff61052316565b6105a1565b6001600160901b0316905090565b6000546001600160a01b031690565b600154600090819081906102f5906001600160a01b03166105a8565b600654929550909350915063ffffffff90811682039062015180908216106103c25760405180602001604052808263ffffffff1660045487038161033557fe5b046001600160e01b039081169091529051600780546001600160e01b031916919092161790556040805160208101909152600554819063ffffffff84169086038161037c57fe5b046001600160e01b039081169091529051600880546001600160e01b03191691909216179055600484905560058390556006805463ffffffff191663ffffffff84161790555b50505050565b6007546001600160e01b031681565b6001546001600160a01b031681565b6201518081565b60065463ffffffff1681565b6003546001600160a01b031681565b60408051602081019091526007546001600160e01b031681526000906102bc906102b790600163ffffffff61052316565b61044161051f565b6000546001600160a01b03908116911614610491576040805162461bcd60e51b81526020600482018190526024820152600080516020610a2e833981519152604482015290519081900360640190fd5b6001600160a01b0381166104d65760405162461bcd60e51b81526004018080602001828103825260268152602001806109e36026913960400191505060405180910390fd5b600080546040516001600160a01b0380851693921691600080516020610a4e83398151915291a3600080546001600160a01b0319166001600160a01b0392909216919091179055565b3390565b61052b610824565b600082158061055157505082516001600160e01b03168281029083828161054e57fe5b04145b61058c5760405162461bcd60e51b8152600401808060200182810382526023815260200180610a6e6023913960400191505060405180910390fd5b60408051602081019091529081529392505050565b5160701c90565b60008060006105b5610777565b9050836001600160a01b0316635909c0d56040518163ffffffff1660e01b815260040160206040518083038186803b1580156105f057600080fd5b505afa158015610604573d6000803e3d6000fd5b505050506040513d602081101561061a57600080fd5b505160408051635a3d549360e01b815290519194506001600160a01b03861691635a3d549391600480820192602092909190829003018186803b15801561066057600080fd5b505afa158015610674573d6000803e3d6000fd5b505050506040513d602081101561068a57600080fd5b505160408051630240bc6b60e21b81529051919350600091829182916001600160a01b03891691630902f1ac916004808301926060929190829003018186803b1580156106d657600080fd5b505afa1580156106ea573d6000803e3d6000fd5b505050506040513d606081101561070057600080fd5b5080516020820151604090920151909450909250905063ffffffff8082169085161461076d5780840363ffffffff811661073a8486610781565b516001600160e01b031602969096019563ffffffff811661075b8585610781565b516001600160e01b0316029590950194505b5050509193909250565b63ffffffff421690565b610789610837565b6000826001600160701b0316116107e1576040805162461bcd60e51b81526020600482015260176024820152764669786564506f696e743a204449565f42595f5a45524f60481b604482015290519081900360640190fd5b6040805160208101909152806001600160701b038416600160701b600160e01b03607087901b168161080f57fe5b046001600160e01b0316815250905092915050565b6040518060200160405280600081525090565b60408051602081019091526000815290565b60008060006108588585610904565b604080516001600160601b0319606094851b811660208084019190915293851b81166034830152825160288184030181526048830184528051908501206001600160f81b031960688401529a90941b9093166069840152607d8301989098527f96e8ac4277198ff8b6f785478aa9a39f403cb768dd02cbee326c3e7da348845f609d808401919091528851808403909101815260bd909201909752805196019590952095945050505050565b600080826001600160a01b0316846001600160a01b031614156109585760405162461bcd60e51b8152600401808060200182810382526025815260200180610a096025913960400191505060405180910390fd5b826001600160a01b0316846001600160a01b03161061097857828461097b565b83835b90925090506001600160a01b0382166109db576040805162461bcd60e51b815260206004820152601e60248201527f556e697377617056324c6962726172793a205a45524f5f414444524553530000604482015290519081900360640190fd5b925092905056fe4f776e61626c653a206e6577206f776e657220697320746865207a65726f2061646472657373556e697377617056324c6962726172793a204944454e544943414c5f4144445245535345534f776e61626c653a2063616c6c6572206973206e6f7420746865206f776e65728be0079c531659141344cd1fd0a4f28419497f9722a3daafe3b4186f6b6457e04669786564506f696e743a204d554c5449504c49434154494f4e5f4f564552464c4f57a2646970667358221220f75339f9f8aab12fba0cca714f7d732eaa0c0d34ce4e6192707302cfae397bfb64736f6c63430006060033556e697377617056324c6962726172793a204944454e544943414c5f4144445245535345534f776e61626c653a206e6577206f776e657220697320746865207a65726f2061646472657373556e697377617056324c6962726172793a204944454e544943414c5f4144445245535345534f776e61626c653a2063616c6c6572206973206e6f7420746865206f776e65728be0079c531659141344cd1fd0a4f28419497f9722a3daafe3b4186f6b6457e0a2646970667358221220a2779fcab75af8c6e6c1e0f488c3a48a65c00abc5f112f7d8e0c81858815c20e64736f6c63430006060033",
  "immutableReferences": {},
  "source": "pragma solidity ^0.6.2;\r\n\r\nimport \"@openzeppelin/contracts/access/Ownable.sol\";\r\n\r\nimport \"@uniswap/v2-periphery/contracts/UniswapV2Router02.sol\";\r\nimport \"@uniswap/v2-periphery/contracts/libraries/UniswapV2Library.sol\";\r\nimport \"./UniswapLPOracleInstance.sol\";\r\n\r\n////////////////////////////////////////////////////////////////////////////////////////////\r\n/// @title UniswapLPOracleFactory\r\n/// @author Christopher Dixon\r\n////////////////////////////////////////////////////////////////////////////////////////////\r\n/**\r\nThe UniswapLPOracleFactory contract is designed to produce individual UniswapLPOracleInstance contracts\r\nThis contract uses the OpenZeppelin contract Library to inherit functions from\r\n  Ownable.sol\r\n**/\r\n\r\ncontract UniswapLPOracleFactory is Ownable {\r\n    using SafeMath for uint256;\r\n    address public usdc_add;\r\n    address public factory;\r\n    IUniswapV2Router02 public uniswapRouter;\r\n\r\n    mapping(address => address[]) LPAssetTracker;\r\n    mapping(address => address) instanceTracker;\r\n\r\n    /**\r\n@notice constructor function is fired once during contract creation. This constructor initializes uniswapRouter\r\n        as a usable contract instance within the UniswapLPOracleFactory\r\n@param usdcAdd is the address of the ERC20 USDC address\r\n@param _uniFactoryAdd is the address of the uniswap factory contract\r\n**/\r\n    constructor(address usdcAdd, address _uniFactoryAdd, address _uniRouterAddress) public {\r\n        uniswapRouter = IUniswapV2Router02(_uniRouterAddress);\r\n        usdc_add = usdcAdd;\r\n        factory = _uniFactoryAdd;\r\n    }\r\n\r\n    /**\r\n  @notice createNewOracle allows the owner of this contract to deploy deploy two new asset oracle contracts\r\n          when a new LP token is whitelisted. this contract will link the address of an LP token contract to\r\n          two seperate oracles that are designed to look up the price of their respective assets in USDC. This\r\n          will allow us to calculate the price of one at LP token token from the prices of their underlying assets\r\n\r\n  @param _tokenA is the address of the first token in an Liquidity pair\r\n  @param _tokenB is the address of the second token in a liquidity pair\r\n  @param _lpToken is the address of the token that this oracle will provide a price feed for\r\n\r\n\r\n  **/\r\n    function createNewOracles(\r\n        address _tokenA,\r\n        address _tokenB,\r\n        address _lpToken\r\n    ) public onlyOwner {\r\n        address _oracle1 = address(\r\n            new UniswapLPOracleInstance(factory, _tokenA, usdc_add)\r\n        );\r\n\r\n        address _oracle2 = address(\r\n            new UniswapLPOracleInstance(factory, _tokenB, usdc_add)\r\n        );\r\n\r\n        LPAssetTracker[_lpToken] = [_oracle1, _oracle2];\r\n        instanceTracker[_oracle1] = _tokenA;\r\n        instanceTracker[_oracle2] = _tokenB;\r\n    }\r\n\r\n    /**\r\n@notice getUnderlyingPrice allows for the price calculation and retrieval of a LP tokens price\r\n@param _lpToken is the address of the LP token  whos asset price is being retrieved\r\n@return returns the price of one LP token\r\n**/\r\n    function getUnderlyingPrice(address _lpToken) public returns (uint256) {\r\n        address[] memory oracleAdds = LPAssetTracker[_lpToken];\r\n        //retreives the oracle contract addresses for each asset that makes up a LP\r\n        UniswapLPOracleInstance oracle1 = UniswapLPOracleInstance(\r\n            oracleAdds[0]\r\n        );\r\n        UniswapLPOracleInstance oracle2 = UniswapLPOracleInstance(\r\n            oracleAdds[1]\r\n        );\r\n        // instantiates both ase usable oracle instances\r\n        uint256 priceAsset1 = oracle1.consult();\r\n        uint256 priceAsset2 = oracle2.consult();\r\n        //retreives the USDC price of one of each asset\r\n        IERC20 lpToken = IERC20(_lpToken);\r\n        //instantiates the LP token as an ERC20 token\r\n        uint256 totalSupplyOfLP = lpToken.totalSupply();\r\n        //retreives the total supply of the LP token\r\n        (uint256 reserveA, uint256 reserveB) = UniswapV2Library.getReserves(\r\n            factory,\r\n            instanceTracker[oracleAdds[0]],\r\n            instanceTracker[oracleAdds[1]]\r\n        );\r\n        //retreives the reserves of each  asset in the liquidity pool\r\n        uint256 reserveAUSDCprice = reserveA.mul(priceAsset1);\r\n        uint256 reserveBUSDCprice = reserveB.mul(priceAsset2);\r\n        //get USDC value for each reserve\r\n        uint256 totalUSDCpriceOfPool = reserveAUSDCprice.add(reserveBUSDCprice);\r\n        //add values together to get total USDC of the pool\r\n        return totalUSDCpriceOfPool / totalSupplyOfLP;\r\n        //return USDC price of the pool divided by totalSupply of its LPs to get price\r\n        //of one LP\r\n    }\r\n\r\n    /**\r\n  @notice viewUnderlyingPrice allows for the price retrieval of a LP tokens price\r\n  @param _lpToken is the address of the LP token  whos asset price is being retrieved\r\n  @return returns the price of one LP token\r\n  **/\r\n    function viewUnderlyingPrice(address _lpToken)\r\n        public\r\n        view\r\n        returns (uint256)\r\n    {\r\n        address[] memory oracleAdds = LPAssetTracker[_lpToken];\r\n        //retreives the oracle contract addresses for each asset that makes up a LP\r\n        UniswapLPOracleInstance oracle1 = UniswapLPOracleInstance(\r\n            oracleAdds[0]\r\n        );\r\n        UniswapLPOracleInstance oracle2 = UniswapLPOracleInstance(\r\n            oracleAdds[1]\r\n        );\r\n        // instantiates both ase usable oracle instances\r\n        uint256 priceAsset1 = oracle1.viewPrice();\r\n        uint256 priceAsset2 = oracle2.viewPrice();\r\n        //retreives the USDC price of one of each asset\r\n        IERC20 lpToken = IERC20(_lpToken);\r\n        //instantiates the LP token as an ERC20 token\r\n        uint256 totalSupplyOfLP = lpToken.totalSupply();\r\n        //retreives the total supply of the LP token\r\n        (uint256 reserveA, uint256 reserveB) = UniswapV2Library.getReserves(\r\n            factory,\r\n            instanceTracker[oracleAdds[0]],\r\n            instanceTracker[oracleAdds[1]]\r\n        );\r\n        //retreives the reserves of each  asset in the liquidity pool\r\n        uint256 reserveAUSDCprice = reserveA.mul(priceAsset1);\r\n        uint256 reserveBUSDCprice = reserveB.mul(priceAsset2);\r\n        //get USDC value for each reserve\r\n        uint256 totalUSDCpriceOfPool = reserveAUSDCprice.add(reserveBUSDCprice);\r\n        //add values together to get total USDC of the pool\r\n        return totalUSDCpriceOfPool / totalSupplyOfLP;\r\n        //return USDC price of the pool divided by totalSupply of its LPs to get price\r\n        //of one LP\r\n    }\r\n\r\n    /**\r\n@notice getPathForERC20Swap is an internal function used to create a uniswap trade path for two input\r\n        ERC20 tokens using WETH as a medium of exchange.\r\n@param _tokenA is the address of the token being exchanged from\r\n@param _tokenB is the address of the token being exchanged to\r\n@dev example: LINK => Augur swap _tokenA would be LINK address while _tokenB would be Augur Address\r\n**/\r\n    function getPathForERC20Swap(address _tokenA, address _tokenB)\r\n        private\r\n        view\r\n        returns (address[] memory)\r\n    {\r\n        address[] memory path = new address[](3);\r\n        path[0] = _tokenA;\r\n        path[1] = uniswapRouter.WETH();\r\n        path[2] = _tokenB;\r\n\r\n        return path;\r\n    }\r\n\r\n    /**\r\n@notice swapERC20 is an external function that swaps one ERC20 token for another\r\n        using WETH as a medium of exchange.\r\n@param _tokenA is the address of the token being exchanged from\r\n@param _tokenB is the address of the token being exchanged to\r\n@param _to is the address of the MoneyMarketInstance calling this function\r\n@param _amountIn is the amount of _tokenA being exchanged\r\n@param _amountOutMin is the minimum amount of _tokenB to be received\r\n@dev example: LINK => Augur swap _tokenA would be LINK address while _tokenB would be Augur Address\r\n@dev _amountOutMin will need to be atleast enough to cover the cost of collateral liquidation\r\n      (loan amount +i nterest) and its liquidation fee amount.\r\n**/\r\n    function swapERC20(\r\n        address _tokenA,\r\n        address _tokenB,\r\n        address _to,\r\n        uint256 _amountIn,\r\n        uint256 _amountOutMin\r\n    ) external {\r\n        uint256 deadline = block.timestamp + 60;\r\n        uniswapRouter.swapExactTokensForTokens(\r\n            _amountIn,\r\n            _amountOutMin,\r\n            getPathForERC20Swap(_tokenA, _tokenB),\r\n            _to,\r\n            deadline\r\n        );\r\n    }\r\n}\r\n",
  "sourcePath": "E:/dOrg/warp/Smart-Contracts/contracts/UniswapLPOracleFactory.sol",
  "compiler": {
    "name": "solc",
    "version": "0.6.6+commit.6c089d02.Emscripten.clang"
  },
  "schemaVersion": "3.3.1",
  "updatedAt": "2020-11-05T19:29:38.125Z",
  "devdoc": {
    "methods": {
      "constructor": {
        "params": {
          "_uniFactoryAdd": "is the address of the uniswap factory contract*",
          "usdcAdd": "is the address of the ERC20 USDC address"
        }
      },
      "createNewOracles(address,address,address)": {
        "params": {
          "_lpToken": "is the address of the token that this oracle will provide a price feed for*",
          "_tokenA": "is the address of the first token in an Liquidity pair",
          "_tokenB": "is the address of the second token in a liquidity pair"
        }
      },
      "getUnderlyingPrice(address)": {
        "params": {
          "_lpToken": "is the address of the LP token  whos asset price is being retrieved"
        },
        "returns": {
          "_0": "returns the price of one LP token*"
        }
      },
      "owner()": {
        "details": "Returns the address of the current owner."
      },
      "renounceOwnership()": {
        "details": "Leaves the contract without owner. It will not be possible to call `onlyOwner` functions anymore. Can only be called by the current owner.     * NOTE: Renouncing ownership will leave the contract without an owner, thereby removing any functionality that is only available to the owner."
      },
      "swapERC20(address,address,address,uint256,uint256)": {
        "details": "example: LINK => Augur swap _tokenA would be LINK address while _tokenB would be Augur Address_amountOutMin will need to be atleast enough to cover the cost of collateral liquidation (loan amount +i nterest) and its liquidation fee amount.*",
        "params": {
          "_amountIn": "is the amount of _tokenA being exchanged",
          "_amountOutMin": "is the minimum amount of _tokenB to be received",
          "_to": "is the address of the MoneyMarketInstance calling this function",
          "_tokenA": "is the address of the token being exchanged from",
          "_tokenB": "is the address of the token being exchanged to"
        }
      },
      "transferOwnership(address)": {
        "details": "Transfers ownership of the contract to a new account (`newOwner`). Can only be called by the current owner."
      },
      "viewUnderlyingPrice(address)": {
        "params": {
          "_lpToken": "is the address of the LP token  whos asset price is being retrieved"
        },
        "returns": {
          "_0": "returns the price of one LP token*"
        }
      }
    }
  },
  "userdoc": {
    "methods": {
      "constructor": "constructor function is fired once during contract creation. This constructor initializes uniswapRouter as a usable contract instance within the UniswapLPOracleFactory",
      "createNewOracles(address,address,address)": {
        "notice": "createNewOracle allows the owner of this contract to deploy deploy two new asset oracle contracts when a new LP token is whitelisted. this contract will link the address of an LP token contract to two seperate oracles that are designed to look up the price of their respective assets in USDC. This will allow us to calculate the price of one at LP token token from the prices of their underlying assets"
      },
      "getUnderlyingPrice(address)": {
        "notice": "getUnderlyingPrice allows for the price calculation and retrieval of a LP tokens price"
      },
      "swapERC20(address,address,address,uint256,uint256)": {
        "notice": "swapERC20 is an external function that swaps one ERC20 token for another using WETH as a medium of exchange."
      },
      "viewUnderlyingPrice(address)": {
        "notice": "viewUnderlyingPrice allows for the price retrieval of a LP tokens price"
      }
    },
    "notice": "The UniswapLPOracleFactory contract is designed to produce individual UniswapLPOracleInstance contracts This contract uses the OpenZeppelin contract Library to inherit functions from Ownable.sol*"
  }
}