{
  "contractName": "UniswapOracleFactory",
  "abi": [
    {
      "inputs": [
        {
          "internalType": "address",
          "name": "usdcAdd",
          "type": "address"
        },
        {
          "internalType": "address",
          "name": "_uniFactoryAdd",
          "type": "address"
        }
      ],
      "stateMutability": "nonpayable",
      "type": "constructor"
    },
    {
      "anonymous": false,
      "inputs": [
        {
          "indexed": true,
          "internalType": "address",
          "name": "previousOwner",
          "type": "address"
        },
        {
          "indexed": true,
          "internalType": "address",
          "name": "newOwner",
          "type": "address"
        }
      ],
      "name": "OwnershipTransferred",
      "type": "event"
    },
    {
      "inputs": [],
      "name": "factory",
      "outputs": [
        {
          "internalType": "address",
          "name": "",
          "type": "address"
        }
      ],
      "stateMutability": "view",
      "type": "function"
    },
    {
      "inputs": [],
      "name": "owner",
      "outputs": [
        {
          "internalType": "address",
          "name": "",
          "type": "address"
        }
      ],
      "stateMutability": "view",
      "type": "function"
    },
    {
      "inputs": [],
      "name": "renounceOwnership",
      "outputs": [],
      "stateMutability": "nonpayable",
      "type": "function"
    },
    {
      "inputs": [
        {
          "internalType": "address",
          "name": "newOwner",
          "type": "address"
        }
      ],
      "name": "transferOwnership",
      "outputs": [],
      "stateMutability": "nonpayable",
      "type": "function"
    },
    {
      "inputs": [],
      "name": "uniswapRouter",
      "outputs": [
        {
          "internalType": "contract IUniswapV2Router02",
          "name": "",
          "type": "address"
        }
      ],
      "stateMutability": "view",
      "type": "function"
    },
    {
      "inputs": [],
      "name": "uniswap_router_add",
      "outputs": [
        {
          "internalType": "address",
          "name": "",
          "type": "address"
        }
      ],
      "stateMutability": "view",
      "type": "function"
    },
    {
      "inputs": [],
      "name": "usdc_add",
      "outputs": [
        {
          "internalType": "address",
          "name": "",
          "type": "address"
        }
      ],
      "stateMutability": "view",
      "type": "function"
    },
    {
      "inputs": [
        {
          "internalType": "address",
          "name": "_tokenA",
          "type": "address"
        },
        {
          "internalType": "address",
          "name": "_tokenB",
          "type": "address"
        },
        {
          "internalType": "address",
          "name": "_lpToken",
          "type": "address"
        }
      ],
      "name": "createNewOracles",
      "outputs": [],
      "stateMutability": "nonpayable",
      "type": "function"
    },
    {
      "inputs": [
        {
          "internalType": "address",
          "name": "_lpToken",
          "type": "address"
        }
      ],
      "name": "getUnderlyingPrice",
      "outputs": [
        {
          "internalType": "uint256",
          "name": "",
          "type": "uint256"
        }
      ],
      "stateMutability": "nonpayable",
      "type": "function"
    },
    {
      "inputs": [
        {
          "internalType": "address",
          "name": "_lpToken",
          "type": "address"
        }
      ],
      "name": "viewUnderlyingPrice",
      "outputs": [
        {
          "internalType": "uint256",
          "name": "",
          "type": "uint256"
        }
      ],
      "stateMutability": "view",
      "type": "function"
    },
    {
      "inputs": [
        {
          "internalType": "address",
          "name": "_tokenA",
          "type": "address"
        },
        {
          "internalType": "address",
          "name": "_tokenB",
          "type": "address"
        },
        {
          "internalType": "address",
          "name": "_to",
          "type": "address"
        },
        {
          "internalType": "uint256",
          "name": "_amountIn",
          "type": "uint256"
        },
        {
          "internalType": "uint256",
          "name": "_amountOutMin",
          "type": "uint256"
        }
      ],
      "name": "swapERC20",
      "outputs": [],
      "stateMutability": "nonpayable",
      "type": "function"
    }
  ],
  "bytecode": "0x6080604052600180546001600160a01b031916737a250d5630b4cf539739df2c5dacb4c659f2488d17905534801561003657600080fd5b506040516123ea3803806123ea8339818101604052604081101561005957600080fd5b50805160209091015160006100756001600160e01b0361010216565b600080546001600160a01b0319166001600160a01b0383169081178255604051929350917f8be0079c531659141344cd1fd0a4f28419497f9722a3daafe3b4186f6b6457e0908290a350600154600480546001600160a01b039283166001600160a01b03199182161790915560028054821694831694909417909355600380549093169116179055610106565b3390565b6122d5806101156000396000f3fe60806040523480156200001157600080fd5b5060043610620000b85760003560e01c80639adc328b116200007b5780639adc328b146200013e578063b04c6d3f1462000148578063c45a01551462000183578063f0defe93146200018d578063f2fde38b14620001d2578063fc57d4df14620001fb57620000b8565b8063715018a614620000bd578063735de9f714620000c95780638c8b685114620000ef5780638da5cb5b14620000f95780639485bada1462000103575b600080fd5b620000c762000224565b005b620000d3620002ca565b604080516001600160a01b039092168252519081900360200190f35b620000d3620002d9565b620000d3620002e8565b620000c7600480360360608110156200011b57600080fd5b506001600160a01b038135811691602081013582169160409091013516620002f8565b620000d3620004b5565b62000171600480360360208110156200016057600080fd5b50356001600160a01b0316620004c4565b60408051918252519081900360200190f35b620000d3620007d5565b620000c7600480360360a0811015620001a557600080fd5b506001600160a01b03813581169160208101358216916040820135169060608101359060800135620007e4565b620000c760048036036020811015620001ea57600080fd5b50356001600160a01b031662000988565b62000171600480360360208110156200021357600080fd5b50356001600160a01b031662000a86565b6200022e62000bf4565b6000546001600160a01b0390811691161462000280576040805162461bcd60e51b8152602060048201819052602482015260008051602062002280833981519152604482015290519081900360640190fd5b600080546040516001600160a01b03909116907f8be0079c531659141344cd1fd0a4f28419497f9722a3daafe3b4186f6b6457e0908390a3600080546001600160a01b0319169055565b6004546001600160a01b031681565b6001546001600160a01b031681565b6000546001600160a01b03165b90565b6200030262000bf4565b6000546001600160a01b0390811691161462000354576040805162461bcd60e51b8152602060048201819052602482015260008051602062002280833981519152604482015290519081900360640190fd5b6003546002546040516000926001600160a01b039081169287929116906200037c906200114b565b6001600160a01b03938416815291831660208301529091166040808301919091525190819003606001906000f080158015620003bc573d6000803e3d6000fd5b506003546002546040519293506000926001600160a01b039283169287921690620003e7906200114b565b6001600160a01b03938416815291831660208301529091166040808301919091525190819003606001906000f08015801562000427573d6000803e3d6000fd5b506040805180820182526001600160a01b03808616825280841660208084019190915290871660009081526005909152919091209192506200046c9190600262001159565b506001600160a01b0391821660009081526006602052604080822080549785166001600160a01b0319988916179055918316815220805493909116929093169190911790915550565b6002546001600160a01b031681565b6001600160a01b038116600090815260056020908152604080832080548251818502810185019093528083526060938301828280156200052e57602002820191906000526020600020905b81546001600160a01b031681526001909101906020018083116200050f575b505050505090506000816000815181106200054557fe5b602002602001015190506000826001815181106200055f57fe5b602002602001015190506000826001600160a01b031663d7dcdcec6040518163ffffffff1660e01b815260040160206040518083038186803b158015620005a557600080fd5b505afa158015620005ba573d6000803e3d6000fd5b505050506040513d6020811015620005d157600080fd5b5051604080516335f7373b60e21b815290519192506000916001600160a01b0385169163d7dcdcec916004808301926020929190829003018186803b1580156200061a57600080fd5b505afa1580156200062f573d6000803e3d6000fd5b505050506040513d60208110156200064657600080fd5b5051604080516318160ddd60e01b8152905191925088916000916001600160a01b038416916318160ddd91600480820192602092909190829003018186803b1580156200069257600080fd5b505afa158015620006a7573d6000803e3d6000fd5b505050506040513d6020811015620006be57600080fd5b5051600354885191925060009182916200076a916001600160a01b039091169060069084908d908290620006ee57fe5b60200260200101516001600160a01b03166001600160a01b0316815260200190815260200160002060009054906101000a90046001600160a01b0316600660008d6001815181106200073c57fe5b6020908102919091018101516001600160a01b03908116835290820192909252604001600020541662000bf8565b9092509050600062000783838863ffffffff62000cc816565b9050600062000799838863ffffffff62000cc816565b90506000620007af838363ffffffff62000d3416565b9050620007c3818763ffffffff62000d8416565b9e9d5050505050505050505050505050565b6003546001600160a01b031681565b600454603c4201906001600160a01b03166338ed17398484620008088a8a62000dcf565b88866040518663ffffffff1660e01b81526004018086815260200185815260200180602001846001600160a01b03166001600160a01b03168152602001838152602001828103825285818151815260200191508051906020019060200280838360005b83811015620008855781810151838201526020016200086b565b505050509050019650505050505050600060405180830381600087803b158015620008af57600080fd5b505af1158015620008c4573d6000803e3d6000fd5b505050506040513d6000823e601f3d908101601f191682016040526020811015620008ee57600080fd5b81019080805160405193929190846401000000008211156200090f57600080fd5b9083019060208201858111156200092557600080fd5b82518660208202830111640100000000821117156200094357600080fd5b82525081516020918201928201910280838360005b838110156200097257818101518382015260200162000958565b5050505090500160405250505050505050505050565b6200099262000bf4565b6000546001600160a01b03908116911614620009e4576040805162461bcd60e51b8152602060048201819052602482015260008051602062002280833981519152604482015290519081900360640190fd5b6001600160a01b03811662000a2b5760405162461bcd60e51b8152600401808060200182810382526026815260200180620022356026913960400191505060405180910390fd5b600080546040516001600160a01b03808516939216917f8be0079c531659141344cd1fd0a4f28419497f9722a3daafe3b4186f6b6457e091a3600080546001600160a01b0319166001600160a01b0392909216919091179055565b6001600160a01b0381166000908152600560209081526040808320805482518185028101850190935280835260609383018282801562000af057602002820191906000526020600020905b81546001600160a01b0316815260019091019060200180831162000ad1575b5050505050905060008160008151811062000b0757fe5b6020026020010151905060008260018151811062000b2157fe5b602002602001015190506000826001600160a01b0316637eeda7036040518163ffffffff1660e01b8152600401602060405180830381600087803b15801562000b6957600080fd5b505af115801562000b7e573d6000803e3d6000fd5b505050506040513d602081101562000b9557600080fd5b505160408051637eeda70360e01b815290519192506000916001600160a01b03851691637eeda70391600480830192602092919082900301818787803b15801562000bdf57600080fd5b505af11580156200062f573d6000803e3d6000fd5b3390565b600080600062000c09858562000eff565b50905060008062000c1c88888862000fe2565b6001600160a01b0316630902f1ac6040518163ffffffff1660e01b815260040160606040518083038186803b15801562000c5557600080fd5b505afa15801562000c6a573d6000803e3d6000fd5b505050506040513d606081101562000c8157600080fd5b5080516020909101516001600160701b0391821693501690506001600160a01b038781169084161462000cb657808262000cb9565b81815b90999098509650505050505050565b600081158062000ce55750508082028282828162000ce257fe5b04145b62000d2e576040805162461bcd60e51b815260206004820152601460248201527364732d6d6174682d6d756c2d6f766572666c6f7760601b604482015290519081900360640190fd5b92915050565b8082018281101562000d2e576040805162461bcd60e51b815260206004820152601460248201527364732d6d6174682d6164642d6f766572666c6f7760601b604482015290519081900360640190fd5b600062000dc883836040518060400160405280601a81526020017f536166654d6174683a206469766973696f6e206279207a65726f000000000000815250620010a4565b9392505050565b60408051600380825260808201909252606091829190602082018380368337019050509050838160008151811062000e0357fe5b60200260200101906001600160a01b031690816001600160a01b031681525050600460009054906101000a90046001600160a01b03166001600160a01b031663ad5c46486040518163ffffffff1660e01b815260040160206040518083038186803b15801562000e7257600080fd5b505afa15801562000e87573d6000803e3d6000fd5b505050506040513d602081101562000e9e57600080fd5b505181518290600190811062000eb057fe5b60200260200101906001600160a01b031690816001600160a01b031681525050828160028151811062000edf57fe5b6001600160a01b0390921660209283029190910190910152905092915050565b600080826001600160a01b0316846001600160a01b0316141562000f555760405162461bcd60e51b81526004018080602001828103825260258152602001806200225b6025913960400191505060405180910390fd5b826001600160a01b0316846001600160a01b03161062000f7757828462000f7a565b83835b90925090506001600160a01b03821662000fdb576040805162461bcd60e51b815260206004820152601e60248201527f556e697377617056324c6962726172793a205a45524f5f414444524553530000604482015290519081900360640190fd5b9250929050565b600080600062000ff3858562000eff565b604080516bffffffffffffffffffffffff19606094851b811660208084019190915293851b81166034830152825160288184030181526048830184528051908501206001600160f81b031960688401529a90941b9093166069840152607d8301989098527f96e8ac4277198ff8b6f785478aa9a39f403cb768dd02cbee326c3e7da348845f609d808401919091528851808403909101815260bd909201909752805196019590952095945050505050565b60008183620011345760405162461bcd60e51b81526004018080602001828103825283818151815260200191508051906020019080838360005b83811015620010f8578181015183820152602001620010de565b50505050905090810190601f168015620011265780820380516001836020036101000a031916815260200191505b509250505060405180910390fd5b5060008385816200114157fe5b0495945050505050565b61104a80620011eb83390190565b828054828255906000526020600020908101928215620011b1579160200282015b82811115620011b157825182546001600160a01b0319166001600160a01b039091161782556020909201916001909101906200117a565b50620011bf929150620011c3565b5090565b620002f591905b80821115620011bf5780546001600160a01b0319168155600101620011ca56fe60806040523480156200001157600080fd5b506040516200104a3803806200104a833981810160405260608110156200003757600080fd5b508051602082015160409092015190919060006200005d6001600160e01b036200036e16565b600080546001600160a01b0319166001600160a01b0383169081178255604051929350917f8be0079c531659141344cd1fd0a4f28419497f9722a3daafe3b4186f6b6457e0908290a3506000620000c18484846200037260201b620008a11760201c565b905080600160006101000a8154816001600160a01b0302191690836001600160a01b03160217905550806001600160a01b0316630dfe16816040518163ffffffff1660e01b815260040160206040518083038186803b1580156200012457600080fd5b505afa15801562000139573d6000803e3d6000fd5b505050506040513d60208110156200015057600080fd5b5051600280546001600160a01b0319166001600160a01b039283161790556040805163d21220a760e01b815290519183169163d21220a791600480820192602092909190829003018186803b158015620001a957600080fd5b505afa158015620001be573d6000803e3d6000fd5b505050506040513d6020811015620001d557600080fd5b5051600380546001600160a01b0319166001600160a01b0392831617905560408051635909c0d560e01b8152905191831691635909c0d591600480820192602092909190829003018186803b1580156200022e57600080fd5b505afa15801562000243573d6000803e3d6000fd5b505050506040513d60208110156200025a57600080fd5b5051600490815560408051635a3d549360e01b815290516001600160a01b03841692635a3d549392808201926020929091829003018186803b158015620002a057600080fd5b505afa158015620002b5573d6000803e3d6000fd5b505050506040513d6020811015620002cc57600080fd5b505160055560408051630240bc6b60e21b8152905160009182916001600160a01b03851691630902f1ac916004808301926060929190829003018186803b1580156200031757600080fd5b505afa1580156200032c573d6000803e3d6000fd5b505050506040513d60608110156200034357600080fd5b50604001516006805463ffffffff191663ffffffff9092169190911790555062000532945050505050565b3390565b600080806200038b85856001600160e01b036200044f16565b604080516001600160601b0319606094851b811660208084019190915293851b81166034830152825160288184030181526048830184528051908501207fff0000000000000000000000000000000000000000000000000000000000000060688401529a90941b9093166069840152607d8301989098527f96e8ac4277198ff8b6f785478aa9a39f403cb768dd02cbee326c3e7da348845f609d808401919091528851808403909101815260bd909201909752805196019590952095945050505050565b600080826001600160a01b0316846001600160a01b03161415620004a55760405162461bcd60e51b8152600401808060200182810382526025815260200180620010256025913960400191505060405180910390fd5b826001600160a01b0316846001600160a01b031610620004c7578284620004ca565b83835b90925090506001600160a01b0382166200052b576040805162461bcd60e51b815260206004820152601e60248201527f556e697377617056324c6962726172793a205a45524f5f414444524553530000604482015290519081900360640190fd5b9250929050565b610ae380620005426000396000f3fe608060405234801561001057600080fd5b50600436106100d55760003560e01c8063a2e6204511610087578063a2e620451461015e578063a6bb453914610166578063a8aa1b311461016e578063b4d1d79514610176578063c5700a021461017e578063d21220a71461019f578063d7dcdcec146101a7578063f2fde38b146101af576100d5565b80630dfe1681146100da5780635909c0d5146100fe5780635a3d5493146101185780635e6aaf2c14610120578063715018a6146101445780637eeda7031461014e5780638da5cb5b14610156575b600080fd5b6100e26101d5565b604080516001600160a01b039092168252519081900360200190f35b6101066101e4565b60408051918252519081900360200190f35b6101066101ea565b6101286101f0565b604080516001600160e01b039092168252519081900360200190f35b61014c6101ff565b005b6101066102b3565b6100e26102fe565b61014c61030d565b6101286103fc565b6100e261040b565b61010661041a565b610186610421565b6040805163ffffffff9092168252519081900360200190f35b6100e261042d565b61010661043c565b61014c600480360360208110156101c557600080fd5b50356001600160a01b031661046d565b6002546001600160a01b031681565b60045481565b60055481565b6008546001600160e01b031681565b610207610577565b6000546001600160a01b03908116911614610269576040805162461bcd60e51b815260206004820181905260248201527f4f776e61626c653a2063616c6c6572206973206e6f7420746865206f776e6572604482015290519081900360640190fd5b600080546040516001600160a01b03909116907f8be0079c531659141344cd1fd0a4f28419497f9722a3daafe3b4186f6b6457e0908390a3600080546001600160a01b0319169055565b60006102bd61030d565b60408051602081019091526007546001600160e01b031681526102f0906102eb90600163ffffffff61057b16565b6105f9565b6001600160901b0316905090565b6000546001600160a01b031690565b60015460009081908190610329906001600160a01b0316610600565b600654929550909350915063ffffffff90811682039062015180908216106103f65760405180602001604052808263ffffffff1660045487038161036957fe5b046001600160e01b039081169091529051600780546001600160e01b031916919092161790556040805160208101909152600554819063ffffffff8416908603816103b057fe5b046001600160e01b039081169091529051600880546001600160e01b03191691909216179055600484905560058390556006805463ffffffff191663ffffffff84161790555b50505050565b6007546001600160e01b031681565b6001546001600160a01b031681565b6201518081565b60065463ffffffff1681565b6003546001600160a01b031681565b60408051602081019091526007546001600160e01b031681526000906102f0906102eb90600163ffffffff61057b16565b610475610577565b6000546001600160a01b039081169116146104d7576040805162461bcd60e51b815260206004820181905260248201527f4f776e61626c653a2063616c6c6572206973206e6f7420746865206f776e6572604482015290519081900360640190fd5b6001600160a01b03811661051c5760405162461bcd60e51b8152600401808060200182810382526026815260200180610a406026913960400191505060405180910390fd5b600080546040516001600160a01b03808516939216917f8be0079c531659141344cd1fd0a4f28419497f9722a3daafe3b4186f6b6457e091a3600080546001600160a01b0319166001600160a01b0392909216919091179055565b3390565b61058361087c565b60008215806105a957505082516001600160e01b0316828102908382816105a657fe5b04145b6105e45760405162461bcd60e51b8152600401808060200182810382526023815260200180610a8b6023913960400191505060405180910390fd5b60408051602081019091529081529392505050565b5160701c90565b600080600061060d6107cf565b9050836001600160a01b0316635909c0d56040518163ffffffff1660e01b815260040160206040518083038186803b15801561064857600080fd5b505afa15801561065c573d6000803e3d6000fd5b505050506040513d602081101561067257600080fd5b505160408051635a3d549360e01b815290519194506001600160a01b03861691635a3d549391600480820192602092909190829003018186803b1580156106b857600080fd5b505afa1580156106cc573d6000803e3d6000fd5b505050506040513d60208110156106e257600080fd5b505160408051630240bc6b60e21b81529051919350600091829182916001600160a01b03891691630902f1ac916004808301926060929190829003018186803b15801561072e57600080fd5b505afa158015610742573d6000803e3d6000fd5b505050506040513d606081101561075857600080fd5b5080516020820151604090920151909450909250905063ffffffff808216908516146107c55780840363ffffffff811661079284866107d9565b516001600160e01b031602969096019563ffffffff81166107b385856107d9565b516001600160e01b0316029590950194505b5050509193909250565b63ffffffff421690565b6107e161088f565b6000826001600160701b031611610839576040805162461bcd60e51b81526020600482015260176024820152764669786564506f696e743a204449565f42595f5a45524f60481b604482015290519081900360640190fd5b6040805160208101909152806001600160701b038416600160701b600160e01b03607087901b168161086757fe5b046001600160e01b0316815250905092915050565b6040518060200160405280600081525090565b60408051602081019091526000815290565b60008060006108b08585610961565b604080516bffffffffffffffffffffffff19606094851b811660208084019190915293851b81166034830152825160288184030181526048830184528051908501206001600160f81b031960688401529a90941b9093166069840152607d8301989098527f96e8ac4277198ff8b6f785478aa9a39f403cb768dd02cbee326c3e7da348845f609d808401919091528851808403909101815260bd909201909752805196019590952095945050505050565b600080826001600160a01b0316846001600160a01b031614156109b55760405162461bcd60e51b8152600401808060200182810382526025815260200180610a666025913960400191505060405180910390fd5b826001600160a01b0316846001600160a01b0316106109d55782846109d8565b83835b90925090506001600160a01b038216610a38576040805162461bcd60e51b815260206004820152601e60248201527f556e697377617056324c6962726172793a205a45524f5f414444524553530000604482015290519081900360640190fd5b925092905056fe4f776e61626c653a206e6577206f776e657220697320746865207a65726f2061646472657373556e697377617056324c6962726172793a204944454e544943414c5f4144445245535345534669786564506f696e743a204d554c5449504c49434154494f4e5f4f564552464c4f57a26469706673582212202a0d2d679a1a501e7b3f7ab644cb049319a2ff91643e1e12e0aa0166944dc79d64736f6c63430006060033556e697377617056324c6962726172793a204944454e544943414c5f4144445245535345534f776e61626c653a206e6577206f776e657220697320746865207a65726f2061646472657373556e697377617056324c6962726172793a204944454e544943414c5f4144445245535345534f776e61626c653a2063616c6c6572206973206e6f7420746865206f776e6572a26469706673582212201602b0c66b99b30858384b045be0e907591d046fea43276fb8954498a7e6e89b64736f6c63430006060033",
  "immutableReferences": {},
  "source": "pragma solidity ^0.6.2;\n\nimport \"@openzeppelin/contracts/access/Ownable.sol\";\n\nimport '@uniswap/v2-periphery/contracts/UniswapV2Router02.sol';\nimport '@uniswap/v2-periphery/contracts/libraries/UniswapV2Library.sol';\nimport \"./UniswapOracleInstance.sol\";\n\n\n////////////////////////////////////////////////////////////////////////////////////////////\n/// @title UniswapOracleFactory\n/// @author Christopher Dixon\n////////////////////////////////////////////////////////////////////////////////////////////\n/**\nThe UniswapOracleFactory contract is designed to produce individual UniswapOracleInstance contracts\nThis contract uses the OpenZeppelin contract Library to inherit functions from\n  Ownable.sol\n**/\n\ncontract UniswapOracleFactory is Ownable {\n  using SafeMath for uint;\n  address public uniswap_router_add = 0x7a250d5630B4cF539739dF2C5dAcb4c659F2488D;\n  address public usdc_add;\n  address public factory;\n  IUniswapV2Router02 public uniswapRouter;\n\nmapping(address => address[]) LPAssetTracker;\nmapping(address => address) instanceTracker;\n\n/**\n@notice constructor function is fired once during contract creation. This constructor initializes uniswapRouter\n        as a usable contract instance within the UniswapOracleFactory\n@param usdcAdd is the address of the ERC20 USDC address\n@param _uniFactoryAdd is the address of the uniswap factory contract\n**/\nconstructor(address usdcAdd, address _uniFactoryAdd) public {\n  uniswapRouter = IUniswapV2Router02(uniswap_router_add);\n  usdc_add = usdcAdd;\n  factory = _uniFactoryAdd;\n}\n\n  /**\n  @notice createNewOracle allows the owner of this contract to deploy deploy two new asset oracle contracts\n          when a new LP token is whitelisted. this contract will link the address of an LP token contract to\n          two seperate oracles that are designed to look up the price of their respective assets in USDC. This\n          will allow us to calculate the price of one at LP token token from the prices of their underlying assets\n\n  @param _tokenA is the address of the first token in an Liquidity pair\n  @param _tokenB is the address of the second token in a liquidity pair\n  @param _lpToken is the address of the token that this oracle will provide a price feed for\n\n\n  **/\n  function createNewOracles(\n    address _tokenA,\n    address _tokenB,\n    address _lpToken\n  )\n  public\n  onlyOwner\n  {\n\n    address _oracle1 = address(new UniswapOracleInstance (\n       factory,\n       _tokenA,\n       usdc_add\n    ));\n\n    address _oracle2 = address(new UniswapOracleInstance (\n       factory,\n       _tokenB,\n       usdc_add\n    ));\n\n    LPAssetTracker[_lpToken] = [_oracle1, _oracle2];\n    instanceTracker[_oracle1] = _tokenA;\n    instanceTracker[_oracle2] = _tokenB;\n  }\n\n\n\n/**\n@notice getUnderlyingPrice allows for the price calculation and retrieval of a LP tokens price\n@param _lpToken is the address of the LP token  whos asset price is being retrieved\n@return returns the price of one LP token\n**/\n  function getUnderlyingPrice(address _lpToken) public  returns(uint) {\n    address[] memory oracleAdds = LPAssetTracker[_lpToken];\n    //retreives the oracle contract addresses for each asset that makes up a LP\n    UniswapOracleInstance oracle1 = UniswapOracleInstance(oracleAdds[0]);\n    UniswapOracleInstance oracle2 = UniswapOracleInstance(oracleAdds[1]);\n    // instantiates both ase usable oracle instances\n    uint priceAsset1 = oracle1.consult();\n    uint priceAsset2 = oracle2.consult();\n    //retreives the USDC price of one of each asset\n    IERC20 lpToken = IERC20(_lpToken);\n    //instantiates the LP token as an ERC20 token\n    uint totalSupplyOfLP = lpToken.totalSupply();\n    //retreives the total supply of the LP token\n    (uint reserveA, uint reserveB) = UniswapV2Library.getReserves( factory,  instanceTracker[oracleAdds[0]],  instanceTracker[oracleAdds[1]]);\n    //retreives the reserves of each  asset in the liquidity pool\n    uint reserveAUSDCprice = reserveA.mul(priceAsset1);\n    uint reserveBUSDCprice = reserveB.mul(priceAsset2);\n    //get USDC value for each reserve\n    uint totalUSDCpriceOfPool = reserveAUSDCprice.add(reserveBUSDCprice);\n    //add values together to get total USDC of the pool\n    return totalUSDCpriceOfPool.div(totalSupplyOfLP);\n    //return USDC price of the pool divided by totalSupply of its LPs to get price\n    //of one LP\n  }\n\n  /**\n  @notice viewUnderlyingPrice allows for the price retrieval of a LP tokens price\n  @param _lpToken is the address of the LP token  whos asset price is being retrieved\n  @return returns the price of one LP token\n  **/\n    function viewUnderlyingPrice(address _lpToken) public view returns(uint) {\n      address[] memory oracleAdds = LPAssetTracker[_lpToken];\n      //retreives the oracle contract addresses for each asset that makes up a LP\n      UniswapOracleInstance oracle1 = UniswapOracleInstance(oracleAdds[0]);\n      UniswapOracleInstance oracle2 = UniswapOracleInstance(oracleAdds[1]);\n      // instantiates both ase usable oracle instances\n      uint priceAsset1 = oracle1.viewPrice();\n      uint priceAsset2 = oracle2.viewPrice();\n      //retreives the USDC price of one of each asset\n      IERC20 lpToken = IERC20(_lpToken);\n      //instantiates the LP token as an ERC20 token\n      uint totalSupplyOfLP = lpToken.totalSupply();\n      //retreives the total supply of the LP token\n      (uint reserveA, uint reserveB) = UniswapV2Library.getReserves( factory,  instanceTracker[oracleAdds[0]],  instanceTracker[oracleAdds[1]]);\n      //retreives the reserves of each  asset in the liquidity pool\n      uint reserveAUSDCprice = reserveA.mul(priceAsset1);\n      uint reserveBUSDCprice = reserveB.mul(priceAsset2);\n      //get USDC value for each reserve\n      uint totalUSDCpriceOfPool = reserveAUSDCprice.add(reserveBUSDCprice);\n      //add values together to get total USDC of the pool\n      return totalUSDCpriceOfPool.div(totalSupplyOfLP);\n      //return USDC price of the pool divided by totalSupply of its LPs to get price\n      //of one LP\n    }\n\n/**\n@notice getPathForERC20Swap is an internal function used to create a uniswap trade path for two input\n        ERC20 tokens using WETH as a medium of exchange.\n@param _tokenA is the address of the token being exchanged from\n@param _tokenB is the address of the token being exchanged to\n@dev example: LINK => Augur swap _tokenA would be LINK address while _tokenB would be Augur Address\n**/\n  function getPathForERC20Swap(address _tokenA, address _tokenB) private view returns (address[] memory) {\n    address[] memory path = new address[](3);\n    path[0] = _tokenA;\n    path[1] = uniswapRouter.WETH();\n    path[2] = _tokenB;\n\n    return path;\n  }\n\n/**\n@notice swapERC20 is an external function that swaps one ERC20 token for another\n        using WETH as a medium of exchange.\n@param _tokenA is the address of the token being exchanged from\n@param _tokenB is the address of the token being exchanged to\n@param _to is the address of the MoneyMarketInstance calling this function\n@param _amountIn is the amount of _tokenA being exchanged\n@param _amountOutMin is the minimum amount of _tokenB to be received\n@dev example: LINK => Augur swap _tokenA would be LINK address while _tokenB would be Augur Address\n@dev _amountOutMin will need to be atleast enough to cover the cost of collateral liquidation\n      (loan amount +i nterest) and its liquidation fee amount.\n**/\n  function swapERC20(\n    address _tokenA,\n    address _tokenB,\n    address _to,\n    uint _amountIn,\n    uint _amountOutMin\n  ) external {\n    uint deadline = block.timestamp + 60;\n    uniswapRouter.swapExactTokensForTokens(\n      _amountIn,\n      _amountOutMin,\n      getPathForERC20Swap(_tokenA, _tokenB),\n      _to,\n      deadline\n    );\n  }\n\n\n}\n",
  "sourcePath": "/home/stan36/repos/Warp/Smart-Contracts/contracts/UniswapOracleFactory.sol",
  "compiler": {
    "name": "solc",
    "version": "0.6.6+commit.6c089d02.Emscripten.clang"
  },
  "schemaVersion": "3.2.4",
  "updatedAt": "2020-10-27T20:45:18.242Z",
  "devdoc": {
    "methods": {
      "constructor": {
        "params": {
          "_uniFactoryAdd": "is the address of the uniswap factory contract*",
          "usdcAdd": "is the address of the ERC20 USDC address"
        }
      },
      "createNewOracles(address,address,address)": {
        "params": {
          "_lpToken": "is the address of the token that this oracle will provide a price feed for*",
          "_tokenA": "is the address of the first token in an Liquidity pair",
          "_tokenB": "is the address of the second token in a liquidity pair"
        }
      },
      "getUnderlyingPrice(address)": {
        "params": {
          "_lpToken": "is the address of the LP token  whos asset price is being retrieved"
        },
        "returns": {
          "_0": "returns the price of one LP token*"
        }
      },
      "owner()": {
        "details": "Returns the address of the current owner."
      },
      "renounceOwnership()": {
        "details": "Leaves the contract without owner. It will not be possible to call `onlyOwner` functions anymore. Can only be called by the current owner.     * NOTE: Renouncing ownership will leave the contract without an owner, thereby removing any functionality that is only available to the owner."
      },
      "swapERC20(address,address,address,uint256,uint256)": {
        "details": "example: LINK => Augur swap _tokenA would be LINK address while _tokenB would be Augur Address_amountOutMin will need to be atleast enough to cover the cost of collateral liquidation (loan amount +i nterest) and its liquidation fee amount.*",
        "params": {
          "_amountIn": "is the amount of _tokenA being exchanged",
          "_amountOutMin": "is the minimum amount of _tokenB to be received",
          "_to": "is the address of the MoneyMarketInstance calling this function",
          "_tokenA": "is the address of the token being exchanged from",
          "_tokenB": "is the address of the token being exchanged to"
        }
      },
      "transferOwnership(address)": {
        "details": "Transfers ownership of the contract to a new account (`newOwner`). Can only be called by the current owner."
      },
      "viewUnderlyingPrice(address)": {
        "params": {
          "_lpToken": "is the address of the LP token  whos asset price is being retrieved"
        },
        "returns": {
          "_0": "returns the price of one LP token*"
        }
      }
    }
  },
  "userdoc": {
    "methods": {
      "constructor": "constructor function is fired once during contract creation. This constructor initializes uniswapRouter as a usable contract instance within the UniswapOracleFactory",
      "createNewOracles(address,address,address)": {
        "notice": "createNewOracle allows the owner of this contract to deploy deploy two new asset oracle contracts when a new LP token is whitelisted. this contract will link the address of an LP token contract to two seperate oracles that are designed to look up the price of their respective assets in USDC. This will allow us to calculate the price of one at LP token token from the prices of their underlying assets"
      },
      "getUnderlyingPrice(address)": {
        "notice": "getUnderlyingPrice allows for the price calculation and retrieval of a LP tokens price"
      },
      "swapERC20(address,address,address,uint256,uint256)": {
        "notice": "swapERC20 is an external function that swaps one ERC20 token for another using WETH as a medium of exchange."
      },
      "viewUnderlyingPrice(address)": {
        "notice": "viewUnderlyingPrice allows for the price retrieval of a LP tokens price"
      }
    },
    "notice": "The UniswapOracleFactory contract is designed to produce individual UniswapOracleInstance contracts This contract uses the OpenZeppelin contract Library to inherit functions from Ownable.sol*"
  }
}