{
  "contractName": "WarpVaultSCFactory",
  "abi": [
    {
      "anonymous": false,
      "inputs": [
        {
          "indexed": true,
          "internalType": "address",
          "name": "previousOwner",
          "type": "address"
        },
        {
          "indexed": true,
          "internalType": "address",
          "name": "newOwner",
          "type": "address"
        }
      ],
      "name": "OwnershipTransferred",
      "type": "event"
    },
    {
      "inputs": [],
      "name": "owner",
      "outputs": [
        {
          "internalType": "address",
          "name": "",
          "type": "address"
        }
      ],
      "stateMutability": "view",
      "type": "function",
      "constant": true
    },
    {
      "inputs": [],
      "name": "renounceOwnership",
      "outputs": [],
      "stateMutability": "nonpayable",
      "type": "function"
    },
    {
      "inputs": [
        {
          "internalType": "address",
          "name": "newOwner",
          "type": "address"
        }
      ],
      "name": "transferOwnership",
      "outputs": [],
      "stateMutability": "nonpayable",
      "type": "function"
    },
    {
      "inputs": [
        {
          "internalType": "address",
          "name": "_InterestRate",
          "type": "address"
        },
        {
          "internalType": "address",
          "name": "_StableCoin",
          "type": "address"
        },
        {
          "internalType": "address",
          "name": "_warpTeam",
          "type": "address"
        },
        {
          "internalType": "uint256",
          "name": "_initialExchangeRate",
          "type": "uint256"
        },
        {
          "internalType": "uint256",
          "name": "_timelock",
          "type": "uint256"
        },
        {
          "internalType": "uint256",
          "name": "_reserveFactorMantissa",
          "type": "uint256"
        }
      ],
      "name": "createNewWarpVaultSC",
      "outputs": [
        {
          "internalType": "address",
          "name": "",
          "type": "address"
        }
      ],
      "stateMutability": "nonpayable",
      "type": "function"
    }
  ],
  "bytecode": "0x608060405260006100176001600160e01b0361006616565b600080546001600160a01b0319166001600160a01b0383169081178255604051929350917f8be0079c531659141344cd1fd0a4f28419497f9722a3daafe3b4186f6b6457e0908290a35061006a565b3390565b6143e4806100796000396000f3fe608060405234801561001057600080fd5b506004361061004c5760003560e01c8063715018a61461005157806378854a281461005b5780638da5cb5b146100bf578063f2fde38b146100c7575b600080fd5b6100596100ed565b005b6100a3600480360360c081101561007157600080fd5b506001600160a01b03813581169160208101358216916040820135169060608101359060808101359060a001356101a1565b604080516001600160a01b039092168252519081900360200190f35b6100a361028a565b610059600480360360208110156100dd57600080fd5b50356001600160a01b0316610299565b6100f56103a3565b6000546001600160a01b03908116911614610157576040805162461bcd60e51b815260206004820181905260248201527f4f776e61626c653a2063616c6c6572206973206e6f7420746865206f776e6572604482015290519081900360640190fd5b600080546040516001600160a01b03909116907f8be0079c531659141344cd1fd0a4f28419497f9722a3daafe3b4186f6b6457e0908390a3600080546001600160a01b0319169055565b60006101ab6103a3565b6000546001600160a01b0390811691161461020d576040805162461bcd60e51b815260206004820181905260248201527f4f776e61626c653a2063616c6c6572206973206e6f7420746865206f776e6572604482015290519081900360640190fd5b600087873388888888604051610222906103a7565b6001600160a01b0397881681529587166020870152938616604080870191909152929095166060850152608084015260a083019390935260c082015290519081900360e001906000f08015801561027d573d6000803e3d6000fd5b5098975050505050505050565b6000546001600160a01b031690565b6102a16103a3565b6000546001600160a01b03908116911614610303576040805162461bcd60e51b815260206004820181905260248201527f4f776e61626c653a2063616c6c6572206973206e6f7420746865206f776e6572604482015290519081900360640190fd5b6001600160a01b0381166103485760405162461bcd60e51b81526004018080602001828103825260268152602001806143896026913960400191505060405180910390fd5b600080546040516001600160a01b03808516939216917f8be0079c531659141344cd1fd0a4f28419497f9722a3daafe3b4186f6b6457e091a3600080546001600160a01b0319166001600160a01b0392909216919091179055565b3390565b613fd4806103b58339019056fe60806040526105dc6007556127106008553480156200001d57600080fd5b5060405162003fd438038062003fd4833981810160405260e08110156200004357600080fd5b508051602082015160408301516060840151608085015160a086015160c09096015194959394929391929091906000620000856001600160e01b036200052216565b600080546001600160a01b0319166001600160a01b0383169081178255604051929350917f8be0079c531659141344cd1fd0a4f28419497f9722a3daafe3b4186f6b6457e0908290a350600d80546001600160a01b038088166001600160a01b031992831617909255600b8054898416908316179055600e8054928a16929091169190911790556200011f6001600160e01b036200052616565b600355670de0b6b3a76400006004556001839055600a80546001600160a01b0319166001600160a01b0386161790556200016642836200052a602090811b62001f9617901c565b6009556002819055600b54604080516306fdde0360e01b815290516001600160a01b039092169182916306fdde03916004808301926000929190829003018186803b158015620001b557600080fd5b505afa158015620001ca573d6000803e3d6000fd5b505050506040513d6000823e601f3d908101601f191682016040526020811015620001f457600080fd5b81019080805160405193929190846401000000008211156200021557600080fd5b9083019060208201858111156200022b57600080fd5b82516401000000008111828201881017156200024657600080fd5b82525081516020918201929091019080838360005b83811015620002755781810151838201526020016200025b565b50505050905090810190601f168015620002a35780820380516001836020036101000a031916815260200191505b506040818152600b546395d89b4160e01b835290516001600160a01b0390911694506395d89b41935060048083019350600092829003018186803b158015620002eb57600080fd5b505afa15801562000300573d6000803e3d6000fd5b505050506040513d6000823e601f3d908101601f1916820160405260208110156200032a57600080fd5b81019080805160405193929190846401000000008211156200034b57600080fd5b9083019060208201858111156200036157600080fd5b82516401000000008111828201881017156200037c57600080fd5b82525081516020918201929091019080838360005b83811015620003ab57818101518382015260200162000391565b50505050905090810190601f168015620003d95780820380516001836020036101000a031916815260200191505b50604052505050604051620003ee906200058c565b6001600160a01b0384168152606060208083018281528551928401929092528451604084019160808501919087019080838360005b838110156200043d57818101518382015260200162000423565b50505050905090810190601f1680156200046b5780820380516001836020036101000a031916815260200191505b50838103825284518152845160209182019186019080838360005b83811015620004a057818101518382015260200162000486565b50505050905090810190601f168015620004ce5780820380516001836020036101000a031916815260200191505b5095505050505050604051809103906000f080158015620004f3573d6000803e3d6000fd5b50600c80546001600160a01b0319166001600160a01b0392909216919091179055506200059a95505050505050565b3390565b4390565b60008282018381101562000585576040805162461bcd60e51b815260206004820152601b60248201527f536166654d6174683a206164646974696f6e206f766572666c6f770000000000604482015290519081900360640190fd5b9392505050565b6113a18062002c3383390190565b61268980620005aa6000396000f3fe608060405234801561001057600080fd5b50600436106102485760003560e01c80638f7bf4fd1161013b578063bd6d894d116100b8578063e6136ab61161007c578063e6136ab614610557578063e68fc0ee1461057d578063e9cbd822146105a3578063f2fde38b146105ab578063f8f9da28146105d157610248565b8063bd6d894d146104e3578063cb7b4206146104eb578063cd5c6f57146104f3578063d40e8f4a146104fb578063db006a751461053a57610248565b8063a6afed95116100ff578063a6afed951461046f578063aa5af0fd14610477578063ab292f9b1461047f578063ae9d70b0146104b5578063b1be82f1146104bd57610248565b80638f7bf4fd146103e95780638f840ddd1461040f57806394d359901461041757806398aa8c331461043557806399a5d7471461045257610248565b806348dc0b6e116101c9578063715018a61161018d578063715018a61461037f57806373acee98146103875780637746efab1461038f5780638382ac0c146103b55780638da5cb5b146103e157610248565b806348dc0b6e146103575780634ee8acc01461035f5780635cf57389146103675780636c540baf1461036f57806370ba11131461037757610248565b8063232d46d211610210578063232d46d2146102d85780633662454d1461030457806336820e4b146103215780633b1d21a21461034757806347bd37181461034f57610248565b80630e7527021461024d578063122b58181461026c578063173b99041461029057806317bfdfbc146102aa5780631f2dc5ef146102d0575b600080fd5b61026a6004803603602081101561026357600080fd5b50356105d9565b005b61027461097a565b604080516001600160a01b039092168252519081900360200190f35b610298610989565b60408051918252519081900360200190f35b610298600480360360208110156102c057600080fd5b50356001600160a01b031661098f565b6102986109aa565b61026a600480360360408110156102ee57600080fd5b50803590602001356001600160a01b03166109b0565b61026a6004803603602081101561031a57600080fd5b5035610b58565b6102986004803603602081101561033757600080fd5b50356001600160a01b0316610b74565b610298610b86565b610298610b96565b610274610b9c565b610274610bab565b610274610bba565b610298610bc9565b610298610bcf565b61026a610bd5565b610298610c89565b610298600480360360208110156103a557600080fd5b50356001600160a01b0316610c9a565b61026a600480360360408110156103cb57600080fd5b50803590602001356001600160a01b0316610d3d565b610274610f5c565b610298600480360360208110156103ff57600080fd5b50356001600160a01b0316610f6b565b610298611020565b61041f611026565b6040805160ff9092168252519081900360200190f35b61026a6004803603602081101561044b57600080fd5b503561109c565b6102986004803603602081101561046857600080fd5b5035611184565b61026a6111b5565b61029861142a565b61026a6004803603606081101561049557600080fd5b506001600160a01b03813581169160208101359091169060400135611430565b61029861153c565b61026a600480360360208110156104d357600080fd5b50356001600160a01b03166115aa565b610298611636565b610298611787565b61029861178d565b6105216004803603602081101561051157600080fd5b50356001600160a01b03166117d2565b6040805192835260208301919091528051918290030190f35b61026a6004803603602081101561055057600080fd5b50356117eb565b6102986004803603602081101561056d57600080fd5b50356001600160a01b0316611c5c565b6102986004803603602081101561059357600080fd5b50356001600160a01b0316611d96565b610274611da8565b61026a600480360360208110156105c157600080fd5b50356001600160a01b0316611db7565b610298611ec1565b60095442116105e757600080fd5b6105ef6124f5565b6105f83361098f565b6060820181905282111561063d5760405162461bcd60e51b815260040180806020018281038252602c8152602001806125e1602c913960400191505060405180910390fd5b336000818152600f60208181526040808420805460e0880152949093525260019091015490820152816106795760608101516020820152610681565b602081018290525b602080820151600b54604080516370a0823160e01b8152336004820152905192936001600160a01b03909216926370a0823192602480840193919291829003018186803b1580156106d157600080fd5b505afa1580156106e5573d6000803e3d6000fd5b505050506040513d60208110156106fb57600080fd5b50511015610750576040805162461bcd60e51b815260206004820152601e60248201527f4e6f7420656e6f75676820737461626c65636f696e20746f2072657061790000604482015290519081900360640190fd5b600b54602080830151604080516323b872dd60e01b81523360048201523060248201526044810192909252516001600160a01b03909316926323b872dd926064808401939192918290030181600087803b1580156107ad57600080fd5b505af11580156107c1573d6000803e3d6000fd5b505050506040513d60208110156107d757600080fd5b5050606081015160208201516107ed9190611f25565b608083018190528282600381111561080157fe5b600381111561080c57fe5b81525050506108216005548260200151611f25565b60a083018190528282600381111561083557fe5b600381111561084057fe5b90525050336000908152600f60205260409020548211610881576080810151336000908152600f6020526040908190209182558201516001909101556108ea565b336000908152600f602052604090205460808201516108a59163ffffffff611f4b16565b6101008201908152336000908152600f6020526040812090815590516001909101546108d69163ffffffff611f4b16565b336000908152600f60205260409020600101555b60a0810151600555336000908152600f60205260409020600181015490546109179163ffffffff611f9616565b60c0820152336000818152600f602090815260409182902080546001909101548351948552918401869052838301526060830152517f0bc102cfc64751888477c44e529873a602bf746175b1e41c6b54e45f926f90f99181900360800190a15050565b600d546001600160a01b031681565b60025481565b60006109996111b5565b6109a282610c9a565b90505b919050565b60085481565b600d546001600160a01b031633146109c757600080fd5b60095442116109d557600080fd5b6109dd612542565b826109e6611ff0565b11610a38576040805162461bcd60e51b815260206004820152601960248201527f4e6f7420656e6f75676820746f6b656e7320746f206c656e6400000000000000604482015290519081900360640190fd5b610a4182610c9a565b60208201819052610a52908461203b565b6040830181905282826003811115610a6657fe5b6003811115610a7157fe5b8152505050610a826005548461203b565b6060830181905282826003811115610a9657fe5b6003811115610aa157fe5b905250506040808201516001600160a01b038085166000818152600f6020908152858220948555600480546001909601959095556060870151600555600b54865163a9059cbb60e01b815295860193909352602485018990529451919092169363a9059cbb93604480820194929392918390030190829087803b158015610b2757600080fd5b505af1158015610b3b573d6000803e3d6000fd5b505050506040513d6020811015610b5157600080fd5b5050505050565b600a546001600160a01b03163314610b6f57600080fd5b600255565b60116020526000908152604090205481565b6000610b90611ff0565b90505b90565b60055481565b600e546001600160a01b031681565b600c546001600160a01b031681565b600a546001600160a01b031681565b60035481565b60075481565b610bdd612061565b6000546001600160a01b03908116911614610c3f576040805162461bcd60e51b815260206004820181905260248201527f4f776e61626c653a2063616c6c6572206973206e6f7420746865206f776e6572604482015290519081900360640190fd5b600080546040516001600160a01b03909116907f8be0079c531659141344cd1fd0a4f28419497f9722a3daafe3b4186f6b6457e0908390a3600080546001600160a01b0319169055565b6000610c936111b5565b5060055490565b6001600160a01b0381166000908152600f60205260408120805482918291829190610ccc5760009450505050506109a5565b610cdc8160000154600454612065565b90945092506000846003811115610cef57fe5b14610d015760009450505050506109a5565b610d0f8382600101546120a4565b90945091506000846003811115610d2257fe5b14610d345760009450505050506109a5565b50949350505050565b610d4561256b565b610d4d611636565b602080830191825260408051918201905290518152610d6d9084906120cf565b6040830181905282826003811115610d8157fe5b6003811115610d8c57fe5b90525050600b54604080516323b872dd60e01b81523360048201523060248201526044810186905290516001600160a01b03909216916323b872dd916064808201926020929091908290030181600087803b158015610dea57600080fd5b505af1158015610dfe573d6000803e3d6000fd5b505050506040513d6020811015610e1457600080fd5b50503360009081526010602052604090208054840190556009544211610ea157600d546040805163856d836b60e01b81526001600160a01b0385811660048301523360248301529151919092169163856d836b91604480830192600092919082900301818387803b158015610e8857600080fd5b505af1158015610e9c573d6000803e3d6000fd5b505050505b600c5460408083015181516340c10f1960e01b8152336004820152602481019190915290516001600160a01b03909216916340c10f199160448082019260009290919082900301818387803b158015610ef957600080fd5b505af1158015610f0d573d6000803e3d6000fd5b5050506040808301518151338152602081018790528083019190915290517fac45f50416433593e7c9a1f3e0d5f887c530c22d776e1057ecaacb750d24b94092509081900360600190a1505050565b6000546001600160a01b031690565b600080610f7661178d565b600c54604080516370a0823160e01b81526001600160a01b038781166004830152915193945060009391909216916370a08231916024808301926020929190829003018186803b158015610fc957600080fd5b505afa158015610fdd573d6000803e3d6000fd5b505050506040513d6020811015610ff357600080fd5b5051604080516020810190915283815290915060009081906110159084612122565b979650505050505050565b60065481565b600b546040805163313ce56760e01b815290516000926001600160a01b03169163313ce567916004808301926020929190829003018186803b15801561106b57600080fd5b505afa15801561107f573d6000803e3d6000fd5b505050506040513d602081101561109557600080fd5b5051905090565b600a546001600160a01b031633146110b357600080fd5b6006546110c6908263ffffffff611f4b16565b600655600b54600a546040805163a9059cbb60e01b81526001600160a01b039283166004820152602481018590529051919092169163a9059cbb9160448083019260209291908290030181600087803b15801561112257600080fd5b505af1158015611136573d6000803e3d6000fd5b505050506040513d602081101561114c57600080fd5b50506040805182815290517f2b33eb7f7ae0d9bb1596ccbff4b5ed6460dd64eb6bef0c24870065aa469bbb749181900360200190a150565b6000806111ae6008546111a26007548661213990919063ffffffff16565b9063ffffffff61219216565b9392505050565b60006111bf6121d4565b6003549091508082141561121a576040805162461bcd60e51b815260206004820152601f60248201527f547279696e6720746f2061636372756520696e74657265737420747769636500604482015290519081900360640190fd5b6000611224611ff0565b60055460065460048054600e54604080516315f2405360e01b81529384018790526024840186905260448401859052519596509394929390926000926001600160a01b03909216916315f24053916064808301926020929190829003018186803b15801561129157600080fd5b505afa1580156112a5573d6000803e3d6000fd5b505050506040513d60208110156112bb57600080fd5b5051905065048c2739500081111561131a576040805162461bcd60e51b815260206004820152601a60248201527f426f72726f772052617465206d616e7469737361206572726f72000000000000604482015290519081900360640190fd5b6000806113278989611f25565b91509150611333612596565b60008060008061135160405180602001604052808a815250876121d8565b9097509450611360858c612122565b909750935061136f848c61203b565b60408051602081019091526002548152919850935061138f90858c612240565b909750915061139f858a80612240565b80925081985050508d6003819055508060048190555082600581905550816006819055507fe3972ae250606e82c6683843383cb8a51755588d2f443af42e8cb5b1e085392d6003546004546005546006546040518085815260200184815260200183815260200182815260200194505050505060405180910390a15050505050505050505050505050565b60045481565b600d546001600160a01b0316331461144757600080fd5b600954421161145557600080fd5b600061146082611184565b600654909150611476908263ffffffff611f9616565b6006556001600160a01b0384166000908152600f60205260408120818155600101556005546114ab908363ffffffff611f4b16565b600555600b54604080516323b872dd60e01b81526001600160a01b03868116600483015230602483015260448201869052915191909216916323b872dd9160648083019260209291908290030181600087803b15801561150a57600080fd5b505af115801561151e573d6000803e3d6000fd5b505050506040513d602081101561153457600080fd5b505050505050565b600e546000906001600160a01b031663b8168816611558611ff0565b6005546006546002546040518563ffffffff1660e01b81526004018085815260200184815260200183815260200182815260200194505050505060206040518083038186803b15801561106b57600080fd5b6115b2612061565b6000546001600160a01b03908116911614611614576040805162461bcd60e51b815260206004820181905260248201527f4f776e61626c653a2063616c6c6572206973206e6f7420746865206f776e6572604482015290519081900360640190fd5b600e80546001600160a01b0319166001600160a01b0392909216919091179055565b60006116406111b5565b600c60009054906101000a90046001600160a01b03166001600160a01b03166318160ddd6040518163ffffffff1660e01b815260040160206040518083038186803b15801561168e57600080fd5b505afa1580156116a2573d6000803e3d6000fd5b505050506040513d60208110156116b857600080fd5b50516116c75750600154610b93565b60006116d1611ff0565b905060006116dd612596565b60006116ee8460055460065461229c565b809450819250505061177983600c60009054906101000a90046001600160a01b03166001600160a01b03166318160ddd6040518163ffffffff1660e01b815260040160206040518083038186803b15801561174857600080fd5b505afa15801561175c573d6000803e3d6000fd5b505050506040513d602081101561177257600080fd5b50516122da565b519550610b93945050505050565b60095481565b600c54604080516318160ddd60e01b815290516000926001600160a01b0316916318160ddd916004808301926020929190829003018186803b15801561168e57600080fd5b600f602052600090815260409020805460019091015482565b6117f36125a9565b600c54604080516370a0823160e01b815233600482015290516001600160a01b03909216916370a0823191602480820192602092909190829003018186803b15801561183e57600080fd5b505afa158015611852573d6000803e3d6000fd5b505050506040513d602081101561186857600080fd5b50516080820152611877611636565b6020808301918252604080519182019052905181526118979083906120cf565b60408301819052828260038111156118ab57fe5b60038111156118b657fe5b90525050600b54604080516370a0823160e01b8152306004820152905184926001600160a01b0316916370a08231916024808301926020929190829003018186803b15801561190457600080fd5b505afa158015611918573d6000803e3d6000fd5b505050506040513d602081101561192e57600080fd5b50511015611983576040805162461bcd60e51b815260206004820152601f60248201527f4e6f7420656e6f75676820737461626c65636f696e20696e207661756c742e00604482015290519081900360640190fd5b6119a3604051806020016040528083602001518152508260600151612122565b60808301819052828260038111156119b757fe5b60038111156119c257fe5b905250503360009081526010602052604081205460808301511115611a0857336000908152601060205260409020546080830151611a059163ffffffff611f4b16565b90505b611a18838263ffffffff611f4b16565b60a0830152808310611af15733600090815260116020526040902054611a44908263ffffffff611f9616565b3360009081526011602090815260408083209390935560109052205460a08301511115611ab8576040805162461bcd60e51b815260206004820152601960248201527f4572726f722063616c63756c6174696e67207265776172642e00000000000000604482015290519081900360640190fd5b60a082015133600090815260106020526040902054611adc9163ffffffff611f4b16565b33600090815260106020526040902055611b22565b33600090815260116020526040902054611b11908463ffffffff611f9616565b336000908152601160205260409020555b600c546040808401518151632770a7eb60e21b8152336004820152602481019190915290516001600160a01b0390921691639dc29fac9160448082019260009290919082900301818387803b158015611b7a57600080fd5b505af1158015611b8e573d6000803e3d6000fd5b5050600b546040805163a9059cbb60e01b81523360048201526024810188905290516001600160a01b03909216935063a9059cbb92506044808201926020929091908290030181600087803b158015611be657600080fd5b505af1158015611bfa573d6000803e3d6000fd5b505050506040513d6020811015611c1057600080fd5b50506040808301518151338152602081018690528083019190915290517fac45f50416433593e7c9a1f3e0d5f887c530c22d776e1057ecaacb750d24b9409181900360600190a1505050565b600080611c6761178d565b600c54604080516370a0823160e01b81526001600160a01b038781166004830152915193945060009391909216916370a08231916024808301926020929190829003018186803b158015611cba57600080fd5b505afa158015611cce573d6000803e3d6000fd5b505050506040513d6020811015611ce457600080fd5b50516001600160a01b03851660009081526010602052604090205490915081611d2957505050506001600160a01b0381166000908152601160205260409020546109a5565b600080611d4460405180602001604052808781525085612122565b90925090506000611d5b828563ffffffff611f4b16565b6001600160a01b03891660009081526011602052604081205491925090611d8990839063ffffffff611f9616565b9998505050505050505050565b60106020526000908152604090205481565b600b546001600160a01b031681565b611dbf612061565b6000546001600160a01b03908116911614611e21576040805162461bcd60e51b815260206004820181905260248201527f4f776e61626c653a2063616c6c6572206973206e6f7420746865206f776e6572604482015290519081900360640190fd5b6001600160a01b038116611e665760405162461bcd60e51b815260040180806020018281038252602681526020018061260d6026913960400191505060405180910390fd5b600080546040516001600160a01b03808516939216917f8be0079c531659141344cd1fd0a4f28419497f9722a3daafe3b4186f6b6457e091a3600080546001600160a01b0319166001600160a01b0392909216919091179055565b600e546000906001600160a01b03166315f24053611edd611ff0565b6005546006546040518463ffffffff1660e01b815260040180848152602001838152602001828152602001935050505060206040518083038186803b15801561106b57600080fd5b600080838311611f3c575060009050818303611f44565b506003905060005b9250929050565b6000611f8d83836040518060400160405280601e81526020017f536166654d6174683a207375627472616374696f6e206f766572666c6f77000081525061238b565b90505b92915050565b600082820183811015611f8d576040805162461bcd60e51b815260206004820152601b60248201527f536166654d6174683a206164646974696f6e206f766572666c6f770000000000604482015290519081900360640190fd5b600b54604080516370a0823160e01b815230600482015290516000926001600160a01b0316916370a08231916024808301926020929190829003018186803b15801561106b57600080fd5b60008083830184811061205357600092509050611f44565b506002915060009050611f44565b3390565b6000808361207857506000905080611f44565b8383028385828161208557fe5b041461209957506002915060009050611f44565b600092509050611f44565b600080826120b85750600190506000611f44565b60008385816120c357fe5b04915091509250929050565b60008060006120dc612596565b6120e68686612422565b909250905060008260038111156120f957fe5b1461210a5750915060009050611f44565b600061211582612481565b9350935050509250929050565b600080600061212f612596565b6120e686866121d8565b60008261214857506000611f90565b8282028284828161215557fe5b0414611f8d5760405162461bcd60e51b81526004018080602001828103825260218152602001806126336021913960400191505060405180910390fd5b6000611f8d83836040518060400160405280601a81526020017f536166654d6174683a206469766973696f6e206279207a65726f000000000000815250612490565b4390565b60006121e2612596565b6000806121f3866000015186612065565b9092509050600082600381111561220657fe5b1461222557506040805160208101909152600081529092509050611f44565b60408051602081019091529081526000969095509350505050565b600080600061224d612596565b61225787876121d8565b9092509050600082600381111561226a57fe5b1461227b5750915060009050612294565b61228d61228782612481565b8661203b565b9350935050505b935093915050565b6000806000806122ac878761203b565b909250905060008260038111156122bf57fe5b146122d05750915060009050612294565b61228d8186611f25565b60006122e4612596565b6000806122f986670de0b6b3a7640000612065565b9092509050600082600381111561230c57fe5b1461232b57506040805160208101909152600081529092509050611f44565b60008061233883886120a4565b9092509050600082600381111561234b57fe5b1461236e5781604051806020016040528060008152509550955050505050611f44565b604080516020810190915290815260009890975095505050505050565b6000818484111561241a5760405162461bcd60e51b81526004018080602001828103825283818151815260200191508051906020019080838360005b838110156123df5781810151838201526020016123c7565b50505050905090810190601f16801561240c5780820380516001836020036101000a031916815260200191505b509250505060405180910390fd5b505050900390565b600061242c612596565b600080612441670de0b6b3a764000087612065565b9092509050600082600381111561245457fe5b1461247357506040805160208101909152600081529092509050611f44565b6121158186600001516122da565b51670de0b6b3a7640000900490565b600081836124df5760405162461bcd60e51b81526020600482018181528351602484015283519092839260449091019190850190808383600083156123df5781810151838201526020016123c7565b5060008385816124eb57fe5b0495945050505050565b604080516101208101909152806000815260200160008152602001600081526020016000815260200160008152602001600081526020016000815260200160008152602001600081525090565b604080516080810190915280600081526020016000815260200160008152602001600081525090565b6040805160808101909152806000815260200160008152602001600081526020016000151581525090565b6040518060200160405280600081525090565b6040805160c0810190915280600081526020016000815260200160008152602001600081526020016000815260200160008152509056fe596f752061726520747279696e6720746f20706179206261636b206d6f7265207468616e20796f75206f77654f776e61626c653a206e6577206f776e657220697320746865207a65726f2061646472657373536166654d6174683a206d756c7469706c69636174696f6e206f766572666c6f77a264697066735822122004cb915b4dd2883588dde175db4b41fafa6886fd66600e799b288cffc621a11c64736f6c6343000606003360806040523480156200001157600080fd5b50604051620013a1380380620013a1833981810160405260608110156200003757600080fd5b8151602083018051604051929492938301929190846401000000008211156200005f57600080fd5b9083019060208201858111156200007557600080fd5b82516401000000008111828201881017156200009057600080fd5b82525081516020918201929091019080838360005b83811015620000bf578181015183820152602001620000a5565b50505050905090810190601f168015620000ed5780820380516001836020036101000a031916815260200191505b50604052602001805160405193929190846401000000008211156200011157600080fd5b9083019060208201858111156200012757600080fd5b82516401000000008111828201881017156200014257600080fd5b82525081516020918201929091019080838360005b838110156200017157818101518382015260200162000157565b50505050905090810190601f1680156200019f5780820380516001836020036101000a031916815260200191505b5060405250505080826000620001ba6200026c60201b60201c565b600080546001600160a01b0319166001600160a01b0383169081178255604051929350917f8be0079c531659141344cd1fd0a4f28419497f9722a3daafe3b4186f6b6457e0908290a35081516200021990600490602085019062000271565b5080516200022f90600590602084019062000271565b5050600680546001600160a01b0390951661010002610100600160a81b031960ff1990961660121795909516949094179093555062000313915050565b335b90565b828054600181600116156101000203166002900490600052602060002090601f016020900481019282601f10620002b457805160ff1916838001178555620002e4565b82800160010185558215620002e4579182015b82811115620002e4578251825591602001919060010190620002c7565b50620002f2929150620002f6565b5090565b6200026e91905b80821115620002f25760008155600101620002fd565b61107e80620003236000396000f3fe608060405234801561001057600080fd5b506004361061010b5760003560e01c8063715018a6116100a2578063a457c2d711610071578063a457c2d71461031b578063a9059cbb14610347578063dd62ed3e14610373578063e9cbd822146103a1578063f2fde38b146103a95761010b565b8063715018a6146102bb5780638da5cb5b146102c357806395d89b41146102e75780639dc29fac146102ef5761010b565b8063313ce567116100de578063313ce5671461021d578063395093511461023b57806340c10f191461026757806370a08231146102955761010b565b806306fdde0314610110578063095ea7b31461018d57806318160ddd146101cd57806323b872dd146101e7575b600080fd5b6101186103cf565b6040805160208082528351818301528351919283929083019185019080838360005b8381101561015257818101518382015260200161013a565b50505050905090810190601f16801561017f5780820380516001836020036101000a031916815260200191505b509250505060405180910390f35b6101b9600480360360408110156101a357600080fd5b506001600160a01b038135169060200135610465565b604080519115158252519081900360200190f35b6101d5610482565b60408051918252519081900360200190f35b6101b9600480360360608110156101fd57600080fd5b506001600160a01b03813581169160208101359091169060400135610488565b610225610515565b6040805160ff9092168252519081900360200190f35b6101b96004803603604081101561025157600080fd5b506001600160a01b03813516906020013561051e565b6102936004803603604081101561027d57600080fd5b506001600160a01b038135169060200135610572565b005b6101d5600480360360208110156102ab57600080fd5b50356001600160a01b03166105d8565b6102936105f3565b6102cb610695565b604080516001600160a01b039092168252519081900360200190f35b6101186106a4565b6102936004803603604081101561030557600080fd5b506001600160a01b038135169060200135610705565b6101b96004803603604081101561033157600080fd5b506001600160a01b038135169060200135610767565b6101b96004803603604081101561035d57600080fd5b506001600160a01b0381351690602001356107d5565b6101d56004803603604081101561038957600080fd5b506001600160a01b03813581169160200135166107e9565b6102cb610814565b610293600480360360208110156103bf57600080fd5b50356001600160a01b0316610828565b60048054604080516020601f600260001961010060018816150201909516949094049384018190048102820181019092528281526060939092909183018282801561045b5780601f106104305761010080835404028352916020019161045b565b820191906000526020600020905b81548152906001019060200180831161043e57829003601f168201915b5050505050905090565b6000610479610472610920565b8484610924565b50600192915050565b60035490565b6000610495848484610a10565b61050b846104a1610920565b61050685604051806060016040528060288152602001610f72602891396001600160a01b038a166000908152600260205260408120906104df610920565b6001600160a01b03168152602081019190915260400160002054919063ffffffff610b7916565b610924565b5060019392505050565b60065460ff1690565b600061047961052b610920565b84610506856002600061053c610920565b6001600160a01b03908116825260208083019390935260409182016000908120918c16815292529020549063ffffffff610c1016565b61057a610920565b6000546001600160a01b039081169116146105ca576040805162461bcd60e51b81526020600482018190526024820152600080516020610f9a833981519152604482015290519081900360640190fd5b6105d48282610c71565b5050565b6001600160a01b031660009081526001602052604090205490565b6105fb610920565b6000546001600160a01b0390811691161461064b576040805162461bcd60e51b81526020600482018190526024820152600080516020610f9a833981519152604482015290519081900360640190fd5b600080546040516001600160a01b03909116907f8be0079c531659141344cd1fd0a4f28419497f9722a3daafe3b4186f6b6457e0908390a3600080546001600160a01b0319169055565b6000546001600160a01b031690565b60058054604080516020601f600260001961010060018816150201909516949094049384018190048102820181019092528281526060939092909183018282801561045b5780601f106104305761010080835404028352916020019161045b565b61070d610920565b6000546001600160a01b0390811691161461075d576040805162461bcd60e51b81526020600482018190526024820152600080516020610f9a833981519152604482015290519081900360640190fd5b6105d48282610d6f565b6000610479610774610920565b8461050685604051806060016040528060258152602001611024602591396002600061079e610920565b6001600160a01b03908116825260208083019390935260409182016000908120918d1681529252902054919063ffffffff610b7916565b60006104796107e2610920565b8484610a10565b6001600160a01b03918216600090815260026020908152604080832093909416825291909152205490565b60065461010090046001600160a01b031681565b610830610920565b6000546001600160a01b03908116911614610880576040805162461bcd60e51b81526020600482018190526024820152600080516020610f9a833981519152604482015290519081900360640190fd5b6001600160a01b0381166108c55760405162461bcd60e51b8152600401808060200182810382526026815260200180610f046026913960400191505060405180910390fd5b600080546040516001600160a01b03808516939216917f8be0079c531659141344cd1fd0a4f28419497f9722a3daafe3b4186f6b6457e091a3600080546001600160a01b0319166001600160a01b0392909216919091179055565b3390565b6001600160a01b0383166109695760405162461bcd60e51b81526004018080602001828103825260248152602001806110006024913960400191505060405180910390fd5b6001600160a01b0382166109ae5760405162461bcd60e51b8152600401808060200182810382526022815260200180610f2a6022913960400191505060405180910390fd5b6001600160a01b03808416600081815260026020908152604080832094871680845294825291829020859055815185815291517f8c5be1e5ebec7d5bd14f71427d1e84f3dd0314c0f7b2291e5b200ac8c7c3b9259281900390910190a3505050565b6001600160a01b038316610a555760405162461bcd60e51b8152600401808060200182810382526025815260200180610fdb6025913960400191505060405180910390fd5b6001600160a01b038216610a9a5760405162461bcd60e51b8152600401808060200182810382526023815260200180610ebf6023913960400191505060405180910390fd5b610aa5838383610e77565b610ae881604051806060016040528060268152602001610f4c602691396001600160a01b038616600090815260016020526040902054919063ffffffff610b7916565b6001600160a01b038085166000908152600160205260408082209390935590841681522054610b1d908263ffffffff610c1016565b6001600160a01b0380841660008181526001602090815260409182902094909455805185815290519193928716927fddf252ad1be2c89b69c2b068fc378daa952ba7f163c4a11628f55a4df523b3ef92918290030190a3505050565b60008184841115610c085760405162461bcd60e51b81526004018080602001828103825283818151815260200191508051906020019080838360005b83811015610bcd578181015183820152602001610bb5565b50505050905090810190601f168015610bfa5780820380516001836020036101000a031916815260200191505b509250505060405180910390fd5b505050900390565b600082820183811015610c6a576040805162461bcd60e51b815260206004820152601b60248201527f536166654d6174683a206164646974696f6e206f766572666c6f770000000000604482015290519081900360640190fd5b9392505050565b6001600160a01b038216610ccc576040805162461bcd60e51b815260206004820152601f60248201527f45524332303a206d696e7420746f20746865207a65726f206164647265737300604482015290519081900360640190fd5b610cd860008383610e77565b600354610ceb908263ffffffff610c1016565b6003556001600160a01b038216600090815260016020526040902054610d17908263ffffffff610c1016565b6001600160a01b03831660008181526001602090815260408083209490945583518581529351929391927fddf252ad1be2c89b69c2b068fc378daa952ba7f163c4a11628f55a4df523b3ef9281900390910190a35050565b6001600160a01b038216610db45760405162461bcd60e51b8152600401808060200182810382526021815260200180610fba6021913960400191505060405180910390fd5b610dc082600083610e77565b610e0381604051806060016040528060228152602001610ee2602291396001600160a01b038516600090815260016020526040902054919063ffffffff610b7916565b6001600160a01b038316600090815260016020526040902055600354610e2f908263ffffffff610e7c16565b6003556040805182815290516000916001600160a01b038516917fddf252ad1be2c89b69c2b068fc378daa952ba7f163c4a11628f55a4df523b3ef9181900360200190a35050565b505050565b6000610c6a83836040518060400160405280601e81526020017f536166654d6174683a207375627472616374696f6e206f766572666c6f770000815250610b7956fe45524332303a207472616e7366657220746f20746865207a65726f206164647265737345524332303a206275726e20616d6f756e7420657863656564732062616c616e63654f776e61626c653a206e6577206f776e657220697320746865207a65726f206164647265737345524332303a20617070726f766520746f20746865207a65726f206164647265737345524332303a207472616e7366657220616d6f756e7420657863656564732062616c616e636545524332303a207472616e7366657220616d6f756e74206578636565647320616c6c6f77616e63654f776e61626c653a2063616c6c6572206973206e6f7420746865206f776e657245524332303a206275726e2066726f6d20746865207a65726f206164647265737345524332303a207472616e736665722066726f6d20746865207a65726f206164647265737345524332303a20617070726f76652066726f6d20746865207a65726f206164647265737345524332303a2064656372656173656420616c6c6f77616e63652062656c6f77207a65726fa26469706673582212204534f3b589de5159f884ad9db3a386e94aa6877e24127adfc82af7f80e993adc64736f6c634300060600334f776e61626c653a206e6577206f776e657220697320746865207a65726f2061646472657373a26469706673582212206c7c71d0a6c09ea8ff30726b00382a02d4f78c160c15583bd2955f541c295dd864736f6c63430006060033",
  "immutableReferences": {},
  "source": "pragma solidity ^0.6.0;\n\nimport \"./WarpVaultSC.sol\";\nimport \"@openzeppelin/contracts/access/Ownable.sol\";\n\n////////////////////////////////////////////////////////////////////////////////////////////\n/// @title WarpVaultLPFactory\n/// @author Christopher Dixon\n////////////////////////////////////////////////////////////////////////////////////////////\n/**\nThe WarpVaultSCFactory contract is designed to produce individual WarpVaultLP contracts\nThis contract uses the OpenZeppelin contract Library to inherit functions from\n  Ownable.sol\n**/\n\ncontract WarpVaultSCFactory is Ownable {\n    /**\n@notice createNewWarpVaultSC is used to create new WarpVaultSC contract instances\n@param _InterestRate is the address of the InterestRateModel contract created for this Warp Vault\n@param _StableCoin is the address of the stablecoin contract this WarpVault will manage\n@param _warpTeam is the address of the Warp Team used for fees\n@param _initialExchangeRate is the exchange rate mantissa used to determine the initial exchange rate of stablecoin to warp stablecoin\n@param _timelock is a variable representing the number of seconds the timeWizard will prevent withdraws and borrows from a contracts(one week is 605800 seconds)\n  **/\n    function createNewWarpVaultSC(\n        address _InterestRate,\n        address _StableCoin,\n        address _warpTeam,\n        uint256 _initialExchangeRate,\n        uint256 _timelock,\n        uint256 _reserveFactorMantissa\n    ) public onlyOwner returns (address) {\n        address _WVSC = address(\n            new WarpVaultSC(\n                _InterestRate,\n                _StableCoin,\n                msg.sender,\n                _warpTeam,\n                _initialExchangeRate,\n                _timelock,\n                _reserveFactorMantissa\n            )\n        );\n\n        return _WVSC;\n    }\n}\n",
  "sourcePath": "/home/stan36/repos/Warp/Smart-Contracts/contracts/WarpVaultSCFactory.sol",
  "compiler": {
    "name": "solc",
    "version": "0.6.6+commit.6c089d02.Emscripten.clang"
  },
  "schemaVersion": "3.3.2",
  "updatedAt": "2020-12-02T00:09:17.568Z",
  "networkType": "ethereum",
  "devdoc": {
    "methods": {
      "createNewWarpVaultSC(address,address,address,uint256,uint256,uint256)": {
        "params": {
          "_InterestRate": "is the address of the InterestRateModel contract created for this Warp Vault",
          "_StableCoin": "is the address of the stablecoin contract this WarpVault will manage",
          "_initialExchangeRate": "is the exchange rate mantissa used to determine the initial exchange rate of stablecoin to warp stablecoin",
          "_timelock": "is a variable representing the number of seconds the timeWizard will prevent withdraws and borrows from a contracts(one week is 605800 seconds)*",
          "_warpTeam": "is the address of the Warp Team used for fees"
        }
      },
      "owner()": {
        "details": "Returns the address of the current owner."
      },
      "renounceOwnership()": {
        "details": "Leaves the contract without owner. It will not be possible to call `onlyOwner` functions anymore. Can only be called by the current owner.     * NOTE: Renouncing ownership will leave the contract without an owner, thereby removing any functionality that is only available to the owner."
      },
      "transferOwnership(address)": {
        "details": "Transfers ownership of the contract to a new account (`newOwner`). Can only be called by the current owner."
      }
    }
  },
  "userdoc": {
    "methods": {
      "createNewWarpVaultSC(address,address,address,uint256,uint256,uint256)": {
        "notice": "createNewWarpVaultSC is used to create new WarpVaultSC contract instances"
      }
    },
    "notice": "The WarpVaultSCFactory contract is designed to produce individual WarpVaultLP contracts This contract uses the OpenZeppelin contract Library to inherit functions from Ownable.sol*"
  }
}