{
  "contractName": "WarpVaultLP",
  "abi": [
    {
      "inputs": [
        {
          "internalType": "address",
          "name": "_lp",
          "type": "address"
        },
        {
          "internalType": "address",
          "name": "_WarpControl",
          "type": "address"
        },
        {
          "internalType": "string",
          "name": "_lpName",
          "type": "string"
        }
      ],
      "stateMutability": "nonpayable",
      "type": "constructor"
    },
    {
      "anonymous": false,
      "inputs": [
        {
          "indexed": true,
          "internalType": "address",
          "name": "previousOwner",
          "type": "address"
        },
        {
          "indexed": true,
          "internalType": "address",
          "name": "newOwner",
          "type": "address"
        }
      ],
      "name": "OwnershipTransferred",
      "type": "event"
    },
    {
      "inputs": [],
      "name": "LPtoken",
      "outputs": [
        {
          "internalType": "contract IERC20",
          "name": "",
          "type": "address"
        }
      ],
      "stateMutability": "view",
      "type": "function"
    },
    {
      "inputs": [],
      "name": "WC",
      "outputs": [
        {
          "internalType": "contract WarpControlI",
          "name": "",
          "type": "address"
        }
      ],
      "stateMutability": "view",
      "type": "function"
    },
    {
      "inputs": [],
      "name": "WLP",
      "outputs": [
        {
          "internalType": "contract WarpWrapperToken",
          "name": "",
          "type": "address"
        }
      ],
      "stateMutability": "view",
      "type": "function"
    },
    {
      "inputs": [
        {
          "internalType": "address",
          "name": "",
          "type": "address"
        }
      ],
      "name": "collateralizedLP",
      "outputs": [
        {
          "internalType": "uint256",
          "name": "",
          "type": "uint256"
        }
      ],
      "stateMutability": "view",
      "type": "function"
    },
    {
      "inputs": [],
      "name": "lpName",
      "outputs": [
        {
          "internalType": "string",
          "name": "",
          "type": "string"
        }
      ],
      "stateMutability": "view",
      "type": "function"
    },
    {
      "inputs": [],
      "name": "owner",
      "outputs": [
        {
          "internalType": "address",
          "name": "",
          "type": "address"
        }
      ],
      "stateMutability": "view",
      "type": "function"
    },
    {
      "inputs": [],
      "name": "renounceOwnership",
      "outputs": [],
      "stateMutability": "nonpayable",
      "type": "function"
    },
    {
      "inputs": [
        {
          "internalType": "address",
          "name": "newOwner",
          "type": "address"
        }
      ],
      "name": "transferOwnership",
      "outputs": [],
      "stateMutability": "nonpayable",
      "type": "function"
    },
    {
      "inputs": [
        {
          "internalType": "uint256",
          "name": "_amount",
          "type": "uint256"
        }
      ],
      "name": "provideCollateral",
      "outputs": [],
      "stateMutability": "nonpayable",
      "type": "function"
    },
    {
      "inputs": [
        {
          "internalType": "uint256",
          "name": "_amount",
          "type": "uint256"
        }
      ],
      "name": "withdrawCollateral",
      "outputs": [],
      "stateMutability": "nonpayable",
      "type": "function"
    },
    {
      "inputs": [],
      "name": "getAssetAdd",
      "outputs": [
        {
          "internalType": "address",
          "name": "",
          "type": "address"
        }
      ],
      "stateMutability": "view",
      "type": "function"
    },
    {
      "inputs": [
        {
          "internalType": "address",
          "name": "_account",
          "type": "address"
        }
      ],
      "name": "collateralOfAccount",
      "outputs": [
        {
          "internalType": "uint256",
          "name": "",
          "type": "uint256"
        }
      ],
      "stateMutability": "view",
      "type": "function"
    },
    {
      "inputs": [
        {
          "internalType": "address",
          "name": "account",
          "type": "address"
        },
        {
          "internalType": "address",
          "name": "liquidator",
          "type": "address"
        }
      ],
      "name": "liquidateAccount",
      "outputs": [],
      "stateMutability": "nonpayable",
      "type": "function"
    }
  ],
  "bytecode": "0x60806040523480156200001157600080fd5b5060405162000dc538038062000dc5833981810160405260608110156200003757600080fd5b815160208301516040808501805191519395929483019291846401000000008211156200006357600080fd5b9083019060208201858111156200007957600080fd5b82516401000000008111828201881017156200009457600080fd5b82525081516020918201929091019080838360005b83811015620000c3578181015183820152602001620000a9565b50505050905090810190601f168015620000f15780820380516001836020036101000a031916815260200191505b5060405250505060006200010a6200019d60201b60201c565b600080546001600160a01b0319166001600160a01b0383169081178255604051929350917f8be0079c531659141344cd1fd0a4f28419497f9722a3daafe3b4186f6b6457e0908290a350805162000169906001906020840190620001a2565b5050600280546001600160a01b039384166001600160a01b0319918216179091556004805492909316911617905562000244565b335b90565b828054600181600116156101000203166002900490600052602060002090601f016020900481019282601f10620001e557805160ff191683800117855562000215565b8280016001018555821562000215579182015b8281111562000215578251825591602001919060010190620001f8565b506200022392915062000227565b5090565b6200019f91905b808211156200022357600081556001016200022e565b610b7180620002546000396000f3fe608060405234801561001057600080fd5b50600436106100af5760003560e01c8063122b5818146100b457806346cd6801146100d85780634c20ac74146101555780636112fe2e1461015d578063715018a61461017c578063763e4a0d146101845780638da5cb5b146101bc5780639ab23701146101c4578063ac979028146101cc578063c14cba3e146101fa578063f0c3c06b14610202578063f2fde38b1461021f578063f919b4bf14610245575b600080fd5b6100bc61026b565b604080516001600160a01b039092168252519081900360200190f35b6100e061027a565b6040805160208082528351818301528351919283929083019185019080838360005b8381101561011a578181015183820152602001610102565b50505050905090810190601f1680156101475780820380516001836020036101000a031916815260200191505b509250505060405180910390f35b6100bc610307565b61017a6004803603602081101561017357600080fd5b5035610316565b005b61017a6104a3565b6101aa6004803603602081101561019a57600080fd5b50356001600160a01b0316610533565b60408051918252519081900360200190f35b6100bc610545565b6100bc610554565b61017a600480360360408110156101e257600080fd5b506001600160a01b0381358116916020013516610563565b6100bc61062e565b61017a6004803603602081101561021857600080fd5b503561063d565b61017a6004803603602081101561023557600080fd5b50356001600160a01b0316610877565b6101aa6004803603602081101561025b57600080fd5b50356001600160a01b031661095d565b6004546001600160a01b031681565b60018054604080516020600284861615610100026000190190941693909304601f810184900484028201840190925281815292918301828280156102ff5780601f106102d4576101008083540402835291602001916102ff565b820191906000526020600020905b8154815290600101906020018083116102e257829003601f168201915b505050505081565b6002546001600160a01b031690565b600480546002546040805163ab5e2c9960e01b815233948101949094526001600160a01b039182166024850152518493919092169163ab5e2c99916044808201926020929091908290030181600087803b15801561037357600080fd5b505af1158015610387573d6000803e3d6000fd5b505050506040513d602081101561039d57600080fd5b5051116103ef576040805162461bcd60e51b815260206004820152601b60248201527a0a8e4f2d2dcce40e8de40eed2e8d0c8e4c2ee40e8dede40daeac6d602b1b604482015290519081900360640190fd5b3360009081526005602052604090205461040f908263ffffffff61097816565b33600081815260056020908152604080832094909455600254845163a9059cbb60e01b815260048101949094526024840186905293516001600160a01b039094169363a9059cbb93604480820194918390030190829087803b15801561047457600080fd5b505af1158015610488573d6000803e3d6000fd5b505050506040513d602081101561049e57600080fd5b505050565b6104ab6109c1565b6000546001600160a01b039081169116146104fb576040805162461bcd60e51b81526020600482018190526024820152600080516020610adb833981519152604482015290519081900360640190fd5b600080546040516001600160a01b0390911690600080516020610afb833981519152908390a3600080546001600160a01b0319169055565b60056020526000908152604090205481565b6000546001600160a01b031690565b6003546001600160a01b031681565b6004546001600160a01b0316331461057a57600080fd5b6002546001600160a01b0383811660009081526005602090815260408083205481516323b872dd60e01b815230600482015287861660248201526044810191909152905193909416936323b872dd9360648083019491928390030190829087803b1580156105e757600080fd5b505af11580156105fb573d6000803e3d6000fd5b505050506040513d602081101561061157600080fd5b5050506001600160a01b0316600090815260056020526040812055565b6002546001600160a01b031681565b60025460408051636eb1769f60e11b8152336004820152306024820152905183926001600160a01b03169163dd62ed3e916044808301926020929190829003018186803b15801561068d57600080fd5b505afa1580156106a1573d6000803e3d6000fd5b505050506040513d60208110156106b757600080fd5b505110156106f65760405162461bcd60e51b8152600401808060200182810382526021815260200180610b1b6021913960400191505060405180910390fd5b600254604080516370a0823160e01b8152336004820152905183926001600160a01b0316916370a08231916024808301926020929190829003018186803b15801561074057600080fd5b505afa158015610754573d6000803e3d6000fd5b505050506040513d602081101561076a57600080fd5b5051116107be576040805162461bcd60e51b815260206004820152601e60248201527f4d757374206861766520656e6f756768204c5020746f2070726f766964650000604482015290519081900360640190fd5b600254604080516323b872dd60e01b81523360048201523060248201526044810184905290516001600160a01b03909216916323b872dd916064808201926020929091908290030181600087803b15801561081857600080fd5b505af115801561082c573d6000803e3d6000fd5b505050506040513d602081101561084257600080fd5b505033600090815260056020526040902054610864908263ffffffff6109c516565b3360009081526005602052604090205550565b61087f6109c1565b6000546001600160a01b039081169116146108cf576040805162461bcd60e51b81526020600482018190526024820152600080516020610adb833981519152604482015290519081900360640190fd5b6001600160a01b0381166109145760405162461bcd60e51b8152600401808060200182810382526026815260200180610ab56026913960400191505060405180910390fd5b600080546040516001600160a01b0380851693921691600080516020610afb83398151915291a3600080546001600160a01b0319166001600160a01b0392909216919091179055565b6001600160a01b031660009081526005602052604090205490565b60006109ba83836040518060400160405280601e81526020017f536166654d6174683a207375627472616374696f6e206f766572666c6f770000815250610a1d565b9392505050565b3390565b6000828201838110156109ba576040805162461bcd60e51b815260206004820152601b60248201527a536166654d6174683a206164646974696f6e206f766572666c6f7760281b604482015290519081900360640190fd5b60008184841115610aac5760405162461bcd60e51b81526004018080602001828103825283818151815260200191508051906020019080838360005b83811015610a71578181015183820152602001610a59565b50505050905090810190601f168015610a9e5780820380516001836020036101000a031916815260200191505b509250505060405180910390fd5b50505090039056fe4f776e61626c653a206e6577206f776e657220697320746865207a65726f20616464726573734f776e61626c653a2063616c6c6572206973206e6f7420746865206f776e65728be0079c531659141344cd1fd0a4f28419497f9722a3daafe3b4186f6b6457e05661756c74206d757374206861766520656e6f75676820616c6c6f77616e63652ea2646970667358221220f76f13e7bbcb72d88afa553cf396708ef41c609ca72879b66e7e899a9eb66e9a64736f6c63430006060033",
  "immutableReferences": {},
  "source": "pragma solidity ^0.6.2;\r\n\r\nimport \"@openzeppelin/contracts/access/Ownable.sol\";\r\nimport \"@openzeppelin/contracts/math/SafeMath.sol\";\r\nimport \"@openzeppelin/contracts/token/ERC20/IERC20.sol\";\r\nimport \"./WarpWrapperToken.sol\";\r\nimport \"./interfaces/WarpControlI.sol\";\r\n\r\n////////////////////////////////////////////////////////////////////////////////////////////\r\n/// @title WarpVaultLP\r\n/// @author Christopher Dixon\r\n////////////////////////////////////////////////////////////////////////////////////////////\r\n/**\r\n@notice the WarpVaultLP contract is the main point of interface for a specific LP asset class and an end user in the\r\nWarp lending platform. This contract is responsible for distributing WarpWrapper tokens in exchange for stablecoin assets,\r\nholding and accounting of stablecoins and LP tokens and all associates lending/borrowing calculations for a specific Warp LP asset class.\r\nThis contract inherits Ownership and ERC20 functionality from the Open Zeppelin Library as well as Exponential and the InterestRateModel contracts\r\nfrom the coumpound protocol.\r\n**/\r\n\r\ncontract WarpVaultLP is Ownable {\r\n    using SafeMath for uint256;\r\n\r\n    string public lpName;\r\n\r\n    IERC20 public LPtoken;\r\n    WarpWrapperToken public WLP;\r\n    WarpControlI public WC;\r\n\r\n    mapping(address => uint256) public collateralizedLP;\r\n\r\n    /**\r\n     * @dev Throws if called by any account other than a warp control\r\n     */\r\n    modifier onlyWC() {\r\n        require(msg.sender == address(WC));\r\n        _;\r\n    }\r\n\r\n    /**\r\n    @notice constructor sets up token names and symbols for the WarpWrapperToken\r\n    @param _lp is the address of the lp token a specific Warp vault will represent\r\n    @param _lpName is the name of the lp token\r\n    @dev this function instantiates the lp token as a useable object and generates three WarpWrapperToken contracts to represent\r\n        each type of stable coin this vault can hold. this also instantiates each of these contracts as a usable object in this contract giving\r\n        this contract the ability to call their mint and burn functions.\r\n    **/\r\n    constructor(\r\n        address _lp,\r\n        address _WarpControl,\r\n        string memory _lpName\r\n    ) public {\r\n        lpName = _lpName;\r\n        LPtoken = IERC20(_lp);\r\n        WC = WarpControlI(_WarpControl);\r\n    }\r\n\r\n    /**\r\n    @notice provideCollateral allows a user to collateralize this contracts associated LP token\r\n    @param _amount is the amount of LP being collateralized\r\n    **/\r\n    function provideCollateral(uint256 _amount) public {\r\n        require(LPtoken.allowance(msg.sender, address(this)) >= _amount, \"Vault must have enough allowance.\");\r\n        require(LPtoken.balanceOf(msg.sender) > _amount, \"Must have enough LP to provide\");\r\n        LPtoken.transferFrom(msg.sender, address(this), _amount);\r\n        collateralizedLP[msg.sender] = collateralizedLP[msg.sender].add(\r\n            _amount\r\n        );\r\n    }\r\n\r\n    /**\r\n    @notice withdrawCollateral allows the user to trade in his WarpLP tokens for hiss underlying LP token collateral\r\n    @param _amount is the amount of LP tokens he wishes to withdraw\r\n    **/\r\n    function withdrawCollateral(uint256 _amount) public {\r\n        //require the availible value of the LP locked in this contract the user has\r\n        //is greater than or equal to the amount being withdrawn\r\n        require(\r\n            WC.getMaxWithdrawAllowed(msg.sender, address(LPtoken)) > _amount,\r\n            \"Trying to withdraw too much\"\r\n        );\r\n\r\n        //subtract withdrawn amount from amount stored\r\n        collateralizedLP[msg.sender] = collateralizedLP[msg.sender].sub(\r\n            _amount\r\n        );\r\n        //transfer them their token\r\n        LPtoken.transfer(msg.sender, _amount);\r\n    }\r\n\r\n\r\n\r\n    /**\r\n    @notice getAssetAdd allows for easy retrieval of a WarpVaults LP token Adress\r\n    **/\r\n    function getAssetAdd() public view returns (address) {\r\n        return address(LPtoken);\r\n    }\r\n\r\n    function collateralOfAccount(address _account)\r\n        public\r\n        view\r\n        returns (uint256)\r\n    {\r\n        return collateralizedLP[_account];\r\n    }\r\n\r\n    function liquidateAccount(address account, address liquidator) public onlyWC {\r\n        LPtoken.transferFrom(address(this), liquidator, collateralizedLP[account]);\r\n        collateralizedLP[account] = 0;\r\n    }\r\n\r\n}\r\n",
  "sourcePath": "E:\\dOrg\\warp\\Smart-Contracts\\contracts\\WarpVaultLP.sol",
  "compiler": {
    "name": "solc",
    "version": "0.6.6+commit.6c089d02.Emscripten.clang"
  },
  "schemaVersion": "3.3.1",
  "updatedAt": "2020-11-06T02:17:38.697Z",
  "devdoc": {
    "methods": {
      "constructor": {
        "details": "this function instantiates the lp token as a useable object and generates three WarpWrapperToken contracts to represent each type of stable coin this vault can hold. this also instantiates each of these contracts as a usable object in this contract giving this contract the ability to call their mint and burn functions.*",
        "params": {
          "_lp": "is the address of the lp token a specific Warp vault will represent",
          "_lpName": "is the name of the lp token"
        }
      },
      "owner()": {
        "details": "Returns the address of the current owner."
      },
      "provideCollateral(uint256)": {
        "params": {
          "_amount": "is the amount of LP being collateralized*"
        }
      },
      "renounceOwnership()": {
        "details": "Leaves the contract without owner. It will not be possible to call `onlyOwner` functions anymore. Can only be called by the current owner.     * NOTE: Renouncing ownership will leave the contract without an owner, thereby removing any functionality that is only available to the owner."
      },
      "transferOwnership(address)": {
        "details": "Transfers ownership of the contract to a new account (`newOwner`). Can only be called by the current owner."
      },
      "withdrawCollateral(uint256)": {
        "params": {
          "_amount": "is the amount of LP tokens he wishes to withdraw*"
        }
      }
    }
  },
  "userdoc": {
    "methods": {
      "constructor": "constructor sets up token names and symbols for the WarpWrapperToken",
      "getAssetAdd()": {
        "notice": "getAssetAdd allows for easy retrieval of a WarpVaults LP token Adress*"
      },
      "provideCollateral(uint256)": {
        "notice": "provideCollateral allows a user to collateralize this contracts associated LP token"
      },
      "withdrawCollateral(uint256)": {
        "notice": "withdrawCollateral allows the user to trade in his WarpLP tokens for hiss underlying LP token collateral"
      }
    },
    "notice": "the WarpVaultLP contract is the main point of interface for a specific LP asset class and an end user in the Warp lending platform. This contract is responsible for distributing WarpWrapper tokens in exchange for stablecoin assets, holding and accounting of stablecoins and LP tokens and all associates lending/borrowing calculations for a specific Warp LP asset class. This contract inherits Ownership and ERC20 functionality from the Open Zeppelin Library as well as Exponential and the InterestRateModel contracts from the coumpound protocol.*"
  }
}