{
  "contractName": "WarpControl",
  "abi": [
    {
      "inputs": [
        {
          "internalType": "address",
          "name": "_oracle",
          "type": "address"
        },
        {
          "internalType": "address",
          "name": "_WVLPF",
          "type": "address"
        },
        {
          "internalType": "address",
          "name": "_WVSCF",
          "type": "address"
        },
        {
          "internalType": "address",
          "name": "_warpTeam",
          "type": "address"
        }
      ],
      "stateMutability": "nonpayable",
      "type": "constructor"
    },
    {
      "anonymous": false,
      "inputs": [
        {
          "indexed": false,
          "internalType": "address",
          "name": "_account",
          "type": "address"
        },
        {
          "indexed": false,
          "internalType": "address",
          "name": "liquidator",
          "type": "address"
        }
      ],
      "name": "Liquidation",
      "type": "event"
    },
    {
      "anonymous": false,
      "inputs": [
        {
          "indexed": false,
          "internalType": "address",
          "name": "_borrower",
          "type": "address"
        },
        {
          "indexed": false,
          "internalType": "address",
          "name": "_StableCoin",
          "type": "address"
        },
        {
          "indexed": false,
          "internalType": "uint256",
          "name": "_amountBorrowed",
          "type": "uint256"
        }
      ],
      "name": "NewBorrow",
      "type": "event"
    },
    {
      "anonymous": false,
      "inputs": [
        {
          "indexed": false,
          "internalType": "address",
          "name": "_newVault",
          "type": "address"
        }
      ],
      "name": "NewLPVault",
      "type": "event"
    },
    {
      "anonymous": false,
      "inputs": [
        {
          "indexed": false,
          "internalType": "address",
          "name": "_newVault",
          "type": "address"
        },
        {
          "indexed": false,
          "internalType": "address",
          "name": "_interestRateModel",
          "type": "address"
        }
      ],
      "name": "NewSCVault",
      "type": "event"
    },
    {
      "anonymous": false,
      "inputs": [
        {
          "indexed": false,
          "internalType": "address",
          "name": "_account",
          "type": "address"
        },
        {
          "indexed": false,
          "internalType": "uint256",
          "name": "_time",
          "type": "uint256"
        }
      ],
      "name": "NotCompliant",
      "type": "event"
    },
    {
      "anonymous": false,
      "inputs": [
        {
          "indexed": true,
          "internalType": "address",
          "name": "previousOwner",
          "type": "address"
        },
        {
          "indexed": true,
          "internalType": "address",
          "name": "newOwner",
          "type": "address"
        }
      ],
      "name": "OwnershipTransferred",
      "type": "event"
    },
    {
      "anonymous": false,
      "inputs": [
        {
          "indexed": false,
          "internalType": "address",
          "name": "_account",
          "type": "address"
        },
        {
          "indexed": false,
          "internalType": "uint256",
          "name": "_time",
          "type": "uint256"
        }
      ],
      "name": "complianceReset",
      "type": "event"
    },
    {
      "inputs": [],
      "name": "Oracle",
      "outputs": [
        {
          "internalType": "contract UniswapLPOracleFactoryI",
          "name": "",
          "type": "address"
        }
      ],
      "stateMutability": "view",
      "type": "function"
    },
    {
      "inputs": [],
      "name": "WVLPF",
      "outputs": [
        {
          "internalType": "contract WarpVaultLPFactoryI",
          "name": "",
          "type": "address"
        }
      ],
      "stateMutability": "view",
      "type": "function"
    },
    {
      "inputs": [],
      "name": "WVSCF",
      "outputs": [
        {
          "internalType": "contract WarpVaultSCFactoryI",
          "name": "",
          "type": "address"
        }
      ],
      "stateMutability": "view",
      "type": "function"
    },
    {
      "inputs": [
        {
          "internalType": "address",
          "name": "",
          "type": "address"
        }
      ],
      "name": "existingRefferalCode",
      "outputs": [
        {
          "internalType": "bool",
          "name": "",
          "type": "bool"
        }
      ],
      "stateMutability": "view",
      "type": "function"
    },
    {
      "inputs": [
        {
          "internalType": "address",
          "name": "",
          "type": "address"
        }
      ],
      "name": "getVaultByAsset",
      "outputs": [
        {
          "internalType": "address",
          "name": "",
          "type": "address"
        }
      ],
      "stateMutability": "view",
      "type": "function"
    },
    {
      "inputs": [],
      "name": "graceSpace",
      "outputs": [
        {
          "internalType": "uint256",
          "name": "",
          "type": "uint256"
        }
      ],
      "stateMutability": "view",
      "type": "function"
    },
    {
      "inputs": [
        {
          "internalType": "uint256",
          "name": "",
          "type": "uint256"
        }
      ],
      "name": "groups",
      "outputs": [
        {
          "internalType": "address",
          "name": "",
          "type": "address"
        }
      ],
      "stateMutability": "view",
      "type": "function"
    },
    {
      "inputs": [
        {
          "internalType": "address",
          "name": "",
          "type": "address"
        }
      ],
      "name": "groupsYourIn",
      "outputs": [
        {
          "internalType": "address",
          "name": "",
          "type": "address"
        }
      ],
      "stateMutability": "view",
      "type": "function"
    },
    {
      "inputs": [
        {
          "internalType": "address",
          "name": "",
          "type": "address"
        }
      ],
      "name": "instanceLPTracker",
      "outputs": [
        {
          "internalType": "address",
          "name": "",
          "type": "address"
        }
      ],
      "stateMutability": "view",
      "type": "function"
    },
    {
      "inputs": [
        {
          "internalType": "address",
          "name": "",
          "type": "address"
        }
      ],
      "name": "instanceSCTracker",
      "outputs": [
        {
          "internalType": "address",
          "name": "",
          "type": "address"
        }
      ],
      "stateMutability": "view",
      "type": "function"
    },
    {
      "inputs": [
        {
          "internalType": "address",
          "name": "",
          "type": "address"
        }
      ],
      "name": "isInGroup",
      "outputs": [
        {
          "internalType": "bool",
          "name": "",
          "type": "bool"
        }
      ],
      "stateMutability": "view",
      "type": "function"
    },
    {
      "inputs": [
        {
          "internalType": "address",
          "name": "",
          "type": "address"
        }
      ],
      "name": "isParticipant",
      "outputs": [
        {
          "internalType": "bool",
          "name": "",
          "type": "bool"
        }
      ],
      "stateMutability": "view",
      "type": "function"
    },
    {
      "inputs": [
        {
          "internalType": "address",
          "name": "",
          "type": "address"
        }
      ],
      "name": "isVault",
      "outputs": [
        {
          "internalType": "bool",
          "name": "",
          "type": "bool"
        }
      ],
      "stateMutability": "view",
      "type": "function"
    },
    {
      "inputs": [
        {
          "internalType": "uint256",
          "name": "",
          "type": "uint256"
        }
      ],
      "name": "launchParticipants",
      "outputs": [
        {
          "internalType": "address",
          "name": "",
          "type": "address"
        }
      ],
      "stateMutability": "view",
      "type": "function"
    },
    {
      "inputs": [
        {
          "internalType": "address",
          "name": "",
          "type": "address"
        }
      ],
      "name": "lockedLPValue",
      "outputs": [
        {
          "internalType": "uint256",
          "name": "",
          "type": "uint256"
        }
      ],
      "stateMutability": "view",
      "type": "function"
    },
    {
      "inputs": [
        {
          "internalType": "uint256",
          "name": "",
          "type": "uint256"
        }
      ],
      "name": "lpVaults",
      "outputs": [
        {
          "internalType": "address",
          "name": "",
          "type": "address"
        }
      ],
      "stateMutability": "view",
      "type": "function"
    },
    {
      "inputs": [],
      "name": "newWarpControl",
      "outputs": [
        {
          "internalType": "address",
          "name": "",
          "type": "address"
        }
      ],
      "stateMutability": "view",
      "type": "function"
    },
    {
      "inputs": [],
      "name": "owner",
      "outputs": [
        {
          "internalType": "address",
          "name": "",
          "type": "address"
        }
      ],
      "stateMutability": "view",
      "type": "function"
    },
    {
      "inputs": [
        {
          "internalType": "address",
          "name": "",
          "type": "address"
        }
      ],
      "name": "refferalCodeToGroupName",
      "outputs": [
        {
          "internalType": "string",
          "name": "",
          "type": "string"
        }
      ],
      "stateMutability": "view",
      "type": "function"
    },
    {
      "inputs": [
        {
          "internalType": "address",
          "name": "",
          "type": "address"
        },
        {
          "internalType": "uint256",
          "name": "",
          "type": "uint256"
        }
      ],
      "name": "refferalCodeTracker",
      "outputs": [
        {
          "internalType": "address",
          "name": "",
          "type": "address"
        }
      ],
      "stateMutability": "view",
      "type": "function"
    },
    {
      "inputs": [],
      "name": "renounceOwnership",
      "outputs": [],
      "stateMutability": "nonpayable",
      "type": "function"
    },
    {
      "inputs": [
        {
          "internalType": "uint256",
          "name": "",
          "type": "uint256"
        }
      ],
      "name": "scVaults",
      "outputs": [
        {
          "internalType": "address",
          "name": "",
          "type": "address"
        }
      ],
      "stateMutability": "view",
      "type": "function"
    },
    {
      "inputs": [
        {
          "internalType": "address",
          "name": "newOwner",
          "type": "address"
        }
      ],
      "name": "transferOwnership",
      "outputs": [],
      "stateMutability": "nonpayable",
      "type": "function"
    },
    {
      "inputs": [],
      "name": "warpTeam",
      "outputs": [
        {
          "internalType": "address",
          "name": "",
          "type": "address"
        }
      ],
      "stateMutability": "view",
      "type": "function"
    },
    {
      "inputs": [],
      "name": "viewNumLPVaults",
      "outputs": [
        {
          "internalType": "uint256",
          "name": "",
          "type": "uint256"
        }
      ],
      "stateMutability": "view",
      "type": "function"
    },
    {
      "inputs": [],
      "name": "viewNumSCVaults",
      "outputs": [
        {
          "internalType": "uint256",
          "name": "",
          "type": "uint256"
        }
      ],
      "stateMutability": "view",
      "type": "function"
    },
    {
      "inputs": [],
      "name": "viewLaunchParticipants",
      "outputs": [
        {
          "internalType": "address[]",
          "name": "",
          "type": "address[]"
        }
      ],
      "stateMutability": "view",
      "type": "function"
    },
    {
      "inputs": [],
      "name": "viewAllGroups",
      "outputs": [
        {
          "internalType": "address[]",
          "name": "",
          "type": "address[]"
        }
      ],
      "stateMutability": "view",
      "type": "function"
    },
    {
      "inputs": [
        {
          "internalType": "address",
          "name": "_refferalCode",
          "type": "address"
        }
      ],
      "name": "viewAllMembersOfAGroup",
      "outputs": [
        {
          "internalType": "address[]",
          "name": "",
          "type": "address[]"
        }
      ],
      "stateMutability": "view",
      "type": "function"
    },
    {
      "inputs": [
        {
          "internalType": "address",
          "name": "_refferalCode",
          "type": "address"
        }
      ],
      "name": "getGroupName",
      "outputs": [
        {
          "internalType": "string",
          "name": "",
          "type": "string"
        }
      ],
      "stateMutability": "view",
      "type": "function"
    },
    {
      "inputs": [
        {
          "internalType": "address",
          "name": "_account",
          "type": "address"
        }
      ],
      "name": "getAccountsGroup",
      "outputs": [
        {
          "internalType": "address",
          "name": "",
          "type": "address"
        }
      ],
      "stateMutability": "view",
      "type": "function"
    },
    {
      "inputs": [
        {
          "internalType": "uint256",
          "name": "_timelock",
          "type": "uint256"
        },
        {
          "internalType": "address",
          "name": "_lp",
          "type": "address"
        },
        {
          "internalType": "address",
          "name": "_lpAsset1",
          "type": "address"
        },
        {
          "internalType": "address",
          "name": "_lpAsset2",
          "type": "address"
        },
        {
          "internalType": "string",
          "name": "_lpName",
          "type": "string"
        }
      ],
      "name": "createNewLPVault",
      "outputs": [],
      "stateMutability": "nonpayable",
      "type": "function"
    },
    {
      "inputs": [
        {
          "internalType": "uint256",
          "name": "_timelock",
          "type": "uint256"
        },
        {
          "internalType": "uint256",
          "name": "_baseRatePerYear",
          "type": "uint256"
        },
        {
          "internalType": "uint256",
          "name": "_multiplierPerYear",
          "type": "uint256"
        },
        {
          "internalType": "uint256",
          "name": "_jumpMultiplierPerYear",
          "type": "uint256"
        },
        {
          "internalType": "uint256",
          "name": "_optimal",
          "type": "uint256"
        },
        {
          "internalType": "uint256",
          "name": "_initialExchangeRate",
          "type": "uint256"
        },
        {
          "internalType": "uint256",
          "name": "_reserveFactorMantissa",
          "type": "uint256"
        },
        {
          "internalType": "address",
          "name": "_StableCoin",
          "type": "address"
        }
      ],
      "name": "createNewSCVault",
      "outputs": [],
      "stateMutability": "nonpayable",
      "type": "function"
    },
    {
      "inputs": [
        {
          "internalType": "string",
          "name": "_groupName",
          "type": "string"
        }
      ],
      "name": "createGroup",
      "outputs": [],
      "stateMutability": "nonpayable",
      "type": "function"
    },
    {
      "inputs": [
        {
          "internalType": "address",
          "name": "_refferalCode",
          "type": "address"
        }
      ],
      "name": "addMemberToGroup",
      "outputs": [],
      "stateMutability": "nonpayable",
      "type": "function"
    },
    {
      "inputs": [
        {
          "internalType": "address",
          "name": "account",
          "type": "address"
        },
        {
          "internalType": "address",
          "name": "lpToken",
          "type": "address"
        }
      ],
      "name": "getMaxWithdrawAllowed",
      "outputs": [
        {
          "internalType": "uint256",
          "name": "",
          "type": "uint256"
        }
      ],
      "stateMutability": "nonpayable",
      "type": "function"
    },
    {
      "inputs": [
        {
          "internalType": "address",
          "name": "account",
          "type": "address"
        },
        {
          "internalType": "address",
          "name": "lpToken",
          "type": "address"
        }
      ],
      "name": "viewMaxWithdrawAllowed",
      "outputs": [
        {
          "internalType": "uint256",
          "name": "",
          "type": "uint256"
        }
      ],
      "stateMutability": "view",
      "type": "function"
    },
    {
      "inputs": [
        {
          "internalType": "address",
          "name": "_account",
          "type": "address"
        }
      ],
      "name": "getTotalAvailableCollateralValue",
      "outputs": [
        {
          "internalType": "uint256",
          "name": "",
          "type": "uint256"
        }
      ],
      "stateMutability": "nonpayable",
      "type": "function"
    },
    {
      "inputs": [
        {
          "internalType": "address",
          "name": "_account",
          "type": "address"
        }
      ],
      "name": "viewTotalAvailableCollateralValue",
      "outputs": [
        {
          "internalType": "uint256",
          "name": "",
          "type": "uint256"
        }
      ],
      "stateMutability": "view",
      "type": "function"
    },
    {
      "inputs": [
        {
          "internalType": "address",
          "name": "lpToken",
          "type": "address"
        }
      ],
      "name": "viewPriceOfCollateral",
      "outputs": [
        {
          "internalType": "uint256",
          "name": "",
          "type": "uint256"
        }
      ],
      "stateMutability": "view",
      "type": "function"
    },
    {
      "inputs": [
        {
          "internalType": "address",
          "name": "lpToken",
          "type": "address"
        }
      ],
      "name": "getPriceOfCollateral",
      "outputs": [
        {
          "internalType": "uint256",
          "name": "",
          "type": "uint256"
        }
      ],
      "stateMutability": "nonpayable",
      "type": "function"
    },
    {
      "inputs": [
        {
          "internalType": "address",
          "name": "token",
          "type": "address"
        },
        {
          "internalType": "uint256",
          "name": "amount",
          "type": "uint256"
        }
      ],
      "name": "viewPriceOfToken",
      "outputs": [
        {
          "internalType": "uint256",
          "name": "",
          "type": "uint256"
        }
      ],
      "stateMutability": "view",
      "type": "function"
    },
    {
      "inputs": [
        {
          "internalType": "address",
          "name": "token",
          "type": "address"
        },
        {
          "internalType": "uint256",
          "name": "amount",
          "type": "uint256"
        }
      ],
      "name": "getPriceOfToken",
      "outputs": [
        {
          "internalType": "uint256",
          "name": "",
          "type": "uint256"
        }
      ],
      "stateMutability": "nonpayable",
      "type": "function"
    },
    {
      "inputs": [
        {
          "internalType": "address",
          "name": "_account",
          "type": "address"
        }
      ],
      "name": "viewTotalBorrowedValue",
      "outputs": [
        {
          "internalType": "uint256",
          "name": "",
          "type": "uint256"
        }
      ],
      "stateMutability": "view",
      "type": "function"
    },
    {
      "inputs": [
        {
          "internalType": "address",
          "name": "_account",
          "type": "address"
        }
      ],
      "name": "getTotalBorrowedValue",
      "outputs": [
        {
          "internalType": "uint256",
          "name": "",
          "type": "uint256"
        }
      ],
      "stateMutability": "nonpayable",
      "type": "function"
    },
    {
      "inputs": [
        {
          "internalType": "uint256",
          "name": "_collateralValue",
          "type": "uint256"
        }
      ],
      "name": "calcBorrowLimit",
      "outputs": [
        {
          "internalType": "uint256",
          "name": "",
          "type": "uint256"
        }
      ],
      "stateMutability": "pure",
      "type": "function"
    },
    {
      "inputs": [
        {
          "internalType": "uint256",
          "name": "_borrowAmount",
          "type": "uint256"
        }
      ],
      "name": "calcCollateralRequired",
      "outputs": [
        {
          "internalType": "uint256",
          "name": "",
          "type": "uint256"
        }
      ],
      "stateMutability": "pure",
      "type": "function"
    },
    {
      "inputs": [
        {
          "internalType": "address",
          "name": "_account",
          "type": "address"
        }
      ],
      "name": "getBorrowLimit",
      "outputs": [
        {
          "internalType": "uint256",
          "name": "",
          "type": "uint256"
        }
      ],
      "stateMutability": "nonpayable",
      "type": "function"
    },
    {
      "inputs": [
        {
          "internalType": "address",
          "name": "_account",
          "type": "address"
        }
      ],
      "name": "viewBorrowLimit",
      "outputs": [
        {
          "internalType": "uint256",
          "name": "",
          "type": "uint256"
        }
      ],
      "stateMutability": "view",
      "type": "function"
    },
    {
      "inputs": [
        {
          "internalType": "address",
          "name": "_StableCoin",
          "type": "address"
        },
        {
          "internalType": "uint256",
          "name": "_amount",
          "type": "uint256"
        }
      ],
      "name": "borrowSC",
      "outputs": [],
      "stateMutability": "nonpayable",
      "type": "function"
    },
    {
      "inputs": [
        {
          "internalType": "address",
          "name": "_borrower",
          "type": "address"
        }
      ],
      "name": "liquidateAccount",
      "outputs": [],
      "stateMutability": "nonpayable",
      "type": "function"
    },
    {
      "inputs": [
        {
          "internalType": "address",
          "name": "_token",
          "type": "address"
        },
        {
          "internalType": "uint256",
          "name": "_baseRatePerYear",
          "type": "uint256"
        },
        {
          "internalType": "uint256",
          "name": "_multiplierPerYear",
          "type": "uint256"
        },
        {
          "internalType": "uint256",
          "name": "_jumpMultiplierPerYear",
          "type": "uint256"
        },
        {
          "internalType": "uint256",
          "name": "_optimal",
          "type": "uint256"
        }
      ],
      "name": "updateInterestRateModel",
      "outputs": [],
      "stateMutability": "nonpayable",
      "type": "function"
    },
    {
      "inputs": [
        {
          "internalType": "address",
          "name": "_newWarpControl",
          "type": "address"
        }
      ],
      "name": "startUpgradeTimer",
      "outputs": [],
      "stateMutability": "nonpayable",
      "type": "function"
    },
    {
      "inputs": [],
      "name": "upgradeWarp",
      "outputs": [],
      "stateMutability": "nonpayable",
      "type": "function"
    },
    {
      "inputs": [
        {
          "internalType": "address",
          "name": "_newWarp",
          "type": "address"
        }
      ],
      "name": "transferWarpTeam",
      "outputs": [],
      "stateMutability": "nonpayable",
      "type": "function"
    }
  ],
  "bytecode": "0x60806040523480156200001157600080fd5b506040516200406d3803806200406d833981810160405260808110156200003757600080fd5b50805160208201516040830151606090930151919290916000620000636001600160e01b036200010116565b600080546001600160a01b0319166001600160a01b0383169081178255604051929350917f8be0079c531659141344cd1fd0a4f28419497f9722a3daafe3b4186f6b6457e0908290a350600180546001600160a01b039586166001600160a01b031991821617909155600280549486169482169490941790935560038054928516928416929092179091556004805491909316911617905562000105565b3390565b613f5880620001156000396000f3fe60806040523480156200001157600080fd5b5060043610620003b25760003560e01c80638da5cb5b1162000201578063d6fff56f116200011d578063ea7184fd11620000b1578063efdebdf51162000087578063efdebdf51462000cf6578063f24a534e1462000d00578063f2fde38b1462000d0a578063f3c7f9871462000d3357620003b2565b8063ea7184fd1462000c84578063ed6072f61462000cad578063ed85fdff1462000ccd57620003b2565b8063e1535d1211620000f3578063e1535d121462000b5d578063e3c351b81462000b67578063e50f4a301462000b90578063e7b34be31462000c6457620003b2565b8063d6fff56f1462000a62578063da4f7fb21462000a91578063dc2ddcae1462000ab157620003b2565b8063ab5e2c991162000195578063bc64cd4e116200016b578063bc64cd4e14620009c5578063bc816cac14620009ee578063be9287e314620009f8578063cf2307381462000a2157620003b2565b8063ab5e2c99146200094b578063acc9e5b1146200097c578063b042079214620009a557620003b2565b80639da7875711620001d75780639da7875714620008e5578063a092b718146200090e578063a2b35d9d1462000918578063a372e01c146200094157620003b2565b80638da5cb5b1462000892578063929066f5146200089c57806396324bd414620008c557620003b2565b80635cf5738911620002f1578063715018a611620002855780637c17d237116200025b5780637c17d237146200077057806384c38dd8146200079957806388c342ea146200083a5780638ac5d4a3146200086957620003b2565b8063715018a614620007145780637a58dc9f146200071e5780637af70ba6146200074757620003b2565b80636222630811620002c7578063622263081462000698578063652b9b4114620006b8578063692d295d14620006e15780636af5f752146200070a57620003b2565b80635cf57389146200063c5780635d34f08a146200064657806360e67de6146200066f57620003b2565b80631dbb0b8111620003695780632f74020c116200033f5780632f74020c146200055157806348cca254146200055b5780634e590bee14620005d65780635136f31514620005ff57620003b2565b80631dbb0b8114620004ca5780632792bdd014620004d45780632d23adbd146200052857620003b2565b806302e0df2d14620003b75780630a55598914620003e25780630a8a4d3f14620004115780630c1e2b92146200042d578063169d4b1414620004725780631a2a16b5146200049b575b600080fd5b620003e060048036036020811015620003cf57600080fd5b50356001600160a01b031662000d64565b005b620003e060048036036040811015620003fa57600080fd5b506001600160a01b03813516906020013562000e7b565b6200041b62001014565b60408051918252519081900360200190f35b62000456600480360360208110156200044557600080fd5b50356001600160a01b03166200101a565b604080516001600160a01b039092168252519081900360200190f35b6200041b600480360360208110156200048a57600080fd5b50356001600160a01b031662001035565b6200041b60048036036040811015620004b357600080fd5b506001600160a01b03813516906020013562001057565b6200041b620010e7565b620003e06004803603610100811015620004ed57600080fd5b5080359060208101359060408101359060608101359060808101359060a08101359060c08101359060e001356001600160a01b0316620010ee565b62000456600480360360208110156200054057600080fd5b50356001600160a01b031662001330565b620004566200134b565b62000584600480360360208110156200057357600080fd5b50356001600160a01b03166200135a565b60408051602080825283518183015283519192839290830191858101910280838360005b83811015620005c2578181015183820152602001620005a8565b505050509050019250505060405180910390f35b6200041b60048036036020811015620005ee57600080fd5b50356001600160a01b0316620013d2565b62000628600480360360208110156200061757600080fd5b50356001600160a01b031662001458565b604080519115158252519081900360200190f35b620004566200146d565b62000456600480360360208110156200065e57600080fd5b50356001600160a01b03166200147c565b620003e0600480360360208110156200068757600080fd5b50356001600160a01b03166200149a565b6200045660048036036020811015620006b057600080fd5b503562001608565b6200062860048036036020811015620006d057600080fd5b50356001600160a01b031662001630565b6200041b60048036036020811015620006f957600080fd5b50356001600160a01b031662001645565b62000456620016ad565b620003e0620016bc565b620003e0600480360360208110156200073657600080fd5b50356001600160a01b031662001762565b6200041b600480360360208110156200075f57600080fd5b50356001600160a01b0316620017aa565b6200041b600480360360208110156200078857600080fd5b50356001600160a01b0316620019aa565b620007c260048036036020811015620007b157600080fd5b50356001600160a01b0316620019b8565b6040805160208082528351818301528351919283929083019185019080838360005b83811015620007fe578181015183820152602001620007e4565b50505050905090810190601f1680156200082c5780820380516001836020036101000a031916815260200191505b509250505060405180910390f35b6200041b600480360360408110156200085257600080fd5b506001600160a01b03813516906020013562001a5d565b620003e0600480360360208110156200088157600080fd5b50356001600160a01b031662001acc565b6200045662001e9a565b6200062860048036036020811015620008b457600080fd5b50356001600160a01b031662001ea9565b6200045660048036036020811015620008dd57600080fd5b503562001ebe565b620007c260048036036020811015620008fd57600080fd5b50356001600160a01b031662001ecc565b6200058462001f6b565b6200041b600480360360208110156200093057600080fd5b50356001600160a01b031662001fcf565b6200058462002128565b6200041b600480360360408110156200096357600080fd5b506001600160a01b03813581169160200135166200218a565b62000456600480360360208110156200099457600080fd5b50356001600160a01b031662002289565b6200045660048036036020811015620009bd57600080fd5b5035620022a4565b6200041b60048036036020811015620009dd57600080fd5b50356001600160a01b0316620022b2565b620003e06200248e565b6200041b6004803603602081101562000a1057600080fd5b50356001600160a01b03166200287c565b620003e0600480360360a081101562000a3957600080fd5b506001600160a01b038135169060208101359060408101359060608101359060800135620029cc565b620004566004803603604081101562000a7a57600080fd5b506001600160a01b03813516906020013562002ac3565b6200041b6004803603602081101562000aa957600080fd5b503562002af9565b620003e06004803603602081101562000ac957600080fd5b81019060208101813564010000000081111562000ae557600080fd5b82018360208201111562000af857600080fd5b8035906020019184600183028401116401000000008311171562000b1b57600080fd5b91908080601f01602080910402602001604051908101604052809392919081815260200183838082843760009201919091525092955062002b14945050505050565b6200041b62002c60565b6200041b6004803603602081101562000b7f57600080fd5b50356001600160a01b031662002c66565b620003e0600480360360a081101562000ba857600080fd5b8135916001600160a01b03602082013581169260408301358216926060810135909216919081019060a08101608082013564010000000081111562000bec57600080fd5b82018360208201111562000bff57600080fd5b8035906020019184600183028401116401000000008311171562000c2257600080fd5b91908080601f01602080910402602001604051908101604052809392919081815260200183838082843760009201919091525092955062002c78945050505050565b620004566004803603602081101562000c7c57600080fd5b503562002f0e565b620006286004803603602081101562000c9c57600080fd5b50356001600160a01b031662002f1c565b6200041b6004803603602081101562000cc557600080fd5b503562002f31565b620004566004803603602081101562000ce557600080fd5b50356001600160a01b031662002f5b565b6200045662002f76565b6200045662002f85565b620003e06004803603602081101562000d2257600080fd5b50356001600160a01b031662002f94565b6200041b6004803603604081101562000d4b57600080fd5b506001600160a01b038135811691602001351662003092565b62000d6e6200313d565b6000546001600160a01b0390811691161462000dc0576040805162461bcd60e51b8152602060048201819052602482015260008051602062003f03833981519152604482015290519081900360640190fd5b600854600480546001600160a01b0319166001600160a01b03841617905560005b8181101562000e765760006008828154811062000dfa57fe5b600091825260208220015460408051632c8fcd6560e21b81526001600160a01b0388811660048301529151919092169350839263b23f3594926024808201939182900301818387803b15801562000e5057600080fd5b505af115801562000e65573d6000803e3d6000fd5b505050505080600101905062000de1565b505050565b600062000e883362001fcf565b9050600062000e9733620019aa565b9050600062000ead828463ffffffff6200314116565b9050600062000ebd868662001a5d565b90508082101562000f15576040805162461bcd60e51b815260206004820152601b60248201527f426f72726f77696e67206d6f7265207468616e20616c6c6f7765640000000000604482015290519081900360640190fd5b336000908152600e602052604090205462000f37908663ffffffff6200318516565b336000818152600e60209081526040808320949094556001600160a01b038a81168352600c909152838220548451631196a36960e11b8152600481018b905260248101949094529351931692839263232d46d292604480830193919282900301818387803b15801562000fa957600080fd5b505af115801562000fbe573d6000803e3d6000fd5b5050604080513381526001600160a01b038b1660208201528082018a905290517f39afaad37daff6f7a5998bf9de35bb3f46d51f73227bb182d92c016c981a82909350908190036060019150a150505050505050565b60065481565b600c602052600090815260409020546001600160a01b031681565b6000806200104383620022b2565b9050620010508162002f31565b9392505050565b60015460408051631a2a16b560e01b81526001600160a01b0385811660048301526024820185905291516000939290921691631a2a16b591604480820192602092909190829003018186803b158015620010b057600080fd5b505afa158015620010c5573d6000803e3d6000fd5b505050506040513d6020811015620010dc57600080fd5b505190505b92915050565b6008545b90565b620010f86200313d565b6000546001600160a01b039081169116146200114a576040805162461bcd60e51b8152602060048201819052602482015260008051602062003f03833981519152604482015290519081900360640190fd5b600087878787306040516200115f9062003386565b948552602085019390935260408085019290925260608401526001600160a01b039091166080830152519081900360a001906000f080158015620011a7573d6000803e3d6000fd5b506003546004805460408051630f10a94560e31b81526001600160a01b03808716948201949094528784166024820152918316604483015260648201899052608482018e905260a482018890525193945060009391909216916378854a289160c480830192602092919082900301818787803b1580156200122757600080fd5b505af11580156200123c573d6000803e3d6000fd5b505050506040513d60208110156200125357600080fd5b50516001600160a01b038085166000818152600c6020908152604080832080548688166001600160a01b031991821681179092556008805460018181019092557ff3f7a9fe364faab93b216da50a3214154f22a0a2b415b23a84c8169e8b636ee3018054831684179055828652600f8552838620805460ff19169091179055600d845293829020805490941690941790925581519283529286169282019290925281519293507f2c3b5544df8032e6313fd1e59faede21004ab06bb69c1f6640a41566225cb00a929081900390910190a150505050505050505050565b6015602052600090815260409020546001600160a01b031681565b6005546001600160a01b031681565b6001600160a01b038116600090815260106020908152604091829020805483518184028101840190945280845260609392830182828015620013c657602002820191906000526020600020905b81546001600160a01b03168152600190910190602001808311620013a7575b50505050509050919050565b6001546040805163b04c6d3f60e01b81526001600160a01b0384811660048301529151600093929092169163b04c6d3f91602480820192602092909190829003018186803b1580156200142457600080fd5b505afa15801562001439573d6000803e3d6000fd5b505050506040513d60208110156200145057600080fd5b505192915050565b60136020526000908152604090205460ff1681565b6004546001600160a01b031681565b6001600160a01b039081166000908152601560205260409020541690565b3360009081526014602052604090205460ff161562001500576040805162461bcd60e51b815260206004820152601d60248201527f43616e74206a6f696e206d6f7265207468616e206f6e652067726f7570000000604482015290519081900360640190fd5b6001600160a01b03811660009081526013602052604090205460ff1615156001146200156a576040805162461bcd60e51b815260206004820152601460248201527323b937bab8103237b2b9b713ba1032bc34b9ba1760611b604482015290519081900360640190fd5b6001600160a01b03166000818152601060209081526040808320805460018082018355918552838520018054336001600160a01b0319918216811790925581865260148552838620805460ff1916841790556015909452918420805484169095179094556009805494850181559092527f6e1540171b6c0c960b71a7020d9f60077f6af931a8bbf590da0223dacf75c7af9092018054909216179055565b600781815481106200161657fe5b6000918252602090912001546001600160a01b0316905081565b600f6020526000908152604090205460ff1681565b6001546040805163fc57d4df60e01b81526001600160a01b0384811660048301529151600093929092169163fc57d4df9160248082019260209290919082900301818787803b1580156200169857600080fd5b505af115801562001439573d6000803e3d6000fd5b6002546001600160a01b031681565b620016c66200313d565b6000546001600160a01b0390811691161462001718576040805162461bcd60e51b8152602060048201819052602482015260008051602062003f03833981519152604482015290519081900360640190fd5b600080546040516001600160a01b03909116907f8be0079c531659141344cd1fd0a4f28419497f9722a3daafe3b4186f6b6457e0908390a3600080546001600160a01b0319169055565b6004546001600160a01b031633146200177a57600080fd5b600580546001600160a01b0319166001600160a01b038316179055620017a4426202a30062003185565b60065550565b60075460009081805b828110156200198757600060078281548110620017cc57fe5b6000918252602080832090910154604080516313082b1d60e21b815290516001600160a01b0390921694508492634c20ac7492600480840193829003018186803b1580156200181a57600080fd5b505afa1580156200182f573d6000803e3d6000fd5b505050506040513d60208110156200184657600080fd5b50516001546040805163fc57d4df60e01b81526001600160a01b0380851660048301529151939450600093919092169163fc57d4df91602480830192602092919082900301818787803b1580156200189d57600080fd5b505af1158015620018b2573d6000803e3d6000fd5b505050506040513d6020811015620018c957600080fd5b50516040805163f919b4bf60e01b81526001600160a01b038b8116600483015291519293506000929186169163f919b4bf91602480820192602092909190829003018186803b1580156200191c57600080fd5b505afa15801562001931573d6000803e3d6000fd5b505050506040513d60208110156200194857600080fd5b50519050600062001960828463ffffffff620031e016565b905062001974878263ffffffff6200318516565b96505050505050806001019050620017b3565b50620019a281670de0b6b3a764000063ffffffff6200323e16565b949350505050565b6000806200104383620017aa565b6001600160a01b03811660009081526011602090815260409182902080548351601f6002600019610100600186161502019093169290920491820184900484028101840190945280845260609392830182828015620013c65780601f1062001a2f57610100808354040283529160200191620013c6565b820191906000526020600020905b81548152906001019060200180831162001a3d5750939695505050505050565b60015460408051634461a17560e11b81526001600160a01b03858116600483015260248201859052915160009392909216916388c342ea9160448082019260209290919082900301818787803b15801562001ab757600080fd5b505af1158015620010c5573d6000803e3d6000fd5b336001600160a01b038216141562001b2b576040805162461bcd60e51b815260206004820152601b60248201527f796f752063616e74206c697175696461746520796f757273656c660000000000604482015290519081900360640190fd5b600854600754600060608367ffffffffffffffff8111801562001b4d57600080fd5b5060405190808252806020026020018201604052801562001b78578160200160208202803683370190505b50905060005b8481101562001ca55760006008828154811062001b9757fe5b6000918252602080832090910154604080516305eff7ef60e21b81526001600160a01b038c81166004830152915191909216945084936317bfdfbc93602480850194919392918390030190829087803b15801562001bf457600080fd5b505af115801562001c09573d6000803e3d6000fd5b505050506040513d602081101562001c2057600080fd5b5051835184908490811062001c3157fe5b6020908102919091018101919091526001600160a01b038083166000908152600d9092526040822054855162001c8192919091169086908690811062001c7357fe5b602002602001015162001057565b905062001c95858263ffffffff6200318516565b9450505080600101905062001b7e565b50600062001cb386620019aa565b905082811162001e925760005b8581101562001dae5760006008828154811062001cd957fe5b9060005260206000200160009054906101000a90046001600160a01b03169050806001600160a01b031663ab292f9b893387868151811062001d1757fe5b60200260200101516040518463ffffffff1660e01b815260040180846001600160a01b03166001600160a01b03168152602001836001600160a01b03166001600160a01b031681526020018281526020019350505050600060405180830381600087803b15801562001d8857600080fd5b505af115801562001d9d573d6000803e3d6000fd5b505050505080600101905062001cc0565b5060005b8481101562001e4d5760006007828154811062001dcb57fe5b600091825260208220015460408051633d2d78f960e21b81526001600160a01b038c811660048301523360248301529151919092169350839263f4b5e3e4926044808201939182900301818387803b15801562001e2757600080fd5b505af115801562001e3c573d6000803e3d6000fd5b505050505080600101905062001db2565b50604080516001600160a01b038816815233602082015281517fce054da468b0607d4d65949d7572acd17087e593b3e5be27ba665ba1a60ad75b929181900390910190a15b505050505050565b6000546001600160a01b031690565b60126020526000908152604090205460ff1681565b600a81815481106200161657fe5b60116020908152600091825260409182902080548351601f60026000196101006001861615020190931692909204918201849004840281018401909452808452909183018282801562001f635780601f1062001f375761010080835404028352916020019162001f63565b820191906000526020600020905b81548152906001019060200180831162001f4557829003601f168201915b505050505081565b6060600a80548060200260200160405190810160405280929190818152602001828054801562001fc557602002820191906000526020600020905b81546001600160a01b0316815260019091019060200180831162001fa6575b5050505050905090565b60085460009081805b82811015620021205760006008828154811062001ff157fe5b6000918252602080832090910154604080516305eff7ef60e21b81526001600160a01b038b81166004830152915191909216945084926317bfdfbc926024808201939182900301818787803b1580156200204a57600080fd5b505af11580156200205f573d6000803e3d6000fd5b505050506040513d60208110156200207657600080fd5b50519050806200208857505062002117565b6000620020fd836001600160a01b031663591cec866040518163ffffffff1660e01b815260040160206040518083038186803b158015620020c857600080fd5b505afa158015620020dd573d6000803e3d6000fd5b505050506040513d6020811015620020f457600080fd5b50518362001a5d565b905062002111858263ffffffff6200318516565b94505050505b60010162001fd8565b509392505050565b6060600980548060200260200160405190810160405280929190818152602001828054801562001fc5576020028201919060005260206000209081546001600160a01b0316815260019091019060200180831162001fa6575050505050905090565b600080620021988462001fcf565b90506000620021a785620017aa565b90506000620021b68362002af9565b90506000620021cc838363ffffffff6200314116565b6001546040805163fc57d4df60e01b81526001600160a01b038a811660048301529151939450600093919092169163fc57d4df91602480830192602092919082900301818787803b1580156200222157600080fd5b505af115801562002236573d6000803e3d6000fd5b505050506040513d60208110156200224d57600080fd5b505190506200227d816200227084670de0b6b3a764000063ffffffff620031e016565b9063ffffffff6200323e16565b98975050505050505050565b600b602052600090815260409020546001600160a01b031681565b600881815481106200161657fe5b60075460009081805b828110156200198757600060078281548110620022d457fe5b6000918252602080832090910154604080516313082b1d60e21b815290516001600160a01b0390921694508492634c20ac7492600480840193829003018186803b1580156200232257600080fd5b505afa15801562002337573d6000803e3d6000fd5b505050506040513d60208110156200234e57600080fd5b50516001546040805163b04c6d3f60e01b81526001600160a01b0380851660048301529151939450600093919092169163b04c6d3f916024808301926020929190829003018186803b158015620023a457600080fd5b505afa158015620023b9573d6000803e3d6000fd5b505050506040513d6020811015620023d057600080fd5b50516040805163f919b4bf60e01b81526001600160a01b038b8116600483015291519293506000929186169163f919b4bf91602480820192602092909190829003018186803b1580156200242357600080fd5b505afa15801562002438573d6000803e3d6000fd5b505050506040513d60208110156200244f57600080fd5b50519050600062002467828463ffffffff620031e016565b90506200247b878263ffffffff6200318516565b96505050505050806001019050620022bb565b620024986200313d565b6000546001600160a01b03908116911614620024ea576040805162461bcd60e51b8152602060048201819052602482015260008051602062003f03833981519152604482015290519081900360640190fd5b6006544210156200252d5760405162461bcd60e51b815260040180806020018281038252602781526020018062003ebb6027913960400191505060405180910390fd5b6002546005546040805163f2fde38b60e01b81526001600160a01b0392831660048201529051919092169163f2fde38b91602480830192600092919082900301818387803b1580156200257f57600080fd5b505af115801562002594573d6000803e3d6000fd5b50506003546005546040805163f2fde38b60e01b81526001600160a01b039283166004820152905191909216935063f2fde38b9250602480830192600092919082900301818387803b158015620025ea57600080fd5b505af1158015620025ff573d6000803e3d6000fd5b50506001546005546040805163f2fde38b60e01b81526001600160a01b039283166004820152905191909216935063f2fde38b9250602480830192600092919082900301818387803b1580156200265557600080fd5b505af11580156200266a573d6000803e3d6000fd5b5050600754600854909250905060005b8281101562002779576000600782815481106200269357fe5b60009182526020822001546005546040805162900f0160e41b81526001600160a01b03928316600482015290519190921693508392630900f010926024808201939182900301818387803b158015620026eb57600080fd5b505af115801562002700573d6000803e3d6000fd5b50506005546040805163f2fde38b60e01b81526001600160a01b0392831660048201529051918516935063f2fde38b925060248082019260009290919082900301818387803b1580156200275357600080fd5b505af115801562002768573d6000803e3d6000fd5b50505050508060010190506200267a565b5060005b8181101562000e76576000600882815481106200279657fe5b60009182526020822001546005546040805162900f0160e41b81526001600160a01b03928316600482015290519190921693508392630900f010926024808201939182900301818387803b158015620027ee57600080fd5b505af115801562002803573d6000803e3d6000fd5b50506005546040805163f2fde38b60e01b81526001600160a01b0392831660048201529051918516935063f2fde38b925060248082019260009290919082900301818387803b1580156200285657600080fd5b505af11580156200286b573d6000803e3d6000fd5b50505050508060010190506200277d565b60085460009081805b8281101562002120576000600882815481106200289e57fe5b600091825260208083209091015460408051637746efab60e01b81526001600160a01b038b8116600483015291519190921694508492637746efab9260248082019391829003018186803b158015620028f657600080fd5b505afa1580156200290b573d6000803e3d6000fd5b505050506040513d60208110156200292257600080fd5b505190508062002934575050620029c3565b6000620029a9836001600160a01b031663591cec866040518163ffffffff1660e01b815260040160206040518083038186803b1580156200297457600080fd5b505afa15801562002989573d6000803e3d6000fd5b505050506040513d6020811015620029a057600080fd5b50518362001057565b9050620029bd858263ffffffff6200318516565b94505050505b60010162002885565b6004546001600160a01b03163314620029e457600080fd5b60008484848430604051620029f99062003386565b948552602085019390935260408085019290925260608401526001600160a01b039091166080830152519081900360a001906000f08015801562002a41573d6000803e3d6000fd5b506001600160a01b038088166000908152600c602052604080822054815163b1be82f160e01b815284861660048201529151949550909216928392839263b1be82f19260248084019382900301818387803b15801562002aa057600080fd5b505af115801562002ab5573d6000803e3d6000fd5b505050505050505050505050565b6010602052816000526040600020818154811062002add57fe5b6000918252602090912001546001600160a01b03169150829050565b6000620010e160026200227084600363ffffffff620031e016565b3360009081526014602052604090205460ff161562002b655760405162461bcd60e51b815260040180806020018281038252602781526020018062003e946027913960400191505060405180910390fd5b336000908152601360209081526040808320805460ff1916600117905560118252909120825162002b999284019062003394565b5050600a805460018082019092557fc65a7bb8d6351c1cf70c95a316cc6a92839c986682d98bc35f958f4883f9d2a8018054336001600160a01b0319918216811790925560008281526010602090815260408083208054808801825590845282842001805485168617905584835260148252808320805460ff19168717905560159091528120805483168417905560098054948501815590527f6e1540171b6c0c960b71a7020d9f60077f6af931a8bbf590da0223dacf75c7af9092018054909216179055565b60075490565b600e6020526000908152604090205481565b62002c826200313d565b6000546001600160a01b0390811691161462002cd4576040805162461bcd60e51b8152602060048201819052602482015260008051602062003f03833981519152604482015290519081900360640190fd5b60015460408051634a42dd6d60e11b81526001600160a01b0386811660048301528581166024830152878116604483015291519190921691639485bada91606480830192600092919082900301818387803b15801562002d3357600080fd5b505af115801562002d48573d6000803e3d6000fd5b505060025460405163a8edf11560e01b8152600481018981526001600160a01b0389811660248401526060604484019081528751606485015287516000975091909416945063a8edf115938b938b9389939092916084019060208501908083838d5b8381101562002dc457818101518382015260200162002daa565b50505050905090810190601f16801562002df25780820380516001836020036101000a031916815260200191505b50945050505050602060405180830381600087803b15801562002e1457600080fd5b505af115801562002e29573d6000803e3d6000fd5b505050506040513d602081101562002e4057600080fd5b50516001600160a01b038681166000818152600b6020908152604080832080546001600160a01b03199081169688169687179091556007805460018181019092557fa66cc928b5edb82af9bd49922954155ab7b0942694bea4ce44661d9a8736c688018054831688179055868552600f8452828520805460ff19169091179055600d8352928190208054909316909317909155815192835290519293507fe4136410250c225cb6546e2f16dccea79b35b32f295f337362d04375101342ff92918290030190a1505050505050565b600981815481106200161657fe5b60146020526000908152604090205460ff1681565b60008062002f4783600363ffffffff6200323e16565b905062001050818063ffffffff6200318516565b600d602052600090815260409020546001600160a01b031681565b6003546001600160a01b031681565b6001546001600160a01b031681565b62002f9e6200313d565b6000546001600160a01b0390811691161462002ff0576040805162461bcd60e51b8152602060048201819052602482015260008051602062003f03833981519152604482015290519081900360640190fd5b6001600160a01b038116620030375760405162461bcd60e51b815260040180806020018281038252602681526020018062003e6e6026913960400191505060405180910390fd5b600080546040516001600160a01b03808516939216917f8be0079c531659141344cd1fd0a4f28419497f9722a3daafe3b4186f6b6457e091a3600080546001600160a01b0319166001600160a01b0392909216919091179055565b600080620030a0846200287c565b90506000620030af85620022b2565b90506000620030be8362002af9565b90506000620030d4838363ffffffff6200314116565b6001546040805163b04c6d3f60e01b81526001600160a01b038a811660048301529151939450600093919092169163b04c6d3f916024808301926020929190829003018186803b1580156200312857600080fd5b505afa15801562002236573d6000803e3d6000fd5b3390565b60006200105083836040518060400160405280601e81526020017f536166654d6174683a207375627472616374696f6e206f766572666c6f77000081525062003282565b60008282018381101562001050576040805162461bcd60e51b815260206004820152601b60248201527f536166654d6174683a206164646974696f6e206f766572666c6f770000000000604482015290519081900360640190fd5b600082620031f157506000620010e1565b82820282848281620031ff57fe5b0414620010505760405162461bcd60e51b815260040180806020018281038252602181526020018062003ee26021913960400191505060405180910390fd5b60006200105083836040518060400160405280601a81526020017f536166654d6174683a206469766973696f6e206279207a65726f0000000000008152506200331d565b60008184841115620033155760405162461bcd60e51b81526004018080602001828103825283818151815260200191508051906020019080838360005b83811015620032d9578181015183820152602001620032bf565b50505050905090810190601f168015620033075780820380516001836020036101000a031916815260200191505b509250505060405180910390fd5b505050900390565b600081836200336f5760405162461bcd60e51b8152602060048201818152835160248401528351909283926044909101919085019080838360008315620032d9578181015183820152602001620032bf565b5060008385816200337c57fe5b0495945050505050565b610a37806200343783390190565b828054600181600116156101000203166002900490600052602060002090601f016020900481019282601f10620033d757805160ff191683800117855562003407565b8280016001018555821562003407579182015b8281111562003407578251825591602001919060010190620033ea565b506200341592915062003419565b5090565b620010eb91905b808211156200341557600081556001016200342056fe608060405234801561001057600080fd5b50604051610a37380380610a37833981810160405260a081101561003357600080fd5b508051602082015160408301516060840151608090940151600080546001600160a01b0319166001600160a01b03831617905592939192909190848484848461007e8585858561008d565b505050505050505050506102bc565b6100a7622014808561017060201b6105901790919060201c565b6002556100f66100c562201480836101c1602090811b61053717901c565b6100e4670de0b6b3a7640000866101c160201b6105371790919060201c565b61017060201b6105901790919060201c565b6001556101118262201480610170602090811b61059017901c565b60038190556004829055600254600154604080519283526020830191909152818101929092526060810183905290517f6960ab234c7ef4b0c9197100f5393cfcde7c453ac910a27bd2000aa1dd4c068d9181900360800190a150505050565b60006101b883836040518060400160405280601a81526020017f536166654d6174683a206469766973696f6e206279207a65726f00000000000081525061021a60201b60201c565b90505b92915050565b6000826101d0575060006101bb565b828202828482816101dd57fe5b04146101b85760405162461bcd60e51b8152600401808060200182810382526021815260200180610a166021913960400191505060405180910390fd5b600081836102a65760405162461bcd60e51b81526004018080602001828103825283818151815260200191508051906020019080838360005b8381101561026b578181015183820152602001610253565b50505050905090810190601f1680156102985780820380516001836020036101000a031916815260200191505b509250505060405180910390fd5b5060008385816102b257fe5b0495945050505050565b61074b806102cb6000396000f3fe608060405234801561001057600080fd5b506004361061009e5760003560e01c8063a385fb9611610066578063a385fb9614610164578063b81688161461016c578063b9f9850a1461019b578063f14039de146101a3578063fd2da339146101ab5761009e565b806315f24053146100a35780632037f3e7146100de5780636e71e2d81461010f5780638726bb89146101385780638da5cb5b14610140575b600080fd5b6100cc600480360360608110156100b957600080fd5b50803590602081013590604001356101b3565b60408051918252519081900360200190f35b61010d600480360360808110156100f457600080fd5b50803590602081013590604081013590606001356101ca565b005b6100cc6004803603606081101561012557600080fd5b5080359060208101359060400135610225565b6100cc61027b565b610148610281565b604080516001600160a01b039092168252519081900360200190f35b6100cc610290565b6100cc6004803603608081101561018257600080fd5b5080359060208101359060408101359060600135610297565b6100cc610316565b6100cc61031c565b6100cc610322565b60006101c0848484610328565b90505b9392505050565b6000546001600160a01b031633146102135760405162461bcd60e51b81526004018080602001828103825260268152602001806106f06026913960400191505060405180910390fd5b61021f848484846103f1565b50505050565b600082610234575060006101c3565b6101c06102578361024b878763ffffffff61049216565b9063ffffffff6104f516565b61026f85670de0b6b3a764000063ffffffff61053716565b9063ffffffff61059016565b60015481565b6000546001600160a01b031681565b6220148081565b6000806102b2670de0b6b3a76400008463ffffffff6104f516565b905060006102c1878787610328565b905060006102e1670de0b6b3a764000061026f848663ffffffff61053716565b905061030a670de0b6b3a764000061026f836102fe8c8c8c610225565b9063ffffffff61053716565b98975050505050505050565b60035481565b60025481565b60045481565b600080610336858585610225565b9050600454811161037c57610374600254610368670de0b6b3a764000061026f6001548661053790919063ffffffff16565b9063ffffffff61049216565b9150506101c3565b60006103a7600254610368670de0b6b3a764000061026f60015460045461053790919063ffffffff16565b905060006103c0600454846104f590919063ffffffff16565b90506103e782610368670de0b6b3a764000061026f6003548661053790919063ffffffff16565b93505050506101c3565b610404846220148063ffffffff61059016565b60025561041d610257622014808363ffffffff61053716565b600155610433826220148063ffffffff61059016565b60038190556004829055600254600154604080519283526020830191909152818101929092526060810183905290517f6960ab234c7ef4b0c9197100f5393cfcde7c453ac910a27bd2000aa1dd4c068d9181900360800190a150505050565b6000828201838110156104ec576040805162461bcd60e51b815260206004820152601b60248201527f536166654d6174683a206164646974696f6e206f766572666c6f770000000000604482015290519081900360640190fd5b90505b92915050565b60006104ec83836040518060400160405280601e81526020017f536166654d6174683a207375627472616374696f6e206f766572666c6f7700008152506105d2565b600082610546575060006104ef565b8282028284828161055357fe5b04146104ec5760405162461bcd60e51b81526004018080602001828103825260218152602001806106cf6021913960400191505060405180910390fd5b60006104ec83836040518060400160405280601a81526020017f536166654d6174683a206469766973696f6e206279207a65726f000000000000815250610669565b600081848411156106615760405162461bcd60e51b81526004018080602001828103825283818151815260200191508051906020019080838360005b8381101561062657818101518382015260200161060e565b50505050905090810190601f1680156106535780820380516001836020036101000a031916815260200191505b509250505060405180910390fd5b505050900390565b600081836106b85760405162461bcd60e51b815260206004820181815283516024840152835190928392604490910191908501908083836000831561062657818101518382015260200161060e565b5060008385816106c457fe5b049594505050505056fe536166654d6174683a206d756c7469706c69636174696f6e206f766572666c6f776f6e6c7920746865206f776e6572206d61792063616c6c20746869732066756e6374696f6e2ea26469706673582212205f65e9e52539d0ff7de90544b865c4f14afc0816467eb10ea4c965b7234c764264736f6c63430006060033536166654d6174683a206d756c7469706c69636174696f6e206f766572666c6f774f776e61626c653a206e6577206f776e657220697320746865207a65726f206164647265737343616e742063726561746520612067726f7570206f6e636520616c726561647920696e206f6e65796f752063616e7420756772616465207965742c206c657373207468616e2074776f2064617973536166654d6174683a206d756c7469706c69636174696f6e206f766572666c6f774f776e61626c653a2063616c6c6572206973206e6f7420746865206f776e6572a26469706673582212201762b9ef3bec5406b8516dcd71ded2b3fdafdf6d226885655c713688c44f1b3764736f6c63430006060033",
  "immutableReferences": {},
  "source": "pragma solidity ^0.6.0;\r\n\r\nimport \"@openzeppelin/contracts/access/Ownable.sol\";\r\nimport \"@openzeppelin/contracts/math/SafeMath.sol\";\r\nimport \"./interfaces/WarpVaultSCI.sol\";\r\nimport \"./interfaces/WarpVaultLPI.sol\";\r\nimport \"./interfaces/WarpVaultLPFactoryI.sol\";\r\nimport \"./interfaces/WarpVaultSCFactoryI.sol\";\r\nimport \"./interfaces/UniswapLPOracleFactoryI.sol\";\r\nimport \"./compound/JumpRateModelV2.sol\";\r\nimport \"./compound/Exponential.sol\";\r\n\r\n////////////////////////////////////////////////////////////////////////////////////////////\r\n/// @title WarpControl\r\n/// @author Christopher Dixon\r\n////////////////////////////////////////////////////////////////////////////////////////////\r\n/**\r\nWarpControl is designed to coordinate Warp Vaults\r\nThis contract uses the OpenZeppelin contract Library to inherit functions from\r\n  Ownable.sol\r\n**/\r\n\r\ncontract WarpControl is Ownable, Exponential {\r\n    using SafeMath for uint256;\r\n\r\n    UniswapLPOracleFactoryI public Oracle; //oracle factory contract interface\r\n    WarpVaultLPFactoryI public WVLPF;\r\n    WarpVaultSCFactoryI public WVSCF;\r\n    address public warpTeam;\r\n    address public newWarpControl;\r\n    uint public graceSpace;\r\n\r\n    address[] public lpVaults;\r\n    address[] public scVaults;\r\n    address[] public launchParticipants;\r\n    address[] public groups;\r\n\r\n    mapping(address => address) public instanceLPTracker; //maps LP token address to the assets WarpVault\r\n    mapping(address => address) public instanceSCTracker;\r\n    mapping(address => address) public getVaultByAsset;\r\n    mapping(address => uint) public lockedLPValue;\r\n    mapping(address => bool) public isVault;\r\n    mapping(address => address[]) public refferalCodeTracker;\r\n    mapping(address => string) public refferalCodeToGroupName;\r\n    mapping(address => bool) public isParticipant;\r\n    mapping(address => bool) public existingRefferalCode;\r\n    mapping(address => bool) public isInGroup;\r\n    mapping(address => address) public groupsYourIn;\r\n\r\n    event NewLPVault(address _newVault);\r\n    event NewSCVault(address _newVault, address _interestRateModel);\r\n    event NewBorrow(address _borrower, address _StableCoin, uint _amountBorrowed);\r\n    event NotCompliant(address _account, uint _time);\r\n    event Liquidation(address _account, address liquidator);\r\n    event complianceReset(address _account, uint _time);\r\n    /**\r\n      @dev Throws if called by any account other than a warp vault\r\n     */\r\n    modifier onlyVault() {\r\n        require(isVault[msg.sender] == true);\r\n        _;\r\n    }\r\n\r\n    /**\r\n    @dev Throws if a function is called by anyone but the warp team\r\n    **/\r\n    modifier onlyWarpT() {\r\n        require(msg.sender == warpTeam);\r\n        _;\r\n    }\r\n\r\n    /**\r\n    @notice the constructor function is fired during the contract deployment process. The constructor can only be fired once and\r\n            is used to set up Oracle variables for the MoneyMarketFactory contract.\r\n    @param _oracle is the address for the UniswapOracleFactorycontract\r\n    @param _WVLPF is the address for the WarpVaultLPFactory used to produce LP Warp Vaults\r\n    @param _WVSCF is the address for the WarpVaultSCFactory used to produce Stable Coin Warp Vaults\r\n    @dev These factories are split into seperate contracts to avoid hitting the block gas limit\r\n    **/\r\n    constructor(\r\n        address _oracle,\r\n        address _WVLPF,\r\n        address _WVSCF,\r\n        address _warpTeam\r\n    ) public {\r\n        //instantiate the contracts\r\n        Oracle = UniswapLPOracleFactoryI(_oracle);\r\n        WVLPF = WarpVaultLPFactoryI(_WVLPF);\r\n        WVSCF = WarpVaultSCFactoryI(_WVSCF);\r\n        warpTeam = _warpTeam;\r\n    }\r\n///view functions for front end /////\r\n\r\n  /**\r\n  @notice viewNumLPVaults returns the number of lp vaults on the warp platform\r\n  **/\r\n    function viewNumLPVaults() external view returns(uint256) {\r\n        return lpVaults.length;\r\n    }\r\n\r\n  /**\r\n  @notice viewNumSCVaults returns the number of stablecoin vaults on the warp platform\r\n  **/\r\n    function viewNumSCVaults() external view returns(uint256) {\r\n        return scVaults.length;\r\n    }\r\n\r\n  /**\r\n  @notice viewLaunchParticipants returns an array of all launch participant addresses\r\n  **/\r\n    function viewLaunchParticipants() public view returns(address[] memory) {\r\n      return launchParticipants;\r\n    }\r\n\r\n  /**\r\n  @notice viewAllGroups returns an array of all group addresses\r\n  **/\r\n    function viewAllGroups() public view returns(address[] memory) {\r\n      return groups;\r\n    }\r\n\r\n  /**\r\n  @notice viewAllMembersOfAGroup returns an array of addresses containing the addresses of every member in a group\r\n  @param _refferalCode is the address that acts as a referral code for a group\r\n  **/\r\n    function viewAllMembersOfAGroup(address _refferalCode) public view returns(address[] memory) {\r\n      return refferalCodeTracker[_refferalCode];\r\n    }\r\n\r\n  /**\r\n  @notice getGroupName returns the name of a group\r\n  @param _refferalCode is the address that acts as a referral code for a group\r\n  **/\r\n    function getGroupName(address _refferalCode) public view returns(string memory) {\r\n      return refferalCodeToGroupName[_refferalCode];\r\n    }\r\n\r\n  /**\r\n  @notice getAccountsGroup returns the refferal code address of the team an account is on\r\n  @param _account is the address whos team is being retrieved\r\n  **/\r\n    function getAccountsGroup(address _account) public view returns(address) {\r\n      return groupsYourIn[_account];\r\n    }\r\n\r\n\r\n    /**\r\n    @notice createNewLPVault allows the contract owner to create a new WarpVaultLP contract for a specific LP token\r\n    @param _timelock is a variable representing the number of seconds the timeWizard will prevent withdraws and borrows from a contracts(one week is 605800 seconds)\r\n    @param _lp is the address for the LP token this Warp Vault will manage\r\n    @param _lpAsset1 is the address for the first asset in a pair that the LP token represents(ex: wETH in a wETH-wBTC uniswap pair)\r\n    @param _lpAsset2 is the address for the second asset in a pair that the LP token represents(ex: wBTC in a wETH-wBTC uniswap pair)\r\n    @param _lpName is the name of the LP token (ex:wETH-wBTC)\r\n    **/\r\n    function createNewLPVault(\r\n        uint256 _timelock,\r\n        address _lp,\r\n        address _lpAsset1,\r\n        address _lpAsset2,\r\n        string memory _lpName\r\n    ) public onlyOwner {\r\n        //create new oracles for this LP\r\n        Oracle.createNewOracles(_lpAsset1, _lpAsset2, _lp);\r\n        //create new Warp LP Vault\r\n        address _WarpVault = WVLPF.createWarpVaultLP(_timelock, _lp, _lpName);\r\n        //track the warp vault lp instance by the address of the LP it represents\r\n        instanceLPTracker[_lp] = _WarpVault;\r\n        //add new LP Vault to the array of all LP vaults\r\n        lpVaults.push(_WarpVault);\r\n        //set Warp vault address as an approved vault\r\n        isVault[_WarpVault] = true;\r\n        //track vault to asset\r\n        getVaultByAsset[_WarpVault] = _lp;\r\n        emit NewLPVault(_WarpVault);\r\n    }\r\n\r\n    /**\r\n    @notice createNewSCVault allows the contract owner to create a new WarpVaultLP contract for a specific LP token\r\n    @param _timelock is a variable representing the number of seconds the timeWizard will prevent withdraws and borrows from a contracts(one week is 605800 seconds)\r\n    @param _baseRatePerYear is the base rate per year(approx target base APR)\r\n    @param _multiplierPerYear is the multiplier per year(rate of increase in interest w/ utilizastion)\r\n    @param _jumpMultiplierPerYear is the Jump Multiplier Per Year(the multiplier per block after hitting a specific utilizastion point)\r\n    @param _optimal is the this is the utilizastion point or \"kink\" at which the jump multiplier is applied\r\n    @param _initialExchangeRate is the intitial exchange rate(the rate at which the initial exchange of asset/ART is set)\r\n    @param _StableCoin is the address of the StableCoin this Warp Vault will manage\r\n    **/\r\n    function createNewSCVault(\r\n        uint256 _timelock,\r\n        uint256 _baseRatePerYear,\r\n        uint256 _multiplierPerYear,\r\n        uint256 _jumpMultiplierPerYear,\r\n        uint256 _optimal,\r\n        uint256 _initialExchangeRate,\r\n        uint256 _reserveFactorMantissa,\r\n        address _StableCoin\r\n    ) public onlyOwner {\r\n        //create the interest rate model for this stablecoin\r\n        address IR = address(\r\n            new JumpRateModelV2(\r\n                _baseRatePerYear,\r\n                _multiplierPerYear,\r\n                _jumpMultiplierPerYear,\r\n                _optimal,\r\n                address(this)\r\n            )\r\n        );\r\n        //create the SC Warp vault\r\n        address _WarpVault = WVSCF.createNewWarpVaultSC(\r\n            IR,\r\n            _StableCoin,\r\n            warpTeam,\r\n            _initialExchangeRate,\r\n            _timelock,\r\n            _reserveFactorMantissa\r\n        );\r\n        //track the warp vault sc instance by the address of the stablecoin it represents\r\n        instanceSCTracker[_StableCoin] = _WarpVault;\r\n        //add new SC Vault to the array of all SC vaults\r\n        scVaults.push(_WarpVault);\r\n        //set Warp vault address as an approved vault\r\n        isVault[_WarpVault] = true;\r\n        //track vault to asset\r\n        getVaultByAsset[_WarpVault] = _StableCoin;\r\n        emit NewSCVault(_WarpVault, IR);\r\n    }\r\n\r\n    /**\r\n    @notice @createGroup is used to create a new group\r\n    @param _groupName is the name of the group being created\r\n    @dev the refferal code for this group is the address of the msg.sender\r\n    **/\r\n    function createGroup(string memory _groupName) public {\r\n        require(isInGroup[msg.sender] == false, \"Cant create a group once already in one\");\r\n\r\n        // Create group\r\n        existingRefferalCode[msg.sender] = true;\r\n        refferalCodeToGroupName[msg.sender] = _groupName;\r\n        groups.push(msg.sender);\r\n\r\n        // Join Group\r\n        refferalCodeTracker[msg.sender].push(msg.sender);\r\n        isInGroup[msg.sender] = true;\r\n        groupsYourIn[msg.sender] = msg.sender;\r\n\r\n        launchParticipants.push(msg.sender);\r\n    }\r\n\r\n    /**\r\n    @notice addMemberToGroup is used to add an account to a group\r\n    @param _refferalCode is the address used as a groups refferal code\r\n    @dev the member being added is the msg.sender\r\n    **/\r\n    function addMemberToGroup(address _refferalCode) public {\r\n        //Require a member is either not in a group OR has entered their groups refferal code\r\n        require(isInGroup[msg.sender] == false, \"Cant join more than one group\");\r\n        require(existingRefferalCode[_refferalCode] == true, \"Group doesn't exist.\");\r\n\r\n        // Join Group\r\n        refferalCodeTracker[_refferalCode].push(msg.sender);\r\n        isInGroup[msg.sender] = true;\r\n        groupsYourIn[msg.sender] = _refferalCode;\r\n\r\n        launchParticipants.push(msg.sender);\r\n    }\r\n\r\n\r\n\r\n\r\n    /**\r\n    @notice Figures out how much of a given LP token an account is allowed to withdraw\r\n    @param account is the account being checked\r\n    @param lpToken is the address of the lpToken the user wishes to withdraw\r\n    @dev this function runs calculations to accrue interest for an up to date amount\r\n     */\r\n    function getMaxWithdrawAllowed(address account, address lpToken) public returns (uint256) {\r\n        uint256 borrowedTotal = getTotalBorrowedValue(account);\r\n        uint256 collateralValue = getTotalAvailableCollateralValue(account);\r\n        uint256 requiredCollateral = calcCollateralRequired(borrowedTotal);\r\n        uint256 leftoverCollateral = collateralValue.sub(requiredCollateral);\r\n        uint256 lpValue = Oracle.getUnderlyingPrice(lpToken);\r\n        return leftoverCollateral.mul(1e18).div(lpValue);\r\n    }\r\n\r\n    /**\r\n    @notice Figures out how much of a given LP token an account is allowed to withdraw\r\n    @param account is the account being checked\r\n    @param lpToken is the address of the lpToken the user wishes to withdraw\r\n    @dev this function does not run calculations to accrue interest and returns the previously calculated amount\r\n     */\r\n    function viewMaxWithdrawAllowed(address account, address lpToken) public view returns (uint256) {\r\n        uint256 borrowedTotal = viewTotalBorrowedValue(account);\r\n        uint256 collateralValue = viewTotalAvailableCollateralValue(account);\r\n        uint256 requiredCollateral = calcCollateralRequired(borrowedTotal);\r\n        uint256 leftoverCollateral = collateralValue.sub(requiredCollateral);\r\n        uint256 lpValue = Oracle.viewUnderlyingPrice(lpToken);\r\n        return leftoverCollateral.mul(1e18).div(lpValue);\r\n    }\r\n\r\n    /**\r\n    @notice getTotalAvailableCollateralValue returns the total availible collaeral value for an account in USDC\r\n    @param _account is the address whos collateral is being retreived\r\n    @dev this function runs calculations to accrue interest for an up to date amount\r\n    **/\r\n    function getTotalAvailableCollateralValue(address _account)\r\n        public\r\n        returns (uint256)\r\n    {\r\n        //get the number of LP vaults the platform has\r\n        uint256 numVaults = lpVaults.length;\r\n        //initialize the totalCollateral variable to zero\r\n        uint256 totalCollateral = 0;\r\n        //loop through each lp wapr vault\r\n        for (uint256 i = 0; i < numVaults; ++i) {\r\n            //instantiate warp vault at that position\r\n            WarpVaultLPI vault = WarpVaultLPI(lpVaults[i]);\r\n            //retreive the address of its asset\r\n            address asset = vault.getAssetAdd();\r\n            //retrieve USD price of this asset\r\n            uint256 assetPrice = Oracle.getUnderlyingPrice(asset);\r\n\r\n            uint256 accountCollateral = vault.collateralOfAccount(_account);\r\n            //emit DebugValues(accountCollateral, assetPrice);\r\n\r\n            //multiply the amount of collateral by the asset price and return it\r\n            uint256 accountAssetsValue = accountCollateral.mul(assetPrice);\r\n            //add value to total collateral\r\n            totalCollateral = totalCollateral.add(accountAssetsValue);\r\n        }\r\n        //return total USDC value of all collateral\r\n        return totalCollateral.div(1e18);\r\n    }\r\n\r\n    /**\r\n    @notice getTotalAvailableCollateralValue returns the total availible collaeral value for an account in USDC\r\n    @param _account is the address whos collateral is being retreived\r\n    @dev this function does not run calculations to accrue interest and returns the previously calculated amount\r\n    **/\r\n    function viewTotalAvailableCollateralValue(address _account)\r\n        public\r\n        view\r\n        returns (uint256)\r\n    {\r\n        uint256 numVaults = lpVaults.length;\r\n        uint256 totalCollateral = 0;\r\n        //loop through each lp wapr vault\r\n        for (uint256 i = 0; i < numVaults; ++i) {\r\n            //instantiate warp vault at that position\r\n            WarpVaultLPI vault = WarpVaultLPI(lpVaults[i]);\r\n            //retreive the address of its asset\r\n            address asset = vault.getAssetAdd();\r\n            //retrieve USD price of this asset\r\n            uint256 assetPrice = Oracle.viewUnderlyingPrice(asset);\r\n\r\n            uint256 accountCollateral = vault.collateralOfAccount(_account);\r\n\r\n            //multiply the amount of collateral by the asset price and return it\r\n            uint256 accountAssetsValue = accountCollateral.mul(assetPrice);\r\n            //add value to total collateral\r\n            totalCollateral = totalCollateral.add(accountAssetsValue);\r\n        }\r\n        //return total USDC value of all collateral\r\n        return totalCollateral.div(1e18);\r\n    }\r\n\r\n    /**\r\n    @notice viewPriceOfCollateral returns the price of an lpToken\r\n    @param lpToken is the address of the lp token\r\n    @dev this function runs calculations to retrieve the current price\r\n    **/\r\n    function viewPriceOfCollateral(address lpToken) public view returns(uint256)\r\n    {\r\n        return Oracle.viewUnderlyingPrice(lpToken);\r\n    }\r\n\r\n    /**\r\n    @notice getPriceOfCollateral returns the price of an lpToken\r\n    @param lpToken is the address of the lp token\r\n    @dev this function does not run calculations amd returns the previously calculated price\r\n    **/\r\n    function getPriceOfCollateral(address lpToken) public returns(uint256)\r\n    {\r\n        return Oracle.getUnderlyingPrice(lpToken);\r\n    }\r\n\r\n    /**\r\n    @notice viewPriceOfToken retrieves the price of a stablecoin\r\n    @param token is the address of the stablecoin\r\n    @param amount is the amount of stablecoin\r\n    @dev this function runs calculations to retrieve the current price\r\n    **/\r\n    function viewPriceOfToken(address token, uint256 amount) public view returns(uint256)\r\n    {\r\n        return Oracle.viewPriceOfToken(token, amount);\r\n    }\r\n\r\n    /**\r\n    @notice viewPriceOfToken retrieves the price of a stablecoin\r\n    @param token is the address of the stablecoin\r\n    @param amount is the amount of stablecoin\r\n    @dev this function does not run calculations amd returns the previously calculated price\r\n    **/\r\n    function getPriceOfToken(address token, uint256 amount) public returns(uint256)\r\n    {\r\n        return Oracle.getPriceOfToken(token, amount);\r\n    }\r\n\r\n    /**\r\n    @notice viewTotalBorrowedValue returns the total borrowed value for an account in USDC\r\n    @param _account is the account whos borrowed value we are calculating\r\n    @dev this function returns previously calculated values\r\n    **/\r\n    function viewTotalBorrowedValue(address _account) public view returns (uint256) {\r\n        uint256 numSCVaults = scVaults.length;\r\n        //initialize the totalBorrowedValue variable to zero\r\n        uint256 totalBorrowedValue = 0;\r\n        //loop through all stable coin vaults\r\n        for (uint256 i = 0; i < numSCVaults; ++i) {\r\n            //instantiate each LP warp vault\r\n            WarpVaultSCI WVSC = WarpVaultSCI(scVaults[i]);\r\n            //retreive the amount user has borrowed from each stablecoin vault\r\n            uint256 borrowBalanceInStable = WVSC.borrowBalancePrior(_account);\r\n            if (borrowBalanceInStable == 0) {\r\n                continue;\r\n            }\r\n            uint256 usdcBorrowedAmount = viewPriceOfToken(WVSC.getSCAddress(), borrowBalanceInStable);\r\n            totalBorrowedValue = totalBorrowedValue.add(\r\n                usdcBorrowedAmount\r\n            );\r\n        }\r\n        //return total Borrowed Value\r\n        return totalBorrowedValue;\r\n    }\r\n\r\n    /**\r\n    @notice viewTotalBorrowedValue returns the total borrowed value for an account in USDC\r\n    @param _account is the account whos borrowed value we are calculating\r\n    @dev this function returns newly calculated values\r\n    **/\r\n    function getTotalBorrowedValue(address _account) public returns (uint256) {\r\n        uint256 numSCVaults = scVaults.length;\r\n        //initialize the totalBorrowedValue variable to zero\r\n        uint256 totalBorrowedValue = 0;\r\n        //loop through all stable coin vaults\r\n        for (uint256 i = 0; i < numSCVaults; ++i) {\r\n            //instantiate each LP warp vault\r\n            WarpVaultSCI WVSC = WarpVaultSCI(scVaults[i]);\r\n            //retreive the amount user has borrowed from each stablecoin vault\r\n            uint borrowBalanceInStable = WVSC.borrowBalanceCurrent(_account);\r\n            if (borrowBalanceInStable == 0) {\r\n                continue;\r\n            }\r\n            uint256 usdcBorrowedAmount = getPriceOfToken(WVSC.getSCAddress(), borrowBalanceInStable);\r\n            totalBorrowedValue = totalBorrowedValue.add(\r\n                usdcBorrowedAmount\r\n            );\r\n        }\r\n        //return total Borrowed Value\r\n        return totalBorrowedValue;\r\n    }\r\n\r\n    /**\r\n    @notice calcBorrowLimit is used to calculate the borrow limit for an account based on the input value of their collateral\r\n    @param _collateralValue is the USDC value of the users collateral\r\n    @dev this function divides the input value by 3 and then adds that value to itself so it can return 2/3rds of the availible collateral\r\n        as the borrow limit. If a usser has $150 USDC value in collateral this function will return $100 USDC as their borrow limit.\r\n    **/\r\n    function calcBorrowLimit(uint256 _collateralValue)\r\n        public\r\n        pure\r\n        returns (uint256)\r\n    {\r\n        //divide the collaterals value by 3 to get 1/3rd of its value\r\n        uint256 thirdCollatVal = _collateralValue.div(3);\r\n        //add this 1/3rd value to itself to get 2/3rds of the original value\r\n        return thirdCollatVal.add(thirdCollatVal);\r\n    }\r\n\r\n    /**\r\n    @notice calcCollateralRequired returns the amount of collateral needed for an input borrow value\r\n    @param _borrowAmount is the input borrow amount\r\n    **/\r\n    function calcCollateralRequired(uint256 _borrowAmount) public pure returns (uint256) {\r\n        return _borrowAmount.mul(3).div(2);\r\n    }\r\n\r\n    /**\r\n    @notice getBorrowLimit returns the borrow limit for an account\r\n    @param _account is the input account address\r\n    @dev this calculation uses current values for calculations\r\n    **/\r\n    function getBorrowLimit(address _account) public returns (uint256) {\r\n        uint256 availibleCollateralValue = getTotalAvailableCollateralValue(\r\n            _account\r\n        );\r\n\r\n        return calcBorrowLimit(availibleCollateralValue);\r\n    }\r\n\r\n    /**\r\n    @notice getBorrowLimit returns the borrow limit for an account\r\n    @param _account is the input account address\r\n    @dev this calculation uses previous values for calculations\r\n    **/\r\n    function viewBorrowLimit(address _account) public view returns (uint256) {\r\n        uint256 availibleCollateralValue = viewTotalAvailableCollateralValue(\r\n            _account\r\n        );\r\n        //return the users borrow limit\r\n        return calcBorrowLimit(availibleCollateralValue);\r\n    }\r\n\r\n    /**\r\n    @notice borrowSC is the function an end user will call when they wish to borrow a stablecoin from the warp platform\r\n    @param _StableCoin is the address of the stablecoin the user wishes to borrow\r\n    @param _amount is the amount of that stablecoin the user wants to borrow\r\n    **/\r\n    function borrowSC(address _StableCoin, uint256 _amount) public {\r\n        uint256 borrowedTotalInUSDC = getTotalBorrowedValue(msg.sender);\r\n        uint256 borrowLimitInUSDC = getBorrowLimit(msg.sender);\r\n        uint256 borrowAmountAllowedInUSDC = borrowLimitInUSDC.sub(borrowedTotalInUSDC);\r\n\r\n        uint256 borrowAmountInUSDC = getPriceOfToken(_StableCoin, _amount);\r\n\r\n        //require the amount being borrowed is less than or equal to the amount they are aloud to borrow\r\n        require(borrowAmountAllowedInUSDC >= borrowAmountInUSDC, \"Borrowing more than allowed\");\r\n        //track USDC value of locked LP\r\n        lockedLPValue[msg.sender] = lockedLPValue[msg.sender].add(_amount);\r\n        //retreive stablecoin vault address being borrowed from and instantiate it\r\n        WarpVaultSCI WV = WarpVaultSCI(instanceSCTracker[_StableCoin]);\r\n        //call _borrow function on the stablecoin warp vault\r\n        WV._borrow(_amount, msg.sender);\r\n        emit NewBorrow(msg.sender, _StableCoin, _amount);\r\n    }\r\n\r\n\r\n\r\n    /**\r\n    @notice liquidateAccount is used to liquidate a non-compliant loan after it has reached its 30 minute grace period\r\n    @param _borrower is the address of the borrower whos loan is non-compliant\r\n    **/\r\n    function liquidateAccount(address _borrower) public {\r\n         //require the liquidator is not also the borrower\r\n        require(msg.sender != _borrower, \"you cant liquidate yourself\");\r\n        //retreive the number of stablecoin vaults in the warp platform\r\n        uint256 numSCVaults = scVaults.length;\r\n        //retreive the number of LP vaults in the warp platform\r\n        uint256 numLPVaults = lpVaults.length;\r\n        // This is how much USDC worth of Stablecoin the user has borrowed\r\n        uint256 borrowedAmount = 0;\r\n        //initialize the stable coin balances array\r\n        uint256[] memory scBalances = new uint256[](numSCVaults);\r\n        // loop through and retreive the Borrowed Amount From All Vaults\r\n        for (uint256 i = 0; i < numSCVaults; ++i) {\r\n            //instantiate the vault at the current  position in the array\r\n            WarpVaultSCI scVault = WarpVaultSCI(scVaults[i]);\r\n            //retreive the borrowers borrow balance from this vault and add it to the scBalances array\r\n            scBalances[i] = scVault.borrowBalanceCurrent(_borrower);\r\n            uint256 borrowedAmountInUSDC = viewPriceOfToken(getVaultByAsset[address(scVault)], scBalances[i]);\r\n\r\n            //add the borrowed amount to the total borrowed balance\r\n            borrowedAmount = borrowedAmount.add(borrowedAmountInUSDC);\r\n        }\r\n        //retreve the USDC borrow limit for the borrower\r\n        uint256 borrowLimit = getBorrowLimit(_borrower);\r\n        //check if the borrow is less than the borrowed amount\r\n        if (borrowLimit <= borrowedAmount) {\r\n            // If it is Liquidate the account\r\n            //loop through each SC vault so the  Liquidator can pay off Stable Coin loans\r\n            for (uint256 i = 0; i < numSCVaults; ++i) {\r\n                //instantiate the Warp SC Vault at the current position\r\n                WarpVaultSCI scVault = WarpVaultSCI(scVaults[i]);\r\n                //call repayLiquidatedLoan function to repay the loan\r\n                scVault._repayLiquidatedLoan(\r\n                    _borrower,\r\n                    msg.sender,\r\n                    scBalances[i]\r\n                );\r\n            }\r\n            //loop through each LP vault so the Liquidator gets the LP tokens the borrower had\r\n            for (uint256 i = 0; i < numLPVaults; ++i) {\r\n                //instantiate the Warp LP Vault at the current position\r\n                WarpVaultLPI lpVault = WarpVaultLPI(lpVaults[i]);\r\n                //call liquidateAccount function on that LP vault\r\n                lpVault._liquidateAccount(_borrower, msg.sender);\r\n            }\r\n            emit Liquidation(_borrower, msg.sender);\r\n        }\r\n    }\r\n\r\n    /**\r\n    @notice updateInterestRateModel allows the warp team to update the interest rate model for a stablecoin\r\n    @param _token is the address of the stablecoin whos vault is having its interest rate updated\r\n    @param _baseRatePerYear is the base rate per year(approx target base APR)\r\n    @param _multiplierPerYear is the multiplier per year(rate of increase in interest w/ utilizastion)\r\n    @param _jumpMultiplierPerYear is the Jump Multiplier Per Year(the multiplier per block after hitting a specific utilizastion point)\r\n    @param _optimal is the this is the utilizastion point or \"kink\" at which the jump multiplier is applied\r\n    **/\r\n    function updateInterestRateModel(\r\n        address _token,\r\n        uint256 _baseRatePerYear,\r\n        uint256 _multiplierPerYear,\r\n        uint256 _jumpMultiplierPerYear,\r\n        uint256 _optimal\r\n      ) public onlyWarpT {\r\n      address IR = address(\r\n          new JumpRateModelV2(\r\n              _baseRatePerYear,\r\n              _multiplierPerYear,\r\n              _jumpMultiplierPerYear,\r\n              _optimal,\r\n              address(this)\r\n          )\r\n      );\r\n      address vault = instanceSCTracker[_token];\r\n      WarpVaultSCI WV = WarpVaultSCI(vault);\r\n      WV.setNewInterestModel(IR);\r\n    }\r\n\r\n    /**\r\n    @notice startUpgradeTimer starts a two day timer signaling that this contract will soon be updated to a new version\r\n    @param _newWarpControl is the address of the new Warp control contract being upgraded to\r\n    **/\r\n    function startUpgradeTimer(address _newWarpControl) public onlyWarpT{\r\n      newWarpControl = _newWarpControl;\r\n      graceSpace = now.add(172800);\r\n    }\r\n\r\n    /**\r\n    @notice upgradeWarp is used to upgrade the Warp platform to use a new version of the WarpControl contract\r\n    **/\r\n    function upgradeWarp() public onlyOwner {\r\n        require(now >= graceSpace, \"you cant ugrade yet, less than two days\");\r\n\r\n        WVLPF.transferOwnership(newWarpControl);\r\n        WVSCF.transferOwnership(newWarpControl);\r\n        Oracle.transferOwnership(newWarpControl);\r\n\r\n        uint256 numVaults = lpVaults.length;\r\n        uint256 numSCVaults = scVaults.length;\r\n\r\n        for (uint256 i = 0; i < numVaults; ++i) {\r\n            WarpVaultLPI vault = WarpVaultLPI(lpVaults[i]);\r\n            vault.upgrade(newWarpControl);\r\n            vault.transferOwnership(newWarpControl);\r\n        }\r\n\r\n        for (uint256 i = 0; i < numSCVaults; ++i) {\r\n            WarpVaultSCI vault = WarpVaultSCI(scVaults[i]);\r\n            vault.upgrade(newWarpControl);\r\n            vault.transferOwnership(newWarpControl);\r\n        }\r\n  }\r\n\r\n/**\r\n@notice transferWarpTeam allows the wapr team address to be changed by the owner account\r\n@param _newWarp is the address of the new warp team\r\n**/\r\n    function transferWarpTeam(address _newWarp) public onlyOwner {\r\n        uint256 numSCVaults = scVaults.length;\r\n        warpTeam = _newWarp;\r\n        for (uint256 i = 0; i < numSCVaults; ++i) {\r\n            WarpVaultSCI WVSC = WarpVaultSCI(scVaults[i]);\r\n            WVSC.updateTeam(_newWarp);\r\n        }\r\n      \r\n    }\r\n}\r\n",
  "sourcePath": "E:/dOrg/warp/Smart-Contracts/contracts/WarpControl.sol",
  "compiler": {
    "name": "solc",
    "version": "0.6.6+commit.6c089d02.Emscripten.clang"
  },
  "schemaVersion": "3.3.2",
  "updatedAt": "2020-12-10T00:48:51.487Z",
  "devdoc": {
    "methods": {
      "addMemberToGroup(address)": {
        "details": "the member being added is the msg.sender*",
        "params": {
          "_refferalCode": "is the address used as a groups refferal code"
        }
      },
      "borrowSC(address,uint256)": {
        "params": {
          "_StableCoin": "is the address of the stablecoin the user wishes to borrow",
          "_amount": "is the amount of that stablecoin the user wants to borrow*"
        }
      },
      "calcBorrowLimit(uint256)": {
        "details": "this function divides the input value by 3 and then adds that value to itself so it can return 2/3rds of the availible collateral as the borrow limit. If a usser has $150 USDC value in collateral this function will return $100 USDC as their borrow limit.*",
        "params": {
          "_collateralValue": "is the USDC value of the users collateral"
        }
      },
      "calcCollateralRequired(uint256)": {
        "params": {
          "_borrowAmount": "is the input borrow amount*"
        }
      },
      "constructor": {
        "details": "These factories are split into seperate contracts to avoid hitting the block gas limit*",
        "params": {
          "_WVLPF": "is the address for the WarpVaultLPFactory used to produce LP Warp Vaults",
          "_WVSCF": "is the address for the WarpVaultSCFactory used to produce Stable Coin Warp Vaults",
          "_oracle": "is the address for the UniswapOracleFactorycontract"
        }
      },
      "createGroup(string)": {
        "details": "the refferal code for this group is the address of the msg.sender*",
        "params": {
          "_groupName": "is the name of the group being created"
        }
      },
      "createNewLPVault(uint256,address,address,address,string)": {
        "params": {
          "_lp": "is the address for the LP token this Warp Vault will manage",
          "_lpAsset1": "is the address for the first asset in a pair that the LP token represents(ex: wETH in a wETH-wBTC uniswap pair)",
          "_lpAsset2": "is the address for the second asset in a pair that the LP token represents(ex: wBTC in a wETH-wBTC uniswap pair)",
          "_lpName": "is the name of the LP token (ex:wETH-wBTC)*",
          "_timelock": "is a variable representing the number of seconds the timeWizard will prevent withdraws and borrows from a contracts(one week is 605800 seconds)"
        }
      },
      "createNewSCVault(uint256,uint256,uint256,uint256,uint256,uint256,uint256,address)": {
        "params": {
          "_StableCoin": "is the address of the StableCoin this Warp Vault will manage*",
          "_baseRatePerYear": "is the base rate per year(approx target base APR)",
          "_initialExchangeRate": "is the intitial exchange rate(the rate at which the initial exchange of asset/ART is set)",
          "_jumpMultiplierPerYear": "is the Jump Multiplier Per Year(the multiplier per block after hitting a specific utilizastion point)",
          "_multiplierPerYear": "is the multiplier per year(rate of increase in interest w/ utilizastion)",
          "_optimal": "is the this is the utilizastion point or \"kink\" at which the jump multiplier is applied",
          "_timelock": "is a variable representing the number of seconds the timeWizard will prevent withdraws and borrows from a contracts(one week is 605800 seconds)"
        }
      },
      "getAccountsGroup(address)": {
        "params": {
          "_account": "is the address whos team is being retrieved*"
        }
      },
      "getBorrowLimit(address)": {
        "details": "this calculation uses current values for calculations*",
        "params": {
          "_account": "is the input account address"
        }
      },
      "getGroupName(address)": {
        "params": {
          "_refferalCode": "is the address that acts as a referral code for a group*"
        }
      },
      "getMaxWithdrawAllowed(address,address)": {
        "details": "this function runs calculations to accrue interest for an up to date amount",
        "params": {
          "account": "is the account being checked",
          "lpToken": "is the address of the lpToken the user wishes to withdraw"
        }
      },
      "getPriceOfCollateral(address)": {
        "details": "this function does not run calculations amd returns the previously calculated price*",
        "params": {
          "lpToken": "is the address of the lp token"
        }
      },
      "getPriceOfToken(address,uint256)": {
        "details": "this function does not run calculations amd returns the previously calculated price*",
        "params": {
          "amount": "is the amount of stablecoin",
          "token": "is the address of the stablecoin"
        }
      },
      "getTotalAvailableCollateralValue(address)": {
        "details": "this function runs calculations to accrue interest for an up to date amount*",
        "params": {
          "_account": "is the address whos collateral is being retreived"
        }
      },
      "getTotalBorrowedValue(address)": {
        "details": "this function returns newly calculated values*",
        "params": {
          "_account": "is the account whos borrowed value we are calculating"
        }
      },
      "liquidateAccount(address)": {
        "params": {
          "_borrower": "is the address of the borrower whos loan is non-compliant*"
        }
      },
      "owner()": {
        "details": "Returns the address of the current owner."
      },
      "renounceOwnership()": {
        "details": "Leaves the contract without owner. It will not be possible to call `onlyOwner` functions anymore. Can only be called by the current owner.     * NOTE: Renouncing ownership will leave the contract without an owner, thereby removing any functionality that is only available to the owner."
      },
      "startUpgradeTimer(address)": {
        "params": {
          "_newWarpControl": "is the address of the new Warp control contract being upgraded to*"
        }
      },
      "transferOwnership(address)": {
        "details": "Transfers ownership of the contract to a new account (`newOwner`). Can only be called by the current owner."
      },
      "transferWarpTeam(address)": {
        "params": {
          "_newWarp": "is the address of the new warp team*"
        }
      },
      "updateInterestRateModel(address,uint256,uint256,uint256,uint256)": {
        "params": {
          "_baseRatePerYear": "is the base rate per year(approx target base APR)",
          "_jumpMultiplierPerYear": "is the Jump Multiplier Per Year(the multiplier per block after hitting a specific utilizastion point)",
          "_multiplierPerYear": "is the multiplier per year(rate of increase in interest w/ utilizastion)",
          "_optimal": "is the this is the utilizastion point or \"kink\" at which the jump multiplier is applied*",
          "_token": "is the address of the stablecoin whos vault is having its interest rate updated"
        }
      },
      "viewAllMembersOfAGroup(address)": {
        "params": {
          "_refferalCode": "is the address that acts as a referral code for a group*"
        }
      },
      "viewBorrowLimit(address)": {
        "details": "this calculation uses previous values for calculations*",
        "params": {
          "_account": "is the input account address"
        }
      },
      "viewMaxWithdrawAllowed(address,address)": {
        "details": "this function does not run calculations to accrue interest and returns the previously calculated amount",
        "params": {
          "account": "is the account being checked",
          "lpToken": "is the address of the lpToken the user wishes to withdraw"
        }
      },
      "viewPriceOfCollateral(address)": {
        "details": "this function runs calculations to retrieve the current price*",
        "params": {
          "lpToken": "is the address of the lp token"
        }
      },
      "viewPriceOfToken(address,uint256)": {
        "details": "this function runs calculations to retrieve the current price*",
        "params": {
          "amount": "is the amount of stablecoin",
          "token": "is the address of the stablecoin"
        }
      },
      "viewTotalAvailableCollateralValue(address)": {
        "details": "this function does not run calculations to accrue interest and returns the previously calculated amount*",
        "params": {
          "_account": "is the address whos collateral is being retreived"
        }
      },
      "viewTotalBorrowedValue(address)": {
        "details": "this function returns previously calculated values*",
        "params": {
          "_account": "is the account whos borrowed value we are calculating"
        }
      }
    }
  },
  "userdoc": {
    "methods": {
      "addMemberToGroup(address)": {
        "notice": "addMemberToGroup is used to add an account to a group"
      },
      "borrowSC(address,uint256)": {
        "notice": "borrowSC is the function an end user will call when they wish to borrow a stablecoin from the warp platform"
      },
      "calcBorrowLimit(uint256)": {
        "notice": "calcBorrowLimit is used to calculate the borrow limit for an account based on the input value of their collateral"
      },
      "calcCollateralRequired(uint256)": {
        "notice": "calcCollateralRequired returns the amount of collateral needed for an input borrow value"
      },
      "constructor": "the constructor function is fired during the contract deployment process. The constructor can only be fired once and is used to set up Oracle variables for the MoneyMarketFactory contract.",
      "createGroup(string)": {
        "notice": "@createGroup is used to create a new group"
      },
      "createNewLPVault(uint256,address,address,address,string)": {
        "notice": "createNewLPVault allows the contract owner to create a new WarpVaultLP contract for a specific LP token"
      },
      "createNewSCVault(uint256,uint256,uint256,uint256,uint256,uint256,uint256,address)": {
        "notice": "createNewSCVault allows the contract owner to create a new WarpVaultLP contract for a specific LP token"
      },
      "getAccountsGroup(address)": {
        "notice": "getAccountsGroup returns the refferal code address of the team an account is on"
      },
      "getBorrowLimit(address)": {
        "notice": "getBorrowLimit returns the borrow limit for an account"
      },
      "getGroupName(address)": {
        "notice": "getGroupName returns the name of a group"
      },
      "getMaxWithdrawAllowed(address,address)": {
        "notice": "Figures out how much of a given LP token an account is allowed to withdraw"
      },
      "getPriceOfCollateral(address)": {
        "notice": "getPriceOfCollateral returns the price of an lpToken"
      },
      "getPriceOfToken(address,uint256)": {
        "notice": "viewPriceOfToken retrieves the price of a stablecoin"
      },
      "getTotalAvailableCollateralValue(address)": {
        "notice": "getTotalAvailableCollateralValue returns the total availible collaeral value for an account in USDC"
      },
      "getTotalBorrowedValue(address)": {
        "notice": "viewTotalBorrowedValue returns the total borrowed value for an account in USDC"
      },
      "liquidateAccount(address)": {
        "notice": "liquidateAccount is used to liquidate a non-compliant loan after it has reached its 30 minute grace period"
      },
      "startUpgradeTimer(address)": {
        "notice": "startUpgradeTimer starts a two day timer signaling that this contract will soon be updated to a new version"
      },
      "transferWarpTeam(address)": {
        "notice": "transferWarpTeam allows the wapr team address to be changed by the owner account"
      },
      "updateInterestRateModel(address,uint256,uint256,uint256,uint256)": {
        "notice": "updateInterestRateModel allows the warp team to update the interest rate model for a stablecoin"
      },
      "upgradeWarp()": {
        "notice": "upgradeWarp is used to upgrade the Warp platform to use a new version of the WarpControl contract*"
      },
      "viewAllGroups()": {
        "notice": "viewAllGroups returns an array of all group addresses*"
      },
      "viewAllMembersOfAGroup(address)": {
        "notice": "viewAllMembersOfAGroup returns an array of addresses containing the addresses of every member in a group"
      },
      "viewBorrowLimit(address)": {
        "notice": "getBorrowLimit returns the borrow limit for an account"
      },
      "viewLaunchParticipants()": {
        "notice": "viewLaunchParticipants returns an array of all launch participant addresses*"
      },
      "viewMaxWithdrawAllowed(address,address)": {
        "notice": "Figures out how much of a given LP token an account is allowed to withdraw"
      },
      "viewNumLPVaults()": {
        "notice": "viewNumLPVaults returns the number of lp vaults on the warp platform*"
      },
      "viewNumSCVaults()": {
        "notice": "viewNumSCVaults returns the number of stablecoin vaults on the warp platform*"
      },
      "viewPriceOfCollateral(address)": {
        "notice": "viewPriceOfCollateral returns the price of an lpToken"
      },
      "viewPriceOfToken(address,uint256)": {
        "notice": "viewPriceOfToken retrieves the price of a stablecoin"
      },
      "viewTotalAvailableCollateralValue(address)": {
        "notice": "getTotalAvailableCollateralValue returns the total availible collaeral value for an account in USDC"
      },
      "viewTotalBorrowedValue(address)": {
        "notice": "viewTotalBorrowedValue returns the total borrowed value for an account in USDC"
      }
    },
    "notice": "WarpControl is designed to coordinate Warp Vaults This contract uses the OpenZeppelin contract Library to inherit functions from Ownable.sol*"
  }
}