{
  "contractName": "WarpVaultLPFactory",
  "abi": [
    {
      "anonymous": false,
      "inputs": [
        {
          "indexed": true,
          "internalType": "address",
          "name": "previousOwner",
          "type": "address"
        },
        {
          "indexed": true,
          "internalType": "address",
          "name": "newOwner",
          "type": "address"
        }
      ],
      "name": "OwnershipTransferred",
      "type": "event"
    },
    {
      "inputs": [],
      "name": "owner",
      "outputs": [
        {
          "internalType": "address",
          "name": "",
          "type": "address"
        }
      ],
      "stateMutability": "view",
      "type": "function"
    },
    {
      "inputs": [],
      "name": "renounceOwnership",
      "outputs": [],
      "stateMutability": "nonpayable",
      "type": "function"
    },
    {
      "inputs": [
        {
          "internalType": "address",
          "name": "newOwner",
          "type": "address"
        }
      ],
      "name": "transferOwnership",
      "outputs": [],
      "stateMutability": "nonpayable",
      "type": "function"
    },
    {
      "inputs": [
        {
          "internalType": "uint256",
          "name": "_timelock",
          "type": "uint256"
        },
        {
          "internalType": "address",
          "name": "_lp",
          "type": "address"
        },
        {
          "internalType": "string",
          "name": "_lpName",
          "type": "string"
        }
      ],
      "name": "createWarpVaultLP",
      "outputs": [
        {
          "internalType": "address",
          "name": "",
          "type": "address"
        }
      ],
      "stateMutability": "nonpayable",
      "type": "function"
    }
  ],
  "bytecode": "0x608060405260006100176001600160e01b0361006616565b600080546001600160a01b0319166001600160a01b0383169081178255604051929350917f8be0079c531659141344cd1fd0a4f28419497f9722a3daafe3b4186f6b6457e0908290a35061006a565b3390565b6116c3806100796000396000f3fe608060405234801561001057600080fd5b506004361061004c5760003560e01c8063715018a6146100515780638da5cb5b1461005b578063a8edf1151461007f578063f2fde38b1461013a575b600080fd5b610059610160565b005b610063610214565b604080516001600160a01b039092168252519081900360200190f35b6100636004803603606081101561009557600080fd5b8135916001600160a01b03602082013516918101906060810160408201356401000000008111156100c557600080fd5b8201836020820111156100d757600080fd5b803590602001918460018302840111640100000000831117156100f957600080fd5b91908080601f016020809104026020016040519081016040528093929190818152602001838380828437600092019190915250929550610223945050505050565b6100596004803603602081101561015057600080fd5b50356001600160a01b03166103cf565b6101686104d9565b6000546001600160a01b039081169116146101ca576040805162461bcd60e51b815260206004820181905260248201527f4f776e61626c653a2063616c6c6572206973206e6f7420746865206f776e6572604482015290519081900360640190fd5b600080546040516001600160a01b03909116907f8be0079c531659141344cd1fd0a4f28419497f9722a3daafe3b4186f6b6457e0908390a3600080546001600160a01b0319169055565b6000546001600160a01b031690565b600061022d6104d9565b6000546001600160a01b0390811691161461028f576040805162461bcd60e51b815260206004820181905260248201527f4f776e61626c653a2063616c6c6572206973206e6f7420746865206f776e6572604482015290519081900360640190fd5b6000848433856040516102a1906104dd565b80858152602001846001600160a01b03166001600160a01b03168152602001836001600160a01b03166001600160a01b0316815260200180602001828103825283818151815260200191508051906020019080838360005b838110156103115781810151838201526020016102f9565b50505050905090810190601f16801561033e5780820380516001836020036101000a031916815260200191505b5095505050505050604051809103906000f080158015610362573d6000803e3d6000fd5b506040805163f2fde38b60e01b815233600482015290519192506001600160a01b0383169163f2fde38b9160248082019260009290919082900301818387803b1580156103ae57600080fd5b505af11580156103c2573d6000803e3d6000fd5b5092979650505050505050565b6103d76104d9565b6000546001600160a01b03908116911614610439576040805162461bcd60e51b815260206004820181905260248201527f4f776e61626c653a2063616c6c6572206973206e6f7420746865206f776e6572604482015290519081900360640190fd5b6001600160a01b03811661047e5760405162461bcd60e51b81526004018080602001828103825260268152602001806116686026913960400191505060405180910390fd5b600080546040516001600160a01b03808516939216917f8be0079c531659141344cd1fd0a4f28419497f9722a3daafe3b4186f6b6457e091a3600080546001600160a01b0319166001600160a01b0392909216919091179055565b3390565b61117d806104eb8339019056fe60806040523480156200001157600080fd5b506040516200117d3803806200117d833981810160405260808110156200003757600080fd5b8151602083015160408085015160608601805192519496939591949391820192846401000000008211156200006b57600080fd5b9083019060208201858111156200008157600080fd5b82516401000000008111828201881017156200009c57600080fd5b82525081516020918201929091019080838360005b83811015620000cb578181015183820152602001620000b1565b50505050905090810190601f168015620000f95780820380516001836020036101000a031916815260200191505b50604052505050600062000112620001ca60201b60201c565b600080546001600160a01b0319166001600160a01b0383169081178255604051929350917f8be0079c531659141344cd1fd0a4f28419497f9722a3daafe3b4186f6b6457e0908290a35080516200017190600290602084019062000231565b50600380546001600160a01b03199081166001600160a01b038681169190911790925560048054909116918416919091179055620001bc4285620001cf602090811b62000ccc17901c565b60015550620002d392505050565b335b90565b6000828201838110156200022a576040805162461bcd60e51b815260206004820152601b60248201527f536166654d6174683a206164646974696f6e206f766572666c6f770000000000604482015290519081900360640190fd5b9392505050565b828054600181600116156101000203166002900490600052602060002090601f016020900481019282601f106200027457805160ff1916838001178555620002a4565b82800160010185558215620002a4579182015b82811115620002a457825182559160200191906001019062000287565b50620002b2929150620002b6565b5090565b620001cc91905b80821115620002b25760008155600101620002bd565b610e9a80620002e36000396000f3fe608060405234801561001057600080fd5b50600436106100f55760003560e01c80638da5cb5b11610097578063f0c3c06b11610066578063f0c3c06b14610266578063f2fde38b14610283578063f4b5e3e4146102a9578063f919b4bf146102d7576100f5565b80638da5cb5b14610228578063c14cba3e14610230578063c453e55714610238578063cb7b42061461025e576100f5565b80634c20ac74116100d35780634c20ac74146101c35780636112fe2e146101cb578063715018a6146101e8578063763e4a0d146101f0576100f5565b80630900f010146100fa578063122b58181461012257806346cd680114610146575b600080fd5b6101206004803603602081101561011057600080fd5b50356001600160a01b03166102fd565b005b61012a610336565b604080516001600160a01b039092168252519081900360200190f35b61014e610345565b6040805160208082528351818301528351919283929083019185019080838360005b83811015610188578181015183820152602001610170565b50505050905090810190601f1680156101b55780820380516001836020036101000a031916815260200191505b509250505060405180910390f35b61012a6103d0565b610120600480360360208110156101e157600080fd5b50356103df565b610120610610565b6102166004803603602081101561020657600080fd5b50356001600160a01b03166106c4565b60408051918252519081900360200190f35b61012a6106d6565b61012a6106e5565b6102166004803603602081101561024e57600080fd5b50356001600160a01b03166106f4565b6102166107ac565b6101206004803603602081101561027c57600080fd5b50356107b2565b6101206004803603602081101561029957600080fd5b50356001600160a01b0316610a2c565b610120600480360360408110156102bf57600080fd5b506001600160a01b0381358116916020013516610b36565b610216600480360360208110156102ed57600080fd5b50356001600160a01b0316610c09565b6004546001600160a01b0316331461031457600080fd5b600480546001600160a01b0319166001600160a01b0392909216919091179055565b6004546001600160a01b031681565b6002805460408051602060018416156101000260001901909316849004601f810184900484028201840190925281815292918301828280156103c85780601f1061039d576101008083540402835291602001916103c8565b820191906000526020600020905b8154815290600101906020018083116103ab57829003601f168201915b505050505081565b6003546001600160a01b031690565b600480546003546040805163ab5e2c9960e01b815233948101949094526001600160a01b039182166024850152516000938493929092169163ab5e2c9991604480830192602092919082900301818787803b15801561043d57600080fd5b505af1158015610451573d6000803e3d6000fd5b505050506040513d602081101561046757600080fd5b50519050826104785780915061047c565b8291505b818110156104d1576040805162461bcd60e51b815260206004820152601b60248201527f547279696e6720746f20776974686472617720746f6f206d7563680000000000604482015290519081900360640190fd5b3360009081526005602052604090205482111561051f5760405162461bcd60e51b815260040180806020018281038252603f815260200180610dbe603f913960400191505060405180910390fd5b3360009081526005602052604090205461053f908363ffffffff610c2416565b33600081815260056020908152604080832094909455600354845163a9059cbb60e01b815260048101949094526024840187905293516001600160a01b039094169363a9059cbb93604480820194918390030190829087803b1580156105a457600080fd5b505af11580156105b8573d6000803e3d6000fd5b505050506040513d60208110156105ce57600080fd5b5050604080513381526020810184905281517f92682d28e4c16f4a2ddb833ecdd2bab2f2da69e2f325cda58d421e7d634b8e27929181900390910190a1505050565b610618610c6f565b6000546001600160a01b0390811691161461067a576040805162461bcd60e51b815260206004820181905260248201527f4f776e61626c653a2063616c6c6572206973206e6f7420746865206f776e6572604482015290519081900360640190fd5b600080546040516001600160a01b03909116907f8be0079c531659141344cd1fd0a4f28419497f9722a3daafe3b4186f6b6457e0908390a3600080546001600160a01b0319169055565b60056020526000908152604090205481565b6000546001600160a01b031690565b6003546001600160a01b031681565b600480546003546040805163272c85f760e11b81526001600160a01b03928316948101949094525160009384939290921691634e590bee916024808301926020929190829003018186803b15801561074b57600080fd5b505afa15801561075f573d6000803e3d6000fd5b505050506040513d602081101561077557600080fd5b50516001600160a01b038416600090815260056020526040812054919250906107a4908363ffffffff610c7316565b949350505050565b60015481565b60035460408051636eb1769f60e11b8152336004820152306024820152905183926001600160a01b03169163dd62ed3e916044808301926020929190829003018186803b15801561080257600080fd5b505afa158015610816573d6000803e3d6000fd5b505050506040513d602081101561082c57600080fd5b5051101561086b5760405162461bcd60e51b8152600401808060200182810382526021815260200180610e446021913960400191505060405180910390fd5b600354604080516370a0823160e01b8152336004820152905183926001600160a01b0316916370a08231916024808301926020929190829003018186803b1580156108b557600080fd5b505afa1580156108c9573d6000803e3d6000fd5b505050506040513d60208110156108df57600080fd5b50511015610934576040805162461bcd60e51b815260206004820152601e60248201527f4d757374206861766520656e6f756768204c5020746f2070726f766964650000604482015290519081900360640190fd5b600354604080516323b872dd60e01b81523360048201523060248201526044810184905290516001600160a01b03909216916323b872dd916064808201926020929091908290030181600087803b15801561098e57600080fd5b505af11580156109a2573d6000803e3d6000fd5b505050506040513d60208110156109b857600080fd5b5050336000908152600560205260409020546109da908263ffffffff610ccc16565b3360008181526005602090815260409182902093909355805191825291810183905281517f304548d20eea45684a7db179080f94dce8e4442923ddd63688ab5b7e270a4849929181900390910190a150565b610a34610c6f565b6000546001600160a01b03908116911614610a96576040805162461bcd60e51b815260206004820181905260248201527f4f776e61626c653a2063616c6c6572206973206e6f7420746865206f776e6572604482015290519081900360640190fd5b6001600160a01b038116610adb5760405162461bcd60e51b8152600401808060200182810382526026815260200180610dfd6026913960400191505060405180910390fd5b600080546040516001600160a01b03808516939216917f8be0079c531659141344cd1fd0a4f28419497f9722a3daafe3b4186f6b6457e091a3600080546001600160a01b0319166001600160a01b0392909216919091179055565b6004546001600160a01b03163314610b4d57600080fd5b6001544211610b5b57600080fd5b6003546001600160a01b03838116600090815260056020908152604080832054815163a9059cbb60e01b8152878616600482015260248101919091529051939094169363a9059cbb9360448083019491928390030190829087803b158015610bc257600080fd5b505af1158015610bd6573d6000803e3d6000fd5b505050506040513d6020811015610bec57600080fd5b5050506001600160a01b0316600090815260056020526040812055565b6001600160a01b031660009081526005602052604090205490565b6000610c6683836040518060400160405280601e81526020017f536166654d6174683a207375627472616374696f6e206f766572666c6f770000815250610d26565b90505b92915050565b3390565b600082610c8257506000610c69565b82820282848281610c8f57fe5b0414610c665760405162461bcd60e51b8152600401808060200182810382526021815260200180610e236021913960400191505060405180910390fd5b600082820183811015610c66576040805162461bcd60e51b815260206004820152601b60248201527f536166654d6174683a206164646974696f6e206f766572666c6f770000000000604482015290519081900360640190fd5b60008184841115610db55760405162461bcd60e51b81526004018080602001828103825283818151815260200191508051906020019080838360005b83811015610d7a578181015183820152602001610d62565b50505050905090810190601f168015610da75780820380516001836020036101000a031916815260200191505b509250505060405180910390fd5b50505090039056fe796f752061726520747279696e6720746f207769746864726177206d6f726520636f6c6c61746572616c207468616e20796f752068617665206c6f636b65644f776e61626c653a206e6577206f776e657220697320746865207a65726f2061646472657373536166654d6174683a206d756c7469706c69636174696f6e206f766572666c6f775661756c74206d757374206861766520656e6f75676820616c6c6f77616e63652ea2646970667358221220845814bf8fc3e9121f36e5bf10e9d731b4fde618297a970e7380c4b74805dadd64736f6c634300060600334f776e61626c653a206e6577206f776e657220697320746865207a65726f2061646472657373a264697066735822122001a804ad339c0ed36d2cbc0e2bfb43c1988fe9261b83e5441d476b0b1c63d5cd64736f6c63430006060033",
  "immutableReferences": {},
  "source": "pragma solidity ^0.6.0;\n\nimport \"./WarpVaultLP.sol\";\nimport \"@openzeppelin/contracts/access/Ownable.sol\";\n\n////////////////////////////////////////////////////////////////////////////////////////////\n/// @title WarpVaultLPFactory\n/// @author Christopher Dixon\n////////////////////////////////////////////////////////////////////////////////////////////\n/**\nThe WarpVaultLPFactory contract is designed to produce individual WarpVaultLP contracts\nThis contract uses the OpenZeppelin contract Library to inherit functions from\n  Ownable.sol\n**/\n\ncontract WarpVaultLPFactory is Ownable {\n    /**\n        @notice createWarpVaultLP allows the contract owner to create a new WarpVaultLP contract for a specific LP token\n        @param _timelock is a variable representing the number of seconds the timeWizard will prevent withdraws and borrows from a contracts(one week is 605800 seconds)\n        @param _lp is the address for the LP token this Warp Vault will manage\n        @param _lpName is the name of the LP token (ex:wETH-wBTC)\n        **/\n    function createWarpVaultLP(uint256 _timelock, address _lp, string memory _lpName)\n        public\n        onlyOwner\n        returns (address)\n    {\n        WarpVaultLP vault = new WarpVaultLP(_timelock, _lp, msg.sender, _lpName);\n        vault.transferOwnership(msg.sender);\n\n        return address(vault);\n    }\n}\n",
  "sourcePath": "/home/stan36/repos/Warp/Smart-Contracts/contracts/WarpVaultLPFactory.sol",
  "compiler": {
    "name": "solc",
    "version": "0.6.6+commit.6c089d02.Emscripten.clang"
  },
  "schemaVersion": "3.3.2",
  "updatedAt": "2020-12-10T23:21:40.444Z",
  "devdoc": {
    "methods": {
      "createWarpVaultLP(uint256,address,string)": {
        "params": {
          "_lp": "is the address for the LP token this Warp Vault will manage",
          "_lpName": "is the name of the LP token (ex:wETH-wBTC)*",
          "_timelock": "is a variable representing the number of seconds the timeWizard will prevent withdraws and borrows from a contracts(one week is 605800 seconds)"
        }
      },
      "owner()": {
        "details": "Returns the address of the current owner."
      },
      "renounceOwnership()": {
        "details": "Leaves the contract without owner. It will not be possible to call `onlyOwner` functions anymore. Can only be called by the current owner.     * NOTE: Renouncing ownership will leave the contract without an owner, thereby removing any functionality that is only available to the owner."
      },
      "transferOwnership(address)": {
        "details": "Transfers ownership of the contract to a new account (`newOwner`). Can only be called by the current owner."
      }
    }
  },
  "userdoc": {
    "methods": {
      "createWarpVaultLP(uint256,address,string)": {
        "notice": "createWarpVaultLP allows the contract owner to create a new WarpVaultLP contract for a specific LP token"
      }
    },
    "notice": "The WarpVaultLPFactory contract is designed to produce individual WarpVaultLP contracts This contract uses the OpenZeppelin contract Library to inherit functions from Ownable.sol*"
  }
}