{
  "contractName": "WarpVaultSCFactory",
  "abi": [
    {
      "anonymous": false,
      "inputs": [
        {
          "indexed": true,
          "internalType": "address",
          "name": "previousOwner",
          "type": "address"
        },
        {
          "indexed": true,
          "internalType": "address",
          "name": "newOwner",
          "type": "address"
        }
      ],
      "name": "OwnershipTransferred",
      "type": "event"
    },
    {
      "inputs": [],
      "name": "owner",
      "outputs": [
        {
          "internalType": "address",
          "name": "",
          "type": "address"
        }
      ],
      "stateMutability": "view",
      "type": "function"
    },
    {
      "inputs": [],
      "name": "renounceOwnership",
      "outputs": [],
      "stateMutability": "nonpayable",
      "type": "function"
    },
    {
      "inputs": [
        {
          "internalType": "address",
          "name": "newOwner",
          "type": "address"
        }
      ],
      "name": "transferOwnership",
      "outputs": [],
      "stateMutability": "nonpayable",
      "type": "function"
    },
    {
      "inputs": [
        {
          "internalType": "address",
          "name": "_InterestRate",
          "type": "address"
        },
        {
          "internalType": "address",
          "name": "_StableCoin",
          "type": "address"
        },
        {
          "internalType": "uint256",
          "name": "_initialExchangeRate",
          "type": "uint256"
        }
      ],
      "name": "createNewWarpVaultSC",
      "outputs": [
        {
          "internalType": "address",
          "name": "",
          "type": "address"
        }
      ],
      "stateMutability": "nonpayable",
      "type": "function"
    }
  ],
  "bytecode": "0x608060405260006100176001600160e01b0361006616565b600080546001600160a01b0319166001600160a01b0383169081178255604051929350917f8be0079c531659141344cd1fd0a4f28419497f9722a3daafe3b4186f6b6457e0908290a35061006a565b3390565b613456806100796000396000f3fe608060405234801561001057600080fd5b506004361061004c5760003560e01c80632a5cd0d114610051578063715018a6146100a35780638da5cb5b146100ad578063f2fde38b146100b5575b600080fd5b6100876004803603606081101561006757600080fd5b506001600160a01b038135811691602081013590911690604001356100db565b604080516001600160a01b039092168252519081900360200190f35b6100ab610198565b005b610087610228565b6100ab600480360360208110156100cb57600080fd5b50356001600160a01b0316610237565b60006100e561031d565b6000546001600160a01b03908116911614610135576040805162461bcd60e51b815260206004820181905260248201526000805160206133e1833981519152604482015290519081900360640190fd5b60008484338560405161014790610321565b6001600160a01b039485168152928416602084015292166040808301919091526060820192909252905190819003608001906000f08015801561018e573d6000803e3d6000fd5b5095945050505050565b6101a061031d565b6000546001600160a01b039081169116146101f0576040805162461bcd60e51b815260206004820181905260248201526000805160206133e1833981519152604482015290519081900360640190fd5b600080546040516001600160a01b0390911690600080516020613401833981519152908390a3600080546001600160a01b0319169055565b6000546001600160a01b031690565b61023f61031d565b6000546001600160a01b0390811691161461028f576040805162461bcd60e51b815260206004820181905260248201526000805160206133e1833981519152604482015290519081900360640190fd5b6001600160a01b0381166102d45760405162461bcd60e51b81526004018080602001828103825260268152602001806133bb6026913960400191505060405180910390fd5b600080546040516001600160a01b038085169392169160008051602061340183398151915291a3600080546001600160a01b0319166001600160a01b0392909216919091179055565b3390565b61308c8061032f8339019056fe60806040526714d1120d7b1600006007553480156200001d57600080fd5b506040516200308c3803806200308c833981810160405260808110156200004357600080fd5b508051602082015160408301516060909301519192909160006200006f6001600160e01b03620004cd16565b600080546001600160a01b0319166001600160a01b0383169081178255604051929350917f8be0079c531659141344cd1fd0a4f28419497f9722a3daafe3b4186f6b6457e0908290a350600a80546001600160a01b038085166001600160a01b03199283161790925560088054868416908316179055600b805492871692909116919091179055620001096001600160e01b03620004d116565b600355670de0b6b3a764000060049081556001829055600854604080516306fdde0360e01b815290516001600160a01b039092169283926306fdde03928083019260009291829003018186803b1580156200016357600080fd5b505afa15801562000178573d6000803e3d6000fd5b505050506040513d6000823e601f3d908101601f191682016040526020811015620001a257600080fd5b8101908080516040519392919084640100000000821115620001c357600080fd5b908301906020820185811115620001d957600080fd5b8251640100000000811182820188101715620001f457600080fd5b82525081516020918201929091019080838360005b838110156200022357818101518382015260200162000209565b50505050905090810190601f168015620002515780820380516001836020036101000a031916815260200191505b5060408181526008546395d89b4160e01b835290516001600160a01b0390911694506395d89b41935060048083019350600092829003018186803b1580156200029957600080fd5b505afa158015620002ae573d6000803e3d6000fd5b505050506040513d6000823e601f3d908101601f191682016040526020811015620002d857600080fd5b8101908080516040519392919084640100000000821115620002f957600080fd5b9083019060208201858111156200030f57600080fd5b82516401000000008111828201881017156200032a57600080fd5b82525081516020918201929091019080838360005b83811015620003595781810151838201526020016200033f565b50505050905090810190601f168015620003875780820380516001836020036101000a031916815260200191505b506040525050506040516200039c90620004d5565b6001600160a01b0384168152606060208083018281528551928401929092528451604084019160808501919087019080838360005b83811015620003eb578181015183820152602001620003d1565b50505050905090810190601f168015620004195780820380516001836020036101000a031916815260200191505b50838103825284518152845160209182019186019080838360005b838110156200044e57818101518382015260200162000434565b50505050905090810190601f1680156200047c5780820380516001836020036101000a031916815260200191505b5095505050505050604051809103906000f080158015620004a1573d6000803e3d6000fd5b50600980546001600160a01b0319166001600160a01b039290921691909117905550620004e392505050565b3390565b4390565b6113558062001d3783390190565b61184480620004f36000396000f3fe608060405234801561001057600080fd5b506004361061018b5760003560e01c80630e75270214610190578063122b5818146101af578063173b9904146101d357806317bfdfbc146101ed57806324a045ca146102135780633b1d21a21461024d57806347bd37181461025557806348dc0b6e1461025d5780634ada90af146102655780634b3fd1481461026d5780634ee8acc014610299578063503d37ea146102a157806357d32b7a146102a957806368b58180146102c65780636c540baf146102ec578063715018a6146102f457806373acee98146102fc5780637746efab146103045780638da5cb5b1461032a5780638f840ddd146103325780639f560dd51461033a578063a6afed9514610342578063a907b3ef1461034a578063aa5af0fd14610370578063ae9d70b014610378578063bd6d894d14610380578063cd5c6f5714610388578063d134981414610390578063d40e8f4a146103c6578063db006a7514610405578063e9cbd82214610422578063f2fde38b1461042a578063f8f9da2814610450575b600080fd5b6101ad600480360360208110156101a657600080fd5b5035610458565b005b6101b76105de565b604080516001600160a01b039092168252519081900360200190f35b6101db6105ed565b60408051918252519081900360200190f35b6101db6004803603602081101561020357600080fd5b50356001600160a01b03166105f3565b6102396004803603602081101561022957600080fd5b50356001600160a01b031661060e565b604080519115158252519081900360200190f35b6101db610623565b6101db610633565b6101b7610639565b6101db610648565b6101ad6004803603604081101561028357600080fd5b50803590602001356001600160a01b031661064e565b6101b76107a8565b6101db6107b7565b6101ad600480360360208110156102bf57600080fd5b50356107d4565b6101db600480360360208110156102dc57600080fd5b50356001600160a01b031661092d565b6101db61093f565b6101ad610945565b6101db6109d5565b6101db6004803603602081101561031a57600080fd5b50356001600160a01b03166109e6565b6101b7610a89565b6101db610a98565b6101db610a9e565b6101ad610aaf565b6101b76004803603602081101561036057600080fd5b50356001600160a01b0316610c2c565b6101db610c47565b6101db610c4d565b6101db610cec565b6101db610e3d565b6101ad600480360360608110156103a657600080fd5b506001600160a01b03813581169160208101359091169060400135610e82565b6103ec600480360360208110156103dc57600080fd5b50356001600160a01b0316610f43565b6040805192835260208301919091528051918290030190f35b6101ad6004803603602081101561041b57600080fd5b5035610f5c565b6101b761113c565b6101ad6004803603602081101561044057600080fd5b50356001600160a01b031661114b565b6101db611231565b610460610aaf565b6104686116e3565b600854604080516323b872dd60e01b81523360048201523060248201526044810185905290516001600160a01b03909216916323b872dd916064808201926020929091908290030181600087803b1580156104c257600080fd5b505af11580156104d6573d6000803e3d6000fd5b505050506040513d60208110156104ec57600080fd5b5050336000818152600c6020526040908190206001015490830152610510906105f3565b6060820152816105295760608101516020820152610531565b602081018290525b61054381606001518260200151611295565b608083018190528282600381111561055757fe5b600381111561056257fe5b81525050506105776005548260200151611295565b60a083018190528282600381111561058b57fe5b600381111561059657fe5b905250506080810151336000908152600c602052604090209081556004546001820190815560a08301516005555490546105d59163ffffffff6112bb16565b60c09091015250565b600a546001600160a01b031681565b60025481565b60006105fd610aaf565b610606826109e6565b90505b919050565b600f6020526000908152604090205460ff1681565b600061062d61131c565b90505b90565b60055481565b600b546001600160a01b031681565b60075481565b600a546001600160a01b0316331461066557600080fd5b61066d610aaf565b610675611729565b8261067e61131c565b1161068857600080fd5b610691826105f3565b602082018190526106a29084611367565b60408301819052828260038111156106b657fe5b60038111156106c157fe5b81525050506106d260055484611367565b60608301819052828260038111156106e657fe5b60038111156106f157fe5b905250506040808201516001600160a01b038085166000818152600c6020908152858220948555600480546001909601959095556060870151600555600854865163a9059cbb60e01b815295860193909352602485018990529451919092169363a9059cbb93604480820194929392918390030190829087803b15801561077757600080fd5b505af115801561078b573d6000803e3d6000fd5b505050506040513d60208110156107a157600080fd5b5050505050565b6009546001600160a01b031681565b600061062d622433946107c8611231565b9063ffffffff61138d16565b6107dc611752565b6107e4610cec565b6020808301918252604080519182019052905181526108049083906113e6565b604083018190528282600381111561081857fe5b600381111561082357fe5b90525050600854604080516323b872dd60e01b81523360048201523060248201526044810185905290516001600160a01b03909216916323b872dd916064808201926020929091908290030181600087803b15801561088157600080fd5b505af1158015610895573d6000803e3d6000fd5b505050506040513d60208110156108ab57600080fd5b5050336000818152600d60205260408082208590556009548482015182516340c10f1960e01b81526004810195909552602485015290516001600160a01b03909116926340c10f1992604480830193919282900301818387803b15801561091157600080fd5b505af1158015610925573d6000803e3d6000fd5b505050505050565b600d6020526000908152604090205481565b60035481565b61094d611439565b6000546001600160a01b0390811691161461099d576040805162461bcd60e51b815260206004820181905260248201526000805160206117cf833981519152604482015290519081900360640190fd5b600080546040516001600160a01b03909116906000805160206117ef833981519152908390a3600080546001600160a01b0319169055565b60006109df610aaf565b5060055490565b6001600160a01b0381166000908152600c60205260408120805482918291829190610a18576000945050505050610609565b610a28816000015460045461143d565b90945092506000846003811115610a3b57fe5b14610a4d576000945050505050610609565b610a5b83826001015461147c565b90945091506000846003811115610a6e57fe5b14610a80576000945050505050610609565b50949350505050565b6000546001600160a01b031690565b60065481565b600061062d622433946107c8610c4d565b6000610ab96114a7565b60035490915080821415610acc57600080fd5b6000610ad661131c565b60055460065460048054600b54604080516315f2405360e01b81529384018790526024840186905260448401859052519596509394929390926000926001600160a01b03909216916315f24053916064808301926020929190829003018186803b158015610b4357600080fd5b505afa158015610b57573d6000803e3d6000fd5b505050506040513d6020811015610b6d57600080fd5b5051905065048c27395000811115610b8457600080fd5b600080610b918989611295565b91509150610b9d611774565b600080600080610bbb60405180602001604052808a815250876114ab565b9097509450610bca858c611513565b9097509350610bd9848c611367565b604080516020810190915260025481529198509350610bf990858c61152a565b9097509150610c09858a8061152a565b60039f909f55505060049c909c5560055550505060069790975550505050505050565b600e602052600090815260409020546001600160a01b031681565b60045481565b600b546000906001600160a01b031663b8168816610c6961131c565b6005546006546002546040518563ffffffff1660e01b81526004018085815260200184815260200183815260200182815260200194505050505060206040518083038186803b158015610cbb57600080fd5b505afa158015610ccf573d6000803e3d6000fd5b505050506040513d6020811015610ce557600080fd5b5051905090565b6000610cf6610aaf565b600960009054906101000a90046001600160a01b03166001600160a01b03166318160ddd6040518163ffffffff1660e01b815260040160206040518083038186803b158015610d4457600080fd5b505afa158015610d58573d6000803e3d6000fd5b505050506040513d6020811015610d6e57600080fd5b5051610d7d5750600154610630565b6000610d8761131c565b90506000610d93611774565b6000610da484600554600654611586565b8094508192505050610e2f83600960009054906101000a90046001600160a01b03166001600160a01b03166318160ddd6040518163ffffffff1660e01b815260040160206040518083038186803b158015610dfe57600080fd5b505afa158015610e12573d6000803e3d6000fd5b505050506040513d6020811015610e2857600080fd5b50516115c4565b519550610630945050505050565b600954604080516318160ddd60e01b815290516000926001600160a01b0316916318160ddd916004808301926020929190829003018186803b158015610d4457600080fd5b600a546001600160a01b03163314610e9957600080fd5b600854604080516323b872dd60e01b81526001600160a01b03858116600483015230602483015260448201859052915191909216916323b872dd9160648083019260209291908290030181600087803b158015610ef557600080fd5b505af1158015610f09573d6000803e3d6000fd5b505050506040513d6020811015610f1f57600080fd5b505050506001600160a01b03166000908152600c6020526040812081815560010155565b600c602052600090815260409020805460019091015482565b610f64610aaf565b80610f6e57600080fd5b610f76611752565b610f7e610cec565b602080830191825260408051918201905290518152610f9d9083611513565b6040830181905282826003811115610fb157fe5b6003811115610fbc57fe5b9052505060408082015160085482516370a0823160e01b8152306004820152925191926001600160a01b03909116916370a0823191602480820192602092909190829003018186803b15801561101157600080fd5b505afa158015611025573d6000803e3d6000fd5b505050506040513d602081101561103b57600080fd5b5051101561104857600080fd5b60095460408051632770a7eb60e21b81523360048201526024810185905290516001600160a01b0390921691639dc29fac9160448082019260009290919082900301818387803b15801561109b57600080fd5b505af11580156110af573d6000803e3d6000fd5b5050600854604080850151815163a9059cbb60e01b8152336004820152602481019190915290516001600160a01b03909216935063a9059cbb92506044808201926020929091908290030181600087803b15801561110c57600080fd5b505af1158015611120573d6000803e3d6000fd5b505050506040513d602081101561113657600080fd5b50505050565b6008546001600160a01b031681565b611153611439565b6000546001600160a01b039081169116146111a3576040805162461bcd60e51b815260206004820181905260248201526000805160206117cf833981519152604482015290519081900360640190fd5b6001600160a01b0381166111e85760405162461bcd60e51b81526004018080602001828103825260268152602001806117886026913960400191505060405180910390fd5b600080546040516001600160a01b03808516939216916000805160206117ef83398151915291a3600080546001600160a01b0319166001600160a01b0392909216919091179055565b600b546000906001600160a01b03166315f2405361124d61131c565b6005546006546040518463ffffffff1660e01b815260040180848152602001838152602001828152602001935050505060206040518083038186803b158015610cbb57600080fd5b6000808383116112ac5750600090508183036112b4565b506003905060005b9250929050565b600082820183811015611313576040805162461bcd60e51b815260206004820152601b60248201527a536166654d6174683a206164646974696f6e206f766572666c6f7760281b604482015290519081900360640190fd5b90505b92915050565b600854604080516370a0823160e01b815230600482015290516000926001600160a01b0316916370a08231916024808301926020929190829003018186803b158015610cbb57600080fd5b60008083830184811061137f576000925090506112b4565b5060029150600090506112b4565b60008261139c57506000611316565b828202828482816113a957fe5b04146113135760405162461bcd60e51b81526004018080602001828103825260218152602001806117ae6021913960400191505060405180910390fd5b60008060006113f3611774565b6113fd8686611675565b9092509050600082600381111561141057fe5b1461142157509150600090506112b4565b600061142c826116d4565b9350935050509250929050565b3390565b60008083611450575060009050806112b4565b8383028385828161145d57fe5b0414611471575060029150600090506112b4565b6000925090506112b4565b6000808261149057506001905060006112b4565b600083858161149b57fe5b04915091509250929050565b4390565b60006114b5611774565b6000806114c686600001518661143d565b909250905060008260038111156114d957fe5b146114f8575060408051602081019091526000815290925090506112b4565b60408051602081019091529081526000969095509350505050565b6000806000611520611774565b6113fd86866114ab565b6000806000611537611774565b61154187876114ab565b9092509050600082600381111561155457fe5b14611565575091506000905061157e565b611577611571826116d4565b86611367565b9350935050505b935093915050565b6000806000806115968787611367565b909250905060008260038111156115a957fe5b146115ba575091506000905061157e565b6115778186611295565b60006115ce611774565b6000806115e386670de0b6b3a764000061143d565b909250905060008260038111156115f657fe5b14611615575060408051602081019091526000815290925090506112b4565b600080611622838861147c565b9092509050600082600381111561163557fe5b1461165857816040518060200160405280600081525095509550505050506112b4565b604080516020810190915290815260009890975095505050505050565b600061167f611774565b600080611694670de0b6b3a76400008761143d565b909250905060008260038111156116a757fe5b146116c6575060408051602081019091526000815290925090506112b4565b61142c8186600001516115c4565b51670de0b6b3a7640000900490565b6040805161010081019091528060008152602001600081526020016000815260200160008152602001600081526020016000815260200160008152602001600081525090565b604080516080810190915280600081526020016000815260200160008152602001600081525090565b6040805160608101909152806000815260200160008152602001600081525090565b604051806020016040528060008152509056fe4f776e61626c653a206e6577206f776e657220697320746865207a65726f2061646472657373536166654d6174683a206d756c7469706c69636174696f6e206f766572666c6f774f776e61626c653a2063616c6c6572206973206e6f7420746865206f776e65728be0079c531659141344cd1fd0a4f28419497f9722a3daafe3b4186f6b6457e0a2646970667358221220ac1da0dc2d9da5f9f1aa7af6c872555d23de7a73193b84d4346438a38f78383964736f6c6343000606003360806040523480156200001157600080fd5b506040516200135538038062001355833981810160405260608110156200003757600080fd5b8151602083018051604051929492938301929190846401000000008211156200005f57600080fd5b9083019060208201858111156200007557600080fd5b82516401000000008111828201881017156200009057600080fd5b82525081516020918201929091019080838360005b83811015620000bf578181015183820152602001620000a5565b50505050905090810190601f168015620000ed5780820380516001836020036101000a031916815260200191505b50604052602001805160405193929190846401000000008211156200011157600080fd5b9083019060208201858111156200012757600080fd5b82516401000000008111828201881017156200014257600080fd5b82525081516020918201929091019080838360005b838110156200017157818101518382015260200162000157565b50505050905090810190601f1680156200019f5780820380516001836020036101000a031916815260200191505b5060405250505080826000620001ba6200026c60201b60201c565b600080546001600160a01b0319166001600160a01b0383169081178255604051929350917f8be0079c531659141344cd1fd0a4f28419497f9722a3daafe3b4186f6b6457e0908290a35081516200021990600490602085019062000271565b5080516200022f90600590602084019062000271565b5050600680546001600160a01b0390951661010002610100600160a81b031960ff1990961660121795909516949094179093555062000313915050565b335b90565b828054600181600116156101000203166002900490600052602060002090601f016020900481019282601f10620002b457805160ff1916838001178555620002e4565b82800160010185558215620002e4579182015b82811115620002e4578251825591602001919060010190620002c7565b50620002f2929150620002f6565b5090565b6200026e91905b80821115620002f25760008155600101620002fd565b61103280620003236000396000f3fe608060405234801561001057600080fd5b50600436106100db5760003560e01c806306fdde03146100e0578063095ea7b31461015d57806318160ddd1461019d57806323b872dd146101b7578063313ce567146101ed578063395093511461020b57806340c10f191461023757806370a0823114610265578063715018a61461028b5780638da5cb5b1461029357806395d89b41146102b75780639dc29fac146102bf578063a457c2d7146102eb578063a9059cbb14610317578063dd62ed3e14610343578063e9cbd82214610371578063f2fde38b14610379575b600080fd5b6100e861039f565b6040805160208082528351818301528351919283929083019185019080838360005b8381101561012257818101518382015260200161010a565b50505050905090810190601f16801561014f5780820380516001836020036101000a031916815260200191505b509250505060405180910390f35b6101896004803603604081101561017357600080fd5b506001600160a01b038135169060200135610435565b604080519115158252519081900360200190f35b6101a5610452565b60408051918252519081900360200190f35b610189600480360360608110156101cd57600080fd5b506001600160a01b03813581169160208101359091169060400135610458565b6101f56104e5565b6040805160ff9092168252519081900360200190f35b6101896004803603604081101561022157600080fd5b506001600160a01b0381351690602001356104ee565b6102636004803603604081101561024d57600080fd5b506001600160a01b038135169060200135610542565b005b6101a56004803603602081101561027b57600080fd5b50356001600160a01b03166105a8565b6102636105c3565b61029b610653565b604080516001600160a01b039092168252519081900360200190f35b6100e8610662565b610263600480360360408110156102d557600080fd5b506001600160a01b0381351690602001356106c3565b6101896004803603604081101561030157600080fd5b506001600160a01b038135169060200135610725565b6101896004803603604081101561032d57600080fd5b506001600160a01b038135169060200135610793565b6101a56004803603604081101561035957600080fd5b506001600160a01b03813581169160200135166107a7565b61029b6107d2565b6102636004803603602081101561038f57600080fd5b50356001600160a01b03166107e6565b60048054604080516020601f600260001961010060018816150201909516949094049384018190048102820181019092528281526060939092909183018282801561042b5780601f106104005761010080835404028352916020019161042b565b820191906000526020600020905b81548152906001019060200180831161040e57829003601f168201915b5050505050905090565b60006104496104426108cc565b84846108d0565b50600192915050565b60035490565b60006104658484846109bc565b6104db846104716108cc565b6104d685604051806060016040528060288152602001610ee6602891396001600160a01b038a166000908152600260205260408120906104af6108cc565b6001600160a01b03168152602081019190915260400160002054919063ffffffff610b1316565b6108d0565b5060019392505050565b60065460ff1690565b60006104496104fb6108cc565b846104d6856002600061050c6108cc565b6001600160a01b03908116825260208083019390935260409182016000908120918c16815292529020549063ffffffff610baa16565b61054a6108cc565b6000546001600160a01b0390811691161461059a576040805162461bcd60e51b81526020600482018190526024820152600080516020610f0e833981519152604482015290519081900360640190fd5b6105a48282610c09565b5050565b6001600160a01b031660009081526001602052604090205490565b6105cb6108cc565b6000546001600160a01b0390811691161461061b576040805162461bcd60e51b81526020600482018190526024820152600080516020610f0e833981519152604482015290519081900360640190fd5b600080546040516001600160a01b0390911690600080516020610f2e833981519152908390a3600080546001600160a01b0319169055565b6000546001600160a01b031690565b60058054604080516020601f600260001961010060018816150201909516949094049384018190048102820181019092528281526060939092909183018282801561042b5780601f106104005761010080835404028352916020019161042b565b6106cb6108cc565b6000546001600160a01b0390811691161461071b576040805162461bcd60e51b81526020600482018190526024820152600080516020610f0e833981519152604482015290519081900360640190fd5b6105a48282610cf5565b60006104496107326108cc565b846104d685604051806060016040528060258152602001610fd8602591396002600061075c6108cc565b6001600160a01b03908116825260208083019390935260409182016000908120918d1681529252902054919063ffffffff610b1316565b60006104496107a06108cc565b84846109bc565b6001600160a01b03918216600090815260026020908152604080832093909416825291909152205490565b60065461010090046001600160a01b031681565b6107ee6108cc565b6000546001600160a01b0390811691161461083e576040805162461bcd60e51b81526020600482018190526024820152600080516020610f0e833981519152604482015290519081900360640190fd5b6001600160a01b0381166108835760405162461bcd60e51b8152600401808060200182810382526026815260200180610e786026913960400191505060405180910390fd5b600080546040516001600160a01b0380851693921691600080516020610f2e83398151915291a3600080546001600160a01b0319166001600160a01b0392909216919091179055565b3390565b6001600160a01b0383166109155760405162461bcd60e51b8152600401808060200182810382526024815260200180610fb46024913960400191505060405180910390fd5b6001600160a01b03821661095a5760405162461bcd60e51b8152600401808060200182810382526022815260200180610e9e6022913960400191505060405180910390fd5b6001600160a01b03808416600081815260026020908152604080832094871680845294825291829020859055815185815291517f8c5be1e5ebec7d5bd14f71427d1e84f3dd0314c0f7b2291e5b200ac8c7c3b9259281900390910190a3505050565b6001600160a01b038316610a015760405162461bcd60e51b8152600401808060200182810382526025815260200180610f8f6025913960400191505060405180910390fd5b6001600160a01b038216610a465760405162461bcd60e51b8152600401808060200182810382526023815260200180610e336023913960400191505060405180910390fd5b610a51838383610deb565b610a9481604051806060016040528060268152602001610ec0602691396001600160a01b038616600090815260016020526040902054919063ffffffff610b1316565b6001600160a01b038085166000908152600160205260408082209390935590841681522054610ac9908263ffffffff610baa16565b6001600160a01b038084166000818152600160209081526040918290209490945580518581529051919392871692600080516020610f4e83398151915292918290030190a3505050565b60008184841115610ba25760405162461bcd60e51b81526004018080602001828103825283818151815260200191508051906020019080838360005b83811015610b67578181015183820152602001610b4f565b50505050905090810190601f168015610b945780820380516001836020036101000a031916815260200191505b509250505060405180910390fd5b505050900390565b600082820183811015610c02576040805162461bcd60e51b815260206004820152601b60248201527a536166654d6174683a206164646974696f6e206f766572666c6f7760281b604482015290519081900360640190fd5b9392505050565b6001600160a01b038216610c64576040805162461bcd60e51b815260206004820152601f60248201527f45524332303a206d696e7420746f20746865207a65726f206164647265737300604482015290519081900360640190fd5b610c7060008383610deb565b600354610c83908263ffffffff610baa16565b6003556001600160a01b038216600090815260016020526040902054610caf908263ffffffff610baa16565b6001600160a01b0383166000818152600160209081526040808320949094558351858152935192939192600080516020610f4e8339815191529281900390910190a35050565b6001600160a01b038216610d3a5760405162461bcd60e51b8152600401808060200182810382526021815260200180610f6e6021913960400191505060405180910390fd5b610d4682600083610deb565b610d8981604051806060016040528060228152602001610e56602291396001600160a01b038516600090815260016020526040902054919063ffffffff610b1316565b6001600160a01b038316600090815260016020526040902055600354610db5908263ffffffff610df016565b6003556040805182815290516000916001600160a01b03851691600080516020610f4e8339815191529181900360200190a35050565b505050565b6000610c0283836040518060400160405280601e81526020017f536166654d6174683a207375627472616374696f6e206f766572666c6f770000815250610b1356fe45524332303a207472616e7366657220746f20746865207a65726f206164647265737345524332303a206275726e20616d6f756e7420657863656564732062616c616e63654f776e61626c653a206e6577206f776e657220697320746865207a65726f206164647265737345524332303a20617070726f766520746f20746865207a65726f206164647265737345524332303a207472616e7366657220616d6f756e7420657863656564732062616c616e636545524332303a207472616e7366657220616d6f756e74206578636565647320616c6c6f77616e63654f776e61626c653a2063616c6c6572206973206e6f7420746865206f776e65728be0079c531659141344cd1fd0a4f28419497f9722a3daafe3b4186f6b6457e0ddf252ad1be2c89b69c2b068fc378daa952ba7f163c4a11628f55a4df523b3ef45524332303a206275726e2066726f6d20746865207a65726f206164647265737345524332303a207472616e736665722066726f6d20746865207a65726f206164647265737345524332303a20617070726f76652066726f6d20746865207a65726f206164647265737345524332303a2064656372656173656420616c6c6f77616e63652062656c6f77207a65726fa264697066735822122006509d47efbe3f5086cefbeaae817192302858cddd7fe5f6af2c6c5876ee9c5464736f6c634300060600334f776e61626c653a206e6577206f776e657220697320746865207a65726f20616464726573734f776e61626c653a2063616c6c6572206973206e6f7420746865206f776e65728be0079c531659141344cd1fd0a4f28419497f9722a3daafe3b4186f6b6457e0a26469706673582212208d1c9b2ee23fe0f23562cbb14b38f467a0529583946530e2845d526d504c4cc064736f6c63430006060033",
  "immutableReferences": {},
  "source": "pragma solidity ^0.6.0;\r\n\r\nimport \"./WarpVaultSC.sol\";\r\nimport \"@openzeppelin/contracts/access/Ownable.sol\";\r\n\r\n////////////////////////////////////////////////////////////////////////////////////////////\r\n/// @title WarpVaultLPFactory\r\n/// @author Christopher Dixon\r\n////////////////////////////////////////////////////////////////////////////////////////////\r\n/**\r\nThe WarpVaultLPFactory contract is designed to produce individual WarpVaultLP contracts\r\nThis contract uses the OpenZeppelin contract Library to inherit functions from\r\n  Ownable.sol\r\n**/\r\n\r\ncontract WarpVaultSCFactory is Ownable {\r\n    function createNewWarpVaultSC(\r\n        address _InterestRate,\r\n        address _StableCoin,\r\n        uint256 _initialExchangeRate\r\n    ) public onlyOwner returns (address) {\r\n        address _WVSC = address(\r\n            new WarpVaultSC(\r\n                _InterestRate,\r\n                _StableCoin,\r\n                msg.sender,\r\n                _initialExchangeRate\r\n            )\r\n        );\r\n\r\n        return _WVSC;\r\n    }\r\n}\r\n",
  "sourcePath": "E:/dOrg/warp/Smart-Contracts/contracts/WarpVaultSCFactory.sol",
  "compiler": {
    "name": "solc",
    "version": "0.6.6+commit.6c089d02.Emscripten.clang"
  },
  "schemaVersion": "3.3.1",
  "updatedAt": "2020-11-05T19:29:38.218Z",
  "devdoc": {
    "methods": {
      "owner()": {
        "details": "Returns the address of the current owner."
      },
      "renounceOwnership()": {
        "details": "Leaves the contract without owner. It will not be possible to call `onlyOwner` functions anymore. Can only be called by the current owner.     * NOTE: Renouncing ownership will leave the contract without an owner, thereby removing any functionality that is only available to the owner."
      },
      "transferOwnership(address)": {
        "details": "Transfers ownership of the contract to a new account (`newOwner`). Can only be called by the current owner."
      }
    }
  },
  "userdoc": {
    "methods": {},
    "notice": "The WarpVaultLPFactory contract is designed to produce individual WarpVaultLP contracts This contract uses the OpenZeppelin contract Library to inherit functions from Ownable.sol*"
  }
}