{
  "contractName": "WarpVaultSC",
  "abi": [
    {
      "inputs": [
        {
          "internalType": "address",
          "name": "_InterestRate",
          "type": "address"
        },
        {
          "internalType": "address",
          "name": "_StableCoin",
          "type": "address"
        },
        {
          "internalType": "address",
          "name": "_warpControl",
          "type": "address"
        },
        {
          "internalType": "uint256",
          "name": "_initialExchangeRate",
          "type": "uint256"
        }
      ],
      "stateMutability": "nonpayable",
      "type": "constructor"
    },
    {
      "anonymous": false,
      "inputs": [
        {
          "indexed": true,
          "internalType": "address",
          "name": "previousOwner",
          "type": "address"
        },
        {
          "indexed": true,
          "internalType": "address",
          "name": "newOwner",
          "type": "address"
        }
      ],
      "name": "OwnershipTransferred",
      "type": "event"
    },
    {
      "inputs": [],
      "name": "InterestRate",
      "outputs": [
        {
          "internalType": "contract InterestRateModel",
          "name": "",
          "type": "address"
        }
      ],
      "stateMutability": "view",
      "type": "function"
    },
    {
      "inputs": [],
      "name": "WC",
      "outputs": [
        {
          "internalType": "contract WarpControlI",
          "name": "",
          "type": "address"
        }
      ],
      "stateMutability": "view",
      "type": "function"
    },
    {
      "inputs": [
        {
          "internalType": "address",
          "name": "",
          "type": "address"
        }
      ],
      "name": "accountBorrows",
      "outputs": [
        {
          "internalType": "uint256",
          "name": "principal",
          "type": "uint256"
        },
        {
          "internalType": "uint256",
          "name": "interestIndex",
          "type": "uint256"
        }
      ],
      "stateMutability": "view",
      "type": "function"
    },
    {
      "inputs": [
        {
          "internalType": "address",
          "name": "",
          "type": "address"
        }
      ],
      "name": "accountLent",
      "outputs": [
        {
          "internalType": "uint256",
          "name": "",
          "type": "uint256"
        }
      ],
      "stateMutability": "view",
      "type": "function"
    },
    {
      "inputs": [],
      "name": "accrualBlockNumber",
      "outputs": [
        {
          "internalType": "uint256",
          "name": "",
          "type": "uint256"
        }
      ],
      "stateMutability": "view",
      "type": "function"
    },
    {
      "inputs": [],
      "name": "borrowIndex",
      "outputs": [
        {
          "internalType": "uint256",
          "name": "",
          "type": "uint256"
        }
      ],
      "stateMutability": "view",
      "type": "function"
    },
    {
      "inputs": [
        {
          "internalType": "address",
          "name": "",
          "type": "address"
        }
      ],
      "name": "collateralAddressTracker",
      "outputs": [
        {
          "internalType": "address",
          "name": "",
          "type": "address"
        }
      ],
      "stateMutability": "view",
      "type": "function"
    },
    {
      "inputs": [
        {
          "internalType": "address",
          "name": "",
          "type": "address"
        }
      ],
      "name": "collateralLocked",
      "outputs": [
        {
          "internalType": "bool",
          "name": "",
          "type": "bool"
        }
      ],
      "stateMutability": "view",
      "type": "function"
    },
    {
      "inputs": [],
      "name": "liquidationIncentiveMantissa",
      "outputs": [
        {
          "internalType": "uint256",
          "name": "",
          "type": "uint256"
        }
      ],
      "stateMutability": "view",
      "type": "function"
    },
    {
      "inputs": [],
      "name": "owner",
      "outputs": [
        {
          "internalType": "address",
          "name": "",
          "type": "address"
        }
      ],
      "stateMutability": "view",
      "type": "function"
    },
    {
      "inputs": [],
      "name": "renounceOwnership",
      "outputs": [],
      "stateMutability": "nonpayable",
      "type": "function"
    },
    {
      "inputs": [],
      "name": "reserveFactorMantissa",
      "outputs": [
        {
          "internalType": "uint256",
          "name": "",
          "type": "uint256"
        }
      ],
      "stateMutability": "view",
      "type": "function"
    },
    {
      "inputs": [],
      "name": "stablecoin",
      "outputs": [
        {
          "internalType": "contract ERC20",
          "name": "",
          "type": "address"
        }
      ],
      "stateMutability": "view",
      "type": "function"
    },
    {
      "inputs": [],
      "name": "totalBorrows",
      "outputs": [
        {
          "internalType": "uint256",
          "name": "",
          "type": "uint256"
        }
      ],
      "stateMutability": "view",
      "type": "function"
    },
    {
      "inputs": [],
      "name": "totalReserves",
      "outputs": [
        {
          "internalType": "uint256",
          "name": "",
          "type": "uint256"
        }
      ],
      "stateMutability": "view",
      "type": "function"
    },
    {
      "inputs": [
        {
          "internalType": "address",
          "name": "newOwner",
          "type": "address"
        }
      ],
      "name": "transferOwnership",
      "outputs": [],
      "stateMutability": "nonpayable",
      "type": "function"
    },
    {
      "inputs": [],
      "name": "wStableCoin",
      "outputs": [
        {
          "internalType": "contract WarpWrapperToken",
          "name": "",
          "type": "address"
        }
      ],
      "stateMutability": "view",
      "type": "function"
    },
    {
      "inputs": [],
      "name": "accrueInterest",
      "outputs": [],
      "stateMutability": "nonpayable",
      "type": "function"
    },
    {
      "inputs": [
        {
          "internalType": "address",
          "name": "account",
          "type": "address"
        }
      ],
      "name": "borrowBalancePrior",
      "outputs": [
        {
          "internalType": "uint256",
          "name": "",
          "type": "uint256"
        }
      ],
      "stateMutability": "view",
      "type": "function"
    },
    {
      "inputs": [
        {
          "internalType": "address",
          "name": "account",
          "type": "address"
        }
      ],
      "name": "borrowBalanceCurrent",
      "outputs": [
        {
          "internalType": "uint256",
          "name": "",
          "type": "uint256"
        }
      ],
      "stateMutability": "nonpayable",
      "type": "function"
    },
    {
      "inputs": [],
      "name": "borrowRatePerBlock",
      "outputs": [
        {
          "internalType": "uint256",
          "name": "",
          "type": "uint256"
        }
      ],
      "stateMutability": "view",
      "type": "function"
    },
    {
      "inputs": [],
      "name": "supplyRatePerBlock",
      "outputs": [
        {
          "internalType": "uint256",
          "name": "",
          "type": "uint256"
        }
      ],
      "stateMutability": "view",
      "type": "function"
    },
    {
      "inputs": [],
      "name": "getSupplyAPY",
      "outputs": [
        {
          "internalType": "uint256",
          "name": "",
          "type": "uint256"
        }
      ],
      "stateMutability": "view",
      "type": "function"
    },
    {
      "inputs": [],
      "name": "getBorrowAPY",
      "outputs": [
        {
          "internalType": "uint256",
          "name": "",
          "type": "uint256"
        }
      ],
      "stateMutability": "view",
      "type": "function"
    },
    {
      "inputs": [],
      "name": "totalBorrowsCurrent",
      "outputs": [
        {
          "internalType": "uint256",
          "name": "",
          "type": "uint256"
        }
      ],
      "stateMutability": "nonpayable",
      "type": "function"
    },
    {
      "inputs": [],
      "name": "exchangeRatePrior",
      "outputs": [
        {
          "internalType": "uint256",
          "name": "",
          "type": "uint256"
        }
      ],
      "stateMutability": "view",
      "type": "function"
    },
    {
      "inputs": [],
      "name": "exchangeRateCurrent",
      "outputs": [
        {
          "internalType": "uint256",
          "name": "",
          "type": "uint256"
        }
      ],
      "stateMutability": "nonpayable",
      "type": "function"
    },
    {
      "inputs": [],
      "name": "getCash",
      "outputs": [
        {
          "internalType": "uint256",
          "name": "",
          "type": "uint256"
        }
      ],
      "stateMutability": "view",
      "type": "function"
    },
    {
      "inputs": [
        {
          "internalType": "uint256",
          "name": "_amount",
          "type": "uint256"
        }
      ],
      "name": "lendToWarpVault",
      "outputs": [],
      "stateMutability": "nonpayable",
      "type": "function"
    },
    {
      "inputs": [
        {
          "internalType": "uint256",
          "name": "_amount",
          "type": "uint256"
        }
      ],
      "name": "redeem",
      "outputs": [],
      "stateMutability": "nonpayable",
      "type": "function"
    },
    {
      "inputs": [
        {
          "internalType": "uint256",
          "name": "_borrowAmount",
          "type": "uint256"
        },
        {
          "internalType": "address",
          "name": "_borrower",
          "type": "address"
        }
      ],
      "name": "borrow",
      "outputs": [],
      "stateMutability": "nonpayable",
      "type": "function"
    },
    {
      "inputs": [
        {
          "internalType": "uint256",
          "name": "repayAmount",
          "type": "uint256"
        }
      ],
      "name": "repayBorrow",
      "outputs": [],
      "stateMutability": "nonpayable",
      "type": "function"
    },
    {
      "inputs": [
        {
          "internalType": "address",
          "name": "_borrower",
          "type": "address"
        },
        {
          "internalType": "address",
          "name": "_WarpVault",
          "type": "address"
        }
      ],
      "name": "markAccountNonCompliant",
      "outputs": [],
      "stateMutability": "nonpayable",
      "type": "function"
    },
    {
      "inputs": [
        {
          "internalType": "address",
          "name": "borrower",
          "type": "address"
        },
        {
          "internalType": "address",
          "name": "_WarpVaultOwed",
          "type": "address"
        }
      ],
      "name": "liquidateAccount",
      "outputs": [],
      "stateMutability": "nonpayable",
      "type": "function"
    }
  ],
  "bytecode": "0x60806040526714d1120d7b1600006007553480156200001d57600080fd5b50604051620034eb380380620034eb833981810160405260808110156200004357600080fd5b508051602082015160408301516060909301519192909160006200006f6001600160e01b03620004cd16565b600080546001600160a01b0319166001600160a01b0383169081178255604051929350917f8be0079c531659141344cd1fd0a4f28419497f9722a3daafe3b4186f6b6457e0908290a350600a80546001600160a01b038085166001600160a01b03199283161790925560088054868416908316179055600b805492871692909116919091179055620001096001600160e01b03620004d116565b600355670de0b6b3a764000060049081556001829055600854604080516306fdde0360e01b815290516001600160a01b039092169283926306fdde03928083019260009291829003018186803b1580156200016357600080fd5b505afa15801562000178573d6000803e3d6000fd5b505050506040513d6000823e601f3d908101601f191682016040526020811015620001a257600080fd5b8101908080516040519392919084640100000000821115620001c357600080fd5b908301906020820185811115620001d957600080fd5b8251640100000000811182820188101715620001f457600080fd5b82525081516020918201929091019080838360005b838110156200022357818101518382015260200162000209565b50505050905090810190601f168015620002515780820380516001836020036101000a031916815260200191505b5060408181526008546395d89b4160e01b835290516001600160a01b0390911694506395d89b41935060048083019350600092829003018186803b1580156200029957600080fd5b505afa158015620002ae573d6000803e3d6000fd5b505050506040513d6000823e601f3d908101601f191682016040526020811015620002d857600080fd5b8101908080516040519392919084640100000000821115620002f957600080fd5b9083019060208201858111156200030f57600080fd5b82516401000000008111828201881017156200032a57600080fd5b82525081516020918201929091019080838360005b83811015620003595781810151838201526020016200033f565b50505050905090810190601f168015620003875780820380516001836020036101000a031916815260200191505b506040525050506040516200039c90620004d5565b6001600160a01b0384168152606060208083018281528551928401929092528451604084019160808501919087019080838360005b83811015620003eb578181015183820152602001620003d1565b50505050905090810190601f168015620004195780820380516001836020036101000a031916815260200191505b50838103825284518152845160209182019186019080838360005b838110156200044e57818101518382015260200162000434565b50505050905090810190601f1680156200047c5780820380516001836020036101000a031916815260200191505b5095505050505050604051809103906000f080158015620004a1573d6000803e3d6000fd5b50600980546001600160a01b0319166001600160a01b039290921691909117905550620004e392505050565b3390565b4390565b611355806200219683390190565b611ca380620004f36000396000f3fe608060405234801561001057600080fd5b50600436106101965760003560e01c80630e7527021461019b578063122b5818146101ba578063173b9904146101de57806317bfdfbc146101f857806324a045ca1461021e5780633b1d21a21461025857806347bd37181461026057806348dc0b6e146102685780634ada90af146102705780634b3fd148146102785780634ee8acc0146102a4578063503d37ea146102ac57806357d32b7a146102b457806368b58180146102d15780636c540baf146102f7578063715018a6146102ff57806373acee98146103075780637746efab1461030f5780638da5cb5b146103355780638f840ddd1461033d5780639f560dd514610345578063a6afed951461034d578063a907b3ef14610355578063aa5af0fd1461037b578063ac97902814610383578063ae9d70b0146103b1578063bbae21e9146103b9578063bd6d894d146103e7578063cd5c6f57146103ef578063d40e8f4a146103f7578063db006a7514610436578063e9cbd82214610453578063f2fde38b1461045b578063f8f9da2814610481575b600080fd5b6101b8600480360360208110156101b157600080fd5b5035610489565b005b6101c261068d565b604080516001600160a01b039092168252519081900360200190f35b6101e661069c565b60408051918252519081900360200190f35b6101e66004803603602081101561020e57600080fd5b50356001600160a01b03166106a2565b6102446004803603602081101561023457600080fd5b50356001600160a01b03166106bb565b604080519115158252519081900360200190f35b6101e66106d0565b6101e66106e0565b6101c26106e6565b6101e66106f5565b6101b86004803603604081101561028e57600080fd5b50803590602001356001600160a01b03166106fb565b6101c2610855565b6101e6610864565b6101b8600480360360208110156102ca57600080fd5b5035610881565b6101e6600480360360208110156102e757600080fd5b50356001600160a01b03166109be565b6101e66109d0565b6101b86109d6565b6101e6610a66565b6101e66004803603602081101561032557600080fd5b50356001600160a01b0316610a77565b6101c2610b1c565b6101e6610b2b565b6101e6610b31565b6101b8610b42565b6101c26004803603602081101561036b57600080fd5b50356001600160a01b0316610cbf565b6101e6610cda565b6101b86004803603604081101561039957600080fd5b506001600160a01b0381358116916020013516610ce0565b6101e6610f5c565b6101b8600480360360408110156103cf57600080fd5b506001600160a01b0381358116916020013516610ffb565b6101e6611057565b6101e66111a8565b61041d6004803603602081101561040d57600080fd5b50356001600160a01b03166111ed565b6040805192835260208301919091528051918290030190f35b6101b86004803603602081101561044c57600080fd5b5035611206565b6101c26113e6565b6101b86004803603602081101561047157600080fd5b50356001600160a01b03166113f5565b6101e66114db565b610491610b42565b610499611b0a565b600854604080516323b872dd60e01b81523360048201523060248201526044810185905290516001600160a01b03909216916323b872dd916064808201926020929091908290030181600087803b1580156104f357600080fd5b505af1158015610507573d6000803e3d6000fd5b505050506040513d602081101561051d57600080fd5b5050336000818152600c6020526040908190206001015490830152610541906106a2565b60608201528161055a5760608101516020820152610562565b602081018290525b6105748160600151826020015161153f565b608083018190528282600381111561058857fe5b600381111561059357fe5b81525050506105a8600554826020015161153f565b60a08301819052828260038111156105bc57fe5b60038111156105c757fe5b905250506080810151336000908152600c602052604090209081556004546001820190815560a08301516005555490546106069163ffffffff61156516565b60c0820181905261068957600a5460e082015160408051632ae7a48b60e11b8152336004820181905260248201526044810192909252516001600160a01b03909216916355cf49169160648082019260009290919082900301818387803b15801561067057600080fd5b505af1158015610684573d6000803e3d6000fd5b505050505b5050565b600a546001600160a01b031681565b60025481565b60006106ac610b42565b6106b582610a77565b50919050565b600f6020526000908152604090205460ff1681565b60006106da6115c6565b90505b90565b60055481565b600b546001600160a01b031681565b60075481565b600a546001600160a01b0316331461071257600080fd5b61071a610b42565b610722611b50565b8261072b6115c6565b1161073557600080fd5b61073e826106a2565b6020820181905261074f9084611611565b604083018190528282600381111561076357fe5b600381111561076e57fe5b815250505061077f60055484611611565b606083018190528282600381111561079357fe5b600381111561079e57fe5b905250506040808201516001600160a01b038085166000818152600c6020908152858220948555600480546001909601959095556060870151600555600854865163a9059cbb60e01b815295860193909352602485018990529451919092169363a9059cbb93604480820194929392918390030190829087803b15801561082457600080fd5b505af1158015610838573d6000803e3d6000fd5b505050506040513d602081101561084e57600080fd5b5050505050565b6009546001600160a01b031681565b60006106da622433946108756114db565b9063ffffffff61163716565b610889611b79565b610891611057565b6020808301918252604080519182019052905181526108b1908390611690565b60408301819052828260038111156108c557fe5b60038111156108d057fe5b90525050600854604080516323b872dd60e01b81523360048201523060248201526044810185905290516001600160a01b03909216916323b872dd916064808201926020929091908290030181600087803b15801561092e57600080fd5b505af1158015610942573d6000803e3d6000fd5b505050506040513d602081101561095857600080fd5b5050336000818152600d60205260408082208590556009548482015182516340c10f1960e01b81526004810195909552602485015290516001600160a01b03909116926340c10f1992604480830193919282900301818387803b15801561067057600080fd5b600d6020526000908152604090205481565b60035481565b6109de6116e3565b6000546001600160a01b03908116911614610a2e576040805162461bcd60e51b81526020600482018190526024820152600080516020611c2e833981519152604482015290519081900360640190fd5b600080546040516001600160a01b0390911690600080516020611c4e833981519152908390a3600080546001600160a01b0319169055565b6000610a70610b42565b5060055490565b6001600160a01b0381166000908152600c60205260408120805482918291829190610aa9576000945050505050610b17565b610ab981600001546004546116e7565b90945092506000846003811115610acc57fe5b14610ade576000945050505050610b17565b610aec838260010154611726565b90945091506000846003811115610aff57fe5b14610b11576000945050505050610b17565b50925050505b919050565b6000546001600160a01b031690565b60065481565b60006106da62243394610875610f5c565b6000610b4c611751565b60035490915080821415610b5f57600080fd5b6000610b696115c6565b60055460065460048054600b54604080516315f2405360e01b81529384018790526024840186905260448401859052519596509394929390926000926001600160a01b03909216916315f24053916064808301926020929190829003018186803b158015610bd657600080fd5b505afa158015610bea573d6000803e3d6000fd5b505050506040513d6020811015610c0057600080fd5b5051905065048c27395000811115610c1757600080fd5b600080610c24898961153f565b91509150610c30611b9b565b600080600080610c4e60405180602001604052808a81525087611755565b9097509450610c5d858c6117bd565b9097509350610c6c848c611611565b604080516020810190915260025481529198509350610c8c90858c6117d4565b9097509150610c9c858a806117d4565b60039f909f55505060049c909c5560055550505060069790975550505050505050565b600e602052600090815260409020546001600160a01b031681565b60045481565b610ce8610b42565b6001600160a01b03808316600090815260106020908152604080832093851683529290522054610d209061070863ffffffff61156516565b421015610d2c57600080fd5b610d34611bae565b610d3d836106a2565b602080830191909152600a54604080516359a08bad60e11b81526001600160a01b0387811660048301529151919092169263b341175a9260248082019391829003018186803b158015610d8f57600080fd5b505afa158015610da3573d6000803e3d6000fd5b505050506040513d6020811015610db957600080fd5b505160608201819052610dd390600263ffffffff61183016565b608082018190526060820151610dee9163ffffffff61156516565b60608201526020810151600554610e0a9163ffffffff61186f16565b6005556020810151606082015111610f2f57600854602080830151604080516323b872dd60e01b81523360048201523060248201526044810192909252516001600160a01b03909316926323b872dd926064808401939192918290030181600087803b158015610e7957600080fd5b505af1158015610e8d573d6000803e3d6000fd5b505050506040513d6020811015610ea357600080fd5b50506001600160a01b038084166000818152600c6020526040808220828155600101829055600a54858201518251632ae7a48b60e11b81526004810195909552336024860152604485015290519316926355cf491692606480820193929182900301818387803b158015610f1657600080fd5b505af1158015610f2a573d6000803e3d6000fd5b505050505b506001600160a01b0391821660009081526010602090815260408083209390941682529190915290812055565b600b546000906001600160a01b031663b8168816610f786115c6565b6005546006546002546040518563ffffffff1660e01b81526004018085815260200184815260200183815260200182815260200194505050505060206040518083038186803b158015610fca57600080fd5b505afa158015610fde573d6000803e3d6000fd5b505050506040513d6020811015610ff457600080fd5b5051905090565b6001600160a01b038083166000908152601060209081526040808320938516835292905220541561102b57600080fd5b6001600160a01b0391821660009081526010602090815260408083209390941682529190915220429055565b6000611061610b42565b600960009054906101000a90046001600160a01b03166001600160a01b03166318160ddd6040518163ffffffff1660e01b815260040160206040518083038186803b1580156110af57600080fd5b505afa1580156110c3573d6000803e3d6000fd5b505050506040513d60208110156110d957600080fd5b50516110e857506001546106dd565b60006110f26115c6565b905060006110fe611b9b565b600061110f846005546006546118b1565b809450819250505061119a83600960009054906101000a90046001600160a01b03166001600160a01b03166318160ddd6040518163ffffffff1660e01b815260040160206040518083038186803b15801561116957600080fd5b505afa15801561117d573d6000803e3d6000fd5b505050506040513d602081101561119357600080fd5b50516118ef565b5195506106dd945050505050565b600954604080516318160ddd60e01b815290516000926001600160a01b0316916318160ddd916004808301926020929190829003018186803b1580156110af57600080fd5b600c602052600090815260409020805460019091015482565b61120e610b42565b8061121857600080fd5b611220611b79565b611228611057565b60208083019182526040805191820190529051815261124790836117bd565b604083018190528282600381111561125b57fe5b600381111561126657fe5b9052505060408082015160085482516370a0823160e01b8152306004820152925191926001600160a01b03909116916370a0823191602480820192602092909190829003018186803b1580156112bb57600080fd5b505afa1580156112cf573d6000803e3d6000fd5b505050506040513d60208110156112e557600080fd5b505110156112f257600080fd5b60095460408051632770a7eb60e21b81523360048201526024810185905290516001600160a01b0390921691639dc29fac9160448082019260009290919082900301818387803b15801561134557600080fd5b505af1158015611359573d6000803e3d6000fd5b5050600854604080850151815163a9059cbb60e01b8152336004820152602481019190915290516001600160a01b03909216935063a9059cbb92506044808201926020929091908290030181600087803b1580156113b657600080fd5b505af11580156113ca573d6000803e3d6000fd5b505050506040513d60208110156113e057600080fd5b50505050565b6008546001600160a01b031681565b6113fd6116e3565b6000546001600160a01b0390811691161461144d576040805162461bcd60e51b81526020600482018190526024820152600080516020611c2e833981519152604482015290519081900360640190fd5b6001600160a01b0381166114925760405162461bcd60e51b8152600401808060200182810382526026815260200180611be76026913960400191505060405180910390fd5b600080546040516001600160a01b0380851693921691600080516020611c4e83398151915291a3600080546001600160a01b0319166001600160a01b0392909216919091179055565b600b546000906001600160a01b03166315f240536114f76115c6565b6005546006546040518463ffffffff1660e01b815260040180848152602001838152602001828152602001935050505060206040518083038186803b158015610fca57600080fd5b60008083831161155657506000905081830361155e565b506003905060005b9250929050565b6000828201838110156115bd576040805162461bcd60e51b815260206004820152601b60248201527a536166654d6174683a206164646974696f6e206f766572666c6f7760281b604482015290519081900360640190fd5b90505b92915050565b600854604080516370a0823160e01b815230600482015290516000926001600160a01b0316916370a08231916024808301926020929190829003018186803b158015610fca57600080fd5b6000808383018481106116295760009250905061155e565b50600291506000905061155e565b600082611646575060006115c0565b8282028284828161165357fe5b04146115bd5760405162461bcd60e51b8152600401808060200182810382526021815260200180611c0d6021913960400191505060405180910390fd5b600080600061169d611b9b565b6116a786866119a0565b909250905060008260038111156116ba57fe5b146116cb575091506000905061155e565b60006116d6826119ff565b9350935050509250929050565b3390565b600080836116fa5750600090508061155e565b8383028385828161170757fe5b041461171b5750600291506000905061155e565b60009250905061155e565b6000808261173a575060019050600061155e565b600083858161174557fe5b04915091509250929050565b4390565b600061175f611b9b565b6000806117708660000151866116e7565b9092509050600082600381111561178357fe5b146117a25750604080516020810190915260008152909250905061155e565b60408051602081019091529081526000969095509350505050565b60008060006117ca611b9b565b6116a78686611755565b60008060006117e1611b9b565b6117eb8787611755565b909250905060008260038111156117fe57fe5b1461180f5750915060009050611828565b61182161181b826119ff565b86611611565b9350935050505b935093915050565b60006115bd83836040518060400160405280601a815260200179536166654d6174683a206469766973696f6e206279207a65726f60301b815250611a0e565b60006115bd83836040518060400160405280601e81526020017f536166654d6174683a207375627472616374696f6e206f766572666c6f770000815250611ab0565b6000806000806118c18787611611565b909250905060008260038111156118d457fe5b146118e55750915060009050611828565b611821818661153f565b60006118f9611b9b565b60008061190e86670de0b6b3a76400006116e7565b9092509050600082600381111561192157fe5b146119405750604080516020810190915260008152909250905061155e565b60008061194d8388611726565b9092509050600082600381111561196057fe5b14611983578160405180602001604052806000815250955095505050505061155e565b604080516020810190915290815260009890975095505050505050565b60006119aa611b9b565b6000806119bf670de0b6b3a7640000876116e7565b909250905060008260038111156119d257fe5b146119f15750604080516020810190915260008152909250905061155e565b6116d68186600001516118ef565b51670de0b6b3a7640000900490565b60008183611a9a5760405162461bcd60e51b81526004018080602001828103825283818151815260200191508051906020019080838360005b83811015611a5f578181015183820152602001611a47565b50505050905090810190601f168015611a8c5780820380516001836020036101000a031916815260200191505b509250505060405180910390fd5b506000838581611aa657fe5b0495945050505050565b60008184841115611b025760405162461bcd60e51b8152602060048201818152835160248401528351909283926044909101919085019080838360008315611a5f578181015183820152602001611a47565b505050900390565b6040805161010081019091528060008152602001600081526020016000815260200160008152602001600081526020016000815260200160008152602001600081525090565b604080516080810190915280600081526020016000815260200160008152602001600081525090565b6040805160608101909152806000815260200160008152602001600081525090565b6040518060200160405280600081525090565b6040518060a0016040528060006001600160a01b0316815260200160008152602001600081526020016000815260200160008152509056fe4f776e61626c653a206e6577206f776e657220697320746865207a65726f2061646472657373536166654d6174683a206d756c7469706c69636174696f6e206f766572666c6f774f776e61626c653a2063616c6c6572206973206e6f7420746865206f776e65728be0079c531659141344cd1fd0a4f28419497f9722a3daafe3b4186f6b6457e0a26469706673582212202d97f3fe6658d6afc9700db3bbc01a360bf298df711a6ad64918885324e64f6964736f6c6343000606003360806040523480156200001157600080fd5b506040516200135538038062001355833981810160405260608110156200003757600080fd5b8151602083018051604051929492938301929190846401000000008211156200005f57600080fd5b9083019060208201858111156200007557600080fd5b82516401000000008111828201881017156200009057600080fd5b82525081516020918201929091019080838360005b83811015620000bf578181015183820152602001620000a5565b50505050905090810190601f168015620000ed5780820380516001836020036101000a031916815260200191505b50604052602001805160405193929190846401000000008211156200011157600080fd5b9083019060208201858111156200012757600080fd5b82516401000000008111828201881017156200014257600080fd5b82525081516020918201929091019080838360005b838110156200017157818101518382015260200162000157565b50505050905090810190601f1680156200019f5780820380516001836020036101000a031916815260200191505b5060405250505080826000620001ba6200026c60201b60201c565b600080546001600160a01b0319166001600160a01b0383169081178255604051929350917f8be0079c531659141344cd1fd0a4f28419497f9722a3daafe3b4186f6b6457e0908290a35081516200021990600490602085019062000271565b5080516200022f90600590602084019062000271565b5050600680546001600160a01b0390951661010002610100600160a81b031960ff1990961660121795909516949094179093555062000313915050565b335b90565b828054600181600116156101000203166002900490600052602060002090601f016020900481019282601f10620002b457805160ff1916838001178555620002e4565b82800160010185558215620002e4579182015b82811115620002e4578251825591602001919060010190620002c7565b50620002f2929150620002f6565b5090565b6200026e91905b80821115620002f25760008155600101620002fd565b61103280620003236000396000f3fe608060405234801561001057600080fd5b50600436106100db5760003560e01c806306fdde03146100e0578063095ea7b31461015d57806318160ddd1461019d57806323b872dd146101b7578063313ce567146101ed578063395093511461020b57806340c10f191461023757806370a0823114610265578063715018a61461028b5780638da5cb5b1461029357806395d89b41146102b75780639dc29fac146102bf578063a457c2d7146102eb578063a9059cbb14610317578063dd62ed3e14610343578063e9cbd82214610371578063f2fde38b14610379575b600080fd5b6100e861039f565b6040805160208082528351818301528351919283929083019185019080838360005b8381101561012257818101518382015260200161010a565b50505050905090810190601f16801561014f5780820380516001836020036101000a031916815260200191505b509250505060405180910390f35b6101896004803603604081101561017357600080fd5b506001600160a01b038135169060200135610435565b604080519115158252519081900360200190f35b6101a5610452565b60408051918252519081900360200190f35b610189600480360360608110156101cd57600080fd5b506001600160a01b03813581169160208101359091169060400135610458565b6101f56104e5565b6040805160ff9092168252519081900360200190f35b6101896004803603604081101561022157600080fd5b506001600160a01b0381351690602001356104ee565b6102636004803603604081101561024d57600080fd5b506001600160a01b038135169060200135610542565b005b6101a56004803603602081101561027b57600080fd5b50356001600160a01b03166105a8565b6102636105c3565b61029b610653565b604080516001600160a01b039092168252519081900360200190f35b6100e8610662565b610263600480360360408110156102d557600080fd5b506001600160a01b0381351690602001356106c3565b6101896004803603604081101561030157600080fd5b506001600160a01b038135169060200135610725565b6101896004803603604081101561032d57600080fd5b506001600160a01b038135169060200135610793565b6101a56004803603604081101561035957600080fd5b506001600160a01b03813581169160200135166107a7565b61029b6107d2565b6102636004803603602081101561038f57600080fd5b50356001600160a01b03166107e6565b60048054604080516020601f600260001961010060018816150201909516949094049384018190048102820181019092528281526060939092909183018282801561042b5780601f106104005761010080835404028352916020019161042b565b820191906000526020600020905b81548152906001019060200180831161040e57829003601f168201915b5050505050905090565b60006104496104426108cc565b84846108d0565b50600192915050565b60035490565b60006104658484846109bc565b6104db846104716108cc565b6104d685604051806060016040528060288152602001610ee6602891396001600160a01b038a166000908152600260205260408120906104af6108cc565b6001600160a01b03168152602081019190915260400160002054919063ffffffff610b1316565b6108d0565b5060019392505050565b60065460ff1690565b60006104496104fb6108cc565b846104d6856002600061050c6108cc565b6001600160a01b03908116825260208083019390935260409182016000908120918c16815292529020549063ffffffff610baa16565b61054a6108cc565b6000546001600160a01b0390811691161461059a576040805162461bcd60e51b81526020600482018190526024820152600080516020610f0e833981519152604482015290519081900360640190fd5b6105a48282610c09565b5050565b6001600160a01b031660009081526001602052604090205490565b6105cb6108cc565b6000546001600160a01b0390811691161461061b576040805162461bcd60e51b81526020600482018190526024820152600080516020610f0e833981519152604482015290519081900360640190fd5b600080546040516001600160a01b0390911690600080516020610f2e833981519152908390a3600080546001600160a01b0319169055565b6000546001600160a01b031690565b60058054604080516020601f600260001961010060018816150201909516949094049384018190048102820181019092528281526060939092909183018282801561042b5780601f106104005761010080835404028352916020019161042b565b6106cb6108cc565b6000546001600160a01b0390811691161461071b576040805162461bcd60e51b81526020600482018190526024820152600080516020610f0e833981519152604482015290519081900360640190fd5b6105a48282610cf5565b60006104496107326108cc565b846104d685604051806060016040528060258152602001610fd8602591396002600061075c6108cc565b6001600160a01b03908116825260208083019390935260409182016000908120918d1681529252902054919063ffffffff610b1316565b60006104496107a06108cc565b84846109bc565b6001600160a01b03918216600090815260026020908152604080832093909416825291909152205490565b60065461010090046001600160a01b031681565b6107ee6108cc565b6000546001600160a01b0390811691161461083e576040805162461bcd60e51b81526020600482018190526024820152600080516020610f0e833981519152604482015290519081900360640190fd5b6001600160a01b0381166108835760405162461bcd60e51b8152600401808060200182810382526026815260200180610e786026913960400191505060405180910390fd5b600080546040516001600160a01b0380851693921691600080516020610f2e83398151915291a3600080546001600160a01b0319166001600160a01b0392909216919091179055565b3390565b6001600160a01b0383166109155760405162461bcd60e51b8152600401808060200182810382526024815260200180610fb46024913960400191505060405180910390fd5b6001600160a01b03821661095a5760405162461bcd60e51b8152600401808060200182810382526022815260200180610e9e6022913960400191505060405180910390fd5b6001600160a01b03808416600081815260026020908152604080832094871680845294825291829020859055815185815291517f8c5be1e5ebec7d5bd14f71427d1e84f3dd0314c0f7b2291e5b200ac8c7c3b9259281900390910190a3505050565b6001600160a01b038316610a015760405162461bcd60e51b8152600401808060200182810382526025815260200180610f8f6025913960400191505060405180910390fd5b6001600160a01b038216610a465760405162461bcd60e51b8152600401808060200182810382526023815260200180610e336023913960400191505060405180910390fd5b610a51838383610deb565b610a9481604051806060016040528060268152602001610ec0602691396001600160a01b038616600090815260016020526040902054919063ffffffff610b1316565b6001600160a01b038085166000908152600160205260408082209390935590841681522054610ac9908263ffffffff610baa16565b6001600160a01b038084166000818152600160209081526040918290209490945580518581529051919392871692600080516020610f4e83398151915292918290030190a3505050565b60008184841115610ba25760405162461bcd60e51b81526004018080602001828103825283818151815260200191508051906020019080838360005b83811015610b67578181015183820152602001610b4f565b50505050905090810190601f168015610b945780820380516001836020036101000a031916815260200191505b509250505060405180910390fd5b505050900390565b600082820183811015610c02576040805162461bcd60e51b815260206004820152601b60248201527a536166654d6174683a206164646974696f6e206f766572666c6f7760281b604482015290519081900360640190fd5b9392505050565b6001600160a01b038216610c64576040805162461bcd60e51b815260206004820152601f60248201527f45524332303a206d696e7420746f20746865207a65726f206164647265737300604482015290519081900360640190fd5b610c7060008383610deb565b600354610c83908263ffffffff610baa16565b6003556001600160a01b038216600090815260016020526040902054610caf908263ffffffff610baa16565b6001600160a01b0383166000818152600160209081526040808320949094558351858152935192939192600080516020610f4e8339815191529281900390910190a35050565b6001600160a01b038216610d3a5760405162461bcd60e51b8152600401808060200182810382526021815260200180610f6e6021913960400191505060405180910390fd5b610d4682600083610deb565b610d8981604051806060016040528060228152602001610e56602291396001600160a01b038516600090815260016020526040902054919063ffffffff610b1316565b6001600160a01b038316600090815260016020526040902055600354610db5908263ffffffff610df016565b6003556040805182815290516000916001600160a01b03851691600080516020610f4e8339815191529181900360200190a35050565b505050565b6000610c0283836040518060400160405280601e81526020017f536166654d6174683a207375627472616374696f6e206f766572666c6f770000815250610b1356fe45524332303a207472616e7366657220746f20746865207a65726f206164647265737345524332303a206275726e20616d6f756e7420657863656564732062616c616e63654f776e61626c653a206e6577206f776e657220697320746865207a65726f206164647265737345524332303a20617070726f766520746f20746865207a65726f206164647265737345524332303a207472616e7366657220616d6f756e7420657863656564732062616c616e636545524332303a207472616e7366657220616d6f756e74206578636565647320616c6c6f77616e63654f776e61626c653a2063616c6c6572206973206e6f7420746865206f776e65728be0079c531659141344cd1fd0a4f28419497f9722a3daafe3b4186f6b6457e0ddf252ad1be2c89b69c2b068fc378daa952ba7f163c4a11628f55a4df523b3ef45524332303a206275726e2066726f6d20746865207a65726f206164647265737345524332303a207472616e736665722066726f6d20746865207a65726f206164647265737345524332303a20617070726f76652066726f6d20746865207a65726f206164647265737345524332303a2064656372656173656420616c6c6f77616e63652062656c6f77207a65726fa264697066735822122031be152ed6520da8d6af1af43c8b44a9656953c334cb61126cade981debcf43064736f6c63430006060033",
  "immutableReferences": {},
  "source": "pragma solidity ^0.6.2;\n\nimport \"@openzeppelin/contracts/access/Ownable.sol\";\nimport \"@openzeppelin/contracts/math/SafeMath.sol\";\nimport \"@openzeppelin/contracts/token/ERC20/ERC20.sol\";\nimport \"./compound/Exponential.sol\";\nimport \"./compound/InterestRateModel.sol\";\nimport \"./interfaces/UniswapLPOracleFactoryI.sol\";\nimport \"./WarpWrapperToken.sol\";\nimport \"./interfaces/WarpControlI.sol\";\n\n////////////////////////////////////////////////////////////////////////////////////////////\n/// @title WarpVaultSC\n/// @author Christopher Dixon\n////////////////////////////////////////////////////////////////////////////////////////////\n/**\n@notice the WarpVaultSC contract is the main point of interface for a specific LP asset class and an end user in the\nWarp lending platform. This contract is responsible for distributing WarpWrapper tokens in exchange for stablecoin assets,\nholding and accounting of stablecoins and LP tokens and all associates lending/borrowing calculations for a specific Warp LP asset class.\nThis contract inherits Ownership and ERC20 functionality from the Open Zeppelin Library as well as Exponential and the InterestRateModel contracts\nfrom the coumpound protocol.\n**/\n\ncontract WarpVaultSC is Ownable, Exponential {\n    using SafeMath for uint256;\n\n    uint256 internal initialExchangeRateMantissa;\n    uint256 public reserveFactorMantissa;\n    uint256 public accrualBlockNumber;\n    uint256 public borrowIndex;\n    uint256 public totalBorrows;\n    uint256 public totalReserves;\n    uint256 internal constant borrowRateMaxMantissa = 0.0005e16;\n    uint256 internal constant reserveFactorMaxMantissa = 1e18;\n    uint256 public liquidationIncentiveMantissa = 1.5e18; // 1.5\n\n    ERC20 public stablecoin;\n    WarpWrapperToken public wStableCoin;\n    WarpControlI public WC;\n    InterestRateModel public InterestRate;\n\n    mapping(address => BorrowSnapshot) public accountBorrows;\n    mapping(address => uint256) public accountLent;\n    mapping(address => address) public collateralAddressTracker;\n    mapping(address => bool) public collateralLocked;\n    mapping(address => mapping(address => uint256)) nonCompliant; // tracks user to a market to a time\n\n    /**\n@notice struct for borrow balance information\n@member principal Total balance (with accrued interest), after applying the most recent balance-changing action\n@member interestIndex Global borrowIndex as of the most recent balance-changing action\n*/\n    struct BorrowSnapshot {\n        uint256 principal;\n        uint256 interestIndex;\n    }\n\n    /**\n     * @dev Throws if called by any account other than a warp control\n     */\n    modifier onlyWC() {\n        require(msg.sender == address(WC));\n        _;\n    }\n\n    /**\n@notice constructor sets up token names and symbols for the WarpWrapperToken\n\n**/\n    constructor(\n        address _InterestRate,\n        address _StableCoin,\n        address _warpControl,\n        uint256 _initialExchangeRate\n    ) public {\n        WC = WarpControlI(_warpControl);\n        stablecoin = ERC20(_StableCoin);\n        InterestRate = InterestRateModel(_InterestRate);\n        accrualBlockNumber = getBlockNumber();\n        borrowIndex = mantissaOne;\n        initialExchangeRateMantissa = _initialExchangeRate; //sets the initialExchangeRateMantissa\n        wStableCoin = new WarpWrapperToken(\n            address(stablecoin),\n            stablecoin.name(),\n            stablecoin.symbol()\n        );\n    }\n\n    /**\n@notice getCashPrior is a view funcion that returns the USD balance of all held underlying stablecoin assets\n**/\n    function getCashPrior() internal view returns (uint256) {\n        return stablecoin.balanceOf(address(this));\n    }\n\n    /**\n@notice Applies accrued interest to total borrows and reserves\n@dev This calculates interest accrued from the last checkpointed block\n     up to the current block and writes new checkpoint to storage.\n**/\n    function accrueInterest() public {\n        //Remember the initial block number\n        uint256 currentBlockNumber = getBlockNumber();\n        uint256 accrualBlockNumberPrior = accrualBlockNumber;\n        //Short-circuit accumulating 0 interest\n        require(accrualBlockNumberPrior != currentBlockNumber);\n        //Read the previous values out of storage\n        uint256 cashPrior = getCashPrior();\n        uint256 borrowsPrior = totalBorrows;\n        uint256 reservesPrior = totalReserves;\n        uint256 borrowIndexPrior = borrowIndex;\n        //Calculate the current borrow interest rate\n        uint256 borrowRateMantissa = InterestRate.getBorrowRate(\n            cashPrior,\n            borrowsPrior,\n            reservesPrior\n        );\n        require(borrowRateMantissa <= borrowRateMaxMantissa);\n        //Calculate the number of blocks elapsed since the last accrual\n        (MathError mathErr, uint256 blockDelta) = subUInt(\n            currentBlockNumber,\n            accrualBlockNumberPrior\n        );\n        //Calculate the interest accumulated into borrows and reserves and the new index:\n        Exp memory simpleInterestFactor;\n        uint256 interestAccumulated;\n        uint256 totalBorrowsNew;\n        uint256 totalReservesNew;\n        uint256 borrowIndexNew;\n        //simpleInterestFactor = borrowRate * blockDelta\n        (mathErr, simpleInterestFactor) = mulScalar(\n            Exp({mantissa: borrowRateMantissa}),\n            blockDelta\n        );\n        //interestAccumulated = simpleInterestFactor * totalBorrows\n        (mathErr, interestAccumulated) = mulScalarTruncate(\n            simpleInterestFactor,\n            borrowsPrior\n        );\n        //totalBorrowsNew = interestAccumulated + totalBorrows\n        (mathErr, totalBorrowsNew) = addUInt(interestAccumulated, borrowsPrior);\n        //totalReservesNew = interestAccumulated * reserveFactor + totalReserves\n        (mathErr, totalReservesNew) = mulScalarTruncateAddUInt(\n            Exp({mantissa: reserveFactorMantissa}),\n            interestAccumulated,\n            reservesPrior\n        );\n        //borrowIndexNew = simpleInterestFactor * borrowIndex + borrowIndex\n        (mathErr, borrowIndexNew) = mulScalarTruncateAddUInt(\n            simpleInterestFactor,\n            borrowIndexPrior,\n            borrowIndexPrior\n        );\n\n        //Write the previously calculated values into storage\n        accrualBlockNumber = currentBlockNumber;\n        borrowIndex = borrowIndexNew;\n        totalBorrows = totalBorrowsNew;\n        totalReserves = totalReservesNew;\n    }\n\n    /**\n@notice returns last calculated account's borrow balance using the prior borrowIndex\n@param account The address whose balance should be calculated after updating borrowIndex\n@return The calculated balance\n**/\n    function borrowBalancePrior(address account) public view returns (uint256) {\n        MathError mathErr;\n        uint256 principalTimesIndex;\n        uint256 result;\n\n        //Get borrowBalance and borrowIndex\n        BorrowSnapshot storage borrowSnapshot = accountBorrows[account];\n        //If borrowBalance = 0 then borrowIndex is likely also 0.\n        //Rather than failing the calculation with a division by 0, we immediately return 0 in this case.\n        if (borrowSnapshot.principal == 0) {\n            return (0);\n        }\n        //Calculate new borrow balance using the interest index:\n        //recentBorrowBalance = borrower.borrowBalance * market.borrowIndex / borrower.borrowIndex\n        (mathErr, principalTimesIndex) = mulUInt(\n            borrowSnapshot.principal,\n            borrowIndex\n        );\n        //if theres a math error return zero so as not to fail\n        if (mathErr != MathError.NO_ERROR) {\n            return (0);\n        }\n        (mathErr, result) = divUInt(\n            principalTimesIndex,\n            borrowSnapshot.interestIndex\n        );\n        //if theres a math error return zero so as not to fail\n        if (mathErr != MathError.NO_ERROR) {\n            return (0);\n        }\n        return (result);\n    }\n\n    /**\n@notice Accrue interest to updated borrowIndex and then calculate account's borrow balance using the updated borrowIndex\n@param account The address whose balance should be calculated after updating borrowIndex\n@return The calculated balance\n**/\n    function borrowBalanceCurrent(address account) public returns (uint256) {\n        accrueInterest();\n        borrowBalancePrior(account);\n    }\n\n    /**\n @notice getBlockNumber allows for easy retrieval of block number\n **/\n    function getBlockNumber() internal view returns (uint256) {\n        return block.number;\n    }\n\n    /**\n@notice Returns the current per-block borrow interest rate for this cToken\n@return The borrow interest rate per block, scaled by 1e18\n**/\n    function borrowRatePerBlock() public view returns (uint256) {\n        return\n            InterestRate.getBorrowRate(\n                getCashPrior(),\n                totalBorrows,\n                totalReserves\n            );\n    }\n\n    /**\n@notice Returns the current per-block supply interest rate for this cToken\n@return The supply interest rate per block, scaled by 1e18\n**/\n    function supplyRatePerBlock() public view returns (uint256) {\n        return\n            InterestRate.getSupplyRate(\n                getCashPrior(),\n                totalBorrows,\n                totalReserves,\n                reserveFactorMantissa\n            );\n    }\n\n    /**\n@notice getSupplyAPY roughly calculates the current APY for supplying using an average of 6500 blocks per day\n**/\n    function getSupplyAPY() public view returns (uint256) {\n        //multiply rate per block by blocks per year with an average of 6500 blocks a day per https://ycharts.com/indicators/ethereum_blocks_per_day\n        return supplyRatePerBlock().mul(2372500);\n    }\n\n    /**\n@notice getSupplyAPY roughly calculates the current APY for borrowing using an average of 6500 blocks per day\n**/\n    function getBorrowAPY() public view returns (uint256) {\n        //multiply rate per block by blocks per year with an average of 6500 blocks a day per https://ycharts.com/indicators/ethereum_blocks_per_day\n        return borrowRatePerBlock().mul(2372500);\n    }\n\n    /**\n     @notice Returns the current total borrows plus accrued interest\n     @return The total borrows with interest\n     **/\n    function totalBorrowsCurrent() external returns (uint256) {\n        accrueInterest();\n        return totalBorrows;\n    }\n\n    /**\n         @notice  return the not up-to-date exchange rate\n         @return Calculated exchange rate scaled by 1e18\n         **/\n    function exchangeRatePrior() public view returns (uint256) {\n        if (wStableCoin.totalSupply() == 0) {\n            //If there are no tokens minted: exchangeRate = initialExchangeRate\n            return initialExchangeRateMantissa;\n        } else {\n            //Otherwise: exchangeRate = (totalCash + totalBorrows - totalReserves) / totalSupply\n            uint256 totalCash = getCashPrior(); //get contract asset balance\n            uint256 cashPlusBorrowsMinusReserves;\n            Exp memory exchangeRate;\n            MathError mathErr;\n            //calculate total value held by contract plus owed to contract\n            (mathErr, cashPlusBorrowsMinusReserves) = addThenSubUInt(\n                totalCash,\n                totalBorrows,\n                totalReserves\n            );\n            //calculate exchange rate\n            (mathErr, exchangeRate) = getExp(\n                cashPlusBorrowsMinusReserves,\n                wStableCoin.totalSupply()\n            );\n            return (exchangeRate.mantissa);\n        }\n    }\n\n    /**\n     @notice Accrue interest then return the up-to-date exchange rate\n     @return Calculated exchange rate scaled by 1e18\n     **/\n    function exchangeRateCurrent() public returns (uint256) {\n        accrueInterest();\n\n        if (wStableCoin.totalSupply() == 0) {\n            //If there are no tokens minted: exchangeRate = initialExchangeRate\n            return initialExchangeRateMantissa;\n        } else {\n            //Otherwise: exchangeRate = (totalCash + totalBorrows - totalReserves) / totalSupply\n            uint256 totalCash = getCashPrior(); //get contract asset balance\n            uint256 cashPlusBorrowsMinusReserves;\n            Exp memory exchangeRate;\n            MathError mathErr;\n            //calculate total value held by contract plus owed to contract\n            (mathErr, cashPlusBorrowsMinusReserves) = addThenSubUInt(\n                totalCash,\n                totalBorrows,\n                totalReserves\n            );\n            //calculate exchange rate\n            (mathErr, exchangeRate) = getExp(\n                cashPlusBorrowsMinusReserves,\n                wStableCoin.totalSupply()\n            );\n            return (exchangeRate.mantissa);\n        }\n    }\n\n    /**\n@notice Get cash balance of this cToken in the underlying asset in other contracts\n@return The quantity of underlying asset owned by this contract\n**/\n    function getCash() external view returns (uint256) {\n        return getCashPrior();\n    }\n\n    //struct used by mint to avoid stack too deep errors\n    struct MintLocalVars {\n        MathError mathErr;\n        uint256 exchangeRateMantissa;\n        uint256 mintTokens;\n    }\n\n    /**\n@notice lendToWarpVault is used to lend stablecoin assets to a WaprVault\n@param _amount is the amount of the asset being lent\n@dev the user will need to first approve the transfer of the underlying asset\n**/\n    function lendToWarpVault(uint256 _amount) public {\n        //declare struct\n        MintLocalVars memory vars;\n        //retrieve exchange rate\n        vars.exchangeRateMantissa = exchangeRateCurrent();\n        //We get the current exchange rate and calculate the number of WarpWrapperToken to be minted:\n        //mintTokens = _amount / exchangeRate\n        (vars.mathErr, vars.mintTokens) = divScalarByExpTruncate(\n            _amount,\n            Exp({mantissa: vars.exchangeRateMantissa})\n        );\n\n        //transfer appropriate amount of DAI from msg.sender to the Vault\n        stablecoin.transferFrom(msg.sender, address(this), _amount);\n        //track amount lent\n        accountLent[msg.sender] = _amount;\n        //mint appropriate Warp DAI\n        wStableCoin.mint(msg.sender, vars.mintTokens);\n    }\n\n    struct RedeemLocalVars {\n        MathError mathErr;\n        uint256 exchangeRateMantissa;\n        uint256 redeemAmount;\n    }\n\n    /**\n@notice redeem allows a user to redeem their Warp Wrapper Token for the appropriate amount of underlying stablecoin asset\n@param _amount is the amount of Warp Wrapper token being exchanged\n**/\n    function redeem(uint256 _amount) public {\n        accrueInterest();\n        require(_amount != 0);\n\n        RedeemLocalVars memory vars;\n\n        //get exchange rate\n        vars.exchangeRateMantissa = exchangeRateCurrent();\n        /**\nWe calculate the exchange rate and the amount of underlying to be redeemed:\nredeemAmount = _amount x exchangeRateCurrent\n*/\n        (vars.mathErr, vars.redeemAmount) = mulScalarTruncate(\n            Exp({mantissa: vars.exchangeRateMantissa}),\n            _amount\n        );\n        //Fail if protocol has insufficient cash\n        require(stablecoin.balanceOf(address(this)) >= vars.redeemAmount);\n        //burn wrapped token from msg.sender\n        wStableCoin.burn(msg.sender, _amount); //will fail id the msg.sender doesnt have the appropriateamount of wrapper token\n        //transfer the calculated amount of underlying asset to the msg.sender\n        stablecoin.transfer(msg.sender, vars.redeemAmount);\n    }\n\n    //struct used by borrow function to avoid stack too deep errors\n    struct BorrowLocalVars {\n        MathError mathErr;\n        uint256 accountBorrows;\n        uint256 accountBorrowsNew;\n        uint256 totalBorrowsNew;\n    }\n\n    /**\n@notice Sender borrows stablecoin assets from the protocol to their own address\n@param _borrowAmount The amount of the underlying asset to borrow\n*/\n    function borrow(uint256 _borrowAmount, address _borrower) external onlyWC {\n        // _collateral the address of the ALR the user has staked as collateral?\n        accrueInterest();\n        //create local vars storage\n        BorrowLocalVars memory vars;\n\n        //Fail if protocol has insufficient underlying cash\n        require(getCashPrior() > _borrowAmount);\n        //calculate the new borrower and total borrow balances, failing on overflow:\n        vars.accountBorrows = borrowBalanceCurrent(_borrower);\n        //accountBorrowsNew = accountBorrows + borrowAmount\n        (vars.mathErr, vars.accountBorrowsNew) = addUInt(\n            vars.accountBorrows,\n            _borrowAmount\n        );\n        //totalBorrowsNew = totalBorrows + borrowAmount\n        (vars.mathErr, vars.totalBorrowsNew) = addUInt(\n            totalBorrows,\n            _borrowAmount\n        );\n        //We write the previously calculated values into storage\n        accountBorrows[_borrower].principal = vars.accountBorrowsNew;\n        accountBorrows[_borrower].interestIndex = borrowIndex;\n        totalBorrows = vars.totalBorrowsNew;\n        //send them their loaned asset\n        stablecoin.transfer(_borrower, _borrowAmount);\n    }\n\n    struct RepayBorrowLocalVars {\n        MathError mathErr;\n        uint256 repayAmount;\n        uint256 borrowerIndex;\n        uint256 accountBorrows;\n        uint256 accountBorrowsNew;\n        uint256 totalBorrowsNew;\n        uint256 totalOwed;\n        uint256 lockedCollateral;\n    }\n\n    /**\n@notice Sender repays their own borrow\n@param repayAmount The amount to repay\n*/\n    function repayBorrow(uint256 repayAmount) public {\n        accrueInterest();\n\n        //create local vars storage\n        RepayBorrowLocalVars memory vars;\n\n        stablecoin.transferFrom(msg.sender, address(this), repayAmount);\n        //We remember the original borrowerIndex for verification purposes\n        vars.borrowerIndex = accountBorrows[msg.sender].interestIndex;\n        //We fetch the amount the borrower owes, with accumulated interest\n        vars.accountBorrows = borrowBalanceCurrent(msg.sender);\n        //If repayAmount == 0, repayAmount = accountBorrows\n        if (repayAmount == 0) {\n            vars.repayAmount = vars.accountBorrows;\n        } else {\n            vars.repayAmount = repayAmount;\n        }\n        //We calculate the new borrower and total borrow balances\n        //accountBorrowsNew = accountBorrows - actualRepayAmount\n        (vars.mathErr, vars.accountBorrowsNew) = subUInt(\n            vars.accountBorrows,\n            vars.repayAmount\n        );\n        //totalBorrowsNew = totalBorrows - actualRepayAmount\n        (vars.mathErr, vars.totalBorrowsNew) = subUInt(\n            totalBorrows,\n            vars.repayAmount\n        );\n        /* We write the previously calculated values into storage */\n        accountBorrows[msg.sender].principal = vars.accountBorrowsNew;\n        accountBorrows[msg.sender].interestIndex = borrowIndex;\n        totalBorrows = vars.totalBorrowsNew;\n        vars.totalOwed = accountBorrows[msg.sender].principal.add(\n            accountBorrows[msg.sender].interestIndex\n        );\n        //if the amount they owe is now zero\n        if (vars.totalOwed == 0) {\n            //track collateral globally through Warp Control\n            WC.unlockColateral(msg.sender, msg.sender, vars.lockedCollateral);\n        }\n    }\n\n    /**\n      @notice markAccountNonCompliant is used by a potential liquidator to mark an account as non compliant which starts its 30 minute timer\n      @param _borrower is the address of the non compliant borrower\n      @param _WarpVault is the address of the WarpVault LP the user is non-compliant in\n      **/\n    function markAccountNonCompliant(address _borrower, address _WarpVault)\n        public\n    {\n        //needs to check for account compliance\n        require(nonCompliant[_borrower][_WarpVault] == 0);\n        nonCompliant[_borrower][_WarpVault] = now;\n    }\n\n    //struct used to avoid stack too deep errors\n    struct liquidateLocalVar {\n        address assetOwed;\n        uint256 borrowedAmount;\n        uint256 collatAmount;\n        uint256 collatValue;\n        uint256 halfVal;\n    }\n\n    /**\n      @notice The sender liquidates the borrowers collateral. This function is called on the WarpVault the borrower owes to.\n      @param borrower The borrower of a Warpvaults LP token to be liquidated\n      @param _WarpVaultOwed is the address of the WarpVault where the borrower owes asset\n      **/\n\n    function liquidateAccount(address borrower, address _WarpVaultOwed) public {\n        accrueInterest();\n        //checks if its been nonCompliant for more than a half hour\n        require(now >= nonCompliant[borrower][_WarpVaultOwed].add(1800));\n        //create local vars storage\n        liquidateLocalVar memory vars;\n        //retrieve amount that was borrowed by borrower\n        vars.borrowedAmount = borrowBalanceCurrent(borrower);\n        //retreive the USDC value of their locked collateral LP token\n        vars.collatValue = WC.checkTotalAvailableCollateralValue(borrower);\n        //divide collateral value in half\n        vars.halfVal = vars.collatValue.div(2);\n        //add 1/2 the collateral value to the total collateral value for 150% colleral value\n        vars.collatValue = vars.collatValue.add(vars.halfVal);\n        //subtract borrowed amount total borrows\n        totalBorrows = totalBorrows.sub(vars.borrowedAmount);\n        //if the borrowed value is greater than or equal to 150% of the collaterals value\n        if (vars.collatValue <= vars.borrowedAmount) {\n            //transfer the borrowed amount of stablecoin from the liquidator\n            stablecoin.transferFrom(\n                msg.sender,\n                address(this),\n                vars.borrowedAmount\n            );\n            //set their account borrow principle to zero\n            accountBorrows[borrower].principal = 0;\n            //set their account borrow interest index back to zero\n            accountBorrows[borrower].interestIndex = 0;\n            //track collateral globally through Warp Control sending the locked Warp Wrapper Token LP to the liquidator\n            WC.unlockColateral(borrower, msg.sender, vars.collatAmount);\n        }\n        //reset accounts compliant timer if its paid off OR if they where compliant by the time this function is run\n        nonCompliant[borrower][_WarpVaultOwed] = 0; //resets borrowers compliance timer\n    }\n}\n",
  "sourcePath": "/home/stan36/repos/Warp/Smart-Contracts/contracts/WarpVaultSC.sol",
  "compiler": {
    "name": "solc",
    "version": "0.6.6+commit.6c089d02.Emscripten.clang"
  },
  "schemaVersion": "3.3.1",
  "updatedAt": "2020-11-05T04:41:25.784Z",
  "devdoc": {
    "methods": {
      "accrueInterest()": {
        "details": "This calculates interest accrued from the last checkpointed block up to the current block and writes new checkpoint to storage.*"
      },
      "borrow(uint256,address)": {
        "params": {
          "_borrowAmount": "The amount of the underlying asset to borrow"
        }
      },
      "borrowBalanceCurrent(address)": {
        "params": {
          "account": "The address whose balance should be calculated after updating borrowIndex"
        },
        "returns": {
          "_0": "The calculated balance*"
        }
      },
      "borrowBalancePrior(address)": {
        "params": {
          "account": "The address whose balance should be calculated after updating borrowIndex"
        },
        "returns": {
          "_0": "The calculated balance*"
        }
      },
      "lendToWarpVault(uint256)": {
        "details": "the user will need to first approve the transfer of the underlying asset*",
        "params": {
          "_amount": "is the amount of the asset being lent"
        }
      },
      "liquidateAccount(address,address)": {
        "params": {
          "_WarpVaultOwed": "is the address of the WarpVault where the borrower owes asset*",
          "borrower": "The borrower of a Warpvaults LP token to be liquidated"
        }
      },
      "markAccountNonCompliant(address,address)": {
        "params": {
          "_WarpVault": "is the address of the WarpVault LP the user is non-compliant in*",
          "_borrower": "is the address of the non compliant borrower"
        }
      },
      "owner()": {
        "details": "Returns the address of the current owner."
      },
      "redeem(uint256)": {
        "params": {
          "_amount": "is the amount of Warp Wrapper token being exchanged*"
        }
      },
      "renounceOwnership()": {
        "details": "Leaves the contract without owner. It will not be possible to call `onlyOwner` functions anymore. Can only be called by the current owner.     * NOTE: Renouncing ownership will leave the contract without an owner, thereby removing any functionality that is only available to the owner."
      },
      "repayBorrow(uint256)": {
        "params": {
          "repayAmount": "The amount to repay"
        }
      },
      "transferOwnership(address)": {
        "details": "Transfers ownership of the contract to a new account (`newOwner`). Can only be called by the current owner."
      }
    }
  },
  "userdoc": {
    "methods": {
      "accrueInterest()": {
        "notice": "Applies accrued interest to total borrows and reserves"
      },
      "borrow(uint256,address)": {
        "notice": "Sender borrows stablecoin assets from the protocol to their own address"
      },
      "borrowBalanceCurrent(address)": {
        "notice": "Accrue interest to updated borrowIndex and then calculate account's borrow balance using the updated borrowIndex"
      },
      "borrowBalancePrior(address)": {
        "notice": "returns last calculated account's borrow balance using the prior borrowIndex"
      },
      "borrowRatePerBlock()": {
        "notice": "Returns the current per-block borrow interest rate for this cToken"
      },
      "constructor": "constructor sets up token names and symbols for the WarpWrapperToken*",
      "exchangeRateCurrent()": {
        "notice": "Accrue interest then return the up-to-date exchange rate"
      },
      "exchangeRatePrior()": {
        "notice": "return the not up-to-date exchange rate"
      },
      "getBorrowAPY()": {
        "notice": "getSupplyAPY roughly calculates the current APY for borrowing using an average of 6500 blocks per day*"
      },
      "getCash()": {
        "notice": "Get cash balance of this cToken in the underlying asset in other contracts"
      },
      "getSupplyAPY()": {
        "notice": "getSupplyAPY roughly calculates the current APY for supplying using an average of 6500 blocks per day*"
      },
      "lendToWarpVault(uint256)": {
        "notice": "lendToWarpVault is used to lend stablecoin assets to a WaprVault"
      },
      "liquidateAccount(address,address)": {
        "notice": "The sender liquidates the borrowers collateral. This function is called on the WarpVault the borrower owes to."
      },
      "markAccountNonCompliant(address,address)": {
        "notice": "markAccountNonCompliant is used by a potential liquidator to mark an account as non compliant which starts its 30 minute timer"
      },
      "redeem(uint256)": {
        "notice": "redeem allows a user to redeem their Warp Wrapper Token for the appropriate amount of underlying stablecoin asset"
      },
      "repayBorrow(uint256)": {
        "notice": "Sender repays their own borrow"
      },
      "supplyRatePerBlock()": {
        "notice": "Returns the current per-block supply interest rate for this cToken"
      },
      "totalBorrowsCurrent()": {
        "notice": "Returns the current total borrows plus accrued interest"
      }
    },
    "notice": "the WarpVaultSC contract is the main point of interface for a specific LP asset class and an end user in the Warp lending platform. This contract is responsible for distributing WarpWrapper tokens in exchange for stablecoin assets, holding and accounting of stablecoins and LP tokens and all associates lending/borrowing calculations for a specific Warp LP asset class. This contract inherits Ownership and ERC20 functionality from the Open Zeppelin Library as well as Exponential and the InterestRateModel contracts from the coumpound protocol.*"
  }
}