{
  "contractName": "WarpVaultSCFactory",
  "abi": [
    {
      "anonymous": false,
      "inputs": [
        {
          "indexed": true,
          "internalType": "address",
          "name": "previousOwner",
          "type": "address"
        },
        {
          "indexed": true,
          "internalType": "address",
          "name": "newOwner",
          "type": "address"
        }
      ],
      "name": "OwnershipTransferred",
      "type": "event"
    },
    {
      "inputs": [],
      "name": "owner",
      "outputs": [
        {
          "internalType": "address",
          "name": "",
          "type": "address"
        }
      ],
      "stateMutability": "view",
      "type": "function"
    },
    {
      "inputs": [],
      "name": "renounceOwnership",
      "outputs": [],
      "stateMutability": "nonpayable",
      "type": "function"
    },
    {
      "inputs": [
        {
          "internalType": "address",
          "name": "newOwner",
          "type": "address"
        }
      ],
      "name": "transferOwnership",
      "outputs": [],
      "stateMutability": "nonpayable",
      "type": "function"
    },
    {
      "inputs": [
        {
          "internalType": "address",
          "name": "_InterestRate",
          "type": "address"
        },
        {
          "internalType": "address",
          "name": "_StableCoin",
          "type": "address"
        },
        {
          "internalType": "address",
          "name": "_warpTeam",
          "type": "address"
        },
        {
          "internalType": "uint256",
          "name": "_initialExchangeRate",
          "type": "uint256"
        }
      ],
      "name": "createNewWarpVaultSC",
      "outputs": [
        {
          "internalType": "address",
          "name": "",
          "type": "address"
        }
      ],
      "stateMutability": "nonpayable",
      "type": "function"
    }
  ],
  "bytecode": "0x608060405260006100176001600160e01b0361006616565b600080546001600160a01b0319166001600160a01b0383169081178255604051929350917f8be0079c531659141344cd1fd0a4f28419497f9722a3daafe3b4186f6b6457e0908290a35061006a565b3390565b6140c2806100796000396000f3fe608060405234801561001057600080fd5b506004361061004c5760003560e01c8063715018a61461005157806381fe1da31461005b5780638da5cb5b146100b3578063f2fde38b146100bb575b600080fd5b6100596100e1565b005b6100976004803603608081101561007157600080fd5b506001600160a01b03813581169160208101358216916040820135169060600135610171565b604080516001600160a01b039092168252519081900360200190f35b610097610235565b610059600480360360208110156100d157600080fd5b50356001600160a01b0316610244565b6100e961032a565b6000546001600160a01b03908116911614610139576040805162461bcd60e51b8152602060048201819052602482015260008051602061404d833981519152604482015290519081900360640190fd5b600080546040516001600160a01b039091169060008051602061406d833981519152908390a3600080546001600160a01b0319169055565b600061017b61032a565b6000546001600160a01b039081169116146101cb576040805162461bcd60e51b8152602060048201819052602482015260008051602061404d833981519152604482015290519081900360640190fd5b600085853386866040516101de9061032e565b6001600160a01b039586168152938516602085015291841660408085019190915293166060830152608082015290519081900360a001906000f08015801561022a573d6000803e3d6000fd5b509695505050505050565b6000546001600160a01b031690565b61024c61032a565b6000546001600160a01b0390811691161461029c576040805162461bcd60e51b8152602060048201819052602482015260008051602061404d833981519152604482015290519081900360640190fd5b6001600160a01b0381166102e15760405162461bcd60e51b81526004018080602001828103825260268152602001806140276026913960400191505060405180910390fd5b600080546040516001600160a01b038085169392169160008051602061406d83398151915291a3600080546001600160a01b0319166001600160a01b0392909216919091179055565b3390565b613ceb8061033c8339019056fe608060405260056007556127106008553480156200001c57600080fd5b5060405162003ceb38038062003ceb833981810160405260a08110156200004257600080fd5b508051602082015160408301516060840151608090940151929391929091906000620000766001600160e01b03620004ed16565b600080546001600160a01b0319166001600160a01b0383169081178255604051929350917f8be0079c531659141344cd1fd0a4f28419497f9722a3daafe3b4186f6b6457e0908290a350600c80546001600160a01b038086166001600160a01b031992831617909255600a8054878416908316179055600d805492881692909116919091179055620001106001600160e01b03620004f116565b600355670de0b6b3a764000060049081556001829055600980546001600160a01b0319166001600160a01b0385811691909117909155600a54604080516306fdde0360e01b81529051919092169283926306fdde039281830192600092829003018186803b1580156200018257600080fd5b505afa15801562000197573d6000803e3d6000fd5b505050506040513d6000823e601f3d908101601f191682016040526020811015620001c157600080fd5b8101908080516040519392919084640100000000821115620001e257600080fd5b908301906020820185811115620001f857600080fd5b82516401000000008111828201881017156200021357600080fd5b82525081516020918201929091019080838360005b838110156200024257818101518382015260200162000228565b50505050905090810190601f168015620002705780820380516001836020036101000a031916815260200191505b506040818152600a546395d89b4160e01b835290516001600160a01b0390911694506395d89b41935060048083019350600092829003018186803b158015620002b857600080fd5b505afa158015620002cd573d6000803e3d6000fd5b505050506040513d6000823e601f3d908101601f191682016040526020811015620002f757600080fd5b81019080805160405193929190846401000000008211156200031857600080fd5b9083019060208201858111156200032e57600080fd5b82516401000000008111828201881017156200034957600080fd5b82525081516020918201929091019080838360005b83811015620003785781810151838201526020016200035e565b50505050905090810190601f168015620003a65780820380516001836020036101000a031916815260200191505b50604052505050604051620003bb90620004f5565b6001600160a01b0384168152606060208083018281528551928401929092528451604084019160808501919087019080838360005b838110156200040a578181015183820152602001620003f0565b50505050905090810190601f168015620004385780820380516001836020036101000a031916815260200191505b50838103825284518152845160209182019186019080838360005b838110156200046d57818101518382015260200162000453565b50505050905090810190601f1680156200049b5780820380516001836020036101000a031916815260200191505b5095505050505050604051809103906000f080158015620004c0573d6000803e3d6000fd5b50600b80546001600160a01b0319166001600160a01b039290921691909117905550620005039350505050565b3390565b4390565b611355806200299683390190565b61248380620005136000396000f3fe608060405234801561001057600080fd5b50600436106101b75760003560e01c80630e752702146101bc578063122b5818146101db578063173b9904146101ff57806317bfdfbc146102195780631f2dc5ef1461023f578063232d46d21461024757806324a045ca1461027357806336820e4b146102ad5780633b1d21a2146102d357806347bd3718146102db57806348dc0b6e146102e35780634ee8acc0146102eb57806357d32b7a146102f35780635cf57389146103105780636c540baf1461031857806370ba111314610320578063715018a61461032857806373acee98146103305780637746efab146103385780638da5cb5b1461035e5780638f7bf4fd146103665780638f840ddd1461038c57806399a5d74714610394578063a6afed95146103b1578063a907b3ef146103b9578063aa5af0fd146103df578063ab292f9b146103e7578063ae9d70b01461041d578063bd6d894d14610425578063cd5c6f571461042d578063d40e8f4a14610435578063db006a7514610474578063e6136ab614610491578063e68fc0ee146104b7578063e9cbd822146104dd578063f2fde38b146104e5578063f8f9da281461050b575b600080fd5b6101d9600480360360208110156101d257600080fd5b5035610513565b005b6101e3610955565b604080516001600160a01b039092168252519081900360200190f35b610207610964565b60408051918252519081900360200190f35b6102076004803603602081101561022f57600080fd5b50356001600160a01b031661096a565b610207610985565b6101d96004803603604081101561025d57600080fd5b50803590602001356001600160a01b031661098b565b6102996004803603602081101561028957600080fd5b50356001600160a01b0316610b21565b604080519115158252519081900360200190f35b610207600480360360208110156102c357600080fd5b50356001600160a01b0316610b36565b610207610b48565b610207610b58565b6101e3610b5e565b6101e3610b6d565b6101d96004803603602081101561030957600080fd5b5035610b7c565b6101e3610d0c565b610207610d1b565b610207610d21565b6101d9610d27565b610207610db7565b6102076004803603602081101561034e57600080fd5b50356001600160a01b0316610dc8565b6101e3610e6b565b6102076004803603602081101561037c57600080fd5b50356001600160a01b0316610e7a565b610207610f30565b610207600480360360208110156103aa57600080fd5b5035610f36565b6101d9610f67565b6101e3600480360360208110156103cf57600080fd5b50356001600160a01b03166111d9565b6102076111f4565b6101d9600480360360608110156103fd57600080fd5b506001600160a01b038135811691602081013590911690604001356111fa565b6102076112d3565b610207611372565b6102076114c3565b61045b6004803603602081101561044b57600080fd5b50356001600160a01b0316611508565b6040805192835260208301919091528051918290030190f35b6101d96004803603602081101561048a57600080fd5b5035611521565b610207600480360360208110156104a757600080fd5b50356001600160a01b0316611a28565b610207600480360360208110156104cd57600080fd5b50356001600160a01b0316611b62565b6101e3611b74565b6101d9600480360360208110156104fb57600080fd5b50356001600160a01b0316611b83565b610207611c69565b61051b612298565b6105243361096a565b606082018190528211156105695760405162461bcd60e51b815260040180806020018281038252602c81526020018061237b602c913960400191505060405180910390fd5b336000818152600e60208181526040808420805460e0880152949093525260019091015490820152816105a557606081015160208201526105ad565b602081018290525b602080820151600a54604080516370a0823160e01b8152336004820152905192936001600160a01b03909216926370a0823192602480840193919291829003018186803b1580156105fd57600080fd5b505afa158015610611573d6000803e3d6000fd5b505050506040513d602081101561062757600080fd5b5051101561067c576040805162461bcd60e51b815260206004820152601e60248201527f4e6f7420656e6f75676820737461626c65636f696e20746f2072657061790000604482015290519081900360640190fd5b600a54602080830151604080516323b872dd60e01b81523360048201523060248201526044810192909252516001600160a01b03909316926323b872dd926064808401939192918290030181600087803b1580156106d957600080fd5b505af11580156106ed573d6000803e3d6000fd5b505050506040513d602081101561070357600080fd5b5050606081015160208201516107199190611ccd565b608083018190528282600381111561072d57fe5b600381111561073857fe5b815250505061074d6005548260200151611ccd565b60a083018190528282600381111561076157fe5b600381111561076c57fe5b90525050336000908152600e602052604090205482116107ad576080810151336000908152600e602052604090819020918255820151600190910155610816565b336000908152600e602052604090205460808201516107d19163ffffffff611cf316565b6101008201908152336000908152600e6020526040812090815590516001909101546108029163ffffffff611cf316565b336000908152600e60205260409020600101555b60a0810151600555336000908152600e60205260409020600181015490546108439163ffffffff611d3e16565b60c082015261010081015160009061085a90610f36565b9050600061086e848363ffffffff611cf316565b600a546009546040805163a9059cbb60e01b81526001600160a01b03928316600482015260248101879052905193945091169163a9059cbb916044808201926020929091908290030181600087803b1580156108c957600080fd5b505af11580156108dd573d6000803e3d6000fd5b505050506040513d60208110156108f357600080fd5b5050336000818152600e602090815260409182902080546001909101548351948552918401859052838301526060830152517f0bc102cfc64751888477c44e529873a602bf746175b1e41c6b54e45f926f90f99181900360800190a150505050565b600c546001600160a01b031681565b60025481565b6000610974610f67565b61097d82610dc8565b90505b919050565b60085481565b600c546001600160a01b031633146109a257600080fd5b6109aa6122e5565b826109b3611d96565b11610a01576040805162461bcd60e51b8152602060048201526019602482015278139bdd08195b9bdd59da081d1bdad95b9cc81d1bc81b195b99603a1b604482015290519081900360640190fd5b610a0a82610dc8565b60208201819052610a1b9084611de1565b6040830181905282826003811115610a2f57fe5b6003811115610a3a57fe5b8152505050610a4b60055484611de1565b6060830181905282826003811115610a5f57fe5b6003811115610a6a57fe5b905250506040808201516001600160a01b038085166000818152600e6020908152858220948555600480546001909601959095556060870151600555600a54865163a9059cbb60e01b815295860193909352602485018990529451919092169363a9059cbb93604480820194929392918390030190829087803b158015610af057600080fd5b505af1158015610b04573d6000803e3d6000fd5b505050506040513d6020811015610b1a57600080fd5b5050505050565b60126020526000908152604090205460ff1681565b60106020526000908152604090205481565b6000610b52611d96565b90505b90565b60055481565b600d546001600160a01b031681565b600b546001600160a01b031681565b610b8461230e565b610b8c611372565b602080830191825260408051918201905290518152610bac908390611e07565b6040830181905282826003811115610bc057fe5b6003811115610bcb57fe5b90525050600a54604080516323b872dd60e01b81523360048201523060248201526044810185905290516001600160a01b03909216916323b872dd916064808201926020929091908290030181600087803b158015610c2957600080fd5b505af1158015610c3d573d6000803e3d6000fd5b505050506040513d6020811015610c5357600080fd5b5050336000818152600f6020526040808220805486019055600b548482015182516340c10f1960e01b81526004810195909552602485015290516001600160a01b03909116926340c10f1992604480830193919282900301818387803b158015610cbc57600080fd5b505af1158015610cd0573d6000803e3d6000fd5b5050506040808301518151338152602081018690528083019190915290516000805160206123a783398151915292509081900360600190a15050565b6009546001600160a01b031681565b60035481565b60075481565b610d2f611e5a565b6000546001600160a01b03908116911614610d7f576040805162461bcd60e51b8152602060048201819052602482015260008051602061240e833981519152604482015290519081900360640190fd5b600080546040516001600160a01b039091169060008051602061242e833981519152908390a3600080546001600160a01b0319169055565b6000610dc1610f67565b5060055490565b6001600160a01b0381166000908152600e60205260408120805482918291829190610dfa576000945050505050610980565b610e0a8160000154600454611e5e565b90945092506000846003811115610e1d57fe5b14610e2f576000945050505050610980565b610e3d838260010154611e9d565b90945091506000846003811115610e5057fe5b14610e62576000945050505050610980565b50949350505050565b6000546001600160a01b031690565b600080610e856114c3565b600b54604080516370a0823160e01b81526001600160a01b038781166004830152915193945060009391909216916370a08231916024808301926020929190829003018186803b158015610ed857600080fd5b505afa158015610eec573d6000803e3d6000fd5b505050506040513d6020811015610f0257600080fd5b505160408051602081019091528381529091506000908190610f249084611ec8565b50929695505050505050565b60065481565b600080610f60600854610f5460075486611edf90919063ffffffff16565b9063ffffffff611f3816565b9392505050565b6000610f71611f77565b60035490915080821415610fcc576040805162461bcd60e51b815260206004820152601f60248201527f547279696e6720746f2061636372756520696e74657265737420747769636500604482015290519081900360640190fd5b6000610fd6611d96565b60055460065460048054600d54604080516315f2405360e01b81529384018790526024840186905260448401859052519596509394929390926000926001600160a01b03909216916315f24053916064808301926020929190829003018186803b15801561104357600080fd5b505afa158015611057573d6000803e3d6000fd5b505050506040513d602081101561106d57600080fd5b5051905065048c273950008111156110c9576040805162461bcd60e51b815260206004820152601a6024820152792137b93937bb902930ba329036b0b73a34b9b9b09032b93937b960311b604482015290519081900360640190fd5b6000806110d68989611ccd565b915091506110e2612330565b60008060008061110060405180602001604052808a81525087611f7b565b909750945061110f858c611ec8565b909750935061111e848c611de1565b60408051602081019091526002548152919850935061113e90858c611fe3565b909750915061114e858a80611fe3565b80925081985050508d6003819055508060048190555082600581905550816006819055507fe3972ae250606e82c6683843383cb8a51755588d2f443af42e8cb5b1e085392d6003546004546005546006546040518085815260200184815260200183815260200182815260200194505050505060405180910390a15050505050505050505050505050565b6011602052600090815260409020546001600160a01b031681565b60045481565b600c546001600160a01b0316331461121157600080fd5b600a54604080516323b872dd60e01b81526001600160a01b03858116600483015230602483015260448201859052915191909216916323b872dd9160648083019260209291908290030181600087803b15801561126d57600080fd5b505af1158015611281573d6000803e3d6000fd5b505050506040513d602081101561129757600080fd5b50506001600160a01b0383166000908152600e60205260408120818155600101556005546112cb908263ffffffff611cf316565b600555505050565b600d546000906001600160a01b031663b81688166112ef611d96565b6005546006546002546040518563ffffffff1660e01b81526004018085815260200184815260200183815260200182815260200194505050505060206040518083038186803b15801561134157600080fd5b505afa158015611355573d6000803e3d6000fd5b505050506040513d602081101561136b57600080fd5b5051905090565b600061137c610f67565b600b60009054906101000a90046001600160a01b03166001600160a01b03166318160ddd6040518163ffffffff1660e01b815260040160206040518083038186803b1580156113ca57600080fd5b505afa1580156113de573d6000803e3d6000fd5b505050506040513d60208110156113f457600080fd5b50516114035750600154610b55565b600061140d611d96565b90506000611419612330565b600061142a8460055460065461203f565b80945081925050506114b583600b60009054906101000a90046001600160a01b03166001600160a01b03166318160ddd6040518163ffffffff1660e01b815260040160206040518083038186803b15801561148457600080fd5b505afa158015611498573d6000803e3d6000fd5b505050506040513d60208110156114ae57600080fd5b505161207d565b519550610b55945050505050565b600b54604080516318160ddd60e01b815290516000926001600160a01b0316916318160ddd916004808301926020929190829003018186803b1580156113ca57600080fd5b600e602052600090815260409020805460019091015482565b611529612343565b600b54604080516370a0823160e01b815233600482015290516001600160a01b03909216916370a0823191602480820192602092909190829003018186803b15801561157457600080fd5b505afa158015611588573d6000803e3d6000fd5b505050506040513d602081101561159e57600080fd5b505160808201526115ad611372565b6020808301918252604080519182019052905181526115cd908390611e07565b60408301819052828260038111156115e157fe5b60038111156115ec57fe5b90525050600a54604080516370a0823160e01b8152306004820152905184926001600160a01b0316916370a08231916024808301926020929190829003018186803b15801561163a57600080fd5b505afa15801561164e573d6000803e3d6000fd5b505050506040513d602081101561166457600080fd5b505110156116b9576040805162461bcd60e51b815260206004820152601f60248201527f4e6f7420656e6f75676820737461626c65636f696e20696e207661756c742e00604482015290519081900360640190fd5b6116d9604051806020016040528083602001518152508260600151611ec8565b60808301819052828260038111156116ed57fe5b60038111156116f857fe5b90525050336000908152600f60205260408120546080830151111561173e57336000908152600f6020526040902054608083015161173b9163ffffffff611cf316565b90505b61174e838263ffffffff611cf316565b60a0830152808310611823573360009081526010602052604090205461177a908263ffffffff611d3e16565b33600090815260106020908152604080832093909355600f9052205460a083015111156117ea576040805162461bcd60e51b815260206004820152601960248201527822b93937b91031b0b631bab630ba34b733903932bbb0b9321760391b604482015290519081900360640190fd5b60a0820151336000908152600f602052604090205461180e9163ffffffff611cf316565b336000908152600f6020526040902055611854565b33600090815260106020526040902054611843908463ffffffff611d3e16565b336000908152601060205260409020555b60006118638360a00151610f36565b90506000611877858363ffffffff611cf316565b600a546009546040805163a9059cbb60e01b81526001600160a01b03928316600482015260248101879052905193945091169163a9059cbb916044808201926020929091908290030181600087803b1580156118d257600080fd5b505af11580156118e6573d6000803e3d6000fd5b505050506040513d60208110156118fc57600080fd5b5050600b546040808601518151632770a7eb60e21b8152336004820152602481019190915290516001600160a01b0390921691639dc29fac9160448082019260009290919082900301818387803b15801561195657600080fd5b505af115801561196a573d6000803e3d6000fd5b5050600a546040805163a9059cbb60e01b81523360048201526024810186905290516001600160a01b03909216935063a9059cbb92506044808201926020929091908290030181600087803b1580156119c257600080fd5b505af11580156119d6573d6000803e3d6000fd5b505050506040513d60208110156119ec57600080fd5b50506040808501518151338152602081018490528083019190915290516000805160206123a78339815191529181900360600190a15050505050565b600080611a336114c3565b600b54604080516370a0823160e01b81526001600160a01b038781166004830152915193945060009391909216916370a08231916024808301926020929190829003018186803b158015611a8657600080fd5b505afa158015611a9a573d6000803e3d6000fd5b505050506040513d6020811015611ab057600080fd5b50516001600160a01b0385166000908152600f602052604090205490915081611af557505050506001600160a01b038116600090815260106020526040902054610980565b600080611b1060405180602001604052808781525085611ec8565b90925090506000611b27828563ffffffff611cf316565b6001600160a01b03891660009081526010602052604081205491925090611b5590839063ffffffff611d3e16565b9998505050505050505050565b600f6020526000908152604090205481565b600a546001600160a01b031681565b611b8b611e5a565b6000546001600160a01b03908116911614611bdb576040805162461bcd60e51b8152602060048201819052602482015260008051602061240e833981519152604482015290519081900360640190fd5b6001600160a01b038116611c205760405162461bcd60e51b81526004018080602001828103825260268152602001806123c76026913960400191505060405180910390fd5b600080546040516001600160a01b038085169392169160008051602061242e83398151915291a3600080546001600160a01b0319166001600160a01b0392909216919091179055565b600d546000906001600160a01b03166315f24053611c85611d96565b6005546006546040518463ffffffff1660e01b815260040180848152602001838152602001828152602001935050505060206040518083038186803b15801561134157600080fd5b600080838311611ce4575060009050818303611cec565b506003905060005b9250929050565b6000611d3583836040518060400160405280601e81526020017f536166654d6174683a207375627472616374696f6e206f766572666c6f77000081525061212e565b90505b92915050565b600082820183811015611d35576040805162461bcd60e51b815260206004820152601b60248201527a536166654d6174683a206164646974696f6e206f766572666c6f7760281b604482015290519081900360640190fd5b600a54604080516370a0823160e01b815230600482015290516000926001600160a01b0316916370a08231916024808301926020929190829003018186803b15801561134157600080fd5b600080838301848110611df957600092509050611cec565b506002915060009050611cec565b6000806000611e14612330565b611e1e86866121c5565b90925090506000826003811115611e3157fe5b14611e425750915060009050611cec565b6000611e4d82612224565b9350935050509250929050565b3390565b60008083611e7157506000905080611cec565b83830283858281611e7e57fe5b0414611e9257506002915060009050611cec565b600092509050611cec565b60008082611eb15750600190506000611cec565b6000838581611ebc57fe5b04915091509250929050565b6000806000611ed5612330565b611e1e8686611f7b565b600082611eee57506000611d38565b82820282848281611efb57fe5b0414611d355760405162461bcd60e51b81526004018080602001828103825260218152602001806123ed6021913960400191505060405180910390fd5b6000611d3583836040518060400160405280601a815260200179536166654d6174683a206469766973696f6e206279207a65726f60301b815250612233565b4390565b6000611f85612330565b600080611f96866000015186611e5e565b90925090506000826003811115611fa957fe5b14611fc857506040805160208101909152600081529092509050611cec565b60408051602081019091529081526000969095509350505050565b6000806000611ff0612330565b611ffa8787611f7b565b9092509050600082600381111561200d57fe5b1461201e5750915060009050612037565b61203061202a82612224565b86611de1565b9350935050505b935093915050565b60008060008061204f8787611de1565b9092509050600082600381111561206257fe5b146120735750915060009050612037565b6120308186611ccd565b6000612087612330565b60008061209c86670de0b6b3a7640000611e5e565b909250905060008260038111156120af57fe5b146120ce57506040805160208101909152600081529092509050611cec565b6000806120db8388611e9d565b909250905060008260038111156120ee57fe5b146121115781604051806020016040528060008152509550955050505050611cec565b604080516020810190915290815260009890975095505050505050565b600081848411156121bd5760405162461bcd60e51b81526004018080602001828103825283818151815260200191508051906020019080838360005b8381101561218257818101518382015260200161216a565b50505050905090810190601f1680156121af5780820380516001836020036101000a031916815260200191505b509250505060405180910390fd5b505050900390565b60006121cf612330565b6000806121e4670de0b6b3a764000087611e5e565b909250905060008260038111156121f757fe5b1461221657506040805160208101909152600081529092509050611cec565b611e4d81866000015161207d565b51670de0b6b3a7640000900490565b600081836122825760405162461bcd60e51b815260206004820181815283516024840152835190928392604490910191908501908083836000831561218257818101518382015260200161216a565b50600083858161228e57fe5b0495945050505050565b604080516101208101909152806000815260200160008152602001600081526020016000815260200160008152602001600081526020016000815260200160008152602001600081525090565b604080516080810190915280600081526020016000815260200160008152602001600081525090565b6040805160608101909152806000815260200160008152602001600081525090565b6040518060200160405280600081525090565b6040805160c0810190915280600081526020016000815260200160008152602001600081526020016000815260200160008152509056fe596f752061726520747279696e6720746f20706179206261636b206d6f7265207468616e20796f75206f7765ac45f50416433593e7c9a1f3e0d5f887c530c22d776e1057ecaacb750d24b9404f776e61626c653a206e6577206f776e657220697320746865207a65726f2061646472657373536166654d6174683a206d756c7469706c69636174696f6e206f766572666c6f774f776e61626c653a2063616c6c6572206973206e6f7420746865206f776e65728be0079c531659141344cd1fd0a4f28419497f9722a3daafe3b4186f6b6457e0a264697066735822122051516de9423a11cf907da3a0f518d4a30b6df538d8189a087ccb5340929a0ea864736f6c6343000606003360806040523480156200001157600080fd5b506040516200135538038062001355833981810160405260608110156200003757600080fd5b8151602083018051604051929492938301929190846401000000008211156200005f57600080fd5b9083019060208201858111156200007557600080fd5b82516401000000008111828201881017156200009057600080fd5b82525081516020918201929091019080838360005b83811015620000bf578181015183820152602001620000a5565b50505050905090810190601f168015620000ed5780820380516001836020036101000a031916815260200191505b50604052602001805160405193929190846401000000008211156200011157600080fd5b9083019060208201858111156200012757600080fd5b82516401000000008111828201881017156200014257600080fd5b82525081516020918201929091019080838360005b838110156200017157818101518382015260200162000157565b50505050905090810190601f1680156200019f5780820380516001836020036101000a031916815260200191505b5060405250505080826000620001ba6200026c60201b60201c565b600080546001600160a01b0319166001600160a01b0383169081178255604051929350917f8be0079c531659141344cd1fd0a4f28419497f9722a3daafe3b4186f6b6457e0908290a35081516200021990600490602085019062000271565b5080516200022f90600590602084019062000271565b5050600680546001600160a01b0390951661010002610100600160a81b031960ff1990961660121795909516949094179093555062000313915050565b335b90565b828054600181600116156101000203166002900490600052602060002090601f016020900481019282601f10620002b457805160ff1916838001178555620002e4565b82800160010185558215620002e4579182015b82811115620002e4578251825591602001919060010190620002c7565b50620002f2929150620002f6565b5090565b6200026e91905b80821115620002f25760008155600101620002fd565b61103280620003236000396000f3fe608060405234801561001057600080fd5b50600436106100db5760003560e01c806306fdde03146100e0578063095ea7b31461015d57806318160ddd1461019d57806323b872dd146101b7578063313ce567146101ed578063395093511461020b57806340c10f191461023757806370a0823114610265578063715018a61461028b5780638da5cb5b1461029357806395d89b41146102b75780639dc29fac146102bf578063a457c2d7146102eb578063a9059cbb14610317578063dd62ed3e14610343578063e9cbd82214610371578063f2fde38b14610379575b600080fd5b6100e861039f565b6040805160208082528351818301528351919283929083019185019080838360005b8381101561012257818101518382015260200161010a565b50505050905090810190601f16801561014f5780820380516001836020036101000a031916815260200191505b509250505060405180910390f35b6101896004803603604081101561017357600080fd5b506001600160a01b038135169060200135610435565b604080519115158252519081900360200190f35b6101a5610452565b60408051918252519081900360200190f35b610189600480360360608110156101cd57600080fd5b506001600160a01b03813581169160208101359091169060400135610458565b6101f56104e5565b6040805160ff9092168252519081900360200190f35b6101896004803603604081101561022157600080fd5b506001600160a01b0381351690602001356104ee565b6102636004803603604081101561024d57600080fd5b506001600160a01b038135169060200135610542565b005b6101a56004803603602081101561027b57600080fd5b50356001600160a01b03166105a8565b6102636105c3565b61029b610653565b604080516001600160a01b039092168252519081900360200190f35b6100e8610662565b610263600480360360408110156102d557600080fd5b506001600160a01b0381351690602001356106c3565b6101896004803603604081101561030157600080fd5b506001600160a01b038135169060200135610725565b6101896004803603604081101561032d57600080fd5b506001600160a01b038135169060200135610793565b6101a56004803603604081101561035957600080fd5b506001600160a01b03813581169160200135166107a7565b61029b6107d2565b6102636004803603602081101561038f57600080fd5b50356001600160a01b03166107e6565b60048054604080516020601f600260001961010060018816150201909516949094049384018190048102820181019092528281526060939092909183018282801561042b5780601f106104005761010080835404028352916020019161042b565b820191906000526020600020905b81548152906001019060200180831161040e57829003601f168201915b5050505050905090565b60006104496104426108cc565b84846108d0565b50600192915050565b60035490565b60006104658484846109bc565b6104db846104716108cc565b6104d685604051806060016040528060288152602001610ee6602891396001600160a01b038a166000908152600260205260408120906104af6108cc565b6001600160a01b03168152602081019190915260400160002054919063ffffffff610b1316565b6108d0565b5060019392505050565b60065460ff1690565b60006104496104fb6108cc565b846104d6856002600061050c6108cc565b6001600160a01b03908116825260208083019390935260409182016000908120918c16815292529020549063ffffffff610baa16565b61054a6108cc565b6000546001600160a01b0390811691161461059a576040805162461bcd60e51b81526020600482018190526024820152600080516020610f0e833981519152604482015290519081900360640190fd5b6105a48282610c09565b5050565b6001600160a01b031660009081526001602052604090205490565b6105cb6108cc565b6000546001600160a01b0390811691161461061b576040805162461bcd60e51b81526020600482018190526024820152600080516020610f0e833981519152604482015290519081900360640190fd5b600080546040516001600160a01b0390911690600080516020610f2e833981519152908390a3600080546001600160a01b0319169055565b6000546001600160a01b031690565b60058054604080516020601f600260001961010060018816150201909516949094049384018190048102820181019092528281526060939092909183018282801561042b5780601f106104005761010080835404028352916020019161042b565b6106cb6108cc565b6000546001600160a01b0390811691161461071b576040805162461bcd60e51b81526020600482018190526024820152600080516020610f0e833981519152604482015290519081900360640190fd5b6105a48282610cf5565b60006104496107326108cc565b846104d685604051806060016040528060258152602001610fd8602591396002600061075c6108cc565b6001600160a01b03908116825260208083019390935260409182016000908120918d1681529252902054919063ffffffff610b1316565b60006104496107a06108cc565b84846109bc565b6001600160a01b03918216600090815260026020908152604080832093909416825291909152205490565b60065461010090046001600160a01b031681565b6107ee6108cc565b6000546001600160a01b0390811691161461083e576040805162461bcd60e51b81526020600482018190526024820152600080516020610f0e833981519152604482015290519081900360640190fd5b6001600160a01b0381166108835760405162461bcd60e51b8152600401808060200182810382526026815260200180610e786026913960400191505060405180910390fd5b600080546040516001600160a01b0380851693921691600080516020610f2e83398151915291a3600080546001600160a01b0319166001600160a01b0392909216919091179055565b3390565b6001600160a01b0383166109155760405162461bcd60e51b8152600401808060200182810382526024815260200180610fb46024913960400191505060405180910390fd5b6001600160a01b03821661095a5760405162461bcd60e51b8152600401808060200182810382526022815260200180610e9e6022913960400191505060405180910390fd5b6001600160a01b03808416600081815260026020908152604080832094871680845294825291829020859055815185815291517f8c5be1e5ebec7d5bd14f71427d1e84f3dd0314c0f7b2291e5b200ac8c7c3b9259281900390910190a3505050565b6001600160a01b038316610a015760405162461bcd60e51b8152600401808060200182810382526025815260200180610f8f6025913960400191505060405180910390fd5b6001600160a01b038216610a465760405162461bcd60e51b8152600401808060200182810382526023815260200180610e336023913960400191505060405180910390fd5b610a51838383610deb565b610a9481604051806060016040528060268152602001610ec0602691396001600160a01b038616600090815260016020526040902054919063ffffffff610b1316565b6001600160a01b038085166000908152600160205260408082209390935590841681522054610ac9908263ffffffff610baa16565b6001600160a01b038084166000818152600160209081526040918290209490945580518581529051919392871692600080516020610f4e83398151915292918290030190a3505050565b60008184841115610ba25760405162461bcd60e51b81526004018080602001828103825283818151815260200191508051906020019080838360005b83811015610b67578181015183820152602001610b4f565b50505050905090810190601f168015610b945780820380516001836020036101000a031916815260200191505b509250505060405180910390fd5b505050900390565b600082820183811015610c02576040805162461bcd60e51b815260206004820152601b60248201527a536166654d6174683a206164646974696f6e206f766572666c6f7760281b604482015290519081900360640190fd5b9392505050565b6001600160a01b038216610c64576040805162461bcd60e51b815260206004820152601f60248201527f45524332303a206d696e7420746f20746865207a65726f206164647265737300604482015290519081900360640190fd5b610c7060008383610deb565b600354610c83908263ffffffff610baa16565b6003556001600160a01b038216600090815260016020526040902054610caf908263ffffffff610baa16565b6001600160a01b0383166000818152600160209081526040808320949094558351858152935192939192600080516020610f4e8339815191529281900390910190a35050565b6001600160a01b038216610d3a5760405162461bcd60e51b8152600401808060200182810382526021815260200180610f6e6021913960400191505060405180910390fd5b610d4682600083610deb565b610d8981604051806060016040528060228152602001610e56602291396001600160a01b038516600090815260016020526040902054919063ffffffff610b1316565b6001600160a01b038316600090815260016020526040902055600354610db5908263ffffffff610df016565b6003556040805182815290516000916001600160a01b03851691600080516020610f4e8339815191529181900360200190a35050565b505050565b6000610c0283836040518060400160405280601e81526020017f536166654d6174683a207375627472616374696f6e206f766572666c6f770000815250610b1356fe45524332303a207472616e7366657220746f20746865207a65726f206164647265737345524332303a206275726e20616d6f756e7420657863656564732062616c616e63654f776e61626c653a206e6577206f776e657220697320746865207a65726f206164647265737345524332303a20617070726f766520746f20746865207a65726f206164647265737345524332303a207472616e7366657220616d6f756e7420657863656564732062616c616e636545524332303a207472616e7366657220616d6f756e74206578636565647320616c6c6f77616e63654f776e61626c653a2063616c6c6572206973206e6f7420746865206f776e65728be0079c531659141344cd1fd0a4f28419497f9722a3daafe3b4186f6b6457e0ddf252ad1be2c89b69c2b068fc378daa952ba7f163c4a11628f55a4df523b3ef45524332303a206275726e2066726f6d20746865207a65726f206164647265737345524332303a207472616e736665722066726f6d20746865207a65726f206164647265737345524332303a20617070726f76652066726f6d20746865207a65726f206164647265737345524332303a2064656372656173656420616c6c6f77616e63652062656c6f77207a65726fa2646970667358221220398ad53e61f7765a945daf044a6f2bf27aa287cabed0102adfa9ab3dc209c21964736f6c634300060600334f776e61626c653a206e6577206f776e657220697320746865207a65726f20616464726573734f776e61626c653a2063616c6c6572206973206e6f7420746865206f776e65728be0079c531659141344cd1fd0a4f28419497f9722a3daafe3b4186f6b6457e0a2646970667358221220bfcd74c058716e4ecbb9339fac24c18e3b24bda6aae913ed3518c8614193a55f64736f6c63430006060033",
  "immutableReferences": {},
  "source": "pragma solidity ^0.6.0;\n\nimport \"./WarpVaultSC.sol\";\nimport \"@openzeppelin/contracts/access/Ownable.sol\";\n\n////////////////////////////////////////////////////////////////////////////////////////////\n/// @title WarpVaultLPFactory\n/// @author Christopher Dixon\n////////////////////////////////////////////////////////////////////////////////////////////\n/**\nThe WarpVaultSCFactory contract is designed to produce individual WarpVaultLP contracts\nThis contract uses the OpenZeppelin contract Library to inherit functions from\n  Ownable.sol\n**/\n\ncontract WarpVaultSCFactory is Ownable {\n    /**\n@notice createNewWarpVaultSC is used to create new WarpVaultSC contract instances\n@param _InterestRate is the address of the InterestRateModel contract created for this Warp Vault\n@param _StableCoin is the address of the stablecoin contract this WarpVault will manage\n@param _warpTeam is the address of the Warp Team used for fees\n@param _initialExchangeRate is the exchange rate mantissa used to determine the initial exchange rate of stablecoin to warp stablecoin\n  **/\n    function createNewWarpVaultSC(\n        address _InterestRate,\n        address _StableCoin,\n        address _warpTeam,\n        uint256 _initialExchangeRate\n    ) public onlyOwner returns (address) {\n        address _WVSC = address(\n            new WarpVaultSC(\n                _InterestRate,\n                _StableCoin,\n                msg.sender,\n                _warpTeam,\n                _initialExchangeRate\n            )\n        );\n\n        return _WVSC;\n    }\n}\n",
  "sourcePath": "/home/stan36/repos/Warp/Smart-Contracts/contracts/WarpVaultSCFactory.sol",
  "compiler": {
    "name": "solc",
    "version": "0.6.6+commit.6c089d02.Emscripten.clang"
  },
  "schemaVersion": "3.2.4",
  "updatedAt": "2020-11-10T22:32:35.788Z",
  "devdoc": {
    "methods": {
      "createNewWarpVaultSC(address,address,address,uint256)": {
        "params": {
          "_InterestRate": "is the address of the InterestRateModel contract created for this Warp Vault",
          "_StableCoin": "is the address of the stablecoin contract this WarpVault will manage",
          "_initialExchangeRate": "is the exchange rate mantissa used to determine the initial exchange rate of stablecoin to warp stablecoin*",
          "_warpTeam": "is the address of the Warp Team used for fees"
        }
      },
      "owner()": {
        "details": "Returns the address of the current owner."
      },
      "renounceOwnership()": {
        "details": "Leaves the contract without owner. It will not be possible to call `onlyOwner` functions anymore. Can only be called by the current owner.     * NOTE: Renouncing ownership will leave the contract without an owner, thereby removing any functionality that is only available to the owner."
      },
      "transferOwnership(address)": {
        "details": "Transfers ownership of the contract to a new account (`newOwner`). Can only be called by the current owner."
      }
    }
  },
  "userdoc": {
    "methods": {
      "createNewWarpVaultSC(address,address,address,uint256)": {
        "notice": "createNewWarpVaultSC is used to create new WarpVaultSC contract instances"
      }
    },
    "notice": "The WarpVaultSCFactory contract is designed to produce individual WarpVaultLP contracts This contract uses the OpenZeppelin contract Library to inherit functions from Ownable.sol*"
  }
}