{
  "contractName": "WarpControl",
  "abi": [
    {
      "inputs": [
        {
          "internalType": "address",
          "name": "_oracle",
          "type": "address"
        },
        {
          "internalType": "address",
          "name": "_WVLPF",
          "type": "address"
        },
        {
          "internalType": "address",
          "name": "_WVSCF",
          "type": "address"
        },
        {
          "internalType": "address",
          "name": "_warpTeam",
          "type": "address"
        }
      ],
      "stateMutability": "nonpayable",
      "type": "constructor"
    },
    {
      "anonymous": false,
      "inputs": [
        {
          "indexed": false,
          "internalType": "address",
          "name": "_vault",
          "type": "address"
        }
      ],
      "name": "ImportedLPVault",
      "type": "event"
    },
    {
      "anonymous": false,
      "inputs": [
        {
          "indexed": false,
          "internalType": "address",
          "name": "_vault",
          "type": "address"
        }
      ],
      "name": "ImportedSCVault",
      "type": "event"
    },
    {
      "anonymous": false,
      "inputs": [
        {
          "indexed": false,
          "internalType": "address",
          "name": "_account",
          "type": "address"
        },
        {
          "indexed": false,
          "internalType": "address",
          "name": "liquidator",
          "type": "address"
        }
      ],
      "name": "Liquidation",
      "type": "event"
    },
    {
      "anonymous": false,
      "inputs": [
        {
          "indexed": false,
          "internalType": "address",
          "name": "_borrower",
          "type": "address"
        },
        {
          "indexed": false,
          "internalType": "address",
          "name": "_StableCoin",
          "type": "address"
        },
        {
          "indexed": false,
          "internalType": "uint256",
          "name": "_amountBorrowed",
          "type": "uint256"
        }
      ],
      "name": "NewBorrow",
      "type": "event"
    },
    {
      "anonymous": false,
      "inputs": [
        {
          "indexed": false,
          "internalType": "address",
          "name": "_newVault",
          "type": "address"
        }
      ],
      "name": "NewLPVault",
      "type": "event"
    },
    {
      "anonymous": false,
      "inputs": [
        {
          "indexed": false,
          "internalType": "address",
          "name": "_newVault",
          "type": "address"
        },
        {
          "indexed": false,
          "internalType": "address",
          "name": "_interestRateModel",
          "type": "address"
        }
      ],
      "name": "NewSCVault",
      "type": "event"
    },
    {
      "anonymous": false,
      "inputs": [
        {
          "indexed": true,
          "internalType": "address",
          "name": "previousOwner",
          "type": "address"
        },
        {
          "indexed": true,
          "internalType": "address",
          "name": "newOwner",
          "type": "address"
        }
      ],
      "name": "OwnershipTransferred",
      "type": "event"
    },
    {
      "inputs": [],
      "name": "Oracle",
      "outputs": [
        {
          "internalType": "contract UniswapLPOracleFactoryI",
          "name": "",
          "type": "address"
        }
      ],
      "stateMutability": "view",
      "type": "function"
    },
    {
      "inputs": [],
      "name": "WVLPF",
      "outputs": [
        {
          "internalType": "contract WarpVaultLPFactoryI",
          "name": "",
          "type": "address"
        }
      ],
      "stateMutability": "view",
      "type": "function"
    },
    {
      "inputs": [],
      "name": "WVSCF",
      "outputs": [
        {
          "internalType": "contract WarpVaultSCFactoryI",
          "name": "",
          "type": "address"
        }
      ],
      "stateMutability": "view",
      "type": "function"
    },
    {
      "inputs": [
        {
          "internalType": "address",
          "name": "",
          "type": "address"
        }
      ],
      "name": "getAssetByVault",
      "outputs": [
        {
          "internalType": "address",
          "name": "",
          "type": "address"
        }
      ],
      "stateMutability": "view",
      "type": "function"
    },
    {
      "inputs": [],
      "name": "graceSpace",
      "outputs": [
        {
          "internalType": "uint256",
          "name": "",
          "type": "uint256"
        }
      ],
      "stateMutability": "view",
      "type": "function"
    },
    {
      "inputs": [
        {
          "internalType": "address",
          "name": "",
          "type": "address"
        }
      ],
      "name": "instanceLPTracker",
      "outputs": [
        {
          "internalType": "address",
          "name": "",
          "type": "address"
        }
      ],
      "stateMutability": "view",
      "type": "function"
    },
    {
      "inputs": [
        {
          "internalType": "address",
          "name": "",
          "type": "address"
        }
      ],
      "name": "instanceSCTracker",
      "outputs": [
        {
          "internalType": "address",
          "name": "",
          "type": "address"
        }
      ],
      "stateMutability": "view",
      "type": "function"
    },
    {
      "inputs": [
        {
          "internalType": "address",
          "name": "",
          "type": "address"
        }
      ],
      "name": "isVault",
      "outputs": [
        {
          "internalType": "bool",
          "name": "",
          "type": "bool"
        }
      ],
      "stateMutability": "view",
      "type": "function"
    },
    {
      "inputs": [
        {
          "internalType": "uint256",
          "name": "",
          "type": "uint256"
        }
      ],
      "name": "lpVaults",
      "outputs": [
        {
          "internalType": "address",
          "name": "",
          "type": "address"
        }
      ],
      "stateMutability": "view",
      "type": "function"
    },
    {
      "inputs": [],
      "name": "newWarpControl",
      "outputs": [
        {
          "internalType": "address",
          "name": "",
          "type": "address"
        }
      ],
      "stateMutability": "view",
      "type": "function"
    },
    {
      "inputs": [],
      "name": "owner",
      "outputs": [
        {
          "internalType": "address",
          "name": "",
          "type": "address"
        }
      ],
      "stateMutability": "view",
      "type": "function"
    },
    {
      "inputs": [],
      "name": "renounceOwnership",
      "outputs": [],
      "stateMutability": "nonpayable",
      "type": "function"
    },
    {
      "inputs": [
        {
          "internalType": "uint256",
          "name": "",
          "type": "uint256"
        }
      ],
      "name": "scVaults",
      "outputs": [
        {
          "internalType": "address",
          "name": "",
          "type": "address"
        }
      ],
      "stateMutability": "view",
      "type": "function"
    },
    {
      "inputs": [
        {
          "internalType": "address",
          "name": "newOwner",
          "type": "address"
        }
      ],
      "name": "transferOwnership",
      "outputs": [],
      "stateMutability": "nonpayable",
      "type": "function"
    },
    {
      "inputs": [],
      "name": "warpTeam",
      "outputs": [
        {
          "internalType": "address",
          "name": "",
          "type": "address"
        }
      ],
      "stateMutability": "view",
      "type": "function"
    },
    {
      "inputs": [],
      "name": "viewNumLPVaults",
      "outputs": [
        {
          "internalType": "uint256",
          "name": "",
          "type": "uint256"
        }
      ],
      "stateMutability": "view",
      "type": "function"
    },
    {
      "inputs": [],
      "name": "viewNumSCVaults",
      "outputs": [
        {
          "internalType": "uint256",
          "name": "",
          "type": "uint256"
        }
      ],
      "stateMutability": "view",
      "type": "function"
    },
    {
      "inputs": [
        {
          "internalType": "uint256",
          "name": "_timelock",
          "type": "uint256"
        },
        {
          "internalType": "address",
          "name": "_lp",
          "type": "address"
        },
        {
          "internalType": "address",
          "name": "_lpAsset1",
          "type": "address"
        },
        {
          "internalType": "address",
          "name": "_lpAsset2",
          "type": "address"
        },
        {
          "internalType": "string",
          "name": "_lpName",
          "type": "string"
        }
      ],
      "name": "createNewLPVault",
      "outputs": [],
      "stateMutability": "nonpayable",
      "type": "function"
    },
    {
      "inputs": [
        {
          "internalType": "address",
          "name": "_lpVault",
          "type": "address"
        }
      ],
      "name": "importLPVault",
      "outputs": [],
      "stateMutability": "nonpayable",
      "type": "function"
    },
    {
      "inputs": [
        {
          "internalType": "address",
          "name": "_token0",
          "type": "address"
        },
        {
          "internalType": "address",
          "name": "_token1",
          "type": "address"
        },
        {
          "internalType": "address",
          "name": "_lpToken",
          "type": "address"
        }
      ],
      "name": "manuallyCreateOracles",
      "outputs": [],
      "stateMutability": "nonpayable",
      "type": "function"
    },
    {
      "inputs": [
        {
          "internalType": "uint256",
          "name": "_timelock",
          "type": "uint256"
        },
        {
          "internalType": "uint256",
          "name": "_baseRatePerYear",
          "type": "uint256"
        },
        {
          "internalType": "uint256",
          "name": "_multiplierPerYear",
          "type": "uint256"
        },
        {
          "internalType": "uint256",
          "name": "_jumpMultiplierPerYear",
          "type": "uint256"
        },
        {
          "internalType": "uint256",
          "name": "_optimal",
          "type": "uint256"
        },
        {
          "internalType": "uint256",
          "name": "_initialExchangeRate",
          "type": "uint256"
        },
        {
          "internalType": "uint256",
          "name": "_reserveFactorMantissa",
          "type": "uint256"
        },
        {
          "internalType": "address",
          "name": "_StableCoin",
          "type": "address"
        }
      ],
      "name": "createNewSCVault",
      "outputs": [],
      "stateMutability": "nonpayable",
      "type": "function"
    },
    {
      "inputs": [
        {
          "internalType": "address",
          "name": "_scVault",
          "type": "address"
        }
      ],
      "name": "importSCVault",
      "outputs": [],
      "stateMutability": "nonpayable",
      "type": "function"
    },
    {
      "inputs": [
        {
          "internalType": "address",
          "name": "account",
          "type": "address"
        },
        {
          "internalType": "address",
          "name": "lpToken",
          "type": "address"
        }
      ],
      "name": "getMaxWithdrawAllowed",
      "outputs": [
        {
          "internalType": "uint256",
          "name": "",
          "type": "uint256"
        }
      ],
      "stateMutability": "nonpayable",
      "type": "function"
    },
    {
      "inputs": [
        {
          "internalType": "address",
          "name": "account",
          "type": "address"
        },
        {
          "internalType": "address",
          "name": "lpToken",
          "type": "address"
        }
      ],
      "name": "viewMaxWithdrawAllowed",
      "outputs": [
        {
          "internalType": "uint256",
          "name": "",
          "type": "uint256"
        }
      ],
      "stateMutability": "view",
      "type": "function"
    },
    {
      "inputs": [
        {
          "internalType": "address",
          "name": "_account",
          "type": "address"
        }
      ],
      "name": "getTotalAvailableCollateralValue",
      "outputs": [
        {
          "internalType": "uint256",
          "name": "",
          "type": "uint256"
        }
      ],
      "stateMutability": "nonpayable",
      "type": "function"
    },
    {
      "inputs": [
        {
          "internalType": "address",
          "name": "_account",
          "type": "address"
        }
      ],
      "name": "viewTotalAvailableCollateralValue",
      "outputs": [
        {
          "internalType": "uint256",
          "name": "",
          "type": "uint256"
        }
      ],
      "stateMutability": "view",
      "type": "function"
    },
    {
      "inputs": [
        {
          "internalType": "address",
          "name": "lpToken",
          "type": "address"
        }
      ],
      "name": "viewPriceOfCollateral",
      "outputs": [
        {
          "internalType": "uint256",
          "name": "",
          "type": "uint256"
        }
      ],
      "stateMutability": "view",
      "type": "function"
    },
    {
      "inputs": [
        {
          "internalType": "address",
          "name": "lpToken",
          "type": "address"
        }
      ],
      "name": "getPriceOfCollateral",
      "outputs": [
        {
          "internalType": "uint256",
          "name": "",
          "type": "uint256"
        }
      ],
      "stateMutability": "nonpayable",
      "type": "function"
    },
    {
      "inputs": [
        {
          "internalType": "address",
          "name": "token",
          "type": "address"
        },
        {
          "internalType": "uint256",
          "name": "amount",
          "type": "uint256"
        }
      ],
      "name": "viewPriceOfToken",
      "outputs": [
        {
          "internalType": "uint256",
          "name": "",
          "type": "uint256"
        }
      ],
      "stateMutability": "view",
      "type": "function"
    },
    {
      "inputs": [
        {
          "internalType": "address",
          "name": "token",
          "type": "address"
        },
        {
          "internalType": "uint256",
          "name": "amount",
          "type": "uint256"
        }
      ],
      "name": "getPriceOfToken",
      "outputs": [
        {
          "internalType": "uint256",
          "name": "",
          "type": "uint256"
        }
      ],
      "stateMutability": "nonpayable",
      "type": "function"
    },
    {
      "inputs": [
        {
          "internalType": "address",
          "name": "_account",
          "type": "address"
        }
      ],
      "name": "viewTotalLentValue",
      "outputs": [
        {
          "internalType": "uint256",
          "name": "",
          "type": "uint256"
        }
      ],
      "stateMutability": "view",
      "type": "function"
    },
    {
      "inputs": [
        {
          "internalType": "address",
          "name": "_account",
          "type": "address"
        }
      ],
      "name": "viewTotalBorrowedValue",
      "outputs": [
        {
          "internalType": "uint256",
          "name": "",
          "type": "uint256"
        }
      ],
      "stateMutability": "view",
      "type": "function"
    },
    {
      "inputs": [
        {
          "internalType": "address",
          "name": "_account",
          "type": "address"
        }
      ],
      "name": "getTotalBorrowedValue",
      "outputs": [
        {
          "internalType": "uint256",
          "name": "",
          "type": "uint256"
        }
      ],
      "stateMutability": "nonpayable",
      "type": "function"
    },
    {
      "inputs": [
        {
          "internalType": "uint256",
          "name": "_collateralValue",
          "type": "uint256"
        }
      ],
      "name": "calcBorrowLimit",
      "outputs": [
        {
          "internalType": "uint256",
          "name": "",
          "type": "uint256"
        }
      ],
      "stateMutability": "pure",
      "type": "function"
    },
    {
      "inputs": [
        {
          "internalType": "uint256",
          "name": "_borrowAmount",
          "type": "uint256"
        }
      ],
      "name": "calcCollateralRequired",
      "outputs": [
        {
          "internalType": "uint256",
          "name": "",
          "type": "uint256"
        }
      ],
      "stateMutability": "pure",
      "type": "function"
    },
    {
      "inputs": [
        {
          "internalType": "address",
          "name": "_account",
          "type": "address"
        }
      ],
      "name": "getBorrowLimit",
      "outputs": [
        {
          "internalType": "uint256",
          "name": "",
          "type": "uint256"
        }
      ],
      "stateMutability": "nonpayable",
      "type": "function"
    },
    {
      "inputs": [
        {
          "internalType": "address",
          "name": "_account",
          "type": "address"
        }
      ],
      "name": "viewBorrowLimit",
      "outputs": [
        {
          "internalType": "uint256",
          "name": "",
          "type": "uint256"
        }
      ],
      "stateMutability": "view",
      "type": "function"
    },
    {
      "inputs": [
        {
          "internalType": "address",
          "name": "_StableCoin",
          "type": "address"
        },
        {
          "internalType": "uint256",
          "name": "_amount",
          "type": "uint256"
        }
      ],
      "name": "borrowSC",
      "outputs": [],
      "stateMutability": "nonpayable",
      "type": "function"
    },
    {
      "inputs": [
        {
          "internalType": "address",
          "name": "_borrower",
          "type": "address"
        }
      ],
      "name": "liquidateAccount",
      "outputs": [],
      "stateMutability": "nonpayable",
      "type": "function"
    },
    {
      "inputs": [
        {
          "internalType": "address",
          "name": "_token",
          "type": "address"
        },
        {
          "internalType": "uint256",
          "name": "_baseRatePerYear",
          "type": "uint256"
        },
        {
          "internalType": "uint256",
          "name": "_multiplierPerYear",
          "type": "uint256"
        },
        {
          "internalType": "uint256",
          "name": "_jumpMultiplierPerYear",
          "type": "uint256"
        },
        {
          "internalType": "uint256",
          "name": "_optimal",
          "type": "uint256"
        }
      ],
      "name": "updateInterestRateModel",
      "outputs": [],
      "stateMutability": "nonpayable",
      "type": "function"
    },
    {
      "inputs": [
        {
          "internalType": "address",
          "name": "_newWarpControl",
          "type": "address"
        }
      ],
      "name": "startUpgradeTimer",
      "outputs": [],
      "stateMutability": "nonpayable",
      "type": "function"
    },
    {
      "inputs": [],
      "name": "upgradeWarp",
      "outputs": [],
      "stateMutability": "nonpayable",
      "type": "function"
    },
    {
      "inputs": [
        {
          "internalType": "address",
          "name": "_newWarp",
          "type": "address"
        }
      ],
      "name": "transferWarpTeam",
      "outputs": [],
      "stateMutability": "nonpayable",
      "type": "function"
    }
  ],
  "bytecode": "0x60806040523480156200001157600080fd5b50604051620039c8380380620039c8833981810160405260808110156200003757600080fd5b50805160208201516040830151606090930151919290916000620000636001600160e01b036200010116565b600080546001600160a01b0319166001600160a01b0383169081178255604051929350917f8be0079c531659141344cd1fd0a4f28419497f9722a3daafe3b4186f6b6457e0908290a350600180546001600160a01b039586166001600160a01b031991821617909155600280549486169482169490941790935560038054928516928416929092179091556004805491909316911617905562000105565b3390565b6138b380620001156000396000f3fe60806040523480156200001157600080fd5b5060043610620002a45760003560e01c806388236b5a1162000171578063cf23073811620000d5578063ed6072f61162000093578063ed6072f614620008c2578063efdebdf514620008e2578063f24a534e14620008ec578063f2fde38b14620008f6578063f3c7f987146200091f578063faa8f7c2146200095057620002a4565b8063cf230738146200075a578063da4f7fb2146200079b578063e1535d1214620007bb578063e50f4a3014620007c5578063ea3f847f146200089957620002a4565b8063ab5e2c99116200012f578063ab5e2c991462000684578063acc9e5b114620006b5578063b042079214620006de578063bc64cd4e14620006fe578063bc816cac1462000727578063be9287e3146200073157620002a4565b806388236b5a14620005d057806388c342ea14620005f95780638ac5d4a314620006285780638da5cb5b1462000651578063a2b35d9d146200065b57620002a4565b80635cf5738911620002195780636af5f75211620001d75780636af5f7521462000506578063715018a6146200051057806377ca931c146200051a5780637a58dc9f14620005555780637af70ba6146200057e5780637c17d23714620005a757620002a4565b80635cf57389146200044d578063622263081462000457578063652b9b41146200047757806368f505ad14620004b4578063692d295d14620004dd57620002a4565b80631a2a16b511620002675780631a2a16b5146200038d5780631dbb0b8114620003bc5780632792bdd014620003c65780632f74020c146200041a5780634e590bee146200042457620002a4565b806302e0df2d14620002a95780630a55598914620002d45780630a8a4d3f14620003035780630c1e2b92146200031f578063169d4b141462000364575b600080fd5b620002d260048036036020811015620002c157600080fd5b50356001600160a01b031662000979565b005b620002d260048036036040811015620002ec57600080fd5b506001600160a01b03813516906020013562000a90565b6200030d62000bf3565b60408051918252519081900360200190f35b62000348600480360360208110156200033757600080fd5b50356001600160a01b031662000bf9565b604080516001600160a01b039092168252519081900360200190f35b6200030d600480360360208110156200037c57600080fd5b50356001600160a01b031662000c14565b6200030d60048036036040811015620003a557600080fd5b506001600160a01b03813516906020013562000c36565b6200030d62000cc6565b620002d26004803603610100811015620003df57600080fd5b5080359060208101359060408101359060608101359060808101359060a08101359060c08101359060e001356001600160a01b031662000ccc565b6200034862000f0e565b6200030d600480360360208110156200043c57600080fd5b50356001600160a01b031662000f1d565b6200034862000fa3565b62000348600480360360208110156200046f57600080fd5b503562000fb2565b620004a0600480360360208110156200048f57600080fd5b50356001600160a01b031662000fda565b604080519115158252519081900360200190f35b620002d260048036036020811015620004cc57600080fd5b50356001600160a01b031662000fef565b6200030d60048036036020811015620004f557600080fd5b50356001600160a01b031662001183565b62000348620011eb565b620002d2620011fa565b620002d2600480360360608110156200053257600080fd5b506001600160a01b038135811691602081013582169160409091013516620012a0565b620002d2600480360360208110156200056d57600080fd5b50356001600160a01b031662001379565b6200030d600480360360208110156200059657600080fd5b50356001600160a01b031662001405565b6200030d60048036036020811015620005bf57600080fd5b50356001600160a01b031662001605565b620002d260048036036020811015620005e857600080fd5b50356001600160a01b031662001613565b6200030d600480360360408110156200061157600080fd5b506001600160a01b038135169060200135620017a7565b620002d2600480360360208110156200064057600080fd5b50356001600160a01b031662001816565b6200034862001be4565b6200030d600480360360208110156200067357600080fd5b50356001600160a01b031662001bf3565b6200030d600480360360408110156200069c57600080fd5b506001600160a01b038135811691602001351662001d4c565b6200034860048036036020811015620006cd57600080fd5b50356001600160a01b031662001e4b565b6200034860048036036020811015620006f657600080fd5b503562001e66565b6200030d600480360360208110156200071657600080fd5b50356001600160a01b031662001e74565b620002d262002050565b6200030d600480360360208110156200074957600080fd5b50356001600160a01b0316620022f8565b620002d2600480360360a08110156200077257600080fd5b506001600160a01b03813516906020810135906040810135906060810135906080013562002448565b6200030d60048036036020811015620007b357600080fd5b503562002583565b6200030d6200259e565b620002d2600480360360a0811015620007dd57600080fd5b8135916001600160a01b03602082013581169260408301358216926060810135909216919081019060a0810160808201356401000000008111156200082157600080fd5b8201836020820111156200083457600080fd5b803590602001918460018302840111640100000000831117156200085757600080fd5b91908080601f016020809104026020016040519081016040528093929190818152602001838380828437600092019190915250929550620025a4945050505050565b6200034860048036036020811015620008b157600080fd5b50356001600160a01b03166200283a565b6200030d60048036036020811015620008da57600080fd5b503562002855565b620003486200287f565b620003486200288e565b620002d2600480360360208110156200090e57600080fd5b50356001600160a01b03166200289d565b6200030d600480360360408110156200093757600080fd5b506001600160a01b03813581169160200135166200299b565b6200030d600480360360208110156200096857600080fd5b50356001600160a01b031662002a46565b6200098362002b61565b6000546001600160a01b03908116911614620009d5576040805162461bcd60e51b815260206004820181905260248201526000805160206200385e833981519152604482015290519081900360640190fd5b600854600480546001600160a01b0319166001600160a01b03841617905560005b8181101562000a8b5760006008828154811062000a0f57fe5b600091825260208220015460408051632c8fcd6560e21b81526001600160a01b0388811660048301529151919092169350839263b23f3594926024808201939182900301818387803b15801562000a6557600080fd5b505af115801562000a7a573d6000803e3d6000fd5b5050505050806001019050620009f6565b505050565b600062000a9d3362001bf3565b9050600062000aac3362001605565b9050600062000ac2828463ffffffff62002b6516565b9050600062000ad28686620017a7565b90508082101562000b2a576040805162461bcd60e51b815260206004820152601b60248201527f426f72726f77696e67206d6f7265207468616e20616c6c6f7765640000000000604482015290519081900360640190fd5b6001600160a01b038087166000908152600a6020526040808220548151631196a36960e11b8152600481018a90523360248201529151931692839263232d46d2926044808201939182900301818387803b15801562000b8857600080fd5b505af115801562000b9d573d6000803e3d6000fd5b5050604080513381526001600160a01b038b1660208201528082018a905290517f39afaad37daff6f7a5998bf9de35bb3f46d51f73227bb182d92c016c981a82909350908190036060019150a150505050505050565b60065481565b600a602052600090815260409020546001600160a01b031681565b60008062000c228362001e74565b905062000c2f8162002855565b9392505050565b60015460408051631a2a16b560e01b81526001600160a01b0385811660048301526024820185905291516000939290921691631a2a16b591604480820192602092909190829003018186803b15801562000c8f57600080fd5b505afa15801562000ca4573d6000803e3d6000fd5b505050506040513d602081101562000cbb57600080fd5b505190505b92915050565b60085490565b62000cd662002b61565b6000546001600160a01b0390811691161462000d28576040805162461bcd60e51b815260206004820181905260248201526000805160206200385e833981519152604482015290519081900360640190fd5b6000878787873060405162000d3d9062002daa565b948552602085019390935260408085019290925260608401526001600160a01b039091166080830152519081900360a001906000f08015801562000d85573d6000803e3d6000fd5b506003546004805460408051630f10a94560e31b81526001600160a01b03808716948201949094528784166024820152918316604483015260648201899052608482018e905260a482018890525193945060009391909216916378854a289160c480830192602092919082900301818787803b15801562000e0557600080fd5b505af115801562000e1a573d6000803e3d6000fd5b505050506040513d602081101562000e3157600080fd5b50516001600160a01b038085166000818152600a6020908152604080832080548688166001600160a01b031991821681179092556008805460018181019092557ff3f7a9fe364faab93b216da50a3214154f22a0a2b415b23a84c8169e8b636ee3018054831684179055828652600c8552838620805460ff19169091179055600b845293829020805490941690941790925581519283529286169282019290925281519293507f2c3b5544df8032e6313fd1e59faede21004ab06bb69c1f6640a41566225cb00a929081900390910190a150505050505050505050565b6005546001600160a01b031681565b6001546040805163b04c6d3f60e01b81526001600160a01b0384811660048301529151600093929092169163b04c6d3f91602480820192602092909190829003018186803b15801562000f6f57600080fd5b505afa15801562000f84573d6000803e3d6000fd5b505050506040513d602081101562000f9b57600080fd5b505192915050565b6004546001600160a01b031681565b6007818154811062000fc057fe5b6000918252602090912001546001600160a01b0316905081565b600c6020526000908152604090205460ff1681565b62000ff962002b61565b6000546001600160a01b039081169116146200104b576040805162461bcd60e51b815260206004820181905260248201526000805160206200385e833981519152604482015290519081900360640190fd5b60008190506000816001600160a01b031663591cec866040518163ffffffff1660e01b815260040160206040518083038186803b1580156200108c57600080fd5b505afa158015620010a1573d6000803e3d6000fd5b505050506040513d6020811015620010b857600080fd5b50516001600160a01b038082166000818152600a6020908152604080832080546001600160a01b0319908116968b169687179091556008805460018181019092557ff3f7a9fe364faab93b216da50a3214154f22a0a2b415b23a84c8169e8b636ee3018054831688179055868552600c8452828520805460ff19169091179055600b8352928190208054909316909317909155815192835290519293507ff82a5541ca7d6caee68c834562b18f4b3e4228a200aae195fdf26770dd28cd1592918290030190a1505050565b6001546040805163fc57d4df60e01b81526001600160a01b0384811660048301529151600093929092169163fc57d4df9160248082019260209290919082900301818787803b158015620011d657600080fd5b505af115801562000f84573d6000803e3d6000fd5b6002546001600160a01b031681565b6200120462002b61565b6000546001600160a01b0390811691161462001256576040805162461bcd60e51b815260206004820181905260248201526000805160206200385e833981519152604482015290519081900360640190fd5b600080546040516001600160a01b03909116907f8be0079c531659141344cd1fd0a4f28419497f9722a3daafe3b4186f6b6457e0908390a3600080546001600160a01b0319169055565b620012aa62002b61565b6000546001600160a01b03908116911614620012fc576040805162461bcd60e51b815260206004820181905260248201526000805160206200385e833981519152604482015290519081900360640190fd5b60015460408051634a42dd6d60e11b81526001600160a01b0386811660048301528581166024830152848116604483015291519190921691639485bada91606480830192600092919082900301818387803b1580156200135b57600080fd5b505af115801562001370573d6000803e3d6000fd5b50505050505050565b6200138362002b61565b6000546001600160a01b03908116911614620013d5576040805162461bcd60e51b815260206004820181905260248201526000805160206200385e833981519152604482015290519081900360640190fd5b600580546001600160a01b0319166001600160a01b038316179055620013ff426202a30062002ba9565b60065550565b60075460009081805b82811015620015e2576000600782815481106200142757fe5b6000918252602080832090910154604080516313082b1d60e21b815290516001600160a01b0390921694508492634c20ac7492600480840193829003018186803b1580156200147557600080fd5b505afa1580156200148a573d6000803e3d6000fd5b505050506040513d6020811015620014a157600080fd5b50516001546040805163fc57d4df60e01b81526001600160a01b0380851660048301529151939450600093919092169163fc57d4df91602480830192602092919082900301818787803b158015620014f857600080fd5b505af11580156200150d573d6000803e3d6000fd5b505050506040513d60208110156200152457600080fd5b50516040805163f919b4bf60e01b81526001600160a01b038b8116600483015291519293506000929186169163f919b4bf91602480820192602092909190829003018186803b1580156200157757600080fd5b505afa1580156200158c573d6000803e3d6000fd5b505050506040513d6020811015620015a357600080fd5b505190506000620015bb828463ffffffff62002c0416565b9050620015cf878263ffffffff62002ba916565b965050505050508060010190506200140e565b50620015fd81670de0b6b3a764000063ffffffff62002c6216565b949350505050565b60008062000c228362001405565b6200161d62002b61565b6000546001600160a01b039081169116146200166f576040805162461bcd60e51b815260206004820181905260248201526000805160206200385e833981519152604482015290519081900360640190fd5b60008190506000816001600160a01b0316634c20ac746040518163ffffffff1660e01b815260040160206040518083038186803b158015620016b057600080fd5b505afa158015620016c5573d6000803e3d6000fd5b505050506040513d6020811015620016dc57600080fd5b50516001600160a01b03808216600081815260096020908152604080832080546001600160a01b0319908116968b169687179091556007805460018181019092557fa66cc928b5edb82af9bd49922954155ab7b0942694bea4ce44661d9a8736c688018054831688179055868552600c8452828520805460ff19169091179055600b8352928190208054909316909317909155815192835290519293507f0d4aa38d72aeeb4686737a96fec3064146b373b310127c39e9405ceabb0968bd92918290030190a1505050565b60015460408051634461a17560e11b81526001600160a01b03858116600483015260248201859052915160009392909216916388c342ea9160448082019260209290919082900301818787803b1580156200180157600080fd5b505af115801562000ca4573d6000803e3d6000fd5b336001600160a01b038216141562001875576040805162461bcd60e51b815260206004820152601b60248201527f796f752063616e74206c697175696461746520796f757273656c660000000000604482015290519081900360640190fd5b600854600754600060608367ffffffffffffffff811180156200189757600080fd5b50604051908082528060200260200182016040528015620018c2578160200160208202803683370190505b50905060005b84811015620019ef57600060088281548110620018e157fe5b6000918252602080832090910154604080516305eff7ef60e21b81526001600160a01b038c81166004830152915191909216945084936317bfdfbc93602480850194919392918390030190829087803b1580156200193e57600080fd5b505af115801562001953573d6000803e3d6000fd5b505050506040513d60208110156200196a57600080fd5b505183518490849081106200197b57fe5b6020908102919091018101919091526001600160a01b038083166000908152600b90925260408220548551620019cb929190911690869086908110620019bd57fe5b602002602001015162000c36565b9050620019df858263ffffffff62002ba916565b94505050806001019050620018c8565b506000620019fd8662001605565b905082811162001bdc5760005b8581101562001af85760006008828154811062001a2357fe5b9060005260206000200160009054906101000a90046001600160a01b03169050806001600160a01b031663ab292f9b893387868151811062001a6157fe5b60200260200101516040518463ffffffff1660e01b815260040180846001600160a01b03166001600160a01b03168152602001836001600160a01b03166001600160a01b031681526020018281526020019350505050600060405180830381600087803b15801562001ad257600080fd5b505af115801562001ae7573d6000803e3d6000fd5b505050505080600101905062001a0a565b5060005b8481101562001b975760006007828154811062001b1557fe5b600091825260208220015460408051633d2d78f960e21b81526001600160a01b038c811660048301523360248301529151919092169350839263f4b5e3e4926044808201939182900301818387803b15801562001b7157600080fd5b505af115801562001b86573d6000803e3d6000fd5b505050505080600101905062001afc565b50604080516001600160a01b038816815233602082015281517fce054da468b0607d4d65949d7572acd17087e593b3e5be27ba665ba1a60ad75b929181900390910190a15b505050505050565b6000546001600160a01b031690565b60085460009081805b8281101562001d445760006008828154811062001c1557fe5b6000918252602080832090910154604080516305eff7ef60e21b81526001600160a01b038b81166004830152915191909216945084926317bfdfbc926024808201939182900301818787803b15801562001c6e57600080fd5b505af115801562001c83573d6000803e3d6000fd5b505050506040513d602081101562001c9a57600080fd5b505190508062001cac57505062001d3b565b600062001d21836001600160a01b031663591cec866040518163ffffffff1660e01b815260040160206040518083038186803b15801562001cec57600080fd5b505afa15801562001d01573d6000803e3d6000fd5b505050506040513d602081101562001d1857600080fd5b505183620017a7565b905062001d35858263ffffffff62002ba916565b94505050505b60010162001bfc565b509392505050565b60008062001d5a8462001bf3565b9050600062001d698562001405565b9050600062001d788362002583565b9050600062001d8e838363ffffffff62002b6516565b6001546040805163fc57d4df60e01b81526001600160a01b038a811660048301529151939450600093919092169163fc57d4df91602480830192602092919082900301818787803b15801562001de357600080fd5b505af115801562001df8573d6000803e3d6000fd5b505050506040513d602081101562001e0f57600080fd5b5051905062001e3f8162001e3284670de0b6b3a764000063ffffffff62002c0416565b9063ffffffff62002c6216565b98975050505050505050565b6009602052600090815260409020546001600160a01b031681565b6008818154811062000fc057fe5b60075460009081805b82811015620015e25760006007828154811062001e9657fe5b6000918252602080832090910154604080516313082b1d60e21b815290516001600160a01b0390921694508492634c20ac7492600480840193829003018186803b15801562001ee457600080fd5b505afa15801562001ef9573d6000803e3d6000fd5b505050506040513d602081101562001f1057600080fd5b50516001546040805163b04c6d3f60e01b81526001600160a01b0380851660048301529151939450600093919092169163b04c6d3f916024808301926020929190829003018186803b15801562001f6657600080fd5b505afa15801562001f7b573d6000803e3d6000fd5b505050506040513d602081101562001f9257600080fd5b50516040805163f919b4bf60e01b81526001600160a01b038b8116600483015291519293506000929186169163f919b4bf91602480820192602092909190829003018186803b15801562001fe557600080fd5b505afa15801562001ffa573d6000803e3d6000fd5b505050506040513d60208110156200201157600080fd5b50519050600062002029828463ffffffff62002c0416565b90506200203d878263ffffffff62002ba916565b9650505050505080600101905062001e7d565b6200205a62002b61565b6000546001600160a01b03908116911614620020ac576040805162461bcd60e51b815260206004820181905260248201526000805160206200385e833981519152604482015290519081900360640190fd5b600654421015620020ef5760405162461bcd60e51b8152600401808060200182810382526027815260200180620038166027913960400191505060405180910390fd5b6005546001600160a01b03166200214d576040805162461bcd60e51b815260206004820152601760248201527f6e6f206e6577207761727020636f6e74726f6c20736574000000000000000000604482015290519081900360640190fd5b6001546005546040805163f2fde38b60e01b81526001600160a01b0392831660048201529051919092169163f2fde38b91602480830192600092919082900301818387803b1580156200219f57600080fd5b505af1158015620021b4573d6000803e3d6000fd5b5050600754600854909250905060005b828110156200225c57600060078281548110620021dd57fe5b60009182526020822001546005546040805163133cf9e160e21b81526001600160a01b03928316600482015290519190921693508392634cf3e784926024808201939182900301818387803b1580156200223657600080fd5b505af11580156200224b573d6000803e3d6000fd5b5050505050806001019050620021c4565b5060005b8181101562000a8b576000600882815481106200227957fe5b60009182526020822001546005546040805163133cf9e160e21b81526001600160a01b03928316600482015290519190921693508392634cf3e784926024808201939182900301818387803b158015620022d257600080fd5b505af1158015620022e7573d6000803e3d6000fd5b505050505080600101905062002260565b60085460009081805b8281101562001d44576000600882815481106200231a57fe5b600091825260208083209091015460408051637746efab60e01b81526001600160a01b038b8116600483015291519190921694508492637746efab9260248082019391829003018186803b1580156200237257600080fd5b505afa15801562002387573d6000803e3d6000fd5b505050506040513d60208110156200239e57600080fd5b5051905080620023b05750506200243f565b600062002425836001600160a01b031663591cec866040518163ffffffff1660e01b815260040160206040518083038186803b158015620023f057600080fd5b505afa15801562002405573d6000803e3d6000fd5b505050506040513d60208110156200241c57600080fd5b50518362000c36565b905062002439858263ffffffff62002ba916565b94505050505b60010162002301565b6200245262002b61565b6000546001600160a01b03908116911614620024a4576040805162461bcd60e51b815260206004820181905260248201526000805160206200385e833981519152604482015290519081900360640190fd5b60008484848430604051620024b99062002daa565b948552602085019390935260408085019290925260608401526001600160a01b039091166080830152519081900360a001906000f08015801562002501573d6000803e3d6000fd5b506001600160a01b038088166000908152600a602052604080822054815163b1be82f160e01b815284861660048201529151949550909216928392839263b1be82f19260248084019382900301818387803b1580156200256057600080fd5b505af115801562002575573d6000803e3d6000fd5b505050505050505050505050565b600062000cc0600262001e3284600363ffffffff62002c0416565b60075490565b620025ae62002b61565b6000546001600160a01b0390811691161462002600576040805162461bcd60e51b815260206004820181905260248201526000805160206200385e833981519152604482015290519081900360640190fd5b60015460408051634a42dd6d60e11b81526001600160a01b0386811660048301528581166024830152878116604483015291519190921691639485bada91606480830192600092919082900301818387803b1580156200265f57600080fd5b505af115801562002674573d6000803e3d6000fd5b505060025460405163a8edf11560e01b8152600481018981526001600160a01b0389811660248401526060604484019081528751606485015287516000975091909416945063a8edf115938b938b9389939092916084019060208501908083838d5b83811015620026f0578181015183820152602001620026d6565b50505050905090810190601f1680156200271e5780820380516001836020036101000a031916815260200191505b50945050505050602060405180830381600087803b1580156200274057600080fd5b505af115801562002755573d6000803e3d6000fd5b505050506040513d60208110156200276c57600080fd5b50516001600160a01b03868116600081815260096020908152604080832080546001600160a01b03199081169688169687179091556007805460018181019092557fa66cc928b5edb82af9bd49922954155ab7b0942694bea4ce44661d9a8736c688018054831688179055868552600c8452828520805460ff19169091179055600b8352928190208054909316909317909155815192835290519293507fe4136410250c225cb6546e2f16dccea79b35b32f295f337362d04375101342ff92918290030190a1505050505050565b600b602052600090815260409020546001600160a01b031681565b6000806200286b83600363ffffffff62002c6216565b905062000c2f818063ffffffff62002ba916565b6003546001600160a01b031681565b6001546001600160a01b031681565b620028a762002b61565b6000546001600160a01b03908116911614620028f9576040805162461bcd60e51b815260206004820181905260248201526000805160206200385e833981519152604482015290519081900360640190fd5b6001600160a01b038116620029405760405162461bcd60e51b8152600401808060200182810382526026815260200180620037f06026913960400191505060405180910390fd5b600080546040516001600160a01b03808516939216917f8be0079c531659141344cd1fd0a4f28419497f9722a3daafe3b4186f6b6457e091a3600080546001600160a01b0319166001600160a01b0392909216919091179055565b600080620029a984620022f8565b90506000620029b88562001e74565b90506000620029c78362002583565b90506000620029dd838363ffffffff62002b6516565b6001546040805163b04c6d3f60e01b81526001600160a01b038a811660048301529151939450600093919092169163b04c6d3f916024808301926020929190829003018186803b15801562002a3157600080fd5b505afa15801562001df8573d6000803e3d6000fd5b60085460009081805b8281101562001d445760006008828154811062002a6857fe5b600091825260208083209091015460408051638f7bf4fd60e01b81526001600160a01b038b8116600483015291519190921694508492638f7bf4fd9260248082019391829003018186803b15801562002ac057600080fd5b505afa15801562002ad5573d6000803e3d6000fd5b505050506040513d602081101562002aec57600080fd5b505190508062002afe57505062002b58565b600062002b3e836001600160a01b031663591cec866040518163ffffffff1660e01b815260040160206040518083038186803b158015620023f057600080fd5b905062002b52858263ffffffff62002ba916565b94505050505b60010162002a4f565b3390565b600062000c2f83836040518060400160405280601e81526020017f536166654d6174683a207375627472616374696f6e206f766572666c6f77000081525062002ca6565b60008282018381101562000c2f576040805162461bcd60e51b815260206004820152601b60248201527f536166654d6174683a206164646974696f6e206f766572666c6f770000000000604482015290519081900360640190fd5b60008262002c155750600062000cc0565b8282028284828162002c2357fe5b041462000c2f5760405162461bcd60e51b81526004018080602001828103825260218152602001806200383d6021913960400191505060405180910390fd5b600062000c2f83836040518060400160405280601a81526020017f536166654d6174683a206469766973696f6e206279207a65726f00000000000081525062002d41565b6000818484111562002d395760405162461bcd60e51b81526004018080602001828103825283818151815260200191508051906020019080838360005b8381101562002cfd57818101518382015260200162002ce3565b50505050905090810190601f16801562002d2b5780820380516001836020036101000a031916815260200191505b509250505060405180910390fd5b505050900390565b6000818362002d935760405162461bcd60e51b815260206004820181815283516024840152835190928392604490910191908501908083836000831562002cfd57818101518382015260200162002ce3565b50600083858162002da057fe5b0495945050505050565b610a378062002db98339019056fe608060405234801561001057600080fd5b50604051610a37380380610a37833981810160405260a081101561003357600080fd5b508051602082015160408301516060840151608090940151600080546001600160a01b0319166001600160a01b03831617905592939192909190848484848461007e8585858561008d565b505050505050505050506102bc565b6100a7622014808561017060201b6105901790919060201c565b6002556100f66100c562201480836101c1602090811b61053717901c565b6100e4670de0b6b3a7640000866101c160201b6105371790919060201c565b61017060201b6105901790919060201c565b6001556101118262201480610170602090811b61059017901c565b60038190556004829055600254600154604080519283526020830191909152818101929092526060810183905290517f6960ab234c7ef4b0c9197100f5393cfcde7c453ac910a27bd2000aa1dd4c068d9181900360800190a150505050565b60006101b883836040518060400160405280601a81526020017f536166654d6174683a206469766973696f6e206279207a65726f00000000000081525061021a60201b60201c565b90505b92915050565b6000826101d0575060006101bb565b828202828482816101dd57fe5b04146101b85760405162461bcd60e51b8152600401808060200182810382526021815260200180610a166021913960400191505060405180910390fd5b600081836102a65760405162461bcd60e51b81526004018080602001828103825283818151815260200191508051906020019080838360005b8381101561026b578181015183820152602001610253565b50505050905090810190601f1680156102985780820380516001836020036101000a031916815260200191505b509250505060405180910390fd5b5060008385816102b257fe5b0495945050505050565b61074b806102cb6000396000f3fe608060405234801561001057600080fd5b506004361061009e5760003560e01c8063a385fb9611610066578063a385fb9614610164578063b81688161461016c578063b9f9850a1461019b578063f14039de146101a3578063fd2da339146101ab5761009e565b806315f24053146100a35780632037f3e7146100de5780636e71e2d81461010f5780638726bb89146101385780638da5cb5b14610140575b600080fd5b6100cc600480360360608110156100b957600080fd5b50803590602081013590604001356101b3565b60408051918252519081900360200190f35b61010d600480360360808110156100f457600080fd5b50803590602081013590604081013590606001356101ca565b005b6100cc6004803603606081101561012557600080fd5b5080359060208101359060400135610225565b6100cc61027b565b610148610281565b604080516001600160a01b039092168252519081900360200190f35b6100cc610290565b6100cc6004803603608081101561018257600080fd5b5080359060208101359060408101359060600135610297565b6100cc610316565b6100cc61031c565b6100cc610322565b60006101c0848484610328565b90505b9392505050565b6000546001600160a01b031633146102135760405162461bcd60e51b81526004018080602001828103825260268152602001806106f06026913960400191505060405180910390fd5b61021f848484846103f1565b50505050565b600082610234575060006101c3565b6101c06102578361024b878763ffffffff61049216565b9063ffffffff6104f516565b61026f85670de0b6b3a764000063ffffffff61053716565b9063ffffffff61059016565b60015481565b6000546001600160a01b031681565b6220148081565b6000806102b2670de0b6b3a76400008463ffffffff6104f516565b905060006102c1878787610328565b905060006102e1670de0b6b3a764000061026f848663ffffffff61053716565b905061030a670de0b6b3a764000061026f836102fe8c8c8c610225565b9063ffffffff61053716565b98975050505050505050565b60035481565b60025481565b60045481565b600080610336858585610225565b9050600454811161037c57610374600254610368670de0b6b3a764000061026f6001548661053790919063ffffffff16565b9063ffffffff61049216565b9150506101c3565b60006103a7600254610368670de0b6b3a764000061026f60015460045461053790919063ffffffff16565b905060006103c0600454846104f590919063ffffffff16565b90506103e782610368670de0b6b3a764000061026f6003548661053790919063ffffffff16565b93505050506101c3565b610404846220148063ffffffff61059016565b60025561041d610257622014808363ffffffff61053716565b600155610433826220148063ffffffff61059016565b60038190556004829055600254600154604080519283526020830191909152818101929092526060810183905290517f6960ab234c7ef4b0c9197100f5393cfcde7c453ac910a27bd2000aa1dd4c068d9181900360800190a150505050565b6000828201838110156104ec576040805162461bcd60e51b815260206004820152601b60248201527f536166654d6174683a206164646974696f6e206f766572666c6f770000000000604482015290519081900360640190fd5b90505b92915050565b60006104ec83836040518060400160405280601e81526020017f536166654d6174683a207375627472616374696f6e206f766572666c6f7700008152506105d2565b600082610546575060006104ef565b8282028284828161055357fe5b04146104ec5760405162461bcd60e51b81526004018080602001828103825260218152602001806106cf6021913960400191505060405180910390fd5b60006104ec83836040518060400160405280601a81526020017f536166654d6174683a206469766973696f6e206279207a65726f000000000000815250610669565b600081848411156106615760405162461bcd60e51b81526004018080602001828103825283818151815260200191508051906020019080838360005b8381101561062657818101518382015260200161060e565b50505050905090810190601f1680156106535780820380516001836020036101000a031916815260200191505b509250505060405180910390fd5b505050900390565b600081836106b85760405162461bcd60e51b815260206004820181815283516024840152835190928392604490910191908501908083836000831561062657818101518382015260200161060e565b5060008385816106c457fe5b049594505050505056fe536166654d6174683a206d756c7469706c69636174696f6e206f766572666c6f776f6e6c7920746865206f776e6572206d61792063616c6c20746869732066756e6374696f6e2ea2646970667358221220f57cb4bfc1ec1bc4429a807302f8b014d8105773a87e087103a29a073707098f64736f6c63430006060033536166654d6174683a206d756c7469706c69636174696f6e206f766572666c6f774f776e61626c653a206e6577206f776e657220697320746865207a65726f2061646472657373796f752063616e7420756772616465207965742c206c657373207468616e2074776f2064617973536166654d6174683a206d756c7469706c69636174696f6e206f766572666c6f774f776e61626c653a2063616c6c6572206973206e6f7420746865206f776e6572a26469706673582212200f94f0482de7efb64b8e248f3ad2bbed27bdb1f5898829b787e19425852b4ac364736f6c63430006060033",
  "immutableReferences": {},
  "source": "pragma solidity ^0.6.0;\n\nimport \"@openzeppelin/contracts/access/Ownable.sol\";\nimport \"@openzeppelin/contracts/math/SafeMath.sol\";\nimport \"./interfaces/WarpVaultSCI.sol\";\nimport \"./interfaces/WarpVaultLPI.sol\";\nimport \"./interfaces/WarpVaultLPFactoryI.sol\";\nimport \"./interfaces/WarpVaultSCFactoryI.sol\";\nimport \"./interfaces/UniswapLPOracleFactoryI.sol\";\nimport \"./compound/JumpRateModelV2.sol\";\nimport \"./compound/Exponential.sol\";\n\n////////////////////////////////////////////////////////////////////////////////////////////\n/// @title WarpControl\n/// @author Christopher Dixon\n////////////////////////////////////////////////////////////////////////////////////////////\n/**\nWarpControl is designed to coordinate Warp Vaults\nThis contract uses the OpenZeppelin contract Library to inherit functions from\n  Ownable.sol\n**/\n\ncontract WarpControl is Ownable, Exponential {\n    using SafeMath for uint256;\n\n    UniswapLPOracleFactoryI public Oracle; //oracle factory contract interface\n    WarpVaultLPFactoryI public WVLPF;\n    WarpVaultSCFactoryI public WVSCF;\n\n    address public warpTeam;\n    address public newWarpControl;\n    uint256 public graceSpace;\n\n    address[] public lpVaults;\n    address[] public scVaults;\n\n    mapping(address => address) public instanceLPTracker; //maps LP token address to the assets WarpVault\n    mapping(address => address) public instanceSCTracker;\n    mapping(address => address) public getAssetByVault;\n    mapping(address => bool) public isVault;\n\n    event NewLPVault(address _newVault);\n    event ImportedLPVault(address _vault);\n    event NewSCVault(address _newVault, address _interestRateModel);\n    event ImportedSCVault(address _vault);\n    event NewBorrow(\n        address _borrower,\n        address _StableCoin,\n        uint256 _amountBorrowed\n    );\n    event Liquidation(address _account, address liquidator);\n\n    /**\n      @dev Throws if called by any account other than a warp vault\n     */\n    modifier onlyVault() {\n        require(isVault[msg.sender] == true, \"Only a vault may call this\");\n        _;\n    }\n\n    /**\n    @notice the constructor function is fired during the contract deployment process. The constructor can only be fired once and\n            is used to set up Oracle variables for the MoneyMarketFactory contract.\n    @param _oracle is the address for the UniswapOracleFactorycontract\n    @param _WVLPF is the address for the WarpVaultLPFactory used to produce LP Warp Vaults\n    @param _WVSCF is the address for the WarpVaultSCFactory used to produce Stable Coin Warp Vaults\n    @dev These factories are split into seperate contracts to avoid hitting the block gas limit\n    **/\n    constructor(\n        address _oracle,\n        address _WVLPF,\n        address _WVSCF,\n        address _warpTeam\n    ) public {\n        //instantiate the contracts\n        Oracle = UniswapLPOracleFactoryI(_oracle);\n        WVLPF = WarpVaultLPFactoryI(_WVLPF);\n        WVSCF = WarpVaultSCFactoryI(_WVSCF);\n        warpTeam = _warpTeam;\n    }\n\n    /**\n    @notice viewNumLPVaults returns the number of lp vaults on the warp platform\n    **/\n    function viewNumLPVaults() external view returns (uint256) {\n        return lpVaults.length;\n    }\n\n    /**\n    @notice viewNumSCVaults returns the number of stablecoin vaults on the warp platform\n    **/\n    function viewNumSCVaults() external view returns (uint256) {\n        return scVaults.length;\n    }\n\n    /**\n    @notice createNewLPVault allows the contract owner to create a new WarpVaultLP contract for a specific LP token\n    @param _timelock is a variable representing the number of seconds the timeWizard will prevent withdraws and borrows from a contracts(one week is 605800 seconds)\n    @param _lp is the address for the LP token this Warp Vault will manage\n    @param _lpAsset1 is the address for the first asset in a pair that the LP token represents(ex: wETH in a wETH-wBTC uniswap pair)\n    @param _lpAsset2 is the address for the second asset in a pair that the LP token represents(ex: wBTC in a wETH-wBTC uniswap pair)\n    @param _lpName is the name of the LP token (ex:wETH-wBTC)\n    **/\n    function createNewLPVault(\n        uint256 _timelock,\n        address _lp,\n        address _lpAsset1,\n        address _lpAsset2,\n        string memory _lpName\n    ) public onlyOwner {\n        //create new oracles for this LP\n        Oracle.createNewOracles(_lpAsset1, _lpAsset2, _lp);\n        //create new Warp LP Vault\n        address _WarpVault = WVLPF.createWarpVaultLP(_timelock, _lp, _lpName);\n        //track the warp vault lp instance by the address of the LP it represents\n        instanceLPTracker[_lp] = _WarpVault;\n        //add new LP Vault to the array of all LP vaults\n        lpVaults.push(_WarpVault);\n        //set Warp vault address as an approved vault\n        isVault[_WarpVault] = true;\n        //track vault to asset\n        getAssetByVault[_WarpVault] = _lp;\n        emit NewLPVault(_WarpVault);\n    }\n\n    function importLPVault(address _lpVault) public onlyOwner {\n        WarpVaultLPI _vault = WarpVaultLPI(_lpVault);\n        address _lp = _vault.getAssetAdd();\n\n        instanceLPTracker[_lp] = _lpVault;\n        lpVaults.push(_lpVault);\n        isVault[_lpVault] = true;\n        getAssetByVault[_lpVault] = _lp;\n        emit ImportedLPVault(_lpVault);\n    }\n\n    function manuallyCreateOracles(\n        address _token0,\n        address _token1,\n        address _lpToken\n    ) public onlyOwner {\n        Oracle.createNewOracles(_token0, _token1, _lpToken);\n    }\n\n    /**\n    @notice createNewSCVault allows the contract owner to create a new WarpVaultLP contract for a specific LP token\n    @param _timelock is a variable representing the number of seconds the timeWizard will prevent withdraws and borrows from a contracts(one week is 605800 seconds)\n    @param _baseRatePerYear is the base rate per year(approx target base APR)\n    @param _multiplierPerYear is the multiplier per year(rate of increase in interest w/ utilizastion)\n    @param _jumpMultiplierPerYear is the Jump Multiplier Per Year(the multiplier per block after hitting a specific utilizastion point)\n    @param _optimal is the this is the utilizastion point or \"kink\" at which the jump multiplier is applied\n    @param _initialExchangeRate is the intitial exchange rate(the rate at which the initial exchange of asset/ART is set)\n    @param _StableCoin is the address of the StableCoin this Warp Vault will manage\n    **/\n    function createNewSCVault(\n        uint256 _timelock,\n        uint256 _baseRatePerYear,\n        uint256 _multiplierPerYear,\n        uint256 _jumpMultiplierPerYear,\n        uint256 _optimal,\n        uint256 _initialExchangeRate,\n        uint256 _reserveFactorMantissa,\n        address _StableCoin\n    ) public onlyOwner {\n        //create the interest rate model for this stablecoin\n        address IR = address(\n            new JumpRateModelV2(\n                _baseRatePerYear,\n                _multiplierPerYear,\n                _jumpMultiplierPerYear,\n                _optimal,\n                address(this)\n            )\n        );\n        //create the SC Warp vault\n        address _WarpVault = WVSCF.createNewWarpVaultSC(\n            IR,\n            _StableCoin,\n            warpTeam,\n            _initialExchangeRate,\n            _timelock,\n            _reserveFactorMantissa\n        );\n        //track the warp vault sc instance by the address of the stablecoin it represents\n        instanceSCTracker[_StableCoin] = _WarpVault;\n        //add new SC Vault to the array of all SC vaults\n        scVaults.push(_WarpVault);\n        //set Warp vault address as an approved vault\n        isVault[_WarpVault] = true;\n        //track vault to asset\n        getAssetByVault[_WarpVault] = _StableCoin;\n        emit NewSCVault(_WarpVault, IR);\n    }\n\n    function importSCVault(address _scVault) public onlyOwner {\n        WarpVaultSCI _vault = WarpVaultSCI(_scVault);\n        address _token = _vault.getSCAddress();\n\n        // track token -> vault\n        instanceSCTracker[_token] = _scVault;\n        // vault list\n        scVaults.push(_scVault);\n        // register vault in mapping\n        isVault[_scVault] = true;\n        // track vault -> token\n        getAssetByVault[_scVault] = _token;\n        emit ImportedSCVault(_scVault);\n    }\n\n    /**\n    @notice Figures out how much of a given LP token an account is allowed to withdraw\n    @param account is the account being checked\n    @param lpToken is the address of the lpToken the user wishes to withdraw\n    @dev this function runs calculations to accrue interest for an up to date amount\n     */\n    function getMaxWithdrawAllowed(address account, address lpToken)\n        public\n        returns (uint256)\n    {\n        uint256 borrowedTotal = getTotalBorrowedValue(account);\n        uint256 collateralValue = getTotalAvailableCollateralValue(account);\n        uint256 requiredCollateral = calcCollateralRequired(borrowedTotal);\n        uint256 leftoverCollateral = collateralValue.sub(requiredCollateral);\n        uint256 lpValue = Oracle.getUnderlyingPrice(lpToken);\n        return leftoverCollateral.mul(1e18).div(lpValue);\n    }\n\n    /**\n    @notice Figures out how much of a given LP token an account is allowed to withdraw\n    @param account is the account being checked\n    @param lpToken is the address of the lpToken the user wishes to withdraw\n    @dev this function does not run calculations to accrue interest and returns the previously calculated amount\n     */\n    function viewMaxWithdrawAllowed(address account, address lpToken)\n        public\n        view\n        returns (uint256)\n    {\n        uint256 borrowedTotal = viewTotalBorrowedValue(account);\n        uint256 collateralValue = viewTotalAvailableCollateralValue(account);\n        uint256 requiredCollateral = calcCollateralRequired(borrowedTotal);\n        uint256 leftoverCollateral = collateralValue.sub(requiredCollateral);\n        uint256 lpValue = Oracle.viewUnderlyingPrice(lpToken);\n        return leftoverCollateral.mul(1e18).div(lpValue);\n    }\n\n    /**\n    @notice getTotalAvailableCollateralValue returns the total availible collaeral value for an account in USDC\n    @param _account is the address whos collateral is being retreived\n    @dev this function runs calculations to accrue interest for an up to date amount\n    **/\n    function getTotalAvailableCollateralValue(address _account)\n        public\n        returns (uint256)\n    {\n        //get the number of LP vaults the platform has\n        uint256 numVaults = lpVaults.length;\n        //initialize the totalCollateral variable to zero\n        uint256 totalCollateral = 0;\n        //loop through each lp wapr vault\n        for (uint256 i = 0; i < numVaults; ++i) {\n            //instantiate warp vault at that position\n            WarpVaultLPI vault = WarpVaultLPI(lpVaults[i]);\n            //retreive the address of its asset\n            address asset = vault.getAssetAdd();\n            //retrieve USD price of this asset\n            uint256 assetPrice = Oracle.getUnderlyingPrice(asset);\n\n            uint256 accountCollateral = vault.collateralOfAccount(_account);\n            //emit DebugValues(accountCollateral, assetPrice);\n\n            //multiply the amount of collateral by the asset price and return it\n            uint256 accountAssetsValue = accountCollateral.mul(assetPrice);\n            //add value to total collateral\n            totalCollateral = totalCollateral.add(accountAssetsValue);\n        }\n        //return total USDC value of all collateral\n        return totalCollateral.div(1e18);\n    }\n\n    /**\n    @notice getTotalAvailableCollateralValue returns the total availible collaeral value for an account in USDC\n    @param _account is the address whos collateral is being retreived\n    @dev this function does not run calculations to accrue interest and returns the previously calculated amount\n    **/\n    function viewTotalAvailableCollateralValue(address _account)\n        public\n        view\n        returns (uint256)\n    {\n        uint256 numVaults = lpVaults.length;\n        uint256 totalCollateral = 0;\n        //loop through each lp wapr vault\n        for (uint256 i = 0; i < numVaults; ++i) {\n            //instantiate warp vault at that position\n            WarpVaultLPI vault = WarpVaultLPI(lpVaults[i]);\n            //retreive the address of its asset\n            address asset = vault.getAssetAdd();\n            //retrieve USD price of this asset\n            uint256 assetPrice = Oracle.viewUnderlyingPrice(asset);\n\n            uint256 accountCollateral = vault.collateralOfAccount(_account);\n\n            //multiply the amount of collateral by the asset price and return it\n            uint256 accountAssetsValue = accountCollateral.mul(assetPrice);\n            //add value to total collateral\n            totalCollateral = totalCollateral.add(accountAssetsValue);\n        }\n        //return total USDC value of all collateral\n        return totalCollateral.div(1e18);\n    }\n\n    /**\n    @notice viewPriceOfCollateral returns the price of an lpToken\n    @param lpToken is the address of the lp token\n    @dev this function runs calculations to retrieve the current price\n    **/\n    function viewPriceOfCollateral(address lpToken)\n        public\n        view\n        returns (uint256)\n    {\n        return Oracle.viewUnderlyingPrice(lpToken);\n    }\n\n    /**\n    @notice getPriceOfCollateral returns the price of an lpToken\n    @param lpToken is the address of the lp token\n    @dev this function does not run calculations amd returns the previously calculated price\n    **/\n    function getPriceOfCollateral(address lpToken) public returns (uint256) {\n        return Oracle.getUnderlyingPrice(lpToken);\n    }\n\n    /**\n    @notice viewPriceOfToken retrieves the price of a stablecoin\n    @param token is the address of the stablecoin\n    @param amount is the amount of stablecoin\n    @dev this function runs calculations to retrieve the current price\n    **/\n    function viewPriceOfToken(address token, uint256 amount)\n        public\n        view\n        returns (uint256)\n    {\n        return Oracle.viewPriceOfToken(token, amount);\n    }\n\n    /**\n    @notice viewPriceOfToken retrieves the price of a stablecoin\n    @param token is the address of the stablecoin\n    @param amount is the amount of stablecoin\n    @dev this function does not run calculations amd returns the previously calculated price\n    **/\n    function getPriceOfToken(address token, uint256 amount)\n        public\n        returns (uint256)\n    {\n        return Oracle.getPriceOfToken(token, amount);\n    }\n\n    /**\n    @notice viewTotalLentValue returns the total lent value for an account in USDC\n    @param _account is the account whos lent value we are calculating\n    **/\n    function viewTotalLentValue(address _account)\n        public\n        view\n        returns (uint256)\n    {\n        uint256 numSCVaults = scVaults.length;\n        uint256 totalValue = 0;\n\n        // Add up each stable coin vaults value\n        for (uint256 i = 0; i < numSCVaults; ++i) {\n            //instantiate each LP warp vault\n            WarpVaultSCI WVSC = WarpVaultSCI(scVaults[i]);\n            //retreive the amount user has borrowed from each stablecoin vault\n            uint256 lentBalanceInStable = WVSC.viewAccountBalance(_account);\n            if (lentBalanceInStable == 0) {\n                continue;\n            }\n            uint256 usdcLentAmount = viewPriceOfToken(\n                WVSC.getSCAddress(),\n                lentBalanceInStable\n            );\n            totalValue = totalValue.add(usdcLentAmount);\n        }\n\n        return totalValue;\n    }\n\n    /**\n    @notice viewTotalBorrowedValue returns the total borrowed value for an account in USDC\n    @param _account is the account whos borrowed value we are calculating\n    @dev this function returns previously calculated values\n    **/\n    function viewTotalBorrowedValue(address _account)\n        public\n        view\n        returns (uint256)\n    {\n        uint256 numSCVaults = scVaults.length;\n        //initialize the totalBorrowedValue variable to zero\n        uint256 totalBorrowedValue = 0;\n        //loop through all stable coin vaults\n        for (uint256 i = 0; i < numSCVaults; ++i) {\n            //instantiate each LP warp vault\n            WarpVaultSCI WVSC = WarpVaultSCI(scVaults[i]);\n            //retreive the amount user has borrowed from each stablecoin vault\n            uint256 borrowBalanceInStable = WVSC.borrowBalancePrior(_account);\n            if (borrowBalanceInStable == 0) {\n                continue;\n            }\n            uint256 usdcBorrowedAmount = viewPriceOfToken(\n                WVSC.getSCAddress(),\n                borrowBalanceInStable\n            );\n            totalBorrowedValue = totalBorrowedValue.add(usdcBorrowedAmount);\n        }\n        //return total Borrowed Value\n        return totalBorrowedValue;\n    }\n\n    /**\n    @notice viewTotalBorrowedValue returns the total borrowed value for an account in USDC\n    @param _account is the account whos borrowed value we are calculating\n    @dev this function returns newly calculated values\n    **/\n    function getTotalBorrowedValue(address _account) public returns (uint256) {\n        uint256 numSCVaults = scVaults.length;\n        //initialize the totalBorrowedValue variable to zero\n        uint256 totalBorrowedValue = 0;\n        //loop through all stable coin vaults\n        for (uint256 i = 0; i < numSCVaults; ++i) {\n            //instantiate each LP warp vault\n            WarpVaultSCI WVSC = WarpVaultSCI(scVaults[i]);\n            //retreive the amount user has borrowed from each stablecoin vault\n            uint256 borrowBalanceInStable = WVSC.borrowBalanceCurrent(_account);\n            if (borrowBalanceInStable == 0) {\n                continue;\n            }\n            uint256 usdcBorrowedAmount = getPriceOfToken(\n                WVSC.getSCAddress(),\n                borrowBalanceInStable\n            );\n            totalBorrowedValue = totalBorrowedValue.add(usdcBorrowedAmount);\n        }\n        //return total Borrowed Value\n        return totalBorrowedValue;\n    }\n\n    /**\n    @notice calcBorrowLimit is used to calculate the borrow limit for an account based on the input value of their collateral\n    @param _collateralValue is the USDC value of the users collateral\n    @dev this function divides the input value by 3 and then adds that value to itself so it can return 2/3rds of the availible collateral\n        as the borrow limit. If a usser has $150 USDC value in collateral this function will return $100 USDC as their borrow limit.\n    **/\n    function calcBorrowLimit(uint256 _collateralValue)\n        public\n        pure\n        returns (uint256)\n    {\n        //divide the collaterals value by 3 to get 1/3rd of its value\n        uint256 thirdCollatVal = _collateralValue.div(3);\n        //add this 1/3rd value to itself to get 2/3rds of the original value\n        return thirdCollatVal.add(thirdCollatVal);\n    }\n\n    /**\n    @notice calcCollateralRequired returns the amount of collateral needed for an input borrow value\n    @param _borrowAmount is the input borrow amount\n    **/\n    function calcCollateralRequired(uint256 _borrowAmount)\n        public\n        pure\n        returns (uint256)\n    {\n        return _borrowAmount.mul(3).div(2);\n    }\n\n    /**\n    @notice getBorrowLimit returns the borrow limit for an account\n    @param _account is the input account address\n    @dev this calculation uses current values for calculations\n    **/\n    function getBorrowLimit(address _account) public returns (uint256) {\n        uint256 availibleCollateralValue = getTotalAvailableCollateralValue(\n            _account\n        );\n\n        return calcBorrowLimit(availibleCollateralValue);\n    }\n\n    /**\n    @notice getBorrowLimit returns the borrow limit for an account\n    @param _account is the input account address\n    @dev this calculation uses previous values for calculations\n    **/\n    function viewBorrowLimit(address _account) public view returns (uint256) {\n        uint256 availibleCollateralValue = viewTotalAvailableCollateralValue(\n            _account\n        );\n        //return the users borrow limit\n        return calcBorrowLimit(availibleCollateralValue);\n    }\n\n    /**\n    @notice borrowSC is the function an end user will call when they wish to borrow a stablecoin from the warp platform\n    @param _StableCoin is the address of the stablecoin the user wishes to borrow\n    @param _amount is the amount of that stablecoin the user wants to borrow\n    **/\n    function borrowSC(address _StableCoin, uint256 _amount) public {\n        uint256 borrowedTotalInUSDC = getTotalBorrowedValue(msg.sender);\n        uint256 borrowLimitInUSDC = getBorrowLimit(msg.sender);\n        uint256 borrowAmountAllowedInUSDC = borrowLimitInUSDC.sub(\n            borrowedTotalInUSDC\n        );\n\n        uint256 borrowAmountInUSDC = getPriceOfToken(_StableCoin, _amount);\n\n        //require the amount being borrowed is less than or equal to the amount they are aloud to borrow\n        require(\n            borrowAmountAllowedInUSDC >= borrowAmountInUSDC,\n            \"Borrowing more than allowed\"\n        );\n\n        //retreive stablecoin vault address being borrowed from and instantiate it\n        WarpVaultSCI WV = WarpVaultSCI(instanceSCTracker[_StableCoin]);\n        //call _borrow function on the stablecoin warp vault\n        WV._borrow(_amount, msg.sender);\n        emit NewBorrow(msg.sender, _StableCoin, _amount);\n    }\n\n    /**\n    @notice liquidateAccount is used to liquidate a non-compliant loan after it has reached its 30 minute grace period\n    @param _borrower is the address of the borrower whos loan is non-compliant\n    **/\n    function liquidateAccount(address _borrower) public {\n        //require the liquidator is not also the borrower\n        require(msg.sender != _borrower, \"you cant liquidate yourself\");\n        //retreive the number of stablecoin vaults in the warp platform\n        uint256 numSCVaults = scVaults.length;\n        //retreive the number of LP vaults in the warp platform\n        uint256 numLPVaults = lpVaults.length;\n        // This is how much USDC worth of Stablecoin the user has borrowed\n        uint256 borrowedAmount = 0;\n        //initialize the stable coin balances array\n        uint256[] memory scBalances = new uint256[](numSCVaults);\n        // loop through and retreive the Borrowed Amount From All Vaults\n        for (uint256 i = 0; i < numSCVaults; ++i) {\n            //instantiate the vault at the current  position in the array\n            WarpVaultSCI scVault = WarpVaultSCI(scVaults[i]);\n            //retreive the borrowers borrow balance from this vault and add it to the scBalances array\n            scBalances[i] = scVault.borrowBalanceCurrent(_borrower);\n            uint256 borrowedAmountInUSDC = viewPriceOfToken(\n                getAssetByVault[address(scVault)],\n                scBalances[i]\n            );\n\n            //add the borrowed amount to the total borrowed balance\n            borrowedAmount = borrowedAmount.add(borrowedAmountInUSDC);\n        }\n        //retreve the USDC borrow limit for the borrower\n        uint256 borrowLimit = getBorrowLimit(_borrower);\n        //check if the borrow is less than the borrowed amount\n        if (borrowLimit <= borrowedAmount) {\n            // If it is Liquidate the account\n            //loop through each SC vault so the  Liquidator can pay off Stable Coin loans\n            for (uint256 i = 0; i < numSCVaults; ++i) {\n                //instantiate the Warp SC Vault at the current position\n                WarpVaultSCI scVault = WarpVaultSCI(scVaults[i]);\n                //call repayLiquidatedLoan function to repay the loan\n                scVault._repayLiquidatedLoan(\n                    _borrower,\n                    msg.sender,\n                    scBalances[i]\n                );\n            }\n            //loop through each LP vault so the Liquidator gets the LP tokens the borrower had\n            for (uint256 i = 0; i < numLPVaults; ++i) {\n                //instantiate the Warp LP Vault at the current position\n                WarpVaultLPI lpVault = WarpVaultLPI(lpVaults[i]);\n                //call liquidateAccount function on that LP vault\n                lpVault._liquidateAccount(_borrower, msg.sender);\n            }\n            emit Liquidation(_borrower, msg.sender);\n        }\n    }\n\n    /**\n    @notice updateInterestRateModel allows the warp team to update the interest rate model for a stablecoin\n    @param _token is the address of the stablecoin whos vault is having its interest rate updated\n    @param _baseRatePerYear is the base rate per year(approx target base APR)\n    @param _multiplierPerYear is the multiplier per year(rate of increase in interest w/ utilizastion)\n    @param _jumpMultiplierPerYear is the Jump Multiplier Per Year(the multiplier per block after hitting a specific utilizastion point)\n    @param _optimal is the this is the utilizastion point or \"kink\" at which the jump multiplier is applied\n    **/\n    function updateInterestRateModel(\n        address _token,\n        uint256 _baseRatePerYear,\n        uint256 _multiplierPerYear,\n        uint256 _jumpMultiplierPerYear,\n        uint256 _optimal\n    ) public onlyOwner {\n        address IR = address(\n            new JumpRateModelV2(\n                _baseRatePerYear,\n                _multiplierPerYear,\n                _jumpMultiplierPerYear,\n                _optimal,\n                address(this)\n            )\n        );\n        address vault = instanceSCTracker[_token];\n        WarpVaultSCI WV = WarpVaultSCI(vault);\n        WV.setNewInterestModel(IR);\n    }\n\n    /**\n    @notice startUpgradeTimer starts a two day timer signaling that this contract will soon be updated to a new version\n    @param _newWarpControl is the address of the new Warp control contract being upgraded to\n    **/\n    function startUpgradeTimer(address _newWarpControl) public onlyOwner {\n        newWarpControl = _newWarpControl;\n        graceSpace = now.add(172800);\n    }\n\n    /**\n    @notice upgradeWarp is used to upgrade the Warp platform to use a new version of the WarpControl contract\n    **/\n    function upgradeWarp() public onlyOwner {\n        require(now >= graceSpace, \"you cant ugrade yet, less than two days\");\n        require(newWarpControl != address(0), \"no new warp control set\");\n\n        Oracle.transferOwnership(newWarpControl);\n\n        uint256 numVaults = lpVaults.length;\n        uint256 numSCVaults = scVaults.length;\n\n        for (uint256 i = 0; i < numVaults; ++i) {\n            WarpVaultLPI vault = WarpVaultLPI(lpVaults[i]);\n            vault.updateWarpControl(newWarpControl);\n        }\n\n        for (uint256 i = 0; i < numSCVaults; ++i) {\n            WarpVaultSCI vault = WarpVaultSCI(scVaults[i]);\n            vault.updateWarpControl(newWarpControl);\n        }\n    }\n\n    /**\n    @notice transferWarpTeam allows the wapr team address to be changed by the owner account\n    @param _newWarp is the address of the new warp team\n    **/\n    function transferWarpTeam(address _newWarp) public onlyOwner {\n        uint256 numSCVaults = scVaults.length;\n        warpTeam = _newWarp;\n        for (uint256 i = 0; i < numSCVaults; ++i) {\n            WarpVaultSCI WVSC = WarpVaultSCI(scVaults[i]);\n            WVSC.updateTeam(_newWarp);\n        }\n    }\n}\n",
  "sourcePath": "/home/stan36/repos/Warp/Smart-Contracts/contracts/WarpControl.sol",
  "compiler": {
    "name": "solc",
    "version": "0.6.6+commit.6c089d02.Emscripten.clang"
  },
  "schemaVersion": "3.3.2",
  "updatedAt": "2020-12-13T23:33:48.349Z",
  "devdoc": {
    "methods": {
      "borrowSC(address,uint256)": {
        "params": {
          "_StableCoin": "is the address of the stablecoin the user wishes to borrow",
          "_amount": "is the amount of that stablecoin the user wants to borrow*"
        }
      },
      "calcBorrowLimit(uint256)": {
        "details": "this function divides the input value by 3 and then adds that value to itself so it can return 2/3rds of the availible collateral as the borrow limit. If a usser has $150 USDC value in collateral this function will return $100 USDC as their borrow limit.*",
        "params": {
          "_collateralValue": "is the USDC value of the users collateral"
        }
      },
      "calcCollateralRequired(uint256)": {
        "params": {
          "_borrowAmount": "is the input borrow amount*"
        }
      },
      "constructor": {
        "details": "These factories are split into seperate contracts to avoid hitting the block gas limit*",
        "params": {
          "_WVLPF": "is the address for the WarpVaultLPFactory used to produce LP Warp Vaults",
          "_WVSCF": "is the address for the WarpVaultSCFactory used to produce Stable Coin Warp Vaults",
          "_oracle": "is the address for the UniswapOracleFactorycontract"
        }
      },
      "createNewLPVault(uint256,address,address,address,string)": {
        "params": {
          "_lp": "is the address for the LP token this Warp Vault will manage",
          "_lpAsset1": "is the address for the first asset in a pair that the LP token represents(ex: wETH in a wETH-wBTC uniswap pair)",
          "_lpAsset2": "is the address for the second asset in a pair that the LP token represents(ex: wBTC in a wETH-wBTC uniswap pair)",
          "_lpName": "is the name of the LP token (ex:wETH-wBTC)*",
          "_timelock": "is a variable representing the number of seconds the timeWizard will prevent withdraws and borrows from a contracts(one week is 605800 seconds)"
        }
      },
      "createNewSCVault(uint256,uint256,uint256,uint256,uint256,uint256,uint256,address)": {
        "params": {
          "_StableCoin": "is the address of the StableCoin this Warp Vault will manage*",
          "_baseRatePerYear": "is the base rate per year(approx target base APR)",
          "_initialExchangeRate": "is the intitial exchange rate(the rate at which the initial exchange of asset/ART is set)",
          "_jumpMultiplierPerYear": "is the Jump Multiplier Per Year(the multiplier per block after hitting a specific utilizastion point)",
          "_multiplierPerYear": "is the multiplier per year(rate of increase in interest w/ utilizastion)",
          "_optimal": "is the this is the utilizastion point or \"kink\" at which the jump multiplier is applied",
          "_timelock": "is a variable representing the number of seconds the timeWizard will prevent withdraws and borrows from a contracts(one week is 605800 seconds)"
        }
      },
      "getBorrowLimit(address)": {
        "details": "this calculation uses current values for calculations*",
        "params": {
          "_account": "is the input account address"
        }
      },
      "getMaxWithdrawAllowed(address,address)": {
        "details": "this function runs calculations to accrue interest for an up to date amount",
        "params": {
          "account": "is the account being checked",
          "lpToken": "is the address of the lpToken the user wishes to withdraw"
        }
      },
      "getPriceOfCollateral(address)": {
        "details": "this function does not run calculations amd returns the previously calculated price*",
        "params": {
          "lpToken": "is the address of the lp token"
        }
      },
      "getPriceOfToken(address,uint256)": {
        "details": "this function does not run calculations amd returns the previously calculated price*",
        "params": {
          "amount": "is the amount of stablecoin",
          "token": "is the address of the stablecoin"
        }
      },
      "getTotalAvailableCollateralValue(address)": {
        "details": "this function runs calculations to accrue interest for an up to date amount*",
        "params": {
          "_account": "is the address whos collateral is being retreived"
        }
      },
      "getTotalBorrowedValue(address)": {
        "details": "this function returns newly calculated values*",
        "params": {
          "_account": "is the account whos borrowed value we are calculating"
        }
      },
      "liquidateAccount(address)": {
        "params": {
          "_borrower": "is the address of the borrower whos loan is non-compliant*"
        }
      },
      "owner()": {
        "details": "Returns the address of the current owner."
      },
      "renounceOwnership()": {
        "details": "Leaves the contract without owner. It will not be possible to call `onlyOwner` functions anymore. Can only be called by the current owner.     * NOTE: Renouncing ownership will leave the contract without an owner, thereby removing any functionality that is only available to the owner."
      },
      "startUpgradeTimer(address)": {
        "params": {
          "_newWarpControl": "is the address of the new Warp control contract being upgraded to*"
        }
      },
      "transferOwnership(address)": {
        "details": "Transfers ownership of the contract to a new account (`newOwner`). Can only be called by the current owner."
      },
      "transferWarpTeam(address)": {
        "params": {
          "_newWarp": "is the address of the new warp team*"
        }
      },
      "updateInterestRateModel(address,uint256,uint256,uint256,uint256)": {
        "params": {
          "_baseRatePerYear": "is the base rate per year(approx target base APR)",
          "_jumpMultiplierPerYear": "is the Jump Multiplier Per Year(the multiplier per block after hitting a specific utilizastion point)",
          "_multiplierPerYear": "is the multiplier per year(rate of increase in interest w/ utilizastion)",
          "_optimal": "is the this is the utilizastion point or \"kink\" at which the jump multiplier is applied*",
          "_token": "is the address of the stablecoin whos vault is having its interest rate updated"
        }
      },
      "viewBorrowLimit(address)": {
        "details": "this calculation uses previous values for calculations*",
        "params": {
          "_account": "is the input account address"
        }
      },
      "viewMaxWithdrawAllowed(address,address)": {
        "details": "this function does not run calculations to accrue interest and returns the previously calculated amount",
        "params": {
          "account": "is the account being checked",
          "lpToken": "is the address of the lpToken the user wishes to withdraw"
        }
      },
      "viewPriceOfCollateral(address)": {
        "details": "this function runs calculations to retrieve the current price*",
        "params": {
          "lpToken": "is the address of the lp token"
        }
      },
      "viewPriceOfToken(address,uint256)": {
        "details": "this function runs calculations to retrieve the current price*",
        "params": {
          "amount": "is the amount of stablecoin",
          "token": "is the address of the stablecoin"
        }
      },
      "viewTotalAvailableCollateralValue(address)": {
        "details": "this function does not run calculations to accrue interest and returns the previously calculated amount*",
        "params": {
          "_account": "is the address whos collateral is being retreived"
        }
      },
      "viewTotalBorrowedValue(address)": {
        "details": "this function returns previously calculated values*",
        "params": {
          "_account": "is the account whos borrowed value we are calculating"
        }
      },
      "viewTotalLentValue(address)": {
        "params": {
          "_account": "is the account whos lent value we are calculating*"
        }
      }
    }
  },
  "userdoc": {
    "methods": {
      "borrowSC(address,uint256)": {
        "notice": "borrowSC is the function an end user will call when they wish to borrow a stablecoin from the warp platform"
      },
      "calcBorrowLimit(uint256)": {
        "notice": "calcBorrowLimit is used to calculate the borrow limit for an account based on the input value of their collateral"
      },
      "calcCollateralRequired(uint256)": {
        "notice": "calcCollateralRequired returns the amount of collateral needed for an input borrow value"
      },
      "constructor": "the constructor function is fired during the contract deployment process. The constructor can only be fired once and is used to set up Oracle variables for the MoneyMarketFactory contract.",
      "createNewLPVault(uint256,address,address,address,string)": {
        "notice": "createNewLPVault allows the contract owner to create a new WarpVaultLP contract for a specific LP token"
      },
      "createNewSCVault(uint256,uint256,uint256,uint256,uint256,uint256,uint256,address)": {
        "notice": "createNewSCVault allows the contract owner to create a new WarpVaultLP contract for a specific LP token"
      },
      "getBorrowLimit(address)": {
        "notice": "getBorrowLimit returns the borrow limit for an account"
      },
      "getMaxWithdrawAllowed(address,address)": {
        "notice": "Figures out how much of a given LP token an account is allowed to withdraw"
      },
      "getPriceOfCollateral(address)": {
        "notice": "getPriceOfCollateral returns the price of an lpToken"
      },
      "getPriceOfToken(address,uint256)": {
        "notice": "viewPriceOfToken retrieves the price of a stablecoin"
      },
      "getTotalAvailableCollateralValue(address)": {
        "notice": "getTotalAvailableCollateralValue returns the total availible collaeral value for an account in USDC"
      },
      "getTotalBorrowedValue(address)": {
        "notice": "viewTotalBorrowedValue returns the total borrowed value for an account in USDC"
      },
      "liquidateAccount(address)": {
        "notice": "liquidateAccount is used to liquidate a non-compliant loan after it has reached its 30 minute grace period"
      },
      "startUpgradeTimer(address)": {
        "notice": "startUpgradeTimer starts a two day timer signaling that this contract will soon be updated to a new version"
      },
      "transferWarpTeam(address)": {
        "notice": "transferWarpTeam allows the wapr team address to be changed by the owner account"
      },
      "updateInterestRateModel(address,uint256,uint256,uint256,uint256)": {
        "notice": "updateInterestRateModel allows the warp team to update the interest rate model for a stablecoin"
      },
      "upgradeWarp()": {
        "notice": "upgradeWarp is used to upgrade the Warp platform to use a new version of the WarpControl contract*"
      },
      "viewBorrowLimit(address)": {
        "notice": "getBorrowLimit returns the borrow limit for an account"
      },
      "viewMaxWithdrawAllowed(address,address)": {
        "notice": "Figures out how much of a given LP token an account is allowed to withdraw"
      },
      "viewNumLPVaults()": {
        "notice": "viewNumLPVaults returns the number of lp vaults on the warp platform*"
      },
      "viewNumSCVaults()": {
        "notice": "viewNumSCVaults returns the number of stablecoin vaults on the warp platform*"
      },
      "viewPriceOfCollateral(address)": {
        "notice": "viewPriceOfCollateral returns the price of an lpToken"
      },
      "viewPriceOfToken(address,uint256)": {
        "notice": "viewPriceOfToken retrieves the price of a stablecoin"
      },
      "viewTotalAvailableCollateralValue(address)": {
        "notice": "getTotalAvailableCollateralValue returns the total availible collaeral value for an account in USDC"
      },
      "viewTotalBorrowedValue(address)": {
        "notice": "viewTotalBorrowedValue returns the total borrowed value for an account in USDC"
      },
      "viewTotalLentValue(address)": {
        "notice": "viewTotalLentValue returns the total lent value for an account in USDC"
      }
    },
    "notice": "WarpControl is designed to coordinate Warp Vaults This contract uses the OpenZeppelin contract Library to inherit functions from Ownable.sol*"
  }
}