{
  "contractName": "WarpControl",
  "abi": [
    {
      "inputs": [
        {
          "internalType": "address",
          "name": "_oracle",
          "type": "address"
        },
        {
          "internalType": "address",
          "name": "_WVLPF",
          "type": "address"
        },
        {
          "internalType": "address",
          "name": "_WVSCF",
          "type": "address"
        }
      ],
      "stateMutability": "nonpayable",
      "type": "constructor"
    },
    {
      "anonymous": false,
      "inputs": [
        {
          "indexed": true,
          "internalType": "address",
          "name": "previousOwner",
          "type": "address"
        },
        {
          "indexed": true,
          "internalType": "address",
          "name": "newOwner",
          "type": "address"
        }
      ],
      "name": "OwnershipTransferred",
      "type": "event"
    },
    {
      "inputs": [],
      "name": "Oracle",
      "outputs": [
        {
          "internalType": "contract UniswapLPOracleFactoryI",
          "name": "",
          "type": "address"
        }
      ],
      "stateMutability": "view",
      "type": "function"
    },
    {
      "inputs": [],
      "name": "WVLPF",
      "outputs": [
        {
          "internalType": "contract WarpVaultLPFactoryI",
          "name": "",
          "type": "address"
        }
      ],
      "stateMutability": "view",
      "type": "function"
    },
    {
      "inputs": [],
      "name": "WVSCF",
      "outputs": [
        {
          "internalType": "contract WarpVaultSCFactoryI",
          "name": "",
          "type": "address"
        }
      ],
      "stateMutability": "view",
      "type": "function"
    },
    {
      "inputs": [
        {
          "internalType": "address",
          "name": "",
          "type": "address"
        }
      ],
      "name": "instanceLPTracker",
      "outputs": [
        {
          "internalType": "address",
          "name": "",
          "type": "address"
        }
      ],
      "stateMutability": "view",
      "type": "function"
    },
    {
      "inputs": [
        {
          "internalType": "address",
          "name": "",
          "type": "address"
        }
      ],
      "name": "instanceSCTracker",
      "outputs": [
        {
          "internalType": "address",
          "name": "",
          "type": "address"
        }
      ],
      "stateMutability": "view",
      "type": "function"
    },
    {
      "inputs": [],
      "name": "liquidationIncentiveMantissa",
      "outputs": [
        {
          "internalType": "uint256",
          "name": "",
          "type": "uint256"
        }
      ],
      "stateMutability": "view",
      "type": "function"
    },
    {
      "inputs": [
        {
          "internalType": "uint256",
          "name": "",
          "type": "uint256"
        }
      ],
      "name": "lpVaults",
      "outputs": [
        {
          "internalType": "address",
          "name": "",
          "type": "address"
        }
      ],
      "stateMutability": "view",
      "type": "function"
    },
    {
      "inputs": [],
      "name": "owner",
      "outputs": [
        {
          "internalType": "address",
          "name": "",
          "type": "address"
        }
      ],
      "stateMutability": "view",
      "type": "function"
    },
    {
      "inputs": [],
      "name": "renounceOwnership",
      "outputs": [],
      "stateMutability": "nonpayable",
      "type": "function"
    },
    {
      "inputs": [
        {
          "internalType": "uint256",
          "name": "",
          "type": "uint256"
        }
      ],
      "name": "scVaults",
      "outputs": [
        {
          "internalType": "address",
          "name": "",
          "type": "address"
        }
      ],
      "stateMutability": "view",
      "type": "function"
    },
    {
      "inputs": [
        {
          "internalType": "address",
          "name": "newOwner",
          "type": "address"
        }
      ],
      "name": "transferOwnership",
      "outputs": [],
      "stateMutability": "nonpayable",
      "type": "function"
    },
    {
      "inputs": [
        {
          "internalType": "address",
          "name": "_lp",
          "type": "address"
        },
        {
          "internalType": "address",
          "name": "_lpAsset1",
          "type": "address"
        },
        {
          "internalType": "address",
          "name": "_lpAsset2",
          "type": "address"
        },
        {
          "internalType": "string",
          "name": "_lpName",
          "type": "string"
        }
      ],
      "name": "createNewLPVault",
      "outputs": [],
      "stateMutability": "nonpayable",
      "type": "function"
    },
    {
      "inputs": [
        {
          "internalType": "uint256",
          "name": "_baseRatePerYear",
          "type": "uint256"
        },
        {
          "internalType": "uint256",
          "name": "_multiplierPerYear",
          "type": "uint256"
        },
        {
          "internalType": "uint256",
          "name": "_jumpMultiplierPerYear",
          "type": "uint256"
        },
        {
          "internalType": "uint256",
          "name": "_optimal",
          "type": "uint256"
        },
        {
          "internalType": "uint256",
          "name": "_initialExchangeRate",
          "type": "uint256"
        },
        {
          "internalType": "address",
          "name": "_StableCoin",
          "type": "address"
        },
        {
          "internalType": "string",
          "name": "_stableCoinName",
          "type": "string"
        },
        {
          "internalType": "string",
          "name": "_stableCoinSymbol",
          "type": "string"
        }
      ],
      "name": "createNewSCVault",
      "outputs": [],
      "stateMutability": "nonpayable",
      "type": "function"
    },
    {
      "inputs": [
        {
          "internalType": "address",
          "name": "_borrower",
          "type": "address"
        },
        {
          "internalType": "address",
          "name": "_WVLP",
          "type": "address"
        },
        {
          "internalType": "uint256",
          "name": "_amount",
          "type": "uint256"
        }
      ],
      "name": "lockCollateralUp",
      "outputs": [],
      "stateMutability": "nonpayable",
      "type": "function"
    },
    {
      "inputs": [
        {
          "internalType": "address",
          "name": "_borrower",
          "type": "address"
        },
        {
          "internalType": "address",
          "name": "_redeemer",
          "type": "address"
        },
        {
          "internalType": "address",
          "name": "_WVLP",
          "type": "address"
        },
        {
          "internalType": "uint256",
          "name": "_amount",
          "type": "uint256"
        }
      ],
      "name": "lockCollateralDown",
      "outputs": [],
      "stateMutability": "nonpayable",
      "type": "function"
    },
    {
      "inputs": [
        {
          "internalType": "address",
          "name": "_LP",
          "type": "address"
        }
      ],
      "name": "checkLPprice",
      "outputs": [
        {
          "internalType": "uint256",
          "name": "",
          "type": "uint256"
        }
      ],
      "stateMutability": "view",
      "type": "function"
    },
    {
      "inputs": [
        {
          "internalType": "address",
          "name": "_borrower",
          "type": "address"
        },
        {
          "internalType": "address",
          "name": "collateralVault",
          "type": "address"
        }
      ],
      "name": "checkLockedCollateral",
      "outputs": [
        {
          "internalType": "uint256",
          "name": "",
          "type": "uint256"
        }
      ],
      "stateMutability": "view",
      "type": "function"
    },
    {
      "inputs": [
        {
          "internalType": "address",
          "name": "_borrower",
          "type": "address"
        },
        {
          "internalType": "address",
          "name": "_WarpVault",
          "type": "address"
        }
      ],
      "name": "checkAvailibleCollateralValue",
      "outputs": [
        {
          "internalType": "uint256",
          "name": "",
          "type": "uint256"
        }
      ],
      "stateMutability": "view",
      "type": "function"
    },
    {
      "inputs": [
        {
          "internalType": "address",
          "name": "account",
          "type": "address"
        }
      ],
      "name": "checkTotalAvailableCollateralValue",
      "outputs": [
        {
          "internalType": "uint256",
          "name": "",
          "type": "uint256"
        }
      ],
      "stateMutability": "view",
      "type": "function"
    },
    {
      "inputs": [
        {
          "internalType": "address",
          "name": "_borrower",
          "type": "address"
        },
        {
          "internalType": "address",
          "name": "_WarpVault",
          "type": "address"
        }
      ],
      "name": "checkLockedCollateralValue",
      "outputs": [
        {
          "internalType": "uint256",
          "name": "",
          "type": "uint256"
        }
      ],
      "stateMutability": "view",
      "type": "function"
    }
  ],
  "bytecode": "0x60806040526714d1120d7b16000060015534801561001c57600080fd5b5060405161206a38038061206a8339818101604052606081101561003f57600080fd5b508051602082015160409092015190919060006100636001600160e01b036100ef16565b600080546001600160a01b0319166001600160a01b0383169081178255604051929350917f8be0079c531659141344cd1fd0a4f28419497f9722a3daafe3b4186f6b6457e0908290a350600280546001600160a01b039485166001600160a01b0319918216179091556003805493851693821693909317909255600480549190931691161790556100f3565b3390565b611f68806101026000396000f3fe60806040523480156200001157600080fd5b5060043610620001125760003560e01c80630c1e2b921462000117578063258cdd9a146200015c5780633726ff7614620002be5780634ada90af14620003015780636012b431146200030b57806362226308146200033c5780636af5f752146200035c578063715018a614620003665780637a96aa6114620003705780637ed2d49514620003af5780638736599814620003d85780638da5cb5b1462000411578063acc9e5b1146200041b578063b04207921462000444578063b341175a1462000464578063dba80101146200048d578063e198077f14620004be578063efdebdf51462000589578063f24a534e1462000593578063f2fde38b146200059d575b600080fd5b62000140600480360360208110156200012f57600080fd5b50356001600160a01b0316620005c6565b604080516001600160a01b039092168252519081900360200190f35b620002bc60048036036101008110156200017557600080fd5b8135916020810135916040820135916060810135916080820135916001600160a01b0360a0820135169181019060e0810160c0820135600160201b811115620001bd57600080fd5b820183602082011115620001d057600080fd5b803590602001918460018302840111600160201b83111715620001f257600080fd5b91908080601f0160208091040260200160405190810160405280939291908181526020018383808284376000920191909152509295949360208101935035915050600160201b8111156200024557600080fd5b8201836020820111156200025857600080fd5b803590602001918460018302840111600160201b831117156200027a57600080fd5b91908080601f016020809104026020016040519081016040528093929190818152602001838380828437600092019190915250929550620005e1945050505050565b005b620002ef60048036036040811015620002d657600080fd5b506001600160a01b0381358116916020013516620008a6565b60408051918252519081900360200190f35b620002ef62000a40565b620002ef600480360360408110156200032357600080fd5b506001600160a01b038135811691602001351662000a46565b62000140600480360360208110156200035457600080fd5b503562000b89565b6200014062000bb1565b620002bc62000bc0565b620002bc600480360360808110156200038857600080fd5b506001600160a01b0381358116916020810135821691604082013516906060013562000c55565b620002ef60048036036020811015620003c757600080fd5b50356001600160a01b031662000cd7565b620002bc60048036036060811015620003f057600080fd5b506001600160a01b0381358116916020810135909116906040013562000d5d565b6200014062000dd6565b62000140600480360360208110156200043357600080fd5b50356001600160a01b031662000de5565b62000140600480360360208110156200045c57600080fd5b503562000e00565b620002ef600480360360208110156200047c57600080fd5b50356001600160a01b031662000e0e565b620002ef60048036036040811015620004a557600080fd5b506001600160a01b038135811691602001351662000ff2565b620002bc60048036036080811015620004d657600080fd5b6001600160a01b0382358116926020810135821692604082013590921691810190608081016060820135600160201b8111156200051257600080fd5b8201836020820111156200052557600080fd5b803590602001918460018302840111600160201b831117156200054757600080fd5b91908080601f0160208091040260200160405190810160405280939291908181526020018383808284376000920191909152509295506200107f945050505050565b62000140620012ae565b62000140620012bd565b620002bc60048036036020811015620005b557600080fd5b50356001600160a01b0316620012cc565b6008602052600090815260409020546001600160a01b031681565b620005eb620013b9565b6000546001600160a01b039081169116146200063d576040805162461bcd60e51b8152602060048201819052602482015260008051602062001ef3833981519152604482015290519081900360640190fd5b6000888888883060405162000652906200147b565b948552602085019390935260408085019290925260608401526001600160a01b039091166080830152519081900360a001906000f0801580156200069a573d6000803e3d6000fd5b5090506000600460009054906101000a90046001600160a01b03166001600160a01b031663126125bd83878988886040518663ffffffff1660e01b815260040180866001600160a01b03166001600160a01b03168152602001856001600160a01b03166001600160a01b031681526020018481526020018060200180602001838103835285818151815260200191508051906020019080838360005b838110156200075057818101518382015260200162000736565b50505050905090810190601f1680156200077e5780820380516001836020036101000a031916815260200191505b50838103825284518152845160209182019186019080838360005b83811015620007b357818101518382015260200162000799565b50505050905090810190601f168015620007e15780820380516001836020036101000a031916815260200191505b50975050505050505050602060405180830381600087803b1580156200080657600080fd5b505af11580156200081b573d6000803e3d6000fd5b505050506040513d60208110156200083257600080fd5b50516001600160a01b0395861660009081526008602052604081208054979092166001600160a01b031997881681179092556006805460018101825591527ff652222313e28459528d920b65115c16c04f3efc82aaedc97be59f3f377c0d3f01805490961617909455505050505050505050565b6000808290506000816001600160a01b0316634c20ac746040518163ffffffff1660e01b815260040160206040518083038186803b158015620008e857600080fd5b505afa158015620008fd573d6000803e3d6000fd5b505050506040513d60208110156200091457600080fd5b50516002546040805163fc57d4df60e01b81526001600160a01b0380851660048301529151939450600093919092169163fc57d4df916024808301926020929190829003018186803b1580156200096a57600080fd5b505afa1580156200097f573d6000803e3d6000fd5b505050506040513d60208110156200099657600080fd5b5051604080516323fc902d60e11b81526001600160a01b03898116600483015288811660248301529151929350600092918616916347f9205a91604480820192602092909190829003018186803b158015620009f157600080fd5b505afa15801562000a06573d6000803e3d6000fd5b505050506040513d602081101562000a1d57600080fd5b5051905062000a33818363ffffffff620013bd16565b9450505050505b92915050565b60015481565b6000808290506000816001600160a01b0316634c20ac746040518163ffffffff1660e01b815260040160206040518083038186803b15801562000a8857600080fd5b505afa15801562000a9d573d6000803e3d6000fd5b505050506040513d602081101562000ab457600080fd5b50516002546040805163fc57d4df60e01b81526001600160a01b0380851660048301529151939450600093919092169163fc57d4df916024808301926020929190829003018186803b15801562000b0a57600080fd5b505afa15801562000b1f573d6000803e3d6000fd5b505050506040513d602081101562000b3657600080fd5b505160408051632711999760e21b81526001600160a01b038981166004830152915192935060009291861691639c46665c91602480820192602092909190829003018186803b158015620009f157600080fd5b6005818154811062000b9757fe5b6000918252602090912001546001600160a01b0316905081565b6003546001600160a01b031681565b62000bca620013b9565b6000546001600160a01b0390811691161462000c1c576040805162461bcd60e51b8152602060048201819052602482015260008051602062001ef3833981519152604482015290519081900360640190fd5b600080546040516001600160a01b039091169060008051602062001f13833981519152908390a3600080546001600160a01b0319169055565b60408051633834bd7f60e11b81526001600160a01b03868116600483015285811660248301528416604482018190526064820184905291518492916370697afe91608480830192600092919082900301818387803b15801562000cb757600080fd5b505af115801562000ccc573d6000803e3d6000fd5b505050505050505050565b6002546040805163fc57d4df60e01b81526001600160a01b0384811660048301529151600093929092169163fc57d4df91602480820192602092909190829003018186803b15801562000d2957600080fd5b505afa15801562000d3e573d6000803e3d6000fd5b505050506040513d602081101562000d5557600080fd5b505192915050565b6040805163172bc11560e21b81526001600160a01b038581166004830152841660248201819052604482018490529151849291635caf045491606480830192600092919082900301818387803b15801562000db757600080fd5b505af115801562000dcc573d6000803e3d6000fd5b5050505050505050565b6000546001600160a01b031690565b6007602052600090815260409020546001600160a01b031681565b6006818154811062000b9757fe5b60055460009081805b8281101562000fea5760006005828154811062000e3057fe5b6000918252602080832090910154604080516313082b1d60e21b815290516001600160a01b0390921694508492634c20ac7492600480840193829003018186803b15801562000e7e57600080fd5b505afa15801562000e93573d6000803e3d6000fd5b505050506040513d602081101562000eaa57600080fd5b50516002546040805163fc57d4df60e01b81526001600160a01b0380851660048301529151939450600093919092169163fc57d4df916024808301926020929190829003018186803b15801562000f0057600080fd5b505afa15801562000f15573d6000803e3d6000fd5b505050506040513d602081101562000f2c57600080fd5b5051604080516370a0823160e01b81526001600160a01b038b811660048301529151929350600092918516916370a0823191602480820192602092909190829003018186803b15801562000f7f57600080fd5b505afa15801562000f94573d6000803e3d6000fd5b505050506040513d602081101562000fab57600080fd5b50519050600062000fc3828463ffffffff620013bd16565b905062000fd7878263ffffffff6200142216565b9650505050505080600101905062000e17565b509392505050565b604080516323fc902d60e11b81526001600160a01b0384811660048301528316602482018190529151600092849290916347f9205a91604480820192602092909190829003018186803b1580156200104957600080fd5b505afa1580156200105e573d6000803e3d6000fd5b505050506040513d60208110156200107557600080fd5b5051949350505050565b62001089620013b9565b6000546001600160a01b03908116911614620010db576040805162461bcd60e51b8152602060048201819052602482015260008051602062001ef3833981519152604482015290519081900360640190fd5b60025460408051634a42dd6d60e11b81526001600160a01b0386811660048301528581166024830152878116604483015291519190921691639485bada91606480830192600092919082900301818387803b1580156200113a57600080fd5b505af11580156200114f573d6000803e3d6000fd5b505060035460408051631d75e5c160e21b81526001600160a01b038981166004830190815260248301938452875160448401528751600097509190941694506375d79704938a938893919290916064019060208501908083838c5b83811015620011c4578181015183820152602001620011aa565b50505050905090810190601f168015620011f25780820380516001836020036101000a031916815260200191505b509350505050602060405180830381600087803b1580156200121357600080fd5b505af115801562001228573d6000803e3d6000fd5b505050506040513d60208110156200123f57600080fd5b50516001600160a01b0395861660009081526007602052604081208054979092166001600160a01b031997881681179092556005805460018101825591527f036b6384b5eca791c62761152d0c79bb0604c104a5fb6f4eb0703f3154bb3db00180549096161790945550505050565b6004546001600160a01b031681565b6002546001600160a01b031681565b620012d6620013b9565b6000546001600160a01b0390811691161462001328576040805162461bcd60e51b8152602060048201819052602482015260008051602062001ef3833981519152604482015290519081900360640190fd5b6001600160a01b0381166200136f5760405162461bcd60e51b815260040180806020018281038252602681526020018062001eac6026913960400191505060405180910390fd5b600080546040516001600160a01b038085169392169160008051602062001f1383398151915291a3600080546001600160a01b0319166001600160a01b0392909216919091179055565b3390565b600082620013ce5750600062000a3a565b82820282848281620013dc57fe5b04146200141b5760405162461bcd60e51b815260040180806020018281038252602181526020018062001ed26021913960400191505060405180910390fd5b9392505050565b6000828201838110156200141b576040805162461bcd60e51b815260206004820152601b60248201527a536166654d6174683a206164646974696f6e206f766572666c6f7760281b604482015290519081900360640190fd5b610a22806200148a8339019056fe608060405234801561001057600080fd5b50604051610a22380380610a22833981810160405260a081101561003357600080fd5b508051602082015160408301516060840151608090940151600080546001600160a01b0319166001600160a01b03831617905592939192909190848484848461007e8585858561008d565b505050505050505050506102bc565b6100a7622014808561017060201b61057e1790919060201c565b6002556100f66100c562201480836101c1602090811b61052517901c565b6100e4670de0b6b3a7640000866101c160201b6105251790919060201c565b61017060201b61057e1790919060201c565b6001556101118262201480610170602090811b61057e17901c565b60038190556004829055600254600154604080519283526020830191909152818101929092526060810183905290517f6960ab234c7ef4b0c9197100f5393cfcde7c453ac910a27bd2000aa1dd4c068d9181900360800190a150505050565b60006101b883836040518060400160405280601a81526020017f536166654d6174683a206469766973696f6e206279207a65726f00000000000081525061021a60201b60201c565b90505b92915050565b6000826101d0575060006101bb565b828202828482816101dd57fe5b04146101b85760405162461bcd60e51b8152600401808060200182810382526021815260200180610a016021913960400191505060405180910390fd5b600081836102a65760405162461bcd60e51b81526004018080602001828103825283818151815260200191508051906020019080838360005b8381101561026b578181015183820152602001610253565b50505050905090810190601f1680156102985780820380516001836020036101000a031916815260200191505b509250505060405180910390fd5b5060008385816102b257fe5b0495945050505050565b610736806102cb6000396000f3fe608060405234801561001057600080fd5b506004361061008e5760003560e01c806315f24053146100935780632037f3e7146100ce5780636e71e2d8146100ff5780638726bb89146101285780638da5cb5b14610130578063a385fb9614610154578063b81688161461015c578063b9f9850a1461018b578063f14039de14610193578063fd2da3391461019b575b600080fd5b6100bc600480360360608110156100a957600080fd5b50803590602081013590604001356101a3565b60408051918252519081900360200190f35b6100fd600480360360808110156100e457600080fd5b50803590602081013590604081013590606001356101ba565b005b6100bc6004803603606081101561011557600080fd5b5080359060208101359060400135610215565b6100bc61026b565b610138610271565b604080516001600160a01b039092168252519081900360200190f35b6100bc610280565b6100bc6004803603608081101561017257600080fd5b5080359060208101359060408101359060600135610287565b6100bc610306565b6100bc61030c565b6100bc610312565b60006101b0848484610318565b90505b9392505050565b6000546001600160a01b031633146102035760405162461bcd60e51b81526004018080602001828103825260268152602001806106db6026913960400191505060405180910390fd5b61020f848484846103e1565b50505050565b600082610224575060006101b3565b6101b06102478361023b878763ffffffff61048216565b9063ffffffff6104e316565b61025f85670de0b6b3a764000063ffffffff61052516565b9063ffffffff61057e16565b60015481565b6000546001600160a01b031681565b6220148081565b6000806102a2670de0b6b3a76400008463ffffffff6104e316565b905060006102b1878787610318565b905060006102d1670de0b6b3a764000061025f848663ffffffff61052516565b90506102fa670de0b6b3a764000061025f836102ee8c8c8c610215565b9063ffffffff61052516565b98975050505050505050565b60035481565b60025481565b60045481565b600080610326858585610215565b9050600454811161036c57610364600254610358670de0b6b3a764000061025f6001548661052590919063ffffffff16565b9063ffffffff61048216565b9150506101b3565b6000610397600254610358670de0b6b3a764000061025f60015460045461052590919063ffffffff16565b905060006103b0600454846104e390919063ffffffff16565b90506103d782610358670de0b6b3a764000061025f6003548661052590919063ffffffff16565b93505050506101b3565b6103f4846220148063ffffffff61057e16565b60025561040d610247622014808363ffffffff61052516565b600155610423826220148063ffffffff61057e16565b60038190556004829055600254600154604080519283526020830191909152818101929092526060810183905290517f6960ab234c7ef4b0c9197100f5393cfcde7c453ac910a27bd2000aa1dd4c068d9181900360800190a150505050565b6000828201838110156104da576040805162461bcd60e51b815260206004820152601b60248201527a536166654d6174683a206164646974696f6e206f766572666c6f7760281b604482015290519081900360640190fd5b90505b92915050565b60006104da83836040518060400160405280601e81526020017f536166654d6174683a207375627472616374696f6e206f766572666c6f7700008152506105bd565b600082610534575060006104dd565b8282028284828161054157fe5b04146104da5760405162461bcd60e51b81526004018080602001828103825260218152602001806106ba6021913960400191505060405180910390fd5b60006104da83836040518060400160405280601a815260200179536166654d6174683a206469766973696f6e206279207a65726f60301b815250610654565b6000818484111561064c5760405162461bcd60e51b81526004018080602001828103825283818151815260200191508051906020019080838360005b838110156106115781810151838201526020016105f9565b50505050905090810190601f16801561063e5780820380516001836020036101000a031916815260200191505b509250505060405180910390fd5b505050900390565b600081836106a35760405162461bcd60e51b81526020600482018181528351602484015283519092839260449091019190850190808383600083156106115781810151838201526020016105f9565b5060008385816106af57fe5b049594505050505056fe536166654d6174683a206d756c7469706c69636174696f6e206f766572666c6f776f6e6c7920746865206f776e6572206d61792063616c6c20746869732066756e6374696f6e2ea264697066735822122035d6d0aa1f8af11c35463166a687a3478a7b8a918059f546ac03fced611ef87a64736f6c63430006060033536166654d6174683a206d756c7469706c69636174696f6e206f766572666c6f774f776e61626c653a206e6577206f776e657220697320746865207a65726f2061646472657373536166654d6174683a206d756c7469706c69636174696f6e206f766572666c6f774f776e61626c653a2063616c6c6572206973206e6f7420746865206f776e65728be0079c531659141344cd1fd0a4f28419497f9722a3daafe3b4186f6b6457e0a2646970667358221220e61b575b6bb4003987d5b63a3708424574ac5affbc26a485183cd0b86c867f1064736f6c63430006060033",
  "immutableReferences": {},
  "source": "pragma solidity ^0.6.0;\r\n\r\nimport \"@openzeppelin/contracts/access/Ownable.sol\";\r\nimport \"@openzeppelin/contracts/math/SafeMath.sol\";\r\nimport \"@openzeppelin/contracts/token/ERC20/IERC20.sol\";\r\nimport \"./interfaces/WarpVaultSCI.sol\";\r\nimport \"./interfaces/WarpVaultLPI.sol\";\r\nimport \"./interfaces/WarpVaultLPFactoryI.sol\";\r\nimport \"./interfaces/WarpVaultSCFactoryI.sol\";\r\nimport \"./interfaces/UniswapLPOracleFactoryI.sol\";\r\nimport \"./compound/JumpRateModelV2.sol\";\r\nimport \"./compound/Exponential.sol\";\r\n\r\n////////////////////////////////////////////////////////////////////////////////////////////\r\n/// @title WarpControl\r\n/// @author Christopher Dixon\r\n////////////////////////////////////////////////////////////////////////////////////////////\r\n/**\r\nWarpControl is designed to coordinate Warp Vaults\r\nThis contract uses the OpenZeppelin contract Library to inherit functions from\r\n  Ownable.sol\r\n**/\r\n\r\ncontract WarpControl is Ownable, Exponential {\r\n    using SafeMath for uint256;\r\n\r\n    uint256 public liquidationIncentiveMantissa = 1.5e18; // 1.5\r\n\r\n    UniswapLPOracleFactoryI public Oracle; //oracle factory contract interface\r\n    WarpVaultLPFactoryI public WVLPF;\r\n    WarpVaultSCFactoryI public WVSCF;\r\n\r\n    address[] public lpVaults;\r\n    address[] public scVaults;\r\n\r\n    mapping(address => address) public instanceLPTracker; //maps LP token address to the assets WarpVault\r\n    mapping(address => address) public instanceSCTracker;\r\n\r\n    /**\r\n@notice the constructor function is fired during the contract deployment process. The constructor can only be fired once and\r\n        is used to set up Oracle variables for the MoneyMarketFactory contract.\r\n@param _oracle is the address for the UniswapOracleFactorycontract\r\n**/\r\n    constructor(\r\n        address _oracle,\r\n        address _WVLPF,\r\n        address _WVSCF\r\n    ) public {\r\n        Oracle = UniswapLPOracleFactoryI(_oracle);\r\n        WVLPF = WarpVaultLPFactoryI(_WVLPF);\r\n        WVSCF = WarpVaultSCFactoryI(_WVSCF);\r\n    }\r\n\r\n    /**\r\n@notice createNewVault allows the contract owner to create a new WarpVaultLP contract along with its associated Warp Wrapper Tokens\r\n**/\r\n    function createNewLPVault(\r\n        address _lp,\r\n        address _lpAsset1,\r\n        address _lpAsset2,\r\n        string memory _lpName\r\n    ) public onlyOwner {\r\n        Oracle.createNewOracles(_lpAsset1, _lpAsset2, _lp);\r\n        address _WarpVault = WVLPF.createWarpVaultLP(_lp, _lpName);\r\n        instanceLPTracker[_lp] = _WarpVault;\r\n        lpVaults.push(_WarpVault);\r\n    }\r\n\r\n    function createNewSCVault(\r\n        uint256 _baseRatePerYear,\r\n        uint256 _multiplierPerYear,\r\n        uint256 _jumpMultiplierPerYear,\r\n        uint256 _optimal,\r\n        uint256 _initialExchangeRate,\r\n        address _StableCoin,\r\n        string memory _stableCoinName,\r\n        string memory _stableCoinSymbol\r\n    ) public onlyOwner {\r\n        address IR = address(\r\n            new JumpRateModelV2(\r\n                _baseRatePerYear,\r\n                _multiplierPerYear,\r\n                _jumpMultiplierPerYear,\r\n                _optimal,\r\n                address(this)\r\n            )\r\n        );\r\n\r\n        address WVSC = WVSCF.createNewWarpVaultSC(\r\n            IR,\r\n            _StableCoin,\r\n            _initialExchangeRate,\r\n            _stableCoinName,\r\n            _stableCoinSymbol\r\n        );\r\n        instanceSCTracker[_StableCoin] = WVSC;\r\n        scVaults.push(WVSC);\r\n    }\r\n\r\n    /**\r\n  @notice lockCollateralUp is an external function used to track locked collateral amounts globally as they increase\r\n  @param _borrower is the address of the borrower\r\n  @param _amount is the USDC value thats looking to be locked up\r\n  **/\r\n    function lockCollateralUp(\r\n        address _borrower,\r\n        address _WVLP,\r\n        uint256 _amount\r\n    ) external {\r\n        WarpVaultLPI WV = WarpVaultLPI(_WVLP);\r\n        WV.lockWLP(_borrower, _WVLP, _amount);\r\n    }\r\n\r\n    /**\r\n   @notice lockCollateralDown is an external function used to track locked collateral amounts globally as they decrease\r\n   @param _borrower is the address of the borrower\r\n   @param _amount is the amount of LP being collateralized\r\n   **/\r\n    function lockCollateralDown(\r\n        address _borrower,\r\n        address _redeemer,\r\n        address _WVLP,\r\n        uint256 _amount\r\n    ) external {\r\n        WarpVaultLPI WV = WarpVaultLPI(_WVLP);\r\n        WV.unlockWLP(_borrower, _redeemer, _WVLP, _amount);\r\n    }\r\n\r\n    function checkLPprice(address _LP) public view returns (uint256) {\r\n        return Oracle.getUnderlyingPrice(_LP);\r\n    }\r\n\r\n    function checkLockedCollateral(address _borrower, address collateralVault)\r\n        public\r\n        view\r\n        returns (uint256)\r\n    {\r\n        WarpVaultLPI WV = WarpVaultLPI(collateralVault);\r\n        return WV.lockedWLPbalanceOf(_borrower, collateralVault);\r\n    }\r\n\r\n    /**\r\n@notice checkCollateralValue is a view function that accepts an account address and returns the total USDC value\r\n        of the accounts locked collateral\r\n@param _borrower is the address whos collateral value we are looking up\r\n **/\r\n    function checkAvailibleCollateralValue(\r\n        address _borrower,\r\n        address _WarpVault\r\n    ) external view returns (uint256) {\r\n        //instantiate warp vault at that position\r\n        WarpVaultLPI WV = WarpVaultLPI(_WarpVault);\r\n        //retreive the address of its asset\r\n        address asset = WV.getAssetAdd();\r\n        //retrieve USD price of this asset\r\n        uint256 priceOfAsset = Oracle.getUnderlyingPrice(asset);\r\n        //retrieve the amount of the asset locked as collateral\r\n        uint256 amountOfAssetCollat = WV.lpBalanceOf(_borrower);\r\n        //multiply the amount of collateral by the asset price and return it\r\n        return amountOfAssetCollat.mul(priceOfAsset);\r\n    }\r\n    \r\n    function checkTotalAvailableCollateralValue(address account) external view returns (uint256) {\r\n        uint numVaults = lpVaults.length;\r\n        uint256 totalCollateral = 0;\r\n\r\n        for (uint i = 0; i < numVaults; ++i) {\r\n            WarpVaultLPI vault = WarpVaultLPI(lpVaults[i]);\r\n            address asset = vault.getAssetAdd();\r\n            uint256 assetPrice = Oracle.getUnderlyingPrice(asset);\r\n            uint256 accountAssets = IERC20(asset).balanceOf(account);\r\n            uint256 accountAssetsValue = accountAssets.mul(assetPrice);\r\n            totalCollateral = totalCollateral.add(accountAssetsValue);\r\n        }\r\n\r\n        return totalCollateral;\r\n    }\r\n\r\n    /**\r\n    @notice checkCollateralValue is a view function that accepts an account address and returns the total USDC value\r\n            of the accounts locked collateral\r\n    @param _borrower is the address whos collateral value we are looking up\r\n     **/\r\n    function checkLockedCollateralValue(address _borrower, address _WarpVault)\r\n        external\r\n        view\r\n        returns (uint256)\r\n    {\r\n        WarpVaultLPI WV = WarpVaultLPI(_WarpVault);\r\n        //retreive the address of its asset\r\n        address asset = WV.getAssetAdd();\r\n        //retrieve USD price of this asset\r\n        uint256 priceOfAsset = Oracle.getUnderlyingPrice(asset);\r\n        //retrieve the amount of the asset locked as collateral\r\n        uint256 amountOfAssetCollat = WV.lockedWLPbalanceOf(\r\n            _borrower,\r\n            _WarpVault\r\n        );\r\n        //multiply the amount of collateral by the asset price and return it\r\n        return amountOfAssetCollat.mul(priceOfAsset);\r\n    }\r\n}\r\n",
  "sourcePath": "E:/dOrg/warp/Smart-Contracts/contracts/WarpControl.sol",
  "compiler": {
    "name": "solc",
    "version": "0.6.6+commit.6c089d02.Emscripten.clang"
  },
  "schemaVersion": "3.3.1",
  "updatedAt": "2020-11-05T00:31:13.440Z",
  "devdoc": {
    "methods": {
      "checkAvailibleCollateralValue(address,address)": {
        "params": {
          "_borrower": "is the address whos collateral value we are looking up*"
        }
      },
      "checkLockedCollateralValue(address,address)": {
        "params": {
          "_borrower": "is the address whos collateral value we are looking up*"
        }
      },
      "constructor": {
        "params": {
          "_oracle": "is the address for the UniswapOracleFactorycontract*"
        }
      },
      "lockCollateralDown(address,address,address,uint256)": {
        "params": {
          "_amount": "is the amount of LP being collateralized*",
          "_borrower": "is the address of the borrower"
        }
      },
      "lockCollateralUp(address,address,uint256)": {
        "params": {
          "_amount": "is the USDC value thats looking to be locked up*",
          "_borrower": "is the address of the borrower"
        }
      },
      "owner()": {
        "details": "Returns the address of the current owner."
      },
      "renounceOwnership()": {
        "details": "Leaves the contract without owner. It will not be possible to call `onlyOwner` functions anymore. Can only be called by the current owner.     * NOTE: Renouncing ownership will leave the contract without an owner, thereby removing any functionality that is only available to the owner."
      },
      "transferOwnership(address)": {
        "details": "Transfers ownership of the contract to a new account (`newOwner`). Can only be called by the current owner."
      }
    }
  },
  "userdoc": {
    "methods": {
      "checkAvailibleCollateralValue(address,address)": {
        "notice": "checkCollateralValue is a view function that accepts an account address and returns the total USDC value of the accounts locked collateral"
      },
      "checkLockedCollateralValue(address,address)": {
        "notice": "checkCollateralValue is a view function that accepts an account address and returns the total USDC value of the accounts locked collateral"
      },
      "constructor": "the constructor function is fired during the contract deployment process. The constructor can only be fired once and is used to set up Oracle variables for the MoneyMarketFactory contract.",
      "createNewLPVault(address,address,address,string)": {
        "notice": "createNewVault allows the contract owner to create a new WarpVaultLP contract along with its associated Warp Wrapper Tokens*"
      },
      "lockCollateralDown(address,address,address,uint256)": {
        "notice": "lockCollateralDown is an external function used to track locked collateral amounts globally as they decrease"
      },
      "lockCollateralUp(address,address,uint256)": {
        "notice": "lockCollateralUp is an external function used to track locked collateral amounts globally as they increase"
      }
    },
    "notice": "WarpControl is designed to coordinate Warp Vaults This contract uses the OpenZeppelin contract Library to inherit functions from Ownable.sol*"
  }
}