{
  "contractName": "WarpControl",
  "abi": [
    {
      "inputs": [
        {
          "internalType": "address",
          "name": "_oracle",
          "type": "address"
        },
        {
          "internalType": "address",
          "name": "_WVLPF",
          "type": "address"
        },
        {
          "internalType": "address",
          "name": "_WVSCF",
          "type": "address"
        }
      ],
      "stateMutability": "nonpayable",
      "type": "constructor"
    },
    {
      "anonymous": false,
      "inputs": [
        {
          "indexed": true,
          "internalType": "address",
          "name": "previousOwner",
          "type": "address"
        },
        {
          "indexed": true,
          "internalType": "address",
          "name": "newOwner",
          "type": "address"
        }
      ],
      "name": "OwnershipTransferred",
      "type": "event"
    },
    {
      "inputs": [],
      "name": "Oracle",
      "outputs": [
        {
          "internalType": "contract UniswapLPOracleFactoryI",
          "name": "",
          "type": "address"
        }
      ],
      "stateMutability": "view",
      "type": "function"
    },
    {
      "inputs": [],
      "name": "WVLPF",
      "outputs": [
        {
          "internalType": "contract WarpVaultLPFactoryI",
          "name": "",
          "type": "address"
        }
      ],
      "stateMutability": "view",
      "type": "function"
    },
    {
      "inputs": [],
      "name": "WVSCF",
      "outputs": [
        {
          "internalType": "contract WarpVaultSCFactoryI",
          "name": "",
          "type": "address"
        }
      ],
      "stateMutability": "view",
      "type": "function"
    },
    {
      "inputs": [
        {
          "internalType": "address",
          "name": "",
          "type": "address"
        }
      ],
      "name": "instanceLPTracker",
      "outputs": [
        {
          "internalType": "address",
          "name": "",
          "type": "address"
        }
      ],
      "stateMutability": "view",
      "type": "function"
    },
    {
      "inputs": [
        {
          "internalType": "address",
          "name": "",
          "type": "address"
        }
      ],
      "name": "instanceSCTracker",
      "outputs": [
        {
          "internalType": "address",
          "name": "",
          "type": "address"
        }
      ],
      "stateMutability": "view",
      "type": "function"
    },
    {
      "inputs": [
        {
          "internalType": "address",
          "name": "",
          "type": "address"
        }
      ],
      "name": "isVault",
      "outputs": [
        {
          "internalType": "bool",
          "name": "",
          "type": "bool"
        }
      ],
      "stateMutability": "view",
      "type": "function"
    },
    {
      "inputs": [],
      "name": "liquidationIncentiveMantissa",
      "outputs": [
        {
          "internalType": "uint256",
          "name": "",
          "type": "uint256"
        }
      ],
      "stateMutability": "view",
      "type": "function"
    },
    {
      "inputs": [
        {
          "internalType": "address",
          "name": "",
          "type": "address"
        }
      ],
      "name": "lockedLPValue",
      "outputs": [
        {
          "internalType": "uint256",
          "name": "",
          "type": "uint256"
        }
      ],
      "stateMutability": "view",
      "type": "function"
    },
    {
      "inputs": [
        {
          "internalType": "uint256",
          "name": "",
          "type": "uint256"
        }
      ],
      "name": "lpVaults",
      "outputs": [
        {
          "internalType": "address",
          "name": "",
          "type": "address"
        }
      ],
      "stateMutability": "view",
      "type": "function"
    },
    {
      "inputs": [],
      "name": "owner",
      "outputs": [
        {
          "internalType": "address",
          "name": "",
          "type": "address"
        }
      ],
      "stateMutability": "view",
      "type": "function"
    },
    {
      "inputs": [],
      "name": "renounceOwnership",
      "outputs": [],
      "stateMutability": "nonpayable",
      "type": "function"
    },
    {
      "inputs": [
        {
          "internalType": "uint256",
          "name": "",
          "type": "uint256"
        }
      ],
      "name": "scVaults",
      "outputs": [
        {
          "internalType": "address",
          "name": "",
          "type": "address"
        }
      ],
      "stateMutability": "view",
      "type": "function"
    },
    {
      "inputs": [
        {
          "internalType": "address",
          "name": "newOwner",
          "type": "address"
        }
      ],
      "name": "transferOwnership",
      "outputs": [],
      "stateMutability": "nonpayable",
      "type": "function"
    },
    {
      "inputs": [
        {
          "internalType": "address",
          "name": "_lp",
          "type": "address"
        },
        {
          "internalType": "address",
          "name": "_lpAsset1",
          "type": "address"
        },
        {
          "internalType": "address",
          "name": "_lpAsset2",
          "type": "address"
        },
        {
          "internalType": "string",
          "name": "_lpName",
          "type": "string"
        }
      ],
      "name": "createNewLPVault",
      "outputs": [],
      "stateMutability": "nonpayable",
      "type": "function"
    },
    {
      "inputs": [
        {
          "internalType": "uint256",
          "name": "_baseRatePerYear",
          "type": "uint256"
        },
        {
          "internalType": "uint256",
          "name": "_multiplierPerYear",
          "type": "uint256"
        },
        {
          "internalType": "uint256",
          "name": "_jumpMultiplierPerYear",
          "type": "uint256"
        },
        {
          "internalType": "uint256",
          "name": "_optimal",
          "type": "uint256"
        },
        {
          "internalType": "uint256",
          "name": "_initialExchangeRate",
          "type": "uint256"
        },
        {
          "internalType": "address",
          "name": "_StableCoin",
          "type": "address"
        }
      ],
      "name": "createNewSCVault",
      "outputs": [],
      "stateMutability": "nonpayable",
      "type": "function"
    },
    {
      "inputs": [
        {
          "internalType": "address",
          "name": "account",
          "type": "address"
        },
        {
          "internalType": "address",
          "name": "lpToken",
          "type": "address"
        }
      ],
      "name": "getMaxWithdrawAllowed",
      "outputs": [
        {
          "internalType": "uint256",
          "name": "",
          "type": "uint256"
        }
      ],
      "stateMutability": "nonpayable",
      "type": "function"
    },
    {
      "inputs": [
        {
          "internalType": "address",
          "name": "account",
          "type": "address"
        },
        {
          "internalType": "address",
          "name": "lpToken",
          "type": "address"
        }
      ],
      "name": "viewMaxWithdrawAllowed",
      "outputs": [
        {
          "internalType": "uint256",
          "name": "",
          "type": "uint256"
        }
      ],
      "stateMutability": "view",
      "type": "function"
    },
    {
      "inputs": [
        {
          "internalType": "address",
          "name": "_account",
          "type": "address"
        }
      ],
      "name": "getTotalAvailableCollateralValue",
      "outputs": [
        {
          "internalType": "uint256",
          "name": "",
          "type": "uint256"
        }
      ],
      "stateMutability": "nonpayable",
      "type": "function"
    },
    {
      "inputs": [
        {
          "internalType": "address",
          "name": "_account",
          "type": "address"
        }
      ],
      "name": "viewTotalAvailableCollateralValue",
      "outputs": [
        {
          "internalType": "uint256",
          "name": "",
          "type": "uint256"
        }
      ],
      "stateMutability": "view",
      "type": "function"
    },
    {
      "inputs": [
        {
          "internalType": "address",
          "name": "_account",
          "type": "address"
        }
      ],
      "name": "viewTotalBorrowedValue",
      "outputs": [
        {
          "internalType": "uint256",
          "name": "",
          "type": "uint256"
        }
      ],
      "stateMutability": "view",
      "type": "function"
    },
    {
      "inputs": [
        {
          "internalType": "address",
          "name": "_account",
          "type": "address"
        }
      ],
      "name": "getTotalBorrowedValue",
      "outputs": [
        {
          "internalType": "uint256",
          "name": "",
          "type": "uint256"
        }
      ],
      "stateMutability": "nonpayable",
      "type": "function"
    },
    {
      "inputs": [
        {
          "internalType": "uint256",
          "name": "collateralValue",
          "type": "uint256"
        }
      ],
      "name": "calcBorrowLimit",
      "outputs": [
        {
          "internalType": "uint256",
          "name": "",
          "type": "uint256"
        }
      ],
      "stateMutability": "pure",
      "type": "function"
    },
    {
      "inputs": [
        {
          "internalType": "address",
          "name": "_account",
          "type": "address"
        }
      ],
      "name": "getBorrowLimit",
      "outputs": [
        {
          "internalType": "uint256",
          "name": "",
          "type": "uint256"
        }
      ],
      "stateMutability": "nonpayable",
      "type": "function"
    },
    {
      "inputs": [
        {
          "internalType": "address",
          "name": "_account",
          "type": "address"
        }
      ],
      "name": "viewBorrowLimit",
      "outputs": [
        {
          "internalType": "uint256",
          "name": "",
          "type": "uint256"
        }
      ],
      "stateMutability": "view",
      "type": "function"
    },
    {
      "inputs": [
        {
          "internalType": "address",
          "name": "_StableCoin",
          "type": "address"
        },
        {
          "internalType": "uint256",
          "name": "_amount",
          "type": "uint256"
        }
      ],
      "name": "borrowSC",
      "outputs": [],
      "stateMutability": "nonpayable",
      "type": "function"
    },
    {
      "inputs": [
        {
          "internalType": "address",
          "name": "_borrower",
          "type": "address"
        }
      ],
      "name": "markAccountNonCompliant",
      "outputs": [],
      "stateMutability": "nonpayable",
      "type": "function"
    },
    {
      "inputs": [
        {
          "internalType": "address",
          "name": "borrower",
          "type": "address"
        }
      ],
      "name": "liquidateAccount",
      "outputs": [],
      "stateMutability": "nonpayable",
      "type": "function"
    }
  ],
  "bytecode": "0x60806040526714d1120d7b16000060015534801561001c57600080fd5b5060405161261b38038061261b8339818101604052606081101561003f57600080fd5b508051602082015160409092015190919060006100636001600160e01b036100ef16565b600080546001600160a01b0319166001600160a01b0383169081178255604051929350917f8be0079c531659141344cd1fd0a4f28419497f9722a3daafe3b4186f6b6457e0908290a350600280546001600160a01b039485166001600160a01b0319918216179091556003805493851693821693909317909255600480549190931691161790556100f3565b3390565b612519806101026000396000f3fe60806040523480156200001157600080fd5b5060043610620001665760003560e01c80630a555989146200016b5780630c1e2b92146200019c578063169d4b1414620001e157806341f41189146200021c5780634ada90af146200024557806362226308146200024f578063652b9b41146200026f5780636af5f75214620002ac578063715018a614620002b65780637af70ba614620002c05780637c17d23714620002e95780638ac5d4a314620003125780638da5cb5b146200033b578063a2b35d9d1462000345578063ab5e2c99146200036e578063acc9e5b1146200039f578063b042079214620003c8578063bc64cd4e14620003e8578063be9287e31462000411578063d483ea1f146200043a578063e198077f1462000481578063e3c351b8146200054c578063ed6072f61462000575578063efdebdf51462000595578063f24a534e146200059f578063f2fde38b14620005a9578063f3c7f98714620005d2575b600080fd5b6200019a600480360360408110156200018357600080fd5b506001600160a01b03813516906020013562000603565b005b620001c560048036036020811015620001b457600080fd5b50356001600160a01b0316620006fa565b604080516001600160a01b039092168252519081900360200190f35b6200020a60048036036020811015620001f957600080fd5b50356001600160a01b031662000715565b60408051918252519081900360200190f35b6200019a600480360360208110156200023457600080fd5b50356001600160a01b031662000737565b6200020a62000777565b620001c5600480360360208110156200026757600080fd5b50356200077d565b62000298600480360360208110156200028757600080fd5b50356001600160a01b0316620007a5565b604080519115158252519081900360200190f35b620001c5620007ba565b6200019a620007c9565b6200020a60048036036020811015620002d857600080fd5b50356001600160a01b03166200085e565b6200020a600480360360208110156200030157600080fd5b50356001600160a01b031662000a43565b6200019a600480360360208110156200032a57600080fd5b50356001600160a01b031662000a51565b620001c562000da7565b6200020a600480360360208110156200035d57600080fd5b50356001600160a01b031662000db6565b6200020a600480360360408110156200038657600080fd5b506001600160a01b038135811691602001351662000e81565b620001c560048036036020811015620003b757600080fd5b50356001600160a01b031662000f58565b620001c560048036036020811015620003e057600080fd5b503562000f73565b6200020a600480360360208110156200040057600080fd5b50356001600160a01b031662000f81565b6200020a600480360360208110156200042957600080fd5b50356001600160a01b03166200115d565b6200019a600480360360c08110156200045257600080fd5b5080359060208101359060408101359060608101359060808101359060a001356001600160a01b0316620011fc565b6200019a600480360360808110156200049957600080fd5b6001600160a01b0382358116926020810135821692604082013590921691810190608081016060820135600160201b811115620004d557600080fd5b820183602082011115620004e857600080fd5b803590602001918460018302840111600160201b831117156200050a57600080fd5b91908080601f016020809104026020016040519081016040528093929190818152602001838380828437600092019190915250929550620013d4945050505050565b6200020a600480360360208110156200056457600080fd5b50356001600160a01b03166200161b565b6200020a600480360360208110156200058d57600080fd5b50356200162d565b620001c562001657565b620001c562001666565b6200019a60048036036020811015620005c157600080fd5b50356001600160a01b031662001675565b6200020a60048036036040811015620005ea57600080fd5b506001600160a01b038135811691602001351662001762565b6000620006103362000db6565b905060006200061f3362000a43565b9050600062000635828463ffffffff620017e816565b9050838110156200064557600080fd5b3360009081526009602052604090205462000667908563ffffffff6200182c16565b336000818152600960209081526040808320949094556001600160a01b0389811683526008909152838220548451630967fa2960e31b8152600481018a9052602481019490945293519316928392634b3fd14892604480830193919282900301818387803b158015620006d957600080fd5b505af1158015620006ee573d6000803e3d6000fd5b50505050505050505050565b6008602052600090815260409020546001600160a01b031681565b600080620007238362000f81565b905062000730816200162d565b9392505050565b6001600160a01b0381166000908152600b6020526040902054156200075b57600080fd5b6001600160a01b03166000908152600b60205260409020429055565b60015481565b600581815481106200078b57fe5b6000918252602090912001546001600160a01b0316905081565b600a6020526000908152604090205460ff1681565b6003546001600160a01b031681565b620007d362001885565b6000546001600160a01b0390811691161462000825576040805162461bcd60e51b81526020600482018190526024820152600080516020620024a4833981519152604482015290519081900360640190fd5b600080546040516001600160a01b0390911690600080516020620024c4833981519152908390a3600080546001600160a01b0319169055565b60055460009081805b8281101562000a3b576000600582815481106200088057fe5b6000918252602080832090910154604080516313082b1d60e21b815290516001600160a01b0390921694508492634c20ac7492600480840193829003018186803b158015620008ce57600080fd5b505afa158015620008e3573d6000803e3d6000fd5b505050506040513d6020811015620008fa57600080fd5b50516002546040805163fc57d4df60e01b81526001600160a01b0380851660048301529151939450600093919092169163fc57d4df91602480830192602092919082900301818787803b1580156200095157600080fd5b505af115801562000966573d6000803e3d6000fd5b505050506040513d60208110156200097d57600080fd5b50516040805163f919b4bf60e01b81526001600160a01b038b8116600483015291519293506000929186169163f919b4bf91602480820192602092909190829003018186803b158015620009d057600080fd5b505afa158015620009e5573d6000803e3d6000fd5b505050506040513d6020811015620009fc57600080fd5b50519050600062000a14828463ffffffff6200188916565b905062000a28878263ffffffff6200182c16565b9650505050505080600101905062000867565b509392505050565b60008062000723836200085e565b6001600160a01b0381166000908152600b602052604090205462000a7e9061070863ffffffff6200182c16565b42101562000a8b57600080fd5b60065460006060826001600160401b038111801562000aa957600080fd5b5060405190808252806020026020018201604052801562000ad4578160200160208202803683370190505b50905060005b8381101562000bce5760006006828154811062000af357fe5b6000918252602080832090910154604080516305eff7ef60e21b81526001600160a01b038b81166004830152915191909216945084936317bfdfbc93602480850194919392918390030190829087803b15801562000b5057600080fd5b505af115801562000b65573d6000803e3d6000fd5b505050506040513d602081101562000b7c57600080fd5b5051835184908490811062000b8d57fe5b60200260200101818152505062000bc283838151811062000baa57fe5b6020026020010151856200182c90919063ffffffff16565b93505060010162000ada565b50600062000bdc8562000a43565b6001600160a01b0386166000908152600b602052604081205590508281111562000c0a575050505062000da4565b60005b8481101562000cfb5760006006828154811062000c2657fe5b9060005260206000200160009054906101000a90046001600160a01b03169050806001600160a01b031663d1349814883387868151811062000c6457fe5b60200260200101516040518463ffffffff1660e01b815260040180846001600160a01b03166001600160a01b03168152602001836001600160a01b03166001600160a01b031681526020018281526020019350505050600060405180830381600087803b15801562000cd557600080fd5b505af115801562000cea573d6000803e3d6000fd5b505050505080600101905062000c0d565b5060055460005b8181101562000d9d5760006005828154811062000d1b57fe5b600091825260208220015460408051631592f20560e31b81526001600160a01b038c811660048301523360248301529151919092169350839263ac979028926044808201939182900301818387803b15801562000d7757600080fd5b505af115801562000d8c573d6000803e3d6000fd5b505050505080600101905062000d02565b5050505050505b50565b6000546001600160a01b031690565b60065460009081805b8281101562000a3b5760006006828154811062000dd857fe5b6000918252602080832090910154604080516305eff7ef60e21b81526001600160a01b038b81166004830152915191909216945062000e759385936317bfdfbc936024808201949293918390030190829087803b15801562000e3957600080fd5b505af115801562000e4e573d6000803e3d6000fd5b505050506040513d602081101562000e6557600080fd5b5051849063ffffffff6200182c16565b92505060010162000dbf565b60008062000e8f8462000db6565b9050600062000e9e8562000a43565b6002546040805163fc57d4df60e01b81526001600160a01b0388811660048301529151939450600093919092169163fc57d4df91602480830192602092919082900301818787803b15801562000ef357600080fd5b505af115801562000f08573d6000803e3d6000fd5b505050506040513d602081101562000f1f57600080fd5b50519050600062000f37838563ffffffff620017e816565b905062000f4b818363ffffffff620018e716565b9450505050505b92915050565b6007602052600090815260409020546001600160a01b031681565b600681815481106200078b57fe5b60055460009081805b8281101562000a3b5760006005828154811062000fa357fe5b6000918252602080832090910154604080516313082b1d60e21b815290516001600160a01b0390921694508492634c20ac7492600480840193829003018186803b15801562000ff157600080fd5b505afa15801562001006573d6000803e3d6000fd5b505050506040513d60208110156200101d57600080fd5b50516002546040805163b04c6d3f60e01b81526001600160a01b0380851660048301529151939450600093919092169163b04c6d3f916024808301926020929190829003018186803b1580156200107357600080fd5b505afa15801562001088573d6000803e3d6000fd5b505050506040513d60208110156200109f57600080fd5b50516040805163f919b4bf60e01b81526001600160a01b038b8116600483015291519293506000929186169163f919b4bf91602480820192602092909190829003018186803b158015620010f257600080fd5b505afa15801562001107573d6000803e3d6000fd5b505050506040513d60208110156200111e57600080fd5b50519050600062001136828463ffffffff6200188916565b90506200114a878263ffffffff6200182c16565b9650505050505080600101905062000f8a565b60065460009081805b8281101562000a3b576000600682815481106200117f57fe5b6000918252602091829020015460408051637746efab60e01b81526001600160a01b038a811660048301529151919092169350620011f0928492637746efab9260248083019392829003018186803b158015620011db57600080fd5b505afa15801562000e4e573d6000803e3d6000fd5b92505060010162001166565b6200120662001885565b6000546001600160a01b0390811691161462001258576040805162461bcd60e51b81526020600482018190526024820152600080516020620024a4833981519152604482015290519081900360640190fd5b600086868686306040516200126d9062001a2c565b948552602085019390935260408085019290925260608401526001600160a01b039091166080830152519081900360a001906000f080158015620012b5573d6000803e3d6000fd5b506004805460408051632a5cd0d160e01b81526001600160a01b038086169482019490945286841660248201526044810188905290519394506000939290911691632a5cd0d19160648082019260209290919082900301818787803b1580156200131e57600080fd5b505af115801562001333573d6000803e3d6000fd5b505050506040513d60208110156200134a57600080fd5b50516001600160a01b0393841660009081526008602090815260408083208054979094166001600160a01b031997881681179094556006805460018181019092557ff652222313e28459528d920b65115c16c04f3efc82aaedc97be59f3f377c0d3f0180549098168517909755928252600a905220805460ff191690931790925550505050505050565b620013de62001885565b6000546001600160a01b0390811691161462001430576040805162461bcd60e51b81526020600482018190526024820152600080516020620024a4833981519152604482015290519081900360640190fd5b60025460408051634a42dd6d60e11b81526001600160a01b0386811660048301528581166024830152878116604483015291519190921691639485bada91606480830192600092919082900301818387803b1580156200148f57600080fd5b505af1158015620014a4573d6000803e3d6000fd5b505060035460408051631d75e5c160e21b81526001600160a01b038981166004830190815260248301938452875160448401528751600097509190941694506375d79704938a938893919290916064019060208501908083838c5b8381101562001519578181015183820152602001620014ff565b50505050905090810190601f168015620015475780820380516001836020036101000a031916815260200191505b509350505050602060405180830381600087803b1580156200156857600080fd5b505af11580156200157d573d6000803e3d6000fd5b505050506040513d60208110156200159457600080fd5b50516001600160a01b0395861660009081526007602090815260408083208054999094166001600160a01b0319998a1681179094556005805460018181019092557f036b6384b5eca791c62761152d0c79bb0604c104a5fb6f4eb0703f3154bb3db0018054909a168517909955928252600a905220805460ff191690951790945550505050565b60096020526000908152604090205481565b6000806200164383600263ffffffff620018e716565b905062000730838263ffffffff6200182c16565b6004546001600160a01b031681565b6002546001600160a01b031681565b6200167f62001885565b6000546001600160a01b03908116911614620016d1576040805162461bcd60e51b81526020600482018190526024820152600080516020620024a4833981519152604482015290519081900360640190fd5b6001600160a01b038116620017185760405162461bcd60e51b81526004018080602001828103825260268152602001806200245d6026913960400191505060405180910390fd5b600080546040516001600160a01b0380851693921691600080516020620024c483398151915291a3600080546001600160a01b0319166001600160a01b0392909216919091179055565b60008062001770846200115d565b905060006200177f8562000715565b6002546040805163b04c6d3f60e01b81526001600160a01b0388811660048301529151939450600093919092169163b04c6d3f916024808301926020929190829003018186803b158015620017d357600080fd5b505afa15801562000f08573d6000803e3d6000fd5b60006200073083836040518060400160405280601e81526020017f536166654d6174683a207375627472616374696f6e206f766572666c6f77000081525062001928565b60008282018381101562000730576040805162461bcd60e51b815260206004820152601b60248201527a536166654d6174683a206164646974696f6e206f766572666c6f7760281b604482015290519081900360640190fd5b3390565b6000826200189a5750600062000f52565b82820282848281620018a857fe5b0414620007305760405162461bcd60e51b8152600401808060200182810382526021815260200180620024836021913960400191505060405180910390fd5b60006200073083836040518060400160405280601a815260200179536166654d6174683a206469766973696f6e206279207a65726f60301b815250620019c3565b60008184841115620019bb5760405162461bcd60e51b81526004018080602001828103825283818151815260200191508051906020019080838360005b838110156200197f57818101518382015260200162001965565b50505050905090810190601f168015620019ad5780820380516001836020036101000a031916815260200191505b509250505060405180910390fd5b505050900390565b6000818362001a155760405162461bcd60e51b81526020600482018181528351602484015283519092839260449091019190850190808383600083156200197f57818101518382015260200162001965565b50600083858162001a2257fe5b0495945050505050565b610a228062001a3b8339019056fe608060405234801561001057600080fd5b50604051610a22380380610a22833981810160405260a081101561003357600080fd5b508051602082015160408301516060840151608090940151600080546001600160a01b0319166001600160a01b03831617905592939192909190848484848461007e8585858561008d565b505050505050505050506102bc565b6100a7622014808561017060201b61057e1790919060201c565b6002556100f66100c562201480836101c1602090811b61052517901c565b6100e4670de0b6b3a7640000866101c160201b6105251790919060201c565b61017060201b61057e1790919060201c565b6001556101118262201480610170602090811b61057e17901c565b60038190556004829055600254600154604080519283526020830191909152818101929092526060810183905290517f6960ab234c7ef4b0c9197100f5393cfcde7c453ac910a27bd2000aa1dd4c068d9181900360800190a150505050565b60006101b883836040518060400160405280601a81526020017f536166654d6174683a206469766973696f6e206279207a65726f00000000000081525061021a60201b60201c565b90505b92915050565b6000826101d0575060006101bb565b828202828482816101dd57fe5b04146101b85760405162461bcd60e51b8152600401808060200182810382526021815260200180610a016021913960400191505060405180910390fd5b600081836102a65760405162461bcd60e51b81526004018080602001828103825283818151815260200191508051906020019080838360005b8381101561026b578181015183820152602001610253565b50505050905090810190601f1680156102985780820380516001836020036101000a031916815260200191505b509250505060405180910390fd5b5060008385816102b257fe5b0495945050505050565b610736806102cb6000396000f3fe608060405234801561001057600080fd5b506004361061008e5760003560e01c806315f24053146100935780632037f3e7146100ce5780636e71e2d8146100ff5780638726bb89146101285780638da5cb5b14610130578063a385fb9614610154578063b81688161461015c578063b9f9850a1461018b578063f14039de14610193578063fd2da3391461019b575b600080fd5b6100bc600480360360608110156100a957600080fd5b50803590602081013590604001356101a3565b60408051918252519081900360200190f35b6100fd600480360360808110156100e457600080fd5b50803590602081013590604081013590606001356101ba565b005b6100bc6004803603606081101561011557600080fd5b5080359060208101359060400135610215565b6100bc61026b565b610138610271565b604080516001600160a01b039092168252519081900360200190f35b6100bc610280565b6100bc6004803603608081101561017257600080fd5b5080359060208101359060408101359060600135610287565b6100bc610306565b6100bc61030c565b6100bc610312565b60006101b0848484610318565b90505b9392505050565b6000546001600160a01b031633146102035760405162461bcd60e51b81526004018080602001828103825260268152602001806106db6026913960400191505060405180910390fd5b61020f848484846103e1565b50505050565b600082610224575060006101b3565b6101b06102478361023b878763ffffffff61048216565b9063ffffffff6104e316565b61025f85670de0b6b3a764000063ffffffff61052516565b9063ffffffff61057e16565b60015481565b6000546001600160a01b031681565b6220148081565b6000806102a2670de0b6b3a76400008463ffffffff6104e316565b905060006102b1878787610318565b905060006102d1670de0b6b3a764000061025f848663ffffffff61052516565b90506102fa670de0b6b3a764000061025f836102ee8c8c8c610215565b9063ffffffff61052516565b98975050505050505050565b60035481565b60025481565b60045481565b600080610326858585610215565b9050600454811161036c57610364600254610358670de0b6b3a764000061025f6001548661052590919063ffffffff16565b9063ffffffff61048216565b9150506101b3565b6000610397600254610358670de0b6b3a764000061025f60015460045461052590919063ffffffff16565b905060006103b0600454846104e390919063ffffffff16565b90506103d782610358670de0b6b3a764000061025f6003548661052590919063ffffffff16565b93505050506101b3565b6103f4846220148063ffffffff61057e16565b60025561040d610247622014808363ffffffff61052516565b600155610423826220148063ffffffff61057e16565b60038190556004829055600254600154604080519283526020830191909152818101929092526060810183905290517f6960ab234c7ef4b0c9197100f5393cfcde7c453ac910a27bd2000aa1dd4c068d9181900360800190a150505050565b6000828201838110156104da576040805162461bcd60e51b815260206004820152601b60248201527a536166654d6174683a206164646974696f6e206f766572666c6f7760281b604482015290519081900360640190fd5b90505b92915050565b60006104da83836040518060400160405280601e81526020017f536166654d6174683a207375627472616374696f6e206f766572666c6f7700008152506105bd565b600082610534575060006104dd565b8282028284828161054157fe5b04146104da5760405162461bcd60e51b81526004018080602001828103825260218152602001806106ba6021913960400191505060405180910390fd5b60006104da83836040518060400160405280601a815260200179536166654d6174683a206469766973696f6e206279207a65726f60301b815250610654565b6000818484111561064c5760405162461bcd60e51b81526004018080602001828103825283818151815260200191508051906020019080838360005b838110156106115781810151838201526020016105f9565b50505050905090810190601f16801561063e5780820380516001836020036101000a031916815260200191505b509250505060405180910390fd5b505050900390565b600081836106a35760405162461bcd60e51b81526020600482018181528351602484015283519092839260449091019190850190808383600083156106115781810151838201526020016105f9565b5060008385816106af57fe5b049594505050505056fe536166654d6174683a206d756c7469706c69636174696f6e206f766572666c6f776f6e6c7920746865206f776e6572206d61792063616c6c20746869732066756e6374696f6e2ea264697066735822122035d6d0aa1f8af11c35463166a687a3478a7b8a918059f546ac03fced611ef87a64736f6c63430006060033536166654d6174683a206d756c7469706c69636174696f6e206f766572666c6f774f776e61626c653a206e6577206f776e657220697320746865207a65726f2061646472657373536166654d6174683a206d756c7469706c69636174696f6e206f766572666c6f774f776e61626c653a2063616c6c6572206973206e6f7420746865206f776e65728be0079c531659141344cd1fd0a4f28419497f9722a3daafe3b4186f6b6457e0a2646970667358221220b0abc1388d77460e26747a718da96e304fa4de6c59dfee4efd9b2cfbf337455264736f6c63430006060033",
  "immutableReferences": {},
  "source": "pragma solidity ^0.6.0;\r\n\r\nimport \"@openzeppelin/contracts/access/Ownable.sol\";\r\nimport \"@openzeppelin/contracts/math/SafeMath.sol\";\r\nimport \"@openzeppelin/contracts/token/ERC20/IERC20.sol\";\r\nimport \"./interfaces/WarpVaultSCI.sol\";\r\nimport \"./interfaces/WarpVaultLPI.sol\";\r\nimport \"./interfaces/WarpVaultLPFactoryI.sol\";\r\nimport \"./interfaces/WarpVaultSCFactoryI.sol\";\r\nimport \"./interfaces/UniswapLPOracleFactoryI.sol\";\r\nimport \"./compound/JumpRateModelV2.sol\";\r\nimport \"./compound/Exponential.sol\";\r\n\r\n////////////////////////////////////////////////////////////////////////////////////////////\r\n/// @title WarpControl\r\n/// @author Christopher Dixon\r\n////////////////////////////////////////////////////////////////////////////////////////////\r\n/**\r\nWarpControl is designed to coordinate Warp Vaults\r\nThis contract uses the OpenZeppelin contract Library to inherit functions from\r\n  Ownable.sol\r\n**/\r\n\r\ncontract WarpControl is Ownable, Exponential {\r\n    using SafeMath for uint256;\r\n\r\n    uint256 public liquidationIncentiveMantissa = 1.5e18; // 1.5\r\n\r\n    UniswapLPOracleFactoryI public Oracle; //oracle factory contract interface\r\n    WarpVaultLPFactoryI public WVLPF;\r\n    WarpVaultSCFactoryI public WVSCF;\r\n\r\n    address[] public lpVaults;\r\n    address[] public scVaults;\r\n\r\n    mapping(address => address) public instanceLPTracker; //maps LP token address to the assets WarpVault\r\n    mapping(address => address) public instanceSCTracker;\r\n    mapping(address => uint256) public lockedLPValue;\r\n    mapping(address => bool) public isVault;\r\n\r\n    mapping(address => uint256) nonCompliant;\r\n    /**\r\n     * @dev Throws if called by any account other than a warp vault\r\n     */\r\n    modifier onlyVault() {\r\n        require(isVault[msg.sender] == true);\r\n        _;\r\n    }\r\n\r\n    /**\r\n    @notice the constructor function is fired during the contract deployment process. The constructor can only be fired once and\r\n            is used to set up Oracle variables for the MoneyMarketFactory contract.\r\n    @param _oracle is the address for the UniswapOracleFactorycontract\r\n    **/\r\n    constructor(\r\n        address _oracle,\r\n        address _WVLPF,\r\n        address _WVSCF\r\n    ) public {\r\n        Oracle = UniswapLPOracleFactoryI(_oracle);\r\n        WVLPF = WarpVaultLPFactoryI(_WVLPF);\r\n        WVSCF = WarpVaultSCFactoryI(_WVSCF);\r\n    }\r\n\r\n    /**\r\n    @notice createNewVault allows the contract owner to create a new WarpVaultLP contract along with its associated Warp Wrapper Tokens\r\n    **/\r\n    function createNewLPVault(\r\n        address _lp,\r\n        address _lpAsset1,\r\n        address _lpAsset2,\r\n        string memory _lpName\r\n    ) public onlyOwner {\r\n        Oracle.createNewOracles(_lpAsset1, _lpAsset2, _lp);\r\n        address _WarpVault = WVLPF.createWarpVaultLP(_lp, _lpName);\r\n        instanceLPTracker[_lp] = _WarpVault;\r\n        lpVaults.push(_WarpVault);\r\n        isVault[_WarpVault] = true;\r\n    }\r\n\r\n    function createNewSCVault(\r\n        uint256 _baseRatePerYear,\r\n        uint256 _multiplierPerYear,\r\n        uint256 _jumpMultiplierPerYear,\r\n        uint256 _optimal,\r\n        uint256 _initialExchangeRate,\r\n        address _StableCoin\r\n    ) public onlyOwner {\r\n        address IR = address(\r\n            new JumpRateModelV2(\r\n                _baseRatePerYear,\r\n                _multiplierPerYear,\r\n                _jumpMultiplierPerYear,\r\n                _optimal,\r\n                address(this)\r\n            )\r\n        );\r\n\r\n        address _WarpVault = WVSCF.createNewWarpVaultSC(\r\n            IR,\r\n            _StableCoin,\r\n            _initialExchangeRate\r\n        );\r\n        instanceSCTracker[_StableCoin] = _WarpVault;\r\n        scVaults.push(_WarpVault);\r\n        isVault[_WarpVault] = true;\r\n    }\r\n\r\n    /**\r\n    @notice Figures out how much of a given LP token an account is allowed to withdraw\r\n     */\r\n    function getMaxWithdrawAllowed(address account, address lpToken) public returns (uint256) {\r\n        uint256 borrowedTotal = getTotalBorrowedValue(account);\r\n        uint256 borrowLimit = getBorrowLimit(account);\r\n        uint256 lpValue = Oracle.getUnderlyingPrice(lpToken);\r\n        uint256 leftoverBorrowAmount = borrowLimit.sub(borrowedTotal);\r\n\r\n        return leftoverBorrowAmount.div(lpValue);\r\n    }\r\n\r\n    function viewMaxWithdrawAllowed(address account, address lpToken) public view returns (uint256) {\r\n        uint256 borrowedTotal = viewTotalBorrowedValue(account);\r\n        uint256 borrowLimit = viewBorrowLimit(account);\r\n        uint256 lpValue = Oracle.viewUnderlyingPrice(lpToken);\r\n        uint256 leftoverBorrowAmount = borrowLimit.sub(borrowedTotal);\r\n\r\n        return leftoverBorrowAmount.div(lpValue);\r\n    }\r\n\r\n    //event DebugValues(uint256 collateral, uint256 oraclePrice);\r\n\r\n\r\n    function getTotalAvailableCollateralValue(address _account)\r\n        public\r\n        returns (uint256)\r\n    {\r\n        uint256 numVaults = lpVaults.length;\r\n        uint256 totalCollateral = 0;\r\n        //loop through each lp wapr vault\r\n        for (uint256 i = 0; i < numVaults; ++i) {\r\n            //instantiate warp vault at that position\r\n            WarpVaultLPI vault = WarpVaultLPI(lpVaults[i]);\r\n            //retreive the address of its asset\r\n            address asset = vault.getAssetAdd();\r\n            //retrieve USD price of this asset\r\n            uint256 assetPrice = Oracle.getUnderlyingPrice(asset);\r\n            \r\n            uint256 accountCollateral = vault.collateralOfAccount(_account);\r\n            //emit DebugValues(accountCollateral, assetPrice);\r\n\r\n            //multiply the amount of collateral by the asset price and return it\r\n            uint256 accountAssetsValue = accountCollateral.mul(assetPrice);\r\n            //add value to total collateral\r\n            totalCollateral = totalCollateral.add(accountAssetsValue);\r\n        }\r\n        //return total USDC value of all collateral\r\n        return totalCollateral;\r\n    }\r\n\r\n    function viewTotalAvailableCollateralValue(address _account)\r\n        public\r\n        view\r\n        returns (uint256)\r\n    {\r\n        uint256 numVaults = lpVaults.length;\r\n        uint256 totalCollateral = 0;\r\n        //loop through each lp wapr vault\r\n        for (uint256 i = 0; i < numVaults; ++i) {\r\n            //instantiate warp vault at that position\r\n            WarpVaultLPI vault = WarpVaultLPI(lpVaults[i]);\r\n            //retreive the address of its asset\r\n            address asset = vault.getAssetAdd();\r\n            //retrieve USD price of this asset\r\n            uint256 assetPrice = Oracle.viewUnderlyingPrice(asset);\r\n            \r\n            uint256 accountCollateral = vault.collateralOfAccount(_account);\r\n\r\n            //multiply the amount of collateral by the asset price and return it\r\n            uint256 accountAssetsValue = accountCollateral.mul(assetPrice);\r\n            //add value to total collateral\r\n            totalCollateral = totalCollateral.add(accountAssetsValue);\r\n        }\r\n        //return total USDC value of all collateral\r\n        return totalCollateral;\r\n    }\r\n\r\n    function viewTotalBorrowedValue(address _account) public view returns (uint256) {\r\n        uint256 numSCVaults = scVaults.length;\r\n        uint256 totalBorrowedValue = 0;\r\n\r\n        //loop through all stable coin vaults\r\n        for (uint256 i = 0; i < numSCVaults; ++i) {\r\n            //instantiate each LP warp vault\r\n            WarpVaultSCI WVSC = WarpVaultSCI(scVaults[i]);\r\n            //retreive the amount user has borrowed from each stablecoin vault\r\n            totalBorrowedValue = totalBorrowedValue.add(\r\n                WVSC.borrowBalancePrior(_account)\r\n            );\r\n        }\r\n\r\n        return totalBorrowedValue;\r\n    }\r\n\r\n    function getTotalBorrowedValue(address _account) public returns (uint256) {\r\n        uint256 numSCVaults = scVaults.length;\r\n        uint256 totalBorrowedValue = 0;\r\n\r\n        //loop through all stable coin vaults\r\n        for (uint256 i = 0; i < numSCVaults; ++i) {\r\n            //instantiate each LP warp vault\r\n            WarpVaultSCI WVSC = WarpVaultSCI(scVaults[i]);\r\n            //retreive the amount user has borrowed from each stablecoin vault\r\n            totalBorrowedValue = totalBorrowedValue.add(\r\n                WVSC.borrowBalanceCurrent(_account)\r\n            );\r\n        }\r\n\r\n        return totalBorrowedValue;\r\n    }\r\n\r\n    function calcBorrowLimit(uint256 collateralValue) public pure returns (uint256) {\r\n        uint256 halfCollat = collateralValue.div(2);\r\n        collateralValue = collateralValue.add(halfCollat);\r\n\r\n        return collateralValue;\r\n    }\r\n\r\n    function getBorrowLimit(address _account) public returns (uint256) {\r\n        uint256 availibleCollateralValue = getTotalAvailableCollateralValue(\r\n            _account\r\n        );\r\n\r\n        return calcBorrowLimit(availibleCollateralValue);\r\n    }\r\n\r\n    function viewBorrowLimit(address _account) public view returns (uint256) {\r\n        uint256 availibleCollateralValue = viewTotalAvailableCollateralValue(\r\n            _account\r\n        );\r\n\r\n        return calcBorrowLimit(availibleCollateralValue);\r\n    }\r\n\r\n    function borrowSC(address _StableCoin, uint256 _amount) public {\r\n        uint256 borrowedTotal = getTotalBorrowedValue(msg.sender);\r\n        uint256 availibleCollateralValue = getBorrowLimit(msg.sender);\r\n        \r\n        //calculate USDC amount of what the user is allowed to borrow\r\n        uint256 borrowAmountAllowed = availibleCollateralValue.sub(\r\n            borrowedTotal\r\n        );\r\n\r\n        //require the amount being borrowed is less than or equal to the amount they are aloud to borrow\r\n        require(borrowAmountAllowed >= _amount);\r\n        //track USDC value of locked LP\r\n        lockedLPValue[msg.sender] = lockedLPValue[msg.sender].add(_amount);\r\n        //retreive stablecoin vault address being borrowed from and instantiate it\r\n        WarpVaultSCI WV = WarpVaultSCI(instanceSCTracker[_StableCoin]);\r\n        //call borrow function on the stablecoin warp vault\r\n        WV.borrow(_amount, msg.sender);\r\n    }\r\n\r\n    /**\r\n      @notice markAccountNonCompliant is used by a potential liquidator to mark an account as non compliant which starts its 30 minute timer\r\n      @param _borrower is the address of the non compliant borrower\r\n      **/\r\n    function markAccountNonCompliant(address _borrower)\r\n        public\r\n    {\r\n        //needs to check for account compliance\r\n        require(nonCompliant[_borrower] == 0);\r\n        nonCompliant[_borrower] = now;\r\n    }\r\n\r\n    function liquidateAccount(address borrower) public {\r\n        require(now >= nonCompliant[borrower].add(1800));\r\n\r\n        uint256 numSCVaults = scVaults.length;\r\n        uint256 borrowedAmount = 0;\r\n        uint256[] memory scBalances = new uint256[](numSCVaults);\r\n\r\n        // Borrowed Amount From All Vaults\r\n        for (uint256 i = 0; i < numSCVaults; ++i) {\r\n            WarpVaultSCI scVault = WarpVaultSCI(scVaults[i]);\r\n            scBalances[i] = scVault.borrowBalanceCurrent(borrower);\r\n            borrowedAmount = borrowedAmount.add(\r\n                scBalances[i]\r\n            );\r\n        }\r\n\r\n        uint256 borrowLimit = getBorrowLimit(borrower);\r\n\r\n        nonCompliant[borrower] = 0;\r\n\r\n        if (borrowLimit > borrowedAmount) {\r\n            // The account was in good standing\r\n            return;\r\n        }\r\n\r\n        // Liquidate the account\r\n\r\n        // Liquidator pays off Stable Coin loans\r\n        for (uint256 i = 0; i < numSCVaults; ++i) {\r\n             WarpVaultSCI scVault = WarpVaultSCI(scVaults[i]);\r\n             scVault.repayLiquidatedLoan(borrower, msg.sender, scBalances[i]);\r\n        }\r\n\r\n        // Liquidator gets the LP tokens the borrower had\r\n        uint256 numLPVaults = lpVaults.length;\r\n        for (uint256 i = 0; i < numLPVaults; ++i ) {\r\n            WarpVaultLPI lpVault = WarpVaultLPI(lpVaults[i]);\r\n            lpVault.liquidateAccount(borrower, msg.sender);\r\n        }\r\n\r\n    }\r\n}\r\n",
  "sourcePath": "E:/dOrg/warp/Smart-Contracts/contracts/WarpControl.sol",
  "compiler": {
    "name": "solc",
    "version": "0.6.6+commit.6c089d02.Emscripten.clang"
  },
  "schemaVersion": "3.3.1",
  "updatedAt": "2020-11-06T02:15:51.734Z",
  "devdoc": {
    "methods": {
      "constructor": {
        "params": {
          "_oracle": "is the address for the UniswapOracleFactorycontract*"
        }
      },
      "markAccountNonCompliant(address)": {
        "params": {
          "_borrower": "is the address of the non compliant borrower*"
        }
      },
      "owner()": {
        "details": "Returns the address of the current owner."
      },
      "renounceOwnership()": {
        "details": "Leaves the contract without owner. It will not be possible to call `onlyOwner` functions anymore. Can only be called by the current owner.     * NOTE: Renouncing ownership will leave the contract without an owner, thereby removing any functionality that is only available to the owner."
      },
      "transferOwnership(address)": {
        "details": "Transfers ownership of the contract to a new account (`newOwner`). Can only be called by the current owner."
      }
    }
  },
  "userdoc": {
    "methods": {
      "constructor": "the constructor function is fired during the contract deployment process. The constructor can only be fired once and is used to set up Oracle variables for the MoneyMarketFactory contract.",
      "createNewLPVault(address,address,address,string)": {
        "notice": "createNewVault allows the contract owner to create a new WarpVaultLP contract along with its associated Warp Wrapper Tokens*"
      },
      "getMaxWithdrawAllowed(address,address)": {
        "notice": "Figures out how much of a given LP token an account is allowed to withdraw"
      },
      "markAccountNonCompliant(address)": {
        "notice": "markAccountNonCompliant is used by a potential liquidator to mark an account as non compliant which starts its 30 minute timer"
      }
    },
    "notice": "WarpControl is designed to coordinate Warp Vaults This contract uses the OpenZeppelin contract Library to inherit functions from Ownable.sol*"
  }
}