{
  "contractName": "WarpVaultSCFactory",
  "abi": [
    {
      "anonymous": false,
      "inputs": [
        {
          "indexed": true,
          "internalType": "address",
          "name": "previousOwner",
          "type": "address"
        },
        {
          "indexed": true,
          "internalType": "address",
          "name": "newOwner",
          "type": "address"
        }
      ],
      "name": "OwnershipTransferred",
      "type": "event"
    },
    {
      "inputs": [],
      "name": "owner",
      "outputs": [
        {
          "internalType": "address",
          "name": "",
          "type": "address"
        }
      ],
      "stateMutability": "view",
      "type": "function",
      "constant": true
    },
    {
      "inputs": [],
      "name": "renounceOwnership",
      "outputs": [],
      "stateMutability": "nonpayable",
      "type": "function"
    },
    {
      "inputs": [
        {
          "internalType": "address",
          "name": "newOwner",
          "type": "address"
        }
      ],
      "name": "transferOwnership",
      "outputs": [],
      "stateMutability": "nonpayable",
      "type": "function"
    },
    {
      "inputs": [
        {
          "internalType": "address",
          "name": "_InterestRate",
          "type": "address"
        },
        {
          "internalType": "address",
          "name": "_StableCoin",
          "type": "address"
        },
        {
          "internalType": "address",
          "name": "_warpTeam",
          "type": "address"
        },
        {
          "internalType": "uint256",
          "name": "_initialExchangeRate",
          "type": "uint256"
        },
        {
          "internalType": "uint256",
          "name": "_timelock",
          "type": "uint256"
        }
      ],
      "name": "createNewWarpVaultSC",
      "outputs": [
        {
          "internalType": "address",
          "name": "",
          "type": "address"
        }
      ],
      "stateMutability": "nonpayable",
      "type": "function"
    }
  ],
  "bytecode": "0x608060405260006100176001600160e01b0361006616565b600080546001600160a01b0319166001600160a01b0383169081178255604051929350917f8be0079c531659141344cd1fd0a4f28419497f9722a3daafe3b4186f6b6457e0908290a35061006a565b3390565b61429e806100796000396000f3fe608060405234801561001057600080fd5b506004361061004c5760003560e01c8063715018a6146100515780638da5cb5b1461005b578063cee04a561461007f578063f2fde38b146100c1575b600080fd5b6100596100e7565b005b610063610179565b604080516001600160a01b039092168252519081900360200190f35b610063600480360360a081101561009557600080fd5b506001600160a01b03813581169160208101358216916040820135169060608101359060800135610188565b610059600480360360208110156100d757600080fd5b50356001600160a01b0316610259565b6100ef610342565b6000546001600160a01b03908116911614610140576040805162461bcd60e51b8152602060048201819052602482015260008051602062004229833981519152604482015290519081900360640190fd5b600080546040516001600160a01b039091169060008051602062004249833981519152908390a3600080546001600160a01b0319169055565b6000546001600160a01b031690565b6000610192610342565b6000546001600160a01b039081169116146101e3576040805162461bcd60e51b8152602060048201819052602482015260008051602062004229833981519152604482015290519081900360640190fd5b60008686338787876040516101f790610346565b6001600160a01b0396871681529486166020860152928516604080860191909152919094166060840152608083019390935260a082015290519081900360c001906000f08015801561024d573d6000803e3d6000fd5b50979650505050505050565b610261610342565b6000546001600160a01b039081169116146102b2576040805162461bcd60e51b8152602060048201819052602482015260008051602062004229833981519152604482015290519081900360640190fd5b6001600160a01b0381166102f85760405162461bcd60e51b8152600401808060200182810382526026815260200180620042036026913960400191505060405180910390fd5b600080546040516001600160a01b03808516939216916000805160206200424983398151915291a3600080546001600160a01b0319166001600160a01b0392909216919091179055565b3390565b613eae80620003558339019056fe608060405260326007556105dc6008556127106009553480156200002257600080fd5b5060405162003eae38038062003eae833981810160405260c08110156200004857600080fd5b508051602082015160408301516060840151608085015160a09095015193949293919290916000620000826001600160e01b036200051916565b600080546001600160a01b0319166001600160a01b0383169081178255604051929350917f8be0079c531659141344cd1fd0a4f28419497f9722a3daafe3b4186f6b6457e0908290a350600e80546001600160a01b038087166001600160a01b031992831617909255600c8054888416908316179055600f8054928916929091169190911790556200011c6001600160e01b036200051d16565b600355670de0b6b3a76400006004556001829055600b80546001600160a01b0319166001600160a01b03851617905562000163428262000521602090811b62001e7317901c565b600a55600c54604080516306fdde0360e01b815290516001600160a01b039092169182916306fdde03916004808301926000929190829003018186803b158015620001ad57600080fd5b505afa158015620001c2573d6000803e3d6000fd5b505050506040513d6000823e601f3d908101601f191682016040526020811015620001ec57600080fd5b81019080805160405193929190846401000000008211156200020d57600080fd5b9083019060208201858111156200022357600080fd5b82516401000000008111828201881017156200023e57600080fd5b82525081516020918201929091019080838360005b838110156200026d57818101518382015260200162000253565b50505050905090810190601f1680156200029b5780820380516001836020036101000a031916815260200191505b506040818152600c546395d89b4160e01b835290516001600160a01b0390911694506395d89b41935060048083019350600092829003018186803b158015620002e357600080fd5b505afa158015620002f8573d6000803e3d6000fd5b505050506040513d6000823e601f3d908101601f1916820160405260208110156200032257600080fd5b81019080805160405193929190846401000000008211156200034357600080fd5b9083019060208201858111156200035957600080fd5b82516401000000008111828201881017156200037457600080fd5b82525081516020918201929091019080838360005b83811015620003a357818101518382015260200162000389565b50505050905090810190601f168015620003d15780820380516001836020036101000a031916815260200191505b50604052505050604051620003e69062000583565b6001600160a01b0384168152606060208083018281528551928401929092528451604084019160808501919087019080838360005b83811015620004355781810151838201526020016200041b565b50505050905090810190601f168015620004635780820380516001836020036101000a031916815260200191505b50838103825284518152845160209182019186019080838360005b83811015620004985781810151838201526020016200047e565b50505050905090810190601f168015620004c65780820380516001836020036101000a031916815260200191505b5095505050505050604051809103906000f080158015620004eb573d6000803e3d6000fd5b50600d80546001600160a01b0319166001600160a01b03929092169190911790555062000591945050505050565b3390565b4390565b6000828201838110156200057c576040805162461bcd60e51b815260206004820152601b60248201527f536166654d6174683a206164646974696f6e206f766572666c6f770000000000604482015290519081900360640190fd5b9392505050565b6113558062002b5983390190565b6125b880620005a16000396000f3fe608060405234801561001057600080fd5b50600436106101cd5760003560e01c806306dd2e6e146101d25780630e752702146101ec578063122b58181461020b578063173b99041461022f57806317bfdfbc146102375780631f2dc5ef1461025d578063232d46d21461026557806324a045ca1461029157806336820e4b146102cb5780633b1d21a2146102f157806347bd3718146102f957806348dc0b6e146103015780634ee8acc01461030957806357d32b7a146103115780635cf573891461032e5780636c540baf14610336578063715018a61461033e57806373acee98146103465780637746efab1461034e5780637f7142be146103745780638da5cb5b1461037c5780638f7bf4fd146103845780638f840ddd146103aa578063a6afed95146103b2578063a907b3ef146103ba578063aa5af0fd146103e0578063ab292f9b146103e8578063ae9d70b01461041e578063bd6d894d14610426578063cb7b42061461042e578063cd5c6f5714610436578063d40e8f4a1461043e578063db006a751461047d578063e4d8cbe51461049a578063e6136ab6146104bf578063e68fc0ee146104e5578063e9cbd8221461050b578063f2fde38b14610513578063f8f9da2814610539575b600080fd5b6101da610541565b60408051918252519081900360200190f35b6102096004803603602081101561020257600080fd5b5035610547565b005b610213610998565b604080516001600160a01b039092168252519081900360200190f35b6101da6109a7565b6101da6004803603602081101561024d57600080fd5b50356001600160a01b03166109ad565b6101da6109c8565b6102096004803603604081101561027b57600080fd5b50803590602001356001600160a01b03166109ce565b6102b7600480360360208110156102a757600080fd5b50356001600160a01b0316610b72565b604080519115158252519081900360200190f35b6101da600480360360208110156102e157600080fd5b50356001600160a01b0316610b87565b6101da610b99565b6101da610ba9565b610213610baf565b610213610bbe565b6102096004803603602081101561032757600080fd5b5035610bcd565b610213610d5d565b6101da610d6c565b610209610d72565b6101da610e02565b6101da6004803603602081101561036457600080fd5b50356001600160a01b0316610e13565b6101da610eb6565b610213610ebc565b6101da6004803603602081101561039a57600080fd5b50356001600160a01b0316610ecb565b6101da610f81565b610209610f87565b610213600480360360208110156103d057600080fd5b50356001600160a01b03166111f9565b6101da611214565b610209600480360360608110156103fe57600080fd5b506001600160a01b0381358116916020810135909116906040013561121a565b6101da611397565b6101da611436565b6101da611587565b6101da61158d565b6104646004803603602081101561045457600080fd5b50356001600160a01b03166115d2565b6040805192835260208301919091528051918290030190f35b6102096004803603602081101561049357600080fd5b50356115eb565b6101da600480360360408110156104b057600080fd5b50803590602001351515611b02565b6101da600480360360208110156104d557600080fd5b50356001600160a01b0316611b5f565b6101da600480360360208110156104fb57600080fd5b50356001600160a01b0316611c99565b610213611cab565b6102096004803603602081101561052957600080fd5b50356001600160a01b0316611cba565b6101da611da0565b60085481565b600a54421161055557600080fd5b61055d6123cd565b610566336109ad565b606082018190528211156105ab5760405162461bcd60e51b815260040180806020018281038252602c8152602001806124b0602c913960400191505060405180910390fd5b336000818152601060208181526040808420805460e0880152949093525260019091015490820152816105e757606081015160208201526105ef565b602081018290525b602080820151600c54604080516370a0823160e01b8152336004820152905192936001600160a01b03909216926370a0823192602480840193919291829003018186803b15801561063f57600080fd5b505afa158015610653573d6000803e3d6000fd5b505050506040513d602081101561066957600080fd5b505110156106be576040805162461bcd60e51b815260206004820152601e60248201527f4e6f7420656e6f75676820737461626c65636f696e20746f2072657061790000604482015290519081900360640190fd5b600c54602080830151604080516323b872dd60e01b81523360048201523060248201526044810192909252516001600160a01b03909316926323b872dd926064808401939192918290030181600087803b15801561071b57600080fd5b505af115801561072f573d6000803e3d6000fd5b505050506040513d602081101561074557600080fd5b50506060810151602082015161075b9190611e04565b608083018190528282600381111561076f57fe5b600381111561077a57fe5b815250505061078f6005548260200151611e04565b60a08301819052828260038111156107a357fe5b60038111156107ae57fe5b905250503360009081526010602052604090205482116107ef5760808101513360009081526010602052604090819020918255820151600190910155610858565b3360009081526010602052604090205460808201516108139163ffffffff611e2a16565b610100820190815233600090815260106020526040812090815590516001909101546108449163ffffffff611e2a16565b336000908152601060205260409020600101555b60a0810151600555336000908152601060205260409020600181015490546108859163ffffffff611e7316565b60c082015261010081015160009061089d9082611b02565b905060006108b1848363ffffffff611e2a16565b600c54600b546040805163a9059cbb60e01b81526001600160a01b03928316600482015260248101879052905193945091169163a9059cbb916044808201926020929091908290030181600087803b15801561090c57600080fd5b505af1158015610920573d6000803e3d6000fd5b505050506040513d602081101561093657600080fd5b50503360008181526010602090815260409182902080546001909101548351948552918401859052838301526060830152517f0bc102cfc64751888477c44e529873a602bf746175b1e41c6b54e45f926f90f99181900360800190a150505050565b600e546001600160a01b031681565b60025481565b60006109b7610f87565b6109c082610e13565b90505b919050565b60095481565b600e546001600160a01b031633146109e557600080fd5b600a5442116109f357600080fd5b6109fb61241a565b82610a04611ecb565b11610a52576040805162461bcd60e51b8152602060048201526019602482015278139bdd08195b9bdd59da081d1bdad95b9cc81d1bc81b195b99603a1b604482015290519081900360640190fd5b610a5b82610e13565b60208201819052610a6c9084611f16565b6040830181905282826003811115610a8057fe5b6003811115610a8b57fe5b8152505050610a9c60055484611f16565b6060830181905282826003811115610ab057fe5b6003811115610abb57fe5b905250506040808201516001600160a01b03808516600081815260106020908152858220948555600480546001909601959095556060870151600555600c54865163a9059cbb60e01b815295860193909352602485018990529451919092169363a9059cbb93604480820194929392918390030190829087803b158015610b4157600080fd5b505af1158015610b55573d6000803e3d6000fd5b505050506040513d6020811015610b6b57600080fd5b5050505050565b60146020526000908152604090205460ff1681565b60126020526000908152604090205481565b6000610ba3611ecb565b90505b90565b60055481565b600f546001600160a01b031681565b600d546001600160a01b031681565b610bd5612443565b610bdd611436565b602080830191825260408051918201905290518152610bfd908390611f3c565b6040830181905282826003811115610c1157fe5b6003811115610c1c57fe5b90525050600c54604080516323b872dd60e01b81523360048201523060248201526044810185905290516001600160a01b03909216916323b872dd916064808201926020929091908290030181600087803b158015610c7a57600080fd5b505af1158015610c8e573d6000803e3d6000fd5b505050506040513d6020811015610ca457600080fd5b505033600081815260116020526040808220805486019055600d548482015182516340c10f1960e01b81526004810195909552602485015290516001600160a01b03909116926340c10f1992604480830193919282900301818387803b158015610d0d57600080fd5b505af1158015610d21573d6000803e3d6000fd5b5050506040808301518151338152602081018690528083019190915290516000805160206124dc83398151915292509081900360600190a15050565b600b546001600160a01b031681565b60035481565b610d7a611f8f565b6000546001600160a01b03908116911614610dca576040805162461bcd60e51b81526020600482018190526024820152600080516020612543833981519152604482015290519081900360640190fd5b600080546040516001600160a01b0390911690600080516020612563833981519152908390a3600080546001600160a01b0319169055565b6000610e0c610f87565b5060055490565b6001600160a01b0381166000908152601060205260408120805482918291829190610e455760009450505050506109c3565b610e558160000154600454611f93565b90945092506000846003811115610e6857fe5b14610e7a5760009450505050506109c3565b610e88838260010154611fd2565b90945091506000846003811115610e9b57fe5b14610ead5760009450505050506109c3565b50949350505050565b60075481565b6000546001600160a01b031690565b600080610ed661158d565b600d54604080516370a0823160e01b81526001600160a01b038781166004830152915193945060009391909216916370a08231916024808301926020929190829003018186803b158015610f2957600080fd5b505afa158015610f3d573d6000803e3d6000fd5b505050506040513d6020811015610f5357600080fd5b505160408051602081019091528381529091506000908190610f759084611ffd565b50929695505050505050565b60065481565b6000610f91612014565b60035490915080821415610fec576040805162461bcd60e51b815260206004820152601f60248201527f547279696e6720746f2061636372756520696e74657265737420747769636500604482015290519081900360640190fd5b6000610ff6611ecb565b60055460065460048054600f54604080516315f2405360e01b81529384018790526024840186905260448401859052519596509394929390926000926001600160a01b03909216916315f24053916064808301926020929190829003018186803b15801561106357600080fd5b505afa158015611077573d6000803e3d6000fd5b505050506040513d602081101561108d57600080fd5b5051905065048c273950008111156110e9576040805162461bcd60e51b815260206004820152601a6024820152792137b93937bb902930ba329036b0b73a34b9b9b09032b93937b960311b604482015290519081900360640190fd5b6000806110f68989611e04565b91509150611102612465565b60008060008061112060405180602001604052808a81525087612018565b909750945061112f858c611ffd565b909750935061113e848c611f16565b60408051602081019091526002548152919850935061115e90858c612080565b909750915061116e858a80612080565b80925081985050508d6003819055508060048190555082600581905550816006819055507fe3972ae250606e82c6683843383cb8a51755588d2f443af42e8cb5b1e085392d6003546004546005546006546040518085815260200184815260200183815260200182815260200194505050505060405180910390a15050505050505050505050505050565b6013602052600090815260409020546001600160a01b031681565b60045481565b600e546001600160a01b0316331461123157600080fd5b600a54421161123f57600080fd5b600c54604080516323b872dd60e01b81526001600160a01b03858116600483015230602483015260448201859052915191909216916323b872dd9160648083019260209291908290030181600087803b15801561129b57600080fd5b505af11580156112af573d6000803e3d6000fd5b505050506040513d60208110156112c557600080fd5b50600090506112d5826001611b02565b600c54600b546040805163a9059cbb60e01b81526001600160a01b03928316600482015260248101859052905193945091169163a9059cbb916044808201926020929091908290030181600087803b15801561133057600080fd5b505af1158015611344573d6000803e3d6000fd5b505050506040513d602081101561135a57600080fd5b50506001600160a01b03841660009081526010602052604081208181556001015560055461138e908363ffffffff611e2a16565b60055550505050565b600f546000906001600160a01b031663b81688166113b3611ecb565b6005546006546002546040518563ffffffff1660e01b81526004018085815260200184815260200183815260200182815260200194505050505060206040518083038186803b15801561140557600080fd5b505afa158015611419573d6000803e3d6000fd5b505050506040513d602081101561142f57600080fd5b5051905090565b6000611440610f87565b600d60009054906101000a90046001600160a01b03166001600160a01b03166318160ddd6040518163ffffffff1660e01b815260040160206040518083038186803b15801561148e57600080fd5b505afa1580156114a2573d6000803e3d6000fd5b505050506040513d60208110156114b857600080fd5b50516114c75750600154610ba6565b60006114d1611ecb565b905060006114dd612465565b60006114ee846005546006546120dc565b809450819250505061157983600d60009054906101000a90046001600160a01b03166001600160a01b03166318160ddd6040518163ffffffff1660e01b815260040160206040518083038186803b15801561154857600080fd5b505afa15801561155c573d6000803e3d6000fd5b505050506040513d602081101561157257600080fd5b505161211a565b519550610ba6945050505050565b600a5481565b600d54604080516318160ddd60e01b815290516000926001600160a01b0316916318160ddd916004808301926020929190829003018186803b15801561148e57600080fd5b6010602052600090815260409020805460019091015482565b600a5442116115f957600080fd5b611601612478565b600d54604080516370a0823160e01b815233600482015290516001600160a01b03909216916370a0823191602480820192602092909190829003018186803b15801561164c57600080fd5b505afa158015611660573d6000803e3d6000fd5b505050506040513d602081101561167657600080fd5b50516080820152611685611436565b6020808301918252604080519182019052905181526116a5908390611f3c565b60408301819052828260038111156116b957fe5b60038111156116c457fe5b90525050600c54604080516370a0823160e01b8152306004820152905184926001600160a01b0316916370a08231916024808301926020929190829003018186803b15801561171257600080fd5b505afa158015611726573d6000803e3d6000fd5b505050506040513d602081101561173c57600080fd5b50511015611791576040805162461bcd60e51b815260206004820152601f60248201527f4e6f7420656e6f75676820737461626c65636f696e20696e207661756c742e00604482015290519081900360640190fd5b6117b1604051806020016040528083602001518152508260600151611ffd565b60808301819052828260038111156117c557fe5b60038111156117d057fe5b905250503360009081526011602052604081205460808301511115611816573360009081526011602052604090205460808301516118139163ffffffff611e2a16565b90505b611826838263ffffffff611e2a16565b60a08301528083106118fb5733600090815260126020526040902054611852908263ffffffff611e7316565b3360009081526012602090815260408083209390935560119052205460a083015111156118c2576040805162461bcd60e51b815260206004820152601960248201527822b93937b91031b0b631bab630ba34b733903932bbb0b9321760391b604482015290519081900360640190fd5b60a0820151336000908152601160205260409020546118e69163ffffffff611e2a16565b3360009081526011602052604090205561192c565b3360009081526012602052604090205461191b908463ffffffff611e7316565b336000908152601260205260409020555b600061193d8360a001516000611b02565b90506000611951858363ffffffff611e2a16565b600c54600b546040805163a9059cbb60e01b81526001600160a01b03928316600482015260248101879052905193945091169163a9059cbb916044808201926020929091908290030181600087803b1580156119ac57600080fd5b505af11580156119c0573d6000803e3d6000fd5b505050506040513d60208110156119d657600080fd5b5050600d546040808601518151632770a7eb60e21b8152336004820152602481019190915290516001600160a01b0390921691639dc29fac9160448082019260009290919082900301818387803b158015611a3057600080fd5b505af1158015611a44573d6000803e3d6000fd5b5050600c546040805163a9059cbb60e01b81523360048201526024810186905290516001600160a01b03909216935063a9059cbb92506044808201926020929091908290030181600087803b158015611a9c57600080fd5b505af1158015611ab0573d6000803e3d6000fd5b505050506040513d6020811015611ac657600080fd5b50506040808501518151338152602081018490528083019190915290516000805160206124dc8339815191529181900360600190a15050505050565b60008115611b3c576000611b33600954611b27600854876121cb90919063ffffffff16565b9063ffffffff61222416565b9150611b599050565b6000611b33600954611b27600754876121cb90919063ffffffff16565b92915050565b600080611b6a61158d565b600d54604080516370a0823160e01b81526001600160a01b038781166004830152915193945060009391909216916370a08231916024808301926020929190829003018186803b158015611bbd57600080fd5b505afa158015611bd1573d6000803e3d6000fd5b505050506040513d6020811015611be757600080fd5b50516001600160a01b03851660009081526011602052604090205490915081611c2c57505050506001600160a01b0381166000908152601260205260409020546109c3565b600080611c4760405180602001604052808781525085611ffd565b90925090506000611c5e828563ffffffff611e2a16565b6001600160a01b03891660009081526012602052604081205491925090611c8c90839063ffffffff611e7316565b9998505050505050505050565b60116020526000908152604090205481565b600c546001600160a01b031681565b611cc2611f8f565b6000546001600160a01b03908116911614611d12576040805162461bcd60e51b81526020600482018190526024820152600080516020612543833981519152604482015290519081900360640190fd5b6001600160a01b038116611d575760405162461bcd60e51b81526004018080602001828103825260268152602001806124fc6026913960400191505060405180910390fd5b600080546040516001600160a01b038085169392169160008051602061256383398151915291a3600080546001600160a01b0319166001600160a01b0392909216919091179055565b600f546000906001600160a01b03166315f24053611dbc611ecb565b6005546006546040518463ffffffff1660e01b815260040180848152602001838152602001828152602001935050505060206040518083038186803b15801561140557600080fd5b600080838311611e1b575060009050818303611e23565b506003905060005b9250929050565b6000611e6c83836040518060400160405280601e81526020017f536166654d6174683a207375627472616374696f6e206f766572666c6f770000815250612263565b9392505050565b600082820183811015611e6c576040805162461bcd60e51b815260206004820152601b60248201527a536166654d6174683a206164646974696f6e206f766572666c6f7760281b604482015290519081900360640190fd5b600c54604080516370a0823160e01b815230600482015290516000926001600160a01b0316916370a08231916024808301926020929190829003018186803b15801561140557600080fd5b600080838301848110611f2e57600092509050611e23565b506002915060009050611e23565b6000806000611f49612465565b611f5386866122fa565b90925090506000826003811115611f6657fe5b14611f775750915060009050611e23565b6000611f8282612359565b9350935050509250929050565b3390565b60008083611fa657506000905080611e23565b83830283858281611fb357fe5b0414611fc757506002915060009050611e23565b600092509050611e23565b60008082611fe65750600190506000611e23565b6000838581611ff157fe5b04915091509250929050565b600080600061200a612465565b611f538686612018565b4390565b6000612022612465565b600080612033866000015186611f93565b9092509050600082600381111561204657fe5b1461206557506040805160208101909152600081529092509050611e23565b60408051602081019091529081526000969095509350505050565b600080600061208d612465565b6120978787612018565b909250905060008260038111156120aa57fe5b146120bb57509150600090506120d4565b6120cd6120c782612359565b86611f16565b9350935050505b935093915050565b6000806000806120ec8787611f16565b909250905060008260038111156120ff57fe5b1461211057509150600090506120d4565b6120cd8186611e04565b6000612124612465565b60008061213986670de0b6b3a7640000611f93565b9092509050600082600381111561214c57fe5b1461216b57506040805160208101909152600081529092509050611e23565b6000806121788388611fd2565b9092509050600082600381111561218b57fe5b146121ae5781604051806020016040528060008152509550955050505050611e23565b604080516020810190915290815260009890975095505050505050565b6000826121da57506000611b59565b828202828482816121e757fe5b0414611e6c5760405162461bcd60e51b81526004018080602001828103825260218152602001806125226021913960400191505060405180910390fd5b6000611e6c83836040518060400160405280601a815260200179536166654d6174683a206469766973696f6e206279207a65726f60301b815250612368565b600081848411156122f25760405162461bcd60e51b81526004018080602001828103825283818151815260200191508051906020019080838360005b838110156122b757818101518382015260200161229f565b50505050905090810190601f1680156122e45780820380516001836020036101000a031916815260200191505b509250505060405180910390fd5b505050900390565b6000612304612465565b600080612319670de0b6b3a764000087611f93565b9092509050600082600381111561232c57fe5b1461234b57506040805160208101909152600081529092509050611e23565b611f8281866000015161211a565b51670de0b6b3a7640000900490565b600081836123b75760405162461bcd60e51b81526020600482018181528351602484015283519092839260449091019190850190808383600083156122b757818101518382015260200161229f565b5060008385816123c357fe5b0495945050505050565b604080516101208101909152806000815260200160008152602001600081526020016000815260200160008152602001600081526020016000815260200160008152602001600081525090565b604080516080810190915280600081526020016000815260200160008152602001600081525090565b6040805160608101909152806000815260200160008152602001600081525090565b6040518060200160405280600081525090565b6040805160c0810190915280600081526020016000815260200160008152602001600081526020016000815260200160008152509056fe596f752061726520747279696e6720746f20706179206261636b206d6f7265207468616e20796f75206f7765ac45f50416433593e7c9a1f3e0d5f887c530c22d776e1057ecaacb750d24b9404f776e61626c653a206e6577206f776e657220697320746865207a65726f2061646472657373536166654d6174683a206d756c7469706c69636174696f6e206f766572666c6f774f776e61626c653a2063616c6c6572206973206e6f7420746865206f776e65728be0079c531659141344cd1fd0a4f28419497f9722a3daafe3b4186f6b6457e0a26469706673582212206fd4b4317a4e953160fa922a301e5cbbd37f26b122c4d820d3ec2ae806bcc7e864736f6c6343000606003360806040523480156200001157600080fd5b506040516200135538038062001355833981810160405260608110156200003757600080fd5b8151602083018051604051929492938301929190846401000000008211156200005f57600080fd5b9083019060208201858111156200007557600080fd5b82516401000000008111828201881017156200009057600080fd5b82525081516020918201929091019080838360005b83811015620000bf578181015183820152602001620000a5565b50505050905090810190601f168015620000ed5780820380516001836020036101000a031916815260200191505b50604052602001805160405193929190846401000000008211156200011157600080fd5b9083019060208201858111156200012757600080fd5b82516401000000008111828201881017156200014257600080fd5b82525081516020918201929091019080838360005b838110156200017157818101518382015260200162000157565b50505050905090810190601f1680156200019f5780820380516001836020036101000a031916815260200191505b5060405250505080826000620001ba6200026c60201b60201c565b600080546001600160a01b0319166001600160a01b0383169081178255604051929350917f8be0079c531659141344cd1fd0a4f28419497f9722a3daafe3b4186f6b6457e0908290a35081516200021990600490602085019062000271565b5080516200022f90600590602084019062000271565b5050600680546001600160a01b0390951661010002610100600160a81b031960ff1990961660121795909516949094179093555062000313915050565b335b90565b828054600181600116156101000203166002900490600052602060002090601f016020900481019282601f10620002b457805160ff1916838001178555620002e4565b82800160010185558215620002e4579182015b82811115620002e4578251825591602001919060010190620002c7565b50620002f2929150620002f6565b5090565b6200026e91905b80821115620002f25760008155600101620002fd565b61103280620003236000396000f3fe608060405234801561001057600080fd5b50600436106100db5760003560e01c806306fdde03146100e0578063095ea7b31461015d57806318160ddd1461019d57806323b872dd146101b7578063313ce567146101ed578063395093511461020b57806340c10f191461023757806370a0823114610265578063715018a61461028b5780638da5cb5b1461029357806395d89b41146102b75780639dc29fac146102bf578063a457c2d7146102eb578063a9059cbb14610317578063dd62ed3e14610343578063e9cbd82214610371578063f2fde38b14610379575b600080fd5b6100e861039f565b6040805160208082528351818301528351919283929083019185019080838360005b8381101561012257818101518382015260200161010a565b50505050905090810190601f16801561014f5780820380516001836020036101000a031916815260200191505b509250505060405180910390f35b6101896004803603604081101561017357600080fd5b506001600160a01b038135169060200135610435565b604080519115158252519081900360200190f35b6101a5610452565b60408051918252519081900360200190f35b610189600480360360608110156101cd57600080fd5b506001600160a01b03813581169160208101359091169060400135610458565b6101f56104e5565b6040805160ff9092168252519081900360200190f35b6101896004803603604081101561022157600080fd5b506001600160a01b0381351690602001356104ee565b6102636004803603604081101561024d57600080fd5b506001600160a01b038135169060200135610542565b005b6101a56004803603602081101561027b57600080fd5b50356001600160a01b03166105a8565b6102636105c3565b61029b610653565b604080516001600160a01b039092168252519081900360200190f35b6100e8610662565b610263600480360360408110156102d557600080fd5b506001600160a01b0381351690602001356106c3565b6101896004803603604081101561030157600080fd5b506001600160a01b038135169060200135610725565b6101896004803603604081101561032d57600080fd5b506001600160a01b038135169060200135610793565b6101a56004803603604081101561035957600080fd5b506001600160a01b03813581169160200135166107a7565b61029b6107d2565b6102636004803603602081101561038f57600080fd5b50356001600160a01b03166107e6565b60048054604080516020601f600260001961010060018816150201909516949094049384018190048102820181019092528281526060939092909183018282801561042b5780601f106104005761010080835404028352916020019161042b565b820191906000526020600020905b81548152906001019060200180831161040e57829003601f168201915b5050505050905090565b60006104496104426108cc565b84846108d0565b50600192915050565b60035490565b60006104658484846109bc565b6104db846104716108cc565b6104d685604051806060016040528060288152602001610ee6602891396001600160a01b038a166000908152600260205260408120906104af6108cc565b6001600160a01b03168152602081019190915260400160002054919063ffffffff610b1316565b6108d0565b5060019392505050565b60065460ff1690565b60006104496104fb6108cc565b846104d6856002600061050c6108cc565b6001600160a01b03908116825260208083019390935260409182016000908120918c16815292529020549063ffffffff610baa16565b61054a6108cc565b6000546001600160a01b0390811691161461059a576040805162461bcd60e51b81526020600482018190526024820152600080516020610f0e833981519152604482015290519081900360640190fd5b6105a48282610c09565b5050565b6001600160a01b031660009081526001602052604090205490565b6105cb6108cc565b6000546001600160a01b0390811691161461061b576040805162461bcd60e51b81526020600482018190526024820152600080516020610f0e833981519152604482015290519081900360640190fd5b600080546040516001600160a01b0390911690600080516020610f2e833981519152908390a3600080546001600160a01b0319169055565b6000546001600160a01b031690565b60058054604080516020601f600260001961010060018816150201909516949094049384018190048102820181019092528281526060939092909183018282801561042b5780601f106104005761010080835404028352916020019161042b565b6106cb6108cc565b6000546001600160a01b0390811691161461071b576040805162461bcd60e51b81526020600482018190526024820152600080516020610f0e833981519152604482015290519081900360640190fd5b6105a48282610cf5565b60006104496107326108cc565b846104d685604051806060016040528060258152602001610fd8602591396002600061075c6108cc565b6001600160a01b03908116825260208083019390935260409182016000908120918d1681529252902054919063ffffffff610b1316565b60006104496107a06108cc565b84846109bc565b6001600160a01b03918216600090815260026020908152604080832093909416825291909152205490565b60065461010090046001600160a01b031681565b6107ee6108cc565b6000546001600160a01b0390811691161461083e576040805162461bcd60e51b81526020600482018190526024820152600080516020610f0e833981519152604482015290519081900360640190fd5b6001600160a01b0381166108835760405162461bcd60e51b8152600401808060200182810382526026815260200180610e786026913960400191505060405180910390fd5b600080546040516001600160a01b0380851693921691600080516020610f2e83398151915291a3600080546001600160a01b0319166001600160a01b0392909216919091179055565b3390565b6001600160a01b0383166109155760405162461bcd60e51b8152600401808060200182810382526024815260200180610fb46024913960400191505060405180910390fd5b6001600160a01b03821661095a5760405162461bcd60e51b8152600401808060200182810382526022815260200180610e9e6022913960400191505060405180910390fd5b6001600160a01b03808416600081815260026020908152604080832094871680845294825291829020859055815185815291517f8c5be1e5ebec7d5bd14f71427d1e84f3dd0314c0f7b2291e5b200ac8c7c3b9259281900390910190a3505050565b6001600160a01b038316610a015760405162461bcd60e51b8152600401808060200182810382526025815260200180610f8f6025913960400191505060405180910390fd5b6001600160a01b038216610a465760405162461bcd60e51b8152600401808060200182810382526023815260200180610e336023913960400191505060405180910390fd5b610a51838383610deb565b610a9481604051806060016040528060268152602001610ec0602691396001600160a01b038616600090815260016020526040902054919063ffffffff610b1316565b6001600160a01b038085166000908152600160205260408082209390935590841681522054610ac9908263ffffffff610baa16565b6001600160a01b038084166000818152600160209081526040918290209490945580518581529051919392871692600080516020610f4e83398151915292918290030190a3505050565b60008184841115610ba25760405162461bcd60e51b81526004018080602001828103825283818151815260200191508051906020019080838360005b83811015610b67578181015183820152602001610b4f565b50505050905090810190601f168015610b945780820380516001836020036101000a031916815260200191505b509250505060405180910390fd5b505050900390565b600082820183811015610c02576040805162461bcd60e51b815260206004820152601b60248201527a536166654d6174683a206164646974696f6e206f766572666c6f7760281b604482015290519081900360640190fd5b9392505050565b6001600160a01b038216610c64576040805162461bcd60e51b815260206004820152601f60248201527f45524332303a206d696e7420746f20746865207a65726f206164647265737300604482015290519081900360640190fd5b610c7060008383610deb565b600354610c83908263ffffffff610baa16565b6003556001600160a01b038216600090815260016020526040902054610caf908263ffffffff610baa16565b6001600160a01b0383166000818152600160209081526040808320949094558351858152935192939192600080516020610f4e8339815191529281900390910190a35050565b6001600160a01b038216610d3a5760405162461bcd60e51b8152600401808060200182810382526021815260200180610f6e6021913960400191505060405180910390fd5b610d4682600083610deb565b610d8981604051806060016040528060228152602001610e56602291396001600160a01b038516600090815260016020526040902054919063ffffffff610b1316565b6001600160a01b038316600090815260016020526040902055600354610db5908263ffffffff610df016565b6003556040805182815290516000916001600160a01b03851691600080516020610f4e8339815191529181900360200190a35050565b505050565b6000610c0283836040518060400160405280601e81526020017f536166654d6174683a207375627472616374696f6e206f766572666c6f770000815250610b1356fe45524332303a207472616e7366657220746f20746865207a65726f206164647265737345524332303a206275726e20616d6f756e7420657863656564732062616c616e63654f776e61626c653a206e6577206f776e657220697320746865207a65726f206164647265737345524332303a20617070726f766520746f20746865207a65726f206164647265737345524332303a207472616e7366657220616d6f756e7420657863656564732062616c616e636545524332303a207472616e7366657220616d6f756e74206578636565647320616c6c6f77616e63654f776e61626c653a2063616c6c6572206973206e6f7420746865206f776e65728be0079c531659141344cd1fd0a4f28419497f9722a3daafe3b4186f6b6457e0ddf252ad1be2c89b69c2b068fc378daa952ba7f163c4a11628f55a4df523b3ef45524332303a206275726e2066726f6d20746865207a65726f206164647265737345524332303a207472616e736665722066726f6d20746865207a65726f206164647265737345524332303a20617070726f76652066726f6d20746865207a65726f206164647265737345524332303a2064656372656173656420616c6c6f77616e63652062656c6f77207a65726fa2646970667358221220398ad53e61f7765a945daf044a6f2bf27aa287cabed0102adfa9ab3dc209c21964736f6c634300060600334f776e61626c653a206e6577206f776e657220697320746865207a65726f20616464726573734f776e61626c653a2063616c6c6572206973206e6f7420746865206f776e65728be0079c531659141344cd1fd0a4f28419497f9722a3daafe3b4186f6b6457e0a2646970667358221220f0368af1c21dc375ad78ec309ff0a4197fc9d38febd051f265e51cb584905f0264736f6c63430006060033",
  "immutableReferences": {},
  "source": "pragma solidity ^0.6.0;\n\nimport \"./WarpVaultSC.sol\";\nimport \"@openzeppelin/contracts/access/Ownable.sol\";\n\n////////////////////////////////////////////////////////////////////////////////////////////\n/// @title WarpVaultLPFactory\n/// @author Christopher Dixon\n////////////////////////////////////////////////////////////////////////////////////////////\n/**\nThe WarpVaultSCFactory contract is designed to produce individual WarpVaultLP contracts\nThis contract uses the OpenZeppelin contract Library to inherit functions from\n  Ownable.sol\n**/\n\ncontract WarpVaultSCFactory is Ownable {\n    /**\n@notice createNewWarpVaultSC is used to create new WarpVaultSC contract instances\n@param _InterestRate is the address of the InterestRateModel contract created for this Warp Vault\n@param _StableCoin is the address of the stablecoin contract this WarpVault will manage\n@param _warpTeam is the address of the Warp Team used for fees\n@param _initialExchangeRate is the exchange rate mantissa used to determine the initial exchange rate of stablecoin to warp stablecoin\n@param _timelock is a variable representing the number of seconds the timeWizard will prevent withdraws and borrows from a contracts(one week is 605800 seconds)\n  **/\n    function createNewWarpVaultSC(\n        address _InterestRate,\n        address _StableCoin,\n        address _warpTeam,\n        uint256 _initialExchangeRate,\n        uint256 _timelock\n    ) public onlyOwner returns (address) {\n        address _WVSC = address(\n            new WarpVaultSC(\n                _InterestRate,\n                _StableCoin,\n                msg.sender,\n                _warpTeam,\n                _initialExchangeRate,\n                _timelock\n            )\n        );\n\n        return _WVSC;\n    }\n}\n",
  "sourcePath": "/home/stan36/repos/Warp/Smart-Contracts/contracts/WarpVaultSCFactory.sol",
  "compiler": {
    "name": "solc",
    "version": "0.6.6+commit.6c089d02.Emscripten.clang"
  },
  "schemaVersion": "3.3.2",
  "updatedAt": "2020-11-20T23:29:54.042Z",
  "networkType": "ethereum",
  "devdoc": {
    "methods": {
      "createNewWarpVaultSC(address,address,address,uint256,uint256)": {
        "params": {
          "_InterestRate": "is the address of the InterestRateModel contract created for this Warp Vault",
          "_StableCoin": "is the address of the stablecoin contract this WarpVault will manage",
          "_initialExchangeRate": "is the exchange rate mantissa used to determine the initial exchange rate of stablecoin to warp stablecoin",
          "_timelock": "is a variable representing the number of seconds the timeWizard will prevent withdraws and borrows from a contracts(one week is 605800 seconds)*",
          "_warpTeam": "is the address of the Warp Team used for fees"
        }
      },
      "owner()": {
        "details": "Returns the address of the current owner."
      },
      "renounceOwnership()": {
        "details": "Leaves the contract without owner. It will not be possible to call `onlyOwner` functions anymore. Can only be called by the current owner.     * NOTE: Renouncing ownership will leave the contract without an owner, thereby removing any functionality that is only available to the owner."
      },
      "transferOwnership(address)": {
        "details": "Transfers ownership of the contract to a new account (`newOwner`). Can only be called by the current owner."
      }
    }
  },
  "userdoc": {
    "methods": {
      "createNewWarpVaultSC(address,address,address,uint256,uint256)": {
        "notice": "createNewWarpVaultSC is used to create new WarpVaultSC contract instances"
      }
    },
    "notice": "The WarpVaultSCFactory contract is designed to produce individual WarpVaultLP contracts This contract uses the OpenZeppelin contract Library to inherit functions from Ownable.sol*"
  }
}