{
  "contractName": "WarpControl",
  "abi": [
    {
      "inputs": [
        {
          "internalType": "address",
          "name": "_oracle",
          "type": "address"
        },
        {
          "internalType": "address",
          "name": "_WVLPF",
          "type": "address"
        },
        {
          "internalType": "address",
          "name": "_WVSCF",
          "type": "address"
        },
        {
          "internalType": "address",
          "name": "_warpTeam",
          "type": "address"
        }
      ],
      "stateMutability": "nonpayable",
      "type": "constructor"
    },
    {
      "anonymous": false,
      "inputs": [
        {
          "indexed": false,
          "internalType": "address",
          "name": "_vault",
          "type": "address"
        }
      ],
      "name": "ImportedLPVault",
      "type": "event"
    },
    {
      "anonymous": false,
      "inputs": [
        {
          "indexed": false,
          "internalType": "address",
          "name": "_vault",
          "type": "address"
        }
      ],
      "name": "ImportedSCVault",
      "type": "event"
    },
    {
      "anonymous": false,
      "inputs": [
        {
          "indexed": false,
          "internalType": "address",
          "name": "_account",
          "type": "address"
        },
        {
          "indexed": false,
          "internalType": "address",
          "name": "liquidator",
          "type": "address"
        }
      ],
      "name": "Liquidation",
      "type": "event"
    },
    {
      "anonymous": false,
      "inputs": [
        {
          "indexed": false,
          "internalType": "address",
          "name": "_borrower",
          "type": "address"
        },
        {
          "indexed": false,
          "internalType": "address",
          "name": "_StableCoin",
          "type": "address"
        },
        {
          "indexed": false,
          "internalType": "uint256",
          "name": "_amountBorrowed",
          "type": "uint256"
        }
      ],
      "name": "NewBorrow",
      "type": "event"
    },
    {
      "anonymous": false,
      "inputs": [
        {
          "indexed": false,
          "internalType": "address",
          "name": "_newVault",
          "type": "address"
        }
      ],
      "name": "NewLPVault",
      "type": "event"
    },
    {
      "anonymous": false,
      "inputs": [
        {
          "indexed": false,
          "internalType": "address",
          "name": "_newVault",
          "type": "address"
        },
        {
          "indexed": false,
          "internalType": "address",
          "name": "_interestRateModel",
          "type": "address"
        }
      ],
      "name": "NewSCVault",
      "type": "event"
    },
    {
      "anonymous": false,
      "inputs": [
        {
          "indexed": true,
          "internalType": "address",
          "name": "previousOwner",
          "type": "address"
        },
        {
          "indexed": true,
          "internalType": "address",
          "name": "newOwner",
          "type": "address"
        }
      ],
      "name": "OwnershipTransferred",
      "type": "event"
    },
    {
      "inputs": [],
      "name": "Oracle",
      "outputs": [
        {
          "internalType": "contract UniswapLPOracleFactoryI",
          "name": "",
          "type": "address"
        }
      ],
      "stateMutability": "view",
      "type": "function"
    },
    {
      "inputs": [],
      "name": "WVLPF",
      "outputs": [
        {
          "internalType": "contract WarpVaultLPFactoryI",
          "name": "",
          "type": "address"
        }
      ],
      "stateMutability": "view",
      "type": "function"
    },
    {
      "inputs": [],
      "name": "WVSCF",
      "outputs": [
        {
          "internalType": "contract WarpVaultSCFactoryI",
          "name": "",
          "type": "address"
        }
      ],
      "stateMutability": "view",
      "type": "function"
    },
    {
      "inputs": [
        {
          "internalType": "address",
          "name": "",
          "type": "address"
        }
      ],
      "name": "getAssetByVault",
      "outputs": [
        {
          "internalType": "address",
          "name": "",
          "type": "address"
        }
      ],
      "stateMutability": "view",
      "type": "function"
    },
    {
      "inputs": [],
      "name": "graceSpace",
      "outputs": [
        {
          "internalType": "uint256",
          "name": "",
          "type": "uint256"
        }
      ],
      "stateMutability": "view",
      "type": "function"
    },
    {
      "inputs": [
        {
          "internalType": "address",
          "name": "",
          "type": "address"
        }
      ],
      "name": "instanceLPTracker",
      "outputs": [
        {
          "internalType": "address",
          "name": "",
          "type": "address"
        }
      ],
      "stateMutability": "view",
      "type": "function"
    },
    {
      "inputs": [
        {
          "internalType": "address",
          "name": "",
          "type": "address"
        }
      ],
      "name": "instanceSCTracker",
      "outputs": [
        {
          "internalType": "address",
          "name": "",
          "type": "address"
        }
      ],
      "stateMutability": "view",
      "type": "function"
    },
    {
      "inputs": [
        {
          "internalType": "address",
          "name": "",
          "type": "address"
        }
      ],
      "name": "isVault",
      "outputs": [
        {
          "internalType": "bool",
          "name": "",
          "type": "bool"
        }
      ],
      "stateMutability": "view",
      "type": "function"
    },
    {
      "inputs": [
        {
          "internalType": "uint256",
          "name": "",
          "type": "uint256"
        }
      ],
      "name": "lpVaults",
      "outputs": [
        {
          "internalType": "address",
          "name": "",
          "type": "address"
        }
      ],
      "stateMutability": "view",
      "type": "function"
    },
    {
      "inputs": [],
      "name": "newWarpControl",
      "outputs": [
        {
          "internalType": "address",
          "name": "",
          "type": "address"
        }
      ],
      "stateMutability": "view",
      "type": "function"
    },
    {
      "inputs": [],
      "name": "owner",
      "outputs": [
        {
          "internalType": "address",
          "name": "",
          "type": "address"
        }
      ],
      "stateMutability": "view",
      "type": "function"
    },
    {
      "inputs": [],
      "name": "renounceOwnership",
      "outputs": [],
      "stateMutability": "nonpayable",
      "type": "function"
    },
    {
      "inputs": [
        {
          "internalType": "uint256",
          "name": "",
          "type": "uint256"
        }
      ],
      "name": "scVaults",
      "outputs": [
        {
          "internalType": "address",
          "name": "",
          "type": "address"
        }
      ],
      "stateMutability": "view",
      "type": "function"
    },
    {
      "inputs": [
        {
          "internalType": "address",
          "name": "newOwner",
          "type": "address"
        }
      ],
      "name": "transferOwnership",
      "outputs": [],
      "stateMutability": "nonpayable",
      "type": "function"
    },
    {
      "inputs": [],
      "name": "warpTeam",
      "outputs": [
        {
          "internalType": "address",
          "name": "",
          "type": "address"
        }
      ],
      "stateMutability": "view",
      "type": "function"
    },
    {
      "inputs": [],
      "name": "viewNumLPVaults",
      "outputs": [
        {
          "internalType": "uint256",
          "name": "",
          "type": "uint256"
        }
      ],
      "stateMutability": "view",
      "type": "function"
    },
    {
      "inputs": [],
      "name": "viewNumSCVaults",
      "outputs": [
        {
          "internalType": "uint256",
          "name": "",
          "type": "uint256"
        }
      ],
      "stateMutability": "view",
      "type": "function"
    },
    {
      "inputs": [
        {
          "internalType": "uint256",
          "name": "_timelock",
          "type": "uint256"
        },
        {
          "internalType": "address",
          "name": "_lp",
          "type": "address"
        },
        {
          "internalType": "address",
          "name": "_lpAsset1",
          "type": "address"
        },
        {
          "internalType": "address",
          "name": "_lpAsset2",
          "type": "address"
        },
        {
          "internalType": "string",
          "name": "_lpName",
          "type": "string"
        }
      ],
      "name": "createNewLPVault",
      "outputs": [],
      "stateMutability": "nonpayable",
      "type": "function"
    },
    {
      "inputs": [
        {
          "internalType": "address",
          "name": "_lpVault",
          "type": "address"
        }
      ],
      "name": "importLPVault",
      "outputs": [],
      "stateMutability": "nonpayable",
      "type": "function"
    },
    {
      "inputs": [
        {
          "internalType": "uint256",
          "name": "_timelock",
          "type": "uint256"
        },
        {
          "internalType": "uint256",
          "name": "_baseRatePerYear",
          "type": "uint256"
        },
        {
          "internalType": "uint256",
          "name": "_multiplierPerYear",
          "type": "uint256"
        },
        {
          "internalType": "uint256",
          "name": "_jumpMultiplierPerYear",
          "type": "uint256"
        },
        {
          "internalType": "uint256",
          "name": "_optimal",
          "type": "uint256"
        },
        {
          "internalType": "uint256",
          "name": "_initialExchangeRate",
          "type": "uint256"
        },
        {
          "internalType": "uint256",
          "name": "_reserveFactorMantissa",
          "type": "uint256"
        },
        {
          "internalType": "address",
          "name": "_StableCoin",
          "type": "address"
        }
      ],
      "name": "createNewSCVault",
      "outputs": [],
      "stateMutability": "nonpayable",
      "type": "function"
    },
    {
      "inputs": [
        {
          "internalType": "address",
          "name": "_scVault",
          "type": "address"
        }
      ],
      "name": "importSCVault",
      "outputs": [],
      "stateMutability": "nonpayable",
      "type": "function"
    },
    {
      "inputs": [
        {
          "internalType": "address",
          "name": "account",
          "type": "address"
        },
        {
          "internalType": "address",
          "name": "lpToken",
          "type": "address"
        }
      ],
      "name": "getMaxWithdrawAllowed",
      "outputs": [
        {
          "internalType": "uint256",
          "name": "",
          "type": "uint256"
        }
      ],
      "stateMutability": "nonpayable",
      "type": "function"
    },
    {
      "inputs": [
        {
          "internalType": "address",
          "name": "account",
          "type": "address"
        },
        {
          "internalType": "address",
          "name": "lpToken",
          "type": "address"
        }
      ],
      "name": "viewMaxWithdrawAllowed",
      "outputs": [
        {
          "internalType": "uint256",
          "name": "",
          "type": "uint256"
        }
      ],
      "stateMutability": "view",
      "type": "function"
    },
    {
      "inputs": [
        {
          "internalType": "address",
          "name": "_account",
          "type": "address"
        }
      ],
      "name": "getTotalAvailableCollateralValue",
      "outputs": [
        {
          "internalType": "uint256",
          "name": "",
          "type": "uint256"
        }
      ],
      "stateMutability": "nonpayable",
      "type": "function"
    },
    {
      "inputs": [
        {
          "internalType": "address",
          "name": "_account",
          "type": "address"
        }
      ],
      "name": "viewTotalAvailableCollateralValue",
      "outputs": [
        {
          "internalType": "uint256",
          "name": "",
          "type": "uint256"
        }
      ],
      "stateMutability": "view",
      "type": "function"
    },
    {
      "inputs": [
        {
          "internalType": "address",
          "name": "lpToken",
          "type": "address"
        }
      ],
      "name": "viewPriceOfCollateral",
      "outputs": [
        {
          "internalType": "uint256",
          "name": "",
          "type": "uint256"
        }
      ],
      "stateMutability": "view",
      "type": "function"
    },
    {
      "inputs": [
        {
          "internalType": "address",
          "name": "lpToken",
          "type": "address"
        }
      ],
      "name": "getPriceOfCollateral",
      "outputs": [
        {
          "internalType": "uint256",
          "name": "",
          "type": "uint256"
        }
      ],
      "stateMutability": "nonpayable",
      "type": "function"
    },
    {
      "inputs": [
        {
          "internalType": "address",
          "name": "token",
          "type": "address"
        },
        {
          "internalType": "uint256",
          "name": "amount",
          "type": "uint256"
        }
      ],
      "name": "viewPriceOfToken",
      "outputs": [
        {
          "internalType": "uint256",
          "name": "",
          "type": "uint256"
        }
      ],
      "stateMutability": "view",
      "type": "function"
    },
    {
      "inputs": [
        {
          "internalType": "address",
          "name": "token",
          "type": "address"
        },
        {
          "internalType": "uint256",
          "name": "amount",
          "type": "uint256"
        }
      ],
      "name": "getPriceOfToken",
      "outputs": [
        {
          "internalType": "uint256",
          "name": "",
          "type": "uint256"
        }
      ],
      "stateMutability": "nonpayable",
      "type": "function"
    },
    {
      "inputs": [
        {
          "internalType": "address",
          "name": "_account",
          "type": "address"
        }
      ],
      "name": "viewTotalLentValue",
      "outputs": [
        {
          "internalType": "uint256",
          "name": "",
          "type": "uint256"
        }
      ],
      "stateMutability": "view",
      "type": "function"
    },
    {
      "inputs": [
        {
          "internalType": "address",
          "name": "_account",
          "type": "address"
        }
      ],
      "name": "viewTotalBorrowedValue",
      "outputs": [
        {
          "internalType": "uint256",
          "name": "",
          "type": "uint256"
        }
      ],
      "stateMutability": "view",
      "type": "function"
    },
    {
      "inputs": [
        {
          "internalType": "address",
          "name": "_account",
          "type": "address"
        }
      ],
      "name": "getTotalBorrowedValue",
      "outputs": [
        {
          "internalType": "uint256",
          "name": "",
          "type": "uint256"
        }
      ],
      "stateMutability": "nonpayable",
      "type": "function"
    },
    {
      "inputs": [
        {
          "internalType": "uint256",
          "name": "_collateralValue",
          "type": "uint256"
        }
      ],
      "name": "calcBorrowLimit",
      "outputs": [
        {
          "internalType": "uint256",
          "name": "",
          "type": "uint256"
        }
      ],
      "stateMutability": "pure",
      "type": "function"
    },
    {
      "inputs": [
        {
          "internalType": "uint256",
          "name": "_borrowAmount",
          "type": "uint256"
        }
      ],
      "name": "calcCollateralRequired",
      "outputs": [
        {
          "internalType": "uint256",
          "name": "",
          "type": "uint256"
        }
      ],
      "stateMutability": "pure",
      "type": "function"
    },
    {
      "inputs": [
        {
          "internalType": "address",
          "name": "_account",
          "type": "address"
        }
      ],
      "name": "getBorrowLimit",
      "outputs": [
        {
          "internalType": "uint256",
          "name": "",
          "type": "uint256"
        }
      ],
      "stateMutability": "nonpayable",
      "type": "function"
    },
    {
      "inputs": [
        {
          "internalType": "address",
          "name": "_account",
          "type": "address"
        }
      ],
      "name": "viewBorrowLimit",
      "outputs": [
        {
          "internalType": "uint256",
          "name": "",
          "type": "uint256"
        }
      ],
      "stateMutability": "view",
      "type": "function"
    },
    {
      "inputs": [
        {
          "internalType": "address",
          "name": "_StableCoin",
          "type": "address"
        },
        {
          "internalType": "uint256",
          "name": "_amount",
          "type": "uint256"
        }
      ],
      "name": "borrowSC",
      "outputs": [],
      "stateMutability": "nonpayable",
      "type": "function"
    },
    {
      "inputs": [
        {
          "internalType": "address",
          "name": "_borrower",
          "type": "address"
        }
      ],
      "name": "liquidateAccount",
      "outputs": [],
      "stateMutability": "nonpayable",
      "type": "function"
    },
    {
      "inputs": [
        {
          "internalType": "address",
          "name": "_token",
          "type": "address"
        },
        {
          "internalType": "uint256",
          "name": "_baseRatePerYear",
          "type": "uint256"
        },
        {
          "internalType": "uint256",
          "name": "_multiplierPerYear",
          "type": "uint256"
        },
        {
          "internalType": "uint256",
          "name": "_jumpMultiplierPerYear",
          "type": "uint256"
        },
        {
          "internalType": "uint256",
          "name": "_optimal",
          "type": "uint256"
        }
      ],
      "name": "updateInterestRateModel",
      "outputs": [],
      "stateMutability": "nonpayable",
      "type": "function"
    },
    {
      "inputs": [
        {
          "internalType": "address",
          "name": "_newWarpControl",
          "type": "address"
        }
      ],
      "name": "startUpgradeTimer",
      "outputs": [],
      "stateMutability": "nonpayable",
      "type": "function"
    },
    {
      "inputs": [],
      "name": "upgradeWarp",
      "outputs": [],
      "stateMutability": "nonpayable",
      "type": "function"
    },
    {
      "inputs": [
        {
          "internalType": "address",
          "name": "_newWarp",
          "type": "address"
        }
      ],
      "name": "transferWarpTeam",
      "outputs": [],
      "stateMutability": "nonpayable",
      "type": "function"
    }
  ],
  "bytecode": "0x60806040523480156200001157600080fd5b50604051620038a8380380620038a8833981810160405260808110156200003757600080fd5b50805160208201516040830151606090930151919290916000620000636001600160e01b036200010116565b600080546001600160a01b0319166001600160a01b0383169081178255604051929350917f8be0079c531659141344cd1fd0a4f28419497f9722a3daafe3b4186f6b6457e0908290a350600180546001600160a01b039586166001600160a01b031991821617909155600280549486169482169490941790935560038054928516928416929092179091556004805491909316911617905562000105565b3390565b61379380620001156000396000f3fe60806040523480156200001157600080fd5b5060043610620002985760003560e01c806388c342ea1162000165578063cf23073811620000d5578063ed6072f61162000093578063ed6072f6146200087b578063efdebdf5146200089b578063f24a534e14620008a5578063f2fde38b14620008af578063f3c7f98714620008d8578063faa8f7c214620009095762000298565b8063cf2307381462000713578063da4f7fb21462000754578063e1535d121462000774578063e50f4a30146200077e578063ea3f847f14620008525762000298565b8063acc9e5b11162000123578063acc9e5b1146200066e578063b04207921462000697578063bc64cd4e14620006b7578063bc816cac14620006e0578063be9287e314620006ea5762000298565b806388c342ea14620005b25780638ac5d4a314620005e15780638da5cb5b146200060a578063a2b35d9d1462000614578063ab5e2c99146200063d5762000298565b80635cf57389116200020d5780636af5f75211620001cb5780636af5f75214620004fa578063715018a614620005045780637a58dc9f146200050e5780637af70ba614620005375780637c17d237146200056057806388236b5a14620005895762000298565b80635cf57389146200044157806362226308146200044b578063652b9b41146200046b57806368f505ad14620004a8578063692d295d14620004d15762000298565b80631a2a16b5116200025b5780631a2a16b514620003815780631dbb0b8114620003b05780632792bdd014620003ba5780632f74020c146200040e5780634e590bee14620004185762000298565b806302e0df2d146200029d5780630a55598914620002c85780630a8a4d3f14620002f75780630c1e2b921462000313578063169d4b141462000358575b600080fd5b620002c660048036036020811015620002b557600080fd5b50356001600160a01b031662000932565b005b620002c660048036036040811015620002e057600080fd5b506001600160a01b03813516906020013562000a49565b6200030162000bac565b60408051918252519081900360200190f35b6200033c600480360360208110156200032b57600080fd5b50356001600160a01b031662000bb2565b604080516001600160a01b039092168252519081900360200190f35b62000301600480360360208110156200037057600080fd5b50356001600160a01b031662000bcd565b62000301600480360360408110156200039957600080fd5b506001600160a01b03813516906020013562000bef565b6200030162000c7f565b620002c66004803603610100811015620003d357600080fd5b5080359060208101359060408101359060608101359060808101359060a08101359060c08101359060e001356001600160a01b031662000c85565b6200033c62000ec7565b62000301600480360360208110156200043057600080fd5b50356001600160a01b031662000ed6565b6200033c62000f5c565b6200033c600480360360208110156200046357600080fd5b503562000f6b565b62000494600480360360208110156200048357600080fd5b50356001600160a01b031662000f93565b604080519115158252519081900360200190f35b620002c660048036036020811015620004c057600080fd5b50356001600160a01b031662000fa8565b6200030160048036036020811015620004e957600080fd5b50356001600160a01b03166200113c565b6200033c620011a4565b620002c6620011b3565b620002c6600480360360208110156200052657600080fd5b50356001600160a01b031662001259565b62000301600480360360208110156200054f57600080fd5b50356001600160a01b0316620012e5565b62000301600480360360208110156200057857600080fd5b50356001600160a01b0316620014e5565b620002c660048036036020811015620005a157600080fd5b50356001600160a01b0316620014f3565b6200030160048036036040811015620005ca57600080fd5b506001600160a01b03813516906020013562001687565b620002c660048036036020811015620005f957600080fd5b50356001600160a01b0316620016f6565b6200033c62001ac4565b62000301600480360360208110156200062c57600080fd5b50356001600160a01b031662001ad3565b62000301600480360360408110156200065557600080fd5b506001600160a01b038135811691602001351662001c2c565b6200033c600480360360208110156200068657600080fd5b50356001600160a01b031662001d2b565b6200033c60048036036020811015620006af57600080fd5b503562001d46565b6200030160048036036020811015620006cf57600080fd5b50356001600160a01b031662001d54565b620002c662001f30565b62000301600480360360208110156200070257600080fd5b50356001600160a01b0316620021d8565b620002c6600480360360a08110156200072b57600080fd5b506001600160a01b03813516906020810135906040810135906060810135906080013562002328565b62000301600480360360208110156200076c57600080fd5b503562002463565b620003016200247e565b620002c6600480360360a08110156200079657600080fd5b8135916001600160a01b03602082013581169260408301358216926060810135909216919081019060a081016080820135640100000000811115620007da57600080fd5b820183602082011115620007ed57600080fd5b803590602001918460018302840111640100000000831117156200081057600080fd5b91908080601f01602080910402602001604051908101604052809392919081815260200183838082843760009201919091525092955062002484945050505050565b6200033c600480360360208110156200086a57600080fd5b50356001600160a01b03166200271a565b62000301600480360360208110156200089357600080fd5b503562002735565b6200033c6200275f565b6200033c6200276e565b620002c660048036036020811015620008c757600080fd5b50356001600160a01b03166200277d565b6200030160048036036040811015620008f057600080fd5b506001600160a01b03813581169160200135166200287b565b62000301600480360360208110156200092157600080fd5b50356001600160a01b031662002926565b6200093c62002a41565b6000546001600160a01b039081169116146200098e576040805162461bcd60e51b815260206004820181905260248201526000805160206200373e833981519152604482015290519081900360640190fd5b600854600480546001600160a01b0319166001600160a01b03841617905560005b8181101562000a4457600060088281548110620009c857fe5b600091825260208220015460408051632c8fcd6560e21b81526001600160a01b0388811660048301529151919092169350839263b23f3594926024808201939182900301818387803b15801562000a1e57600080fd5b505af115801562000a33573d6000803e3d6000fd5b5050505050806001019050620009af565b505050565b600062000a563362001ad3565b9050600062000a6533620014e5565b9050600062000a7b828463ffffffff62002a4516565b9050600062000a8b868662001687565b90508082101562000ae3576040805162461bcd60e51b815260206004820152601b60248201527f426f72726f77696e67206d6f7265207468616e20616c6c6f7765640000000000604482015290519081900360640190fd5b6001600160a01b038087166000908152600a6020526040808220548151631196a36960e11b8152600481018a90523360248201529151931692839263232d46d2926044808201939182900301818387803b15801562000b4157600080fd5b505af115801562000b56573d6000803e3d6000fd5b5050604080513381526001600160a01b038b1660208201528082018a905290517f39afaad37daff6f7a5998bf9de35bb3f46d51f73227bb182d92c016c981a82909350908190036060019150a150505050505050565b60065481565b600a602052600090815260409020546001600160a01b031681565b60008062000bdb8362001d54565b905062000be88162002735565b9392505050565b60015460408051631a2a16b560e01b81526001600160a01b0385811660048301526024820185905291516000939290921691631a2a16b591604480820192602092909190829003018186803b15801562000c4857600080fd5b505afa15801562000c5d573d6000803e3d6000fd5b505050506040513d602081101562000c7457600080fd5b505190505b92915050565b60085490565b62000c8f62002a41565b6000546001600160a01b0390811691161462000ce1576040805162461bcd60e51b815260206004820181905260248201526000805160206200373e833981519152604482015290519081900360640190fd5b6000878787873060405162000cf69062002c8a565b948552602085019390935260408085019290925260608401526001600160a01b039091166080830152519081900360a001906000f08015801562000d3e573d6000803e3d6000fd5b506003546004805460408051630f10a94560e31b81526001600160a01b03808716948201949094528784166024820152918316604483015260648201899052608482018e905260a482018890525193945060009391909216916378854a289160c480830192602092919082900301818787803b15801562000dbe57600080fd5b505af115801562000dd3573d6000803e3d6000fd5b505050506040513d602081101562000dea57600080fd5b50516001600160a01b038085166000818152600a6020908152604080832080548688166001600160a01b031991821681179092556008805460018181019092557ff3f7a9fe364faab93b216da50a3214154f22a0a2b415b23a84c8169e8b636ee3018054831684179055828652600c8552838620805460ff19169091179055600b845293829020805490941690941790925581519283529286169282019290925281519293507f2c3b5544df8032e6313fd1e59faede21004ab06bb69c1f6640a41566225cb00a929081900390910190a150505050505050505050565b6005546001600160a01b031681565b6001546040805163b04c6d3f60e01b81526001600160a01b0384811660048301529151600093929092169163b04c6d3f91602480820192602092909190829003018186803b15801562000f2857600080fd5b505afa15801562000f3d573d6000803e3d6000fd5b505050506040513d602081101562000f5457600080fd5b505192915050565b6004546001600160a01b031681565b6007818154811062000f7957fe5b6000918252602090912001546001600160a01b0316905081565b600c6020526000908152604090205460ff1681565b62000fb262002a41565b6000546001600160a01b0390811691161462001004576040805162461bcd60e51b815260206004820181905260248201526000805160206200373e833981519152604482015290519081900360640190fd5b60008190506000816001600160a01b031663591cec866040518163ffffffff1660e01b815260040160206040518083038186803b1580156200104557600080fd5b505afa1580156200105a573d6000803e3d6000fd5b505050506040513d60208110156200107157600080fd5b50516001600160a01b038082166000818152600a6020908152604080832080546001600160a01b0319908116968b169687179091556008805460018181019092557ff3f7a9fe364faab93b216da50a3214154f22a0a2b415b23a84c8169e8b636ee3018054831688179055868552600c8452828520805460ff19169091179055600b8352928190208054909316909317909155815192835290519293507ff82a5541ca7d6caee68c834562b18f4b3e4228a200aae195fdf26770dd28cd1592918290030190a1505050565b6001546040805163fc57d4df60e01b81526001600160a01b0384811660048301529151600093929092169163fc57d4df9160248082019260209290919082900301818787803b1580156200118f57600080fd5b505af115801562000f3d573d6000803e3d6000fd5b6002546001600160a01b031681565b620011bd62002a41565b6000546001600160a01b039081169116146200120f576040805162461bcd60e51b815260206004820181905260248201526000805160206200373e833981519152604482015290519081900360640190fd5b600080546040516001600160a01b03909116907f8be0079c531659141344cd1fd0a4f28419497f9722a3daafe3b4186f6b6457e0908390a3600080546001600160a01b0319169055565b6200126362002a41565b6000546001600160a01b03908116911614620012b5576040805162461bcd60e51b815260206004820181905260248201526000805160206200373e833981519152604482015290519081900360640190fd5b600580546001600160a01b0319166001600160a01b038316179055620012df426202a30062002a89565b60065550565b60075460009081805b82811015620014c2576000600782815481106200130757fe5b6000918252602080832090910154604080516313082b1d60e21b815290516001600160a01b0390921694508492634c20ac7492600480840193829003018186803b1580156200135557600080fd5b505afa1580156200136a573d6000803e3d6000fd5b505050506040513d60208110156200138157600080fd5b50516001546040805163fc57d4df60e01b81526001600160a01b0380851660048301529151939450600093919092169163fc57d4df91602480830192602092919082900301818787803b158015620013d857600080fd5b505af1158015620013ed573d6000803e3d6000fd5b505050506040513d60208110156200140457600080fd5b50516040805163f919b4bf60e01b81526001600160a01b038b8116600483015291519293506000929186169163f919b4bf91602480820192602092909190829003018186803b1580156200145757600080fd5b505afa1580156200146c573d6000803e3d6000fd5b505050506040513d60208110156200148357600080fd5b5051905060006200149b828463ffffffff62002ae416565b9050620014af878263ffffffff62002a8916565b96505050505050806001019050620012ee565b50620014dd81670de0b6b3a764000063ffffffff62002b4216565b949350505050565b60008062000bdb83620012e5565b620014fd62002a41565b6000546001600160a01b039081169116146200154f576040805162461bcd60e51b815260206004820181905260248201526000805160206200373e833981519152604482015290519081900360640190fd5b60008190506000816001600160a01b0316634c20ac746040518163ffffffff1660e01b815260040160206040518083038186803b1580156200159057600080fd5b505afa158015620015a5573d6000803e3d6000fd5b505050506040513d6020811015620015bc57600080fd5b50516001600160a01b03808216600081815260096020908152604080832080546001600160a01b0319908116968b169687179091556007805460018181019092557fa66cc928b5edb82af9bd49922954155ab7b0942694bea4ce44661d9a8736c688018054831688179055868552600c8452828520805460ff19169091179055600b8352928190208054909316909317909155815192835290519293507f0d4aa38d72aeeb4686737a96fec3064146b373b310127c39e9405ceabb0968bd92918290030190a1505050565b60015460408051634461a17560e11b81526001600160a01b03858116600483015260248201859052915160009392909216916388c342ea9160448082019260209290919082900301818787803b158015620016e157600080fd5b505af115801562000c5d573d6000803e3d6000fd5b336001600160a01b038216141562001755576040805162461bcd60e51b815260206004820152601b60248201527f796f752063616e74206c697175696461746520796f757273656c660000000000604482015290519081900360640190fd5b600854600754600060608367ffffffffffffffff811180156200177757600080fd5b50604051908082528060200260200182016040528015620017a2578160200160208202803683370190505b50905060005b84811015620018cf57600060088281548110620017c157fe5b6000918252602080832090910154604080516305eff7ef60e21b81526001600160a01b038c81166004830152915191909216945084936317bfdfbc93602480850194919392918390030190829087803b1580156200181e57600080fd5b505af115801562001833573d6000803e3d6000fd5b505050506040513d60208110156200184a57600080fd5b505183518490849081106200185b57fe5b6020908102919091018101919091526001600160a01b038083166000908152600b90925260408220548551620018ab9291909116908690869081106200189d57fe5b602002602001015162000bef565b9050620018bf858263ffffffff62002a8916565b94505050806001019050620017a8565b506000620018dd86620014e5565b905082811162001abc5760005b85811015620019d8576000600882815481106200190357fe5b9060005260206000200160009054906101000a90046001600160a01b03169050806001600160a01b031663ab292f9b89338786815181106200194157fe5b60200260200101516040518463ffffffff1660e01b815260040180846001600160a01b03166001600160a01b03168152602001836001600160a01b03166001600160a01b031681526020018281526020019350505050600060405180830381600087803b158015620019b257600080fd5b505af1158015620019c7573d6000803e3d6000fd5b5050505050806001019050620018ea565b5060005b8481101562001a7757600060078281548110620019f557fe5b600091825260208220015460408051633d2d78f960e21b81526001600160a01b038c811660048301523360248301529151919092169350839263f4b5e3e4926044808201939182900301818387803b15801562001a5157600080fd5b505af115801562001a66573d6000803e3d6000fd5b5050505050806001019050620019dc565b50604080516001600160a01b038816815233602082015281517fce054da468b0607d4d65949d7572acd17087e593b3e5be27ba665ba1a60ad75b929181900390910190a15b505050505050565b6000546001600160a01b031690565b60085460009081805b8281101562001c245760006008828154811062001af557fe5b6000918252602080832090910154604080516305eff7ef60e21b81526001600160a01b038b81166004830152915191909216945084926317bfdfbc926024808201939182900301818787803b15801562001b4e57600080fd5b505af115801562001b63573d6000803e3d6000fd5b505050506040513d602081101562001b7a57600080fd5b505190508062001b8c57505062001c1b565b600062001c01836001600160a01b031663591cec866040518163ffffffff1660e01b815260040160206040518083038186803b15801562001bcc57600080fd5b505afa15801562001be1573d6000803e3d6000fd5b505050506040513d602081101562001bf857600080fd5b50518362001687565b905062001c15858263ffffffff62002a8916565b94505050505b60010162001adc565b509392505050565b60008062001c3a8462001ad3565b9050600062001c4985620012e5565b9050600062001c588362002463565b9050600062001c6e838363ffffffff62002a4516565b6001546040805163fc57d4df60e01b81526001600160a01b038a811660048301529151939450600093919092169163fc57d4df91602480830192602092919082900301818787803b15801562001cc357600080fd5b505af115801562001cd8573d6000803e3d6000fd5b505050506040513d602081101562001cef57600080fd5b5051905062001d1f8162001d1284670de0b6b3a764000063ffffffff62002ae416565b9063ffffffff62002b4216565b98975050505050505050565b6009602052600090815260409020546001600160a01b031681565b6008818154811062000f7957fe5b60075460009081805b82811015620014c25760006007828154811062001d7657fe5b6000918252602080832090910154604080516313082b1d60e21b815290516001600160a01b0390921694508492634c20ac7492600480840193829003018186803b15801562001dc457600080fd5b505afa15801562001dd9573d6000803e3d6000fd5b505050506040513d602081101562001df057600080fd5b50516001546040805163b04c6d3f60e01b81526001600160a01b0380851660048301529151939450600093919092169163b04c6d3f916024808301926020929190829003018186803b15801562001e4657600080fd5b505afa15801562001e5b573d6000803e3d6000fd5b505050506040513d602081101562001e7257600080fd5b50516040805163f919b4bf60e01b81526001600160a01b038b8116600483015291519293506000929186169163f919b4bf91602480820192602092909190829003018186803b15801562001ec557600080fd5b505afa15801562001eda573d6000803e3d6000fd5b505050506040513d602081101562001ef157600080fd5b50519050600062001f09828463ffffffff62002ae416565b905062001f1d878263ffffffff62002a8916565b9650505050505080600101905062001d5d565b62001f3a62002a41565b6000546001600160a01b0390811691161462001f8c576040805162461bcd60e51b815260206004820181905260248201526000805160206200373e833981519152604482015290519081900360640190fd5b60065442101562001fcf5760405162461bcd60e51b8152600401808060200182810382526027815260200180620036f66027913960400191505060405180910390fd5b6005546001600160a01b03166200202d576040805162461bcd60e51b815260206004820152601760248201527f6e6f206e6577207761727020636f6e74726f6c20736574000000000000000000604482015290519081900360640190fd5b6001546005546040805163f2fde38b60e01b81526001600160a01b0392831660048201529051919092169163f2fde38b91602480830192600092919082900301818387803b1580156200207f57600080fd5b505af115801562002094573d6000803e3d6000fd5b5050600754600854909250905060005b828110156200213c57600060078281548110620020bd57fe5b60009182526020822001546005546040805163133cf9e160e21b81526001600160a01b03928316600482015290519190921693508392634cf3e784926024808201939182900301818387803b1580156200211657600080fd5b505af11580156200212b573d6000803e3d6000fd5b5050505050806001019050620020a4565b5060005b8181101562000a44576000600882815481106200215957fe5b60009182526020822001546005546040805163133cf9e160e21b81526001600160a01b03928316600482015290519190921693508392634cf3e784926024808201939182900301818387803b158015620021b257600080fd5b505af1158015620021c7573d6000803e3d6000fd5b505050505080600101905062002140565b60085460009081805b8281101562001c2457600060088281548110620021fa57fe5b600091825260208083209091015460408051637746efab60e01b81526001600160a01b038b8116600483015291519190921694508492637746efab9260248082019391829003018186803b1580156200225257600080fd5b505afa15801562002267573d6000803e3d6000fd5b505050506040513d60208110156200227e57600080fd5b5051905080620022905750506200231f565b600062002305836001600160a01b031663591cec866040518163ffffffff1660e01b815260040160206040518083038186803b158015620022d057600080fd5b505afa158015620022e5573d6000803e3d6000fd5b505050506040513d6020811015620022fc57600080fd5b50518362000bef565b905062002319858263ffffffff62002a8916565b94505050505b600101620021e1565b6200233262002a41565b6000546001600160a01b0390811691161462002384576040805162461bcd60e51b815260206004820181905260248201526000805160206200373e833981519152604482015290519081900360640190fd5b60008484848430604051620023999062002c8a565b948552602085019390935260408085019290925260608401526001600160a01b039091166080830152519081900360a001906000f080158015620023e1573d6000803e3d6000fd5b506001600160a01b038088166000908152600a602052604080822054815163b1be82f160e01b815284861660048201529151949550909216928392839263b1be82f19260248084019382900301818387803b1580156200244057600080fd5b505af115801562002455573d6000803e3d6000fd5b505050505050505050505050565b600062000c79600262001d1284600363ffffffff62002ae416565b60075490565b6200248e62002a41565b6000546001600160a01b03908116911614620024e0576040805162461bcd60e51b815260206004820181905260248201526000805160206200373e833981519152604482015290519081900360640190fd5b60015460408051634a42dd6d60e11b81526001600160a01b0386811660048301528581166024830152878116604483015291519190921691639485bada91606480830192600092919082900301818387803b1580156200253f57600080fd5b505af115801562002554573d6000803e3d6000fd5b505060025460405163a8edf11560e01b8152600481018981526001600160a01b0389811660248401526060604484019081528751606485015287516000975091909416945063a8edf115938b938b9389939092916084019060208501908083838d5b83811015620025d0578181015183820152602001620025b6565b50505050905090810190601f168015620025fe5780820380516001836020036101000a031916815260200191505b50945050505050602060405180830381600087803b1580156200262057600080fd5b505af115801562002635573d6000803e3d6000fd5b505050506040513d60208110156200264c57600080fd5b50516001600160a01b03868116600081815260096020908152604080832080546001600160a01b03199081169688169687179091556007805460018181019092557fa66cc928b5edb82af9bd49922954155ab7b0942694bea4ce44661d9a8736c688018054831688179055868552600c8452828520805460ff19169091179055600b8352928190208054909316909317909155815192835290519293507fe4136410250c225cb6546e2f16dccea79b35b32f295f337362d04375101342ff92918290030190a1505050505050565b600b602052600090815260409020546001600160a01b031681565b6000806200274b83600363ffffffff62002b4216565b905062000be8818063ffffffff62002a8916565b6003546001600160a01b031681565b6001546001600160a01b031681565b6200278762002a41565b6000546001600160a01b03908116911614620027d9576040805162461bcd60e51b815260206004820181905260248201526000805160206200373e833981519152604482015290519081900360640190fd5b6001600160a01b038116620028205760405162461bcd60e51b8152600401808060200182810382526026815260200180620036d06026913960400191505060405180910390fd5b600080546040516001600160a01b03808516939216917f8be0079c531659141344cd1fd0a4f28419497f9722a3daafe3b4186f6b6457e091a3600080546001600160a01b0319166001600160a01b0392909216919091179055565b6000806200288984620021d8565b90506000620028988562001d54565b90506000620028a78362002463565b90506000620028bd838363ffffffff62002a4516565b6001546040805163b04c6d3f60e01b81526001600160a01b038a811660048301529151939450600093919092169163b04c6d3f916024808301926020929190829003018186803b1580156200291157600080fd5b505afa15801562001cd8573d6000803e3d6000fd5b60085460009081805b8281101562001c24576000600882815481106200294857fe5b600091825260208083209091015460408051638f7bf4fd60e01b81526001600160a01b038b8116600483015291519190921694508492638f7bf4fd9260248082019391829003018186803b158015620029a057600080fd5b505afa158015620029b5573d6000803e3d6000fd5b505050506040513d6020811015620029cc57600080fd5b5051905080620029de57505062002a38565b600062002a1e836001600160a01b031663591cec866040518163ffffffff1660e01b815260040160206040518083038186803b158015620022d057600080fd5b905062002a32858263ffffffff62002a8916565b94505050505b6001016200292f565b3390565b600062000be883836040518060400160405280601e81526020017f536166654d6174683a207375627472616374696f6e206f766572666c6f77000081525062002b86565b60008282018381101562000be8576040805162461bcd60e51b815260206004820152601b60248201527f536166654d6174683a206164646974696f6e206f766572666c6f770000000000604482015290519081900360640190fd5b60008262002af55750600062000c79565b8282028284828162002b0357fe5b041462000be85760405162461bcd60e51b81526004018080602001828103825260218152602001806200371d6021913960400191505060405180910390fd5b600062000be883836040518060400160405280601a81526020017f536166654d6174683a206469766973696f6e206279207a65726f00000000000081525062002c21565b6000818484111562002c195760405162461bcd60e51b81526004018080602001828103825283818151815260200191508051906020019080838360005b8381101562002bdd57818101518382015260200162002bc3565b50505050905090810190601f16801562002c0b5780820380516001836020036101000a031916815260200191505b509250505060405180910390fd5b505050900390565b6000818362002c735760405162461bcd60e51b815260206004820181815283516024840152835190928392604490910191908501908083836000831562002bdd57818101518382015260200162002bc3565b50600083858162002c8057fe5b0495945050505050565b610a378062002c998339019056fe608060405234801561001057600080fd5b50604051610a37380380610a37833981810160405260a081101561003357600080fd5b508051602082015160408301516060840151608090940151600080546001600160a01b0319166001600160a01b03831617905592939192909190848484848461007e8585858561008d565b505050505050505050506102bc565b6100a7622014808561017060201b6105901790919060201c565b6002556100f66100c562201480836101c1602090811b61053717901c565b6100e4670de0b6b3a7640000866101c160201b6105371790919060201c565b61017060201b6105901790919060201c565b6001556101118262201480610170602090811b61059017901c565b60038190556004829055600254600154604080519283526020830191909152818101929092526060810183905290517f6960ab234c7ef4b0c9197100f5393cfcde7c453ac910a27bd2000aa1dd4c068d9181900360800190a150505050565b60006101b883836040518060400160405280601a81526020017f536166654d6174683a206469766973696f6e206279207a65726f00000000000081525061021a60201b60201c565b90505b92915050565b6000826101d0575060006101bb565b828202828482816101dd57fe5b04146101b85760405162461bcd60e51b8152600401808060200182810382526021815260200180610a166021913960400191505060405180910390fd5b600081836102a65760405162461bcd60e51b81526004018080602001828103825283818151815260200191508051906020019080838360005b8381101561026b578181015183820152602001610253565b50505050905090810190601f1680156102985780820380516001836020036101000a031916815260200191505b509250505060405180910390fd5b5060008385816102b257fe5b0495945050505050565b61074b806102cb6000396000f3fe608060405234801561001057600080fd5b506004361061009e5760003560e01c8063a385fb9611610066578063a385fb9614610164578063b81688161461016c578063b9f9850a1461019b578063f14039de146101a3578063fd2da339146101ab5761009e565b806315f24053146100a35780632037f3e7146100de5780636e71e2d81461010f5780638726bb89146101385780638da5cb5b14610140575b600080fd5b6100cc600480360360608110156100b957600080fd5b50803590602081013590604001356101b3565b60408051918252519081900360200190f35b61010d600480360360808110156100f457600080fd5b50803590602081013590604081013590606001356101ca565b005b6100cc6004803603606081101561012557600080fd5b5080359060208101359060400135610225565b6100cc61027b565b610148610281565b604080516001600160a01b039092168252519081900360200190f35b6100cc610290565b6100cc6004803603608081101561018257600080fd5b5080359060208101359060408101359060600135610297565b6100cc610316565b6100cc61031c565b6100cc610322565b60006101c0848484610328565b90505b9392505050565b6000546001600160a01b031633146102135760405162461bcd60e51b81526004018080602001828103825260268152602001806106f06026913960400191505060405180910390fd5b61021f848484846103f1565b50505050565b600082610234575060006101c3565b6101c06102578361024b878763ffffffff61049216565b9063ffffffff6104f516565b61026f85670de0b6b3a764000063ffffffff61053716565b9063ffffffff61059016565b60015481565b6000546001600160a01b031681565b6220148081565b6000806102b2670de0b6b3a76400008463ffffffff6104f516565b905060006102c1878787610328565b905060006102e1670de0b6b3a764000061026f848663ffffffff61053716565b905061030a670de0b6b3a764000061026f836102fe8c8c8c610225565b9063ffffffff61053716565b98975050505050505050565b60035481565b60025481565b60045481565b600080610336858585610225565b9050600454811161037c57610374600254610368670de0b6b3a764000061026f6001548661053790919063ffffffff16565b9063ffffffff61049216565b9150506101c3565b60006103a7600254610368670de0b6b3a764000061026f60015460045461053790919063ffffffff16565b905060006103c0600454846104f590919063ffffffff16565b90506103e782610368670de0b6b3a764000061026f6003548661053790919063ffffffff16565b93505050506101c3565b610404846220148063ffffffff61059016565b60025561041d610257622014808363ffffffff61053716565b600155610433826220148063ffffffff61059016565b60038190556004829055600254600154604080519283526020830191909152818101929092526060810183905290517f6960ab234c7ef4b0c9197100f5393cfcde7c453ac910a27bd2000aa1dd4c068d9181900360800190a150505050565b6000828201838110156104ec576040805162461bcd60e51b815260206004820152601b60248201527f536166654d6174683a206164646974696f6e206f766572666c6f770000000000604482015290519081900360640190fd5b90505b92915050565b60006104ec83836040518060400160405280601e81526020017f536166654d6174683a207375627472616374696f6e206f766572666c6f7700008152506105d2565b600082610546575060006104ef565b8282028284828161055357fe5b04146104ec5760405162461bcd60e51b81526004018080602001828103825260218152602001806106cf6021913960400191505060405180910390fd5b60006104ec83836040518060400160405280601a81526020017f536166654d6174683a206469766973696f6e206279207a65726f000000000000815250610669565b600081848411156106615760405162461bcd60e51b81526004018080602001828103825283818151815260200191508051906020019080838360005b8381101561062657818101518382015260200161060e565b50505050905090810190601f1680156106535780820380516001836020036101000a031916815260200191505b509250505060405180910390fd5b505050900390565b600081836106b85760405162461bcd60e51b815260206004820181815283516024840152835190928392604490910191908501908083836000831561062657818101518382015260200161060e565b5060008385816106c457fe5b049594505050505056fe536166654d6174683a206d756c7469706c69636174696f6e206f766572666c6f776f6e6c7920746865206f776e6572206d61792063616c6c20746869732066756e6374696f6e2ea26469706673582212205f65e9e52539d0ff7de90544b865c4f14afc0816467eb10ea4c965b7234c764264736f6c63430006060033536166654d6174683a206d756c7469706c69636174696f6e206f766572666c6f774f776e61626c653a206e6577206f776e657220697320746865207a65726f2061646472657373796f752063616e7420756772616465207965742c206c657373207468616e2074776f2064617973536166654d6174683a206d756c7469706c69636174696f6e206f766572666c6f774f776e61626c653a2063616c6c6572206973206e6f7420746865206f776e6572a26469706673582212206a3c4ae9b18b5c7b01ee329b556fe92ef2eb7dc2512711a6668fefaee2b4979964736f6c63430006060033",
  "immutableReferences": {},
  "source": "pragma solidity ^0.6.0;\r\n\r\nimport \"@openzeppelin/contracts/access/Ownable.sol\";\r\nimport \"@openzeppelin/contracts/math/SafeMath.sol\";\r\nimport \"./interfaces/WarpVaultSCI.sol\";\r\nimport \"./interfaces/WarpVaultLPI.sol\";\r\nimport \"./interfaces/WarpVaultLPFactoryI.sol\";\r\nimport \"./interfaces/WarpVaultSCFactoryI.sol\";\r\nimport \"./interfaces/UniswapLPOracleFactoryI.sol\";\r\nimport \"./compound/JumpRateModelV2.sol\";\r\nimport \"./compound/Exponential.sol\";\r\n\r\n////////////////////////////////////////////////////////////////////////////////////////////\r\n/// @title WarpControl\r\n/// @author Christopher Dixon\r\n////////////////////////////////////////////////////////////////////////////////////////////\r\n/**\r\nWarpControl is designed to coordinate Warp Vaults\r\nThis contract uses the OpenZeppelin contract Library to inherit functions from\r\n  Ownable.sol\r\n**/\r\n\r\ncontract WarpControl is Ownable, Exponential {\r\n    using SafeMath for uint256;\r\n\r\n    UniswapLPOracleFactoryI public Oracle; //oracle factory contract interface\r\n    WarpVaultLPFactoryI public WVLPF;\r\n    WarpVaultSCFactoryI public WVSCF;\r\n\r\n    address public warpTeam;\r\n    address public newWarpControl;\r\n    uint public graceSpace;\r\n\r\n    address[] public lpVaults;\r\n    address[] public scVaults;\r\n\r\n    mapping(address => address) public instanceLPTracker; //maps LP token address to the assets WarpVault\r\n    mapping(address => address) public instanceSCTracker;\r\n    mapping(address => address) public getAssetByVault;\r\n    mapping(address => bool) public isVault;\r\n\r\n    event NewLPVault(address _newVault);\r\n    event ImportedLPVault(address _vault);\r\n    event NewSCVault(address _newVault, address _interestRateModel);\r\n    event ImportedSCVault(address _vault);\r\n    event NewBorrow(address _borrower, address _StableCoin, uint _amountBorrowed);\r\n    event Liquidation(address _account, address liquidator);\r\n\r\n    /**\r\n      @dev Throws if called by any account other than a warp vault\r\n     */\r\n    modifier onlyVault() {\r\n        require(isVault[msg.sender] == true, \"Only a vault may call this\");\r\n        _;\r\n    }\r\n\r\n    /**\r\n    @notice the constructor function is fired during the contract deployment process. The constructor can only be fired once and\r\n            is used to set up Oracle variables for the MoneyMarketFactory contract.\r\n    @param _oracle is the address for the UniswapOracleFactorycontract\r\n    @param _WVLPF is the address for the WarpVaultLPFactory used to produce LP Warp Vaults\r\n    @param _WVSCF is the address for the WarpVaultSCFactory used to produce Stable Coin Warp Vaults\r\n    @dev These factories are split into seperate contracts to avoid hitting the block gas limit\r\n    **/\r\n    constructor(\r\n        address _oracle,\r\n        address _WVLPF,\r\n        address _WVSCF,\r\n        address _warpTeam\r\n    ) public {\r\n        //instantiate the contracts\r\n        Oracle = UniswapLPOracleFactoryI(_oracle);\r\n        WVLPF = WarpVaultLPFactoryI(_WVLPF);\r\n        WVSCF = WarpVaultSCFactoryI(_WVSCF);\r\n        warpTeam = _warpTeam;\r\n    }\r\n///view functions for front end /////\r\n\r\n  /**\r\n  @notice viewNumLPVaults returns the number of lp vaults on the warp platform\r\n  **/\r\n    function viewNumLPVaults() external view returns(uint256) {\r\n        return lpVaults.length;\r\n    }\r\n\r\n  /**\r\n  @notice viewNumSCVaults returns the number of stablecoin vaults on the warp platform\r\n  **/\r\n    function viewNumSCVaults() external view returns(uint256) {\r\n        return scVaults.length;\r\n    }\r\n\r\n\r\n    /**\r\n    @notice createNewLPVault allows the contract owner to create a new WarpVaultLP contract for a specific LP token\r\n    @param _timelock is a variable representing the number of seconds the timeWizard will prevent withdraws and borrows from a contracts(one week is 605800 seconds)\r\n    @param _lp is the address for the LP token this Warp Vault will manage\r\n    @param _lpAsset1 is the address for the first asset in a pair that the LP token represents(ex: wETH in a wETH-wBTC uniswap pair)\r\n    @param _lpAsset2 is the address for the second asset in a pair that the LP token represents(ex: wBTC in a wETH-wBTC uniswap pair)\r\n    @param _lpName is the name of the LP token (ex:wETH-wBTC)\r\n    **/\r\n    function createNewLPVault(\r\n        uint256 _timelock,\r\n        address _lp,\r\n        address _lpAsset1,\r\n        address _lpAsset2,\r\n        string memory _lpName\r\n    ) public onlyOwner {\r\n        //create new oracles for this LP\r\n        Oracle.createNewOracles(_lpAsset1, _lpAsset2, _lp);\r\n        //create new Warp LP Vault\r\n        address _WarpVault = WVLPF.createWarpVaultLP(_timelock, _lp, _lpName);\r\n        //track the warp vault lp instance by the address of the LP it represents\r\n        instanceLPTracker[_lp] = _WarpVault;\r\n        //add new LP Vault to the array of all LP vaults\r\n        lpVaults.push(_WarpVault);\r\n        //set Warp vault address as an approved vault\r\n        isVault[_WarpVault] = true;\r\n        //track vault to asset\r\n        getAssetByVault[_WarpVault] = _lp;\r\n        emit NewLPVault(_WarpVault);\r\n    }\r\n\r\n    function importLPVault(address _lpVault) public onlyOwner {\r\n        WarpVaultLPI _vault = WarpVaultLPI(_lpVault);\r\n        address _lp = _vault.getAssetAdd();\r\n\r\n        instanceLPTracker[_lp] = _lpVault;\r\n        lpVaults.push(_lpVault);\r\n        isVault[_lpVault] = true;\r\n        getAssetByVault[_lpVault] = _lp;\r\n        emit ImportedLPVault(_lpVault);\r\n    }\r\n\r\n    /**\r\n    @notice createNewSCVault allows the contract owner to create a new WarpVaultLP contract for a specific LP token\r\n    @param _timelock is a variable representing the number of seconds the timeWizard will prevent withdraws and borrows from a contracts(one week is 605800 seconds)\r\n    @param _baseRatePerYear is the base rate per year(approx target base APR)\r\n    @param _multiplierPerYear is the multiplier per year(rate of increase in interest w/ utilizastion)\r\n    @param _jumpMultiplierPerYear is the Jump Multiplier Per Year(the multiplier per block after hitting a specific utilizastion point)\r\n    @param _optimal is the this is the utilizastion point or \"kink\" at which the jump multiplier is applied\r\n    @param _initialExchangeRate is the intitial exchange rate(the rate at which the initial exchange of asset/ART is set)\r\n    @param _StableCoin is the address of the StableCoin this Warp Vault will manage\r\n    **/\r\n    function createNewSCVault(\r\n        uint256 _timelock,\r\n        uint256 _baseRatePerYear,\r\n        uint256 _multiplierPerYear,\r\n        uint256 _jumpMultiplierPerYear,\r\n        uint256 _optimal,\r\n        uint256 _initialExchangeRate,\r\n        uint256 _reserveFactorMantissa,\r\n        address _StableCoin\r\n    ) public onlyOwner {\r\n        //create the interest rate model for this stablecoin\r\n        address IR = address(\r\n            new JumpRateModelV2(\r\n                _baseRatePerYear,\r\n                _multiplierPerYear,\r\n                _jumpMultiplierPerYear,\r\n                _optimal,\r\n                address(this)\r\n            )\r\n        );\r\n        //create the SC Warp vault\r\n        address _WarpVault = WVSCF.createNewWarpVaultSC(\r\n            IR,\r\n            _StableCoin,\r\n            warpTeam,\r\n            _initialExchangeRate,\r\n            _timelock,\r\n            _reserveFactorMantissa\r\n        );\r\n        //track the warp vault sc instance by the address of the stablecoin it represents\r\n        instanceSCTracker[_StableCoin] = _WarpVault;\r\n        //add new SC Vault to the array of all SC vaults\r\n        scVaults.push(_WarpVault);\r\n        //set Warp vault address as an approved vault\r\n        isVault[_WarpVault] = true;\r\n        //track vault to asset\r\n        getAssetByVault[_WarpVault] = _StableCoin;\r\n        emit NewSCVault(_WarpVault, IR);\r\n    }\r\n\r\n    function importSCVault(address _scVault) public onlyOwner {\r\n        WarpVaultSCI _vault = WarpVaultSCI(_scVault);\r\n        address _token = _vault.getSCAddress();\r\n\r\n        // track token -> vault\r\n        instanceSCTracker[_token] = _scVault;\r\n        // vault list\r\n        scVaults.push(_scVault);\r\n        // register vault in mapping\r\n        isVault[_scVault] = true;\r\n        // track vault -> token\r\n        getAssetByVault[_scVault] = _token;\r\n        emit ImportedSCVault(_scVault);\r\n    }\r\n\r\n    /**\r\n    @notice Figures out how much of a given LP token an account is allowed to withdraw\r\n    @param account is the account being checked\r\n    @param lpToken is the address of the lpToken the user wishes to withdraw\r\n    @dev this function runs calculations to accrue interest for an up to date amount\r\n     */\r\n    function getMaxWithdrawAllowed(address account, address lpToken) public returns (uint256) {\r\n        uint256 borrowedTotal = getTotalBorrowedValue(account);\r\n        uint256 collateralValue = getTotalAvailableCollateralValue(account);\r\n        uint256 requiredCollateral = calcCollateralRequired(borrowedTotal);\r\n        uint256 leftoverCollateral = collateralValue.sub(requiredCollateral);\r\n        uint256 lpValue = Oracle.getUnderlyingPrice(lpToken);\r\n        return leftoverCollateral.mul(1e18).div(lpValue);\r\n    }\r\n\r\n    /**\r\n    @notice Figures out how much of a given LP token an account is allowed to withdraw\r\n    @param account is the account being checked\r\n    @param lpToken is the address of the lpToken the user wishes to withdraw\r\n    @dev this function does not run calculations to accrue interest and returns the previously calculated amount\r\n     */\r\n    function viewMaxWithdrawAllowed(address account, address lpToken) public view returns (uint256) {\r\n        uint256 borrowedTotal = viewTotalBorrowedValue(account);\r\n        uint256 collateralValue = viewTotalAvailableCollateralValue(account);\r\n        uint256 requiredCollateral = calcCollateralRequired(borrowedTotal);\r\n        uint256 leftoverCollateral = collateralValue.sub(requiredCollateral);\r\n        uint256 lpValue = Oracle.viewUnderlyingPrice(lpToken);\r\n        return leftoverCollateral.mul(1e18).div(lpValue);\r\n    }\r\n\r\n    /**\r\n    @notice getTotalAvailableCollateralValue returns the total availible collaeral value for an account in USDC\r\n    @param _account is the address whos collateral is being retreived\r\n    @dev this function runs calculations to accrue interest for an up to date amount\r\n    **/\r\n    function getTotalAvailableCollateralValue(address _account)\r\n        public\r\n        returns (uint256)\r\n    {\r\n        //get the number of LP vaults the platform has\r\n        uint256 numVaults = lpVaults.length;\r\n        //initialize the totalCollateral variable to zero\r\n        uint256 totalCollateral = 0;\r\n        //loop through each lp wapr vault\r\n        for (uint256 i = 0; i < numVaults; ++i) {\r\n            //instantiate warp vault at that position\r\n            WarpVaultLPI vault = WarpVaultLPI(lpVaults[i]);\r\n            //retreive the address of its asset\r\n            address asset = vault.getAssetAdd();\r\n            //retrieve USD price of this asset\r\n            uint256 assetPrice = Oracle.getUnderlyingPrice(asset);\r\n\r\n            uint256 accountCollateral = vault.collateralOfAccount(_account);\r\n            //emit DebugValues(accountCollateral, assetPrice);\r\n\r\n            //multiply the amount of collateral by the asset price and return it\r\n            uint256 accountAssetsValue = accountCollateral.mul(assetPrice);\r\n            //add value to total collateral\r\n            totalCollateral = totalCollateral.add(accountAssetsValue);\r\n        }\r\n        //return total USDC value of all collateral\r\n        return totalCollateral.div(1e18);\r\n    }\r\n\r\n    /**\r\n    @notice getTotalAvailableCollateralValue returns the total availible collaeral value for an account in USDC\r\n    @param _account is the address whos collateral is being retreived\r\n    @dev this function does not run calculations to accrue interest and returns the previously calculated amount\r\n    **/\r\n    function viewTotalAvailableCollateralValue(address _account)\r\n        public\r\n        view\r\n        returns (uint256)\r\n    {\r\n        uint256 numVaults = lpVaults.length;\r\n        uint256 totalCollateral = 0;\r\n        //loop through each lp wapr vault\r\n        for (uint256 i = 0; i < numVaults; ++i) {\r\n            //instantiate warp vault at that position\r\n            WarpVaultLPI vault = WarpVaultLPI(lpVaults[i]);\r\n            //retreive the address of its asset\r\n            address asset = vault.getAssetAdd();\r\n            //retrieve USD price of this asset\r\n            uint256 assetPrice = Oracle.viewUnderlyingPrice(asset);\r\n\r\n            uint256 accountCollateral = vault.collateralOfAccount(_account);\r\n\r\n            //multiply the amount of collateral by the asset price and return it\r\n            uint256 accountAssetsValue = accountCollateral.mul(assetPrice);\r\n            //add value to total collateral\r\n            totalCollateral = totalCollateral.add(accountAssetsValue);\r\n        }\r\n        //return total USDC value of all collateral\r\n        return totalCollateral.div(1e18);\r\n    }\r\n\r\n    /**\r\n    @notice viewPriceOfCollateral returns the price of an lpToken\r\n    @param lpToken is the address of the lp token\r\n    @dev this function runs calculations to retrieve the current price\r\n    **/\r\n    function viewPriceOfCollateral(address lpToken) public view returns(uint256)\r\n    {\r\n        return Oracle.viewUnderlyingPrice(lpToken);\r\n    }\r\n\r\n    /**\r\n    @notice getPriceOfCollateral returns the price of an lpToken\r\n    @param lpToken is the address of the lp token\r\n    @dev this function does not run calculations amd returns the previously calculated price\r\n    **/\r\n    function getPriceOfCollateral(address lpToken) public returns(uint256)\r\n    {\r\n        return Oracle.getUnderlyingPrice(lpToken);\r\n    }\r\n\r\n    /**\r\n    @notice viewPriceOfToken retrieves the price of a stablecoin\r\n    @param token is the address of the stablecoin\r\n    @param amount is the amount of stablecoin\r\n    @dev this function runs calculations to retrieve the current price\r\n    **/\r\n    function viewPriceOfToken(address token, uint256 amount) public view returns(uint256)\r\n    {\r\n        return Oracle.viewPriceOfToken(token, amount);\r\n    }\r\n\r\n    /**\r\n    @notice viewPriceOfToken retrieves the price of a stablecoin\r\n    @param token is the address of the stablecoin\r\n    @param amount is the amount of stablecoin\r\n    @dev this function does not run calculations amd returns the previously calculated price\r\n    **/\r\n    function getPriceOfToken(address token, uint256 amount) public returns(uint256)\r\n    {\r\n        return Oracle.getPriceOfToken(token, amount);\r\n    }\r\n\r\n    /**\r\n    @notice viewTotalLentValue returns the total lent value for an account in USDC\r\n    @param _account is the account whos lent value we are calculating\r\n    **/\r\n    function viewTotalLentValue(address _account) public view returns (uint256) {\r\n        uint256 numSCVaults = scVaults.length;\r\n        uint256 totalValue = 0;\r\n        \r\n        // Add up each stable coin vaults value\r\n        for (uint256 i = 0; i < numSCVaults; ++i) {\r\n            //instantiate each LP warp vault\r\n            WarpVaultSCI WVSC = WarpVaultSCI(scVaults[i]);\r\n            //retreive the amount user has borrowed from each stablecoin vault\r\n            uint256 lentBalanceInStable = WVSC.viewAccountBalance(_account);\r\n            if (lentBalanceInStable == 0) {\r\n                continue;\r\n            }\r\n            uint256 usdcLentAmount = viewPriceOfToken(WVSC.getSCAddress(), lentBalanceInStable);\r\n            totalValue = totalValue.add(\r\n                usdcLentAmount\r\n            );\r\n        }\r\n\r\n        return totalValue;\r\n    }\r\n\r\n    /**\r\n    @notice viewTotalBorrowedValue returns the total borrowed value for an account in USDC\r\n    @param _account is the account whos borrowed value we are calculating\r\n    @dev this function returns previously calculated values\r\n    **/\r\n    function viewTotalBorrowedValue(address _account) public view returns (uint256) {\r\n        uint256 numSCVaults = scVaults.length;\r\n        //initialize the totalBorrowedValue variable to zero\r\n        uint256 totalBorrowedValue = 0;\r\n        //loop through all stable coin vaults\r\n        for (uint256 i = 0; i < numSCVaults; ++i) {\r\n            //instantiate each LP warp vault\r\n            WarpVaultSCI WVSC = WarpVaultSCI(scVaults[i]);\r\n            //retreive the amount user has borrowed from each stablecoin vault\r\n            uint256 borrowBalanceInStable = WVSC.borrowBalancePrior(_account);\r\n            if (borrowBalanceInStable == 0) {\r\n                continue;\r\n            }\r\n            uint256 usdcBorrowedAmount = viewPriceOfToken(WVSC.getSCAddress(), borrowBalanceInStable);\r\n            totalBorrowedValue = totalBorrowedValue.add(\r\n                usdcBorrowedAmount\r\n            );\r\n        }\r\n        //return total Borrowed Value\r\n        return totalBorrowedValue;\r\n    }\r\n\r\n    /**\r\n    @notice viewTotalBorrowedValue returns the total borrowed value for an account in USDC\r\n    @param _account is the account whos borrowed value we are calculating\r\n    @dev this function returns newly calculated values\r\n    **/\r\n    function getTotalBorrowedValue(address _account) public returns (uint256) {\r\n        uint256 numSCVaults = scVaults.length;\r\n        //initialize the totalBorrowedValue variable to zero\r\n        uint256 totalBorrowedValue = 0;\r\n        //loop through all stable coin vaults\r\n        for (uint256 i = 0; i < numSCVaults; ++i) {\r\n            //instantiate each LP warp vault\r\n            WarpVaultSCI WVSC = WarpVaultSCI(scVaults[i]);\r\n            //retreive the amount user has borrowed from each stablecoin vault\r\n            uint borrowBalanceInStable = WVSC.borrowBalanceCurrent(_account);\r\n            if (borrowBalanceInStable == 0) {\r\n                continue;\r\n            }\r\n            uint256 usdcBorrowedAmount = getPriceOfToken(WVSC.getSCAddress(), borrowBalanceInStable);\r\n            totalBorrowedValue = totalBorrowedValue.add(\r\n                usdcBorrowedAmount\r\n            );\r\n        }\r\n        //return total Borrowed Value\r\n        return totalBorrowedValue;\r\n    }\r\n\r\n    /**\r\n    @notice calcBorrowLimit is used to calculate the borrow limit for an account based on the input value of their collateral\r\n    @param _collateralValue is the USDC value of the users collateral\r\n    @dev this function divides the input value by 3 and then adds that value to itself so it can return 2/3rds of the availible collateral\r\n        as the borrow limit. If a usser has $150 USDC value in collateral this function will return $100 USDC as their borrow limit.\r\n    **/\r\n    function calcBorrowLimit(uint256 _collateralValue)\r\n        public\r\n        pure\r\n        returns (uint256)\r\n    {\r\n        //divide the collaterals value by 3 to get 1/3rd of its value\r\n        uint256 thirdCollatVal = _collateralValue.div(3);\r\n        //add this 1/3rd value to itself to get 2/3rds of the original value\r\n        return thirdCollatVal.add(thirdCollatVal);\r\n    }\r\n\r\n    /**\r\n    @notice calcCollateralRequired returns the amount of collateral needed for an input borrow value\r\n    @param _borrowAmount is the input borrow amount\r\n    **/\r\n    function calcCollateralRequired(uint256 _borrowAmount) public pure returns (uint256) {\r\n        return _borrowAmount.mul(3).div(2);\r\n    }\r\n\r\n    /**\r\n    @notice getBorrowLimit returns the borrow limit for an account\r\n    @param _account is the input account address\r\n    @dev this calculation uses current values for calculations\r\n    **/\r\n    function getBorrowLimit(address _account) public returns (uint256) {\r\n        uint256 availibleCollateralValue = getTotalAvailableCollateralValue(\r\n            _account\r\n        );\r\n\r\n        return calcBorrowLimit(availibleCollateralValue);\r\n    }\r\n\r\n    /**\r\n    @notice getBorrowLimit returns the borrow limit for an account\r\n    @param _account is the input account address\r\n    @dev this calculation uses previous values for calculations\r\n    **/\r\n    function viewBorrowLimit(address _account) public view returns (uint256) {\r\n        uint256 availibleCollateralValue = viewTotalAvailableCollateralValue(\r\n            _account\r\n        );\r\n        //return the users borrow limit\r\n        return calcBorrowLimit(availibleCollateralValue);\r\n    }\r\n\r\n    /**\r\n    @notice borrowSC is the function an end user will call when they wish to borrow a stablecoin from the warp platform\r\n    @param _StableCoin is the address of the stablecoin the user wishes to borrow\r\n    @param _amount is the amount of that stablecoin the user wants to borrow\r\n    **/\r\n    function borrowSC(address _StableCoin, uint256 _amount) public {\r\n        uint256 borrowedTotalInUSDC = getTotalBorrowedValue(msg.sender);\r\n        uint256 borrowLimitInUSDC = getBorrowLimit(msg.sender);\r\n        uint256 borrowAmountAllowedInUSDC = borrowLimitInUSDC.sub(borrowedTotalInUSDC);\r\n\r\n        uint256 borrowAmountInUSDC = getPriceOfToken(_StableCoin, _amount);\r\n\r\n        //require the amount being borrowed is less than or equal to the amount they are aloud to borrow\r\n        require(borrowAmountAllowedInUSDC >= borrowAmountInUSDC, \"Borrowing more than allowed\");\r\n\r\n        //retreive stablecoin vault address being borrowed from and instantiate it\r\n        WarpVaultSCI WV = WarpVaultSCI(instanceSCTracker[_StableCoin]);\r\n        //call _borrow function on the stablecoin warp vault\r\n        WV._borrow(_amount, msg.sender);\r\n        emit NewBorrow(msg.sender, _StableCoin, _amount);\r\n    }\r\n\r\n\r\n\r\n    /**\r\n    @notice liquidateAccount is used to liquidate a non-compliant loan after it has reached its 30 minute grace period\r\n    @param _borrower is the address of the borrower whos loan is non-compliant\r\n    **/\r\n    function liquidateAccount(address _borrower) public {\r\n         //require the liquidator is not also the borrower\r\n        require(msg.sender != _borrower, \"you cant liquidate yourself\");\r\n        //retreive the number of stablecoin vaults in the warp platform\r\n        uint256 numSCVaults = scVaults.length;\r\n        //retreive the number of LP vaults in the warp platform\r\n        uint256 numLPVaults = lpVaults.length;\r\n        // This is how much USDC worth of Stablecoin the user has borrowed\r\n        uint256 borrowedAmount = 0;\r\n        //initialize the stable coin balances array\r\n        uint256[] memory scBalances = new uint256[](numSCVaults);\r\n        // loop through and retreive the Borrowed Amount From All Vaults\r\n        for (uint256 i = 0; i < numSCVaults; ++i) {\r\n            //instantiate the vault at the current  position in the array\r\n            WarpVaultSCI scVault = WarpVaultSCI(scVaults[i]);\r\n            //retreive the borrowers borrow balance from this vault and add it to the scBalances array\r\n            scBalances[i] = scVault.borrowBalanceCurrent(_borrower);\r\n            uint256 borrowedAmountInUSDC = viewPriceOfToken(getAssetByVault[address(scVault)], scBalances[i]);\r\n\r\n            //add the borrowed amount to the total borrowed balance\r\n            borrowedAmount = borrowedAmount.add(borrowedAmountInUSDC);\r\n        }\r\n        //retreve the USDC borrow limit for the borrower\r\n        uint256 borrowLimit = getBorrowLimit(_borrower);\r\n        //check if the borrow is less than the borrowed amount\r\n        if (borrowLimit <= borrowedAmount) {\r\n            // If it is Liquidate the account\r\n            //loop through each SC vault so the  Liquidator can pay off Stable Coin loans\r\n            for (uint256 i = 0; i < numSCVaults; ++i) {\r\n                //instantiate the Warp SC Vault at the current position\r\n                WarpVaultSCI scVault = WarpVaultSCI(scVaults[i]);\r\n                //call repayLiquidatedLoan function to repay the loan\r\n                scVault._repayLiquidatedLoan(\r\n                    _borrower,\r\n                    msg.sender,\r\n                    scBalances[i]\r\n                );\r\n            }\r\n            //loop through each LP vault so the Liquidator gets the LP tokens the borrower had\r\n            for (uint256 i = 0; i < numLPVaults; ++i) {\r\n                //instantiate the Warp LP Vault at the current position\r\n                WarpVaultLPI lpVault = WarpVaultLPI(lpVaults[i]);\r\n                //call liquidateAccount function on that LP vault\r\n                lpVault._liquidateAccount(_borrower, msg.sender);\r\n            }\r\n            emit Liquidation(_borrower, msg.sender);\r\n        }\r\n    }\r\n\r\n    /**\r\n    @notice updateInterestRateModel allows the warp team to update the interest rate model for a stablecoin\r\n    @param _token is the address of the stablecoin whos vault is having its interest rate updated\r\n    @param _baseRatePerYear is the base rate per year(approx target base APR)\r\n    @param _multiplierPerYear is the multiplier per year(rate of increase in interest w/ utilizastion)\r\n    @param _jumpMultiplierPerYear is the Jump Multiplier Per Year(the multiplier per block after hitting a specific utilizastion point)\r\n    @param _optimal is the this is the utilizastion point or \"kink\" at which the jump multiplier is applied\r\n    **/\r\n    function updateInterestRateModel(\r\n        address _token,\r\n        uint256 _baseRatePerYear,\r\n        uint256 _multiplierPerYear,\r\n        uint256 _jumpMultiplierPerYear,\r\n        uint256 _optimal\r\n      ) public onlyOwner {\r\n      address IR = address(\r\n          new JumpRateModelV2(\r\n              _baseRatePerYear,\r\n              _multiplierPerYear,\r\n              _jumpMultiplierPerYear,\r\n              _optimal,\r\n              address(this)\r\n          )\r\n      );\r\n      address vault = instanceSCTracker[_token];\r\n      WarpVaultSCI WV = WarpVaultSCI(vault);\r\n      WV.setNewInterestModel(IR);\r\n    }\r\n\r\n    /**\r\n    @notice startUpgradeTimer starts a two day timer signaling that this contract will soon be updated to a new version\r\n    @param _newWarpControl is the address of the new Warp control contract being upgraded to\r\n    **/\r\n    function startUpgradeTimer(address _newWarpControl) public onlyOwner {\r\n        newWarpControl = _newWarpControl;\r\n        graceSpace = now.add(172800);\r\n    }\r\n\r\n    /**\r\n    @notice upgradeWarp is used to upgrade the Warp platform to use a new version of the WarpControl contract\r\n    **/\r\n    function upgradeWarp() public onlyOwner {\r\n        require(now >= graceSpace, \"you cant ugrade yet, less than two days\");\r\n        require(newWarpControl != address(0), \"no new warp control set\");\r\n\r\n        Oracle.transferOwnership(newWarpControl);\r\n\r\n        uint256 numVaults = lpVaults.length;\r\n        uint256 numSCVaults = scVaults.length;\r\n\r\n        for (uint256 i = 0; i < numVaults; ++i) {\r\n            WarpVaultLPI vault = WarpVaultLPI(lpVaults[i]);\r\n            vault.updateWarpControl(newWarpControl);\r\n        }\r\n\r\n        for (uint256 i = 0; i < numSCVaults; ++i) {\r\n            WarpVaultSCI vault = WarpVaultSCI(scVaults[i]);\r\n            vault.updateWarpControl(newWarpControl);\r\n        }\r\n  }\r\n\r\n/**\r\n@notice transferWarpTeam allows the wapr team address to be changed by the owner account\r\n@param _newWarp is the address of the new warp team\r\n**/\r\n    function transferWarpTeam(address _newWarp) public onlyOwner {\r\n        uint256 numSCVaults = scVaults.length;\r\n        warpTeam = _newWarp;\r\n        for (uint256 i = 0; i < numSCVaults; ++i) {\r\n            WarpVaultSCI WVSC = WarpVaultSCI(scVaults[i]);\r\n            WVSC.updateTeam(_newWarp);\r\n        }\r\n\r\n    }\r\n}\r\n",
  "sourcePath": "E:/dOrg/warp/Smart-Contracts/contracts/WarpControl.sol",
  "compiler": {
    "name": "solc",
    "version": "0.6.6+commit.6c089d02.Emscripten.clang"
  },
  "schemaVersion": "3.3.2",
  "updatedAt": "2020-12-12T00:59:37.733Z",
  "devdoc": {
    "methods": {
      "borrowSC(address,uint256)": {
        "params": {
          "_StableCoin": "is the address of the stablecoin the user wishes to borrow",
          "_amount": "is the amount of that stablecoin the user wants to borrow*"
        }
      },
      "calcBorrowLimit(uint256)": {
        "details": "this function divides the input value by 3 and then adds that value to itself so it can return 2/3rds of the availible collateral as the borrow limit. If a usser has $150 USDC value in collateral this function will return $100 USDC as their borrow limit.*",
        "params": {
          "_collateralValue": "is the USDC value of the users collateral"
        }
      },
      "calcCollateralRequired(uint256)": {
        "params": {
          "_borrowAmount": "is the input borrow amount*"
        }
      },
      "constructor": {
        "details": "These factories are split into seperate contracts to avoid hitting the block gas limit*",
        "params": {
          "_WVLPF": "is the address for the WarpVaultLPFactory used to produce LP Warp Vaults",
          "_WVSCF": "is the address for the WarpVaultSCFactory used to produce Stable Coin Warp Vaults",
          "_oracle": "is the address for the UniswapOracleFactorycontract"
        }
      },
      "createNewLPVault(uint256,address,address,address,string)": {
        "params": {
          "_lp": "is the address for the LP token this Warp Vault will manage",
          "_lpAsset1": "is the address for the first asset in a pair that the LP token represents(ex: wETH in a wETH-wBTC uniswap pair)",
          "_lpAsset2": "is the address for the second asset in a pair that the LP token represents(ex: wBTC in a wETH-wBTC uniswap pair)",
          "_lpName": "is the name of the LP token (ex:wETH-wBTC)*",
          "_timelock": "is a variable representing the number of seconds the timeWizard will prevent withdraws and borrows from a contracts(one week is 605800 seconds)"
        }
      },
      "createNewSCVault(uint256,uint256,uint256,uint256,uint256,uint256,uint256,address)": {
        "params": {
          "_StableCoin": "is the address of the StableCoin this Warp Vault will manage*",
          "_baseRatePerYear": "is the base rate per year(approx target base APR)",
          "_initialExchangeRate": "is the intitial exchange rate(the rate at which the initial exchange of asset/ART is set)",
          "_jumpMultiplierPerYear": "is the Jump Multiplier Per Year(the multiplier per block after hitting a specific utilizastion point)",
          "_multiplierPerYear": "is the multiplier per year(rate of increase in interest w/ utilizastion)",
          "_optimal": "is the this is the utilizastion point or \"kink\" at which the jump multiplier is applied",
          "_timelock": "is a variable representing the number of seconds the timeWizard will prevent withdraws and borrows from a contracts(one week is 605800 seconds)"
        }
      },
      "getBorrowLimit(address)": {
        "details": "this calculation uses current values for calculations*",
        "params": {
          "_account": "is the input account address"
        }
      },
      "getMaxWithdrawAllowed(address,address)": {
        "details": "this function runs calculations to accrue interest for an up to date amount",
        "params": {
          "account": "is the account being checked",
          "lpToken": "is the address of the lpToken the user wishes to withdraw"
        }
      },
      "getPriceOfCollateral(address)": {
        "details": "this function does not run calculations amd returns the previously calculated price*",
        "params": {
          "lpToken": "is the address of the lp token"
        }
      },
      "getPriceOfToken(address,uint256)": {
        "details": "this function does not run calculations amd returns the previously calculated price*",
        "params": {
          "amount": "is the amount of stablecoin",
          "token": "is the address of the stablecoin"
        }
      },
      "getTotalAvailableCollateralValue(address)": {
        "details": "this function runs calculations to accrue interest for an up to date amount*",
        "params": {
          "_account": "is the address whos collateral is being retreived"
        }
      },
      "getTotalBorrowedValue(address)": {
        "details": "this function returns newly calculated values*",
        "params": {
          "_account": "is the account whos borrowed value we are calculating"
        }
      },
      "liquidateAccount(address)": {
        "params": {
          "_borrower": "is the address of the borrower whos loan is non-compliant*"
        }
      },
      "owner()": {
        "details": "Returns the address of the current owner."
      },
      "renounceOwnership()": {
        "details": "Leaves the contract without owner. It will not be possible to call `onlyOwner` functions anymore. Can only be called by the current owner.     * NOTE: Renouncing ownership will leave the contract without an owner, thereby removing any functionality that is only available to the owner."
      },
      "startUpgradeTimer(address)": {
        "params": {
          "_newWarpControl": "is the address of the new Warp control contract being upgraded to*"
        }
      },
      "transferOwnership(address)": {
        "details": "Transfers ownership of the contract to a new account (`newOwner`). Can only be called by the current owner."
      },
      "transferWarpTeam(address)": {
        "params": {
          "_newWarp": "is the address of the new warp team*"
        }
      },
      "updateInterestRateModel(address,uint256,uint256,uint256,uint256)": {
        "params": {
          "_baseRatePerYear": "is the base rate per year(approx target base APR)",
          "_jumpMultiplierPerYear": "is the Jump Multiplier Per Year(the multiplier per block after hitting a specific utilizastion point)",
          "_multiplierPerYear": "is the multiplier per year(rate of increase in interest w/ utilizastion)",
          "_optimal": "is the this is the utilizastion point or \"kink\" at which the jump multiplier is applied*",
          "_token": "is the address of the stablecoin whos vault is having its interest rate updated"
        }
      },
      "viewBorrowLimit(address)": {
        "details": "this calculation uses previous values for calculations*",
        "params": {
          "_account": "is the input account address"
        }
      },
      "viewMaxWithdrawAllowed(address,address)": {
        "details": "this function does not run calculations to accrue interest and returns the previously calculated amount",
        "params": {
          "account": "is the account being checked",
          "lpToken": "is the address of the lpToken the user wishes to withdraw"
        }
      },
      "viewPriceOfCollateral(address)": {
        "details": "this function runs calculations to retrieve the current price*",
        "params": {
          "lpToken": "is the address of the lp token"
        }
      },
      "viewPriceOfToken(address,uint256)": {
        "details": "this function runs calculations to retrieve the current price*",
        "params": {
          "amount": "is the amount of stablecoin",
          "token": "is the address of the stablecoin"
        }
      },
      "viewTotalAvailableCollateralValue(address)": {
        "details": "this function does not run calculations to accrue interest and returns the previously calculated amount*",
        "params": {
          "_account": "is the address whos collateral is being retreived"
        }
      },
      "viewTotalBorrowedValue(address)": {
        "details": "this function returns previously calculated values*",
        "params": {
          "_account": "is the account whos borrowed value we are calculating"
        }
      },
      "viewTotalLentValue(address)": {
        "params": {
          "_account": "is the account whos lent value we are calculating*"
        }
      }
    }
  },
  "userdoc": {
    "methods": {
      "borrowSC(address,uint256)": {
        "notice": "borrowSC is the function an end user will call when they wish to borrow a stablecoin from the warp platform"
      },
      "calcBorrowLimit(uint256)": {
        "notice": "calcBorrowLimit is used to calculate the borrow limit for an account based on the input value of their collateral"
      },
      "calcCollateralRequired(uint256)": {
        "notice": "calcCollateralRequired returns the amount of collateral needed for an input borrow value"
      },
      "constructor": "the constructor function is fired during the contract deployment process. The constructor can only be fired once and is used to set up Oracle variables for the MoneyMarketFactory contract.",
      "createNewLPVault(uint256,address,address,address,string)": {
        "notice": "createNewLPVault allows the contract owner to create a new WarpVaultLP contract for a specific LP token"
      },
      "createNewSCVault(uint256,uint256,uint256,uint256,uint256,uint256,uint256,address)": {
        "notice": "createNewSCVault allows the contract owner to create a new WarpVaultLP contract for a specific LP token"
      },
      "getBorrowLimit(address)": {
        "notice": "getBorrowLimit returns the borrow limit for an account"
      },
      "getMaxWithdrawAllowed(address,address)": {
        "notice": "Figures out how much of a given LP token an account is allowed to withdraw"
      },
      "getPriceOfCollateral(address)": {
        "notice": "getPriceOfCollateral returns the price of an lpToken"
      },
      "getPriceOfToken(address,uint256)": {
        "notice": "viewPriceOfToken retrieves the price of a stablecoin"
      },
      "getTotalAvailableCollateralValue(address)": {
        "notice": "getTotalAvailableCollateralValue returns the total availible collaeral value for an account in USDC"
      },
      "getTotalBorrowedValue(address)": {
        "notice": "viewTotalBorrowedValue returns the total borrowed value for an account in USDC"
      },
      "liquidateAccount(address)": {
        "notice": "liquidateAccount is used to liquidate a non-compliant loan after it has reached its 30 minute grace period"
      },
      "startUpgradeTimer(address)": {
        "notice": "startUpgradeTimer starts a two day timer signaling that this contract will soon be updated to a new version"
      },
      "transferWarpTeam(address)": {
        "notice": "transferWarpTeam allows the wapr team address to be changed by the owner account"
      },
      "updateInterestRateModel(address,uint256,uint256,uint256,uint256)": {
        "notice": "updateInterestRateModel allows the warp team to update the interest rate model for a stablecoin"
      },
      "upgradeWarp()": {
        "notice": "upgradeWarp is used to upgrade the Warp platform to use a new version of the WarpControl contract*"
      },
      "viewBorrowLimit(address)": {
        "notice": "getBorrowLimit returns the borrow limit for an account"
      },
      "viewMaxWithdrawAllowed(address,address)": {
        "notice": "Figures out how much of a given LP token an account is allowed to withdraw"
      },
      "viewNumLPVaults()": {
        "notice": "viewNumLPVaults returns the number of lp vaults on the warp platform*"
      },
      "viewNumSCVaults()": {
        "notice": "viewNumSCVaults returns the number of stablecoin vaults on the warp platform*"
      },
      "viewPriceOfCollateral(address)": {
        "notice": "viewPriceOfCollateral returns the price of an lpToken"
      },
      "viewPriceOfToken(address,uint256)": {
        "notice": "viewPriceOfToken retrieves the price of a stablecoin"
      },
      "viewTotalAvailableCollateralValue(address)": {
        "notice": "getTotalAvailableCollateralValue returns the total availible collaeral value for an account in USDC"
      },
      "viewTotalBorrowedValue(address)": {
        "notice": "viewTotalBorrowedValue returns the total borrowed value for an account in USDC"
      },
      "viewTotalLentValue(address)": {
        "notice": "viewTotalLentValue returns the total lent value for an account in USDC"
      }
    },
    "notice": "WarpControl is designed to coordinate Warp Vaults This contract uses the OpenZeppelin contract Library to inherit functions from Ownable.sol*"
  }
}