{
  "contractName": "WarpVault",
  "abi": [
    {
      "inputs": [
        {
          "internalType": "address",
          "name": "_lp",
          "type": "address"
        },
        {
          "internalType": "address",
          "name": "_WarpControl",
          "type": "address"
        },
        {
          "internalType": "string",
          "name": "_lpName",
          "type": "string"
        }
      ],
      "stateMutability": "nonpayable",
      "type": "constructor"
    },
    {
      "anonymous": false,
      "inputs": [
        {
          "indexed": true,
          "internalType": "address",
          "name": "previousOwner",
          "type": "address"
        },
        {
          "indexed": true,
          "internalType": "address",
          "name": "newOwner",
          "type": "address"
        }
      ],
      "name": "OwnershipTransferred",
      "type": "event"
    },
    {
      "inputs": [],
      "name": "DAI",
      "outputs": [
        {
          "internalType": "contract IERC20",
          "name": "",
          "type": "address"
        }
      ],
      "stateMutability": "view",
      "type": "function",
      "constant": true
    },
    {
      "inputs": [],
      "name": "InterestRate",
      "outputs": [
        {
          "internalType": "contract InterestRateModel",
          "name": "",
          "type": "address"
        }
      ],
      "stateMutability": "view",
      "type": "function",
      "constant": true
    },
    {
      "inputs": [],
      "name": "LPtoken",
      "outputs": [
        {
          "internalType": "contract IERC20",
          "name": "",
          "type": "address"
        }
      ],
      "stateMutability": "view",
      "type": "function",
      "constant": true
    },
    {
      "inputs": [],
      "name": "UOF",
      "outputs": [
        {
          "internalType": "contract UniswapLPOracleFactoryI",
          "name": "",
          "type": "address"
        }
      ],
      "stateMutability": "view",
      "type": "function",
      "constant": true
    },
    {
      "inputs": [],
      "name": "USDC",
      "outputs": [
        {
          "internalType": "contract IERC20",
          "name": "",
          "type": "address"
        }
      ],
      "stateMutability": "view",
      "type": "function",
      "constant": true
    },
    {
      "inputs": [],
      "name": "USDT",
      "outputs": [
        {
          "internalType": "contract IERC20",
          "name": "",
          "type": "address"
        }
      ],
      "stateMutability": "view",
      "type": "function",
      "constant": true
    },
    {
      "inputs": [],
      "name": "WC",
      "outputs": [
        {
          "internalType": "contract WarpControlI",
          "name": "",
          "type": "address"
        }
      ],
      "stateMutability": "view",
      "type": "function",
      "constant": true
    },
    {
      "inputs": [],
      "name": "WDAI",
      "outputs": [
        {
          "internalType": "contract WarpWrapperToken",
          "name": "",
          "type": "address"
        }
      ],
      "stateMutability": "view",
      "type": "function",
      "constant": true
    },
    {
      "inputs": [],
      "name": "WLP",
      "outputs": [
        {
          "internalType": "contract WarpWrapperToken",
          "name": "",
          "type": "address"
        }
      ],
      "stateMutability": "view",
      "type": "function",
      "constant": true
    },
    {
      "inputs": [],
      "name": "WUSDC",
      "outputs": [
        {
          "internalType": "contract WarpWrapperToken",
          "name": "",
          "type": "address"
        }
      ],
      "stateMutability": "view",
      "type": "function",
      "constant": true
    },
    {
      "inputs": [],
      "name": "WUSDT",
      "outputs": [
        {
          "internalType": "contract WarpWrapperToken",
          "name": "",
          "type": "address"
        }
      ],
      "stateMutability": "view",
      "type": "function",
      "constant": true
    },
    {
      "inputs": [
        {
          "internalType": "address",
          "name": "",
          "type": "address"
        }
      ],
      "name": "accountBorrowsDAI",
      "outputs": [
        {
          "internalType": "uint256",
          "name": "principal",
          "type": "uint256"
        },
        {
          "internalType": "uint256",
          "name": "interestIndex",
          "type": "uint256"
        }
      ],
      "stateMutability": "view",
      "type": "function",
      "constant": true
    },
    {
      "inputs": [
        {
          "internalType": "address",
          "name": "",
          "type": "address"
        }
      ],
      "name": "accountBorrowsUSDC",
      "outputs": [
        {
          "internalType": "uint256",
          "name": "principal",
          "type": "uint256"
        },
        {
          "internalType": "uint256",
          "name": "interestIndex",
          "type": "uint256"
        }
      ],
      "stateMutability": "view",
      "type": "function",
      "constant": true
    },
    {
      "inputs": [
        {
          "internalType": "address",
          "name": "",
          "type": "address"
        }
      ],
      "name": "accountBorrowsUSDT",
      "outputs": [
        {
          "internalType": "uint256",
          "name": "principal",
          "type": "uint256"
        },
        {
          "internalType": "uint256",
          "name": "interestIndex",
          "type": "uint256"
        }
      ],
      "stateMutability": "view",
      "type": "function",
      "constant": true
    },
    {
      "inputs": [
        {
          "internalType": "address",
          "name": "",
          "type": "address"
        }
      ],
      "name": "accountLentDAI",
      "outputs": [
        {
          "internalType": "uint256",
          "name": "",
          "type": "uint256"
        }
      ],
      "stateMutability": "view",
      "type": "function",
      "constant": true
    },
    {
      "inputs": [
        {
          "internalType": "address",
          "name": "",
          "type": "address"
        }
      ],
      "name": "accountLentUSDC",
      "outputs": [
        {
          "internalType": "uint256",
          "name": "",
          "type": "uint256"
        }
      ],
      "stateMutability": "view",
      "type": "function",
      "constant": true
    },
    {
      "inputs": [
        {
          "internalType": "address",
          "name": "",
          "type": "address"
        }
      ],
      "name": "accountLentUSDT",
      "outputs": [
        {
          "internalType": "uint256",
          "name": "",
          "type": "uint256"
        }
      ],
      "stateMutability": "view",
      "type": "function",
      "constant": true
    },
    {
      "inputs": [],
      "name": "accrualBlockNumber",
      "outputs": [
        {
          "internalType": "uint256",
          "name": "",
          "type": "uint256"
        }
      ],
      "stateMutability": "view",
      "type": "function",
      "constant": true
    },
    {
      "inputs": [],
      "name": "borrowIndex",
      "outputs": [
        {
          "internalType": "uint256",
          "name": "",
          "type": "uint256"
        }
      ],
      "stateMutability": "view",
      "type": "function",
      "constant": true
    },
    {
      "inputs": [
        {
          "internalType": "address",
          "name": "",
          "type": "address"
        }
      ],
      "name": "collateralAddressTracker",
      "outputs": [
        {
          "internalType": "address",
          "name": "",
          "type": "address"
        }
      ],
      "stateMutability": "view",
      "type": "function",
      "constant": true
    },
    {
      "inputs": [
        {
          "internalType": "address",
          "name": "",
          "type": "address"
        }
      ],
      "name": "collateralLocked",
      "outputs": [
        {
          "internalType": "bool",
          "name": "",
          "type": "bool"
        }
      ],
      "stateMutability": "view",
      "type": "function",
      "constant": true
    },
    {
      "inputs": [],
      "name": "initialized",
      "outputs": [
        {
          "internalType": "bool",
          "name": "",
          "type": "bool"
        }
      ],
      "stateMutability": "view",
      "type": "function",
      "constant": true
    },
    {
      "inputs": [],
      "name": "liquidationIncentiveMantissa",
      "outputs": [
        {
          "internalType": "uint256",
          "name": "",
          "type": "uint256"
        }
      ],
      "stateMutability": "view",
      "type": "function",
      "constant": true
    },
    {
      "inputs": [],
      "name": "lockTime",
      "outputs": [
        {
          "internalType": "uint256",
          "name": "",
          "type": "uint256"
        }
      ],
      "stateMutability": "view",
      "type": "function",
      "constant": true
    },
    {
      "inputs": [],
      "name": "lpName",
      "outputs": [
        {
          "internalType": "string",
          "name": "",
          "type": "string"
        }
      ],
      "stateMutability": "view",
      "type": "function",
      "constant": true
    },
    {
      "inputs": [],
      "name": "owner",
      "outputs": [
        {
          "internalType": "address",
          "name": "",
          "type": "address"
        }
      ],
      "stateMutability": "view",
      "type": "function",
      "constant": true
    },
    {
      "inputs": [],
      "name": "renounceOwnership",
      "outputs": [],
      "stateMutability": "nonpayable",
      "type": "function"
    },
    {
      "inputs": [],
      "name": "reserveFactorMantissa",
      "outputs": [
        {
          "internalType": "uint256",
          "name": "",
          "type": "uint256"
        }
      ],
      "stateMutability": "view",
      "type": "function",
      "constant": true
    },
    {
      "inputs": [],
      "name": "totalBorrows",
      "outputs": [
        {
          "internalType": "uint256",
          "name": "",
          "type": "uint256"
        }
      ],
      "stateMutability": "view",
      "type": "function",
      "constant": true
    },
    {
      "inputs": [],
      "name": "totalReserves",
      "outputs": [
        {
          "internalType": "uint256",
          "name": "",
          "type": "uint256"
        }
      ],
      "stateMutability": "view",
      "type": "function",
      "constant": true
    },
    {
      "inputs": [
        {
          "internalType": "address",
          "name": "newOwner",
          "type": "address"
        }
      ],
      "name": "transferOwnership",
      "outputs": [],
      "stateMutability": "nonpayable",
      "type": "function"
    },
    {
      "inputs": [
        {
          "internalType": "uint256",
          "name": "_baseRatePerYear",
          "type": "uint256"
        },
        {
          "internalType": "uint256",
          "name": "_multiplierPerYear",
          "type": "uint256"
        },
        {
          "internalType": "uint256",
          "name": "_jumpMultiplierPerYear",
          "type": "uint256"
        },
        {
          "internalType": "uint256",
          "name": "_optimal",
          "type": "uint256"
        },
        {
          "internalType": "uint256",
          "name": "_initialExchangeRate",
          "type": "uint256"
        },
        {
          "internalType": "address",
          "name": "_oracle",
          "type": "address"
        }
      ],
      "name": "setUp",
      "outputs": [],
      "stateMutability": "nonpayable",
      "type": "function"
    },
    {
      "inputs": [
        {
          "internalType": "address",
          "name": "_account",
          "type": "address"
        }
      ],
      "name": "balanceOfUnderlying",
      "outputs": [
        {
          "internalType": "uint256",
          "name": "",
          "type": "uint256"
        }
      ],
      "stateMutability": "nonpayable",
      "type": "function"
    },
    {
      "inputs": [
        {
          "internalType": "address",
          "name": "owner",
          "type": "address"
        }
      ],
      "name": "balanceOfUnderlyingPrior",
      "outputs": [
        {
          "internalType": "uint256",
          "name": "",
          "type": "uint256"
        }
      ],
      "stateMutability": "view",
      "type": "function",
      "constant": true
    },
    {
      "inputs": [],
      "name": "accrueInterest",
      "outputs": [],
      "stateMutability": "nonpayable",
      "type": "function"
    },
    {
      "inputs": [
        {
          "internalType": "address",
          "name": "account",
          "type": "address"
        },
        {
          "internalType": "uint256",
          "name": "_assetType",
          "type": "uint256"
        }
      ],
      "name": "borrowBalancePrior",
      "outputs": [
        {
          "internalType": "uint256",
          "name": "",
          "type": "uint256"
        }
      ],
      "stateMutability": "view",
      "type": "function",
      "constant": true
    },
    {
      "inputs": [
        {
          "internalType": "address",
          "name": "account",
          "type": "address"
        },
        {
          "internalType": "uint256",
          "name": "_assetType",
          "type": "uint256"
        }
      ],
      "name": "borrowBalanceCurrent",
      "outputs": [
        {
          "internalType": "uint256",
          "name": "",
          "type": "uint256"
        }
      ],
      "stateMutability": "nonpayable",
      "type": "function"
    },
    {
      "inputs": [],
      "name": "borrowRatePerBlock",
      "outputs": [
        {
          "internalType": "uint256",
          "name": "",
          "type": "uint256"
        }
      ],
      "stateMutability": "view",
      "type": "function",
      "constant": true
    },
    {
      "inputs": [],
      "name": "supplyRatePerBlock",
      "outputs": [
        {
          "internalType": "uint256",
          "name": "",
          "type": "uint256"
        }
      ],
      "stateMutability": "view",
      "type": "function",
      "constant": true
    },
    {
      "inputs": [],
      "name": "getSupplyAPY",
      "outputs": [
        {
          "internalType": "uint256",
          "name": "",
          "type": "uint256"
        }
      ],
      "stateMutability": "view",
      "type": "function",
      "constant": true
    },
    {
      "inputs": [],
      "name": "getBorrowAPY",
      "outputs": [
        {
          "internalType": "uint256",
          "name": "",
          "type": "uint256"
        }
      ],
      "stateMutability": "view",
      "type": "function",
      "constant": true
    },
    {
      "inputs": [],
      "name": "totalBorrowsCurrent",
      "outputs": [
        {
          "internalType": "uint256",
          "name": "",
          "type": "uint256"
        }
      ],
      "stateMutability": "nonpayable",
      "type": "function"
    },
    {
      "inputs": [],
      "name": "exchangeRatePrior",
      "outputs": [
        {
          "internalType": "uint256",
          "name": "",
          "type": "uint256"
        }
      ],
      "stateMutability": "view",
      "type": "function",
      "constant": true
    },
    {
      "inputs": [],
      "name": "exchangeRateCurrent",
      "outputs": [
        {
          "internalType": "uint256",
          "name": "",
          "type": "uint256"
        }
      ],
      "stateMutability": "nonpayable",
      "type": "function"
    },
    {
      "inputs": [],
      "name": "getCash",
      "outputs": [
        {
          "internalType": "uint256",
          "name": "",
          "type": "uint256"
        }
      ],
      "stateMutability": "view",
      "type": "function",
      "constant": true
    },
    {
      "inputs": [
        {
          "internalType": "uint256",
          "name": "_amount",
          "type": "uint256"
        },
        {
          "internalType": "uint256",
          "name": "_assetType",
          "type": "uint256"
        }
      ],
      "name": "lendToWarpVault",
      "outputs": [],
      "stateMutability": "nonpayable",
      "type": "function"
    },
    {
      "inputs": [
        {
          "internalType": "uint256",
          "name": "_amount",
          "type": "uint256"
        },
        {
          "internalType": "uint256",
          "name": "_assetType",
          "type": "uint256"
        }
      ],
      "name": "redeem",
      "outputs": [],
      "stateMutability": "nonpayable",
      "type": "function"
    },
    {
      "inputs": [
        {
          "internalType": "uint256",
          "name": "_borrowAmount",
          "type": "uint256"
        },
        {
          "internalType": "uint256",
          "name": "_assetType",
          "type": "uint256"
        },
        {
          "internalType": "address",
          "name": "_WarpVaultCollat",
          "type": "address"
        }
      ],
      "name": "borrow",
      "outputs": [],
      "stateMutability": "nonpayable",
      "type": "function"
    },
    {
      "inputs": [
        {
          "internalType": "uint256",
          "name": "repayAmount",
          "type": "uint256"
        },
        {
          "internalType": "uint256",
          "name": "_assetType",
          "type": "uint256"
        }
      ],
      "name": "repayBorrow",
      "outputs": [],
      "stateMutability": "nonpayable",
      "type": "function"
    },
    {
      "inputs": [
        {
          "internalType": "uint256",
          "name": "_amount",
          "type": "uint256"
        }
      ],
      "name": "collateralizeLP",
      "outputs": [],
      "stateMutability": "nonpayable",
      "type": "function"
    },
    {
      "inputs": [],
      "name": "getAssetAdd",
      "outputs": [
        {
          "internalType": "address",
          "name": "",
          "type": "address"
        }
      ],
      "stateMutability": "view",
      "type": "function",
      "constant": true
    },
    {
      "inputs": [
        {
          "internalType": "uint256",
          "name": "_amount",
          "type": "uint256"
        }
      ],
      "name": "withdrawLP",
      "outputs": [],
      "stateMutability": "nonpayable",
      "type": "function"
    }
  ],
  "bytecode": "0x60806040526714d1120d7b1600006008553480156200001d57600080fd5b5060405162005b1038038062005b10833981810160405260608110156200004357600080fd5b815160208301516040808501805191519395929483019291846401000000008211156200006f57600080fd5b9083019060208201858111156200008557600080fd5b8251640100000000811182820188101715620000a057600080fd5b82525081516020918201929091019080838360005b83811015620000cf578181015183820152602001620000b5565b50505050905090810190601f168015620000fd5780820380516001836020036101000a031916815260200191505b50604052505050600062000116620001d760201b60201c565b600080546001600160a01b0319166001600160a01b0383169081178255604051929350917f8be0079c531659141344cd1fd0a4f28419497f9722a3daafe3b4186f6b6457e0908290a350805162000175906009906020840190620001e0565b50600a8054610100600160a81b0319166101006001600160a01b038681169190910291909117909155601280546001600160a01b031916918416919091179055620001bf620001dc565b6004555050670de0b6b3a76400006005555062000282565b335b90565b4390565b828054600181600116156101000203166002900490600052602060002090601f016020900481019282601f106200022357805160ff191683800117855562000253565b8280016001018555821562000253579182015b828111156200025357825182559160200191906001019062000236565b506200026192915062000265565b5090565b620001d991905b808211156200026157600081556001016200026c565b61587e80620002926000396000f3fe60806040523480156200001157600080fd5b5060043610620002925760003560e01c806302de574c14620002975780630d66808714620002d957806311e2c02f14620002f5578063122b5818146200031b578063158ef93e1462000325578063173b990414620003435780631d0ca7a8146200034d57806324a045ca146200035757806338b0dcce14620003805780633af9e66914620003a85780633b1d21a214620003d157806346cd680114620003db57806347bd3718146200045d57806348dc0b6e14620004675780634ada90af14620004715780634c20ac74146200047b578063503d37ea146200048557806350a9f64e146200048f5780635357daea14620004b557806367a895fd14620004e45780636c540baf146200050d5780636ea184bd1462000517578063715018a6146200053757806373acee9814620005415780637cbc2373146200054b57806389a3027114620005715780638da5cb5b146200057b5780638f840ddd14620005855780639ab23701146200058f5780639f560dd51462000599578063a2f97bf514620005a3578063a6afed9514620005ad578063a907b3ef14620005b7578063aa5af0fd14620005e0578063ae9d70b014620005ea578063b713e5c714620005f4578063bd6d894d146200061d578063c14cba3e1462000627578063c54e44eb1462000631578063cb5d30c1146200063b578063cbe22f271462000682578063cd5c6f5714620006ab578063d1400d2214620006b5578063d6bda0c014620006de578063e0bab4c41462000713578063e4456ecb146200071d578063e4ef8b20146200073d578063e778bc211462000747578063ee69f8ae1462000770578063efb818ce1462000799578063f2fde38b14620007c8578063f8f9da2814620007f1575b600080fd5b620002c060048036036020811015620002af57600080fd5b50356001600160a01b0316620007fb565b6040805192835260208301919091528051918290030190f35b620002e362000814565b60408051918252519081900360200190f35b620002ff6200081a565b604080516001600160a01b039092168252519081900360200190f35b620002ff62000829565b6200032f62000838565b604080519115158252519081900360200190f35b620002e362000841565b620002ff62000847565b6200032f600480360360208110156200036f57600080fd5b50356001600160a01b031662000856565b620003a6600480360360408110156200039857600080fd5b50803590602001356200086b565b005b620002e360048036036020811015620003c057600080fd5b50356001600160a01b0316620010ed565b620002e3620011c7565b620003e5620011d9565b6040805160208082528351818301528351919283929083019185019080838360005b838110156200042157818101518382015260200162000407565b50505050905090810190601f1680156200044f5780820380516001836020036101000a031916815260200191505b509250505060405180910390f35b620002e36200126b565b620002ff62001271565b620002e362001280565b620002ff62001286565b620002e36200129a565b620003a660048036036040811015620004a757600080fd5b5080359060200135620012bb565b620002e360048036036040811015620004cd57600080fd5b506001600160a01b0381351690602001356200164f565b620002c060048036036020811015620004fc57600080fd5b50356001600160a01b031662001782565b620002e36200179b565b620003a6600480360360208110156200052f57600080fd5b5035620017a1565b620003a66200191b565b620002e3620019b0565b620003a6600480360360408110156200056357600080fd5b5080359060200135620019c3565b620002ff62001ef0565b620002ff62001eff565b620002e362001f0e565b620002ff62001f14565b620002e362001f23565b620002ff62001f37565b620003a662001f46565b620002ff60048036036020811015620005cf57600080fd5b50356001600160a01b0316620020db565b620002e3620020f6565b620002e3620020fc565b620002e3600480360360208110156200060c57600080fd5b50356001600160a01b0316620021a0565b620002e3620021b2565b620002ff62002316565b620002ff6200232a565b620003a6600480360360c08110156200065357600080fd5b5080359060208101359060408101359060608101359060808101359060a001356001600160a01b031662002339565b620002c0600480360360208110156200069a57600080fd5b50356001600160a01b03166200288e565b620002e3620028a7565b620002e360048036036020811015620006cd57600080fd5b50356001600160a01b0316620028ed565b620003a660048036036060811015620006f657600080fd5b50803590602081013590604001356001600160a01b0316620028ff565b620002ff6200304c565b620003a6600480360360208110156200073557600080fd5b50356200305b565b620002ff620031d8565b620002e3600480360360208110156200075f57600080fd5b50356001600160a01b0316620031e7565b620002e3600480360360208110156200078857600080fd5b50356001600160a01b031662003208565b620002e360048036036040811015620007b157600080fd5b506001600160a01b0381351690602001356200321a565b620003a660048036036020811015620007e057600080fd5b50356001600160a01b031662003239565b620002e362003326565b6017602052600090815260409020805460019091015482565b60015481565b6013546001600160a01b031681565b6012546001600160a01b031681565b600a5460ff1681565b60035481565b600f546001600160a01b031681565b601d6020526000908152604090205460ff1681565b6200087562001f46565b6001811015801562000888575060038111155b6200089257600080fd5b6200089c6200398a565b816001141562000b585733600081815260156020526040908190206001015490830152620008cb90836200321a565b606082015282620008e65760608101516020820152620008ee565b602081018390525b62000902816060015182602001516200338d565b60808301819052828260038111156200091757fe5b60038111156200092357fe5b81525050506200093a60065482602001516200338d565b60a08301819052828260038111156200094f57fe5b60038111156200095b57fe5b9052505060808101513360009081526015602052604090209081556005546001820190815560a08301516006555490546200099c9163ffffffff620033b516565b60c0820181905262000b5857601254336000818152601c602090815260409182902054825163dba8010160e01b815260048101949094526001600160a01b0390811660248501529151919093169263dba801019260448082019391829003018186803b15801562000a0c57600080fd5b505afa15801562000a21573d6000803e3d6000fd5b505050506040513d602081101562000a3857600080fd5b505160e08201908152336000818152601d60209081526040808320805460ff19169055601254601c90925280832054945181516347b8dde760e01b815260048101959095526001600160a01b0395861660248601526044850152519316926347b8dde792606480820193929182900301818387803b15801562000aba57600080fd5b505af115801562000acf573d6000803e3d6000fd5b5050601254336000818152601c60205260408082205460e0880151825163b3f643e760e01b815260048101959095526001600160a01b039182166024860152604485015290519316945063b3f643e79350606480830193919282900301818387803b15801562000b3e57600080fd5b505af115801562000b53573d6000803e3d6000fd5b505050505b816002141562000e20573360008181526016602052604090819020600101549083015262000b8790836200321a565b60608201528262000ba2576060810151602082015262000baa565b602081018390525b62000bbe816060015182602001516200338d565b608083018190528282600381111562000bd357fe5b600381111562000bdf57fe5b815250505062000bf660065482602001516200338d565b60a083018190528282600381111562000c0b57fe5b600381111562000c1757fe5b90525050608081015133600090815260166020908152604080832093845560055460019485015560a08501516006556015909152902090810154905462000c649163ffffffff620033b516565b60c0820181905262000e2057601254336000818152601c602090815260409182902054825163dba8010160e01b815260048101949094526001600160a01b0390811660248501529151919093169263dba801019260448082019391829003018186803b15801562000cd457600080fd5b505afa15801562000ce9573d6000803e3d6000fd5b505050506040513d602081101562000d0057600080fd5b505160e08201908152336000818152601d60209081526040808320805460ff19169055601254601c90925280832054945181516347b8dde760e01b815260048101959095526001600160a01b0395861660248601526044850152519316926347b8dde792606480820193929182900301818387803b15801562000d8257600080fd5b505af115801562000d97573d6000803e3d6000fd5b5050601254336000818152601c60205260408082205460e0880151825163b3f643e760e01b815260048101959095526001600160a01b039182166024860152604485015290519316945063b3f643e79350606480830193919282900301818387803b15801562000e0657600080fd5b505af115801562000e1b573d6000803e3d6000fd5b505050505b8160031415620010e8573360008181526016602052604090819020600101549083015262000e4f90836200321a565b60608201528262000e6a576060810151602082015262000e72565b602081018390525b62000e86816060015182602001516200338d565b608083018190528282600381111562000e9b57fe5b600381111562000ea757fe5b815250505062000ebe60065482602001516200338d565b60a083018190528282600381111562000ed357fe5b600381111562000edf57fe5b90525050608081015133600090815260166020908152604080832093845560055460019485015560a08501516006556015909152902090810154905462000f2c9163ffffffff620033b516565b60c08201819052620010e857601254336000818152601c602090815260409182902054825163dba8010160e01b815260048101949094526001600160a01b0390811660248501529151919093169263dba801019260448082019391829003018186803b15801562000f9c57600080fd5b505afa15801562000fb1573d6000803e3d6000fd5b505050506040513d602081101562000fc857600080fd5b505160e08201908152336000818152601d60209081526040808320805460ff19169055601254601c90925280832054945181516347b8dde760e01b815260048101959095526001600160a01b0395861660248601526044850152519316926347b8dde792606480820193929182900301818387803b1580156200104a57600080fd5b505af11580156200105f573d6000803e3d6000fd5b5050601254336000818152601c60205260408082205460e0880151825163b3f643e760e01b815260048101959095526001600160a01b039182166024860152604485015290519316945063b3f643e79350606480830193919282900301818387803b158015620010ce57600080fd5b505af1158015620010e3573d6000803e3d6000fd5b505050505b505050565b6000620010f9620039d0565b60405180602001604052806200110e620021b2565b9052601154604080516370a0823160e01b81526001600160a01b03878116600483015291519394506000938493620011a09387939116916370a0823191602480820192602092909190829003018186803b1580156200116c57600080fd5b505afa15801562001181573d6000803e3d6000fd5b505050506040513d60208110156200119857600080fd5b505162003415565b90925090506000826003811115620011b457fe5b14620011bf57600080fd5b949350505050565b6000620011d362003471565b90505b90565b6009805460408051602060026001851615610100026000190190941693909304601f81018490048402820184019092528181529291830182828015620012635780601f10620012375761010080835404028352916020019162001263565b820191906000526020600020905b8154815290600101906020018083116200124557829003601f168201915b505050505081565b60065481565b6014546001600160a01b031681565b60085481565b600a5461010090046001600160a01b031690565b6000620011d362243394620012ae62003326565b9063ffffffff6200361e16565b60018110158015620012ce575060038111155b620012d857600080fd5b620012e2620039e3565b620012ec620021b2565b6020808301918252604080519182019052905181526200130e9084906200367c565b60408301819052828260038111156200132357fe5b60038111156200132f57fe5b9052505060018214156200144557600b54604080516323b872dd60e01b81523360048201523060248201526044810186905290516001600160a01b03909216916323b872dd916064808201926020929091908290030181600087803b1580156200139857600080fd5b505af1158015620013ad573d6000803e3d6000fd5b505050506040513d6020811015620013c457600080fd5b505033600081815260196020526040808220869055600e548482015182516340c10f1960e01b81526004810195909552602485015290516001600160a01b03909116926340c10f1992604480830193919282900301818387803b1580156200142b57600080fd5b505af115801562001440573d6000803e3d6000fd5b505050505b81600214156200155757600c54604080516323b872dd60e01b81523360048201523060248201526044810186905290516001600160a01b03909216916323b872dd916064808201926020929091908290030181600087803b158015620014aa57600080fd5b505af1158015620014bf573d6000803e3d6000fd5b505050506040513d6020811015620014d657600080fd5b5050336000818152601a6020526040808220869055600f548482015182516340c10f1960e01b81526004810195909552602485015290516001600160a01b03909116926340c10f1992604480830193919282900301818387803b1580156200153d57600080fd5b505af115801562001552573d6000803e3d6000fd5b505050505b8160031415620010e857600d54604080516323b872dd60e01b81523360048201523060248201526044810186905290516001600160a01b03909216916323b872dd916064808201926020929091908290030181600087803b158015620015bc57600080fd5b505af1158015620015d1573d6000803e3d6000fd5b505050506040513d6020811015620015e857600080fd5b5050336000818152601b60205260408082208690556010548482015182516340c10f1960e01b81526004810195909552602485015290516001600160a01b03909116926340c10f1992604480830193919282900301818387803b158015620010ce57600080fd5b60008060008084600114156200170a576001600160a01b038616600090815260156020526040902080546200168c5760009450505050506200177c565b6200169e816000015460055462003697565b90945092506000846003811115620016b257fe5b14620016c65760009450505050506200177c565b620016d6838260010154620036dc565b90945091506000846003811115620016ea57fe5b14620016fe5760009450505050506200177c565b5092506200177c915050565b846002141562001741576001600160a01b038616600090815260166020526040902080546200168c5760009450505050506200177c565b846003141562001778576001600160a01b038616600090815260176020526040902080546200168c5760009450505050506200177c565b5050505b92915050565b6015602052600090815260409020805460019091015482565b60045481565b600a54604080516323b872dd60e01b81523360048201523060248201526044810184905290516101009092046001600160a01b0316916323b872dd916064808201926020929091908290030181600087803b1580156200180057600080fd5b505af115801562001815573d6000803e3d6000fd5b505050506040513d60208110156200182c57600080fd5b5050601254600a546040805163b3f643e760e01b81523360048201526101009092046001600160a01b03908116602484015260448301859052905192169163b3f643e79160648082019260009290919082900301818387803b1580156200189257600080fd5b505af1158015620018a7573d6000803e3d6000fd5b5050601154604080516340c10f1960e01b81523360048201526024810186905290516001600160a01b0390921693506340c10f19925060448082019260009290919082900301818387803b158015620018ff57600080fd5b505af115801562001914573d6000803e3d6000fd5b5050505050565b620019256200370a565b6000546001600160a01b0390811691161462001977576040805162461bcd60e51b8152602060048201819052602482015260008051602062005809833981519152604482015290519081900360640190fd5b600080546040516001600160a01b039091169060008051602062005829833981519152908390a3600080546001600160a01b0319169055565b6000620019bc62001f46565b5060065490565b620019cd62001f46565b81620019d857600080fd5b60018110158015620019eb575060038111155b620019f557600080fd5b620019ff620039e3565b62001a09620021b2565b60208083019182526040805191820190529051815262001a2a908462003415565b604083018190528282600381111562001a3f57fe5b600381111562001a4b57fe5b90525050600182141562001bdb57604080820151600b5482516370a0823160e01b8152306004820152925191926001600160a01b03909116916370a0823191602480820192602092909190829003018186803b15801562001aab57600080fd5b505afa15801562001ac0573d6000803e3d6000fd5b505050506040513d602081101562001ad757600080fd5b5051101562001ae557600080fd5b600e5460408051632770a7eb60e21b81523360048201526024810186905290516001600160a01b0390921691639dc29fac9160448082019260009290919082900301818387803b15801562001b3957600080fd5b505af115801562001b4e573d6000803e3d6000fd5b5050600b54604080850151815163a9059cbb60e01b8152336004820152602481019190915290516001600160a01b03909216935063a9059cbb92506044808201926020929091908290030181600087803b15801562001bac57600080fd5b505af115801562001bc1573d6000803e3d6000fd5b505050506040513d602081101562001bd857600080fd5b50505b816002141562001d6757604080820151600c5482516370a0823160e01b8152306004820152925191926001600160a01b03909116916370a0823191602480820192602092909190829003018186803b15801562001c3757600080fd5b505afa15801562001c4c573d6000803e3d6000fd5b505050506040513d602081101562001c6357600080fd5b5051101562001c7157600080fd5b600f5460408051632770a7eb60e21b81523360048201526024810186905290516001600160a01b0390921691639dc29fac9160448082019260009290919082900301818387803b15801562001cc557600080fd5b505af115801562001cda573d6000803e3d6000fd5b5050600c54604080850151815163a9059cbb60e01b8152336004820152602481019190915290516001600160a01b03909216935063a9059cbb92506044808201926020929091908290030181600087803b15801562001d3857600080fd5b505af115801562001d4d573d6000803e3d6000fd5b505050506040513d602081101562001d6457600080fd5b50505b8160031415620010e857604080820151600d5482516370a0823160e01b8152306004820152925191926001600160a01b03909116916370a0823191602480820192602092909190829003018186803b15801562001dc357600080fd5b505afa15801562001dd8573d6000803e3d6000fd5b505050506040513d602081101562001def57600080fd5b5051101562001dfd57600080fd5b60105460408051632770a7eb60e21b81523360048201526024810186905290516001600160a01b0390921691639dc29fac9160448082019260009290919082900301818387803b15801562001e5157600080fd5b505af115801562001e66573d6000803e3d6000fd5b5050600d54604080850151815163a9059cbb60e01b8152336004820152602481019190915290516001600160a01b03909216935063a9059cbb92506044808201926020929091908290030181600087803b15801562001ec457600080fd5b505af115801562001ed9573d6000803e3d6000fd5b505050506040513d60208110156200191457600080fd5b600c546001600160a01b031681565b6000546001600160a01b031690565b60075481565b6011546001600160a01b031681565b6000620011d362243394620012ae620020fc565b600e546001600160a01b031681565b600062001f526200370e565b6004549091508082141562001f6657600080fd5b600062001f7262003471565b600654600754600554601454604080516315f2405360e01b815260048101879052602481018690526044810185905290519596509394929391926000926001600160a01b03909216916315f24053916064808301926020929190829003018186803b15801562001fe157600080fd5b505afa15801562001ff6573d6000803e3d6000fd5b505050506040513d60208110156200200d57600080fd5b5051905065048c273950008111156200202557600080fd5b6000806200203489896200338d565b9150915062002042620039d0565b6000806000806200206260405180602001604052808a8152508762003712565b909750945062002073858c62003415565b909750935062002084848c62003781565b604080516020810190915260035481529198509350620020a690858c620037aa565b9097509150620020b8858a80620037aa565b60049f909f55505060059c909c5560065550505060079790975550505050505050565b601c602052600090815260409020546001600160a01b031681565b60055481565b6014546000906001600160a01b031663b81688166200211a62003471565b6006546007546003546040518563ffffffff1660e01b81526004018085815260200184815260200183815260200182815260200194505050505060206040518083038186803b1580156200216d57600080fd5b505afa15801562002182573d6000803e3d6000fd5b505050506040513d60208110156200219957600080fd5b5051905090565b601a6020526000908152604090205481565b6000620021be62001f46565b601160009054906101000a90046001600160a01b03166001600160a01b03166318160ddd6040518163ffffffff1660e01b815260040160206040518083038186803b1580156200220d57600080fd5b505afa15801562002222573d6000803e3d6000fd5b505050506040513d60208110156200223957600080fd5b50516200224a5750600254620011d6565b60006200225662003471565b9050600062002264620039d0565b6000620022778460065460075462003811565b80945081925050506200230783601160009054906101000a90046001600160a01b03166001600160a01b03166318160ddd6040518163ffffffff1660e01b815260040160206040518083038186803b158015620022d357600080fd5b505afa158015620022e8573d6000803e3d6000fd5b505050506040513d6020811015620022ff57600080fd5b505162003856565b519550620011d6945050505050565b600a5461010090046001600160a01b031681565b600d546001600160a01b031681565b600a5460ff16156200234a57600080fd5b601380546001600160a01b0319166001600160a01b03838116919091179091556012546040805163382ead3160e21b81529051919092169163e0bab4c4916004808301926020929190829003018186803b158015620023a857600080fd5b505afa158015620023bd573d6000803e3d6000fd5b505050506040513d6020811015620023d457600080fd5b5051600b80546001600160a01b0319166001600160a01b03928316179055601254604080516389a3027160e01b8152905191909216916389a30271916004808301926020929190829003018186803b1580156200243057600080fd5b505afa15801562002445573d6000803e3d6000fd5b505050506040513d60208110156200245c57600080fd5b5051600c80546001600160a01b0319166001600160a01b039283161790556012546040805163c54e44eb60e01b81529051919092169163c54e44eb916004808301926020929190829003018186803b158015620024b857600080fd5b505afa158015620024cd573d6000803e3d6000fd5b505050506040513d6020811015620024e457600080fd5b5051600d80546001600160a01b0319166001600160a01b0390921691909117905560405160009087908790879087903090620025209062003a05565b948552602085019390935260408085019290925260608401526001600160a01b039091166080830152519081900360a001906000f08015801562002568573d6000803e3d6000fd5b50601480546001600160a01b0319166001600160a01b03838116919091179091556002859055600b546040519293501690620025a49062003a13565b6001600160a01b0390911681526060602082018190526004908201819052635744414960e01b6080830181905260a060408085018290529084019290925260c0830152519081900360e001906000f08015801562002606573d6000803e3d6000fd5b50600e80546001600160a01b0319166001600160a01b03928316179055600c54604051911690620026379062003a13565b6001600160a01b039091168152606060208201819052600f908201526e2baaa9902237b63630b91021b7b4b760891b608082015260a0604080830182905260059183019190915264575553444360d81b60c0830152519081900360e001906000f080158015620026ab573d6000803e3d6000fd5b50600f80546001600160a01b0319166001600160a01b03928316179055600d54604051911690620026dc9062003a13565b6001600160a01b039091168152606060208201819052601190820152702baaa9902237b63630b9102a32ba3432b960791b608082015260a060408083018290526005918301919091526415d554d11560da1b60c0830152519081900360e001906000f08015801562002752573d6000803e3d6000fd5b50601080546001600160a01b0319166001600160a01b03928316179055600a54604051610100909104909116906009906200278d9062003a13565b6001600160a01b03831681526060602082018181528354600260001961010060018416150201909116049183018290529060408301906080840190859080156200281b5780601f10620027ef576101008083540402835291602001916200281b565b820191906000526020600020905b815481529060010190602001808311620027fd57829003601f168201915b50509283039052506004815263574c505760e01b6020820152604080519182900301925090506000f08015801562002857573d6000803e3d6000fd5b50601180546001600160a01b0319166001600160a01b03929092169190911790555050600a805460ff191660011790555050505050565b6016602052600090815260409020805460019091015482565b601154604080516318160ddd60e01b815290516000926001600160a01b0316916318160ddd916004808301926020929190829003018186803b1580156200220d57600080fd5b601b6020526000908152604090205481565b6200290962001f46565b600182101580156200291c575060038211155b6200292657600080fd5b60125460408051634750e71960e01b81523360048201526001600160a01b03848116602483015291516000939290921691634750e71991604480820192602092909190829003018186803b1580156200297e57600080fd5b505afa15801562002993573d6000803e3d6000fd5b505050506040513d6020811015620029aa57600080fd5b5051905080841115620029bc57600080fd5b336000908152601c60205260409020546001600160a01b0383811691161480620029f65750336000908152601d602052604090205460ff16155b62002a0057600080fd5b62002a0a62003a21565b836001141562002bbe57600b54604080516370a0823160e01b8152306004820152905187926001600160a01b0316916370a08231916024808301926020929190829003018186803b15801562002a5f57600080fd5b505afa15801562002a74573d6000803e3d6000fd5b505050506040513d602081101562002a8b57600080fd5b50511162002a9857600080fd5b62002aa433856200321a565b6020820181905262002ab7908662003781565b604083018190528282600381111562002acc57fe5b600381111562002ad857fe5b815250505062002aeb6006548662003781565b606083018190528282600381111562002b0057fe5b600381111562002b0c57fe5b90525050604081810151336000818152601560209081528482209384556005546001909401939093556060850151600655600b54845163a9059cbb60e01b81526004810193909352602483018a905293516001600160a01b039094169363a9059cbb936044808501949193918390030190829087803b15801562002b8f57600080fd5b505af115801562002ba4573d6000803e3d6000fd5b505050506040513d602081101562002bbb57600080fd5b50505b836002141562002d7257600c54604080516370a0823160e01b8152306004820152905187926001600160a01b0316916370a08231916024808301926020929190829003018186803b15801562002c1357600080fd5b505afa15801562002c28573d6000803e3d6000fd5b505050506040513d602081101562002c3f57600080fd5b50511162002c4c57600080fd5b62002c5833856200321a565b6020820181905262002c6b908662003781565b604083018190528282600381111562002c8057fe5b600381111562002c8c57fe5b815250505062002c9f6006548662003781565b606083018190528282600381111562002cb457fe5b600381111562002cc057fe5b90525050604081810151336000818152601660209081528482209384556005546001909401939093556060850151600655600c54845163a9059cbb60e01b81526004810193909352602483018a905293516001600160a01b039094169363a9059cbb936044808501949193918390030190829087803b15801562002d4357600080fd5b505af115801562002d58573d6000803e3d6000fd5b505050506040513d602081101562002d6f57600080fd5b50505b836003141562002f2657600d54604080516370a0823160e01b8152306004820152905187926001600160a01b0316916370a08231916024808301926020929190829003018186803b15801562002dc757600080fd5b505afa15801562002ddc573d6000803e3d6000fd5b505050506040513d602081101562002df357600080fd5b50511162002e0057600080fd5b62002e0c33856200321a565b6020820181905262002e1f908662003781565b604083018190528282600381111562002e3457fe5b600381111562002e4057fe5b815250505062002e536006548662003781565b606083018190528282600381111562002e6857fe5b600381111562002e7457fe5b90525050604081810151336000818152601760209081528482209384556005546001909401939093556060850151600655600d54845163a9059cbb60e01b81526004810193909352602483018a905293516001600160a01b039094169363a9059cbb936044808501949193918390030190829087803b15801562002ef757600080fd5b505af115801562002f0c573d6000803e3d6000fd5b505050506040513d602081101562002f2357600080fd5b50505b336000818152601c6020908152604080832080546001600160a01b0319166001600160a01b03898116918217909255601d909352818420805460ff191660011790556012548251636a8394ad60e01b815260048101969096526024860193909352604485018a90529051911692636a8394ad92606480830193919282900301818387803b15801562002fb757600080fd5b505af115801562002fcc573d6000803e3d6000fd5b5050601254604080516310e6cb3360e31b81523360048201526001600160a01b038881166024830152604482018b9052915191909216935063873659989250606480830192600092919082900301818387803b1580156200302c57600080fd5b505af115801562003041573d6000803e3d6000fd5b505050505050505050565b600b546001600160a01b031681565b6012546040805163f8ab937160e01b8152336004820152306024820152905183926001600160a01b03169163f8ab9371916044808301926020929190829003018186803b158015620030ac57600080fd5b505afa158015620030c1573d6000803e3d6000fd5b505050506040513d6020811015620030d857600080fd5b50511015620030e657600080fd5b60115460408051632770a7eb60e21b81523360048201526024810184905290516001600160a01b0390921691639dc29fac9160448082019260009290919082900301818387803b1580156200313a57600080fd5b505af11580156200314f573d6000803e3d6000fd5b5050600a546040805163a9059cbb60e01b81523360048201526024810186905290516101009092046001600160a01b0316935063a9059cbb92506044808201926020929091908290030181600087803b158015620031ac57600080fd5b505af1158015620031c1573d6000803e3d6000fd5b505050506040513d6020811015620010e857600080fd5b6010546001600160a01b031681565b6000620031f3620039d0565b60405180602001604052806200110e620028a7565b60196020526000908152604090205481565b60006200322662001f46565b6200323283836200164f565b5092915050565b620032436200370a565b6000546001600160a01b0390811691161462003295576040805162461bcd60e51b8152602060048201819052602482015260008051602062005809833981519152604482015290519081900360640190fd5b6001600160a01b038116620032dc5760405162461bcd60e51b8152600401808060200182810382526026815260200180620057c26026913960400191505060405180910390fd5b600080546040516001600160a01b03808516939216916000805160206200582983398151915291a3600080546001600160a01b0319166001600160a01b0392909216919091179055565b6014546000906001600160a01b03166315f240536200334462003471565b6006546007546040518463ffffffff1660e01b815260040180848152602001838152602001828152602001935050505060206040518083038186803b1580156200216d57600080fd5b600080838311620033a6575060009050818303620033ae565b506003905060005b9250929050565b6000828201838110156200340e576040805162461bcd60e51b815260206004820152601b60248201527a536166654d6174683a206164646974696f6e206f766572666c6f7760281b604482015290519081900360640190fd5b9392505050565b600080600062003424620039d0565b62003430868662003712565b909250905060008260038111156200344457fe5b14620034575750915060009050620033ae565b6000620034648262003913565b9350935050509250929050565b600b54604080516370a0823160e01b8152306004820152905160009283926001600160a01b03909116916370a0823191602480820192602092909190829003018186803b158015620034c257600080fd5b505afa158015620034d7573d6000803e3d6000fd5b505050506040513d6020811015620034ee57600080fd5b5051600c54604080516370a0823160e01b815230600482015290519293506000926001600160a01b03909216916370a0823191602480820192602092909190829003018186803b1580156200354257600080fd5b505afa15801562003557573d6000803e3d6000fd5b505050506040513d60208110156200356e57600080fd5b5051600d54604080516370a0823160e01b815230600482015290519293506000926001600160a01b03909216916370a0823191602480820192602092909190829003018186803b158015620035c257600080fd5b505afa158015620035d7573d6000803e3d6000fd5b505050506040513d6020811015620035ee57600080fd5b50519050620036168162003609858563ffffffff620033b516565b9063ffffffff620033b516565b935050505090565b6000826200362f575060006200177c565b828202828482816200363d57fe5b04146200340e5760405162461bcd60e51b8152600401808060200182810382526021815260200180620057e86021913960400191505060405180910390fd5b60008060006200368b620039d0565b62003430868662003922565b60008083620036ac57506000905080620033ae565b83830283858281620036ba57fe5b0414620036d057506002915060009050620033ae565b600092509050620033ae565b60008082620036f25750600190506000620033ae565b6000838581620036fe57fe5b04915091509250929050565b3390565b4390565b60006200371e620039d0565b6000806200373186600001518662003697565b909250905060008260038111156200374557fe5b146200376657506040805160208101909152600081529092509050620033ae565b60408051602081019091529081526000969095509350505050565b6000808383018481106200379b57600092509050620033ae565b506002915060009050620033ae565b6000806000620037b9620039d0565b620037c5878762003712565b90925090506000826003811115620037d957fe5b14620037ec575091506000905062003809565b62003802620037fb8262003913565b8662003781565b9350935050505b935093915050565b60008060008062003823878762003781565b909250905060008260038111156200383757fe5b146200384a575091506000905062003809565b6200380281866200338d565b600062003862620039d0565b6000806200387986670de0b6b3a764000062003697565b909250905060008260038111156200388d57fe5b14620038ae57506040805160208101909152600081529092509050620033ae565b600080620038bd8388620036dc565b90925090506000826003811115620038d157fe5b14620038f65781604051806020016040528060008152509550955050505050620033ae565b604080516020810190915290815260009890975095505050505050565b51670de0b6b3a7640000900490565b60006200392e620039d0565b60008062003945670de0b6b3a76400008762003697565b909250905060008260038111156200395957fe5b146200397a57506040805160208101909152600081529092509050620033ae565b6200346481866000015162003856565b6040805161010081019091528060008152602001600081526020016000815260200160008152602001600081526020016000815260200160008152602001600081525090565b6040518060200160405280600081525090565b6040805160608101909152806000815260200160008152602001600081525090565b610a228062003a4b83390190565b611355806200446d83390190565b60408051608081019091528060008152602001600081526020016000815260200160008152509056fe608060405234801561001057600080fd5b50604051610a22380380610a22833981810160405260a081101561003357600080fd5b508051602082015160408301516060840151608090940151600080546001600160a01b0319166001600160a01b03831617905592939192909190848484848461007e8585858561008d565b505050505050505050506102bc565b6100a7622014808561017060201b61057e1790919060201c565b6002556100f66100c562201480836101c1602090811b61052517901c565b6100e4670de0b6b3a7640000866101c160201b6105251790919060201c565b61017060201b61057e1790919060201c565b6001556101118262201480610170602090811b61057e17901c565b60038190556004829055600254600154604080519283526020830191909152818101929092526060810183905290517f6960ab234c7ef4b0c9197100f5393cfcde7c453ac910a27bd2000aa1dd4c068d9181900360800190a150505050565b60006101b883836040518060400160405280601a81526020017f536166654d6174683a206469766973696f6e206279207a65726f00000000000081525061021a60201b60201c565b90505b92915050565b6000826101d0575060006101bb565b828202828482816101dd57fe5b04146101b85760405162461bcd60e51b8152600401808060200182810382526021815260200180610a016021913960400191505060405180910390fd5b600081836102a65760405162461bcd60e51b81526004018080602001828103825283818151815260200191508051906020019080838360005b8381101561026b578181015183820152602001610253565b50505050905090810190601f1680156102985780820380516001836020036101000a031916815260200191505b509250505060405180910390fd5b5060008385816102b257fe5b0495945050505050565b610736806102cb6000396000f3fe608060405234801561001057600080fd5b506004361061008e5760003560e01c806315f24053146100935780632037f3e7146100ce5780636e71e2d8146100ff5780638726bb89146101285780638da5cb5b14610130578063a385fb9614610154578063b81688161461015c578063b9f9850a1461018b578063f14039de14610193578063fd2da3391461019b575b600080fd5b6100bc600480360360608110156100a957600080fd5b50803590602081013590604001356101a3565b60408051918252519081900360200190f35b6100fd600480360360808110156100e457600080fd5b50803590602081013590604081013590606001356101ba565b005b6100bc6004803603606081101561011557600080fd5b5080359060208101359060400135610215565b6100bc61026b565b610138610271565b604080516001600160a01b039092168252519081900360200190f35b6100bc610280565b6100bc6004803603608081101561017257600080fd5b5080359060208101359060408101359060600135610287565b6100bc610306565b6100bc61030c565b6100bc610312565b60006101b0848484610318565b90505b9392505050565b6000546001600160a01b031633146102035760405162461bcd60e51b81526004018080602001828103825260268152602001806106db6026913960400191505060405180910390fd5b61020f848484846103e1565b50505050565b600082610224575060006101b3565b6101b06102478361023b878763ffffffff61048216565b9063ffffffff6104e316565b61025f85670de0b6b3a764000063ffffffff61052516565b9063ffffffff61057e16565b60015481565b6000546001600160a01b031681565b6220148081565b6000806102a2670de0b6b3a76400008463ffffffff6104e316565b905060006102b1878787610318565b905060006102d1670de0b6b3a764000061025f848663ffffffff61052516565b90506102fa670de0b6b3a764000061025f836102ee8c8c8c610215565b9063ffffffff61052516565b98975050505050505050565b60035481565b60025481565b60045481565b600080610326858585610215565b9050600454811161036c57610364600254610358670de0b6b3a764000061025f6001548661052590919063ffffffff16565b9063ffffffff61048216565b9150506101b3565b6000610397600254610358670de0b6b3a764000061025f60015460045461052590919063ffffffff16565b905060006103b0600454846104e390919063ffffffff16565b90506103d782610358670de0b6b3a764000061025f6003548661052590919063ffffffff16565b93505050506101b3565b6103f4846220148063ffffffff61057e16565b60025561040d610247622014808363ffffffff61052516565b600155610423826220148063ffffffff61057e16565b60038190556004829055600254600154604080519283526020830191909152818101929092526060810183905290517f6960ab234c7ef4b0c9197100f5393cfcde7c453ac910a27bd2000aa1dd4c068d9181900360800190a150505050565b6000828201838110156104da576040805162461bcd60e51b815260206004820152601b60248201527a536166654d6174683a206164646974696f6e206f766572666c6f7760281b604482015290519081900360640190fd5b90505b92915050565b60006104da83836040518060400160405280601e81526020017f536166654d6174683a207375627472616374696f6e206f766572666c6f7700008152506105bd565b600082610534575060006104dd565b8282028284828161054157fe5b04146104da5760405162461bcd60e51b81526004018080602001828103825260218152602001806106ba6021913960400191505060405180910390fd5b60006104da83836040518060400160405280601a815260200179536166654d6174683a206469766973696f6e206279207a65726f60301b815250610654565b6000818484111561064c5760405162461bcd60e51b81526004018080602001828103825283818151815260200191508051906020019080838360005b838110156106115781810151838201526020016105f9565b50505050905090810190601f16801561063e5780820380516001836020036101000a031916815260200191505b509250505060405180910390fd5b505050900390565b600081836106a35760405162461bcd60e51b81526020600482018181528351602484015283519092839260449091019190850190808383600083156106115781810151838201526020016105f9565b5060008385816106af57fe5b049594505050505056fe536166654d6174683a206d756c7469706c69636174696f6e206f766572666c6f776f6e6c7920746865206f776e6572206d61792063616c6c20746869732066756e6374696f6e2ea264697066735822122027d6c97186e85c5362aa98276aa2af6aa81caa7a2a8ee763cad018c8d1529da864736f6c63430006060033536166654d6174683a206d756c7469706c69636174696f6e206f766572666c6f7760806040523480156200001157600080fd5b506040516200135538038062001355833981810160405260608110156200003757600080fd5b8151602083018051604051929492938301929190846401000000008211156200005f57600080fd5b9083019060208201858111156200007557600080fd5b82516401000000008111828201881017156200009057600080fd5b82525081516020918201929091019080838360005b83811015620000bf578181015183820152602001620000a5565b50505050905090810190601f168015620000ed5780820380516001836020036101000a031916815260200191505b50604052602001805160405193929190846401000000008211156200011157600080fd5b9083019060208201858111156200012757600080fd5b82516401000000008111828201881017156200014257600080fd5b82525081516020918201929091019080838360005b838110156200017157818101518382015260200162000157565b50505050905090810190601f1680156200019f5780820380516001836020036101000a031916815260200191505b5060405250505080826000620001ba6200026c60201b60201c565b600080546001600160a01b0319166001600160a01b0383169081178255604051929350917f8be0079c531659141344cd1fd0a4f28419497f9722a3daafe3b4186f6b6457e0908290a35081516200021990600490602085019062000271565b5080516200022f90600590602084019062000271565b5050600680546001600160a01b0390951661010002610100600160a81b031960ff1990961660121795909516949094179093555062000313915050565b335b90565b828054600181600116156101000203166002900490600052602060002090601f016020900481019282601f10620002b457805160ff1916838001178555620002e4565b82800160010185558215620002e4579182015b82811115620002e4578251825591602001919060010190620002c7565b50620002f2929150620002f6565b5090565b6200026e91905b80821115620002f25760008155600101620002fd565b61103280620003236000396000f3fe608060405234801561001057600080fd5b50600436106100db5760003560e01c806306fdde03146100e0578063095ea7b31461015d57806318160ddd1461019d57806323b872dd146101b7578063313ce567146101ed578063395093511461020b57806340c10f191461023757806370a0823114610265578063715018a61461028b5780638da5cb5b1461029357806395d89b41146102b75780639dc29fac146102bf578063a457c2d7146102eb578063a9059cbb14610317578063dd62ed3e14610343578063e9cbd82214610371578063f2fde38b14610379575b600080fd5b6100e861039f565b6040805160208082528351818301528351919283929083019185019080838360005b8381101561012257818101518382015260200161010a565b50505050905090810190601f16801561014f5780820380516001836020036101000a031916815260200191505b509250505060405180910390f35b6101896004803603604081101561017357600080fd5b506001600160a01b038135169060200135610435565b604080519115158252519081900360200190f35b6101a5610452565b60408051918252519081900360200190f35b610189600480360360608110156101cd57600080fd5b506001600160a01b03813581169160208101359091169060400135610458565b6101f56104e5565b6040805160ff9092168252519081900360200190f35b6101896004803603604081101561022157600080fd5b506001600160a01b0381351690602001356104ee565b6102636004803603604081101561024d57600080fd5b506001600160a01b038135169060200135610542565b005b6101a56004803603602081101561027b57600080fd5b50356001600160a01b03166105a8565b6102636105c3565b61029b610653565b604080516001600160a01b039092168252519081900360200190f35b6100e8610662565b610263600480360360408110156102d557600080fd5b506001600160a01b0381351690602001356106c3565b6101896004803603604081101561030157600080fd5b506001600160a01b038135169060200135610725565b6101896004803603604081101561032d57600080fd5b506001600160a01b038135169060200135610793565b6101a56004803603604081101561035957600080fd5b506001600160a01b03813581169160200135166107a7565b61029b6107d2565b6102636004803603602081101561038f57600080fd5b50356001600160a01b03166107e6565b60048054604080516020601f600260001961010060018816150201909516949094049384018190048102820181019092528281526060939092909183018282801561042b5780601f106104005761010080835404028352916020019161042b565b820191906000526020600020905b81548152906001019060200180831161040e57829003601f168201915b5050505050905090565b60006104496104426108cc565b84846108d0565b50600192915050565b60035490565b60006104658484846109bc565b6104db846104716108cc565b6104d685604051806060016040528060288152602001610ee6602891396001600160a01b038a166000908152600260205260408120906104af6108cc565b6001600160a01b03168152602081019190915260400160002054919063ffffffff610b1316565b6108d0565b5060019392505050565b60065460ff1690565b60006104496104fb6108cc565b846104d6856002600061050c6108cc565b6001600160a01b03908116825260208083019390935260409182016000908120918c16815292529020549063ffffffff610baa16565b61054a6108cc565b6000546001600160a01b0390811691161461059a576040805162461bcd60e51b81526020600482018190526024820152600080516020610f0e833981519152604482015290519081900360640190fd5b6105a48282610c09565b5050565b6001600160a01b031660009081526001602052604090205490565b6105cb6108cc565b6000546001600160a01b0390811691161461061b576040805162461bcd60e51b81526020600482018190526024820152600080516020610f0e833981519152604482015290519081900360640190fd5b600080546040516001600160a01b0390911690600080516020610f2e833981519152908390a3600080546001600160a01b0319169055565b6000546001600160a01b031690565b60058054604080516020601f600260001961010060018816150201909516949094049384018190048102820181019092528281526060939092909183018282801561042b5780601f106104005761010080835404028352916020019161042b565b6106cb6108cc565b6000546001600160a01b0390811691161461071b576040805162461bcd60e51b81526020600482018190526024820152600080516020610f0e833981519152604482015290519081900360640190fd5b6105a48282610cf5565b60006104496107326108cc565b846104d685604051806060016040528060258152602001610fd8602591396002600061075c6108cc565b6001600160a01b03908116825260208083019390935260409182016000908120918d1681529252902054919063ffffffff610b1316565b60006104496107a06108cc565b84846109bc565b6001600160a01b03918216600090815260026020908152604080832093909416825291909152205490565b60065461010090046001600160a01b031681565b6107ee6108cc565b6000546001600160a01b0390811691161461083e576040805162461bcd60e51b81526020600482018190526024820152600080516020610f0e833981519152604482015290519081900360640190fd5b6001600160a01b0381166108835760405162461bcd60e51b8152600401808060200182810382526026815260200180610e786026913960400191505060405180910390fd5b600080546040516001600160a01b0380851693921691600080516020610f2e83398151915291a3600080546001600160a01b0319166001600160a01b0392909216919091179055565b3390565b6001600160a01b0383166109155760405162461bcd60e51b8152600401808060200182810382526024815260200180610fb46024913960400191505060405180910390fd5b6001600160a01b03821661095a5760405162461bcd60e51b8152600401808060200182810382526022815260200180610e9e6022913960400191505060405180910390fd5b6001600160a01b03808416600081815260026020908152604080832094871680845294825291829020859055815185815291517f8c5be1e5ebec7d5bd14f71427d1e84f3dd0314c0f7b2291e5b200ac8c7c3b9259281900390910190a3505050565b6001600160a01b038316610a015760405162461bcd60e51b8152600401808060200182810382526025815260200180610f8f6025913960400191505060405180910390fd5b6001600160a01b038216610a465760405162461bcd60e51b8152600401808060200182810382526023815260200180610e336023913960400191505060405180910390fd5b610a51838383610deb565b610a9481604051806060016040528060268152602001610ec0602691396001600160a01b038616600090815260016020526040902054919063ffffffff610b1316565b6001600160a01b038085166000908152600160205260408082209390935590841681522054610ac9908263ffffffff610baa16565b6001600160a01b038084166000818152600160209081526040918290209490945580518581529051919392871692600080516020610f4e83398151915292918290030190a3505050565b60008184841115610ba25760405162461bcd60e51b81526004018080602001828103825283818151815260200191508051906020019080838360005b83811015610b67578181015183820152602001610b4f565b50505050905090810190601f168015610b945780820380516001836020036101000a031916815260200191505b509250505060405180910390fd5b505050900390565b600082820183811015610c02576040805162461bcd60e51b815260206004820152601b60248201527a536166654d6174683a206164646974696f6e206f766572666c6f7760281b604482015290519081900360640190fd5b9392505050565b6001600160a01b038216610c64576040805162461bcd60e51b815260206004820152601f60248201527f45524332303a206d696e7420746f20746865207a65726f206164647265737300604482015290519081900360640190fd5b610c7060008383610deb565b600354610c83908263ffffffff610baa16565b6003556001600160a01b038216600090815260016020526040902054610caf908263ffffffff610baa16565b6001600160a01b0383166000818152600160209081526040808320949094558351858152935192939192600080516020610f4e8339815191529281900390910190a35050565b6001600160a01b038216610d3a5760405162461bcd60e51b8152600401808060200182810382526021815260200180610f6e6021913960400191505060405180910390fd5b610d4682600083610deb565b610d8981604051806060016040528060228152602001610e56602291396001600160a01b038516600090815260016020526040902054919063ffffffff610b1316565b6001600160a01b038316600090815260016020526040902055600354610db5908263ffffffff610df016565b6003556040805182815290516000916001600160a01b03851691600080516020610f4e8339815191529181900360200190a35050565b505050565b6000610c0283836040518060400160405280601e81526020017f536166654d6174683a207375627472616374696f6e206f766572666c6f770000815250610b1356fe45524332303a207472616e7366657220746f20746865207a65726f206164647265737345524332303a206275726e20616d6f756e7420657863656564732062616c616e63654f776e61626c653a206e6577206f776e657220697320746865207a65726f206164647265737345524332303a20617070726f766520746f20746865207a65726f206164647265737345524332303a207472616e7366657220616d6f756e7420657863656564732062616c616e636545524332303a207472616e7366657220616d6f756e74206578636565647320616c6c6f77616e63654f776e61626c653a2063616c6c6572206973206e6f7420746865206f776e65728be0079c531659141344cd1fd0a4f28419497f9722a3daafe3b4186f6b6457e0ddf252ad1be2c89b69c2b068fc378daa952ba7f163c4a11628f55a4df523b3ef45524332303a206275726e2066726f6d20746865207a65726f206164647265737345524332303a207472616e736665722066726f6d20746865207a65726f206164647265737345524332303a20617070726f76652066726f6d20746865207a65726f206164647265737345524332303a2064656372656173656420616c6c6f77616e63652062656c6f77207a65726fa264697066735822122031be152ed6520da8d6af1af43c8b44a9656953c334cb61126cade981debcf43064736f6c634300060600334f776e61626c653a206e6577206f776e657220697320746865207a65726f2061646472657373536166654d6174683a206d756c7469706c69636174696f6e206f766572666c6f774f776e61626c653a2063616c6c6572206973206e6f7420746865206f776e65728be0079c531659141344cd1fd0a4f28419497f9722a3daafe3b4186f6b6457e0a2646970667358221220056d8572fae8b76b11f6481d4aa6a3ef7be8a8f01b9aef0481d7430e46f693ab64736f6c63430006060033",
  "immutableReferences": {},
  "source": "pragma solidity ^0.6.2;\n\nimport \"@openzeppelin/contracts/access/Ownable.sol\";\nimport \"@openzeppelin/contracts/math/SafeMath.sol\";\nimport \"@openzeppelin/contracts/token/ERC20/IERC20.sol\";\nimport \"./compound/Exponential.sol\";\nimport \"./compound/JumpRateModelV2.sol\";\nimport \"./compound/InterestRateModel.sol\";\nimport \"./interfaces/UniswapLPOracleFactoryI.sol\";\nimport \"./WarpWrapperToken.sol\";\nimport \"./interfaces/WarpControlI.sol\";\n\n////////////////////////////////////////////////////////////////////////////////////////////\n/// @title WarpVault\n/// @author Christopher Dixon\n////////////////////////////////////////////////////////////////////////////////////////////\n/**\n@notice the WarpVault contract is the main point of interface for a specific LP asset class and an end user in the\nWarp lending platform. This contract is responsible for distributing WarpWrapper tokens in exchange for stablecoin assets,\nholding and accounting of stablecoins and LP tokens and all associates lending/borrowing calculations for a specific Warp LP asset class.\nThis contract inherits Ownership and ERC20 functionality from the Open Zeppelin Library as well as Exponential and the InterestRateModel contracts\nfrom the coumpound protocol.\n**/\n\ncontract WarpVault is Ownable, Exponential {\n    using SafeMath for uint256;\n\n    uint256 public lockTime;\n    uint256 internal initialExchangeRateMantissa;\n    uint256 public reserveFactorMantissa;\n    uint256 public accrualBlockNumber;\n    uint256 public borrowIndex;\n    uint256 public totalBorrows;\n    uint256 public totalReserves;\n    uint256 internal constant borrowRateMaxMantissa = 0.0005e16;\n    uint256 internal constant reserveFactorMaxMantissa = 1e18;\n    uint256 public liquidationIncentiveMantissa = 1.5e18; // 1.5\n\n    string public lpName;\n    bool public initialized;\n\n    IERC20 public LPtoken;\n    IERC20 public DAI;\n    IERC20 public USDC;\n    IERC20 public USDT;\n    WarpWrapperToken public WDAI;\n    WarpWrapperToken public WUSDC;\n    WarpWrapperToken public WUSDT;\n    WarpWrapperToken public WLP;\n    WarpControlI public WC;\n    UniswapLPOracleFactoryI public UOF;\n    InterestRateModel public InterestRate;\n\n    mapping(address => BorrowSnapshot) public accountBorrowsDAI;\n    mapping(address => BorrowSnapshot) public accountBorrowsUSDC;\n    mapping(address => BorrowSnapshot) public accountBorrowsUSDT;\n    mapping(address => mapping(address => uint256)) nonCompliant; // tracks user to a market to a time\n    mapping(address => uint256) public accountLentDAI;\n    mapping(address => uint256) public accountLentUSDC;\n    mapping(address => uint256) public accountLentUSDT;\n    mapping(address => address) public collateralAddressTracker;\n    mapping(address => bool) public collateralLocked;\n    /**\n@notice struct for borrow balance information\n@member principal Total balance (with accrued interest), after applying the most recent balance-changing action\n@member interestIndex Global borrowIndex as of the most recent balance-changing action\n*/\n    struct BorrowSnapshot {\n        uint256 principal;\n        uint256 interestIndex;\n    }\n\n    /**\n@notice constructor sets up token names and symbols for the WarpWrapperToken\n@param _lp is the address of the lp token a specific Warp vault will represent\n@param _lpName is the name of the lp token\n@dev this function instantiates the lp token as a useable object and generates three WarpWrapperToken contracts to represent\n      each type of stable coin this vault can hold. this also instantiates each of these contracts as a usable object in this contract giving\n      this contract the ability to call their mint and burn functions.\n**/\n    constructor(\n        address _lp,\n        address _WarpControl,\n        string memory _lpName\n    ) public {\n        lpName = _lpName;\n        LPtoken = IERC20(_lp);\n        WC = WarpControlI(_WarpControl);\n        accrualBlockNumber = getBlockNumber();\n        borrowIndex = mantissaOne;\n    }\n\n    /**\n@notice setUp is called after the creation of a WarpVault to set up its Interest Rate Model and its initial exchange rate\n@param _baseRatePerYear The approximate target base APR, as a mantissa (scaled by 1e18)\n@param _multiplierPerYear  The rate of increase in interest rate wrt utilization (scaled by 1e18)\n@param _jumpMultiplierPerYear The multiplierPerBlock after hitting a specified utilization point\n@param _optimal The utilization point at which the jump multiplier is applied(Refered to as the Kink in the InterestRateModel)\n**/\n    function setUp(\n        uint256 _baseRatePerYear,\n        uint256 _multiplierPerYear,\n        uint256 _jumpMultiplierPerYear,\n        uint256 _optimal,\n        uint256 _initialExchangeRate,\n        address _oracle\n    ) public {\n        require(!initialized);\n\n        UOF = UniswapLPOracleFactoryI(_oracle);\n        DAI = IERC20(WC.DAI());\n        USDC = IERC20(WC.USDC());\n        USDT = IERC20(WC.USDT());\n\n        address IR = address(\n            new JumpRateModelV2(\n                _baseRatePerYear,\n                _multiplierPerYear,\n                _jumpMultiplierPerYear,\n                _optimal,\n                address(this)\n            )\n        );\n\n        InterestRate = InterestRateModel(IR);\n\n        initialExchangeRateMantissa = _initialExchangeRate; //sets the initialExchangeRateMantissa\n        WDAI = new WarpWrapperToken(address(DAI), \"WDAI\", \"WDAI\");\n\n        WUSDC = new WarpWrapperToken(address(USDC), \"WUS Dollar Coin\", \"WUSDC\");\n\n        WUSDT = new WarpWrapperToken(\n            address(USDT),\n            \"WUS Dollar Tether\",\n            \"WUSDT\"\n        );\n\n        WLP = new WarpWrapperToken(address(LPtoken), lpName, \"WLPW\");\n        initialized = true;\n    }\n\n    /**\n@notice Get the underlying balance of an account\n@dev This also accrues interest in a transaction\n@param _account The address of the account to query\n@return The amount of underlying owned by `_account`\n*/\n    function balanceOfUnderlying(address _account) external returns (uint256) {\n        Exp memory exchangeRate = Exp({mantissa: exchangeRateCurrent()});\n        (MathError mErr, uint256 balance) = mulScalarTruncate(\n            exchangeRate,\n            WLP.balanceOf(_account)\n        );\n        require(mErr == MathError.NO_ERROR);\n        return balance;\n    }\n\n    /**\n@notice Get the underlying balance of the `owners`\n@param owner The address of the account to query\n@return The amount of underlying owned by `owner`\n**/\n    function balanceOfUnderlyingPrior(address owner)\n        public\n        view\n        returns (uint256)\n    {\n        Exp memory exchangeRate = Exp({mantissa: exchangeRatePrior()});\n        (MathError mErr, uint256 balance) = mulScalarTruncate(\n            exchangeRate,\n            WLP.balanceOf(owner)\n        );\n        require(mErr == MathError.NO_ERROR);\n        return balance;\n    }\n\n    /**\n@notice getCashPrior is a view funcion that returns the USD balance of all held underlying stablecoin assets\n**/\n    function getCashPrior() internal view returns (uint256) {\n        uint256 _daiBal = DAI.balanceOf(address(this));\n        uint256 _usdcBal = USDC.balanceOf(address(this));\n        uint256 _usdtBal = USDT.balanceOf(address(this));\n        return _daiBal.add(_usdcBal).add(_usdtBal);\n    }\n\n    /**\n@notice Applies accrued interest to total borrows and reserves\n@dev This calculates interest accrued from the last checkpointed block\n     up to the current block and writes new checkpoint to storage.\n**/\n    function accrueInterest() public {\n        //Remember the initial block number\n        uint256 currentBlockNumber = getBlockNumber();\n        uint256 accrualBlockNumberPrior = accrualBlockNumber;\n        //Short-circuit accumulating 0 interest\n        require(accrualBlockNumberPrior != currentBlockNumber);\n        //Read the previous values out of storage\n        uint256 cashPrior = getCashPrior();\n        uint256 borrowsPrior = totalBorrows;\n        uint256 reservesPrior = totalReserves;\n        uint256 borrowIndexPrior = borrowIndex;\n        //Calculate the current borrow interest rate\n        uint256 borrowRateMantissa = InterestRate.getBorrowRate(\n            cashPrior,\n            borrowsPrior,\n            reservesPrior\n        );\n        require(borrowRateMantissa <= borrowRateMaxMantissa);\n        //Calculate the number of blocks elapsed since the last accrual\n        (MathError mathErr, uint256 blockDelta) = subUInt(\n            currentBlockNumber,\n            accrualBlockNumberPrior\n        );\n        //Calculate the interest accumulated into borrows and reserves and the new index:\n        Exp memory simpleInterestFactor;\n        uint256 interestAccumulated;\n        uint256 totalBorrowsNew;\n        uint256 totalReservesNew;\n        uint256 borrowIndexNew;\n        //simpleInterestFactor = borrowRate * blockDelta\n        (mathErr, simpleInterestFactor) = mulScalar(\n            Exp({mantissa: borrowRateMantissa}),\n            blockDelta\n        );\n        //interestAccumulated = simpleInterestFactor * totalBorrows\n        (mathErr, interestAccumulated) = mulScalarTruncate(\n            simpleInterestFactor,\n            borrowsPrior\n        );\n        //totalBorrowsNew = interestAccumulated + totalBorrows\n        (mathErr, totalBorrowsNew) = addUInt(interestAccumulated, borrowsPrior);\n        //totalReservesNew = interestAccumulated * reserveFactor + totalReserves\n        (mathErr, totalReservesNew) = mulScalarTruncateAddUInt(\n            Exp({mantissa: reserveFactorMantissa}),\n            interestAccumulated,\n            reservesPrior\n        );\n        //borrowIndexNew = simpleInterestFactor * borrowIndex + borrowIndex\n        (mathErr, borrowIndexNew) = mulScalarTruncateAddUInt(\n            simpleInterestFactor,\n            borrowIndexPrior,\n            borrowIndexPrior\n        );\n\n        //Write the previously calculated values into storage\n        accrualBlockNumber = currentBlockNumber;\n        borrowIndex = borrowIndexNew;\n        totalBorrows = totalBorrowsNew;\n        totalReserves = totalReservesNew;\n    }\n\n    /**\n@notice returns last calculated account's borrow balance using the prior borrowIndex\n@param account The address whose balance should be calculated after updating borrowIndex\n@return The calculated balance\n**/\n    function borrowBalancePrior(address account, uint256 _assetType)\n        public\n        view\n        returns (uint256)\n    {\n        MathError mathErr;\n        uint256 principalTimesIndex;\n        uint256 result;\n        if (_assetType == 1) {\n            //Get borrowBalance and borrowIndex\n            BorrowSnapshot storage borrowSnapshot = accountBorrowsDAI[account];\n            //If borrowBalance = 0 then borrowIndex is likely also 0.\n            //Rather than failing the calculation with a division by 0, we immediately return 0 in this case.\n            if (borrowSnapshot.principal == 0) {\n                return (0);\n            }\n\n            //Calculate new borrow balance using the interest index:\n            //recentBorrowBalance = borrower.borrowBalance * market.borrowIndex / borrower.borrowIndex\n            (mathErr, principalTimesIndex) = mulUInt(\n                borrowSnapshot.principal,\n                borrowIndex\n            );\n            if (mathErr != MathError.NO_ERROR) {\n                return (0);\n            }\n\n            (mathErr, result) = divUInt(\n                principalTimesIndex,\n                borrowSnapshot.interestIndex\n            );\n            if (mathErr != MathError.NO_ERROR) {\n                return (0);\n            }\n\n            return (result);\n        }\n\n        if (_assetType == 2) {\n            //Get borrowBalance and borrowIndex\n            BorrowSnapshot storage borrowSnapshot = accountBorrowsUSDC[account];\n            //If borrowBalance = 0 then borrowIndex is likely also 0.\n            //Rather than failing the calculation with a division by 0, we immediately return 0 in this case.\n            if (borrowSnapshot.principal == 0) {\n                return (0);\n            }\n\n            //Calculate new borrow balance using the interest index:\n            //recentBorrowBalance = borrower.borrowBalance * market.borrowIndex / borrower.borrowIndex\n            (mathErr, principalTimesIndex) = mulUInt(\n                borrowSnapshot.principal,\n                borrowIndex\n            );\n            if (mathErr != MathError.NO_ERROR) {\n                return (0);\n            }\n\n            (mathErr, result) = divUInt(\n                principalTimesIndex,\n                borrowSnapshot.interestIndex\n            );\n            if (mathErr != MathError.NO_ERROR) {\n                return (0);\n            }\n\n            return (result);\n        }\n\n        if (_assetType == 3) {\n            //Get borrowBalance and borrowIndex\n            BorrowSnapshot storage borrowSnapshot = accountBorrowsUSDT[account];\n            //If borrowBalance = 0 then borrowIndex is likely also 0.\n            //Rather than failing the calculation with a division by 0, we immediately return 0 in this case.\n            if (borrowSnapshot.principal == 0) {\n                return (0);\n            }\n\n            //Calculate new borrow balance using the interest index:\n            //recentBorrowBalance = borrower.borrowBalance * market.borrowIndex / borrower.borrowIndex\n            (mathErr, principalTimesIndex) = mulUInt(\n                borrowSnapshot.principal,\n                borrowIndex\n            );\n            if (mathErr != MathError.NO_ERROR) {\n                return (0);\n            }\n\n            (mathErr, result) = divUInt(\n                principalTimesIndex,\n                borrowSnapshot.interestIndex\n            );\n            if (mathErr != MathError.NO_ERROR) {\n                return (0);\n            }\n\n            return (result);\n        }\n    }\n\n    /**\n@notice Accrue interest to updated borrowIndex and then calculate account's borrow balance using the updated borrowIndex\n@param account The address whose balance should be calculated after updating borrowIndex\n@return The calculated balance\n**/\n    function borrowBalanceCurrent(address account, uint256 _assetType)\n        public\n        returns (uint256)\n    {\n        accrueInterest();\n        borrowBalancePrior(account, _assetType);\n    }\n\n    /**\n @notice getBlockNumber allows for easy retrieval of block number\n **/\n    function getBlockNumber() internal view returns (uint256) {\n        return block.number;\n    }\n\n    /**\n@notice Returns the current per-block borrow interest rate for this cToken\n@return The borrow interest rate per block, scaled by 1e18\n**/\n    function borrowRatePerBlock() public view returns (uint256) {\n        return\n            InterestRate.getBorrowRate(\n                getCashPrior(),\n                totalBorrows,\n                totalReserves\n            );\n    }\n\n    /**\n@notice Returns the current per-block supply interest rate for this cToken\n@return The supply interest rate per block, scaled by 1e18\n**/\n    function supplyRatePerBlock() public view returns (uint256) {\n        return\n            InterestRate.getSupplyRate(\n                getCashPrior(),\n                totalBorrows,\n                totalReserves,\n                reserveFactorMantissa\n            );\n    }\n\n    /**\n@notice getSupplyAPY roughly calculates the current APY for supplying using an average of 6500 blocks per day\n**/\n    function getSupplyAPY() public view returns (uint256) {\n        //multiply rate per block by blocks per year with an average of 6500 blocks a day per https://ycharts.com/indicators/ethereum_blocks_per_day\n        return supplyRatePerBlock().mul(2372500);\n    }\n\n    /**\n@notice getSupplyAPY roughly calculates the current APY for borrowing using an average of 6500 blocks per day\n**/\n    function getBorrowAPY() public view returns (uint256) {\n        //multiply rate per block by blocks per year with an average of 6500 blocks a day per https://ycharts.com/indicators/ethereum_blocks_per_day\n        return borrowRatePerBlock().mul(2372500);\n    }\n\n    /**\n     @notice Returns the current total borrows plus accrued interest\n     @return The total borrows with interest\n     **/\n    function totalBorrowsCurrent() external returns (uint256) {\n        accrueInterest();\n        return totalBorrows;\n    }\n\n    /**\n         @notice  return the not up-to-date exchange rate\n         @return Calculated exchange rate scaled by 1e18\n         **/\n    function exchangeRatePrior() public view returns (uint256) {\n        if (WLP.totalSupply() == 0) {\n            //If there are no tokens minted: exchangeRate = initialExchangeRate\n            return initialExchangeRateMantissa;\n        } else {\n            //Otherwise: exchangeRate = (totalCash + totalBorrows - totalReserves) / totalSupply\n            uint256 totalCash = getCashPrior(); //get contract asset balance\n            uint256 cashPlusBorrowsMinusReserves;\n            Exp memory exchangeRate;\n            MathError mathErr;\n            //calculate total value held by contract plus owed to contract\n            (mathErr, cashPlusBorrowsMinusReserves) = addThenSubUInt(\n                totalCash,\n                totalBorrows,\n                totalReserves\n            );\n            //calculate exchange rate\n            (mathErr, exchangeRate) = getExp(\n                cashPlusBorrowsMinusReserves,\n                WLP.totalSupply()\n            );\n            return (exchangeRate.mantissa);\n        }\n    }\n\n    /**\n     @notice Accrue interest then return the up-to-date exchange rate\n     @return Calculated exchange rate scaled by 1e18\n     **/\n    function exchangeRateCurrent() public returns (uint256) {\n        accrueInterest();\n        if (WLP.totalSupply() == 0) {\n            //If there are no tokens minted: exchangeRate = initialExchangeRate\n            return initialExchangeRateMantissa;\n        } else {\n            //Otherwise: exchangeRate = (totalCash + totalBorrows - totalReserves) / totalSupply\n            uint256 totalCash = getCashPrior(); //get contract asset balance\n            uint256 cashPlusBorrowsMinusReserves;\n            Exp memory exchangeRate;\n            MathError mathErr;\n            //calculate total value held by contract plus owed to contract\n            (mathErr, cashPlusBorrowsMinusReserves) = addThenSubUInt(\n                totalCash,\n                totalBorrows,\n                totalReserves\n            );\n            //calculate exchange rate\n            (mathErr, exchangeRate) = getExp(\n                cashPlusBorrowsMinusReserves,\n                WLP.totalSupply()\n            );\n            return (exchangeRate.mantissa);\n        }\n    }\n\n    /**\n@notice Get cash balance of this cToken in the underlying asset in other contracts\n@return The quantity of underlying asset owned by this contract\n**/\n    function getCash() external view returns (uint256) {\n        return getCashPrior();\n    }\n\n    //struct used by mint to avoid stack too deep errors\n    struct MintLocalVars {\n        MathError mathErr;\n        uint256 exchangeRateMantissa;\n        uint256 mintTokens;\n    }\n\n    /**\n@notice lendToWarpVault is used to lend stablecoin assets to a WaprVault\n@param _amount is the amount of the asset being lent\n@param _assetType is a number value 1-3 representing which asset is being lent\n@dev the user will need to first approve the transfer of the underlying asset\n**/\n    function lendToWarpVault(uint256 _amount, uint256 _assetType) public {\n        require(_assetType >= 1 && _assetType <= 3);\n        //require the asset type is a number 1-3, fails if it is 0 or more than 3\n        //declare struct\n        MintLocalVars memory vars;\n        //retrieve exchange rate\n        vars.exchangeRateMantissa = exchangeRateCurrent();\n        //We get the current exchange rate and calculate the number of WarpWrapperToken to be minted:\n        //mintTokens = _amount / exchangeRate\n        (vars.mathErr, vars.mintTokens) = divScalarByExpTruncate(\n            _amount,\n            Exp({mantissa: vars.exchangeRateMantissa})\n        );\n\n        if (_assetType == 1) {\n            //transfer appropriate amount of DAI from msg.sender to the Vault\n            DAI.transferFrom(msg.sender, address(this), _amount);\n            //track amount lent\n            accountLentDAI[msg.sender] = _amount;\n            //mint appropriate Warp DAI\n            WDAI.mint(msg.sender, vars.mintTokens);\n        }\n\n        if (_assetType == 2) {\n            //transfer appropriate amount of USDC from msg.sender to the Vault\n            USDC.transferFrom(msg.sender, address(this), _amount);\n            //track amount lent\n            accountLentUSDC[msg.sender] = _amount;\n            //mint appropriate Warp USDC\n            WUSDC.mint(msg.sender, vars.mintTokens);\n        }\n\n        if (_assetType == 3) {\n            //transfer appropriate amount of USDT from msg.sender to the Vault\n            USDT.transferFrom(msg.sender, address(this), _amount);\n            //track amount lent\n            accountLentUSDT[msg.sender] = _amount;\n            //mint appropriate Warp USDT\n            WUSDT.mint(msg.sender, vars.mintTokens);\n        }\n    }\n\n    struct RedeemLocalVars {\n        MathError mathErr;\n        uint256 exchangeRateMantissa;\n        uint256 redeemAmount;\n    }\n\n    /**\n@notice redeem allows a user to redeem their Warp Wrapper Token for the appropriate amount of underlying stablecoin asset\n@param _amount is the amount of Warp Wrapper token being exchanged\n@param _assetType is a number representing which Wrapper type is being redeemed\n**/\n    function redeem(uint256 _amount, uint256 _assetType) public {\n        accrueInterest();\n        require(_amount != 0);\n        require(_assetType >= 1 && _assetType <= 3);\n        //require the asset type is a number 1-3, fails if it is 0 or more than 3\n        RedeemLocalVars memory vars;\n\n        //get exchange rate\n        vars.exchangeRateMantissa = exchangeRateCurrent();\n        /**\nWe calculate the exchange rate and the amount of underlying to be redeemed:\nredeemAmount = _amount x exchangeRateCurrent\n*/\n        (vars.mathErr, vars.redeemAmount) = mulScalarTruncate(\n            Exp({mantissa: vars.exchangeRateMantissa}),\n            _amount\n        );\n        //transfer the calculated amount of underlying asset to the msg.sender\n\n        if (_assetType == 1) {\n            //Fail if protocol has insufficient cash\n            require(DAI.balanceOf(address(this)) >= vars.redeemAmount);\n            WDAI.burn(msg.sender, _amount); //will fail id the msg.sender doesnt have the appropriateamount of wrapper token\n            DAI.transfer(msg.sender, vars.redeemAmount);\n        }\n\n        if (_assetType == 2) {\n            //Fail if protocol has insufficient cash\n            require(USDC.balanceOf(address(this)) >= vars.redeemAmount);\n            WUSDC.burn(msg.sender, _amount); //will fail id the msg.sender doesnt have the appropriateamount of wrapper token\n            USDC.transfer(msg.sender, vars.redeemAmount);\n        }\n\n        if (_assetType == 3) {\n            //Fail if protocol has insufficient cash\n            require(USDT.balanceOf(address(this)) >= vars.redeemAmount);\n            WUSDT.burn(msg.sender, _amount); //will fail id the msg.sender doesnt have the appropriateamount of wrapper token\n            USDT.transfer(msg.sender, vars.redeemAmount);\n        }\n    }\n\n    //struct used by borrow function to avoid stack too deep errors\n    struct BorrowLocalVars {\n        MathError mathErr;\n        uint256 accountBorrows;\n        uint256 accountBorrowsNew;\n        uint256 totalBorrowsNew;\n    }\n\n    /**\n@notice Sender borrows stablecoin assets from the protocol to their own address\n@param _borrowAmount The amount of the underlying asset to borrow\n*/\n    function borrow(\n        uint256 _borrowAmount,\n        uint256 _assetType,\n        address _WarpVaultCollat\n    ) public {\n        // _collateral the address of the ALR the user has staked as collateral?\n        accrueInterest();\n        //require an appropriate asset class is selected\n        require(_assetType >= 1 && _assetType <= 3);\n        uint256 collatValue = WC.checkCollateralValue(\n            msg.sender,\n            _WarpVaultCollat\n        );\n        //require the amount being borrowed is lessthan or equal to the users availible collateral value\n        require(_borrowAmount <= collatValue);\n        //require the collateral being put up is either the same as existing loans OR that the user doesnt have a selected collateral type yet\n        require(\n            collateralAddressTracker[msg.sender] == _WarpVaultCollat ||\n                collateralLocked[msg.sender] == false\n        );\n        //create local vars storage\n        BorrowLocalVars memory vars;\n\n        if (_assetType == 1) {\n            //Fail if protocol has insufficient underlying cash\n            require(DAI.balanceOf(address(this)) > _borrowAmount);\n            //calculate the new borrower and total borrow balances, failing on overflow:\n            vars.accountBorrows = borrowBalanceCurrent(msg.sender, _assetType);\n            //accountBorrowsNew = accountBorrows + borrowAmount\n            (vars.mathErr, vars.accountBorrowsNew) = addUInt(\n                vars.accountBorrows,\n                _borrowAmount\n            );\n            //totalBorrowsNew = totalBorrows + borrowAmount\n            (vars.mathErr, vars.totalBorrowsNew) = addUInt(\n                totalBorrows,\n                _borrowAmount\n            );\n            //We write the previously calculated values into storage\n            accountBorrowsDAI[msg.sender].principal = vars.accountBorrowsNew;\n            accountBorrowsDAI[msg.sender].interestIndex = borrowIndex;\n            totalBorrows = vars.totalBorrowsNew;\n            //send them their loaned asset\n            DAI.transfer(msg.sender, _borrowAmount);\n        }\n\n        if (_assetType == 2) {\n            //Fail if protocol has insufficient underlying cash\n            require(USDC.balanceOf(address(this)) > _borrowAmount);\n            //calculate the new borrower and total borrow balances, failing on overflow:\n            vars.accountBorrows = borrowBalanceCurrent(msg.sender, _assetType);\n            //accountBorrowsNew = accountBorrows + borrowAmount\n            (vars.mathErr, vars.accountBorrowsNew) = addUInt(\n                vars.accountBorrows,\n                _borrowAmount\n            );\n            //totalBorrowsNew = totalBorrows + borrowAmount\n            (vars.mathErr, vars.totalBorrowsNew) = addUInt(\n                totalBorrows,\n                _borrowAmount\n            );\n            //We write the previously calculated values into storage\n            accountBorrowsUSDC[msg.sender].principal = vars.accountBorrowsNew;\n            accountBorrowsUSDC[msg.sender].interestIndex = borrowIndex;\n            totalBorrows = vars.totalBorrowsNew;\n            //send them their loaned asset\n            USDC.transfer(msg.sender, _borrowAmount);\n        }\n\n        if (_assetType == 3) {\n            //Fail if protocol has insufficient underlying cash\n            require(USDT.balanceOf(address(this)) > _borrowAmount);\n            //calculate the new borrower and total borrow balances, failing on overflow:\n            vars.accountBorrows = borrowBalanceCurrent(msg.sender, _assetType);\n            //accountBorrowsNew = accountBorrows + borrowAmount\n            (vars.mathErr, vars.accountBorrowsNew) = addUInt(\n                vars.accountBorrows,\n                _borrowAmount\n            );\n            //totalBorrowsNew = totalBorrows + borrowAmount\n            (vars.mathErr, vars.totalBorrowsNew) = addUInt(\n                totalBorrows,\n                _borrowAmount\n            );\n            //We write the previously calculated values into storage\n            accountBorrowsUSDT[msg.sender].principal = vars.accountBorrowsNew;\n            accountBorrowsUSDT[msg.sender].interestIndex = borrowIndex;\n            totalBorrows = vars.totalBorrowsNew;\n            //send them their loaned asset\n            USDT.transfer(msg.sender, _borrowAmount);\n        }\n        //track where the collateral is\n        collateralAddressTracker[msg.sender] = _WarpVaultCollat;\n        //track that a collateral source is selected\n        collateralLocked[msg.sender] = true;\n        //track collateral globally through Warp Control\n        WC.trackCollateralDown(msg.sender, _WarpVaultCollat, _borrowAmount);\n        WC.lockCollateralUp(msg.sender, _WarpVaultCollat, _borrowAmount);\n    }\n\n    struct RepayBorrowLocalVars {\n        MathError mathErr;\n        uint256 repayAmount;\n        uint256 borrowerIndex;\n        uint256 accountBorrows;\n        uint256 accountBorrowsNew;\n        uint256 totalBorrowsNew;\n        uint256 totalOwed;\n        uint256 lockedCollateral;\n    }\n\n    /**\n@notice Sender repays their own borrow\n@param repayAmount The amount to repay\n*/\n    function repayBorrow(uint256 repayAmount, uint256 _assetType) public {\n        accrueInterest();\n        require(_assetType >= 1 && _assetType <= 3);\n        //create local vars storage\n        RepayBorrowLocalVars memory vars;\n        if (_assetType == 1) {\n            //We remember the original borrowerIndex for verification purposes\n            vars.borrowerIndex = accountBorrowsDAI[msg.sender].interestIndex;\n            //We fetch the amount the borrower owes, with accumulated interest\n            vars.accountBorrows = borrowBalanceCurrent(msg.sender, _assetType);\n            //If repayAmount == 0, repayAmount = accountBorrows\n            if (repayAmount == 0) {\n                vars.repayAmount = vars.accountBorrows;\n            } else {\n                vars.repayAmount = repayAmount;\n            }\n            //We calculate the new borrower and total borrow balances\n            //accountBorrowsNew = accountBorrows - actualRepayAmount\n            (vars.mathErr, vars.accountBorrowsNew) = subUInt(\n                vars.accountBorrows,\n                vars.repayAmount\n            );\n            //totalBorrowsNew = totalBorrows - actualRepayAmount\n            (vars.mathErr, vars.totalBorrowsNew) = subUInt(\n                totalBorrows,\n                vars.repayAmount\n            );\n            /* We write the previously calculated values into storage */\n            accountBorrowsDAI[msg.sender].principal = vars.accountBorrowsNew;\n            accountBorrowsDAI[msg.sender].interestIndex = borrowIndex;\n            totalBorrows = vars.totalBorrowsNew;\n            vars.totalOwed = accountBorrowsDAI[msg.sender].principal.add(\n                accountBorrowsDAI[msg.sender].interestIndex\n            );\n            //if the amount they owe is now zero\n            if (vars.totalOwed == 0) {\n                //retreive amount of collateral they had locked for this loan\n                vars.lockedCollateral = WC.checkLockedCollateral(\n                    msg.sender,\n                    collateralAddressTracker[msg.sender]\n                );\n                //set their collateral source type back to false(meaning another source can now be used in future loans)\n                collateralLocked[msg.sender] = false;\n                //track collateral globally through Warp Control\n                WC.lockCollateralDown(\n                    msg.sender,\n                    collateralAddressTracker[msg.sender],\n                    vars.lockedCollateral\n                );\n                WC.trackCollateralUp(\n                    msg.sender,\n                    collateralAddressTracker[msg.sender],\n                    vars.lockedCollateral\n                );\n            }\n        }\n\n        if (_assetType == 2) {\n            //We remember the original borrowerIndex for verification purposes\n            vars.borrowerIndex = accountBorrowsUSDC[msg.sender].interestIndex;\n            //We fetch the amount the borrower owes, with accumulated interest\n            vars.accountBorrows = borrowBalanceCurrent(msg.sender, _assetType);\n            //If repayAmount == 0, repayAmount = accountBorrows\n            if (repayAmount == 0) {\n                vars.repayAmount = vars.accountBorrows;\n            } else {\n                vars.repayAmount = repayAmount;\n            }\n            //We calculate the new borrower and total borrow balances\n            //accountBorrowsNew = accountBorrows - actualRepayAmount\n            (vars.mathErr, vars.accountBorrowsNew) = subUInt(\n                vars.accountBorrows,\n                vars.repayAmount\n            );\n            //totalBorrowsNew = totalBorrows - actualRepayAmount\n            (vars.mathErr, vars.totalBorrowsNew) = subUInt(\n                totalBorrows,\n                vars.repayAmount\n            );\n            /* We write the previously calculated values into storage */\n            accountBorrowsUSDC[msg.sender].principal = vars.accountBorrowsNew;\n            accountBorrowsUSDC[msg.sender].interestIndex = borrowIndex;\n            totalBorrows = vars.totalBorrowsNew;\n            vars.totalOwed = accountBorrowsDAI[msg.sender].principal.add(\n                accountBorrowsDAI[msg.sender].interestIndex\n            );\n            //if the amount they owe is now zero\n            if (vars.totalOwed == 0) {\n                //retreive amount of collateral they had locked for this loan\n                vars.lockedCollateral = WC.checkLockedCollateral(\n                    msg.sender,\n                    collateralAddressTracker[msg.sender]\n                );\n                //set their collateral source type back to false(meaning another source can now be used in future loans)\n                collateralLocked[msg.sender] = false;\n                //track collateral globally through Warp Control\n                WC.lockCollateralDown(\n                    msg.sender,\n                    collateralAddressTracker[msg.sender],\n                    vars.lockedCollateral\n                );\n                WC.trackCollateralUp(\n                    msg.sender,\n                    collateralAddressTracker[msg.sender],\n                    vars.lockedCollateral\n                );\n            }\n        }\n\n        if (_assetType == 3) {\n            //We remember the original borrowerIndex for verification purposes\n            vars.borrowerIndex = accountBorrowsUSDC[msg.sender].interestIndex;\n            //We fetch the amount the borrower owes, with accumulated interest\n            vars.accountBorrows = borrowBalanceCurrent(msg.sender, _assetType);\n            //If repayAmount == 0, repayAmount = accountBorrows\n            if (repayAmount == 0) {\n                vars.repayAmount = vars.accountBorrows;\n            } else {\n                vars.repayAmount = repayAmount;\n            }\n            //We calculate the new borrower and total borrow balances\n            //accountBorrowsNew = accountBorrows - actualRepayAmount\n            (vars.mathErr, vars.accountBorrowsNew) = subUInt(\n                vars.accountBorrows,\n                vars.repayAmount\n            );\n            //totalBorrowsNew = totalBorrows - actualRepayAmount\n            (vars.mathErr, vars.totalBorrowsNew) = subUInt(\n                totalBorrows,\n                vars.repayAmount\n            );\n            /* We write the previously calculated values into storage */\n            accountBorrowsUSDC[msg.sender].principal = vars.accountBorrowsNew;\n            accountBorrowsUSDC[msg.sender].interestIndex = borrowIndex;\n            totalBorrows = vars.totalBorrowsNew;\n            vars.totalOwed = accountBorrowsDAI[msg.sender].principal.add(\n                accountBorrowsDAI[msg.sender].interestIndex\n            );\n            //if the amount they owe is now zero\n            if (vars.totalOwed == 0) {\n                //retreive amount of collateral they had locked for this loan\n                vars.lockedCollateral = WC.checkLockedCollateral(\n                    msg.sender,\n                    collateralAddressTracker[msg.sender]\n                );\n                //set their collateral source type back to false(meaning another source can now be used in future loans)\n                collateralLocked[msg.sender] = false;\n                //track collateral globally through Warp Control\n                WC.lockCollateralDown(\n                    msg.sender,\n                    collateralAddressTracker[msg.sender],\n                    vars.lockedCollateral\n                );\n                WC.trackCollateralUp(\n                    msg.sender,\n                    collateralAddressTracker[msg.sender],\n                    vars.lockedCollateral\n                );\n            }\n        }\n    }\n\n    /**\n@notice collateralizeLP allows a user to collateralize this contracts associated LP token\n@param _amount is the amount of LP being collateralized\n**/\n    function collateralizeLP(uint256 _amount) public {\n        LPtoken.transferFrom(msg.sender, address(this), _amount);\n        WC.trackCollateralUp(msg.sender, address(LPtoken), _amount);\n        WLP.mint(msg.sender, _amount);\n    }\n\n    /**\n@notice getAssetAdd allows for easy retrieval of a WarpVaults LP token Adress\n**/\n    function getAssetAdd() public view returns (address) {\n        return address(LPtoken);\n    }\n\n    /**\n@notice withdrawLP allows the user to trade in his WarpLP tokens for hiss underlying LP token collateral\n@param _amount is the amount of LP tokens he wishes to withdraw\n**/\n    function withdrawLP(uint256 _amount) public {\n        require(WC.checkCollateral(msg.sender, address(this)) >= _amount);\n        WLP.burn(msg.sender, _amount);\n        LPtoken.transfer(msg.sender, _amount);\n    }\n}\n",
  "sourcePath": "/home/stan36/repos/Warp/Smart-Contracts/contracts/WarpVault.sol",
  "compiler": {
    "name": "solc",
    "version": "0.6.6+commit.6c089d02.Emscripten.clang"
  },
  "schemaVersion": "3.2.4",
  "updatedAt": "2020-11-01T22:35:12.881Z",
  "networkType": "ethereum",
  "devdoc": {
    "methods": {
      "accrueInterest()": {
        "details": "This calculates interest accrued from the last checkpointed block up to the current block and writes new checkpoint to storage.*"
      },
      "balanceOfUnderlying(address)": {
        "details": "This also accrues interest in a transaction",
        "params": {
          "_account": "The address of the account to query"
        },
        "returns": {
          "_0": "The amount of underlying owned by `_account`"
        }
      },
      "balanceOfUnderlyingPrior(address)": {
        "params": {
          "owner": "The address of the account to query"
        },
        "returns": {
          "_0": "The amount of underlying owned by `owner`*"
        }
      },
      "borrow(uint256,uint256,address)": {
        "params": {
          "_borrowAmount": "The amount of the underlying asset to borrow"
        }
      },
      "borrowBalanceCurrent(address,uint256)": {
        "params": {
          "account": "The address whose balance should be calculated after updating borrowIndex"
        },
        "returns": {
          "_0": "The calculated balance*"
        }
      },
      "borrowBalancePrior(address,uint256)": {
        "params": {
          "account": "The address whose balance should be calculated after updating borrowIndex"
        },
        "returns": {
          "_0": "The calculated balance*"
        }
      },
      "collateralizeLP(uint256)": {
        "params": {
          "_amount": "is the amount of LP being collateralized*"
        }
      },
      "constructor": {
        "details": "this function instantiates the lp token as a useable object and generates three WarpWrapperToken contracts to represent each type of stable coin this vault can hold. this also instantiates each of these contracts as a usable object in this contract giving this contract the ability to call their mint and burn functions.*",
        "params": {
          "_lp": "is the address of the lp token a specific Warp vault will represent",
          "_lpName": "is the name of the lp token"
        }
      },
      "lendToWarpVault(uint256,uint256)": {
        "details": "the user will need to first approve the transfer of the underlying asset*",
        "params": {
          "_amount": "is the amount of the asset being lent",
          "_assetType": "is a number value 1-3 representing which asset is being lent"
        }
      },
      "owner()": {
        "details": "Returns the address of the current owner."
      },
      "redeem(uint256,uint256)": {
        "params": {
          "_amount": "is the amount of Warp Wrapper token being exchanged",
          "_assetType": "is a number representing which Wrapper type is being redeemed*"
        }
      },
      "renounceOwnership()": {
        "details": "Leaves the contract without owner. It will not be possible to call `onlyOwner` functions anymore. Can only be called by the current owner.     * NOTE: Renouncing ownership will leave the contract without an owner, thereby removing any functionality that is only available to the owner."
      },
      "repayBorrow(uint256,uint256)": {
        "params": {
          "repayAmount": "The amount to repay"
        }
      },
      "setUp(uint256,uint256,uint256,uint256,uint256,address)": {
        "params": {
          "_baseRatePerYear": "The approximate target base APR, as a mantissa (scaled by 1e18)",
          "_jumpMultiplierPerYear": "The multiplierPerBlock after hitting a specified utilization point",
          "_multiplierPerYear": "The rate of increase in interest rate wrt utilization (scaled by 1e18)",
          "_optimal": "The utilization point at which the jump multiplier is applied(Refered to as the Kink in the InterestRateModel)*"
        }
      },
      "transferOwnership(address)": {
        "details": "Transfers ownership of the contract to a new account (`newOwner`). Can only be called by the current owner."
      },
      "withdrawLP(uint256)": {
        "params": {
          "_amount": "is the amount of LP tokens he wishes to withdraw*"
        }
      }
    }
  },
  "userdoc": {
    "methods": {
      "accrueInterest()": {
        "notice": "Applies accrued interest to total borrows and reserves"
      },
      "balanceOfUnderlying(address)": {
        "notice": "Get the underlying balance of an account"
      },
      "balanceOfUnderlyingPrior(address)": {
        "notice": "Get the underlying balance of the `owners`"
      },
      "borrow(uint256,uint256,address)": {
        "notice": "Sender borrows stablecoin assets from the protocol to their own address"
      },
      "borrowBalanceCurrent(address,uint256)": {
        "notice": "Accrue interest to updated borrowIndex and then calculate account's borrow balance using the updated borrowIndex"
      },
      "borrowBalancePrior(address,uint256)": {
        "notice": "returns last calculated account's borrow balance using the prior borrowIndex"
      },
      "borrowRatePerBlock()": {
        "notice": "Returns the current per-block borrow interest rate for this cToken"
      },
      "collateralizeLP(uint256)": {
        "notice": "collateralizeLP allows a user to collateralize this contracts associated LP token"
      },
      "constructor": "constructor sets up token names and symbols for the WarpWrapperToken",
      "exchangeRateCurrent()": {
        "notice": "Accrue interest then return the up-to-date exchange rate"
      },
      "exchangeRatePrior()": {
        "notice": "return the not up-to-date exchange rate"
      },
      "getAssetAdd()": {
        "notice": "getAssetAdd allows for easy retrieval of a WarpVaults LP token Adress*"
      },
      "getBorrowAPY()": {
        "notice": "getSupplyAPY roughly calculates the current APY for borrowing using an average of 6500 blocks per day*"
      },
      "getCash()": {
        "notice": "Get cash balance of this cToken in the underlying asset in other contracts"
      },
      "getSupplyAPY()": {
        "notice": "getSupplyAPY roughly calculates the current APY for supplying using an average of 6500 blocks per day*"
      },
      "lendToWarpVault(uint256,uint256)": {
        "notice": "lendToWarpVault is used to lend stablecoin assets to a WaprVault"
      },
      "redeem(uint256,uint256)": {
        "notice": "redeem allows a user to redeem their Warp Wrapper Token for the appropriate amount of underlying stablecoin asset"
      },
      "repayBorrow(uint256,uint256)": {
        "notice": "Sender repays their own borrow"
      },
      "setUp(uint256,uint256,uint256,uint256,uint256,address)": {
        "notice": "setUp is called after the creation of a WarpVault to set up its Interest Rate Model and its initial exchange rate"
      },
      "supplyRatePerBlock()": {
        "notice": "Returns the current per-block supply interest rate for this cToken"
      },
      "totalBorrowsCurrent()": {
        "notice": "Returns the current total borrows plus accrued interest"
      },
      "withdrawLP(uint256)": {
        "notice": "withdrawLP allows the user to trade in his WarpLP tokens for hiss underlying LP token collateral"
      }
    },
    "notice": "the WarpVault contract is the main point of interface for a specific LP asset class and an end user in the Warp lending platform. This contract is responsible for distributing WarpWrapper tokens in exchange for stablecoin assets, holding and accounting of stablecoins and LP tokens and all associates lending/borrowing calculations for a specific Warp LP asset class. This contract inherits Ownership and ERC20 functionality from the Open Zeppelin Library as well as Exponential and the InterestRateModel contracts from the coumpound protocol.*"
  }
}