{
  "contractName": "WarpVaultSCFactory",
  "abi": [
    {
      "inputs": [
        {
          "internalType": "address",
          "name": "_InterestRate",
          "type": "address"
        },
        {
          "internalType": "address",
          "name": "_StableCoin",
          "type": "address"
        },
        {
          "internalType": "address",
          "name": "_warpTeam",
          "type": "address"
        },
        {
          "internalType": "uint256",
          "name": "_initialExchangeRate",
          "type": "uint256"
        },
        {
          "internalType": "uint256",
          "name": "_timelock",
          "type": "uint256"
        },
        {
          "internalType": "uint256",
          "name": "_reserveFactorMantissa",
          "type": "uint256"
        }
      ],
      "name": "createNewWarpVaultSC",
      "outputs": [
        {
          "internalType": "address",
          "name": "",
          "type": "address"
        }
      ],
      "stateMutability": "nonpayable",
      "type": "function"
    }
  ],
  "bytecode": "0x608060405234801561001057600080fd5b50614258806100206000396000f3fe608060405234801561001057600080fd5b506004361061002b5760003560e01c806378854a2814610030575b600080fd5b610078600480360360c081101561004657600080fd5b506001600160a01b03813581169160208101358216916040820135169060608101359060808101359060a00135610094565b604080516001600160a01b039092168252519081900360200190f35b600080878733888888886040516100aa90610112565b6001600160a01b0397881681529587166020870152938616604080870191909152929095166060850152608084015260a083019390935260c082015290519081900360e001906000f080158015610105573d6000803e3d6000fd5b5098975050505050505050565b614103806101208339019056fe60806040526105dc6006556127106007553480156200001d57600080fd5b506040516200410338038062004103833981810160405260e08110156200004357600080fd5b508051602082015160408301516060840151608085015160a086015160c090960151600c80546001600160a01b038087166001600160a01b031992831617909255600a8054838916908316179055600d8054928916929091169190911790559495939492939192909190620000c06001600160e01b036200068816565b600255670de0b6b3a76400006003556000839055600980546001600160a01b0319166001600160a01b0386161790556200010742836200068c602090811b62001f4217901c565b60085560018190556040805164576172702d60d81b60208201528151808203600501815260258201808452600a546306fdde0360e01b9091529251909283926001600160a01b03909116916306fdde0391602980820192600092909190829003018186803b1580156200017957600080fd5b505afa1580156200018e573d6000803e3d6000fd5b505050506040513d6000823e601f3d908101601f191682016040526020811015620001b857600080fd5b8101908080516040519392919084640100000000821115620001d957600080fd5b908301906020820185811115620001ef57600080fd5b82516401000000008111828201881017156200020a57600080fd5b82525081516020918201929091019080838360005b83811015620002395781810151838201526020016200021f565b50505050905090810190601f168015620002675780820380516001836020036101000a031916815260200191505b506040525050506040516020018083805190602001908083835b60208310620002a25780518252601f19909201916020918201910162000281565b51815160209384036101000a600019018019909216911617905285519190930192850191508083835b60208310620002ec5780518252601f199092019160209182019101620002cb565b51815160209384036101000a60001901801990921691161790526040805192909401828103601f1901835280855261572d60f01b918101919091528351600281830301815260228201808652600a546395d89b4160e01b909152945192985096508695506001600160a01b0390931693506395d89b41926026808201935060009291829003018186803b1580156200038357600080fd5b505afa15801562000398573d6000803e3d6000fd5b505050506040513d6000823e601f3d908101601f191682016040526020811015620003c257600080fd5b8101908080516040519392919084640100000000821115620003e357600080fd5b908301906020820185811115620003f957600080fd5b82516401000000008111828201881017156200041457600080fd5b82525081516020918201929091019080838360005b838110156200044357818101518382015260200162000429565b50505050905090810190601f168015620004715780820380516001836020036101000a031916815260200191505b506040525050506040516020018083805190602001908083835b60208310620004ac5780518252601f1990920191602091820191016200048b565b51815160209384036101000a600019018019909216911617905285519190930192850191508083835b60208310620004f65780518252601f199092019160209182019101620004d5565b5181516020939093036101000a60001901801990911692169190911790526040805191909301818103601f1901825292839052600a549096508795508694506001600160a01b0316925084918491506200055090620006ee565b6001600160a01b0384168152606060208083018281528551928401929092528451604084019160808501919087019080838360005b838110156200059f57818101518382015260200162000585565b50505050905090810190601f168015620005cd5780820380516001836020036101000a031916815260200191505b50838103825284518152845160209182019186019080838360005b8381101562000602578181015183820152602001620005e8565b50505050905090810190601f168015620006305780820380516001836020036101000a031916815260200191505b5095505050505050604051809103906000f08015801562000655573d6000803e3d6000fd5b50600b80546001600160a01b0319166001600160a01b039290921691909117905550620006fc9950505050505050505050565b4390565b600082820183811015620006e7576040805162461bcd60e51b815260206004820152601b60248201527f536166654d6174683a206164646974696f6e206f766572666c6f770000000000604482015290519081900360640190fd5b9392505050565b6113a18062002d6283390190565b612656806200070c6000396000f3fe608060405234801561001057600080fd5b50600436106102535760003560e01c80638f840ddd11610146578063bbb7d489116100c3578063db006a7511610087578063db006a751461057a578063dd5a612c14610597578063e6136ab61461059f578063e68fc0ee146105c5578063e9cbd822146105eb578063f8f9da28146105f357610253565b8063bbb7d4891461051b578063bd6d894d14610523578063cb7b42061461052b578063cd5c6f5714610533578063d40e8f4a1461053b57610253565b8063aa5af0fd1161010a578063aa5af0fd14610489578063ab292f9b14610491578063ae9d70b0146104c7578063b1be82f1146104cf578063b23f3594146104f557610253565b80638f840ddd1461042157806394d359901461042957806398aa8c331461044757806399a5d74714610464578063a6afed951461048157610253565b80634cf3e784116101d45780636c540baf116101985780636c540baf146103bd57806370ba1113146103c557806373acee98146103cd5780637746efab146103d55780638f7bf4fd146103fb57610253565b80634cf3e784146103625780634ee8acc01461038857806357d32b7a14610390578063591cec86146103ad5780635cf57389146103b557610253565b80633662454d1161021b5780633662454d146102eb57806336820e4b146103085780633b1d21a21461032e57806347bd37181461033657806348dc0b6e1461033e57610253565b80630e75270214610258578063173b99041461027757806317bfdfbc146102915780631f2dc5ef146102b7578063232d46d2146102bf575b600080fd5b6102756004803603602081101561026e57600080fd5b50356105fb565b005b61027f6108eb565b60408051918252519081900360200190f35b61027f600480360360208110156102a757600080fd5b50356001600160a01b03166108f1565b61027f61090c565b610275600480360360408110156102d557600080fd5b50803590602001356001600160a01b0316610912565b6102756004803603602081101561030157600080fd5b5035610a54565b61027f6004803603602081101561031e57600080fd5b50356001600160a01b0316610a70565b61027f610a82565b61027f610a92565b610346610a98565b604080516001600160a01b039092168252519081900360200190f35b6102756004803603602081101561037857600080fd5b50356001600160a01b0316610aa7565b610346610b28565b610275600480360360208110156103a657600080fd5b5035610b37565b610346610c71565b610346610c80565b61027f610c8f565b61027f610c95565b61027f610c9b565b61027f600480360360208110156103eb57600080fd5b50356001600160a01b0316610cac565b61027f6004803603602081101561041157600080fd5b50356001600160a01b0316610d4f565b61027f610e04565b610431610e0a565b6040805160ff9092168252519081900360200190f35b6102756004803603602081101561045d57600080fd5b5035610e80565b61027f6004803603602081101561047a57600080fd5b5035610f47565b610275610f78565b61027f6111db565b610275600480360360608110156104a757600080fd5b506001600160a01b038135811691602081013590911690604001356111e1565b61027f611283565b610275600480360360208110156104e557600080fd5b50356001600160a01b03166112f1565b6102756004803603602081101561050b57600080fd5b50356001600160a01b031661132a565b6103466113ab565b61027f6113ba565b61027f61150b565b61027f611511565b6105616004803603602081101561055157600080fd5b50356001600160a01b0316611556565b6040805192835260208301919091528051918290030190f35b6102756004803603602081101561059057600080fd5b503561156f565b61027f6119b8565b61027f600480360360208110156105b557600080fd5b50356001600160a01b0316611a03565b61027f600480360360208110156105db57600080fd5b50356001600160a01b0316611b3d565b610346611b4f565b61027f611b5e565b600854421161060957600080fd5b610611612430565b61061a336108f1565b6060820181905282111561065f5760405162461bcd60e51b815260040180806020018281038252602c815260200180612523602c913960400191505060405180910390fd5b81610673576060810151602082015261067b565b602081018290525b602080820151600a54604080516370a0823160e01b8152336004820152905192936001600160a01b03909216926370a0823192602480840193919291829003018186803b1580156106cb57600080fd5b505afa1580156106df573d6000803e3d6000fd5b505050506040513d60208110156106f557600080fd5b5051101561074a576040805162461bcd60e51b815260206004820152601e60248201527f4e6f7420656e6f75676820737461626c65636f696e20746f2072657061790000604482015290519081900360640190fd5b6020810151600a54610771916001600160a01b03909116903390309063ffffffff611bc216565b61078381606001518260200151611c22565b608083018190528282600381111561079757fe5b60038111156107a257fe5b90525060009050815160038111156107b657fe5b146107f25760405162461bcd60e51b81526004018080602001828103825260338152602001806125936033913960400191505060405180910390fd5b6108026004548260200151611c22565b60a083018190528282600381111561081657fe5b600381111561082157fe5b905250600090508151600381111561083557fe5b146108715760405162461bcd60e51b81526004018080602001828103825260318152602001806125c66031913960400191505060405180910390fd5b60a0810151600455608080820151336000818152600e60209081526040918290208481556003546001909101819055825193845290830187905282820193909352606082019290925290517f0bc102cfc64751888477c44e529873a602bf746175b1e41c6b54e45f926f90f9929181900390910190a15050565b60015481565b60006108fb610f78565b61090482610cac565b90505b919050565b60075481565b600c546001600160a01b0316331461092957600080fd5b600854421161093757600080fd5b61093f61247d565b826109486119b8565b1161099a576040805162461bcd60e51b815260206004820152601960248201527f4e6f7420656e6f75676820746f6b656e7320746f206c656e6400000000000000604482015290519081900360640190fd5b6109a382610cac565b602082018190526109b49084611c48565b60408301819052828260038111156109c857fe5b60038111156109d357fe5b81525050506109e460045484611c48565b60608301819052828260038111156109f857fe5b6003811115610a0357fe5b905250506040808201516001600160a01b038085166000908152600e602052929092209081556003546001909101556060820151600455600a54610a4f9116838563ffffffff611c6e16565b505050565b6009546001600160a01b03163314610a6b57600080fd5b600155565b60106020526000908152604090205481565b6000610a8c6119b8565b90505b90565b60045481565b600d546001600160a01b031681565b600c546001600160a01b03163314610abe57600080fd5b600c54604080516001600160a01b038085168252909216602083015280517ff31f198b56fc88f5180e2da8285f8fc0e39731c96e24af25bab67838a32c5d799281900390910190a1600c80546001600160a01b0319166001600160a01b0392909216919091179055565b600b546001600160a01b031681565b610b3f6124a6565b610b476113ba565b602080830191825260408051918201905290518152610b67908390611cc0565b6040830181905282826003811115610b7b57fe5b6003811115610b8657fe5b90525050600a54610ba8906001600160a01b031633308563ffffffff611bc216565b336000818152600f6020526040808220805486019055600b548482015182516340c10f1960e01b81526004810195909552602485015290516001600160a01b03909116926340c10f1992604480830193919282900301818387803b158015610c0f57600080fd5b505af1158015610c23573d6000803e3d6000fd5b5050506040808301518151338152602081018690528083019190915290517fac45f50416433593e7c9a1f3e0d5f887c530c22d776e1057ecaacb750d24b94092509081900360600190a15050565b600a546001600160a01b031690565b6009546001600160a01b031681565b60025481565b60065481565b6000610ca5610f78565b5060045490565b6001600160a01b0381166000908152600e60205260408120805482918291829190610cde576000945050505050610907565b610cee8160000154600354611d13565b90945092506000846003811115610d0157fe5b14610d13576000945050505050610907565b610d21838260010154611d52565b90945091506000846003811115610d3457fe5b14610d46576000945050505050610907565b50949350505050565b600080610d5a611511565b600b54604080516370a0823160e01b81526001600160a01b038781166004830152915193945060009391909216916370a08231916024808301926020929190829003018186803b158015610dad57600080fd5b505afa158015610dc1573d6000803e3d6000fd5b505050506040513d6020811015610dd757600080fd5b505160408051602081019091528381529091506000908190610df99084611d7d565b979650505050505050565b60055481565b600a546040805163313ce56760e01b815290516000926001600160a01b03169163313ce567916004808301926020929190829003018186803b158015610e4f57600080fd5b505afa158015610e63573d6000803e3d6000fd5b505050506040513d6020811015610e7957600080fd5b5051905090565b6009546001600160a01b03163314610e9757600080fd5b806005541015610ed85760405162461bcd60e51b815260040180806020018281038252602381526020018061254f6023913960400191505060405180910390fd5b600554610eeb908263ffffffff611d9416565b600555600954600a54610f11916001600160a01b0391821691168363ffffffff611c6e16565b6040805182815290517f2b33eb7f7ae0d9bb1596ccbff4b5ed6460dd64eb6bef0c24870065aa469bbb749181900360200190a150565b600080610f71600754610f6560065486611ddf90919063ffffffff16565b9063ffffffff611e3816565b9392505050565b6000610f82611e7a565b60025490915080821415610fca576040805183815290517fe307fb74a265b8255fabc1154131917ce875f96118a807f88eda1e751722538d9181900360200190a150506111d9565b6000610fd46119b8565b60048054600554600354600d54604080516315f2405360e01b81529586018790526024860185905260448601849052519596509294919390926000926001600160a01b03909116916315f24053916064808301926020929190829003018186803b15801561104157600080fd5b505afa158015611055573d6000803e3d6000fd5b505050506040513d602081101561106b57600080fd5b5051905065048c273950008111156110ca576040805162461bcd60e51b815260206004820152601a60248201527f426f72726f772052617465206d616e7469737361206572726f72000000000000604482015290519081900360640190fd5b6000806110d78989611c22565b915091506110e36124d1565b60008060008061110160405180602001604052808a81525087611e7e565b9097509450611110858c611d7d565b909750935061111f848c611c48565b60408051602081019091526001548152919850935061113f90858c611ee6565b909750915061114f858a80611ee6565b80925081985050508d6002819055508060038190555082600481905550816005819055507fe3972ae250606e82c6683843383cb8a51755588d2f443af42e8cb5b1e085392d6002546003546004546005546040518085815260200184815260200183815260200182815260200194505050505060405180910390a150505050505050505050505050505b565b60035481565b600c546001600160a01b031633146111f857600080fd5b600854421161120657600080fd5b600a54611224906001600160a01b031683308463ffffffff611bc216565b600061122f82610f47565b600554909150611245908263ffffffff611f4216565b6005556001600160a01b0384166000908152600e602052604081208181556001015560045461127a908363ffffffff611d9416565b60045550505050565b600d546000906001600160a01b031663b816881661129f6119b8565b6004546005546001546040518563ffffffff1660e01b81526004018085815260200184815260200183815260200182815260200194505050505060206040518083038186803b158015610e4f57600080fd5b600c546001600160a01b0316331461130857600080fd5b600d80546001600160a01b0319166001600160a01b0392909216919091179055565b600c546001600160a01b0316331461134157600080fd5b600954604080516001600160a01b038085168252909216602083015280517fe1ad690b4e5d7c6172f2c241aa6998a8ebcb0392e02cdf10105a33b3955538b49281900390910190a1600980546001600160a01b0319166001600160a01b0392909216919091179055565b600c546001600160a01b031681565b60006113c4610f78565b600b60009054906101000a90046001600160a01b03166001600160a01b03166318160ddd6040518163ffffffff1660e01b815260040160206040518083038186803b15801561141257600080fd5b505afa158015611426573d6000803e3d6000fd5b505050506040513d602081101561143c57600080fd5b505161144b5750600054610a8f565b60006114556119b8565b905060006114616124d1565b600061147284600454600554611f9c565b80945081925050506114fd83600b60009054906101000a90046001600160a01b03166001600160a01b03166318160ddd6040518163ffffffff1660e01b815260040160206040518083038186803b1580156114cc57600080fd5b505afa1580156114e0573d6000803e3d6000fd5b505050506040513d60208110156114f657600080fd5b5051611fda565b519550610a8f945050505050565b60085481565b600b54604080516318160ddd60e01b815290516000926001600160a01b0316916318160ddd916004808301926020929190829003018186803b15801561141257600080fd5b600e602052600090815260409020805460019091015482565b6115776124e4565b600b54604080516370a0823160e01b815233600482015290516001600160a01b03909216916370a0823191602480820192602092909190829003018186803b1580156115c257600080fd5b505afa1580156115d6573d6000803e3d6000fd5b505050506040513d60208110156115ec57600080fd5b505160608201526115fb6113ba565b602080830191825260408051918201905290518152606082015161161f9190611d7d565b608083018190528282600381111561163357fe5b600381111561163e57fe5b905250508161165657608081015160c082015261165e565b60c081018290525b61167e8160c0015160405180602001604052808460200151815250611cc0565b604083018190528282600381111561169257fe5b600381111561169d57fe5b9052505060c0810151600a54604080516370a0823160e01b815230600482015290516001600160a01b03909216916370a0823191602480820192602092909190829003018186803b1580156116f157600080fd5b505afa158015611705573d6000803e3d6000fd5b505050506040513d602081101561171b57600080fd5b50511015611770576040805162461bcd60e51b815260206004820152601f60248201527f4e6f7420656e6f75676820737461626c65636f696e20696e207661756c742e00604482015290519081900360640190fd5b336000908152600f6020526040812054608083015111156117b257336000908152600f602052604090205460808301516117af9163ffffffff611d9416565b90505b60c08201516117c7908263ffffffff611d9416565b60a083015260c082015181116118a457336000908152601060205260409020546117f7908263ffffffff611f4216565b33600090815260106020908152604080832093909355600f9052205460a0830151111561186b576040805162461bcd60e51b815260206004820152601960248201527f4572726f722063616c63756c6174696e67207265776172642e00000000000000604482015290519081900360640190fd5b60a0820151336000908152600f602052604090205461188f9163ffffffff611d9416565b336000908152600f60205260409020556118d9565b60c0820151336000908152601060205260409020546118c89163ffffffff611f4216565b336000908152601060205260409020555b600b546040808401518151632770a7eb60e21b8152336004820152602481019190915290516001600160a01b0390921691639dc29fac9160448082019260009290919082900301818387803b15801561193157600080fd5b505af1158015611945573d6000803e3d6000fd5b50505060c0830151600a5461196c92506001600160a01b031690339063ffffffff611c6e16565b60c08201516040808401518151338152602081019390935282820152517f01fee552fc58f62ae566675c42acc86f4aeaf48d6a4e21385c0e23bd551ecd129181900360600190a1505050565b600a54604080516370a0823160e01b815230600482015290516000926001600160a01b0316916370a08231916024808301926020929190829003018186803b158015610e4f57600080fd5b600080611a0e611511565b600b54604080516370a0823160e01b81526001600160a01b038781166004830152915193945060009391909216916370a08231916024808301926020929190829003018186803b158015611a6157600080fd5b505afa158015611a75573d6000803e3d6000fd5b505050506040513d6020811015611a8b57600080fd5b50516001600160a01b0385166000908152600f602052604090205490915081611ad057505050506001600160a01b038116600090815260106020526040902054610907565b600080611aeb60405180602001604052808781525085611d7d565b90925090506000611b02828563ffffffff611d9416565b6001600160a01b03891660009081526010602052604081205491925090611b3090839063ffffffff611f4216565b9998505050505050505050565b600f6020526000908152604090205481565b600a546001600160a01b031681565b600d546000906001600160a01b03166315f24053611b7a6119b8565b6004546005546040518463ffffffff1660e01b815260040180848152602001838152602001828152602001935050505060206040518083038186803b158015610e4f57600080fd5b604080516001600160a01b0380861660248301528416604482015260648082018490528251808303909101815260849091019091526020810180516001600160e01b03166323b872dd60e01b179052611c1c90859061208b565b50505050565b600080838311611c39575060009050818303611c41565b506003905060005b9250929050565b600080838301848110611c6057600092509050611c41565b506002915060009050611c41565b604080516001600160a01b038416602482015260448082018490528251808303909101815260649091019091526020810180516001600160e01b031663a9059cbb60e01b179052610a4f90849061208b565b6000806000611ccd6124d1565b611cd7868661213c565b90925090506000826003811115611cea57fe5b14611cfb5750915060009050611c41565b6000611d068261219b565b9350935050509250929050565b60008083611d2657506000905080611c41565b83830283858281611d3357fe5b0414611d4757506002915060009050611c41565b600092509050611c41565b60008082611d665750600190506000611c41565b6000838581611d7157fe5b04915091509250929050565b6000806000611d8a6124d1565b611cd78686611e7e565b6000611dd683836040518060400160405280601e81526020017f536166654d6174683a207375627472616374696f6e206f766572666c6f7700008152506121aa565b90505b92915050565b600082611dee57506000611dd9565b82820282848281611dfb57fe5b0414611dd65760405162461bcd60e51b81526004018080602001828103825260218152602001806125726021913960400191505060405180910390fd5b6000611dd683836040518060400160405280601a81526020017f536166654d6174683a206469766973696f6e206279207a65726f000000000000815250612241565b4390565b6000611e886124d1565b600080611e99866000015186611d13565b90925090506000826003811115611eac57fe5b14611ecb57506040805160208101909152600081529092509050611c41565b60408051602081019091529081526000969095509350505050565b6000806000611ef36124d1565b611efd8787611e7e565b90925090506000826003811115611f1057fe5b14611f215750915060009050611f3a565b611f33611f2d8261219b565b86611c48565b9350935050505b935093915050565b600082820183811015611dd6576040805162461bcd60e51b815260206004820152601b60248201527f536166654d6174683a206164646974696f6e206f766572666c6f770000000000604482015290519081900360640190fd5b600080600080611fac8787611c48565b90925090506000826003811115611fbf57fe5b14611fd05750915060009050611f3a565b611f338186611c22565b6000611fe46124d1565b600080611ff986670de0b6b3a7640000611d13565b9092509050600082600381111561200c57fe5b1461202b57506040805160208101909152600081529092509050611c41565b6000806120388388611d52565b9092509050600082600381111561204b57fe5b1461206e5781604051806020016040528060008152509550955050505050611c41565b604080516020810190915290815260009890975095505050505050565b60606120e0826040518060400160405280602081526020017f5361666545524332303a206c6f772d6c6576656c2063616c6c206661696c6564815250856001600160a01b03166122a69092919063ffffffff16565b805190915015610a4f578080602001905160208110156120ff57600080fd5b5051610a4f5760405162461bcd60e51b815260040180806020018281038252602a8152602001806125f7602a913960400191505060405180910390fd5b60006121466124d1565b60008061215b670de0b6b3a764000087611d13565b9092509050600082600381111561216e57fe5b1461218d57506040805160208101909152600081529092509050611c41565b611d06818660000151611fda565b51670de0b6b3a7640000900490565b600081848411156122395760405162461bcd60e51b81526004018080602001828103825283818151815260200191508051906020019080838360005b838110156121fe5781810151838201526020016121e6565b50505050905090810190601f16801561222b5780820380516001836020036101000a031916815260200191505b509250505060405180910390fd5b505050900390565b600081836122905760405162461bcd60e51b81526020600482018181528351602484015283519092839260449091019190850190808383600083156121fe5781810151838201526020016121e6565b50600083858161229c57fe5b0495945050505050565b60606122b584846000856122bd565b949350505050565b60606122c88561242a565b612319576040805162461bcd60e51b815260206004820152601d60248201527f416464726573733a2063616c6c20746f206e6f6e2d636f6e7472616374000000604482015290519081900360640190fd5b60006060866001600160a01b031685876040518082805190602001908083835b602083106123585780518252601f199092019160209182019101612339565b6001836020036101000a03801982511681845116808217855250505050505090500191505060006040518083038185875af1925050503d80600081146123ba576040519150601f19603f3d011682016040523d82523d6000602084013e6123bf565b606091505b509150915081156123d35791506122b59050565b8051156123e35780518082602001fd5b60405162461bcd60e51b81526020600482018181528651602484015286518793919283926044019190850190808383600083156121fe5781810151838201526020016121e6565b3b151590565b604080516101208101909152806000815260200160008152602001600081526020016000815260200160008152602001600081526020016000815260200160008152602001600081525090565b604080516080810190915280600081526020016000815260200160008152602001600081525090565b6040805160808101909152806000815260200160008152602001600081526020016000151581525090565b6040518060200160405280600081525090565b6040805160e081019091528060008152602001600081526020016000815260200160008152602001600081526020016000815260200160008152509056fe596f752061726520747279696e6720746f20706179206261636b206d6f7265207468616e20796f75206f7765596f752061726520747279696e6720746f20776974686472617720746f6f206d756368536166654d6174683a206d756c7469706c69636174696f6e206f766572666c6f77526570617920626f72726f77206e6577206163636f756e742062616c616e63652063616c63756c6174696f6e206661696c6564526570617920626f72726f77206e657720746f74616c2062616c616e63652063616c63756c6174696f6e206661696c65645361666545524332303a204552433230206f7065726174696f6e20646964206e6f742073756363656564a2646970667358221220abd573506c0707b32a284384b86192a0ebf0e402fe1a98bf5585fd927772f16364736f6c6343000606003360806040523480156200001157600080fd5b50604051620013a1380380620013a1833981810160405260608110156200003757600080fd5b8151602083018051604051929492938301929190846401000000008211156200005f57600080fd5b9083019060208201858111156200007557600080fd5b82516401000000008111828201881017156200009057600080fd5b82525081516020918201929091019080838360005b83811015620000bf578181015183820152602001620000a5565b50505050905090810190601f168015620000ed5780820380516001836020036101000a031916815260200191505b50604052602001805160405193929190846401000000008211156200011157600080fd5b9083019060208201858111156200012757600080fd5b82516401000000008111828201881017156200014257600080fd5b82525081516020918201929091019080838360005b838110156200017157818101518382015260200162000157565b50505050905090810190601f1680156200019f5780820380516001836020036101000a031916815260200191505b5060405250505080826000620001ba6200026c60201b60201c565b600080546001600160a01b0319166001600160a01b0383169081178255604051929350917f8be0079c531659141344cd1fd0a4f28419497f9722a3daafe3b4186f6b6457e0908290a35081516200021990600490602085019062000271565b5080516200022f90600590602084019062000271565b5050600680546001600160a01b0390951661010002610100600160a81b031960ff1990961660121795909516949094179093555062000313915050565b335b90565b828054600181600116156101000203166002900490600052602060002090601f016020900481019282601f10620002b457805160ff1916838001178555620002e4565b82800160010185558215620002e4579182015b82811115620002e4578251825591602001919060010190620002c7565b50620002f2929150620002f6565b5090565b6200026e91905b80821115620002f25760008155600101620002fd565b61107e80620003236000396000f3fe608060405234801561001057600080fd5b506004361061010b5760003560e01c8063715018a6116100a2578063a457c2d711610071578063a457c2d71461031b578063a9059cbb14610347578063dd62ed3e14610373578063e9cbd822146103a1578063f2fde38b146103a95761010b565b8063715018a6146102bb5780638da5cb5b146102c357806395d89b41146102e75780639dc29fac146102ef5761010b565b8063313ce567116100de578063313ce5671461021d578063395093511461023b57806340c10f191461026757806370a08231146102955761010b565b806306fdde0314610110578063095ea7b31461018d57806318160ddd146101cd57806323b872dd146101e7575b600080fd5b6101186103cf565b6040805160208082528351818301528351919283929083019185019080838360005b8381101561015257818101518382015260200161013a565b50505050905090810190601f16801561017f5780820380516001836020036101000a031916815260200191505b509250505060405180910390f35b6101b9600480360360408110156101a357600080fd5b506001600160a01b038135169060200135610465565b604080519115158252519081900360200190f35b6101d5610482565b60408051918252519081900360200190f35b6101b9600480360360608110156101fd57600080fd5b506001600160a01b03813581169160208101359091169060400135610488565b610225610515565b6040805160ff9092168252519081900360200190f35b6101b96004803603604081101561025157600080fd5b506001600160a01b03813516906020013561051e565b6102936004803603604081101561027d57600080fd5b506001600160a01b038135169060200135610572565b005b6101d5600480360360208110156102ab57600080fd5b50356001600160a01b03166105d8565b6102936105f3565b6102cb610695565b604080516001600160a01b039092168252519081900360200190f35b6101186106a4565b6102936004803603604081101561030557600080fd5b506001600160a01b038135169060200135610705565b6101b96004803603604081101561033157600080fd5b506001600160a01b038135169060200135610767565b6101b96004803603604081101561035d57600080fd5b506001600160a01b0381351690602001356107d5565b6101d56004803603604081101561038957600080fd5b506001600160a01b03813581169160200135166107e9565b6102cb610814565b610293600480360360208110156103bf57600080fd5b50356001600160a01b0316610828565b60048054604080516020601f600260001961010060018816150201909516949094049384018190048102820181019092528281526060939092909183018282801561045b5780601f106104305761010080835404028352916020019161045b565b820191906000526020600020905b81548152906001019060200180831161043e57829003601f168201915b5050505050905090565b6000610479610472610920565b8484610924565b50600192915050565b60035490565b6000610495848484610a10565b61050b846104a1610920565b61050685604051806060016040528060288152602001610f72602891396001600160a01b038a166000908152600260205260408120906104df610920565b6001600160a01b03168152602081019190915260400160002054919063ffffffff610b7916565b610924565b5060019392505050565b60065460ff1690565b600061047961052b610920565b84610506856002600061053c610920565b6001600160a01b03908116825260208083019390935260409182016000908120918c16815292529020549063ffffffff610c1016565b61057a610920565b6000546001600160a01b039081169116146105ca576040805162461bcd60e51b81526020600482018190526024820152600080516020610f9a833981519152604482015290519081900360640190fd5b6105d48282610c71565b5050565b6001600160a01b031660009081526001602052604090205490565b6105fb610920565b6000546001600160a01b0390811691161461064b576040805162461bcd60e51b81526020600482018190526024820152600080516020610f9a833981519152604482015290519081900360640190fd5b600080546040516001600160a01b03909116907f8be0079c531659141344cd1fd0a4f28419497f9722a3daafe3b4186f6b6457e0908390a3600080546001600160a01b0319169055565b6000546001600160a01b031690565b60058054604080516020601f600260001961010060018816150201909516949094049384018190048102820181019092528281526060939092909183018282801561045b5780601f106104305761010080835404028352916020019161045b565b61070d610920565b6000546001600160a01b0390811691161461075d576040805162461bcd60e51b81526020600482018190526024820152600080516020610f9a833981519152604482015290519081900360640190fd5b6105d48282610d6f565b6000610479610774610920565b8461050685604051806060016040528060258152602001611024602591396002600061079e610920565b6001600160a01b03908116825260208083019390935260409182016000908120918d1681529252902054919063ffffffff610b7916565b60006104796107e2610920565b8484610a10565b6001600160a01b03918216600090815260026020908152604080832093909416825291909152205490565b60065461010090046001600160a01b031681565b610830610920565b6000546001600160a01b03908116911614610880576040805162461bcd60e51b81526020600482018190526024820152600080516020610f9a833981519152604482015290519081900360640190fd5b6001600160a01b0381166108c55760405162461bcd60e51b8152600401808060200182810382526026815260200180610f046026913960400191505060405180910390fd5b600080546040516001600160a01b03808516939216917f8be0079c531659141344cd1fd0a4f28419497f9722a3daafe3b4186f6b6457e091a3600080546001600160a01b0319166001600160a01b0392909216919091179055565b3390565b6001600160a01b0383166109695760405162461bcd60e51b81526004018080602001828103825260248152602001806110006024913960400191505060405180910390fd5b6001600160a01b0382166109ae5760405162461bcd60e51b8152600401808060200182810382526022815260200180610f2a6022913960400191505060405180910390fd5b6001600160a01b03808416600081815260026020908152604080832094871680845294825291829020859055815185815291517f8c5be1e5ebec7d5bd14f71427d1e84f3dd0314c0f7b2291e5b200ac8c7c3b9259281900390910190a3505050565b6001600160a01b038316610a555760405162461bcd60e51b8152600401808060200182810382526025815260200180610fdb6025913960400191505060405180910390fd5b6001600160a01b038216610a9a5760405162461bcd60e51b8152600401808060200182810382526023815260200180610ebf6023913960400191505060405180910390fd5b610aa5838383610e77565b610ae881604051806060016040528060268152602001610f4c602691396001600160a01b038616600090815260016020526040902054919063ffffffff610b7916565b6001600160a01b038085166000908152600160205260408082209390935590841681522054610b1d908263ffffffff610c1016565b6001600160a01b0380841660008181526001602090815260409182902094909455805185815290519193928716927fddf252ad1be2c89b69c2b068fc378daa952ba7f163c4a11628f55a4df523b3ef92918290030190a3505050565b60008184841115610c085760405162461bcd60e51b81526004018080602001828103825283818151815260200191508051906020019080838360005b83811015610bcd578181015183820152602001610bb5565b50505050905090810190601f168015610bfa5780820380516001836020036101000a031916815260200191505b509250505060405180910390fd5b505050900390565b600082820183811015610c6a576040805162461bcd60e51b815260206004820152601b60248201527f536166654d6174683a206164646974696f6e206f766572666c6f770000000000604482015290519081900360640190fd5b9392505050565b6001600160a01b038216610ccc576040805162461bcd60e51b815260206004820152601f60248201527f45524332303a206d696e7420746f20746865207a65726f206164647265737300604482015290519081900360640190fd5b610cd860008383610e77565b600354610ceb908263ffffffff610c1016565b6003556001600160a01b038216600090815260016020526040902054610d17908263ffffffff610c1016565b6001600160a01b03831660008181526001602090815260408083209490945583518581529351929391927fddf252ad1be2c89b69c2b068fc378daa952ba7f163c4a11628f55a4df523b3ef9281900390910190a35050565b6001600160a01b038216610db45760405162461bcd60e51b8152600401808060200182810382526021815260200180610fba6021913960400191505060405180910390fd5b610dc082600083610e77565b610e0381604051806060016040528060228152602001610ee2602291396001600160a01b038516600090815260016020526040902054919063ffffffff610b7916565b6001600160a01b038316600090815260016020526040902055600354610e2f908263ffffffff610e7c16565b6003556040805182815290516000916001600160a01b038516917fddf252ad1be2c89b69c2b068fc378daa952ba7f163c4a11628f55a4df523b3ef9181900360200190a35050565b505050565b6000610c6a83836040518060400160405280601e81526020017f536166654d6174683a207375627472616374696f6e206f766572666c6f770000815250610b7956fe45524332303a207472616e7366657220746f20746865207a65726f206164647265737345524332303a206275726e20616d6f756e7420657863656564732062616c616e63654f776e61626c653a206e6577206f776e657220697320746865207a65726f206164647265737345524332303a20617070726f766520746f20746865207a65726f206164647265737345524332303a207472616e7366657220616d6f756e7420657863656564732062616c616e636545524332303a207472616e7366657220616d6f756e74206578636565647320616c6c6f77616e63654f776e61626c653a2063616c6c6572206973206e6f7420746865206f776e657245524332303a206275726e2066726f6d20746865207a65726f206164647265737345524332303a207472616e736665722066726f6d20746865207a65726f206164647265737345524332303a20617070726f76652066726f6d20746865207a65726f206164647265737345524332303a2064656372656173656420616c6c6f77616e63652062656c6f77207a65726fa2646970667358221220116151eee897b6669a728d66ae5155a4026cd6a746474331b00f184ac0bd724a64736f6c63430006060033a264697066735822122077104759aed4af914e13abe2cea383d3aa01be4df0bf911012c43b2e8fe2afc664736f6c63430006060033",
  "immutableReferences": {},
  "source": "pragma solidity ^0.6.0;\n\nimport \"./WarpVaultSC.sol\";\nimport \"@openzeppelin/contracts/access/Ownable.sol\";\n\n////////////////////////////////////////////////////////////////////////////////////////////\n/// @title WarpVaultLPFactory\n/// @author Christopher Dixon\n////////////////////////////////////////////////////////////////////////////////////////////\n/**\nThe WarpVaultSCFactory contract is designed to produce individual WarpVaultLP contracts\n**/\n\ncontract WarpVaultSCFactory {\n    /**\n    @notice createNewWarpVaultSC is used to create new WarpVaultSC contract instances\n    @param _InterestRate is the address of the InterestRateModel contract created for this Warp Vault\n    @param _StableCoin is the address of the stablecoin contract this WarpVault will manage\n    @param _warpTeam is the address of the Warp Team used for fees\n    @param _initialExchangeRate is the exchange rate mantissa used to determine the initial exchange rate of stablecoin to warp stablecoin\n    @param _timelock is a variable representing the number of seconds the timeWizard will prevent withdraws and borrows from a contracts(one week is 605800 seconds)\n    **/\n    function createNewWarpVaultSC(\n        address _InterestRate,\n        address _StableCoin,\n        address _warpTeam,\n        uint256 _initialExchangeRate,\n        uint256 _timelock,\n        uint256 _reserveFactorMantissa\n    ) public returns (address) {\n        WarpVaultSC vault = new WarpVaultSC(\n            _InterestRate,\n            _StableCoin,\n            msg.sender,\n            _warpTeam,\n            _initialExchangeRate,\n            _timelock,\n            _reserveFactorMantissa\n        );\n        return address(vault);\n    }\n}\n",
  "sourcePath": "/home/stan36/repos/Warp/Smart-Contracts/contracts/WarpVaultSCFactory.sol",
  "compiler": {
    "name": "solc",
    "version": "0.6.6+commit.6c089d02.Emscripten.clang"
  },
  "schemaVersion": "3.3.2",
  "updatedAt": "2020-12-13T23:33:48.403Z",
  "devdoc": {
    "methods": {
      "createNewWarpVaultSC(address,address,address,uint256,uint256,uint256)": {
        "params": {
          "_InterestRate": "is the address of the InterestRateModel contract created for this Warp Vault",
          "_StableCoin": "is the address of the stablecoin contract this WarpVault will manage",
          "_initialExchangeRate": "is the exchange rate mantissa used to determine the initial exchange rate of stablecoin to warp stablecoin",
          "_timelock": "is a variable representing the number of seconds the timeWizard will prevent withdraws and borrows from a contracts(one week is 605800 seconds)*",
          "_warpTeam": "is the address of the Warp Team used for fees"
        }
      }
    }
  },
  "userdoc": {
    "methods": {
      "createNewWarpVaultSC(address,address,address,uint256,uint256,uint256)": {
        "notice": "createNewWarpVaultSC is used to create new WarpVaultSC contract instances"
      }
    },
    "notice": "The WarpVaultSCFactory contract is designed to produce individual WarpVaultLP contracts*"
  }
}