{
  "contractName": "WarpVaultSCFactory",
  "abi": [
    {
      "anonymous": false,
      "inputs": [
        {
          "indexed": true,
          "internalType": "address",
          "name": "previousOwner",
          "type": "address"
        },
        {
          "indexed": true,
          "internalType": "address",
          "name": "newOwner",
          "type": "address"
        }
      ],
      "name": "OwnershipTransferred",
      "type": "event"
    },
    {
      "inputs": [],
      "name": "owner",
      "outputs": [
        {
          "internalType": "address",
          "name": "",
          "type": "address"
        }
      ],
      "stateMutability": "view",
      "type": "function"
    },
    {
      "inputs": [],
      "name": "renounceOwnership",
      "outputs": [],
      "stateMutability": "nonpayable",
      "type": "function"
    },
    {
      "inputs": [
        {
          "internalType": "address",
          "name": "newOwner",
          "type": "address"
        }
      ],
      "name": "transferOwnership",
      "outputs": [],
      "stateMutability": "nonpayable",
      "type": "function"
    },
    {
      "inputs": [
        {
          "internalType": "address",
          "name": "_InterestRate",
          "type": "address"
        },
        {
          "internalType": "address",
          "name": "_StableCoin",
          "type": "address"
        },
        {
          "internalType": "address",
          "name": "_warpTeam",
          "type": "address"
        },
        {
          "internalType": "uint256",
          "name": "_initialExchangeRate",
          "type": "uint256"
        },
        {
          "internalType": "uint256",
          "name": "_timelock",
          "type": "uint256"
        },
        {
          "internalType": "uint256",
          "name": "_reserveFactorMantissa",
          "type": "uint256"
        }
      ],
      "name": "createNewWarpVaultSC",
      "outputs": [
        {
          "internalType": "address",
          "name": "",
          "type": "address"
        }
      ],
      "stateMutability": "nonpayable",
      "type": "function"
    }
  ],
  "bytecode": "0x608060405260006100176001600160e01b0361006616565b600080546001600160a01b0319166001600160a01b0383169081178255604051929350917f8be0079c531659141344cd1fd0a4f28419497f9722a3daafe3b4186f6b6457e0908290a35061006a565b3390565b614458806100796000396000f3fe608060405234801561001057600080fd5b506004361061004c5760003560e01c8063715018a61461005157806378854a281461005b5780638da5cb5b146100bf578063f2fde38b146100c7575b600080fd5b6100596100ed565b005b6100a3600480360360c081101561007157600080fd5b506001600160a01b03813581169160208101358216916040820135169060608101359060808101359060a001356101a1565b604080516001600160a01b039092168252519081900360200190f35b6100a361028a565b610059600480360360208110156100dd57600080fd5b50356001600160a01b0316610299565b6100f56103a3565b6000546001600160a01b03908116911614610157576040805162461bcd60e51b815260206004820181905260248201527f4f776e61626c653a2063616c6c6572206973206e6f7420746865206f776e6572604482015290519081900360640190fd5b600080546040516001600160a01b03909116907f8be0079c531659141344cd1fd0a4f28419497f9722a3daafe3b4186f6b6457e0908390a3600080546001600160a01b0319169055565b60006101ab6103a3565b6000546001600160a01b0390811691161461020d576040805162461bcd60e51b815260206004820181905260248201527f4f776e61626c653a2063616c6c6572206973206e6f7420746865206f776e6572604482015290519081900360640190fd5b600087873388888888604051610222906103a7565b6001600160a01b0397881681529587166020870152938616604080870191909152929095166060850152608084015260a083019390935260c082015290519081900360e001906000f08015801561027d573d6000803e3d6000fd5b5098975050505050505050565b6000546001600160a01b031690565b6102a16103a3565b6000546001600160a01b03908116911614610303576040805162461bcd60e51b815260206004820181905260248201527f4f776e61626c653a2063616c6c6572206973206e6f7420746865206f776e6572604482015290519081900360640190fd5b6001600160a01b0381166103485760405162461bcd60e51b81526004018080602001828103825260268152602001806143fd6026913960400191505060405180910390fd5b600080546040516001600160a01b03808516939216917f8be0079c531659141344cd1fd0a4f28419497f9722a3daafe3b4186f6b6457e091a3600080546001600160a01b0319166001600160a01b0392909216919091179055565b3390565b614048806103b58339019056fe60806040526105dc6007556127106008553480156200001d57600080fd5b506040516200404838038062004048833981810160405260e08110156200004357600080fd5b508051602082015160408301516060840151608085015160a086015160c09096015194959394929391929091906000620000856001600160e01b036200052216565b600080546001600160a01b0319166001600160a01b0383169081178255604051929350917f8be0079c531659141344cd1fd0a4f28419497f9722a3daafe3b4186f6b6457e0908290a350600d80546001600160a01b038088166001600160a01b031992831617909255600b8054898416908316179055600e8054928a16929091169190911790556200011f6001600160e01b036200052616565b600355670de0b6b3a76400006004556001839055600a80546001600160a01b0319166001600160a01b0386161790556200016642836200052a602090811b6200222817901c565b6009556002819055600b54604080516306fdde0360e01b815290516001600160a01b039092169182916306fdde03916004808301926000929190829003018186803b158015620001b557600080fd5b505afa158015620001ca573d6000803e3d6000fd5b505050506040513d6000823e601f3d908101601f191682016040526020811015620001f457600080fd5b81019080805160405193929190846401000000008211156200021557600080fd5b9083019060208201858111156200022b57600080fd5b82516401000000008111828201881017156200024657600080fd5b82525081516020918201929091019080838360005b83811015620002755781810151838201526020016200025b565b50505050905090810190601f168015620002a35780820380516001836020036101000a031916815260200191505b506040818152600b546395d89b4160e01b835290516001600160a01b0390911694506395d89b41935060048083019350600092829003018186803b158015620002eb57600080fd5b505afa15801562000300573d6000803e3d6000fd5b505050506040513d6000823e601f3d908101601f1916820160405260208110156200032a57600080fd5b81019080805160405193929190846401000000008211156200034b57600080fd5b9083019060208201858111156200036157600080fd5b82516401000000008111828201881017156200037c57600080fd5b82525081516020918201929091019080838360005b83811015620003ab57818101518382015260200162000391565b50505050905090810190601f168015620003d95780820380516001836020036101000a031916815260200191505b50604052505050604051620003ee906200058c565b6001600160a01b0384168152606060208083018281528551928401929092528451604084019160808501919087019080838360005b838110156200043d57818101518382015260200162000423565b50505050905090810190601f1680156200046b5780820380516001836020036101000a031916815260200191505b50838103825284518152845160209182019186019080838360005b83811015620004a057818101518382015260200162000486565b50505050905090810190601f168015620004ce5780820380516001836020036101000a031916815260200191505b5095505050505050604051809103906000f080158015620004f3573d6000803e3d6000fd5b50600c80546001600160a01b0319166001600160a01b0392909216919091179055506200059a95505050505050565b3390565b4390565b60008282018381101562000585576040805162461bcd60e51b815260206004820152601b60248201527f536166654d6174683a206164646974696f6e206f766572666c6f770000000000604482015290519081900360640190fd5b9392505050565b6113a18062002ca783390190565b6126fd80620005aa6000396000f3fe608060405234801561001057600080fd5b506004361061025e5760003560e01c80638da5cb5b11610146578063b1be82f1116100c3578063db006a7511610087578063db006a751461056f578063e6136ab61461058c578063e68fc0ee146105b2578063e9cbd822146105d8578063f2fde38b146105e0578063f8f9da28146106065761025e565b8063b1be82f1146104f2578063bd6d894d14610518578063cb7b420614610520578063cd5c6f5714610528578063d40e8f4a146105305761025e565b806399a5d7471161010a57806399a5d74714610487578063a6afed95146104a4578063aa5af0fd146104ac578063ab292f9b146104b4578063ae9d70b0146104ea5761025e565b80638da5cb5b146104165780638f7bf4fd1461041e5780638f840ddd1461044457806394d359901461044c57806398aa8c331461046a5761025e565b806347bd3718116101df5780635cf57389116101a35780635cf57389146103c85780636c540baf146103d057806370ba1113146103d8578063715018a6146103e057806373acee98146103e85780637746efab146103f05761025e565b806347bd37181461038b57806348dc0b6e146103935780634ee8acc01461039b57806357d32b7a146103a3578063591cec86146103c05761025e565b80631f2dc5ef116102265780631f2dc5ef1461030c578063232d46d2146103145780633662454d1461034057806336820e4b1461035d5780633b1d21a2146103835761025e565b80630900f010146102635780630e7527021461028b578063122b5818146102a8578063173b9904146102cc57806317bfdfbc146102e6575b600080fd5b6102896004803603602081101561027957600080fd5b50356001600160a01b031661060e565b005b610289600480360360208110156102a157600080fd5b503561064c565b6102b06109a5565b604080516001600160a01b039092168252519081900360200190f35b6102d46109b4565b60408051918252519081900360200190f35b6102d4600480360360208110156102fc57600080fd5b50356001600160a01b03166109ba565b6102d46109d5565b6102896004803603604081101561032a57600080fd5b50803590602001356001600160a01b03166109db565b6102896004803603602081101561035657600080fd5b5035610b83565b6102d46004803603602081101561037357600080fd5b50356001600160a01b0316610b9f565b6102d4610bb1565b6102d4610bc1565b6102b0610bc7565b6102b0610bd6565b610289600480360360208110156103b957600080fd5b5035610be5565b6102b0610d87565b6102b0610d96565b6102d4610da5565b6102d4610dab565b610289610db1565b6102d4610e65565b6102d46004803603602081101561040657600080fd5b50356001600160a01b0316610e76565b6102b0610f19565b6102d46004803603602081101561043457600080fd5b50356001600160a01b0316610f28565b6102d4610fdd565b610454610fe3565b6040805160ff9092168252519081900360200190f35b6102896004803603602081101561048057600080fd5b5035611059565b6102d46004803603602081101561049d57600080fd5b5035611182565b6102896111b3565b6102d4611428565b610289600480360360608110156104ca57600080fd5b506001600160a01b0381358116916020810135909116906040013561142e565b6102d461153b565b6102896004803603602081101561050857600080fd5b50356001600160a01b03166115a9565b6102d46115e2565b6102d4611733565b6102d4611739565b6105566004803603602081101561054657600080fd5b50356001600160a01b031661177e565b6040805192835260208301919091528051918290030190f35b6102896004803603602081101561058557600080fd5b5035611797565b6102d4600480360360208110156105a257600080fd5b50356001600160a01b0316611c42565b6102d4600480360360208110156105c857600080fd5b50356001600160a01b0316611d7c565b6102b0611d8e565b610289600480360360208110156105f657600080fd5b50356001600160a01b0316611d9d565b6102d4611ea7565b600d546001600160a01b0316331461062557600080fd5b600d80546001600160a01b0319166001600160a01b03831617905561064981611d9d565b50565b600954421161065a57600080fd5b6106626124db565b61066b336109ba565b606082018190528211156106b05760405162461bcd60e51b815260040180806020018281038252602c8152602001806125ce602c913960400191505060405180910390fd5b6000198214156106c957606081015160208201526106d1565b602081018290525b602080820151600b54604080516370a0823160e01b8152336004820152905192936001600160a01b03909216926370a0823192602480840193919291829003018186803b15801561072157600080fd5b505afa158015610735573d6000803e3d6000fd5b505050506040513d602081101561074b57600080fd5b505110156107a0576040805162461bcd60e51b815260206004820152601e60248201527f4e6f7420656e6f75676820737461626c65636f696e20746f2072657061790000604482015290519081900360640190fd5b600b54602080830151604080516323b872dd60e01b81523360048201523060248201526044810192909252516001600160a01b03909316926323b872dd926064808401939192918290030181600087803b1580156107fd57600080fd5b505af1158015610811573d6000803e3d6000fd5b505050506040513d602081101561082757600080fd5b50506060810151602082015161083d9190611f0b565b608083018190528282600381111561085157fe5b600381111561085c57fe5b905250600090508151600381111561087057fe5b146108ac5760405162461bcd60e51b81526004018080602001828103825260338152602001806126646033913960400191505060405180910390fd5b6108bc6005548260200151611f0b565b60a08301819052828260038111156108d057fe5b60038111156108db57fe5b90525060009050815160038111156108ef57fe5b1461092b5760405162461bcd60e51b81526004018080602001828103825260318152602001806126976031913960400191505060405180910390fd5b60a0810151600555608080820151336000818152600f60209081526040918290208481556004546001909101819055825193845290830187905282820193909352606082019290925290517f0bc102cfc64751888477c44e529873a602bf746175b1e41c6b54e45f926f90f9929181900390910190a15050565b600d546001600160a01b031681565b60025481565b60006109c46111b3565b6109cd82610e76565b90505b919050565b60085481565b600d546001600160a01b031633146109f257600080fd5b6009544211610a0057600080fd5b610a08612528565b82610a11611f31565b11610a63576040805162461bcd60e51b815260206004820152601960248201527f4e6f7420656e6f75676820746f6b656e7320746f206c656e6400000000000000604482015290519081900360640190fd5b610a6c82610e76565b60208201819052610a7d9084611f7c565b6040830181905282826003811115610a9157fe5b6003811115610a9c57fe5b8152505050610aad60055484611f7c565b6060830181905282826003811115610ac157fe5b6003811115610acc57fe5b905250506040808201516001600160a01b038085166000818152600f6020908152858220948555600480546001909601959095556060870151600555600b54865163a9059cbb60e01b815295860193909352602485018990529451919092169363a9059cbb93604480820194929392918390030190829087803b158015610b5257600080fd5b505af1158015610b66573d6000803e3d6000fd5b505050506040513d6020811015610b7c57600080fd5b5050505050565b600a546001600160a01b03163314610b9a57600080fd5b600255565b60116020526000908152604090205481565b6000610bbb611f31565b90505b90565b60055481565b600e546001600160a01b031681565b600c546001600160a01b031681565b610bed612551565b610bf56115e2565b602080830191825260408051918201905290518152610c15908390611fa2565b6040830181905282826003811115610c2957fe5b6003811115610c3457fe5b90525050600b54604080516323b872dd60e01b81523360048201523060248201526044810185905290516001600160a01b03909216916323b872dd916064808201926020929091908290030181600087803b158015610c9257600080fd5b505af1158015610ca6573d6000803e3d6000fd5b505050506040513d6020811015610cbc57600080fd5b505033600081815260106020526040808220805486019055600c548482015182516340c10f1960e01b81526004810195909552602485015290516001600160a01b03909116926340c10f1992604480830193919282900301818387803b158015610d2557600080fd5b505af1158015610d39573d6000803e3d6000fd5b5050506040808301518151338152602081018690528083019190915290517fac45f50416433593e7c9a1f3e0d5f887c530c22d776e1057ecaacb750d24b94092509081900360600190a15050565b600b546001600160a01b031690565b600a546001600160a01b031681565b60035481565b60075481565b610db9611ff5565b6000546001600160a01b03908116911614610e1b576040805162461bcd60e51b815260206004820181905260248201527f4f776e61626c653a2063616c6c6572206973206e6f7420746865206f776e6572604482015290519081900360640190fd5b600080546040516001600160a01b03909116907f8be0079c531659141344cd1fd0a4f28419497f9722a3daafe3b4186f6b6457e0908390a3600080546001600160a01b0319169055565b6000610e6f6111b3565b5060055490565b6001600160a01b0381166000908152600f60205260408120805482918291829190610ea85760009450505050506109d0565b610eb88160000154600454611ff9565b90945092506000846003811115610ecb57fe5b14610edd5760009450505050506109d0565b610eeb838260010154612038565b90945091506000846003811115610efe57fe5b14610f105760009450505050506109d0565b50949350505050565b6000546001600160a01b031690565b600080610f33611739565b600c54604080516370a0823160e01b81526001600160a01b038781166004830152915193945060009391909216916370a08231916024808301926020929190829003018186803b158015610f8657600080fd5b505afa158015610f9a573d6000803e3d6000fd5b505050506040513d6020811015610fb057600080fd5b505160408051602081019091528381529091506000908190610fd29084612063565b979650505050505050565b60065481565b600b546040805163313ce56760e01b815290516000926001600160a01b03169163313ce567916004808301926020929190829003018186803b15801561102857600080fd5b505afa15801561103c573d6000803e3d6000fd5b505050506040513d602081101561105257600080fd5b5051905090565b600a546001600160a01b0316331461107057600080fd5b8060065410156110b15760405162461bcd60e51b81526004018080602001828103825260238152602001806126206023913960400191505060405180910390fd5b6006546110c4908263ffffffff61207a16565b600655600b54600a546040805163a9059cbb60e01b81526001600160a01b039283166004820152602481018590529051919092169163a9059cbb9160448083019260209291908290030181600087803b15801561112057600080fd5b505af1158015611134573d6000803e3d6000fd5b505050506040513d602081101561114a57600080fd5b50506040805182815290517f2b33eb7f7ae0d9bb1596ccbff4b5ed6460dd64eb6bef0c24870065aa469bbb749181900360200190a150565b6000806111ac6008546111a0600754866120c590919063ffffffff16565b9063ffffffff61211e16565b9392505050565b60006111bd612160565b60035490915080821415611218576040805162461bcd60e51b815260206004820152601f60248201527f547279696e6720746f2061636372756520696e74657265737420747769636500604482015290519081900360640190fd5b6000611222611f31565b60055460065460048054600e54604080516315f2405360e01b81529384018790526024840186905260448401859052519596509394929390926000926001600160a01b03909216916315f24053916064808301926020929190829003018186803b15801561128f57600080fd5b505afa1580156112a3573d6000803e3d6000fd5b505050506040513d60208110156112b957600080fd5b5051905065048c27395000811115611318576040805162461bcd60e51b815260206004820152601a60248201527f426f72726f772052617465206d616e7469737361206572726f72000000000000604482015290519081900360640190fd5b6000806113258989611f0b565b9150915061133161257c565b60008060008061134f60405180602001604052808a81525087612164565b909750945061135e858c612063565b909750935061136d848c611f7c565b60408051602081019091526002548152919850935061138d90858c6121cc565b909750915061139d858a806121cc565b80925081985050508d6003819055508060048190555082600581905550816006819055507fe3972ae250606e82c6683843383cb8a51755588d2f443af42e8cb5b1e085392d6003546004546005546006546040518085815260200184815260200183815260200182815260200194505050505060405180910390a15050505050505050505050505050565b60045481565b600d546001600160a01b0316331461144557600080fd5b600954421161145357600080fd5b600b54604080516323b872dd60e01b81526001600160a01b03858116600483015230602483015260448201859052915191909216916323b872dd9160648083019260209291908290030181600087803b1580156114af57600080fd5b505af11580156114c3573d6000803e3d6000fd5b505050506040513d60208110156114d957600080fd5b50600090506114e782611182565b6006549091506114fd908263ffffffff61222816565b6006556001600160a01b0384166000908152600f6020526040812081815560010155600554611532908363ffffffff61207a16565b60055550505050565b600e546000906001600160a01b031663b8168816611557611f31565b6005546006546002546040518563ffffffff1660e01b81526004018085815260200184815260200183815260200182815260200194505050505060206040518083038186803b15801561102857600080fd5b600d546001600160a01b031633146115c057600080fd5b600e80546001600160a01b0319166001600160a01b0392909216919091179055565b60006115ec6111b3565b600c60009054906101000a90046001600160a01b03166001600160a01b03166318160ddd6040518163ffffffff1660e01b815260040160206040518083038186803b15801561163a57600080fd5b505afa15801561164e573d6000803e3d6000fd5b505050506040513d602081101561166457600080fd5b50516116735750600154610bbe565b600061167d611f31565b9050600061168961257c565b600061169a84600554600654612282565b809450819250505061172583600c60009054906101000a90046001600160a01b03166001600160a01b03166318160ddd6040518163ffffffff1660e01b815260040160206040518083038186803b1580156116f457600080fd5b505afa158015611708573d6000803e3d6000fd5b505050506040513d602081101561171e57600080fd5b50516122c0565b519550610bbe945050505050565b60095481565b600c54604080516318160ddd60e01b815290516000926001600160a01b0316916318160ddd916004808301926020929190829003018186803b15801561163a57600080fd5b600f602052600090815260409020805460019091015482565b61179f61258f565b600c54604080516370a0823160e01b815233600482015290516001600160a01b03909216916370a0823191602480820192602092909190829003018186803b1580156117ea57600080fd5b505afa1580156117fe573d6000803e3d6000fd5b505050506040513d602081101561181457600080fd5b505160608201526118236115e2565b60208083019182526040805191820190529051815260608201516118479190612063565b608083018190528282600381111561185b57fe5b600381111561186657fe5b905250508161187e57608081015160c0820152611886565b60c081018290525b6118a68160c0015160405180602001604052808460200151815250611fa2565b60408301819052828260038111156118ba57fe5b60038111156118c557fe5b9052505060c0810151600b54604080516370a0823160e01b815230600482015290516001600160a01b03909216916370a0823191602480820192602092909190829003018186803b15801561191957600080fd5b505afa15801561192d573d6000803e3d6000fd5b505050506040513d602081101561194357600080fd5b50511015611998576040805162461bcd60e51b815260206004820152601f60248201527f4e6f7420656e6f75676820737461626c65636f696e20696e207661756c742e00604482015290519081900360640190fd5b33600090815260106020526040812054608083015111156119da573360009081526010602052604090205460808301516119d79163ffffffff61207a16565b90505b60c08201516119ef908263ffffffff61207a16565b60a083015260c08201518111611acc5733600090815260116020526040902054611a1f908263ffffffff61222816565b3360009081526011602090815260408083209390935560109052205460a08301511115611a93576040805162461bcd60e51b815260206004820152601960248201527f4572726f722063616c63756c6174696e67207265776172642e00000000000000604482015290519081900360640190fd5b60a082015133600090815260106020526040902054611ab79163ffffffff61207a16565b33600090815260106020526040902055611b01565b60c082015133600090815260116020526040902054611af09163ffffffff61222816565b336000908152601160205260409020555b600c546040808401518151632770a7eb60e21b8152336004820152602481019190915290516001600160a01b0390921691639dc29fac9160448082019260009290919082900301818387803b158015611b5957600080fd5b505af1158015611b6d573d6000803e3d6000fd5b5050600b5460c08501516040805163a9059cbb60e01b81523360048201526024810192909252516001600160a01b03909216935063a9059cbb92506044808201926020929091908290030181600087803b158015611bca57600080fd5b505af1158015611bde573d6000803e3d6000fd5b505050506040513d6020811015611bf457600080fd5b505060c08201516040808401518151338152602081019390935282820152517fac45f50416433593e7c9a1f3e0d5f887c530c22d776e1057ecaacb750d24b9409181900360600190a1505050565b600080611c4d611739565b600c54604080516370a0823160e01b81526001600160a01b038781166004830152915193945060009391909216916370a08231916024808301926020929190829003018186803b158015611ca057600080fd5b505afa158015611cb4573d6000803e3d6000fd5b505050506040513d6020811015611cca57600080fd5b50516001600160a01b03851660009081526010602052604090205490915081611d0f57505050506001600160a01b0381166000908152601160205260409020546109d0565b600080611d2a60405180602001604052808781525085612063565b90925090506000611d41828563ffffffff61207a16565b6001600160a01b03891660009081526011602052604081205491925090611d6f90839063ffffffff61222816565b9998505050505050505050565b60106020526000908152604090205481565b600b546001600160a01b031681565b611da5611ff5565b6000546001600160a01b03908116911614611e07576040805162461bcd60e51b815260206004820181905260248201527f4f776e61626c653a2063616c6c6572206973206e6f7420746865206f776e6572604482015290519081900360640190fd5b6001600160a01b038116611e4c5760405162461bcd60e51b81526004018080602001828103825260268152602001806125fa6026913960400191505060405180910390fd5b600080546040516001600160a01b03808516939216917f8be0079c531659141344cd1fd0a4f28419497f9722a3daafe3b4186f6b6457e091a3600080546001600160a01b0319166001600160a01b0392909216919091179055565b600e546000906001600160a01b03166315f24053611ec3611f31565b6005546006546040518463ffffffff1660e01b815260040180848152602001838152602001828152602001935050505060206040518083038186803b15801561102857600080fd5b600080838311611f22575060009050818303611f2a565b506003905060005b9250929050565b600b54604080516370a0823160e01b815230600482015290516000926001600160a01b0316916370a08231916024808301926020929190829003018186803b15801561102857600080fd5b600080838301848110611f9457600092509050611f2a565b506002915060009050611f2a565b6000806000611faf61257c565b611fb98686612371565b90925090506000826003811115611fcc57fe5b14611fdd5750915060009050611f2a565b6000611fe8826123d0565b9350935050509250929050565b3390565b6000808361200c57506000905080611f2a565b8383028385828161201957fe5b041461202d57506002915060009050611f2a565b600092509050611f2a565b6000808261204c5750600190506000611f2a565b600083858161205757fe5b04915091509250929050565b600080600061207061257c565b611fb98686612164565b60006120bc83836040518060400160405280601e81526020017f536166654d6174683a207375627472616374696f6e206f766572666c6f7700008152506123df565b90505b92915050565b6000826120d4575060006120bf565b828202828482816120e157fe5b04146120bc5760405162461bcd60e51b81526004018080602001828103825260218152602001806126436021913960400191505060405180910390fd5b60006120bc83836040518060400160405280601a81526020017f536166654d6174683a206469766973696f6e206279207a65726f000000000000815250612476565b4390565b600061216e61257c565b60008061217f866000015186611ff9565b9092509050600082600381111561219257fe5b146121b157506040805160208101909152600081529092509050611f2a565b60408051602081019091529081526000969095509350505050565b60008060006121d961257c565b6121e38787612164565b909250905060008260038111156121f657fe5b146122075750915060009050612220565b612219612213826123d0565b86611f7c565b9350935050505b935093915050565b6000828201838110156120bc576040805162461bcd60e51b815260206004820152601b60248201527f536166654d6174683a206164646974696f6e206f766572666c6f770000000000604482015290519081900360640190fd5b6000806000806122928787611f7c565b909250905060008260038111156122a557fe5b146122b65750915060009050612220565b6122198186611f0b565b60006122ca61257c565b6000806122df86670de0b6b3a7640000611ff9565b909250905060008260038111156122f257fe5b1461231157506040805160208101909152600081529092509050611f2a565b60008061231e8388612038565b9092509050600082600381111561233157fe5b146123545781604051806020016040528060008152509550955050505050611f2a565b604080516020810190915290815260009890975095505050505050565b600061237b61257c565b600080612390670de0b6b3a764000087611ff9565b909250905060008260038111156123a357fe5b146123c257506040805160208101909152600081529092509050611f2a565b611fe88186600001516122c0565b51670de0b6b3a7640000900490565b6000818484111561246e5760405162461bcd60e51b81526004018080602001828103825283818151815260200191508051906020019080838360005b8381101561243357818101518382015260200161241b565b50505050905090810190601f1680156124605780820380516001836020036101000a031916815260200191505b509250505060405180910390fd5b505050900390565b600081836124c55760405162461bcd60e51b815260206004820181815283516024840152835190928392604490910191908501908083836000831561243357818101518382015260200161241b565b5060008385816124d157fe5b0495945050505050565b604080516101208101909152806000815260200160008152602001600081526020016000815260200160008152602001600081526020016000815260200160008152602001600081525090565b604080516080810190915280600081526020016000815260200160008152602001600081525090565b6040805160808101909152806000815260200160008152602001600081526020016000151581525090565b6040518060200160405280600081525090565b6040805160e081019091528060008152602001600081526020016000815260200160008152602001600081526020016000815260200160008152509056fe596f752061726520747279696e6720746f20706179206261636b206d6f7265207468616e20796f75206f77654f776e61626c653a206e6577206f776e657220697320746865207a65726f2061646472657373596f752061726520747279696e6720746f20776974686472617720746f6f206d756368536166654d6174683a206d756c7469706c69636174696f6e206f766572666c6f77526570617920626f72726f77206e6577206163636f756e742062616c616e63652063616c63756c6174696f6e206661696c6564526570617920626f72726f77206e657720746f74616c2062616c616e63652063616c63756c6174696f6e206661696c6564a264697066735822122063dc2c40ba8ee642416c0606bb84332fcf9ae2a5ebd185948274a8ab03186dc864736f6c6343000606003360806040523480156200001157600080fd5b50604051620013a1380380620013a1833981810160405260608110156200003757600080fd5b8151602083018051604051929492938301929190846401000000008211156200005f57600080fd5b9083019060208201858111156200007557600080fd5b82516401000000008111828201881017156200009057600080fd5b82525081516020918201929091019080838360005b83811015620000bf578181015183820152602001620000a5565b50505050905090810190601f168015620000ed5780820380516001836020036101000a031916815260200191505b50604052602001805160405193929190846401000000008211156200011157600080fd5b9083019060208201858111156200012757600080fd5b82516401000000008111828201881017156200014257600080fd5b82525081516020918201929091019080838360005b838110156200017157818101518382015260200162000157565b50505050905090810190601f1680156200019f5780820380516001836020036101000a031916815260200191505b5060405250505080826000620001ba6200026c60201b60201c565b600080546001600160a01b0319166001600160a01b0383169081178255604051929350917f8be0079c531659141344cd1fd0a4f28419497f9722a3daafe3b4186f6b6457e0908290a35081516200021990600490602085019062000271565b5080516200022f90600590602084019062000271565b5050600680546001600160a01b0390951661010002610100600160a81b031960ff1990961660121795909516949094179093555062000313915050565b335b90565b828054600181600116156101000203166002900490600052602060002090601f016020900481019282601f10620002b457805160ff1916838001178555620002e4565b82800160010185558215620002e4579182015b82811115620002e4578251825591602001919060010190620002c7565b50620002f2929150620002f6565b5090565b6200026e91905b80821115620002f25760008155600101620002fd565b61107e80620003236000396000f3fe608060405234801561001057600080fd5b506004361061010b5760003560e01c8063715018a6116100a2578063a457c2d711610071578063a457c2d71461031b578063a9059cbb14610347578063dd62ed3e14610373578063e9cbd822146103a1578063f2fde38b146103a95761010b565b8063715018a6146102bb5780638da5cb5b146102c357806395d89b41146102e75780639dc29fac146102ef5761010b565b8063313ce567116100de578063313ce5671461021d578063395093511461023b57806340c10f191461026757806370a08231146102955761010b565b806306fdde0314610110578063095ea7b31461018d57806318160ddd146101cd57806323b872dd146101e7575b600080fd5b6101186103cf565b6040805160208082528351818301528351919283929083019185019080838360005b8381101561015257818101518382015260200161013a565b50505050905090810190601f16801561017f5780820380516001836020036101000a031916815260200191505b509250505060405180910390f35b6101b9600480360360408110156101a357600080fd5b506001600160a01b038135169060200135610465565b604080519115158252519081900360200190f35b6101d5610482565b60408051918252519081900360200190f35b6101b9600480360360608110156101fd57600080fd5b506001600160a01b03813581169160208101359091169060400135610488565b610225610515565b6040805160ff9092168252519081900360200190f35b6101b96004803603604081101561025157600080fd5b506001600160a01b03813516906020013561051e565b6102936004803603604081101561027d57600080fd5b506001600160a01b038135169060200135610572565b005b6101d5600480360360208110156102ab57600080fd5b50356001600160a01b03166105d8565b6102936105f3565b6102cb610695565b604080516001600160a01b039092168252519081900360200190f35b6101186106a4565b6102936004803603604081101561030557600080fd5b506001600160a01b038135169060200135610705565b6101b96004803603604081101561033157600080fd5b506001600160a01b038135169060200135610767565b6101b96004803603604081101561035d57600080fd5b506001600160a01b0381351690602001356107d5565b6101d56004803603604081101561038957600080fd5b506001600160a01b03813581169160200135166107e9565b6102cb610814565b610293600480360360208110156103bf57600080fd5b50356001600160a01b0316610828565b60048054604080516020601f600260001961010060018816150201909516949094049384018190048102820181019092528281526060939092909183018282801561045b5780601f106104305761010080835404028352916020019161045b565b820191906000526020600020905b81548152906001019060200180831161043e57829003601f168201915b5050505050905090565b6000610479610472610920565b8484610924565b50600192915050565b60035490565b6000610495848484610a10565b61050b846104a1610920565b61050685604051806060016040528060288152602001610f72602891396001600160a01b038a166000908152600260205260408120906104df610920565b6001600160a01b03168152602081019190915260400160002054919063ffffffff610b7916565b610924565b5060019392505050565b60065460ff1690565b600061047961052b610920565b84610506856002600061053c610920565b6001600160a01b03908116825260208083019390935260409182016000908120918c16815292529020549063ffffffff610c1016565b61057a610920565b6000546001600160a01b039081169116146105ca576040805162461bcd60e51b81526020600482018190526024820152600080516020610f9a833981519152604482015290519081900360640190fd5b6105d48282610c71565b5050565b6001600160a01b031660009081526001602052604090205490565b6105fb610920565b6000546001600160a01b0390811691161461064b576040805162461bcd60e51b81526020600482018190526024820152600080516020610f9a833981519152604482015290519081900360640190fd5b600080546040516001600160a01b03909116907f8be0079c531659141344cd1fd0a4f28419497f9722a3daafe3b4186f6b6457e0908390a3600080546001600160a01b0319169055565b6000546001600160a01b031690565b60058054604080516020601f600260001961010060018816150201909516949094049384018190048102820181019092528281526060939092909183018282801561045b5780601f106104305761010080835404028352916020019161045b565b61070d610920565b6000546001600160a01b0390811691161461075d576040805162461bcd60e51b81526020600482018190526024820152600080516020610f9a833981519152604482015290519081900360640190fd5b6105d48282610d6f565b6000610479610774610920565b8461050685604051806060016040528060258152602001611024602591396002600061079e610920565b6001600160a01b03908116825260208083019390935260409182016000908120918d1681529252902054919063ffffffff610b7916565b60006104796107e2610920565b8484610a10565b6001600160a01b03918216600090815260026020908152604080832093909416825291909152205490565b60065461010090046001600160a01b031681565b610830610920565b6000546001600160a01b03908116911614610880576040805162461bcd60e51b81526020600482018190526024820152600080516020610f9a833981519152604482015290519081900360640190fd5b6001600160a01b0381166108c55760405162461bcd60e51b8152600401808060200182810382526026815260200180610f046026913960400191505060405180910390fd5b600080546040516001600160a01b03808516939216917f8be0079c531659141344cd1fd0a4f28419497f9722a3daafe3b4186f6b6457e091a3600080546001600160a01b0319166001600160a01b0392909216919091179055565b3390565b6001600160a01b0383166109695760405162461bcd60e51b81526004018080602001828103825260248152602001806110006024913960400191505060405180910390fd5b6001600160a01b0382166109ae5760405162461bcd60e51b8152600401808060200182810382526022815260200180610f2a6022913960400191505060405180910390fd5b6001600160a01b03808416600081815260026020908152604080832094871680845294825291829020859055815185815291517f8c5be1e5ebec7d5bd14f71427d1e84f3dd0314c0f7b2291e5b200ac8c7c3b9259281900390910190a3505050565b6001600160a01b038316610a555760405162461bcd60e51b8152600401808060200182810382526025815260200180610fdb6025913960400191505060405180910390fd5b6001600160a01b038216610a9a5760405162461bcd60e51b8152600401808060200182810382526023815260200180610ebf6023913960400191505060405180910390fd5b610aa5838383610e77565b610ae881604051806060016040528060268152602001610f4c602691396001600160a01b038616600090815260016020526040902054919063ffffffff610b7916565b6001600160a01b038085166000908152600160205260408082209390935590841681522054610b1d908263ffffffff610c1016565b6001600160a01b0380841660008181526001602090815260409182902094909455805185815290519193928716927fddf252ad1be2c89b69c2b068fc378daa952ba7f163c4a11628f55a4df523b3ef92918290030190a3505050565b60008184841115610c085760405162461bcd60e51b81526004018080602001828103825283818151815260200191508051906020019080838360005b83811015610bcd578181015183820152602001610bb5565b50505050905090810190601f168015610bfa5780820380516001836020036101000a031916815260200191505b509250505060405180910390fd5b505050900390565b600082820183811015610c6a576040805162461bcd60e51b815260206004820152601b60248201527f536166654d6174683a206164646974696f6e206f766572666c6f770000000000604482015290519081900360640190fd5b9392505050565b6001600160a01b038216610ccc576040805162461bcd60e51b815260206004820152601f60248201527f45524332303a206d696e7420746f20746865207a65726f206164647265737300604482015290519081900360640190fd5b610cd860008383610e77565b600354610ceb908263ffffffff610c1016565b6003556001600160a01b038216600090815260016020526040902054610d17908263ffffffff610c1016565b6001600160a01b03831660008181526001602090815260408083209490945583518581529351929391927fddf252ad1be2c89b69c2b068fc378daa952ba7f163c4a11628f55a4df523b3ef9281900390910190a35050565b6001600160a01b038216610db45760405162461bcd60e51b8152600401808060200182810382526021815260200180610fba6021913960400191505060405180910390fd5b610dc082600083610e77565b610e0381604051806060016040528060228152602001610ee2602291396001600160a01b038516600090815260016020526040902054919063ffffffff610b7916565b6001600160a01b038316600090815260016020526040902055600354610e2f908263ffffffff610e7c16565b6003556040805182815290516000916001600160a01b038516917fddf252ad1be2c89b69c2b068fc378daa952ba7f163c4a11628f55a4df523b3ef9181900360200190a35050565b505050565b6000610c6a83836040518060400160405280601e81526020017f536166654d6174683a207375627472616374696f6e206f766572666c6f770000815250610b7956fe45524332303a207472616e7366657220746f20746865207a65726f206164647265737345524332303a206275726e20616d6f756e7420657863656564732062616c616e63654f776e61626c653a206e6577206f776e657220697320746865207a65726f206164647265737345524332303a20617070726f766520746f20746865207a65726f206164647265737345524332303a207472616e7366657220616d6f756e7420657863656564732062616c616e636545524332303a207472616e7366657220616d6f756e74206578636565647320616c6c6f77616e63654f776e61626c653a2063616c6c6572206973206e6f7420746865206f776e657245524332303a206275726e2066726f6d20746865207a65726f206164647265737345524332303a207472616e736665722066726f6d20746865207a65726f206164647265737345524332303a20617070726f76652066726f6d20746865207a65726f206164647265737345524332303a2064656372656173656420616c6c6f77616e63652062656c6f77207a65726fa26469706673582212204534f3b589de5159f884ad9db3a386e94aa6877e24127adfc82af7f80e993adc64736f6c634300060600334f776e61626c653a206e6577206f776e657220697320746865207a65726f2061646472657373a2646970667358221220a0676a1d7ec8fa43e0e5fc9aea04a4ae6b62b43eaa73f828068387a5e7113ffe64736f6c63430006060033",
  "immutableReferences": {},
  "source": "pragma solidity ^0.6.0;\n\nimport \"./WarpVaultSC.sol\";\nimport \"@openzeppelin/contracts/access/Ownable.sol\";\n\n////////////////////////////////////////////////////////////////////////////////////////////\n/// @title WarpVaultLPFactory\n/// @author Christopher Dixon\n////////////////////////////////////////////////////////////////////////////////////////////\n/**\nThe WarpVaultSCFactory contract is designed to produce individual WarpVaultLP contracts\nThis contract uses the OpenZeppelin contract Library to inherit functions from\n  Ownable.sol\n**/\n\ncontract WarpVaultSCFactory is Ownable {\n    /**\n@notice createNewWarpVaultSC is used to create new WarpVaultSC contract instances\n@param _InterestRate is the address of the InterestRateModel contract created for this Warp Vault\n@param _StableCoin is the address of the stablecoin contract this WarpVault will manage\n@param _warpTeam is the address of the Warp Team used for fees\n@param _initialExchangeRate is the exchange rate mantissa used to determine the initial exchange rate of stablecoin to warp stablecoin\n@param _timelock is a variable representing the number of seconds the timeWizard will prevent withdraws and borrows from a contracts(one week is 605800 seconds)\n  **/\n    function createNewWarpVaultSC(\n        address _InterestRate,\n        address _StableCoin,\n        address _warpTeam,\n        uint256 _initialExchangeRate,\n        uint256 _timelock,\n        uint256 _reserveFactorMantissa\n    ) public onlyOwner returns (address) {\n        address _WVSC = address(\n            new WarpVaultSC(\n                _InterestRate,\n                _StableCoin,\n                msg.sender,\n                _warpTeam,\n                _initialExchangeRate,\n                _timelock,\n                _reserveFactorMantissa\n            )\n        );\n\n        return _WVSC;\n    }\n}\n",
  "sourcePath": "/home/stan36/repos/Warp/Smart-Contracts/contracts/WarpVaultSCFactory.sol",
  "compiler": {
    "name": "solc",
    "version": "0.6.6+commit.6c089d02.Emscripten.clang"
  },
  "schemaVersion": "3.3.2",
  "updatedAt": "2020-12-04T20:34:08.619Z",
  "devdoc": {
    "methods": {
      "createNewWarpVaultSC(address,address,address,uint256,uint256,uint256)": {
        "params": {
          "_InterestRate": "is the address of the InterestRateModel contract created for this Warp Vault",
          "_StableCoin": "is the address of the stablecoin contract this WarpVault will manage",
          "_initialExchangeRate": "is the exchange rate mantissa used to determine the initial exchange rate of stablecoin to warp stablecoin",
          "_timelock": "is a variable representing the number of seconds the timeWizard will prevent withdraws and borrows from a contracts(one week is 605800 seconds)*",
          "_warpTeam": "is the address of the Warp Team used for fees"
        }
      },
      "owner()": {
        "details": "Returns the address of the current owner."
      },
      "renounceOwnership()": {
        "details": "Leaves the contract without owner. It will not be possible to call `onlyOwner` functions anymore. Can only be called by the current owner.     * NOTE: Renouncing ownership will leave the contract without an owner, thereby removing any functionality that is only available to the owner."
      },
      "transferOwnership(address)": {
        "details": "Transfers ownership of the contract to a new account (`newOwner`). Can only be called by the current owner."
      }
    }
  },
  "userdoc": {
    "methods": {
      "createNewWarpVaultSC(address,address,address,uint256,uint256,uint256)": {
        "notice": "createNewWarpVaultSC is used to create new WarpVaultSC contract instances"
      }
    },
    "notice": "The WarpVaultSCFactory contract is designed to produce individual WarpVaultLP contracts This contract uses the OpenZeppelin contract Library to inherit functions from Ownable.sol*"
  }
}