{
  "contractName": "WarpControl",
  "abi": [
    {
      "inputs": [
        {
          "internalType": "address",
          "name": "_oracle",
          "type": "address"
        },
        {
          "internalType": "address",
          "name": "_WVLPF",
          "type": "address"
        },
        {
          "internalType": "address",
          "name": "_WVSCF",
          "type": "address"
        },
        {
          "internalType": "address",
          "name": "_warpTeam",
          "type": "address"
        }
      ],
      "stateMutability": "nonpayable",
      "type": "constructor"
    },
    {
      "anonymous": false,
      "inputs": [
        {
          "indexed": false,
          "internalType": "address",
          "name": "_account",
          "type": "address"
        },
        {
          "indexed": false,
          "internalType": "address",
          "name": "liquidator",
          "type": "address"
        }
      ],
      "name": "Liquidation",
      "type": "event"
    },
    {
      "anonymous": false,
      "inputs": [
        {
          "indexed": false,
          "internalType": "address",
          "name": "_borrower",
          "type": "address"
        },
        {
          "indexed": false,
          "internalType": "address",
          "name": "_StableCoin",
          "type": "address"
        },
        {
          "indexed": false,
          "internalType": "uint256",
          "name": "_amountBorrowed",
          "type": "uint256"
        }
      ],
      "name": "NewBorrow",
      "type": "event"
    },
    {
      "anonymous": false,
      "inputs": [
        {
          "indexed": false,
          "internalType": "address",
          "name": "_newVault",
          "type": "address"
        }
      ],
      "name": "NewLPVault",
      "type": "event"
    },
    {
      "anonymous": false,
      "inputs": [
        {
          "indexed": false,
          "internalType": "address",
          "name": "_newVault",
          "type": "address"
        },
        {
          "indexed": false,
          "internalType": "address",
          "name": "_interestRateModel",
          "type": "address"
        }
      ],
      "name": "NewSCVault",
      "type": "event"
    },
    {
      "anonymous": false,
      "inputs": [
        {
          "indexed": false,
          "internalType": "address",
          "name": "_account",
          "type": "address"
        },
        {
          "indexed": false,
          "internalType": "uint256",
          "name": "_time",
          "type": "uint256"
        }
      ],
      "name": "NotCompliant",
      "type": "event"
    },
    {
      "anonymous": false,
      "inputs": [
        {
          "indexed": true,
          "internalType": "address",
          "name": "previousOwner",
          "type": "address"
        },
        {
          "indexed": true,
          "internalType": "address",
          "name": "newOwner",
          "type": "address"
        }
      ],
      "name": "OwnershipTransferred",
      "type": "event"
    },
    {
      "anonymous": false,
      "inputs": [
        {
          "indexed": false,
          "internalType": "address",
          "name": "_account",
          "type": "address"
        },
        {
          "indexed": false,
          "internalType": "uint256",
          "name": "_time",
          "type": "uint256"
        }
      ],
      "name": "complianceReset",
      "type": "event"
    },
    {
      "inputs": [],
      "name": "Oracle",
      "outputs": [
        {
          "internalType": "contract UniswapLPOracleFactoryI",
          "name": "",
          "type": "address"
        }
      ],
      "stateMutability": "view",
      "type": "function"
    },
    {
      "inputs": [],
      "name": "WVLPF",
      "outputs": [
        {
          "internalType": "contract WarpVaultLPFactoryI",
          "name": "",
          "type": "address"
        }
      ],
      "stateMutability": "view",
      "type": "function"
    },
    {
      "inputs": [],
      "name": "WVSCF",
      "outputs": [
        {
          "internalType": "contract WarpVaultSCFactoryI",
          "name": "",
          "type": "address"
        }
      ],
      "stateMutability": "view",
      "type": "function"
    },
    {
      "inputs": [
        {
          "internalType": "address",
          "name": "",
          "type": "address"
        }
      ],
      "name": "instanceLPTracker",
      "outputs": [
        {
          "internalType": "address",
          "name": "",
          "type": "address"
        }
      ],
      "stateMutability": "view",
      "type": "function"
    },
    {
      "inputs": [
        {
          "internalType": "address",
          "name": "",
          "type": "address"
        }
      ],
      "name": "instanceSCTracker",
      "outputs": [
        {
          "internalType": "address",
          "name": "",
          "type": "address"
        }
      ],
      "stateMutability": "view",
      "type": "function"
    },
    {
      "inputs": [
        {
          "internalType": "address",
          "name": "",
          "type": "address"
        }
      ],
      "name": "isVault",
      "outputs": [
        {
          "internalType": "bool",
          "name": "",
          "type": "bool"
        }
      ],
      "stateMutability": "view",
      "type": "function"
    },
    {
      "inputs": [
        {
          "internalType": "address",
          "name": "",
          "type": "address"
        }
      ],
      "name": "lockedLPValue",
      "outputs": [
        {
          "internalType": "uint256",
          "name": "",
          "type": "uint256"
        }
      ],
      "stateMutability": "view",
      "type": "function"
    },
    {
      "inputs": [
        {
          "internalType": "uint256",
          "name": "",
          "type": "uint256"
        }
      ],
      "name": "lpVaults",
      "outputs": [
        {
          "internalType": "address",
          "name": "",
          "type": "address"
        }
      ],
      "stateMutability": "view",
      "type": "function"
    },
    {
      "inputs": [],
      "name": "owner",
      "outputs": [
        {
          "internalType": "address",
          "name": "",
          "type": "address"
        }
      ],
      "stateMutability": "view",
      "type": "function"
    },
    {
      "inputs": [],
      "name": "renounceOwnership",
      "outputs": [],
      "stateMutability": "nonpayable",
      "type": "function"
    },
    {
      "inputs": [
        {
          "internalType": "uint256",
          "name": "",
          "type": "uint256"
        }
      ],
      "name": "scVaults",
      "outputs": [
        {
          "internalType": "address",
          "name": "",
          "type": "address"
        }
      ],
      "stateMutability": "view",
      "type": "function"
    },
    {
      "inputs": [
        {
          "internalType": "address",
          "name": "newOwner",
          "type": "address"
        }
      ],
      "name": "transferOwnership",
      "outputs": [],
      "stateMutability": "nonpayable",
      "type": "function"
    },
    {
      "inputs": [],
      "name": "warpTeam",
      "outputs": [
        {
          "internalType": "address",
          "name": "",
          "type": "address"
        }
      ],
      "stateMutability": "view",
      "type": "function"
    },
    {
      "inputs": [],
      "name": "viewNumLPVaults",
      "outputs": [
        {
          "internalType": "uint256",
          "name": "",
          "type": "uint256"
        }
      ],
      "stateMutability": "view",
      "type": "function"
    },
    {
      "inputs": [],
      "name": "viewNumSCVaults",
      "outputs": [
        {
          "internalType": "uint256",
          "name": "",
          "type": "uint256"
        }
      ],
      "stateMutability": "view",
      "type": "function"
    },
    {
      "inputs": [
        {
          "internalType": "uint256",
          "name": "_timelock",
          "type": "uint256"
        },
        {
          "internalType": "address",
          "name": "_lp",
          "type": "address"
        },
        {
          "internalType": "address",
          "name": "_lpAsset1",
          "type": "address"
        },
        {
          "internalType": "address",
          "name": "_lpAsset2",
          "type": "address"
        },
        {
          "internalType": "string",
          "name": "_lpName",
          "type": "string"
        }
      ],
      "name": "createNewLPVault",
      "outputs": [],
      "stateMutability": "nonpayable",
      "type": "function"
    },
    {
      "inputs": [
        {
          "internalType": "uint256",
          "name": "_timelock",
          "type": "uint256"
        },
        {
          "internalType": "uint256",
          "name": "_baseRatePerYear",
          "type": "uint256"
        },
        {
          "internalType": "uint256",
          "name": "_multiplierPerYear",
          "type": "uint256"
        },
        {
          "internalType": "uint256",
          "name": "_jumpMultiplierPerYear",
          "type": "uint256"
        },
        {
          "internalType": "uint256",
          "name": "_optimal",
          "type": "uint256"
        },
        {
          "internalType": "uint256",
          "name": "_initialExchangeRate",
          "type": "uint256"
        },
        {
          "internalType": "address",
          "name": "_StableCoin",
          "type": "address"
        }
      ],
      "name": "createNewSCVault",
      "outputs": [],
      "stateMutability": "nonpayable",
      "type": "function"
    },
    {
      "inputs": [
        {
          "internalType": "address",
          "name": "account",
          "type": "address"
        },
        {
          "internalType": "address",
          "name": "lpToken",
          "type": "address"
        }
      ],
      "name": "getMaxWithdrawAllowed",
      "outputs": [
        {
          "internalType": "uint256",
          "name": "",
          "type": "uint256"
        }
      ],
      "stateMutability": "nonpayable",
      "type": "function"
    },
    {
      "inputs": [
        {
          "internalType": "address",
          "name": "account",
          "type": "address"
        },
        {
          "internalType": "address",
          "name": "lpToken",
          "type": "address"
        }
      ],
      "name": "viewMaxWithdrawAllowed",
      "outputs": [
        {
          "internalType": "uint256",
          "name": "",
          "type": "uint256"
        }
      ],
      "stateMutability": "view",
      "type": "function"
    },
    {
      "inputs": [
        {
          "internalType": "address",
          "name": "_account",
          "type": "address"
        }
      ],
      "name": "getTotalAvailableCollateralValue",
      "outputs": [
        {
          "internalType": "uint256",
          "name": "",
          "type": "uint256"
        }
      ],
      "stateMutability": "nonpayable",
      "type": "function"
    },
    {
      "inputs": [
        {
          "internalType": "address",
          "name": "_account",
          "type": "address"
        }
      ],
      "name": "viewTotalAvailableCollateralValue",
      "outputs": [
        {
          "internalType": "uint256",
          "name": "",
          "type": "uint256"
        }
      ],
      "stateMutability": "view",
      "type": "function"
    },
    {
      "inputs": [
        {
          "internalType": "address",
          "name": "lpToken",
          "type": "address"
        }
      ],
      "name": "viewPriceOfCollateral",
      "outputs": [
        {
          "internalType": "uint256",
          "name": "",
          "type": "uint256"
        }
      ],
      "stateMutability": "view",
      "type": "function"
    },
    {
      "inputs": [
        {
          "internalType": "address",
          "name": "token",
          "type": "address"
        }
      ],
      "name": "viewPriceOfToken",
      "outputs": [
        {
          "internalType": "uint256",
          "name": "",
          "type": "uint256"
        }
      ],
      "stateMutability": "view",
      "type": "function"
    },
    {
      "inputs": [
        {
          "internalType": "address",
          "name": "_account",
          "type": "address"
        }
      ],
      "name": "viewTotalBorrowedValue",
      "outputs": [
        {
          "internalType": "uint256",
          "name": "",
          "type": "uint256"
        }
      ],
      "stateMutability": "view",
      "type": "function"
    },
    {
      "inputs": [
        {
          "internalType": "address",
          "name": "_account",
          "type": "address"
        }
      ],
      "name": "getTotalBorrowedValue",
      "outputs": [
        {
          "internalType": "uint256",
          "name": "",
          "type": "uint256"
        }
      ],
      "stateMutability": "nonpayable",
      "type": "function"
    },
    {
      "inputs": [
        {
          "internalType": "uint256",
          "name": "_collateralValue",
          "type": "uint256"
        }
      ],
      "name": "calcBorrowLimit",
      "outputs": [
        {
          "internalType": "uint256",
          "name": "",
          "type": "uint256"
        }
      ],
      "stateMutability": "pure",
      "type": "function"
    },
    {
      "inputs": [
        {
          "internalType": "uint256",
          "name": "_borrowAmount",
          "type": "uint256"
        }
      ],
      "name": "calcCollateralRequired",
      "outputs": [
        {
          "internalType": "uint256",
          "name": "",
          "type": "uint256"
        }
      ],
      "stateMutability": "view",
      "type": "function"
    },
    {
      "inputs": [
        {
          "internalType": "address",
          "name": "_account",
          "type": "address"
        }
      ],
      "name": "getBorrowLimit",
      "outputs": [
        {
          "internalType": "uint256",
          "name": "",
          "type": "uint256"
        }
      ],
      "stateMutability": "nonpayable",
      "type": "function"
    },
    {
      "inputs": [
        {
          "internalType": "address",
          "name": "_account",
          "type": "address"
        }
      ],
      "name": "viewBorrowLimit",
      "outputs": [
        {
          "internalType": "uint256",
          "name": "",
          "type": "uint256"
        }
      ],
      "stateMutability": "view",
      "type": "function"
    },
    {
      "inputs": [
        {
          "internalType": "address",
          "name": "_StableCoin",
          "type": "address"
        },
        {
          "internalType": "uint256",
          "name": "_amount",
          "type": "uint256"
        }
      ],
      "name": "borrowSC",
      "outputs": [],
      "stateMutability": "nonpayable",
      "type": "function"
    },
    {
      "inputs": [
        {
          "internalType": "address",
          "name": "_borrower",
          "type": "address"
        }
      ],
      "name": "markAccountNonCompliant",
      "outputs": [],
      "stateMutability": "nonpayable",
      "type": "function"
    },
    {
      "inputs": [
        {
          "internalType": "address",
          "name": "_borrower",
          "type": "address"
        }
      ],
      "name": "liquidateAccount",
      "outputs": [],
      "stateMutability": "nonpayable",
      "type": "function"
    }
  ],
  "bytecode": "0x608060405234801561001057600080fd5b50604051612be1380380612be18339818101604052608081101561003357600080fd5b5080516020820151604083015160609093015191929091600061005d6001600160e01b036100fa16565b600080546001600160a01b0319166001600160a01b0383169081178255604051929350917f8be0079c531659141344cd1fd0a4f28419497f9722a3daafe3b4186f6b6457e0908290a350600180546001600160a01b039586166001600160a01b03199182161790915560028054948616948216949094179093556003805492851692841692909217909155600480549190931691161790556100fe565b3390565b612ad48061010d6000396000f3fe60806040523480156200001157600080fd5b5060043610620001a25760003560e01c80630a55598914620001a75780630c1e2b9214620001d8578063169d4b14146200021d5780631dbb0b81146200025857806341f4118914620002625780634e590bee146200028b5780635cf5738914620002b45780636222630814620002be578063652b9b4114620002de5780636af5f752146200031b578063715018a614620003255780637af70ba6146200032f5780637c17d23714620003585780638ac5d4a314620003815780638da5cb5b14620003aa578063a2b35d9d14620003b4578063ab5e2c9914620003dd578063acc9e5b1146200040e578063b04207921462000437578063bc64cd4e1462000457578063be9287e31462000480578063d38ca6d914620004a9578063da4f7fb214620004d2578063db1dfc4614620004f2578063e1535d12146200053f578063e3c351b81462000549578063e50f4a301462000572578063ed6072f61462000644578063efdebdf51462000664578063f24a534e146200066e578063f2fde38b1462000678578063f3c7f98714620006a1575b600080fd5b620001d660048036036040811015620001bf57600080fd5b506001600160a01b038135169060200135620006d2565b005b6200020160048036036020811015620001f057600080fd5b50356001600160a01b031662000858565b604080516001600160a01b039092168252519081900360200190f35b62000246600480360360208110156200023557600080fd5b50356001600160a01b031662000873565b60408051918252519081900360200190f35b6200024662000895565b620001d6600480360360208110156200027a57600080fd5b50356001600160a01b03166200089b565b6200024660048036036020811015620002a357600080fd5b50356001600160a01b031662000a78565b6200020162000afe565b6200020160048036036020811015620002d657600080fd5b503562000b0d565b6200030760048036036020811015620002f657600080fd5b50356001600160a01b031662000b35565b604080519115158252519081900360200190f35b6200020162000b4a565b620001d662000b59565b62000246600480360360208110156200034757600080fd5b50356001600160a01b031662000bee565b62000246600480360360208110156200037057600080fd5b50356001600160a01b031662000dd3565b620001d6600480360360208110156200039957600080fd5b50356001600160a01b031662000de1565b62000201620011a7565b6200024660048036036020811015620003cc57600080fd5b50356001600160a01b0316620011b6565b6200024660048036036040811015620003f557600080fd5b506001600160a01b038135811691602001351662001281565b62000201600480360360208110156200042657600080fd5b50356001600160a01b031662001358565b62000201600480360360208110156200044f57600080fd5b503562001373565b62000246600480360360208110156200046f57600080fd5b50356001600160a01b031662001381565b62000246600480360360208110156200049857600080fd5b50356001600160a01b03166200155d565b6200024660048036036020811015620004c157600080fd5b50356001600160a01b0316620015fc565b6200024660048036036020811015620004ea57600080fd5b50356200164e565b620001d6600480360360e08110156200050a57600080fd5b5080359060208101359060408101359060608101359060808101359060a08101359060c001356001600160a01b03166200170b565b6200024662001933565b62000246600480360360208110156200056157600080fd5b50356001600160a01b031662001939565b620001d6600480360360a08110156200058a57600080fd5b8135916001600160a01b03602082013581169260408301358216926060810135909216919081019060a081016080820135600160201b811115620005cd57600080fd5b820183602082011115620005e057600080fd5b803590602001918460018302840111600160201b831117156200060257600080fd5b91908080601f0160208091040260200160405190810160405280939291908181526020018383808284376000920191909152509295506200194b945050505050565b62000246600480360360208110156200065c57600080fd5b503562001bd2565b6200020162001bfc565b6200020162001c0b565b620001d6600480360360208110156200069057600080fd5b50356001600160a01b031662001c1a565b6200024660048036036040811015620006b957600080fd5b506001600160a01b038135811691602001351662001d07565b6000620006df33620011b6565b90506000620006ee3362000dd3565b9050600062000704828463ffffffff62001da316565b9050838110156200075a576040805162461bcd60e51b815260206004820152601b60248201527a109bdc9c9bddda5b99c81b5bdc99481d1a185b88185b1b1bddd959602a1b604482015290519081900360640190fd5b336000908152600960205260409020546200077c908563ffffffff62001de716565b336000818152600960209081526040808320949094556001600160a01b0389811683526008909152838220548451631196a36960e11b8152600481018a905260248101949094529351931692839263232d46d292604480830193919282900301818387803b158015620007ee57600080fd5b505af115801562000803573d6000803e3d6000fd5b5050604080513381526001600160a01b038a16602082015280820189905290517f39afaad37daff6f7a5998bf9de35bb3f46d51f73227bb182d92c016c981a82909350908190036060019150a1505050505050565b6008602052600090815260409020546001600160a01b031681565b600080620008818362001381565b90506200088e8162001bd2565b9392505050565b60065490565b60065460006060826001600160401b0381118015620008b957600080fd5b50604051908082528060200260200182016040528015620008e4578160200160208202803683370190505b50905060005b83811015620009de576000600682815481106200090357fe5b6000918252602080832090910154604080516305eff7ef60e21b81526001600160a01b038b81166004830152915191909216945084936317bfdfbc93602480850194919392918390030190829087803b1580156200096057600080fd5b505af115801562000975573d6000803e3d6000fd5b505050506040513d60208110156200098c57600080fd5b505183518490849081106200099d57fe5b602002602001018181525050620009d2838381518110620009ba57fe5b60200260200101518562001de790919063ffffffff16565b935050600101620008ea565b506000620009ec8562000dd3565b905082811162000a71576001600160a01b0385166000908152600b60205260409020541562000a1a57600080fd5b6001600160a01b0385166000818152600b6020908152604091829020429081905582519384529083015280517f8c8c19ede31d34679a9546f29f1c360e588c89ffb0792c110c317a3463f7288c9281900390910190a15b5050505050565b6001546040805163b04c6d3f60e01b81526001600160a01b0384811660048301529151600093929092169163b04c6d3f91602480820192602092909190829003018186803b15801562000aca57600080fd5b505afa15801562000adf573d6000803e3d6000fd5b505050506040513d602081101562000af657600080fd5b505192915050565b6004546001600160a01b031681565b6005818154811062000b1b57fe5b6000918252602090912001546001600160a01b0316905081565b600a6020526000908152604090205460ff1681565b6002546001600160a01b031681565b62000b6362001e40565b6000546001600160a01b0390811691161462000bb5576040805162461bcd60e51b8152602060048201819052602482015260008051602062002a5f833981519152604482015290519081900360640190fd5b600080546040516001600160a01b039091169060008051602062002a7f833981519152908390a3600080546001600160a01b0319169055565b60055460009081805b8281101562000dcb5760006005828154811062000c1057fe5b6000918252602080832090910154604080516313082b1d60e21b815290516001600160a01b0390921694508492634c20ac7492600480840193829003018186803b15801562000c5e57600080fd5b505afa15801562000c73573d6000803e3d6000fd5b505050506040513d602081101562000c8a57600080fd5b50516001546040805163fc57d4df60e01b81526001600160a01b0380851660048301529151939450600093919092169163fc57d4df91602480830192602092919082900301818787803b15801562000ce157600080fd5b505af115801562000cf6573d6000803e3d6000fd5b505050506040513d602081101562000d0d57600080fd5b50516040805163f919b4bf60e01b81526001600160a01b038b8116600483015291519293506000929186169163f919b4bf91602480820192602092909190829003018186803b15801562000d6057600080fd5b505afa15801562000d75573d6000803e3d6000fd5b505050506040513d602081101562000d8c57600080fd5b50519050600062000da4828463ffffffff62001e4416565b905062000db8878263ffffffff62001de716565b9650505050505080600101905062000bf7565b509392505050565b600080620008818362000bee565b336001600160a01b038216141562000df857600080fd5b6001600160a01b0381166000908152600b602052604090205462000e259061070863ffffffff62001de716565b42101562000e3257600080fd5b60065460055460006060836001600160401b038111801562000e5357600080fd5b5060405190808252806020026020018201604052801562000e7e578160200160208202803683370190505b50905060005b8481101562000f605760006006828154811062000e9d57fe5b6000918252602080832090910154604080516305eff7ef60e21b81526001600160a01b038c81166004830152915191909216945084936317bfdfbc93602480850194919392918390030190829087803b15801562000efa57600080fd5b505af115801562000f0f573d6000803e3d6000fd5b505050506040513d602081101562000f2657600080fd5b5051835184908490811062000f3757fe5b60200260200101818152505062000f54838381518110620009ba57fe5b93505060010162000e84565b50600062000f6e8662000dd3565b90508281116200114a5760005b85811015620010695760006006828154811062000f9457fe5b9060005260206000200160009054906101000a90046001600160a01b03169050806001600160a01b031663ab292f9b893387868151811062000fd257fe5b60200260200101516040518463ffffffff1660e01b815260040180846001600160a01b03166001600160a01b03168152602001836001600160a01b03166001600160a01b031681526020018281526020019350505050600060405180830381600087803b1580156200104357600080fd5b505af115801562001058573d6000803e3d6000fd5b505050505080600101905062000f7b565b5060005b8481101562001148576000600582815481106200108657fe5b600091825260208220015460408051633d2d78f960e21b81526001600160a01b038c811660048301523360248301529151919092169350839263f4b5e3e4926044808201939182900301818387803b158015620010e257600080fd5b505af1158015620010f7573d6000803e3d6000fd5b5050604080516001600160a01b038c16815233602082015281517fce054da468b0607d4d65949d7572acd17087e593b3e5be27ba665ba1a60ad75b9450908190039091019150a1506001016200106d565b505b6001600160a01b0386166000818152600b60209081526040808320929092558151928352429083015280517f693c96c553edae7cfbc0a30a15d746ffd508e26a931f968b41b03057a68793b89281900390910190a1505050505050565b6000546001600160a01b031690565b60065460009081805b8281101562000dcb57600060068281548110620011d857fe5b6000918252602080832090910154604080516305eff7ef60e21b81526001600160a01b038b811660048301529151919092169450620012759385936317bfdfbc936024808201949293918390030190829087803b1580156200123957600080fd5b505af11580156200124e573d6000803e3d6000fd5b505050506040513d60208110156200126557600080fd5b5051849063ffffffff62001de716565b925050600101620011bf565b6000806200128f84620011b6565b905060006200129e8562000bee565b90506000620012b4828463ffffffff62001da316565b6001546040805163fc57d4df60e01b81526001600160a01b0389811660048301529151939450600093919092169163fc57d4df91602480830192602092919082900301818787803b1580156200130957600080fd5b505af11580156200131e573d6000803e3d6000fd5b505050506040513d60208110156200133557600080fd5b505190506200134b828263ffffffff62001e4416565b9450505050505b92915050565b6007602052600090815260409020546001600160a01b031681565b6006818154811062000b1b57fe5b60055460009081805b8281101562000dcb57600060058281548110620013a357fe5b6000918252602080832090910154604080516313082b1d60e21b815290516001600160a01b0390921694508492634c20ac7492600480840193829003018186803b158015620013f157600080fd5b505afa15801562001406573d6000803e3d6000fd5b505050506040513d60208110156200141d57600080fd5b50516001546040805163b04c6d3f60e01b81526001600160a01b0380851660048301529151939450600093919092169163b04c6d3f916024808301926020929190829003018186803b1580156200147357600080fd5b505afa15801562001488573d6000803e3d6000fd5b505050506040513d60208110156200149f57600080fd5b50516040805163f919b4bf60e01b81526001600160a01b038b8116600483015291519293506000929186169163f919b4bf91602480820192602092909190829003018186803b158015620014f257600080fd5b505afa15801562001507573d6000803e3d6000fd5b505050506040513d60208110156200151e57600080fd5b50519050600062001536828463ffffffff62001e4416565b90506200154a878263ffffffff62001de716565b965050505050508060010190506200138a565b60065460009081805b8281101562000dcb576000600682815481106200157f57fe5b6000918252602091829020015460408051637746efab60e01b81526001600160a01b038a811660048301529151919092169350620015f0928492637746efab9260248083019392829003018186803b158015620015db57600080fd5b505afa1580156200124e573d6000803e3d6000fd5b92505060010162001566565b6001546040805163d38ca6d960e01b81526001600160a01b0384811660048301529151600093929092169163d38ca6d991602480820192602092909190829003018186803b15801562000aca57600080fd5b600080600160009054906101000a90046001600160a01b03166001600160a01b031663fa7827d26040518163ffffffff1660e01b815260040160206040518083038186803b158015620016a057600080fd5b505afa158015620016b5573d6000803e3d6000fd5b505050506040513d6020811015620016cc57600080fd5b505190506000620016ef620016e18362001bd2565b839063ffffffff62001ea216565b905062001703848263ffffffff62001e4416565b949350505050565b6200171562001e40565b6000546001600160a01b0390811691161462001767576040805162461bcd60e51b8152602060048201819052602482015260008051602062002a5f833981519152604482015290519081900360640190fd5b600086868686306040516200177c9062001fe7565b948552602085019390935260408085019290925260608401526001600160a01b039091166080830152519081900360a001906000f080158015620017c4573d6000803e3d6000fd5b506003546004805460408051636770252b60e11b81526001600160a01b03808716948201949094528784166024820152918316604483015260648201889052608482018d905251939450600093919092169163cee04a569160a480830192602092919082900301818787803b1580156200183d57600080fd5b505af115801562001852573d6000803e3d6000fd5b505050506040513d60208110156200186957600080fd5b50516001600160a01b03808516600090815260086020908152604080832080548587166001600160a01b031991821681179092556006805460018181019092557ff652222313e28459528d920b65115c16c04f3efc82aaedc97be59f3f377c0d3f0180549092168317909155818552600a845293829020805460ff191690941790935580519283529286169082015281519293507f2c3b5544df8032e6313fd1e59faede21004ab06bb69c1f6640a41566225cb00a929081900390910190a1505050505050505050565b60055490565b60096020526000908152604090205481565b6200195562001e40565b6000546001600160a01b03908116911614620019a7576040805162461bcd60e51b8152602060048201819052602482015260008051602062002a5f833981519152604482015290519081900360640190fd5b60015460408051634a42dd6d60e11b81526001600160a01b0386811660048301528581166024830152878116604483015291519190921691639485bada91606480830192600092919082900301818387803b15801562001a0657600080fd5b505af115801562001a1b573d6000803e3d6000fd5b505060025460405163a8edf11560e01b8152600481018981526001600160a01b0389811660248401526060604484019081528751606485015287516000975091909416945063a8edf115938b938b9389939092916084019060208501908083838d5b8381101562001a9757818101518382015260200162001a7d565b50505050905090810190601f16801562001ac55780820380516001836020036101000a031916815260200191505b50945050505050602060405180830381600087803b15801562001ae757600080fd5b505af115801562001afc573d6000803e3d6000fd5b505050506040513d602081101562001b1357600080fd5b50516001600160a01b03868116600090815260076020908152604080832080546001600160a01b03199081169587169586179091556005805460018181019092557f036b6384b5eca791c62761152d0c79bb0604c104a5fb6f4eb0703f3154bb3db00180549092168617909155848452600a835292819020805460ff1916909317909255815192835290519293507fe4136410250c225cb6546e2f16dccea79b35b32f295f337362d04375101342ff92918290030190a1505050505050565b60008062001be883600363ffffffff62001ea216565b90506200088e818063ffffffff62001de716565b6003546001600160a01b031681565b6001546001600160a01b031681565b62001c2462001e40565b6000546001600160a01b0390811691161462001c76576040805162461bcd60e51b8152602060048201819052602482015260008051602062002a5f833981519152604482015290519081900360640190fd5b6001600160a01b03811662001cbd5760405162461bcd60e51b815260040180806020018281038252602681526020018062002a186026913960400191505060405180910390fd5b600080546040516001600160a01b038085169392169160008051602062002a7f83398151915291a3600080546001600160a01b0319166001600160a01b0392909216919091179055565b60008062001d15846200155d565b9050600062001d248562001381565b9050600062001d3a828463ffffffff62001da316565b6001546040805163b04c6d3f60e01b81526001600160a01b0389811660048301529151939450600093919092169163b04c6d3f916024808301926020929190829003018186803b15801562001d8e57600080fd5b505afa1580156200131e573d6000803e3d6000fd5b60006200088e83836040518060400160405280601e81526020017f536166654d6174683a207375627472616374696f6e206f766572666c6f77000081525062001ee3565b6000828201838110156200088e576040805162461bcd60e51b815260206004820152601b60248201527a536166654d6174683a206164646974696f6e206f766572666c6f7760281b604482015290519081900360640190fd5b3390565b60008262001e555750600062001352565b8282028284828162001e6357fe5b04146200088e5760405162461bcd60e51b815260040180806020018281038252602181526020018062002a3e6021913960400191505060405180910390fd5b60006200088e83836040518060400160405280601a815260200179536166654d6174683a206469766973696f6e206279207a65726f60301b81525062001f7e565b6000818484111562001f765760405162461bcd60e51b81526004018080602001828103825283818151815260200191508051906020019080838360005b8381101562001f3a57818101518382015260200162001f20565b50505050905090810190601f16801562001f685780820380516001836020036101000a031916815260200191505b509250505060405180910390fd5b505050900390565b6000818362001fd05760405162461bcd60e51b815260206004820181815283516024840152835190928392604490910191908501908083836000831562001f3a57818101518382015260200162001f20565b50600083858162001fdd57fe5b0495945050505050565b610a228062001ff68339019056fe608060405234801561001057600080fd5b50604051610a22380380610a22833981810160405260a081101561003357600080fd5b508051602082015160408301516060840151608090940151600080546001600160a01b0319166001600160a01b03831617905592939192909190848484848461007e8585858561008d565b505050505050505050506102bc565b6100a7622014808561017060201b61057e1790919060201c565b6002556100f66100c562201480836101c1602090811b61052517901c565b6100e4670de0b6b3a7640000866101c160201b6105251790919060201c565b61017060201b61057e1790919060201c565b6001556101118262201480610170602090811b61057e17901c565b60038190556004829055600254600154604080519283526020830191909152818101929092526060810183905290517f6960ab234c7ef4b0c9197100f5393cfcde7c453ac910a27bd2000aa1dd4c068d9181900360800190a150505050565b60006101b883836040518060400160405280601a81526020017f536166654d6174683a206469766973696f6e206279207a65726f00000000000081525061021a60201b60201c565b90505b92915050565b6000826101d0575060006101bb565b828202828482816101dd57fe5b04146101b85760405162461bcd60e51b8152600401808060200182810382526021815260200180610a016021913960400191505060405180910390fd5b600081836102a65760405162461bcd60e51b81526004018080602001828103825283818151815260200191508051906020019080838360005b8381101561026b578181015183820152602001610253565b50505050905090810190601f1680156102985780820380516001836020036101000a031916815260200191505b509250505060405180910390fd5b5060008385816102b257fe5b0495945050505050565b610736806102cb6000396000f3fe608060405234801561001057600080fd5b506004361061008e5760003560e01c806315f24053146100935780632037f3e7146100ce5780636e71e2d8146100ff5780638726bb89146101285780638da5cb5b14610130578063a385fb9614610154578063b81688161461015c578063b9f9850a1461018b578063f14039de14610193578063fd2da3391461019b575b600080fd5b6100bc600480360360608110156100a957600080fd5b50803590602081013590604001356101a3565b60408051918252519081900360200190f35b6100fd600480360360808110156100e457600080fd5b50803590602081013590604081013590606001356101ba565b005b6100bc6004803603606081101561011557600080fd5b5080359060208101359060400135610215565b6100bc61026b565b610138610271565b604080516001600160a01b039092168252519081900360200190f35b6100bc610280565b6100bc6004803603608081101561017257600080fd5b5080359060208101359060408101359060600135610287565b6100bc610306565b6100bc61030c565b6100bc610312565b60006101b0848484610318565b90505b9392505050565b6000546001600160a01b031633146102035760405162461bcd60e51b81526004018080602001828103825260268152602001806106db6026913960400191505060405180910390fd5b61020f848484846103e1565b50505050565b600082610224575060006101b3565b6101b06102478361023b878763ffffffff61048216565b9063ffffffff6104e316565b61025f85670de0b6b3a764000063ffffffff61052516565b9063ffffffff61057e16565b60015481565b6000546001600160a01b031681565b6220148081565b6000806102a2670de0b6b3a76400008463ffffffff6104e316565b905060006102b1878787610318565b905060006102d1670de0b6b3a764000061025f848663ffffffff61052516565b90506102fa670de0b6b3a764000061025f836102ee8c8c8c610215565b9063ffffffff61052516565b98975050505050505050565b60035481565b60025481565b60045481565b600080610326858585610215565b9050600454811161036c57610364600254610358670de0b6b3a764000061025f6001548661052590919063ffffffff16565b9063ffffffff61048216565b9150506101b3565b6000610397600254610358670de0b6b3a764000061025f60015460045461052590919063ffffffff16565b905060006103b0600454846104e390919063ffffffff16565b90506103d782610358670de0b6b3a764000061025f6003548661052590919063ffffffff16565b93505050506101b3565b6103f4846220148063ffffffff61057e16565b60025561040d610247622014808363ffffffff61052516565b600155610423826220148063ffffffff61057e16565b60038190556004829055600254600154604080519283526020830191909152818101929092526060810183905290517f6960ab234c7ef4b0c9197100f5393cfcde7c453ac910a27bd2000aa1dd4c068d9181900360800190a150505050565b6000828201838110156104da576040805162461bcd60e51b815260206004820152601b60248201527a536166654d6174683a206164646974696f6e206f766572666c6f7760281b604482015290519081900360640190fd5b90505b92915050565b60006104da83836040518060400160405280601e81526020017f536166654d6174683a207375627472616374696f6e206f766572666c6f7700008152506105bd565b600082610534575060006104dd565b8282028284828161054157fe5b04146104da5760405162461bcd60e51b81526004018080602001828103825260218152602001806106ba6021913960400191505060405180910390fd5b60006104da83836040518060400160405280601a815260200179536166654d6174683a206469766973696f6e206279207a65726f60301b815250610654565b6000818484111561064c5760405162461bcd60e51b81526004018080602001828103825283818151815260200191508051906020019080838360005b838110156106115781810151838201526020016105f9565b50505050905090810190601f16801561063e5780820380516001836020036101000a031916815260200191505b509250505060405180910390fd5b505050900390565b600081836106a35760405162461bcd60e51b81526020600482018181528351602484015283519092839260449091019190850190808383600083156106115781810151838201526020016105f9565b5060008385816106af57fe5b049594505050505056fe536166654d6174683a206d756c7469706c69636174696f6e206f766572666c6f776f6e6c7920746865206f776e6572206d61792063616c6c20746869732066756e6374696f6e2ea264697066735822122035d6d0aa1f8af11c35463166a687a3478a7b8a918059f546ac03fced611ef87a64736f6c63430006060033536166654d6174683a206d756c7469706c69636174696f6e206f766572666c6f774f776e61626c653a206e6577206f776e657220697320746865207a65726f2061646472657373536166654d6174683a206d756c7469706c69636174696f6e206f766572666c6f774f776e61626c653a2063616c6c6572206973206e6f7420746865206f776e65728be0079c531659141344cd1fd0a4f28419497f9722a3daafe3b4186f6b6457e0a26469706673582212204e2b75b881a0fca1b559472fcdeb119d7e05c0dd5456170194a5982bb63247ca64736f6c63430006060033",
  "immutableReferences": {},
  "source": "pragma solidity ^0.6.0;\r\n\r\nimport \"@openzeppelin/contracts/access/Ownable.sol\";\r\nimport \"@openzeppelin/contracts/math/SafeMath.sol\";\r\nimport \"@openzeppelin/contracts/token/ERC20/IERC20.sol\";\r\nimport \"./interfaces/WarpVaultSCI.sol\";\r\nimport \"./interfaces/WarpVaultLPI.sol\";\r\nimport \"./interfaces/WarpVaultLPFactoryI.sol\";\r\nimport \"./interfaces/WarpVaultSCFactoryI.sol\";\r\nimport \"./interfaces/UniswapLPOracleFactoryI.sol\";\r\nimport \"./compound/JumpRateModelV2.sol\";\r\nimport \"./compound/Exponential.sol\";\r\n\r\n////////////////////////////////////////////////////////////////////////////////////////////\r\n/// @title WarpControl\r\n/// @author Christopher Dixon\r\n////////////////////////////////////////////////////////////////////////////////////////////\r\n/**\r\nWarpControl is designed to coordinate Warp Vaults\r\nThis contract uses the OpenZeppelin contract Library to inherit functions from\r\n  Ownable.sol\r\n**/\r\n\r\ncontract WarpControl is Ownable, Exponential {\r\n    using SafeMath for uint256;\r\n\r\n    UniswapLPOracleFactoryI public Oracle; //oracle factory contract interface\r\n    WarpVaultLPFactoryI public WVLPF;\r\n    WarpVaultSCFactoryI public WVSCF;\r\n    address public warpTeam;\r\n\r\n    address[] public lpVaults;\r\n    address[] public scVaults;\r\n\r\n    mapping(address => address) public instanceLPTracker; //maps LP token address to the assets WarpVault\r\n    mapping(address => address) public instanceSCTracker;\r\n    mapping(address => uint256) public lockedLPValue;\r\n    mapping(address => bool) public isVault;\r\n\r\n    mapping(address => uint256) nonCompliant;\r\n\r\n    event NewLPVault(address _newVault);\r\n    event NewSCVault(address _newVault, address _interestRateModel);\r\n    event NewBorrow(address _borrower, address _StableCoin, uint _amountBorrowed);\r\n    event NotCompliant(address _account, uint _time);\r\n    event Liquidation(address _account, address liquidator);\r\n    event complianceReset(address _account, uint _time);\r\n    /**\r\n      @dev Throws if called by any account other than a warp vault\r\n     */\r\n    modifier onlyVault() {\r\n        require(isVault[msg.sender] == true);\r\n        _;\r\n    }\r\n\r\n    /**\r\n    @notice the constructor function is fired during the contract deployment process. The constructor can only be fired once and\r\n            is used to set up Oracle variables for the MoneyMarketFactory contract.\r\n    @param _oracle is the address for the UniswapOracleFactorycontract\r\n    @param _WVLPF is the address for the WarpVaultLPFactory used to produce LP Warp Vaults\r\n    @param _WVSCF is the address for the WarpVaultSCFactory used to produce Stable Coin Warp Vaults\r\n    @dev These factories are split into seperate contracts to avoid hitting the block gas limit\r\n    **/\r\n    constructor(\r\n        address _oracle,\r\n        address _WVLPF,\r\n        address _WVSCF,\r\n        address _warpTeam\r\n    ) public {\r\n        //instantiate the contracts\r\n        Oracle = UniswapLPOracleFactoryI(_oracle);\r\n        WVLPF = WarpVaultLPFactoryI(_WVLPF);\r\n        WVSCF = WarpVaultSCFactoryI(_WVSCF);\r\n        warpTeam = _warpTeam;\r\n    }\r\n\r\n    function viewNumLPVaults() external view returns(uint256) {\r\n        return lpVaults.length;\r\n    }\r\n\r\n    function viewNumSCVaults() external view returns(uint256) {\r\n        return scVaults.length;\r\n    }\r\n\r\n    /**\r\n    @notice createNewLPVault allows the contract owner to create a new WarpVaultLP contract for a specific LP token\r\n    @param _timelock is a variable representing the number of seconds the timeWizard will prevent withdraws and borrows from a contracts(one week is 605800 seconds)\r\n    @param _lp is the address for the LP token this Warp Vault will manage\r\n    @param _lpAsset1 is the address for the first asset in a pair that the LP token represents(ex: wETH in a wETH-wBTC uniswap pair)\r\n    @param _lpAsset2 is the address for the second asset in a pair that the LP token represents(ex: wBTC in a wETH-wBTC uniswap pair)\r\n    @param _lpName is the name of the LP token (ex:wETH-wBTC)\r\n    **/\r\n    function createNewLPVault(\r\n        uint256 _timelock,\r\n        address _lp,\r\n        address _lpAsset1,\r\n        address _lpAsset2,\r\n        string memory _lpName\r\n    ) public onlyOwner {\r\n        //create new oracles for this LP\r\n        Oracle.createNewOracles(_lpAsset1, _lpAsset2, _lp);\r\n        //create new Warp LP Vault\r\n        address _WarpVault = WVLPF.createWarpVaultLP(_timelock, _lp, _lpName);\r\n        //track the warp vault lp instance by the address of the LP it represents\r\n        instanceLPTracker[_lp] = _WarpVault;\r\n        //add new LP Vault to the array of all LP vaults\r\n        lpVaults.push(_WarpVault);\r\n        //set Warp vault address as an approved vault\r\n        isVault[_WarpVault] = true;\r\n        emit NewLPVault(_WarpVault);\r\n    }\r\n\r\n    /**\r\n    @notice createNewSCVault allows the contract owner to create a new WarpVaultLP contract for a specific LP token\r\n    @param _timelock is a variable representing the number of seconds the timeWizard will prevent withdraws and borrows from a contracts(one week is 605800 seconds)\r\n    @param _baseRatePerYear is the base rate per year(approx target base APR)\r\n    @param _multiplierPerYear is the multiplier per year(rate of increase in interest w/ utilizastion)\r\n    @param _jumpMultiplierPerYear is the Jump Multiplier Per Year(the multiplier per block after hitting a specific utilizastion point)\r\n    @param _optimal is the this is the utilizastion point or \"kink\" at which the jump multiplier is applied\r\n    @param _initialExchangeRate is the intitial exchange rate(the rate at which the initial exchange of asset/ART is set)\r\n    @param _StableCoin is the address of the StableCoin this Warp Vault will manage\r\n    **/\r\n    function createNewSCVault(\r\n        uint256 _timelock,\r\n        uint256 _baseRatePerYear,\r\n        uint256 _multiplierPerYear,\r\n        uint256 _jumpMultiplierPerYear,\r\n        uint256 _optimal,\r\n        uint256 _initialExchangeRate,\r\n        address _StableCoin\r\n    ) public onlyOwner {\r\n        //create the interest rate model for this stablecoin\r\n        address IR = address(\r\n            new JumpRateModelV2(\r\n                _baseRatePerYear,\r\n                _multiplierPerYear,\r\n                _jumpMultiplierPerYear,\r\n                _optimal,\r\n                address(this)\r\n            )\r\n        );\r\n        //create the SC Warp vault\r\n        address _WarpVault = WVSCF.createNewWarpVaultSC(\r\n            IR,\r\n            _StableCoin,\r\n            warpTeam,\r\n            _initialExchangeRate,\r\n            _timelock\r\n        );\r\n        //track the warp vault sc instance by the address of the stablecoin it represents\r\n        instanceSCTracker[_StableCoin] = _WarpVault;\r\n        //add new SC Vault to the array of all SC vaults\r\n        scVaults.push(_WarpVault);\r\n        //set Warp vault address as an approved vault\r\n        isVault[_WarpVault] = true;\r\n        emit NewSCVault(_WarpVault, IR);\r\n    }\r\n\r\n    /**\r\n    @notice Figures out how much of a given LP token an account is allowed to withdraw\r\n     */\r\n    function getMaxWithdrawAllowed(address account, address lpToken) public returns (uint256) {\r\n      //gets how much a user has borrowed against in USDC\r\n        uint256 borrowedTotal = getTotalBorrowedValue(account);\r\n      //gets the total USDC value of a users availible collateral\r\n        uint256 collateralValue = getTotalAvailableCollateralValue(account);\r\n      //determines usable collateral value\r\n        uint256 usableCollateral = collateralValue.sub(borrowedTotal);\r\n      //get current price of one LP token\r\n        uint256 lpValue = Oracle.getUnderlyingPrice(lpToken);\r\n      //return one lp value multiplied by their usable collateral for total LPs that are usable(or can be withdrawn)\r\n        return usableCollateral.mul(lpValue);\r\n    }\r\n\r\n    function viewMaxWithdrawAllowed(address account, address lpToken) public view returns (uint256) {\r\n        uint256 borrowedTotal = viewTotalBorrowedValue(account);\r\n        uint256 collateralValue = viewTotalAvailableCollateralValue(account);\r\n        uint256 usableCollateral = collateralValue.sub(borrowedTotal);\r\n        uint256 lpValue = Oracle.viewUnderlyingPrice(lpToken);\r\n        return usableCollateral.mul(lpValue);\r\n    }\r\n\r\n    function getTotalAvailableCollateralValue(address _account)\r\n        public\r\n        returns (uint256)\r\n    {\r\n        //get the number of LP vaults the platform has\r\n        uint256 numVaults = lpVaults.length;\r\n        //initialize the totalCollateral variable to zero\r\n        uint256 totalCollateral = 0;\r\n        //loop through each lp wapr vault\r\n        for (uint256 i = 0; i < numVaults; ++i) {\r\n            //instantiate warp vault at that position\r\n            WarpVaultLPI vault = WarpVaultLPI(lpVaults[i]);\r\n            //retreive the address of its asset\r\n            address asset = vault.getAssetAdd();\r\n            //retrieve USD price of this asset\r\n            uint256 assetPrice = Oracle.getUnderlyingPrice(asset);\r\n\r\n            uint256 accountCollateral = vault.collateralOfAccount(_account);\r\n            //emit DebugValues(accountCollateral, assetPrice);\r\n\r\n            //multiply the amount of collateral by the asset price and return it\r\n            uint256 accountAssetsValue = accountCollateral.mul(assetPrice);\r\n            //add value to total collateral\r\n            totalCollateral = totalCollateral.add(accountAssetsValue);\r\n        }\r\n        //return total USDC value of all collateral\r\n        return totalCollateral;\r\n    }\r\n\r\n    function viewTotalAvailableCollateralValue(address _account)\r\n        public\r\n        view\r\n        returns (uint256)\r\n    {\r\n        uint256 numVaults = lpVaults.length;\r\n        uint256 totalCollateral = 0;\r\n        //loop through each lp wapr vault\r\n        for (uint256 i = 0; i < numVaults; ++i) {\r\n            //instantiate warp vault at that position\r\n            WarpVaultLPI vault = WarpVaultLPI(lpVaults[i]);\r\n            //retreive the address of its asset\r\n            address asset = vault.getAssetAdd();\r\n            //retrieve USD price of this asset\r\n            uint256 assetPrice = Oracle.viewUnderlyingPrice(asset);\r\n\r\n            uint256 accountCollateral = vault.collateralOfAccount(_account);\r\n\r\n            //multiply the amount of collateral by the asset price and return it\r\n            uint256 accountAssetsValue = accountCollateral.mul(assetPrice);\r\n            //add value to total collateral\r\n            totalCollateral = totalCollateral.add(accountAssetsValue);\r\n        }\r\n        //return total USDC value of all collateral\r\n        return totalCollateral;\r\n    }\r\n\r\n    function viewPriceOfCollateral(address lpToken) public view returns(uint256)\r\n    {\r\n        return Oracle.viewUnderlyingPrice(lpToken);\r\n    }\r\n\r\n    function viewPriceOfToken(address token) public view returns(uint256)\r\n    {\r\n        return Oracle.viewPriceOfToken(token);\r\n    }\r\n\r\n    function viewTotalBorrowedValue(address _account) public view returns (uint256) {\r\n        uint256 numSCVaults = scVaults.length;\r\n        //initialize the totalBorrowedValue variable to zero\r\n        uint256 totalBorrowedValue = 0;\r\n        //loop through all stable coin vaults\r\n        for (uint256 i = 0; i < numSCVaults; ++i) {\r\n            //instantiate each LP warp vault\r\n            WarpVaultSCI WVSC = WarpVaultSCI(scVaults[i]);\r\n            //retreive the amount user has borrowed from each stablecoin vault\r\n            totalBorrowedValue = totalBorrowedValue.add(\r\n                WVSC.borrowBalancePrior(_account)\r\n            );\r\n        }\r\n        //return total Borrowed Value\r\n        return totalBorrowedValue;\r\n    }\r\n\r\n    function getTotalBorrowedValue(address _account) public returns (uint256) {\r\n        uint256 numSCVaults = scVaults.length;\r\n        //initialize the totalBorrowedValue variable to zero\r\n        uint256 totalBorrowedValue = 0;\r\n        //loop through all stable coin vaults\r\n        for (uint256 i = 0; i < numSCVaults; ++i) {\r\n            //instantiate each LP warp vault\r\n            WarpVaultSCI WVSC = WarpVaultSCI(scVaults[i]);\r\n            //retreive the amount user has borrowed from each stablecoin vault\r\n            totalBorrowedValue = totalBorrowedValue.add(\r\n                WVSC.borrowBalanceCurrent(_account)\r\n            );\r\n        }\r\n        //return total Borrowed Value\r\n        return totalBorrowedValue;\r\n    }\r\n\r\n    /**\r\n    @notice calcBorrowLimit is used to calculate the borrow limit for an account based on the input value of their collateral\r\n    @param _collateralValue is the USDC value of the users collateral\r\n    @dev this function divides the input value by 3 and then adds that value to itself so it can return 2/3rds of the availible collateral\r\n        as the borrow limit. If a usser has $150 USDC value in collateral this function will return $100 USDC as their borrow limit.\r\n    **/\r\n    function calcBorrowLimit(uint256 _collateralValue)\r\n        public\r\n        pure\r\n        returns (uint256)\r\n    {\r\n        //divide the collaterals value by 3 to get 1/3rd of its value\r\n        uint256 thirdCollatVal = _collateralValue.div(3);\r\n        //add this 1/3rd value to itself to get 2/3rds of the original value\r\n        return thirdCollatVal.add(thirdCollatVal);\r\n    }\r\n\r\n    function calcCollateralRequired(uint256 _borrowAmount) public view returns (uint256) {\r\n        uint256 oneUSDC = Oracle.OneUSDC();\r\n        uint256 factor = oneUSDC.div(calcBorrowLimit(oneUSDC));\r\n        return _borrowAmount.mul(factor);\r\n    }\r\n\r\n    function getBorrowLimit(address _account) public returns (uint256) {\r\n        uint256 availibleCollateralValue = getTotalAvailableCollateralValue(\r\n            _account\r\n        );\r\n\r\n        return calcBorrowLimit(availibleCollateralValue);\r\n    }\r\n\r\n    function viewBorrowLimit(address _account) public view returns (uint256) {\r\n        uint256 availibleCollateralValue = viewTotalAvailableCollateralValue(\r\n            _account\r\n        );\r\n        //return the users borrow limit\r\n        return calcBorrowLimit(availibleCollateralValue);\r\n    }\r\n\r\n    /**\r\n@notice borrowSC is the function an end user will call when they wish to borrow a stablecoin from the warp platform\r\n@param _StableCoin is the address of the stablecoin the user wishes to borrow\r\n@param _amount is the amount of that stablecoin the user wants to borrow\r\n**/\r\n    function borrowSC(address _StableCoin, uint256 _amount) public {\r\n        uint256 borrowedTotal = getTotalBorrowedValue(msg.sender);\r\n        uint256 availibleCollateralValue = getBorrowLimit(msg.sender);\r\n        //calculate USDC amount of what the user is allowed to borrow\r\n        uint256 borrowAmountAllowed = availibleCollateralValue.sub(\r\n            borrowedTotal\r\n        );\r\n        //require the amount being borrowed is less than or equal to the amount they are aloud to borrow\r\n        require(borrowAmountAllowed >= _amount, \"Borrowing more than allowed\");\r\n        //track USDC value of locked LP\r\n        lockedLPValue[msg.sender] = lockedLPValue[msg.sender].add(_amount);\r\n        //retreive stablecoin vault address being borrowed from and instantiate it\r\n        WarpVaultSCI WV = WarpVaultSCI(instanceSCTracker[_StableCoin]);\r\n        //call _borrow function on the stablecoin warp vault\r\n        WV._borrow(_amount, msg.sender);\r\n        emit NewBorrow(msg.sender, _StableCoin, _amount);\r\n    }\r\n\r\n    /**\r\n      @notice markAccountNonCompliant is used by a potential liquidator to mark an account as non compliant which starts its 30 minute timer\r\n      @param _borrower is the address of the non compliant borrower\r\n      **/\r\n    function markAccountNonCompliant(address _borrower) public {\r\n      //retreive the number of LP vaults in the warp platform\r\n        uint256 numSCVaults = scVaults.length;\r\n        //initialize the borrowedAmount variable\r\n        uint256 borrowedAmount = 0;\r\n        //initialize the stable coin balances array\r\n        uint256[] memory scBalances = new uint256[](numSCVaults);\r\n        for (uint256 i = 0; i < numSCVaults; ++i) {\r\n            //instantiate the vault at the current  position in the array\r\n            WarpVaultSCI scVault = WarpVaultSCI(scVaults[i]);\r\n            //retreive the borrowers borrow balance from this vault and add it to the scBalances array\r\n            scBalances[i] = scVault.borrowBalanceCurrent(_borrower);\r\n            //add the borrowed amount to the total borrowed balance\r\n            borrowedAmount = borrowedAmount.add(scBalances[i]);\r\n        }\r\n        //retreve the USDC borrow limit for the borrower\r\n        uint256 borrowLimit = getBorrowLimit(_borrower);\r\n        //check if the borrow is less than the borrowed amount\r\n        if (borrowLimit <= borrowedAmount) {\r\n          //require the borrower isnt already non compliant\r\n        require(nonCompliant[_borrower] == 0);\r\n        //record the time of non compliance\r\n        nonCompliant[_borrower] = now;\r\n        emit NotCompliant(_borrower, now);\r\n      }\r\n    }\r\n\r\n    /**\r\n@notice liquidateAccount is used to liquidate a non-compliant loan after it has reached its 30 minute grace period\r\n@param _borrower is the address of the borrower whos loan is non-compliant\r\n**/\r\n    function liquidateAccount(address _borrower) public {\r\n        //require the liquidator is not also the borrower\r\n        require(msg.sender != _borrower);\r\n        //require is has been a half hour since the loan was first seen to be non-compliant\r\n        require(now >= nonCompliant[_borrower].add(1800));\r\n        //retreive the number of stablecoin vaults in the warp platform\r\n        uint256 numSCVaults = scVaults.length;\r\n        //retreive the number of LP vaults in the warp platform\r\n        uint256 numLPVaults = lpVaults.length;\r\n        //initialize the borrowedAmount variable\r\n        uint256 borrowedAmount = 0;\r\n        //initialize the stable coin balances array\r\n        uint256[] memory scBalances = new uint256[](numSCVaults);\r\n        // loop through and retreive the Borrowed Amount From All Vaults\r\n        for (uint256 i = 0; i < numSCVaults; ++i) {\r\n            //instantiate the vault at the current  position in the array\r\n            WarpVaultSCI scVault = WarpVaultSCI(scVaults[i]);\r\n            //retreive the borrowers borrow balance from this vault and add it to the scBalances array\r\n            scBalances[i] = scVault.borrowBalanceCurrent(_borrower);\r\n            //add the borrowed amount to the total borrowed balance\r\n            borrowedAmount = borrowedAmount.add(scBalances[i]);\r\n        }\r\n        //retreve the USDC borrow limit for the borrower\r\n        uint256 borrowLimit = getBorrowLimit(_borrower);\r\n        //check if the borrow is less than the borrowed amount\r\n        if (borrowLimit <= borrowedAmount) {\r\n            // If it is Liquidate the account\r\n            //loop through each SC vault so the  Liquidator can pay off Stable Coin loans\r\n            for (uint256 i = 0; i < numSCVaults; ++i) {\r\n                //instantiate the Warp SC Vault at the current position\r\n                WarpVaultSCI scVault = WarpVaultSCI(scVaults[i]);\r\n                //call repayLiquidatedLoan function to repay the loan\r\n                scVault._repayLiquidatedLoan(\r\n                    _borrower,\r\n                    msg.sender,\r\n                    scBalances[i]\r\n                );\r\n            }\r\n            //loop through each LP vault so the Liquidator gets the LP tokens the borrower had\r\n            for (uint256 i = 0; i < numLPVaults; ++i) {\r\n                //instantiate the Wapr LP Vault at the current position\r\n                WarpVaultLPI lpVault = WarpVaultLPI(lpVaults[i]);\r\n                //call liquidateAccount function on that LP vault\r\n                lpVault._liquidateAccount(_borrower, msg.sender);\r\n                emit Liquidation(_borrower, msg.sender);\r\n            }\r\n        }\r\n        //no matter what the compliance tracker for the borrowers account is reset\r\n        nonCompliant[_borrower] = 0;\r\n        emit complianceReset(_borrower, now);\r\n    }\r\n}\r\n",
  "sourcePath": "E:/dOrg/warp/Smart-Contracts/contracts/WarpControl.sol",
  "compiler": {
    "name": "solc",
    "version": "0.6.6+commit.6c089d02.Emscripten.clang"
  },
  "schemaVersion": "3.3.1",
  "updatedAt": "2020-11-25T20:43:09.142Z",
  "devdoc": {
    "methods": {
      "borrowSC(address,uint256)": {
        "params": {
          "_StableCoin": "is the address of the stablecoin the user wishes to borrow",
          "_amount": "is the amount of that stablecoin the user wants to borrow*"
        }
      },
      "calcBorrowLimit(uint256)": {
        "details": "this function divides the input value by 3 and then adds that value to itself so it can return 2/3rds of the availible collateral as the borrow limit. If a usser has $150 USDC value in collateral this function will return $100 USDC as their borrow limit.*",
        "params": {
          "_collateralValue": "is the USDC value of the users collateral"
        }
      },
      "constructor": {
        "details": "These factories are split into seperate contracts to avoid hitting the block gas limit*",
        "params": {
          "_WVLPF": "is the address for the WarpVaultLPFactory used to produce LP Warp Vaults",
          "_WVSCF": "is the address for the WarpVaultSCFactory used to produce Stable Coin Warp Vaults",
          "_oracle": "is the address for the UniswapOracleFactorycontract"
        }
      },
      "createNewLPVault(uint256,address,address,address,string)": {
        "params": {
          "_lp": "is the address for the LP token this Warp Vault will manage",
          "_lpAsset1": "is the address for the first asset in a pair that the LP token represents(ex: wETH in a wETH-wBTC uniswap pair)",
          "_lpAsset2": "is the address for the second asset in a pair that the LP token represents(ex: wBTC in a wETH-wBTC uniswap pair)",
          "_lpName": "is the name of the LP token (ex:wETH-wBTC)*",
          "_timelock": "is a variable representing the number of seconds the timeWizard will prevent withdraws and borrows from a contracts(one week is 605800 seconds)"
        }
      },
      "createNewSCVault(uint256,uint256,uint256,uint256,uint256,uint256,address)": {
        "params": {
          "_StableCoin": "is the address of the StableCoin this Warp Vault will manage*",
          "_baseRatePerYear": "is the base rate per year(approx target base APR)",
          "_initialExchangeRate": "is the intitial exchange rate(the rate at which the initial exchange of asset/ART is set)",
          "_jumpMultiplierPerYear": "is the Jump Multiplier Per Year(the multiplier per block after hitting a specific utilizastion point)",
          "_multiplierPerYear": "is the multiplier per year(rate of increase in interest w/ utilizastion)",
          "_optimal": "is the this is the utilizastion point or \"kink\" at which the jump multiplier is applied",
          "_timelock": "is a variable representing the number of seconds the timeWizard will prevent withdraws and borrows from a contracts(one week is 605800 seconds)"
        }
      },
      "liquidateAccount(address)": {
        "params": {
          "_borrower": "is the address of the borrower whos loan is non-compliant*"
        }
      },
      "markAccountNonCompliant(address)": {
        "params": {
          "_borrower": "is the address of the non compliant borrower*"
        }
      },
      "owner()": {
        "details": "Returns the address of the current owner."
      },
      "renounceOwnership()": {
        "details": "Leaves the contract without owner. It will not be possible to call `onlyOwner` functions anymore. Can only be called by the current owner.     * NOTE: Renouncing ownership will leave the contract without an owner, thereby removing any functionality that is only available to the owner."
      },
      "transferOwnership(address)": {
        "details": "Transfers ownership of the contract to a new account (`newOwner`). Can only be called by the current owner."
      }
    }
  },
  "userdoc": {
    "methods": {
      "borrowSC(address,uint256)": {
        "notice": "borrowSC is the function an end user will call when they wish to borrow a stablecoin from the warp platform"
      },
      "calcBorrowLimit(uint256)": {
        "notice": "calcBorrowLimit is used to calculate the borrow limit for an account based on the input value of their collateral"
      },
      "constructor": "the constructor function is fired during the contract deployment process. The constructor can only be fired once and is used to set up Oracle variables for the MoneyMarketFactory contract.",
      "createNewLPVault(uint256,address,address,address,string)": {
        "notice": "createNewLPVault allows the contract owner to create a new WarpVaultLP contract for a specific LP token"
      },
      "createNewSCVault(uint256,uint256,uint256,uint256,uint256,uint256,address)": {
        "notice": "createNewSCVault allows the contract owner to create a new WarpVaultLP contract for a specific LP token"
      },
      "getMaxWithdrawAllowed(address,address)": {
        "notice": "Figures out how much of a given LP token an account is allowed to withdraw"
      },
      "liquidateAccount(address)": {
        "notice": "liquidateAccount is used to liquidate a non-compliant loan after it has reached its 30 minute grace period"
      },
      "markAccountNonCompliant(address)": {
        "notice": "markAccountNonCompliant is used by a potential liquidator to mark an account as non compliant which starts its 30 minute timer"
      }
    },
    "notice": "WarpControl is designed to coordinate Warp Vaults This contract uses the OpenZeppelin contract Library to inherit functions from Ownable.sol*"
  }
}