{
  "contractName": "WarpControl",
  "abi": [
    {
      "inputs": [
        {
          "internalType": "address",
          "name": "_oracle",
          "type": "address"
        },
        {
          "internalType": "address",
          "name": "_DAI",
          "type": "address"
        },
        {
          "internalType": "address",
          "name": "_USDC",
          "type": "address"
        },
        {
          "internalType": "address",
          "name": "_USDT",
          "type": "address"
        }
      ],
      "stateMutability": "nonpayable",
      "type": "constructor"
    },
    {
      "anonymous": false,
      "inputs": [
        {
          "indexed": true,
          "internalType": "address",
          "name": "previousOwner",
          "type": "address"
        },
        {
          "indexed": true,
          "internalType": "address",
          "name": "newOwner",
          "type": "address"
        }
      ],
      "name": "OwnershipTransferred",
      "type": "event"
    },
    {
      "inputs": [],
      "name": "DAI",
      "outputs": [
        {
          "internalType": "address",
          "name": "",
          "type": "address"
        }
      ],
      "stateMutability": "view",
      "type": "function",
      "constant": true
    },
    {
      "inputs": [],
      "name": "Oracle",
      "outputs": [
        {
          "internalType": "contract UniswapLPOracleFactoryI",
          "name": "",
          "type": "address"
        }
      ],
      "stateMutability": "view",
      "type": "function",
      "constant": true
    },
    {
      "inputs": [],
      "name": "USDC",
      "outputs": [
        {
          "internalType": "address",
          "name": "",
          "type": "address"
        }
      ],
      "stateMutability": "view",
      "type": "function",
      "constant": true
    },
    {
      "inputs": [],
      "name": "USDT",
      "outputs": [
        {
          "internalType": "address",
          "name": "",
          "type": "address"
        }
      ],
      "stateMutability": "view",
      "type": "function",
      "constant": true
    },
    {
      "inputs": [
        {
          "internalType": "address",
          "name": "",
          "type": "address"
        }
      ],
      "name": "instanceTracker",
      "outputs": [
        {
          "internalType": "address",
          "name": "",
          "type": "address"
        }
      ],
      "stateMutability": "view",
      "type": "function",
      "constant": true
    },
    {
      "inputs": [],
      "name": "liquidationIncentiveMantissa",
      "outputs": [
        {
          "internalType": "uint256",
          "name": "",
          "type": "uint256"
        }
      ],
      "stateMutability": "view",
      "type": "function",
      "constant": true
    },
    {
      "inputs": [],
      "name": "owner",
      "outputs": [
        {
          "internalType": "address",
          "name": "",
          "type": "address"
        }
      ],
      "stateMutability": "view",
      "type": "function",
      "constant": true
    },
    {
      "inputs": [],
      "name": "renounceOwnership",
      "outputs": [],
      "stateMutability": "nonpayable",
      "type": "function"
    },
    {
      "inputs": [
        {
          "internalType": "address",
          "name": "newOwner",
          "type": "address"
        }
      ],
      "name": "transferOwnership",
      "outputs": [],
      "stateMutability": "nonpayable",
      "type": "function"
    },
    {
      "inputs": [
        {
          "internalType": "address",
          "name": "_WarpVault",
          "type": "address"
        },
        {
          "internalType": "address",
          "name": "_lp",
          "type": "address"
        },
        {
          "internalType": "address",
          "name": "_lpAsset1",
          "type": "address"
        },
        {
          "internalType": "address",
          "name": "_lpAsset2",
          "type": "address"
        },
        {
          "internalType": "uint256",
          "name": "_baseRatePerYear",
          "type": "uint256"
        },
        {
          "internalType": "uint256",
          "name": "_multiplierPerYear",
          "type": "uint256"
        },
        {
          "internalType": "uint256",
          "name": "_jumpMultiplierPerYear",
          "type": "uint256"
        },
        {
          "internalType": "uint256",
          "name": "_optimal",
          "type": "uint256"
        },
        {
          "internalType": "uint256",
          "name": "_initialExchangeRate",
          "type": "uint256"
        }
      ],
      "name": "linkNewVault",
      "outputs": [],
      "stateMutability": "nonpayable",
      "type": "function"
    },
    {
      "inputs": [
        {
          "internalType": "address",
          "name": "_borrower",
          "type": "address"
        },
        {
          "internalType": "address",
          "name": "_WarpVault",
          "type": "address"
        },
        {
          "internalType": "uint256",
          "name": "_amount",
          "type": "uint256"
        }
      ],
      "name": "trackCollateralUp",
      "outputs": [],
      "stateMutability": "nonpayable",
      "type": "function"
    },
    {
      "inputs": [
        {
          "internalType": "address",
          "name": "_borrower",
          "type": "address"
        },
        {
          "internalType": "address",
          "name": "_WarpVault",
          "type": "address"
        },
        {
          "internalType": "uint256",
          "name": "_amount",
          "type": "uint256"
        }
      ],
      "name": "trackCollateralDown",
      "outputs": [],
      "stateMutability": "nonpayable",
      "type": "function"
    },
    {
      "inputs": [
        {
          "internalType": "address",
          "name": "_borrower",
          "type": "address"
        },
        {
          "internalType": "address",
          "name": "_WarpVault",
          "type": "address"
        }
      ],
      "name": "checkCollateral",
      "outputs": [
        {
          "internalType": "uint256",
          "name": "",
          "type": "uint256"
        }
      ],
      "stateMutability": "view",
      "type": "function",
      "constant": true
    },
    {
      "inputs": [
        {
          "internalType": "address",
          "name": "_borrower",
          "type": "address"
        },
        {
          "internalType": "address",
          "name": "_WarpVault",
          "type": "address"
        },
        {
          "internalType": "uint256",
          "name": "_amount",
          "type": "uint256"
        }
      ],
      "name": "lockCollateralUp",
      "outputs": [],
      "stateMutability": "nonpayable",
      "type": "function"
    },
    {
      "inputs": [
        {
          "internalType": "address",
          "name": "_borrower",
          "type": "address"
        },
        {
          "internalType": "address",
          "name": "_WarpVault",
          "type": "address"
        },
        {
          "internalType": "uint256",
          "name": "_amount",
          "type": "uint256"
        }
      ],
      "name": "lockCollateralDown",
      "outputs": [],
      "stateMutability": "nonpayable",
      "type": "function"
    },
    {
      "inputs": [
        {
          "internalType": "address",
          "name": "_borrower",
          "type": "address"
        },
        {
          "internalType": "address",
          "name": "_WarpVault",
          "type": "address"
        }
      ],
      "name": "checkLockedCollateral",
      "outputs": [
        {
          "internalType": "uint256",
          "name": "",
          "type": "uint256"
        }
      ],
      "stateMutability": "view",
      "type": "function",
      "constant": true
    },
    {
      "inputs": [
        {
          "internalType": "address",
          "name": "_borrower",
          "type": "address"
        },
        {
          "internalType": "address",
          "name": "_WarpVault",
          "type": "address"
        }
      ],
      "name": "checkCollateralValue",
      "outputs": [
        {
          "internalType": "uint256",
          "name": "",
          "type": "uint256"
        }
      ],
      "stateMutability": "view",
      "type": "function",
      "constant": true
    },
    {
      "inputs": [
        {
          "internalType": "address",
          "name": "_borrower",
          "type": "address"
        },
        {
          "internalType": "address",
          "name": "_WarpVault",
          "type": "address"
        }
      ],
      "name": "markAccountNonCompliant",
      "outputs": [],
      "stateMutability": "nonpayable",
      "type": "function"
    },
    {
      "inputs": [
        {
          "internalType": "address",
          "name": "borrower",
          "type": "address"
        },
        {
          "internalType": "uint256",
          "name": "repayAmount",
          "type": "uint256"
        },
        {
          "internalType": "contract WarpVaultI",
          "name": "_WarpVaultowed",
          "type": "address"
        },
        {
          "internalType": "contract WarpVaultI",
          "name": "_WarpVaultcollateralized",
          "type": "address"
        }
      ],
      "name": "liquidateAccount",
      "outputs": [],
      "stateMutability": "nonpayable",
      "type": "function"
    }
  ],
  "bytecode": "0x60806040526714d1120d7b16000060015534801561001c57600080fd5b506040516117da3803806117da8339818101604052608081101561003f57600080fd5b508051602082015160408301516060909301519192909160006100696001600160e01b0361010616565b600080546001600160a01b0319166001600160a01b0383169081178255604051929350917f8be0079c531659141344cd1fd0a4f28419497f9722a3daafe3b4186f6b6457e0908290a350600580546001600160a01b039586166001600160a01b031991821617909155600280549486169482169490941790935560038054928516928416929092179091556004805491909316911617905561010a565b3390565b6116c1806101196000396000f3fe608060405234801561001057600080fd5b50600436106100f15760003560e01c80630f9368e6146100f65780633373a447146101345780634750e7191461017657806347b8dde7146101b65780634ada90af146101ec5780636a8394ad146101f4578063715018a61461022a578063873659981461023257806389a30271146102685780638da5cb5b14610270578063a85ad5a314610278578063b3f643e7146102d8578063bbae21e91461030e578063c54e44eb1461033c578063dba8010114610344578063e0bab4c414610372578063f24a534e1461037a578063f2fde38b14610382578063f8ab9371146103a8575b600080fd5b6101326004803603608081101561010c57600080fd5b506001600160a01b038135811691602081013591604082013581169160600135166103d6565b005b61015a6004803603602081101561014a57600080fd5b50356001600160a01b031661098f565b604080516001600160a01b039092168252519081900360200190f35b6101a46004803603604081101561018c57600080fd5b506001600160a01b03813581169160200135166109aa565b60408051918252519081900360200190f35b610132600480360360608110156101cc57600080fd5b506001600160a01b03813581169160208101359091169060400135610adc565b6101a4610b43565b6101326004803603606081101561020a57600080fd5b506001600160a01b03813581169160208101359091169060400135610b49565b610132610bb0565b6101326004803603606081101561024857600080fd5b506001600160a01b03813581169160208101359091169060400135610c40565b61015a610c76565b61015a610c85565b610132600480360361012081101561028f57600080fd5b506001600160a01b0381358116916020810135821691604082013581169160608101359091169060808101359060a08101359060c08101359060e0810135906101000135610c94565b610132600480360360608110156102ee57600080fd5b506001600160a01b03813581169160208101359091169060400135610e16565b6101326004803603604081101561032457600080fd5b506001600160a01b0381358116916020013516610e4c565b61015a610ea8565b6101a46004803603604081101561035a57600080fd5b506001600160a01b0381358116916020013516610eb7565b61015a610ee2565b61015a610ef1565b6101326004803603602081101561039857600080fd5b50356001600160a01b0316610f00565b6101a4600480360360408110156103be57600080fd5b506001600160a01b0381358116916020013516610fe6565b6001600160a01b0380851660009081526007602090815260408083209386168352929052205461040e9061070863ffffffff61101116565b42101561041a57600080fd5b610422611593565b826001600160a01b0316634c20ac746040518163ffffffff1660e01b815260040160206040518083038186803b15801561045b57600080fd5b505afa15801561046f573d6000803e3d6000fd5b505050506040513d602081101561048557600080fd5b50516001600160a01b039081168252604080516313082b1d60e21b8152905191841691634c20ac7491600480820192602092909190829003018186803b1580156104ce57600080fd5b505afa1580156104e2573d6000803e3d6000fd5b505050506040513d60208110156104f857600080fd5b50516001600160a01b0390811660208381019190915260055483516040805163fc57d4df60e01b8152918516600483015251600094929092169263fc57d4df92602480840193829003018186803b15801561055257600080fd5b505afa158015610566573d6000803e3d6000fd5b505050506040513d602081101561057c57600080fd5b50516005546020848101516040805163fc57d4df60e01b81526001600160a01b0392831660048201529051949550600094919093169263fc57d4df926024808301939192829003018186803b1580156105d457600080fd5b505afa1580156105e8573d6000803e3d6000fd5b505050506040513d60208110156105fe57600080fd5b50519050811580159061061057508015155b61061957600080fd5b604080516377dc0c6760e11b81526001600160a01b0389811660048301526001602483015291519187169163efb818ce916044808201926020929091908290030181600087803b15801561066c57600080fd5b505af1158015610680573d6000803e3d6000fd5b505050506040513d602081101561069657600080fd5b505160408085019190915280516377dc0c6760e11b81526001600160a01b0389811660048301526002602483015291516107319288169163efb818ce9160448083019260209291908290030181600087803b1580156106f457600080fd5b505af1158015610708573d6000803e3d6000fd5b505050506040513d602081101561071e57600080fd5b505160408501519063ffffffff61101116565b60408085019190915280516377dc0c6760e11b81526001600160a01b03898116600483015260036024830152915161078d9288169163efb818ce9160448083019260209291908290030181600087803b1580156106f457600080fd5b60408085019182526001600160a01b03808a1660009081526008602090815283822092891682529190915220546060850152516107d0908363ffffffff61107016565b608084015260608301516107ea908263ffffffff61107016565b60a0840181905261080290600263ffffffff6110c916565b60c0840181905260a084015161081d9163ffffffff61101116565b60a0840181905260808401511161095b57846001600160a01b031663bd6d894d6040518163ffffffff1660e01b8152600401602060405180830381600087803b15801561086957600080fd5b505af115801561087d573d6000803e3d6000fd5b505050506040513d602081101561089357600080fd5b505160e08401526108a26115f1565b6108aa6115f1565b6108b26115f1565b60006108c060015487611108565b9450905060008160038111156108d257fe5b146108dc57600080fd5b6108ea858860e00151611108565b9350905060008160038111156108fc57fe5b1461090657600080fd5b6109108484611144565b92509050600081600381111561092257fe5b1461092c57600080fd5b610936828b61115c565b6101008901529050600081600381111561094c57fe5b1461095657600080fd5b505050505b5050506001600160a01b03938416600090815260076020908152604080832094909616825292909252509182209190915550565b6006602052600090815260409020546001600160a01b031681565b6000803390506000816001600160a01b0316634c20ac746040518163ffffffff1660e01b815260040160206040518083038186803b1580156109eb57600080fd5b505afa1580156109ff573d6000803e3d6000fd5b505050506040513d6020811015610a1557600080fd5b50516005546040805163fc57d4df60e01b81526001600160a01b0380851660048301529151939450600093919092169163fc57d4df916024808301926020929190829003018186803b158015610a6a57600080fd5b505afa158015610a7e573d6000803e3d6000fd5b505050506040513d6020811015610a9457600080fd5b50516001600160a01b038088166000908152600860209081526040808320938a1683529290522054909150610acf818363ffffffff61107016565b9450505050505b92915050565b6001600160a01b03808416600090815260096020908152604080832093861683529290522054610b12908263ffffffff6111af16565b6001600160a01b03938416600090815260096020908152604080832095909616825293909352929091209190915550565b60015481565b6001600160a01b03808416600090815260086020908152604080832093861683529290522054610b7f908263ffffffff6111af16565b6001600160a01b03938416600090815260086020908152604080832095909616825293909352929091209190915550565b610bb86111f1565b6000546001600160a01b03908116911614610c08576040805162461bcd60e51b8152602060048201819052602482015260008051602061164c833981519152604482015290519081900360640190fd5b600080546040516001600160a01b039091169060008051602061166c833981519152908390a3600080546001600160a01b0319169055565b6001600160a01b03808416600090815260096020908152604080832093861683529290522054610b12908263ffffffff61101116565b6003546001600160a01b031681565b6000546001600160a01b031690565b610c9c6111f1565b6000546001600160a01b03908116911614610cec576040805162461bcd60e51b8152602060048201819052602482015260008051602061164c833981519152604482015290519081900360640190fd5b60055460408051634a42dd6d60e11b81526001600160a01b038a8116600483015289811660248301528b8116604483015291519190921691639485bada91606480830192600092919082900301818387803b158015610d4a57600080fd5b505af1158015610d5e573d6000803e3d6000fd5b505050506001600160a01b0388811660009081526006602052604080822080546001600160a01b0319168d8516908117909155600554825163cb5d30c160e01b8152600481018b9052602481018a9052604481018990526064810188905260848101879052941660a485015290518c93919263cb5d30c19260c4808201939182900301818387803b158015610df257600080fd5b505af1158015610e06573d6000803e3d6000fd5b5050505050505050505050505050565b6001600160a01b03808416600090815260086020908152604080832093861683529290522054610b7f908263ffffffff61101116565b6001600160a01b0380831660009081526007602090815260408083209385168352929052205415610e7c57600080fd5b6001600160a01b0391821660009081526007602090815260408083209390941682529190915220429055565b6004546001600160a01b031681565b6001600160a01b03918216600090815260096020908152604080832093909416825291909152205490565b6002546001600160a01b031681565b6005546001600160a01b031681565b610f086111f1565b6000546001600160a01b03908116911614610f58576040805162461bcd60e51b8152602060048201819052602482015260008051602061164c833981519152604482015290519081900360640190fd5b6001600160a01b038116610f9d5760405162461bcd60e51b81526004018080602001828103825260268152602001806116056026913960400191505060405180910390fd5b600080546040516001600160a01b038085169392169160008051602061166c83398151915291a3600080546001600160a01b0319166001600160a01b0392909216919091179055565b6001600160a01b03918216600090815260086020908152604080832093909416825291909152205490565b600082820183811015611069576040805162461bcd60e51b815260206004820152601b60248201527a536166654d6174683a206164646974696f6e206f766572666c6f7760281b604482015290519081900360640190fd5b9392505050565b60008261107f57506000610ad6565b8282028284828161108c57fe5b04146110695760405162461bcd60e51b815260040180806020018281038252602181526020018061162b6021913960400191505060405180910390fd5b600061106983836040518060400160405280601a815260200179536166654d6174683a206469766973696f6e206279207a65726f60301b8152506111f5565b60006111126115f1565b611138604051806020016040528086815250604051806020016040528086815250611297565b915091505b9250929050565b600061114e6115f1565b835183516111389190611381565b60008060006111696115f1565b6111738686611432565b9092509050600082600381111561118657fe5b14611197575091506000905061113d565b60006111a28261149a565b9350935050509250929050565b600061106983836040518060400160405280601e81526020017f536166654d6174683a207375627472616374696f6e206f766572666c6f7700008152506114a9565b3390565b600081836112815760405162461bcd60e51b81526004018080602001828103825283818151815260200191508051906020019080838360005b8381101561124657818101518382015260200161122e565b50505050905090810190601f1680156112735780820380516001836020036101000a031916815260200191505b509250505060405180910390fd5b50600083858161128d57fe5b0495945050505050565b60006112a16115f1565b6000806112b686600001518660000151611503565b909250905060008260038111156112c957fe5b146112e85750604080516020810190915260008152909250905061113d565b6000806112fd6706f05b59d3b2000084611542565b9092509050600082600381111561131057fe5b14611333578160405180602001604052806000815250955095505050505061113d565b60008061134883670de0b6b3a7640000611568565b9092509050600082600381111561135b57fe5b1461136257fe5b604080516020810190915290815260009a909950975050505050505050565b600061138b6115f1565b6000806113a086670de0b6b3a7640000611503565b909250905060008260038111156113b357fe5b146113d25750604080516020810190915260008152909250905061113d565b6000806113df8388611568565b909250905060008260038111156113f257fe5b14611415578160405180602001604052806000815250955095505050505061113d565b604080516020810190915290815260009890975095505050505050565b600061143c6115f1565b60008061144d866000015186611503565b9092509050600082600381111561146057fe5b1461147f5750604080516020810190915260008152909250905061113d565b60408051602081019091529081526000969095509350505050565b51670de0b6b3a7640000900490565b600081848411156114fb5760405162461bcd60e51b815260206004820181815283516024840152835190928392604490910191908501908083836000831561124657818101518382015260200161122e565b505050900390565b600080836115165750600090508061113d565b8383028385828161152357fe5b04146115375750600291506000905061113d565b60009250905061113d565b60008083830184811061155a5760009250905061113d565b50600291506000905061113d565b6000808261157c575060019050600061113d565b600083858161158757fe5b04915091509250929050565b60405180610120016040528060006001600160a01b0316815260200160006001600160a01b03168152602001600081526020016000815260200160008152602001600081526020016000815260200160008152602001600081525090565b604051806020016040528060008152509056fe4f776e61626c653a206e6577206f776e657220697320746865207a65726f2061646472657373536166654d6174683a206d756c7469706c69636174696f6e206f766572666c6f774f776e61626c653a2063616c6c6572206973206e6f7420746865206f776e65728be0079c531659141344cd1fd0a4f28419497f9722a3daafe3b4186f6b6457e0a26469706673582212200731f2594b82f9bb32c9a764c093faa03d43addb52adbe528c6b6197051d96e964736f6c63430006060033",
  "immutableReferences": {},
  "source": "pragma solidity ^0.6.0;\n\nimport \"@openzeppelin/contracts/access/Ownable.sol\";\nimport \"@openzeppelin/contracts/math/SafeMath.sol\";\nimport \"@openzeppelin/contracts/token/ERC20/IERC20.sol\";\nimport \"./interfaces/WarpVaultI.sol\";\nimport \"./interfaces/UniswapLPOracleFactoryI.sol\";\nimport \"./compound/Exponential.sol\";\n\n////////////////////////////////////////////////////////////////////////////////////////////\n/// @title WarpControl\n/// @author Christopher Dixon\n////////////////////////////////////////////////////////////////////////////////////////////\n/**\nWarpControl is designed to coordinate Warp Vaults\nThis contract uses the OpenZeppelin contract Library to inherit functions from\n  Ownable.sol\n**/\n\ncontract WarpControl is Ownable, Exponential {\n    using SafeMath for uint256;\n\n    uint256 public liquidationIncentiveMantissa = 1.5e18; // 1.5\n    address public DAI;\n    address public USDC;\n    address public USDT;\n\n    UniswapLPOracleFactoryI public Oracle; //oracle factory contract interface\n\n    mapping(address => address) public instanceTracker; //maps LP token address to the assets WarpVault\n    mapping(address => mapping(address => uint256)) nonCompliant; // tracks user to a market to a time\n    mapping(address => mapping(address => uint256)) collateralTracker; //tracks user to a market to an amount collaterlized in that market\n    mapping(address => mapping(address => uint256)) lockedCollateralTracker; //tracks user to a market to an amount collaterlized in that market\n\n    /**\n@notice the constructor function is fired during the contract deployment process. The constructor can only be fired once and\n        is used to set up Oracle variables for the MoneyMarketFactory contract.\n@param _oracle is the address for the UniswapOracleFactorycontract\n**/\n    constructor(\n        address _oracle,\n        address _DAI,\n        address _USDC,\n        address _USDT\n    ) public {\n        Oracle = UniswapLPOracleFactoryI(_oracle);\n        DAI = _DAI;\n        USDC = _USDC;\n        USDT = _USDT;\n    }\n\n    /**\n@notice createNewVault allows the contract owner to create a new WarpVault contract along with its associated Warp Wrapper Tokens\n**/\n    function linkNewVault(\n        address _WarpVault,\n        address _lp,\n        address _lpAsset1,\n        address _lpAsset2,\n        uint256 _baseRatePerYear,\n        uint256 _multiplierPerYear,\n        uint256 _jumpMultiplierPerYear,\n        uint256 _optimal,\n        uint256 _initialExchangeRate\n    ) public onlyOwner {\n        Oracle.createNewOracles(_lpAsset1, _lpAsset2, _lp);\n\n        instanceTracker[_lp] = _WarpVault;\n\n        WarpVaultI WV = WarpVaultI(_WarpVault);\n\n        WV.setUp(\n            _baseRatePerYear,\n            _multiplierPerYear,\n            _jumpMultiplierPerYear,\n            _optimal,\n            _initialExchangeRate,\n            address(Oracle)\n        );\n    }\n\n    /**\n@notice trackCollateralUP is an external function used to track collateral amounts globally as they increase\n@param _borrower is the address of the borrower\n@param _WarpVault is the address of the Warp Vault where the collateral is stored\n@param _amount is the amount of LP being collateralized\n**/\n    function trackCollateralUp(\n        address _borrower,\n        address _WarpVault,\n        uint256 _amount\n    ) external {\n        collateralTracker[_borrower][_WarpVault] = collateralTracker[_borrower][_WarpVault]\n            .add(_amount);\n    }\n\n    /**\n @notice trackCollateralDown is an external function used to track collateral amounts globally as they decrease\n @param _borrower is the address of the borrower\n @param _WarpVault is the address of the Warp Vault where the collateral is stored\n @param _amount is the amount of LP being collateralized\n **/\n    function trackCollateralDown(\n        address _borrower,\n        address _WarpVault,\n        uint256 _amount\n    ) external {\n        collateralTracker[_borrower][_WarpVault] = collateralTracker[_borrower][_WarpVault]\n            .sub(_amount);\n    }\n\n    /**\n @notice checkCollateral is an external function used to check collateral amounts globally\n @param _borrower is the address of the borrower\n @param _WarpVault is the address of the Warp Vault where the collateral is stored\n **/\n    function checkCollateral(address _borrower, address _WarpVault)\n        external\n        view\n        returns (uint256)\n    {\n        return collateralTracker[_borrower][_WarpVault];\n    }\n\n    /**\n  @notice lockCollateralUp is an external function used to track locked collateral amounts globally as they increase\n  @param _borrower is the address of the borrower\n  @param _WarpVault is the address of the Warp Vault where the collateral is stored\n  @param _amount is the amount of LP being collateralized\n  **/\n    function lockCollateralUp(\n        address _borrower,\n        address _WarpVault,\n        uint256 _amount\n    ) external {\n        lockedCollateralTracker[_borrower][_WarpVault] = lockedCollateralTracker[_borrower][_WarpVault]\n            .add(_amount);\n    }\n\n    /**\n   @notice lockCollateralDown is an external function used to track locked collateral amounts globally as they decrease\n   @param _borrower is the address of the borrower\n   @param _WarpVault is the address of the Warp Vault where the collateral is stored\n   @param _amount is the amount of LP being collateralized\n   **/\n    function lockCollateralDown(\n        address _borrower,\n        address _WarpVault,\n        uint256 _amount\n    ) external {\n        lockedCollateralTracker[_borrower][_WarpVault] = lockedCollateralTracker[_borrower][_WarpVault]\n            .sub(_amount);\n    }\n\n    /**\n @notice checkLockedCollateral is an external function used to check locked collateral amounts globally\n @param _borrower is the address of the borrower\n @param _WarpVault is the address of the Warp Vault where the collateral is stored\n **/\n    function checkLockedCollateral(address _borrower, address _WarpVault)\n        external\n        view\n        returns (uint256)\n    {\n        return lockedCollateralTracker[_borrower][_WarpVault];\n    }\n\n    /**\n@notice checkCollateralValue is a view function that accepts an account address and an WarpVault contract\n        address and returns the USD value of the collateral they have locked.\n@param _borrower is the address whos collateral value we are looking up\n@param _WarpVault is the address of the _WarpVault token where collateral value is being looked up\n **/\n    function checkCollateralValue(address _borrower, address _WarpVault)\n        external\n        view\n        returns (uint256)\n    {\n        //instantiate the MoneyMakerInstance calling this function\n        WarpVaultI WV = WarpVaultI(msg.sender);\n        //retreive the address of its asset\n        address asset = WV.getAssetAdd();\n        //retrieve USD price of this asset\n        uint256 priceOfAsset = Oracle.getUnderlyingPrice(asset);\n        //retrieve the amount of the asset locked as collateral\n        uint256 amountOfAssetCollat = collateralTracker[_borrower][_WarpVault];\n        //multiply the amount of collateral by the asset price and return it\n        return amountOfAssetCollat.mul(priceOfAsset);\n    }\n\n    /**\n@notice markAccountNonCompliant is used by a potential liquidator to mark an account as non compliant which starts its 30 minute timer\n@param _borrower is the address of the non compliant borrower\n@param _WarpVault is the address of the money market instances ALR token the user is non-compliant in\n**/\n    function markAccountNonCompliant(address _borrower, address _WarpVault)\n        public\n    {\n        //needs to check for account compliance\n        require(nonCompliant[_borrower][_WarpVault] == 0);\n        nonCompliant[_borrower][_WarpVault] = now;\n    }\n\n    //struct used to avoid stack too deep errors\n    struct liquidateLocalVar {\n        address assetOwed;\n        address assetColat;\n        uint256 borrowedAmount;\n        uint256 collatAmount;\n        uint256 borrowedValue;\n        uint256 collatValue;\n        uint256 halfVal;\n        uint256 exchangeRateMantissa; // Note: reverts on error\n        uint256 seizeTokens;\n    }\n\n    /**\n@notice The sender liquidates the borrowers collateral. This function is called on the WarpVault the borrower owes to.\n@param borrower The borrower of a Warpvaults LP token to be liquidated\n@param repayAmount The amount of the underlying borrowed asset to repay\n@param _WarpVaultowed is the address of the WarpVault where the borrower owes asset\n@param _WarpVaultcollateralized is the address of the WarpVault where the borrower has collateral\n**/\n\n    function liquidateAccount(\n        address borrower,\n        uint256 repayAmount,\n        WarpVaultI _WarpVaultowed,\n        WarpVaultI _WarpVaultcollateralized\n    ) public {\n        //checks if its been nonCompliant for more than a half hour\n        require(\n            now >= nonCompliant[borrower][address(_WarpVaultowed)].add(1800)\n        );\n        //create local vars storage\n        liquidateLocalVar memory vars;\n        //get asset addresses of both WarpVault\n        vars.assetOwed = _WarpVaultowed.getAssetAdd();\n        vars.assetColat = _WarpVaultcollateralized.getAssetAdd();\n        //Read oracle prices for borrowed and collateral markets\n        uint256 priceBorrowedMantissa = Oracle.getUnderlyingPrice(\n            vars.assetOwed\n        );\n        uint256 priceCollateralMantissa = Oracle.getUnderlyingPrice(\n            vars.assetColat\n        );\n        require(priceBorrowedMantissa != 0 && priceCollateralMantissa != 0);\n        //retrieve asset amounts for each\n        vars.borrowedAmount = _WarpVaultowed.borrowBalanceCurrent(borrower, 1);\n        vars.borrowedAmount = vars.borrowedAmount.add(\n            _WarpVaultowed.borrowBalanceCurrent(borrower, 2)\n        );\n        vars.borrowedAmount = vars.borrowedAmount.add(\n            _WarpVaultowed.borrowBalanceCurrent(borrower, 3)\n        );\n        vars.collatAmount = collateralTracker[borrower][address(\n            _WarpVaultcollateralized\n        )];\n        //calculate USDC value amounts of each\n        vars.borrowedValue = vars.borrowedAmount.mul(priceBorrowedMantissa);\n        vars.collatValue = vars.collatAmount.mul(priceCollateralMantissa);\n        //divide collateral value in half\n        vars.halfVal = vars.collatValue.div(2);\n        //add 1/2 the collateral value to the total collateral value for 150% colleral value\n        vars.collatValue = vars.collatValue.add(vars.halfVal);\n        //require the value of whats been borrowed to be lower than 150% of the collaterals value\n        if (vars.collatValue >= vars.borrowedValue) {\n            //Get the exchange rate and calculate the number of collateral tokens to seize:\n            vars.exchangeRateMantissa = _WarpVaultowed.exchangeRateCurrent(); // Note: reverts on error\n            Exp memory numerator;\n            Exp memory denominator;\n            Exp memory ratio;\n            MathError mathErr;\n            //numerator = liquidationIncentive * priceBorrowed\n            (mathErr, numerator) = mulExp(\n                liquidationIncentiveMantissa,\n                priceBorrowedMantissa\n            );\n            require(mathErr == MathError.NO_ERROR);\n            //denominator = priceCollateral * exchangeRate\n            (mathErr, denominator) = mulExp(\n                priceCollateralMantissa,\n                vars.exchangeRateMantissa\n            );\n            require(mathErr == MathError.NO_ERROR);\n            //ratio = (liquidationIncentive * priceBorrowed) / (priceCollateral * exchangeRate)\n            (mathErr, ratio) = divExp(numerator, denominator);\n            require(mathErr == MathError.NO_ERROR);\n            //seizeTokens = actualRepayAmount * (liquidationIncentive * priceBorrowed) / (priceCollateral * exchangeRate)\n            (mathErr, vars.seizeTokens) = mulScalarTruncate(ratio, repayAmount);\n            require(mathErr == MathError.NO_ERROR);\n            /**\nthis function calls the WarpVault where the borrower has collateral staked and has it swap\nits underlying asset on uniswap for the underlying asset borrowed\n**/\n        }\n        //reset accounts compliant timer\n        nonCompliant[borrower][address(_WarpVaultowed)] = 0; //resets borrowers compliance timer\n    }\n}\n",
  "sourcePath": "/home/stan36/repos/Warp/Smart-Contracts/contracts/WarpControl.sol",
  "compiler": {
    "name": "solc",
    "version": "0.6.6+commit.6c089d02.Emscripten.clang"
  },
  "schemaVersion": "3.2.4",
  "updatedAt": "2020-11-01T22:35:12.836Z",
  "networkType": "ethereum",
  "devdoc": {
    "methods": {
      "checkCollateral(address,address)": {
        "params": {
          "_WarpVault": "is the address of the Warp Vault where the collateral is stored*",
          "_borrower": "is the address of the borrower"
        }
      },
      "checkCollateralValue(address,address)": {
        "params": {
          "_WarpVault": "is the address of the _WarpVault token where collateral value is being looked up*",
          "_borrower": "is the address whos collateral value we are looking up"
        }
      },
      "checkLockedCollateral(address,address)": {
        "params": {
          "_WarpVault": "is the address of the Warp Vault where the collateral is stored*",
          "_borrower": "is the address of the borrower"
        }
      },
      "constructor": {
        "params": {
          "_oracle": "is the address for the UniswapOracleFactorycontract*"
        }
      },
      "liquidateAccount(address,uint256,address,address)": {
        "params": {
          "_WarpVaultcollateralized": "is the address of the WarpVault where the borrower has collateral*",
          "_WarpVaultowed": "is the address of the WarpVault where the borrower owes asset",
          "borrower": "The borrower of a Warpvaults LP token to be liquidated",
          "repayAmount": "The amount of the underlying borrowed asset to repay"
        }
      },
      "lockCollateralDown(address,address,uint256)": {
        "params": {
          "_WarpVault": "is the address of the Warp Vault where the collateral is stored",
          "_amount": "is the amount of LP being collateralized*",
          "_borrower": "is the address of the borrower"
        }
      },
      "lockCollateralUp(address,address,uint256)": {
        "params": {
          "_WarpVault": "is the address of the Warp Vault where the collateral is stored",
          "_amount": "is the amount of LP being collateralized*",
          "_borrower": "is the address of the borrower"
        }
      },
      "markAccountNonCompliant(address,address)": {
        "params": {
          "_WarpVault": "is the address of the money market instances ALR token the user is non-compliant in*",
          "_borrower": "is the address of the non compliant borrower"
        }
      },
      "owner()": {
        "details": "Returns the address of the current owner."
      },
      "renounceOwnership()": {
        "details": "Leaves the contract without owner. It will not be possible to call `onlyOwner` functions anymore. Can only be called by the current owner.     * NOTE: Renouncing ownership will leave the contract without an owner, thereby removing any functionality that is only available to the owner."
      },
      "trackCollateralDown(address,address,uint256)": {
        "params": {
          "_WarpVault": "is the address of the Warp Vault where the collateral is stored",
          "_amount": "is the amount of LP being collateralized*",
          "_borrower": "is the address of the borrower"
        }
      },
      "trackCollateralUp(address,address,uint256)": {
        "params": {
          "_WarpVault": "is the address of the Warp Vault where the collateral is stored",
          "_amount": "is the amount of LP being collateralized*",
          "_borrower": "is the address of the borrower"
        }
      },
      "transferOwnership(address)": {
        "details": "Transfers ownership of the contract to a new account (`newOwner`). Can only be called by the current owner."
      }
    }
  },
  "userdoc": {
    "methods": {
      "checkCollateral(address,address)": {
        "notice": "checkCollateral is an external function used to check collateral amounts globally"
      },
      "checkCollateralValue(address,address)": {
        "notice": "checkCollateralValue is a view function that accepts an account address and an WarpVault contract address and returns the USD value of the collateral they have locked."
      },
      "checkLockedCollateral(address,address)": {
        "notice": "checkLockedCollateral is an external function used to check locked collateral amounts globally"
      },
      "constructor": "the constructor function is fired during the contract deployment process. The constructor can only be fired once and is used to set up Oracle variables for the MoneyMarketFactory contract.",
      "linkNewVault(address,address,address,address,uint256,uint256,uint256,uint256,uint256)": {
        "notice": "createNewVault allows the contract owner to create a new WarpVault contract along with its associated Warp Wrapper Tokens*"
      },
      "liquidateAccount(address,uint256,address,address)": {
        "notice": "The sender liquidates the borrowers collateral. This function is called on the WarpVault the borrower owes to."
      },
      "lockCollateralDown(address,address,uint256)": {
        "notice": "lockCollateralDown is an external function used to track locked collateral amounts globally as they decrease"
      },
      "lockCollateralUp(address,address,uint256)": {
        "notice": "lockCollateralUp is an external function used to track locked collateral amounts globally as they increase"
      },
      "markAccountNonCompliant(address,address)": {
        "notice": "markAccountNonCompliant is used by a potential liquidator to mark an account as non compliant which starts its 30 minute timer"
      },
      "trackCollateralDown(address,address,uint256)": {
        "notice": "trackCollateralDown is an external function used to track collateral amounts globally as they decrease"
      },
      "trackCollateralUp(address,address,uint256)": {
        "notice": "trackCollateralUP is an external function used to track collateral amounts globally as they increase"
      }
    },
    "notice": "WarpControl is designed to coordinate Warp Vaults This contract uses the OpenZeppelin contract Library to inherit functions from Ownable.sol*"
  }
}