{
  "contractName": "WarpControl",
  "abi": [
    {
      "inputs": [
        {
          "internalType": "address",
          "name": "_oracle",
          "type": "address"
        },
        {
          "internalType": "address",
          "name": "_WVLPF",
          "type": "address"
        },
        {
          "internalType": "address",
          "name": "_WVSCF",
          "type": "address"
        }
      ],
      "stateMutability": "nonpayable",
      "type": "constructor"
    },
    {
      "anonymous": false,
      "inputs": [
        {
          "indexed": true,
          "internalType": "address",
          "name": "previousOwner",
          "type": "address"
        },
        {
          "indexed": true,
          "internalType": "address",
          "name": "newOwner",
          "type": "address"
        }
      ],
      "name": "OwnershipTransferred",
      "type": "event"
    },
    {
      "inputs": [],
      "name": "Oracle",
      "outputs": [
        {
          "internalType": "contract UniswapLPOracleFactoryI",
          "name": "",
          "type": "address"
        }
      ],
      "stateMutability": "view",
      "type": "function"
    },
    {
      "inputs": [],
      "name": "WVLPF",
      "outputs": [
        {
          "internalType": "contract WarpVaultLPFactoryI",
          "name": "",
          "type": "address"
        }
      ],
      "stateMutability": "view",
      "type": "function"
    },
    {
      "inputs": [],
      "name": "WVSCF",
      "outputs": [
        {
          "internalType": "contract WarpVaultSCFactoryI",
          "name": "",
          "type": "address"
        }
      ],
      "stateMutability": "view",
      "type": "function"
    },
    {
      "inputs": [
        {
          "internalType": "address",
          "name": "",
          "type": "address"
        }
      ],
      "name": "instanceLPTracker",
      "outputs": [
        {
          "internalType": "address",
          "name": "",
          "type": "address"
        }
      ],
      "stateMutability": "view",
      "type": "function"
    },
    {
      "inputs": [
        {
          "internalType": "address",
          "name": "",
          "type": "address"
        }
      ],
      "name": "instanceSCTracker",
      "outputs": [
        {
          "internalType": "address",
          "name": "",
          "type": "address"
        }
      ],
      "stateMutability": "view",
      "type": "function"
    },
    {
      "inputs": [
        {
          "internalType": "address",
          "name": "",
          "type": "address"
        }
      ],
      "name": "isVault",
      "outputs": [
        {
          "internalType": "bool",
          "name": "",
          "type": "bool"
        }
      ],
      "stateMutability": "view",
      "type": "function"
    },
    {
      "inputs": [],
      "name": "liquidationIncentiveMantissa",
      "outputs": [
        {
          "internalType": "uint256",
          "name": "",
          "type": "uint256"
        }
      ],
      "stateMutability": "view",
      "type": "function"
    },
    {
      "inputs": [
        {
          "internalType": "address",
          "name": "",
          "type": "address"
        }
      ],
      "name": "lockedLPValue",
      "outputs": [
        {
          "internalType": "uint256",
          "name": "",
          "type": "uint256"
        }
      ],
      "stateMutability": "view",
      "type": "function"
    },
    {
      "inputs": [
        {
          "internalType": "uint256",
          "name": "",
          "type": "uint256"
        }
      ],
      "name": "lpVaults",
      "outputs": [
        {
          "internalType": "address",
          "name": "",
          "type": "address"
        }
      ],
      "stateMutability": "view",
      "type": "function"
    },
    {
      "inputs": [],
      "name": "owner",
      "outputs": [
        {
          "internalType": "address",
          "name": "",
          "type": "address"
        }
      ],
      "stateMutability": "view",
      "type": "function"
    },
    {
      "inputs": [],
      "name": "renounceOwnership",
      "outputs": [],
      "stateMutability": "nonpayable",
      "type": "function"
    },
    {
      "inputs": [
        {
          "internalType": "uint256",
          "name": "",
          "type": "uint256"
        }
      ],
      "name": "scVaults",
      "outputs": [
        {
          "internalType": "address",
          "name": "",
          "type": "address"
        }
      ],
      "stateMutability": "view",
      "type": "function"
    },
    {
      "inputs": [
        {
          "internalType": "address",
          "name": "newOwner",
          "type": "address"
        }
      ],
      "name": "transferOwnership",
      "outputs": [],
      "stateMutability": "nonpayable",
      "type": "function"
    },
    {
      "inputs": [
        {
          "internalType": "address",
          "name": "_lp",
          "type": "address"
        },
        {
          "internalType": "address",
          "name": "_lpAsset1",
          "type": "address"
        },
        {
          "internalType": "address",
          "name": "_lpAsset2",
          "type": "address"
        },
        {
          "internalType": "string",
          "name": "_lpName",
          "type": "string"
        }
      ],
      "name": "createNewLPVault",
      "outputs": [],
      "stateMutability": "nonpayable",
      "type": "function"
    },
    {
      "inputs": [
        {
          "internalType": "uint256",
          "name": "_baseRatePerYear",
          "type": "uint256"
        },
        {
          "internalType": "uint256",
          "name": "_multiplierPerYear",
          "type": "uint256"
        },
        {
          "internalType": "uint256",
          "name": "_jumpMultiplierPerYear",
          "type": "uint256"
        },
        {
          "internalType": "uint256",
          "name": "_optimal",
          "type": "uint256"
        },
        {
          "internalType": "uint256",
          "name": "_initialExchangeRate",
          "type": "uint256"
        },
        {
          "internalType": "address",
          "name": "_StableCoin",
          "type": "address"
        }
      ],
      "name": "createNewSCVault",
      "outputs": [],
      "stateMutability": "nonpayable",
      "type": "function"
    },
    {
      "inputs": [
        {
          "internalType": "address",
          "name": "account",
          "type": "address"
        },
        {
          "internalType": "address",
          "name": "lpToken",
          "type": "address"
        }
      ],
      "name": "maxWithdrawAllowed",
      "outputs": [
        {
          "internalType": "uint256",
          "name": "",
          "type": "uint256"
        }
      ],
      "stateMutability": "nonpayable",
      "type": "function"
    },
    {
      "inputs": [
        {
          "internalType": "address",
          "name": "_LP",
          "type": "address"
        }
      ],
      "name": "checkLPprice",
      "outputs": [
        {
          "internalType": "uint256",
          "name": "",
          "type": "uint256"
        }
      ],
      "stateMutability": "view",
      "type": "function"
    },
    {
      "inputs": [
        {
          "internalType": "address",
          "name": "_account",
          "type": "address"
        }
      ],
      "name": "checkTotalAvailableCollateralValue",
      "outputs": [
        {
          "internalType": "uint256",
          "name": "",
          "type": "uint256"
        }
      ],
      "stateMutability": "view",
      "type": "function"
    },
    {
      "inputs": [
        {
          "internalType": "address",
          "name": "_account",
          "type": "address"
        }
      ],
      "name": "priorTotalBorrowedValue",
      "outputs": [
        {
          "internalType": "uint256",
          "name": "",
          "type": "uint256"
        }
      ],
      "stateMutability": "view",
      "type": "function"
    },
    {
      "inputs": [
        {
          "internalType": "address",
          "name": "_account",
          "type": "address"
        }
      ],
      "name": "currentTotalBorrowedValue",
      "outputs": [
        {
          "internalType": "uint256",
          "name": "",
          "type": "uint256"
        }
      ],
      "stateMutability": "nonpayable",
      "type": "function"
    },
    {
      "inputs": [
        {
          "internalType": "uint256",
          "name": "collateralValue",
          "type": "uint256"
        }
      ],
      "name": "calcBorrowLimit",
      "outputs": [
        {
          "internalType": "uint256",
          "name": "",
          "type": "uint256"
        }
      ],
      "stateMutability": "pure",
      "type": "function"
    },
    {
      "inputs": [
        {
          "internalType": "address",
          "name": "_account",
          "type": "address"
        }
      ],
      "name": "getBorrowLimit",
      "outputs": [
        {
          "internalType": "uint256",
          "name": "",
          "type": "uint256"
        }
      ],
      "stateMutability": "view",
      "type": "function"
    },
    {
      "inputs": [
        {
          "internalType": "address",
          "name": "_StableCoin",
          "type": "address"
        },
        {
          "internalType": "uint256",
          "name": "_amount",
          "type": "uint256"
        }
      ],
      "name": "borrowSC",
      "outputs": [],
      "stateMutability": "nonpayable",
      "type": "function"
    },
    {
      "inputs": [
        {
          "internalType": "address",
          "name": "_borrower",
          "type": "address"
        }
      ],
      "name": "markAccountNonCompliant",
      "outputs": [],
      "stateMutability": "nonpayable",
      "type": "function"
    },
    {
      "inputs": [
        {
          "internalType": "address",
          "name": "borrower",
          "type": "address"
        }
      ],
      "name": "liquidateAccount",
      "outputs": [],
      "stateMutability": "nonpayable",
      "type": "function"
    }
  ],
  "bytecode": "0x60806040526714d1120d7b16000060015534801561001c57600080fd5b506040516123e13803806123e18339818101604052606081101561003f57600080fd5b508051602082015160409092015190919060006100636001600160e01b036100ef16565b600080546001600160a01b0319166001600160a01b0383169081178255604051929350917f8be0079c531659141344cd1fd0a4f28419497f9722a3daafe3b4186f6b6457e0908290a350600280546001600160a01b039485166001600160a01b0319918216179091556003805493851693821693909317909255600480549190931691161790556100f3565b3390565b6122df806101026000396000f3fe60806040523480156200001157600080fd5b50600436106200014e5760003560e01c80630a55598914620001535780630c1e2b92146200018457806341f4118914620001c95780634ada90af14620001f257806362226308146200020e578063652b9b41146200022e5780636af5f752146200026b5780636bda15771462000275578063715018a614620002a6578063734c045214620002b05780637c17d23714620002d95780637ed2d49514620003025780638ac5d4a3146200032b5780638da5cb5b1462000354578063acc9e5b1146200035e578063b04207921462000387578063b341175a14620003a7578063d483ea1f14620003d0578063e198077f1462000417578063e3c351b814620004e2578063ea072fb4146200050b578063ed6072f61462000534578063efdebdf51462000554578063f24a534e146200055e578063f2fde38b1462000568575b600080fd5b62000182600480360360408110156200016b57600080fd5b506001600160a01b03813516906020013562000591565b005b620001ad600480360360208110156200019c57600080fd5b50356001600160a01b031662000688565b604080516001600160a01b039092168252519081900360200190f35b6200018260048036036020811015620001e157600080fd5b50356001600160a01b0316620006a3565b620001fc620006e3565b60408051918252519081900360200190f35b620001ad600480360360208110156200022657600080fd5b5035620006e9565b62000257600480360360208110156200024657600080fd5b50356001600160a01b031662000711565b604080519115158252519081900360200190f35b620001ad62000726565b620001fc600480360360408110156200028d57600080fd5b506001600160a01b038135811691602001351662000735565b6200018262000798565b620001fc60048036036020811015620002c857600080fd5b50356001600160a01b03166200082d565b620001fc60048036036020811015620002f157600080fd5b50356001600160a01b031662000900565b620001fc600480360360208110156200031a57600080fd5b50356001600160a01b031662000922565b62000182600480360360208110156200034357600080fd5b50356001600160a01b0316620009a8565b620001ad62000cfe565b620001ad600480360360208110156200037657600080fd5b50356001600160a01b031662000d0d565b620001ad600480360360208110156200039f57600080fd5b503562000d28565b620001fc60048036036020811015620003bf57600080fd5b50356001600160a01b031662000d36565b62000182600480360360c0811015620003e857600080fd5b5080359060208101359060408101359060608101359060808101359060a001356001600160a01b031662000fa9565b62000182600480360360808110156200042f57600080fd5b6001600160a01b0382358116926020810135821692604082013590921691810190608081016060820135600160201b8111156200046b57600080fd5b8201836020820111156200047e57600080fd5b803590602001918460018302840111600160201b83111715620004a057600080fd5b91908080601f01602080910402602001604051908101604052809392919081815260200183838082843760009201919091525092955062001181945050505050565b620001fc60048036036020811015620004fa57600080fd5b50356001600160a01b0316620013c8565b620001fc600480360360208110156200052357600080fd5b50356001600160a01b0316620013da565b620001fc600480360360208110156200054c57600080fd5b503562001479565b620001ad620014a3565b620001ad620014b2565b62000182600480360360208110156200058057600080fd5b50356001600160a01b0316620014c1565b60006200059e336200082d565b90506000620005ad3362000900565b90506000620005c3828463ffffffff620015ae16565b905083811015620005d357600080fd5b33600090815260096020526040902054620005f5908563ffffffff620015f216565b336000818152600960209081526040808320949094556001600160a01b0389811683526008909152838220548451630967fa2960e31b8152600481018a9052602481019490945293519316928392634b3fd14892604480830193919282900301818387803b1580156200066757600080fd5b505af11580156200067c573d6000803e3d6000fd5b50505050505050505050565b6008602052600090815260409020546001600160a01b031681565b6001600160a01b0381166000908152600b602052604090205415620006c757600080fd5b6001600160a01b03166000908152600b60205260409020429055565b60015481565b60058181548110620006f757fe5b6000918252602090912001546001600160a01b0316905081565b600a6020526000908152604090205460ff1681565b6003546001600160a01b031681565b60008062000743846200082d565b90506000620007528562000900565b90506000620007618562000922565b9050600062000777838563ffffffff620015ae16565b90506200078b818363ffffffff6200164b16565b9450505050505b92915050565b620007a26200168c565b6000546001600160a01b03908116911614620007f4576040805162461bcd60e51b815260206004820181905260248201526000805160206200226a833981519152604482015290519081900360640190fd5b600080546040516001600160a01b03909116906000805160206200228a833981519152908390a3600080546001600160a01b0319169055565b60065460009081805b82811015620008f8576000600682815481106200084f57fe5b6000918252602080832090910154604080516305eff7ef60e21b81526001600160a01b038b811660048301529151919092169450620008ec9385936317bfdfbc936024808201949293918390030190829087803b158015620008b057600080fd5b505af1158015620008c5573d6000803e3d6000fd5b505050506040513d6020811015620008dc57600080fd5b5051849063ffffffff620015f216565b92505060010162000836565b509392505050565b6000806200090e3362000d36565b90506200091b8162001479565b9392505050565b6002546040805163fc57d4df60e01b81526001600160a01b0384811660048301529151600093929092169163fc57d4df91602480820192602092909190829003018186803b1580156200097457600080fd5b505afa15801562000989573d6000803e3d6000fd5b505050506040513d6020811015620009a057600080fd5b505192915050565b6001600160a01b0381166000908152600b6020526040902054620009d59061070863ffffffff620015f216565b421015620009e257600080fd5b60065460006060826001600160401b038111801562000a0057600080fd5b5060405190808252806020026020018201604052801562000a2b578160200160208202803683370190505b50905060005b8381101562000b255760006006828154811062000a4a57fe5b6000918252602080832090910154604080516305eff7ef60e21b81526001600160a01b038b81166004830152915191909216945084936317bfdfbc93602480850194919392918390030190829087803b15801562000aa757600080fd5b505af115801562000abc573d6000803e3d6000fd5b505050506040513d602081101562000ad357600080fd5b5051835184908490811062000ae457fe5b60200260200101818152505062000b1983838151811062000b0157fe5b602002602001015185620015f290919063ffffffff16565b93505060010162000a31565b50600062000b338562000900565b6001600160a01b0386166000908152600b602052604081205590508281111562000b61575050505062000cfb565b60005b8481101562000c525760006006828154811062000b7d57fe5b9060005260206000200160009054906101000a90046001600160a01b03169050806001600160a01b031663d1349814883387868151811062000bbb57fe5b60200260200101516040518463ffffffff1660e01b815260040180846001600160a01b03166001600160a01b03168152602001836001600160a01b03166001600160a01b031681526020018281526020019350505050600060405180830381600087803b15801562000c2c57600080fd5b505af115801562000c41573d6000803e3d6000fd5b505050505080600101905062000b64565b5060055460005b8181101562000cf45760006005828154811062000c7257fe5b600091825260208220015460408051631592f20560e31b81526001600160a01b038c811660048301523360248301529151919092169350839263ac979028926044808201939182900301818387803b15801562000cce57600080fd5b505af115801562000ce3573d6000803e3d6000fd5b505050505080600101905062000c59565b5050505050505b50565b6000546001600160a01b031690565b6007602052600090815260409020546001600160a01b031681565b60068181548110620006f757fe5b60055460009081805b82811015620008f85760006005828154811062000d5857fe5b6000918252602080832090910154604080516313082b1d60e21b815290516001600160a01b0390921694508492634c20ac7492600480840193829003018186803b15801562000da657600080fd5b505afa15801562000dbb573d6000803e3d6000fd5b505050506040513d602081101562000dd257600080fd5b50516002546040805163fc57d4df60e01b81526001600160a01b0380851660048301529151939450600093919092169163fc57d4df916024808301926020929190829003018186803b15801562000e2857600080fd5b505afa15801562000e3d573d6000803e3d6000fd5b505050506040513d602081101562000e5457600080fd5b5051604080516370a0823160e01b81526001600160a01b038b811660048301529151929350600092918516916370a0823191602480820192602092909190829003018186803b15801562000ea757600080fd5b505afa15801562000ebc573d6000803e3d6000fd5b505050506040513d602081101562000ed357600080fd5b50516040805163f919b4bf60e01b81526001600160a01b038c8116600483015291519293506000929187169163f919b4bf91602480820192602092909190829003018186803b15801562000f2657600080fd5b505afa15801562000f3b573d6000803e3d6000fd5b505050506040513d602081101562000f5257600080fd5b50519050600062000f6a838363ffffffff620015ae16565b9050600062000f80828663ffffffff6200169016565b905062000f94898263ffffffff620015f216565b98505050505050505080600101905062000d3f565b62000fb36200168c565b6000546001600160a01b0390811691161462001005576040805162461bcd60e51b815260206004820181905260248201526000805160206200226a833981519152604482015290519081900360640190fd5b600086868686306040516200101a90620017f2565b948552602085019390935260408085019290925260608401526001600160a01b039091166080830152519081900360a001906000f08015801562001062573d6000803e3d6000fd5b506004805460408051632a5cd0d160e01b81526001600160a01b038086169482019490945286841660248201526044810188905290519394506000939290911691632a5cd0d19160648082019260209290919082900301818787803b158015620010cb57600080fd5b505af1158015620010e0573d6000803e3d6000fd5b505050506040513d6020811015620010f757600080fd5b50516001600160a01b0393841660009081526008602090815260408083208054979094166001600160a01b031997881681179094556006805460018181019092557ff652222313e28459528d920b65115c16c04f3efc82aaedc97be59f3f377c0d3f0180549098168517909755928252600a905220805460ff191690931790925550505050505050565b6200118b6200168c565b6000546001600160a01b03908116911614620011dd576040805162461bcd60e51b815260206004820181905260248201526000805160206200226a833981519152604482015290519081900360640190fd5b60025460408051634a42dd6d60e11b81526001600160a01b0386811660048301528581166024830152878116604483015291519190921691639485bada91606480830192600092919082900301818387803b1580156200123c57600080fd5b505af115801562001251573d6000803e3d6000fd5b505060035460408051631d75e5c160e21b81526001600160a01b038981166004830190815260248301938452875160448401528751600097509190941694506375d79704938a938893919290916064019060208501908083838c5b83811015620012c6578181015183820152602001620012ac565b50505050905090810190601f168015620012f45780820380516001836020036101000a031916815260200191505b509350505050602060405180830381600087803b1580156200131557600080fd5b505af11580156200132a573d6000803e3d6000fd5b505050506040513d60208110156200134157600080fd5b50516001600160a01b0395861660009081526007602090815260408083208054999094166001600160a01b0319998a1681179094556005805460018181019092557f036b6384b5eca791c62761152d0c79bb0604c104a5fb6f4eb0703f3154bb3db0018054909a168517909955928252600a905220805460ff191690951790945550505050565b60096020526000908152604090205481565b60065460009081805b82811015620008f857600060068281548110620013fc57fe5b6000918252602091829020015460408051637746efab60e01b81526001600160a01b038a8116600483015291519190921693506200146d928492637746efab9260248083019392829003018186803b1580156200145857600080fd5b505afa158015620008c5573d6000803e3d6000fd5b925050600101620013e3565b6000806200148f83600263ffffffff6200164b16565b90506200091b838263ffffffff620015f216565b6004546001600160a01b031681565b6002546001600160a01b031681565b620014cb6200168c565b6000546001600160a01b039081169116146200151d576040805162461bcd60e51b815260206004820181905260248201526000805160206200226a833981519152604482015290519081900360640190fd5b6001600160a01b038116620015645760405162461bcd60e51b8152600401808060200182810382526026815260200180620022236026913960400191505060405180910390fd5b600080546040516001600160a01b03808516939216916000805160206200228a83398151915291a3600080546001600160a01b0319166001600160a01b0392909216919091179055565b60006200091b83836040518060400160405280601e81526020017f536166654d6174683a207375627472616374696f6e206f766572666c6f770000815250620016ee565b6000828201838110156200091b576040805162461bcd60e51b815260206004820152601b60248201527a536166654d6174683a206164646974696f6e206f766572666c6f7760281b604482015290519081900360640190fd5b60006200091b83836040518060400160405280601a815260200179536166654d6174683a206469766973696f6e206279207a65726f60301b81525062001789565b3390565b600082620016a15750600062000792565b82820282848281620016af57fe5b04146200091b5760405162461bcd60e51b8152600401808060200182810382526021815260200180620022496021913960400191505060405180910390fd5b60008184841115620017815760405162461bcd60e51b81526004018080602001828103825283818151815260200191508051906020019080838360005b83811015620017455781810151838201526020016200172b565b50505050905090810190601f168015620017735780820380516001836020036101000a031916815260200191505b509250505060405180910390fd5b505050900390565b60008183620017db5760405162461bcd60e51b8152602060048201818152835160248401528351909283926044909101919085019080838360008315620017455781810151838201526020016200172b565b506000838581620017e857fe5b0495945050505050565b610a2280620018018339019056fe608060405234801561001057600080fd5b50604051610a22380380610a22833981810160405260a081101561003357600080fd5b508051602082015160408301516060840151608090940151600080546001600160a01b0319166001600160a01b03831617905592939192909190848484848461007e8585858561008d565b505050505050505050506102bc565b6100a7622014808561017060201b61057e1790919060201c565b6002556100f66100c562201480836101c1602090811b61052517901c565b6100e4670de0b6b3a7640000866101c160201b6105251790919060201c565b61017060201b61057e1790919060201c565b6001556101118262201480610170602090811b61057e17901c565b60038190556004829055600254600154604080519283526020830191909152818101929092526060810183905290517f6960ab234c7ef4b0c9197100f5393cfcde7c453ac910a27bd2000aa1dd4c068d9181900360800190a150505050565b60006101b883836040518060400160405280601a81526020017f536166654d6174683a206469766973696f6e206279207a65726f00000000000081525061021a60201b60201c565b90505b92915050565b6000826101d0575060006101bb565b828202828482816101dd57fe5b04146101b85760405162461bcd60e51b8152600401808060200182810382526021815260200180610a016021913960400191505060405180910390fd5b600081836102a65760405162461bcd60e51b81526004018080602001828103825283818151815260200191508051906020019080838360005b8381101561026b578181015183820152602001610253565b50505050905090810190601f1680156102985780820380516001836020036101000a031916815260200191505b509250505060405180910390fd5b5060008385816102b257fe5b0495945050505050565b610736806102cb6000396000f3fe608060405234801561001057600080fd5b506004361061008e5760003560e01c806315f24053146100935780632037f3e7146100ce5780636e71e2d8146100ff5780638726bb89146101285780638da5cb5b14610130578063a385fb9614610154578063b81688161461015c578063b9f9850a1461018b578063f14039de14610193578063fd2da3391461019b575b600080fd5b6100bc600480360360608110156100a957600080fd5b50803590602081013590604001356101a3565b60408051918252519081900360200190f35b6100fd600480360360808110156100e457600080fd5b50803590602081013590604081013590606001356101ba565b005b6100bc6004803603606081101561011557600080fd5b5080359060208101359060400135610215565b6100bc61026b565b610138610271565b604080516001600160a01b039092168252519081900360200190f35b6100bc610280565b6100bc6004803603608081101561017257600080fd5b5080359060208101359060408101359060600135610287565b6100bc610306565b6100bc61030c565b6100bc610312565b60006101b0848484610318565b90505b9392505050565b6000546001600160a01b031633146102035760405162461bcd60e51b81526004018080602001828103825260268152602001806106db6026913960400191505060405180910390fd5b61020f848484846103e1565b50505050565b600082610224575060006101b3565b6101b06102478361023b878763ffffffff61048216565b9063ffffffff6104e316565b61025f85670de0b6b3a764000063ffffffff61052516565b9063ffffffff61057e16565b60015481565b6000546001600160a01b031681565b6220148081565b6000806102a2670de0b6b3a76400008463ffffffff6104e316565b905060006102b1878787610318565b905060006102d1670de0b6b3a764000061025f848663ffffffff61052516565b90506102fa670de0b6b3a764000061025f836102ee8c8c8c610215565b9063ffffffff61052516565b98975050505050505050565b60035481565b60025481565b60045481565b600080610326858585610215565b9050600454811161036c57610364600254610358670de0b6b3a764000061025f6001548661052590919063ffffffff16565b9063ffffffff61048216565b9150506101b3565b6000610397600254610358670de0b6b3a764000061025f60015460045461052590919063ffffffff16565b905060006103b0600454846104e390919063ffffffff16565b90506103d782610358670de0b6b3a764000061025f6003548661052590919063ffffffff16565b93505050506101b3565b6103f4846220148063ffffffff61057e16565b60025561040d610247622014808363ffffffff61052516565b600155610423826220148063ffffffff61057e16565b60038190556004829055600254600154604080519283526020830191909152818101929092526060810183905290517f6960ab234c7ef4b0c9197100f5393cfcde7c453ac910a27bd2000aa1dd4c068d9181900360800190a150505050565b6000828201838110156104da576040805162461bcd60e51b815260206004820152601b60248201527a536166654d6174683a206164646974696f6e206f766572666c6f7760281b604482015290519081900360640190fd5b90505b92915050565b60006104da83836040518060400160405280601e81526020017f536166654d6174683a207375627472616374696f6e206f766572666c6f7700008152506105bd565b600082610534575060006104dd565b8282028284828161054157fe5b04146104da5760405162461bcd60e51b81526004018080602001828103825260218152602001806106ba6021913960400191505060405180910390fd5b60006104da83836040518060400160405280601a815260200179536166654d6174683a206469766973696f6e206279207a65726f60301b815250610654565b6000818484111561064c5760405162461bcd60e51b81526004018080602001828103825283818151815260200191508051906020019080838360005b838110156106115781810151838201526020016105f9565b50505050905090810190601f16801561063e5780820380516001836020036101000a031916815260200191505b509250505060405180910390fd5b505050900390565b600081836106a35760405162461bcd60e51b81526020600482018181528351602484015283519092839260449091019190850190808383600083156106115781810151838201526020016105f9565b5060008385816106af57fe5b049594505050505056fe536166654d6174683a206d756c7469706c69636174696f6e206f766572666c6f776f6e6c7920746865206f776e6572206d61792063616c6c20746869732066756e6374696f6e2ea264697066735822122035d6d0aa1f8af11c35463166a687a3478a7b8a918059f546ac03fced611ef87a64736f6c63430006060033536166654d6174683a206d756c7469706c69636174696f6e206f766572666c6f774f776e61626c653a206e6577206f776e657220697320746865207a65726f2061646472657373536166654d6174683a206d756c7469706c69636174696f6e206f766572666c6f774f776e61626c653a2063616c6c6572206973206e6f7420746865206f776e65728be0079c531659141344cd1fd0a4f28419497f9722a3daafe3b4186f6b6457e0a2646970667358221220be3e123fd5e7d1219e5d37b1b11868e09c7df871284fa351105727074398229364736f6c63430006060033",
  "immutableReferences": {},
  "source": "pragma solidity ^0.6.0;\r\n\r\nimport \"@openzeppelin/contracts/access/Ownable.sol\";\r\nimport \"@openzeppelin/contracts/math/SafeMath.sol\";\r\nimport \"@openzeppelin/contracts/token/ERC20/IERC20.sol\";\r\nimport \"./interfaces/WarpVaultSCI.sol\";\r\nimport \"./interfaces/WarpVaultLPI.sol\";\r\nimport \"./interfaces/WarpVaultLPFactoryI.sol\";\r\nimport \"./interfaces/WarpVaultSCFactoryI.sol\";\r\nimport \"./interfaces/UniswapLPOracleFactoryI.sol\";\r\nimport \"./compound/JumpRateModelV2.sol\";\r\nimport \"./compound/Exponential.sol\";\r\n\r\n////////////////////////////////////////////////////////////////////////////////////////////\r\n/// @title WarpControl\r\n/// @author Christopher Dixon\r\n////////////////////////////////////////////////////////////////////////////////////////////\r\n/**\r\nWarpControl is designed to coordinate Warp Vaults\r\nThis contract uses the OpenZeppelin contract Library to inherit functions from\r\n  Ownable.sol\r\n**/\r\n\r\ncontract WarpControl is Ownable, Exponential {\r\n    using SafeMath for uint256;\r\n\r\n    uint256 public liquidationIncentiveMantissa = 1.5e18; // 1.5\r\n\r\n    UniswapLPOracleFactoryI public Oracle; //oracle factory contract interface\r\n    WarpVaultLPFactoryI public WVLPF;\r\n    WarpVaultSCFactoryI public WVSCF;\r\n\r\n    address[] public lpVaults;\r\n    address[] public scVaults;\r\n\r\n    mapping(address => address) public instanceLPTracker; //maps LP token address to the assets WarpVault\r\n    mapping(address => address) public instanceSCTracker;\r\n    mapping(address => uint256) public lockedLPValue;\r\n    mapping(address => bool) public isVault;\r\n\r\n    mapping(address => uint256) nonCompliant;\r\n    /**\r\n     * @dev Throws if called by any account other than a warp vault\r\n     */\r\n    modifier onlyVault() {\r\n        require(isVault[msg.sender] == true);\r\n        _;\r\n    }\r\n\r\n    /**\r\n    @notice the constructor function is fired during the contract deployment process. The constructor can only be fired once and\r\n            is used to set up Oracle variables for the MoneyMarketFactory contract.\r\n    @param _oracle is the address for the UniswapOracleFactorycontract\r\n    **/\r\n    constructor(\r\n        address _oracle,\r\n        address _WVLPF,\r\n        address _WVSCF\r\n    ) public {\r\n        Oracle = UniswapLPOracleFactoryI(_oracle);\r\n        WVLPF = WarpVaultLPFactoryI(_WVLPF);\r\n        WVSCF = WarpVaultSCFactoryI(_WVSCF);\r\n    }\r\n\r\n    /**\r\n    @notice createNewVault allows the contract owner to create a new WarpVaultLP contract along with its associated Warp Wrapper Tokens\r\n    **/\r\n    function createNewLPVault(\r\n        address _lp,\r\n        address _lpAsset1,\r\n        address _lpAsset2,\r\n        string memory _lpName\r\n    ) public onlyOwner {\r\n        Oracle.createNewOracles(_lpAsset1, _lpAsset2, _lp);\r\n        address _WarpVault = WVLPF.createWarpVaultLP(_lp, _lpName);\r\n        instanceLPTracker[_lp] = _WarpVault;\r\n        lpVaults.push(_WarpVault);\r\n        isVault[_WarpVault] = true;\r\n    }\r\n\r\n    function createNewSCVault(\r\n        uint256 _baseRatePerYear,\r\n        uint256 _multiplierPerYear,\r\n        uint256 _jumpMultiplierPerYear,\r\n        uint256 _optimal,\r\n        uint256 _initialExchangeRate,\r\n        address _StableCoin\r\n    ) public onlyOwner {\r\n        address IR = address(\r\n            new JumpRateModelV2(\r\n                _baseRatePerYear,\r\n                _multiplierPerYear,\r\n                _jumpMultiplierPerYear,\r\n                _optimal,\r\n                address(this)\r\n            )\r\n        );\r\n\r\n        address _WarpVault = WVSCF.createNewWarpVaultSC(\r\n            IR,\r\n            _StableCoin,\r\n            _initialExchangeRate\r\n        );\r\n        instanceSCTracker[_StableCoin] = _WarpVault;\r\n        scVaults.push(_WarpVault);\r\n        isVault[_WarpVault] = true;\r\n    }\r\n\r\n    /**\r\n    @notice Figures out how much of a given LP token an account is allowed to withdraw\r\n     */\r\n    function maxWithdrawAllowed(address account, address lpToken) public returns (uint256) {\r\n        uint256 borrowedTotal = currentTotalBorrowedValue(account);\r\n        uint256 borrowLimit = getBorrowLimit(account);\r\n        uint256 lpValue = checkLPprice(lpToken);\r\n        uint256 leftoverBorrowAmount = borrowLimit.sub(borrowedTotal);\r\n\r\n        return leftoverBorrowAmount.div(lpValue);\r\n    }\r\n\r\n    function checkLPprice(address _LP) public view returns (uint256) {\r\n        return Oracle.getUnderlyingPrice(_LP);\r\n    }\r\n\r\n    /**\r\n    @notice checkCollateralValue is a view function that accepts an account address and returns the total USDC value\r\n            of the accounts locked collateral\r\n    @param _account is the address whos collateral value we are looking up\r\n    **/\r\n    function checkTotalAvailableCollateralValue(address _account)\r\n        public\r\n        view\r\n        returns (uint256)\r\n    {\r\n        uint256 numVaults = lpVaults.length;\r\n        uint256 totalCollateral = 0;\r\n        //loop through each lp wapr vault\r\n        for (uint256 i = 0; i < numVaults; ++i) {\r\n            //instantiate warp vault at that position\r\n            WarpVaultLPI vault = WarpVaultLPI(lpVaults[i]);\r\n            //retreive the address of its asset\r\n            address asset = vault.getAssetAdd();\r\n            //retrieve USD price of this asset\r\n            uint256 assetPrice = Oracle.getUnderlyingPrice(asset);\r\n            //retrieve the total amount of the asset availible as collateral\r\n            uint256 availibleAccountAssets = IERC20(asset).balanceOf(_account);\r\n            //retreive the amount of the asset locked as collateral\r\n            uint256 amountOfLockedAsset = vault.collateralOfAccount(_account);\r\n            //calculate amount of collateral not locked up\r\n            uint256 accountAssets = availibleAccountAssets.sub(\r\n                amountOfLockedAsset\r\n            );\r\n            //multiply the amount of collateral by the asset price and return it\r\n            uint256 accountAssetsValue = accountAssets.mul(assetPrice);\r\n            //add value to total collateral\r\n            totalCollateral = totalCollateral.add(accountAssetsValue);\r\n        }\r\n        //return total USDC value of all collateral\r\n        return totalCollateral;\r\n    }\r\n\r\n    function priorTotalBorrowedValue(address _account) public view returns (uint256) {\r\n        uint256 numSCVaults = scVaults.length;\r\n        uint256 totalBorrowedValue = 0;\r\n\r\n        //loop through all stable coin vaults\r\n        for (uint256 i = 0; i < numSCVaults; ++i) {\r\n            //instantiate each LP warp vault\r\n            WarpVaultSCI WVSC = WarpVaultSCI(scVaults[i]);\r\n            //retreive the amount user has borrowed from each stablecoin vault\r\n            totalBorrowedValue = totalBorrowedValue.add(\r\n                WVSC.borrowBalancePrior(_account)\r\n            );\r\n        }\r\n\r\n        return totalBorrowedValue;\r\n    }\r\n\r\n    function currentTotalBorrowedValue(address _account) public returns (uint256) {\r\n        uint256 numSCVaults = scVaults.length;\r\n        uint256 totalBorrowedValue = 0;\r\n\r\n        //loop through all stable coin vaults\r\n        for (uint256 i = 0; i < numSCVaults; ++i) {\r\n            //instantiate each LP warp vault\r\n            WarpVaultSCI WVSC = WarpVaultSCI(scVaults[i]);\r\n            //retreive the amount user has borrowed from each stablecoin vault\r\n            totalBorrowedValue = totalBorrowedValue.add(\r\n                WVSC.borrowBalanceCurrent(_account)\r\n            );\r\n        }\r\n\r\n        return totalBorrowedValue;\r\n    }\r\n\r\n    function calcBorrowLimit(uint256 collateralValue) public pure returns (uint256) {\r\n        uint256 halfCollat = collateralValue.div(2);\r\n        collateralValue = collateralValue.add(halfCollat);\r\n\r\n        return collateralValue;\r\n    }\r\n\r\n    function getBorrowLimit(address _account) public view returns (uint256) {\r\n        uint256 availibleCollateralValue = checkTotalAvailableCollateralValue(\r\n            msg.sender\r\n        );\r\n\r\n        return calcBorrowLimit(availibleCollateralValue);\r\n    }\r\n\r\n    function borrowSC(address _StableCoin, uint256 _amount) public {\r\n        uint256 borrowedTotal = currentTotalBorrowedValue(msg.sender);\r\n        uint256 availibleCollateralValue = getBorrowLimit(msg.sender);\r\n        \r\n        //calculate USDC amount of what the user is allowed to borrow\r\n        uint256 borrowAmountAllowed = availibleCollateralValue.sub(\r\n            borrowedTotal\r\n        );\r\n\r\n        //require the amount being borrowed is less than or equal to the amount they are aloud to borrow\r\n        require(borrowAmountAllowed >= _amount);\r\n        //track USDC value of locked LP\r\n        lockedLPValue[msg.sender] = lockedLPValue[msg.sender].add(_amount);\r\n        //retreive stablecoin vault address being borrowed from and instantiate it\r\n        WarpVaultSCI WV = WarpVaultSCI(instanceSCTracker[_StableCoin]);\r\n        //call borrow function on the stablecoin warp vault\r\n        WV.borrow(_amount, msg.sender);\r\n    }\r\n\r\n    /**\r\n      @notice markAccountNonCompliant is used by a potential liquidator to mark an account as non compliant which starts its 30 minute timer\r\n      @param _borrower is the address of the non compliant borrower\r\n      **/\r\n    function markAccountNonCompliant(address _borrower)\r\n        public\r\n    {\r\n        //needs to check for account compliance\r\n        require(nonCompliant[_borrower] == 0);\r\n        nonCompliant[_borrower] = now;\r\n    }\r\n\r\n    function liquidateAccount(address borrower) public {\r\n        require(now >= nonCompliant[borrower].add(1800));\r\n\r\n        uint256 numSCVaults = scVaults.length;\r\n        uint256 borrowedAmount = 0;\r\n        uint256[] memory scBalances = new uint256[](numSCVaults);\r\n\r\n        // Borrowed Amount From All Vaults\r\n        for (uint256 i = 0; i < numSCVaults; ++i) {\r\n            WarpVaultSCI scVault = WarpVaultSCI(scVaults[i]);\r\n            scBalances[i] = scVault.borrowBalanceCurrent(borrower);\r\n            borrowedAmount = borrowedAmount.add(\r\n                scBalances[i]\r\n            );\r\n        }\r\n\r\n        uint256 borrowLimit = getBorrowLimit(borrower);\r\n\r\n        nonCompliant[borrower] = 0;\r\n\r\n        if (borrowLimit > borrowedAmount) {\r\n            // The account was in good standing\r\n            return;\r\n        }\r\n\r\n        // Liquidate the account\r\n\r\n        // Liquidator pays off Stable Coin loans\r\n        for (uint256 i = 0; i < numSCVaults; ++i) {\r\n             WarpVaultSCI scVault = WarpVaultSCI(scVaults[i]);\r\n             scVault.repayLiquidatedLoan(borrower, msg.sender, scBalances[i]);\r\n        }\r\n\r\n        // Liquidator gets the LP tokens the borrower had\r\n        uint256 numLPVaults = lpVaults.length;\r\n        for (uint256 i = 0; i < numLPVaults; ++i ) {\r\n            WarpVaultLPI lpVault = WarpVaultLPI(lpVaults[i]);\r\n            lpVault.liquidateAccount(borrower, msg.sender);\r\n        }\r\n\r\n    }\r\n}\r\n",
  "sourcePath": "E:/dOrg/warp/Smart-Contracts/contracts/WarpControl.sol",
  "compiler": {
    "name": "solc",
    "version": "0.6.6+commit.6c089d02.Emscripten.clang"
  },
  "schemaVersion": "3.3.1",
  "updatedAt": "2020-11-05T19:29:38.146Z",
  "devdoc": {
    "methods": {
      "checkTotalAvailableCollateralValue(address)": {
        "params": {
          "_account": "is the address whos collateral value we are looking up*"
        }
      },
      "constructor": {
        "params": {
          "_oracle": "is the address for the UniswapOracleFactorycontract*"
        }
      },
      "markAccountNonCompliant(address)": {
        "params": {
          "_borrower": "is the address of the non compliant borrower*"
        }
      },
      "owner()": {
        "details": "Returns the address of the current owner."
      },
      "renounceOwnership()": {
        "details": "Leaves the contract without owner. It will not be possible to call `onlyOwner` functions anymore. Can only be called by the current owner.     * NOTE: Renouncing ownership will leave the contract without an owner, thereby removing any functionality that is only available to the owner."
      },
      "transferOwnership(address)": {
        "details": "Transfers ownership of the contract to a new account (`newOwner`). Can only be called by the current owner."
      }
    }
  },
  "userdoc": {
    "methods": {
      "checkTotalAvailableCollateralValue(address)": {
        "notice": "checkCollateralValue is a view function that accepts an account address and returns the total USDC value of the accounts locked collateral"
      },
      "constructor": "the constructor function is fired during the contract deployment process. The constructor can only be fired once and is used to set up Oracle variables for the MoneyMarketFactory contract.",
      "createNewLPVault(address,address,address,string)": {
        "notice": "createNewVault allows the contract owner to create a new WarpVaultLP contract along with its associated Warp Wrapper Tokens*"
      },
      "markAccountNonCompliant(address)": {
        "notice": "markAccountNonCompliant is used by a potential liquidator to mark an account as non compliant which starts its 30 minute timer"
      },
      "maxWithdrawAllowed(address,address)": {
        "notice": "Figures out how much of a given LP token an account is allowed to withdraw"
      }
    },
    "notice": "WarpControl is designed to coordinate Warp Vaults This contract uses the OpenZeppelin contract Library to inherit functions from Ownable.sol*"
  }
}