{
  "contractName": "WarpVaultSC",
  "abi": [
    {
      "inputs": [
        {
          "internalType": "address",
          "name": "_InterestRate",
          "type": "address"
        },
        {
          "internalType": "address",
          "name": "_StableCoin",
          "type": "address"
        },
        {
          "internalType": "address",
          "name": "_warpControl",
          "type": "address"
        },
        {
          "internalType": "address",
          "name": "_warpTeam",
          "type": "address"
        },
        {
          "internalType": "uint256",
          "name": "_initialExchangeRate",
          "type": "uint256"
        },
        {
          "internalType": "uint256",
          "name": "_timelock",
          "type": "uint256"
        },
        {
          "internalType": "uint256",
          "name": "_reserveFactorMantissa",
          "type": "uint256"
        }
      ],
      "stateMutability": "nonpayable",
      "type": "constructor"
    },
    {
      "anonymous": false,
      "inputs": [
        {
          "indexed": false,
          "internalType": "uint256",
          "name": "accrualBlockNumber",
          "type": "uint256"
        },
        {
          "indexed": false,
          "internalType": "uint256",
          "name": "borrowIndex",
          "type": "uint256"
        },
        {
          "indexed": false,
          "internalType": "uint256",
          "name": "totalBorrows",
          "type": "uint256"
        },
        {
          "indexed": false,
          "internalType": "uint256",
          "name": "totalReserves",
          "type": "uint256"
        }
      ],
      "name": "InterestAccrued",
      "type": "event"
    },
    {
      "anonymous": false,
      "inputs": [
        {
          "indexed": false,
          "internalType": "address",
          "name": "_borrower",
          "type": "address"
        },
        {
          "indexed": false,
          "internalType": "uint256",
          "name": "_repayAmount",
          "type": "uint256"
        },
        {
          "indexed": false,
          "internalType": "uint256",
          "name": "remainingPrinciple",
          "type": "uint256"
        },
        {
          "indexed": false,
          "internalType": "uint256",
          "name": "remainingInterest",
          "type": "uint256"
        }
      ],
      "name": "LoanRepayed",
      "type": "event"
    },
    {
      "anonymous": false,
      "inputs": [
        {
          "indexed": true,
          "internalType": "address",
          "name": "previousOwner",
          "type": "address"
        },
        {
          "indexed": true,
          "internalType": "address",
          "name": "newOwner",
          "type": "address"
        }
      ],
      "name": "OwnershipTransferred",
      "type": "event"
    },
    {
      "anonymous": false,
      "inputs": [
        {
          "indexed": false,
          "internalType": "uint256",
          "name": "_amount",
          "type": "uint256"
        }
      ],
      "name": "ReserveWithdraw",
      "type": "event"
    },
    {
      "anonymous": false,
      "inputs": [
        {
          "indexed": false,
          "internalType": "address",
          "name": "_lender",
          "type": "address"
        },
        {
          "indexed": false,
          "internalType": "uint256",
          "name": "_amountLent",
          "type": "uint256"
        },
        {
          "indexed": false,
          "internalType": "uint256",
          "name": "_amountOfWarpMinted",
          "type": "uint256"
        }
      ],
      "name": "StableCoinLent",
      "type": "event"
    },
    {
      "anonymous": false,
      "inputs": [
        {
          "indexed": false,
          "internalType": "address",
          "name": "_lender",
          "type": "address"
        },
        {
          "indexed": false,
          "internalType": "uint256",
          "name": "_amountWithdrawn",
          "type": "uint256"
        },
        {
          "indexed": false,
          "internalType": "uint256",
          "name": "_amountOfWarpBurnt",
          "type": "uint256"
        }
      ],
      "name": "StableCoinWithdraw",
      "type": "event"
    },
    {
      "inputs": [],
      "name": "InterestRate",
      "outputs": [
        {
          "internalType": "contract InterestRateModel",
          "name": "",
          "type": "address"
        }
      ],
      "stateMutability": "view",
      "type": "function"
    },
    {
      "inputs": [],
      "name": "WC",
      "outputs": [
        {
          "internalType": "contract WarpControlI",
          "name": "",
          "type": "address"
        }
      ],
      "stateMutability": "view",
      "type": "function"
    },
    {
      "inputs": [
        {
          "internalType": "address",
          "name": "",
          "type": "address"
        }
      ],
      "name": "accountBorrows",
      "outputs": [
        {
          "internalType": "uint256",
          "name": "principal",
          "type": "uint256"
        },
        {
          "internalType": "uint256",
          "name": "interestIndex",
          "type": "uint256"
        }
      ],
      "stateMutability": "view",
      "type": "function"
    },
    {
      "inputs": [],
      "name": "accrualBlockNumber",
      "outputs": [
        {
          "internalType": "uint256",
          "name": "",
          "type": "uint256"
        }
      ],
      "stateMutability": "view",
      "type": "function"
    },
    {
      "inputs": [],
      "name": "borrowIndex",
      "outputs": [
        {
          "internalType": "uint256",
          "name": "",
          "type": "uint256"
        }
      ],
      "stateMutability": "view",
      "type": "function"
    },
    {
      "inputs": [],
      "name": "divisor",
      "outputs": [
        {
          "internalType": "uint256",
          "name": "",
          "type": "uint256"
        }
      ],
      "stateMutability": "view",
      "type": "function"
    },
    {
      "inputs": [
        {
          "internalType": "address",
          "name": "",
          "type": "address"
        }
      ],
      "name": "historicalReward",
      "outputs": [
        {
          "internalType": "uint256",
          "name": "",
          "type": "uint256"
        }
      ],
      "stateMutability": "view",
      "type": "function"
    },
    {
      "inputs": [],
      "name": "owner",
      "outputs": [
        {
          "internalType": "address",
          "name": "",
          "type": "address"
        }
      ],
      "stateMutability": "view",
      "type": "function"
    },
    {
      "inputs": [],
      "name": "percent",
      "outputs": [
        {
          "internalType": "uint256",
          "name": "",
          "type": "uint256"
        }
      ],
      "stateMutability": "view",
      "type": "function"
    },
    {
      "inputs": [
        {
          "internalType": "address",
          "name": "",
          "type": "address"
        }
      ],
      "name": "principalBalance",
      "outputs": [
        {
          "internalType": "uint256",
          "name": "",
          "type": "uint256"
        }
      ],
      "stateMutability": "view",
      "type": "function"
    },
    {
      "inputs": [],
      "name": "renounceOwnership",
      "outputs": [],
      "stateMutability": "nonpayable",
      "type": "function"
    },
    {
      "inputs": [],
      "name": "reserveFactorMantissa",
      "outputs": [
        {
          "internalType": "uint256",
          "name": "",
          "type": "uint256"
        }
      ],
      "stateMutability": "view",
      "type": "function"
    },
    {
      "inputs": [],
      "name": "stablecoin",
      "outputs": [
        {
          "internalType": "contract ERC20",
          "name": "",
          "type": "address"
        }
      ],
      "stateMutability": "view",
      "type": "function"
    },
    {
      "inputs": [],
      "name": "timeWizard",
      "outputs": [
        {
          "internalType": "uint256",
          "name": "",
          "type": "uint256"
        }
      ],
      "stateMutability": "view",
      "type": "function"
    },
    {
      "inputs": [],
      "name": "totalBorrows",
      "outputs": [
        {
          "internalType": "uint256",
          "name": "",
          "type": "uint256"
        }
      ],
      "stateMutability": "view",
      "type": "function"
    },
    {
      "inputs": [],
      "name": "totalReserves",
      "outputs": [
        {
          "internalType": "uint256",
          "name": "",
          "type": "uint256"
        }
      ],
      "stateMutability": "view",
      "type": "function"
    },
    {
      "inputs": [
        {
          "internalType": "address",
          "name": "newOwner",
          "type": "address"
        }
      ],
      "name": "transferOwnership",
      "outputs": [],
      "stateMutability": "nonpayable",
      "type": "function"
    },
    {
      "inputs": [],
      "name": "wStableCoin",
      "outputs": [
        {
          "internalType": "contract WarpWrapperToken",
          "name": "",
          "type": "address"
        }
      ],
      "stateMutability": "view",
      "type": "function"
    },
    {
      "inputs": [],
      "name": "warpTeam",
      "outputs": [
        {
          "internalType": "address",
          "name": "",
          "type": "address"
        }
      ],
      "stateMutability": "view",
      "type": "function"
    },
    {
      "inputs": [
        {
          "internalType": "uint256",
          "name": "_payedAmount",
          "type": "uint256"
        }
      ],
      "name": "calculateFee",
      "outputs": [
        {
          "internalType": "uint256",
          "name": "",
          "type": "uint256"
        }
      ],
      "stateMutability": "view",
      "type": "function"
    },
    {
      "inputs": [],
      "name": "withdrawReserves",
      "outputs": [],
      "stateMutability": "nonpayable",
      "type": "function"
    },
    {
      "inputs": [
        {
          "internalType": "address",
          "name": "_newModel",
          "type": "address"
        }
      ],
      "name": "setNewInterestModel",
      "outputs": [],
      "stateMutability": "nonpayable",
      "type": "function"
    },
    {
      "inputs": [],
      "name": "accrueInterest",
      "outputs": [],
      "stateMutability": "nonpayable",
      "type": "function"
    },
    {
      "inputs": [
        {
          "internalType": "address",
          "name": "account",
          "type": "address"
        }
      ],
      "name": "borrowBalancePrior",
      "outputs": [
        {
          "internalType": "uint256",
          "name": "",
          "type": "uint256"
        }
      ],
      "stateMutability": "view",
      "type": "function"
    },
    {
      "inputs": [
        {
          "internalType": "address",
          "name": "account",
          "type": "address"
        }
      ],
      "name": "borrowBalanceCurrent",
      "outputs": [
        {
          "internalType": "uint256",
          "name": "",
          "type": "uint256"
        }
      ],
      "stateMutability": "nonpayable",
      "type": "function"
    },
    {
      "inputs": [],
      "name": "borrowRatePerBlock",
      "outputs": [
        {
          "internalType": "uint256",
          "name": "",
          "type": "uint256"
        }
      ],
      "stateMutability": "view",
      "type": "function"
    },
    {
      "inputs": [],
      "name": "supplyRatePerBlock",
      "outputs": [
        {
          "internalType": "uint256",
          "name": "",
          "type": "uint256"
        }
      ],
      "stateMutability": "view",
      "type": "function"
    },
    {
      "inputs": [],
      "name": "totalBorrowsCurrent",
      "outputs": [
        {
          "internalType": "uint256",
          "name": "",
          "type": "uint256"
        }
      ],
      "stateMutability": "nonpayable",
      "type": "function"
    },
    {
      "inputs": [],
      "name": "exchangeRatePrior",
      "outputs": [
        {
          "internalType": "uint256",
          "name": "",
          "type": "uint256"
        }
      ],
      "stateMutability": "view",
      "type": "function"
    },
    {
      "inputs": [],
      "name": "exchangeRateCurrent",
      "outputs": [
        {
          "internalType": "uint256",
          "name": "",
          "type": "uint256"
        }
      ],
      "stateMutability": "nonpayable",
      "type": "function"
    },
    {
      "inputs": [],
      "name": "getCash",
      "outputs": [
        {
          "internalType": "uint256",
          "name": "",
          "type": "uint256"
        }
      ],
      "stateMutability": "view",
      "type": "function"
    },
    {
      "inputs": [
        {
          "internalType": "uint256",
          "name": "_amount",
          "type": "uint256"
        },
        {
          "internalType": "address",
          "name": "_refferalCode",
          "type": "address"
        }
      ],
      "name": "lendToWarpVault",
      "outputs": [],
      "stateMutability": "nonpayable",
      "type": "function"
    },
    {
      "inputs": [
        {
          "internalType": "uint256",
          "name": "_amount",
          "type": "uint256"
        }
      ],
      "name": "redeem",
      "outputs": [],
      "stateMutability": "nonpayable",
      "type": "function"
    },
    {
      "inputs": [
        {
          "internalType": "address",
          "name": "_account",
          "type": "address"
        }
      ],
      "name": "viewAccountBalance",
      "outputs": [
        {
          "internalType": "uint256",
          "name": "",
          "type": "uint256"
        }
      ],
      "stateMutability": "view",
      "type": "function"
    },
    {
      "inputs": [
        {
          "internalType": "address",
          "name": "_account",
          "type": "address"
        }
      ],
      "name": "viewHistoricalReward",
      "outputs": [
        {
          "internalType": "uint256",
          "name": "",
          "type": "uint256"
        }
      ],
      "stateMutability": "view",
      "type": "function"
    },
    {
      "inputs": [
        {
          "internalType": "uint256",
          "name": "_borrowAmount",
          "type": "uint256"
        },
        {
          "internalType": "address",
          "name": "_borrower",
          "type": "address"
        }
      ],
      "name": "_borrow",
      "outputs": [],
      "stateMutability": "nonpayable",
      "type": "function"
    },
    {
      "inputs": [
        {
          "internalType": "uint256",
          "name": "_repayAmount",
          "type": "uint256"
        }
      ],
      "name": "repayBorrow",
      "outputs": [],
      "stateMutability": "nonpayable",
      "type": "function"
    },
    {
      "inputs": [
        {
          "internalType": "address",
          "name": "_borrower",
          "type": "address"
        },
        {
          "internalType": "address",
          "name": "_liquidator",
          "type": "address"
        },
        {
          "internalType": "uint256",
          "name": "_amount",
          "type": "uint256"
        }
      ],
      "name": "_repayLiquidatedLoan",
      "outputs": [],
      "stateMutability": "nonpayable",
      "type": "function"
    }
  ],
  "bytecode": "0x60806040526105dc6007556127106008553480156200001d57600080fd5b5060405162003f0538038062003f05833981810160405260e08110156200004357600080fd5b508051602082015160408301516060840151608085015160a086015160c09096015194959394929391929091906000620000856001600160e01b036200052216565b600080546001600160a01b0319166001600160a01b0383169081178255604051929350917f8be0079c531659141344cd1fd0a4f28419497f9722a3daafe3b4186f6b6457e0908290a350600d80546001600160a01b038088166001600160a01b031992831617909255600b8054898416908316179055600e8054928a16929091169190911790556200011f6001600160e01b036200052616565b600355670de0b6b3a76400006004556001839055600a80546001600160a01b0319166001600160a01b0386161790556200016642836200052a602090811b62001ec717901c565b6009556002819055600b54604080516306fdde0360e01b815290516001600160a01b039092169182916306fdde03916004808301926000929190829003018186803b158015620001b557600080fd5b505afa158015620001ca573d6000803e3d6000fd5b505050506040513d6000823e601f3d908101601f191682016040526020811015620001f457600080fd5b81019080805160405193929190846401000000008211156200021557600080fd5b9083019060208201858111156200022b57600080fd5b82516401000000008111828201881017156200024657600080fd5b82525081516020918201929091019080838360005b83811015620002755781810151838201526020016200025b565b50505050905090810190601f168015620002a35780820380516001836020036101000a031916815260200191505b506040818152600b546395d89b4160e01b835290516001600160a01b0390911694506395d89b41935060048083019350600092829003018186803b158015620002eb57600080fd5b505afa15801562000300573d6000803e3d6000fd5b505050506040513d6000823e601f3d908101601f1916820160405260208110156200032a57600080fd5b81019080805160405193929190846401000000008211156200034b57600080fd5b9083019060208201858111156200036157600080fd5b82516401000000008111828201881017156200037c57600080fd5b82525081516020918201929091019080838360005b83811015620003ab57818101518382015260200162000391565b50505050905090810190601f168015620003d95780820380516001836020036101000a031916815260200191505b50604052505050604051620003ee906200058c565b6001600160a01b0384168152606060208083018281528551928401929092528451604084019160808501919087019080838360005b838110156200043d57818101518382015260200162000423565b50505050905090810190601f1680156200046b5780820380516001836020036101000a031916815260200191505b50838103825284518152845160209182019186019080838360005b83811015620004a057818101518382015260200162000486565b50505050905090810190601f168015620004ce5780820380516001836020036101000a031916815260200191505b5095505050505050604051809103906000f080158015620004f3573d6000803e3d6000fd5b50600c80546001600160a01b0319166001600160a01b0392909216919091179055506200059a95505050505050565b3390565b4390565b60008282018381101562000585576040805162461bcd60e51b815260206004820152601b60248201527f536166654d6174683a206164646974696f6e206f766572666c6f770000000000604482015290519081900360640190fd5b9392505050565b6113a18062002b6483390190565b6125ba80620005aa6000396000f3fe608060405234801561001057600080fd5b50600436106102325760003560e01c80638da5cb5b11610130578063bd6d894d116100b8578063e6136ab61161007c578063e6136ab6146104f1578063e68fc0ee14610517578063e9cbd8221461053d578063f2fde38b14610545578063f8f9da281461056b57610232565b8063bd6d894d1461047d578063cb7b420614610485578063cd5c6f571461048d578063d40e8f4a14610495578063db006a75146104d457610232565b8063a6afed95116100ff578063a6afed9514610409578063aa5af0fd14610411578063ab292f9b14610419578063ae9d70b01461044f578063b1be82f11461045757610232565b80638da5cb5b146103b65780638f7bf4fd146103be5780638f840ddd146103e457806399a5d747146103ec57610232565b806347bd3718116101be57806370ba11131161018257806370ba11131461034c578063715018a61461035457806373acee981461035c5780637746efab146103645780638382ac0c1461038a57610232565b806347bd37181461032457806348dc0b6e1461032c5780634ee8acc0146103345780635cf573891461033c5780636c540baf1461034457610232565b80631f2dc5ef116102055780631f2dc5ef146102ba578063232d46d2146102c257806326d5f641146102ee57806336820e4b146102f65780633b1d21a21461031c57610232565b80630e75270214610237578063122b581814610256578063173b99041461027a57806317bfdfbc14610294575b600080fd5b6102546004803603602081101561024d57600080fd5b5035610573565b005b61025e610914565b604080516001600160a01b039092168252519081900360200190f35b610282610923565b60408051918252519081900360200190f35b610282600480360360208110156102aa57600080fd5b50356001600160a01b0316610929565b610282610944565b610254600480360360408110156102d857600080fd5b50803590602001356001600160a01b031661094a565b610254610af2565b6102826004803603602081101561030c57600080fd5b50356001600160a01b0316610bd1565b610282610be3565b610282610bf3565b61025e610bf9565b61025e610c08565b61025e610c17565b610282610c26565b610282610c2c565b610254610c32565b610282610ce6565b6102826004803603602081101561037a57600080fd5b50356001600160a01b0316610cf7565b610254600480360360408110156103a057600080fd5b50803590602001356001600160a01b0316610d9a565b61025e610fb9565b610282600480360360208110156103d457600080fd5b50356001600160a01b0316610fc8565b61028261107d565b6102826004803603602081101561040257600080fd5b5035611083565b6102546110b4565b610282611329565b6102546004803603606081101561042f57600080fd5b506001600160a01b0381358116916020810135909116906040013561132f565b61028261143c565b6102546004803603602081101561046d57600080fd5b50356001600160a01b03166114db565b610282611567565b6102826116b8565b6102826116be565b6104bb600480360360208110156104ab57600080fd5b50356001600160a01b0316611703565b6040805192835260208301919091528051918290030190f35b610254600480360360208110156104ea57600080fd5b503561171c565b6102826004803603602081101561050757600080fd5b50356001600160a01b0316611b8d565b6102826004803603602081101561052d57600080fd5b50356001600160a01b0316611cc7565b61025e611cd9565b6102546004803603602081101561055b57600080fd5b50356001600160a01b0316611ce8565b610282611df2565b600954421161058157600080fd5b610589612426565b61059233610929565b606082018190528211156105d75760405162461bcd60e51b815260040180806020018281038252602c815260200180612512602c913960400191505060405180910390fd5b336000818152600f60208181526040808420805460e088015294909352526001909101549082015281610613576060810151602082015261061b565b602081018290525b602080820151600b54604080516370a0823160e01b8152336004820152905192936001600160a01b03909216926370a0823192602480840193919291829003018186803b15801561066b57600080fd5b505afa15801561067f573d6000803e3d6000fd5b505050506040513d602081101561069557600080fd5b505110156106ea576040805162461bcd60e51b815260206004820152601e60248201527f4e6f7420656e6f75676820737461626c65636f696e20746f2072657061790000604482015290519081900360640190fd5b600b54602080830151604080516323b872dd60e01b81523360048201523060248201526044810192909252516001600160a01b03909316926323b872dd926064808401939192918290030181600087803b15801561074757600080fd5b505af115801561075b573d6000803e3d6000fd5b505050506040513d602081101561077157600080fd5b5050606081015160208201516107879190611e56565b608083018190528282600381111561079b57fe5b60038111156107a657fe5b81525050506107bb6005548260200151611e56565b60a08301819052828260038111156107cf57fe5b60038111156107da57fe5b90525050336000908152600f6020526040902054821161081b576080810151336000908152600f602052604090819020918255820151600190910155610884565b336000908152600f6020526040902054608082015161083f9163ffffffff611e7c16565b6101008201908152336000908152600f6020526040812090815590516001909101546108709163ffffffff611e7c16565b336000908152600f60205260409020600101555b60a0810151600555336000908152600f60205260409020600181015490546108b19163ffffffff611ec716565b60c0820152336000818152600f602090815260409182902080546001909101548351948552918401869052838301526060830152517f0bc102cfc64751888477c44e529873a602bf746175b1e41c6b54e45f926f90f99181900360800190a15050565b600d546001600160a01b031681565b60025481565b60006109336110b4565b61093c82610cf7565b90505b919050565b60085481565b600d546001600160a01b0316331461096157600080fd5b600954421161096f57600080fd5b610977612473565b82610980611f21565b116109d2576040805162461bcd60e51b815260206004820152601960248201527f4e6f7420656e6f75676820746f6b656e7320746f206c656e6400000000000000604482015290519081900360640190fd5b6109db82610cf7565b602082018190526109ec9084611f6c565b6040830181905282826003811115610a0057fe5b6003811115610a0b57fe5b8152505050610a1c60055484611f6c565b6060830181905282826003811115610a3057fe5b6003811115610a3b57fe5b905250506040808201516001600160a01b038085166000818152600f6020908152858220948555600480546001909601959095556060870151600555600b54865163a9059cbb60e01b815295860193909352602485018990529451919092169363a9059cbb93604480820194929392918390030190829087803b158015610ac157600080fd5b505af1158015610ad5573d6000803e3d6000fd5b505050506040513d6020811015610aeb57600080fd5b5050505050565b600a546001600160a01b03163314610b0957600080fd5b60068054600091829055600b54600a546040805163a9059cbb60e01b81526001600160a01b0392831660048201526024810185905290519394919092169263a9059cbb926044808201936020939283900390910190829087803b158015610b6f57600080fd5b505af1158015610b83573d6000803e3d6000fd5b505050506040513d6020811015610b9957600080fd5b50506040805182815290517f2b33eb7f7ae0d9bb1596ccbff4b5ed6460dd64eb6bef0c24870065aa469bbb749181900360200190a150565b60116020526000908152604090205481565b6000610bed611f21565b90505b90565b60055481565b600e546001600160a01b031681565b600c546001600160a01b031681565b600a546001600160a01b031681565b60035481565b60075481565b610c3a611f92565b6000546001600160a01b03908116911614610c9c576040805162461bcd60e51b815260206004820181905260248201527f4f776e61626c653a2063616c6c6572206973206e6f7420746865206f776e6572604482015290519081900360640190fd5b600080546040516001600160a01b03909116907f8be0079c531659141344cd1fd0a4f28419497f9722a3daafe3b4186f6b6457e0908390a3600080546001600160a01b0319169055565b6000610cf06110b4565b5060055490565b6001600160a01b0381166000908152600f60205260408120805482918291829190610d2957600094505050505061093f565b610d398160000154600454611f96565b90945092506000846003811115610d4c57fe5b14610d5e57600094505050505061093f565b610d6c838260010154611fd5565b90945091506000846003811115610d7f57fe5b14610d9157600094505050505061093f565b50949350505050565b610da261249c565b610daa611567565b602080830191825260408051918201905290518152610dca908490612000565b6040830181905282826003811115610dde57fe5b6003811115610de957fe5b90525050600b54604080516323b872dd60e01b81523360048201523060248201526044810186905290516001600160a01b03909216916323b872dd916064808201926020929091908290030181600087803b158015610e4757600080fd5b505af1158015610e5b573d6000803e3d6000fd5b505050506040513d6020811015610e7157600080fd5b50503360009081526010602052604090208054840190556009544211610efe57600d546040805163856d836b60e01b81526001600160a01b0385811660048301523360248301529151919092169163856d836b91604480830192600092919082900301818387803b158015610ee557600080fd5b505af1158015610ef9573d6000803e3d6000fd5b505050505b600c5460408083015181516340c10f1960e01b8152336004820152602481019190915290516001600160a01b03909216916340c10f199160448082019260009290919082900301818387803b158015610f5657600080fd5b505af1158015610f6a573d6000803e3d6000fd5b5050506040808301518151338152602081018790528083019190915290517fac45f50416433593e7c9a1f3e0d5f887c530c22d776e1057ecaacb750d24b94092509081900360600190a1505050565b6000546001600160a01b031690565b600080610fd36116be565b600c54604080516370a0823160e01b81526001600160a01b038781166004830152915193945060009391909216916370a08231916024808301926020929190829003018186803b15801561102657600080fd5b505afa15801561103a573d6000803e3d6000fd5b505050506040513d602081101561105057600080fd5b5051604080516020810190915283815290915060009081906110729084612053565b979650505050505050565b60065481565b6000806110ad6008546110a16007548661206a90919063ffffffff16565b9063ffffffff6120c316565b9392505050565b60006110be612105565b60035490915080821415611119576040805162461bcd60e51b815260206004820152601f60248201527f547279696e6720746f2061636372756520696e74657265737420747769636500604482015290519081900360640190fd5b6000611123611f21565b60055460065460048054600e54604080516315f2405360e01b81529384018790526024840186905260448401859052519596509394929390926000926001600160a01b03909216916315f24053916064808301926020929190829003018186803b15801561119057600080fd5b505afa1580156111a4573d6000803e3d6000fd5b505050506040513d60208110156111ba57600080fd5b5051905065048c27395000811115611219576040805162461bcd60e51b815260206004820152601a60248201527f426f72726f772052617465206d616e7469737361206572726f72000000000000604482015290519081900360640190fd5b6000806112268989611e56565b915091506112326124c7565b60008060008061125060405180602001604052808a81525087612109565b909750945061125f858c612053565b909750935061126e848c611f6c565b60408051602081019091526002548152919850935061128e90858c612171565b909750915061129e858a80612171565b80925081985050508d6003819055508060048190555082600581905550816006819055507fe3972ae250606e82c6683843383cb8a51755588d2f443af42e8cb5b1e085392d6003546004546005546006546040518085815260200184815260200183815260200182815260200194505050505060405180910390a15050505050505050505050505050565b60045481565b600d546001600160a01b0316331461134657600080fd5b600954421161135457600080fd5b600b54604080516323b872dd60e01b81526001600160a01b03858116600483015230602483015260448201859052915191909216916323b872dd9160648083019260209291908290030181600087803b1580156113b057600080fd5b505af11580156113c4573d6000803e3d6000fd5b505050506040513d60208110156113da57600080fd5b50600090506113e882611083565b6006549091506113fe908263ffffffff611ec716565b6006556001600160a01b0384166000908152600f6020526040812081815560010155600554611433908363ffffffff611e7c16565b60055550505050565b600e546000906001600160a01b031663b8168816611458611f21565b6005546006546002546040518563ffffffff1660e01b81526004018085815260200184815260200183815260200182815260200194505050505060206040518083038186803b1580156114aa57600080fd5b505afa1580156114be573d6000803e3d6000fd5b505050506040513d60208110156114d457600080fd5b5051905090565b6114e3611f92565b6000546001600160a01b03908116911614611545576040805162461bcd60e51b815260206004820181905260248201527f4f776e61626c653a2063616c6c6572206973206e6f7420746865206f776e6572604482015290519081900360640190fd5b600e80546001600160a01b0319166001600160a01b0392909216919091179055565b60006115716110b4565b600c60009054906101000a90046001600160a01b03166001600160a01b03166318160ddd6040518163ffffffff1660e01b815260040160206040518083038186803b1580156115bf57600080fd5b505afa1580156115d3573d6000803e3d6000fd5b505050506040513d60208110156115e957600080fd5b50516115f85750600154610bf0565b6000611602611f21565b9050600061160e6124c7565b600061161f846005546006546121cd565b80945081925050506116aa83600c60009054906101000a90046001600160a01b03166001600160a01b03166318160ddd6040518163ffffffff1660e01b815260040160206040518083038186803b15801561167957600080fd5b505afa15801561168d573d6000803e3d6000fd5b505050506040513d60208110156116a357600080fd5b505161220b565b519550610bf0945050505050565b60095481565b600c54604080516318160ddd60e01b815290516000926001600160a01b0316916318160ddd916004808301926020929190829003018186803b1580156115bf57600080fd5b600f602052600090815260409020805460019091015482565b6117246124da565b600c54604080516370a0823160e01b815233600482015290516001600160a01b03909216916370a0823191602480820192602092909190829003018186803b15801561176f57600080fd5b505afa158015611783573d6000803e3d6000fd5b505050506040513d602081101561179957600080fd5b505160808201526117a8611567565b6020808301918252604080519182019052905181526117c8908390612000565b60408301819052828260038111156117dc57fe5b60038111156117e757fe5b90525050600b54604080516370a0823160e01b8152306004820152905184926001600160a01b0316916370a08231916024808301926020929190829003018186803b15801561183557600080fd5b505afa158015611849573d6000803e3d6000fd5b505050506040513d602081101561185f57600080fd5b505110156118b4576040805162461bcd60e51b815260206004820152601f60248201527f4e6f7420656e6f75676820737461626c65636f696e20696e207661756c742e00604482015290519081900360640190fd5b6118d4604051806020016040528083602001518152508260600151612053565b60808301819052828260038111156118e857fe5b60038111156118f357fe5b905250503360009081526010602052604081205460808301511115611939573360009081526010602052604090205460808301516119369163ffffffff611e7c16565b90505b611949838263ffffffff611e7c16565b60a0830152808310611a225733600090815260116020526040902054611975908263ffffffff611ec716565b3360009081526011602090815260408083209390935560109052205460a083015111156119e9576040805162461bcd60e51b815260206004820152601960248201527f4572726f722063616c63756c6174696e67207265776172642e00000000000000604482015290519081900360640190fd5b60a082015133600090815260106020526040902054611a0d9163ffffffff611e7c16565b33600090815260106020526040902055611a53565b33600090815260116020526040902054611a42908463ffffffff611ec716565b336000908152601160205260409020555b600c546040808401518151632770a7eb60e21b8152336004820152602481019190915290516001600160a01b0390921691639dc29fac9160448082019260009290919082900301818387803b158015611aab57600080fd5b505af1158015611abf573d6000803e3d6000fd5b5050600b546040805163a9059cbb60e01b81523360048201526024810188905290516001600160a01b03909216935063a9059cbb92506044808201926020929091908290030181600087803b158015611b1757600080fd5b505af1158015611b2b573d6000803e3d6000fd5b505050506040513d6020811015611b4157600080fd5b50506040808301518151338152602081018690528083019190915290517fac45f50416433593e7c9a1f3e0d5f887c530c22d776e1057ecaacb750d24b9409181900360600190a1505050565b600080611b986116be565b600c54604080516370a0823160e01b81526001600160a01b038781166004830152915193945060009391909216916370a08231916024808301926020929190829003018186803b158015611beb57600080fd5b505afa158015611bff573d6000803e3d6000fd5b505050506040513d6020811015611c1557600080fd5b50516001600160a01b03851660009081526010602052604090205490915081611c5a57505050506001600160a01b03811660009081526011602052604090205461093f565b600080611c7560405180602001604052808781525085612053565b90925090506000611c8c828563ffffffff611e7c16565b6001600160a01b03891660009081526011602052604081205491925090611cba90839063ffffffff611ec716565b9998505050505050505050565b60106020526000908152604090205481565b600b546001600160a01b031681565b611cf0611f92565b6000546001600160a01b03908116911614611d52576040805162461bcd60e51b815260206004820181905260248201527f4f776e61626c653a2063616c6c6572206973206e6f7420746865206f776e6572604482015290519081900360640190fd5b6001600160a01b038116611d975760405162461bcd60e51b815260040180806020018281038252602681526020018061253e6026913960400191505060405180910390fd5b600080546040516001600160a01b03808516939216917f8be0079c531659141344cd1fd0a4f28419497f9722a3daafe3b4186f6b6457e091a3600080546001600160a01b0319166001600160a01b0392909216919091179055565b600e546000906001600160a01b03166315f24053611e0e611f21565b6005546006546040518463ffffffff1660e01b815260040180848152602001838152602001828152602001935050505060206040518083038186803b1580156114aa57600080fd5b600080838311611e6d575060009050818303611e75565b506003905060005b9250929050565b6000611ebe83836040518060400160405280601e81526020017f536166654d6174683a207375627472616374696f6e206f766572666c6f7700008152506122bc565b90505b92915050565b600082820183811015611ebe576040805162461bcd60e51b815260206004820152601b60248201527f536166654d6174683a206164646974696f6e206f766572666c6f770000000000604482015290519081900360640190fd5b600b54604080516370a0823160e01b815230600482015290516000926001600160a01b0316916370a08231916024808301926020929190829003018186803b1580156114aa57600080fd5b600080838301848110611f8457600092509050611e75565b506002915060009050611e75565b3390565b60008083611fa957506000905080611e75565b83830283858281611fb657fe5b0414611fca57506002915060009050611e75565b600092509050611e75565b60008082611fe95750600190506000611e75565b6000838581611ff457fe5b04915091509250929050565b600080600061200d6124c7565b6120178686612353565b9092509050600082600381111561202a57fe5b1461203b5750915060009050611e75565b6000612046826123b2565b9350935050509250929050565b60008060006120606124c7565b6120178686612109565b60008261207957506000611ec1565b8282028284828161208657fe5b0414611ebe5760405162461bcd60e51b81526004018080602001828103825260218152602001806125646021913960400191505060405180910390fd5b6000611ebe83836040518060400160405280601a81526020017f536166654d6174683a206469766973696f6e206279207a65726f0000000000008152506123c1565b4390565b60006121136124c7565b600080612124866000015186611f96565b9092509050600082600381111561213757fe5b1461215657506040805160208101909152600081529092509050611e75565b60408051602081019091529081526000969095509350505050565b600080600061217e6124c7565b6121888787612109565b9092509050600082600381111561219b57fe5b146121ac57509150600090506121c5565b6121be6121b8826123b2565b86611f6c565b9350935050505b935093915050565b6000806000806121dd8787611f6c565b909250905060008260038111156121f057fe5b1461220157509150600090506121c5565b6121be8186611e56565b60006122156124c7565b60008061222a86670de0b6b3a7640000611f96565b9092509050600082600381111561223d57fe5b1461225c57506040805160208101909152600081529092509050611e75565b6000806122698388611fd5565b9092509050600082600381111561227c57fe5b1461229f5781604051806020016040528060008152509550955050505050611e75565b604080516020810190915290815260009890975095505050505050565b6000818484111561234b5760405162461bcd60e51b81526004018080602001828103825283818151815260200191508051906020019080838360005b838110156123105781810151838201526020016122f8565b50505050905090810190601f16801561233d5780820380516001836020036101000a031916815260200191505b509250505060405180910390fd5b505050900390565b600061235d6124c7565b600080612372670de0b6b3a764000087611f96565b9092509050600082600381111561238557fe5b146123a457506040805160208101909152600081529092509050611e75565b61204681866000015161220b565b51670de0b6b3a7640000900490565b600081836124105760405162461bcd60e51b81526020600482018181528351602484015283519092839260449091019190850190808383600083156123105781810151838201526020016122f8565b50600083858161241c57fe5b0495945050505050565b604080516101208101909152806000815260200160008152602001600081526020016000815260200160008152602001600081526020016000815260200160008152602001600081525090565b604080516080810190915280600081526020016000815260200160008152602001600081525090565b6040805160808101909152806000815260200160008152602001600081526020016000151581525090565b6040518060200160405280600081525090565b6040805160c0810190915280600081526020016000815260200160008152602001600081526020016000815260200160008152509056fe596f752061726520747279696e6720746f20706179206261636b206d6f7265207468616e20796f75206f77654f776e61626c653a206e6577206f776e657220697320746865207a65726f2061646472657373536166654d6174683a206d756c7469706c69636174696f6e206f766572666c6f77a2646970667358221220465aaf0157cb1480c803b8211870ad15886f04fdae0a764241991079c818530c64736f6c6343000606003360806040523480156200001157600080fd5b50604051620013a1380380620013a1833981810160405260608110156200003757600080fd5b8151602083018051604051929492938301929190846401000000008211156200005f57600080fd5b9083019060208201858111156200007557600080fd5b82516401000000008111828201881017156200009057600080fd5b82525081516020918201929091019080838360005b83811015620000bf578181015183820152602001620000a5565b50505050905090810190601f168015620000ed5780820380516001836020036101000a031916815260200191505b50604052602001805160405193929190846401000000008211156200011157600080fd5b9083019060208201858111156200012757600080fd5b82516401000000008111828201881017156200014257600080fd5b82525081516020918201929091019080838360005b838110156200017157818101518382015260200162000157565b50505050905090810190601f1680156200019f5780820380516001836020036101000a031916815260200191505b5060405250505080826000620001ba6200026c60201b60201c565b600080546001600160a01b0319166001600160a01b0383169081178255604051929350917f8be0079c531659141344cd1fd0a4f28419497f9722a3daafe3b4186f6b6457e0908290a35081516200021990600490602085019062000271565b5080516200022f90600590602084019062000271565b5050600680546001600160a01b0390951661010002610100600160a81b031960ff1990961660121795909516949094179093555062000313915050565b335b90565b828054600181600116156101000203166002900490600052602060002090601f016020900481019282601f10620002b457805160ff1916838001178555620002e4565b82800160010185558215620002e4579182015b82811115620002e4578251825591602001919060010190620002c7565b50620002f2929150620002f6565b5090565b6200026e91905b80821115620002f25760008155600101620002fd565b61107e80620003236000396000f3fe608060405234801561001057600080fd5b506004361061010b5760003560e01c8063715018a6116100a2578063a457c2d711610071578063a457c2d71461031b578063a9059cbb14610347578063dd62ed3e14610373578063e9cbd822146103a1578063f2fde38b146103a95761010b565b8063715018a6146102bb5780638da5cb5b146102c357806395d89b41146102e75780639dc29fac146102ef5761010b565b8063313ce567116100de578063313ce5671461021d578063395093511461023b57806340c10f191461026757806370a08231146102955761010b565b806306fdde0314610110578063095ea7b31461018d57806318160ddd146101cd57806323b872dd146101e7575b600080fd5b6101186103cf565b6040805160208082528351818301528351919283929083019185019080838360005b8381101561015257818101518382015260200161013a565b50505050905090810190601f16801561017f5780820380516001836020036101000a031916815260200191505b509250505060405180910390f35b6101b9600480360360408110156101a357600080fd5b506001600160a01b038135169060200135610465565b604080519115158252519081900360200190f35b6101d5610482565b60408051918252519081900360200190f35b6101b9600480360360608110156101fd57600080fd5b506001600160a01b03813581169160208101359091169060400135610488565b610225610515565b6040805160ff9092168252519081900360200190f35b6101b96004803603604081101561025157600080fd5b506001600160a01b03813516906020013561051e565b6102936004803603604081101561027d57600080fd5b506001600160a01b038135169060200135610572565b005b6101d5600480360360208110156102ab57600080fd5b50356001600160a01b03166105d8565b6102936105f3565b6102cb610695565b604080516001600160a01b039092168252519081900360200190f35b6101186106a4565b6102936004803603604081101561030557600080fd5b506001600160a01b038135169060200135610705565b6101b96004803603604081101561033157600080fd5b506001600160a01b038135169060200135610767565b6101b96004803603604081101561035d57600080fd5b506001600160a01b0381351690602001356107d5565b6101d56004803603604081101561038957600080fd5b506001600160a01b03813581169160200135166107e9565b6102cb610814565b610293600480360360208110156103bf57600080fd5b50356001600160a01b0316610828565b60048054604080516020601f600260001961010060018816150201909516949094049384018190048102820181019092528281526060939092909183018282801561045b5780601f106104305761010080835404028352916020019161045b565b820191906000526020600020905b81548152906001019060200180831161043e57829003601f168201915b5050505050905090565b6000610479610472610920565b8484610924565b50600192915050565b60035490565b6000610495848484610a10565b61050b846104a1610920565b61050685604051806060016040528060288152602001610f72602891396001600160a01b038a166000908152600260205260408120906104df610920565b6001600160a01b03168152602081019190915260400160002054919063ffffffff610b7916565b610924565b5060019392505050565b60065460ff1690565b600061047961052b610920565b84610506856002600061053c610920565b6001600160a01b03908116825260208083019390935260409182016000908120918c16815292529020549063ffffffff610c1016565b61057a610920565b6000546001600160a01b039081169116146105ca576040805162461bcd60e51b81526020600482018190526024820152600080516020610f9a833981519152604482015290519081900360640190fd5b6105d48282610c71565b5050565b6001600160a01b031660009081526001602052604090205490565b6105fb610920565b6000546001600160a01b0390811691161461064b576040805162461bcd60e51b81526020600482018190526024820152600080516020610f9a833981519152604482015290519081900360640190fd5b600080546040516001600160a01b03909116907f8be0079c531659141344cd1fd0a4f28419497f9722a3daafe3b4186f6b6457e0908390a3600080546001600160a01b0319169055565b6000546001600160a01b031690565b60058054604080516020601f600260001961010060018816150201909516949094049384018190048102820181019092528281526060939092909183018282801561045b5780601f106104305761010080835404028352916020019161045b565b61070d610920565b6000546001600160a01b0390811691161461075d576040805162461bcd60e51b81526020600482018190526024820152600080516020610f9a833981519152604482015290519081900360640190fd5b6105d48282610d6f565b6000610479610774610920565b8461050685604051806060016040528060258152602001611024602591396002600061079e610920565b6001600160a01b03908116825260208083019390935260409182016000908120918d1681529252902054919063ffffffff610b7916565b60006104796107e2610920565b8484610a10565b6001600160a01b03918216600090815260026020908152604080832093909416825291909152205490565b60065461010090046001600160a01b031681565b610830610920565b6000546001600160a01b03908116911614610880576040805162461bcd60e51b81526020600482018190526024820152600080516020610f9a833981519152604482015290519081900360640190fd5b6001600160a01b0381166108c55760405162461bcd60e51b8152600401808060200182810382526026815260200180610f046026913960400191505060405180910390fd5b600080546040516001600160a01b03808516939216917f8be0079c531659141344cd1fd0a4f28419497f9722a3daafe3b4186f6b6457e091a3600080546001600160a01b0319166001600160a01b0392909216919091179055565b3390565b6001600160a01b0383166109695760405162461bcd60e51b81526004018080602001828103825260248152602001806110006024913960400191505060405180910390fd5b6001600160a01b0382166109ae5760405162461bcd60e51b8152600401808060200182810382526022815260200180610f2a6022913960400191505060405180910390fd5b6001600160a01b03808416600081815260026020908152604080832094871680845294825291829020859055815185815291517f8c5be1e5ebec7d5bd14f71427d1e84f3dd0314c0f7b2291e5b200ac8c7c3b9259281900390910190a3505050565b6001600160a01b038316610a555760405162461bcd60e51b8152600401808060200182810382526025815260200180610fdb6025913960400191505060405180910390fd5b6001600160a01b038216610a9a5760405162461bcd60e51b8152600401808060200182810382526023815260200180610ebf6023913960400191505060405180910390fd5b610aa5838383610e77565b610ae881604051806060016040528060268152602001610f4c602691396001600160a01b038616600090815260016020526040902054919063ffffffff610b7916565b6001600160a01b038085166000908152600160205260408082209390935590841681522054610b1d908263ffffffff610c1016565b6001600160a01b0380841660008181526001602090815260409182902094909455805185815290519193928716927fddf252ad1be2c89b69c2b068fc378daa952ba7f163c4a11628f55a4df523b3ef92918290030190a3505050565b60008184841115610c085760405162461bcd60e51b81526004018080602001828103825283818151815260200191508051906020019080838360005b83811015610bcd578181015183820152602001610bb5565b50505050905090810190601f168015610bfa5780820380516001836020036101000a031916815260200191505b509250505060405180910390fd5b505050900390565b600082820183811015610c6a576040805162461bcd60e51b815260206004820152601b60248201527f536166654d6174683a206164646974696f6e206f766572666c6f770000000000604482015290519081900360640190fd5b9392505050565b6001600160a01b038216610ccc576040805162461bcd60e51b815260206004820152601f60248201527f45524332303a206d696e7420746f20746865207a65726f206164647265737300604482015290519081900360640190fd5b610cd860008383610e77565b600354610ceb908263ffffffff610c1016565b6003556001600160a01b038216600090815260016020526040902054610d17908263ffffffff610c1016565b6001600160a01b03831660008181526001602090815260408083209490945583518581529351929391927fddf252ad1be2c89b69c2b068fc378daa952ba7f163c4a11628f55a4df523b3ef9281900390910190a35050565b6001600160a01b038216610db45760405162461bcd60e51b8152600401808060200182810382526021815260200180610fba6021913960400191505060405180910390fd5b610dc082600083610e77565b610e0381604051806060016040528060228152602001610ee2602291396001600160a01b038516600090815260016020526040902054919063ffffffff610b7916565b6001600160a01b038316600090815260016020526040902055600354610e2f908263ffffffff610e7c16565b6003556040805182815290516000916001600160a01b038516917fddf252ad1be2c89b69c2b068fc378daa952ba7f163c4a11628f55a4df523b3ef9181900360200190a35050565b505050565b6000610c6a83836040518060400160405280601e81526020017f536166654d6174683a207375627472616374696f6e206f766572666c6f770000815250610b7956fe45524332303a207472616e7366657220746f20746865207a65726f206164647265737345524332303a206275726e20616d6f756e7420657863656564732062616c616e63654f776e61626c653a206e6577206f776e657220697320746865207a65726f206164647265737345524332303a20617070726f766520746f20746865207a65726f206164647265737345524332303a207472616e7366657220616d6f756e7420657863656564732062616c616e636545524332303a207472616e7366657220616d6f756e74206578636565647320616c6c6f77616e63654f776e61626c653a2063616c6c6572206973206e6f7420746865206f776e657245524332303a206275726e2066726f6d20746865207a65726f206164647265737345524332303a207472616e736665722066726f6d20746865207a65726f206164647265737345524332303a20617070726f76652066726f6d20746865207a65726f206164647265737345524332303a2064656372656173656420616c6c6f77616e63652062656c6f77207a65726fa26469706673582212204534f3b589de5159f884ad9db3a386e94aa6877e24127adfc82af7f80e993adc64736f6c63430006060033",
  "immutableReferences": {},
  "source": "pragma solidity ^0.6.2;\n\nimport \"@openzeppelin/contracts/access/Ownable.sol\";\nimport \"@openzeppelin/contracts/math/SafeMath.sol\";\nimport \"@openzeppelin/contracts/token/ERC20/ERC20.sol\";\nimport \"./compound/Exponential.sol\";\nimport \"./compound/InterestRateModel.sol\";\nimport \"./interfaces/UniswapLPOracleFactoryI.sol\";\nimport \"./WarpWrapperToken.sol\";\nimport \"./interfaces/WarpControlI.sol\";\n\n////////////////////////////////////////////////////////////////////////////////////////////\n/// @title WarpVaultSC\n/// @author Christopher Dixon\n////////////////////////////////////////////////////////////////////////////////////////////\n/**\n@notice the WarpVaultSC contract is the main point of interface for a specific LP asset class and an end user in the\nWarp lending platform. This contract is responsible for distributing WarpWrapper tokens in exchange for stablecoin assets,\nholding and accounting of stablecoins and LP tokens and all associates lending/borrowing calculations for a specific Warp LP asset class.\nThis contract inherits Ownership and ERC20 functionality from the Open Zeppelin Library as well as Exponential and the InterestRateModel contracts\nfrom the coumpound protocol.\n**/\n\ncontract WarpVaultSC is Ownable, Exponential {\n    using SafeMath for uint256;\n\n    uint256 internal initialExchangeRateMantissa;\n    uint256 public reserveFactorMantissa;\n    uint256 public accrualBlockNumber;\n    uint256 public borrowIndex;\n    uint256 public totalBorrows;\n    uint256 public totalReserves;\n    uint256 internal constant borrowRateMaxMantissa = 0.0005e16;\n    uint256 public percent = 1500;\n    uint256 public divisor = 10000;\n    uint256 public timeWizard;\n    address public warpTeam;\n\n    ERC20 public stablecoin;\n    WarpWrapperToken public wStableCoin;\n    WarpControlI public WC;\n    InterestRateModel public InterestRate;\n\n    mapping(address => BorrowSnapshot) public accountBorrows;\n    mapping(address => uint256) public principalBalance;\n    mapping(address => uint256) public historicalReward;\n\n    event InterestAccrued(uint accrualBlockNumber, uint borrowIndex, uint totalBorrows, uint totalReserves);\n    event StableCoinLent(address _lender, uint _amountLent, uint _amountOfWarpMinted);\n    event StableCoinWithdraw(address _lender, uint _amountWithdrawn, uint _amountOfWarpBurnt);\n    event LoanRepayed(address _borrower, uint _repayAmount, uint remainingPrinciple, uint remainingInterest);\n    event ReserveWithdraw(uint _amount);\n\n    /**\n    @notice struct for borrow balance information\n    @member principal Total balance (with accrued interest), after applying the most recent balance-changing action\n    @member interestIndex Global borrowIndex as of the most recent balance-changing action\n    */\n    struct BorrowSnapshot {\n        uint256 principal;\n        uint256 interestIndex;\n    }\n\n    /**\n    @dev Throws if called by any account other than a warp control\n    **/\n    modifier onlyWC() {\n        require(msg.sender == address(WC));\n        _;\n    }\n\n    /**\n    @dev Throws if a function is called before the time wizard allows it\n    **/\n        modifier angryWizard() {\n            require(now > timeWizard);\n            _;\n        }\n\n    /**\n    @notice constructor sets up token names and symbols for the WarpWrapperToken\n    @param _InterestRate is the address of the Interest Rate Model this vault will be using\n    @param _StableCoin is the address of the stablecoin this vault will manage\n    @param _warpTeam is the address of the Warp Team used for fees\n    @param _initialExchangeRate is the initial exchange rate mantissa used to determine how a Warp wrapper token will be distributed when stablecoin is received\n    @param _timelock is a variable representing the number of seconds the timeWizard will prevent withdraws and borrows from a contracts(one week is 605800 seconds)\n    **/\n    constructor(\n        address _InterestRate,\n        address _StableCoin,\n        address _warpControl,\n        address _warpTeam,\n        uint256 _initialExchangeRate,\n        uint256 _timelock,\n        uint256 _reserveFactorMantissa\n    ) public {\n        WC = WarpControlI(_warpControl);\n        stablecoin = ERC20(_StableCoin);\n        InterestRate = InterestRateModel(_InterestRate);\n        accrualBlockNumber = getBlockNumber();\n        borrowIndex = mantissaOne;\n        initialExchangeRateMantissa = _initialExchangeRate; //sets the initialExchangeRateMantissa\n        warpTeam = _warpTeam;\n        timeWizard = now.add(_timelock);\n        reserveFactorMantissa = _reserveFactorMantissa;\n        wStableCoin = new WarpWrapperToken(\n            address(stablecoin),\n            stablecoin.name(),\n            stablecoin.symbol()\n        );\n    }\n\n    /**\n    @notice getCashPrior is a view funcion that returns the USD balance of all held underlying stablecoin assets\n    **/\n    function getCashPrior() internal view returns (uint256) {\n        return stablecoin.balanceOf(address(this));\n    }\n\n    /**\n    @notice calculateFee is used to calculate the fee earned by the Warp Platform\n    @param _payedAmount is a uint representing the full amount of stablecoin earned as interest\n        **/\n    function calculateFee(uint256 _payedAmount) public view returns(uint) {\n        uint256 fee = _payedAmount.mul(percent).div(divisor);\n        return fee;\n    }\n\n    function withdrawReserves() public {\n      require(msg.sender == warpTeam);\n      uint cashoutVal = totalReserves;\n      totalReserves = 0;\n      stablecoin.transfer(warpTeam, cashoutVal);\n      emit ReserveWithdraw(cashoutVal);\n    }\n\n    function setNewInterestModel(address _newModel) public onlyOwner {\n      InterestRate = InterestRateModel(_newModel);\n    }\n    /**\n    @notice Applies accrued interest to total borrows and reserves\n    @dev This calculates interest accrued from the last checkpointed block\n        up to the current block and writes new checkpoint to storage.\n    **/\n    function accrueInterest() public {\n        //Remember the initial block number\n        uint256 currentBlockNumber = getBlockNumber();\n        uint256 accrualBlockNumberPrior = accrualBlockNumber;\n        //Short-circuit accumulating 0 interest\n        require(accrualBlockNumberPrior != currentBlockNumber, \"Trying to accrue interest twice\");\n        //Read the previous values out of storage\n        uint256 cashPrior = getCashPrior();\n        uint256 borrowsPrior = totalBorrows;\n        uint256 reservesPrior = totalReserves;\n        uint256 borrowIndexPrior = borrowIndex;\n        //Calculate the current borrow interest rate\n        uint256 borrowRateMantissa = InterestRate.getBorrowRate(\n            cashPrior,\n            borrowsPrior,\n            reservesPrior\n        );\n        require(borrowRateMantissa <= borrowRateMaxMantissa, \"Borrow Rate mantissa error\");\n        //Calculate the number of blocks elapsed since the last accrual\n        (MathError mathErr, uint256 blockDelta) = subUInt(\n            currentBlockNumber,\n            accrualBlockNumberPrior\n        );\n        //Calculate the interest accumulated into borrows and reserves and the new index:\n        Exp memory simpleInterestFactor;\n        uint256 interestAccumulated;\n        uint256 totalBorrowsNew;\n        uint256 totalReservesNew;\n        uint256 borrowIndexNew;\n        //simpleInterestFactor = borrowRate * blockDelta\n        (mathErr, simpleInterestFactor) = mulScalar(\n            Exp({mantissa: borrowRateMantissa}),\n            blockDelta\n        );\n        //interestAccumulated = simpleInterestFactor * totalBorrows\n        (mathErr, interestAccumulated) = mulScalarTruncate(\n            simpleInterestFactor,\n            borrowsPrior\n        );\n        //totalBorrowsNew = interestAccumulated + totalBorrows\n        (mathErr, totalBorrowsNew) = addUInt(interestAccumulated, borrowsPrior);\n        //totalReservesNew = interestAccumulated * reserveFactor + totalReserves\n        (mathErr, totalReservesNew) = mulScalarTruncateAddUInt(\n            Exp({mantissa: reserveFactorMantissa}),\n            interestAccumulated,\n            reservesPrior\n        );\n        //borrowIndexNew = simpleInterestFactor * borrowIndex + borrowIndex\n        (mathErr, borrowIndexNew) = mulScalarTruncateAddUInt(\n            simpleInterestFactor,\n            borrowIndexPrior,\n            borrowIndexPrior\n        );\n\n        //Write the previously calculated values into storage\n        accrualBlockNumber = currentBlockNumber;\n        borrowIndex = borrowIndexNew;\n        totalBorrows = totalBorrowsNew;\n        totalReserves = totalReservesNew;\n        emit InterestAccrued(accrualBlockNumber, borrowIndex, totalBorrows, totalReserves);\n    }\n\n    /**\n    @notice returns last calculated account's borrow balance using the prior borrowIndex\n    @param account The address whose balance should be calculated after updating borrowIndex\n    @return The calculated balance\n    **/\n    function borrowBalancePrior(address account) public view returns (uint256) {\n        MathError mathErr;\n        uint256 principalTimesIndex;\n        uint256 result;\n\n        //Get borrowBalance and borrowIndex\n        BorrowSnapshot storage borrowSnapshot = accountBorrows[account];\n        //If borrowBalance = 0 then borrowIndex is likely also 0.\n        //Rather than failing the calculation with a division by 0, we immediately return 0 in this case.\n        if (borrowSnapshot.principal == 0) {\n            return (0);\n        }\n        //Calculate new borrow balance using the interest index:\n        //recentBorrowBalance = borrower.borrowBalance * market.borrowIndex / borrower.borrowIndex\n        (mathErr, principalTimesIndex) = mulUInt(\n            borrowSnapshot.principal,\n            borrowIndex\n        );\n        //if theres a math error return zero so as not to fail\n        if (mathErr != MathError.NO_ERROR) {\n            return (0);\n        }\n        (mathErr, result) = divUInt(\n            principalTimesIndex,\n            borrowSnapshot.interestIndex\n        );\n        //if theres a math error return zero so as not to fail\n        if (mathErr != MathError.NO_ERROR) {\n            return (0);\n        }\n        return (result);\n    }\n\n    /**\n    @notice Accrue interest to updated borrowIndex and then calculate account's borrow balance using the updated borrowIndex\n    @param account The address whose balance should be calculated after updating borrowIndex\n    @return The calculated balance\n    **/\n    function borrowBalanceCurrent(address account) public returns (uint256) {\n        accrueInterest();\n        return borrowBalancePrior(account);\n    }\n\n    /**\n    @notice getBlockNumber allows for easy retrieval of block number\n    **/\n    function getBlockNumber() internal view returns (uint256) {\n        return block.number;\n    }\n\n    /**\n    @notice Returns the current per-block borrow interest rate for this cToken\n    @return The borrow interest rate per block, scaled by 1e18\n    **/\n    function borrowRatePerBlock() public view returns (uint256) {\n        return\n            InterestRate.getBorrowRate(\n                getCashPrior(),\n                totalBorrows,\n                totalReserves\n            );\n    }\n\n    /**\n    @notice Returns the current per-block supply interest rate for this cToken\n    @return The supply interest rate per block, scaled by 1e18\n    **/\n    function supplyRatePerBlock() public view returns (uint256) {\n        return\n            InterestRate.getSupplyRate(\n                getCashPrior(),\n                totalBorrows,\n                totalReserves,\n                reserveFactorMantissa\n            );\n    }\n\n    /**\n     @notice Returns the current total borrows plus accrued interest\n     @return The total borrows with interest\n     **/\n    function totalBorrowsCurrent() external returns (uint256) {\n        accrueInterest();\n        return totalBorrows;\n    }\n\n    /**\n    @notice  return the not up-to-date exchange rate\n    @return Calculated exchange rate scaled by 1e18\n    **/\n    function exchangeRatePrior() public view returns (uint256) {\n        if (wStableCoin.totalSupply() == 0) {\n            //If there are no tokens minted: exchangeRate = initialExchangeRate\n            return initialExchangeRateMantissa;\n        } else {\n            //Otherwise: exchangeRate = (totalCash + totalBorrows - totalReserves) / totalSupply\n            uint256 totalCash = getCashPrior(); //get contract asset balance\n            uint256 cashPlusBorrowsMinusReserves;\n            Exp memory exchangeRate;\n            MathError mathErr;\n            //calculate total value held by contract plus owed to contract\n            (mathErr, cashPlusBorrowsMinusReserves) = addThenSubUInt(\n                totalCash,\n                totalBorrows,\n                totalReserves\n            );\n            //calculate exchange rate\n            (mathErr, exchangeRate) = getExp(\n                cashPlusBorrowsMinusReserves,\n                wStableCoin.totalSupply()\n            );\n            return (exchangeRate.mantissa);\n        }\n    }\n\n    /**\n     @notice Accrue interest then return the up-to-date exchange rate\n     @return Calculated exchange rate scaled by 1e18\n     **/\n    function exchangeRateCurrent() public returns (uint256) {\n        accrueInterest();\n\n        if (wStableCoin.totalSupply() == 0) {\n            //If there are no tokens minted: exchangeRate = initialExchangeRate\n            return initialExchangeRateMantissa;\n        } else {\n            //Otherwise: exchangeRate = (totalCash + totalBorrows - totalReserves) / totalSupply\n            uint256 totalCash = getCashPrior(); //get contract asset balance\n            uint256 cashPlusBorrowsMinusReserves;\n            Exp memory exchangeRate;\n            MathError mathErr;\n            //calculate total value held by contract plus owed to contract\n            (mathErr, cashPlusBorrowsMinusReserves) = addThenSubUInt(\n                totalCash,\n                totalBorrows,\n                totalReserves\n            );\n            //calculate exchange rate\n            (mathErr, exchangeRate) = getExp(\n                cashPlusBorrowsMinusReserves,\n                wStableCoin.totalSupply()\n            );\n            return (exchangeRate.mantissa);\n        }\n    }\n\n    /**\n    @notice Get cash balance of this cToken in the underlying asset in other contracts\n    @return The quantity of underlying asset owned by this contract\n    **/\n    function getCash() external view returns (uint256) {\n        return getCashPrior();\n    }\n\n    //struct used by mint to avoid stack too deep errors\n    struct MintLocalVars {\n        MathError mathErr;\n        uint256 exchangeRateMantissa;\n        uint256 mintTokens;\n        bool isMember;\n    }\n\n    /**\n    @notice lendToWarpVault is used to lend stablecoin assets to a WaprVault\n    @param _amount is the amount of the asset being lent\n    @dev the user will need to first approve the transfer of the underlying asset\n    **/\n    function lendToWarpVault(uint256 _amount, address _refferalCode) public {\n        //declare struct\n        MintLocalVars memory vars;\n        //retrieve exchange rate\n        vars.exchangeRateMantissa = exchangeRateCurrent();\n        //We get the current exchange rate and calculate the number of WarpWrapperToken to be minted:\n        //mintTokens = _amount / exchangeRate\n        (vars.mathErr, vars.mintTokens) = divScalarByExpTruncate(\n            _amount,\n            Exp({mantissa: vars.exchangeRateMantissa})\n        );\n\n        //transfer appropriate amount of DAI from msg.sender to the Vault\n        stablecoin.transferFrom(msg.sender, address(this), _amount);\n\n        principalBalance[msg.sender] = principalBalance[msg.sender] + _amount;\n        if(now <= timeWizard) {\n            WC.addMemberToGroup(_refferalCode, msg.sender);\n        }\n\n        //mint appropriate Warp DAI\n        wStableCoin.mint(msg.sender, vars.mintTokens);\n        emit StableCoinLent(msg.sender, _amount, vars.mintTokens);\n    }\n\n    struct RedeemLocalVars {\n        MathError mathErr;\n        uint256 exchangeRateMantissa;\n        uint256 burnTokens;\n        uint256 currentWarpBalance;\n        uint256 currentCoinBalance;\n        uint256 principalRedeemed;\n    }\n\n    /**\n    @notice redeem allows a user to redeem their Warp Wrapper Token for the appropriate amount of underlying stablecoin asset\n    @param _amount is the amount of StableCoin the user wishes to exchange\n    **/\n    function redeem(uint256 _amount) public  {\n\n        RedeemLocalVars memory vars;\n        //retreive the users current Warp Wrapper balance\n        vars.currentCoinBalance = wStableCoin.balanceOf(msg.sender);\n        //retreive current exchange rate\n        vars.exchangeRateMantissa = exchangeRateCurrent();\n\n          //We get the current exchange rate and calculate the number of WarpWrapperToken to be burned:\n          //burnTokens = _amount / exchangeRate\n          (vars.mathErr, vars.burnTokens) = divScalarByExpTruncate(\n              _amount,\n              Exp({mantissa: vars.exchangeRateMantissa})\n          );\n          //require the vault has enough stablecoin\n        require(stablecoin.balanceOf(address(this)) >= _amount, \"Not enough stablecoin in vault.\");\n        //calculate the users current stablecoin balance\n        (vars.mathErr, vars.currentCoinBalance) = mulScalarTruncate(\n          Exp({mantissa: vars.exchangeRateMantissa}),\n          vars.currentWarpBalance\n        );\n\n        //calculate and record balances for historical tracking\n        uint256 currentStableCoinReward = 0;\n        if (vars.currentCoinBalance > principalBalance[msg.sender]) {\n            currentStableCoinReward = vars.currentCoinBalance.sub(principalBalance[msg.sender]);\n        }\n        vars.principalRedeemed = _amount.sub(currentStableCoinReward);\n\n        if (_amount >= currentStableCoinReward) {\n            historicalReward[msg.sender] = historicalReward[msg.sender].add(currentStableCoinReward);\n            require(vars.principalRedeemed <= principalBalance[msg.sender], \"Error calculating reward.\");\n            principalBalance[msg.sender] = principalBalance[msg.sender].sub(vars.principalRedeemed);\n        } else {\n            historicalReward[msg.sender] = historicalReward[msg.sender].add(_amount);\n        }\n        wStableCoin.burn(msg.sender, vars.burnTokens);\n        stablecoin.transfer(msg.sender, _amount);\n        emit StableCoinLent(msg.sender, _amount, vars.burnTokens);\n    }\n\n    function viewAccountBalance(address _account) public view returns (uint256) {\n        uint256 exchangeRate = exchangeRatePrior();\n        uint256 accountBalance = wStableCoin.balanceOf(_account);\n\n        MathError mathError;\n        uint256 balance;\n       (mathError, balance) =  mulScalarTruncate(\n            Exp({mantissa: exchangeRate}),\n            accountBalance\n        );\n\n        return balance;\n    }\n\n    function viewHistoricalReward(address _account) public view returns (uint256) {\n        uint256 exchangeRate = exchangeRatePrior();\n        uint256 currentWarpBalance = wStableCoin.balanceOf(_account);\n        uint256 principal = principalBalance[_account];\n\n        if (currentWarpBalance == 0) {\n            return historicalReward[_account];\n        }\n\n        MathError mathError;\n        uint256 currentStableCoinBalance;\n        (mathError, currentStableCoinBalance) =  mulScalarTruncate(\n            Exp({mantissa: exchangeRate}),\n            currentWarpBalance\n        );\n\n        uint256 currentGains = currentStableCoinBalance.sub(principal);\n        uint256 totalGains = currentGains.add(historicalReward[_account]);\n\n        return totalGains;\n    }\n\n    //struct used by borrow function to avoid stack too deep errors\n    struct BorrowLocalVars {\n        MathError mathErr;\n        uint256 accountBorrows;\n        uint256 accountBorrowsNew;\n        uint256 totalBorrowsNew;\n    }\n\n    /**\n    @notice Sender borrows stablecoin assets from the protocol to their own address\n    @param _borrowAmount The amount of the underlying asset to borrow\n    */\n    function _borrow(uint256 _borrowAmount, address _borrower) external onlyWC angryWizard{\n        //create local vars storage\n        BorrowLocalVars memory vars;\n\n        //Fail if protocol has insufficient underlying cash\n        require(getCashPrior() > _borrowAmount, \"Not enough tokens to lend\");\n        //calculate the new borrower and total borrow balances, failing on overflow:\n        vars.accountBorrows = borrowBalancePrior(_borrower);\n        //accountBorrowsNew = accountBorrows + borrowAmount\n        (vars.mathErr, vars.accountBorrowsNew) = addUInt(\n            vars.accountBorrows,\n            _borrowAmount\n        );\n        //totalBorrowsNew = totalBorrows + borrowAmount\n        (vars.mathErr, vars.totalBorrowsNew) = addUInt(\n            totalBorrows,\n            _borrowAmount\n        );\n        //We write the previously calculated values into storage\n        accountBorrows[_borrower].principal = vars.accountBorrowsNew;\n        accountBorrows[_borrower].interestIndex = borrowIndex;\n        totalBorrows = vars.totalBorrowsNew;\n        //send them their loaned asset\n        stablecoin.transfer(_borrower, _borrowAmount);\n    }\n\n    struct RepayBorrowLocalVars {\n        MathError mathErr;\n        uint256 repayAmount;\n        uint256 borrowerIndex;\n        uint256 accountBorrows;\n        uint256 accountBorrowsNew;\n        uint256 totalBorrowsNew;\n        uint256 totalOwed;\n        uint256 borrowPrinciple;\n        uint256 interestPayed;\n    }\n\n    /**\n    @notice Sender repays their own borrow\n    @param _repayAmount The amount to repay\n    */\n    function repayBorrow(uint256 _repayAmount) public angryWizard{\n        //create local vars storage\n        RepayBorrowLocalVars memory vars;\n\n        //We fetch the amount the borrower owes, with accumulated interest\n        vars.accountBorrows = borrowBalanceCurrent(msg.sender);\n        //require the borrower cant pay more than they owe\n        require(_repayAmount <= vars.accountBorrows, \"You are trying to pay back more than you owe\");\n        //We remember the original borrowerPrinciple for verification purposes\n        vars.borrowPrinciple = accountBorrows[msg.sender].principal;\n          //We remember the original borrowerIndex for verification purposes\n        vars.borrowerIndex = accountBorrows[msg.sender].interestIndex;\n        //If repayAmount == 0, repayAmount = accountBorrows\n        if (_repayAmount == 0) {\n            vars.repayAmount = vars.accountBorrows;\n        } else {\n            vars.repayAmount = _repayAmount;\n        }\n\n        require(stablecoin.balanceOf(msg.sender) >= vars.repayAmount, \"Not enough stablecoin to repay\");\n        //transfer the stablecoin from the borrower\n        stablecoin.transferFrom(msg.sender, address(this), vars.repayAmount);\n\n        //We calculate the new borrower and total borrow balances\n        //accountBorrowsNew = accountBorrows - actualRepayAmount\n        (vars.mathErr, vars.accountBorrowsNew) = subUInt(\n            vars.accountBorrows,\n            vars.repayAmount\n        );\n        //totalBorrowsNew = totalBorrows - actualRepayAmount\n        (vars.mathErr, vars.totalBorrowsNew) = subUInt(\n            totalBorrows,\n            vars.repayAmount\n        );\n        //if the borrowers principle is larger than the repayed amount\n        if(accountBorrows[msg.sender].principal >= _repayAmount) {\n          //calculate remaining principle and write it to storage\n          accountBorrows[msg.sender].principal = vars.accountBorrowsNew;\n          //write new borrow Index into storage\n          accountBorrows[msg.sender].interestIndex = vars.borrowerIndex;\n        } else { // the principal is smaller than the amount payed\n          //calculate the amount of interest that will be payed off\n          vars.interestPayed = vars.accountBorrowsNew.sub(accountBorrows[msg.sender].principal);\n          //write principal into storage as zero since its payed off\n          accountBorrows[msg.sender].principal = 0;\n          //calculate remaining interest amount and write it into storage\n          accountBorrows[msg.sender].interestIndex = accountBorrows[msg.sender].interestIndex.sub(vars.interestPayed);\n        }\n        /* We write the previously calculated values into storage */\n        totalBorrows = vars.totalBorrowsNew;\n        vars.totalOwed = accountBorrows[msg.sender].principal.add(\n            accountBorrows[msg.sender].interestIndex\n        );\n\n        emit LoanRepayed(msg.sender, _repayAmount, accountBorrows[msg.sender].principal, accountBorrows[msg.sender].interestIndex);\n    }\n\n    /**\n    @notice repayLiquidatedLoan is a function used by the Warp Control contract to repay a loan on behalf of a liquidator\n    @param _borrower is the address of the borrower who took out the loan\n    @param _liquidator is the address of the account who is liquidating the loan\n    @param _amount is the amount of StableCoin being repayed\n    @dev this function uses the onlyWC modifier which means it can only be called by the Warp Control contract\n    **/\n    function _repayLiquidatedLoan(\n        address _borrower,\n        address _liquidator,\n        uint256 _amount\n    ) public onlyWC angryWizard{\n        //transfer the owed amount of stablecoin from the borrower to this contract\n        stablecoin.transferFrom(_liquidator, address(this), _amount);\n          //calculate the fee on the principle received\n          uint fee = calculateFee(_amount);\n        //transfer fee amount to Warp team\n          totalReserves = totalReserves.add(fee);\n          // Clear the borrowers loan\n        accountBorrows[_borrower].principal = 0;\n        accountBorrows[_borrower].interestIndex = 0;\n        totalBorrows = totalBorrows.sub(_amount);\n    }\n}\n",
  "sourcePath": "/home/stan36/repos/Warp/Smart-Contracts/contracts/WarpVaultSC.sol",
  "compiler": {
    "name": "solc",
    "version": "0.6.6+commit.6c089d02.Emscripten.clang"
  },
  "schemaVersion": "3.3.2",
  "updatedAt": "2020-12-01T00:07:34.633Z",
  "devdoc": {
    "methods": {
      "_borrow(uint256,address)": {
        "params": {
          "_borrowAmount": "The amount of the underlying asset to borrow"
        }
      },
      "_repayLiquidatedLoan(address,address,uint256)": {
        "details": "this function uses the onlyWC modifier which means it can only be called by the Warp Control contract*",
        "params": {
          "_amount": "is the amount of StableCoin being repayed",
          "_borrower": "is the address of the borrower who took out the loan",
          "_liquidator": "is the address of the account who is liquidating the loan"
        }
      },
      "accrueInterest()": {
        "details": "This calculates interest accrued from the last checkpointed block up to the current block and writes new checkpoint to storage.*"
      },
      "borrowBalanceCurrent(address)": {
        "params": {
          "account": "The address whose balance should be calculated after updating borrowIndex"
        },
        "returns": {
          "_0": "The calculated balance*"
        }
      },
      "borrowBalancePrior(address)": {
        "params": {
          "account": "The address whose balance should be calculated after updating borrowIndex"
        },
        "returns": {
          "_0": "The calculated balance*"
        }
      },
      "calculateFee(uint256)": {
        "params": {
          "_payedAmount": "is a uint representing the full amount of stablecoin earned as interest*"
        }
      },
      "constructor": {
        "params": {
          "_InterestRate": "is the address of the Interest Rate Model this vault will be using",
          "_StableCoin": "is the address of the stablecoin this vault will manage",
          "_initialExchangeRate": "is the initial exchange rate mantissa used to determine how a Warp wrapper token will be distributed when stablecoin is received",
          "_timelock": "is a variable representing the number of seconds the timeWizard will prevent withdraws and borrows from a contracts(one week is 605800 seconds)*",
          "_warpTeam": "is the address of the Warp Team used for fees"
        }
      },
      "lendToWarpVault(uint256,address)": {
        "details": "the user will need to first approve the transfer of the underlying asset*",
        "params": {
          "_amount": "is the amount of the asset being lent"
        }
      },
      "owner()": {
        "details": "Returns the address of the current owner."
      },
      "redeem(uint256)": {
        "params": {
          "_amount": "is the amount of StableCoin the user wishes to exchange*"
        }
      },
      "renounceOwnership()": {
        "details": "Leaves the contract without owner. It will not be possible to call `onlyOwner` functions anymore. Can only be called by the current owner.     * NOTE: Renouncing ownership will leave the contract without an owner, thereby removing any functionality that is only available to the owner."
      },
      "repayBorrow(uint256)": {
        "params": {
          "_repayAmount": "The amount to repay"
        }
      },
      "transferOwnership(address)": {
        "details": "Transfers ownership of the contract to a new account (`newOwner`). Can only be called by the current owner."
      }
    }
  },
  "userdoc": {
    "methods": {
      "_borrow(uint256,address)": {
        "notice": "Sender borrows stablecoin assets from the protocol to their own address"
      },
      "_repayLiquidatedLoan(address,address,uint256)": {
        "notice": "repayLiquidatedLoan is a function used by the Warp Control contract to repay a loan on behalf of a liquidator"
      },
      "accrueInterest()": {
        "notice": "Applies accrued interest to total borrows and reserves"
      },
      "borrowBalanceCurrent(address)": {
        "notice": "Accrue interest to updated borrowIndex and then calculate account's borrow balance using the updated borrowIndex"
      },
      "borrowBalancePrior(address)": {
        "notice": "returns last calculated account's borrow balance using the prior borrowIndex"
      },
      "borrowRatePerBlock()": {
        "notice": "Returns the current per-block borrow interest rate for this cToken"
      },
      "calculateFee(uint256)": {
        "notice": "calculateFee is used to calculate the fee earned by the Warp Platform"
      },
      "constructor": "constructor sets up token names and symbols for the WarpWrapperToken",
      "exchangeRateCurrent()": {
        "notice": "Accrue interest then return the up-to-date exchange rate"
      },
      "exchangeRatePrior()": {
        "notice": "return the not up-to-date exchange rate"
      },
      "getCash()": {
        "notice": "Get cash balance of this cToken in the underlying asset in other contracts"
      },
      "lendToWarpVault(uint256,address)": {
        "notice": "lendToWarpVault is used to lend stablecoin assets to a WaprVault"
      },
      "redeem(uint256)": {
        "notice": "redeem allows a user to redeem their Warp Wrapper Token for the appropriate amount of underlying stablecoin asset"
      },
      "repayBorrow(uint256)": {
        "notice": "Sender repays their own borrow"
      },
      "supplyRatePerBlock()": {
        "notice": "Returns the current per-block supply interest rate for this cToken"
      },
      "totalBorrowsCurrent()": {
        "notice": "Returns the current total borrows plus accrued interest"
      }
    },
    "notice": "the WarpVaultSC contract is the main point of interface for a specific LP asset class and an end user in the Warp lending platform. This contract is responsible for distributing WarpWrapper tokens in exchange for stablecoin assets, holding and accounting of stablecoins and LP tokens and all associates lending/borrowing calculations for a specific Warp LP asset class. This contract inherits Ownership and ERC20 functionality from the Open Zeppelin Library as well as Exponential and the InterestRateModel contracts from the coumpound protocol.*"
  }
}