{
  "contractName": "WarpVaultSCFactory",
  "abi": [
    {
      "inputs": [
        {
          "internalType": "address",
          "name": "_InterestRate",
          "type": "address"
        },
        {
          "internalType": "address",
          "name": "_StableCoin",
          "type": "address"
        },
        {
          "internalType": "address",
          "name": "_warpTeam",
          "type": "address"
        },
        {
          "internalType": "uint256",
          "name": "_initialExchangeRate",
          "type": "uint256"
        },
        {
          "internalType": "uint256",
          "name": "_timelock",
          "type": "uint256"
        },
        {
          "internalType": "uint256",
          "name": "_reserveFactorMantissa",
          "type": "uint256"
        }
      ],
      "name": "createNewWarpVaultSC",
      "outputs": [
        {
          "internalType": "address",
          "name": "",
          "type": "address"
        }
      ],
      "stateMutability": "nonpayable",
      "type": "function"
    }
  ],
  "bytecode": "0x608060405234801561001057600080fd5b506142c0806100206000396000f3fe608060405234801561001057600080fd5b506004361061002b5760003560e01c806378854a2814610030575b600080fd5b610078600480360360c081101561004657600080fd5b506001600160a01b03813581169160208101358216916040820135169060608101359060808101359060a00135610094565b604080516001600160a01b039092168252519081900360200190f35b600080878733888888886040516100aa90610112565b6001600160a01b0397881681529587166020870152938616604080870191909152929095166060850152608084015260a083019390935260c082015290519081900360e001906000f080158015610105573d6000803e3d6000fd5b5098975050505050505050565b61416b806101208339019056fe60806040526105dc6006556127106007553480156200001d57600080fd5b506040516200416b3803806200416b833981810160405260e08110156200004357600080fd5b508051602082015160408301516060840151608085015160a086015160c090960151600c80546001600160a01b038087166001600160a01b031992831617909255600a8054838916908316179055600d8054928916929091169190911790559495939492939192909190620000c06001600160e01b036200068816565b600255670de0b6b3a76400006003556000839055600980546001600160a01b0319166001600160a01b0386161790556200010742836200068c602090811b62001faa17901c565b60085560018190556040805164576172702d60d81b60208201528151808203600501815260258201808452600a546306fdde0360e01b9091529251909283926001600160a01b03909116916306fdde0391602980820192600092909190829003018186803b1580156200017957600080fd5b505afa1580156200018e573d6000803e3d6000fd5b505050506040513d6000823e601f3d908101601f191682016040526020811015620001b857600080fd5b8101908080516040519392919084640100000000821115620001d957600080fd5b908301906020820185811115620001ef57600080fd5b82516401000000008111828201881017156200020a57600080fd5b82525081516020918201929091019080838360005b83811015620002395781810151838201526020016200021f565b50505050905090810190601f168015620002675780820380516001836020036101000a031916815260200191505b506040525050506040516020018083805190602001908083835b60208310620002a25780518252601f19909201916020918201910162000281565b51815160209384036101000a600019018019909216911617905285519190930192850191508083835b60208310620002ec5780518252601f199092019160209182019101620002cb565b51815160209384036101000a60001901801990921691161790526040805192909401828103601f1901835280855261572d60f01b918101919091528351600281830301815260228201808652600a546395d89b4160e01b909152945192985096508695506001600160a01b0390931693506395d89b41926026808201935060009291829003018186803b1580156200038357600080fd5b505afa15801562000398573d6000803e3d6000fd5b505050506040513d6000823e601f3d908101601f191682016040526020811015620003c257600080fd5b8101908080516040519392919084640100000000821115620003e357600080fd5b908301906020820185811115620003f957600080fd5b82516401000000008111828201881017156200041457600080fd5b82525081516020918201929091019080838360005b838110156200044357818101518382015260200162000429565b50505050905090810190601f168015620004715780820380516001836020036101000a031916815260200191505b506040525050506040516020018083805190602001908083835b60208310620004ac5780518252601f1990920191602091820191016200048b565b51815160209384036101000a600019018019909216911617905285519190930192850191508083835b60208310620004f65780518252601f199092019160209182019101620004d5565b5181516020939093036101000a60001901801990911692169190911790526040805191909301818103601f1901825292839052600a549096508795508694506001600160a01b0316925084918491506200055090620006ee565b6001600160a01b0384168152606060208083018281528551928401929092528451604084019160808501919087019080838360005b838110156200059f57818101518382015260200162000585565b50505050905090810190601f168015620005cd5780820380516001836020036101000a031916815260200191505b50838103825284518152845160209182019186019080838360005b8381101562000602578181015183820152602001620005e8565b50505050905090810190601f168015620006305780820380516001836020036101000a031916815260200191505b5095505050505050604051809103906000f08015801562000655573d6000803e3d6000fd5b50600b80546001600160a01b0319166001600160a01b039290921691909117905550620006fc9950505050505050505050565b4390565b600082820183811015620006e7576040805162461bcd60e51b815260206004820152601b60248201527f536166654d6174683a206164646974696f6e206f766572666c6f770000000000604482015290519081900360640190fd5b9392505050565b6113a18062002dca83390190565b6126be806200070c6000396000f3fe608060405234801561001057600080fd5b50600436106102535760003560e01c80638f7bf4fd11610146578063bbb7d489116100c3578063db006a7511610087578063db006a751461057a578063dd5a612c14610597578063e6136ab61461059f578063e68fc0ee146105c5578063e9cbd822146105eb578063f8f9da28146105f357610253565b8063bbb7d4891461051b578063bd6d894d14610523578063cb7b42061461052b578063cd5c6f5714610533578063d40e8f4a1461053b57610253565b8063aa5af0fd1161010a578063aa5af0fd14610489578063ab292f9b14610491578063ae9d70b0146104c7578063b1be82f1146104cf578063b23f3594146104f557610253565b80638f7bf4fd146104185780638f840ddd1461043e57806394d359901461044657806399a5d74714610464578063a6afed951461048157610253565b80634cf3e784116101d45780635e318e07116101985780635e318e07146103bd5780636c540baf146103da57806370ba1113146103e257806373acee98146103ea5780637746efab146103f257610253565b80634cf3e784146103625780634ee8acc01461038857806357d32b7a14610390578063591cec86146103ad5780635cf57389146103b557610253565b80633662454d1161021b5780633662454d146102eb57806336820e4b146103085780633b1d21a21461032e57806347bd37181461033657806348dc0b6e1461033e57610253565b80630e75270214610258578063173b99041461027757806317bfdfbc146102915780631f2dc5ef146102b7578063232d46d2146102bf575b600080fd5b6102756004803603602081101561026e57600080fd5b50356105fb565b005b61027f6108eb565b60408051918252519081900360200190f35b61027f600480360360208110156102a757600080fd5b50356001600160a01b03166108f1565b61027f61090c565b610275600480360360408110156102d557600080fd5b50803590602001356001600160a01b0316610912565b6102756004803603602081101561030157600080fd5b5035610a54565b61027f6004803603602081101561031e57600080fd5b50356001600160a01b0316610aa6565b61027f610ab8565b61027f610ac8565b610346610ace565b604080516001600160a01b039092168252519081900360200190f35b6102756004803603602081101561037857600080fd5b50356001600160a01b0316610add565b610346610b5e565b610275600480360360208110156103a657600080fd5b5035610b6d565b610346610ca7565b610346610cb6565b610275600480360360208110156103d357600080fd5b5035610cc5565b61027f610d8c565b61027f610d92565b61027f610d98565b61027f6004803603602081101561040857600080fd5b50356001600160a01b0316610da9565b61027f6004803603602081101561042e57600080fd5b50356001600160a01b0316610e4c565b61027f610f01565b61044e610f07565b6040805160ff9092168252519081900360200190f35b61027f6004803603602081101561047a57600080fd5b5035610f7d565b610275610fae565b61027f611211565b610275600480360360608110156104a757600080fd5b506001600160a01b03813581169160208101359091169060400135611217565b61027f6112b9565b610275600480360360208110156104e557600080fd5b50356001600160a01b0316611327565b6102756004803603602081101561050b57600080fd5b50356001600160a01b0316611392565b610346611413565b61027f611422565b61027f611573565b61027f611579565b6105616004803603602081101561055157600080fd5b50356001600160a01b03166115be565b6040805192835260208301919091528051918290030190f35b6102756004803603602081101561059057600080fd5b50356115d7565b61027f611a20565b61027f600480360360208110156105b557600080fd5b50356001600160a01b0316611a6b565b61027f600480360360208110156105db57600080fd5b50356001600160a01b0316611ba5565b610346611bb7565b61027f611bc6565b600854421161060957600080fd5b610611612498565b61061a336108f1565b6060820181905282111561065f5760405162461bcd60e51b815260040180806020018281038252602c81526020018061258b602c913960400191505060405180910390fd5b81610673576060810151602082015261067b565b602081018290525b602080820151600a54604080516370a0823160e01b8152336004820152905192936001600160a01b03909216926370a0823192602480840193919291829003018186803b1580156106cb57600080fd5b505afa1580156106df573d6000803e3d6000fd5b505050506040513d60208110156106f557600080fd5b5051101561074a576040805162461bcd60e51b815260206004820152601e60248201527f4e6f7420656e6f75676820737461626c65636f696e20746f2072657061790000604482015290519081900360640190fd5b6020810151600a54610771916001600160a01b03909116903390309063ffffffff611c2a16565b61078381606001518260200151611c8a565b608083018190528282600381111561079757fe5b60038111156107a257fe5b90525060009050815160038111156107b657fe5b146107f25760405162461bcd60e51b81526004018080602001828103825260338152602001806125fb6033913960400191505060405180910390fd5b6108026004548260200151611c8a565b60a083018190528282600381111561081657fe5b600381111561082157fe5b905250600090508151600381111561083557fe5b146108715760405162461bcd60e51b815260040180806020018281038252603181526020018061262e6031913960400191505060405180910390fd5b60a0810151600455608080820151336000818152600e60209081526040918290208481556003546001909101819055825193845290830187905282820193909352606082019290925290517f0bc102cfc64751888477c44e529873a602bf746175b1e41c6b54e45f926f90f9929181900390910190a15050565b60015481565b60006108fb610fae565b61090482610da9565b90505b919050565b60075481565b600c546001600160a01b0316331461092957600080fd5b600854421161093757600080fd5b61093f6124e5565b82610948611a20565b1161099a576040805162461bcd60e51b815260206004820152601960248201527f4e6f7420656e6f75676820746f6b656e7320746f206c656e6400000000000000604482015290519081900360640190fd5b6109a382610da9565b602082018190526109b49084611cb0565b60408301819052828260038111156109c857fe5b60038111156109d357fe5b81525050506109e460045484611cb0565b60608301819052828260038111156109f857fe5b6003811115610a0357fe5b905250506040808201516001600160a01b038085166000908152600e602052929092209081556003546001909101556060820151600455600a54610a4f9116838563ffffffff611cd616565b505050565b6009546001600160a01b03163314610a6b57600080fd5b60018190556040805182815290517f1804cd3c6ff50c5878703b3136dbf22bce42299e390b6627af008fde9bc763ae9181900360200190a150565b60106020526000908152604090205481565b6000610ac2611a20565b90505b90565b60045481565b600d546001600160a01b031681565b600c546001600160a01b03163314610af457600080fd5b600c54604080516001600160a01b038085168252909216602083015280517ff31f198b56fc88f5180e2da8285f8fc0e39731c96e24af25bab67838a32c5d799281900390910190a1600c80546001600160a01b0319166001600160a01b0392909216919091179055565b600b546001600160a01b031681565b610b7561250e565b610b7d611422565b602080830191825260408051918201905290518152610b9d908390611d28565b6040830181905282826003811115610bb157fe5b6003811115610bbc57fe5b90525050600a54610bde906001600160a01b031633308563ffffffff611c2a16565b336000818152600f6020526040808220805486019055600b548482015182516340c10f1960e01b81526004810195909552602485015290516001600160a01b03909116926340c10f1992604480830193919282900301818387803b158015610c4557600080fd5b505af1158015610c59573d6000803e3d6000fd5b5050506040808301518151338152602081018690528083019190915290517fac45f50416433593e7c9a1f3e0d5f887c530c22d776e1057ecaacb750d24b94092509081900360600190a15050565b600a546001600160a01b031690565b6009546001600160a01b031681565b6009546001600160a01b03163314610cdc57600080fd5b806005541015610d1d5760405162461bcd60e51b81526004018080602001828103825260238152602001806125b76023913960400191505060405180910390fd5b600554610d30908263ffffffff611d7b16565b600555600954600a54610d56916001600160a01b0391821691168363ffffffff611cd616565b6040805182815290517f2b33eb7f7ae0d9bb1596ccbff4b5ed6460dd64eb6bef0c24870065aa469bbb749181900360200190a150565b60025481565b60065481565b6000610da2610fae565b5060045490565b6001600160a01b0381166000908152600e60205260408120805482918291829190610ddb576000945050505050610907565b610deb8160000154600354611dc6565b90945092506000846003811115610dfe57fe5b14610e10576000945050505050610907565b610e1e838260010154611e05565b90945091506000846003811115610e3157fe5b14610e43576000945050505050610907565b50949350505050565b600080610e57611579565b600b54604080516370a0823160e01b81526001600160a01b038781166004830152915193945060009391909216916370a08231916024808301926020929190829003018186803b158015610eaa57600080fd5b505afa158015610ebe573d6000803e3d6000fd5b505050506040513d6020811015610ed457600080fd5b505160408051602081019091528381529091506000908190610ef69084611e30565b979650505050505050565b60055481565b600a546040805163313ce56760e01b815290516000926001600160a01b03169163313ce567916004808301926020929190829003018186803b158015610f4c57600080fd5b505afa158015610f60573d6000803e3d6000fd5b505050506040513d6020811015610f7657600080fd5b5051905090565b600080610fa7600754610f9b60065486611e4790919063ffffffff16565b9063ffffffff611ea016565b9392505050565b6000610fb8611ee2565b60025490915080821415611000576040805183815290517fe307fb74a265b8255fabc1154131917ce875f96118a807f88eda1e751722538d9181900360200190a1505061120f565b600061100a611a20565b60048054600554600354600d54604080516315f2405360e01b81529586018790526024860185905260448601849052519596509294919390926000926001600160a01b03909116916315f24053916064808301926020929190829003018186803b15801561107757600080fd5b505afa15801561108b573d6000803e3d6000fd5b505050506040513d60208110156110a157600080fd5b5051905065048c27395000811115611100576040805162461bcd60e51b815260206004820152601a60248201527f426f72726f772052617465206d616e7469737361206572726f72000000000000604482015290519081900360640190fd5b60008061110d8989611c8a565b91509150611119612539565b60008060008061113760405180602001604052808a81525087611ee6565b9097509450611146858c611e30565b9097509350611155848c611cb0565b60408051602081019091526001548152919850935061117590858c611f4e565b9097509150611185858a80611f4e565b80925081985050508d6002819055508060038190555082600481905550816005819055507fe3972ae250606e82c6683843383cb8a51755588d2f443af42e8cb5b1e085392d6002546003546004546005546040518085815260200184815260200183815260200182815260200194505050505060405180910390a150505050505050505050505050505b565b60035481565b600c546001600160a01b0316331461122e57600080fd5b600854421161123c57600080fd5b600a5461125a906001600160a01b031683308463ffffffff611c2a16565b600061126582610f7d565b60055490915061127b908263ffffffff611faa16565b6005556001600160a01b0384166000908152600e60205260408120818155600101556004546112b0908363ffffffff611d7b16565b60045550505050565b600d546000906001600160a01b031663b81688166112d5611a20565b6004546005546001546040518563ffffffff1660e01b81526004018085815260200184815260200183815260200182815260200194505050505060206040518083038186803b158015610f4c57600080fd5b600c546001600160a01b0316331461133e57600080fd5b600d80546001600160a01b0383166001600160a01b0319909116811790915560408051918252517f7d15df4d1352c1d406124f1da1c26fb576738b2a62fb49aad60d454485c6afb29181900360200190a150565b600c546001600160a01b031633146113a957600080fd5b600954604080516001600160a01b038085168252909216602083015280517fe1ad690b4e5d7c6172f2c241aa6998a8ebcb0392e02cdf10105a33b3955538b49281900390910190a1600980546001600160a01b0319166001600160a01b0392909216919091179055565b600c546001600160a01b031681565b600061142c610fae565b600b60009054906101000a90046001600160a01b03166001600160a01b03166318160ddd6040518163ffffffff1660e01b815260040160206040518083038186803b15801561147a57600080fd5b505afa15801561148e573d6000803e3d6000fd5b505050506040513d60208110156114a457600080fd5b50516114b35750600054610ac5565b60006114bd611a20565b905060006114c9612539565b60006114da84600454600554612004565b809450819250505061156583600b60009054906101000a90046001600160a01b03166001600160a01b03166318160ddd6040518163ffffffff1660e01b815260040160206040518083038186803b15801561153457600080fd5b505afa158015611548573d6000803e3d6000fd5b505050506040513d602081101561155e57600080fd5b5051612042565b519550610ac5945050505050565b60085481565b600b54604080516318160ddd60e01b815290516000926001600160a01b0316916318160ddd916004808301926020929190829003018186803b15801561147a57600080fd5b600e602052600090815260409020805460019091015482565b6115df61254c565b600b54604080516370a0823160e01b815233600482015290516001600160a01b03909216916370a0823191602480820192602092909190829003018186803b15801561162a57600080fd5b505afa15801561163e573d6000803e3d6000fd5b505050506040513d602081101561165457600080fd5b50516060820152611663611422565b60208083019182526040805191820190529051815260608201516116879190611e30565b608083018190528282600381111561169b57fe5b60038111156116a657fe5b90525050816116be57608081015160c08201526116c6565b60c081018290525b6116e68160c0015160405180602001604052808460200151815250611d28565b60408301819052828260038111156116fa57fe5b600381111561170557fe5b9052505060c0810151600a54604080516370a0823160e01b815230600482015290516001600160a01b03909216916370a0823191602480820192602092909190829003018186803b15801561175957600080fd5b505afa15801561176d573d6000803e3d6000fd5b505050506040513d602081101561178357600080fd5b505110156117d8576040805162461bcd60e51b815260206004820152601f60248201527f4e6f7420656e6f75676820737461626c65636f696e20696e207661756c742e00604482015290519081900360640190fd5b336000908152600f60205260408120546080830151111561181a57336000908152600f602052604090205460808301516118179163ffffffff611d7b16565b90505b60c082015161182f908263ffffffff611d7b16565b60a083015260c0820151811161190c573360009081526010602052604090205461185f908263ffffffff611faa16565b33600090815260106020908152604080832093909355600f9052205460a083015111156118d3576040805162461bcd60e51b815260206004820152601960248201527f4572726f722063616c63756c6174696e67207265776172642e00000000000000604482015290519081900360640190fd5b60a0820151336000908152600f60205260409020546118f79163ffffffff611d7b16565b336000908152600f6020526040902055611941565b60c0820151336000908152601060205260409020546119309163ffffffff611faa16565b336000908152601060205260409020555b600b546040808401518151632770a7eb60e21b8152336004820152602481019190915290516001600160a01b0390921691639dc29fac9160448082019260009290919082900301818387803b15801561199957600080fd5b505af11580156119ad573d6000803e3d6000fd5b50505060c0830151600a546119d492506001600160a01b031690339063ffffffff611cd616565b60c08201516040808401518151338152602081019390935282820152517f01fee552fc58f62ae566675c42acc86f4aeaf48d6a4e21385c0e23bd551ecd129181900360600190a1505050565b600a54604080516370a0823160e01b815230600482015290516000926001600160a01b0316916370a08231916024808301926020929190829003018186803b158015610f4c57600080fd5b600080611a76611579565b600b54604080516370a0823160e01b81526001600160a01b038781166004830152915193945060009391909216916370a08231916024808301926020929190829003018186803b158015611ac957600080fd5b505afa158015611add573d6000803e3d6000fd5b505050506040513d6020811015611af357600080fd5b50516001600160a01b0385166000908152600f602052604090205490915081611b3857505050506001600160a01b038116600090815260106020526040902054610907565b600080611b5360405180602001604052808781525085611e30565b90925090506000611b6a828563ffffffff611d7b16565b6001600160a01b03891660009081526010602052604081205491925090611b9890839063ffffffff611faa16565b9998505050505050505050565b600f6020526000908152604090205481565b600a546001600160a01b031681565b600d546000906001600160a01b03166315f24053611be2611a20565b6004546005546040518463ffffffff1660e01b815260040180848152602001838152602001828152602001935050505060206040518083038186803b158015610f4c57600080fd5b604080516001600160a01b0380861660248301528416604482015260648082018490528251808303909101815260849091019091526020810180516001600160e01b03166323b872dd60e01b179052611c849085906120f3565b50505050565b600080838311611ca1575060009050818303611ca9565b506003905060005b9250929050565b600080838301848110611cc857600092509050611ca9565b506002915060009050611ca9565b604080516001600160a01b038416602482015260448082018490528251808303909101815260649091019091526020810180516001600160e01b031663a9059cbb60e01b179052610a4f9084906120f3565b6000806000611d35612539565b611d3f86866121a4565b90925090506000826003811115611d5257fe5b14611d635750915060009050611ca9565b6000611d6e82612203565b9350935050509250929050565b6000611dbd83836040518060400160405280601e81526020017f536166654d6174683a207375627472616374696f6e206f766572666c6f770000815250612212565b90505b92915050565b60008083611dd957506000905080611ca9565b83830283858281611de657fe5b0414611dfa57506002915060009050611ca9565b600092509050611ca9565b60008082611e195750600190506000611ca9565b6000838581611e2457fe5b04915091509250929050565b6000806000611e3d612539565b611d3f8686611ee6565b600082611e5657506000611dc0565b82820282848281611e6357fe5b0414611dbd5760405162461bcd60e51b81526004018080602001828103825260218152602001806125da6021913960400191505060405180910390fd5b6000611dbd83836040518060400160405280601a81526020017f536166654d6174683a206469766973696f6e206279207a65726f0000000000008152506122a9565b4390565b6000611ef0612539565b600080611f01866000015186611dc6565b90925090506000826003811115611f1457fe5b14611f3357506040805160208101909152600081529092509050611ca9565b60408051602081019091529081526000969095509350505050565b6000806000611f5b612539565b611f658787611ee6565b90925090506000826003811115611f7857fe5b14611f895750915060009050611fa2565b611f9b611f9582612203565b86611cb0565b9350935050505b935093915050565b600082820183811015611dbd576040805162461bcd60e51b815260206004820152601b60248201527f536166654d6174683a206164646974696f6e206f766572666c6f770000000000604482015290519081900360640190fd5b6000806000806120148787611cb0565b9092509050600082600381111561202757fe5b146120385750915060009050611fa2565b611f9b8186611c8a565b600061204c612539565b60008061206186670de0b6b3a7640000611dc6565b9092509050600082600381111561207457fe5b1461209357506040805160208101909152600081529092509050611ca9565b6000806120a08388611e05565b909250905060008260038111156120b357fe5b146120d65781604051806020016040528060008152509550955050505050611ca9565b604080516020810190915290815260009890975095505050505050565b6060612148826040518060400160405280602081526020017f5361666545524332303a206c6f772d6c6576656c2063616c6c206661696c6564815250856001600160a01b031661230e9092919063ffffffff16565b805190915015610a4f5780806020019051602081101561216757600080fd5b5051610a4f5760405162461bcd60e51b815260040180806020018281038252602a81526020018061265f602a913960400191505060405180910390fd5b60006121ae612539565b6000806121c3670de0b6b3a764000087611dc6565b909250905060008260038111156121d657fe5b146121f557506040805160208101909152600081529092509050611ca9565b611d6e818660000151612042565b51670de0b6b3a7640000900490565b600081848411156122a15760405162461bcd60e51b81526004018080602001828103825283818151815260200191508051906020019080838360005b8381101561226657818101518382015260200161224e565b50505050905090810190601f1680156122935780820380516001836020036101000a031916815260200191505b509250505060405180910390fd5b505050900390565b600081836122f85760405162461bcd60e51b815260206004820181815283516024840152835190928392604490910191908501908083836000831561226657818101518382015260200161224e565b50600083858161230457fe5b0495945050505050565b606061231d8484600085612325565b949350505050565b606061233085612492565b612381576040805162461bcd60e51b815260206004820152601d60248201527f416464726573733a2063616c6c20746f206e6f6e2d636f6e7472616374000000604482015290519081900360640190fd5b60006060866001600160a01b031685876040518082805190602001908083835b602083106123c05780518252601f1990920191602091820191016123a1565b6001836020036101000a03801982511681845116808217855250505050505090500191505060006040518083038185875af1925050503d8060008114612422576040519150601f19603f3d011682016040523d82523d6000602084013e612427565b606091505b5091509150811561243b57915061231d9050565b80511561244b5780518082602001fd5b60405162461bcd60e51b815260206004820181815286516024840152865187939192839260440191908501908083836000831561226657818101518382015260200161224e565b3b151590565b604080516101208101909152806000815260200160008152602001600081526020016000815260200160008152602001600081526020016000815260200160008152602001600081525090565b604080516080810190915280600081526020016000815260200160008152602001600081525090565b6040805160808101909152806000815260200160008152602001600081526020016000151581525090565b6040518060200160405280600081525090565b6040805160e081019091528060008152602001600081526020016000815260200160008152602001600081526020016000815260200160008152509056fe596f752061726520747279696e6720746f20706179206261636b206d6f7265207468616e20796f75206f7765596f752061726520747279696e6720746f20776974686472617720746f6f206d756368536166654d6174683a206d756c7469706c69636174696f6e206f766572666c6f77526570617920626f72726f77206e6577206163636f756e742062616c616e63652063616c63756c6174696f6e206661696c6564526570617920626f72726f77206e657720746f74616c2062616c616e63652063616c63756c6174696f6e206661696c65645361666545524332303a204552433230206f7065726174696f6e20646964206e6f742073756363656564a26469706673582212207caea02b22e8269dd552a513187de2894fc8c3b2ee333f1831417352f7ef021564736f6c6343000606003360806040523480156200001157600080fd5b50604051620013a1380380620013a1833981810160405260608110156200003757600080fd5b8151602083018051604051929492938301929190846401000000008211156200005f57600080fd5b9083019060208201858111156200007557600080fd5b82516401000000008111828201881017156200009057600080fd5b82525081516020918201929091019080838360005b83811015620000bf578181015183820152602001620000a5565b50505050905090810190601f168015620000ed5780820380516001836020036101000a031916815260200191505b50604052602001805160405193929190846401000000008211156200011157600080fd5b9083019060208201858111156200012757600080fd5b82516401000000008111828201881017156200014257600080fd5b82525081516020918201929091019080838360005b838110156200017157818101518382015260200162000157565b50505050905090810190601f1680156200019f5780820380516001836020036101000a031916815260200191505b5060405250505080826000620001ba6200026c60201b60201c565b600080546001600160a01b0319166001600160a01b0383169081178255604051929350917f8be0079c531659141344cd1fd0a4f28419497f9722a3daafe3b4186f6b6457e0908290a35081516200021990600490602085019062000271565b5080516200022f90600590602084019062000271565b5050600680546001600160a01b0390951661010002610100600160a81b031960ff1990961660121795909516949094179093555062000313915050565b335b90565b828054600181600116156101000203166002900490600052602060002090601f016020900481019282601f10620002b457805160ff1916838001178555620002e4565b82800160010185558215620002e4579182015b82811115620002e4578251825591602001919060010190620002c7565b50620002f2929150620002f6565b5090565b6200026e91905b80821115620002f25760008155600101620002fd565b61107e80620003236000396000f3fe608060405234801561001057600080fd5b506004361061010b5760003560e01c8063715018a6116100a2578063a457c2d711610071578063a457c2d71461031b578063a9059cbb14610347578063dd62ed3e14610373578063e9cbd822146103a1578063f2fde38b146103a95761010b565b8063715018a6146102bb5780638da5cb5b146102c357806395d89b41146102e75780639dc29fac146102ef5761010b565b8063313ce567116100de578063313ce5671461021d578063395093511461023b57806340c10f191461026757806370a08231146102955761010b565b806306fdde0314610110578063095ea7b31461018d57806318160ddd146101cd57806323b872dd146101e7575b600080fd5b6101186103cf565b6040805160208082528351818301528351919283929083019185019080838360005b8381101561015257818101518382015260200161013a565b50505050905090810190601f16801561017f5780820380516001836020036101000a031916815260200191505b509250505060405180910390f35b6101b9600480360360408110156101a357600080fd5b506001600160a01b038135169060200135610465565b604080519115158252519081900360200190f35b6101d5610482565b60408051918252519081900360200190f35b6101b9600480360360608110156101fd57600080fd5b506001600160a01b03813581169160208101359091169060400135610488565b610225610515565b6040805160ff9092168252519081900360200190f35b6101b96004803603604081101561025157600080fd5b506001600160a01b03813516906020013561051e565b6102936004803603604081101561027d57600080fd5b506001600160a01b038135169060200135610572565b005b6101d5600480360360208110156102ab57600080fd5b50356001600160a01b03166105d8565b6102936105f3565b6102cb610695565b604080516001600160a01b039092168252519081900360200190f35b6101186106a4565b6102936004803603604081101561030557600080fd5b506001600160a01b038135169060200135610705565b6101b96004803603604081101561033157600080fd5b506001600160a01b038135169060200135610767565b6101b96004803603604081101561035d57600080fd5b506001600160a01b0381351690602001356107d5565b6101d56004803603604081101561038957600080fd5b506001600160a01b03813581169160200135166107e9565b6102cb610814565b610293600480360360208110156103bf57600080fd5b50356001600160a01b0316610828565b60048054604080516020601f600260001961010060018816150201909516949094049384018190048102820181019092528281526060939092909183018282801561045b5780601f106104305761010080835404028352916020019161045b565b820191906000526020600020905b81548152906001019060200180831161043e57829003601f168201915b5050505050905090565b6000610479610472610920565b8484610924565b50600192915050565b60035490565b6000610495848484610a10565b61050b846104a1610920565b61050685604051806060016040528060288152602001610f72602891396001600160a01b038a166000908152600260205260408120906104df610920565b6001600160a01b03168152602081019190915260400160002054919063ffffffff610b7916565b610924565b5060019392505050565b60065460ff1690565b600061047961052b610920565b84610506856002600061053c610920565b6001600160a01b03908116825260208083019390935260409182016000908120918c16815292529020549063ffffffff610c1016565b61057a610920565b6000546001600160a01b039081169116146105ca576040805162461bcd60e51b81526020600482018190526024820152600080516020610f9a833981519152604482015290519081900360640190fd5b6105d48282610c71565b5050565b6001600160a01b031660009081526001602052604090205490565b6105fb610920565b6000546001600160a01b0390811691161461064b576040805162461bcd60e51b81526020600482018190526024820152600080516020610f9a833981519152604482015290519081900360640190fd5b600080546040516001600160a01b03909116907f8be0079c531659141344cd1fd0a4f28419497f9722a3daafe3b4186f6b6457e0908390a3600080546001600160a01b0319169055565b6000546001600160a01b031690565b60058054604080516020601f600260001961010060018816150201909516949094049384018190048102820181019092528281526060939092909183018282801561045b5780601f106104305761010080835404028352916020019161045b565b61070d610920565b6000546001600160a01b0390811691161461075d576040805162461bcd60e51b81526020600482018190526024820152600080516020610f9a833981519152604482015290519081900360640190fd5b6105d48282610d6f565b6000610479610774610920565b8461050685604051806060016040528060258152602001611024602591396002600061079e610920565b6001600160a01b03908116825260208083019390935260409182016000908120918d1681529252902054919063ffffffff610b7916565b60006104796107e2610920565b8484610a10565b6001600160a01b03918216600090815260026020908152604080832093909416825291909152205490565b60065461010090046001600160a01b031681565b610830610920565b6000546001600160a01b03908116911614610880576040805162461bcd60e51b81526020600482018190526024820152600080516020610f9a833981519152604482015290519081900360640190fd5b6001600160a01b0381166108c55760405162461bcd60e51b8152600401808060200182810382526026815260200180610f046026913960400191505060405180910390fd5b600080546040516001600160a01b03808516939216917f8be0079c531659141344cd1fd0a4f28419497f9722a3daafe3b4186f6b6457e091a3600080546001600160a01b0319166001600160a01b0392909216919091179055565b3390565b6001600160a01b0383166109695760405162461bcd60e51b81526004018080602001828103825260248152602001806110006024913960400191505060405180910390fd5b6001600160a01b0382166109ae5760405162461bcd60e51b8152600401808060200182810382526022815260200180610f2a6022913960400191505060405180910390fd5b6001600160a01b03808416600081815260026020908152604080832094871680845294825291829020859055815185815291517f8c5be1e5ebec7d5bd14f71427d1e84f3dd0314c0f7b2291e5b200ac8c7c3b9259281900390910190a3505050565b6001600160a01b038316610a555760405162461bcd60e51b8152600401808060200182810382526025815260200180610fdb6025913960400191505060405180910390fd5b6001600160a01b038216610a9a5760405162461bcd60e51b8152600401808060200182810382526023815260200180610ebf6023913960400191505060405180910390fd5b610aa5838383610e77565b610ae881604051806060016040528060268152602001610f4c602691396001600160a01b038616600090815260016020526040902054919063ffffffff610b7916565b6001600160a01b038085166000908152600160205260408082209390935590841681522054610b1d908263ffffffff610c1016565b6001600160a01b0380841660008181526001602090815260409182902094909455805185815290519193928716927fddf252ad1be2c89b69c2b068fc378daa952ba7f163c4a11628f55a4df523b3ef92918290030190a3505050565b60008184841115610c085760405162461bcd60e51b81526004018080602001828103825283818151815260200191508051906020019080838360005b83811015610bcd578181015183820152602001610bb5565b50505050905090810190601f168015610bfa5780820380516001836020036101000a031916815260200191505b509250505060405180910390fd5b505050900390565b600082820183811015610c6a576040805162461bcd60e51b815260206004820152601b60248201527f536166654d6174683a206164646974696f6e206f766572666c6f770000000000604482015290519081900360640190fd5b9392505050565b6001600160a01b038216610ccc576040805162461bcd60e51b815260206004820152601f60248201527f45524332303a206d696e7420746f20746865207a65726f206164647265737300604482015290519081900360640190fd5b610cd860008383610e77565b600354610ceb908263ffffffff610c1016565b6003556001600160a01b038216600090815260016020526040902054610d17908263ffffffff610c1016565b6001600160a01b03831660008181526001602090815260408083209490945583518581529351929391927fddf252ad1be2c89b69c2b068fc378daa952ba7f163c4a11628f55a4df523b3ef9281900390910190a35050565b6001600160a01b038216610db45760405162461bcd60e51b8152600401808060200182810382526021815260200180610fba6021913960400191505060405180910390fd5b610dc082600083610e77565b610e0381604051806060016040528060228152602001610ee2602291396001600160a01b038516600090815260016020526040902054919063ffffffff610b7916565b6001600160a01b038316600090815260016020526040902055600354610e2f908263ffffffff610e7c16565b6003556040805182815290516000916001600160a01b038516917fddf252ad1be2c89b69c2b068fc378daa952ba7f163c4a11628f55a4df523b3ef9181900360200190a35050565b505050565b6000610c6a83836040518060400160405280601e81526020017f536166654d6174683a207375627472616374696f6e206f766572666c6f770000815250610b7956fe45524332303a207472616e7366657220746f20746865207a65726f206164647265737345524332303a206275726e20616d6f756e7420657863656564732062616c616e63654f776e61626c653a206e6577206f776e657220697320746865207a65726f206164647265737345524332303a20617070726f766520746f20746865207a65726f206164647265737345524332303a207472616e7366657220616d6f756e7420657863656564732062616c616e636545524332303a207472616e7366657220616d6f756e74206578636565647320616c6c6f77616e63654f776e61626c653a2063616c6c6572206973206e6f7420746865206f776e657245524332303a206275726e2066726f6d20746865207a65726f206164647265737345524332303a207472616e736665722066726f6d20746865207a65726f206164647265737345524332303a20617070726f76652066726f6d20746865207a65726f206164647265737345524332303a2064656372656173656420616c6c6f77616e63652062656c6f77207a65726fa26469706673582212203cbab76297dd65551a6b7fbbfff57acaaadb19ff497b171843179fb385b47ead64736f6c63430006060033a264697066735822122039cf19e7f6d5ec895163d9c4f19b2da13a0ce7fa94928c0434d7ca93afd5351064736f6c63430006060033",
  "immutableReferences": {},
  "source": "pragma solidity ^0.6.0;\r\n\r\nimport \"./WarpVaultSC.sol\";\r\nimport \"@openzeppelin/contracts/access/Ownable.sol\";\r\n\r\n////////////////////////////////////////////////////////////////////////////////////////////\r\n/// @title WarpVaultLPFactory\r\n/// @author Christopher Dixon\r\n////////////////////////////////////////////////////////////////////////////////////////////\r\n/**\r\nThe WarpVaultSCFactory contract is designed to produce individual WarpVaultLP contracts\r\n**/\r\n\r\ncontract WarpVaultSCFactory {\r\n    /**\r\n    @notice createNewWarpVaultSC is used to create new WarpVaultSC contract instances\r\n    @param _InterestRate is the address of the InterestRateModel contract created for this Warp Vault\r\n    @param _StableCoin is the address of the stablecoin contract this WarpVault will manage\r\n    @param _warpTeam is the address of the Warp Team used for fees\r\n    @param _initialExchangeRate is the exchange rate mantissa used to determine the initial exchange rate of stablecoin to warp stablecoin\r\n    @param _timelock is a variable representing the number of seconds the timeWizard will prevent withdraws and borrows from a contracts(one week is 605800 seconds)\r\n    **/\r\n    function createNewWarpVaultSC(\r\n        address _InterestRate,\r\n        address _StableCoin,\r\n        address _warpTeam,\r\n        uint256 _initialExchangeRate,\r\n        uint256 _timelock,\r\n        uint256 _reserveFactorMantissa\r\n    ) public returns (address) {\r\n        WarpVaultSC vault = new WarpVaultSC(\r\n            _InterestRate,\r\n            _StableCoin,\r\n            msg.sender,\r\n            _warpTeam,\r\n            _initialExchangeRate,\r\n            _timelock,\r\n            _reserveFactorMantissa\r\n        );\r\n        return address(vault);\r\n    }\r\n}\r\n",
  "sourcePath": "E:/dOrg/warp/Smart-Contracts/contracts/WarpVaultSCFactory.sol",
  "compiler": {
    "name": "solc",
    "version": "0.6.6+commit.6c089d02.Emscripten.clang"
  },
  "schemaVersion": "3.3.2",
  "updatedAt": "2020-12-16T05:18:13.990Z",
  "networkType": "ethereum",
  "devdoc": {
    "methods": {
      "createNewWarpVaultSC(address,address,address,uint256,uint256,uint256)": {
        "params": {
          "_InterestRate": "is the address of the InterestRateModel contract created for this Warp Vault",
          "_StableCoin": "is the address of the stablecoin contract this WarpVault will manage",
          "_initialExchangeRate": "is the exchange rate mantissa used to determine the initial exchange rate of stablecoin to warp stablecoin",
          "_timelock": "is a variable representing the number of seconds the timeWizard will prevent withdraws and borrows from a contracts(one week is 605800 seconds)*",
          "_warpTeam": "is the address of the Warp Team used for fees"
        }
      }
    }
  },
  "userdoc": {
    "methods": {
      "createNewWarpVaultSC(address,address,address,uint256,uint256,uint256)": {
        "notice": "createNewWarpVaultSC is used to create new WarpVaultSC contract instances"
      }
    },
    "notice": "The WarpVaultSCFactory contract is designed to produce individual WarpVaultLP contracts*"
  }
}