{
  "contractName": "WarpVaultLPFactory",
  "abi": [
    {
      "inputs": [
        {
          "internalType": "uint256",
          "name": "_timelock",
          "type": "uint256"
        },
        {
          "internalType": "address",
          "name": "_lp",
          "type": "address"
        },
        {
          "internalType": "string",
          "name": "_lpName",
          "type": "string"
        }
      ],
      "name": "createWarpVaultLP",
      "outputs": [
        {
          "internalType": "address",
          "name": "",
          "type": "address"
        }
      ],
      "stateMutability": "nonpayable",
      "type": "function"
    }
  ],
  "bytecode": "0x608060405234801561001057600080fd5b5061117a806100206000396000f3fe608060405234801561001057600080fd5b506004361061002b5760003560e01c8063a8edf11514610030575b600080fd5b6100eb6004803603606081101561004657600080fd5b8135916001600160a01b036020820135169181019060608101604082013564010000000081111561007657600080fd5b82018360208201111561008857600080fd5b803590602001918460018302840111640100000000831117156100aa57600080fd5b91908080601f016020809104026020016040519081016040528093929190818152602001838380828437600092019190915250929550610107945050505050565b604080516001600160a01b039092168252519081900360200190f35b6000808484338560405161011a906101e5565b80858152602001846001600160a01b03166001600160a01b03168152602001836001600160a01b03166001600160a01b0316815260200180602001828103825283818151815260200191508051906020019080838360005b8381101561018a578181015183820152602001610172565b50505050905090810190601f1680156101b75780820380516001836020036101000a031916815260200191505b5095505050505050604051809103906000f0801580156101db573d6000803e3d6000fd5b5095945050505050565b610f52806101f38339019056fe60806040523480156200001157600080fd5b5060405162000f5238038062000f52833981810160405260808110156200003757600080fd5b8151602083015160408085015160608601805192519496939591949391820192846401000000008211156200006b57600080fd5b9083019060208201858111156200008157600080fd5b82516401000000008111828201881017156200009c57600080fd5b82525081516020918201929091019080838360005b83811015620000cb578181015183820152602001620000b1565b50505050905090810190601f168015620000f95780820380516001836020036101000a031916815260200191505b50604052505081516200011591506001906020840190620001d0565b50600280546001600160a01b03199081166001600160a01b0386811691909117909255600380549091169184169190911790556200016042856200016e602090811b62000b2517901c565b600055506200027592505050565b600082820183811015620001c9576040805162461bcd60e51b815260206004820152601b60248201527f536166654d6174683a206164646974696f6e206f766572666c6f770000000000604482015290519081900360640190fd5b9392505050565b828054600181600116156101000203166002900490600052602060002090601f016020900481019282601f106200021357805160ff191683800117855562000243565b8280016001018555821562000243579182015b828111156200024357825182559160200191906001019062000226565b506200025192915062000255565b5090565b6200027291905b808211156200025157600081556001016200025c565b90565b610ccd80620002856000396000f3fe608060405234801561001057600080fd5b50600436106100b45760003560e01c8063c14cba3e11610071578063c14cba3e146101df578063c453e557146101e7578063cb7b42061461020d578063f0c3c06b14610215578063f4b5e3e414610232578063f919b4bf14610260576100b4565b806346cd6801146100b95780634c20ac74146101365780634cf3e7841461015a5780636112fe2e14610182578063763e4a0d1461019f578063bbb7d489146101d7575b600080fd5b6100c1610286565b6040805160208082528351818301528351919283929083019185019080838360005b838110156100fb5781810151838201526020016100e3565b50505050905090810190601f1680156101285780820380516001836020036101000a031916815260200191505b509250505060405180910390f35b61013e610313565b604080516001600160a01b039092168252519081900360200190f35b6101806004803603602081101561017057600080fd5b50356001600160a01b0316610322565b005b6101806004803603602081101561019857600080fd5b50356103a3565b6101c5600480360360208110156101b557600080fd5b50356001600160a01b03166105d2565b60408051918252519081900360200190f35b61013e6105e4565b61013e6105f3565b6101c5600480360360208110156101fd57600080fd5b50356001600160a01b0316610602565b6101c56106b5565b6101806004803603602081101561022b57600080fd5b50356106bb565b6101806004803603604081101561024857600080fd5b506001600160a01b0381358116916020013516610935565b6101c56004803603602081101561027657600080fd5b50356001600160a01b0316610a66565b60018054604080516020600284861615610100026000190190941693909304601f8101849004840282018401909252818152929183018282801561030b5780601f106102e05761010080835404028352916020019161030b565b820191906000526020600020905b8154815290600101906020018083116102ee57829003601f168201915b505050505081565b6002546001600160a01b031690565b6003546001600160a01b0316331461033957600080fd5b600354604080516001600160a01b038085168252909216602083015280517ff31f198b56fc88f5180e2da8285f8fc0e39731c96e24af25bab67838a32c5d799281900390910190a1600380546001600160a01b0319166001600160a01b0392909216919091179055565b6003546002546040805163ab5e2c9960e01b81523360048201526001600160a01b03928316602482015290516000938493169163ab5e2c9991604480830192602092919082900301818787803b1580156103fc57600080fd5b505af1158015610410573d6000803e3d6000fd5b505050506040513d602081101561042657600080fd5b50519050826104375780915061043b565b8291505b81811015610490576040805162461bcd60e51b815260206004820152601b60248201527f547279696e6720746f20776974686472617720746f6f206d7563680000000000604482015290519081900360640190fd5b336000908152600460205260409020548211156104de5760405162461bcd60e51b815260040180806020018281038252603f815260200180610c17603f913960400191505060405180910390fd5b336000908152600460205260409020546104fe908363ffffffff610a8116565b33600081815260046020818152604080842095909555600254855163a9059cbb60e01b8152928301949094526024820187905293516001600160a01b039093169363a9059cbb9360448084019492939192918390030190829087803b15801561056657600080fd5b505af115801561057a573d6000803e3d6000fd5b505050506040513d602081101561059057600080fd5b5050604080513381526020810184905281517f92682d28e4c16f4a2ddb833ecdd2bab2f2da69e2f325cda58d421e7d634b8e27929181900390910190a1505050565b60046020526000908152604090205481565b6003546001600160a01b031681565b6002546001600160a01b031681565b6003546002546040805163272c85f760e11b81526001600160a01b039283166004820152905160009384931691634e590bee916024808301926020929190829003018186803b15801561065457600080fd5b505afa158015610668573d6000803e3d6000fd5b505050506040513d602081101561067e57600080fd5b50516001600160a01b038416600090815260046020526040812054919250906106ad908363ffffffff610acc16565b949350505050565b60005481565b60025460408051636eb1769f60e11b8152336004820152306024820152905183926001600160a01b03169163dd62ed3e916044808301926020929190829003018186803b15801561070b57600080fd5b505afa15801561071f573d6000803e3d6000fd5b505050506040513d602081101561073557600080fd5b505110156107745760405162461bcd60e51b8152600401808060200182810382526021815260200180610c776021913960400191505060405180910390fd5b600254604080516370a0823160e01b8152336004820152905183926001600160a01b0316916370a08231916024808301926020929190829003018186803b1580156107be57600080fd5b505afa1580156107d2573d6000803e3d6000fd5b505050506040513d60208110156107e857600080fd5b5051101561083d576040805162461bcd60e51b815260206004820152601e60248201527f4d757374206861766520656e6f756768204c5020746f2070726f766964650000604482015290519081900360640190fd5b600254604080516323b872dd60e01b81523360048201523060248201526044810184905290516001600160a01b03909216916323b872dd916064808201926020929091908290030181600087803b15801561089757600080fd5b505af11580156108ab573d6000803e3d6000fd5b505050506040513d60208110156108c157600080fd5b5050336000908152600460205260409020546108e3908263ffffffff610b2516565b3360008181526004602090815260409182902093909355805191825291810183905281517f304548d20eea45684a7db179080f94dce8e4442923ddd63688ab5b7e270a4849929181900390910190a150565b6003546001600160a01b0316331461094c57600080fd5b600054421161095a57600080fd5b6001600160a01b03808316600081815260046020908152604091829020548251938452938516908301528181019290925290517fb45e156992a4fbdcc0ac5b35d795eaabed404816fd7b53363a18a5da1ae16a699181900360600190a16002546001600160a01b03838116600090815260046020818152604080842054815163a9059cbb60e01b815288871694810194909452602484015251939094169363a9059cbb9360448084019492939192918390030190829087803b158015610a1f57600080fd5b505af1158015610a33573d6000803e3d6000fd5b505050506040513d6020811015610a4957600080fd5b5050506001600160a01b0316600090815260046020526040812055565b6001600160a01b031660009081526004602052604090205490565b6000610ac383836040518060400160405280601e81526020017f536166654d6174683a207375627472616374696f6e206f766572666c6f770000815250610b7f565b90505b92915050565b600082610adb57506000610ac6565b82820282848281610ae857fe5b0414610ac35760405162461bcd60e51b8152600401808060200182810382526021815260200180610c566021913960400191505060405180910390fd5b600082820183811015610ac3576040805162461bcd60e51b815260206004820152601b60248201527f536166654d6174683a206164646974696f6e206f766572666c6f770000000000604482015290519081900360640190fd5b60008184841115610c0e5760405162461bcd60e51b81526004018080602001828103825283818151815260200191508051906020019080838360005b83811015610bd3578181015183820152602001610bbb565b50505050905090810190601f168015610c005780820380516001836020036101000a031916815260200191505b509250505060405180910390fd5b50505090039056fe796f752061726520747279696e6720746f207769746864726177206d6f726520636f6c6c61746572616c207468616e20796f752068617665206c6f636b6564536166654d6174683a206d756c7469706c69636174696f6e206f766572666c6f775661756c74206d757374206861766520656e6f75676820616c6c6f77616e63652ea26469706673582212206472bcbc49a2b472a2fa6cf5b4a924170da18dd20e3a443382440de34bd19bd864736f6c63430006060033a264697066735822122067232f04e809443a55033c400660376bc9715eaf97936d5ee15208b4b4cfc19664736f6c63430006060033",
  "immutableReferences": {},
  "source": "pragma solidity ^0.6.0;\n\nimport \"./WarpVaultLP.sol\";\nimport \"@openzeppelin/contracts/access/Ownable.sol\";\n\n////////////////////////////////////////////////////////////////////////////////////////////\n/// @title WarpVaultLPFactory\n/// @author Christopher Dixon\n////////////////////////////////////////////////////////////////////////////////////////////\n/**\nThe WarpVaultLPFactory contract is designed to produce individual WarpVaultLP contracts\n**/\n\ncontract WarpVaultLPFactory {\n    /**\n    @notice createWarpVaultLP allows the contract owner to create a new WarpVaultLP contract for a specific LP token\n    @param _timelock is a variable representing the number of seconds the timeWizard will prevent withdraws and borrows from a contracts(one week is 605800 seconds)\n    @param _lp is the address for the LP token this Warp Vault will manage\n    @param _lpName is the name of the LP token (ex:wETH-wBTC)\n    **/\n    function createWarpVaultLP(\n        uint256 _timelock,\n        address _lp,\n        string memory _lpName\n    ) public returns (address) {\n        WarpVaultLP vault = new WarpVaultLP(\n            _timelock,\n            _lp,\n            msg.sender,\n            _lpName\n        );\n        return address(vault);\n    }\n}\n",
  "sourcePath": "/home/stan36/repos/Warp/Smart-Contracts/contracts/WarpVaultLPFactory.sol",
  "compiler": {
    "name": "solc",
    "version": "0.6.6+commit.6c089d02.Emscripten.clang"
  },
  "schemaVersion": "3.3.2",
  "updatedAt": "2020-12-13T23:33:48.377Z",
  "devdoc": {
    "methods": {
      "createWarpVaultLP(uint256,address,string)": {
        "params": {
          "_lp": "is the address for the LP token this Warp Vault will manage",
          "_lpName": "is the name of the LP token (ex:wETH-wBTC)*",
          "_timelock": "is a variable representing the number of seconds the timeWizard will prevent withdraws and borrows from a contracts(one week is 605800 seconds)"
        }
      }
    }
  },
  "userdoc": {
    "methods": {
      "createWarpVaultLP(uint256,address,string)": {
        "notice": "createWarpVaultLP allows the contract owner to create a new WarpVaultLP contract for a specific LP token"
      }
    },
    "notice": "The WarpVaultLPFactory contract is designed to produce individual WarpVaultLP contracts*"
  }
}