{
  "contractName": "WarpControl",
  "abi": [
    {
      "inputs": [
        {
          "internalType": "address",
          "name": "_oracle",
          "type": "address"
        },
        {
          "internalType": "address",
          "name": "_WVLPF",
          "type": "address"
        },
        {
          "internalType": "address",
          "name": "_WVSCF",
          "type": "address"
        }
      ],
      "stateMutability": "nonpayable",
      "type": "constructor"
    },
    {
      "anonymous": false,
      "inputs": [
        {
          "indexed": true,
          "internalType": "address",
          "name": "previousOwner",
          "type": "address"
        },
        {
          "indexed": true,
          "internalType": "address",
          "name": "newOwner",
          "type": "address"
        }
      ],
      "name": "OwnershipTransferred",
      "type": "event"
    },
    {
      "inputs": [],
      "name": "Oracle",
      "outputs": [
        {
          "internalType": "contract UniswapLPOracleFactoryI",
          "name": "",
          "type": "address"
        }
      ],
      "stateMutability": "view",
      "type": "function"
    },
    {
      "inputs": [],
      "name": "WVLPF",
      "outputs": [
        {
          "internalType": "contract WarpVaultLPFactoryI",
          "name": "",
          "type": "address"
        }
      ],
      "stateMutability": "view",
      "type": "function"
    },
    {
      "inputs": [],
      "name": "WVSCF",
      "outputs": [
        {
          "internalType": "contract WarpVaultSCFactoryI",
          "name": "",
          "type": "address"
        }
      ],
      "stateMutability": "view",
      "type": "function"
    },
    {
      "inputs": [
        {
          "internalType": "address",
          "name": "",
          "type": "address"
        }
      ],
      "name": "instanceLPTracker",
      "outputs": [
        {
          "internalType": "address",
          "name": "",
          "type": "address"
        }
      ],
      "stateMutability": "view",
      "type": "function"
    },
    {
      "inputs": [
        {
          "internalType": "address",
          "name": "",
          "type": "address"
        }
      ],
      "name": "instanceSCTracker",
      "outputs": [
        {
          "internalType": "address",
          "name": "",
          "type": "address"
        }
      ],
      "stateMutability": "view",
      "type": "function"
    },
    {
      "inputs": [],
      "name": "liquidationIncentiveMantissa",
      "outputs": [
        {
          "internalType": "uint256",
          "name": "",
          "type": "uint256"
        }
      ],
      "stateMutability": "view",
      "type": "function"
    },
    {
      "inputs": [
        {
          "internalType": "uint256",
          "name": "",
          "type": "uint256"
        }
      ],
      "name": "lpVaults",
      "outputs": [
        {
          "internalType": "address",
          "name": "",
          "type": "address"
        }
      ],
      "stateMutability": "view",
      "type": "function"
    },
    {
      "inputs": [],
      "name": "owner",
      "outputs": [
        {
          "internalType": "address",
          "name": "",
          "type": "address"
        }
      ],
      "stateMutability": "view",
      "type": "function"
    },
    {
      "inputs": [],
      "name": "renounceOwnership",
      "outputs": [],
      "stateMutability": "nonpayable",
      "type": "function"
    },
    {
      "inputs": [
        {
          "internalType": "address",
          "name": "newOwner",
          "type": "address"
        }
      ],
      "name": "transferOwnership",
      "outputs": [],
      "stateMutability": "nonpayable",
      "type": "function"
    },
    {
      "inputs": [
        {
          "internalType": "address",
          "name": "_lp",
          "type": "address"
        },
        {
          "internalType": "address",
          "name": "_lpAsset1",
          "type": "address"
        },
        {
          "internalType": "address",
          "name": "_lpAsset2",
          "type": "address"
        },
        {
          "internalType": "string",
          "name": "_lpName",
          "type": "string"
        }
      ],
      "name": "createNewLPVault",
      "outputs": [],
      "stateMutability": "nonpayable",
      "type": "function"
    },
    {
      "inputs": [
        {
          "internalType": "uint256",
          "name": "_baseRatePerYear",
          "type": "uint256"
        },
        {
          "internalType": "uint256",
          "name": "_multiplierPerYear",
          "type": "uint256"
        },
        {
          "internalType": "uint256",
          "name": "_jumpMultiplierPerYear",
          "type": "uint256"
        },
        {
          "internalType": "uint256",
          "name": "_optimal",
          "type": "uint256"
        },
        {
          "internalType": "uint256",
          "name": "_initialExchangeRate",
          "type": "uint256"
        },
        {
          "internalType": "address",
          "name": "_StableCoin",
          "type": "address"
        },
        {
          "internalType": "string",
          "name": "_stableCoinName",
          "type": "string"
        },
        {
          "internalType": "string",
          "name": "_stableCoinSymbol",
          "type": "string"
        }
      ],
      "name": "createNewSCVault",
      "outputs": [],
      "stateMutability": "nonpayable",
      "type": "function"
    },
    {
      "inputs": [
        {
          "internalType": "address",
          "name": "_borrower",
          "type": "address"
        },
        {
          "internalType": "address",
          "name": "_WVLP",
          "type": "address"
        },
        {
          "internalType": "uint256",
          "name": "_amount",
          "type": "uint256"
        }
      ],
      "name": "lockCollateralUp",
      "outputs": [],
      "stateMutability": "nonpayable",
      "type": "function"
    },
    {
      "inputs": [
        {
          "internalType": "address",
          "name": "_borrower",
          "type": "address"
        },
        {
          "internalType": "address",
          "name": "_redeemer",
          "type": "address"
        },
        {
          "internalType": "address",
          "name": "_WVLP",
          "type": "address"
        },
        {
          "internalType": "uint256",
          "name": "_amount",
          "type": "uint256"
        }
      ],
      "name": "lockCollateralDown",
      "outputs": [],
      "stateMutability": "nonpayable",
      "type": "function"
    },
    {
      "inputs": [
        {
          "internalType": "address",
          "name": "_LP",
          "type": "address"
        }
      ],
      "name": "checkLPprice",
      "outputs": [
        {
          "internalType": "uint256",
          "name": "",
          "type": "uint256"
        }
      ],
      "stateMutability": "view",
      "type": "function"
    },
    {
      "inputs": [
        {
          "internalType": "address",
          "name": "_borrower",
          "type": "address"
        },
        {
          "internalType": "address",
          "name": "collateralVault",
          "type": "address"
        }
      ],
      "name": "checkLockedCollateral",
      "outputs": [
        {
          "internalType": "uint256",
          "name": "",
          "type": "uint256"
        }
      ],
      "stateMutability": "view",
      "type": "function"
    },
    {
      "inputs": [
        {
          "internalType": "address",
          "name": "_borrower",
          "type": "address"
        },
        {
          "internalType": "address",
          "name": "_WarpVault",
          "type": "address"
        }
      ],
      "name": "checkAvailibleCollateralValue",
      "outputs": [
        {
          "internalType": "uint256",
          "name": "",
          "type": "uint256"
        }
      ],
      "stateMutability": "view",
      "type": "function"
    },
    {
      "inputs": [
        {
          "internalType": "address",
          "name": "_borrower",
          "type": "address"
        },
        {
          "internalType": "address",
          "name": "_WarpVault",
          "type": "address"
        }
      ],
      "name": "checkLockedCollateralValue",
      "outputs": [
        {
          "internalType": "uint256",
          "name": "",
          "type": "uint256"
        }
      ],
      "stateMutability": "view",
      "type": "function"
    }
  ],
  "bytecode": "0x60806040526714d1120d7b16000060015534801561001c57600080fd5b50604051611d87380380611d878339818101604052606081101561003f57600080fd5b508051602082015160409092015190919060006100636001600160e01b036100ef16565b600080546001600160a01b0319166001600160a01b0383169081178255604051929350917f8be0079c531659141344cd1fd0a4f28419497f9722a3daafe3b4186f6b6457e0908290a350600280546001600160a01b039485166001600160a01b0319918216179091556003805493851693821693909317909255600480549190931691161790556100f3565b3390565b611c85806101026000396000f3fe60806040523480156200001157600080fd5b5060043610620000fa5760003560e01c80630c1e2b9214620000ff578063258cdd9a14620001445780633726ff7614620002a65780634ada90af14620002e95780636012b43114620002f35780636222630814620003245780636af5f7521462000344578063715018a6146200034e5780637a96aa6114620003585780637ed2d49514620003975780638736599814620003c05780638da5cb5b14620003f9578063acc9e5b11462000403578063dba80101146200042c578063e198077f146200045d578063efdebdf51462000528578063f24a534e1462000532578063f2fde38b146200053c575b600080fd5b62000128600480360360208110156200011757600080fd5b50356001600160a01b031662000565565b604080516001600160a01b039092168252519081900360200190f35b620002a460048036036101008110156200015d57600080fd5b8135916020810135916040820135916060810135916080820135916001600160a01b0360a0820135169181019060e0810160c0820135600160201b811115620001a557600080fd5b820183602082011115620001b857600080fd5b803590602001918460018302840111600160201b83111715620001da57600080fd5b91908080601f0160208091040260200160405190810160405280939291908181526020018383808284376000920191909152509295949360208101935035915050600160201b8111156200022d57600080fd5b8201836020820111156200024057600080fd5b803590602001918460018302840111600160201b831117156200026257600080fd5b91908080601f01602080910402602001604051908101604052809392919081815260200183838082843760009201919091525092955062000580945050505050565b005b620002d760048036036040811015620002be57600080fd5b506001600160a01b03813581169160200135166200080e565b60408051918252519081900360200190f35b620002d7620009a8565b620002d7600480360360408110156200030b57600080fd5b506001600160a01b0381358116916020013516620009ae565b62000128600480360360208110156200033c57600080fd5b503562000af1565b6200012862000b19565b620002a462000b28565b620002a4600480360360808110156200037057600080fd5b506001600160a01b0381358116916020810135821691604082013516906060013562000bbd565b620002d760048036036020811015620003af57600080fd5b50356001600160a01b031662000c3f565b620002a460048036036060811015620003d857600080fd5b506001600160a01b0381358116916020810135909116906040013562000cc5565b6200012862000d3e565b62000128600480360360208110156200041b57600080fd5b50356001600160a01b031662000d4d565b620002d7600480360360408110156200044457600080fd5b506001600160a01b038135811691602001351662000d68565b620002a4600480360360808110156200047557600080fd5b6001600160a01b0382358116926020810135821692604082013590921691810190608081016060820135600160201b811115620004b157600080fd5b820183602082011115620004c457600080fd5b803590602001918460018302840111600160201b83111715620004e657600080fd5b91908080601f01602080910402602001604051908101604052809392919081815260200183838082843760009201919091525092955062000df5945050505050565b6200012862001024565b6200012862001033565b620002a4600480360360208110156200055457600080fd5b50356001600160a01b031662001042565b6007602052600090815260409020546001600160a01b031681565b6200058a6200112f565b6000546001600160a01b03908116911614620005dc576040805162461bcd60e51b8152602060048201819052602482015260008051602062001c10833981519152604482015290519081900360640190fd5b60008888888830604051620005f19062001198565b948552602085019390935260408085019290925260608401526001600160a01b039091166080830152519081900360a001906000f08015801562000639573d6000803e3d6000fd5b5090506000600460009054906101000a90046001600160a01b03166001600160a01b031663126125bd83878988886040518663ffffffff1660e01b815260040180866001600160a01b03166001600160a01b03168152602001856001600160a01b03166001600160a01b031681526020018481526020018060200180602001838103835285818151815260200191508051906020019080838360005b83811015620006ef578181015183820152602001620006d5565b50505050905090810190601f1680156200071d5780820380516001836020036101000a031916815260200191505b50838103825284518152845160209182019186019080838360005b838110156200075257818101518382015260200162000738565b50505050905090810190601f168015620007805780820380516001836020036101000a031916815260200191505b50975050505050505050602060405180830381600087803b158015620007a557600080fd5b505af1158015620007ba573d6000803e3d6000fd5b505050506040513d6020811015620007d157600080fd5b50516001600160a01b03958616600090815260076020526040902080546001600160a01b0319169690911695909517909455505050505050505050565b6000808290506000816001600160a01b0316634c20ac746040518163ffffffff1660e01b815260040160206040518083038186803b1580156200085057600080fd5b505afa15801562000865573d6000803e3d6000fd5b505050506040513d60208110156200087c57600080fd5b50516002546040805163fc57d4df60e01b81526001600160a01b0380851660048301529151939450600093919092169163fc57d4df916024808301926020929190829003018186803b158015620008d257600080fd5b505afa158015620008e7573d6000803e3d6000fd5b505050506040513d6020811015620008fe57600080fd5b5051604080516323fc902d60e11b81526001600160a01b03898116600483015288811660248301529151929350600092918616916347f9205a91604480820192602092909190829003018186803b1580156200095957600080fd5b505afa1580156200096e573d6000803e3d6000fd5b505050506040513d60208110156200098557600080fd5b505190506200099b818363ffffffff6200113316565b9450505050505b92915050565b60015481565b6000808290506000816001600160a01b0316634c20ac746040518163ffffffff1660e01b815260040160206040518083038186803b158015620009f057600080fd5b505afa15801562000a05573d6000803e3d6000fd5b505050506040513d602081101562000a1c57600080fd5b50516002546040805163fc57d4df60e01b81526001600160a01b0380851660048301529151939450600093919092169163fc57d4df916024808301926020929190829003018186803b15801562000a7257600080fd5b505afa15801562000a87573d6000803e3d6000fd5b505050506040513d602081101562000a9e57600080fd5b505160408051632711999760e21b81526001600160a01b038981166004830152915192935060009291861691639c46665c91602480820192602092909190829003018186803b1580156200095957600080fd5b6005818154811062000aff57fe5b6000918252602090912001546001600160a01b0316905081565b6003546001600160a01b031681565b62000b326200112f565b6000546001600160a01b0390811691161462000b84576040805162461bcd60e51b8152602060048201819052602482015260008051602062001c10833981519152604482015290519081900360640190fd5b600080546040516001600160a01b039091169060008051602062001c30833981519152908390a3600080546001600160a01b0319169055565b60408051633834bd7f60e11b81526001600160a01b03868116600483015285811660248301528416604482018190526064820184905291518492916370697afe91608480830192600092919082900301818387803b15801562000c1f57600080fd5b505af115801562000c34573d6000803e3d6000fd5b505050505050505050565b6002546040805163fc57d4df60e01b81526001600160a01b0384811660048301529151600093929092169163fc57d4df91602480820192602092909190829003018186803b15801562000c9157600080fd5b505afa15801562000ca6573d6000803e3d6000fd5b505050506040513d602081101562000cbd57600080fd5b505192915050565b6040805163172bc11560e21b81526001600160a01b038581166004830152841660248201819052604482018490529151849291635caf045491606480830192600092919082900301818387803b15801562000d1f57600080fd5b505af115801562000d34573d6000803e3d6000fd5b5050505050505050565b6000546001600160a01b031690565b6006602052600090815260409020546001600160a01b031681565b604080516323fc902d60e11b81526001600160a01b0384811660048301528316602482018190529151600092849290916347f9205a91604480820192602092909190829003018186803b15801562000dbf57600080fd5b505afa15801562000dd4573d6000803e3d6000fd5b505050506040513d602081101562000deb57600080fd5b5051949350505050565b62000dff6200112f565b6000546001600160a01b0390811691161462000e51576040805162461bcd60e51b8152602060048201819052602482015260008051602062001c10833981519152604482015290519081900360640190fd5b60025460408051634a42dd6d60e11b81526001600160a01b0386811660048301528581166024830152878116604483015291519190921691639485bada91606480830192600092919082900301818387803b15801562000eb057600080fd5b505af115801562000ec5573d6000803e3d6000fd5b505060035460408051631d75e5c160e21b81526001600160a01b038981166004830190815260248301938452875160448401528751600097509190941694506375d79704938a938893919290916064019060208501908083838c5b8381101562000f3a57818101518382015260200162000f20565b50505050905090810190601f16801562000f685780820380516001836020036101000a031916815260200191505b509350505050602060405180830381600087803b15801562000f8957600080fd5b505af115801562000f9e573d6000803e3d6000fd5b505050506040513d602081101562000fb557600080fd5b50516001600160a01b0395861660009081526006602052604081208054979092166001600160a01b031997881681179092556005805460018101825591527f036b6384b5eca791c62761152d0c79bb0604c104a5fb6f4eb0703f3154bb3db00180549096161790945550505050565b6004546001600160a01b031681565b6002546001600160a01b031681565b6200104c6200112f565b6000546001600160a01b039081169116146200109e576040805162461bcd60e51b8152602060048201819052602482015260008051602062001c10833981519152604482015290519081900360640190fd5b6001600160a01b038116620010e55760405162461bcd60e51b815260040180806020018281038252602681526020018062001bc96026913960400191505060405180910390fd5b600080546040516001600160a01b038085169392169160008051602062001c3083398151915291a3600080546001600160a01b0319166001600160a01b0392909216919091179055565b3390565b6000826200114457506000620009a2565b828202828482816200115257fe5b0414620011915760405162461bcd60e51b815260040180806020018281038252602181526020018062001bef6021913960400191505060405180910390fd5b9392505050565b610a2280620011a78339019056fe608060405234801561001057600080fd5b50604051610a22380380610a22833981810160405260a081101561003357600080fd5b508051602082015160408301516060840151608090940151600080546001600160a01b0319166001600160a01b03831617905592939192909190848484848461007e8585858561008d565b505050505050505050506102bc565b6100a7622014808561017060201b61057e1790919060201c565b6002556100f66100c562201480836101c1602090811b61052517901c565b6100e4670de0b6b3a7640000866101c160201b6105251790919060201c565b61017060201b61057e1790919060201c565b6001556101118262201480610170602090811b61057e17901c565b60038190556004829055600254600154604080519283526020830191909152818101929092526060810183905290517f6960ab234c7ef4b0c9197100f5393cfcde7c453ac910a27bd2000aa1dd4c068d9181900360800190a150505050565b60006101b883836040518060400160405280601a81526020017f536166654d6174683a206469766973696f6e206279207a65726f00000000000081525061021a60201b60201c565b90505b92915050565b6000826101d0575060006101bb565b828202828482816101dd57fe5b04146101b85760405162461bcd60e51b8152600401808060200182810382526021815260200180610a016021913960400191505060405180910390fd5b600081836102a65760405162461bcd60e51b81526004018080602001828103825283818151815260200191508051906020019080838360005b8381101561026b578181015183820152602001610253565b50505050905090810190601f1680156102985780820380516001836020036101000a031916815260200191505b509250505060405180910390fd5b5060008385816102b257fe5b0495945050505050565b610736806102cb6000396000f3fe608060405234801561001057600080fd5b506004361061008e5760003560e01c806315f24053146100935780632037f3e7146100ce5780636e71e2d8146100ff5780638726bb89146101285780638da5cb5b14610130578063a385fb9614610154578063b81688161461015c578063b9f9850a1461018b578063f14039de14610193578063fd2da3391461019b575b600080fd5b6100bc600480360360608110156100a957600080fd5b50803590602081013590604001356101a3565b60408051918252519081900360200190f35b6100fd600480360360808110156100e457600080fd5b50803590602081013590604081013590606001356101ba565b005b6100bc6004803603606081101561011557600080fd5b5080359060208101359060400135610215565b6100bc61026b565b610138610271565b604080516001600160a01b039092168252519081900360200190f35b6100bc610280565b6100bc6004803603608081101561017257600080fd5b5080359060208101359060408101359060600135610287565b6100bc610306565b6100bc61030c565b6100bc610312565b60006101b0848484610318565b90505b9392505050565b6000546001600160a01b031633146102035760405162461bcd60e51b81526004018080602001828103825260268152602001806106db6026913960400191505060405180910390fd5b61020f848484846103e1565b50505050565b600082610224575060006101b3565b6101b06102478361023b878763ffffffff61048216565b9063ffffffff6104e316565b61025f85670de0b6b3a764000063ffffffff61052516565b9063ffffffff61057e16565b60015481565b6000546001600160a01b031681565b6220148081565b6000806102a2670de0b6b3a76400008463ffffffff6104e316565b905060006102b1878787610318565b905060006102d1670de0b6b3a764000061025f848663ffffffff61052516565b90506102fa670de0b6b3a764000061025f836102ee8c8c8c610215565b9063ffffffff61052516565b98975050505050505050565b60035481565b60025481565b60045481565b600080610326858585610215565b9050600454811161036c57610364600254610358670de0b6b3a764000061025f6001548661052590919063ffffffff16565b9063ffffffff61048216565b9150506101b3565b6000610397600254610358670de0b6b3a764000061025f60015460045461052590919063ffffffff16565b905060006103b0600454846104e390919063ffffffff16565b90506103d782610358670de0b6b3a764000061025f6003548661052590919063ffffffff16565b93505050506101b3565b6103f4846220148063ffffffff61057e16565b60025561040d610247622014808363ffffffff61052516565b600155610423826220148063ffffffff61057e16565b60038190556004829055600254600154604080519283526020830191909152818101929092526060810183905290517f6960ab234c7ef4b0c9197100f5393cfcde7c453ac910a27bd2000aa1dd4c068d9181900360800190a150505050565b6000828201838110156104da576040805162461bcd60e51b815260206004820152601b60248201527a536166654d6174683a206164646974696f6e206f766572666c6f7760281b604482015290519081900360640190fd5b90505b92915050565b60006104da83836040518060400160405280601e81526020017f536166654d6174683a207375627472616374696f6e206f766572666c6f7700008152506105bd565b600082610534575060006104dd565b8282028284828161054157fe5b04146104da5760405162461bcd60e51b81526004018080602001828103825260218152602001806106ba6021913960400191505060405180910390fd5b60006104da83836040518060400160405280601a815260200179536166654d6174683a206469766973696f6e206279207a65726f60301b815250610654565b6000818484111561064c5760405162461bcd60e51b81526004018080602001828103825283818151815260200191508051906020019080838360005b838110156106115781810151838201526020016105f9565b50505050905090810190601f16801561063e5780820380516001836020036101000a031916815260200191505b509250505060405180910390fd5b505050900390565b600081836106a35760405162461bcd60e51b81526020600482018181528351602484015283519092839260449091019190850190808383600083156106115781810151838201526020016105f9565b5060008385816106af57fe5b049594505050505056fe536166654d6174683a206d756c7469706c69636174696f6e206f766572666c6f776f6e6c7920746865206f776e6572206d61792063616c6c20746869732066756e6374696f6e2ea264697066735822122027d6c97186e85c5362aa98276aa2af6aa81caa7a2a8ee763cad018c8d1529da864736f6c63430006060033536166654d6174683a206d756c7469706c69636174696f6e206f766572666c6f774f776e61626c653a206e6577206f776e657220697320746865207a65726f2061646472657373536166654d6174683a206d756c7469706c69636174696f6e206f766572666c6f774f776e61626c653a2063616c6c6572206973206e6f7420746865206f776e65728be0079c531659141344cd1fd0a4f28419497f9722a3daafe3b4186f6b6457e0a2646970667358221220799463faf96f5a6fe4c8f275322f5fd0f453557e5e76ca0d8ea0506ba4fd897c64736f6c63430006060033",
  "immutableReferences": {},
  "source": "pragma solidity ^0.6.0;\n\nimport \"@openzeppelin/contracts/access/Ownable.sol\";\nimport \"@openzeppelin/contracts/math/SafeMath.sol\";\nimport \"@openzeppelin/contracts/token/ERC20/IERC20.sol\";\nimport \"./interfaces/WarpVaultSCI.sol\";\nimport \"./interfaces/WarpVaultLPI.sol\";\nimport \"./interfaces/WarpVaultLPFactoryI.sol\";\nimport \"./interfaces/WarpVaultSCFactoryI.sol\";\nimport \"./interfaces/UniswapLPOracleFactoryI.sol\";\nimport \"./compound/JumpRateModelV2.sol\";\nimport \"./compound/Exponential.sol\";\n\n////////////////////////////////////////////////////////////////////////////////////////////\n/// @title WarpControl\n/// @author Christopher Dixon\n////////////////////////////////////////////////////////////////////////////////////////////\n/**\nWarpControl is designed to coordinate Warp Vaults\nThis contract uses the OpenZeppelin contract Library to inherit functions from\n  Ownable.sol\n**/\n\ncontract WarpControl is Ownable, Exponential {\n    using SafeMath for uint256;\n\n    uint256 public liquidationIncentiveMantissa = 1.5e18; // 1.5\n\n    UniswapLPOracleFactoryI public Oracle; //oracle factory contract interface\n    WarpVaultLPFactoryI public WVLPF;\n    WarpVaultSCFactoryI public WVSCF;\n\n    address[] public lpVaults;\n\n    mapping(address => address) public instanceLPTracker; //maps LP token address to the assets WarpVault\n    mapping(address => address) public instanceSCTracker;\n\n    /**\n@notice the constructor function is fired during the contract deployment process. The constructor can only be fired once and\n        is used to set up Oracle variables for the MoneyMarketFactory contract.\n@param _oracle is the address for the UniswapOracleFactorycontract\n**/\n    constructor(\n        address _oracle,\n        address _WVLPF,\n        address _WVSCF\n    ) public {\n        Oracle = UniswapLPOracleFactoryI(_oracle);\n        WVLPF = WarpVaultLPFactoryI(_WVLPF);\n        WVSCF = WarpVaultSCFactoryI(_WVSCF);\n    }\n\n    /**\n@notice createNewVault allows the contract owner to create a new WarpVaultLP contract along with its associated Warp Wrapper Tokens\n**/\n    function createNewLPVault(\n        address _lp,\n        address _lpAsset1,\n        address _lpAsset2,\n        string memory _lpName\n    ) public onlyOwner {\n        Oracle.createNewOracles(_lpAsset1, _lpAsset2, _lp);\n        address _WarpVault = WVLPF.createWarpVaultLP(_lp, _lpName);\n        instanceLPTracker[_lp] = _WarpVault;\n        lpVaults.push(_WarpVault);\n    }\n\n    function createNewSCVault(\n        uint256 _baseRatePerYear,\n        uint256 _multiplierPerYear,\n        uint256 _jumpMultiplierPerYear,\n        uint256 _optimal,\n        uint256 _initialExchangeRate,\n        address _StableCoin,\n        string memory _stableCoinName,\n        string memory _stableCoinSymbol\n    ) public onlyOwner {\n        address IR = address(\n            new JumpRateModelV2(\n                _baseRatePerYear,\n                _multiplierPerYear,\n                _jumpMultiplierPerYear,\n                _optimal,\n                address(this)\n            )\n        );\n\n        address WVSC = WVSCF.createNewWarpVaultSC(\n            IR,\n            _StableCoin,\n            _initialExchangeRate,\n            _stableCoinName,\n            _stableCoinSymbol\n        );\n        instanceSCTracker[_StableCoin] = WVSC;\n    }\n\n    /**\n  @notice lockCollateralUp is an external function used to track locked collateral amounts globally as they increase\n  @param _borrower is the address of the borrower\n  @param _amount is the USDC value thats looking to be locked up\n  **/\n    function lockCollateralUp(\n        address _borrower,\n        address _WVLP,\n        uint256 _amount\n    ) external {\n        WarpVaultLPI WV = WarpVaultLPI(_WVLP);\n        WV.lockWLP(_borrower, _WVLP, _amount);\n    }\n\n    /**\n   @notice lockCollateralDown is an external function used to track locked collateral amounts globally as they decrease\n   @param _borrower is the address of the borrower\n   @param _amount is the amount of LP being collateralized\n   **/\n    function lockCollateralDown(\n        address _borrower,\n        address _redeemer,\n        address _WVLP,\n        uint256 _amount\n    ) external {\n        WarpVaultLPI WV = WarpVaultLPI(_WVLP);\n        WV.unlockWLP(_borrower, _redeemer, _WVLP, _amount);\n    }\n\n    function checkLPprice(address _LP) public view returns (uint256) {\n        return Oracle.getUnderlyingPrice(_LP);\n    }\n\n    function checkLockedCollateral(address _borrower, address collateralVault)\n        public\n        view\n        returns (uint256)\n    {\n        WarpVaultLPI WV = WarpVaultLPI(collateralVault);\n        return WV.lockedWLPbalanceOf(_borrower, collateralVault);\n    }\n\n    /**\n@notice checkCollateralValue is a view function that accepts an account address and returns the total USDC value\n        of the accounts locked collateral\n@param _borrower is the address whos collateral value we are looking up\n **/\n    function checkAvailibleCollateralValue(\n        address _borrower,\n        address _WarpVault\n    ) external view returns (uint256) {\n        //instantiate warp vault at that position\n        WarpVaultLPI WV = WarpVaultLPI(_WarpVault);\n        //retreive the address of its asset\n        address asset = WV.getAssetAdd();\n        //retrieve USD price of this asset\n        uint256 priceOfAsset = Oracle.getUnderlyingPrice(asset);\n        //retrieve the amount of the asset locked as collateral\n        uint256 amountOfAssetCollat = WV.lpBalanceOf(_borrower);\n        //multiply the amount of collateral by the asset price and return it\n        return amountOfAssetCollat.mul(priceOfAsset);\n    }\n\n    /**\n    @notice checkCollateralValue is a view function that accepts an account address and returns the total USDC value\n            of the accounts locked collateral\n    @param _borrower is the address whos collateral value we are looking up\n     **/\n    function checkLockedCollateralValue(address _borrower, address _WarpVault)\n        external\n        view\n        returns (uint256)\n    {\n        WarpVaultLPI WV = WarpVaultLPI(_WarpVault);\n        //retreive the address of its asset\n        address asset = WV.getAssetAdd();\n        //retrieve USD price of this asset\n        uint256 priceOfAsset = Oracle.getUnderlyingPrice(asset);\n        //retrieve the amount of the asset locked as collateral\n        uint256 amountOfAssetCollat = WV.lockedWLPbalanceOf(\n            _borrower,\n            _WarpVault\n        );\n        //multiply the amount of collateral by the asset price and return it\n        return amountOfAssetCollat.mul(priceOfAsset);\n    }\n}\n",
  "sourcePath": "/home/stan36/repos/Warp/Smart-Contracts/contracts/WarpControl.sol",
  "compiler": {
    "name": "solc",
    "version": "0.6.6+commit.6c089d02.Emscripten.clang"
  },
  "schemaVersion": "3.2.4",
  "updatedAt": "2020-11-04T19:26:46.150Z",
  "devdoc": {
    "methods": {
      "checkAvailibleCollateralValue(address,address)": {
        "params": {
          "_borrower": "is the address whos collateral value we are looking up*"
        }
      },
      "checkLockedCollateralValue(address,address)": {
        "params": {
          "_borrower": "is the address whos collateral value we are looking up*"
        }
      },
      "constructor": {
        "params": {
          "_oracle": "is the address for the UniswapOracleFactorycontract*"
        }
      },
      "lockCollateralDown(address,address,address,uint256)": {
        "params": {
          "_amount": "is the amount of LP being collateralized*",
          "_borrower": "is the address of the borrower"
        }
      },
      "lockCollateralUp(address,address,uint256)": {
        "params": {
          "_amount": "is the USDC value thats looking to be locked up*",
          "_borrower": "is the address of the borrower"
        }
      },
      "owner()": {
        "details": "Returns the address of the current owner."
      },
      "renounceOwnership()": {
        "details": "Leaves the contract without owner. It will not be possible to call `onlyOwner` functions anymore. Can only be called by the current owner.     * NOTE: Renouncing ownership will leave the contract without an owner, thereby removing any functionality that is only available to the owner."
      },
      "transferOwnership(address)": {
        "details": "Transfers ownership of the contract to a new account (`newOwner`). Can only be called by the current owner."
      }
    }
  },
  "userdoc": {
    "methods": {
      "checkAvailibleCollateralValue(address,address)": {
        "notice": "checkCollateralValue is a view function that accepts an account address and returns the total USDC value of the accounts locked collateral"
      },
      "checkLockedCollateralValue(address,address)": {
        "notice": "checkCollateralValue is a view function that accepts an account address and returns the total USDC value of the accounts locked collateral"
      },
      "constructor": "the constructor function is fired during the contract deployment process. The constructor can only be fired once and is used to set up Oracle variables for the MoneyMarketFactory contract.",
      "createNewLPVault(address,address,address,string)": {
        "notice": "createNewVault allows the contract owner to create a new WarpVaultLP contract along with its associated Warp Wrapper Tokens*"
      },
      "lockCollateralDown(address,address,address,uint256)": {
        "notice": "lockCollateralDown is an external function used to track locked collateral amounts globally as they decrease"
      },
      "lockCollateralUp(address,address,uint256)": {
        "notice": "lockCollateralUp is an external function used to track locked collateral amounts globally as they increase"
      }
    },
    "notice": "WarpControl is designed to coordinate Warp Vaults This contract uses the OpenZeppelin contract Library to inherit functions from Ownable.sol*"
  }
}