{
  "contractName": "WarpControl",
  "abi": [
    {
      "inputs": [
        {
          "internalType": "address",
          "name": "_oracle",
          "type": "address"
        },
        {
          "internalType": "address",
          "name": "_WVLPF",
          "type": "address"
        },
        {
          "internalType": "address",
          "name": "_WVSCF",
          "type": "address"
        },
        {
          "internalType": "address",
          "name": "_warpTeam",
          "type": "address"
        }
      ],
      "stateMutability": "nonpayable",
      "type": "constructor"
    },
    {
      "anonymous": false,
      "inputs": [
        {
          "indexed": false,
          "internalType": "address",
          "name": "_account",
          "type": "address"
        },
        {
          "indexed": false,
          "internalType": "address",
          "name": "liquidator",
          "type": "address"
        }
      ],
      "name": "Liquidation",
      "type": "event"
    },
    {
      "anonymous": false,
      "inputs": [
        {
          "indexed": false,
          "internalType": "address",
          "name": "_borrower",
          "type": "address"
        },
        {
          "indexed": false,
          "internalType": "address",
          "name": "_StableCoin",
          "type": "address"
        },
        {
          "indexed": false,
          "internalType": "uint256",
          "name": "_amountBorrowed",
          "type": "uint256"
        }
      ],
      "name": "NewBorrow",
      "type": "event"
    },
    {
      "anonymous": false,
      "inputs": [
        {
          "indexed": false,
          "internalType": "address",
          "name": "_newVault",
          "type": "address"
        }
      ],
      "name": "NewLPVault",
      "type": "event"
    },
    {
      "anonymous": false,
      "inputs": [
        {
          "indexed": false,
          "internalType": "address",
          "name": "_newVault",
          "type": "address"
        },
        {
          "indexed": false,
          "internalType": "address",
          "name": "_interestRateModel",
          "type": "address"
        }
      ],
      "name": "NewSCVault",
      "type": "event"
    },
    {
      "anonymous": false,
      "inputs": [
        {
          "indexed": false,
          "internalType": "address",
          "name": "_account",
          "type": "address"
        },
        {
          "indexed": false,
          "internalType": "uint256",
          "name": "_time",
          "type": "uint256"
        }
      ],
      "name": "NotCompliant",
      "type": "event"
    },
    {
      "anonymous": false,
      "inputs": [
        {
          "indexed": true,
          "internalType": "address",
          "name": "previousOwner",
          "type": "address"
        },
        {
          "indexed": true,
          "internalType": "address",
          "name": "newOwner",
          "type": "address"
        }
      ],
      "name": "OwnershipTransferred",
      "type": "event"
    },
    {
      "anonymous": false,
      "inputs": [
        {
          "indexed": false,
          "internalType": "address",
          "name": "_account",
          "type": "address"
        },
        {
          "indexed": false,
          "internalType": "uint256",
          "name": "_time",
          "type": "uint256"
        }
      ],
      "name": "complianceReset",
      "type": "event"
    },
    {
      "inputs": [],
      "name": "Oracle",
      "outputs": [
        {
          "internalType": "contract UniswapLPOracleFactoryI",
          "name": "",
          "type": "address"
        }
      ],
      "stateMutability": "view",
      "type": "function"
    },
    {
      "inputs": [],
      "name": "WVLPF",
      "outputs": [
        {
          "internalType": "contract WarpVaultLPFactoryI",
          "name": "",
          "type": "address"
        }
      ],
      "stateMutability": "view",
      "type": "function"
    },
    {
      "inputs": [],
      "name": "WVSCF",
      "outputs": [
        {
          "internalType": "contract WarpVaultSCFactoryI",
          "name": "",
          "type": "address"
        }
      ],
      "stateMutability": "view",
      "type": "function"
    },
    {
      "inputs": [
        {
          "internalType": "address",
          "name": "",
          "type": "address"
        }
      ],
      "name": "existingRefferalCode",
      "outputs": [
        {
          "internalType": "bool",
          "name": "",
          "type": "bool"
        }
      ],
      "stateMutability": "view",
      "type": "function"
    },
    {
      "inputs": [
        {
          "internalType": "uint256",
          "name": "",
          "type": "uint256"
        }
      ],
      "name": "groups",
      "outputs": [
        {
          "internalType": "address",
          "name": "",
          "type": "address"
        }
      ],
      "stateMutability": "view",
      "type": "function"
    },
    {
      "inputs": [
        {
          "internalType": "address",
          "name": "",
          "type": "address"
        }
      ],
      "name": "instanceLPTracker",
      "outputs": [
        {
          "internalType": "address",
          "name": "",
          "type": "address"
        }
      ],
      "stateMutability": "view",
      "type": "function"
    },
    {
      "inputs": [
        {
          "internalType": "address",
          "name": "",
          "type": "address"
        }
      ],
      "name": "instanceSCTracker",
      "outputs": [
        {
          "internalType": "address",
          "name": "",
          "type": "address"
        }
      ],
      "stateMutability": "view",
      "type": "function"
    },
    {
      "inputs": [
        {
          "internalType": "address",
          "name": "",
          "type": "address"
        }
      ],
      "name": "isParticipant",
      "outputs": [
        {
          "internalType": "bool",
          "name": "",
          "type": "bool"
        }
      ],
      "stateMutability": "view",
      "type": "function"
    },
    {
      "inputs": [
        {
          "internalType": "address",
          "name": "",
          "type": "address"
        }
      ],
      "name": "isVault",
      "outputs": [
        {
          "internalType": "bool",
          "name": "",
          "type": "bool"
        }
      ],
      "stateMutability": "view",
      "type": "function"
    },
    {
      "inputs": [
        {
          "internalType": "uint256",
          "name": "",
          "type": "uint256"
        }
      ],
      "name": "launchParticipants",
      "outputs": [
        {
          "internalType": "address",
          "name": "",
          "type": "address"
        }
      ],
      "stateMutability": "view",
      "type": "function"
    },
    {
      "inputs": [
        {
          "internalType": "address",
          "name": "",
          "type": "address"
        }
      ],
      "name": "lockedLPValue",
      "outputs": [
        {
          "internalType": "uint256",
          "name": "",
          "type": "uint256"
        }
      ],
      "stateMutability": "view",
      "type": "function"
    },
    {
      "inputs": [
        {
          "internalType": "address",
          "name": "",
          "type": "address"
        },
        {
          "internalType": "address",
          "name": "",
          "type": "address"
        },
        {
          "internalType": "address",
          "name": "",
          "type": "address"
        }
      ],
      "name": "lpLockedForUserByGroup",
      "outputs": [
        {
          "internalType": "uint256",
          "name": "",
          "type": "uint256"
        }
      ],
      "stateMutability": "view",
      "type": "function"
    },
    {
      "inputs": [
        {
          "internalType": "uint256",
          "name": "",
          "type": "uint256"
        }
      ],
      "name": "lpVaults",
      "outputs": [
        {
          "internalType": "address",
          "name": "",
          "type": "address"
        }
      ],
      "stateMutability": "view",
      "type": "function"
    },
    {
      "inputs": [],
      "name": "owner",
      "outputs": [
        {
          "internalType": "address",
          "name": "",
          "type": "address"
        }
      ],
      "stateMutability": "view",
      "type": "function"
    },
    {
      "inputs": [
        {
          "internalType": "address",
          "name": "",
          "type": "address"
        }
      ],
      "name": "refferalCodeToGroupName",
      "outputs": [
        {
          "internalType": "string",
          "name": "",
          "type": "string"
        }
      ],
      "stateMutability": "view",
      "type": "function"
    },
    {
      "inputs": [
        {
          "internalType": "address",
          "name": "",
          "type": "address"
        },
        {
          "internalType": "uint256",
          "name": "",
          "type": "uint256"
        }
      ],
      "name": "refferalCodeTracker",
      "outputs": [
        {
          "internalType": "address",
          "name": "",
          "type": "address"
        }
      ],
      "stateMutability": "view",
      "type": "function"
    },
    {
      "inputs": [],
      "name": "renounceOwnership",
      "outputs": [],
      "stateMutability": "nonpayable",
      "type": "function"
    },
    {
      "inputs": [
        {
          "internalType": "uint256",
          "name": "",
          "type": "uint256"
        }
      ],
      "name": "scVaults",
      "outputs": [
        {
          "internalType": "address",
          "name": "",
          "type": "address"
        }
      ],
      "stateMutability": "view",
      "type": "function"
    },
    {
      "inputs": [
        {
          "internalType": "address",
          "name": "newOwner",
          "type": "address"
        }
      ],
      "name": "transferOwnership",
      "outputs": [],
      "stateMutability": "nonpayable",
      "type": "function"
    },
    {
      "inputs": [
        {
          "internalType": "address",
          "name": "",
          "type": "address"
        },
        {
          "internalType": "address",
          "name": "",
          "type": "address"
        }
      ],
      "name": "tvlForUserByGroup",
      "outputs": [
        {
          "internalType": "uint256",
          "name": "",
          "type": "uint256"
        }
      ],
      "stateMutability": "view",
      "type": "function"
    },
    {
      "inputs": [],
      "name": "warpTeam",
      "outputs": [
        {
          "internalType": "address",
          "name": "",
          "type": "address"
        }
      ],
      "stateMutability": "view",
      "type": "function"
    },
    {
      "inputs": [],
      "name": "viewNumLPVaults",
      "outputs": [
        {
          "internalType": "uint256",
          "name": "",
          "type": "uint256"
        }
      ],
      "stateMutability": "view",
      "type": "function"
    },
    {
      "inputs": [],
      "name": "viewNumSCVaults",
      "outputs": [
        {
          "internalType": "uint256",
          "name": "",
          "type": "uint256"
        }
      ],
      "stateMutability": "view",
      "type": "function"
    },
    {
      "inputs": [],
      "name": "viewLaunchParticipants",
      "outputs": [
        {
          "internalType": "address[]",
          "name": "",
          "type": "address[]"
        }
      ],
      "stateMutability": "view",
      "type": "function"
    },
    {
      "inputs": [],
      "name": "viewAllGroups",
      "outputs": [
        {
          "internalType": "address[]",
          "name": "",
          "type": "address[]"
        }
      ],
      "stateMutability": "view",
      "type": "function"
    },
    {
      "inputs": [
        {
          "internalType": "address",
          "name": "_refferalCode",
          "type": "address"
        }
      ],
      "name": "viewAllMembersOfAGroup",
      "outputs": [
        {
          "internalType": "address[]",
          "name": "",
          "type": "address[]"
        }
      ],
      "stateMutability": "view",
      "type": "function"
    },
    {
      "inputs": [
        {
          "internalType": "uint256",
          "name": "_timelock",
          "type": "uint256"
        },
        {
          "internalType": "address",
          "name": "_lp",
          "type": "address"
        },
        {
          "internalType": "address",
          "name": "_lpAsset1",
          "type": "address"
        },
        {
          "internalType": "address",
          "name": "_lpAsset2",
          "type": "address"
        },
        {
          "internalType": "string",
          "name": "_lpName",
          "type": "string"
        }
      ],
      "name": "createNewLPVault",
      "outputs": [],
      "stateMutability": "nonpayable",
      "type": "function"
    },
    {
      "inputs": [
        {
          "internalType": "uint256",
          "name": "_timelock",
          "type": "uint256"
        },
        {
          "internalType": "uint256",
          "name": "_baseRatePerYear",
          "type": "uint256"
        },
        {
          "internalType": "uint256",
          "name": "_multiplierPerYear",
          "type": "uint256"
        },
        {
          "internalType": "uint256",
          "name": "_jumpMultiplierPerYear",
          "type": "uint256"
        },
        {
          "internalType": "uint256",
          "name": "_optimal",
          "type": "uint256"
        },
        {
          "internalType": "uint256",
          "name": "_initialExchangeRate",
          "type": "uint256"
        },
        {
          "internalType": "address",
          "name": "_StableCoin",
          "type": "address"
        }
      ],
      "name": "createNewSCVault",
      "outputs": [],
      "stateMutability": "nonpayable",
      "type": "function"
    },
    {
      "inputs": [
        {
          "internalType": "string",
          "name": "_groupName",
          "type": "string"
        }
      ],
      "name": "createGroup",
      "outputs": [],
      "stateMutability": "nonpayable",
      "type": "function"
    },
    {
      "inputs": [
        {
          "internalType": "address",
          "name": "_refferalCode",
          "type": "address"
        },
        {
          "internalType": "address",
          "name": "_member",
          "type": "address"
        },
        {
          "internalType": "uint256",
          "name": "_amount",
          "type": "uint256"
        }
      ],
      "name": "addMemberToGroupSC",
      "outputs": [],
      "stateMutability": "nonpayable",
      "type": "function"
    },
    {
      "inputs": [
        {
          "internalType": "address",
          "name": "_refferalCode",
          "type": "address"
        },
        {
          "internalType": "address",
          "name": "_member",
          "type": "address"
        },
        {
          "internalType": "address",
          "name": "_lp",
          "type": "address"
        },
        {
          "internalType": "uint256",
          "name": "_amount",
          "type": "uint256"
        }
      ],
      "name": "addMemberToGroupLP",
      "outputs": [],
      "stateMutability": "nonpayable",
      "type": "function"
    },
    {
      "inputs": [
        {
          "internalType": "address",
          "name": "account",
          "type": "address"
        },
        {
          "internalType": "address",
          "name": "lpToken",
          "type": "address"
        }
      ],
      "name": "getMaxWithdrawAllowed",
      "outputs": [
        {
          "internalType": "uint256",
          "name": "",
          "type": "uint256"
        }
      ],
      "stateMutability": "nonpayable",
      "type": "function"
    },
    {
      "inputs": [
        {
          "internalType": "address",
          "name": "account",
          "type": "address"
        },
        {
          "internalType": "address",
          "name": "lpToken",
          "type": "address"
        }
      ],
      "name": "viewMaxWithdrawAllowed",
      "outputs": [
        {
          "internalType": "uint256",
          "name": "",
          "type": "uint256"
        }
      ],
      "stateMutability": "view",
      "type": "function"
    },
    {
      "inputs": [
        {
          "internalType": "address",
          "name": "_account",
          "type": "address"
        }
      ],
      "name": "getTotalAvailableCollateralValue",
      "outputs": [
        {
          "internalType": "uint256",
          "name": "",
          "type": "uint256"
        }
      ],
      "stateMutability": "nonpayable",
      "type": "function"
    },
    {
      "inputs": [
        {
          "internalType": "address",
          "name": "_account",
          "type": "address"
        }
      ],
      "name": "viewTotalAvailableCollateralValue",
      "outputs": [
        {
          "internalType": "uint256",
          "name": "",
          "type": "uint256"
        }
      ],
      "stateMutability": "view",
      "type": "function"
    },
    {
      "inputs": [
        {
          "internalType": "address",
          "name": "lpToken",
          "type": "address"
        }
      ],
      "name": "viewPriceOfCollateral",
      "outputs": [
        {
          "internalType": "uint256",
          "name": "",
          "type": "uint256"
        }
      ],
      "stateMutability": "view",
      "type": "function"
    },
    {
      "inputs": [
        {
          "internalType": "address",
          "name": "token",
          "type": "address"
        }
      ],
      "name": "viewPriceOfToken",
      "outputs": [
        {
          "internalType": "uint256",
          "name": "",
          "type": "uint256"
        }
      ],
      "stateMutability": "view",
      "type": "function"
    },
    {
      "inputs": [
        {
          "internalType": "address",
          "name": "_account",
          "type": "address"
        }
      ],
      "name": "viewTotalBorrowedValue",
      "outputs": [
        {
          "internalType": "uint256",
          "name": "",
          "type": "uint256"
        }
      ],
      "stateMutability": "view",
      "type": "function"
    },
    {
      "inputs": [
        {
          "internalType": "address",
          "name": "_account",
          "type": "address"
        }
      ],
      "name": "getTotalBorrowedValue",
      "outputs": [
        {
          "internalType": "uint256",
          "name": "",
          "type": "uint256"
        }
      ],
      "stateMutability": "nonpayable",
      "type": "function"
    },
    {
      "inputs": [
        {
          "internalType": "uint256",
          "name": "_collateralValue",
          "type": "uint256"
        }
      ],
      "name": "calcBorrowLimit",
      "outputs": [
        {
          "internalType": "uint256",
          "name": "",
          "type": "uint256"
        }
      ],
      "stateMutability": "pure",
      "type": "function"
    },
    {
      "inputs": [
        {
          "internalType": "uint256",
          "name": "_borrowAmount",
          "type": "uint256"
        }
      ],
      "name": "calcCollateralRequired",
      "outputs": [
        {
          "internalType": "uint256",
          "name": "",
          "type": "uint256"
        }
      ],
      "stateMutability": "view",
      "type": "function"
    },
    {
      "inputs": [
        {
          "internalType": "address",
          "name": "_account",
          "type": "address"
        }
      ],
      "name": "getBorrowLimit",
      "outputs": [
        {
          "internalType": "uint256",
          "name": "",
          "type": "uint256"
        }
      ],
      "stateMutability": "nonpayable",
      "type": "function"
    },
    {
      "inputs": [
        {
          "internalType": "address",
          "name": "_account",
          "type": "address"
        }
      ],
      "name": "viewBorrowLimit",
      "outputs": [
        {
          "internalType": "uint256",
          "name": "",
          "type": "uint256"
        }
      ],
      "stateMutability": "view",
      "type": "function"
    },
    {
      "inputs": [
        {
          "internalType": "address",
          "name": "_StableCoin",
          "type": "address"
        },
        {
          "internalType": "uint256",
          "name": "_amount",
          "type": "uint256"
        }
      ],
      "name": "borrowSC",
      "outputs": [],
      "stateMutability": "nonpayable",
      "type": "function"
    },
    {
      "inputs": [
        {
          "internalType": "address",
          "name": "_borrower",
          "type": "address"
        }
      ],
      "name": "markAccountNonCompliant",
      "outputs": [],
      "stateMutability": "nonpayable",
      "type": "function"
    },
    {
      "inputs": [
        {
          "internalType": "address",
          "name": "_borrower",
          "type": "address"
        }
      ],
      "name": "liquidateAccount",
      "outputs": [],
      "stateMutability": "nonpayable",
      "type": "function"
    }
  ],
  "bytecode": "0x608060405234801561001057600080fd5b5060405162003641380380620036418339818101604052608081101561003557600080fd5b5080516020820151604083015160609093015191929091600061005f6001600160e01b036100fc16565b600080546001600160a01b0319166001600160a01b0383169081178255604051929350917f8be0079c531659141344cd1fd0a4f28419497f9722a3daafe3b4186f6b6457e0908290a350600180546001600160a01b039586166001600160a01b0319918216179091556002805494861694821694909417909355600380549285169284169290921790915560048054919093169116179055610100565b3390565b61353180620001106000396000f3fe60806040523480156200001157600080fd5b50600436106200024a5760003560e01c80630a555989146200024f5780630c1e2b921462000280578063169d4b1414620002c55780631dbb0b81146200030057806341f41189146200030a57806348cca25414620003335780634e590bee14620003ae5780635136f31514620003d7578063518f25bd14620004145780635cf57389146200044557806362226308146200044f578063652b9b41146200046f5780636af5f7521462000498578063715018a614620004a25780637af70ba614620004ac5780637c17d23714620004d55780638ac5d4a314620004fe5780638da5cb5b1462000527578063928d174c1462000531578063929066f5146200056c57806396324bd414620005955780639da7875714620005b5578063a092b7181462000656578063a2b35d9d1462000660578063a372e01c1462000689578063ab5e2c991462000693578063acc9e5b114620006c4578063b042079214620006ed578063bc64cd4e146200070d578063be9287e31462000736578063d38ca6d9146200075f578063d6fff56f1462000788578063da4f7fb214620007b7578063db1dfc4614620007d7578063dc2ddcae1462000824578063e1535d1214620008ce578063e3c351b814620008d8578063e50f4a301462000901578063e7b34be314620009d3578063ed6072f614620009f3578063efdebdf51462000a13578063f24a534e1462000a1d578063f2fde38b1462000a27578063f3c7f9871462000a50578063f71927e31462000a81578063fbb354441462000ac0575b600080fd5b6200027e600480360360408110156200026757600080fd5b506001600160a01b03813516906020013562000af9565b005b620002a9600480360360208110156200029857600080fd5b50356001600160a01b031662000c7f565b604080516001600160a01b039092168252519081900360200190f35b620002ee60048036036020811015620002dd57600080fd5b50356001600160a01b031662000c9a565b60408051918252519081900360200190f35b620002ee62000cbc565b6200027e600480360360208110156200032257600080fd5b50356001600160a01b031662000cc3565b6200035c600480360360208110156200034b57600080fd5b50356001600160a01b031662000ea0565b60408051602080825283518183015283519192839290830191858101910280838360005b838110156200039a57818101518382015260200162000380565b505050509050019250505060405180910390f35b620002ee60048036036020811015620003c657600080fd5b50356001600160a01b031662000f18565b6200040060048036036020811015620003ef57600080fd5b50356001600160a01b031662000f9e565b604080519115158252519081900360200190f35b620002ee600480360360408110156200042c57600080fd5b506001600160a01b038135811691602001351662000fb3565b620002a962000fd0565b620002a9600480360360208110156200046757600080fd5b503562000fdf565b62000400600480360360208110156200048757600080fd5b50356001600160a01b031662001007565b620002a96200101c565b6200027e6200102b565b620002ee60048036036020811015620004c457600080fd5b50356001600160a01b0316620010c0565b620002ee60048036036020811015620004ed57600080fd5b50356001600160a01b0316620012c0565b6200027e600480360360208110156200051657600080fd5b50356001600160a01b0316620012ce565b620002a962001694565b620002ee600480360360608110156200054957600080fd5b506001600160a01b038135811691602081013582169160409091013516620016a3565b62000400600480360360208110156200058457600080fd5b50356001600160a01b0316620016c6565b620002a960048036036020811015620005ad57600080fd5b5035620016db565b620005de60048036036020811015620005cd57600080fd5b50356001600160a01b0316620016e9565b6040805160208082528351818301528351919283929083019185019080838360005b838110156200061a57818101518382015260200162000600565b50505050905090810190601f168015620006485780820380516001836020036101000a031916815260200191505b509250505060405180910390f35b6200035c62001788565b620002ee600480360360208110156200067857600080fd5b50356001600160a01b0316620017ec565b6200035c620018bf565b620002ee60048036036040811015620006ab57600080fd5b506001600160a01b038135811691602001351662001921565b620002a960048036036020811015620006dc57600080fd5b50356001600160a01b0316620019f8565b620002a9600480360360208110156200070557600080fd5b503562001a13565b620002ee600480360360208110156200072557600080fd5b50356001600160a01b031662001a21565b620002ee600480360360208110156200074e57600080fd5b50356001600160a01b031662001bfd565b620002ee600480360360208110156200077757600080fd5b50356001600160a01b031662001c9c565b620002a960048036036040811015620007a057600080fd5b506001600160a01b03813516906020013562001cee565b620002ee60048036036020811015620007cf57600080fd5b503562001d24565b6200027e600480360360e0811015620007ef57600080fd5b5080359060208101359060408101359060608101359060808101359060a08101359060c001356001600160a01b031662001dd9565b6200027e600480360360208110156200083c57600080fd5b810190602081018135600160201b8111156200085757600080fd5b8201836020820111156200086a57600080fd5b803590602001918460018302840111600160201b831117156200088c57600080fd5b91908080601f01602080910402602001604051908101604052809392919081815260200183838082843760009201919091525092955062002001945050505050565b620002ee620020a6565b620002ee60048036036020811015620008f057600080fd5b50356001600160a01b0316620020ac565b6200027e600480360360a08110156200091957600080fd5b8135916001600160a01b03602082013581169260408301358216926060810135909216919081019060a081016080820135600160201b8111156200095c57600080fd5b8201836020820111156200096f57600080fd5b803590602001918460018302840111600160201b831117156200099157600080fd5b91908080601f016020809104026020016040519081016040528093929190818152602001838380828437600092019190915250929550620020be945050505050565b620002a960048036036020811015620009eb57600080fd5b503562002345565b620002ee6004803603602081101562000a0b57600080fd5b503562002353565b620002a96200237d565b620002a96200238c565b6200027e6004803603602081101562000a3f57600080fd5b50356001600160a01b03166200239b565b620002ee6004803603604081101562000a6857600080fd5b506001600160a01b038135811691602001351662002488565b6200027e6004803603608081101562000a9957600080fd5b506001600160a01b0381358116916020810135821691604082013516906060013562002524565b6200027e6004803603606081101562000ad857600080fd5b506001600160a01b0381358116916020810135909116906040013562002638565b600062000b0633620017ec565b9050600062000b1533620012c0565b9050600062000b2b828463ffffffff6200273e16565b90508381101562000b81576040805162461bcd60e51b815260206004820152601b60248201527a109bdc9c9bddda5b99c81b5bdc99481d1a185b88185b1b1bddd959602a1b604482015290519081900360640190fd5b336000908152600b602052604090205462000ba3908563ffffffff6200278216565b336000818152600b60209081526040808320949094556001600160a01b038981168352600a909152838220548451631196a36960e11b8152600481018a905260248101949094529351931692839263232d46d292604480830193919282900301818387803b15801562000c1557600080fd5b505af115801562000c2a573d6000803e3d6000fd5b5050604080513381526001600160a01b038a16602082015280820189905290517f39afaad37daff6f7a5998bf9de35bb3f46d51f73227bb182d92c016c981a82909350908190036060019150a1505050505050565b600a602052600090815260409020546001600160a01b031681565b60008062000ca88362001a21565b905062000cb58162002353565b9392505050565b6006545b90565b60065460006060826001600160401b038111801562000ce157600080fd5b5060405190808252806020026020018201604052801562000d0c578160200160208202803683370190505b50905060005b8381101562000e065760006006828154811062000d2b57fe5b6000918252602080832090910154604080516305eff7ef60e21b81526001600160a01b038b81166004830152915191909216945084936317bfdfbc93602480850194919392918390030190829087803b15801562000d8857600080fd5b505af115801562000d9d573d6000803e3d6000fd5b505050506040513d602081101562000db457600080fd5b5051835184908490811062000dc557fe5b60200260200101818152505062000dfa83838151811062000de257fe5b6020026020010151856200278290919063ffffffff16565b93505060010162000d12565b50600062000e1485620012c0565b905082811162000e99576001600160a01b0385166000908152600c60205260409020541562000e4257600080fd5b6001600160a01b0385166000818152600c6020908152604091829020429081905582519384529083015280517f8c8c19ede31d34679a9546f29f1c360e588c89ffb0792c110c317a3463f7288c9281900390910190a15b5050505050565b6001600160a01b0381166000908152600e602090815260409182902080548351818402810184019094528084526060939283018282801562000f0c57602002820191906000526020600020905b81546001600160a01b0316815260019091019060200180831162000eed575b50505050509050919050565b6001546040805163b04c6d3f60e01b81526001600160a01b0384811660048301529151600093929092169163b04c6d3f91602480820192602092909190829003018186803b15801562000f6a57600080fd5b505afa15801562000f7f573d6000803e3d6000fd5b505050506040513d602081101562000f9657600080fd5b505192915050565b60136020526000908152604090205460ff1681565b600f60209081526000928352604080842090915290825290205481565b6004546001600160a01b031681565b6005818154811062000fed57fe5b6000918252602090912001546001600160a01b0316905081565b600d6020526000908152604090205460ff1681565b6002546001600160a01b031681565b62001035620027db565b6000546001600160a01b0390811691161462001087576040805162461bcd60e51b81526020600482018190526024820152600080516020620034bc833981519152604482015290519081900360640190fd5b600080546040516001600160a01b0390911690600080516020620034dc833981519152908390a3600080546001600160a01b0319169055565b60055460009081805b828110156200129d57600060058281548110620010e257fe5b6000918252602080832090910154604080516313082b1d60e21b815290516001600160a01b0390921694508492634c20ac7492600480840193829003018186803b1580156200113057600080fd5b505afa15801562001145573d6000803e3d6000fd5b505050506040513d60208110156200115c57600080fd5b50516001546040805163fc57d4df60e01b81526001600160a01b0380851660048301529151939450600093919092169163fc57d4df91602480830192602092919082900301818787803b158015620011b357600080fd5b505af1158015620011c8573d6000803e3d6000fd5b505050506040513d6020811015620011df57600080fd5b50516040805163f919b4bf60e01b81526001600160a01b038b8116600483015291519293506000929186169163f919b4bf91602480820192602092909190829003018186803b1580156200123257600080fd5b505afa15801562001247573d6000803e3d6000fd5b505050506040513d60208110156200125e57600080fd5b50519050600062001276828463ffffffff620027df16565b90506200128a878263ffffffff6200278216565b96505050505050806001019050620010c9565b50620012b881670de0b6b3a764000063ffffffff6200283d16565b949350505050565b60008062000ca883620010c0565b336001600160a01b0382161415620012e557600080fd5b6001600160a01b0381166000908152600c6020526040902054620013129061070863ffffffff6200278216565b4210156200131f57600080fd5b60065460055460006060836001600160401b03811180156200134057600080fd5b506040519080825280602002602001820160405280156200136b578160200160208202803683370190505b50905060005b848110156200144d576000600682815481106200138a57fe5b6000918252602080832090910154604080516305eff7ef60e21b81526001600160a01b038c81166004830152915191909216945084936317bfdfbc93602480850194919392918390030190829087803b158015620013e757600080fd5b505af1158015620013fc573d6000803e3d6000fd5b505050506040513d60208110156200141357600080fd5b505183518490849081106200142457fe5b6020026020010181815250506200144183838151811062000de257fe5b93505060010162001371565b5060006200145b86620012c0565b9050828111620016375760005b8581101562001556576000600682815481106200148157fe5b9060005260206000200160009054906101000a90046001600160a01b03169050806001600160a01b031663ab292f9b8933878681518110620014bf57fe5b60200260200101516040518463ffffffff1660e01b815260040180846001600160a01b03166001600160a01b03168152602001836001600160a01b03166001600160a01b031681526020018281526020019350505050600060405180830381600087803b1580156200153057600080fd5b505af115801562001545573d6000803e3d6000fd5b505050505080600101905062001468565b5060005b8481101562001635576000600582815481106200157357fe5b600091825260208220015460408051633d2d78f960e21b81526001600160a01b038c811660048301523360248301529151919092169350839263f4b5e3e4926044808201939182900301818387803b158015620015cf57600080fd5b505af1158015620015e4573d6000803e3d6000fd5b5050604080516001600160a01b038c16815233602082015281517fce054da468b0607d4d65949d7572acd17087e593b3e5be27ba665ba1a60ad75b9450908190039091019150a1506001016200155a565b505b6001600160a01b0386166000818152600c60209081526040808320929092558151928352429083015280517f693c96c553edae7cfbc0a30a15d746ffd508e26a931f968b41b03057a68793b89281900390910190a1505050505050565b6000546001600160a01b031690565b601060209081526000938452604080852082529284528284209052825290205481565b60126020526000908152604090205460ff1681565b6008818154811062000fed57fe5b60116020908152600091825260409182902080548351601f600260001961010060018616150201909316929092049182018490048402810184019094528084529091830182828015620017805780601f10620017545761010080835404028352916020019162001780565b820191906000526020600020905b8154815290600101906020018083116200176257829003601f168201915b505050505081565b60606008805480602002602001604051908101604052809291908181526020018280548015620017e257602002820191906000526020600020905b81546001600160a01b03168152600190910190602001808311620017c3575b5050505050905090565b60065460009081805b82811015620018b7576000600682815481106200180e57fe5b6000918252602080832090910154604080516305eff7ef60e21b81526001600160a01b038b811660048301529151919092169450620018ab9385936317bfdfbc936024808201949293918390030190829087803b1580156200186f57600080fd5b505af115801562001884573d6000803e3d6000fd5b505050506040513d60208110156200189b57600080fd5b5051849063ffffffff6200278216565b925050600101620017f5565b509392505050565b60606007805480602002602001604051908101604052809291908181526020018280548015620017e2576020028201919060005260206000209081546001600160a01b03168152600190910190602001808311620017c3575050505050905090565b6000806200192f84620017ec565b905060006200193e85620010c0565b9050600062001954828463ffffffff6200273e16565b6001546040805163fc57d4df60e01b81526001600160a01b0389811660048301529151939450600093919092169163fc57d4df91602480830192602092919082900301818787803b158015620019a957600080fd5b505af1158015620019be573d6000803e3d6000fd5b505050506040513d6020811015620019d557600080fd5b50519050620019eb828263ffffffff620027df16565b9450505050505b92915050565b6009602052600090815260409020546001600160a01b031681565b6006818154811062000fed57fe5b60055460009081805b828110156200129d5760006005828154811062001a4357fe5b6000918252602080832090910154604080516313082b1d60e21b815290516001600160a01b0390921694508492634c20ac7492600480840193829003018186803b15801562001a9157600080fd5b505afa15801562001aa6573d6000803e3d6000fd5b505050506040513d602081101562001abd57600080fd5b50516001546040805163b04c6d3f60e01b81526001600160a01b0380851660048301529151939450600093919092169163b04c6d3f916024808301926020929190829003018186803b15801562001b1357600080fd5b505afa15801562001b28573d6000803e3d6000fd5b505050506040513d602081101562001b3f57600080fd5b50516040805163f919b4bf60e01b81526001600160a01b038b8116600483015291519293506000929186169163f919b4bf91602480820192602092909190829003018186803b15801562001b9257600080fd5b505afa15801562001ba7573d6000803e3d6000fd5b505050506040513d602081101562001bbe57600080fd5b50519050600062001bd6828463ffffffff620027df16565b905062001bea878263ffffffff6200278216565b9650505050505080600101905062001a2a565b60065460009081805b82811015620018b75760006006828154811062001c1f57fe5b6000918252602091829020015460408051637746efab60e01b81526001600160a01b038a81166004830152915191909216935062001c90928492637746efab9260248083019392829003018186803b15801562001c7b57600080fd5b505afa15801562001884573d6000803e3d6000fd5b92505060010162001c06565b6001546040805163d38ca6d960e01b81526001600160a01b0384811660048301529151600093929092169163d38ca6d991602480820192602092909190829003018186803b15801562000f6a57600080fd5b600e602052816000526040600020818154811062001d0857fe5b6000918252602090912001546001600160a01b03169150829050565b600080600160009054906101000a90046001600160a01b03166001600160a01b031663fa7827d26040518163ffffffff1660e01b815260040160206040518083038186803b15801562001d7657600080fd5b505afa15801562001d8b573d6000803e3d6000fd5b505050506040513d602081101562001da257600080fd5b50519050600062001dc562001db78362002353565b839063ffffffff6200283d16565b9050620012b8848263ffffffff620027df16565b62001de3620027db565b6000546001600160a01b0390811691161462001e35576040805162461bcd60e51b81526020600482018190526024820152600080516020620034bc833981519152604482015290519081900360640190fd5b6000868686863060405162001e4a9062002982565b948552602085019390935260408085019290925260608401526001600160a01b039091166080830152519081900360a001906000f08015801562001e92573d6000803e3d6000fd5b506003546004805460408051636770252b60e11b81526001600160a01b03808716948201949094528784166024820152918316604483015260648201889052608482018d905251939450600093919092169163cee04a569160a480830192602092919082900301818787803b15801562001f0b57600080fd5b505af115801562001f20573d6000803e3d6000fd5b505050506040513d602081101562001f3757600080fd5b50516001600160a01b038085166000908152600a6020908152604080832080548587166001600160a01b031991821681179092556006805460018181019092557ff652222313e28459528d920b65115c16c04f3efc82aaedc97be59f3f377c0d3f0180549092168317909155818552600d845293829020805460ff191690941790935580519283529286169082015281519293507f2c3b5544df8032e6313fd1e59faede21004ab06bb69c1f6640a41566225cb00a929081900390910190a1505050505050505050565b336000818152600e602090815260408083208054600181810183559185528385200180546001600160a01b0319168617905593835260138252808320805460ff1916909417909355601181529190208251620020609284019062002990565b5050600880546001810182556000919091527ff3f7a9fe364faab93b216da50a3214154f22a0a2b415b23a84c8169e8b636ee30180546001600160a01b03191633179055565b60055490565b600b6020526000908152604090205481565b620020c8620027db565b6000546001600160a01b039081169116146200211a576040805162461bcd60e51b81526020600482018190526024820152600080516020620034bc833981519152604482015290519081900360640190fd5b60015460408051634a42dd6d60e11b81526001600160a01b0386811660048301528581166024830152878116604483015291519190921691639485bada91606480830192600092919082900301818387803b1580156200217957600080fd5b505af11580156200218e573d6000803e3d6000fd5b505060025460405163a8edf11560e01b8152600481018981526001600160a01b0389811660248401526060604484019081528751606485015287516000975091909416945063a8edf115938b938b9389939092916084019060208501908083838d5b838110156200220a578181015183820152602001620021f0565b50505050905090810190601f168015620022385780820380516001836020036101000a031916815260200191505b50945050505050602060405180830381600087803b1580156200225a57600080fd5b505af11580156200226f573d6000803e3d6000fd5b505050506040513d60208110156200228657600080fd5b50516001600160a01b03868116600090815260096020908152604080832080546001600160a01b03199081169587169586179091556005805460018181019092557f036b6384b5eca791c62761152d0c79bb0604c104a5fb6f4eb0703f3154bb3db00180549092168617909155848452600d835292819020805460ff1916909317909255815192835290519293507fe4136410250c225cb6546e2f16dccea79b35b32f295f337362d04375101342ff92918290030190a1505050505050565b6007818154811062000fed57fe5b6000806200236983600363ffffffff6200283d16565b905062000cb5818063ffffffff6200278216565b6003546001600160a01b031681565b6001546001600160a01b031681565b620023a5620027db565b6000546001600160a01b03908116911614620023f7576040805162461bcd60e51b81526020600482018190526024820152600080516020620034bc833981519152604482015290519081900360640190fd5b6001600160a01b0381166200243e5760405162461bcd60e51b8152600401808060200182810382526026815260200180620034556026913960400191505060405180910390fd5b600080546040516001600160a01b0380851693921691600080516020620034dc83398151915291a3600080546001600160a01b0319166001600160a01b0392909216919091179055565b600080620024968462001bfd565b90506000620024a58562001a21565b90506000620024bb828463ffffffff6200273e16565b6001546040805163b04c6d3f60e01b81526001600160a01b0389811660048301529151939450600093919092169163b04c6d3f916024808301926020929190829003018186803b1580156200250f57600080fd5b505afa158015620019be573d6000803e3d6000fd5b336000908152600d602052604090205460ff1615156001146200254657600080fd5b6001600160a01b038481166000818152600e6020908152604080832080546001810182559084528284200180546001600160a01b03191689871617905533835260108252808320938352928152828220938616825292909252902054620025ae908262002782565b3360008181526010602090815260408083206001600160a01b038a8116855290835281842090881684528252808320949094559181526012909152205460ff16620026325760078054600181019091556000805160206200347b8339815191520180546001600160a01b0319166001600160a01b0385161790553360005260126020525b50505050565b336000908152600d602052604090205460ff1615156001146200265a57600080fd5b6001600160a01b038381166000818152600e6020908152604080832080546001810182559084528284200180546001600160a01b03191695881695909517909455338252600f8152838220928252919091522054620026ba908262002782565b6001600160a01b038084166000818152600f60209081526040808320948916835293815283822094909455908152601290925290205460ff16620027395760078054600181019091556000805160206200347b8339815191520180546001600160a01b0319166001600160a01b03841690811790915560005260126020525b505050565b600062000cb583836040518060400160405280601e81526020017f536166654d6174683a207375627472616374696f6e206f766572666c6f7700008152506200287e565b60008282018381101562000cb5576040805162461bcd60e51b815260206004820152601b60248201527a536166654d6174683a206164646974696f6e206f766572666c6f7760281b604482015290519081900360640190fd5b3390565b600082620027f057506000620019f2565b82820282848281620027fe57fe5b041462000cb55760405162461bcd60e51b81526004018080602001828103825260218152602001806200349b6021913960400191505060405180910390fd5b600062000cb583836040518060400160405280601a815260200179536166654d6174683a206469766973696f6e206279207a65726f60301b81525062002919565b60008184841115620029115760405162461bcd60e51b81526004018080602001828103825283818151815260200191508051906020019080838360005b83811015620028d5578181015183820152602001620028bb565b50505050905090810190601f168015620029035780820380516001836020036101000a031916815260200191505b509250505060405180910390fd5b505050900390565b600081836200296b5760405162461bcd60e51b8152602060048201818152835160248401528351909283926044909101919085019080838360008315620028d5578181015183820152602001620028bb565b5060008385816200297857fe5b0495945050505050565b610a228062002a3383390190565b828054600181600116156101000203166002900490600052602060002090601f016020900481019282601f10620029d357805160ff191683800117855562002a03565b8280016001018555821562002a03579182015b8281111562002a03578251825591602001919060010190620029e6565b5062002a1192915062002a15565b5090565b62000cc091905b8082111562002a11576000815560010162002a1c56fe608060405234801561001057600080fd5b50604051610a22380380610a22833981810160405260a081101561003357600080fd5b508051602082015160408301516060840151608090940151600080546001600160a01b0319166001600160a01b03831617905592939192909190848484848461007e8585858561008d565b505050505050505050506102bc565b6100a7622014808561017060201b61057e1790919060201c565b6002556100f66100c562201480836101c1602090811b61052517901c565b6100e4670de0b6b3a7640000866101c160201b6105251790919060201c565b61017060201b61057e1790919060201c565b6001556101118262201480610170602090811b61057e17901c565b60038190556004829055600254600154604080519283526020830191909152818101929092526060810183905290517f6960ab234c7ef4b0c9197100f5393cfcde7c453ac910a27bd2000aa1dd4c068d9181900360800190a150505050565b60006101b883836040518060400160405280601a81526020017f536166654d6174683a206469766973696f6e206279207a65726f00000000000081525061021a60201b60201c565b90505b92915050565b6000826101d0575060006101bb565b828202828482816101dd57fe5b04146101b85760405162461bcd60e51b8152600401808060200182810382526021815260200180610a016021913960400191505060405180910390fd5b600081836102a65760405162461bcd60e51b81526004018080602001828103825283818151815260200191508051906020019080838360005b8381101561026b578181015183820152602001610253565b50505050905090810190601f1680156102985780820380516001836020036101000a031916815260200191505b509250505060405180910390fd5b5060008385816102b257fe5b0495945050505050565b610736806102cb6000396000f3fe608060405234801561001057600080fd5b506004361061008e5760003560e01c806315f24053146100935780632037f3e7146100ce5780636e71e2d8146100ff5780638726bb89146101285780638da5cb5b14610130578063a385fb9614610154578063b81688161461015c578063b9f9850a1461018b578063f14039de14610193578063fd2da3391461019b575b600080fd5b6100bc600480360360608110156100a957600080fd5b50803590602081013590604001356101a3565b60408051918252519081900360200190f35b6100fd600480360360808110156100e457600080fd5b50803590602081013590604081013590606001356101ba565b005b6100bc6004803603606081101561011557600080fd5b5080359060208101359060400135610215565b6100bc61026b565b610138610271565b604080516001600160a01b039092168252519081900360200190f35b6100bc610280565b6100bc6004803603608081101561017257600080fd5b5080359060208101359060408101359060600135610287565b6100bc610306565b6100bc61030c565b6100bc610312565b60006101b0848484610318565b90505b9392505050565b6000546001600160a01b031633146102035760405162461bcd60e51b81526004018080602001828103825260268152602001806106db6026913960400191505060405180910390fd5b61020f848484846103e1565b50505050565b600082610224575060006101b3565b6101b06102478361023b878763ffffffff61048216565b9063ffffffff6104e316565b61025f85670de0b6b3a764000063ffffffff61052516565b9063ffffffff61057e16565b60015481565b6000546001600160a01b031681565b6220148081565b6000806102a2670de0b6b3a76400008463ffffffff6104e316565b905060006102b1878787610318565b905060006102d1670de0b6b3a764000061025f848663ffffffff61052516565b90506102fa670de0b6b3a764000061025f836102ee8c8c8c610215565b9063ffffffff61052516565b98975050505050505050565b60035481565b60025481565b60045481565b600080610326858585610215565b9050600454811161036c57610364600254610358670de0b6b3a764000061025f6001548661052590919063ffffffff16565b9063ffffffff61048216565b9150506101b3565b6000610397600254610358670de0b6b3a764000061025f60015460045461052590919063ffffffff16565b905060006103b0600454846104e390919063ffffffff16565b90506103d782610358670de0b6b3a764000061025f6003548661052590919063ffffffff16565b93505050506101b3565b6103f4846220148063ffffffff61057e16565b60025561040d610247622014808363ffffffff61052516565b600155610423826220148063ffffffff61057e16565b60038190556004829055600254600154604080519283526020830191909152818101929092526060810183905290517f6960ab234c7ef4b0c9197100f5393cfcde7c453ac910a27bd2000aa1dd4c068d9181900360800190a150505050565b6000828201838110156104da576040805162461bcd60e51b815260206004820152601b60248201527a536166654d6174683a206164646974696f6e206f766572666c6f7760281b604482015290519081900360640190fd5b90505b92915050565b60006104da83836040518060400160405280601e81526020017f536166654d6174683a207375627472616374696f6e206f766572666c6f7700008152506105bd565b600082610534575060006104dd565b8282028284828161054157fe5b04146104da5760405162461bcd60e51b81526004018080602001828103825260218152602001806106ba6021913960400191505060405180910390fd5b60006104da83836040518060400160405280601a815260200179536166654d6174683a206469766973696f6e206279207a65726f60301b815250610654565b6000818484111561064c5760405162461bcd60e51b81526004018080602001828103825283818151815260200191508051906020019080838360005b838110156106115781810151838201526020016105f9565b50505050905090810190601f16801561063e5780820380516001836020036101000a031916815260200191505b509250505060405180910390fd5b505050900390565b600081836106a35760405162461bcd60e51b81526020600482018181528351602484015283519092839260449091019190850190808383600083156106115781810151838201526020016105f9565b5060008385816106af57fe5b049594505050505056fe536166654d6174683a206d756c7469706c69636174696f6e206f766572666c6f776f6e6c7920746865206f776e6572206d61792063616c6c20746869732066756e6374696f6e2ea264697066735822122027d6c97186e85c5362aa98276aa2af6aa81caa7a2a8ee763cad018c8d1529da864736f6c63430006060033536166654d6174683a206d756c7469706c69636174696f6e206f766572666c6f774f776e61626c653a206e6577206f776e657220697320746865207a65726f2061646472657373a66cc928b5edb82af9bd49922954155ab7b0942694bea4ce44661d9a8736c688536166654d6174683a206d756c7469706c69636174696f6e206f766572666c6f774f776e61626c653a2063616c6c6572206973206e6f7420746865206f776e65728be0079c531659141344cd1fd0a4f28419497f9722a3daafe3b4186f6b6457e0a2646970667358221220d8849111938f4a60acf795a7e7b2dce1dd176e9913c3725cfa3e32cc3e26324164736f6c63430006060033",
  "immutableReferences": {},
  "source": "pragma solidity ^0.6.0;\n\nimport \"@openzeppelin/contracts/access/Ownable.sol\";\nimport \"@openzeppelin/contracts/math/SafeMath.sol\";\nimport \"@openzeppelin/contracts/token/ERC20/IERC20.sol\";\nimport \"./interfaces/WarpVaultSCI.sol\";\nimport \"./interfaces/WarpVaultLPI.sol\";\nimport \"./interfaces/WarpVaultLPFactoryI.sol\";\nimport \"./interfaces/WarpVaultSCFactoryI.sol\";\nimport \"./interfaces/UniswapLPOracleFactoryI.sol\";\nimport \"./compound/JumpRateModelV2.sol\";\nimport \"./compound/Exponential.sol\";\n\n////////////////////////////////////////////////////////////////////////////////////////////\n/// @title WarpControl\n/// @author Christopher Dixon\n////////////////////////////////////////////////////////////////////////////////////////////\n/**\nWarpControl is designed to coordinate Warp Vaults\nThis contract uses the OpenZeppelin contract Library to inherit functions from\n  Ownable.sol\n**/\n\ncontract WarpControl is Ownable, Exponential {\n    using SafeMath for uint256;\n\n    UniswapLPOracleFactoryI public Oracle; //oracle factory contract interface\n    WarpVaultLPFactoryI public WVLPF;\n    WarpVaultSCFactoryI public WVSCF;\n    address public warpTeam;\n\n    address[] public lpVaults;\n    address[] public scVaults;\n    address[] public launchParticipants;\n    address[] public groups;\n\n    mapping(address => address) public instanceLPTracker; //maps LP token address to the assets WarpVault\n    mapping(address => address) public instanceSCTracker;\n    mapping(address => uint256) public lockedLPValue;\n    mapping(address => uint256) nonCompliant;\n    mapping(address => bool) public isVault;\n    mapping(address => address[]) public refferalCodeTracker;\n    mapping(address => mapping(address => uint)) public tvlForUserByGroup;\n    mapping(address => mapping(address => mapping(address => uint))) public lpLockedForUserByGroup;\n    mapping(address => string) public refferalCodeToGroupName;\n    mapping(address => bool) public isParticipant;\n    mapping(address => bool) public existingRefferalCode;\n\n    event NewLPVault(address _newVault);\n    event NewSCVault(address _newVault, address _interestRateModel);\n    event NewBorrow(address _borrower, address _StableCoin, uint _amountBorrowed);\n    event NotCompliant(address _account, uint _time);\n    event Liquidation(address _account, address liquidator);\n    event complianceReset(address _account, uint _time);\n    /**\n      @dev Throws if called by any account other than a warp vault\n     */\n    modifier onlyVault() {\n        require(isVault[msg.sender] == true);\n        _;\n    }\n\n    /**\n    @notice the constructor function is fired during the contract deployment process. The constructor can only be fired once and\n            is used to set up Oracle variables for the MoneyMarketFactory contract.\n    @param _oracle is the address for the UniswapOracleFactorycontract\n    @param _WVLPF is the address for the WarpVaultLPFactory used to produce LP Warp Vaults\n    @param _WVSCF is the address for the WarpVaultSCFactory used to produce Stable Coin Warp Vaults\n    @dev These factories are split into seperate contracts to avoid hitting the block gas limit\n    **/\n    constructor(\n        address _oracle,\n        address _WVLPF,\n        address _WVSCF,\n        address _warpTeam\n    ) public {\n        //instantiate the contracts\n        Oracle = UniswapLPOracleFactoryI(_oracle);\n        WVLPF = WarpVaultLPFactoryI(_WVLPF);\n        WVSCF = WarpVaultSCFactoryI(_WVSCF);\n        warpTeam = _warpTeam;\n    }\n///view functions for front end /////\n    function viewNumLPVaults() external view returns(uint256) {\n        return lpVaults.length;\n    }\n\n    function viewNumSCVaults() external view returns(uint256) {\n        return scVaults.length;\n    }\n\n    function viewLaunchParticipants() public view returns(address[] memory) {\n      return launchParticipants;\n    }\n\n    function viewAllGroups() public view returns(address[] memory) {\n      return groups;\n    }\n\n    function viewAllMembersOfAGroup(address _refferalCode) public view returns(address[] memory) {\n      return refferalCodeTracker[_refferalCode];\n    }\n\n\n    /**\n    @notice createNewLPVault allows the contract owner to create a new WarpVaultLP contract for a specific LP token\n    @param _timelock is a variable representing the number of seconds the timeWizard will prevent withdraws and borrows from a contracts(one week is 605800 seconds)\n    @param _lp is the address for the LP token this Warp Vault will manage\n    @param _lpAsset1 is the address for the first asset in a pair that the LP token represents(ex: wETH in a wETH-wBTC uniswap pair)\n    @param _lpAsset2 is the address for the second asset in a pair that the LP token represents(ex: wBTC in a wETH-wBTC uniswap pair)\n    @param _lpName is the name of the LP token (ex:wETH-wBTC)\n    **/\n    function createNewLPVault(\n        uint256 _timelock,\n        address _lp,\n        address _lpAsset1,\n        address _lpAsset2,\n        string memory _lpName\n    ) public onlyOwner {\n        //create new oracles for this LP\n        Oracle.createNewOracles(_lpAsset1, _lpAsset2, _lp);\n        //create new Warp LP Vault\n        address _WarpVault = WVLPF.createWarpVaultLP(_timelock, _lp, _lpName);\n        //track the warp vault lp instance by the address of the LP it represents\n        instanceLPTracker[_lp] = _WarpVault;\n        //add new LP Vault to the array of all LP vaults\n        lpVaults.push(_WarpVault);\n        //set Warp vault address as an approved vault\n        isVault[_WarpVault] = true;\n        emit NewLPVault(_WarpVault);\n    }\n\n    /**\n    @notice createNewSCVault allows the contract owner to create a new WarpVaultLP contract for a specific LP token\n    @param _timelock is a variable representing the number of seconds the timeWizard will prevent withdraws and borrows from a contracts(one week is 605800 seconds)\n    @param _baseRatePerYear is the base rate per year(approx target base APR)\n    @param _multiplierPerYear is the multiplier per year(rate of increase in interest w/ utilizastion)\n    @param _jumpMultiplierPerYear is the Jump Multiplier Per Year(the multiplier per block after hitting a specific utilizastion point)\n    @param _optimal is the this is the utilizastion point or \"kink\" at which the jump multiplier is applied\n    @param _initialExchangeRate is the intitial exchange rate(the rate at which the initial exchange of asset/ART is set)\n    @param _StableCoin is the address of the StableCoin this Warp Vault will manage\n    **/\n    function createNewSCVault(\n        uint256 _timelock,\n        uint256 _baseRatePerYear,\n        uint256 _multiplierPerYear,\n        uint256 _jumpMultiplierPerYear,\n        uint256 _optimal,\n        uint256 _initialExchangeRate,\n        address _StableCoin\n    ) public onlyOwner {\n        //create the interest rate model for this stablecoin\n        address IR = address(\n            new JumpRateModelV2(\n                _baseRatePerYear,\n                _multiplierPerYear,\n                _jumpMultiplierPerYear,\n                _optimal,\n                address(this)\n            )\n        );\n        //create the SC Warp vault\n        address _WarpVault = WVSCF.createNewWarpVaultSC(\n            IR,\n            _StableCoin,\n            warpTeam,\n            _initialExchangeRate,\n            _timelock\n        );\n        //track the warp vault sc instance by the address of the stablecoin it represents\n        instanceSCTracker[_StableCoin] = _WarpVault;\n        //add new SC Vault to the array of all SC vaults\n        scVaults.push(_WarpVault);\n        //set Warp vault address as an approved vault\n        isVault[_WarpVault] = true;\n        emit NewSCVault(_WarpVault, IR);\n    }\n\n\n    function createGroup(string memory _groupName) public {\n        refferalCodeTracker[msg.sender].push(msg.sender);\n          existingRefferalCode[msg.sender] = true;\n          refferalCodeToGroupName[msg.sender] = _groupName;\n          groups.push(msg.sender);\n    }\n\n    function addMemberToGroupSC(address _refferalCode, address _member, uint _amount) public onlyVault {\n      //add member to the member array for the input referal code\n      refferalCodeTracker[_refferalCode].push(_member);\n      tvlForUserByGroup[_member][_refferalCode] = tvlForUserByGroup[msg.sender][_refferalCode].add(_amount);\n      //add the mebers address to the total participants member array\n      if(isParticipant[_member] == false) {\n        launchParticipants.push(_member);\n        isParticipant[_member] == true;\n      }\n    }\n\n    function addMemberToGroupLP(address _refferalCode, address _member, address _lp, uint _amount) public onlyVault {\n      //add member to the member array for the input referal code\n      refferalCodeTracker[_refferalCode].push(_member);\n      lpLockedForUserByGroup[msg.sender][_refferalCode][_lp] = lpLockedForUserByGroup[msg.sender][_refferalCode][_lp].add(_amount);\n      //add the mebers address to the total participants member array\n      if(isParticipant[msg.sender] == false) {\n        launchParticipants.push(_member);\n        isParticipant[msg.sender] == true;\n      }\n    }\n\n\n\n    /**\n    @notice Figures out how much of a given LP token an account is allowed to withdraw\n     */\n    function getMaxWithdrawAllowed(address account, address lpToken) public returns (uint256) {\n      //gets how much a user has borrowed against in USDC\n        uint256 borrowedTotal = getTotalBorrowedValue(account);\n      //gets the total USDC value of a users availible collateral\n        uint256 collateralValue = getTotalAvailableCollateralValue(account);\n      //determines usable collateral value\n        uint256 usableCollateral = collateralValue.sub(borrowedTotal);\n      //get current price of one LP token\n        uint256 lpValue = Oracle.getUnderlyingPrice(lpToken);\n      //return one lp value multiplied by their usable collateral for total LPs that are usable(or can be withdrawn)\n        return usableCollateral.mul(lpValue);\n    }\n\n    function viewMaxWithdrawAllowed(address account, address lpToken) public view returns (uint256) {\n        uint256 borrowedTotal = viewTotalBorrowedValue(account);\n        uint256 collateralValue = viewTotalAvailableCollateralValue(account);\n        uint256 usableCollateral = collateralValue.sub(borrowedTotal);\n        uint256 lpValue = Oracle.viewUnderlyingPrice(lpToken);\n        return usableCollateral.mul(lpValue);\n    }\n\n    function getTotalAvailableCollateralValue(address _account)\n        public\n        returns (uint256)\n    {\n        //get the number of LP vaults the platform has\n        uint256 numVaults = lpVaults.length;\n        //initialize the totalCollateral variable to zero\n        uint256 totalCollateral = 0;\n        //loop through each lp wapr vault\n        for (uint256 i = 0; i < numVaults; ++i) {\n            //instantiate warp vault at that position\n            WarpVaultLPI vault = WarpVaultLPI(lpVaults[i]);\n            //retreive the address of its asset\n            address asset = vault.getAssetAdd();\n            //retrieve USD price of this asset\n            uint256 assetPrice = Oracle.getUnderlyingPrice(asset);\n\n            uint256 accountCollateral = vault.collateralOfAccount(_account);\n            //emit DebugValues(accountCollateral, assetPrice);\n\n            //multiply the amount of collateral by the asset price and return it\n            uint256 accountAssetsValue = accountCollateral.mul(assetPrice);\n            //add value to total collateral\n            totalCollateral = totalCollateral.add(accountAssetsValue);\n        }\n        //return total USDC value of all collateral\n        return totalCollateral.div(1e18);\n    }\n\n    function viewTotalAvailableCollateralValue(address _account)\n        public\n        view\n        returns (uint256)\n    {\n        uint256 numVaults = lpVaults.length;\n        uint256 totalCollateral = 0;\n        //loop through each lp wapr vault\n        for (uint256 i = 0; i < numVaults; ++i) {\n            //instantiate warp vault at that position\n            WarpVaultLPI vault = WarpVaultLPI(lpVaults[i]);\n            //retreive the address of its asset\n            address asset = vault.getAssetAdd();\n            //retrieve USD price of this asset\n            uint256 assetPrice = Oracle.viewUnderlyingPrice(asset);\n\n            uint256 accountCollateral = vault.collateralOfAccount(_account);\n\n            //multiply the amount of collateral by the asset price and return it\n            uint256 accountAssetsValue = accountCollateral.mul(assetPrice);\n            //add value to total collateral\n            totalCollateral = totalCollateral.add(accountAssetsValue);\n        }\n        //return total USDC value of all collateral\n        return totalCollateral.div(1e18);\n    }\n\n    function viewPriceOfCollateral(address lpToken) public view returns(uint256)\n    {\n        return Oracle.viewUnderlyingPrice(lpToken);\n    }\n\n    function viewPriceOfToken(address token) public view returns(uint256)\n    {\n        return Oracle.viewPriceOfToken(token);\n    }\n\n    function viewTotalBorrowedValue(address _account) public view returns (uint256) {\n        uint256 numSCVaults = scVaults.length;\n        //initialize the totalBorrowedValue variable to zero\n        uint256 totalBorrowedValue = 0;\n        //loop through all stable coin vaults\n        for (uint256 i = 0; i < numSCVaults; ++i) {\n            //instantiate each LP warp vault\n            WarpVaultSCI WVSC = WarpVaultSCI(scVaults[i]);\n            //retreive the amount user has borrowed from each stablecoin vault\n            totalBorrowedValue = totalBorrowedValue.add(\n                WVSC.borrowBalancePrior(_account)\n            );\n        }\n        //return total Borrowed Value\n        return totalBorrowedValue;\n    }\n\n    function getTotalBorrowedValue(address _account) public returns (uint256) {\n        uint256 numSCVaults = scVaults.length;\n        //initialize the totalBorrowedValue variable to zero\n        uint256 totalBorrowedValue = 0;\n        //loop through all stable coin vaults\n        for (uint256 i = 0; i < numSCVaults; ++i) {\n            //instantiate each LP warp vault\n            WarpVaultSCI WVSC = WarpVaultSCI(scVaults[i]);\n            //retreive the amount user has borrowed from each stablecoin vault\n            totalBorrowedValue = totalBorrowedValue.add(\n                WVSC.borrowBalanceCurrent(_account)\n            );\n        }\n        //return total Borrowed Value\n        return totalBorrowedValue;\n    }\n\n    /**\n    @notice calcBorrowLimit is used to calculate the borrow limit for an account based on the input value of their collateral\n    @param _collateralValue is the USDC value of the users collateral\n    @dev this function divides the input value by 3 and then adds that value to itself so it can return 2/3rds of the availible collateral\n        as the borrow limit. If a usser has $150 USDC value in collateral this function will return $100 USDC as their borrow limit.\n    **/\n    function calcBorrowLimit(uint256 _collateralValue)\n        public\n        pure\n        returns (uint256)\n    {\n        //divide the collaterals value by 3 to get 1/3rd of its value\n        uint256 thirdCollatVal = _collateralValue.div(3);\n        //add this 1/3rd value to itself to get 2/3rds of the original value\n        return thirdCollatVal.add(thirdCollatVal);\n    }\n\n    function calcCollateralRequired(uint256 _borrowAmount) public view returns (uint256) {\n        uint256 oneUSDC = Oracle.OneUSDC();\n        uint256 factor = oneUSDC.div(calcBorrowLimit(oneUSDC));\n        return _borrowAmount.mul(factor);\n    }\n\n    function getBorrowLimit(address _account) public returns (uint256) {\n        uint256 availibleCollateralValue = getTotalAvailableCollateralValue(\n            _account\n        );\n\n        return calcBorrowLimit(availibleCollateralValue);\n    }\n\n    function viewBorrowLimit(address _account) public view returns (uint256) {\n        uint256 availibleCollateralValue = viewTotalAvailableCollateralValue(\n            _account\n        );\n        //return the users borrow limit\n        return calcBorrowLimit(availibleCollateralValue);\n    }\n\n    /**\n@notice borrowSC is the function an end user will call when they wish to borrow a stablecoin from the warp platform\n@param _StableCoin is the address of the stablecoin the user wishes to borrow\n@param _amount is the amount of that stablecoin the user wants to borrow\n**/\n    function borrowSC(address _StableCoin, uint256 _amount) public {\n        uint256 borrowedTotal = getTotalBorrowedValue(msg.sender);\n        uint256 availibleCollateralValue = getBorrowLimit(msg.sender);\n        //calculate USDC amount of what the user is allowed to borrow\n        uint256 borrowAmountAllowed = availibleCollateralValue.sub(\n            borrowedTotal\n        );\n        //require the amount being borrowed is less than or equal to the amount they are aloud to borrow\n        require(borrowAmountAllowed >= _amount, \"Borrowing more than allowed\");\n        //track USDC value of locked LP\n        lockedLPValue[msg.sender] = lockedLPValue[msg.sender].add(_amount);\n        //retreive stablecoin vault address being borrowed from and instantiate it\n        WarpVaultSCI WV = WarpVaultSCI(instanceSCTracker[_StableCoin]);\n        //call _borrow function on the stablecoin warp vault\n        WV._borrow(_amount, msg.sender);\n        emit NewBorrow(msg.sender, _StableCoin, _amount);\n    }\n\n    /**\n      @notice markAccountNonCompliant is used by a potential liquidator to mark an account as non compliant which starts its 30 minute timer\n      @param _borrower is the address of the non compliant borrower\n      **/\n    function markAccountNonCompliant(address _borrower) public {\n      //retreive the number of LP vaults in the warp platform\n        uint256 numSCVaults = scVaults.length;\n        //initialize the borrowedAmount variable\n        uint256 borrowedAmount = 0;\n        //initialize the stable coin balances array\n        uint256[] memory scBalances = new uint256[](numSCVaults);\n        for (uint256 i = 0; i < numSCVaults; ++i) {\n            //instantiate the vault at the current  position in the array\n            WarpVaultSCI scVault = WarpVaultSCI(scVaults[i]);\n            //retreive the borrowers borrow balance from this vault and add it to the scBalances array\n            scBalances[i] = scVault.borrowBalanceCurrent(_borrower);\n            //add the borrowed amount to the total borrowed balance\n            borrowedAmount = borrowedAmount.add(scBalances[i]);\n        }\n        //retreve the USDC borrow limit for the borrower\n        uint256 borrowLimit = getBorrowLimit(_borrower);\n        //check if the borrow is less than the borrowed amount\n        if (borrowLimit <= borrowedAmount) {\n          //require the borrower isnt already non compliant\n        require(nonCompliant[_borrower] == 0);\n        //record the time of non compliance\n        nonCompliant[_borrower] = now;\n        emit NotCompliant(_borrower, now);\n      }\n    }\n\n    /**\n@notice liquidateAccount is used to liquidate a non-compliant loan after it has reached its 30 minute grace period\n@param _borrower is the address of the borrower whos loan is non-compliant\n**/\n    function liquidateAccount(address _borrower) public {\n        //require the liquidator is not also the borrower\n        require(msg.sender != _borrower);\n        //require is has been a half hour since the loan was first seen to be non-compliant\n        require(now >= nonCompliant[_borrower].add(1800));\n        //retreive the number of stablecoin vaults in the warp platform\n        uint256 numSCVaults = scVaults.length;\n        //retreive the number of LP vaults in the warp platform\n        uint256 numLPVaults = lpVaults.length;\n        //initialize the borrowedAmount variable\n        uint256 borrowedAmount = 0;\n        //initialize the stable coin balances array\n        uint256[] memory scBalances = new uint256[](numSCVaults);\n        // loop through and retreive the Borrowed Amount From All Vaults\n        for (uint256 i = 0; i < numSCVaults; ++i) {\n            //instantiate the vault at the current  position in the array\n            WarpVaultSCI scVault = WarpVaultSCI(scVaults[i]);\n            //retreive the borrowers borrow balance from this vault and add it to the scBalances array\n            scBalances[i] = scVault.borrowBalanceCurrent(_borrower);\n            //add the borrowed amount to the total borrowed balance\n            borrowedAmount = borrowedAmount.add(scBalances[i]);\n        }\n        //retreve the USDC borrow limit for the borrower\n        uint256 borrowLimit = getBorrowLimit(_borrower);\n        //check if the borrow is less than the borrowed amount\n        if (borrowLimit <= borrowedAmount) {\n            // If it is Liquidate the account\n            //loop through each SC vault so the  Liquidator can pay off Stable Coin loans\n            for (uint256 i = 0; i < numSCVaults; ++i) {\n                //instantiate the Warp SC Vault at the current position\n                WarpVaultSCI scVault = WarpVaultSCI(scVaults[i]);\n                //call repayLiquidatedLoan function to repay the loan\n                scVault._repayLiquidatedLoan(\n                    _borrower,\n                    msg.sender,\n                    scBalances[i]\n                );\n            }\n            //loop through each LP vault so the Liquidator gets the LP tokens the borrower had\n            for (uint256 i = 0; i < numLPVaults; ++i) {\n                //instantiate the Wapr LP Vault at the current position\n                WarpVaultLPI lpVault = WarpVaultLPI(lpVaults[i]);\n                //call liquidateAccount function on that LP vault\n                lpVault._liquidateAccount(_borrower, msg.sender);\n                emit Liquidation(_borrower, msg.sender);\n            }\n        }\n        //no matter what the compliance tracker for the borrowers account is reset\n        nonCompliant[_borrower] = 0;\n        emit complianceReset(_borrower, now);\n    }\n}\n",
  "sourcePath": "/home/stan36/repos/Warp/Smart-Contracts/contracts/WarpControl.sol",
  "compiler": {
    "name": "solc",
    "version": "0.6.6+commit.6c089d02.Emscripten.clang"
  },
  "schemaVersion": "3.3.2",
  "updatedAt": "2020-11-27T23:06:14.518Z",
  "devdoc": {
    "methods": {
      "borrowSC(address,uint256)": {
        "params": {
          "_StableCoin": "is the address of the stablecoin the user wishes to borrow",
          "_amount": "is the amount of that stablecoin the user wants to borrow*"
        }
      },
      "calcBorrowLimit(uint256)": {
        "details": "this function divides the input value by 3 and then adds that value to itself so it can return 2/3rds of the availible collateral as the borrow limit. If a usser has $150 USDC value in collateral this function will return $100 USDC as their borrow limit.*",
        "params": {
          "_collateralValue": "is the USDC value of the users collateral"
        }
      },
      "constructor": {
        "details": "These factories are split into seperate contracts to avoid hitting the block gas limit*",
        "params": {
          "_WVLPF": "is the address for the WarpVaultLPFactory used to produce LP Warp Vaults",
          "_WVSCF": "is the address for the WarpVaultSCFactory used to produce Stable Coin Warp Vaults",
          "_oracle": "is the address for the UniswapOracleFactorycontract"
        }
      },
      "createNewLPVault(uint256,address,address,address,string)": {
        "params": {
          "_lp": "is the address for the LP token this Warp Vault will manage",
          "_lpAsset1": "is the address for the first asset in a pair that the LP token represents(ex: wETH in a wETH-wBTC uniswap pair)",
          "_lpAsset2": "is the address for the second asset in a pair that the LP token represents(ex: wBTC in a wETH-wBTC uniswap pair)",
          "_lpName": "is the name of the LP token (ex:wETH-wBTC)*",
          "_timelock": "is a variable representing the number of seconds the timeWizard will prevent withdraws and borrows from a contracts(one week is 605800 seconds)"
        }
      },
      "createNewSCVault(uint256,uint256,uint256,uint256,uint256,uint256,address)": {
        "params": {
          "_StableCoin": "is the address of the StableCoin this Warp Vault will manage*",
          "_baseRatePerYear": "is the base rate per year(approx target base APR)",
          "_initialExchangeRate": "is the intitial exchange rate(the rate at which the initial exchange of asset/ART is set)",
          "_jumpMultiplierPerYear": "is the Jump Multiplier Per Year(the multiplier per block after hitting a specific utilizastion point)",
          "_multiplierPerYear": "is the multiplier per year(rate of increase in interest w/ utilizastion)",
          "_optimal": "is the this is the utilizastion point or \"kink\" at which the jump multiplier is applied",
          "_timelock": "is a variable representing the number of seconds the timeWizard will prevent withdraws and borrows from a contracts(one week is 605800 seconds)"
        }
      },
      "liquidateAccount(address)": {
        "params": {
          "_borrower": "is the address of the borrower whos loan is non-compliant*"
        }
      },
      "markAccountNonCompliant(address)": {
        "params": {
          "_borrower": "is the address of the non compliant borrower*"
        }
      },
      "owner()": {
        "details": "Returns the address of the current owner."
      },
      "renounceOwnership()": {
        "details": "Leaves the contract without owner. It will not be possible to call `onlyOwner` functions anymore. Can only be called by the current owner.     * NOTE: Renouncing ownership will leave the contract without an owner, thereby removing any functionality that is only available to the owner."
      },
      "transferOwnership(address)": {
        "details": "Transfers ownership of the contract to a new account (`newOwner`). Can only be called by the current owner."
      }
    }
  },
  "userdoc": {
    "methods": {
      "borrowSC(address,uint256)": {
        "notice": "borrowSC is the function an end user will call when they wish to borrow a stablecoin from the warp platform"
      },
      "calcBorrowLimit(uint256)": {
        "notice": "calcBorrowLimit is used to calculate the borrow limit for an account based on the input value of their collateral"
      },
      "constructor": "the constructor function is fired during the contract deployment process. The constructor can only be fired once and is used to set up Oracle variables for the MoneyMarketFactory contract.",
      "createNewLPVault(uint256,address,address,address,string)": {
        "notice": "createNewLPVault allows the contract owner to create a new WarpVaultLP contract for a specific LP token"
      },
      "createNewSCVault(uint256,uint256,uint256,uint256,uint256,uint256,address)": {
        "notice": "createNewSCVault allows the contract owner to create a new WarpVaultLP contract for a specific LP token"
      },
      "getMaxWithdrawAllowed(address,address)": {
        "notice": "Figures out how much of a given LP token an account is allowed to withdraw"
      },
      "liquidateAccount(address)": {
        "notice": "liquidateAccount is used to liquidate a non-compliant loan after it has reached its 30 minute grace period"
      },
      "markAccountNonCompliant(address)": {
        "notice": "markAccountNonCompliant is used by a potential liquidator to mark an account as non compliant which starts its 30 minute timer"
      },
      "viewNumLPVaults()": {
        "notice": "view functions for front end /////"
      }
    },
    "notice": "WarpControl is designed to coordinate Warp Vaults This contract uses the OpenZeppelin contract Library to inherit functions from Ownable.sol*"
  }
}