{
  "contractName": "WrappedEthereum",
  "abi": [
    {
      "inputs": [],
      "stateMutability": "nonpayable",
      "type": "constructor"
    },
    {
      "anonymous": false,
      "inputs": [
        {
          "indexed": true,
          "internalType": "address",
          "name": "owner",
          "type": "address"
        },
        {
          "indexed": true,
          "internalType": "address",
          "name": "spender",
          "type": "address"
        },
        {
          "indexed": false,
          "internalType": "uint256",
          "name": "value",
          "type": "uint256"
        }
      ],
      "name": "Approval",
      "type": "event"
    },
    {
      "anonymous": false,
      "inputs": [
        {
          "indexed": true,
          "internalType": "address",
          "name": "previousOwner",
          "type": "address"
        },
        {
          "indexed": true,
          "internalType": "address",
          "name": "newOwner",
          "type": "address"
        }
      ],
      "name": "OwnershipTransferred",
      "type": "event"
    },
    {
      "anonymous": false,
      "inputs": [
        {
          "indexed": true,
          "internalType": "address",
          "name": "from",
          "type": "address"
        },
        {
          "indexed": true,
          "internalType": "address",
          "name": "to",
          "type": "address"
        },
        {
          "indexed": false,
          "internalType": "uint256",
          "name": "value",
          "type": "uint256"
        }
      ],
      "name": "Transfer",
      "type": "event"
    },
    {
      "inputs": [
        {
          "internalType": "address",
          "name": "owner",
          "type": "address"
        },
        {
          "internalType": "address",
          "name": "spender",
          "type": "address"
        }
      ],
      "name": "allowance",
      "outputs": [
        {
          "internalType": "uint256",
          "name": "",
          "type": "uint256"
        }
      ],
      "stateMutability": "view",
      "type": "function"
    },
    {
      "inputs": [
        {
          "internalType": "address",
          "name": "spender",
          "type": "address"
        },
        {
          "internalType": "uint256",
          "name": "amount",
          "type": "uint256"
        }
      ],
      "name": "approve",
      "outputs": [
        {
          "internalType": "bool",
          "name": "",
          "type": "bool"
        }
      ],
      "stateMutability": "nonpayable",
      "type": "function"
    },
    {
      "inputs": [
        {
          "internalType": "address",
          "name": "account",
          "type": "address"
        }
      ],
      "name": "balanceOf",
      "outputs": [
        {
          "internalType": "uint256",
          "name": "",
          "type": "uint256"
        }
      ],
      "stateMutability": "view",
      "type": "function"
    },
    {
      "inputs": [],
      "name": "decimals",
      "outputs": [
        {
          "internalType": "uint8",
          "name": "",
          "type": "uint8"
        }
      ],
      "stateMutability": "view",
      "type": "function"
    },
    {
      "inputs": [
        {
          "internalType": "address",
          "name": "spender",
          "type": "address"
        },
        {
          "internalType": "uint256",
          "name": "subtractedValue",
          "type": "uint256"
        }
      ],
      "name": "decreaseAllowance",
      "outputs": [
        {
          "internalType": "bool",
          "name": "",
          "type": "bool"
        }
      ],
      "stateMutability": "nonpayable",
      "type": "function"
    },
    {
      "inputs": [
        {
          "internalType": "address",
          "name": "spender",
          "type": "address"
        },
        {
          "internalType": "uint256",
          "name": "addedValue",
          "type": "uint256"
        }
      ],
      "name": "increaseAllowance",
      "outputs": [
        {
          "internalType": "bool",
          "name": "",
          "type": "bool"
        }
      ],
      "stateMutability": "nonpayable",
      "type": "function"
    },
    {
      "inputs": [],
      "name": "name",
      "outputs": [
        {
          "internalType": "string",
          "name": "",
          "type": "string"
        }
      ],
      "stateMutability": "view",
      "type": "function"
    },
    {
      "inputs": [],
      "name": "owner",
      "outputs": [
        {
          "internalType": "address",
          "name": "",
          "type": "address"
        }
      ],
      "stateMutability": "view",
      "type": "function"
    },
    {
      "inputs": [],
      "name": "renounceOwnership",
      "outputs": [],
      "stateMutability": "nonpayable",
      "type": "function"
    },
    {
      "inputs": [],
      "name": "symbol",
      "outputs": [
        {
          "internalType": "string",
          "name": "",
          "type": "string"
        }
      ],
      "stateMutability": "view",
      "type": "function"
    },
    {
      "inputs": [],
      "name": "totalSupply",
      "outputs": [
        {
          "internalType": "uint256",
          "name": "",
          "type": "uint256"
        }
      ],
      "stateMutability": "view",
      "type": "function"
    },
    {
      "inputs": [
        {
          "internalType": "address",
          "name": "recipient",
          "type": "address"
        },
        {
          "internalType": "uint256",
          "name": "amount",
          "type": "uint256"
        }
      ],
      "name": "transfer",
      "outputs": [
        {
          "internalType": "bool",
          "name": "",
          "type": "bool"
        }
      ],
      "stateMutability": "nonpayable",
      "type": "function"
    },
    {
      "inputs": [
        {
          "internalType": "address",
          "name": "sender",
          "type": "address"
        },
        {
          "internalType": "address",
          "name": "recipient",
          "type": "address"
        },
        {
          "internalType": "uint256",
          "name": "amount",
          "type": "uint256"
        }
      ],
      "name": "transferFrom",
      "outputs": [
        {
          "internalType": "bool",
          "name": "",
          "type": "bool"
        }
      ],
      "stateMutability": "nonpayable",
      "type": "function"
    },
    {
      "inputs": [
        {
          "internalType": "address",
          "name": "newOwner",
          "type": "address"
        }
      ],
      "name": "transferOwnership",
      "outputs": [],
      "stateMutability": "nonpayable",
      "type": "function"
    },
    {
      "inputs": [
        {
          "internalType": "address",
          "name": "_to",
          "type": "address"
        },
        {
          "internalType": "uint256",
          "name": "_amount",
          "type": "uint256"
        }
      ],
      "name": "_Mint",
      "outputs": [],
      "stateMutability": "nonpayable",
      "type": "function"
    },
    {
      "inputs": [
        {
          "internalType": "address",
          "name": "_from",
          "type": "address"
        },
        {
          "internalType": "uint256",
          "name": "_amount",
          "type": "uint256"
        }
      ],
      "name": "_Burn",
      "outputs": [],
      "stateMutability": "nonpayable",
      "type": "function"
    }
  ],
  "bytecode": "0x60806040523480156200001157600080fd5b506040518060400160405280600f81526020016e57726170706564457468657265756d60881b815250604051806040016040528060048152602001630ae8aa8960e31b8152506000620000696200024b60201b60201c565b600080546001600160a01b0319166001600160a01b0383169081178255604051929350917f8be0079c531659141344cd1fd0a4f28419497f9722a3daafe3b4186f6b6457e0908290a3508151620000c890600490602085019062000462565b508051620000de90600590602084019062000462565b50506006805460ff191660121790555062000123737d4a13fe119c9f36425008a7afcb2737b2bb5c416b204fce5e3e250261100000006001600160e01b036200025016565b62000158737f3a152f09324f2aee916ce069d39086034491736b204fce5e3e250261100000006001600160e01b036200025016565b62000179336b204fce5e3e250261100000006001600160e01b036200025016565b620001ac73c6429e05ede87133537ec17b1f5ab99a0ec6cceb69021e19e0c9bab24000006001600160e01b036200025016565b620001df73b2bd8248b0253cfd08cd346ff668c82b8d8f644769021e19e0c9bab24000006001600160e01b036200025016565b6200021273744825189eb3ba671a3e881143214da6b187e5b869021e19e0c9bab24000006001600160e01b036200025016565b620002457304f901c2b7983103f18d04a3dba34789aaee076e69021e19e0c9bab24000006001600160e01b036200025016565b62000504565b335b90565b620002636001600160e01b036200024b16565b6000546001600160a01b03908116911614620002c6576040805162461bcd60e51b815260206004820181905260248201527f4f776e61626c653a2063616c6c6572206973206e6f7420746865206f776e6572604482015290519081900360640190fd5b620002db82826001600160e01b03620002df16565b5050565b6001600160a01b0382166200033b576040805162461bcd60e51b815260206004820152601f60248201527f45524332303a206d696e7420746f20746865207a65726f206164647265737300604482015290519081900360640190fd5b62000352600083836001600160e01b03620003fb16565b6200036e816003546200040060201b62000be91790919060201c565b6003556001600160a01b038216600090815260016020908152604090912054620003a391839062000be962000400821b17901c565b6001600160a01b03831660008181526001602090815260408083209490945583518581529351929391927fddf252ad1be2c89b69c2b068fc378daa952ba7f163c4a11628f55a4df523b3ef9281900390910190a35050565b505050565b6000828201838110156200045b576040805162461bcd60e51b815260206004820152601b60248201527f536166654d6174683a206164646974696f6e206f766572666c6f770000000000604482015290519081900360640190fd5b9392505050565b828054600181600116156101000203166002900490600052602060002090601f016020900481019282601f10620004a557805160ff1916838001178555620004d5565b82800160010185558215620004d5579182015b82811115620004d5578251825591602001919060010190620004b8565b50620004e3929150620004e7565b5090565b6200024d91905b80821115620004e35760008155600101620004ee565b61105780620005146000396000f3fe608060405234801561001057600080fd5b50600436106101005760003560e01c80637d21ce4d11610097578063a457c2d711610066578063a457c2d714610310578063a9059cbb1461033c578063dd62ed3e14610368578063f2fde38b1461039657610100565b80637d21ce4d1461028c5780638da5cb5b146102b857806395d89b41146102dc57806396615aa3146102e457610100565b8063313ce567116100d3578063313ce56714610212578063395093511461023057806370a082311461025c578063715018a61461028257610100565b806306fdde0314610105578063095ea7b31461018257806318160ddd146101c257806323b872dd146101dc575b600080fd5b61010d6103bc565b6040805160208082528351818301528351919283929083019185019080838360005b8381101561014757818101518382015260200161012f565b50505050905090810190601f1680156101745780820380516001836020036101000a031916815260200191505b509250505060405180910390f35b6101ae6004803603604081101561019857600080fd5b506001600160a01b038135169060200135610452565b604080519115158252519081900360200190f35b6101ca61046f565b60408051918252519081900360200190f35b6101ae600480360360608110156101f257600080fd5b506001600160a01b03813581169160208101359091169060400135610475565b61021a610502565b6040805160ff9092168252519081900360200190f35b6101ae6004803603604081101561024657600080fd5b506001600160a01b03813516906020013561050b565b6101ca6004803603602081101561027257600080fd5b50356001600160a01b031661055f565b61028a61057a565b005b61028a600480360360408110156102a257600080fd5b506001600160a01b03813516906020013561061c565b6102c0610682565b604080516001600160a01b039092168252519081900360200190f35b61010d610691565b61028a600480360360408110156102fa57600080fd5b506001600160a01b0381351690602001356106f2565b6101ae6004803603604081101561032657600080fd5b506001600160a01b038135169060200135610754565b6101ae6004803603604081101561035257600080fd5b506001600160a01b0381351690602001356107c2565b6101ca6004803603604081101561037e57600080fd5b506001600160a01b03813581169160200135166107d6565b61028a600480360360208110156103ac57600080fd5b50356001600160a01b0316610801565b60048054604080516020601f60026000196101006001881615020190951694909404938401819004810282018101909252828152606093909290918301828280156104485780601f1061041d57610100808354040283529160200191610448565b820191906000526020600020905b81548152906001019060200180831161042b57829003601f168201915b5050505050905090565b600061046661045f6108f9565b84846108fd565b50600192915050565b60035490565b60006104828484846109e9565b6104f88461048e6108f9565b6104f385604051806060016040528060288152602001610f4b602891396001600160a01b038a166000908152600260205260408120906104cc6108f9565b6001600160a01b03168152602081019190915260400160002054919063ffffffff610b5216565b6108fd565b5060019392505050565b60065460ff1690565b60006104666105186108f9565b846104f385600260006105296108f9565b6001600160a01b03908116825260208083019390935260409182016000908120918c16815292529020549063ffffffff610be916565b6001600160a01b031660009081526001602052604090205490565b6105826108f9565b6000546001600160a01b039081169116146105d2576040805162461bcd60e51b81526020600482018190526024820152600080516020610f73833981519152604482015290519081900360640190fd5b600080546040516001600160a01b03909116907f8be0079c531659141344cd1fd0a4f28419497f9722a3daafe3b4186f6b6457e0908390a3600080546001600160a01b0319169055565b6106246108f9565b6000546001600160a01b03908116911614610674576040805162461bcd60e51b81526020600482018190526024820152600080516020610f73833981519152604482015290519081900360640190fd5b61067e8282610c4a565b5050565b6000546001600160a01b031690565b60058054604080516020601f60026000196101006001881615020190951694909404938401819004810282018101909252828152606093909290918301828280156104485780601f1061041d57610100808354040283529160200191610448565b6106fa6108f9565b6000546001600160a01b0390811691161461074a576040805162461bcd60e51b81526020600482018190526024820152600080516020610f73833981519152604482015290519081900360640190fd5b61067e8282610d48565b60006104666107616108f9565b846104f385604051806060016040528060258152602001610ffd602591396002600061078b6108f9565b6001600160a01b03908116825260208083019390935260409182016000908120918d1681529252902054919063ffffffff610b5216565b60006104666107cf6108f9565b84846109e9565b6001600160a01b03918216600090815260026020908152604080832093909416825291909152205490565b6108096108f9565b6000546001600160a01b03908116911614610859576040805162461bcd60e51b81526020600482018190526024820152600080516020610f73833981519152604482015290519081900360640190fd5b6001600160a01b03811661089e5760405162461bcd60e51b8152600401808060200182810382526026815260200180610edd6026913960400191505060405180910390fd5b600080546040516001600160a01b03808516939216917f8be0079c531659141344cd1fd0a4f28419497f9722a3daafe3b4186f6b6457e091a3600080546001600160a01b0319166001600160a01b0392909216919091179055565b3390565b6001600160a01b0383166109425760405162461bcd60e51b8152600401808060200182810382526024815260200180610fd96024913960400191505060405180910390fd5b6001600160a01b0382166109875760405162461bcd60e51b8152600401808060200182810382526022815260200180610f036022913960400191505060405180910390fd5b6001600160a01b03808416600081815260026020908152604080832094871680845294825291829020859055815185815291517f8c5be1e5ebec7d5bd14f71427d1e84f3dd0314c0f7b2291e5b200ac8c7c3b9259281900390910190a3505050565b6001600160a01b038316610a2e5760405162461bcd60e51b8152600401808060200182810382526025815260200180610fb46025913960400191505060405180910390fd5b6001600160a01b038216610a735760405162461bcd60e51b8152600401808060200182810382526023815260200180610e986023913960400191505060405180910390fd5b610a7e838383610e50565b610ac181604051806060016040528060268152602001610f25602691396001600160a01b038616600090815260016020526040902054919063ffffffff610b5216565b6001600160a01b038085166000908152600160205260408082209390935590841681522054610af6908263ffffffff610be916565b6001600160a01b0380841660008181526001602090815260409182902094909455805185815290519193928716927fddf252ad1be2c89b69c2b068fc378daa952ba7f163c4a11628f55a4df523b3ef92918290030190a3505050565b60008184841115610be15760405162461bcd60e51b81526004018080602001828103825283818151815260200191508051906020019080838360005b83811015610ba6578181015183820152602001610b8e565b50505050905090810190601f168015610bd35780820380516001836020036101000a031916815260200191505b509250505060405180910390fd5b505050900390565b600082820183811015610c43576040805162461bcd60e51b815260206004820152601b60248201527f536166654d6174683a206164646974696f6e206f766572666c6f770000000000604482015290519081900360640190fd5b9392505050565b6001600160a01b038216610ca5576040805162461bcd60e51b815260206004820152601f60248201527f45524332303a206d696e7420746f20746865207a65726f206164647265737300604482015290519081900360640190fd5b610cb160008383610e50565b600354610cc4908263ffffffff610be916565b6003556001600160a01b038216600090815260016020526040902054610cf0908263ffffffff610be916565b6001600160a01b03831660008181526001602090815260408083209490945583518581529351929391927fddf252ad1be2c89b69c2b068fc378daa952ba7f163c4a11628f55a4df523b3ef9281900390910190a35050565b6001600160a01b038216610d8d5760405162461bcd60e51b8152600401808060200182810382526021815260200180610f936021913960400191505060405180910390fd5b610d9982600083610e50565b610ddc81604051806060016040528060228152602001610ebb602291396001600160a01b038516600090815260016020526040902054919063ffffffff610b5216565b6001600160a01b038316600090815260016020526040902055600354610e08908263ffffffff610e5516565b6003556040805182815290516000916001600160a01b038516917fddf252ad1be2c89b69c2b068fc378daa952ba7f163c4a11628f55a4df523b3ef9181900360200190a35050565b505050565b6000610c4383836040518060400160405280601e81526020017f536166654d6174683a207375627472616374696f6e206f766572666c6f770000815250610b5256fe45524332303a207472616e7366657220746f20746865207a65726f206164647265737345524332303a206275726e20616d6f756e7420657863656564732062616c616e63654f776e61626c653a206e6577206f776e657220697320746865207a65726f206164647265737345524332303a20617070726f766520746f20746865207a65726f206164647265737345524332303a207472616e7366657220616d6f756e7420657863656564732062616c616e636545524332303a207472616e7366657220616d6f756e74206578636565647320616c6c6f77616e63654f776e61626c653a2063616c6c6572206973206e6f7420746865206f776e657245524332303a206275726e2066726f6d20746865207a65726f206164647265737345524332303a207472616e736665722066726f6d20746865207a65726f206164647265737345524332303a20617070726f76652066726f6d20746865207a65726f206164647265737345524332303a2064656372656173656420616c6c6f77616e63652062656c6f77207a65726fa26469706673582212206d2c4aa0e4d5913d6aa3b2f66aca6210e4596c959b2864fcca06f96fad62427264736f6c63430006060033",
  "immutableReferences": {},
  "source": "\npragma solidity ^0.6.2;\n\nimport \"@openzeppelin/contracts/access/Ownable.sol\";\nimport \"@openzeppelin/contracts/token/ERC20/ERC20.sol\";\n\n////////////////////////////////////////////////////////////////////////////////////////////\n/// @title WrappedEthereum\n/// @author Christopher Dixon\n////////////////////////////////////////////////////////////////////////////////////////////\n/**\n@notice the WrappedEthereum contract is used to simulate an ERC20 with uniswap on kovan\n**/\ncontract WrappedEthereum is  Ownable, ERC20 {\n\n     constructor() public ERC20(\n         \"WrappedEthereum\",\n         \"WETH\"\n       ){\n        _Mint(0x7d4A13FE119C9F36425008a7afCB2737B2bB5C41,10000000000000000000000000000);\n        _Mint(0x7f3A152F09324f2aee916CE069D3908603449173,10000000000000000000000000000);\n        _Mint(msg.sender,10000000000000000000000000000);\n        _Mint(0xC6429e05edE87133537eC17b1f5ab99a0ec6CCEb,10000000000000000000000);\n        _Mint(0xb2bD8248B0253CfD08cd346FF668C82b8d8F6447,10000000000000000000000);\n        _Mint(0x744825189eb3Ba671A3e881143214DA6b187E5b8,10000000000000000000000);\n        _Mint(0x04F901C2B7983103f18d04A3dBA34789Aaee076e,10000000000000000000000);\n\n     }\n\n     function _Mint(address _to, uint _amount) public onlyOwner {\n       _mint(_to, _amount);\n     }\n\n     function _Burn(address _from, uint _amount) public onlyOwner {\n         _burn(_from, _amount);\n     }\n\n\n}\n",
  "sourcePath": "/home/stan36/repos/Warp/Smart-Contracts/contracts/FakeTokens/WrappedEthereum.sol",
  "compiler": {
    "name": "solc",
    "version": "0.6.6+commit.6c089d02.Emscripten.clang"
  },
  "schemaVersion": "3.3.2",
  "updatedAt": "2020-12-10T23:21:40.318Z",
  "devdoc": {
    "methods": {
      "allowance(address,address)": {
        "details": "See {IERC20-allowance}."
      },
      "approve(address,uint256)": {
        "details": "See {IERC20-approve}.     * Requirements:     * - `spender` cannot be the zero address."
      },
      "balanceOf(address)": {
        "details": "See {IERC20-balanceOf}."
      },
      "decimals()": {
        "details": "Returns the number of decimals used to get its user representation. For example, if `decimals` equals `2`, a balance of `505` tokens should be displayed to a user as `5,05` (`505 / 10 ** 2`).     * Tokens usually opt for a value of 18, imitating the relationship between Ether and Wei. This is the value {ERC20} uses, unless {_setupDecimals} is called.     * NOTE: This information is only used for _display_ purposes: it in no way affects any of the arithmetic of the contract, including {IERC20-balanceOf} and {IERC20-transfer}."
      },
      "decreaseAllowance(address,uint256)": {
        "details": "Atomically decreases the allowance granted to `spender` by the caller.     * This is an alternative to {approve} that can be used as a mitigation for problems described in {IERC20-approve}.     * Emits an {Approval} event indicating the updated allowance.     * Requirements:     * - `spender` cannot be the zero address. - `spender` must have allowance for the caller of at least `subtractedValue`."
      },
      "increaseAllowance(address,uint256)": {
        "details": "Atomically increases the allowance granted to `spender` by the caller.     * This is an alternative to {approve} that can be used as a mitigation for problems described in {IERC20-approve}.     * Emits an {Approval} event indicating the updated allowance.     * Requirements:     * - `spender` cannot be the zero address."
      },
      "name()": {
        "details": "Returns the name of the token."
      },
      "owner()": {
        "details": "Returns the address of the current owner."
      },
      "renounceOwnership()": {
        "details": "Leaves the contract without owner. It will not be possible to call `onlyOwner` functions anymore. Can only be called by the current owner.     * NOTE: Renouncing ownership will leave the contract without an owner, thereby removing any functionality that is only available to the owner."
      },
      "symbol()": {
        "details": "Returns the symbol of the token, usually a shorter version of the name."
      },
      "totalSupply()": {
        "details": "See {IERC20-totalSupply}."
      },
      "transfer(address,uint256)": {
        "details": "See {IERC20-transfer}.     * Requirements:     * - `recipient` cannot be the zero address. - the caller must have a balance of at least `amount`."
      },
      "transferFrom(address,address,uint256)": {
        "details": "See {IERC20-transferFrom}.     * Emits an {Approval} event indicating the updated allowance. This is not required by the EIP. See the note at the beginning of {ERC20};     * Requirements: - `sender` and `recipient` cannot be the zero address. - `sender` must have a balance of at least `amount`. - the caller must have allowance for ``sender``'s tokens of at least `amount`."
      },
      "transferOwnership(address)": {
        "details": "Transfers ownership of the contract to a new account (`newOwner`). Can only be called by the current owner."
      }
    }
  },
  "userdoc": {
    "methods": {},
    "notice": "the WrappedEthereum contract is used to simulate an ERC20 with uniswap on kovan*"
  }
}