{
  "contractName": "ApproveWrapper",
  "abi": [
    {
      "inputs": [
        {
          "internalType": "address",
          "name": "_token",
          "type": "address"
        }
      ],
      "stateMutability": "nonpayable",
      "type": "constructor"
    },
    {
      "inputs": [],
      "name": "token",
      "outputs": [
        {
          "internalType": "contract ERC20",
          "name": "",
          "type": "address"
        }
      ],
      "stateMutability": "view",
      "type": "function"
    },
    {
      "inputs": [
        {
          "internalType": "address",
          "name": "_spender",
          "type": "address"
        },
        {
          "internalType": "uint256",
          "name": "_amount",
          "type": "uint256"
        }
      ],
      "name": "wrapApprove",
      "outputs": [],
      "stateMutability": "nonpayable",
      "type": "function"
    }
  ],
  "bytecode": "0x608060405234801561001057600080fd5b506040516105493803806105498339818101604052602081101561003357600080fd5b5051600080546001600160a01b039092166001600160a01b03199092169190911790556104e4806100656000396000f3fe608060405234801561001057600080fd5b50600436106100365760003560e01c806304694e191461003b578063fc0c546a14610069575b600080fd5b6100676004803603604081101561005157600080fd5b506001600160a01b03813516906020013561008d565b005b6100716100ae565b604080516001600160a01b039092168252519081900360200190f35b6000546100aa906001600160a01b0316838363ffffffff6100bd16565b5050565b6000546001600160a01b031681565b801580610143575060408051636eb1769f60e11b81523060048201526001600160a01b03848116602483015291519185169163dd62ed3e91604480820192602092909190829003018186803b15801561011557600080fd5b505afa158015610129573d6000803e3d6000fd5b505050506040513d602081101561013f57600080fd5b5051155b61017e5760405162461bcd60e51b81526004018080602001828103825260368152602001806104796036913960400191505060405180910390fd5b604080516001600160a01b038416602482015260448082018490528251808303909101815260649091019091526020810180516001600160e01b031663095ea7b360e01b1790526101d09084906101d5565b505050565b606061022a826040518060400160405280602081526020017f5361666545524332303a206c6f772d6c6576656c2063616c6c206661696c6564815250856001600160a01b03166102869092919063ffffffff16565b8051909150156101d05780806020019051602081101561024957600080fd5b50516101d05760405162461bcd60e51b815260040180806020018281038252602a81526020018061044f602a913960400191505060405180910390fd5b6060610295848460008561029d565b949350505050565b60606102a885610448565b6102f9576040805162461bcd60e51b815260206004820152601d60248201527f416464726573733a2063616c6c20746f206e6f6e2d636f6e7472616374000000604482015290519081900360640190fd5b60006060866001600160a01b031685876040518082805190602001908083835b602083106103385780518252601f199092019160209182019101610319565b6001836020036101000a03801982511681845116808217855250505050505090500191505060006040518083038185875af1925050503d806000811461039a576040519150601f19603f3d011682016040523d82523d6000602084013e61039f565b606091505b509150915081156103b35791506102959050565b8051156103c35780518082602001fd5b8360405162461bcd60e51b81526004018080602001828103825283818151815260200191508051906020019080838360005b8381101561040d5781810151838201526020016103f5565b50505050905090810190601f16801561043a5780820380516001836020036101000a031916815260200191505b509250505060405180910390fd5b3b15159056fe5361666545524332303a204552433230206f7065726174696f6e20646964206e6f7420737563636565645361666545524332303a20617070726f76652066726f6d206e6f6e2d7a65726f20746f206e6f6e2d7a65726f20616c6c6f77616e6365a2646970667358221220ff4868d1b875200573c69dbcc9dfd38965ce6a3266c3aa5b5555c5a7c066b5c764736f6c63430006060033",
  "immutableReferences": {},
  "source": "\npragma solidity ^0.6.2;\n\nimport \"@openzeppelin/contracts/token/ERC20/ERC20.sol\";\nimport \"@openzeppelin/contracts/token/ERC20/SafeERC20.sol\";\n\n////////////////////////////////////////////////////////////////////////////////////////////\n/// @title DAI\n/// @author Christopher Dixon\n////////////////////////////////////////////////////////////////////////////////////////////\n/**\n@notice the DAI contract is used to simulate an ERC20 with uniswap on kovan\n**/\ncontract ApproveWrapper {\n    using SafeERC20 for ERC20;\n\n    ERC20 public token;\n\n     constructor(address _token) public {\n        token = ERC20(_token);\n     }\n\n     function wrapApprove(address _spender, uint _amount) public  {\n       token.safeApprove( _spender, _amount);\n     }\n\n\n\n}\n",
  "sourcePath": "/home/stan36/repos/Warp/Smart-Contracts/contracts/FakeTokens/ApproveWrapper.sol",
  "compiler": {
    "name": "solc",
    "version": "0.6.6+commit.6c089d02.Emscripten.clang"
  },
  "schemaVersion": "3.3.2",
  "updatedAt": "2020-12-10T21:54:56.268Z",
  "devdoc": {
    "methods": {}
  },
  "userdoc": {
    "methods": {},
    "notice": "the DAI contract is used to simulate an ERC20 with uniswap on kovan*"
  }
}