{
  "contractName": "JumpRateModelV2",
  "abi": [
    {
      "inputs": [
        {
          "internalType": "uint256",
          "name": "baseRatePerYear",
          "type": "uint256"
        },
        {
          "internalType": "uint256",
          "name": "multiplierPerYear",
          "type": "uint256"
        },
        {
          "internalType": "uint256",
          "name": "jumpMultiplierPerYear",
          "type": "uint256"
        },
        {
          "internalType": "uint256",
          "name": "kink_",
          "type": "uint256"
        },
        {
          "internalType": "address",
          "name": "owner_",
          "type": "address"
        }
      ],
      "stateMutability": "nonpayable",
      "type": "constructor"
    },
    {
      "anonymous": false,
      "inputs": [
        {
          "indexed": false,
          "internalType": "uint256",
          "name": "baseRatePerBlock",
          "type": "uint256"
        },
        {
          "indexed": false,
          "internalType": "uint256",
          "name": "multiplierPerBlock",
          "type": "uint256"
        },
        {
          "indexed": false,
          "internalType": "uint256",
          "name": "jumpMultiplierPerBlock",
          "type": "uint256"
        },
        {
          "indexed": false,
          "internalType": "uint256",
          "name": "kink",
          "type": "uint256"
        }
      ],
      "name": "NewInterestParams",
      "type": "event"
    },
    {
      "inputs": [],
      "name": "baseRatePerBlock",
      "outputs": [
        {
          "internalType": "uint256",
          "name": "",
          "type": "uint256"
        }
      ],
      "stateMutability": "view",
      "type": "function"
    },
    {
      "inputs": [],
      "name": "blocksPerYear",
      "outputs": [
        {
          "internalType": "uint256",
          "name": "",
          "type": "uint256"
        }
      ],
      "stateMutability": "view",
      "type": "function"
    },
    {
      "inputs": [
        {
          "internalType": "uint256",
          "name": "cash",
          "type": "uint256"
        },
        {
          "internalType": "uint256",
          "name": "borrows",
          "type": "uint256"
        },
        {
          "internalType": "uint256",
          "name": "reserves",
          "type": "uint256"
        },
        {
          "internalType": "uint256",
          "name": "reserveFactorMantissa",
          "type": "uint256"
        }
      ],
      "name": "getSupplyRate",
      "outputs": [
        {
          "internalType": "uint256",
          "name": "",
          "type": "uint256"
        }
      ],
      "stateMutability": "view",
      "type": "function"
    },
    {
      "inputs": [],
      "name": "jumpMultiplierPerBlock",
      "outputs": [
        {
          "internalType": "uint256",
          "name": "",
          "type": "uint256"
        }
      ],
      "stateMutability": "view",
      "type": "function"
    },
    {
      "inputs": [],
      "name": "kink",
      "outputs": [
        {
          "internalType": "uint256",
          "name": "",
          "type": "uint256"
        }
      ],
      "stateMutability": "view",
      "type": "function"
    },
    {
      "inputs": [],
      "name": "multiplierPerBlock",
      "outputs": [
        {
          "internalType": "uint256",
          "name": "",
          "type": "uint256"
        }
      ],
      "stateMutability": "view",
      "type": "function"
    },
    {
      "inputs": [],
      "name": "owner",
      "outputs": [
        {
          "internalType": "address",
          "name": "",
          "type": "address"
        }
      ],
      "stateMutability": "view",
      "type": "function"
    },
    {
      "inputs": [
        {
          "internalType": "uint256",
          "name": "baseRatePerYear",
          "type": "uint256"
        },
        {
          "internalType": "uint256",
          "name": "multiplierPerYear",
          "type": "uint256"
        },
        {
          "internalType": "uint256",
          "name": "jumpMultiplierPerYear",
          "type": "uint256"
        },
        {
          "internalType": "uint256",
          "name": "kink_",
          "type": "uint256"
        }
      ],
      "name": "updateJumpRateModel",
      "outputs": [],
      "stateMutability": "nonpayable",
      "type": "function"
    },
    {
      "inputs": [
        {
          "internalType": "uint256",
          "name": "cash",
          "type": "uint256"
        },
        {
          "internalType": "uint256",
          "name": "borrows",
          "type": "uint256"
        },
        {
          "internalType": "uint256",
          "name": "reserves",
          "type": "uint256"
        }
      ],
      "name": "utilizationRate",
      "outputs": [
        {
          "internalType": "uint256",
          "name": "",
          "type": "uint256"
        }
      ],
      "stateMutability": "pure",
      "type": "function"
    },
    {
      "inputs": [
        {
          "internalType": "uint256",
          "name": "cash",
          "type": "uint256"
        },
        {
          "internalType": "uint256",
          "name": "borrows",
          "type": "uint256"
        },
        {
          "internalType": "uint256",
          "name": "reserves",
          "type": "uint256"
        }
      ],
      "name": "getBorrowRate",
      "outputs": [
        {
          "internalType": "uint256",
          "name": "",
          "type": "uint256"
        }
      ],
      "stateMutability": "view",
      "type": "function"
    }
  ],
  "bytecode": "0x608060405234801561001057600080fd5b50604051610a22380380610a22833981810160405260a081101561003357600080fd5b508051602082015160408301516060840151608090940151600080546001600160a01b0319166001600160a01b03831617905592939192909190848484848461007e8585858561008d565b505050505050505050506102bc565b6100a7622014808561017060201b61057e1790919060201c565b6002556100f66100c562201480836101c1602090811b61052517901c565b6100e4670de0b6b3a7640000866101c160201b6105251790919060201c565b61017060201b61057e1790919060201c565b6001556101118262201480610170602090811b61057e17901c565b60038190556004829055600254600154604080519283526020830191909152818101929092526060810183905290517f6960ab234c7ef4b0c9197100f5393cfcde7c453ac910a27bd2000aa1dd4c068d9181900360800190a150505050565b60006101b883836040518060400160405280601a81526020017f536166654d6174683a206469766973696f6e206279207a65726f00000000000081525061021a60201b60201c565b90505b92915050565b6000826101d0575060006101bb565b828202828482816101dd57fe5b04146101b85760405162461bcd60e51b8152600401808060200182810382526021815260200180610a016021913960400191505060405180910390fd5b600081836102a65760405162461bcd60e51b81526004018080602001828103825283818151815260200191508051906020019080838360005b8381101561026b578181015183820152602001610253565b50505050905090810190601f1680156102985780820380516001836020036101000a031916815260200191505b509250505060405180910390fd5b5060008385816102b257fe5b0495945050505050565b610736806102cb6000396000f3fe608060405234801561001057600080fd5b506004361061008e5760003560e01c806315f24053146100935780632037f3e7146100ce5780636e71e2d8146100ff5780638726bb89146101285780638da5cb5b14610130578063a385fb9614610154578063b81688161461015c578063b9f9850a1461018b578063f14039de14610193578063fd2da3391461019b575b600080fd5b6100bc600480360360608110156100a957600080fd5b50803590602081013590604001356101a3565b60408051918252519081900360200190f35b6100fd600480360360808110156100e457600080fd5b50803590602081013590604081013590606001356101ba565b005b6100bc6004803603606081101561011557600080fd5b5080359060208101359060400135610215565b6100bc61026b565b610138610271565b604080516001600160a01b039092168252519081900360200190f35b6100bc610280565b6100bc6004803603608081101561017257600080fd5b5080359060208101359060408101359060600135610287565b6100bc610306565b6100bc61030c565b6100bc610312565b60006101b0848484610318565b90505b9392505050565b6000546001600160a01b031633146102035760405162461bcd60e51b81526004018080602001828103825260268152602001806106db6026913960400191505060405180910390fd5b61020f848484846103e1565b50505050565b600082610224575060006101b3565b6101b06102478361023b878763ffffffff61048216565b9063ffffffff6104e316565b61025f85670de0b6b3a764000063ffffffff61052516565b9063ffffffff61057e16565b60015481565b6000546001600160a01b031681565b6220148081565b6000806102a2670de0b6b3a76400008463ffffffff6104e316565b905060006102b1878787610318565b905060006102d1670de0b6b3a764000061025f848663ffffffff61052516565b90506102fa670de0b6b3a764000061025f836102ee8c8c8c610215565b9063ffffffff61052516565b98975050505050505050565b60035481565b60025481565b60045481565b600080610326858585610215565b9050600454811161036c57610364600254610358670de0b6b3a764000061025f6001548661052590919063ffffffff16565b9063ffffffff61048216565b9150506101b3565b6000610397600254610358670de0b6b3a764000061025f60015460045461052590919063ffffffff16565b905060006103b0600454846104e390919063ffffffff16565b90506103d782610358670de0b6b3a764000061025f6003548661052590919063ffffffff16565b93505050506101b3565b6103f4846220148063ffffffff61057e16565b60025561040d610247622014808363ffffffff61052516565b600155610423826220148063ffffffff61057e16565b60038190556004829055600254600154604080519283526020830191909152818101929092526060810183905290517f6960ab234c7ef4b0c9197100f5393cfcde7c453ac910a27bd2000aa1dd4c068d9181900360800190a150505050565b6000828201838110156104da576040805162461bcd60e51b815260206004820152601b60248201527a536166654d6174683a206164646974696f6e206f766572666c6f7760281b604482015290519081900360640190fd5b90505b92915050565b60006104da83836040518060400160405280601e81526020017f536166654d6174683a207375627472616374696f6e206f766572666c6f7700008152506105bd565b600082610534575060006104dd565b8282028284828161054157fe5b04146104da5760405162461bcd60e51b81526004018080602001828103825260218152602001806106ba6021913960400191505060405180910390fd5b60006104da83836040518060400160405280601a815260200179536166654d6174683a206469766973696f6e206279207a65726f60301b815250610654565b6000818484111561064c5760405162461bcd60e51b81526004018080602001828103825283818151815260200191508051906020019080838360005b838110156106115781810151838201526020016105f9565b50505050905090810190601f16801561063e5780820380516001836020036101000a031916815260200191505b509250505060405180910390fd5b505050900390565b600081836106a35760405162461bcd60e51b81526020600482018181528351602484015283519092839260449091019190850190808383600083156106115781810151838201526020016105f9565b5060008385816106af57fe5b049594505050505056fe536166654d6174683a206d756c7469706c69636174696f6e206f766572666c6f776f6e6c7920746865206f776e6572206d61792063616c6c20746869732066756e6374696f6e2ea264697066735822122027d6c97186e85c5362aa98276aa2af6aa81caa7a2a8ee763cad018c8d1529da864736f6c63430006060033536166654d6174683a206d756c7469706c69636174696f6e206f766572666c6f77",
  "immutableReferences": {},
  "source": "pragma solidity ^0.6.0;\n\nimport \"./BaseJumpRateModelV2.sol\";\n\n\n\n/**\n  * @title Compound's JumpRateModel Contract V2 for V2 cTokens\n  * @author Arr00\n  * @notice Supports only for V2 cTokens\n  */\ncontract JumpRateModelV2 is  BaseJumpRateModelV2  {\n\n\t/**\n     * @notice Calculates the current borrow rate per block\n     * @param cash The amount of cash in the market\n     * @param borrows The amount of borrows in the market\n     * @param reserves The amount of reserves in the market\n     * @return The borrow rate percentage per block as a mantissa (scaled by 1e18)\n     */\n    function getBorrowRate(uint cash, uint borrows, uint reserves) external  view returns (uint) {\n        return getBorrowRateInternal(cash, borrows, reserves);\n    }\n\n    constructor(uint baseRatePerYear, uint multiplierPerYear, uint jumpMultiplierPerYear, uint kink_, address owner_)\n    \tBaseJumpRateModelV2(baseRatePerYear,multiplierPerYear,jumpMultiplierPerYear,kink_,owner_) public {}\n}\n",
  "sourcePath": "/home/stan36/repos/Warp/Smart-Contracts/contracts/compound/JumpRateModelV2.sol",
  "compiler": {
    "name": "solc",
    "version": "0.6.6+commit.6c089d02.Emscripten.clang"
  },
  "schemaVersion": "3.2.4",
  "updatedAt": "2020-11-06T21:15:11.646Z",
  "devdoc": {
    "author": "Arr00",
    "methods": {
      "getBorrowRate(uint256,uint256,uint256)": {
        "params": {
          "borrows": "The amount of borrows in the market",
          "cash": "The amount of cash in the market",
          "reserves": "The amount of reserves in the market"
        },
        "returns": {
          "_0": "The borrow rate percentage per block as a mantissa (scaled by 1e18)"
        }
      },
      "getSupplyRate(uint256,uint256,uint256,uint256)": {
        "params": {
          "borrows": "The amount of borrows in the market",
          "cash": "The amount of cash in the market",
          "reserveFactorMantissa": "The current reserve factor for the market",
          "reserves": "The amount of reserves in the market"
        },
        "returns": {
          "_0": "The supply rate percentage per block as a mantissa (scaled by 1e18)"
        }
      },
      "updateJumpRateModel(uint256,uint256,uint256,uint256)": {
        "params": {
          "baseRatePerYear": "The approximate target base APR, as a mantissa (scaled by 1e18)",
          "jumpMultiplierPerYear": "The multiplierPerBlock after hitting a specified utilization point",
          "kink_": "The utilization point at which the jump multiplier is applied",
          "multiplierPerYear": "The rate of increase in interest rate wrt utilization (scaled by 1e18)"
        }
      },
      "utilizationRate(uint256,uint256,uint256)": {
        "params": {
          "borrows": "The amount of borrows in the market",
          "cash": "The amount of cash in the market",
          "reserves": "The amount of reserves in the market (currently unused)"
        },
        "returns": {
          "_0": "The utilization rate as a mantissa between [0, 1e18]"
        }
      }
    },
    "title": "Compound's JumpRateModel Contract V2 for V2 cTokens"
  },
  "userdoc": {
    "methods": {
      "getBorrowRate(uint256,uint256,uint256)": {
        "notice": "Calculates the current borrow rate per block"
      },
      "getSupplyRate(uint256,uint256,uint256,uint256)": {
        "notice": "Calculates the current supply rate per block"
      },
      "updateJumpRateModel(uint256,uint256,uint256,uint256)": {
        "notice": "Update the parameters of the interest rate model (only callable by owner, i.e. Timelock)"
      },
      "utilizationRate(uint256,uint256,uint256)": {
        "notice": "Calculates the utilization rate of the market: `borrows / (cash + borrows - reserves)`"
      }
    },
    "notice": "Supports only for V2 cTokens"
  }
}