{
  "contractName": "UniswapLPOracleInstance",
  "abi": [
    {
      "inputs": [
        {
          "internalType": "address",
          "name": "_factory",
          "type": "address"
        },
        {
          "internalType": "address",
          "name": "_tokenA",
          "type": "address"
        },
        {
          "internalType": "address",
          "name": "_tokenB",
          "type": "address"
        }
      ],
      "stateMutability": "nonpayable",
      "type": "constructor"
    },
    {
      "anonymous": false,
      "inputs": [
        {
          "indexed": true,
          "internalType": "address",
          "name": "previousOwner",
          "type": "address"
        },
        {
          "indexed": true,
          "internalType": "address",
          "name": "newOwner",
          "type": "address"
        }
      ],
      "name": "OwnershipTransferred",
      "type": "event"
    },
    {
      "inputs": [],
      "name": "PERIOD",
      "outputs": [
        {
          "internalType": "uint256",
          "name": "",
          "type": "uint256"
        }
      ],
      "stateMutability": "view",
      "type": "function"
    },
    {
      "inputs": [],
      "name": "blockTimestampLast",
      "outputs": [
        {
          "internalType": "uint32",
          "name": "",
          "type": "uint32"
        }
      ],
      "stateMutability": "view",
      "type": "function"
    },
    {
      "inputs": [],
      "name": "owner",
      "outputs": [
        {
          "internalType": "address",
          "name": "",
          "type": "address"
        }
      ],
      "stateMutability": "view",
      "type": "function"
    },
    {
      "inputs": [],
      "name": "pair",
      "outputs": [
        {
          "internalType": "contract IUniswapV2Pair",
          "name": "",
          "type": "address"
        }
      ],
      "stateMutability": "view",
      "type": "function"
    },
    {
      "inputs": [],
      "name": "price0Average",
      "outputs": [
        {
          "internalType": "uint224",
          "name": "_x",
          "type": "uint224"
        }
      ],
      "stateMutability": "view",
      "type": "function"
    },
    {
      "inputs": [],
      "name": "price0CumulativeLast",
      "outputs": [
        {
          "internalType": "uint256",
          "name": "",
          "type": "uint256"
        }
      ],
      "stateMutability": "view",
      "type": "function"
    },
    {
      "inputs": [],
      "name": "price1Average",
      "outputs": [
        {
          "internalType": "uint224",
          "name": "_x",
          "type": "uint224"
        }
      ],
      "stateMutability": "view",
      "type": "function"
    },
    {
      "inputs": [],
      "name": "price1CumulativeLast",
      "outputs": [
        {
          "internalType": "uint256",
          "name": "",
          "type": "uint256"
        }
      ],
      "stateMutability": "view",
      "type": "function"
    },
    {
      "inputs": [],
      "name": "renounceOwnership",
      "outputs": [],
      "stateMutability": "nonpayable",
      "type": "function"
    },
    {
      "inputs": [],
      "name": "token0",
      "outputs": [
        {
          "internalType": "address",
          "name": "",
          "type": "address"
        }
      ],
      "stateMutability": "view",
      "type": "function"
    },
    {
      "inputs": [],
      "name": "token1",
      "outputs": [
        {
          "internalType": "address",
          "name": "",
          "type": "address"
        }
      ],
      "stateMutability": "view",
      "type": "function"
    },
    {
      "inputs": [
        {
          "internalType": "address",
          "name": "newOwner",
          "type": "address"
        }
      ],
      "name": "transferOwnership",
      "outputs": [],
      "stateMutability": "nonpayable",
      "type": "function"
    },
    {
      "inputs": [],
      "name": "update",
      "outputs": [],
      "stateMutability": "nonpayable",
      "type": "function"
    },
    {
      "inputs": [],
      "name": "consult",
      "outputs": [
        {
          "internalType": "uint256",
          "name": "price",
          "type": "uint256"
        }
      ],
      "stateMutability": "nonpayable",
      "type": "function"
    },
    {
      "inputs": [],
      "name": "viewPrice",
      "outputs": [
        {
          "internalType": "uint256",
          "name": "price",
          "type": "uint256"
        }
      ],
      "stateMutability": "view",
      "type": "function"
    }
  ],
  "bytecode": "0x60806040523480156200001157600080fd5b506040516200155838038062001558833981810160405260608110156200003757600080fd5b508051602082015160409092015190919060006200005d6001600160e01b036200045d16565b600080546001600160a01b0319166001600160a01b0383169081178255604051929350917f8be0079c531659141344cd1fd0a4f28419497f9722a3daafe3b4186f6b6457e0908290a350806001600160a01b0316826001600160a01b0316141562000103576040805160208082018352600191829052600780546001600160e01b0319908116841790915583519182019093528190526008805490921617905562000454565b60006200011d8484846200046160201b620008b41760201c565b905080600160006101000a8154816001600160a01b0302191690836001600160a01b03160217905550806001600160a01b0316630dfe16816040518163ffffffff1660e01b815260040160206040518083038186803b1580156200018057600080fd5b505afa15801562000195573d6000803e3d6000fd5b505050506040513d6020811015620001ac57600080fd5b5051600280546001600160a01b0319166001600160a01b039283161790556040805163d21220a760e01b815290519183169163d21220a791600480820192602092909190829003018186803b1580156200020557600080fd5b505afa1580156200021a573d6000803e3d6000fd5b505050506040513d60208110156200023157600080fd5b5051600380546001600160a01b0319166001600160a01b0392831617905560408051635909c0d560e01b8152905191831691635909c0d591600480820192602092909190829003018186803b1580156200028a57600080fd5b505afa1580156200029f573d6000803e3d6000fd5b505050506040513d6020811015620002b657600080fd5b5051600490815560408051635a3d549360e01b815290516001600160a01b03841692635a3d549392808201926020929091829003018186803b158015620002fc57600080fd5b505afa15801562000311573d6000803e3d6000fd5b505050506040513d60208110156200032857600080fd5b505160055560408051630240bc6b60e21b8152905160009182916001600160a01b03851691630902f1ac916004808301926060929190829003018186803b1580156200037357600080fd5b505afa15801562000388573d6000803e3d6000fd5b505050506040513d60608110156200039f57600080fd5b50805160208201516040909201516006805463ffffffff191663ffffffff909216919091179055925090506001600160701b03821615801590620003eb57506001600160701b03811615155b6200043d576040805162461bcd60e51b815260206004820181905260248201527f4578616d706c654f7261636c6553696d706c653a204e4f5f5245534552564553604482015290519081900360640190fd5b620004506001600160e01b036200053e16565b5050505b505050620009f2565b3390565b600080806200047a85856001600160e01b036200064316565b604080516001600160601b0319606094851b811660208084019190915293851b81166034830152825160288184030181526048830184528051908501207fff0000000000000000000000000000000000000000000000000000000000000060688401529a90941b9093166069840152607d8301989098527f96e8ac4277198ff8b6f785478aa9a39f403cb768dd02cbee326c3e7da348845f609d808401919091528851808403909101815260bd909201909752805196019590952095945050505050565b60008060006200056e600160009054906101000a90046001600160a01b03166200072660201b620006131760201c565b600654929550909350915063ffffffff908116820390610e10908216106200063d5760405180602001604052808263ffffffff16600454870381620005af57fe5b046001600160e01b039081169091529051600780546001600160e01b031916919092161790556040805160208101909152600554819063ffffffff841690860381620005f757fe5b046001600160e01b039081169091529051600880546001600160e01b03191691909216179055600484905560058390556006805463ffffffff191663ffffffff84161790555b50505050565b600080826001600160a01b0316846001600160a01b03161415620006995760405162461bcd60e51b8152600401808060200182810382526025815260200180620015336025913960400191505060405180910390fd5b826001600160a01b0316846001600160a01b031610620006bb578284620006be565b83835b90925090506001600160a01b0382166200071f576040805162461bcd60e51b815260206004820152601e60248201527f556e697377617056324c6962726172793a205a45524f5f414444524553530000604482015290519081900360640190fd5b9250929050565b600080806200073d6001600160e01b036200092916565b9050836001600160a01b0316635909c0d56040518163ffffffff1660e01b815260040160206040518083038186803b1580156200077957600080fd5b505afa1580156200078e573d6000803e3d6000fd5b505050506040513d6020811015620007a557600080fd5b505160408051635a3d549360e01b815290519194506001600160a01b03861691635a3d549391600480820192602092909190829003018186803b158015620007ec57600080fd5b505afa15801562000801573d6000803e3d6000fd5b505050506040513d60208110156200081857600080fd5b505160408051630240bc6b60e21b81529051919350600091829182916001600160a01b03891691630902f1ac916004808301926060929190829003018186803b1580156200086557600080fd5b505afa1580156200087a573d6000803e3d6000fd5b505050506040513d60608110156200089157600080fd5b5080516020820151604090920151909450909250905063ffffffff808216908516146200091f57600081850390508063ffffffff16620008dd84866200093360201b620007ec1760201c565b600001516001600160e01b031602870196508063ffffffff166200090d85856200093360201b620007ec1760201c565b516001600160e01b0316029590950194505b5050509193909250565b63ffffffff421690565b6200093d620009e0565b6000826001600160701b0316116200099c576040805162461bcd60e51b815260206004820152601760248201527f4669786564506f696e743a204449565f42595f5a45524f000000000000000000604482015290519081900360640190fd5b6040805160208101909152806001600160701b038416600160701b600160e01b03607087901b1681620009cb57fe5b046001600160e01b0316815250905092915050565b60408051602081019091526000815290565b610b318062000a026000396000f3fe608060405234801561001057600080fd5b50600436106100c55760003560e01c80630dfe1681146100ca5780635909c0d5146100ee5780635a3d5493146101085780635e6aaf2c14610110578063715018a6146101345780637eeda7031461013e5780638da5cb5b14610146578063a2e620451461014e578063a6bb453914610156578063a8aa1b311461015e578063b4d1d79514610166578063c5700a021461016e578063d21220a71461018f578063d7dcdcec14610197578063f2fde38b1461019f575b600080fd5b6100d26101c5565b604080516001600160a01b039092168252519081900360200190f35b6100f66101d4565b60408051918252519081900360200190f35b6100f66101da565b6101186101e0565b604080516001600160e01b039092168252519081900360200190f35b61013c6101ef565b005b6100f661027f565b6100d2610330565b61013c61033f565b61011861042d565b6100d261043c565b6100f661044b565b610176610451565b6040805163ffffffff9092168252519081900360200190f35b6100d261045d565b6100f661046c565b61013c600480360360208110156101b557600080fd5b50356001600160a01b03166104a4565b6002546001600160a01b031681565b60045481565b60055481565b6008546001600160e01b031681565b6101f761058a565b6000546001600160a01b03908116911614610247576040805162461bcd60e51b81526020600482018190526024820152600080516020610a99833981519152604482015290519081900360640190fd5b600080546040516001600160a01b0390911690600080516020610ab9833981519152908390a3600080546001600160a01b0319169055565b6003546002546000916001600160a01b039182169116146102ec576102a261033f565b60408051602081019091526007546001600160e01b031681526102dc906102d790670de0b6b3a764000063ffffffff61058e16565b61060c565b6001600160901b0316905061032d565b60408051602081019091526007546001600160e01b03168152610321906102d790670de0b6b3a764000063ffffffff61058e16565b6001600160901b031690505b90565b6000546001600160a01b031690565b6001546000908190819061035b906001600160a01b0316610613565b600654929550909350915063ffffffff908116820390610e10908216106104275760405180602001604052808263ffffffff1660045487038161039a57fe5b046001600160e01b039081169091529051600780546001600160e01b031916919092161790556040805160208101909152600554819063ffffffff8416908603816103e157fe5b046001600160e01b039081169091529051600880546001600160e01b03191691909216179055600484905560058390556006805463ffffffff191663ffffffff84161790555b50505050565b6007546001600160e01b031681565b6001546001600160a01b031681565b610e1081565b60065463ffffffff1681565b6003546001600160a01b031681565b60408051602081019091526007546001600160e01b03168152600090610321906102d790670de0b6b3a764000063ffffffff61058e16565b6104ac61058a565b6000546001600160a01b039081169116146104fc576040805162461bcd60e51b81526020600482018190526024820152600080516020610a99833981519152604482015290519081900360640190fd5b6001600160a01b0381166105415760405162461bcd60e51b8152600401808060200182810382526026815260200180610a4e6026913960400191505060405180910390fd5b600080546040516001600160a01b0380851693921691600080516020610ab983398151915291a3600080546001600160a01b0319166001600160a01b0392909216919091179055565b3390565b61059661088f565b60008215806105bc57505082516001600160e01b0316828102908382816105b957fe5b04145b6105f75760405162461bcd60e51b8152600401808060200182810382526023815260200180610ad96023913960400191505060405180910390fd5b60408051602081019091529081529392505050565b5160701c90565b60008060006106206107e2565b9050836001600160a01b0316635909c0d56040518163ffffffff1660e01b815260040160206040518083038186803b15801561065b57600080fd5b505afa15801561066f573d6000803e3d6000fd5b505050506040513d602081101561068557600080fd5b505160408051635a3d549360e01b815290519194506001600160a01b03861691635a3d549391600480820192602092909190829003018186803b1580156106cb57600080fd5b505afa1580156106df573d6000803e3d6000fd5b505050506040513d60208110156106f557600080fd5b505160408051630240bc6b60e21b81529051919350600091829182916001600160a01b03891691630902f1ac916004808301926060929190829003018186803b15801561074157600080fd5b505afa158015610755573d6000803e3d6000fd5b505050506040513d606081101561076b57600080fd5b5080516020820151604090920151909450909250905063ffffffff808216908516146107d85780840363ffffffff81166107a584866107ec565b516001600160e01b031602969096019563ffffffff81166107c685856107ec565b516001600160e01b0316029590950194505b5050509193909250565b63ffffffff421690565b6107f46108a2565b6000826001600160701b03161161084c576040805162461bcd60e51b81526020600482015260176024820152764669786564506f696e743a204449565f42595f5a45524f60481b604482015290519081900360640190fd5b6040805160208101909152806001600160701b038416600160701b600160e01b03607087901b168161087a57fe5b046001600160e01b0316815250905092915050565b6040518060200160405280600081525090565b60408051602081019091526000815290565b60008060006108c3858561096f565b604080516001600160601b0319606094851b811660208084019190915293851b81166034830152825160288184030181526048830184528051908501206001600160f81b031960688401529a90941b9093166069840152607d8301989098527f96e8ac4277198ff8b6f785478aa9a39f403cb768dd02cbee326c3e7da348845f609d808401919091528851808403909101815260bd909201909752805196019590952095945050505050565b600080826001600160a01b0316846001600160a01b031614156109c35760405162461bcd60e51b8152600401808060200182810382526025815260200180610a746025913960400191505060405180910390fd5b826001600160a01b0316846001600160a01b0316106109e35782846109e6565b83835b90925090506001600160a01b038216610a46576040805162461bcd60e51b815260206004820152601e60248201527f556e697377617056324c6962726172793a205a45524f5f414444524553530000604482015290519081900360640190fd5b925092905056fe4f776e61626c653a206e6577206f776e657220697320746865207a65726f2061646472657373556e697377617056324c6962726172793a204944454e544943414c5f4144445245535345534f776e61626c653a2063616c6c6572206973206e6f7420746865206f776e65728be0079c531659141344cd1fd0a4f28419497f9722a3daafe3b4186f6b6457e04669786564506f696e743a204d554c5449504c49434154494f4e5f4f564552464c4f57a26469706673582212206de2cbb8e1b0708e3fc0587bccb7352106c26b42af66ad2ed5ef68309aeb1f9164736f6c63430006060033556e697377617056324c6962726172793a204944454e544943414c5f414444524553534553",
  "immutableReferences": {},
  "source": "pragma solidity ^0.6.2;\n\nimport \"@openzeppelin/contracts/access/Ownable.sol\";\nimport \"@uniswap/v2-core/contracts/interfaces/IUniswapV2Factory.sol\";\nimport \"@uniswap/v2-core/contracts/interfaces/IUniswapV2Pair.sol\";\nimport \"@uniswap/lib/contracts/libraries/FixedPoint.sol\";\nimport \"@uniswap/v2-periphery/contracts/libraries/UniswapV2OracleLibrary.sol\";\nimport \"@uniswap/v2-periphery/contracts/libraries/UniswapV2Library.sol\";\n\ncontract UniswapLPOracleInstance is Ownable {\n    using SafeMath for uint256;\n\n    // fixed window oracle that recomputes the average price for the entire period once every period\n    // note that the price average is only guaranteed to be over at least 1 period, but may be over a longer period\n\n    using FixedPoint for *;\n\n    uint256 public constant PERIOD = 1 hours;\n\n    IUniswapV2Pair public pair;\n    address public token0;\n    address public token1;\n\n    uint256 public price0CumulativeLast;\n    uint256 public price1CumulativeLast;\n    uint32 public blockTimestampLast;\n    FixedPoint.uq112x112 public price0Average;\n    FixedPoint.uq112x112 public price1Average;\n\n    /**\n@notice the constructor function is fired once during token creation to initialize the oracle contract to a specific token pair\n@param _factory is the address of the Uniswap factory contract\n@param _tokenA is the address of the asset being looked up\n@param _tokenB is the address of the USDC token\n**/\n\n    constructor(\n        address _factory,\n        address _tokenA,\n        address _tokenB\n    ) public {\n        if (_tokenA == _tokenB) {\n            price0Average = FixedPoint.uq112x112(uint224(1));\n            price1Average = FixedPoint.uq112x112(uint224(1));\n        } else {\n            IUniswapV2Pair _pair = IUniswapV2Pair(\n                UniswapV2Library.pairFor(_factory, _tokenA, _tokenB)\n            );\n            pair = _pair;\n            token0 = _pair.token0();\n            token1 = _pair.token1();\n            price0CumulativeLast = _pair.price0CumulativeLast(); // fetch the current accumulated price value (1 / 0)\n            price1CumulativeLast = _pair.price1CumulativeLast(); // fetch the current accumulated price value (0 / 1)\n            uint112 reserve0;\n            uint112 reserve1;\n            (reserve0, reserve1, blockTimestampLast) = _pair.getReserves();\n            require(\n                reserve0 != 0 && reserve1 != 0,\n                \"ExampleOracleSimple: NO_RESERVES\"\n            ); // ensure that there's liquidity in the pair\n            update();\n        }\n    }\n\n    /**\n@notice update updates the prices for the input token pair over a set 24hour period\n@dev this is an internal function called by consult if the timeElapsed is greater than 24 hours\n**/\n    function update() public {\n        (\n            uint256 price0Cumulative,\n            uint256 price1Cumulative,\n            uint32 blockTimestamp\n        ) = UniswapV2OracleLibrary.currentCumulativePrices(address(pair));\n        uint32 timeElapsed = blockTimestamp - blockTimestampLast; // overflow is desired\n\n        //check if this is the first update\n        if (timeElapsed >= PERIOD) {\n            // ensure that at least one full period has passed since the last update\n            // cumulative price is in (uq112x112 price * seconds) units so we simply wrap it after division by time elapsed\n            price0Average = FixedPoint.uq112x112(\n                uint224((price0Cumulative - price0CumulativeLast) / timeElapsed)\n            );\n            price1Average = FixedPoint.uq112x112(\n                uint224((price1Cumulative - price1CumulativeLast) / timeElapsed)\n            );\n\n            price0CumulativeLast = price0Cumulative;\n            price1CumulativeLast = price1Cumulative;\n            blockTimestampLast = blockTimestamp;\n        }\n    }\n\n    /**\n@notice consult returns the price of a token in USDC\n@return price is the price of one asset in USDC(example 1WETH in USDC)\n**/\n    function consult() external returns (uint256 price) {\n        if (token0 != token1) {\n            update();\n            price = price0Average.mul(1 ether).decode144();\n        } else {\n            price = price0Average.mul(1 ether).decode144();\n        }\n    }\n\n    /**\n@notice viewPrice is a view function that retreives the current price without having to run the update function\n@return price is the price of one asset in USDC(example 1WETH in USDC)\n**/\n    function viewPrice() external view returns (uint256 price) {\n        price = price0Average.mul(1 ether).decode144();\n    }\n}\n",
  "sourcePath": "/home/stan36/repos/Warp/Smart-Contracts/contracts/UniswapLPOracleInstance.sol",
  "compiler": {
    "name": "solc",
    "version": "0.6.6+commit.6c089d02.Emscripten.clang"
  },
  "schemaVersion": "3.2.4",
  "updatedAt": "2020-11-10T18:34:46.137Z",
  "devdoc": {
    "methods": {
      "constructor": {
        "params": {
          "_factory": "is the address of the Uniswap factory contract",
          "_tokenA": "is the address of the asset being looked up",
          "_tokenB": "is the address of the USDC token*"
        }
      },
      "owner()": {
        "details": "Returns the address of the current owner."
      },
      "renounceOwnership()": {
        "details": "Leaves the contract without owner. It will not be possible to call `onlyOwner` functions anymore. Can only be called by the current owner.     * NOTE: Renouncing ownership will leave the contract without an owner, thereby removing any functionality that is only available to the owner."
      },
      "transferOwnership(address)": {
        "details": "Transfers ownership of the contract to a new account (`newOwner`). Can only be called by the current owner."
      },
      "update()": {
        "details": "this is an internal function called by consult if the timeElapsed is greater than 24 hours*"
      }
    }
  },
  "userdoc": {
    "methods": {
      "constructor": "the constructor function is fired once during token creation to initialize the oracle contract to a specific token pair",
      "consult()": {
        "notice": "consult returns the price of a token in USDC"
      },
      "update()": {
        "notice": "update updates the prices for the input token pair over a set 24hour period"
      },
      "viewPrice()": {
        "notice": "viewPrice is a view function that retreives the current price without having to run the update function"
      }
    }
  }
}