{
  "contractName": "UniswapLPOracleFactory",
  "abi": [
    {
      "inputs": [
        {
          "internalType": "address",
          "name": "usdcAdd",
          "type": "address"
        },
        {
          "internalType": "address",
          "name": "_uniFactoryAdd",
          "type": "address"
        },
        {
          "internalType": "address",
          "name": "_uniRouterAddress",
          "type": "address"
        }
      ],
      "stateMutability": "nonpayable",
      "type": "constructor"
    },
    {
      "anonymous": false,
      "inputs": [
        {
          "indexed": true,
          "internalType": "address",
          "name": "previousOwner",
          "type": "address"
        },
        {
          "indexed": true,
          "internalType": "address",
          "name": "newOwner",
          "type": "address"
        }
      ],
      "name": "OwnershipTransferred",
      "type": "event"
    },
    {
      "inputs": [],
      "name": "factory",
      "outputs": [
        {
          "internalType": "address",
          "name": "",
          "type": "address"
        }
      ],
      "stateMutability": "view",
      "type": "function"
    },
    {
      "inputs": [],
      "name": "owner",
      "outputs": [
        {
          "internalType": "address",
          "name": "",
          "type": "address"
        }
      ],
      "stateMutability": "view",
      "type": "function"
    },
    {
      "inputs": [],
      "name": "renounceOwnership",
      "outputs": [],
      "stateMutability": "nonpayable",
      "type": "function"
    },
    {
      "inputs": [
        {
          "internalType": "address",
          "name": "",
          "type": "address"
        }
      ],
      "name": "tokenToUSDC",
      "outputs": [
        {
          "internalType": "address",
          "name": "",
          "type": "address"
        }
      ],
      "stateMutability": "view",
      "type": "function"
    },
    {
      "inputs": [
        {
          "internalType": "address",
          "name": "newOwner",
          "type": "address"
        }
      ],
      "name": "transferOwnership",
      "outputs": [],
      "stateMutability": "nonpayable",
      "type": "function"
    },
    {
      "inputs": [],
      "name": "uniswapRouter",
      "outputs": [
        {
          "internalType": "contract IUniswapV2Router02",
          "name": "",
          "type": "address"
        }
      ],
      "stateMutability": "view",
      "type": "function"
    },
    {
      "inputs": [],
      "name": "usdc_add",
      "outputs": [
        {
          "internalType": "address",
          "name": "",
          "type": "address"
        }
      ],
      "stateMutability": "view",
      "type": "function"
    },
    {
      "inputs": [],
      "name": "USDC",
      "outputs": [
        {
          "internalType": "address",
          "name": "",
          "type": "address"
        }
      ],
      "stateMutability": "view",
      "type": "function"
    },
    {
      "inputs": [],
      "name": "OneUSDC",
      "outputs": [
        {
          "internalType": "uint256",
          "name": "",
          "type": "uint256"
        }
      ],
      "stateMutability": "view",
      "type": "function"
    },
    {
      "inputs": [
        {
          "internalType": "address",
          "name": "_tokenA",
          "type": "address"
        },
        {
          "internalType": "address",
          "name": "_tokenB",
          "type": "address"
        },
        {
          "internalType": "address",
          "name": "_lpToken",
          "type": "address"
        }
      ],
      "name": "createNewOracles",
      "outputs": [],
      "stateMutability": "nonpayable",
      "type": "function"
    },
    {
      "inputs": [
        {
          "internalType": "address",
          "name": "_lpToken",
          "type": "address"
        }
      ],
      "name": "getUnderlyingPrice",
      "outputs": [
        {
          "internalType": "uint256",
          "name": "",
          "type": "uint256"
        }
      ],
      "stateMutability": "nonpayable",
      "type": "function"
    },
    {
      "inputs": [
        {
          "internalType": "address",
          "name": "_lpToken",
          "type": "address"
        }
      ],
      "name": "viewUnderlyingPrice",
      "outputs": [
        {
          "internalType": "uint256",
          "name": "",
          "type": "uint256"
        }
      ],
      "stateMutability": "view",
      "type": "function"
    },
    {
      "inputs": [
        {
          "internalType": "address",
          "name": "_token",
          "type": "address"
        }
      ],
      "name": "viewPriceOfToken",
      "outputs": [
        {
          "internalType": "uint256",
          "name": "",
          "type": "uint256"
        }
      ],
      "stateMutability": "view",
      "type": "function"
    }
  ],
  "bytecode": "0x608060405234801561001057600080fd5b5060405161287d38038061287d8339818101604052606081101561003357600080fd5b508051602082015160409092015190919060006100576001600160e01b036100e116565b600080546001600160a01b0319166001600160a01b0383169081178255604051929350917f8be0079c531659141344cd1fd0a4f28419497f9722a3daafe3b4186f6b6457e0908290a350600380546001600160a01b03199081166001600160a01b0393841617909155600180548216948316949094179093556002805490931691161790556100e5565b3390565b612789806100f46000396000f3fe60806040523480156200001157600080fd5b5060043610620000be5760003560e01c8063715018a614620000c3578063735de9f714620000cf57806389a3027114620000f55780638da5cb5b14620000ff5780639485bada14620001095780639adc328b1462000144578063b04c6d3f146200014e578063c45a01551462000189578063d38ca6d91462000193578063f2fde38b14620001bc578063f9160f3d14620001e5578063fa7827d2146200020e578063fc57d4df1462000218575b600080fd5b620000cd62000241565b005b620000d9620002d6565b604080516001600160a01b039092168252519081900360200190f35b620000d9620002e5565b620000d9620002f5565b620000cd600480360360608110156200012157600080fd5b506001600160a01b03813581169160208101358216916040909101351662000304565b620000d962000557565b62000177600480360360208110156200016657600080fd5b50356001600160a01b031662000566565b60408051918252519081900360200190f35b620000d962000870565b6200017760048036036020811015620001ab57600080fd5b50356001600160a01b03166200087f565b620000cd60048036036020811015620001d457600080fd5b50356001600160a01b031662000962565b620000d960048036036020811015620001fd57600080fd5b50356001600160a01b031662000a4f565b6200017762000a6a565b62000177600480360360208110156200023057600080fd5b50356001600160a01b031662000aed565b6200024b62000c5b565b6000546001600160a01b039081169116146200029d576040805162461bcd60e51b8152602060048201819052602482015260008051602062002714833981519152604482015290519081900360640190fd5b600080546040516001600160a01b039091169060008051602062002734833981519152908390a3600080546001600160a01b0319169055565b6003546001600160a01b031681565b6001546001600160a01b03165b90565b6000546001600160a01b031690565b6200030e62000c5b565b6000546001600160a01b0390811691161462000360576040805162461bcd60e51b8152602060048201819052602482015260008051602062002714833981519152604482015290519081900360640190fd5b6001600160a01b03808416600090815260066020526040902054168062000417576002546001546040516001600160a01b039283169287921690620003a59062000f8b565b6001600160a01b03938416815291831660208301529091166040808301919091525190819003606001906000f080158015620003e5573d6000803e3d6000fd5b506001600160a01b03858116600090815260066020526040902080546001600160a01b03191691831691909117905590505b6001600160a01b038084166000908152600660205260409020541680620004ce576002546001546040516001600160a01b0392831692879216906200045c9062000f8b565b6001600160a01b03938416815291831660208301529091166040808301919091525190819003606001906000f0801580156200049c573d6000803e3d6000fd5b506001600160a01b03858116600090815260066020526040902080546001600160a01b03191691831691909117905590505b6040805180820182526001600160a01b03808516825283811660208084019190915290861660009081526004909152919091206200050e91600262000f99565b506001600160a01b0391821660009081526005602052604080822080549785166001600160a01b0319988916179055918316815220805493909116929093169190911790915550565b6001546001600160a01b031681565b6001600160a01b03811660009081526004602090815260408083208054825181850281018501909352808352606093830182828015620005d057602002820191906000526020600020905b81546001600160a01b03168152600190910190602001808311620005b1575b50505050509050600081600081518110620005e757fe5b602002602001015190506000826001815181106200060157fe5b602002602001015190506000826001600160a01b031663d7dcdcec6040518163ffffffff1660e01b815260040160206040518083038186803b1580156200064757600080fd5b505afa1580156200065c573d6000803e3d6000fd5b505050506040513d60208110156200067357600080fd5b5051604080516335f7373b60e21b815290519192506000916001600160a01b0385169163d7dcdcec916004808301926020929190829003018186803b158015620006bc57600080fd5b505afa158015620006d1573d6000803e3d6000fd5b505050506040513d6020811015620006e857600080fd5b5051604080516318160ddd60e01b8152905191925088916000916001600160a01b038416916318160ddd91600480820192602092909190829003018186803b1580156200073457600080fd5b505afa15801562000749573d6000803e3d6000fd5b505050506040513d60208110156200076057600080fd5b5051600254885191925060009182916200080c916001600160a01b039091169060059084908d9082906200079057fe5b60200260200101516001600160a01b03166001600160a01b0316815260200190815260200160002060009054906101000a90046001600160a01b0316600560008d600181518110620007de57fe5b6020908102919091018101516001600160a01b03908116835290820192909252604001600020541662000c5f565b9092509050600062000825838863ffffffff62000d2f16565b905060006200083b838863ffffffff62000d2f16565b9050600062000851838363ffffffff62000d9b16565b90508581816200085d57fe5b049e9d5050505050505050505050505050565b6002546001600160a01b031681565b6001600160a01b03818116600090815260066020526040812054909116620008d95760405162461bcd60e51b8152600401808060200182810382526028815260200180620026ec6028913960400191505060405180910390fd5b6001600160a01b038083166000908152600660209081526040918290205482516335f7373b60e21b81529251931692839263d7dcdcec926004808301939192829003018186803b1580156200092d57600080fd5b505afa15801562000942573d6000803e3d6000fd5b505050506040513d60208110156200095957600080fd5b50519392505050565b6200096c62000c5b565b6000546001600160a01b03908116911614620009be576040805162461bcd60e51b8152602060048201819052602482015260008051602062002714833981519152604482015290519081900360640190fd5b6001600160a01b03811662000a055760405162461bcd60e51b8152600401808060200182810382526026815260200180620026a16026913960400191505060405180910390fd5b600080546040516001600160a01b03808516939216916000805160206200273483398151915291a3600080546001600160a01b0319166001600160a01b0392909216919091179055565b6006602052600090815260409020546001600160a01b031681565b6001546040805163313ce56760e01b815290516000926001600160a01b031691829163313ce56791600480820192602092909190829003018186803b15801562000ab357600080fd5b505afa15801562000ac8573d6000803e3d6000fd5b505050506040513d602081101562000adf57600080fd5b505160ff16600a0a91505090565b6001600160a01b0381166000908152600460209081526040808320805482518185028101850190935280835260609383018282801562000b5757602002820191906000526020600020905b81546001600160a01b0316815260019091019060200180831162000b38575b5050505050905060008160008151811062000b6e57fe5b6020026020010151905060008260018151811062000b8857fe5b602002602001015190506000826001600160a01b0316637eeda7036040518163ffffffff1660e01b8152600401602060405180830381600087803b15801562000bd057600080fd5b505af115801562000be5573d6000803e3d6000fd5b505050506040513d602081101562000bfc57600080fd5b505160408051637eeda70360e01b815290519192506000916001600160a01b03851691637eeda70391600480830192602092919082900301818787803b15801562000c4657600080fd5b505af1158015620006d1573d6000803e3d6000fd5b3390565b600080600062000c70858562000deb565b50905060008062000c8388888862000ece565b6001600160a01b0316630902f1ac6040518163ffffffff1660e01b815260040160606040518083038186803b15801562000cbc57600080fd5b505afa15801562000cd1573d6000803e3d6000fd5b505050506040513d606081101562000ce857600080fd5b5080516020909101516001600160701b0391821693501690506001600160a01b038781169084161462000d1d57808262000d20565b81815b90999098509650505050505050565b600081158062000d4c5750508082028282828162000d4957fe5b04145b62000d95576040805162461bcd60e51b815260206004820152601460248201527364732d6d6174682d6d756c2d6f766572666c6f7760601b604482015290519081900360640190fd5b92915050565b8082018281101562000d95576040805162461bcd60e51b815260206004820152601460248201527364732d6d6174682d6164642d6f766572666c6f7760601b604482015290519081900360640190fd5b600080826001600160a01b0316846001600160a01b0316141562000e415760405162461bcd60e51b8152600401808060200182810382526025815260200180620026c76025913960400191505060405180910390fd5b826001600160a01b0316846001600160a01b03161062000e6357828462000e66565b83835b90925090506001600160a01b03821662000ec7576040805162461bcd60e51b815260206004820152601e60248201527f556e697377617056324c6962726172793a205a45524f5f414444524553530000604482015290519081900360640190fd5b9250929050565b600080600062000edf858562000deb565b604080516001600160601b0319606094851b811660208084019190915293851b81166034830152825160288184030181526048830184528051908501206001600160f81b031960688401529a90941b9093166069840152607d8301989098527f96e8ac4277198ff8b6f785478aa9a39f403cb768dd02cbee326c3e7da348845f609d808401919091528851808403909101815260bd909201909752805196019590952095945050505050565b611676806200102b83390190565b82805482825590600052602060002090810192821562000ff1579160200282015b8281111562000ff157825182546001600160a01b0319166001600160a01b0390911617825560209092019160019091019062000fba565b5062000fff92915062001003565b5090565b620002f291905b8082111562000fff5780546001600160a01b03191681556001016200100a56fe60806040523480156200001157600080fd5b506040516200167638038062001676833981810160405260608110156200003757600080fd5b508051602082015160409092015190919060006200005d6001600160e01b036200045d16565b600080546001600160a01b0319166001600160a01b0383169081178255604051929350917f8be0079c531659141344cd1fd0a4f28419497f9722a3daafe3b4186f6b6457e0908290a350806001600160a01b0316826001600160a01b0316141562000103576040805160208082018352600191829052600780546001600160e01b0319908116841790915583519182019093528190526008805490921617905562000454565b60006200011d8484846200046160201b620009d21760201c565b905080600160006101000a8154816001600160a01b0302191690836001600160a01b03160217905550806001600160a01b0316630dfe16816040518163ffffffff1660e01b815260040160206040518083038186803b1580156200018057600080fd5b505afa15801562000195573d6000803e3d6000fd5b505050506040513d6020811015620001ac57600080fd5b5051600280546001600160a01b0319166001600160a01b039283161790556040805163d21220a760e01b815290519183169163d21220a791600480820192602092909190829003018186803b1580156200020557600080fd5b505afa1580156200021a573d6000803e3d6000fd5b505050506040513d60208110156200023157600080fd5b5051600380546001600160a01b0319166001600160a01b0392831617905560408051635909c0d560e01b8152905191831691635909c0d591600480820192602092909190829003018186803b1580156200028a57600080fd5b505afa1580156200029f573d6000803e3d6000fd5b505050506040513d6020811015620002b657600080fd5b5051600490815560408051635a3d549360e01b815290516001600160a01b03841692635a3d549392808201926020929091829003018186803b158015620002fc57600080fd5b505afa15801562000311573d6000803e3d6000fd5b505050506040513d60208110156200032857600080fd5b505160055560408051630240bc6b60e21b8152905160009182916001600160a01b03851691630902f1ac916004808301926060929190829003018186803b1580156200037357600080fd5b505afa15801562000388573d6000803e3d6000fd5b505050506040513d60608110156200039f57600080fd5b50805160208201516040909201516006805463ffffffff191663ffffffff909216919091179055925090506001600160701b03821615801590620003eb57506001600160701b03811615155b6200043d576040805162461bcd60e51b815260206004820181905260248201527f4578616d706c654f7261636c6553696d706c653a204e4f5f5245534552564553604482015290519081900360640190fd5b620004506001600160e01b036200053e16565b5050505b505050620009f2565b3390565b600080806200047a85856001600160e01b036200064316565b604080516001600160601b0319606094851b811660208084019190915293851b81166034830152825160288184030181526048830184528051908501207fff0000000000000000000000000000000000000000000000000000000000000060688401529a90941b9093166069840152607d8301989098527f96e8ac4277198ff8b6f785478aa9a39f403cb768dd02cbee326c3e7da348845f609d808401919091528851808403909101815260bd909201909752805196019590952095945050505050565b60008060006200056e600160009054906101000a90046001600160a01b03166200072660201b620007311760201c565b600654929550909350915063ffffffff908116820390610e10908216106200063d5760405180602001604052808263ffffffff16600454870381620005af57fe5b046001600160e01b039081169091529051600780546001600160e01b031916919092161790556040805160208101909152600554819063ffffffff841690860381620005f757fe5b046001600160e01b039081169091529051600880546001600160e01b03191691909216179055600484905560058390556006805463ffffffff191663ffffffff84161790555b50505050565b600080826001600160a01b0316846001600160a01b03161415620006995760405162461bcd60e51b8152600401808060200182810382526025815260200180620016516025913960400191505060405180910390fd5b826001600160a01b0316846001600160a01b031610620006bb578284620006be565b83835b90925090506001600160a01b0382166200071f576040805162461bcd60e51b815260206004820152601e60248201527f556e697377617056324c6962726172793a205a45524f5f414444524553530000604482015290519081900360640190fd5b9250929050565b600080806200073d6001600160e01b036200092916565b9050836001600160a01b0316635909c0d56040518163ffffffff1660e01b815260040160206040518083038186803b1580156200077957600080fd5b505afa1580156200078e573d6000803e3d6000fd5b505050506040513d6020811015620007a557600080fd5b505160408051635a3d549360e01b815290519194506001600160a01b03861691635a3d549391600480820192602092909190829003018186803b158015620007ec57600080fd5b505afa15801562000801573d6000803e3d6000fd5b505050506040513d60208110156200081857600080fd5b505160408051630240bc6b60e21b81529051919350600091829182916001600160a01b03891691630902f1ac916004808301926060929190829003018186803b1580156200086557600080fd5b505afa1580156200087a573d6000803e3d6000fd5b505050506040513d60608110156200089157600080fd5b5080516020820151604090920151909450909250905063ffffffff808216908516146200091f57600081850390508063ffffffff16620008dd84866200093360201b6200090a1760201c565b600001516001600160e01b031602870196508063ffffffff166200090d85856200093360201b6200090a1760201c565b516001600160e01b0316029590950194505b5050509193909250565b63ffffffff421690565b6200093d620009e0565b6000826001600160701b0316116200099c576040805162461bcd60e51b815260206004820152601760248201527f4669786564506f696e743a204449565f42595f5a45524f000000000000000000604482015290519081900360640190fd5b6040805160208101909152806001600160701b038416600160701b600160e01b03607087901b1681620009cb57fe5b046001600160e01b0316815250905092915050565b60408051602081019091526000815290565b610c4f8062000a026000396000f3fe608060405234801561001057600080fd5b50600436106100d05760003560e01c80630dfe1681146100d55780635909c0d5146100f95780635a3d5493146101135780635e6aaf2c1461011b578063715018a61461013f5780637eeda703146101495780638da5cb5b14610151578063a2e6204514610159578063a6bb453914610161578063a8aa1b3114610169578063a9fecbf114610171578063b4d1d7951461019d578063c5700a02146101a5578063d21220a7146101c6578063d7dcdcec146101ce578063f2fde38b146101d6575b600080fd5b6100dd6101fc565b604080516001600160a01b039092168252519081900360200190f35b61010161020b565b60408051918252519081900360200190f35b610101610211565b610123610217565b604080516001600160e01b039092168252519081900360200190f35b610147610226565b005b6101016102b6565b6100dd610367565b610147610376565b610123610464565b6100dd610473565b6101016004803603604081101561018757600080fd5b506001600160a01b038135169060200135610482565b610101610569565b6101ad61056f565b6040805163ffffffff9092168252519081900360200190f35b6100dd61057b565b61010161058a565b610147600480360360208110156101ec57600080fd5b50356001600160a01b03166105c2565b6002546001600160a01b031681565b60045481565b60055481565b6008546001600160e01b031681565b61022e6106a8565b6000546001600160a01b0390811691161461027e576040805162461bcd60e51b81526020600482018190526024820152600080516020610bb7833981519152604482015290519081900360640190fd5b600080546040516001600160a01b0390911690600080516020610bd7833981519152908390a3600080546001600160a01b0319169055565b6003546002546000916001600160a01b03918216911614610323576102d9610376565b60408051602081019091526007546001600160e01b031681526103139061030e90670de0b6b3a764000063ffffffff6106ac16565b61072a565b6001600160901b03169050610364565b60408051602081019091526007546001600160e01b031681526103589061030e90670de0b6b3a764000063ffffffff6106ac16565b6001600160901b031690505b90565b6000546001600160a01b031690565b60015460009081908190610392906001600160a01b0316610731565b600654929550909350915063ffffffff908116820390610e109082161061045e5760405180602001604052808263ffffffff166004548703816103d157fe5b046001600160e01b039081169091529051600780546001600160e01b031916919092161790556040805160208101909152600554819063ffffffff84169086038161041857fe5b046001600160e01b039081169091529051600880546001600160e01b03191691909216179055600484905560058390556006805463ffffffff191663ffffffff84161790555b50505050565b6007546001600160e01b031681565b6001546001600160a01b031681565b6002546000906001600160a01b03848116911614156104d85760408051602081019091526007546001600160e01b031681526104c89061030e908463ffffffff6106ac16565b6001600160901b03169050610563565b6003546001600160a01b0384811691161461052a576040805162461bcd60e51b815260206004820152600d60248201526c24a72b20a624a22faa27a5a2a760991b604482015290519081900360640190fd5b60408051602081019091526008546001600160e01b031681526105579061030e908463ffffffff6106ac16565b6001600160901b031690505b92915050565b610e1081565b60065463ffffffff1681565b6003546001600160a01b031681565b60408051602081019091526007546001600160e01b031681526000906103589061030e90670de0b6b3a764000063ffffffff6106ac16565b6105ca6106a8565b6000546001600160a01b0390811691161461061a576040805162461bcd60e51b81526020600482018190526024820152600080516020610bb7833981519152604482015290519081900360640190fd5b6001600160a01b03811661065f5760405162461bcd60e51b8152600401808060200182810382526026815260200180610b6c6026913960400191505060405180910390fd5b600080546040516001600160a01b0380851693921691600080516020610bd783398151915291a3600080546001600160a01b0319166001600160a01b0392909216919091179055565b3390565b6106b46109ad565b60008215806106da57505082516001600160e01b0316828102908382816106d757fe5b04145b6107155760405162461bcd60e51b8152600401808060200182810382526023815260200180610bf76023913960400191505060405180910390fd5b60408051602081019091529081529392505050565b5160701c90565b600080600061073e610900565b9050836001600160a01b0316635909c0d56040518163ffffffff1660e01b815260040160206040518083038186803b15801561077957600080fd5b505afa15801561078d573d6000803e3d6000fd5b505050506040513d60208110156107a357600080fd5b505160408051635a3d549360e01b815290519194506001600160a01b03861691635a3d549391600480820192602092909190829003018186803b1580156107e957600080fd5b505afa1580156107fd573d6000803e3d6000fd5b505050506040513d602081101561081357600080fd5b505160408051630240bc6b60e21b81529051919350600091829182916001600160a01b03891691630902f1ac916004808301926060929190829003018186803b15801561085f57600080fd5b505afa158015610873573d6000803e3d6000fd5b505050506040513d606081101561088957600080fd5b5080516020820151604090920151909450909250905063ffffffff808216908516146108f65780840363ffffffff81166108c3848661090a565b516001600160e01b031602969096019563ffffffff81166108e4858561090a565b516001600160e01b0316029590950194505b5050509193909250565b63ffffffff421690565b6109126109c0565b6000826001600160701b03161161096a576040805162461bcd60e51b81526020600482015260176024820152764669786564506f696e743a204449565f42595f5a45524f60481b604482015290519081900360640190fd5b6040805160208101909152806001600160701b038416600160701b600160e01b03607087901b168161099857fe5b046001600160e01b0316815250905092915050565b6040518060200160405280600081525090565b60408051602081019091526000815290565b60008060006109e18585610a8d565b604080516001600160601b0319606094851b811660208084019190915293851b81166034830152825160288184030181526048830184528051908501206001600160f81b031960688401529a90941b9093166069840152607d8301989098527f96e8ac4277198ff8b6f785478aa9a39f403cb768dd02cbee326c3e7da348845f609d808401919091528851808403909101815260bd909201909752805196019590952095945050505050565b600080826001600160a01b0316846001600160a01b03161415610ae15760405162461bcd60e51b8152600401808060200182810382526025815260200180610b926025913960400191505060405180910390fd5b826001600160a01b0316846001600160a01b031610610b01578284610b04565b83835b90925090506001600160a01b038216610b64576040805162461bcd60e51b815260206004820152601e60248201527f556e697377617056324c6962726172793a205a45524f5f414444524553530000604482015290519081900360640190fd5b925092905056fe4f776e61626c653a206e6577206f776e657220697320746865207a65726f2061646472657373556e697377617056324c6962726172793a204944454e544943414c5f4144445245535345534f776e61626c653a2063616c6c6572206973206e6f7420746865206f776e65728be0079c531659141344cd1fd0a4f28419497f9722a3daafe3b4186f6b6457e04669786564506f696e743a204d554c5449504c49434154494f4e5f4f564552464c4f57a26469706673582212208c6f545d4349205fe1757401634bee51692cde7df263c9b9dced3bab560b7b6e64736f6c63430006060033556e697377617056324c6962726172793a204944454e544943414c5f4144445245535345534f776e61626c653a206e6577206f776e657220697320746865207a65726f2061646472657373556e697377617056324c6962726172793a204944454e544943414c5f414444524553534553546f6b656e206e6f7420726567697374657265642077697468206120555344432070616972696e674f776e61626c653a2063616c6c6572206973206e6f7420746865206f776e65728be0079c531659141344cd1fd0a4f28419497f9722a3daafe3b4186f6b6457e0a2646970667358221220bf76962d83c38cd389d98bcfb1ca5521e09826fdbaf0dc022861fb1711a6fda864736f6c63430006060033",
  "immutableReferences": {},
  "source": "pragma solidity ^0.6.2;\r\n\r\nimport \"@openzeppelin/contracts/access/Ownable.sol\";\r\n\r\nimport \"@uniswap/v2-periphery/contracts/UniswapV2Router02.sol\";\r\nimport \"@uniswap/v2-periphery/contracts/libraries/UniswapV2Library.sol\";\r\nimport \"./UniswapLPOracleInstance.sol\";\r\nimport \"./interfaces/ExtendedIERC20.sol\";\r\n\r\n////////////////////////////////////////////////////////////////////////////////////////////\r\n/// @title UniswapLPOracleFactory\r\n/// @author Christopher Dixon\r\n////////////////////////////////////////////////////////////////////////////////////////////\r\n/**\r\nThe UniswapLPOracleFactory contract is designed to produce individual UniswapLPOracleInstance contracts\r\nThis contract uses the OpenZeppelin contract Library to inherit functions from\r\n  Ownable.sol\r\n**/\r\n\r\ncontract UniswapLPOracleFactory is Ownable {\r\n    using SafeMath for uint256;\r\n    address public usdc_add;\r\n    address public factory;\r\n    IUniswapV2Router02 public uniswapRouter;\r\n\r\n    mapping(address => address[]) LPAssetTracker;\r\n    mapping(address => address) instanceTracker;\r\n    mapping(address => address) public tokenToUSDC;\r\n\r\n    /**\r\n@notice constructor function is fired once during contract creation. This constructor initializes uniswapRouter\r\n        as a usable contract instance within the UniswapLPOracleFactory\r\n@param usdcAdd is the address of the ERC20 USDC address\r\n@param _uniFactoryAdd is the address of the uniswap factory contract\r\n**/\r\n    constructor(\r\n        address usdcAdd,\r\n        address _uniFactoryAdd,\r\n        address _uniRouterAddress\r\n    ) public {\r\n        uniswapRouter = IUniswapV2Router02(_uniRouterAddress);\r\n        usdc_add = usdcAdd;\r\n        factory = _uniFactoryAdd;\r\n    }\r\n\r\n    function USDC() public view returns (address) {\r\n        return usdc_add;\r\n    }\r\n\r\n    function OneUSDC() public view returns (uint256) {\r\n        ExtendedIERC20 token = ExtendedIERC20(usdc_add);\r\n        return uint256(10) ** uint256(token.decimals());\r\n    }\r\n\r\n    /**\r\n  @notice createNewOracle allows the owner of this contract to deploy deploy two new asset oracle contracts\r\n          when a new LP token is whitelisted. this contract will link the address of an LP token contract to\r\n          two seperate oracles that are designed to look up the price of their respective assets in USDC. This\r\n          will allow us to calculate the price of one at LP token token from the prices of their underlying assets\r\n\r\n  @param _tokenA is the address of the first token in an Liquidity pair\r\n  @param _tokenB is the address of the second token in a liquidity pair\r\n  @param _lpToken is the address of the token that this oracle will provide a price feed for\r\n  **/\r\n    function createNewOracles(\r\n        address _tokenA,\r\n        address _tokenB,\r\n        address _lpToken\r\n    ) public onlyOwner {\r\n        address oracle1 = tokenToUSDC[_tokenA];\r\n        if (oracle1 == address(0)) {\r\n            oracle1 = address(\r\n                new UniswapLPOracleInstance(factory, _tokenA, usdc_add)\r\n            );\r\n            tokenToUSDC[_tokenA] = oracle1;\r\n        }\r\n\r\n        address oracle2 = tokenToUSDC[_tokenB];\r\n        if (oracle2 == address(0)) {\r\n            oracle2 = address(\r\n                new UniswapLPOracleInstance(factory, _tokenB, usdc_add)\r\n            );\r\n            tokenToUSDC[_tokenB] = oracle2;\r\n        }\r\n\r\n        LPAssetTracker[_lpToken] = [oracle1, oracle2];\r\n        instanceTracker[oracle1] = _tokenA;\r\n        instanceTracker[oracle2] = _tokenB;\r\n    }\r\n\r\n    /**\r\n@notice getUnderlyingPrice allows for the price calculation and retrieval of a LP tokens price\r\n@param _lpToken is the address of the LP token  whos asset price is being retrieved\r\n@return returns the price of one LP token\r\n**/\r\n    function getUnderlyingPrice(address _lpToken) public returns (uint256) {\r\n        address[] memory oracleAdds = LPAssetTracker[_lpToken];\r\n        //retreives the oracle contract addresses for each asset that makes up a LP\r\n        UniswapLPOracleInstance oracle1 = UniswapLPOracleInstance(\r\n            oracleAdds[0]\r\n        );\r\n        UniswapLPOracleInstance oracle2 = UniswapLPOracleInstance(\r\n            oracleAdds[1]\r\n        );\r\n        // instantiates both ase usable oracle instances\r\n        uint256 priceAsset1 = oracle1.consult();\r\n        uint256 priceAsset2 = oracle2.consult();\r\n        //retreives the USDC price of one of each asset\r\n        IERC20 lpToken = IERC20(_lpToken);\r\n        //instantiates the LP token as an ERC20 token\r\n        uint256 totalSupplyOfLP = lpToken.totalSupply();\r\n        //retreives the total supply of the LP token\r\n        (uint256 reserveA, uint256 reserveB) = UniswapV2Library.getReserves(\r\n            factory,\r\n            instanceTracker[oracleAdds[0]],\r\n            instanceTracker[oracleAdds[1]]\r\n        );\r\n        //retreives the reserves of each  asset in the liquidity pool\r\n        uint256 reserveAUSDCprice = reserveA.mul(priceAsset1);\r\n        uint256 reserveBUSDCprice = reserveB.mul(priceAsset2);\r\n        //get USDC value for each reserve\r\n        uint256 totalUSDCpriceOfPool = reserveAUSDCprice.add(reserveBUSDCprice);\r\n        //add values together to get total USDC of the pool\r\n        return totalUSDCpriceOfPool / totalSupplyOfLP;\r\n        //return USDC price of the pool divided by totalSupply of its LPs to get price\r\n        //of one LP\r\n    }\r\n\r\n    /**\r\n  @notice viewUnderlyingPrice allows for the price retrieval of a LP tokens price\r\n  @param _lpToken is the address of the LP token  whos asset price is being retrieved\r\n  @return returns the price of one LP token\r\n  **/\r\n    function viewUnderlyingPrice(address _lpToken)\r\n        public\r\n        view\r\n        returns (uint256)\r\n    {\r\n        address[] memory oracleAdds = LPAssetTracker[_lpToken];\r\n        //retreives the oracle contract addresses for each asset that makes up a LP\r\n        UniswapLPOracleInstance oracle1 = UniswapLPOracleInstance(\r\n            oracleAdds[0]\r\n        );\r\n        UniswapLPOracleInstance oracle2 = UniswapLPOracleInstance(\r\n            oracleAdds[1]\r\n        );\r\n        // instantiates both ase usable oracle instances\r\n        uint256 priceAsset1 = oracle1.viewPrice();\r\n        uint256 priceAsset2 = oracle2.viewPrice();\r\n        //retreives the USDC price of one of each asset\r\n        IERC20 lpToken = IERC20(_lpToken);\r\n        //instantiates the LP token as an ERC20 token\r\n        uint256 totalSupplyOfLP = lpToken.totalSupply();\r\n        //retreives the total supply of the LP token\r\n        (uint256 reserveA, uint256 reserveB) = UniswapV2Library.getReserves(\r\n            factory,\r\n            instanceTracker[oracleAdds[0]],\r\n            instanceTracker[oracleAdds[1]]\r\n        );\r\n        //retreives the reserves of each  asset in the liquidity pool\r\n        uint256 reserveAUSDCprice = reserveA.mul(priceAsset1);\r\n        uint256 reserveBUSDCprice = reserveB.mul(priceAsset2);\r\n        //get USDC value for each reserve\r\n        uint256 totalUSDCpriceOfPool = reserveAUSDCprice.add(reserveBUSDCprice);\r\n        //add values together to get total USDC of the pool\r\n        return totalUSDCpriceOfPool / totalSupplyOfLP;\r\n        //return USDC price of the pool divided by totalSupply of its LPs to get price\r\n        //of one LP\r\n    }\r\n\r\n    function viewPriceOfToken(address _token) public view returns (uint256) {\r\n        require(\r\n            tokenToUSDC[_token] != address(0),\r\n            \"Token not registered with a USDC pairing\"\r\n        );\r\n\r\n        UniswapLPOracleInstance oracle = UniswapLPOracleInstance(\r\n            tokenToUSDC[_token]\r\n        );\r\n        return oracle.viewPrice();\r\n    }\r\n}\r\n",
  "sourcePath": "E:/dOrg/warp/Smart-Contracts/contracts/UniswapLPOracleFactory.sol",
  "compiler": {
    "name": "solc",
    "version": "0.6.6+commit.6c089d02.Emscripten.clang"
  },
  "schemaVersion": "3.3.1",
  "updatedAt": "2020-11-25T20:43:09.116Z",
  "devdoc": {
    "methods": {
      "constructor": {
        "params": {
          "_uniFactoryAdd": "is the address of the uniswap factory contract*",
          "usdcAdd": "is the address of the ERC20 USDC address"
        }
      },
      "createNewOracles(address,address,address)": {
        "params": {
          "_lpToken": "is the address of the token that this oracle will provide a price feed for*",
          "_tokenA": "is the address of the first token in an Liquidity pair",
          "_tokenB": "is the address of the second token in a liquidity pair"
        }
      },
      "getUnderlyingPrice(address)": {
        "params": {
          "_lpToken": "is the address of the LP token  whos asset price is being retrieved"
        },
        "returns": {
          "_0": "returns the price of one LP token*"
        }
      },
      "owner()": {
        "details": "Returns the address of the current owner."
      },
      "renounceOwnership()": {
        "details": "Leaves the contract without owner. It will not be possible to call `onlyOwner` functions anymore. Can only be called by the current owner.     * NOTE: Renouncing ownership will leave the contract without an owner, thereby removing any functionality that is only available to the owner."
      },
      "transferOwnership(address)": {
        "details": "Transfers ownership of the contract to a new account (`newOwner`). Can only be called by the current owner."
      },
      "viewUnderlyingPrice(address)": {
        "params": {
          "_lpToken": "is the address of the LP token  whos asset price is being retrieved"
        },
        "returns": {
          "_0": "returns the price of one LP token*"
        }
      }
    }
  },
  "userdoc": {
    "methods": {
      "constructor": "constructor function is fired once during contract creation. This constructor initializes uniswapRouter as a usable contract instance within the UniswapLPOracleFactory",
      "createNewOracles(address,address,address)": {
        "notice": "createNewOracle allows the owner of this contract to deploy deploy two new asset oracle contracts when a new LP token is whitelisted. this contract will link the address of an LP token contract to two seperate oracles that are designed to look up the price of their respective assets in USDC. This will allow us to calculate the price of one at LP token token from the prices of their underlying assets"
      },
      "getUnderlyingPrice(address)": {
        "notice": "getUnderlyingPrice allows for the price calculation and retrieval of a LP tokens price"
      },
      "viewUnderlyingPrice(address)": {
        "notice": "viewUnderlyingPrice allows for the price retrieval of a LP tokens price"
      }
    },
    "notice": "The UniswapLPOracleFactory contract is designed to produce individual UniswapLPOracleInstance contracts This contract uses the OpenZeppelin contract Library to inherit functions from Ownable.sol*"
  }
}