{
  "contractName": "WarpVaultSCFactory",
  "abi": [
    {
      "anonymous": false,
      "inputs": [
        {
          "indexed": true,
          "internalType": "address",
          "name": "previousOwner",
          "type": "address"
        },
        {
          "indexed": true,
          "internalType": "address",
          "name": "newOwner",
          "type": "address"
        }
      ],
      "name": "OwnershipTransferred",
      "type": "event"
    },
    {
      "inputs": [],
      "name": "owner",
      "outputs": [
        {
          "internalType": "address",
          "name": "",
          "type": "address"
        }
      ],
      "stateMutability": "view",
      "type": "function"
    },
    {
      "inputs": [],
      "name": "renounceOwnership",
      "outputs": [],
      "stateMutability": "nonpayable",
      "type": "function"
    },
    {
      "inputs": [
        {
          "internalType": "address",
          "name": "newOwner",
          "type": "address"
        }
      ],
      "name": "transferOwnership",
      "outputs": [],
      "stateMutability": "nonpayable",
      "type": "function"
    },
    {
      "inputs": [
        {
          "internalType": "address",
          "name": "_InterestRate",
          "type": "address"
        },
        {
          "internalType": "address",
          "name": "_StableCoin",
          "type": "address"
        },
        {
          "internalType": "address",
          "name": "_warpTeam",
          "type": "address"
        },
        {
          "internalType": "uint256",
          "name": "_initialExchangeRate",
          "type": "uint256"
        },
        {
          "internalType": "uint256",
          "name": "_timelock",
          "type": "uint256"
        }
      ],
      "name": "createNewWarpVaultSC",
      "outputs": [
        {
          "internalType": "address",
          "name": "",
          "type": "address"
        }
      ],
      "stateMutability": "nonpayable",
      "type": "function"
    }
  ],
  "bytecode": "0x608060405260006100176001600160e01b0361006616565b600080546001600160a01b0319166001600160a01b0383169081178255604051929350917f8be0079c531659141344cd1fd0a4f28419497f9722a3daafe3b4186f6b6457e0908290a35061006a565b3390565b614310806100796000396000f3fe608060405234801561001057600080fd5b506004361061004c5760003560e01c8063715018a6146100515780638da5cb5b1461005b578063cee04a561461007f578063f2fde38b146100c1575b600080fd5b6100596100e7565b005b610063610179565b604080516001600160a01b039092168252519081900360200190f35b610063600480360360a081101561009557600080fd5b506001600160a01b03813581169160208101358216916040820135169060608101359060800135610188565b610059600480360360208110156100d757600080fd5b50356001600160a01b0316610259565b6100ef610342565b6000546001600160a01b03908116911614610140576040805162461bcd60e51b815260206004820181905260248201526000805160206200429b833981519152604482015290519081900360640190fd5b600080546040516001600160a01b0390911690600080516020620042bb833981519152908390a3600080546001600160a01b0319169055565b6000546001600160a01b031690565b6000610192610342565b6000546001600160a01b039081169116146101e3576040805162461bcd60e51b815260206004820181905260248201526000805160206200429b833981519152604482015290519081900360640190fd5b60008686338787876040516101f790610346565b6001600160a01b0396871681529486166020860152928516604080860191909152919094166060840152608083019390935260a082015290519081900360c001906000f08015801561024d573d6000803e3d6000fd5b50979650505050505050565b610261610342565b6000546001600160a01b039081169116146102b2576040805162461bcd60e51b815260206004820181905260248201526000805160206200429b833981519152604482015290519081900360640190fd5b6001600160a01b0381166102f85760405162461bcd60e51b8152600401808060200182810382526026815260200180620042756026913960400191505060405180910390fd5b600080546040516001600160a01b0380851693921691600080516020620042bb83398151915291a3600080546001600160a01b0319166001600160a01b0392909216919091179055565b3390565b613f2080620003558339019056fe608060405260326007556105dc6008556127106009553480156200002257600080fd5b5060405162003f2038038062003f20833981810160405260c08110156200004857600080fd5b508051602082015160408301516060840151608085015160a09095015193949293919290916000620000826001600160e01b036200051916565b600080546001600160a01b0319166001600160a01b0383169081178255604051929350917f8be0079c531659141344cd1fd0a4f28419497f9722a3daafe3b4186f6b6457e0908290a350600e80546001600160a01b038087166001600160a01b031992831617909255600c8054888416908316179055600f8054928916929091169190911790556200011c6001600160e01b036200051d16565b600355670de0b6b3a76400006004556001829055600b80546001600160a01b0319166001600160a01b03851617905562000163428262000521602090811b62001edc17901c565b600a55600c54604080516306fdde0360e01b815290516001600160a01b039092169182916306fdde03916004808301926000929190829003018186803b158015620001ad57600080fd5b505afa158015620001c2573d6000803e3d6000fd5b505050506040513d6000823e601f3d908101601f191682016040526020811015620001ec57600080fd5b81019080805160405193929190846401000000008211156200020d57600080fd5b9083019060208201858111156200022357600080fd5b82516401000000008111828201881017156200023e57600080fd5b82525081516020918201929091019080838360005b838110156200026d57818101518382015260200162000253565b50505050905090810190601f1680156200029b5780820380516001836020036101000a031916815260200191505b506040818152600c546395d89b4160e01b835290516001600160a01b0390911694506395d89b41935060048083019350600092829003018186803b158015620002e357600080fd5b505afa158015620002f8573d6000803e3d6000fd5b505050506040513d6000823e601f3d908101601f1916820160405260208110156200032257600080fd5b81019080805160405193929190846401000000008211156200034357600080fd5b9083019060208201858111156200035957600080fd5b82516401000000008111828201881017156200037457600080fd5b82525081516020918201929091019080838360005b83811015620003a357818101518382015260200162000389565b50505050905090810190601f168015620003d15780820380516001836020036101000a031916815260200191505b50604052505050604051620003e69062000583565b6001600160a01b0384168152606060208083018281528551928401929092528451604084019160808501919087019080838360005b83811015620004355781810151838201526020016200041b565b50505050905090810190601f168015620004635780820380516001836020036101000a031916815260200191505b50838103825284518152845160209182019186019080838360005b83811015620004985781810151838201526020016200047e565b50505050905090810190601f168015620004c65780820380516001836020036101000a031916815260200191505b5095505050505050604051809103906000f080158015620004eb573d6000803e3d6000fd5b50600d80546001600160a01b0319166001600160a01b03929092169190911790555062000591945050505050565b3390565b4390565b6000828201838110156200057c576040805162461bcd60e51b815260206004820152601b60248201527f536166654d6174683a206164646974696f6e206f766572666c6f770000000000604482015290519081900360640190fd5b9392505050565b6113558062002bcb83390190565b61262a80620005a16000396000f3fe608060405234801561001057600080fd5b50600436106101b75760003560e01c806306dd2e6e146101bc5780630e752702146101d6578063122b5818146101f5578063173b99041461021957806317bfdfbc146102215780631f2dc5ef14610247578063232d46d21461024f57806336820e4b1461027b5780633b1d21a2146102a157806347bd3718146102a957806348dc0b6e146102b15780634ee8acc0146102b95780635cf57389146102c15780636c540baf146102c9578063715018a6146102d157806373acee98146102d95780637746efab146102e15780637f7142be146103075780638382ac0c1461030f5780638da5cb5b1461033b5780638f7bf4fd146103435780638f840ddd14610369578063a6afed9514610371578063aa5af0fd14610379578063ab292f9b14610381578063ae9d70b0146103b7578063bd6d894d146103bf578063cb7b4206146103c7578063cd5c6f57146103cf578063d40e8f4a146103d7578063db006a7514610416578063e4d8cbe514610433578063e6136ab614610458578063e68fc0ee1461047e578063e9cbd822146104a4578063f2fde38b146104ac578063f8f9da28146104d2575b600080fd5b6101c46104da565b60408051918252519081900360200190f35b6101f3600480360360208110156101ec57600080fd5b50356104e0565b005b6101fd610931565b604080516001600160a01b039092168252519081900360200190f35b6101c4610940565b6101c46004803603602081101561023757600080fd5b50356001600160a01b0316610946565b6101c4610961565b6101f36004803603604081101561026557600080fd5b50803590602001356001600160a01b0316610967565b6101c46004803603602081101561029157600080fd5b50356001600160a01b0316610b0b565b6101c4610b1d565b6101c4610b2d565b6101fd610b33565b6101fd610b42565b6101fd610b51565b6101c4610b60565b6101f3610b66565b6101c4610bf6565b6101c4600480360360208110156102f757600080fd5b50356001600160a01b0316610c07565b6101c4610caa565b6101f36004803603604081101561032557600080fd5b50803590602001356001600160a01b0316610cb0565b6101fd610f41565b6101c46004803603602081101561035957600080fd5b50356001600160a01b0316610f50565b6101c4611005565b6101f361100b565b6101c461127d565b6101f36004803603606081101561039757600080fd5b506001600160a01b03813581169160208101359091169060400135611283565b6101c4611400565b6101c461149f565b6101c46115f0565b6101c46115f6565b6103fd600480360360208110156103ed57600080fd5b50356001600160a01b031661163b565b6040805192835260208301919091528051918290030190f35b6101f36004803603602081101561042c57600080fd5b5035611654565b6101c46004803603604081101561044957600080fd5b50803590602001351515611b6b565b6101c46004803603602081101561046e57600080fd5b50356001600160a01b0316611bc8565b6101c46004803603602081101561049457600080fd5b50356001600160a01b0316611d02565b6101fd611d14565b6101f3600480360360208110156104c257600080fd5b50356001600160a01b0316611d23565b6101c4611e09565b60085481565b600a5442116104ee57600080fd5b6104f6612436565b6104ff33610946565b606082018190528211156105445760405162461bcd60e51b815260040180806020018281038252602c815260200180612522602c913960400191505060405180910390fd5b336000818152601060208181526040808420805460e0880152949093525260019091015490820152816105805760608101516020820152610588565b602081018290525b602080820151600c54604080516370a0823160e01b8152336004820152905192936001600160a01b03909216926370a0823192602480840193919291829003018186803b1580156105d857600080fd5b505afa1580156105ec573d6000803e3d6000fd5b505050506040513d602081101561060257600080fd5b50511015610657576040805162461bcd60e51b815260206004820152601e60248201527f4e6f7420656e6f75676820737461626c65636f696e20746f2072657061790000604482015290519081900360640190fd5b600c54602080830151604080516323b872dd60e01b81523360048201523060248201526044810192909252516001600160a01b03909316926323b872dd926064808401939192918290030181600087803b1580156106b457600080fd5b505af11580156106c8573d6000803e3d6000fd5b505050506040513d60208110156106de57600080fd5b5050606081015160208201516106f49190611e6d565b608083018190528282600381111561070857fe5b600381111561071357fe5b81525050506107286005548260200151611e6d565b60a083018190528282600381111561073c57fe5b600381111561074757fe5b9052505033600090815260106020526040902054821161078857608081015133600090815260106020526040908190209182558201516001909101556107f1565b3360009081526010602052604090205460808201516107ac9163ffffffff611e9316565b610100820190815233600090815260106020526040812090815590516001909101546107dd9163ffffffff611e9316565b336000908152601060205260409020600101555b60a08101516005553360009081526010602052604090206001810154905461081e9163ffffffff611edc16565b60c08201526101008101516000906108369082611b6b565b9050600061084a848363ffffffff611e9316565b600c54600b546040805163a9059cbb60e01b81526001600160a01b03928316600482015260248101879052905193945091169163a9059cbb916044808201926020929091908290030181600087803b1580156108a557600080fd5b505af11580156108b9573d6000803e3d6000fd5b505050506040513d60208110156108cf57600080fd5b50503360008181526010602090815260409182902080546001909101548351948552918401859052838301526060830152517f0bc102cfc64751888477c44e529873a602bf746175b1e41c6b54e45f926f90f99181900360800190a150505050565b600e546001600160a01b031681565b60025481565b600061095061100b565b61095982610c07565b90505b919050565b60095481565b600e546001600160a01b0316331461097e57600080fd5b600a54421161098c57600080fd5b610994612483565b8261099d611f34565b116109eb576040805162461bcd60e51b8152602060048201526019602482015278139bdd08195b9bdd59da081d1bdad95b9cc81d1bc81b195b99603a1b604482015290519081900360640190fd5b6109f482610c07565b60208201819052610a059084611f7f565b6040830181905282826003811115610a1957fe5b6003811115610a2457fe5b8152505050610a3560055484611f7f565b6060830181905282826003811115610a4957fe5b6003811115610a5457fe5b905250506040808201516001600160a01b03808516600081815260106020908152858220948555600480546001909601959095556060870151600555600c54865163a9059cbb60e01b815295860193909352602485018990529451919092169363a9059cbb93604480820194929392918390030190829087803b158015610ada57600080fd5b505af1158015610aee573d6000803e3d6000fd5b505050506040513d6020811015610b0457600080fd5b5050505050565b60126020526000908152604090205481565b6000610b27611f34565b90505b90565b60055481565b600f546001600160a01b031681565b600d546001600160a01b031681565b600b546001600160a01b031681565b60035481565b610b6e611fa5565b6000546001600160a01b03908116911614610bbe576040805162461bcd60e51b815260206004820181905260248201526000805160206125b5833981519152604482015290519081900360640190fd5b600080546040516001600160a01b03909116906000805160206125d5833981519152908390a3600080546001600160a01b0319169055565b6000610c0061100b565b5060055490565b6001600160a01b0381166000908152601060205260408120805482918291829190610c3957600094505050505061095c565b610c498160000154600454611fa9565b90945092506000846003811115610c5c57fe5b14610c6e57600094505050505061095c565b610c7c838260010154611fe8565b90945091506000846003811115610c8f57fe5b14610ca157600094505050505061095c565b50949350505050565b60075481565b610cb86124ac565b610cc061149f565b602080830191825260408051918201905290518152610ce0908490612013565b6040830181905282826003811115610cf457fe5b6003811115610cff57fe5b90525050600c54604080516323b872dd60e01b81523360048201523060248201526044810186905290516001600160a01b03909216916323b872dd916064808201926020929091908290030181600087803b158015610d5d57600080fd5b505af1158015610d71573d6000803e3d6000fd5b505050506040513d6020811015610d8757600080fd5b5050336000908152601160205260409020805484019055600a544211610e9857600e5460408051637a29fea360e01b815233600482015290516001600160a01b0390921691637a29fea391602480820192602092909190829003018186803b158015610df257600080fd5b505afa158015610e06573d6000803e3d6000fd5b505050506040513d6020811015610e1c57600080fd5b5051151560608201819052610e9857600e546040805163856d836b60e01b81526001600160a01b0385811660048301523360248301529151919092169163856d836b91604480830192600092919082900301818387803b158015610e7f57600080fd5b505af1158015610e93573d6000803e3d6000fd5b505050505b600d5460408083015181516340c10f1960e01b8152336004820152602481019190915290516001600160a01b03909216916340c10f199160448082019260009290919082900301818387803b158015610ef057600080fd5b505af1158015610f04573d6000803e3d6000fd5b50505060408083015181513381526020810187905280830191909152905160008051602061254e83398151915292509081900360600190a1505050565b6000546001600160a01b031690565b600080610f5b6115f6565b600d54604080516370a0823160e01b81526001600160a01b038781166004830152915193945060009391909216916370a08231916024808301926020929190829003018186803b158015610fae57600080fd5b505afa158015610fc2573d6000803e3d6000fd5b505050506040513d6020811015610fd857600080fd5b505160408051602081019091528381529091506000908190610ffa9084612066565b979650505050505050565b60065481565b600061101561207d565b60035490915080821415611070576040805162461bcd60e51b815260206004820152601f60248201527f547279696e6720746f2061636372756520696e74657265737420747769636500604482015290519081900360640190fd5b600061107a611f34565b60055460065460048054600f54604080516315f2405360e01b81529384018790526024840186905260448401859052519596509394929390926000926001600160a01b03909216916315f24053916064808301926020929190829003018186803b1580156110e757600080fd5b505afa1580156110fb573d6000803e3d6000fd5b505050506040513d602081101561111157600080fd5b5051905065048c2739500081111561116d576040805162461bcd60e51b815260206004820152601a6024820152792137b93937bb902930ba329036b0b73a34b9b9b09032b93937b960311b604482015290519081900360640190fd5b60008061117a8989611e6d565b915091506111866124d7565b6000806000806111a460405180602001604052808a81525087612081565b90975094506111b3858c612066565b90975093506111c2848c611f7f565b6040805160208101909152600254815291985093506111e290858c6120e9565b90975091506111f2858a806120e9565b80925081985050508d6003819055508060048190555082600581905550816006819055507fe3972ae250606e82c6683843383cb8a51755588d2f443af42e8cb5b1e085392d6003546004546005546006546040518085815260200184815260200183815260200182815260200194505050505060405180910390a15050505050505050505050505050565b60045481565b600e546001600160a01b0316331461129a57600080fd5b600a5442116112a857600080fd5b600c54604080516323b872dd60e01b81526001600160a01b03858116600483015230602483015260448201859052915191909216916323b872dd9160648083019260209291908290030181600087803b15801561130457600080fd5b505af1158015611318573d6000803e3d6000fd5b505050506040513d602081101561132e57600080fd5b506000905061133e826001611b6b565b600c54600b546040805163a9059cbb60e01b81526001600160a01b03928316600482015260248101859052905193945091169163a9059cbb916044808201926020929091908290030181600087803b15801561139957600080fd5b505af11580156113ad573d6000803e3d6000fd5b505050506040513d60208110156113c357600080fd5b50506001600160a01b0384166000908152601060205260408120818155600101556005546113f7908363ffffffff611e9316565b60055550505050565b600f546000906001600160a01b031663b816881661141c611f34565b6005546006546002546040518563ffffffff1660e01b81526004018085815260200184815260200183815260200182815260200194505050505060206040518083038186803b15801561146e57600080fd5b505afa158015611482573d6000803e3d6000fd5b505050506040513d602081101561149857600080fd5b5051905090565b60006114a961100b565b600d60009054906101000a90046001600160a01b03166001600160a01b03166318160ddd6040518163ffffffff1660e01b815260040160206040518083038186803b1580156114f757600080fd5b505afa15801561150b573d6000803e3d6000fd5b505050506040513d602081101561152157600080fd5b50516115305750600154610b2a565b600061153a611f34565b905060006115466124d7565b600061155784600554600654612145565b80945081925050506115e283600d60009054906101000a90046001600160a01b03166001600160a01b03166318160ddd6040518163ffffffff1660e01b815260040160206040518083038186803b1580156115b157600080fd5b505afa1580156115c5573d6000803e3d6000fd5b505050506040513d60208110156115db57600080fd5b5051612183565b519550610b2a945050505050565b600a5481565b600d54604080516318160ddd60e01b815290516000926001600160a01b0316916318160ddd916004808301926020929190829003018186803b1580156114f757600080fd5b6010602052600090815260409020805460019091015482565b600a54421161166257600080fd5b61166a6124ea565b600d54604080516370a0823160e01b815233600482015290516001600160a01b03909216916370a0823191602480820192602092909190829003018186803b1580156116b557600080fd5b505afa1580156116c9573d6000803e3d6000fd5b505050506040513d60208110156116df57600080fd5b505160808201526116ee61149f565b60208083019182526040805191820190529051815261170e908390612013565b604083018190528282600381111561172257fe5b600381111561172d57fe5b90525050600c54604080516370a0823160e01b8152306004820152905184926001600160a01b0316916370a08231916024808301926020929190829003018186803b15801561177b57600080fd5b505afa15801561178f573d6000803e3d6000fd5b505050506040513d60208110156117a557600080fd5b505110156117fa576040805162461bcd60e51b815260206004820152601f60248201527f4e6f7420656e6f75676820737461626c65636f696e20696e207661756c742e00604482015290519081900360640190fd5b61181a604051806020016040528083602001518152508260600151612066565b608083018190528282600381111561182e57fe5b600381111561183957fe5b90525050336000908152601160205260408120546080830151111561187f5733600090815260116020526040902054608083015161187c9163ffffffff611e9316565b90505b61188f838263ffffffff611e9316565b60a083015280831061196457336000908152601260205260409020546118bb908263ffffffff611edc16565b3360009081526012602090815260408083209390935560119052205460a0830151111561192b576040805162461bcd60e51b815260206004820152601960248201527822b93937b91031b0b631bab630ba34b733903932bbb0b9321760391b604482015290519081900360640190fd5b60a08201513360009081526011602052604090205461194f9163ffffffff611e9316565b33600090815260116020526040902055611995565b33600090815260126020526040902054611984908463ffffffff611edc16565b336000908152601260205260409020555b60006119a68360a001516000611b6b565b905060006119ba858363ffffffff611e9316565b600c54600b546040805163a9059cbb60e01b81526001600160a01b03928316600482015260248101879052905193945091169163a9059cbb916044808201926020929091908290030181600087803b158015611a1557600080fd5b505af1158015611a29573d6000803e3d6000fd5b505050506040513d6020811015611a3f57600080fd5b5050600d546040808601518151632770a7eb60e21b8152336004820152602481019190915290516001600160a01b0390921691639dc29fac9160448082019260009290919082900301818387803b158015611a9957600080fd5b505af1158015611aad573d6000803e3d6000fd5b5050600c546040805163a9059cbb60e01b81523360048201526024810186905290516001600160a01b03909216935063a9059cbb92506044808201926020929091908290030181600087803b158015611b0557600080fd5b505af1158015611b19573d6000803e3d6000fd5b505050506040513d6020811015611b2f57600080fd5b505060408085015181513381526020810184905280830191909152905160008051602061254e8339815191529181900360600190a15050505050565b60008115611ba5576000611b9c600954611b906008548761223490919063ffffffff16565b9063ffffffff61228d16565b9150611bc29050565b6000611b9c600954611b906007548761223490919063ffffffff16565b92915050565b600080611bd36115f6565b600d54604080516370a0823160e01b81526001600160a01b038781166004830152915193945060009391909216916370a08231916024808301926020929190829003018186803b158015611c2657600080fd5b505afa158015611c3a573d6000803e3d6000fd5b505050506040513d6020811015611c5057600080fd5b50516001600160a01b03851660009081526011602052604090205490915081611c9557505050506001600160a01b03811660009081526012602052604090205461095c565b600080611cb060405180602001604052808781525085612066565b90925090506000611cc7828563ffffffff611e9316565b6001600160a01b03891660009081526012602052604081205491925090611cf590839063ffffffff611edc16565b9998505050505050505050565b60116020526000908152604090205481565b600c546001600160a01b031681565b611d2b611fa5565b6000546001600160a01b03908116911614611d7b576040805162461bcd60e51b815260206004820181905260248201526000805160206125b5833981519152604482015290519081900360640190fd5b6001600160a01b038116611dc05760405162461bcd60e51b815260040180806020018281038252602681526020018061256e6026913960400191505060405180910390fd5b600080546040516001600160a01b03808516939216916000805160206125d583398151915291a3600080546001600160a01b0319166001600160a01b0392909216919091179055565b600f546000906001600160a01b03166315f24053611e25611f34565b6005546006546040518463ffffffff1660e01b815260040180848152602001838152602001828152602001935050505060206040518083038186803b15801561146e57600080fd5b600080838311611e84575060009050818303611e8c565b506003905060005b9250929050565b6000611ed583836040518060400160405280601e81526020017f536166654d6174683a207375627472616374696f6e206f766572666c6f7700008152506122cc565b9392505050565b600082820183811015611ed5576040805162461bcd60e51b815260206004820152601b60248201527a536166654d6174683a206164646974696f6e206f766572666c6f7760281b604482015290519081900360640190fd5b600c54604080516370a0823160e01b815230600482015290516000926001600160a01b0316916370a08231916024808301926020929190829003018186803b15801561146e57600080fd5b600080838301848110611f9757600092509050611e8c565b506002915060009050611e8c565b3390565b60008083611fbc57506000905080611e8c565b83830283858281611fc957fe5b0414611fdd57506002915060009050611e8c565b600092509050611e8c565b60008082611ffc5750600190506000611e8c565b600083858161200757fe5b04915091509250929050565b60008060006120206124d7565b61202a8686612363565b9092509050600082600381111561203d57fe5b1461204e5750915060009050611e8c565b6000612059826123c2565b9350935050509250929050565b60008060006120736124d7565b61202a8686612081565b4390565b600061208b6124d7565b60008061209c866000015186611fa9565b909250905060008260038111156120af57fe5b146120ce57506040805160208101909152600081529092509050611e8c565b60408051602081019091529081526000969095509350505050565b60008060006120f66124d7565b6121008787612081565b9092509050600082600381111561211357fe5b14612124575091506000905061213d565b612136612130826123c2565b86611f7f565b9350935050505b935093915050565b6000806000806121558787611f7f565b9092509050600082600381111561216857fe5b14612179575091506000905061213d565b6121368186611e6d565b600061218d6124d7565b6000806121a286670de0b6b3a7640000611fa9565b909250905060008260038111156121b557fe5b146121d457506040805160208101909152600081529092509050611e8c565b6000806121e18388611fe8565b909250905060008260038111156121f457fe5b146122175781604051806020016040528060008152509550955050505050611e8c565b604080516020810190915290815260009890975095505050505050565b60008261224357506000611bc2565b8282028284828161225057fe5b0414611ed55760405162461bcd60e51b81526004018080602001828103825260218152602001806125946021913960400191505060405180910390fd5b6000611ed583836040518060400160405280601a815260200179536166654d6174683a206469766973696f6e206279207a65726f60301b8152506123d1565b6000818484111561235b5760405162461bcd60e51b81526004018080602001828103825283818151815260200191508051906020019080838360005b83811015612320578181015183820152602001612308565b50505050905090810190601f16801561234d5780820380516001836020036101000a031916815260200191505b509250505060405180910390fd5b505050900390565b600061236d6124d7565b600080612382670de0b6b3a764000087611fa9565b9092509050600082600381111561239557fe5b146123b457506040805160208101909152600081529092509050611e8c565b612059818660000151612183565b51670de0b6b3a7640000900490565b600081836124205760405162461bcd60e51b8152602060048201818152835160248401528351909283926044909101919085019080838360008315612320578181015183820152602001612308565b50600083858161242c57fe5b0495945050505050565b604080516101208101909152806000815260200160008152602001600081526020016000815260200160008152602001600081526020016000815260200160008152602001600081525090565b604080516080810190915280600081526020016000815260200160008152602001600081525090565b6040805160808101909152806000815260200160008152602001600081526020016000151581525090565b6040518060200160405280600081525090565b6040805160c0810190915280600081526020016000815260200160008152602001600081526020016000815260200160008152509056fe596f752061726520747279696e6720746f20706179206261636b206d6f7265207468616e20796f75206f7765ac45f50416433593e7c9a1f3e0d5f887c530c22d776e1057ecaacb750d24b9404f776e61626c653a206e6577206f776e657220697320746865207a65726f2061646472657373536166654d6174683a206d756c7469706c69636174696f6e206f766572666c6f774f776e61626c653a2063616c6c6572206973206e6f7420746865206f776e65728be0079c531659141344cd1fd0a4f28419497f9722a3daafe3b4186f6b6457e0a264697066735822122023608bde2f1fdc72d42c5aeb0a4dbbb69b278e0f8fe5a4133b46f3cd325c024864736f6c6343000606003360806040523480156200001157600080fd5b506040516200135538038062001355833981810160405260608110156200003757600080fd5b8151602083018051604051929492938301929190846401000000008211156200005f57600080fd5b9083019060208201858111156200007557600080fd5b82516401000000008111828201881017156200009057600080fd5b82525081516020918201929091019080838360005b83811015620000bf578181015183820152602001620000a5565b50505050905090810190601f168015620000ed5780820380516001836020036101000a031916815260200191505b50604052602001805160405193929190846401000000008211156200011157600080fd5b9083019060208201858111156200012757600080fd5b82516401000000008111828201881017156200014257600080fd5b82525081516020918201929091019080838360005b838110156200017157818101518382015260200162000157565b50505050905090810190601f1680156200019f5780820380516001836020036101000a031916815260200191505b5060405250505080826000620001ba6200026c60201b60201c565b600080546001600160a01b0319166001600160a01b0383169081178255604051929350917f8be0079c531659141344cd1fd0a4f28419497f9722a3daafe3b4186f6b6457e0908290a35081516200021990600490602085019062000271565b5080516200022f90600590602084019062000271565b5050600680546001600160a01b0390951661010002610100600160a81b031960ff1990961660121795909516949094179093555062000313915050565b335b90565b828054600181600116156101000203166002900490600052602060002090601f016020900481019282601f10620002b457805160ff1916838001178555620002e4565b82800160010185558215620002e4579182015b82811115620002e4578251825591602001919060010190620002c7565b50620002f2929150620002f6565b5090565b6200026e91905b80821115620002f25760008155600101620002fd565b61103280620003236000396000f3fe608060405234801561001057600080fd5b50600436106100db5760003560e01c806306fdde03146100e0578063095ea7b31461015d57806318160ddd1461019d57806323b872dd146101b7578063313ce567146101ed578063395093511461020b57806340c10f191461023757806370a0823114610265578063715018a61461028b5780638da5cb5b1461029357806395d89b41146102b75780639dc29fac146102bf578063a457c2d7146102eb578063a9059cbb14610317578063dd62ed3e14610343578063e9cbd82214610371578063f2fde38b14610379575b600080fd5b6100e861039f565b6040805160208082528351818301528351919283929083019185019080838360005b8381101561012257818101518382015260200161010a565b50505050905090810190601f16801561014f5780820380516001836020036101000a031916815260200191505b509250505060405180910390f35b6101896004803603604081101561017357600080fd5b506001600160a01b038135169060200135610435565b604080519115158252519081900360200190f35b6101a5610452565b60408051918252519081900360200190f35b610189600480360360608110156101cd57600080fd5b506001600160a01b03813581169160208101359091169060400135610458565b6101f56104e5565b6040805160ff9092168252519081900360200190f35b6101896004803603604081101561022157600080fd5b506001600160a01b0381351690602001356104ee565b6102636004803603604081101561024d57600080fd5b506001600160a01b038135169060200135610542565b005b6101a56004803603602081101561027b57600080fd5b50356001600160a01b03166105a8565b6102636105c3565b61029b610653565b604080516001600160a01b039092168252519081900360200190f35b6100e8610662565b610263600480360360408110156102d557600080fd5b506001600160a01b0381351690602001356106c3565b6101896004803603604081101561030157600080fd5b506001600160a01b038135169060200135610725565b6101896004803603604081101561032d57600080fd5b506001600160a01b038135169060200135610793565b6101a56004803603604081101561035957600080fd5b506001600160a01b03813581169160200135166107a7565b61029b6107d2565b6102636004803603602081101561038f57600080fd5b50356001600160a01b03166107e6565b60048054604080516020601f600260001961010060018816150201909516949094049384018190048102820181019092528281526060939092909183018282801561042b5780601f106104005761010080835404028352916020019161042b565b820191906000526020600020905b81548152906001019060200180831161040e57829003601f168201915b5050505050905090565b60006104496104426108cc565b84846108d0565b50600192915050565b60035490565b60006104658484846109bc565b6104db846104716108cc565b6104d685604051806060016040528060288152602001610ee6602891396001600160a01b038a166000908152600260205260408120906104af6108cc565b6001600160a01b03168152602081019190915260400160002054919063ffffffff610b1316565b6108d0565b5060019392505050565b60065460ff1690565b60006104496104fb6108cc565b846104d6856002600061050c6108cc565b6001600160a01b03908116825260208083019390935260409182016000908120918c16815292529020549063ffffffff610baa16565b61054a6108cc565b6000546001600160a01b0390811691161461059a576040805162461bcd60e51b81526020600482018190526024820152600080516020610f0e833981519152604482015290519081900360640190fd5b6105a48282610c09565b5050565b6001600160a01b031660009081526001602052604090205490565b6105cb6108cc565b6000546001600160a01b0390811691161461061b576040805162461bcd60e51b81526020600482018190526024820152600080516020610f0e833981519152604482015290519081900360640190fd5b600080546040516001600160a01b0390911690600080516020610f2e833981519152908390a3600080546001600160a01b0319169055565b6000546001600160a01b031690565b60058054604080516020601f600260001961010060018816150201909516949094049384018190048102820181019092528281526060939092909183018282801561042b5780601f106104005761010080835404028352916020019161042b565b6106cb6108cc565b6000546001600160a01b0390811691161461071b576040805162461bcd60e51b81526020600482018190526024820152600080516020610f0e833981519152604482015290519081900360640190fd5b6105a48282610cf5565b60006104496107326108cc565b846104d685604051806060016040528060258152602001610fd8602591396002600061075c6108cc565b6001600160a01b03908116825260208083019390935260409182016000908120918d1681529252902054919063ffffffff610b1316565b60006104496107a06108cc565b84846109bc565b6001600160a01b03918216600090815260026020908152604080832093909416825291909152205490565b60065461010090046001600160a01b031681565b6107ee6108cc565b6000546001600160a01b0390811691161461083e576040805162461bcd60e51b81526020600482018190526024820152600080516020610f0e833981519152604482015290519081900360640190fd5b6001600160a01b0381166108835760405162461bcd60e51b8152600401808060200182810382526026815260200180610e786026913960400191505060405180910390fd5b600080546040516001600160a01b0380851693921691600080516020610f2e83398151915291a3600080546001600160a01b0319166001600160a01b0392909216919091179055565b3390565b6001600160a01b0383166109155760405162461bcd60e51b8152600401808060200182810382526024815260200180610fb46024913960400191505060405180910390fd5b6001600160a01b03821661095a5760405162461bcd60e51b8152600401808060200182810382526022815260200180610e9e6022913960400191505060405180910390fd5b6001600160a01b03808416600081815260026020908152604080832094871680845294825291829020859055815185815291517f8c5be1e5ebec7d5bd14f71427d1e84f3dd0314c0f7b2291e5b200ac8c7c3b9259281900390910190a3505050565b6001600160a01b038316610a015760405162461bcd60e51b8152600401808060200182810382526025815260200180610f8f6025913960400191505060405180910390fd5b6001600160a01b038216610a465760405162461bcd60e51b8152600401808060200182810382526023815260200180610e336023913960400191505060405180910390fd5b610a51838383610deb565b610a9481604051806060016040528060268152602001610ec0602691396001600160a01b038616600090815260016020526040902054919063ffffffff610b1316565b6001600160a01b038085166000908152600160205260408082209390935590841681522054610ac9908263ffffffff610baa16565b6001600160a01b038084166000818152600160209081526040918290209490945580518581529051919392871692600080516020610f4e83398151915292918290030190a3505050565b60008184841115610ba25760405162461bcd60e51b81526004018080602001828103825283818151815260200191508051906020019080838360005b83811015610b67578181015183820152602001610b4f565b50505050905090810190601f168015610b945780820380516001836020036101000a031916815260200191505b509250505060405180910390fd5b505050900390565b600082820183811015610c02576040805162461bcd60e51b815260206004820152601b60248201527a536166654d6174683a206164646974696f6e206f766572666c6f7760281b604482015290519081900360640190fd5b9392505050565b6001600160a01b038216610c64576040805162461bcd60e51b815260206004820152601f60248201527f45524332303a206d696e7420746f20746865207a65726f206164647265737300604482015290519081900360640190fd5b610c7060008383610deb565b600354610c83908263ffffffff610baa16565b6003556001600160a01b038216600090815260016020526040902054610caf908263ffffffff610baa16565b6001600160a01b0383166000818152600160209081526040808320949094558351858152935192939192600080516020610f4e8339815191529281900390910190a35050565b6001600160a01b038216610d3a5760405162461bcd60e51b8152600401808060200182810382526021815260200180610f6e6021913960400191505060405180910390fd5b610d4682600083610deb565b610d8981604051806060016040528060228152602001610e56602291396001600160a01b038516600090815260016020526040902054919063ffffffff610b1316565b6001600160a01b038316600090815260016020526040902055600354610db5908263ffffffff610df016565b6003556040805182815290516000916001600160a01b03851691600080516020610f4e8339815191529181900360200190a35050565b505050565b6000610c0283836040518060400160405280601e81526020017f536166654d6174683a207375627472616374696f6e206f766572666c6f770000815250610b1356fe45524332303a207472616e7366657220746f20746865207a65726f206164647265737345524332303a206275726e20616d6f756e7420657863656564732062616c616e63654f776e61626c653a206e6577206f776e657220697320746865207a65726f206164647265737345524332303a20617070726f766520746f20746865207a65726f206164647265737345524332303a207472616e7366657220616d6f756e7420657863656564732062616c616e636545524332303a207472616e7366657220616d6f756e74206578636565647320616c6c6f77616e63654f776e61626c653a2063616c6c6572206973206e6f7420746865206f776e65728be0079c531659141344cd1fd0a4f28419497f9722a3daafe3b4186f6b6457e0ddf252ad1be2c89b69c2b068fc378daa952ba7f163c4a11628f55a4df523b3ef45524332303a206275726e2066726f6d20746865207a65726f206164647265737345524332303a207472616e736665722066726f6d20746865207a65726f206164647265737345524332303a20617070726f76652066726f6d20746865207a65726f206164647265737345524332303a2064656372656173656420616c6c6f77616e63652062656c6f77207a65726fa26469706673582212200392813ea9c48cda187f1ca4499258e9db22dc50d54fd8df5241e323a630b45464736f6c634300060600334f776e61626c653a206e6577206f776e657220697320746865207a65726f20616464726573734f776e61626c653a2063616c6c6572206973206e6f7420746865206f776e65728be0079c531659141344cd1fd0a4f28419497f9722a3daafe3b4186f6b6457e0a26469706673582212208c49b72e1829d50f3892dd1201b4c5967fd37fa3843b1db7814050cfdfb1581c64736f6c63430006060033",
  "immutableReferences": {},
  "source": "pragma solidity ^0.6.0;\r\n\r\nimport \"./WarpVaultSC.sol\";\r\nimport \"@openzeppelin/contracts/access/Ownable.sol\";\r\n\r\n////////////////////////////////////////////////////////////////////////////////////////////\r\n/// @title WarpVaultLPFactory\r\n/// @author Christopher Dixon\r\n////////////////////////////////////////////////////////////////////////////////////////////\r\n/**\r\nThe WarpVaultSCFactory contract is designed to produce individual WarpVaultLP contracts\r\nThis contract uses the OpenZeppelin contract Library to inherit functions from\r\n  Ownable.sol\r\n**/\r\n\r\ncontract WarpVaultSCFactory is Ownable {\r\n    /**\r\n@notice createNewWarpVaultSC is used to create new WarpVaultSC contract instances\r\n@param _InterestRate is the address of the InterestRateModel contract created for this Warp Vault\r\n@param _StableCoin is the address of the stablecoin contract this WarpVault will manage\r\n@param _warpTeam is the address of the Warp Team used for fees\r\n@param _initialExchangeRate is the exchange rate mantissa used to determine the initial exchange rate of stablecoin to warp stablecoin\r\n@param _timelock is a variable representing the number of seconds the timeWizard will prevent withdraws and borrows from a contracts(one week is 605800 seconds)\r\n  **/\r\n    function createNewWarpVaultSC(\r\n        address _InterestRate,\r\n        address _StableCoin,\r\n        address _warpTeam,\r\n        uint256 _initialExchangeRate,\r\n        uint256 _timelock\r\n    ) public onlyOwner returns (address) {\r\n        address _WVSC = address(\r\n            new WarpVaultSC(\r\n                _InterestRate,\r\n                _StableCoin,\r\n                msg.sender,\r\n                _warpTeam,\r\n                _initialExchangeRate,\r\n                _timelock\r\n            )\r\n        );\r\n\r\n        return _WVSC;\r\n    }\r\n}\r\n",
  "sourcePath": "E:/dOrg/warp/Smart-Contracts/contracts/WarpVaultSCFactory.sol",
  "compiler": {
    "name": "solc",
    "version": "0.6.6+commit.6c089d02.Emscripten.clang"
  },
  "schemaVersion": "3.3.1",
  "updatedAt": "2020-11-25T23:07:03.168Z",
  "devdoc": {
    "methods": {
      "createNewWarpVaultSC(address,address,address,uint256,uint256)": {
        "params": {
          "_InterestRate": "is the address of the InterestRateModel contract created for this Warp Vault",
          "_StableCoin": "is the address of the stablecoin contract this WarpVault will manage",
          "_initialExchangeRate": "is the exchange rate mantissa used to determine the initial exchange rate of stablecoin to warp stablecoin",
          "_timelock": "is a variable representing the number of seconds the timeWizard will prevent withdraws and borrows from a contracts(one week is 605800 seconds)*",
          "_warpTeam": "is the address of the Warp Team used for fees"
        }
      },
      "owner()": {
        "details": "Returns the address of the current owner."
      },
      "renounceOwnership()": {
        "details": "Leaves the contract without owner. It will not be possible to call `onlyOwner` functions anymore. Can only be called by the current owner.     * NOTE: Renouncing ownership will leave the contract without an owner, thereby removing any functionality that is only available to the owner."
      },
      "transferOwnership(address)": {
        "details": "Transfers ownership of the contract to a new account (`newOwner`). Can only be called by the current owner."
      }
    }
  },
  "userdoc": {
    "methods": {
      "createNewWarpVaultSC(address,address,address,uint256,uint256)": {
        "notice": "createNewWarpVaultSC is used to create new WarpVaultSC contract instances"
      }
    },
    "notice": "The WarpVaultSCFactory contract is designed to produce individual WarpVaultLP contracts This contract uses the OpenZeppelin contract Library to inherit functions from Ownable.sol*"
  }
}