{
  "contractName": "WarpVaultLPFactory",
  "abi": [
    {
      "anonymous": false,
      "inputs": [
        {
          "indexed": true,
          "internalType": "address",
          "name": "previousOwner",
          "type": "address"
        },
        {
          "indexed": true,
          "internalType": "address",
          "name": "newOwner",
          "type": "address"
        }
      ],
      "name": "OwnershipTransferred",
      "type": "event"
    },
    {
      "inputs": [],
      "name": "owner",
      "outputs": [
        {
          "internalType": "address",
          "name": "",
          "type": "address"
        }
      ],
      "stateMutability": "view",
      "type": "function"
    },
    {
      "inputs": [],
      "name": "renounceOwnership",
      "outputs": [],
      "stateMutability": "nonpayable",
      "type": "function"
    },
    {
      "inputs": [
        {
          "internalType": "address",
          "name": "newOwner",
          "type": "address"
        }
      ],
      "name": "transferOwnership",
      "outputs": [],
      "stateMutability": "nonpayable",
      "type": "function"
    },
    {
      "inputs": [
        {
          "internalType": "address",
          "name": "_lp",
          "type": "address"
        },
        {
          "internalType": "string",
          "name": "_lpName",
          "type": "string"
        }
      ],
      "name": "createWarpVaultLP",
      "outputs": [
        {
          "internalType": "address",
          "name": "",
          "type": "address"
        }
      ],
      "stateMutability": "nonpayable",
      "type": "function"
    }
  ],
  "bytecode": "0x608060405260006100176001600160e01b0361006616565b600080546001600160a01b0319166001600160a01b0383169081178255604051929350917f8be0079c531659141344cd1fd0a4f28419497f9722a3daafe3b4186f6b6457e0908290a35061006a565b3390565b6114e4806100796000396000f3fe608060405234801561001057600080fd5b506004361061004c5760003560e01c8063715018a61461005157806375d797041461005b5780638da5cb5b1461012b578063f2fde38b14610133575b600080fd5b610059610159565b005b61010f6004803603604081101561007157600080fd5b6001600160a01b038235169190810190604081016020820135600160201b81111561009b57600080fd5b8201836020820111156100ad57600080fd5b803590602001918460018302840111600160201b831117156100ce57600080fd5b91908080601f0160208091040260200160405190810160405280939291908181526020018383808284376000920191909152509295506101e9945050505050565b604080516001600160a01b039092168252519081900360200190f35b61010f610317565b6100596004803603602081101561014957600080fd5b50356001600160a01b0316610326565b61016161040c565b6000546001600160a01b039081169116146101b1576040805162461bcd60e51b8152602060048201819052602482015260008051602061146f833981519152604482015290519081900360640190fd5b600080546040516001600160a01b039091169060008051602061148f833981519152908390a3600080546001600160a01b0319169055565b60006101f361040c565b6000546001600160a01b03908116911614610243576040805162461bcd60e51b8152602060048201819052602482015260008051602061146f833981519152604482015290519081900360640190fd5b600083338460405161025490610410565b80846001600160a01b03166001600160a01b03168152602001836001600160a01b03166001600160a01b0316815260200180602001828103825283818151815260200191508051906020019080838360005b838110156102be5781810151838201526020016102a6565b50505050905090810190601f1680156102eb5780820380516001836020036101000a031916815260200191505b50945050505050604051809103906000f08015801561030e573d6000803e3d6000fd5b50949350505050565b6000546001600160a01b031690565b61032e61040c565b6000546001600160a01b0390811691161461037e576040805162461bcd60e51b8152602060048201819052602482015260008051602061146f833981519152604482015290519081900360640190fd5b6001600160a01b0381166103c35760405162461bcd60e51b81526004018080602001828103825260268152602001806114496026913960400191505060405180910390fd5b600080546040516001600160a01b038085169392169160008051602061148f83398151915291a3600080546001600160a01b0319166001600160a01b0392909216919091179055565b3390565b61102b8061041e8339019056fe60806040523480156200001157600080fd5b506040516200102b3803806200102b833981810160405260608110156200003757600080fd5b815160208301516040808501805191519395929483019291846401000000008211156200006357600080fd5b9083019060208201858111156200007957600080fd5b82516401000000008111828201881017156200009457600080fd5b82525081516020918201929091019080838360005b83811015620000c3578181015183820152602001620000a9565b50505050905090810190601f168015620000f15780820380516001836020036101000a031916815260200191505b5060405250505060006200010a6200019d60201b60201c565b600080546001600160a01b0319166001600160a01b0383169081178255604051929350917f8be0079c531659141344cd1fd0a4f28419497f9722a3daafe3b4186f6b6457e0908290a350805162000169906001906020840190620001a2565b5050600280546001600160a01b039384166001600160a01b0319918216179091556004805492909316911617905562000244565b335b90565b828054600181600116156101000203166002900490600052602060002090601f016020900481019282601f10620001e557805160ff191683800117855562000215565b8280016001018555821562000215579182015b8281111562000215578251825591602001919060010190620001f8565b506200022392915062000227565b5090565b6200019f91905b808211156200022357600081556001016200022e565b610dd780620002546000396000f3fe608060405234801561001057600080fd5b50600436106100ba5760003560e01c8063122b5818146100bf57806346cd6801146100e35780634c20ac74146101605780636112fe2e14610168578063715018a614610187578063763e4a0d1461018f5780638da5cb5b146101c75780639ab23701146101cf578063c14cba3e146101d7578063c453e557146101df578063f0c3c06b14610205578063f2fde38b14610222578063f4b5e3e414610248578063f919b4bf14610276575b600080fd5b6100c761029c565b604080516001600160a01b039092168252519081900360200190f35b6100eb6102ab565b6040805160208082528351818301528351919283929083019185019080838360005b8381101561012557818101518382015260200161010d565b50505050905090810190601f1680156101525780820380516001836020036101000a031916815260200191505b509250505060405180910390f35b6100c7610338565b6101856004803603602081101561017e57600080fd5b5035610347565b005b61018561055d565b6101b5600480360360208110156101a557600080fd5b50356001600160a01b03166105ed565b60408051918252519081900360200190f35b6100c76105ff565b6100c761060e565b6100c761061d565b6101b5600480360360208110156101f557600080fd5b50356001600160a01b031661062c565b6101856004803603602081101561021b57600080fd5b50356106e4565b6101856004803603602081101561023857600080fd5b50356001600160a01b031661095d565b6101856004803603604081101561025e57600080fd5b506001600160a01b0381358116916020013516610a43565b6101b56004803603602081101561028c57600080fd5b50356001600160a01b0316610b08565b6004546001600160a01b031681565b60018054604080516020600284861615610100026000190190941693909304601f810184900484028201840190925281815292918301828280156103305780601f1061030557610100808354040283529160200191610330565b820191906000526020600020905b81548152906001019060200180831161031357829003601f168201915b505050505081565b6002546001600160a01b031690565b600480546002546040805163ab5e2c9960e01b815233948101949094526001600160a01b039182166024850152518493919092169163ab5e2c99916044808201926020929091908290030181600087803b1580156103a457600080fd5b505af11580156103b8573d6000803e3d6000fd5b505050506040513d60208110156103ce57600080fd5b505111610420576040805162461bcd60e51b815260206004820152601b60248201527a0a8e4f2d2dcce40e8de40eed2e8d0c8e4c2ee40e8dede40daeac6d602b1b604482015290519081900360640190fd5b3360009081526005602052604090205481111561046e5760405162461bcd60e51b815260040180806020018281038252603f815260200180610cbb603f913960400191505060405180910390fd5b3360009081526005602052604090205461048e908263ffffffff610b2316565b33600081815260056020908152604080832094909455600254845163a9059cbb60e01b815260048101949094526024840186905293516001600160a01b039094169363a9059cbb93604480820194918390030190829087803b1580156104f357600080fd5b505af1158015610507573d6000803e3d6000fd5b505050506040513d602081101561051d57600080fd5b5050604080513381526020810183905281517f92682d28e4c16f4a2ddb833ecdd2bab2f2da69e2f325cda58d421e7d634b8e27929181900390910190a150565b610565610b6e565b6000546001600160a01b039081169116146105b5576040805162461bcd60e51b81526020600482018190526024820152600080516020610d41833981519152604482015290519081900360640190fd5b600080546040516001600160a01b0390911690600080516020610d61833981519152908390a3600080546001600160a01b0319169055565b60056020526000908152604090205481565b6000546001600160a01b031690565b6003546001600160a01b031681565b6002546001600160a01b031681565b600480546002546040805163272c85f760e11b81526001600160a01b03928316948101949094525160009384939290921691634e590bee916024808301926020929190829003018186803b15801561068357600080fd5b505afa158015610697573d6000803e3d6000fd5b505050506040513d60208110156106ad57600080fd5b50516001600160a01b038416600090815260056020526040812054919250906106dc908363ffffffff610b7216565b949350505050565b60025460408051636eb1769f60e11b8152336004820152306024820152905183926001600160a01b03169163dd62ed3e916044808301926020929190829003018186803b15801561073457600080fd5b505afa158015610748573d6000803e3d6000fd5b505050506040513d602081101561075e57600080fd5b5051101561079d5760405162461bcd60e51b8152600401808060200182810382526021815260200180610d816021913960400191505060405180910390fd5b600254604080516370a0823160e01b8152336004820152905183926001600160a01b0316916370a08231916024808301926020929190829003018186803b1580156107e757600080fd5b505afa1580156107fb573d6000803e3d6000fd5b505050506040513d602081101561081157600080fd5b505111610865576040805162461bcd60e51b815260206004820152601e60248201527f4d757374206861766520656e6f756768204c5020746f2070726f766964650000604482015290519081900360640190fd5b600254604080516323b872dd60e01b81523360048201523060248201526044810184905290516001600160a01b03909216916323b872dd916064808201926020929091908290030181600087803b1580156108bf57600080fd5b505af11580156108d3573d6000803e3d6000fd5b505050506040513d60208110156108e957600080fd5b50503360009081526005602052604090205461090b908263ffffffff610bcb16565b3360008181526005602090815260409182902093909355805191825291810183905281517f304548d20eea45684a7db179080f94dce8e4442923ddd63688ab5b7e270a4849929181900390910190a150565b610965610b6e565b6000546001600160a01b039081169116146109b5576040805162461bcd60e51b81526020600482018190526024820152600080516020610d41833981519152604482015290519081900360640190fd5b6001600160a01b0381166109fa5760405162461bcd60e51b8152600401808060200182810382526026815260200180610cfa6026913960400191505060405180910390fd5b600080546040516001600160a01b0380851693921691600080516020610d6183398151915291a3600080546001600160a01b0319166001600160a01b0392909216919091179055565b6004546001600160a01b03163314610a5a57600080fd5b6002546001600160a01b03838116600090815260056020908152604080832054815163a9059cbb60e01b8152878616600482015260248101919091529051939094169363a9059cbb9360448083019491928390030190829087803b158015610ac157600080fd5b505af1158015610ad5573d6000803e3d6000fd5b505050506040513d6020811015610aeb57600080fd5b5050506001600160a01b0316600090815260056020526040812055565b6001600160a01b031660009081526005602052604090205490565b6000610b6583836040518060400160405280601e81526020017f536166654d6174683a207375627472616374696f6e206f766572666c6f770000815250610c23565b90505b92915050565b3390565b600082610b8157506000610b68565b82820282848281610b8e57fe5b0414610b655760405162461bcd60e51b8152600401808060200182810382526021815260200180610d206021913960400191505060405180910390fd5b600082820183811015610b65576040805162461bcd60e51b815260206004820152601b60248201527a536166654d6174683a206164646974696f6e206f766572666c6f7760281b604482015290519081900360640190fd5b60008184841115610cb25760405162461bcd60e51b81526004018080602001828103825283818151815260200191508051906020019080838360005b83811015610c77578181015183820152602001610c5f565b50505050905090810190601f168015610ca45780820380516001836020036101000a031916815260200191505b509250505060405180910390fd5b50505090039056fe796f752061726520747279696e6720746f207769746864726177206d6f726520636f6c6c61746572616c207468616e20796f752068617665206c6f636b65644f776e61626c653a206e6577206f776e657220697320746865207a65726f2061646472657373536166654d6174683a206d756c7469706c69636174696f6e206f766572666c6f774f776e61626c653a2063616c6c6572206973206e6f7420746865206f776e65728be0079c531659141344cd1fd0a4f28419497f9722a3daafe3b4186f6b6457e05661756c74206d757374206861766520656e6f75676820616c6c6f77616e63652ea264697066735822122009b86d6bd45ee8b4d7d009c141a70507da426e091761a3bedcee165d3da13cab64736f6c634300060600334f776e61626c653a206e6577206f776e657220697320746865207a65726f20616464726573734f776e61626c653a2063616c6c6572206973206e6f7420746865206f776e65728be0079c531659141344cd1fd0a4f28419497f9722a3daafe3b4186f6b6457e0a26469706673582212204ced2838531528154840751f2785bfa2daf08186ead8186d97b41923ac2b3d8164736f6c63430006060033",
  "immutableReferences": {},
  "source": "pragma solidity ^0.6.0;\n\nimport \"./WarpVaultLP.sol\";\nimport \"@openzeppelin/contracts/access/Ownable.sol\";\n\n////////////////////////////////////////////////////////////////////////////////////////////\n/// @title WarpVaultLPFactory\n/// @author Christopher Dixon\n////////////////////////////////////////////////////////////////////////////////////////////\n/**\nThe WarpVaultLPFactory contract is designed to produce individual WarpVaultLP contracts\nThis contract uses the OpenZeppelin contract Library to inherit functions from\n  Ownable.sol\n**/\n\ncontract WarpVaultLPFactory is Ownable {\n    /**\n        @notice createWarpVaultLP allows the contract owner to create a new WarpVaultLP contract for a specific LP token\n        @param _lp is the address for the LP token this Warp Vault will manage\n        @param _lpName is the name of the LP token (ex:wETH-wBTC)\n        **/\n    function createWarpVaultLP(address _lp, string memory _lpName)\n        public\n        onlyOwner\n        returns (address)\n    {\n        address _WVLP = address(new WarpVaultLP(_lp, msg.sender, _lpName));\n\n        return _WVLP;\n    }\n}\n",
  "sourcePath": "/home/stan36/repos/Warp/Smart-Contracts/contracts/WarpVaultLPFactory.sol",
  "compiler": {
    "name": "solc",
    "version": "0.6.6+commit.6c089d02.Emscripten.clang"
  },
  "schemaVersion": "3.2.4",
  "updatedAt": "2020-11-10T22:32:35.733Z",
  "devdoc": {
    "methods": {
      "createWarpVaultLP(address,string)": {
        "params": {
          "_lp": "is the address for the LP token this Warp Vault will manage",
          "_lpName": "is the name of the LP token (ex:wETH-wBTC)*"
        }
      },
      "owner()": {
        "details": "Returns the address of the current owner."
      },
      "renounceOwnership()": {
        "details": "Leaves the contract without owner. It will not be possible to call `onlyOwner` functions anymore. Can only be called by the current owner.     * NOTE: Renouncing ownership will leave the contract without an owner, thereby removing any functionality that is only available to the owner."
      },
      "transferOwnership(address)": {
        "details": "Transfers ownership of the contract to a new account (`newOwner`). Can only be called by the current owner."
      }
    }
  },
  "userdoc": {
    "methods": {
      "createWarpVaultLP(address,string)": {
        "notice": "createWarpVaultLP allows the contract owner to create a new WarpVaultLP contract for a specific LP token"
      }
    },
    "notice": "The WarpVaultLPFactory contract is designed to produce individual WarpVaultLP contracts This contract uses the OpenZeppelin contract Library to inherit functions from Ownable.sol*"
  }
}