{
  "contractName": "WarpControl",
  "abi": [
    {
      "inputs": [
        {
          "internalType": "address",
          "name": "_oracle",
          "type": "address"
        },
        {
          "internalType": "address",
          "name": "_WVLPF",
          "type": "address"
        },
        {
          "internalType": "address",
          "name": "_WVSCF",
          "type": "address"
        }
      ],
      "stateMutability": "nonpayable",
      "type": "constructor"
    },
    {
      "anonymous": false,
      "inputs": [
        {
          "indexed": true,
          "internalType": "address",
          "name": "previousOwner",
          "type": "address"
        },
        {
          "indexed": true,
          "internalType": "address",
          "name": "newOwner",
          "type": "address"
        }
      ],
      "name": "OwnershipTransferred",
      "type": "event"
    },
    {
      "inputs": [],
      "name": "Oracle",
      "outputs": [
        {
          "internalType": "contract UniswapLPOracleFactoryI",
          "name": "",
          "type": "address"
        }
      ],
      "stateMutability": "view",
      "type": "function"
    },
    {
      "inputs": [],
      "name": "WVLPF",
      "outputs": [
        {
          "internalType": "contract WarpVaultLPFactoryI",
          "name": "",
          "type": "address"
        }
      ],
      "stateMutability": "view",
      "type": "function"
    },
    {
      "inputs": [],
      "name": "WVSCF",
      "outputs": [
        {
          "internalType": "contract WarpVaultSCFactoryI",
          "name": "",
          "type": "address"
        }
      ],
      "stateMutability": "view",
      "type": "function"
    },
    {
      "inputs": [
        {
          "internalType": "address",
          "name": "",
          "type": "address"
        }
      ],
      "name": "instanceLPTracker",
      "outputs": [
        {
          "internalType": "address",
          "name": "",
          "type": "address"
        }
      ],
      "stateMutability": "view",
      "type": "function"
    },
    {
      "inputs": [
        {
          "internalType": "address",
          "name": "",
          "type": "address"
        }
      ],
      "name": "instanceSCTracker",
      "outputs": [
        {
          "internalType": "address",
          "name": "",
          "type": "address"
        }
      ],
      "stateMutability": "view",
      "type": "function"
    },
    {
      "inputs": [
        {
          "internalType": "address",
          "name": "",
          "type": "address"
        }
      ],
      "name": "isVault",
      "outputs": [
        {
          "internalType": "bool",
          "name": "",
          "type": "bool"
        }
      ],
      "stateMutability": "view",
      "type": "function"
    },
    {
      "inputs": [],
      "name": "liquidationIncentiveMantissa",
      "outputs": [
        {
          "internalType": "uint256",
          "name": "",
          "type": "uint256"
        }
      ],
      "stateMutability": "view",
      "type": "function"
    },
    {
      "inputs": [
        {
          "internalType": "address",
          "name": "",
          "type": "address"
        }
      ],
      "name": "lockedLPValue",
      "outputs": [
        {
          "internalType": "uint256",
          "name": "",
          "type": "uint256"
        }
      ],
      "stateMutability": "view",
      "type": "function"
    },
    {
      "inputs": [
        {
          "internalType": "uint256",
          "name": "",
          "type": "uint256"
        }
      ],
      "name": "lpVaults",
      "outputs": [
        {
          "internalType": "address",
          "name": "",
          "type": "address"
        }
      ],
      "stateMutability": "view",
      "type": "function"
    },
    {
      "inputs": [],
      "name": "owner",
      "outputs": [
        {
          "internalType": "address",
          "name": "",
          "type": "address"
        }
      ],
      "stateMutability": "view",
      "type": "function"
    },
    {
      "inputs": [],
      "name": "renounceOwnership",
      "outputs": [],
      "stateMutability": "nonpayable",
      "type": "function"
    },
    {
      "inputs": [
        {
          "internalType": "uint256",
          "name": "",
          "type": "uint256"
        }
      ],
      "name": "scVaults",
      "outputs": [
        {
          "internalType": "address",
          "name": "",
          "type": "address"
        }
      ],
      "stateMutability": "view",
      "type": "function"
    },
    {
      "inputs": [
        {
          "internalType": "address",
          "name": "newOwner",
          "type": "address"
        }
      ],
      "name": "transferOwnership",
      "outputs": [],
      "stateMutability": "nonpayable",
      "type": "function"
    },
    {
      "inputs": [
        {
          "internalType": "address",
          "name": "_lp",
          "type": "address"
        },
        {
          "internalType": "address",
          "name": "_lpAsset1",
          "type": "address"
        },
        {
          "internalType": "address",
          "name": "_lpAsset2",
          "type": "address"
        },
        {
          "internalType": "string",
          "name": "_lpName",
          "type": "string"
        }
      ],
      "name": "createNewLPVault",
      "outputs": [],
      "stateMutability": "nonpayable",
      "type": "function"
    },
    {
      "inputs": [
        {
          "internalType": "uint256",
          "name": "_baseRatePerYear",
          "type": "uint256"
        },
        {
          "internalType": "uint256",
          "name": "_multiplierPerYear",
          "type": "uint256"
        },
        {
          "internalType": "uint256",
          "name": "_jumpMultiplierPerYear",
          "type": "uint256"
        },
        {
          "internalType": "uint256",
          "name": "_optimal",
          "type": "uint256"
        },
        {
          "internalType": "uint256",
          "name": "_initialExchangeRate",
          "type": "uint256"
        },
        {
          "internalType": "address",
          "name": "_StableCoin",
          "type": "address"
        }
      ],
      "name": "createNewSCVault",
      "outputs": [],
      "stateMutability": "nonpayable",
      "type": "function"
    },
    {
      "inputs": [
        {
          "internalType": "address",
          "name": "_borrower",
          "type": "address"
        },
        {
          "internalType": "address",
          "name": "_redeemer",
          "type": "address"
        },
        {
          "internalType": "uint256",
          "name": "_amount",
          "type": "uint256"
        }
      ],
      "name": "unlockColateral",
      "outputs": [],
      "stateMutability": "nonpayable",
      "type": "function"
    },
    {
      "inputs": [
        {
          "internalType": "address",
          "name": "_LP",
          "type": "address"
        }
      ],
      "name": "checkLPprice",
      "outputs": [
        {
          "internalType": "uint256",
          "name": "",
          "type": "uint256"
        }
      ],
      "stateMutability": "view",
      "type": "function"
    },
    {
      "inputs": [
        {
          "internalType": "address",
          "name": "_account",
          "type": "address"
        }
      ],
      "name": "checkTotalAvailableCollateralValue",
      "outputs": [
        {
          "internalType": "uint256",
          "name": "",
          "type": "uint256"
        }
      ],
      "stateMutability": "view",
      "type": "function"
    },
    {
      "inputs": [
        {
          "internalType": "address",
          "name": "_StableCoin",
          "type": "address"
        },
        {
          "internalType": "uint256",
          "name": "_amount",
          "type": "uint256"
        }
      ],
      "name": "borrowSC",
      "outputs": [],
      "stateMutability": "nonpayable",
      "type": "function"
    }
  ],
  "bytecode": "0x60806040526714d1120d7b16000060015534801561001c57600080fd5b506040516120dc3803806120dc8339818101604052606081101561003f57600080fd5b508051602082015160409092015190919060006100636001600160e01b036100ef16565b600080546001600160a01b0319166001600160a01b0383169081178255604051929350917f8be0079c531659141344cd1fd0a4f28419497f9722a3daafe3b4186f6b6457e0908290a350600280546001600160a01b039485166001600160a01b0319918216179091556003805493851693821693909317909255600480549190931691161790556100f3565b3390565b611fda806101026000396000f3fe60806040523480156200001157600080fd5b5060043610620001065760003560e01c80630a555989146200010b5780630c1e2b92146200013c5780634ada90af146200018157806355cf4916146200019d5780636222630814620001d6578063652b9b4114620001f65780636af5f7521462000233578063715018a6146200023d5780637ed2d49514620002475780638da5cb5b1462000270578063acc9e5b1146200027a578063b042079214620002a3578063b341175a14620002c3578063d483ea1f14620002ec578063e198077f1462000333578063e3c351b814620003fe578063efdebdf51462000427578063f24a534e1462000431578063f2fde38b146200043b575b600080fd5b6200013a600480360360408110156200012357600080fd5b506001600160a01b03813516906020013562000464565b005b62000165600480360360208110156200015457600080fd5b50356001600160a01b031662000641565b604080516001600160a01b039092168252519081900360200190f35b6200018b6200065c565b60408051918252519081900360200190f35b6200013a60048036036060811015620001b557600080fd5b506001600160a01b0381358116916020810135909116906040013562000662565b6200016560048036036020811015620001ee57600080fd5b50356200094a565b6200021f600480360360208110156200020e57600080fd5b50356001600160a01b031662000972565b604080519115158252519081900360200190f35b6200016562000987565b6200013a62000996565b6200018b600480360360208110156200025f57600080fd5b50356001600160a01b031662000a2b565b6200016562000ab1565b62000165600480360360208110156200029257600080fd5b50356001600160a01b031662000ac0565b6200016560048036036020811015620002bb57600080fd5b503562000adb565b6200018b60048036036020811015620002db57600080fd5b50356001600160a01b031662000ae9565b6200013a600480360360c08110156200030457600080fd5b5080359060208101359060408101359060608101359060808101359060a001356001600160a01b031662000d64565b6200013a600480360360808110156200034b57600080fd5b6001600160a01b0382358116926020810135821692604082013590921691810190608081016060820135600160201b8111156200038757600080fd5b8201836020820111156200039a57600080fd5b803590602001918460018302840111600160201b83111715620003bc57600080fd5b91908080601f01602080910402602001604051908101604052809392919081815260200183838082843760009201919091525092955062000f3c945050505050565b6200018b600480360360208110156200041657600080fd5b50356001600160a01b031662001183565b6200016562001195565b62000165620011a4565b6200013a600480360360208110156200045357600080fd5b50356001600160a01b0316620011b3565b600654600080620004753362000ae9565b905060005b838110156200053a576000600682815481106200049357fe5b6000918252602080832090910154604080516305eff7ef60e21b815233600482015290516001600160a01b0390921694506200052e9385936317bfdfbc93602480850194929391928390030190829087803b158015620004f257600080fd5b505af115801562000507573d6000803e3d6000fd5b505050506040513d60208110156200051e57600080fd5b5051859063ffffffff620012a016565b9350506001016200047a565b5060006200055082600263ffffffff6200130216565b905062000564828263ffffffff620012a016565b915060006200057a838563ffffffff6200134316565b9050858110156200058a57600080fd5b33600090815260096020526040902054620005ac908763ffffffff620012a016565b336000818152600960209081526040808320949094556001600160a01b038b811683526008909152838220548451630967fa2960e31b8152600481018c9052602481019490945293519316928392634b3fd14892604480830193919282900301818387803b1580156200061e57600080fd5b505af115801562000633573d6000803e3d6000fd5b505050505050505050505050565b6008602052600090815260409020546001600160a01b031681565b60015481565b336000908152600a602052604090205460ff1615156001146200068457600080fd5b6005548160005b82811015620008fb57600060058281548110620006a457fe5b6000918252602080832090910154604080516313082b1d60e21b815290516001600160a01b0390921694508492634c20ac7492600480840193829003018186803b158015620006f257600080fd5b505afa15801562000707573d6000803e3d6000fd5b505050506040513d60208110156200071e57600080fd5b50516040805163dfd33e2560e01b81526001600160a01b038b8116600483015291519293506000929185169163dfd33e2591602480820192602092909190829003018186803b1580156200077157600080fd5b505afa15801562000786573d6000803e3d6000fd5b505050506040513d60208110156200079d57600080fd5b505190506000620007ae8362000a2b565b90506000620007c4838363ffffffff6200138716565b905080871162000860576000620007e2888463ffffffff6200130216565b60408051631938ebeb60e01b81526001600160a01b038f811660048301528e8116602483015260448201849052915192935090881691631938ebeb9160648082019260009290919082900301818387803b1580156200084057600080fd5b505af115801562000855573d6000803e3d6000fd5b5050505050620008ea565b62000872878263ffffffff6200134316565b60408051631938ebeb60e01b81526001600160a01b038e811660048301528d8116602483015260448201879052915192995090871691631938ebeb9160648082019260009290919082900301818387803b158015620008d057600080fd5b505af1158015620008e5573d6000803e3d6000fd5b505050505b50505050508060010190506200068b565b506001600160a01b03851660009081526009602052604090205462000927908463ffffffff6200134316565b6001600160a01b0390951660009081526009602052604090209490945550505050565b600581815481106200095857fe5b6000918252602090912001546001600160a01b0316905081565b600a6020526000908152604090205460ff1681565b6003546001600160a01b031681565b620009a0620013e5565b6000546001600160a01b03908116911614620009f2576040805162461bcd60e51b8152602060048201819052602482015260008051602062001f65833981519152604482015290519081900360640190fd5b600080546040516001600160a01b039091169060008051602062001f85833981519152908390a3600080546001600160a01b0319169055565b6002546040805163fc57d4df60e01b81526001600160a01b0384811660048301529151600093929092169163fc57d4df91602480820192602092909190829003018186803b15801562000a7d57600080fd5b505afa15801562000a92573d6000803e3d6000fd5b505050506040513d602081101562000aa957600080fd5b505192915050565b6000546001600160a01b031690565b6007602052600090815260409020546001600160a01b031681565b600681815481106200095857fe5b60055460009081805b8281101562000d5c5760006005828154811062000b0b57fe5b6000918252602080832090910154604080516313082b1d60e21b815290516001600160a01b0390921694508492634c20ac7492600480840193829003018186803b15801562000b5957600080fd5b505afa15801562000b6e573d6000803e3d6000fd5b505050506040513d602081101562000b8557600080fd5b50516002546040805163fc57d4df60e01b81526001600160a01b0380851660048301529151939450600093919092169163fc57d4df916024808301926020929190829003018186803b15801562000bdb57600080fd5b505afa15801562000bf0573d6000803e3d6000fd5b505050506040513d602081101562000c0757600080fd5b5051604080516370a0823160e01b81526001600160a01b038b811660048301529151929350600092918516916370a0823191602480820192602092909190829003018186803b15801562000c5a57600080fd5b505afa15801562000c6f573d6000803e3d6000fd5b505050506040513d602081101562000c8657600080fd5b50516040805163dfd33e2560e01b81526001600160a01b038c8116600483015291519293506000929187169163dfd33e2591602480820192602092909190829003018186803b15801562000cd957600080fd5b505afa15801562000cee573d6000803e3d6000fd5b505050506040513d602081101562000d0557600080fd5b50519050600062000d1d838363ffffffff6200134316565b9050600062000d33828663ffffffff6200138716565b905062000d47898263ffffffff620012a016565b98505050505050505080600101905062000af2565b509392505050565b62000d6e620013e5565b6000546001600160a01b0390811691161462000dc0576040805162461bcd60e51b8152602060048201819052602482015260008051602062001f65833981519152604482015290519081900360640190fd5b6000868686863060405162000dd590620014ed565b948552602085019390935260408085019290925260608401526001600160a01b039091166080830152519081900360a001906000f08015801562000e1d573d6000803e3d6000fd5b506004805460408051632a5cd0d160e01b81526001600160a01b038086169482019490945286841660248201526044810188905290519394506000939290911691632a5cd0d19160648082019260209290919082900301818787803b15801562000e8657600080fd5b505af115801562000e9b573d6000803e3d6000fd5b505050506040513d602081101562000eb257600080fd5b50516001600160a01b0393841660009081526008602090815260408083208054979094166001600160a01b031997881681179094556006805460018181019092557ff652222313e28459528d920b65115c16c04f3efc82aaedc97be59f3f377c0d3f0180549098168517909755928252600a905220805460ff191690931790925550505050505050565b62000f46620013e5565b6000546001600160a01b0390811691161462000f98576040805162461bcd60e51b8152602060048201819052602482015260008051602062001f65833981519152604482015290519081900360640190fd5b60025460408051634a42dd6d60e11b81526001600160a01b0386811660048301528581166024830152878116604483015291519190921691639485bada91606480830192600092919082900301818387803b15801562000ff757600080fd5b505af11580156200100c573d6000803e3d6000fd5b505060035460408051631d75e5c160e21b81526001600160a01b038981166004830190815260248301938452875160448401528751600097509190941694506375d79704938a938893919290916064019060208501908083838c5b838110156200108157818101518382015260200162001067565b50505050905090810190601f168015620010af5780820380516001836020036101000a031916815260200191505b509350505050602060405180830381600087803b158015620010d057600080fd5b505af1158015620010e5573d6000803e3d6000fd5b505050506040513d6020811015620010fc57600080fd5b50516001600160a01b0395861660009081526007602090815260408083208054999094166001600160a01b0319998a1681179094556005805460018181019092557f036b6384b5eca791c62761152d0c79bb0604c104a5fb6f4eb0703f3154bb3db0018054909a168517909955928252600a905220805460ff191690951790945550505050565b60096020526000908152604090205481565b6004546001600160a01b031681565b6002546001600160a01b031681565b620011bd620013e5565b6000546001600160a01b039081169116146200120f576040805162461bcd60e51b8152602060048201819052602482015260008051602062001f65833981519152604482015290519081900360640190fd5b6001600160a01b038116620012565760405162461bcd60e51b815260040180806020018281038252602681526020018062001f1e6026913960400191505060405180910390fd5b600080546040516001600160a01b038085169392169160008051602062001f8583398151915291a3600080546001600160a01b0319166001600160a01b0392909216919091179055565b600082820183811015620012f9576040805162461bcd60e51b815260206004820152601b60248201527a536166654d6174683a206164646974696f6e206f766572666c6f7760281b604482015290519081900360640190fd5b90505b92915050565b6000620012f983836040518060400160405280601a815260200179536166654d6174683a206469766973696f6e206279207a65726f60301b815250620013e9565b6000620012f983836040518060400160405280601e81526020017f536166654d6174683a207375627472616374696f6e206f766572666c6f77000081525062001490565b6000826200139857506000620012fc565b82820282848281620013a657fe5b0414620012f95760405162461bcd60e51b815260040180806020018281038252602181526020018062001f446021913960400191505060405180910390fd5b3390565b60008183620014795760405162461bcd60e51b81526004018080602001828103825283818151815260200191508051906020019080838360005b838110156200143d57818101518382015260200162001423565b50505050905090810190601f1680156200146b5780820380516001836020036101000a031916815260200191505b509250505060405180910390fd5b5060008385816200148657fe5b0495945050505050565b60008184841115620014e55760405162461bcd60e51b81526020600482018181528351602484015283519092839260449091019190850190808383600083156200143d57818101518382015260200162001423565b505050900390565b610a2280620014fc8339019056fe608060405234801561001057600080fd5b50604051610a22380380610a22833981810160405260a081101561003357600080fd5b508051602082015160408301516060840151608090940151600080546001600160a01b0319166001600160a01b03831617905592939192909190848484848461007e8585858561008d565b505050505050505050506102bc565b6100a7622014808561017060201b61057e1790919060201c565b6002556100f66100c562201480836101c1602090811b61052517901c565b6100e4670de0b6b3a7640000866101c160201b6105251790919060201c565b61017060201b61057e1790919060201c565b6001556101118262201480610170602090811b61057e17901c565b60038190556004829055600254600154604080519283526020830191909152818101929092526060810183905290517f6960ab234c7ef4b0c9197100f5393cfcde7c453ac910a27bd2000aa1dd4c068d9181900360800190a150505050565b60006101b883836040518060400160405280601a81526020017f536166654d6174683a206469766973696f6e206279207a65726f00000000000081525061021a60201b60201c565b90505b92915050565b6000826101d0575060006101bb565b828202828482816101dd57fe5b04146101b85760405162461bcd60e51b8152600401808060200182810382526021815260200180610a016021913960400191505060405180910390fd5b600081836102a65760405162461bcd60e51b81526004018080602001828103825283818151815260200191508051906020019080838360005b8381101561026b578181015183820152602001610253565b50505050905090810190601f1680156102985780820380516001836020036101000a031916815260200191505b509250505060405180910390fd5b5060008385816102b257fe5b0495945050505050565b610736806102cb6000396000f3fe608060405234801561001057600080fd5b506004361061008e5760003560e01c806315f24053146100935780632037f3e7146100ce5780636e71e2d8146100ff5780638726bb89146101285780638da5cb5b14610130578063a385fb9614610154578063b81688161461015c578063b9f9850a1461018b578063f14039de14610193578063fd2da3391461019b575b600080fd5b6100bc600480360360608110156100a957600080fd5b50803590602081013590604001356101a3565b60408051918252519081900360200190f35b6100fd600480360360808110156100e457600080fd5b50803590602081013590604081013590606001356101ba565b005b6100bc6004803603606081101561011557600080fd5b5080359060208101359060400135610215565b6100bc61026b565b610138610271565b604080516001600160a01b039092168252519081900360200190f35b6100bc610280565b6100bc6004803603608081101561017257600080fd5b5080359060208101359060408101359060600135610287565b6100bc610306565b6100bc61030c565b6100bc610312565b60006101b0848484610318565b90505b9392505050565b6000546001600160a01b031633146102035760405162461bcd60e51b81526004018080602001828103825260268152602001806106db6026913960400191505060405180910390fd5b61020f848484846103e1565b50505050565b600082610224575060006101b3565b6101b06102478361023b878763ffffffff61048216565b9063ffffffff6104e316565b61025f85670de0b6b3a764000063ffffffff61052516565b9063ffffffff61057e16565b60015481565b6000546001600160a01b031681565b6220148081565b6000806102a2670de0b6b3a76400008463ffffffff6104e316565b905060006102b1878787610318565b905060006102d1670de0b6b3a764000061025f848663ffffffff61052516565b90506102fa670de0b6b3a764000061025f836102ee8c8c8c610215565b9063ffffffff61052516565b98975050505050505050565b60035481565b60025481565b60045481565b600080610326858585610215565b9050600454811161036c57610364600254610358670de0b6b3a764000061025f6001548661052590919063ffffffff16565b9063ffffffff61048216565b9150506101b3565b6000610397600254610358670de0b6b3a764000061025f60015460045461052590919063ffffffff16565b905060006103b0600454846104e390919063ffffffff16565b90506103d782610358670de0b6b3a764000061025f6003548661052590919063ffffffff16565b93505050506101b3565b6103f4846220148063ffffffff61057e16565b60025561040d610247622014808363ffffffff61052516565b600155610423826220148063ffffffff61057e16565b60038190556004829055600254600154604080519283526020830191909152818101929092526060810183905290517f6960ab234c7ef4b0c9197100f5393cfcde7c453ac910a27bd2000aa1dd4c068d9181900360800190a150505050565b6000828201838110156104da576040805162461bcd60e51b815260206004820152601b60248201527a536166654d6174683a206164646974696f6e206f766572666c6f7760281b604482015290519081900360640190fd5b90505b92915050565b60006104da83836040518060400160405280601e81526020017f536166654d6174683a207375627472616374696f6e206f766572666c6f7700008152506105bd565b600082610534575060006104dd565b8282028284828161054157fe5b04146104da5760405162461bcd60e51b81526004018080602001828103825260218152602001806106ba6021913960400191505060405180910390fd5b60006104da83836040518060400160405280601a815260200179536166654d6174683a206469766973696f6e206279207a65726f60301b815250610654565b6000818484111561064c5760405162461bcd60e51b81526004018080602001828103825283818151815260200191508051906020019080838360005b838110156106115781810151838201526020016105f9565b50505050905090810190601f16801561063e5780820380516001836020036101000a031916815260200191505b509250505060405180910390fd5b505050900390565b600081836106a35760405162461bcd60e51b81526020600482018181528351602484015283519092839260449091019190850190808383600083156106115781810151838201526020016105f9565b5060008385816106af57fe5b049594505050505056fe536166654d6174683a206d756c7469706c69636174696f6e206f766572666c6f776f6e6c7920746865206f776e6572206d61792063616c6c20746869732066756e6374696f6e2ea264697066735822122027d6c97186e85c5362aa98276aa2af6aa81caa7a2a8ee763cad018c8d1529da864736f6c63430006060033536166654d6174683a206d756c7469706c69636174696f6e206f766572666c6f774f776e61626c653a206e6577206f776e657220697320746865207a65726f2061646472657373536166654d6174683a206d756c7469706c69636174696f6e206f766572666c6f774f776e61626c653a2063616c6c6572206973206e6f7420746865206f776e65728be0079c531659141344cd1fd0a4f28419497f9722a3daafe3b4186f6b6457e0a2646970667358221220e5ddc6c5c402d3daf3673fd9302320230dd96228ee0b183d277d7735bd4f921e64736f6c63430006060033",
  "immutableReferences": {},
  "source": "pragma solidity ^0.6.0;\n\nimport \"@openzeppelin/contracts/access/Ownable.sol\";\nimport \"@openzeppelin/contracts/math/SafeMath.sol\";\nimport \"@openzeppelin/contracts/token/ERC20/IERC20.sol\";\nimport \"./interfaces/WarpVaultSCI.sol\";\nimport \"./interfaces/WarpVaultLPI.sol\";\nimport \"./interfaces/WarpVaultLPFactoryI.sol\";\nimport \"./interfaces/WarpVaultSCFactoryI.sol\";\nimport \"./interfaces/UniswapLPOracleFactoryI.sol\";\nimport \"./compound/JumpRateModelV2.sol\";\nimport \"./compound/Exponential.sol\";\n\n////////////////////////////////////////////////////////////////////////////////////////////\n/// @title WarpControl\n/// @author Christopher Dixon\n////////////////////////////////////////////////////////////////////////////////////////////\n/**\nWarpControl is designed to coordinate Warp Vaults\nThis contract uses the OpenZeppelin contract Library to inherit functions from\n  Ownable.sol\n**/\n\ncontract WarpControl is Ownable, Exponential {\n    using SafeMath for uint256;\n\n    uint256 public liquidationIncentiveMantissa = 1.5e18; // 1.5\n\n    UniswapLPOracleFactoryI public Oracle; //oracle factory contract interface\n    WarpVaultLPFactoryI public WVLPF;\n    WarpVaultSCFactoryI public WVSCF;\n\n    address[] public lpVaults;\n    address[] public scVaults;\n\n    mapping(address => address) public instanceLPTracker; //maps LP token address to the assets WarpVault\n    mapping(address => address) public instanceSCTracker;\n    mapping(address => uint256) public lockedLPValue;\n    mapping(address => bool) public isVault;\n\n    /**\n     * @dev Throws if called by any account other than a warp vault\n     */\n    modifier onlyVault() {\n        require(isVault[msg.sender] == true);\n        _;\n    }\n\n    /**\n@notice the constructor function is fired during the contract deployment process. The constructor can only be fired once and\n        is used to set up Oracle variables for the MoneyMarketFactory contract.\n@param _oracle is the address for the UniswapOracleFactorycontract\n**/\n    constructor(\n        address _oracle,\n        address _WVLPF,\n        address _WVSCF\n    ) public {\n        Oracle = UniswapLPOracleFactoryI(_oracle);\n        WVLPF = WarpVaultLPFactoryI(_WVLPF);\n        WVSCF = WarpVaultSCFactoryI(_WVSCF);\n    }\n\n    /**\n@notice createNewVault allows the contract owner to create a new WarpVaultLP contract along with its associated Warp Wrapper Tokens\n**/\n    function createNewLPVault(\n        address _lp,\n        address _lpAsset1,\n        address _lpAsset2,\n        string memory _lpName\n    ) public onlyOwner {\n        Oracle.createNewOracles(_lpAsset1, _lpAsset2, _lp);\n        address _WarpVault = WVLPF.createWarpVaultLP(_lp, _lpName);\n        instanceLPTracker[_lp] = _WarpVault;\n        lpVaults.push(_WarpVault);\n        isVault[_WarpVault] = true;\n    }\n\n    function createNewSCVault(\n        uint256 _baseRatePerYear,\n        uint256 _multiplierPerYear,\n        uint256 _jumpMultiplierPerYear,\n        uint256 _optimal,\n        uint256 _initialExchangeRate,\n        address _StableCoin\n    ) public onlyOwner {\n        address IR = address(\n            new JumpRateModelV2(\n                _baseRatePerYear,\n                _multiplierPerYear,\n                _jumpMultiplierPerYear,\n                _optimal,\n                address(this)\n            )\n        );\n\n        address _WarpVault = WVSCF.createNewWarpVaultSC(\n            IR,\n            _StableCoin,\n            _initialExchangeRate\n        );\n        instanceSCTracker[_StableCoin] = _WarpVault;\n        scVaults.push(_WarpVault);\n        isVault[_WarpVault] = true;\n    }\n\n    /**\n   @notice lockCollateralDown is an external function used to track locked collateral amounts globally as they decrease\n   @param _borrower is the address of the borrower\n   @param _amount is the amount of LP being collateralized\n   **/\n    function unlockColateral(\n        address _borrower,\n        address _redeemer,\n        uint256 _amount\n    ) external onlyVault {\n        uint256 numVaults = lpVaults.length;\n        uint256 remaining = _amount;\n\n        //loop through each LP vault\n        for (uint256 i = 0; i < numVaults; ++i) {\n            //instantiate warp vault at that position\n            WarpVaultLPI vault = WarpVaultLPI(lpVaults[i]);\n            //retreive the address of its asset\n            address asset = vault.getAssetAdd();\n            //retreive amount of LP locked in this vault\n            uint256 amountOfLockedAsset = vault.collateralLPbalanceOf(\n                _borrower\n            );\n            //get USDC value of LP\n            uint256 lpValue = checkLPprice(asset);\n            //get USDC value of the locked amount\n            uint256 valueInVault = amountOfLockedAsset.mul(lpValue);\n            //if the remaining amount is less than the borrowers collateral value in thie cuurent vault\n            if (remaining <= valueInVault) {\n                //amount of lp to unlock is the remaining USDC loan amount divided by the USDC value of one LP\n                uint256 amountOfLP = remaining.div(lpValue);\n                //call the LP's vault and unlock the LP to the redeemer\n                vault.unlockLP(_borrower, _redeemer, amountOfLP);\n            } else {\n                //if the remaining amount is MORE than the value in the current LP vault\n                //determine how much more is needed and roll it over into the remaining variable\n                remaining = remaining.sub(valueInVault);\n                //call the LP's vault and unlock all of the LP locked in it\n                vault.unlockLP(_borrower, _redeemer, amountOfLockedAsset);\n            }\n        }\n        lockedLPValue[_borrower] = lockedLPValue[_borrower].sub(_amount);\n    }\n\n    function checkLPprice(address _LP) public view returns (uint256) {\n        return Oracle.getUnderlyingPrice(_LP);\n    }\n\n    /**\n@notice checkCollateralValue is a view function that accepts an account address and returns the total USDC value\n        of the accounts locked collateral\n@param _account is the address whos collateral value we are looking up\n **/\n    function checkTotalAvailableCollateralValue(address _account)\n        public\n        view\n        returns (uint256)\n    {\n        uint256 numVaults = lpVaults.length;\n        uint256 totalCollateral = 0;\n        //loop through each lp wapr vault\n        for (uint256 i = 0; i < numVaults; ++i) {\n            //instantiate warp vault at that position\n            WarpVaultLPI vault = WarpVaultLPI(lpVaults[i]);\n            //retreive the address of its asset\n            address asset = vault.getAssetAdd();\n            //retrieve USD price of this asset\n            uint256 assetPrice = Oracle.getUnderlyingPrice(asset);\n            //retrieve the total amount of the asset availible as collateral\n            uint256 availibleAccountAssets = IERC20(asset).balanceOf(_account);\n            //retreive the amount of the asset locked as collateral\n            uint256 amountOfLockedAsset = vault.collateralLPbalanceOf(_account);\n            //calculate amount of collateral not locked up\n            uint256 accountAssets = availibleAccountAssets.sub(\n                amountOfLockedAsset\n            );\n            //multiply the amount of collateral by the asset price and return it\n            uint256 accountAssetsValue = accountAssets.mul(assetPrice);\n            //add value to total collateral\n            totalCollateral = totalCollateral.add(accountAssetsValue);\n        }\n        //return total USDC value of all collateral\n        return totalCollateral;\n    }\n\n    function borrowSC(address _StableCoin, uint256 _amount) public {\n        uint256 numSCVaults = scVaults.length;\n        uint256 borrowedTotal = 0;\n        //retreive total amount of collateral value the user has\n        uint256 availibleCollateralValue = checkTotalAvailableCollateralValue(\n            msg.sender\n        );\n        //loop through all stable coin vaults\n        for (uint256 i = 0; i < numSCVaults; ++i) {\n            //instantiate each LP warp vault\n            WarpVaultSCI WVSC = WarpVaultSCI(scVaults[i]);\n            //retreive the amount user has borrowed from each stablecoin vault\n            borrowedTotal = borrowedTotal.add(\n                WVSC.borrowBalanceCurrent(msg.sender)\n            );\n        }\n        //divide collateral value by half and add the half to the full value for a 150% collateral value\n        uint256 halfCollat = availibleCollateralValue.div(2);\n        availibleCollateralValue = availibleCollateralValue.add(halfCollat);\n        //calculate USDC amount of what the user is aloud to borrow\n        uint256 borrowAmountAllowed = availibleCollateralValue.sub(\n            borrowedTotal\n        );\n        //require the amount being borrowed is less than or equal to the amount they are aloud to borrow\n        require(borrowAmountAllowed >= _amount);\n        //track USDC value of locked LP\n        lockedLPValue[msg.sender] = lockedLPValue[msg.sender].add(_amount);\n        //retreive stablecoin vault address being borrowed from and instantiate it\n        WarpVaultSCI WV = WarpVaultSCI(instanceSCTracker[_StableCoin]);\n        //call borrow function on the stablecoin warp vault\n        WV.borrow(_amount, msg.sender);\n    }\n}\n",
  "sourcePath": "/home/stan36/repos/Warp/Smart-Contracts/contracts/WarpControl.sol",
  "compiler": {
    "name": "solc",
    "version": "0.6.6+commit.6c089d02.Emscripten.clang"
  },
  "schemaVersion": "3.3.1",
  "updatedAt": "2020-11-05T04:44:30.904Z",
  "devdoc": {
    "methods": {
      "checkTotalAvailableCollateralValue(address)": {
        "params": {
          "_account": "is the address whos collateral value we are looking up*"
        }
      },
      "constructor": {
        "params": {
          "_oracle": "is the address for the UniswapOracleFactorycontract*"
        }
      },
      "owner()": {
        "details": "Returns the address of the current owner."
      },
      "renounceOwnership()": {
        "details": "Leaves the contract without owner. It will not be possible to call `onlyOwner` functions anymore. Can only be called by the current owner.     * NOTE: Renouncing ownership will leave the contract without an owner, thereby removing any functionality that is only available to the owner."
      },
      "transferOwnership(address)": {
        "details": "Transfers ownership of the contract to a new account (`newOwner`). Can only be called by the current owner."
      },
      "unlockColateral(address,address,uint256)": {
        "params": {
          "_amount": "is the amount of LP being collateralized*",
          "_borrower": "is the address of the borrower"
        }
      }
    }
  },
  "userdoc": {
    "methods": {
      "checkTotalAvailableCollateralValue(address)": {
        "notice": "checkCollateralValue is a view function that accepts an account address and returns the total USDC value of the accounts locked collateral"
      },
      "constructor": "the constructor function is fired during the contract deployment process. The constructor can only be fired once and is used to set up Oracle variables for the MoneyMarketFactory contract.",
      "createNewLPVault(address,address,address,string)": {
        "notice": "createNewVault allows the contract owner to create a new WarpVaultLP contract along with its associated Warp Wrapper Tokens*"
      },
      "unlockColateral(address,address,uint256)": {
        "notice": "lockCollateralDown is an external function used to track locked collateral amounts globally as they decrease"
      }
    },
    "notice": "WarpControl is designed to coordinate Warp Vaults This contract uses the OpenZeppelin contract Library to inherit functions from Ownable.sol*"
  }
}