{
  "contractName": "WarpVaultLP",
  "abi": [
    {
      "inputs": [
        {
          "internalType": "uint256",
          "name": "_timelock",
          "type": "uint256"
        },
        {
          "internalType": "address",
          "name": "_lp",
          "type": "address"
        },
        {
          "internalType": "address",
          "name": "_WarpControl",
          "type": "address"
        },
        {
          "internalType": "string",
          "name": "_lpName",
          "type": "string"
        }
      ],
      "stateMutability": "nonpayable",
      "type": "constructor"
    },
    {
      "anonymous": false,
      "inputs": [
        {
          "indexed": false,
          "internalType": "address",
          "name": "_account",
          "type": "address"
        },
        {
          "indexed": false,
          "internalType": "address",
          "name": "_liquidator",
          "type": "address"
        },
        {
          "indexed": false,
          "internalType": "uint256",
          "name": "_amount",
          "type": "uint256"
        }
      ],
      "name": "AccountLiquidated",
      "type": "event"
    },
    {
      "anonymous": false,
      "inputs": [
        {
          "indexed": false,
          "internalType": "address",
          "name": "_account",
          "type": "address"
        },
        {
          "indexed": false,
          "internalType": "uint256",
          "name": "_amount",
          "type": "uint256"
        }
      ],
      "name": "CollateralProvided",
      "type": "event"
    },
    {
      "anonymous": false,
      "inputs": [
        {
          "indexed": false,
          "internalType": "address",
          "name": "_account",
          "type": "address"
        },
        {
          "indexed": false,
          "internalType": "uint256",
          "name": "_amount",
          "type": "uint256"
        }
      ],
      "name": "CollateralWithdraw",
      "type": "event"
    },
    {
      "anonymous": false,
      "inputs": [
        {
          "indexed": false,
          "internalType": "address",
          "name": "_newControl",
          "type": "address"
        },
        {
          "indexed": false,
          "internalType": "address",
          "name": "_oldControl",
          "type": "address"
        }
      ],
      "name": "WarpControlChanged",
      "type": "event"
    },
    {
      "inputs": [],
      "name": "LPtoken",
      "outputs": [
        {
          "internalType": "contract IERC20",
          "name": "",
          "type": "address"
        }
      ],
      "stateMutability": "view",
      "type": "function"
    },
    {
      "inputs": [
        {
          "internalType": "address",
          "name": "",
          "type": "address"
        }
      ],
      "name": "collateralizedLP",
      "outputs": [
        {
          "internalType": "uint256",
          "name": "",
          "type": "uint256"
        }
      ],
      "stateMutability": "view",
      "type": "function"
    },
    {
      "inputs": [],
      "name": "lpName",
      "outputs": [
        {
          "internalType": "string",
          "name": "",
          "type": "string"
        }
      ],
      "stateMutability": "view",
      "type": "function"
    },
    {
      "inputs": [],
      "name": "timeWizard",
      "outputs": [
        {
          "internalType": "uint256",
          "name": "",
          "type": "uint256"
        }
      ],
      "stateMutability": "view",
      "type": "function"
    },
    {
      "inputs": [],
      "name": "warpControl",
      "outputs": [
        {
          "internalType": "contract WarpControlI",
          "name": "",
          "type": "address"
        }
      ],
      "stateMutability": "view",
      "type": "function"
    },
    {
      "inputs": [
        {
          "internalType": "address",
          "name": "_warpControl",
          "type": "address"
        }
      ],
      "name": "updateWarpControl",
      "outputs": [],
      "stateMutability": "nonpayable",
      "type": "function"
    },
    {
      "inputs": [
        {
          "internalType": "uint256",
          "name": "_amount",
          "type": "uint256"
        }
      ],
      "name": "provideCollateral",
      "outputs": [],
      "stateMutability": "nonpayable",
      "type": "function"
    },
    {
      "inputs": [
        {
          "internalType": "uint256",
          "name": "_amount",
          "type": "uint256"
        }
      ],
      "name": "withdrawCollateral",
      "outputs": [],
      "stateMutability": "nonpayable",
      "type": "function"
    },
    {
      "inputs": [],
      "name": "getAssetAdd",
      "outputs": [
        {
          "internalType": "address",
          "name": "",
          "type": "address"
        }
      ],
      "stateMutability": "view",
      "type": "function"
    },
    {
      "inputs": [
        {
          "internalType": "address",
          "name": "_account",
          "type": "address"
        }
      ],
      "name": "collateralOfAccount",
      "outputs": [
        {
          "internalType": "uint256",
          "name": "",
          "type": "uint256"
        }
      ],
      "stateMutability": "view",
      "type": "function"
    },
    {
      "inputs": [
        {
          "internalType": "address",
          "name": "_account",
          "type": "address"
        },
        {
          "internalType": "address",
          "name": "_liquidator",
          "type": "address"
        }
      ],
      "name": "_liquidateAccount",
      "outputs": [],
      "stateMutability": "nonpayable",
      "type": "function"
    },
    {
      "inputs": [
        {
          "internalType": "address",
          "name": "_account",
          "type": "address"
        }
      ],
      "name": "valueOfAccountCollateral",
      "outputs": [
        {
          "internalType": "uint256",
          "name": "",
          "type": "uint256"
        }
      ],
      "stateMutability": "view",
      "type": "function"
    }
  ],
  "bytecode": "0x60806040523480156200001157600080fd5b5060405162000f5238038062000f52833981810160405260808110156200003757600080fd5b8151602083015160408085015160608601805192519496939591949391820192846401000000008211156200006b57600080fd5b9083019060208201858111156200008157600080fd5b82516401000000008111828201881017156200009c57600080fd5b82525081516020918201929091019080838360005b83811015620000cb578181015183820152602001620000b1565b50505050905090810190601f168015620000f95780820380516001836020036101000a031916815260200191505b50604052505081516200011591506001906020840190620001d0565b50600280546001600160a01b03199081166001600160a01b0386811691909117909255600380549091169184169190911790556200016042856200016e602090811b62000b2517901c565b600055506200027592505050565b600082820183811015620001c9576040805162461bcd60e51b815260206004820152601b60248201527f536166654d6174683a206164646974696f6e206f766572666c6f770000000000604482015290519081900360640190fd5b9392505050565b828054600181600116156101000203166002900490600052602060002090601f016020900481019282601f106200021357805160ff191683800117855562000243565b8280016001018555821562000243579182015b828111156200024357825182559160200191906001019062000226565b506200025192915062000255565b5090565b6200027291905b808211156200025157600081556001016200025c565b90565b610ccd80620002856000396000f3fe608060405234801561001057600080fd5b50600436106100b45760003560e01c8063c14cba3e11610071578063c14cba3e146101df578063c453e557146101e7578063cb7b42061461020d578063f0c3c06b14610215578063f4b5e3e414610232578063f919b4bf14610260576100b4565b806346cd6801146100b95780634c20ac74146101365780634cf3e7841461015a5780636112fe2e14610182578063763e4a0d1461019f578063bbb7d489146101d7575b600080fd5b6100c1610286565b6040805160208082528351818301528351919283929083019185019080838360005b838110156100fb5781810151838201526020016100e3565b50505050905090810190601f1680156101285780820380516001836020036101000a031916815260200191505b509250505060405180910390f35b61013e610313565b604080516001600160a01b039092168252519081900360200190f35b6101806004803603602081101561017057600080fd5b50356001600160a01b0316610322565b005b6101806004803603602081101561019857600080fd5b50356103a3565b6101c5600480360360208110156101b557600080fd5b50356001600160a01b03166105d2565b60408051918252519081900360200190f35b61013e6105e4565b61013e6105f3565b6101c5600480360360208110156101fd57600080fd5b50356001600160a01b0316610602565b6101c56106b5565b6101806004803603602081101561022b57600080fd5b50356106bb565b6101806004803603604081101561024857600080fd5b506001600160a01b0381358116916020013516610935565b6101c56004803603602081101561027657600080fd5b50356001600160a01b0316610a66565b60018054604080516020600284861615610100026000190190941693909304601f8101849004840282018401909252818152929183018282801561030b5780601f106102e05761010080835404028352916020019161030b565b820191906000526020600020905b8154815290600101906020018083116102ee57829003601f168201915b505050505081565b6002546001600160a01b031690565b6003546001600160a01b0316331461033957600080fd5b600354604080516001600160a01b038085168252909216602083015280517ff31f198b56fc88f5180e2da8285f8fc0e39731c96e24af25bab67838a32c5d799281900390910190a1600380546001600160a01b0319166001600160a01b0392909216919091179055565b6003546002546040805163ab5e2c9960e01b81523360048201526001600160a01b03928316602482015290516000938493169163ab5e2c9991604480830192602092919082900301818787803b1580156103fc57600080fd5b505af1158015610410573d6000803e3d6000fd5b505050506040513d602081101561042657600080fd5b50519050826104375780915061043b565b8291505b81811015610490576040805162461bcd60e51b815260206004820152601b60248201527f547279696e6720746f20776974686472617720746f6f206d7563680000000000604482015290519081900360640190fd5b336000908152600460205260409020548211156104de5760405162461bcd60e51b815260040180806020018281038252603f815260200180610c17603f913960400191505060405180910390fd5b336000908152600460205260409020546104fe908363ffffffff610a8116565b33600081815260046020818152604080842095909555600254855163a9059cbb60e01b8152928301949094526024820187905293516001600160a01b039093169363a9059cbb9360448084019492939192918390030190829087803b15801561056657600080fd5b505af115801561057a573d6000803e3d6000fd5b505050506040513d602081101561059057600080fd5b5050604080513381526020810184905281517f92682d28e4c16f4a2ddb833ecdd2bab2f2da69e2f325cda58d421e7d634b8e27929181900390910190a1505050565b60046020526000908152604090205481565b6003546001600160a01b031681565b6002546001600160a01b031681565b6003546002546040805163272c85f760e11b81526001600160a01b039283166004820152905160009384931691634e590bee916024808301926020929190829003018186803b15801561065457600080fd5b505afa158015610668573d6000803e3d6000fd5b505050506040513d602081101561067e57600080fd5b50516001600160a01b038416600090815260046020526040812054919250906106ad908363ffffffff610acc16565b949350505050565b60005481565b60025460408051636eb1769f60e11b8152336004820152306024820152905183926001600160a01b03169163dd62ed3e916044808301926020929190829003018186803b15801561070b57600080fd5b505afa15801561071f573d6000803e3d6000fd5b505050506040513d602081101561073557600080fd5b505110156107745760405162461bcd60e51b8152600401808060200182810382526021815260200180610c776021913960400191505060405180910390fd5b600254604080516370a0823160e01b8152336004820152905183926001600160a01b0316916370a08231916024808301926020929190829003018186803b1580156107be57600080fd5b505afa1580156107d2573d6000803e3d6000fd5b505050506040513d60208110156107e857600080fd5b5051101561083d576040805162461bcd60e51b815260206004820152601e60248201527f4d757374206861766520656e6f756768204c5020746f2070726f766964650000604482015290519081900360640190fd5b600254604080516323b872dd60e01b81523360048201523060248201526044810184905290516001600160a01b03909216916323b872dd916064808201926020929091908290030181600087803b15801561089757600080fd5b505af11580156108ab573d6000803e3d6000fd5b505050506040513d60208110156108c157600080fd5b5050336000908152600460205260409020546108e3908263ffffffff610b2516565b3360008181526004602090815260409182902093909355805191825291810183905281517f304548d20eea45684a7db179080f94dce8e4442923ddd63688ab5b7e270a4849929181900390910190a150565b6003546001600160a01b0316331461094c57600080fd5b600054421161095a57600080fd5b6001600160a01b03808316600081815260046020908152604091829020548251938452938516908301528181019290925290517fb45e156992a4fbdcc0ac5b35d795eaabed404816fd7b53363a18a5da1ae16a699181900360600190a16002546001600160a01b03838116600090815260046020818152604080842054815163a9059cbb60e01b815288871694810194909452602484015251939094169363a9059cbb9360448084019492939192918390030190829087803b158015610a1f57600080fd5b505af1158015610a33573d6000803e3d6000fd5b505050506040513d6020811015610a4957600080fd5b5050506001600160a01b0316600090815260046020526040812055565b6001600160a01b031660009081526004602052604090205490565b6000610ac383836040518060400160405280601e81526020017f536166654d6174683a207375627472616374696f6e206f766572666c6f770000815250610b7f565b90505b92915050565b600082610adb57506000610ac6565b82820282848281610ae857fe5b0414610ac35760405162461bcd60e51b8152600401808060200182810382526021815260200180610c566021913960400191505060405180910390fd5b600082820183811015610ac3576040805162461bcd60e51b815260206004820152601b60248201527f536166654d6174683a206164646974696f6e206f766572666c6f770000000000604482015290519081900360640190fd5b60008184841115610c0e5760405162461bcd60e51b81526004018080602001828103825283818151815260200191508051906020019080838360005b83811015610bd3578181015183820152602001610bbb565b50505050905090810190601f168015610c005780820380516001836020036101000a031916815260200191505b509250505060405180910390fd5b50505090039056fe796f752061726520747279696e6720746f207769746864726177206d6f726520636f6c6c61746572616c207468616e20796f752068617665206c6f636b6564536166654d6174683a206d756c7469706c69636174696f6e206f766572666c6f775661756c74206d757374206861766520656e6f75676820616c6c6f77616e63652ea2646970667358221220343352f707e70f572e8c0d2bb00fa91b155a9cb7f7bcc3178c71a4acd7ff847964736f6c63430006060033",
  "immutableReferences": {},
  "source": "pragma solidity ^0.6.2;\r\n\r\nimport \"@openzeppelin/contracts/access/Ownable.sol\";\r\nimport \"@openzeppelin/contracts/math/SafeMath.sol\";\r\nimport \"@openzeppelin/contracts/token/ERC20/IERC20.sol\";\r\nimport \"./WarpWrapperToken.sol\";\r\nimport \"./interfaces/WarpControlI.sol\";\r\n\r\n////////////////////////////////////////////////////////////////////////////////////////////\r\n/// @title WarpVaultLP\r\n/// @author Christopher Dixon\r\n////////////////////////////////////////////////////////////////////////////////////////////\r\n/**\r\n@notice the WarpVaultLP contract is the main point of interface for a specific LP asset class and an end user in the\r\nWarp lending platform. This contract is responsible for distributing WarpWrapper tokens in exchange for stablecoin assets,\r\nholding and accounting of stablecoins and LP tokens and all associates lending/borrowing calculations for a specific Warp LP asset class.\r\nThis contract inherits Ownership and ERC20 functionality from the Open Zeppelin Library as well as Exponential and the InterestRateModel contracts\r\nfrom the coumpound protocol.\r\n**/\r\n\r\ncontract WarpVaultLP {\r\n    using SafeMath for uint256;\r\n\r\n    uint256 public timeWizard;\r\n    string public lpName;\r\n\r\n    IERC20 public LPtoken;\r\n    WarpControlI public warpControl;\r\n\r\n    mapping(address => uint256) public collateralizedLP;\r\n\r\n    event CollateralProvided(address _account, uint _amount);\r\n    event CollateralWithdraw(address _account, uint _amount);\r\n    event WarpControlChanged(address _newControl, address _oldControl);\r\n    event AccountLiquidated(address _account, address _liquidator, uint256 _amount);\r\n\r\n    /**\r\n     * @dev Throws if called by any account other than a warp control\r\n     */\r\n    modifier onlyWarpControl() {\r\n        require(msg.sender == address(warpControl));\r\n        _;\r\n    }\r\n\r\n/**\r\n@dev Throws if a function is called before the time wizard allows it\r\n**/\r\n    modifier angryWizard() {\r\n        require(now > timeWizard);\r\n        _;\r\n    }\r\n    /**\r\n    @notice constructor sets up token names and symbols for the WarpWrapperToken\r\n    @param _lp is the address of the lp token a specific Warp vault will represent\r\n    @param _lpName is the name of the lp token\r\n    @param _timelock is a variable representing the number of seconds the timeWizard will prevent withdraws and borrows from a contracts(one week is 605800 seconds)\r\n    @dev this function instantiates the lp token as a useable object and generates three WarpWrapperToken contracts to represent\r\n        each type of stable coin this vault can hold. this also instantiates each of these contracts as a usable object in this contract giving\r\n        this contract the ability to call their mint and burn functions.\r\n    **/\r\n    constructor(\r\n        uint256 _timelock,\r\n        address _lp,\r\n        address _WarpControl,\r\n        string memory _lpName\r\n    ) public {\r\n        lpName = _lpName;\r\n        LPtoken = IERC20(_lp);\r\n        warpControl = WarpControlI(_WarpControl);\r\n        timeWizard = now.add(_timelock);\r\n    }\r\n\r\n    function updateWarpControl(address _warpControl) public onlyWarpControl {\r\n        emit WarpControlChanged(_warpControl, address(warpControl));\r\n        warpControl = WarpControlI(_warpControl);\r\n    }\r\n\r\n    /**\r\n    @notice provideCollateral allows a user to collateralize this contracts associated LP token\r\n    @param _amount is the amount of LP being collateralized\r\n    **/\r\n    function provideCollateral(uint256 _amount) public {\r\n        require(LPtoken.allowance(msg.sender, address(this)) >= _amount, \"Vault must have enough allowance.\");\r\n        require(LPtoken.balanceOf(msg.sender) >= _amount, \"Must have enough LP to provide\");\r\n        LPtoken.transferFrom(msg.sender, address(this), _amount);\r\n        collateralizedLP[msg.sender] = collateralizedLP[msg.sender].add(\r\n            _amount\r\n        );\r\n\r\n        emit CollateralProvided(msg.sender, _amount);\r\n    }\r\n\r\n    /**\r\n    @notice withdrawCollateral allows the user to trade in his WarpLP tokens for hiss underlying LP token collateral\r\n    @param _amount is the amount of LP tokens he wishes to withdraw\r\n    **/\r\n    function withdrawCollateral(uint256 _amount) public {\r\n        uint256 amount;\r\n        uint256 maxAmount = warpControl.getMaxWithdrawAllowed(msg.sender, address(LPtoken));\r\n        if(_amount == 0) {\r\n            amount = maxAmount;\r\n          } else {\r\n            amount = _amount;\r\n          }\r\n\r\n        //require the availible value of the LP locked in this contract the user has\r\n        //is greater than or equal to the amount being withdrawn\r\n        require(\r\n            maxAmount >= amount,\r\n            \"Trying to withdraw too much\"\r\n        );\r\n        //require the user has locked up enough collateral to withdraw this amount\r\n        require(collateralizedLP[msg.sender] >= amount, \"you are trying to withdraw more collateral than you have locked\");\r\n\r\n        //subtract withdrawn amount from amount stored\r\n        collateralizedLP[msg.sender] = collateralizedLP[msg.sender].sub(\r\n            amount\r\n        );\r\n        //transfer them their token\r\n        LPtoken.transfer(msg.sender, amount);\r\n        emit CollateralWithdraw(msg.sender, amount);\r\n    }\r\n\r\n    /**\r\n    @notice getAssetAdd allows for easy retrieval of a WarpVaults LP token Adress\r\n    **/\r\n    function getAssetAdd() public view returns (address) {\r\n        return address(LPtoken);\r\n    }\r\n\r\n    /**\r\n@notice collateralOfAccount is a view function to retreive an accounts collateralized LP amount\r\n@param _account is the address of the account being looked up\r\n**/\r\n    function collateralOfAccount(address _account)\r\n        public\r\n        view\r\n        returns (uint256)\r\n    {\r\n        return collateralizedLP[_account];\r\n    }\r\n\r\n    /**\r\n@notice _liquidateAccount is a function to liquidate the LP tokens of the input account\r\n@param _account is the address of the account being liquidated\r\n@param _liquidator is the address of the account doing the liquidating who receives the liquidated LP's\r\n@dev this function uses the onlyWarpControl modifier meaning that only the Warp Control contract can call it\r\n**/\r\n    function _liquidateAccount(address _account, address _liquidator)\r\n        public\r\n        onlyWarpControl\r\n        angryWizard\r\n    {\r\n        emit AccountLiquidated(_account, _liquidator, collateralizedLP[_account]);\r\n        //transfer the LP tokens to the liquidator\r\n        LPtoken.transfer(_liquidator, collateralizedLP[_account]);\r\n        //reset the borrowers collateral tracker\r\n        collateralizedLP[_account] = 0;\r\n    }\r\n\r\n    function valueOfAccountCollateral(address _account) external view returns(uint256) {\r\n        uint256 collateralPrice = warpControl.viewPriceOfCollateral(address(LPtoken));\r\n        uint256 collateralValue = collateralizedLP[_account].mul(collateralPrice);\r\n        return collateralValue;\r\n    }\r\n}\r\n",
  "sourcePath": "E:\\dOrg\\warp\\Smart-Contracts\\contracts\\WarpVaultLP.sol",
  "compiler": {
    "name": "solc",
    "version": "0.6.6+commit.6c089d02.Emscripten.clang"
  },
  "schemaVersion": "3.3.2",
  "updatedAt": "2020-12-11T21:24:44.502Z",
  "devdoc": {
    "methods": {
      "_liquidateAccount(address,address)": {
        "details": "this function uses the onlyWarpControl modifier meaning that only the Warp Control contract can call it*",
        "params": {
          "_account": "is the address of the account being liquidated",
          "_liquidator": "is the address of the account doing the liquidating who receives the liquidated LP's"
        }
      },
      "collateralOfAccount(address)": {
        "params": {
          "_account": "is the address of the account being looked up*"
        }
      },
      "constructor": {
        "details": "this function instantiates the lp token as a useable object and generates three WarpWrapperToken contracts to represent each type of stable coin this vault can hold. this also instantiates each of these contracts as a usable object in this contract giving this contract the ability to call their mint and burn functions.*",
        "params": {
          "_lp": "is the address of the lp token a specific Warp vault will represent",
          "_lpName": "is the name of the lp token",
          "_timelock": "is a variable representing the number of seconds the timeWizard will prevent withdraws and borrows from a contracts(one week is 605800 seconds)"
        }
      },
      "provideCollateral(uint256)": {
        "params": {
          "_amount": "is the amount of LP being collateralized*"
        }
      },
      "withdrawCollateral(uint256)": {
        "params": {
          "_amount": "is the amount of LP tokens he wishes to withdraw*"
        }
      }
    }
  },
  "userdoc": {
    "methods": {
      "_liquidateAccount(address,address)": {
        "notice": "_liquidateAccount is a function to liquidate the LP tokens of the input account"
      },
      "collateralOfAccount(address)": {
        "notice": "collateralOfAccount is a view function to retreive an accounts collateralized LP amount"
      },
      "constructor": "constructor sets up token names and symbols for the WarpWrapperToken",
      "getAssetAdd()": {
        "notice": "getAssetAdd allows for easy retrieval of a WarpVaults LP token Adress*"
      },
      "provideCollateral(uint256)": {
        "notice": "provideCollateral allows a user to collateralize this contracts associated LP token"
      },
      "withdrawCollateral(uint256)": {
        "notice": "withdrawCollateral allows the user to trade in his WarpLP tokens for hiss underlying LP token collateral"
      }
    },
    "notice": "the WarpVaultLP contract is the main point of interface for a specific LP asset class and an end user in the Warp lending platform. This contract is responsible for distributing WarpWrapper tokens in exchange for stablecoin assets, holding and accounting of stablecoins and LP tokens and all associates lending/borrowing calculations for a specific Warp LP asset class. This contract inherits Ownership and ERC20 functionality from the Open Zeppelin Library as well as Exponential and the InterestRateModel contracts from the coumpound protocol.*"
  }
}