{
  "contractName": "WarpControl",
  "abi": [
    {
      "inputs": [
        {
          "internalType": "address",
          "name": "_oracle",
          "type": "address"
        },
        {
          "internalType": "address",
          "name": "_WVLPF",
          "type": "address"
        },
        {
          "internalType": "address",
          "name": "_WVSCF",
          "type": "address"
        },
        {
          "internalType": "address",
          "name": "_warpTeam",
          "type": "address"
        }
      ],
      "stateMutability": "nonpayable",
      "type": "constructor"
    },
    {
      "anonymous": false,
      "inputs": [
        {
          "indexed": false,
          "internalType": "address",
          "name": "_account",
          "type": "address"
        },
        {
          "indexed": false,
          "internalType": "address",
          "name": "liquidator",
          "type": "address"
        }
      ],
      "name": "Liquidation",
      "type": "event"
    },
    {
      "anonymous": false,
      "inputs": [
        {
          "indexed": false,
          "internalType": "address",
          "name": "_borrower",
          "type": "address"
        },
        {
          "indexed": false,
          "internalType": "address",
          "name": "_StableCoin",
          "type": "address"
        },
        {
          "indexed": false,
          "internalType": "uint256",
          "name": "_amountBorrowed",
          "type": "uint256"
        }
      ],
      "name": "NewBorrow",
      "type": "event"
    },
    {
      "anonymous": false,
      "inputs": [
        {
          "indexed": false,
          "internalType": "address",
          "name": "_newVault",
          "type": "address"
        }
      ],
      "name": "NewLPVault",
      "type": "event"
    },
    {
      "anonymous": false,
      "inputs": [
        {
          "indexed": false,
          "internalType": "address",
          "name": "_newVault",
          "type": "address"
        },
        {
          "indexed": false,
          "internalType": "address",
          "name": "_interestRateModel",
          "type": "address"
        }
      ],
      "name": "NewSCVault",
      "type": "event"
    },
    {
      "anonymous": false,
      "inputs": [
        {
          "indexed": false,
          "internalType": "address",
          "name": "_account",
          "type": "address"
        },
        {
          "indexed": false,
          "internalType": "uint256",
          "name": "_time",
          "type": "uint256"
        }
      ],
      "name": "NotCompliant",
      "type": "event"
    },
    {
      "anonymous": false,
      "inputs": [
        {
          "indexed": true,
          "internalType": "address",
          "name": "previousOwner",
          "type": "address"
        },
        {
          "indexed": true,
          "internalType": "address",
          "name": "newOwner",
          "type": "address"
        }
      ],
      "name": "OwnershipTransferred",
      "type": "event"
    },
    {
      "anonymous": false,
      "inputs": [
        {
          "indexed": false,
          "internalType": "address",
          "name": "_account",
          "type": "address"
        },
        {
          "indexed": false,
          "internalType": "uint256",
          "name": "_time",
          "type": "uint256"
        }
      ],
      "name": "complianceReset",
      "type": "event"
    },
    {
      "inputs": [],
      "name": "Oracle",
      "outputs": [
        {
          "internalType": "contract UniswapLPOracleFactoryI",
          "name": "",
          "type": "address"
        }
      ],
      "stateMutability": "view",
      "type": "function",
      "constant": true
    },
    {
      "inputs": [],
      "name": "WVLPF",
      "outputs": [
        {
          "internalType": "contract WarpVaultLPFactoryI",
          "name": "",
          "type": "address"
        }
      ],
      "stateMutability": "view",
      "type": "function",
      "constant": true
    },
    {
      "inputs": [],
      "name": "WVSCF",
      "outputs": [
        {
          "internalType": "contract WarpVaultSCFactoryI",
          "name": "",
          "type": "address"
        }
      ],
      "stateMutability": "view",
      "type": "function",
      "constant": true
    },
    {
      "inputs": [
        {
          "internalType": "address",
          "name": "",
          "type": "address"
        }
      ],
      "name": "existingRefferalCode",
      "outputs": [
        {
          "internalType": "bool",
          "name": "",
          "type": "bool"
        }
      ],
      "stateMutability": "view",
      "type": "function",
      "constant": true
    },
    {
      "inputs": [
        {
          "internalType": "address",
          "name": "",
          "type": "address"
        }
      ],
      "name": "getVaultByAsset",
      "outputs": [
        {
          "internalType": "address",
          "name": "",
          "type": "address"
        }
      ],
      "stateMutability": "view",
      "type": "function",
      "constant": true
    },
    {
      "inputs": [],
      "name": "graceSpace",
      "outputs": [
        {
          "internalType": "uint256",
          "name": "",
          "type": "uint256"
        }
      ],
      "stateMutability": "view",
      "type": "function",
      "constant": true
    },
    {
      "inputs": [
        {
          "internalType": "uint256",
          "name": "",
          "type": "uint256"
        }
      ],
      "name": "groups",
      "outputs": [
        {
          "internalType": "address",
          "name": "",
          "type": "address"
        }
      ],
      "stateMutability": "view",
      "type": "function",
      "constant": true
    },
    {
      "inputs": [
        {
          "internalType": "address",
          "name": "",
          "type": "address"
        }
      ],
      "name": "groupsYourIn",
      "outputs": [
        {
          "internalType": "address",
          "name": "",
          "type": "address"
        }
      ],
      "stateMutability": "view",
      "type": "function",
      "constant": true
    },
    {
      "inputs": [
        {
          "internalType": "address",
          "name": "",
          "type": "address"
        }
      ],
      "name": "instanceLPTracker",
      "outputs": [
        {
          "internalType": "address",
          "name": "",
          "type": "address"
        }
      ],
      "stateMutability": "view",
      "type": "function",
      "constant": true
    },
    {
      "inputs": [
        {
          "internalType": "address",
          "name": "",
          "type": "address"
        }
      ],
      "name": "instanceSCTracker",
      "outputs": [
        {
          "internalType": "address",
          "name": "",
          "type": "address"
        }
      ],
      "stateMutability": "view",
      "type": "function",
      "constant": true
    },
    {
      "inputs": [
        {
          "internalType": "address",
          "name": "",
          "type": "address"
        }
      ],
      "name": "isInGroup",
      "outputs": [
        {
          "internalType": "bool",
          "name": "",
          "type": "bool"
        }
      ],
      "stateMutability": "view",
      "type": "function",
      "constant": true
    },
    {
      "inputs": [
        {
          "internalType": "address",
          "name": "",
          "type": "address"
        }
      ],
      "name": "isParticipant",
      "outputs": [
        {
          "internalType": "bool",
          "name": "",
          "type": "bool"
        }
      ],
      "stateMutability": "view",
      "type": "function",
      "constant": true
    },
    {
      "inputs": [
        {
          "internalType": "address",
          "name": "",
          "type": "address"
        }
      ],
      "name": "isVault",
      "outputs": [
        {
          "internalType": "bool",
          "name": "",
          "type": "bool"
        }
      ],
      "stateMutability": "view",
      "type": "function",
      "constant": true
    },
    {
      "inputs": [
        {
          "internalType": "uint256",
          "name": "",
          "type": "uint256"
        }
      ],
      "name": "launchParticipants",
      "outputs": [
        {
          "internalType": "address",
          "name": "",
          "type": "address"
        }
      ],
      "stateMutability": "view",
      "type": "function",
      "constant": true
    },
    {
      "inputs": [
        {
          "internalType": "address",
          "name": "",
          "type": "address"
        }
      ],
      "name": "lockedLPValue",
      "outputs": [
        {
          "internalType": "uint256",
          "name": "",
          "type": "uint256"
        }
      ],
      "stateMutability": "view",
      "type": "function",
      "constant": true
    },
    {
      "inputs": [
        {
          "internalType": "uint256",
          "name": "",
          "type": "uint256"
        }
      ],
      "name": "lpVaults",
      "outputs": [
        {
          "internalType": "address",
          "name": "",
          "type": "address"
        }
      ],
      "stateMutability": "view",
      "type": "function",
      "constant": true
    },
    {
      "inputs": [],
      "name": "newWarpControl",
      "outputs": [
        {
          "internalType": "address",
          "name": "",
          "type": "address"
        }
      ],
      "stateMutability": "view",
      "type": "function",
      "constant": true
    },
    {
      "inputs": [],
      "name": "owner",
      "outputs": [
        {
          "internalType": "address",
          "name": "",
          "type": "address"
        }
      ],
      "stateMutability": "view",
      "type": "function",
      "constant": true
    },
    {
      "inputs": [
        {
          "internalType": "address",
          "name": "",
          "type": "address"
        }
      ],
      "name": "refferalCodeToGroupName",
      "outputs": [
        {
          "internalType": "string",
          "name": "",
          "type": "string"
        }
      ],
      "stateMutability": "view",
      "type": "function",
      "constant": true
    },
    {
      "inputs": [
        {
          "internalType": "address",
          "name": "",
          "type": "address"
        },
        {
          "internalType": "uint256",
          "name": "",
          "type": "uint256"
        }
      ],
      "name": "refferalCodeTracker",
      "outputs": [
        {
          "internalType": "address",
          "name": "",
          "type": "address"
        }
      ],
      "stateMutability": "view",
      "type": "function",
      "constant": true
    },
    {
      "inputs": [],
      "name": "renounceOwnership",
      "outputs": [],
      "stateMutability": "nonpayable",
      "type": "function"
    },
    {
      "inputs": [
        {
          "internalType": "uint256",
          "name": "",
          "type": "uint256"
        }
      ],
      "name": "scVaults",
      "outputs": [
        {
          "internalType": "address",
          "name": "",
          "type": "address"
        }
      ],
      "stateMutability": "view",
      "type": "function",
      "constant": true
    },
    {
      "inputs": [
        {
          "internalType": "address",
          "name": "newOwner",
          "type": "address"
        }
      ],
      "name": "transferOwnership",
      "outputs": [],
      "stateMutability": "nonpayable",
      "type": "function"
    },
    {
      "inputs": [],
      "name": "warpTeam",
      "outputs": [
        {
          "internalType": "address",
          "name": "",
          "type": "address"
        }
      ],
      "stateMutability": "view",
      "type": "function",
      "constant": true
    },
    {
      "inputs": [],
      "name": "viewNumLPVaults",
      "outputs": [
        {
          "internalType": "uint256",
          "name": "",
          "type": "uint256"
        }
      ],
      "stateMutability": "view",
      "type": "function",
      "constant": true
    },
    {
      "inputs": [],
      "name": "viewNumSCVaults",
      "outputs": [
        {
          "internalType": "uint256",
          "name": "",
          "type": "uint256"
        }
      ],
      "stateMutability": "view",
      "type": "function",
      "constant": true
    },
    {
      "inputs": [],
      "name": "viewLaunchParticipants",
      "outputs": [
        {
          "internalType": "address[]",
          "name": "",
          "type": "address[]"
        }
      ],
      "stateMutability": "view",
      "type": "function",
      "constant": true
    },
    {
      "inputs": [],
      "name": "viewAllGroups",
      "outputs": [
        {
          "internalType": "address[]",
          "name": "",
          "type": "address[]"
        }
      ],
      "stateMutability": "view",
      "type": "function",
      "constant": true
    },
    {
      "inputs": [
        {
          "internalType": "address",
          "name": "_refferalCode",
          "type": "address"
        }
      ],
      "name": "viewAllMembersOfAGroup",
      "outputs": [
        {
          "internalType": "address[]",
          "name": "",
          "type": "address[]"
        }
      ],
      "stateMutability": "view",
      "type": "function",
      "constant": true
    },
    {
      "inputs": [
        {
          "internalType": "address",
          "name": "_refferalCode",
          "type": "address"
        }
      ],
      "name": "getGroupName",
      "outputs": [
        {
          "internalType": "string",
          "name": "",
          "type": "string"
        }
      ],
      "stateMutability": "view",
      "type": "function",
      "constant": true
    },
    {
      "inputs": [
        {
          "internalType": "address",
          "name": "_account",
          "type": "address"
        }
      ],
      "name": "getAccountsGroup",
      "outputs": [
        {
          "internalType": "address",
          "name": "",
          "type": "address"
        }
      ],
      "stateMutability": "view",
      "type": "function",
      "constant": true
    },
    {
      "inputs": [
        {
          "internalType": "uint256",
          "name": "_timelock",
          "type": "uint256"
        },
        {
          "internalType": "address",
          "name": "_lp",
          "type": "address"
        },
        {
          "internalType": "address",
          "name": "_lpAsset1",
          "type": "address"
        },
        {
          "internalType": "address",
          "name": "_lpAsset2",
          "type": "address"
        },
        {
          "internalType": "string",
          "name": "_lpName",
          "type": "string"
        }
      ],
      "name": "createNewLPVault",
      "outputs": [],
      "stateMutability": "nonpayable",
      "type": "function"
    },
    {
      "inputs": [
        {
          "internalType": "uint256",
          "name": "_timelock",
          "type": "uint256"
        },
        {
          "internalType": "uint256",
          "name": "_baseRatePerYear",
          "type": "uint256"
        },
        {
          "internalType": "uint256",
          "name": "_multiplierPerYear",
          "type": "uint256"
        },
        {
          "internalType": "uint256",
          "name": "_jumpMultiplierPerYear",
          "type": "uint256"
        },
        {
          "internalType": "uint256",
          "name": "_optimal",
          "type": "uint256"
        },
        {
          "internalType": "uint256",
          "name": "_initialExchangeRate",
          "type": "uint256"
        },
        {
          "internalType": "uint256",
          "name": "_reserveFactorMantissa",
          "type": "uint256"
        },
        {
          "internalType": "address",
          "name": "_StableCoin",
          "type": "address"
        }
      ],
      "name": "createNewSCVault",
      "outputs": [],
      "stateMutability": "nonpayable",
      "type": "function"
    },
    {
      "inputs": [
        {
          "internalType": "string",
          "name": "_groupName",
          "type": "string"
        }
      ],
      "name": "createGroup",
      "outputs": [],
      "stateMutability": "nonpayable",
      "type": "function"
    },
    {
      "inputs": [
        {
          "internalType": "address",
          "name": "_refferalCode",
          "type": "address"
        },
        {
          "internalType": "address",
          "name": "_member",
          "type": "address"
        }
      ],
      "name": "addMemberToGroup",
      "outputs": [],
      "stateMutability": "nonpayable",
      "type": "function"
    },
    {
      "inputs": [
        {
          "internalType": "address",
          "name": "account",
          "type": "address"
        },
        {
          "internalType": "address",
          "name": "lpToken",
          "type": "address"
        }
      ],
      "name": "getMaxWithdrawAllowed",
      "outputs": [
        {
          "internalType": "uint256",
          "name": "",
          "type": "uint256"
        }
      ],
      "stateMutability": "nonpayable",
      "type": "function"
    },
    {
      "inputs": [
        {
          "internalType": "address",
          "name": "account",
          "type": "address"
        },
        {
          "internalType": "address",
          "name": "lpToken",
          "type": "address"
        }
      ],
      "name": "viewMaxWithdrawAllowed",
      "outputs": [
        {
          "internalType": "uint256",
          "name": "",
          "type": "uint256"
        }
      ],
      "stateMutability": "view",
      "type": "function",
      "constant": true
    },
    {
      "inputs": [
        {
          "internalType": "address",
          "name": "_account",
          "type": "address"
        }
      ],
      "name": "getTotalAvailableCollateralValue",
      "outputs": [
        {
          "internalType": "uint256",
          "name": "",
          "type": "uint256"
        }
      ],
      "stateMutability": "nonpayable",
      "type": "function"
    },
    {
      "inputs": [
        {
          "internalType": "address",
          "name": "_account",
          "type": "address"
        }
      ],
      "name": "viewTotalAvailableCollateralValue",
      "outputs": [
        {
          "internalType": "uint256",
          "name": "",
          "type": "uint256"
        }
      ],
      "stateMutability": "view",
      "type": "function",
      "constant": true
    },
    {
      "inputs": [
        {
          "internalType": "address",
          "name": "lpToken",
          "type": "address"
        }
      ],
      "name": "viewPriceOfCollateral",
      "outputs": [
        {
          "internalType": "uint256",
          "name": "",
          "type": "uint256"
        }
      ],
      "stateMutability": "view",
      "type": "function",
      "constant": true
    },
    {
      "inputs": [
        {
          "internalType": "address",
          "name": "lpToken",
          "type": "address"
        }
      ],
      "name": "getPriceOfCollateral",
      "outputs": [
        {
          "internalType": "uint256",
          "name": "",
          "type": "uint256"
        }
      ],
      "stateMutability": "nonpayable",
      "type": "function"
    },
    {
      "inputs": [
        {
          "internalType": "address",
          "name": "token",
          "type": "address"
        },
        {
          "internalType": "uint256",
          "name": "amount",
          "type": "uint256"
        }
      ],
      "name": "viewPriceOfToken",
      "outputs": [
        {
          "internalType": "uint256",
          "name": "",
          "type": "uint256"
        }
      ],
      "stateMutability": "view",
      "type": "function",
      "constant": true
    },
    {
      "inputs": [
        {
          "internalType": "address",
          "name": "token",
          "type": "address"
        },
        {
          "internalType": "uint256",
          "name": "amount",
          "type": "uint256"
        }
      ],
      "name": "getPriceOfToken",
      "outputs": [
        {
          "internalType": "uint256",
          "name": "",
          "type": "uint256"
        }
      ],
      "stateMutability": "nonpayable",
      "type": "function"
    },
    {
      "inputs": [
        {
          "internalType": "address",
          "name": "_account",
          "type": "address"
        }
      ],
      "name": "viewTotalBorrowedValue",
      "outputs": [
        {
          "internalType": "uint256",
          "name": "",
          "type": "uint256"
        }
      ],
      "stateMutability": "view",
      "type": "function",
      "constant": true
    },
    {
      "inputs": [
        {
          "internalType": "address",
          "name": "_account",
          "type": "address"
        }
      ],
      "name": "getTotalBorrowedValue",
      "outputs": [
        {
          "internalType": "uint256",
          "name": "",
          "type": "uint256"
        }
      ],
      "stateMutability": "nonpayable",
      "type": "function"
    },
    {
      "inputs": [
        {
          "internalType": "uint256",
          "name": "_collateralValue",
          "type": "uint256"
        }
      ],
      "name": "calcBorrowLimit",
      "outputs": [
        {
          "internalType": "uint256",
          "name": "",
          "type": "uint256"
        }
      ],
      "stateMutability": "pure",
      "type": "function",
      "constant": true
    },
    {
      "inputs": [
        {
          "internalType": "uint256",
          "name": "_borrowAmount",
          "type": "uint256"
        }
      ],
      "name": "calcCollateralRequired",
      "outputs": [
        {
          "internalType": "uint256",
          "name": "",
          "type": "uint256"
        }
      ],
      "stateMutability": "view",
      "type": "function",
      "constant": true
    },
    {
      "inputs": [
        {
          "internalType": "address",
          "name": "_account",
          "type": "address"
        }
      ],
      "name": "getBorrowLimit",
      "outputs": [
        {
          "internalType": "uint256",
          "name": "",
          "type": "uint256"
        }
      ],
      "stateMutability": "nonpayable",
      "type": "function"
    },
    {
      "inputs": [
        {
          "internalType": "address",
          "name": "_account",
          "type": "address"
        }
      ],
      "name": "viewBorrowLimit",
      "outputs": [
        {
          "internalType": "uint256",
          "name": "",
          "type": "uint256"
        }
      ],
      "stateMutability": "view",
      "type": "function",
      "constant": true
    },
    {
      "inputs": [
        {
          "internalType": "address",
          "name": "_StableCoin",
          "type": "address"
        },
        {
          "internalType": "uint256",
          "name": "_amount",
          "type": "uint256"
        }
      ],
      "name": "borrowSC",
      "outputs": [],
      "stateMutability": "nonpayable",
      "type": "function"
    },
    {
      "inputs": [
        {
          "internalType": "address",
          "name": "_borrower",
          "type": "address"
        }
      ],
      "name": "liquidateAccount",
      "outputs": [],
      "stateMutability": "nonpayable",
      "type": "function"
    },
    {
      "inputs": [
        {
          "internalType": "address",
          "name": "_token",
          "type": "address"
        },
        {
          "internalType": "uint256",
          "name": "_baseRatePerYear",
          "type": "uint256"
        },
        {
          "internalType": "uint256",
          "name": "_multiplierPerYear",
          "type": "uint256"
        },
        {
          "internalType": "uint256",
          "name": "_jumpMultiplierPerYear",
          "type": "uint256"
        },
        {
          "internalType": "uint256",
          "name": "_optimal",
          "type": "uint256"
        }
      ],
      "name": "updateInterestRateModel",
      "outputs": [],
      "stateMutability": "nonpayable",
      "type": "function"
    },
    {
      "inputs": [
        {
          "internalType": "address",
          "name": "_newWarpControl",
          "type": "address"
        }
      ],
      "name": "startUpgradeTimer",
      "outputs": [],
      "stateMutability": "nonpayable",
      "type": "function"
    },
    {
      "inputs": [],
      "name": "upgradeWarp",
      "outputs": [],
      "stateMutability": "nonpayable",
      "type": "function"
    }
  ],
  "bytecode": "0x60806040523480156200001157600080fd5b5060405162003d7538038062003d75833981810160405260808110156200003757600080fd5b50805160208201516040830151606090930151919290916000620000636001600160e01b036200010116565b600080546001600160a01b0319166001600160a01b0383169081178255604051929350917f8be0079c531659141344cd1fd0a4f28419497f9722a3daafe3b4186f6b6457e0908290a350600180546001600160a01b039586166001600160a01b031991821617909155600280549486169482169490941790935560038054928516928416929092179091556004805491909316911617905562000105565b3390565b613c6080620001156000396000f3fe60806040523480156200001157600080fd5b5060043610620003945760003560e01c8063929066f511620001e3578063d6fff56f116200011d578063ea7184fd11620000b1578063efdebdf51162000087578063efdebdf51462000cb7578063f24a534e1462000cc1578063f2fde38b1462000ccb578063f3c7f9871462000cf45762000394565b8063ea7184fd1462000c45578063ed6072f61462000c6e578063ed85fdff1462000c8e5762000394565b8063e1535d1211620000f3578063e1535d121462000b1e578063e3c351b81462000b28578063e50f4a301462000b51578063e7b34be31462000c255762000394565b8063d6fff56f1462000a23578063da4f7fb21462000a52578063dc2ddcae1462000a725762000394565b8063ab5e2c991162000195578063bc64cd4e116200016b578063bc64cd4e1462000986578063bc816cac14620009af578063be9287e314620009b9578063cf23073814620009e25762000394565b8063ab5e2c99146200090c578063acc9e5b1146200093d578063b042079214620009665762000394565b8063929066f5146200085d57806396324bd414620008865780639da7875714620008a6578063a092b71814620008cf578063a2b35d9d14620008d9578063a372e01c14620009025762000394565b80635d34f08a11620002d35780637af70ba61162000267578063856d836b116200023d578063856d836b14620007ca57806388c342ea14620007fb5780638ac5d4a3146200082a5780638da5cb5b14620008535762000394565b80637af70ba614620006d75780637c17d237146200070057806384c38dd814620007295762000394565b8063692d295d11620002a9578063692d295d14620006715780636af5f752146200069a578063715018a614620006a45780637a58dc9f14620006ae5762000394565b80635d34f08a14620005ff578063622263081462000628578063652b9b4114620006485762000394565b80632792bdd0116200034b57806348cca254116200032157806348cca25414620005145780634e590bee146200058f5780635136f31514620005b85780635cf5738914620005f55762000394565b80632792bdd0146200048d5780632d23adbd14620004e15780632f74020c146200050a5762000394565b80630a55598914620003995780630a8a4d3f14620003ca5780630c1e2b9214620003e6578063169d4b14146200042b5780631a2a16b514620004545780631dbb0b811462000483575b600080fd5b620003c860048036036040811015620003b157600080fd5b506001600160a01b03813516906020013562000d25565b005b620003d462000ebe565b60408051918252519081900360200190f35b6200040f60048036036020811015620003fe57600080fd5b50356001600160a01b031662000ec4565b604080516001600160a01b039092168252519081900360200190f35b620003d4600480360360208110156200044357600080fd5b50356001600160a01b031662000edf565b620003d4600480360360408110156200046c57600080fd5b506001600160a01b03813516906020013562000f01565b620003d462000f91565b620003c86004803603610100811015620004a657600080fd5b5080359060208101359060408101359060608101359060808101359060a08101359060c08101359060e001356001600160a01b031662000f98565b6200040f60048036036020811015620004f957600080fd5b50356001600160a01b0316620011da565b6200040f620011f5565b6200053d600480360360208110156200052c57600080fd5b50356001600160a01b031662001204565b60408051602080825283518183015283519192839290830191858101910280838360005b838110156200057b57818101518382015260200162000561565b505050509050019250505060405180910390f35b620003d460048036036020811015620005a757600080fd5b50356001600160a01b03166200127c565b620005e160048036036020811015620005d057600080fd5b50356001600160a01b031662001302565b604080519115158252519081900360200190f35b6200040f62001317565b6200040f600480360360208110156200061757600080fd5b50356001600160a01b031662001326565b6200040f600480360360208110156200064057600080fd5b503562001344565b620005e1600480360360208110156200066057600080fd5b50356001600160a01b03166200136c565b620003d4600480360360208110156200068957600080fd5b50356001600160a01b031662001381565b6200040f620013e9565b620003c8620013f8565b620003c860048036036020811015620006c657600080fd5b50356001600160a01b03166200149e565b620003d460048036036020811015620006ef57600080fd5b50356001600160a01b0316620014e6565b620003d4600480360360208110156200071857600080fd5b50356001600160a01b0316620016e6565b62000752600480360360208110156200074157600080fd5b50356001600160a01b0316620016f4565b6040805160208082528351818301528351919283929083019185019080838360005b838110156200078e57818101518382015260200162000774565b50505050905090810190601f168015620007bc5780820380516001836020036101000a031916815260200191505b509250505060405180910390f35b620003c860048036036040811015620007e257600080fd5b506001600160a01b038135811691602001351662001799565b620003d4600480360360408110156200081357600080fd5b506001600160a01b03813516906020013562001920565b620003c8600480360360208110156200084257600080fd5b50356001600160a01b03166200198f565b6200040f62001d82565b620005e1600480360360208110156200087557600080fd5b50356001600160a01b031662001d91565b6200040f600480360360208110156200089e57600080fd5b503562001da6565b6200075260048036036020811015620008be57600080fd5b50356001600160a01b031662001db4565b6200053d62001e53565b620003d460048036036020811015620008f157600080fd5b50356001600160a01b031662001eb7565b6200053d62002010565b620003d4600480360360408110156200092457600080fd5b506001600160a01b038135811691602001351662002072565b6200040f600480360360208110156200095557600080fd5b50356001600160a01b031662002171565b6200040f600480360360208110156200097e57600080fd5b50356200218c565b620003d4600480360360208110156200099e57600080fd5b50356001600160a01b03166200219a565b620003c862002376565b620003d460048036036020811015620009d157600080fd5b50356001600160a01b031662002617565b620003c8600480360360a0811015620009fa57600080fd5b506001600160a01b03813516906020810135906040810135906060810135906080013562002767565b6200040f6004803603604081101562000a3b57600080fd5b506001600160a01b038135169060200135620028a2565b620003d46004803603602081101562000a6a57600080fd5b5035620028d8565b620003c86004803603602081101562000a8a57600080fd5b81019060208101813564010000000081111562000aa657600080fd5b82018360208201111562000ab957600080fd5b8035906020019184600183028401116401000000008311171562000adc57600080fd5b91908080601f016020809104026020016040519081016040528093929190818152602001838380828437600092019190915250929550620028f3945050505050565b620003d4620029b6565b620003d46004803603602081101562000b4057600080fd5b50356001600160a01b0316620029bc565b620003c8600480360360a081101562000b6957600080fd5b8135916001600160a01b03602082013581169260408301358216926060810135909216919081019060a08101608082013564010000000081111562000bad57600080fd5b82018360208201111562000bc057600080fd5b8035906020019184600183028401116401000000008311171562000be357600080fd5b91908080601f016020809104026020016040519081016040528093929190818152602001838380828437600092019190915250929550620029ce945050505050565b6200040f6004803603602081101562000c3d57600080fd5b503562002c64565b620005e16004803603602081101562000c5d57600080fd5b50356001600160a01b031662002c72565b620003d46004803603602081101562000c8657600080fd5b503562002c87565b6200040f6004803603602081101562000ca657600080fd5b50356001600160a01b031662002cb1565b6200040f62002ccc565b6200040f62002cdb565b620003c86004803603602081101562000ce357600080fd5b50356001600160a01b031662002cea565b620003d46004803603604081101562000d0c57600080fd5b506001600160a01b038135811691602001351662002de8565b600062000d323362001eb7565b9050600062000d4133620016e6565b9050600062000d57828463ffffffff62002e9316565b9050600062000d67868662001920565b90508082101562000dbf576040805162461bcd60e51b815260206004820152601b60248201527f426f72726f77696e67206d6f7265207468616e20616c6c6f7765640000000000604482015290519081900360640190fd5b336000908152600e602052604090205462000de1908663ffffffff62002ed716565b336000818152600e60209081526040808320949094556001600160a01b038a81168352600c909152838220548451631196a36960e11b8152600481018b905260248101949094529351931692839263232d46d292604480830193919282900301818387803b15801562000e5357600080fd5b505af115801562000e68573d6000803e3d6000fd5b5050604080513381526001600160a01b038b1660208201528082018a905290517f39afaad37daff6f7a5998bf9de35bb3f46d51f73227bb182d92c016c981a82909350908190036060019150a150505050505050565b60065481565b600c602052600090815260409020546001600160a01b031681565b60008062000eed836200219a565b905062000efa8162002c87565b9392505050565b60015460408051631a2a16b560e01b81526001600160a01b0385811660048301526024820185905291516000939290921691631a2a16b591604480820192602092909190829003018186803b15801562000f5a57600080fd5b505afa15801562000f6f573d6000803e3d6000fd5b505050506040513d602081101562000f8657600080fd5b505190505b92915050565b6008545b90565b62000fa262002f32565b6000546001600160a01b0390811691161462000ff4576040805162461bcd60e51b8152602060048201819052602482015260008051602062003c0b833981519152604482015290519081900360640190fd5b600087878787306040516200100990620030dc565b948552602085019390935260408085019290925260608401526001600160a01b039091166080830152519081900360a001906000f08015801562001051573d6000803e3d6000fd5b506003546004805460408051630f10a94560e31b81526001600160a01b03808716948201949094528784166024820152918316604483015260648201899052608482018e905260a482018890525193945060009391909216916378854a289160c480830192602092919082900301818787803b158015620010d157600080fd5b505af1158015620010e6573d6000803e3d6000fd5b505050506040513d6020811015620010fd57600080fd5b50516001600160a01b038085166000818152600c6020908152604080832080548688166001600160a01b031991821681179092556008805460018181019092557ff3f7a9fe364faab93b216da50a3214154f22a0a2b415b23a84c8169e8b636ee3018054831684179055828652600f8552838620805460ff19169091179055600d845293829020805490941690941790925581519283529286169282019290925281519293507f2c3b5544df8032e6313fd1e59faede21004ab06bb69c1f6640a41566225cb00a929081900390910190a150505050505050505050565b6015602052600090815260409020546001600160a01b031681565b6005546001600160a01b031681565b6001600160a01b0381166000908152601060209081526040918290208054835181840281018401909452808452606093928301828280156200127057602002820191906000526020600020905b81546001600160a01b0316815260019091019060200180831162001251575b50505050509050919050565b6001546040805163b04c6d3f60e01b81526001600160a01b0384811660048301529151600093929092169163b04c6d3f91602480820192602092909190829003018186803b158015620012ce57600080fd5b505afa158015620012e3573d6000803e3d6000fd5b505050506040513d6020811015620012fa57600080fd5b505192915050565b60136020526000908152604090205460ff1681565b6004546001600160a01b031681565b6001600160a01b039081166000908152601560205260409020541690565b600781815481106200135257fe5b6000918252602090912001546001600160a01b0316905081565b600f6020526000908152604090205460ff1681565b6001546040805163fc57d4df60e01b81526001600160a01b0384811660048301529151600093929092169163fc57d4df9160248082019260209290919082900301818787803b158015620013d457600080fd5b505af1158015620012e3573d6000803e3d6000fd5b6002546001600160a01b031681565b6200140262002f32565b6000546001600160a01b0390811691161462001454576040805162461bcd60e51b8152602060048201819052602482015260008051602062003c0b833981519152604482015290519081900360640190fd5b600080546040516001600160a01b03909116907f8be0079c531659141344cd1fd0a4f28419497f9722a3daafe3b4186f6b6457e0908390a3600080546001600160a01b0319169055565b6004546001600160a01b03163314620014b657600080fd5b600580546001600160a01b0319166001600160a01b038316179055620014e0426202a30062002ed7565b60065550565b60075460009081805b82811015620016c3576000600782815481106200150857fe5b6000918252602080832090910154604080516313082b1d60e21b815290516001600160a01b0390921694508492634c20ac7492600480840193829003018186803b1580156200155657600080fd5b505afa1580156200156b573d6000803e3d6000fd5b505050506040513d60208110156200158257600080fd5b50516001546040805163fc57d4df60e01b81526001600160a01b0380851660048301529151939450600093919092169163fc57d4df91602480830192602092919082900301818787803b158015620015d957600080fd5b505af1158015620015ee573d6000803e3d6000fd5b505050506040513d60208110156200160557600080fd5b50516040805163f919b4bf60e01b81526001600160a01b038b8116600483015291519293506000929186169163f919b4bf91602480820192602092909190829003018186803b1580156200165857600080fd5b505afa1580156200166d573d6000803e3d6000fd5b505050506040513d60208110156200168457600080fd5b5051905060006200169c828463ffffffff62002f3616565b9050620016b0878263ffffffff62002ed716565b96505050505050806001019050620014ef565b50620016de81670de0b6b3a764000063ffffffff62002f9416565b949350505050565b60008062000eed83620014e6565b6001600160a01b03811660009081526011602090815260409182902080548351601f6002600019610100600186161502019093169290920491820184900484028101840190945280845260609392830182828015620012705780601f106200176b5761010080835404028352916020019162001270565b820191906000526020600020905b815481529060010190602001808311620017795750939695505050505050565b336000908152600f602052604090205460ff161515600114620017bb57600080fd5b6001600160a01b03811660009081526014602052604090205460ff1615806200180057506001600160a01b038181166000908152601560205260409020548116908316145b62001852576040805162461bcd60e51b815260206004820152601d60248201527f43616e74206a6f696e206d6f7265207468616e206f6e652067726f7570000000604482015290519081900360640190fd5b6001600160a01b0380831660008181526010602090815260408083208054600181810183559185528385200180549688166001600160a01b03199788168117909155845260148352818420805460ff19169091179055601582528083208054909516909317909355601290925290205460ff166200191c5760098054600181019091557f6e1540171b6c0c960b71a7020d9f60077f6af931a8bbf590da0223dacf75c7af0180546001600160a01b0319166001600160a01b03831690811790915560005260126020525b5050565b60015460408051634461a17560e11b81526001600160a01b03858116600483015260248201859052915160009392909216916388c342ea9160448082019260209290919082900301818787803b1580156200197a57600080fd5b505af115801562000f6f573d6000803e3d6000fd5b336001600160a01b0382161415620019a657600080fd5b600854600754600060608367ffffffffffffffff81118015620019c857600080fd5b50604051908082528060200260200182016040528015620019f3578160200160208202803683370190505b50905060005b8481101562001b8d5760006008828154811062001a1257fe5b6000918252602080832090910154604080516305eff7ef60e21b81526001600160a01b038c81166004830152915191909216945084936317bfdfbc93602480850194919392918390030190829087803b15801562001a6f57600080fd5b505af115801562001a84573d6000803e3d6000fd5b505050506040513d602081101562001a9b57600080fd5b5051835184908490811062001aac57fe5b6020026020010181815250506000816001600160a01b03166394d359906040518163ffffffff1660e01b815260040160206040518083038186803b15801562001af457600080fd5b505afa15801562001b09573d6000803e3d6000fd5b505050506040513d602081101562001b2057600080fd5b50516001600160a01b038084166000908152600d60205260408120548751939450909262001b6892919091169087908790811062001b5a57fe5b602002602001015162000f01565b905062001b7c868263ffffffff62002ed716565b9550505050806001019050620019f9565b50600062001b9b86620016e6565b905082811162001d7a5760005b8581101562001c965760006008828154811062001bc157fe5b9060005260206000200160009054906101000a90046001600160a01b03169050806001600160a01b031663ab292f9b893387868151811062001bff57fe5b60200260200101516040518463ffffffff1660e01b815260040180846001600160a01b03166001600160a01b03168152602001836001600160a01b03166001600160a01b031681526020018281526020019350505050600060405180830381600087803b15801562001c7057600080fd5b505af115801562001c85573d6000803e3d6000fd5b505050505080600101905062001ba8565b5060005b8481101562001d355760006007828154811062001cb357fe5b600091825260208220015460408051633d2d78f960e21b81526001600160a01b038c811660048301523360248301529151919092169350839263f4b5e3e4926044808201939182900301818387803b15801562001d0f57600080fd5b505af115801562001d24573d6000803e3d6000fd5b505050505080600101905062001c9a565b50604080516001600160a01b038816815233602082015281517fce054da468b0607d4d65949d7572acd17087e593b3e5be27ba665ba1a60ad75b929181900390910190a15b505050505050565b6000546001600160a01b031690565b60126020526000908152604090205460ff1681565b600a81815481106200135257fe5b60116020908152600091825260409182902080548351601f60026000196101006001861615020190931692909204918201849004840281018401909452808452909183018282801562001e4b5780601f1062001e1f5761010080835404028352916020019162001e4b565b820191906000526020600020905b81548152906001019060200180831162001e2d57829003601f168201915b505050505081565b6060600a80548060200260200160405190810160405280929190818152602001828054801562001ead57602002820191906000526020600020905b81546001600160a01b0316815260019091019060200180831162001e8e575b5050505050905090565b60085460009081805b82811015620020085760006008828154811062001ed957fe5b6000918252602080832090910154604080516305eff7ef60e21b81526001600160a01b038b81166004830152915191909216945084926317bfdfbc926024808201939182900301818787803b15801562001f3257600080fd5b505af115801562001f47573d6000803e3d6000fd5b505050506040513d602081101562001f5e57600080fd5b505190508062001f7057505062001fff565b600062001fe5836001600160a01b031663591cec866040518163ffffffff1660e01b815260040160206040518083038186803b15801562001fb057600080fd5b505afa15801562001fc5573d6000803e3d6000fd5b505050506040513d602081101562001fdc57600080fd5b50518362001920565b905062001ff9858263ffffffff62002ed716565b94505050505b60010162001ec0565b509392505050565b6060600980548060200260200160405190810160405280929190818152602001828054801562001ead576020028201919060005260206000209081546001600160a01b0316815260019091019060200180831162001e8e575050505050905090565b600080620020808462001eb7565b905060006200208f85620014e6565b905060006200209e83620028d8565b90506000620020b4838363ffffffff62002e9316565b6001546040805163fc57d4df60e01b81526001600160a01b038a811660048301529151939450600093919092169163fc57d4df91602480830192602092919082900301818787803b1580156200210957600080fd5b505af11580156200211e573d6000803e3d6000fd5b505050506040513d60208110156200213557600080fd5b5051905062002165816200215884670de0b6b3a764000063ffffffff62002f3616565b9063ffffffff62002f9416565b98975050505050505050565b600b602052600090815260409020546001600160a01b031681565b600881815481106200135257fe5b60075460009081805b82811015620016c357600060078281548110620021bc57fe5b6000918252602080832090910154604080516313082b1d60e21b815290516001600160a01b0390921694508492634c20ac7492600480840193829003018186803b1580156200220a57600080fd5b505afa1580156200221f573d6000803e3d6000fd5b505050506040513d60208110156200223657600080fd5b50516001546040805163b04c6d3f60e01b81526001600160a01b0380851660048301529151939450600093919092169163b04c6d3f916024808301926020929190829003018186803b1580156200228c57600080fd5b505afa158015620022a1573d6000803e3d6000fd5b505050506040513d6020811015620022b857600080fd5b50516040805163f919b4bf60e01b81526001600160a01b038b8116600483015291519293506000929186169163f919b4bf91602480820192602092909190829003018186803b1580156200230b57600080fd5b505afa15801562002320573d6000803e3d6000fd5b505050506040513d60208110156200233757600080fd5b5051905060006200234f828463ffffffff62002f3616565b905062002363878263ffffffff62002ed716565b96505050505050806001019050620021a3565b6004546001600160a01b031633146200238e57600080fd5b6006544210156200239e57600080fd5b60075460085460005b828110156200243e57600060078281548110620023c057fe5b60009182526020822001546005546040805162900f0160e41b81526001600160a01b03928316600482015290519190921693508392630900f010926024808201939182900301818387803b1580156200241857600080fd5b505af11580156200242d573d6000803e3d6000fd5b5050505050806001019050620023a7565b5060005b81811015620024d9576000600882815481106200245b57fe5b60009182526020822001546005546040805162900f0160e41b81526001600160a01b03928316600482015290519190921693508392630900f010926024808201939182900301818387803b158015620024b357600080fd5b505af1158015620024c8573d6000803e3d6000fd5b505050505080600101905062002442565b506002546005546040805163f2fde38b60e01b81526001600160a01b0392831660048201529051919092169163f2fde38b91602480830192600092919082900301818387803b1580156200252c57600080fd5b505af115801562002541573d6000803e3d6000fd5b50506003546005546040805163f2fde38b60e01b81526001600160a01b039283166004820152905191909216935063f2fde38b9250602480830192600092919082900301818387803b1580156200259757600080fd5b505af1158015620025ac573d6000803e3d6000fd5b50506001546005546040805163f2fde38b60e01b81526001600160a01b039283166004820152905191909216935063f2fde38b9250602480830192600092919082900301818387803b1580156200260257600080fd5b505af115801562001d7a573d6000803e3d6000fd5b60085460009081805b8281101562002008576000600882815481106200263957fe5b600091825260208083209091015460408051637746efab60e01b81526001600160a01b038b8116600483015291519190921694508492637746efab9260248082019391829003018186803b1580156200269157600080fd5b505afa158015620026a6573d6000803e3d6000fd5b505050506040513d6020811015620026bd57600080fd5b5051905080620026cf5750506200275e565b600062002744836001600160a01b031663591cec866040518163ffffffff1660e01b815260040160206040518083038186803b1580156200270f57600080fd5b505afa15801562002724573d6000803e3d6000fd5b505050506040513d60208110156200273b57600080fd5b50518362000f01565b905062002758858263ffffffff62002ed716565b94505050505b60010162002620565b6200277162002f32565b6000546001600160a01b03908116911614620027c3576040805162461bcd60e51b8152602060048201819052602482015260008051602062003c0b833981519152604482015290519081900360640190fd5b60008484848430604051620027d890620030dc565b948552602085019390935260408085019290925260608401526001600160a01b039091166080830152519081900360a001906000f08015801562002820573d6000803e3d6000fd5b506001600160a01b038088166000908152600c602052604080822054815163b1be82f160e01b815284861660048201529151949550909216928392839263b1be82f19260248084019382900301818387803b1580156200287f57600080fd5b505af115801562002894573d6000803e3d6000fd5b505050505050505050505050565b60106020528160005260406000208181548110620028bc57fe5b6000918252602090912001546001600160a01b03169150829050565b600062000f8b60026200215884600363ffffffff62002f3616565b3360009081526013602052604090205460ff16156200291157600080fd5b3360008181526010602090815260408083208054600181810183559185528385200180546001600160a01b0319168617905593835260138252808320805460ff19169094179093556011815291902082516200297092840190620030ea565b5050600a80546001810182556000919091527fc65a7bb8d6351c1cf70c95a316cc6a92839c986682d98bc35f958f4883f9d2a80180546001600160a01b03191633179055565b60075490565b600e6020526000908152604090205481565b620029d862002f32565b6000546001600160a01b0390811691161462002a2a576040805162461bcd60e51b8152602060048201819052602482015260008051602062003c0b833981519152604482015290519081900360640190fd5b60015460408051634a42dd6d60e11b81526001600160a01b0386811660048301528581166024830152878116604483015291519190921691639485bada91606480830192600092919082900301818387803b15801562002a8957600080fd5b505af115801562002a9e573d6000803e3d6000fd5b505060025460405163a8edf11560e01b8152600481018981526001600160a01b0389811660248401526060604484019081528751606485015287516000975091909416945063a8edf115938b938b9389939092916084019060208501908083838d5b8381101562002b1a57818101518382015260200162002b00565b50505050905090810190601f16801562002b485780820380516001836020036101000a031916815260200191505b50945050505050602060405180830381600087803b15801562002b6a57600080fd5b505af115801562002b7f573d6000803e3d6000fd5b505050506040513d602081101562002b9657600080fd5b50516001600160a01b038681166000818152600b6020908152604080832080546001600160a01b03199081169688169687179091556007805460018181019092557fa66cc928b5edb82af9bd49922954155ab7b0942694bea4ce44661d9a8736c688018054831688179055868552600f8452828520805460ff19169091179055600d8352928190208054909316909317909155815192835290519293507fe4136410250c225cb6546e2f16dccea79b35b32f295f337362d04375101342ff92918290030190a1505050505050565b600981815481106200135257fe5b60146020526000908152604090205460ff1681565b60008062002c9d83600363ffffffff62002f9416565b905062000efa818063ffffffff62002ed716565b600d602052600090815260409020546001600160a01b031681565b6003546001600160a01b031681565b6001546001600160a01b031681565b62002cf462002f32565b6000546001600160a01b0390811691161462002d46576040805162461bcd60e51b8152602060048201819052602482015260008051602062003c0b833981519152604482015290519081900360640190fd5b6001600160a01b03811662002d8d5760405162461bcd60e51b815260040180806020018281038252602681526020018062003bc46026913960400191505060405180910390fd5b600080546040516001600160a01b03808516939216917f8be0079c531659141344cd1fd0a4f28419497f9722a3daafe3b4186f6b6457e091a3600080546001600160a01b0319166001600160a01b0392909216919091179055565b60008062002df68462002617565b9050600062002e05856200219a565b9050600062002e1483620028d8565b9050600062002e2a838363ffffffff62002e9316565b6001546040805163b04c6d3f60e01b81526001600160a01b038a811660048301529151939450600093919092169163b04c6d3f916024808301926020929190829003018186803b15801562002e7e57600080fd5b505afa1580156200211e573d6000803e3d6000fd5b600062000efa83836040518060400160405280601e81526020017f536166654d6174683a207375627472616374696f6e206f766572666c6f77000081525062002fd8565b60008282018381101562000efa576040805162461bcd60e51b815260206004820152601b60248201527f536166654d6174683a206164646974696f6e206f766572666c6f770000000000604482015290519081900360640190fd5b3390565b60008262002f475750600062000f8b565b8282028284828162002f5557fe5b041462000efa5760405162461bcd60e51b815260040180806020018281038252602181526020018062003bea6021913960400191505060405180910390fd5b600062000efa83836040518060400160405280601a81526020017f536166654d6174683a206469766973696f6e206279207a65726f00000000000081525062003073565b600081848411156200306b5760405162461bcd60e51b81526004018080602001828103825283818151815260200191508051906020019080838360005b838110156200302f57818101518382015260200162003015565b50505050905090810190601f1680156200305d5780820380516001836020036101000a031916815260200191505b509250505060405180910390fd5b505050900390565b60008183620030c55760405162461bcd60e51b81526020600482018181528351602484015283519092839260449091019190850190808383600083156200302f57818101518382015260200162003015565b506000838581620030d257fe5b0495945050505050565b610a37806200318d83390190565b828054600181600116156101000203166002900490600052602060002090601f016020900481019282601f106200312d57805160ff19168380011785556200315d565b828001600101855582156200315d579182015b828111156200315d57825182559160200191906001019062003140565b506200316b9291506200316f565b5090565b62000f9591905b808211156200316b57600081556001016200317656fe608060405234801561001057600080fd5b50604051610a37380380610a37833981810160405260a081101561003357600080fd5b508051602082015160408301516060840151608090940151600080546001600160a01b0319166001600160a01b03831617905592939192909190848484848461007e8585858561008d565b505050505050505050506102bc565b6100a7622014808561017060201b6105901790919060201c565b6002556100f66100c562201480836101c1602090811b61053717901c565b6100e4670de0b6b3a7640000866101c160201b6105371790919060201c565b61017060201b6105901790919060201c565b6001556101118262201480610170602090811b61059017901c565b60038190556004829055600254600154604080519283526020830191909152818101929092526060810183905290517f6960ab234c7ef4b0c9197100f5393cfcde7c453ac910a27bd2000aa1dd4c068d9181900360800190a150505050565b60006101b883836040518060400160405280601a81526020017f536166654d6174683a206469766973696f6e206279207a65726f00000000000081525061021a60201b60201c565b90505b92915050565b6000826101d0575060006101bb565b828202828482816101dd57fe5b04146101b85760405162461bcd60e51b8152600401808060200182810382526021815260200180610a166021913960400191505060405180910390fd5b600081836102a65760405162461bcd60e51b81526004018080602001828103825283818151815260200191508051906020019080838360005b8381101561026b578181015183820152602001610253565b50505050905090810190601f1680156102985780820380516001836020036101000a031916815260200191505b509250505060405180910390fd5b5060008385816102b257fe5b0495945050505050565b61074b806102cb6000396000f3fe608060405234801561001057600080fd5b506004361061009e5760003560e01c8063a385fb9611610066578063a385fb9614610164578063b81688161461016c578063b9f9850a1461019b578063f14039de146101a3578063fd2da339146101ab5761009e565b806315f24053146100a35780632037f3e7146100de5780636e71e2d81461010f5780638726bb89146101385780638da5cb5b14610140575b600080fd5b6100cc600480360360608110156100b957600080fd5b50803590602081013590604001356101b3565b60408051918252519081900360200190f35b61010d600480360360808110156100f457600080fd5b50803590602081013590604081013590606001356101ca565b005b6100cc6004803603606081101561012557600080fd5b5080359060208101359060400135610225565b6100cc61027b565b610148610281565b604080516001600160a01b039092168252519081900360200190f35b6100cc610290565b6100cc6004803603608081101561018257600080fd5b5080359060208101359060408101359060600135610297565b6100cc610316565b6100cc61031c565b6100cc610322565b60006101c0848484610328565b90505b9392505050565b6000546001600160a01b031633146102135760405162461bcd60e51b81526004018080602001828103825260268152602001806106f06026913960400191505060405180910390fd5b61021f848484846103f1565b50505050565b600082610234575060006101c3565b6101c06102578361024b878763ffffffff61049216565b9063ffffffff6104f516565b61026f85670de0b6b3a764000063ffffffff61053716565b9063ffffffff61059016565b60015481565b6000546001600160a01b031681565b6220148081565b6000806102b2670de0b6b3a76400008463ffffffff6104f516565b905060006102c1878787610328565b905060006102e1670de0b6b3a764000061026f848663ffffffff61053716565b905061030a670de0b6b3a764000061026f836102fe8c8c8c610225565b9063ffffffff61053716565b98975050505050505050565b60035481565b60025481565b60045481565b600080610336858585610225565b9050600454811161037c57610374600254610368670de0b6b3a764000061026f6001548661053790919063ffffffff16565b9063ffffffff61049216565b9150506101c3565b60006103a7600254610368670de0b6b3a764000061026f60015460045461053790919063ffffffff16565b905060006103c0600454846104f590919063ffffffff16565b90506103e782610368670de0b6b3a764000061026f6003548661053790919063ffffffff16565b93505050506101c3565b610404846220148063ffffffff61059016565b60025561041d610257622014808363ffffffff61053716565b600155610433826220148063ffffffff61059016565b60038190556004829055600254600154604080519283526020830191909152818101929092526060810183905290517f6960ab234c7ef4b0c9197100f5393cfcde7c453ac910a27bd2000aa1dd4c068d9181900360800190a150505050565b6000828201838110156104ec576040805162461bcd60e51b815260206004820152601b60248201527f536166654d6174683a206164646974696f6e206f766572666c6f770000000000604482015290519081900360640190fd5b90505b92915050565b60006104ec83836040518060400160405280601e81526020017f536166654d6174683a207375627472616374696f6e206f766572666c6f7700008152506105d2565b600082610546575060006104ef565b8282028284828161055357fe5b04146104ec5760405162461bcd60e51b81526004018080602001828103825260218152602001806106cf6021913960400191505060405180910390fd5b60006104ec83836040518060400160405280601a81526020017f536166654d6174683a206469766973696f6e206279207a65726f000000000000815250610669565b600081848411156106615760405162461bcd60e51b81526004018080602001828103825283818151815260200191508051906020019080838360005b8381101561062657818101518382015260200161060e565b50505050905090810190601f1680156106535780820380516001836020036101000a031916815260200191505b509250505060405180910390fd5b505050900390565b600081836106b85760405162461bcd60e51b815260206004820181815283516024840152835190928392604490910191908501908083836000831561062657818101518382015260200161060e565b5060008385816106c457fe5b049594505050505056fe536166654d6174683a206d756c7469706c69636174696f6e206f766572666c6f776f6e6c7920746865206f776e6572206d61792063616c6c20746869732066756e6374696f6e2ea2646970667358221220f57cb4bfc1ec1bc4429a807302f8b014d8105773a87e087103a29a073707098f64736f6c63430006060033536166654d6174683a206d756c7469706c69636174696f6e206f766572666c6f774f776e61626c653a206e6577206f776e657220697320746865207a65726f2061646472657373536166654d6174683a206d756c7469706c69636174696f6e206f766572666c6f774f776e61626c653a2063616c6c6572206973206e6f7420746865206f776e6572a2646970667358221220bfcd51bdf6e496fe088e8318e47aa0a407834543c048a1c9a3dcfaeb6138e2e564736f6c63430006060033",
  "immutableReferences": {},
  "source": "pragma solidity ^0.6.0;\n\nimport \"@openzeppelin/contracts/access/Ownable.sol\";\nimport \"@openzeppelin/contracts/math/SafeMath.sol\";\nimport \"./interfaces/WarpVaultSCI.sol\";\nimport \"./interfaces/WarpVaultLPI.sol\";\nimport \"./interfaces/WarpVaultLPFactoryI.sol\";\nimport \"./interfaces/WarpVaultSCFactoryI.sol\";\nimport \"./interfaces/UniswapLPOracleFactoryI.sol\";\nimport \"./compound/JumpRateModelV2.sol\";\nimport \"./compound/Exponential.sol\";\n\n////////////////////////////////////////////////////////////////////////////////////////////\n/// @title WarpControl\n/// @author Christopher Dixon\n////////////////////////////////////////////////////////////////////////////////////////////\n/**\nWarpControl is designed to coordinate Warp Vaults\nThis contract uses the OpenZeppelin contract Library to inherit functions from\n  Ownable.sol\n**/\n\ncontract WarpControl is Ownable, Exponential {\n    using SafeMath for uint256;\n\n    UniswapLPOracleFactoryI public Oracle; //oracle factory contract interface\n    WarpVaultLPFactoryI public WVLPF;\n    WarpVaultSCFactoryI public WVSCF;\n    address public warpTeam;\n    address public newWarpControl;\n    uint public graceSpace;\n\n    address[] public lpVaults;\n    address[] public scVaults;\n    address[] public launchParticipants;\n    address[] public groups;\n\n    mapping(address => address) public instanceLPTracker; //maps LP token address to the assets WarpVault\n    mapping(address => address) public instanceSCTracker;\n    mapping(address => address) public getVaultByAsset;\n    mapping(address => uint) public lockedLPValue;\n    mapping(address => bool) public isVault;\n    mapping(address => address[]) public refferalCodeTracker;\n    mapping(address => string) public refferalCodeToGroupName;\n    mapping(address => bool) public isParticipant;\n    mapping(address => bool) public existingRefferalCode;\n    mapping(address => bool) public isInGroup;\n    mapping(address => address) public groupsYourIn;\n\n    event NewLPVault(address _newVault);\n    event NewSCVault(address _newVault, address _interestRateModel);\n    event NewBorrow(address _borrower, address _StableCoin, uint _amountBorrowed);\n    event NotCompliant(address _account, uint _time);\n    event Liquidation(address _account, address liquidator);\n    event complianceReset(address _account, uint _time);\n    /**\n      @dev Throws if called by any account other than a warp vault\n     */\n    modifier onlyVault() {\n        require(isVault[msg.sender] == true);\n        _;\n    }\n\n    /**\n    @dev Throws if a function is called by anyone but the warp team\n    **/\n    modifier onlyWarpT() {\n        require(msg.sender == warpTeam);\n        _;\n    }\n\n    /**\n    @notice the constructor function is fired during the contract deployment process. The constructor can only be fired once and\n            is used to set up Oracle variables for the MoneyMarketFactory contract.\n    @param _oracle is the address for the UniswapOracleFactorycontract\n    @param _WVLPF is the address for the WarpVaultLPFactory used to produce LP Warp Vaults\n    @param _WVSCF is the address for the WarpVaultSCFactory used to produce Stable Coin Warp Vaults\n    @dev These factories are split into seperate contracts to avoid hitting the block gas limit\n    **/\n    constructor(\n        address _oracle,\n        address _WVLPF,\n        address _WVSCF,\n        address _warpTeam\n    ) public {\n        //instantiate the contracts\n        Oracle = UniswapLPOracleFactoryI(_oracle);\n        WVLPF = WarpVaultLPFactoryI(_WVLPF);\n        WVSCF = WarpVaultSCFactoryI(_WVSCF);\n        warpTeam = _warpTeam;\n    }\n///view functions for front end /////\n    function viewNumLPVaults() external view returns(uint256) {\n        return lpVaults.length;\n    }\n\n    function viewNumSCVaults() external view returns(uint256) {\n        return scVaults.length;\n    }\n\n    function viewLaunchParticipants() public view returns(address[] memory) {\n      return launchParticipants;\n    }\n\n    function viewAllGroups() public view returns(address[] memory) {\n      return groups;\n    }\n\n    function viewAllMembersOfAGroup(address _refferalCode) public view returns(address[] memory) {\n      return refferalCodeTracker[_refferalCode];\n    }\n\n    function getGroupName(address _refferalCode) public view returns(string memory) {\n      return refferalCodeToGroupName[_refferalCode];\n    }\n\n    function getAccountsGroup(address _account) public view returns(address) {\n      return groupsYourIn[_account];\n    }\n\n\n    /**\n    @notice createNewLPVault allows the contract owner to create a new WarpVaultLP contract for a specific LP token\n    @param _timelock is a variable representing the number of seconds the timeWizard will prevent withdraws and borrows from a contracts(one week is 605800 seconds)\n    @param _lp is the address for the LP token this Warp Vault will manage\n    @param _lpAsset1 is the address for the first asset in a pair that the LP token represents(ex: wETH in a wETH-wBTC uniswap pair)\n    @param _lpAsset2 is the address for the second asset in a pair that the LP token represents(ex: wBTC in a wETH-wBTC uniswap pair)\n    @param _lpName is the name of the LP token (ex:wETH-wBTC)\n    **/\n    function createNewLPVault(\n        uint256 _timelock,\n        address _lp,\n        address _lpAsset1,\n        address _lpAsset2,\n        string memory _lpName\n    ) public onlyOwner {\n        //create new oracles for this LP\n        Oracle.createNewOracles(_lpAsset1, _lpAsset2, _lp);\n        //create new Warp LP Vault\n        address _WarpVault = WVLPF.createWarpVaultLP(_timelock, _lp, _lpName);\n        //track the warp vault lp instance by the address of the LP it represents\n        instanceLPTracker[_lp] = _WarpVault;\n        //add new LP Vault to the array of all LP vaults\n        lpVaults.push(_WarpVault);\n        //set Warp vault address as an approved vault\n        isVault[_WarpVault] = true;\n        //track vault to asset\n        getVaultByAsset[_WarpVault] = _lp;\n        emit NewLPVault(_WarpVault);\n    }\n\n    /**\n    @notice createNewSCVault allows the contract owner to create a new WarpVaultLP contract for a specific LP token\n    @param _timelock is a variable representing the number of seconds the timeWizard will prevent withdraws and borrows from a contracts(one week is 605800 seconds)\n    @param _baseRatePerYear is the base rate per year(approx target base APR)\n    @param _multiplierPerYear is the multiplier per year(rate of increase in interest w/ utilizastion)\n    @param _jumpMultiplierPerYear is the Jump Multiplier Per Year(the multiplier per block after hitting a specific utilizastion point)\n    @param _optimal is the this is the utilizastion point or \"kink\" at which the jump multiplier is applied\n    @param _initialExchangeRate is the intitial exchange rate(the rate at which the initial exchange of asset/ART is set)\n    @param _StableCoin is the address of the StableCoin this Warp Vault will manage\n    **/\n    function createNewSCVault(\n        uint256 _timelock,\n        uint256 _baseRatePerYear,\n        uint256 _multiplierPerYear,\n        uint256 _jumpMultiplierPerYear,\n        uint256 _optimal,\n        uint256 _initialExchangeRate,\n        uint256 _reserveFactorMantissa,\n        address _StableCoin\n    ) public onlyOwner {\n        //create the interest rate model for this stablecoin\n        address IR = address(\n            new JumpRateModelV2(\n                _baseRatePerYear,\n                _multiplierPerYear,\n                _jumpMultiplierPerYear,\n                _optimal,\n                address(this)\n            )\n        );\n        //create the SC Warp vault\n        address _WarpVault = WVSCF.createNewWarpVaultSC(\n            IR,\n            _StableCoin,\n            warpTeam,\n            _initialExchangeRate,\n            _timelock,\n            _reserveFactorMantissa\n        );\n        //track the warp vault sc instance by the address of the stablecoin it represents\n        instanceSCTracker[_StableCoin] = _WarpVault;\n        //add new SC Vault to the array of all SC vaults\n        scVaults.push(_WarpVault);\n        //set Warp vault address as an approved vault\n        isVault[_WarpVault] = true;\n        //track vault to asset\n        getVaultByAsset[_WarpVault] = _StableCoin;\n        emit NewSCVault(_WarpVault, IR);\n    }\n\n\n    function createGroup(string memory _groupName) public {\n      require(existingRefferalCode[msg.sender] == false);\n        refferalCodeTracker[msg.sender].push(msg.sender);\n          existingRefferalCode[msg.sender] = true;\n          refferalCodeToGroupName[msg.sender] = _groupName;\n          groups.push(msg.sender);\n    }\n\n    function addMemberToGroup(address _refferalCode, address _member) public onlyVault {\n      //Require a member is either not in a group OR has entered their groups refferal code\n      require(isInGroup[_member] == false || groupsYourIn[_member] == _refferalCode, \"Cant join more than one group\");\n        refferalCodeTracker[_refferalCode].push(_member);\n        isInGroup[_member] = true;\n        groupsYourIn[_member] = _refferalCode;\n            //add the mebers address to the total participants member array\n      if(isParticipant[_member] == false) {\n        launchParticipants.push(_member);\n        isParticipant[_member] == true;\n      }\n    }\n\n\n\n\n    /**\n    @notice Figures out how much of a given LP token an account is allowed to withdraw\n     */\n    function getMaxWithdrawAllowed(address account, address lpToken) public returns (uint256) {\n        uint256 borrowedTotal = getTotalBorrowedValue(account);\n        uint256 collateralValue = getTotalAvailableCollateralValue(account);\n        uint256 requiredCollateral = calcCollateralRequired(borrowedTotal);\n        uint256 leftoverCollateral = collateralValue.sub(requiredCollateral);\n        uint256 lpValue = Oracle.getUnderlyingPrice(lpToken);\n        return leftoverCollateral.mul(1e18).div(lpValue);\n    }\n\n    function viewMaxWithdrawAllowed(address account, address lpToken) public view returns (uint256) {\n        uint256 borrowedTotal = viewTotalBorrowedValue(account);\n        uint256 collateralValue = viewTotalAvailableCollateralValue(account);\n        uint256 requiredCollateral = calcCollateralRequired(borrowedTotal);\n        uint256 leftoverCollateral = collateralValue.sub(requiredCollateral);\n        uint256 lpValue = Oracle.viewUnderlyingPrice(lpToken);\n        return leftoverCollateral.mul(1e18).div(lpValue);\n    }\n\n    function getTotalAvailableCollateralValue(address _account)\n        public\n        returns (uint256)\n    {\n        //get the number of LP vaults the platform has\n        uint256 numVaults = lpVaults.length;\n        //initialize the totalCollateral variable to zero\n        uint256 totalCollateral = 0;\n        //loop through each lp wapr vault\n        for (uint256 i = 0; i < numVaults; ++i) {\n            //instantiate warp vault at that position\n            WarpVaultLPI vault = WarpVaultLPI(lpVaults[i]);\n            //retreive the address of its asset\n            address asset = vault.getAssetAdd();\n            //retrieve USD price of this asset\n            uint256 assetPrice = Oracle.getUnderlyingPrice(asset);\n\n            uint256 accountCollateral = vault.collateralOfAccount(_account);\n            //emit DebugValues(accountCollateral, assetPrice);\n\n            //multiply the amount of collateral by the asset price and return it\n            uint256 accountAssetsValue = accountCollateral.mul(assetPrice);\n            //add value to total collateral\n            totalCollateral = totalCollateral.add(accountAssetsValue);\n        }\n        //return total USDC value of all collateral\n        return totalCollateral.div(1e18);\n    }\n\n    function viewTotalAvailableCollateralValue(address _account)\n        public\n        view\n        returns (uint256)\n    {\n        uint256 numVaults = lpVaults.length;\n        uint256 totalCollateral = 0;\n        //loop through each lp wapr vault\n        for (uint256 i = 0; i < numVaults; ++i) {\n            //instantiate warp vault at that position\n            WarpVaultLPI vault = WarpVaultLPI(lpVaults[i]);\n            //retreive the address of its asset\n            address asset = vault.getAssetAdd();\n            //retrieve USD price of this asset\n            uint256 assetPrice = Oracle.viewUnderlyingPrice(asset);\n\n            uint256 accountCollateral = vault.collateralOfAccount(_account);\n\n            //multiply the amount of collateral by the asset price and return it\n            uint256 accountAssetsValue = accountCollateral.mul(assetPrice);\n            //add value to total collateral\n            totalCollateral = totalCollateral.add(accountAssetsValue);\n        }\n        //return total USDC value of all collateral\n        return totalCollateral.div(1e18);\n    }\n\n    function viewPriceOfCollateral(address lpToken) public view returns(uint256)\n    {\n        return Oracle.viewUnderlyingPrice(lpToken);\n    }\n\n    function getPriceOfCollateral(address lpToken) public returns(uint256)\n    {\n        return Oracle.getUnderlyingPrice(lpToken);\n    }\n\n    function viewPriceOfToken(address token, uint256 amount) public view returns(uint256)\n    {\n        return Oracle.viewPriceOfToken(token, amount);\n    }\n\n    function getPriceOfToken(address token, uint256 amount) public returns(uint256)\n    {\n        return Oracle.getPriceOfToken(token, amount);\n    }\n\n    function viewTotalBorrowedValue(address _account) public view returns (uint256) {\n        uint256 numSCVaults = scVaults.length;\n        //initialize the totalBorrowedValue variable to zero\n        uint256 totalBorrowedValue = 0;\n        //loop through all stable coin vaults\n        for (uint256 i = 0; i < numSCVaults; ++i) {\n            //instantiate each LP warp vault\n            WarpVaultSCI WVSC = WarpVaultSCI(scVaults[i]);\n            //retreive the amount user has borrowed from each stablecoin vault\n            uint256 borrowBalanceInStable = WVSC.borrowBalancePrior(_account);\n            if (borrowBalanceInStable == 0) {\n                continue;\n            }\n            uint256 usdcBorrowedAmount = viewPriceOfToken(WVSC.getSCAddress(), borrowBalanceInStable);\n            totalBorrowedValue = totalBorrowedValue.add(\n                usdcBorrowedAmount\n            );\n        }\n        //return total Borrowed Value\n        return totalBorrowedValue;\n    }\n\n    function getTotalBorrowedValue(address _account) public returns (uint256) {\n        uint256 numSCVaults = scVaults.length;\n        //initialize the totalBorrowedValue variable to zero\n        uint256 totalBorrowedValue = 0;\n        //loop through all stable coin vaults\n        for (uint256 i = 0; i < numSCVaults; ++i) {\n            //instantiate each LP warp vault\n            WarpVaultSCI WVSC = WarpVaultSCI(scVaults[i]);\n            //retreive the amount user has borrowed from each stablecoin vault\n            uint borrowBalanceInStable = WVSC.borrowBalanceCurrent(_account);\n            if (borrowBalanceInStable == 0) {\n                continue;\n            }\n            uint256 usdcBorrowedAmount = getPriceOfToken(WVSC.getSCAddress(), borrowBalanceInStable);\n            totalBorrowedValue = totalBorrowedValue.add(\n                usdcBorrowedAmount\n            );\n        }\n        //return total Borrowed Value\n        return totalBorrowedValue;\n    }\n\n    /**\n    @notice calcBorrowLimit is used to calculate the borrow limit for an account based on the input value of their collateral\n    @param _collateralValue is the USDC value of the users collateral\n    @dev this function divides the input value by 3 and then adds that value to itself so it can return 2/3rds of the availible collateral\n        as the borrow limit. If a usser has $150 USDC value in collateral this function will return $100 USDC as their borrow limit.\n    **/\n    function calcBorrowLimit(uint256 _collateralValue)\n        public\n        pure\n        returns (uint256)\n    {\n        //divide the collaterals value by 3 to get 1/3rd of its value\n        uint256 thirdCollatVal = _collateralValue.div(3);\n        //add this 1/3rd value to itself to get 2/3rds of the original value\n        return thirdCollatVal.add(thirdCollatVal);\n    }\n\n    function calcCollateralRequired(uint256 _borrowAmount) public view returns (uint256) {\n        return _borrowAmount.mul(3).div(2);\n    }\n\n    function getBorrowLimit(address _account) public returns (uint256) {\n        uint256 availibleCollateralValue = getTotalAvailableCollateralValue(\n            _account\n        );\n\n        return calcBorrowLimit(availibleCollateralValue);\n    }\n\n    function viewBorrowLimit(address _account) public view returns (uint256) {\n        uint256 availibleCollateralValue = viewTotalAvailableCollateralValue(\n            _account\n        );\n        //return the users borrow limit\n        return calcBorrowLimit(availibleCollateralValue);\n    }\n\n    /**\n@notice borrowSC is the function an end user will call when they wish to borrow a stablecoin from the warp platform\n@param _StableCoin is the address of the stablecoin the user wishes to borrow\n@param _amount is the amount of that stablecoin the user wants to borrow\n**/\n    function borrowSC(address _StableCoin, uint256 _amount) public {\n        uint256 borrowedTotalInUSDC = getTotalBorrowedValue(msg.sender);\n        uint256 borrowLimitInUSDC = getBorrowLimit(msg.sender);\n        uint256 borrowAmountAllowedInUSDC = borrowLimitInUSDC.sub(borrowedTotalInUSDC);\n\n        uint256 borrowAmountInUSDC = getPriceOfToken(_StableCoin, _amount);\n\n        //require the amount being borrowed is less than or equal to the amount they are aloud to borrow\n        require(borrowAmountAllowedInUSDC >= borrowAmountInUSDC, \"Borrowing more than allowed\");\n        //track USDC value of locked LP\n        lockedLPValue[msg.sender] = lockedLPValue[msg.sender].add(_amount);\n        //retreive stablecoin vault address being borrowed from and instantiate it\n        WarpVaultSCI WV = WarpVaultSCI(instanceSCTracker[_StableCoin]);\n        //call _borrow function on the stablecoin warp vault\n        WV._borrow(_amount, msg.sender);\n        emit NewBorrow(msg.sender, _StableCoin, _amount);\n    }\n\n\n\n    /**\n@notice liquidateAccount is used to liquidate a non-compliant loan after it has reached its 30 minute grace period\n@param _borrower is the address of the borrower whos loan is non-compliant\n**/\n    function liquidateAccount(address _borrower) public {\n        //require the liquidator is not also the borrower\n        require(msg.sender != _borrower);\n        //retreive the number of stablecoin vaults in the warp platform\n        uint256 numSCVaults = scVaults.length;\n        //retreive the number of LP vaults in the warp platform\n        uint256 numLPVaults = lpVaults.length;\n        // This is how much USDC worth of Stablecoin the user has borrowed\n        uint256 borrowedAmount = 0;\n        //initialize the stable coin balances array\n        uint256[] memory scBalances = new uint256[](numSCVaults);\n        // loop through and retreive the Borrowed Amount From All Vaults\n        for (uint256 i = 0; i < numSCVaults; ++i) {\n            //instantiate the vault at the current  position in the array\n            WarpVaultSCI scVault = WarpVaultSCI(scVaults[i]);\n            //retreive the borrowers borrow balance from this vault and add it to the scBalances array\n            scBalances[i] = scVault.borrowBalanceCurrent(_borrower);\n            uint8 tokenDecimals = scVault.getSCDecimals();\n            uint256 borrowedAmountInUSDC = viewPriceOfToken(getVaultByAsset[address(scVault)], scBalances[i]);\n\n            //add the borrowed amount to the total borrowed balance\n            borrowedAmount = borrowedAmount.add(borrowedAmountInUSDC);\n        }\n        //retreve the USDC borrow limit for the borrower\n        uint256 borrowLimit = getBorrowLimit(_borrower);\n        //check if the borrow is less than the borrowed amount\n        if (borrowLimit <= borrowedAmount) {\n            // If it is Liquidate the account\n            //loop through each SC vault so the  Liquidator can pay off Stable Coin loans\n            for (uint256 i = 0; i < numSCVaults; ++i) {\n                //instantiate the Warp SC Vault at the current position\n                WarpVaultSCI scVault = WarpVaultSCI(scVaults[i]);\n                //call repayLiquidatedLoan function to repay the loan\n                scVault._repayLiquidatedLoan(\n                    _borrower,\n                    msg.sender,\n                    scBalances[i]\n                );\n            }\n            //loop through each LP vault so the Liquidator gets the LP tokens the borrower had\n            for (uint256 i = 0; i < numLPVaults; ++i) {\n                //instantiate the Warp LP Vault at the current position\n                WarpVaultLPI lpVault = WarpVaultLPI(lpVaults[i]);\n                //call liquidateAccount function on that LP vault\n                lpVault._liquidateAccount(_borrower, msg.sender);\n            }\n            emit Liquidation(_borrower, msg.sender);\n        }\n    }\n\n    function updateInterestRateModel(\n        address _token,\n        uint256 _baseRatePerYear,\n        uint256 _multiplierPerYear,\n        uint256 _jumpMultiplierPerYear,\n        uint256 _optimal\n      ) public onlyOwner {\n      address IR = address(\n          new JumpRateModelV2(\n              _baseRatePerYear,\n              _multiplierPerYear,\n              _jumpMultiplierPerYear,\n              _optimal,\n              address(this)\n          )\n      );\n      address vault = instanceSCTracker[_token];\n      WarpVaultSCI WV = WarpVaultSCI(vault);\n      WV.setNewInterestModel(IR);\n    }\n\n    function startUpgradeTimer(address _newWarpControl) public onlyWarpT{\n      newWarpControl = _newWarpControl;\n      graceSpace = now.add(172800);\n    }\n\n    function upgradeWarp() public onlyWarpT {\n      require(now >= graceSpace);\n        uint256 numVaults = lpVaults.length;\n        uint256 numSCVaults = scVaults.length;\n      for (uint256 i = 0; i < numVaults; ++i) {\n          WarpVaultLPI vault = WarpVaultLPI(lpVaults[i]);\n          vault.upgrade(newWarpControl);\n    }\n\n      for (uint256 i = 0; i < numSCVaults; ++i) {\n          //instantiate each LP warp vault\n          WarpVaultSCI WVSC = WarpVaultSCI(scVaults[i]);\n            WVSC.upgrade(newWarpControl);\n        }\n          WVLPF.transferOwnership(newWarpControl);\n          WVSCF.transferOwnership(newWarpControl);\n          Oracle.transferOwnership(newWarpControl);\n  }\n}\n",
  "sourcePath": "/home/stan36/repos/Warp/Smart-Contracts/contracts/WarpControl.sol",
  "compiler": {
    "name": "solc",
    "version": "0.6.6+commit.6c089d02.Emscripten.clang"
  },
  "schemaVersion": "3.3.2",
  "updatedAt": "2020-12-02T19:44:46.359Z",
  "networkType": "ethereum",
  "devdoc": {
    "methods": {
      "borrowSC(address,uint256)": {
        "params": {
          "_StableCoin": "is the address of the stablecoin the user wishes to borrow",
          "_amount": "is the amount of that stablecoin the user wants to borrow*"
        }
      },
      "calcBorrowLimit(uint256)": {
        "details": "this function divides the input value by 3 and then adds that value to itself so it can return 2/3rds of the availible collateral as the borrow limit. If a usser has $150 USDC value in collateral this function will return $100 USDC as their borrow limit.*",
        "params": {
          "_collateralValue": "is the USDC value of the users collateral"
        }
      },
      "constructor": {
        "details": "These factories are split into seperate contracts to avoid hitting the block gas limit*",
        "params": {
          "_WVLPF": "is the address for the WarpVaultLPFactory used to produce LP Warp Vaults",
          "_WVSCF": "is the address for the WarpVaultSCFactory used to produce Stable Coin Warp Vaults",
          "_oracle": "is the address for the UniswapOracleFactorycontract"
        }
      },
      "createNewLPVault(uint256,address,address,address,string)": {
        "params": {
          "_lp": "is the address for the LP token this Warp Vault will manage",
          "_lpAsset1": "is the address for the first asset in a pair that the LP token represents(ex: wETH in a wETH-wBTC uniswap pair)",
          "_lpAsset2": "is the address for the second asset in a pair that the LP token represents(ex: wBTC in a wETH-wBTC uniswap pair)",
          "_lpName": "is the name of the LP token (ex:wETH-wBTC)*",
          "_timelock": "is a variable representing the number of seconds the timeWizard will prevent withdraws and borrows from a contracts(one week is 605800 seconds)"
        }
      },
      "createNewSCVault(uint256,uint256,uint256,uint256,uint256,uint256,uint256,address)": {
        "params": {
          "_StableCoin": "is the address of the StableCoin this Warp Vault will manage*",
          "_baseRatePerYear": "is the base rate per year(approx target base APR)",
          "_initialExchangeRate": "is the intitial exchange rate(the rate at which the initial exchange of asset/ART is set)",
          "_jumpMultiplierPerYear": "is the Jump Multiplier Per Year(the multiplier per block after hitting a specific utilizastion point)",
          "_multiplierPerYear": "is the multiplier per year(rate of increase in interest w/ utilizastion)",
          "_optimal": "is the this is the utilizastion point or \"kink\" at which the jump multiplier is applied",
          "_timelock": "is a variable representing the number of seconds the timeWizard will prevent withdraws and borrows from a contracts(one week is 605800 seconds)"
        }
      },
      "liquidateAccount(address)": {
        "params": {
          "_borrower": "is the address of the borrower whos loan is non-compliant*"
        }
      },
      "owner()": {
        "details": "Returns the address of the current owner."
      },
      "renounceOwnership()": {
        "details": "Leaves the contract without owner. It will not be possible to call `onlyOwner` functions anymore. Can only be called by the current owner.     * NOTE: Renouncing ownership will leave the contract without an owner, thereby removing any functionality that is only available to the owner."
      },
      "transferOwnership(address)": {
        "details": "Transfers ownership of the contract to a new account (`newOwner`). Can only be called by the current owner."
      }
    }
  },
  "userdoc": {
    "methods": {
      "borrowSC(address,uint256)": {
        "notice": "borrowSC is the function an end user will call when they wish to borrow a stablecoin from the warp platform"
      },
      "calcBorrowLimit(uint256)": {
        "notice": "calcBorrowLimit is used to calculate the borrow limit for an account based on the input value of their collateral"
      },
      "constructor": "the constructor function is fired during the contract deployment process. The constructor can only be fired once and is used to set up Oracle variables for the MoneyMarketFactory contract.",
      "createNewLPVault(uint256,address,address,address,string)": {
        "notice": "createNewLPVault allows the contract owner to create a new WarpVaultLP contract for a specific LP token"
      },
      "createNewSCVault(uint256,uint256,uint256,uint256,uint256,uint256,uint256,address)": {
        "notice": "createNewSCVault allows the contract owner to create a new WarpVaultLP contract for a specific LP token"
      },
      "getMaxWithdrawAllowed(address,address)": {
        "notice": "Figures out how much of a given LP token an account is allowed to withdraw"
      },
      "liquidateAccount(address)": {
        "notice": "liquidateAccount is used to liquidate a non-compliant loan after it has reached its 30 minute grace period"
      },
      "viewNumLPVaults()": {
        "notice": "view functions for front end /////"
      }
    },
    "notice": "WarpControl is designed to coordinate Warp Vaults This contract uses the OpenZeppelin contract Library to inherit functions from Ownable.sol*"
  }
}