{
  "contractName": "WarpVault",
  "abi": [
    {
      "inputs": [
        {
          "internalType": "address",
          "name": "_lp",
          "type": "address"
        },
        {
          "internalType": "address",
          "name": "_DAI",
          "type": "address"
        },
        {
          "internalType": "address",
          "name": "_USDC",
          "type": "address"
        },
        {
          "internalType": "address",
          "name": "_USDT",
          "type": "address"
        },
        {
          "internalType": "address",
          "name": "_oracle",
          "type": "address"
        },
        {
          "internalType": "string",
          "name": "_lpName",
          "type": "string"
        }
      ],
      "stateMutability": "nonpayable",
      "type": "constructor"
    },
    {
      "anonymous": false,
      "inputs": [
        {
          "indexed": true,
          "internalType": "address",
          "name": "previousOwner",
          "type": "address"
        },
        {
          "indexed": true,
          "internalType": "address",
          "name": "newOwner",
          "type": "address"
        }
      ],
      "name": "OwnershipTransferred",
      "type": "event"
    },
    {
      "inputs": [],
      "name": "DAI",
      "outputs": [
        {
          "internalType": "contract IERC20",
          "name": "",
          "type": "address"
        }
      ],
      "stateMutability": "view",
      "type": "function"
    },
    {
      "inputs": [],
      "name": "InterestRate",
      "outputs": [
        {
          "internalType": "contract InterestRateModel",
          "name": "",
          "type": "address"
        }
      ],
      "stateMutability": "view",
      "type": "function"
    },
    {
      "inputs": [],
      "name": "LPtoken",
      "outputs": [
        {
          "internalType": "contract IERC20",
          "name": "",
          "type": "address"
        }
      ],
      "stateMutability": "view",
      "type": "function"
    },
    {
      "inputs": [],
      "name": "UOF",
      "outputs": [
        {
          "internalType": "contract UniswapOracleFactoryI",
          "name": "",
          "type": "address"
        }
      ],
      "stateMutability": "view",
      "type": "function"
    },
    {
      "inputs": [],
      "name": "USDC",
      "outputs": [
        {
          "internalType": "contract IERC20",
          "name": "",
          "type": "address"
        }
      ],
      "stateMutability": "view",
      "type": "function"
    },
    {
      "inputs": [],
      "name": "USDT",
      "outputs": [
        {
          "internalType": "contract IERC20",
          "name": "",
          "type": "address"
        }
      ],
      "stateMutability": "view",
      "type": "function"
    },
    {
      "inputs": [],
      "name": "WC",
      "outputs": [
        {
          "internalType": "contract WarpControl",
          "name": "",
          "type": "address"
        }
      ],
      "stateMutability": "view",
      "type": "function"
    },
    {
      "inputs": [],
      "name": "WDAI",
      "outputs": [
        {
          "internalType": "contract WarpWrapperToken",
          "name": "",
          "type": "address"
        }
      ],
      "stateMutability": "view",
      "type": "function"
    },
    {
      "inputs": [],
      "name": "WLP",
      "outputs": [
        {
          "internalType": "contract WarpWrapperToken",
          "name": "",
          "type": "address"
        }
      ],
      "stateMutability": "view",
      "type": "function"
    },
    {
      "inputs": [],
      "name": "WUSDC",
      "outputs": [
        {
          "internalType": "contract WarpWrapperToken",
          "name": "",
          "type": "address"
        }
      ],
      "stateMutability": "view",
      "type": "function"
    },
    {
      "inputs": [],
      "name": "WUSDT",
      "outputs": [
        {
          "internalType": "contract WarpWrapperToken",
          "name": "",
          "type": "address"
        }
      ],
      "stateMutability": "view",
      "type": "function"
    },
    {
      "inputs": [],
      "name": "accrualBlockNumber",
      "outputs": [
        {
          "internalType": "uint256",
          "name": "",
          "type": "uint256"
        }
      ],
      "stateMutability": "view",
      "type": "function"
    },
    {
      "inputs": [],
      "name": "borrowIndex",
      "outputs": [
        {
          "internalType": "uint256",
          "name": "",
          "type": "uint256"
        }
      ],
      "stateMutability": "view",
      "type": "function"
    },
    {
      "inputs": [],
      "name": "initialized",
      "outputs": [
        {
          "internalType": "bool",
          "name": "",
          "type": "bool"
        }
      ],
      "stateMutability": "view",
      "type": "function"
    },
    {
      "inputs": [],
      "name": "lockTime",
      "outputs": [
        {
          "internalType": "uint256",
          "name": "",
          "type": "uint256"
        }
      ],
      "stateMutability": "view",
      "type": "function"
    },
    {
      "inputs": [],
      "name": "lpName",
      "outputs": [
        {
          "internalType": "string",
          "name": "",
          "type": "string"
        }
      ],
      "stateMutability": "view",
      "type": "function"
    },
    {
      "inputs": [],
      "name": "owner",
      "outputs": [
        {
          "internalType": "address",
          "name": "",
          "type": "address"
        }
      ],
      "stateMutability": "view",
      "type": "function"
    },
    {
      "inputs": [],
      "name": "renounceOwnership",
      "outputs": [],
      "stateMutability": "nonpayable",
      "type": "function"
    },
    {
      "inputs": [],
      "name": "reserveFactorMantissa",
      "outputs": [
        {
          "internalType": "uint256",
          "name": "",
          "type": "uint256"
        }
      ],
      "stateMutability": "view",
      "type": "function"
    },
    {
      "inputs": [],
      "name": "totalBorrows",
      "outputs": [
        {
          "internalType": "uint256",
          "name": "",
          "type": "uint256"
        }
      ],
      "stateMutability": "view",
      "type": "function"
    },
    {
      "inputs": [],
      "name": "totalReserves",
      "outputs": [
        {
          "internalType": "uint256",
          "name": "",
          "type": "uint256"
        }
      ],
      "stateMutability": "view",
      "type": "function"
    },
    {
      "inputs": [
        {
          "internalType": "address",
          "name": "newOwner",
          "type": "address"
        }
      ],
      "name": "transferOwnership",
      "outputs": [],
      "stateMutability": "nonpayable",
      "type": "function"
    },
    {
      "inputs": [
        {
          "internalType": "uint256",
          "name": "_baseRatePerYear",
          "type": "uint256"
        },
        {
          "internalType": "uint256",
          "name": "_multiplierPerYear",
          "type": "uint256"
        },
        {
          "internalType": "uint256",
          "name": "_jumpMultiplierPerYear",
          "type": "uint256"
        },
        {
          "internalType": "uint256",
          "name": "_optimal",
          "type": "uint256"
        },
        {
          "internalType": "uint256",
          "name": "_initialExchangeRate",
          "type": "uint256"
        }
      ],
      "name": "setUp",
      "outputs": [],
      "stateMutability": "nonpayable",
      "type": "function"
    },
    {
      "inputs": [
        {
          "internalType": "address",
          "name": "_account",
          "type": "address"
        }
      ],
      "name": "balanceOfUnderlying",
      "outputs": [
        {
          "internalType": "uint256",
          "name": "",
          "type": "uint256"
        }
      ],
      "stateMutability": "nonpayable",
      "type": "function"
    },
    {
      "inputs": [],
      "name": "accrueInterest",
      "outputs": [],
      "stateMutability": "nonpayable",
      "type": "function"
    },
    {
      "inputs": [
        {
          "internalType": "address",
          "name": "account",
          "type": "address"
        },
        {
          "internalType": "uint256",
          "name": "_assetType",
          "type": "uint256"
        }
      ],
      "name": "borrowBalanceCurrent",
      "outputs": [
        {
          "internalType": "uint256",
          "name": "",
          "type": "uint256"
        }
      ],
      "stateMutability": "nonpayable",
      "type": "function"
    },
    {
      "inputs": [],
      "name": "borrowRatePerBlock",
      "outputs": [
        {
          "internalType": "uint256",
          "name": "",
          "type": "uint256"
        }
      ],
      "stateMutability": "view",
      "type": "function"
    },
    {
      "inputs": [],
      "name": "supplyRatePerBlock",
      "outputs": [
        {
          "internalType": "uint256",
          "name": "",
          "type": "uint256"
        }
      ],
      "stateMutability": "view",
      "type": "function"
    },
    {
      "inputs": [],
      "name": "totalBorrowsCurrent",
      "outputs": [
        {
          "internalType": "uint256",
          "name": "",
          "type": "uint256"
        }
      ],
      "stateMutability": "nonpayable",
      "type": "function"
    },
    {
      "inputs": [],
      "name": "exchangeRateCurrent",
      "outputs": [
        {
          "internalType": "uint256",
          "name": "",
          "type": "uint256"
        }
      ],
      "stateMutability": "nonpayable",
      "type": "function"
    },
    {
      "inputs": [],
      "name": "getCash",
      "outputs": [
        {
          "internalType": "uint256",
          "name": "",
          "type": "uint256"
        }
      ],
      "stateMutability": "view",
      "type": "function"
    },
    {
      "inputs": [
        {
          "internalType": "uint256",
          "name": "_amount",
          "type": "uint256"
        },
        {
          "internalType": "uint256",
          "name": "_assetType",
          "type": "uint256"
        }
      ],
      "name": "lendToWarpVault",
      "outputs": [],
      "stateMutability": "nonpayable",
      "type": "function"
    },
    {
      "inputs": [
        {
          "internalType": "uint256",
          "name": "_amount",
          "type": "uint256"
        },
        {
          "internalType": "uint256",
          "name": "_assetType",
          "type": "uint256"
        }
      ],
      "name": "redeem",
      "outputs": [],
      "stateMutability": "nonpayable",
      "type": "function"
    },
    {
      "inputs": [
        {
          "internalType": "uint256",
          "name": "_borrowAmount",
          "type": "uint256"
        },
        {
          "internalType": "uint256",
          "name": "_assetType",
          "type": "uint256"
        }
      ],
      "name": "borrow",
      "outputs": [],
      "stateMutability": "nonpayable",
      "type": "function"
    },
    {
      "inputs": [
        {
          "internalType": "uint256",
          "name": "repayAmount",
          "type": "uint256"
        },
        {
          "internalType": "uint256",
          "name": "_assetType",
          "type": "uint256"
        }
      ],
      "name": "repayBorrow",
      "outputs": [],
      "stateMutability": "nonpayable",
      "type": "function"
    },
    {
      "inputs": [
        {
          "internalType": "uint256",
          "name": "_amount",
          "type": "uint256"
        }
      ],
      "name": "collateralizeLP",
      "outputs": [],
      "stateMutability": "nonpayable",
      "type": "function"
    },
    {
      "inputs": [],
      "name": "getAssetAdd",
      "outputs": [
        {
          "internalType": "address",
          "name": "",
          "type": "address"
        }
      ],
      "stateMutability": "view",
      "type": "function"
    }
  ],
  "bytecode": "0x60806040523480156200001157600080fd5b5060405162004d4e38038062004d4e833981810160405260c08110156200003757600080fd5b815160208301516040808501516060860151608087015160a0880180519451969895979396929591949293820192846401000000008211156200007957600080fd5b9083019060208201858111156200008f57600080fd5b8251640100000000811182820188101715620000aa57600080fd5b82525081516020918201929091019080838360005b83811015620000d9578181015183820152602001620000bf565b50505050905090810190601f168015620001075780820380516001836020036101000a031916815260200191505b50604052505050600062000120620004e160201b60201c565b600080546001600160a01b0319166001600160a01b03831690811782556040519293509160008051602062004d2e833981519152908290a3506200016d336001600160e01b03620004e616565b600880908054600181600116156101000203166002900462000191929190620005ed565b50600980546001600160a01b0380891661010002610100600160a81b031990921691909117909155600a80548783166001600160a01b031991821617909155600b8054878416908316179055600c8054868416908316179055601280549285169282169290921790915560118054909116331790556040518590620002169062000679565b6001600160a01b0390911681526060602082018190526004908201819052635744414960e01b6080830181905260a060408085018290529084019290925260c0830152519081900360e001906000f08015801562000278573d6000803e3d6000fd5b50600d80546001600160a01b0319166001600160a01b03929092169190911790556040518490620002a99062000679565b6001600160a01b039091168152606060208201819052600f908201526e2baaa9902237b63630b91021b7b4b760891b608082015260a0604080830182905260059183019190915264575553444360d81b60c0830152519081900360e001906000f0801580156200031d573d6000803e3d6000fd5b50600e80546001600160a01b0319166001600160a01b039290921691909117905560405183906200034e9062000679565b6001600160a01b039091168152606060208201819052601190820152702baaa9902237b63630b9102a32ba3432b960791b608082015260a060408083018290526005918301919091526415d554d11560da1b60c0830152519081900360e001906000f080158015620003c4573d6000803e3d6000fd5b50600f60006101000a8154816001600160a01b0302191690836001600160a01b031602179055508581604051620003fb9062000679565b6001600160a01b0383168152606060208083018281528451928401929092528351604084019160808501919086019080838360005b838110156200044a57818101518382015260200162000430565b50505050905090810190601f168015620004785780820380516001836020036101000a031916815260200191505b509283039052506004815263574c505760e01b6020820152604080519182900301925090506000f080158015620004b3573d6000803e3d6000fd5b50601080546001600160a01b0319166001600160a01b039290921691909117905550620006a4945050505050565b335b90565b620004f96001600160e01b03620004e116565b6000546001600160a01b039081169116146200055c576040805162461bcd60e51b815260206004820181905260248201527f4f776e61626c653a2063616c6c6572206973206e6f7420746865206f776e6572604482015290519081900360640190fd5b6001600160a01b038116620005a35760405162461bcd60e51b815260040180806020018281038252602681526020018062004d086026913960400191505060405180910390fd5b600080546040516001600160a01b038085169392169160008051602062004d2e83398151915291a3600080546001600160a01b0319166001600160a01b0392909216919091179055565b828054600181600116156101000203166002900490600052602060002090601f016020900481019282601f1062000628578054855562000667565b828001600101855582156200066757600052602060002091601f016020900482015b82811115620006675782548255916001019190600101906200064a565b506200067592915062000687565b5090565b61136b806200399d83390190565b620004e391905b808211156200067557600081556001016200068e565b6132e980620006b46000396000f3fe60806040523480156200001157600080fd5b5060043610620002265760003560e01c806373acee98116200013b578063aa5af0fd11620000c9578063e0bab4c41162000087578063e0bab4c414620004fa578063e4ef8b201462000504578063efb818ce146200050e578063f2fde38b146200053d578063f8f9da2814620005665762000226565b8063aa5af0fd14620004c8578063ae9d70b014620004d2578063bd6d894d14620004dc578063c14cba3e14620004e6578063c54e44eb14620004f05762000226565b806373acee9814620004245780637cbc2373146200042e57806380b84390146200045457806389a30271146200048c5780638da5cb5b14620004965780638f840ddd14620004a05780639ab2370114620004aa578063a2f97bf514620004b4578063a6afed9514620004be5762000226565b80633b1d21a211620001b95780633b1d21a2146200032057806346cd6801146200032a57806347bd371814620003ac57806348dc0b6e14620003b65780634c20ac7414620003c057806350a9f64e14620003ca5780636c540baf14620003f05780636ea184bd14620003fa578063715018a6146200041a5762000226565b80630d668087146200022b5780630ecbcdab146200024757806311e2c02f146200026f578063122b58181462000295578063158ef93e146200029f578063173b990414620002bd5780631d0ca7a814620002c757806338b0dcce14620002d15780633af9e66914620002f7575b600080fd5b6200023562000570565b60408051918252519081900360200190f35b6200026d600480360360408110156200025f57600080fd5b508035906020013562000576565b005b6200027962000ac8565b604080516001600160a01b039092168252519081900360200190f35b6200027962000ad7565b620002a962000ae6565b604080519115158252519081900360200190f35b6200023562000aef565b6200027962000af5565b6200026d60048036036040811015620002e957600080fd5b508035906020013562000b04565b62000235600480360360208110156200030f57600080fd5b50356001600160a01b031662000dfb565b6200023562000eda565b6200033462000eec565b6040805160208082528351818301528351919283929083019185019080838360005b838110156200037057818101518382015260200162000356565b50505050905090810190601f1680156200039e5780820380516001836020036101000a031916815260200191505b509250505060405180910390f35b6200023562000f7e565b6200027962000f84565b6200027962000f93565b6200026d60048036036040811015620003e257600080fd5b508035906020013562000fa7565b6200023562001335565b6200026d600480360360208110156200041257600080fd5b50356200133b565b6200026d620014ae565b6200023562001565565b6200026d600480360360408110156200044657600080fd5b508035906020013562001578565b6200026d600480360360a08110156200046c57600080fd5b508035906020810135906040810135906060810135906080013562001a79565b6200027962001b38565b6200027962001b47565b6200023562001b56565b6200027962001b5c565b6200027962001b6b565b6200026d62001b7a565b6200023562001d0f565b6200023562001d15565b6200023562001db9565b6200027962001f1d565b6200027962001f31565b6200027962001f40565b6200027962001f4f565b62000235600480360360408110156200052657600080fd5b506001600160a01b03813516906020013562001f5e565b6200026d600480360360208110156200055557600080fd5b50356001600160a01b03166200209c565b62000235620021ab565b60015481565b6200058062001b7a565b6001811015801562000593575060038111155b6200059d57600080fd5b620005a7620027b3565b81600114156200075b57600a54604080516370a0823160e01b8152306004820152905185926001600160a01b0316916370a08231916024808301926020929190829003018186803b158015620005fc57600080fd5b505afa15801562000611573d6000803e3d6000fd5b505050506040513d60208110156200062857600080fd5b5051116200063557600080fd5b62000641338362001f5e565b6020820181905262000654908462002212565b60408301819052828260038111156200066957fe5b60038111156200067557fe5b8152505050620006886006548462002212565b60608301819052828260038111156200069d57fe5b6003811115620006a957fe5b90525050604081810151336000818152601460209081528482209384556005546001909401939093556060850151600655600a54845163a9059cbb60e01b815260048101939093526024830188905293516001600160a01b039094169363a9059cbb936044808501949193918390030190829087803b1580156200072c57600080fd5b505af115801562000741573d6000803e3d6000fd5b505050506040513d60208110156200075857600080fd5b50505b81600214156200090f57600b54604080516370a0823160e01b8152306004820152905185926001600160a01b0316916370a08231916024808301926020929190829003018186803b158015620007b057600080fd5b505afa158015620007c5573d6000803e3d6000fd5b505050506040513d6020811015620007dc57600080fd5b505111620007e957600080fd5b620007f5338362001f5e565b6020820181905262000808908462002212565b60408301819052828260038111156200081d57fe5b60038111156200082957fe5b81525050506200083c6006548462002212565b60608301819052828260038111156200085157fe5b60038111156200085d57fe5b90525050604081810151336000818152601560209081528482209384556005546001909401939093556060850151600655600b54845163a9059cbb60e01b815260048101939093526024830188905293516001600160a01b039094169363a9059cbb936044808501949193918390030190829087803b158015620008e057600080fd5b505af1158015620008f5573d6000803e3d6000fd5b505050506040513d60208110156200090c57600080fd5b50505b816003141562000ac357600c54604080516370a0823160e01b8152306004820152905185926001600160a01b0316916370a08231916024808301926020929190829003018186803b1580156200096457600080fd5b505afa15801562000979573d6000803e3d6000fd5b505050506040513d60208110156200099057600080fd5b5051116200099d57600080fd5b620009a9338362001f5e565b60208201819052620009bc908462002212565b6040830181905282826003811115620009d157fe5b6003811115620009dd57fe5b8152505050620009f06006548462002212565b606083018190528282600381111562000a0557fe5b600381111562000a1157fe5b90525050604081810151336000818152601660209081528482209384556005546001909401939093556060850151600655600c54845163a9059cbb60e01b815260048101939093526024830188905293516001600160a01b039094169363a9059cbb936044808501949193918390030190829087803b15801562000a9457600080fd5b505af115801562000aa9573d6000803e3d6000fd5b505050506040513d602081101562000ac057600080fd5b50505b505050565b6012546001600160a01b031681565b6011546001600160a01b031681565b60095460ff1681565b60035481565b600e546001600160a01b031681565b62000b0e62001b7a565b6001811015801562000b21575060038111155b62000b2b57600080fd5b62000b35620027dc565b816001141562000c21573360008181526014602052604090819020600101549083015262000b64908362001f5e565b60608201528262000b7f576060810151602082015262000b87565b602081018390525b62000b9b816060015182602001516200223d565b608083018190528282600381111562000bb057fe5b600381111562000bbc57fe5b815250505062000bd360065482602001516200223d565b60a083018190528282600381111562000be857fe5b600381111562000bf457fe5b90525050608081015133600090815260146020526040902090815560055460019091015560a08101516006555b816002141562000d0d573360008181526015602052604090819020600101549083015262000c50908362001f5e565b60608201528262000c6b576060810151602082015262000c73565b602081018390525b62000c87816060015182602001516200223d565b608083018190528282600381111562000c9c57fe5b600381111562000ca857fe5b815250505062000cbf60065482602001516200223d565b60a083018190528282600381111562000cd457fe5b600381111562000ce057fe5b90525050608081015133600090815260156020526040902090815560055460019091015560a08101516006555b816003141562000ac3573360008181526015602052604090819020600101549083015262000d3c908362001f5e565b60608201528262000d57576060810151602082015262000d5f565b602081018390525b62000d73816060015182602001516200223d565b608083018190528282600381111562000d8857fe5b600381111562000d9457fe5b815250505062000dab60065482602001516200223d565b60a083018190528282600381111562000dc057fe5b600381111562000dcc57fe5b90525050608081015133600090815260156020526040902090815560055460019091015560a001516006555050565b600062000e0762002813565b604051806020016040528062000e1c62001db9565b9052600954604080516370a0823160e01b81526001600160a01b0387811660048301529151939450600093849362000eb393879361010090920416916370a0823191602480820192602092909190829003018186803b15801562000e7f57600080fd5b505afa15801562000e94573d6000803e3d6000fd5b505050506040513d602081101562000eab57600080fd5b505162002263565b9092509050600082600381111562000ec757fe5b1462000ed257600080fd5b949350505050565b600062000ee6620022bf565b90505b90565b6008805460408051602060026001851615610100026000190190941693909304601f8101849004840282018401909252818152929183018282801562000f765780601f1062000f4a5761010080835404028352916020019162000f76565b820191906000526020600020905b81548152906001019060200180831162000f5857829003601f168201915b505050505081565b60065481565b6013546001600160a01b031681565b60095461010090046001600160a01b031690565b6001811015801562000fba575060038111155b62000fc457600080fd5b62000fce62002826565b62000fd862001db9565b60208083019182526040805191820190529051815262000ffa9084906200246c565b60408301819052828260038111156200100f57fe5b60038111156200101b57fe5b9052505060018214156200112557600a54604080516323b872dd60e01b81523360048201523060248201526044810186905290516001600160a01b03909216916323b872dd916064808201926020929091908290030181600087803b1580156200108457600080fd5b505af115801562001099573d6000803e3d6000fd5b505050506040513d6020811015620010b057600080fd5b5050600d5460408083015181516340c10f1960e01b8152336004820152602481019190915290516001600160a01b03909216916340c10f199160448082019260009290919082900301818387803b1580156200110b57600080fd5b505af115801562001120573d6000803e3d6000fd5b505050505b81600214156200122b57600b54604080516323b872dd60e01b81523360048201523060248201526044810186905290516001600160a01b03909216916323b872dd916064808201926020929091908290030181600087803b1580156200118a57600080fd5b505af11580156200119f573d6000803e3d6000fd5b505050506040513d6020811015620011b657600080fd5b5050600e5460408083015181516340c10f1960e01b8152336004820152602481019190915290516001600160a01b03909216916340c10f199160448082019260009290919082900301818387803b1580156200121157600080fd5b505af115801562001226573d6000803e3d6000fd5b505050505b816003141562000ac357600c54604080516323b872dd60e01b81523360048201523060248201526044810186905290516001600160a01b03909216916323b872dd916064808201926020929091908290030181600087803b1580156200129057600080fd5b505af1158015620012a5573d6000803e3d6000fd5b505050506040513d6020811015620012bc57600080fd5b5050600f5460408083015181516340c10f1960e01b8152336004820152602481019190915290516001600160a01b03909216916340c10f199160448082019260009290919082900301818387803b1580156200131757600080fd5b505af11580156200132c573d6000803e3d6000fd5b50505050505050565b60045481565b600954604080516323b872dd60e01b81523360048201523060248201526044810184905290516101009092046001600160a01b0316916323b872dd916064808201926020929091908290030181600087803b1580156200139a57600080fd5b505af1158015620013af573d6000803e3d6000fd5b505050506040513d6020811015620013c657600080fd5b50506011546009546040805163152eadbb60e01b81523360048201526101009092046001600160a01b03908116602484015260448301859052905192169163152eadbb9160648082019260009290919082900301818387803b1580156200142c57600080fd5b505af115801562001441573d6000803e3d6000fd5b5050601054604080516340c10f1960e01b81523360048201526024810186905290516001600160a01b0390921693506340c10f19925060448082019260009290919082900301818387803b1580156200149957600080fd5b505af115801562000ac0573d6000803e3d6000fd5b620014b862002487565b6000546001600160a01b039081169116146200151b576040805162461bcd60e51b815260206004820181905260248201527f4f776e61626c653a2063616c6c6572206973206e6f7420746865206f776e6572604482015290519081900360640190fd5b600080546040516001600160a01b03909116907f8be0079c531659141344cd1fd0a4f28419497f9722a3daafe3b4186f6b6457e0908390a3600080546001600160a01b0319169055565b60006200157162001b7a565b5060065490565b6200158262001b7a565b816200158d57600080fd5b60018110158015620015a0575060038111155b620015aa57600080fd5b620015b462002826565b620015be62001db9565b602080830191825260408051918201905290518152620015df908462002263565b6040830181905282826003811115620015f457fe5b60038111156200160057fe5b9052505060018214156200179057604080820151600a5482516370a0823160e01b8152306004820152925191926001600160a01b03909116916370a0823191602480820192602092909190829003018186803b1580156200166057600080fd5b505afa15801562001675573d6000803e3d6000fd5b505050506040513d60208110156200168c57600080fd5b505110156200169a57600080fd5b600d5460408051632770a7eb60e21b81523360048201526024810186905290516001600160a01b0390921691639dc29fac9160448082019260009290919082900301818387803b158015620016ee57600080fd5b505af115801562001703573d6000803e3d6000fd5b5050600a54604080850151815163a9059cbb60e01b8152336004820152602481019190915290516001600160a01b03909216935063a9059cbb92506044808201926020929091908290030181600087803b1580156200176157600080fd5b505af115801562001776573d6000803e3d6000fd5b505050506040513d60208110156200178d57600080fd5b50505b81600214156200191c57604080820151600b5482516370a0823160e01b8152306004820152925191926001600160a01b03909116916370a0823191602480820192602092909190829003018186803b158015620017ec57600080fd5b505afa15801562001801573d6000803e3d6000fd5b505050506040513d60208110156200181857600080fd5b505110156200182657600080fd5b600e5460408051632770a7eb60e21b81523360048201526024810186905290516001600160a01b0390921691639dc29fac9160448082019260009290919082900301818387803b1580156200187a57600080fd5b505af11580156200188f573d6000803e3d6000fd5b5050600b54604080850151815163a9059cbb60e01b8152336004820152602481019190915290516001600160a01b03909216935063a9059cbb92506044808201926020929091908290030181600087803b158015620018ed57600080fd5b505af115801562001902573d6000803e3d6000fd5b505050506040513d60208110156200191957600080fd5b50505b816003141562000ac357604080820151600c5482516370a0823160e01b8152306004820152925191926001600160a01b03909116916370a0823191602480820192602092909190829003018186803b1580156200197857600080fd5b505afa1580156200198d573d6000803e3d6000fd5b505050506040513d6020811015620019a457600080fd5b50511015620019b257600080fd5b600f5460408051632770a7eb60e21b81523360048201526024810186905290516001600160a01b0390921691639dc29fac9160448082019260009290919082900301818387803b15801562001a0657600080fd5b505af115801562001a1b573d6000803e3d6000fd5b5050600c54604080850151815163a9059cbb60e01b8152336004820152602481019190915290516001600160a01b03909216935063a9059cbb92506044808201926020929091908290030181600087803b15801562000a9457600080fd5b60095460ff161562001a8a57600080fd5b6000858585853060405162001a9f9062002848565b948552602085019390935260408085019290925260608401526001600160a01b039091166080830152519081900360a001906000f08015801562001ae7573d6000803e3d6000fd5b50601380546001600160a01b0319166001600160a01b0383161790556002839055905062001b146200248b565b6004555050670de0b6b3a764000060055550506009805460ff191660011790555050565b600b546001600160a01b031681565b6000546001600160a01b031690565b60075481565b6010546001600160a01b031681565b600d546001600160a01b031681565b600062001b866200248b565b6004549091508082141562001b9a57600080fd5b600062001ba6620022bf565b600654600754600554601354604080516315f2405360e01b815260048101879052602481018690526044810185905290519596509394929391926000926001600160a01b03909216916315f24053916064808301926020929190829003018186803b15801562001c1557600080fd5b505afa15801562001c2a573d6000803e3d6000fd5b505050506040513d602081101562001c4157600080fd5b5051905065048c2739500081111562001c5957600080fd5b60008062001c6889896200223d565b9150915062001c7662002813565b60008060008062001c9660405180602001604052808a815250876200248f565b909750945062001ca7858c62002263565b909750935062001cb8848c62002212565b60408051602081019091526003548152919850935062001cda90858c620024fe565b909750915062001cec858a80620024fe565b60049f909f55505060059c909c5560065550505060079790975550505050505050565b60055481565b6013546000906001600160a01b031663b816881662001d33620022bf565b6006546007546003546040518563ffffffff1660e01b81526004018085815260200184815260200183815260200182815260200194505050505060206040518083038186803b15801562001d8657600080fd5b505afa15801562001d9b573d6000803e3d6000fd5b505050506040513d602081101562001db257600080fd5b5051905090565b600062001dc562001b7a565b601060009054906101000a90046001600160a01b03166001600160a01b03166318160ddd6040518163ffffffff1660e01b815260040160206040518083038186803b15801562001e1457600080fd5b505afa15801562001e29573d6000803e3d6000fd5b505050506040513d602081101562001e4057600080fd5b505162001e51575060025462000ee9565b600062001e5d620022bf565b9050600062001e6b62002813565b600062001e7e8460065460075462002565565b809450819250505062001f0e83601060009054906101000a90046001600160a01b03166001600160a01b03166318160ddd6040518163ffffffff1660e01b815260040160206040518083038186803b15801562001eda57600080fd5b505afa15801562001eef573d6000803e3d6000fd5b505050506040513d602081101562001f0657600080fd5b5051620025aa565b51955062000ee9945050505050565b60095461010090046001600160a01b031681565b600c546001600160a01b031681565b600a546001600160a01b031681565b600f546001600160a01b031681565b600062001f6a62001b7a565b6000806000846001141562002024576001600160a01b0386166000908152601460205260409020805462001fa657600094505050505062002096565b62001fb8816000015460055462002667565b9094509250600084600381111562001fcc57fe5b1462001fe057600094505050505062002096565b62001ff0838260010154620026ac565b909450915060008460038111156200200457fe5b146200201857600094505050505062002096565b50925062002096915050565b84600214156200205b576001600160a01b0386166000908152601560205260409020805462001fa657600094505050505062002096565b846003141562002092576001600160a01b0386166000908152601660205260409020805462001fa657600094505050505062002096565b5050505b92915050565b620020a662002487565b6000546001600160a01b0390811691161462002109576040805162461bcd60e51b815260206004820181905260248201527f4f776e61626c653a2063616c6c6572206973206e6f7420746865206f776e6572604482015290519081900360640190fd5b6001600160a01b038116620021505760405162461bcd60e51b81526004018080602001828103825260268152602001806200328e6026913960400191505060405180910390fd5b600080546040516001600160a01b03808516939216917f8be0079c531659141344cd1fd0a4f28419497f9722a3daafe3b4186f6b6457e091a3600080546001600160a01b0319166001600160a01b0392909216919091179055565b6013546000906001600160a01b03166315f24053620021c9620022bf565b6006546007546040518463ffffffff1660e01b815260040180848152602001838152602001828152602001935050505060206040518083038186803b15801562001d8657600080fd5b6000808383018481106200222c5760009250905062002236565b5060029150600090505b9250929050565b6000808383116200225657506000905081830362002236565b5060039050600062002236565b60008060006200227262002813565b6200227e86866200248f565b909250905060008260038111156200229257fe5b14620022a5575091506000905062002236565b6000620022b282620026da565b9350935050509250929050565b600a54604080516370a0823160e01b8152306004820152905160009283926001600160a01b03909116916370a0823191602480820192602092909190829003018186803b1580156200231057600080fd5b505afa15801562002325573d6000803e3d6000fd5b505050506040513d60208110156200233c57600080fd5b5051600b54604080516370a0823160e01b815230600482015290519293506000926001600160a01b03909216916370a0823191602480820192602092909190829003018186803b1580156200239057600080fd5b505afa158015620023a5573d6000803e3d6000fd5b505050506040513d6020811015620023bc57600080fd5b5051600c54604080516370a0823160e01b815230600482015290519293506000926001600160a01b03909216916370a0823191602480820192602092909190829003018186803b1580156200241057600080fd5b505afa15801562002425573d6000803e3d6000fd5b505050506040513d60208110156200243c57600080fd5b50519050620024648162002457858563ffffffff620026e916565b9063ffffffff620026e916565b935050505090565b60008060006200247b62002813565b6200227e86866200274b565b3390565b4390565b60006200249b62002813565b600080620024ae86600001518662002667565b90925090506000826003811115620024c257fe5b14620024e35750604080516020810190915260008152909250905062002236565b60408051602081019091529081526000969095509350505050565b60008060006200250d62002813565b6200251987876200248f565b909250905060008260038111156200252d57fe5b146200254057509150600090506200255d565b620025566200254f82620026da565b8662002212565b9350935050505b935093915050565b60008060008062002577878762002212565b909250905060008260038111156200258b57fe5b146200259e57509150600090506200255d565b6200255681866200223d565b6000620025b662002813565b600080620025cd86670de0b6b3a764000062002667565b90925090506000826003811115620025e157fe5b14620026025750604080516020810190915260008152909250905062002236565b600080620026118388620026ac565b909250905060008260038111156200262557fe5b146200264a578160405180602001604052806000815250955095505050505062002236565b604080516020810190915290815260009890975095505050505050565b600080836200267c5750600090508062002236565b838302838582816200268a57fe5b0414620026a05750600291506000905062002236565b60009250905062002236565b60008082620026c2575060019050600062002236565b6000838581620026ce57fe5b04915091509250929050565b51670de0b6b3a7640000900490565b60008282018381101562002744576040805162461bcd60e51b815260206004820152601b60248201527f536166654d6174683a206164646974696f6e206f766572666c6f770000000000604482015290519081900360640190fd5b9392505050565b60006200275762002813565b6000806200276e670de0b6b3a76400008762002667565b909250905060008260038111156200278257fe5b14620027a35750604080516020810190915260008152909250905062002236565b620022b2818660000151620025aa565b604080516080810190915280600081526020016000815260200160008152602001600081525090565b6040805160c08101909152806000815260200160008152602001600081526020016000815260200160008152602001600081525090565b6040518060200160405280600081525090565b6040805160608101909152806000815260200160008152602001600081525090565b610a3780620028578339019056fe608060405234801561001057600080fd5b50604051610a37380380610a37833981810160405260a081101561003357600080fd5b508051602082015160408301516060840151608090940151600080546001600160a01b0319166001600160a01b03831617905592939192909190848484848461007e8585858561008d565b505050505050505050506102bc565b6100a7622014808561017060201b6105901790919060201c565b6002556100f66100c562201480836101c1602090811b61053717901c565b6100e4670de0b6b3a7640000866101c160201b6105371790919060201c565b61017060201b6105901790919060201c565b6001556101118262201480610170602090811b61059017901c565b60038190556004829055600254600154604080519283526020830191909152818101929092526060810183905290517f6960ab234c7ef4b0c9197100f5393cfcde7c453ac910a27bd2000aa1dd4c068d9181900360800190a150505050565b60006101b883836040518060400160405280601a81526020017f536166654d6174683a206469766973696f6e206279207a65726f00000000000081525061021a60201b60201c565b90505b92915050565b6000826101d0575060006101bb565b828202828482816101dd57fe5b04146101b85760405162461bcd60e51b8152600401808060200182810382526021815260200180610a166021913960400191505060405180910390fd5b600081836102a65760405162461bcd60e51b81526004018080602001828103825283818151815260200191508051906020019080838360005b8381101561026b578181015183820152602001610253565b50505050905090810190601f1680156102985780820380516001836020036101000a031916815260200191505b509250505060405180910390fd5b5060008385816102b257fe5b0495945050505050565b61074b806102cb6000396000f3fe608060405234801561001057600080fd5b506004361061009e5760003560e01c8063a385fb9611610066578063a385fb9614610164578063b81688161461016c578063b9f9850a1461019b578063f14039de146101a3578063fd2da339146101ab5761009e565b806315f24053146100a35780632037f3e7146100de5780636e71e2d81461010f5780638726bb89146101385780638da5cb5b14610140575b600080fd5b6100cc600480360360608110156100b957600080fd5b50803590602081013590604001356101b3565b60408051918252519081900360200190f35b61010d600480360360808110156100f457600080fd5b50803590602081013590604081013590606001356101ca565b005b6100cc6004803603606081101561012557600080fd5b5080359060208101359060400135610225565b6100cc61027b565b610148610281565b604080516001600160a01b039092168252519081900360200190f35b6100cc610290565b6100cc6004803603608081101561018257600080fd5b5080359060208101359060408101359060600135610297565b6100cc610316565b6100cc61031c565b6100cc610322565b60006101c0848484610328565b90505b9392505050565b6000546001600160a01b031633146102135760405162461bcd60e51b81526004018080602001828103825260268152602001806106f06026913960400191505060405180910390fd5b61021f848484846103f1565b50505050565b600082610234575060006101c3565b6101c06102578361024b878763ffffffff61049216565b9063ffffffff6104f516565b61026f85670de0b6b3a764000063ffffffff61053716565b9063ffffffff61059016565b60015481565b6000546001600160a01b031681565b6220148081565b6000806102b2670de0b6b3a76400008463ffffffff6104f516565b905060006102c1878787610328565b905060006102e1670de0b6b3a764000061026f848663ffffffff61053716565b905061030a670de0b6b3a764000061026f836102fe8c8c8c610225565b9063ffffffff61053716565b98975050505050505050565b60035481565b60025481565b60045481565b600080610336858585610225565b9050600454811161037c57610374600254610368670de0b6b3a764000061026f6001548661053790919063ffffffff16565b9063ffffffff61049216565b9150506101c3565b60006103a7600254610368670de0b6b3a764000061026f60015460045461053790919063ffffffff16565b905060006103c0600454846104f590919063ffffffff16565b90506103e782610368670de0b6b3a764000061026f6003548661053790919063ffffffff16565b93505050506101c3565b610404846220148063ffffffff61059016565b60025561041d610257622014808363ffffffff61053716565b600155610433826220148063ffffffff61059016565b60038190556004829055600254600154604080519283526020830191909152818101929092526060810183905290517f6960ab234c7ef4b0c9197100f5393cfcde7c453ac910a27bd2000aa1dd4c068d9181900360800190a150505050565b6000828201838110156104ec576040805162461bcd60e51b815260206004820152601b60248201527f536166654d6174683a206164646974696f6e206f766572666c6f770000000000604482015290519081900360640190fd5b90505b92915050565b60006104ec83836040518060400160405280601e81526020017f536166654d6174683a207375627472616374696f6e206f766572666c6f7700008152506105d2565b600082610546575060006104ef565b8282028284828161055357fe5b04146104ec5760405162461bcd60e51b81526004018080602001828103825260218152602001806106cf6021913960400191505060405180910390fd5b60006104ec83836040518060400160405280601a81526020017f536166654d6174683a206469766973696f6e206279207a65726f000000000000815250610669565b600081848411156106615760405162461bcd60e51b81526004018080602001828103825283818151815260200191508051906020019080838360005b8381101561062657818101518382015260200161060e565b50505050905090810190601f1680156106535780820380516001836020036101000a031916815260200191505b509250505060405180910390fd5b505050900390565b600081836106b85760405162461bcd60e51b815260206004820181815283516024840152835190928392604490910191908501908083836000831561062657818101518382015260200161060e565b5060008385816106c457fe5b049594505050505056fe536166654d6174683a206d756c7469706c69636174696f6e206f766572666c6f776f6e6c7920746865206f776e6572206d61792063616c6c20746869732066756e6374696f6e2ea264697066735822122039303f21482c340a1a64ced72905c67e77dff615e901d6891cc474a0a796da7464736f6c63430006060033536166654d6174683a206d756c7469706c69636174696f6e206f766572666c6f774f776e61626c653a206e6577206f776e657220697320746865207a65726f2061646472657373a264697066735822122085946eaed766c4db7555c657631fee9132a7f90caf3b60afc81e2eee19a4fab864736f6c6343000606003360806040523480156200001157600080fd5b506040516200136b3803806200136b833981810160405260608110156200003757600080fd5b8151602083018051604051929492938301929190846401000000008211156200005f57600080fd5b9083019060208201858111156200007557600080fd5b82516401000000008111828201881017156200009057600080fd5b82525081516020918201929091019080838360005b83811015620000bf578181015183820152602001620000a5565b50505050905090810190601f168015620000ed5780820380516001836020036101000a031916815260200191505b50604052602001805160405193929190846401000000008211156200011157600080fd5b9083019060208201858111156200012757600080fd5b82516401000000008111828201881017156200014257600080fd5b82525081516020918201929091019080838360005b838110156200017157818101518382015260200162000157565b50505050905090810190601f1680156200019f5780820380516001836020036101000a031916815260200191505b5060405250505080826000620001ba6200026c60201b60201c565b600080546001600160a01b0319166001600160a01b0383169081178255604051929350917f8be0079c531659141344cd1fd0a4f28419497f9722a3daafe3b4186f6b6457e0908290a35081516200021990600490602085019062000271565b5080516200022f90600590602084019062000271565b5050600680546001600160a01b0390951661010002610100600160a81b031960ff1990961660121795909516949094179093555062000313915050565b335b90565b828054600181600116156101000203166002900490600052602060002090601f016020900481019282601f10620002b457805160ff1916838001178555620002e4565b82800160010185558215620002e4579182015b82811115620002e4578251825591602001919060010190620002c7565b50620002f2929150620002f6565b5090565b6200026e91905b80821115620002f25760008155600101620002fd565b61104880620003236000396000f3fe608060405234801561001057600080fd5b50600436106100eb5760003560e01c8063715018a611610092578063715018a61461029b5780638da5cb5b146102a357806395d89b41146102c75780639dc29fac146102cf578063a457c2d7146102fb578063a9059cbb14610327578063dd62ed3e14610353578063e9cbd82214610381578063f2fde38b14610389576100eb565b806306fdde03146100f0578063095ea7b31461016d57806318160ddd146101ad57806323b872dd146101c7578063313ce567146101fd578063395093511461021b57806340c10f191461024757806370a0823114610275575b600080fd5b6100f86103af565b6040805160208082528351818301528351919283929083019185019080838360005b8381101561013257818101518382015260200161011a565b50505050905090810190601f16801561015f5780820380516001836020036101000a031916815260200191505b509250505060405180910390f35b6101996004803603604081101561018357600080fd5b506001600160a01b038135169060200135610445565b604080519115158252519081900360200190f35b6101b5610462565b60408051918252519081900360200190f35b610199600480360360608110156101dd57600080fd5b506001600160a01b03813581169160208101359091169060400135610468565b6102056104f5565b6040805160ff9092168252519081900360200190f35b6101996004803603604081101561023157600080fd5b506001600160a01b0381351690602001356104fe565b6102736004803603604081101561025d57600080fd5b506001600160a01b038135169060200135610552565b005b6101b56004803603602081101561028b57600080fd5b50356001600160a01b03166105b8565b6102736105d3565b6102ab610675565b604080516001600160a01b039092168252519081900360200190f35b6100f8610684565b610273600480360360408110156102e557600080fd5b506001600160a01b0381351690602001356106e5565b6101996004803603604081101561031157600080fd5b506001600160a01b038135169060200135610747565b6101996004803603604081101561033d57600080fd5b506001600160a01b0381351690602001356107b5565b6101b56004803603604081101561036957600080fd5b506001600160a01b03813581169160200135166107c9565b6102ab6107f4565b6102736004803603602081101561039f57600080fd5b50356001600160a01b0316610808565b60048054604080516020601f600260001961010060018816150201909516949094049384018190048102820181019092528281526060939092909183018282801561043b5780601f106104105761010080835404028352916020019161043b565b820191906000526020600020905b81548152906001019060200180831161041e57829003601f168201915b5050505050905090565b6000610459610452610900565b8484610904565b50600192915050565b60035490565b60006104758484846109f0565b6104eb84610481610900565b6104e685604051806060016040528060288152602001610f1c602891396001600160a01b038a166000908152600260205260408120906104bf610900565b6001600160a01b03168152602081019190915260400160002054919063ffffffff610b4716565b610904565b5060019392505050565b60065460ff1690565b600061045961050b610900565b846104e6856002600061051c610900565b6001600160a01b03908116825260208083019390935260409182016000908120918c16815292529020549063ffffffff610bde16565b61055a610900565b6000546001600160a01b039081169116146105aa576040805162461bcd60e51b81526020600482018190526024820152600080516020610f44833981519152604482015290519081900360640190fd5b6105b48282610c3f565b5050565b6001600160a01b031660009081526001602052604090205490565b6105db610900565b6000546001600160a01b0390811691161461062b576040805162461bcd60e51b81526020600482018190526024820152600080516020610f44833981519152604482015290519081900360640190fd5b600080546040516001600160a01b03909116907f8be0079c531659141344cd1fd0a4f28419497f9722a3daafe3b4186f6b6457e0908390a3600080546001600160a01b0319169055565b6000546001600160a01b031690565b60058054604080516020601f600260001961010060018816150201909516949094049384018190048102820181019092528281526060939092909183018282801561043b5780601f106104105761010080835404028352916020019161043b565b6106ed610900565b6000546001600160a01b0390811691161461073d576040805162461bcd60e51b81526020600482018190526024820152600080516020610f44833981519152604482015290519081900360640190fd5b6105b48282610d2b565b6000610459610754610900565b846104e685604051806060016040528060258152602001610fee602591396002600061077e610900565b6001600160a01b03908116825260208083019390935260409182016000908120918d1681529252902054919063ffffffff610b4716565b60006104596107c2610900565b84846109f0565b6001600160a01b03918216600090815260026020908152604080832093909416825291909152205490565b60065461010090046001600160a01b031681565b610810610900565b6000546001600160a01b03908116911614610860576040805162461bcd60e51b81526020600482018190526024820152600080516020610f44833981519152604482015290519081900360640190fd5b6001600160a01b0381166108a55760405162461bcd60e51b8152600401808060200182810382526026815260200180610eae6026913960400191505060405180910390fd5b600080546040516001600160a01b03808516939216917f8be0079c531659141344cd1fd0a4f28419497f9722a3daafe3b4186f6b6457e091a3600080546001600160a01b0319166001600160a01b0392909216919091179055565b3390565b6001600160a01b0383166109495760405162461bcd60e51b8152600401808060200182810382526024815260200180610fca6024913960400191505060405180910390fd5b6001600160a01b03821661098e5760405162461bcd60e51b8152600401808060200182810382526022815260200180610ed46022913960400191505060405180910390fd5b6001600160a01b03808416600081815260026020908152604080832094871680845294825291829020859055815185815291517f8c5be1e5ebec7d5bd14f71427d1e84f3dd0314c0f7b2291e5b200ac8c7c3b9259281900390910190a3505050565b6001600160a01b038316610a355760405162461bcd60e51b8152600401808060200182810382526025815260200180610fa56025913960400191505060405180910390fd5b6001600160a01b038216610a7a5760405162461bcd60e51b8152600401808060200182810382526023815260200180610e696023913960400191505060405180910390fd5b610a85838383610e21565b610ac881604051806060016040528060268152602001610ef6602691396001600160a01b038616600090815260016020526040902054919063ffffffff610b4716565b6001600160a01b038085166000908152600160205260408082209390935590841681522054610afd908263ffffffff610bde16565b6001600160a01b038084166000818152600160209081526040918290209490945580518581529051919392871692600080516020610f6483398151915292918290030190a3505050565b60008184841115610bd65760405162461bcd60e51b81526004018080602001828103825283818151815260200191508051906020019080838360005b83811015610b9b578181015183820152602001610b83565b50505050905090810190601f168015610bc85780820380516001836020036101000a031916815260200191505b509250505060405180910390fd5b505050900390565b600082820183811015610c38576040805162461bcd60e51b815260206004820152601b60248201527f536166654d6174683a206164646974696f6e206f766572666c6f770000000000604482015290519081900360640190fd5b9392505050565b6001600160a01b038216610c9a576040805162461bcd60e51b815260206004820152601f60248201527f45524332303a206d696e7420746f20746865207a65726f206164647265737300604482015290519081900360640190fd5b610ca660008383610e21565b600354610cb9908263ffffffff610bde16565b6003556001600160a01b038216600090815260016020526040902054610ce5908263ffffffff610bde16565b6001600160a01b0383166000818152600160209081526040808320949094558351858152935192939192600080516020610f648339815191529281900390910190a35050565b6001600160a01b038216610d705760405162461bcd60e51b8152600401808060200182810382526021815260200180610f846021913960400191505060405180910390fd5b610d7c82600083610e21565b610dbf81604051806060016040528060228152602001610e8c602291396001600160a01b038516600090815260016020526040902054919063ffffffff610b4716565b6001600160a01b038316600090815260016020526040902055600354610deb908263ffffffff610e2616565b6003556040805182815290516000916001600160a01b03851691600080516020610f648339815191529181900360200190a35050565b505050565b6000610c3883836040518060400160405280601e81526020017f536166654d6174683a207375627472616374696f6e206f766572666c6f770000815250610b4756fe45524332303a207472616e7366657220746f20746865207a65726f206164647265737345524332303a206275726e20616d6f756e7420657863656564732062616c616e63654f776e61626c653a206e6577206f776e657220697320746865207a65726f206164647265737345524332303a20617070726f766520746f20746865207a65726f206164647265737345524332303a207472616e7366657220616d6f756e7420657863656564732062616c616e636545524332303a207472616e7366657220616d6f756e74206578636565647320616c6c6f77616e63654f776e61626c653a2063616c6c6572206973206e6f7420746865206f776e6572ddf252ad1be2c89b69c2b068fc378daa952ba7f163c4a11628f55a4df523b3ef45524332303a206275726e2066726f6d20746865207a65726f206164647265737345524332303a207472616e736665722066726f6d20746865207a65726f206164647265737345524332303a20617070726f76652066726f6d20746865207a65726f206164647265737345524332303a2064656372656173656420616c6c6f77616e63652062656c6f77207a65726fa26469706673582212203637cf421629f9ca28e7a97c544a5710190cb4c715a3260f74e34d3be93db2d664736f6c634300060600334f776e61626c653a206e6577206f776e657220697320746865207a65726f20616464726573738be0079c531659141344cd1fd0a4f28419497f9722a3daafe3b4186f6b6457e0",
  "immutableReferences": {},
  "source": "\npragma solidity ^0.6.2;\n\nimport \"@openzeppelin/contracts/access/Ownable.sol\";\nimport \"@openzeppelin/contracts/math/SafeMath.sol\";\nimport \"@openzeppelin/contracts/token/ERC20/IERC20.sol\";\nimport \"./compound/Exponential.sol\";\nimport \"./compound/JumpRateModelV2.sol\";\nimport \"./compound/InterestRateModel.sol\";\nimport \"./interfaces/UniswapOracleFactoryI.sol\";\nimport \"./WarpWrapperToken.sol\";\nimport \"./WarpControl.sol\";\n\n////////////////////////////////////////////////////////////////////////////////////////////\n/// @title WarpVault\n/// @author Christopher Dixon\n////////////////////////////////////////////////////////////////////////////////////////////\n/**\n@notice the WarpVault contract is the main point of interface for a specific LP asset class and an end user in the\nWarp lending platform. This contract is responsible for distributing WarpWrapper tokens in exchange for stablecoin assets,\nholding and accounting of stablecoins and LP tokens and all associates lending/borrowing calculations for a specific Warp LP asset class.\nThis contract inherits Ownership and ERC20 functionality from the Open Zeppelin Library as well as Exponential and the InterestRateModel contracts\nfrom the coumpound protocol.\n**/\n\ncontract WarpVault is Ownable, Exponential {\n  using SafeMath for uint;\n\n  uint public lockTime;\n  uint internal initialExchangeRateMantissa;\n  uint public reserveFactorMantissa;\n  uint public accrualBlockNumber;\n  uint public borrowIndex;\n  uint public totalBorrows;\n  uint public totalReserves;\n  uint internal constant borrowRateMaxMantissa = 0.0005e16;\n  uint internal constant reserveFactorMaxMantissa = 1e18;\n  string public lpName;\n  bool public initialized;\n\n  IERC20 public LPtoken;\n  IERC20 public DAI;\n  IERC20 public USDC;\n  IERC20 public USDT;\n  WarpWrapperToken public WDAI;\n  WarpWrapperToken public WUSDC;\n  WarpWrapperToken public WUSDT;\n  WarpWrapperToken public WLP;\n  WarpControl public WC;\n  UniswapOracleFactoryI public UOF;\n  InterestRateModel public InterestRate;\n\n  mapping(address => BorrowSnapshot) internal accountBorrowsDAI;\n  mapping(address => BorrowSnapshot) internal accountBorrowsUSDC;\n  mapping(address => BorrowSnapshot) internal accountBorrowsUSDT;\n\n/**\n@notice struct for borrow balance information\n@member principal Total balance (with accrued interest), after applying the most recent balance-changing action\n@member interestIndex Global borrowIndex as of the most recent balance-changing action\n*/\n    struct BorrowSnapshot {\n        uint principal;\n        uint interestIndex;\n    }\n\n/**\n@notice constructor sets up token names and symbols for the WarpWrapperToken\n@param _lp is the address of the lp token a specific Warp vault will represent\n@param _lpName is the name of the lp token\n@dev this function instantiates the lp token as a useable object and generates three WarpWrapperToken contracts to represent\n      each type of stable coin this vault can hold. this also instantiates each of these contracts as a usable object in this contract giving\n      this contract the ability to call their mint and burn functions.\n**/\n     constructor(\n       address _lp,\n       address _DAI,\n       address _USDC,\n       address _USDT,\n       address _oracle,\n       string memory _lpName\n     ) public {\n         transferOwnership(msg.sender);\n         lpName = lpName;\n         LPtoken = IERC20(_lp);\n         DAI = IERC20(_DAI);\n         USDC = IERC20(_USDC);\n         USDT = IERC20(_USDT);\n         UOF = UniswapOracleFactoryI(_oracle);\n         WC = WarpControl(msg.sender);\n\n\n        WDAI = new WarpWrapperToken(\n          _DAI,\n          \"WDAI\",\n          \"WDAI\"\n        );\n\n        WUSDC = new WarpWrapperToken(\n          _USDC,\n          \"WUS Dollar Coin\",\n          \"WUSDC\"\n        );\n\n        WUSDT = new WarpWrapperToken(\n          _USDT,\n          \"WUS Dollar Tether\",\n          \"WUSDT\"\n        );\n\n        WLP = new WarpWrapperToken(\n          _lp,\n          _lpName,\n          \"WLPW\"\n        );\n     }\n\n/**\n@notice setUp is called immediatelyafter the creation of a WarpVault to set up its Interest Rate Model and its initial exchange rate\n@param _baseRatePerYear The approximate target base APR, as a mantissa (scaled by 1e18)\n@param _multiplierPerYear  The rate of increase in interest rate wrt utilization (scaled by 1e18)\n@param _jumpMultiplierPerYear The multiplierPerBlock after hitting a specified utilization point\n@param _optimal The utilization point at which the jump multiplier is applied(Refered to as the Kink in the InterestRateModel)\n**/\n  function setUp(\n    uint _baseRatePerYear,\n    uint _multiplierPerYear,\n    uint _jumpMultiplierPerYear,\n    uint _optimal,\n    uint _initialExchangeRate\n  )\n  public\n  {\n    require(!initialized);\n\n    address IR =  address(new JumpRateModelV2(\n      _baseRatePerYear,\n      _multiplierPerYear,\n      _jumpMultiplierPerYear,\n      _optimal,\n      address(this)\n    ));\n\n    InterestRate = InterestRateModel(IR);\n\n    initialExchangeRateMantissa = _initialExchangeRate;//sets the initialExchangeRateMantissa\n    accrualBlockNumber = getBlockNumber();\n    borrowIndex = mantissaOne;\n    initialized = true;\n  }\n\n/**\n@notice Get the underlying balance of an account\n@dev This also accrues interest in a transaction\n@param _account The address of the account to query\n@return The amount of underlying owned by `_account`\n*/\n    function balanceOfUnderlying(address _account) external returns (uint) {\n      Exp memory exchangeRate = Exp({mantissa: exchangeRateCurrent()});\n      (MathError mErr, uint balance) = mulScalarTruncate(exchangeRate, LPtoken.balanceOf(_account));\n      require(mErr == MathError.NO_ERROR);\n       return balance;\n     }\n\n/**\n@notice getCashPrior is a view funcion that returns the USD balance of all held underlying stablecoin assets\n**/\n    function getCashPrior() internal view returns (uint){\n      uint _daiBal = DAI.balanceOf(address(this));\n      uint _usdcBal = USDC.balanceOf(address(this));\n      uint _usdtBal = USDT.balanceOf(address(this));\n      return _daiBal.add(_usdcBal).add(_usdtBal);\n    }\n\n/**\n@notice Applies accrued interest to total borrows and reserves\n@dev This calculates interest accrued from the last checkpointed block\n     up to the current block and writes new checkpoint to storage.\n**/\n    function accrueInterest() public {\n//Remember the initial block number\n    uint currentBlockNumber = getBlockNumber();\n    uint accrualBlockNumberPrior = accrualBlockNumber;\n//Short-circuit accumulating 0 interest\n    require(accrualBlockNumberPrior != currentBlockNumber);\n//Read the previous values out of storage\n    uint cashPrior = getCashPrior();\n    uint borrowsPrior = totalBorrows;\n    uint reservesPrior = totalReserves;\n    uint borrowIndexPrior = borrowIndex;\n//Calculate the current borrow interest rate\n    uint borrowRateMantissa = InterestRate.getBorrowRate(cashPrior, borrowsPrior, reservesPrior);\n    require(borrowRateMantissa <= borrowRateMaxMantissa);\n//Calculate the number of blocks elapsed since the last accrual\n    (MathError mathErr, uint blockDelta) = subUInt(currentBlockNumber, accrualBlockNumberPrior);\n//Calculate the interest accumulated into borrows and reserves and the new index:\n    Exp memory simpleInterestFactor;\n    uint interestAccumulated;\n    uint totalBorrowsNew;\n    uint totalReservesNew;\n    uint borrowIndexNew;\n//simpleInterestFactor = borrowRate * blockDelta\n    (mathErr, simpleInterestFactor) = mulScalar(Exp({mantissa: borrowRateMantissa}), blockDelta);\n//interestAccumulated = simpleInterestFactor * totalBorrows\n    (mathErr, interestAccumulated) = mulScalarTruncate(simpleInterestFactor, borrowsPrior);\n//totalBorrowsNew = interestAccumulated + totalBorrows\n    (mathErr, totalBorrowsNew) = addUInt(interestAccumulated, borrowsPrior);\n//totalReservesNew = interestAccumulated * reserveFactor + totalReserves\n    (mathErr, totalReservesNew) = mulScalarTruncateAddUInt(Exp({mantissa: reserveFactorMantissa}), interestAccumulated, reservesPrior);\n//borrowIndexNew = simpleInterestFactor * borrowIndex + borrowIndex\n    (mathErr, borrowIndexNew) = mulScalarTruncateAddUInt(simpleInterestFactor, borrowIndexPrior, borrowIndexPrior);\n\n//Write the previously calculated values into storage\n    accrualBlockNumber = currentBlockNumber;\n    borrowIndex = borrowIndexNew;\n    totalBorrows = totalBorrowsNew;\n    totalReserves = totalReservesNew;\n     }\n\n\n/**\n@notice Accrue interest to updated borrowIndex and then calculate account's borrow balance using the updated borrowIndex\n@param account The address whose balance should be calculated after updating borrowIndex\n@return The calculated balance\n**/\n         function borrowBalanceCurrent(address account, uint _assetType) public returns (uint) {\n           accrueInterest();\n           MathError mathErr;\n           uint principalTimesIndex;\n           uint result;\n           if(_assetType == 1){\n             //Get borrowBalance and borrowIndex\n            BorrowSnapshot storage borrowSnapshot = accountBorrowsDAI[account];\n            //If borrowBalance = 0 then borrowIndex is likely also 0.\n            //Rather than failing the calculation with a division by 0, we immediately return 0 in this case.\n                  if (borrowSnapshot.principal == 0) {\n                    return (0);\n                  }\n\n            //Calculate new borrow balance using the interest index:\n            //recentBorrowBalance = borrower.borrowBalance * market.borrowIndex / borrower.borrowIndex\n                  (mathErr, principalTimesIndex) = mulUInt(borrowSnapshot.principal, borrowIndex);\n                  if (mathErr != MathError.NO_ERROR) {\n                    return (0);\n                  }\n\n                  (mathErr, result) = divUInt(principalTimesIndex, borrowSnapshot.interestIndex);\n                  if (mathErr != MathError.NO_ERROR) {\n                    return (0);\n                  }\n\n                  return (result);\n           }\n\n           if(_assetType == 2){\n             //Get borrowBalance and borrowIndex\n            BorrowSnapshot storage borrowSnapshot = accountBorrowsUSDC[account];\n            //If borrowBalance = 0 then borrowIndex is likely also 0.\n            //Rather than failing the calculation with a division by 0, we immediately return 0 in this case.\n                  if (borrowSnapshot.principal == 0) {\n                    return (0);\n                  }\n\n            //Calculate new borrow balance using the interest index:\n            //recentBorrowBalance = borrower.borrowBalance * market.borrowIndex / borrower.borrowIndex\n                  (mathErr, principalTimesIndex) = mulUInt(borrowSnapshot.principal, borrowIndex);\n                  if (mathErr != MathError.NO_ERROR) {\n                    return (0);\n                  }\n\n                  (mathErr, result) = divUInt(principalTimesIndex, borrowSnapshot.interestIndex);\n                  if (mathErr != MathError.NO_ERROR) {\n                    return (0);\n                  }\n\n                  return (result);\n           }\n\n           if(_assetType == 3){\n             //Get borrowBalance and borrowIndex\n            BorrowSnapshot storage borrowSnapshot = accountBorrowsUSDT[account];\n            //If borrowBalance = 0 then borrowIndex is likely also 0.\n            //Rather than failing the calculation with a division by 0, we immediately return 0 in this case.\n                  if (borrowSnapshot.principal == 0) {\n                    return (0);\n                  }\n\n            //Calculate new borrow balance using the interest index:\n            //recentBorrowBalance = borrower.borrowBalance * market.borrowIndex / borrower.borrowIndex\n                  (mathErr, principalTimesIndex) = mulUInt(borrowSnapshot.principal, borrowIndex);\n                  if (mathErr != MathError.NO_ERROR) {\n                    return (0);\n                  }\n\n                  (mathErr, result) = divUInt(principalTimesIndex, borrowSnapshot.interestIndex);\n                  if (mathErr != MathError.NO_ERROR) {\n                    return (0);\n                  }\n\n                  return (result);\n           }\n\n         }\n\n\n\n     /**\n     @notice getBlockNumber allows for easy retrieval of block number\n     **/\n           function getBlockNumber() internal view returns (uint) {\n               return block.number;\n           }\n\n     /**\n     @notice Returns the current per-block borrow interest rate for this cToken\n     @return The borrow interest rate per block, scaled by 1e18\n     **/\n           function borrowRatePerBlock() external view returns (uint) {\n               return InterestRate.getBorrowRate(getCashPrior(), totalBorrows, totalReserves);\n           }\n\n     /**\n     @notice Returns the current per-block supply interest rate for this cToken\n     @return The supply interest rate per block, scaled by 1e18\n     **/\n           function supplyRatePerBlock() external view returns (uint) {\n               return InterestRate.getSupplyRate(getCashPrior(), totalBorrows, totalReserves, reserveFactorMantissa);\n           }\n\n     /**\n     @notice Returns the current total borrows plus accrued interest\n     @return The total borrows with interest\n     **/\n           function totalBorrowsCurrent() external  returns (uint) {\n               accrueInterest();\n               return totalBorrows;\n           }\n\n     /**\n     @notice Accrue interest then return the up-to-date exchange rate\n     @return Calculated exchange rate scaled by 1e18\n     **/\n           function exchangeRateCurrent() public  returns (uint) {\n               accrueInterest();\n               if (WLP.totalSupply() == 0) {\n     //If there are no tokens minted: exchangeRate = initialExchangeRate\n                 return initialExchangeRateMantissa;\n               } else {\n     //Otherwise: exchangeRate = (totalCash + totalBorrows - totalReserves) / totalSupply\n                 uint totalCash = getCashPrior();//get contract asset balance\n                 uint cashPlusBorrowsMinusReserves;\n                 Exp memory exchangeRate;\n                 MathError mathErr;\n     //calculate total value held by contract plus owed to contract\n                 (mathErr, cashPlusBorrowsMinusReserves) = addThenSubUInt(totalCash, totalBorrows, totalReserves);\n     //calculate exchange rate\n                 (mathErr, exchangeRate) = getExp(cashPlusBorrowsMinusReserves, WLP.totalSupply());\n                 return (exchangeRate.mantissa);\n               }\n           }\n\n\n\n/**\n@notice Get cash balance of this cToken in the underlying asset in other contracts\n@return The quantity of underlying asset owned by this contract\n**/\n    function getCash() external view returns (uint) {\n        return getCashPrior();\n     }\n\n     //struct used by mint to avoid stack too deep errors\n     struct MintLocalVars {\n       MathError mathErr;\n       uint exchangeRateMantissa;\n       uint mintTokens;\n     }\n /**\n@notice lendToWarpVault is used to lend stablecoin assets to a WaprVault\n@param _amount is the amount of the asset being lent\n@param _assetType is a number value 1-3 representing which asset is being lent\n@dev the user will need to first approve the transfer of the underlying asset\n**/\n  function lendToWarpVault(uint _amount, uint _assetType) public {\n    require(_assetType >= 1 && _assetType <= 3);\n    //require the asset type is a number 1-3, fails if it is 0 or more than 3\n    //declare struct\n        MintLocalVars memory vars;\n    //retrieve exchange rate\n        vars.exchangeRateMantissa = exchangeRateCurrent();\n    //We get the current exchange rate and calculate the number of WarpWrapperToken to be minted:\n    //mintTokens = _amount / exchangeRate\n        (vars.mathErr, vars.mintTokens) = divScalarByExpTruncate(_amount, Exp({mantissa: vars.exchangeRateMantissa}));\n\n    if(_assetType == 1){\n      //transfer appropriate amount of DAI from msg.sender to the Vault\n      DAI.transferFrom(msg.sender, address(this), _amount);\n      //mint appropriate Warp DAI\n      WDAI.mint(msg.sender, vars.mintTokens);\n    }\n\n    if(_assetType == 2){\n      //transfer appropriate amount of USDC from msg.sender to the Vault\n      USDC.transferFrom(msg.sender, address(this), _amount);\n      //mint appropriate Warp USDC\n      WUSDC.mint(msg.sender, vars.mintTokens);\n    }\n\n    if(_assetType == 3){\n      //transfer appropriate amount of USDT from msg.sender to the Vault\n      USDT.transferFrom(msg.sender, address(this), _amount);\n      //mint appropriate Warp USDT\n      WUSDT.mint(msg.sender, vars.mintTokens);\n    }\n\n\n  }\n\n\n    struct RedeemLocalVars {\n        MathError mathErr;\n        uint exchangeRateMantissa;\n        uint redeemAmount;\n    }\n\n    /**\n@notice redeem allows a user to redeem their Warp Wrapper Token for the appropriate amount of underlying stablecoin asset\n@param _amount is the amount of Warp Wrapper token being exchanged\n@param _assetType is a number representing which Wrapper type is being redeemed\n**/\n  function redeem(uint256 _amount, uint256 _assetType) public {\n    accrueInterest();\n    require( _amount != 0 );\n    require(_assetType >= 1 && _assetType <= 3);\n//require the asset type is a number 1-3, fails if it is 0 or more than 3\n    RedeemLocalVars memory vars;\n\n//get exchange rate\n    vars.exchangeRateMantissa = exchangeRateCurrent();\n/**\nWe calculate the exchange rate and the amount of underlying to be redeemed:\nredeemAmount = _amount x exchangeRateCurrent\n*/\n    (vars.mathErr, vars.redeemAmount) = mulScalarTruncate(Exp({mantissa: vars.exchangeRateMantissa}), _amount);\n//transfer the calculated amount of underlying asset to the msg.sender\n\n    if(_assetType == 1){\n      //Fail if protocol has insufficient cash\n        require (DAI.balanceOf(address(this)) >= vars.redeemAmount);\n        WDAI.burn(msg.sender, _amount);//will fail id the msg.sender doesnt have the appropriateamount of wrapper token\n        DAI.transfer(msg.sender, vars.redeemAmount);\n      }\n\n    if(_assetType == 2){\n      //Fail if protocol has insufficient cash\n        require (USDC.balanceOf(address(this)) >= vars.redeemAmount);\n        WUSDC.burn(msg.sender, _amount);//will fail id the msg.sender doesnt have the appropriateamount of wrapper token\n        USDC.transfer(msg.sender, vars.redeemAmount);\n      }\n\n    if(_assetType == 3){\n     //Fail if protocol has insufficient cash\n      require (USDT.balanceOf(address(this)) >= vars.redeemAmount);\n      WUSDT.burn(msg.sender, _amount);//will fail id the msg.sender doesnt have the appropriateamount of wrapper token\n      USDT.transfer(msg.sender, vars.redeemAmount);\n    }\n\n  }\n\n  //struct used by borrow function to avoid stack too deep errors\n  struct BorrowLocalVars {\n      MathError mathErr;\n      uint accountBorrows;\n      uint accountBorrowsNew;\n      uint totalBorrowsNew;\n  }\n\n/**\n@notice Sender borrows stablecoin assets from the protocol to their own address\n@param _borrowAmount The amount of the underlying asset to borrow\n*/\n  function borrow(uint _borrowAmount, uint _assetType) public {\n// _collateral the address of the ALR the user has staked as collateral?\n      accrueInterest();\n\n      require(_assetType >= 1 && _assetType <= 3);\n\n//create local vars storage\n      BorrowLocalVars memory vars;\n\n\n       if(_assetType == 1){\n         //Fail if protocol has insufficient underlying cash\n               require(DAI.balanceOf(address(this)) > _borrowAmount);\n         //calculate the new borrower and total borrow balances, failing on overflow:\n               vars.accountBorrows = borrowBalanceCurrent(msg.sender, _assetType);\n         //accountBorrowsNew = accountBorrows + borrowAmount\n               (vars.mathErr, vars.accountBorrowsNew) = addUInt(vars.accountBorrows, _borrowAmount);\n         //totalBorrowsNew = totalBorrows + borrowAmount\n               (vars.mathErr, vars.totalBorrowsNew) = addUInt(totalBorrows, _borrowAmount);\n         //We write the previously calculated values into storage\n               accountBorrowsDAI[msg.sender].principal = vars.accountBorrowsNew;\n               accountBorrowsDAI[msg.sender].interestIndex = borrowIndex;\n               totalBorrows = vars.totalBorrowsNew;\n         //send them their loaned asset\n           DAI.transfer(msg.sender, _borrowAmount);\n         }\n\n       if(_assetType == 2){\n         //Fail if protocol has insufficient underlying cash\n               require(USDC.balanceOf(address(this)) > _borrowAmount);\n         //calculate the new borrower and total borrow balances, failing on overflow:\n               vars.accountBorrows = borrowBalanceCurrent(msg.sender, _assetType);\n         //accountBorrowsNew = accountBorrows + borrowAmount\n               (vars.mathErr, vars.accountBorrowsNew) = addUInt(vars.accountBorrows, _borrowAmount);\n         //totalBorrowsNew = totalBorrows + borrowAmount\n               (vars.mathErr, vars.totalBorrowsNew) = addUInt(totalBorrows, _borrowAmount);\n         //We write the previously calculated values into storage\n               accountBorrowsUSDC[msg.sender].principal = vars.accountBorrowsNew;\n               accountBorrowsUSDC[msg.sender].interestIndex = borrowIndex;\n               totalBorrows = vars.totalBorrowsNew;\n         //send them their loaned asset\n           USDC.transfer(msg.sender, _borrowAmount);\n         }\n\n       if(_assetType == 3){\n         //Fail if protocol has insufficient underlying cash\n               require(USDT.balanceOf(address(this)) > _borrowAmount);\n         //calculate the new borrower and total borrow balances, failing on overflow:\n               vars.accountBorrows = borrowBalanceCurrent(msg.sender, _assetType);\n         //accountBorrowsNew = accountBorrows + borrowAmount\n               (vars.mathErr, vars.accountBorrowsNew) = addUInt(vars.accountBorrows, _borrowAmount);\n         //totalBorrowsNew = totalBorrows + borrowAmount\n               (vars.mathErr, vars.totalBorrowsNew) = addUInt(totalBorrows, _borrowAmount);\n         //We write the previously calculated values into storage\n               accountBorrowsUSDT[msg.sender].principal = vars.accountBorrowsNew;\n               accountBorrowsUSDT[msg.sender].interestIndex = borrowIndex;\n               totalBorrows = vars.totalBorrowsNew;\n         //send them their loaned asset\n         USDT.transfer(msg.sender, _borrowAmount);\n       }\n\n  }\n\n  struct RepayBorrowLocalVars {\n      MathError mathErr;\n      uint repayAmount;\n      uint borrowerIndex;\n      uint accountBorrows;\n      uint accountBorrowsNew;\n      uint totalBorrowsNew;\n  }\n\n/**\n@notice Sender repays their own borrow\n@param repayAmount The amount to repay\n*/\n  function repayBorrow(uint repayAmount, uint _assetType) public{\n    accrueInterest();\n          require(_assetType >= 1 && _assetType <= 3);\n//create local vars storage\n    RepayBorrowLocalVars memory vars;\n    if(_assetType == 1){\n      //We remember the original borrowerIndex for verification purposes\n          vars.borrowerIndex = accountBorrowsDAI[msg.sender].interestIndex;\n      //We fetch the amount the borrower owes, with accumulated interest\n          vars.accountBorrows = borrowBalanceCurrent(msg.sender, _assetType);\n      //If repayAmount == 0, repayAmount = accountBorrows\n          if (repayAmount == 0) {\n              vars.repayAmount = vars.accountBorrows;\n          } else {\n              vars.repayAmount = repayAmount;\n          }\n      //We calculate the new borrower and total borrow balances\n      //accountBorrowsNew = accountBorrows - actualRepayAmount\n          (vars.mathErr, vars.accountBorrowsNew) = subUInt(vars.accountBorrows, vars.repayAmount);\n      //totalBorrowsNew = totalBorrows - actualRepayAmount\n          (vars.mathErr, vars.totalBorrowsNew) = subUInt(totalBorrows, vars.repayAmount);\n          /* We write the previously calculated values into storage */\n          accountBorrowsDAI[msg.sender].principal = vars.accountBorrowsNew;\n          accountBorrowsDAI[msg.sender].interestIndex = borrowIndex;\n          totalBorrows = vars.totalBorrowsNew;\n      }\n\n    if(_assetType == 2){\n      //We remember the original borrowerIndex for verification purposes\n          vars.borrowerIndex = accountBorrowsUSDC[msg.sender].interestIndex;\n      //We fetch the amount the borrower owes, with accumulated interest\n          vars.accountBorrows = borrowBalanceCurrent(msg.sender, _assetType);\n      //If repayAmount == 0, repayAmount = accountBorrows\n          if (repayAmount == 0) {\n              vars.repayAmount = vars.accountBorrows;\n          } else {\n              vars.repayAmount = repayAmount;\n          }\n      //We calculate the new borrower and total borrow balances\n      //accountBorrowsNew = accountBorrows - actualRepayAmount\n          (vars.mathErr, vars.accountBorrowsNew) = subUInt(vars.accountBorrows, vars.repayAmount);\n      //totalBorrowsNew = totalBorrows - actualRepayAmount\n          (vars.mathErr, vars.totalBorrowsNew) = subUInt(totalBorrows, vars.repayAmount);\n          /* We write the previously calculated values into storage */\n          accountBorrowsUSDC[msg.sender].principal = vars.accountBorrowsNew;\n          accountBorrowsUSDC[msg.sender].interestIndex = borrowIndex;\n          totalBorrows = vars.totalBorrowsNew;\n      }\n\n    if(_assetType == 3){\n      //We remember the original borrowerIndex for verification purposes\n          vars.borrowerIndex = accountBorrowsUSDC[msg.sender].interestIndex;\n      //We fetch the amount the borrower owes, with accumulated interest\n          vars.accountBorrows = borrowBalanceCurrent(msg.sender, _assetType);\n      //If repayAmount == 0, repayAmount = accountBorrows\n          if (repayAmount == 0) {\n              vars.repayAmount = vars.accountBorrows;\n          } else {\n              vars.repayAmount = repayAmount;\n          }\n      //We calculate the new borrower and total borrow balances\n      //accountBorrowsNew = accountBorrows - actualRepayAmount\n          (vars.mathErr, vars.accountBorrowsNew) = subUInt(vars.accountBorrows, vars.repayAmount);\n      //totalBorrowsNew = totalBorrows - actualRepayAmount\n          (vars.mathErr, vars.totalBorrowsNew) = subUInt(totalBorrows, vars.repayAmount);\n          /* We write the previously calculated values into storage */\n          accountBorrowsUSDC[msg.sender].principal = vars.accountBorrowsNew;\n          accountBorrowsUSDC[msg.sender].interestIndex = borrowIndex;\n          totalBorrows = vars.totalBorrowsNew;\n    }\n\n  }\n\n/**\n@notice collateralizeLP allows a user to collateralize this contracts associated LP token\n@param _amount is the amount of LP being collateralized\n**/\n   function collateralizeLP(uint _amount) public {\n     LPtoken.transferFrom(msg.sender, address(this), _amount);\n     WC.trackCollateral(msg.sender, address(LPtoken), _amount);\n     WLP.mint(msg.sender, _amount);\n   }\n\n/**\n@notice getAssetAdd allows for easy retrieval of a WarpVaults LP token Adress\n**/\n       function getAssetAdd() public view returns (address) {\n         return address(LPtoken);\n       }\n\n}\n",
  "sourcePath": "/home/stan36/repos/Warp/Smart-Contracts/contracts/WarpVault.sol",
  "compiler": {
    "name": "solc",
    "version": "0.6.6+commit.6c089d02.Emscripten.clang"
  },
  "schemaVersion": "3.2.4",
  "updatedAt": "2020-10-27T00:25:37.025Z",
  "devdoc": {
    "methods": {
      "accrueInterest()": {
        "details": "This calculates interest accrued from the last checkpointed block up to the current block and writes new checkpoint to storage.*"
      },
      "balanceOfUnderlying(address)": {
        "details": "This also accrues interest in a transaction",
        "params": {
          "_account": "The address of the account to query"
        },
        "returns": {
          "_0": "The amount of underlying owned by `_account`"
        }
      },
      "borrow(uint256,uint256)": {
        "params": {
          "_borrowAmount": "The amount of the underlying asset to borrow"
        }
      },
      "borrowBalanceCurrent(address,uint256)": {
        "params": {
          "account": "The address whose balance should be calculated after updating borrowIndex"
        },
        "returns": {
          "_0": "The calculated balance*"
        }
      },
      "collateralizeLP(uint256)": {
        "params": {
          "_amount": "is the amount of LP being collateralized*"
        }
      },
      "constructor": {
        "details": "this function instantiates the lp token as a useable object and generates three WarpWrapperToken contracts to represent each type of stable coin this vault can hold. this also instantiates each of these contracts as a usable object in this contract giving this contract the ability to call their mint and burn functions.*",
        "params": {
          "_lp": "is the address of the lp token a specific Warp vault will represent",
          "_lpName": "is the name of the lp token"
        }
      },
      "lendToWarpVault(uint256,uint256)": {
        "details": "the user will need to first approve the transfer of the underlying asset*",
        "params": {
          "_amount": "is the amount of the asset being lent",
          "_assetType": "is a number value 1-3 representing which asset is being lent"
        }
      },
      "owner()": {
        "details": "Returns the address of the current owner."
      },
      "redeem(uint256,uint256)": {
        "params": {
          "_amount": "is the amount of Warp Wrapper token being exchanged",
          "_assetType": "is a number representing which Wrapper type is being redeemed*"
        }
      },
      "renounceOwnership()": {
        "details": "Leaves the contract without owner. It will not be possible to call `onlyOwner` functions anymore. Can only be called by the current owner.     * NOTE: Renouncing ownership will leave the contract without an owner, thereby removing any functionality that is only available to the owner."
      },
      "repayBorrow(uint256,uint256)": {
        "params": {
          "repayAmount": "The amount to repay"
        }
      },
      "setUp(uint256,uint256,uint256,uint256,uint256)": {
        "params": {
          "_baseRatePerYear": "The approximate target base APR, as a mantissa (scaled by 1e18)",
          "_jumpMultiplierPerYear": "The multiplierPerBlock after hitting a specified utilization point",
          "_multiplierPerYear": "The rate of increase in interest rate wrt utilization (scaled by 1e18)",
          "_optimal": "The utilization point at which the jump multiplier is applied(Refered to as the Kink in the InterestRateModel)*"
        }
      },
      "transferOwnership(address)": {
        "details": "Transfers ownership of the contract to a new account (`newOwner`). Can only be called by the current owner."
      }
    }
  },
  "userdoc": {
    "methods": {
      "accrueInterest()": {
        "notice": "Applies accrued interest to total borrows and reserves"
      },
      "balanceOfUnderlying(address)": {
        "notice": "Get the underlying balance of an account"
      },
      "borrow(uint256,uint256)": {
        "notice": "Sender borrows stablecoin assets from the protocol to their own address"
      },
      "borrowBalanceCurrent(address,uint256)": {
        "notice": "Accrue interest to updated borrowIndex and then calculate account's borrow balance using the updated borrowIndex"
      },
      "borrowRatePerBlock()": {
        "notice": "Returns the current per-block borrow interest rate for this cToken"
      },
      "collateralizeLP(uint256)": {
        "notice": "collateralizeLP allows a user to collateralize this contracts associated LP token"
      },
      "constructor": "constructor sets up token names and symbols for the WarpWrapperToken",
      "exchangeRateCurrent()": {
        "notice": "Accrue interest then return the up-to-date exchange rate"
      },
      "getAssetAdd()": {
        "notice": "getAssetAdd allows for easy retrieval of a WarpVaults LP token Adress*"
      },
      "getCash()": {
        "notice": "Get cash balance of this cToken in the underlying asset in other contracts"
      },
      "lendToWarpVault(uint256,uint256)": {
        "notice": "lendToWarpVault is used to lend stablecoin assets to a WaprVault"
      },
      "redeem(uint256,uint256)": {
        "notice": "redeem allows a user to redeem their Warp Wrapper Token for the appropriate amount of underlying stablecoin asset"
      },
      "repayBorrow(uint256,uint256)": {
        "notice": "Sender repays their own borrow"
      },
      "setUp(uint256,uint256,uint256,uint256,uint256)": {
        "notice": "setUp is called immediatelyafter the creation of a WarpVault to set up its Interest Rate Model and its initial exchange rate"
      },
      "supplyRatePerBlock()": {
        "notice": "Returns the current per-block supply interest rate for this cToken"
      },
      "totalBorrowsCurrent()": {
        "notice": "Returns the current total borrows plus accrued interest"
      }
    },
    "notice": "the WarpVault contract is the main point of interface for a specific LP asset class and an end user in the Warp lending platform. This contract is responsible for distributing WarpWrapper tokens in exchange for stablecoin assets, holding and accounting of stablecoins and LP tokens and all associates lending/borrowing calculations for a specific Warp LP asset class. This contract inherits Ownership and ERC20 functionality from the Open Zeppelin Library as well as Exponential and the InterestRateModel contracts from the coumpound protocol.*"
  }
}