{
  "contractName": "WarpControl",
  "abi": [
    {
      "inputs": [
        {
          "internalType": "address",
          "name": "_oracle",
          "type": "address"
        },
        {
          "internalType": "address",
          "name": "_WVLPF",
          "type": "address"
        },
        {
          "internalType": "address",
          "name": "_WVSCF",
          "type": "address"
        },
        {
          "internalType": "address",
          "name": "_warpTeam",
          "type": "address"
        }
      ],
      "stateMutability": "nonpayable",
      "type": "constructor"
    },
    {
      "anonymous": false,
      "inputs": [
        {
          "indexed": false,
          "internalType": "address",
          "name": "_account",
          "type": "address"
        },
        {
          "indexed": false,
          "internalType": "address",
          "name": "liquidator",
          "type": "address"
        }
      ],
      "name": "Liquidation",
      "type": "event"
    },
    {
      "anonymous": false,
      "inputs": [
        {
          "indexed": false,
          "internalType": "address",
          "name": "_borrower",
          "type": "address"
        },
        {
          "indexed": false,
          "internalType": "address",
          "name": "_StableCoin",
          "type": "address"
        },
        {
          "indexed": false,
          "internalType": "uint256",
          "name": "_amountBorrowed",
          "type": "uint256"
        }
      ],
      "name": "NewBorrow",
      "type": "event"
    },
    {
      "anonymous": false,
      "inputs": [
        {
          "indexed": false,
          "internalType": "address",
          "name": "_newVault",
          "type": "address"
        }
      ],
      "name": "NewLPVault",
      "type": "event"
    },
    {
      "anonymous": false,
      "inputs": [
        {
          "indexed": false,
          "internalType": "address",
          "name": "_newVault",
          "type": "address"
        },
        {
          "indexed": false,
          "internalType": "address",
          "name": "_interestRateModel",
          "type": "address"
        }
      ],
      "name": "NewSCVault",
      "type": "event"
    },
    {
      "anonymous": false,
      "inputs": [
        {
          "indexed": false,
          "internalType": "address",
          "name": "_account",
          "type": "address"
        },
        {
          "indexed": false,
          "internalType": "uint256",
          "name": "_time",
          "type": "uint256"
        }
      ],
      "name": "NotCompliant",
      "type": "event"
    },
    {
      "anonymous": false,
      "inputs": [
        {
          "indexed": true,
          "internalType": "address",
          "name": "previousOwner",
          "type": "address"
        },
        {
          "indexed": true,
          "internalType": "address",
          "name": "newOwner",
          "type": "address"
        }
      ],
      "name": "OwnershipTransferred",
      "type": "event"
    },
    {
      "anonymous": false,
      "inputs": [
        {
          "indexed": false,
          "internalType": "address",
          "name": "_account",
          "type": "address"
        },
        {
          "indexed": false,
          "internalType": "uint256",
          "name": "_time",
          "type": "uint256"
        }
      ],
      "name": "complianceReset",
      "type": "event"
    },
    {
      "inputs": [],
      "name": "Oracle",
      "outputs": [
        {
          "internalType": "contract UniswapLPOracleFactoryI",
          "name": "",
          "type": "address"
        }
      ],
      "stateMutability": "view",
      "type": "function"
    },
    {
      "inputs": [],
      "name": "WVLPF",
      "outputs": [
        {
          "internalType": "contract WarpVaultLPFactoryI",
          "name": "",
          "type": "address"
        }
      ],
      "stateMutability": "view",
      "type": "function"
    },
    {
      "inputs": [],
      "name": "WVSCF",
      "outputs": [
        {
          "internalType": "contract WarpVaultSCFactoryI",
          "name": "",
          "type": "address"
        }
      ],
      "stateMutability": "view",
      "type": "function"
    },
    {
      "inputs": [
        {
          "internalType": "address",
          "name": "",
          "type": "address"
        }
      ],
      "name": "existingRefferalCode",
      "outputs": [
        {
          "internalType": "bool",
          "name": "",
          "type": "bool"
        }
      ],
      "stateMutability": "view",
      "type": "function"
    },
    {
      "inputs": [
        {
          "internalType": "address",
          "name": "",
          "type": "address"
        }
      ],
      "name": "getVaultByAsset",
      "outputs": [
        {
          "internalType": "address",
          "name": "",
          "type": "address"
        }
      ],
      "stateMutability": "view",
      "type": "function"
    },
    {
      "inputs": [],
      "name": "graceSpace",
      "outputs": [
        {
          "internalType": "uint256",
          "name": "",
          "type": "uint256"
        }
      ],
      "stateMutability": "view",
      "type": "function"
    },
    {
      "inputs": [
        {
          "internalType": "uint256",
          "name": "",
          "type": "uint256"
        }
      ],
      "name": "groups",
      "outputs": [
        {
          "internalType": "address",
          "name": "",
          "type": "address"
        }
      ],
      "stateMutability": "view",
      "type": "function"
    },
    {
      "inputs": [
        {
          "internalType": "address",
          "name": "",
          "type": "address"
        }
      ],
      "name": "groupsYourIn",
      "outputs": [
        {
          "internalType": "address",
          "name": "",
          "type": "address"
        }
      ],
      "stateMutability": "view",
      "type": "function"
    },
    {
      "inputs": [
        {
          "internalType": "address",
          "name": "",
          "type": "address"
        }
      ],
      "name": "instanceLPTracker",
      "outputs": [
        {
          "internalType": "address",
          "name": "",
          "type": "address"
        }
      ],
      "stateMutability": "view",
      "type": "function"
    },
    {
      "inputs": [
        {
          "internalType": "address",
          "name": "",
          "type": "address"
        }
      ],
      "name": "instanceSCTracker",
      "outputs": [
        {
          "internalType": "address",
          "name": "",
          "type": "address"
        }
      ],
      "stateMutability": "view",
      "type": "function"
    },
    {
      "inputs": [
        {
          "internalType": "address",
          "name": "",
          "type": "address"
        }
      ],
      "name": "isInGroup",
      "outputs": [
        {
          "internalType": "bool",
          "name": "",
          "type": "bool"
        }
      ],
      "stateMutability": "view",
      "type": "function"
    },
    {
      "inputs": [
        {
          "internalType": "address",
          "name": "",
          "type": "address"
        }
      ],
      "name": "isParticipant",
      "outputs": [
        {
          "internalType": "bool",
          "name": "",
          "type": "bool"
        }
      ],
      "stateMutability": "view",
      "type": "function"
    },
    {
      "inputs": [
        {
          "internalType": "address",
          "name": "",
          "type": "address"
        }
      ],
      "name": "isVault",
      "outputs": [
        {
          "internalType": "bool",
          "name": "",
          "type": "bool"
        }
      ],
      "stateMutability": "view",
      "type": "function"
    },
    {
      "inputs": [
        {
          "internalType": "uint256",
          "name": "",
          "type": "uint256"
        }
      ],
      "name": "launchParticipants",
      "outputs": [
        {
          "internalType": "address",
          "name": "",
          "type": "address"
        }
      ],
      "stateMutability": "view",
      "type": "function"
    },
    {
      "inputs": [
        {
          "internalType": "address",
          "name": "",
          "type": "address"
        }
      ],
      "name": "lockedLPValue",
      "outputs": [
        {
          "internalType": "uint256",
          "name": "",
          "type": "uint256"
        }
      ],
      "stateMutability": "view",
      "type": "function"
    },
    {
      "inputs": [
        {
          "internalType": "uint256",
          "name": "",
          "type": "uint256"
        }
      ],
      "name": "lpVaults",
      "outputs": [
        {
          "internalType": "address",
          "name": "",
          "type": "address"
        }
      ],
      "stateMutability": "view",
      "type": "function"
    },
    {
      "inputs": [],
      "name": "newWarpControl",
      "outputs": [
        {
          "internalType": "address",
          "name": "",
          "type": "address"
        }
      ],
      "stateMutability": "view",
      "type": "function"
    },
    {
      "inputs": [],
      "name": "owner",
      "outputs": [
        {
          "internalType": "address",
          "name": "",
          "type": "address"
        }
      ],
      "stateMutability": "view",
      "type": "function"
    },
    {
      "inputs": [
        {
          "internalType": "address",
          "name": "",
          "type": "address"
        }
      ],
      "name": "refferalCodeToGroupName",
      "outputs": [
        {
          "internalType": "string",
          "name": "",
          "type": "string"
        }
      ],
      "stateMutability": "view",
      "type": "function"
    },
    {
      "inputs": [
        {
          "internalType": "address",
          "name": "",
          "type": "address"
        },
        {
          "internalType": "uint256",
          "name": "",
          "type": "uint256"
        }
      ],
      "name": "refferalCodeTracker",
      "outputs": [
        {
          "internalType": "address",
          "name": "",
          "type": "address"
        }
      ],
      "stateMutability": "view",
      "type": "function"
    },
    {
      "inputs": [],
      "name": "renounceOwnership",
      "outputs": [],
      "stateMutability": "nonpayable",
      "type": "function"
    },
    {
      "inputs": [
        {
          "internalType": "uint256",
          "name": "",
          "type": "uint256"
        }
      ],
      "name": "scVaults",
      "outputs": [
        {
          "internalType": "address",
          "name": "",
          "type": "address"
        }
      ],
      "stateMutability": "view",
      "type": "function"
    },
    {
      "inputs": [
        {
          "internalType": "address",
          "name": "newOwner",
          "type": "address"
        }
      ],
      "name": "transferOwnership",
      "outputs": [],
      "stateMutability": "nonpayable",
      "type": "function"
    },
    {
      "inputs": [],
      "name": "warpTeam",
      "outputs": [
        {
          "internalType": "address",
          "name": "",
          "type": "address"
        }
      ],
      "stateMutability": "view",
      "type": "function"
    },
    {
      "inputs": [],
      "name": "viewNumLPVaults",
      "outputs": [
        {
          "internalType": "uint256",
          "name": "",
          "type": "uint256"
        }
      ],
      "stateMutability": "view",
      "type": "function"
    },
    {
      "inputs": [],
      "name": "viewNumSCVaults",
      "outputs": [
        {
          "internalType": "uint256",
          "name": "",
          "type": "uint256"
        }
      ],
      "stateMutability": "view",
      "type": "function"
    },
    {
      "inputs": [],
      "name": "viewLaunchParticipants",
      "outputs": [
        {
          "internalType": "address[]",
          "name": "",
          "type": "address[]"
        }
      ],
      "stateMutability": "view",
      "type": "function"
    },
    {
      "inputs": [],
      "name": "viewAllGroups",
      "outputs": [
        {
          "internalType": "address[]",
          "name": "",
          "type": "address[]"
        }
      ],
      "stateMutability": "view",
      "type": "function"
    },
    {
      "inputs": [
        {
          "internalType": "address",
          "name": "_refferalCode",
          "type": "address"
        }
      ],
      "name": "viewAllMembersOfAGroup",
      "outputs": [
        {
          "internalType": "address[]",
          "name": "",
          "type": "address[]"
        }
      ],
      "stateMutability": "view",
      "type": "function"
    },
    {
      "inputs": [
        {
          "internalType": "address",
          "name": "_refferalCode",
          "type": "address"
        }
      ],
      "name": "getGroupName",
      "outputs": [
        {
          "internalType": "string",
          "name": "",
          "type": "string"
        }
      ],
      "stateMutability": "view",
      "type": "function"
    },
    {
      "inputs": [
        {
          "internalType": "address",
          "name": "_account",
          "type": "address"
        }
      ],
      "name": "getAccountsGroup",
      "outputs": [
        {
          "internalType": "address",
          "name": "",
          "type": "address"
        }
      ],
      "stateMutability": "view",
      "type": "function"
    },
    {
      "inputs": [
        {
          "internalType": "uint256",
          "name": "_timelock",
          "type": "uint256"
        },
        {
          "internalType": "address",
          "name": "_lp",
          "type": "address"
        },
        {
          "internalType": "address",
          "name": "_lpAsset1",
          "type": "address"
        },
        {
          "internalType": "address",
          "name": "_lpAsset2",
          "type": "address"
        },
        {
          "internalType": "string",
          "name": "_lpName",
          "type": "string"
        }
      ],
      "name": "createNewLPVault",
      "outputs": [],
      "stateMutability": "nonpayable",
      "type": "function"
    },
    {
      "inputs": [
        {
          "internalType": "uint256",
          "name": "_timelock",
          "type": "uint256"
        },
        {
          "internalType": "uint256",
          "name": "_baseRatePerYear",
          "type": "uint256"
        },
        {
          "internalType": "uint256",
          "name": "_multiplierPerYear",
          "type": "uint256"
        },
        {
          "internalType": "uint256",
          "name": "_jumpMultiplierPerYear",
          "type": "uint256"
        },
        {
          "internalType": "uint256",
          "name": "_optimal",
          "type": "uint256"
        },
        {
          "internalType": "uint256",
          "name": "_initialExchangeRate",
          "type": "uint256"
        },
        {
          "internalType": "uint256",
          "name": "_reserveFactorMantissa",
          "type": "uint256"
        },
        {
          "internalType": "address",
          "name": "_StableCoin",
          "type": "address"
        }
      ],
      "name": "createNewSCVault",
      "outputs": [],
      "stateMutability": "nonpayable",
      "type": "function"
    },
    {
      "inputs": [
        {
          "internalType": "string",
          "name": "_groupName",
          "type": "string"
        }
      ],
      "name": "createGroup",
      "outputs": [],
      "stateMutability": "nonpayable",
      "type": "function"
    },
    {
      "inputs": [
        {
          "internalType": "address",
          "name": "_refferalCode",
          "type": "address"
        }
      ],
      "name": "addMemberToGroup",
      "outputs": [],
      "stateMutability": "nonpayable",
      "type": "function"
    },
    {
      "inputs": [
        {
          "internalType": "address",
          "name": "account",
          "type": "address"
        },
        {
          "internalType": "address",
          "name": "lpToken",
          "type": "address"
        }
      ],
      "name": "getMaxWithdrawAllowed",
      "outputs": [
        {
          "internalType": "uint256",
          "name": "",
          "type": "uint256"
        }
      ],
      "stateMutability": "nonpayable",
      "type": "function"
    },
    {
      "inputs": [
        {
          "internalType": "address",
          "name": "account",
          "type": "address"
        },
        {
          "internalType": "address",
          "name": "lpToken",
          "type": "address"
        }
      ],
      "name": "viewMaxWithdrawAllowed",
      "outputs": [
        {
          "internalType": "uint256",
          "name": "",
          "type": "uint256"
        }
      ],
      "stateMutability": "view",
      "type": "function"
    },
    {
      "inputs": [
        {
          "internalType": "address",
          "name": "_account",
          "type": "address"
        }
      ],
      "name": "getTotalAvailableCollateralValue",
      "outputs": [
        {
          "internalType": "uint256",
          "name": "",
          "type": "uint256"
        }
      ],
      "stateMutability": "nonpayable",
      "type": "function"
    },
    {
      "inputs": [
        {
          "internalType": "address",
          "name": "_account",
          "type": "address"
        }
      ],
      "name": "viewTotalAvailableCollateralValue",
      "outputs": [
        {
          "internalType": "uint256",
          "name": "",
          "type": "uint256"
        }
      ],
      "stateMutability": "view",
      "type": "function"
    },
    {
      "inputs": [
        {
          "internalType": "address",
          "name": "lpToken",
          "type": "address"
        }
      ],
      "name": "viewPriceOfCollateral",
      "outputs": [
        {
          "internalType": "uint256",
          "name": "",
          "type": "uint256"
        }
      ],
      "stateMutability": "view",
      "type": "function"
    },
    {
      "inputs": [
        {
          "internalType": "address",
          "name": "lpToken",
          "type": "address"
        }
      ],
      "name": "getPriceOfCollateral",
      "outputs": [
        {
          "internalType": "uint256",
          "name": "",
          "type": "uint256"
        }
      ],
      "stateMutability": "nonpayable",
      "type": "function"
    },
    {
      "inputs": [
        {
          "internalType": "address",
          "name": "token",
          "type": "address"
        },
        {
          "internalType": "uint256",
          "name": "amount",
          "type": "uint256"
        }
      ],
      "name": "viewPriceOfToken",
      "outputs": [
        {
          "internalType": "uint256",
          "name": "",
          "type": "uint256"
        }
      ],
      "stateMutability": "view",
      "type": "function"
    },
    {
      "inputs": [
        {
          "internalType": "address",
          "name": "token",
          "type": "address"
        },
        {
          "internalType": "uint256",
          "name": "amount",
          "type": "uint256"
        }
      ],
      "name": "getPriceOfToken",
      "outputs": [
        {
          "internalType": "uint256",
          "name": "",
          "type": "uint256"
        }
      ],
      "stateMutability": "nonpayable",
      "type": "function"
    },
    {
      "inputs": [
        {
          "internalType": "address",
          "name": "_account",
          "type": "address"
        }
      ],
      "name": "viewTotalBorrowedValue",
      "outputs": [
        {
          "internalType": "uint256",
          "name": "",
          "type": "uint256"
        }
      ],
      "stateMutability": "view",
      "type": "function"
    },
    {
      "inputs": [
        {
          "internalType": "address",
          "name": "_account",
          "type": "address"
        }
      ],
      "name": "getTotalBorrowedValue",
      "outputs": [
        {
          "internalType": "uint256",
          "name": "",
          "type": "uint256"
        }
      ],
      "stateMutability": "nonpayable",
      "type": "function"
    },
    {
      "inputs": [
        {
          "internalType": "uint256",
          "name": "_collateralValue",
          "type": "uint256"
        }
      ],
      "name": "calcBorrowLimit",
      "outputs": [
        {
          "internalType": "uint256",
          "name": "",
          "type": "uint256"
        }
      ],
      "stateMutability": "pure",
      "type": "function"
    },
    {
      "inputs": [
        {
          "internalType": "uint256",
          "name": "_borrowAmount",
          "type": "uint256"
        }
      ],
      "name": "calcCollateralRequired",
      "outputs": [
        {
          "internalType": "uint256",
          "name": "",
          "type": "uint256"
        }
      ],
      "stateMutability": "pure",
      "type": "function"
    },
    {
      "inputs": [
        {
          "internalType": "address",
          "name": "_account",
          "type": "address"
        }
      ],
      "name": "getBorrowLimit",
      "outputs": [
        {
          "internalType": "uint256",
          "name": "",
          "type": "uint256"
        }
      ],
      "stateMutability": "nonpayable",
      "type": "function"
    },
    {
      "inputs": [
        {
          "internalType": "address",
          "name": "_account",
          "type": "address"
        }
      ],
      "name": "viewBorrowLimit",
      "outputs": [
        {
          "internalType": "uint256",
          "name": "",
          "type": "uint256"
        }
      ],
      "stateMutability": "view",
      "type": "function"
    },
    {
      "inputs": [
        {
          "internalType": "address",
          "name": "_StableCoin",
          "type": "address"
        },
        {
          "internalType": "uint256",
          "name": "_amount",
          "type": "uint256"
        }
      ],
      "name": "borrowSC",
      "outputs": [],
      "stateMutability": "nonpayable",
      "type": "function"
    },
    {
      "inputs": [
        {
          "internalType": "address",
          "name": "_borrower",
          "type": "address"
        }
      ],
      "name": "liquidateAccount",
      "outputs": [],
      "stateMutability": "nonpayable",
      "type": "function"
    },
    {
      "inputs": [
        {
          "internalType": "address",
          "name": "_token",
          "type": "address"
        },
        {
          "internalType": "uint256",
          "name": "_baseRatePerYear",
          "type": "uint256"
        },
        {
          "internalType": "uint256",
          "name": "_multiplierPerYear",
          "type": "uint256"
        },
        {
          "internalType": "uint256",
          "name": "_jumpMultiplierPerYear",
          "type": "uint256"
        },
        {
          "internalType": "uint256",
          "name": "_optimal",
          "type": "uint256"
        }
      ],
      "name": "updateInterestRateModel",
      "outputs": [],
      "stateMutability": "nonpayable",
      "type": "function"
    },
    {
      "inputs": [
        {
          "internalType": "address",
          "name": "_newWarpControl",
          "type": "address"
        }
      ],
      "name": "startUpgradeTimer",
      "outputs": [],
      "stateMutability": "nonpayable",
      "type": "function"
    },
    {
      "inputs": [],
      "name": "upgradeWarp",
      "outputs": [],
      "stateMutability": "nonpayable",
      "type": "function"
    },
    {
      "inputs": [
        {
          "internalType": "address",
          "name": "_newWarp",
          "type": "address"
        }
      ],
      "name": "transferWarpTeam",
      "outputs": [],
      "stateMutability": "nonpayable",
      "type": "function"
    }
  ],
  "bytecode": "0x60806040523480156200001157600080fd5b5060405162003efe38038062003efe833981810160405260808110156200003757600080fd5b50805160208201516040830151606090930151919290916000620000636001600160e01b036200010116565b600080546001600160a01b0319166001600160a01b0383169081178255604051929350917f8be0079c531659141344cd1fd0a4f28419497f9722a3daafe3b4186f6b6457e0908290a350600180546001600160a01b039586166001600160a01b031991821617909155600280549486169482169490941790935560038054928516928416929092179091556004805491909316911617905562000105565b3390565b613de980620001156000396000f3fe60806040523480156200001157600080fd5b5060043610620003b25760003560e01c80638da5cb5b1162000201578063d6fff56f116200011d578063ea7184fd11620000b1578063efdebdf51162000087578063efdebdf51462000cf6578063f24a534e1462000d00578063f2fde38b1462000d0a578063f3c7f9871462000d3357620003b2565b8063ea7184fd1462000c84578063ed6072f61462000cad578063ed85fdff1462000ccd57620003b2565b8063e1535d1211620000f3578063e1535d121462000b5d578063e3c351b81462000b67578063e50f4a301462000b90578063e7b34be31462000c6457620003b2565b8063d6fff56f1462000a62578063da4f7fb21462000a91578063dc2ddcae1462000ab157620003b2565b8063ab5e2c991162000195578063bc64cd4e116200016b578063bc64cd4e14620009c5578063bc816cac14620009ee578063be9287e314620009f8578063cf2307381462000a2157620003b2565b8063ab5e2c99146200094b578063acc9e5b1146200097c578063b042079214620009a557620003b2565b80639da7875711620001d75780639da7875714620008e5578063a092b718146200090e578063a2b35d9d1462000918578063a372e01c146200094157620003b2565b80638da5cb5b1462000892578063929066f5146200089c57806396324bd414620008c557620003b2565b80635cf5738911620002f1578063715018a611620002855780637c17d237116200025b5780637c17d237146200077057806384c38dd8146200079957806388c342ea146200083a5780638ac5d4a3146200086957620003b2565b8063715018a614620007145780637a58dc9f146200071e5780637af70ba6146200074757620003b2565b80636222630811620002c7578063622263081462000698578063652b9b4114620006b8578063692d295d14620006e15780636af5f752146200070a57620003b2565b80635cf57389146200063c5780635d34f08a146200064657806360e67de6146200066f57620003b2565b80631dbb0b8111620003695780632f74020c116200033f5780632f74020c146200055157806348cca254146200055b5780634e590bee14620005d65780635136f31514620005ff57620003b2565b80631dbb0b8114620004ca5780632792bdd014620004d45780632d23adbd146200052857620003b2565b806302e0df2d14620003b75780630a55598914620003e25780630a8a4d3f14620004115780630c1e2b92146200042d578063169d4b1414620004725780631a2a16b5146200049b575b600080fd5b620003e060048036036020811015620003cf57600080fd5b50356001600160a01b031662000d64565b005b620003e060048036036040811015620003fa57600080fd5b506001600160a01b03813516906020013562000de2565b6200041b62000f7b565b60408051918252519081900360200190f35b62000456600480360360208110156200044557600080fd5b50356001600160a01b031662000f81565b604080516001600160a01b039092168252519081900360200190f35b6200041b600480360360208110156200048a57600080fd5b50356001600160a01b031662000f9c565b6200041b60048036036040811015620004b357600080fd5b506001600160a01b03813516906020013562000fbe565b6200041b6200104e565b620003e06004803603610100811015620004ed57600080fd5b5080359060208101359060408101359060608101359060808101359060a08101359060c08101359060e001356001600160a01b031662001055565b62000456600480360360208110156200054057600080fd5b50356001600160a01b031662001297565b62000456620012b2565b62000584600480360360208110156200057357600080fd5b50356001600160a01b0316620012c1565b60408051602080825283518183015283519192839290830191858101910280838360005b83811015620005c2578181015183820152602001620005a8565b505050509050019250505060405180910390f35b6200041b60048036036020811015620005ee57600080fd5b50356001600160a01b031662001339565b62000628600480360360208110156200061757600080fd5b50356001600160a01b0316620013bf565b604080519115158252519081900360200190f35b62000456620013d4565b62000456600480360360208110156200065e57600080fd5b50356001600160a01b0316620013e3565b620003e0600480360360208110156200068757600080fd5b50356001600160a01b031662001401565b6200045660048036036020811015620006b057600080fd5b50356200156f565b6200062860048036036020811015620006d057600080fd5b50356001600160a01b031662001597565b6200041b60048036036020811015620006f957600080fd5b50356001600160a01b0316620015ac565b6200045662001614565b620003e062001623565b620003e0600480360360208110156200073657600080fd5b50356001600160a01b0316620016c9565b6200041b600480360360208110156200075f57600080fd5b50356001600160a01b031662001711565b6200041b600480360360208110156200078857600080fd5b50356001600160a01b031662001911565b620007c260048036036020811015620007b157600080fd5b50356001600160a01b03166200191f565b6040805160208082528351818301528351919283929083019185019080838360005b83811015620007fe578181015183820152602001620007e4565b50505050905090810190601f1680156200082c5780820380516001836020036101000a031916815260200191505b509250505060405180910390f35b6200041b600480360360408110156200085257600080fd5b506001600160a01b038135169060200135620019c4565b620003e0600480360360208110156200088157600080fd5b50356001600160a01b031662001a33565b6200045662001e01565b6200062860048036036020811015620008b457600080fd5b50356001600160a01b031662001e10565b6200045660048036036020811015620008dd57600080fd5b503562001e25565b620007c260048036036020811015620008fd57600080fd5b50356001600160a01b031662001e33565b6200058462001ed2565b6200041b600480360360208110156200093057600080fd5b50356001600160a01b031662001f36565b620005846200208f565b6200041b600480360360408110156200096357600080fd5b506001600160a01b0381358116916020013516620020f1565b62000456600480360360208110156200099457600080fd5b50356001600160a01b0316620021f0565b6200045660048036036020811015620009bd57600080fd5b50356200220b565b6200041b60048036036020811015620009dd57600080fd5b50356001600160a01b031662002219565b620003e0620023f5565b6200041b6004803603602081101562000a1057600080fd5b50356001600160a01b03166200270d565b620003e0600480360360a081101562000a3957600080fd5b506001600160a01b0381351690602081013590604081013590606081013590608001356200285d565b620004566004803603604081101562000a7a57600080fd5b506001600160a01b03813516906020013562002954565b6200041b6004803603602081101562000aa957600080fd5b50356200298a565b620003e06004803603602081101562000ac957600080fd5b81019060208101813564010000000081111562000ae557600080fd5b82018360208201111562000af857600080fd5b8035906020019184600183028401116401000000008311171562000b1b57600080fd5b91908080601f016020809104026020016040519081016040528093929190818152602001838380828437600092019190915250929550620029a5945050505050565b6200041b62002af1565b6200041b6004803603602081101562000b7f57600080fd5b50356001600160a01b031662002af7565b620003e0600480360360a081101562000ba857600080fd5b8135916001600160a01b03602082013581169260408301358216926060810135909216919081019060a08101608082013564010000000081111562000bec57600080fd5b82018360208201111562000bff57600080fd5b8035906020019184600183028401116401000000008311171562000c2257600080fd5b91908080601f01602080910402602001604051908101604052809392919081815260200183838082843760009201919091525092955062002b09945050505050565b620004566004803603602081101562000c7c57600080fd5b503562002d9f565b620006286004803603602081101562000c9c57600080fd5b50356001600160a01b031662002dad565b6200041b6004803603602081101562000cc557600080fd5b503562002dc2565b620004566004803603602081101562000ce557600080fd5b50356001600160a01b031662002dec565b6200045662002e07565b6200045662002e16565b620003e06004803603602081101562000d2257600080fd5b50356001600160a01b031662002e25565b6200041b6004803603604081101562000d4b57600080fd5b506001600160a01b038135811691602001351662002f23565b62000d6e62002fce565b6000546001600160a01b0390811691161462000dc0576040805162461bcd60e51b8152602060048201819052602482015260008051602062003d94833981519152604482015290519081900360640190fd5b600480546001600160a01b0319166001600160a01b0392909216919091179055565b600062000def3362001f36565b9050600062000dfe3362001911565b9050600062000e14828463ffffffff62002fd216565b9050600062000e248686620019c4565b90508082101562000e7c576040805162461bcd60e51b815260206004820152601b60248201527f426f72726f77696e67206d6f7265207468616e20616c6c6f7765640000000000604482015290519081900360640190fd5b336000908152600e602052604090205462000e9e908663ffffffff6200301616565b336000818152600e60209081526040808320949094556001600160a01b038a81168352600c909152838220548451631196a36960e11b8152600481018b905260248101949094529351931692839263232d46d292604480830193919282900301818387803b15801562000f1057600080fd5b505af115801562000f25573d6000803e3d6000fd5b5050604080513381526001600160a01b038b1660208201528082018a905290517f39afaad37daff6f7a5998bf9de35bb3f46d51f73227bb182d92c016c981a82909350908190036060019150a150505050505050565b60065481565b600c602052600090815260409020546001600160a01b031681565b60008062000faa8362002219565b905062000fb78162002dc2565b9392505050565b60015460408051631a2a16b560e01b81526001600160a01b0385811660048301526024820185905291516000939290921691631a2a16b591604480820192602092909190829003018186803b1580156200101757600080fd5b505afa1580156200102c573d6000803e3d6000fd5b505050506040513d60208110156200104357600080fd5b505190505b92915050565b6008545b90565b6200105f62002fce565b6000546001600160a01b03908116911614620010b1576040805162461bcd60e51b8152602060048201819052602482015260008051602062003d94833981519152604482015290519081900360640190fd5b60008787878730604051620010c69062003217565b948552602085019390935260408085019290925260608401526001600160a01b039091166080830152519081900360a001906000f0801580156200110e573d6000803e3d6000fd5b506003546004805460408051630f10a94560e31b81526001600160a01b03808716948201949094528784166024820152918316604483015260648201899052608482018e905260a482018890525193945060009391909216916378854a289160c480830192602092919082900301818787803b1580156200118e57600080fd5b505af1158015620011a3573d6000803e3d6000fd5b505050506040513d6020811015620011ba57600080fd5b50516001600160a01b038085166000818152600c6020908152604080832080548688166001600160a01b031991821681179092556008805460018181019092557ff3f7a9fe364faab93b216da50a3214154f22a0a2b415b23a84c8169e8b636ee3018054831684179055828652600f8552838620805460ff19169091179055600d845293829020805490941690941790925581519283529286169282019290925281519293507f2c3b5544df8032e6313fd1e59faede21004ab06bb69c1f6640a41566225cb00a929081900390910190a150505050505050505050565b6015602052600090815260409020546001600160a01b031681565b6005546001600160a01b031681565b6001600160a01b0381166000908152601060209081526040918290208054835181840281018401909452808452606093928301828280156200132d57602002820191906000526020600020905b81546001600160a01b031681526001909101906020018083116200130e575b50505050509050919050565b6001546040805163b04c6d3f60e01b81526001600160a01b0384811660048301529151600093929092169163b04c6d3f91602480820192602092909190829003018186803b1580156200138b57600080fd5b505afa158015620013a0573d6000803e3d6000fd5b505050506040513d6020811015620013b757600080fd5b505192915050565b60136020526000908152604090205460ff1681565b6004546001600160a01b031681565b6001600160a01b039081166000908152601560205260409020541690565b3360009081526014602052604090205460ff161562001467576040805162461bcd60e51b815260206004820152601d60248201527f43616e74206a6f696e206d6f7265207468616e206f6e652067726f7570000000604482015290519081900360640190fd5b6001600160a01b03811660009081526013602052604090205460ff161515600114620014d1576040805162461bcd60e51b815260206004820152601460248201527323b937bab8103237b2b9b713ba1032bc34b9ba1760611b604482015290519081900360640190fd5b6001600160a01b03166000818152601060209081526040808320805460018082018355918552838520018054336001600160a01b0319918216811790925581865260148552838620805460ff1916841790556015909452918420805484169095179094556009805494850181559092527f6e1540171b6c0c960b71a7020d9f60077f6af931a8bbf590da0223dacf75c7af9092018054909216179055565b600781815481106200157d57fe5b6000918252602090912001546001600160a01b0316905081565b600f6020526000908152604090205460ff1681565b6001546040805163fc57d4df60e01b81526001600160a01b0384811660048301529151600093929092169163fc57d4df9160248082019260209290919082900301818787803b158015620015ff57600080fd5b505af1158015620013a0573d6000803e3d6000fd5b6002546001600160a01b031681565b6200162d62002fce565b6000546001600160a01b039081169116146200167f576040805162461bcd60e51b8152602060048201819052602482015260008051602062003d94833981519152604482015290519081900360640190fd5b600080546040516001600160a01b03909116907f8be0079c531659141344cd1fd0a4f28419497f9722a3daafe3b4186f6b6457e0908390a3600080546001600160a01b0319169055565b6004546001600160a01b03163314620016e157600080fd5b600580546001600160a01b0319166001600160a01b0383161790556200170b426202a30062003016565b60065550565b60075460009081805b82811015620018ee576000600782815481106200173357fe5b6000918252602080832090910154604080516313082b1d60e21b815290516001600160a01b0390921694508492634c20ac7492600480840193829003018186803b1580156200178157600080fd5b505afa15801562001796573d6000803e3d6000fd5b505050506040513d6020811015620017ad57600080fd5b50516001546040805163fc57d4df60e01b81526001600160a01b0380851660048301529151939450600093919092169163fc57d4df91602480830192602092919082900301818787803b1580156200180457600080fd5b505af115801562001819573d6000803e3d6000fd5b505050506040513d60208110156200183057600080fd5b50516040805163f919b4bf60e01b81526001600160a01b038b8116600483015291519293506000929186169163f919b4bf91602480820192602092909190829003018186803b1580156200188357600080fd5b505afa15801562001898573d6000803e3d6000fd5b505050506040513d6020811015620018af57600080fd5b505190506000620018c7828463ffffffff6200307116565b9050620018db878263ffffffff6200301616565b965050505050508060010190506200171a565b506200190981670de0b6b3a764000063ffffffff620030cf16565b949350505050565b60008062000faa8362001711565b6001600160a01b03811660009081526011602090815260409182902080548351601f60026000196101006001861615020190931692909204918201849004840281018401909452808452606093928301828280156200132d5780601f1062001996576101008083540402835291602001916200132d565b820191906000526020600020905b815481529060010190602001808311620019a45750939695505050505050565b60015460408051634461a17560e11b81526001600160a01b03858116600483015260248201859052915160009392909216916388c342ea9160448082019260209290919082900301818787803b15801562001a1e57600080fd5b505af11580156200102c573d6000803e3d6000fd5b336001600160a01b038216141562001a92576040805162461bcd60e51b815260206004820152601b60248201527f796f752063616e74206c697175696461746520796f757273656c660000000000604482015290519081900360640190fd5b600854600754600060608367ffffffffffffffff8111801562001ab457600080fd5b5060405190808252806020026020018201604052801562001adf578160200160208202803683370190505b50905060005b8481101562001c0c5760006008828154811062001afe57fe5b6000918252602080832090910154604080516305eff7ef60e21b81526001600160a01b038c81166004830152915191909216945084936317bfdfbc93602480850194919392918390030190829087803b15801562001b5b57600080fd5b505af115801562001b70573d6000803e3d6000fd5b505050506040513d602081101562001b8757600080fd5b5051835184908490811062001b9857fe5b6020908102919091018101919091526001600160a01b038083166000908152600d9092526040822054855162001be892919091169086908690811062001bda57fe5b602002602001015162000fbe565b905062001bfc858263ffffffff6200301616565b9450505080600101905062001ae5565b50600062001c1a8662001911565b905082811162001df95760005b8581101562001d155760006008828154811062001c4057fe5b9060005260206000200160009054906101000a90046001600160a01b03169050806001600160a01b031663ab292f9b893387868151811062001c7e57fe5b60200260200101516040518463ffffffff1660e01b815260040180846001600160a01b03166001600160a01b03168152602001836001600160a01b03166001600160a01b031681526020018281526020019350505050600060405180830381600087803b15801562001cef57600080fd5b505af115801562001d04573d6000803e3d6000fd5b505050505080600101905062001c27565b5060005b8481101562001db45760006007828154811062001d3257fe5b600091825260208220015460408051633d2d78f960e21b81526001600160a01b038c811660048301523360248301529151919092169350839263f4b5e3e4926044808201939182900301818387803b15801562001d8e57600080fd5b505af115801562001da3573d6000803e3d6000fd5b505050505080600101905062001d19565b50604080516001600160a01b038816815233602082015281517fce054da468b0607d4d65949d7572acd17087e593b3e5be27ba665ba1a60ad75b929181900390910190a15b505050505050565b6000546001600160a01b031690565b60126020526000908152604090205460ff1681565b600a81815481106200157d57fe5b60116020908152600091825260409182902080548351601f60026000196101006001861615020190931692909204918201849004840281018401909452808452909183018282801562001eca5780601f1062001e9e5761010080835404028352916020019162001eca565b820191906000526020600020905b81548152906001019060200180831162001eac57829003601f168201915b505050505081565b6060600a80548060200260200160405190810160405280929190818152602001828054801562001f2c57602002820191906000526020600020905b81546001600160a01b0316815260019091019060200180831162001f0d575b5050505050905090565b60085460009081805b82811015620020875760006008828154811062001f5857fe5b6000918252602080832090910154604080516305eff7ef60e21b81526001600160a01b038b81166004830152915191909216945084926317bfdfbc926024808201939182900301818787803b15801562001fb157600080fd5b505af115801562001fc6573d6000803e3d6000fd5b505050506040513d602081101562001fdd57600080fd5b505190508062001fef5750506200207e565b600062002064836001600160a01b031663591cec866040518163ffffffff1660e01b815260040160206040518083038186803b1580156200202f57600080fd5b505afa15801562002044573d6000803e3d6000fd5b505050506040513d60208110156200205b57600080fd5b505183620019c4565b905062002078858263ffffffff6200301616565b94505050505b60010162001f3f565b509392505050565b6060600980548060200260200160405190810160405280929190818152602001828054801562001f2c576020028201919060005260206000209081546001600160a01b0316815260019091019060200180831162001f0d575050505050905090565b600080620020ff8462001f36565b905060006200210e8562001711565b905060006200211d836200298a565b9050600062002133838363ffffffff62002fd216565b6001546040805163fc57d4df60e01b81526001600160a01b038a811660048301529151939450600093919092169163fc57d4df91602480830192602092919082900301818787803b1580156200218857600080fd5b505af11580156200219d573d6000803e3d6000fd5b505050506040513d6020811015620021b457600080fd5b50519050620021e481620021d784670de0b6b3a764000063ffffffff6200307116565b9063ffffffff620030cf16565b98975050505050505050565b600b602052600090815260409020546001600160a01b031681565b600881815481106200157d57fe5b60075460009081805b82811015620018ee576000600782815481106200223b57fe5b6000918252602080832090910154604080516313082b1d60e21b815290516001600160a01b0390921694508492634c20ac7492600480840193829003018186803b1580156200228957600080fd5b505afa1580156200229e573d6000803e3d6000fd5b505050506040513d6020811015620022b557600080fd5b50516001546040805163b04c6d3f60e01b81526001600160a01b0380851660048301529151939450600093919092169163b04c6d3f916024808301926020929190829003018186803b1580156200230b57600080fd5b505afa15801562002320573d6000803e3d6000fd5b505050506040513d60208110156200233757600080fd5b50516040805163f919b4bf60e01b81526001600160a01b038b8116600483015291519293506000929186169163f919b4bf91602480820192602092909190829003018186803b1580156200238a57600080fd5b505afa1580156200239f573d6000803e3d6000fd5b505050506040513d6020811015620023b657600080fd5b505190506000620023ce828463ffffffff6200307116565b9050620023e2878263ffffffff6200301616565b9650505050505080600101905062002222565b620023ff62002fce565b6000546001600160a01b0390811691161462002451576040805162461bcd60e51b8152602060048201819052602482015260008051602062003d94833981519152604482015290519081900360640190fd5b600654421015620024945760405162461bcd60e51b815260040180806020018281038252602781526020018062003d4c6027913960400191505060405180910390fd5b60075460085460005b828110156200253457600060078281548110620024b657fe5b60009182526020822001546005546040805162900f0160e41b81526001600160a01b03928316600482015290519190921693508392630900f010926024808201939182900301818387803b1580156200250e57600080fd5b505af115801562002523573d6000803e3d6000fd5b50505050508060010190506200249d565b5060005b81811015620025cf576000600882815481106200255157fe5b60009182526020822001546005546040805162900f0160e41b81526001600160a01b03928316600482015290519190921693508392630900f010926024808201939182900301818387803b158015620025a957600080fd5b505af1158015620025be573d6000803e3d6000fd5b505050505080600101905062002538565b506002546005546040805163f2fde38b60e01b81526001600160a01b0392831660048201529051919092169163f2fde38b91602480830192600092919082900301818387803b1580156200262257600080fd5b505af115801562002637573d6000803e3d6000fd5b50506003546005546040805163f2fde38b60e01b81526001600160a01b039283166004820152905191909216935063f2fde38b9250602480830192600092919082900301818387803b1580156200268d57600080fd5b505af1158015620026a2573d6000803e3d6000fd5b50506001546005546040805163f2fde38b60e01b81526001600160a01b039283166004820152905191909216935063f2fde38b9250602480830192600092919082900301818387803b158015620026f857600080fd5b505af115801562001df9573d6000803e3d6000fd5b60085460009081805b8281101562002087576000600882815481106200272f57fe5b600091825260208083209091015460408051637746efab60e01b81526001600160a01b038b8116600483015291519190921694508492637746efab9260248082019391829003018186803b1580156200278757600080fd5b505afa1580156200279c573d6000803e3d6000fd5b505050506040513d6020811015620027b357600080fd5b5051905080620027c557505062002854565b60006200283a836001600160a01b031663591cec866040518163ffffffff1660e01b815260040160206040518083038186803b1580156200280557600080fd5b505afa1580156200281a573d6000803e3d6000fd5b505050506040513d60208110156200283157600080fd5b50518362000fbe565b90506200284e858263ffffffff6200301616565b94505050505b60010162002716565b6004546001600160a01b031633146200287557600080fd5b600084848484306040516200288a9062003217565b948552602085019390935260408085019290925260608401526001600160a01b039091166080830152519081900360a001906000f080158015620028d2573d6000803e3d6000fd5b506001600160a01b038088166000908152600c602052604080822054815163b1be82f160e01b815284861660048201529151949550909216928392839263b1be82f19260248084019382900301818387803b1580156200293157600080fd5b505af115801562002946573d6000803e3d6000fd5b505050505050505050505050565b601060205281600052604060002081815481106200296e57fe5b6000918252602090912001546001600160a01b03169150829050565b6000620010486002620021d784600363ffffffff6200307116565b3360009081526014602052604090205460ff1615620029f65760405162461bcd60e51b815260040180806020018281038252602781526020018062003d256027913960400191505060405180910390fd5b336000908152601360209081526040808320805460ff1916600117905560118252909120825162002a2a9284019062003225565b5050600a805460018082019092557fc65a7bb8d6351c1cf70c95a316cc6a92839c986682d98bc35f958f4883f9d2a8018054336001600160a01b0319918216811790925560008281526010602090815260408083208054808801825590845282842001805485168617905584835260148252808320805460ff19168717905560159091528120805483168417905560098054948501815590527f6e1540171b6c0c960b71a7020d9f60077f6af931a8bbf590da0223dacf75c7af9092018054909216179055565b60075490565b600e6020526000908152604090205481565b62002b1362002fce565b6000546001600160a01b0390811691161462002b65576040805162461bcd60e51b8152602060048201819052602482015260008051602062003d94833981519152604482015290519081900360640190fd5b60015460408051634a42dd6d60e11b81526001600160a01b0386811660048301528581166024830152878116604483015291519190921691639485bada91606480830192600092919082900301818387803b15801562002bc457600080fd5b505af115801562002bd9573d6000803e3d6000fd5b505060025460405163a8edf11560e01b8152600481018981526001600160a01b0389811660248401526060604484019081528751606485015287516000975091909416945063a8edf115938b938b9389939092916084019060208501908083838d5b8381101562002c5557818101518382015260200162002c3b565b50505050905090810190601f16801562002c835780820380516001836020036101000a031916815260200191505b50945050505050602060405180830381600087803b15801562002ca557600080fd5b505af115801562002cba573d6000803e3d6000fd5b505050506040513d602081101562002cd157600080fd5b50516001600160a01b038681166000818152600b6020908152604080832080546001600160a01b03199081169688169687179091556007805460018181019092557fa66cc928b5edb82af9bd49922954155ab7b0942694bea4ce44661d9a8736c688018054831688179055868552600f8452828520805460ff19169091179055600d8352928190208054909316909317909155815192835290519293507fe4136410250c225cb6546e2f16dccea79b35b32f295f337362d04375101342ff92918290030190a1505050505050565b600981815481106200157d57fe5b60146020526000908152604090205460ff1681565b60008062002dd883600363ffffffff620030cf16565b905062000fb7818063ffffffff6200301616565b600d602052600090815260409020546001600160a01b031681565b6003546001600160a01b031681565b6001546001600160a01b031681565b62002e2f62002fce565b6000546001600160a01b0390811691161462002e81576040805162461bcd60e51b8152602060048201819052602482015260008051602062003d94833981519152604482015290519081900360640190fd5b6001600160a01b03811662002ec85760405162461bcd60e51b815260040180806020018281038252602681526020018062003cff6026913960400191505060405180910390fd5b600080546040516001600160a01b03808516939216917f8be0079c531659141344cd1fd0a4f28419497f9722a3daafe3b4186f6b6457e091a3600080546001600160a01b0319166001600160a01b0392909216919091179055565b60008062002f31846200270d565b9050600062002f408562002219565b9050600062002f4f836200298a565b9050600062002f65838363ffffffff62002fd216565b6001546040805163b04c6d3f60e01b81526001600160a01b038a811660048301529151939450600093919092169163b04c6d3f916024808301926020929190829003018186803b15801562002fb957600080fd5b505afa1580156200219d573d6000803e3d6000fd5b3390565b600062000fb783836040518060400160405280601e81526020017f536166654d6174683a207375627472616374696f6e206f766572666c6f77000081525062003113565b60008282018381101562000fb7576040805162461bcd60e51b815260206004820152601b60248201527f536166654d6174683a206164646974696f6e206f766572666c6f770000000000604482015290519081900360640190fd5b600082620030825750600062001048565b828202828482816200309057fe5b041462000fb75760405162461bcd60e51b815260040180806020018281038252602181526020018062003d736021913960400191505060405180910390fd5b600062000fb783836040518060400160405280601a81526020017f536166654d6174683a206469766973696f6e206279207a65726f000000000000815250620031ae565b60008184841115620031a65760405162461bcd60e51b81526004018080602001828103825283818151815260200191508051906020019080838360005b838110156200316a57818101518382015260200162003150565b50505050905090810190601f168015620031985780820380516001836020036101000a031916815260200191505b509250505060405180910390fd5b505050900390565b60008183620032005760405162461bcd60e51b81526020600482018181528351602484015283519092839260449091019190850190808383600083156200316a57818101518382015260200162003150565b5060008385816200320d57fe5b0495945050505050565b610a3780620032c883390190565b828054600181600116156101000203166002900490600052602060002090601f016020900481019282601f106200326857805160ff191683800117855562003298565b8280016001018555821562003298579182015b82811115620032985782518255916020019190600101906200327b565b50620032a6929150620032aa565b5090565b6200105291905b80821115620032a65760008155600101620032b156fe608060405234801561001057600080fd5b50604051610a37380380610a37833981810160405260a081101561003357600080fd5b508051602082015160408301516060840151608090940151600080546001600160a01b0319166001600160a01b03831617905592939192909190848484848461007e8585858561008d565b505050505050505050506102bc565b6100a7622014808561017060201b6105901790919060201c565b6002556100f66100c562201480836101c1602090811b61053717901c565b6100e4670de0b6b3a7640000866101c160201b6105371790919060201c565b61017060201b6105901790919060201c565b6001556101118262201480610170602090811b61059017901c565b60038190556004829055600254600154604080519283526020830191909152818101929092526060810183905290517f6960ab234c7ef4b0c9197100f5393cfcde7c453ac910a27bd2000aa1dd4c068d9181900360800190a150505050565b60006101b883836040518060400160405280601a81526020017f536166654d6174683a206469766973696f6e206279207a65726f00000000000081525061021a60201b60201c565b90505b92915050565b6000826101d0575060006101bb565b828202828482816101dd57fe5b04146101b85760405162461bcd60e51b8152600401808060200182810382526021815260200180610a166021913960400191505060405180910390fd5b600081836102a65760405162461bcd60e51b81526004018080602001828103825283818151815260200191508051906020019080838360005b8381101561026b578181015183820152602001610253565b50505050905090810190601f1680156102985780820380516001836020036101000a031916815260200191505b509250505060405180910390fd5b5060008385816102b257fe5b0495945050505050565b61074b806102cb6000396000f3fe608060405234801561001057600080fd5b506004361061009e5760003560e01c8063a385fb9611610066578063a385fb9614610164578063b81688161461016c578063b9f9850a1461019b578063f14039de146101a3578063fd2da339146101ab5761009e565b806315f24053146100a35780632037f3e7146100de5780636e71e2d81461010f5780638726bb89146101385780638da5cb5b14610140575b600080fd5b6100cc600480360360608110156100b957600080fd5b50803590602081013590604001356101b3565b60408051918252519081900360200190f35b61010d600480360360808110156100f457600080fd5b50803590602081013590604081013590606001356101ca565b005b6100cc6004803603606081101561012557600080fd5b5080359060208101359060400135610225565b6100cc61027b565b610148610281565b604080516001600160a01b039092168252519081900360200190f35b6100cc610290565b6100cc6004803603608081101561018257600080fd5b5080359060208101359060408101359060600135610297565b6100cc610316565b6100cc61031c565b6100cc610322565b60006101c0848484610328565b90505b9392505050565b6000546001600160a01b031633146102135760405162461bcd60e51b81526004018080602001828103825260268152602001806106f06026913960400191505060405180910390fd5b61021f848484846103f1565b50505050565b600082610234575060006101c3565b6101c06102578361024b878763ffffffff61049216565b9063ffffffff6104f516565b61026f85670de0b6b3a764000063ffffffff61053716565b9063ffffffff61059016565b60015481565b6000546001600160a01b031681565b6220148081565b6000806102b2670de0b6b3a76400008463ffffffff6104f516565b905060006102c1878787610328565b905060006102e1670de0b6b3a764000061026f848663ffffffff61053716565b905061030a670de0b6b3a764000061026f836102fe8c8c8c610225565b9063ffffffff61053716565b98975050505050505050565b60035481565b60025481565b60045481565b600080610336858585610225565b9050600454811161037c57610374600254610368670de0b6b3a764000061026f6001548661053790919063ffffffff16565b9063ffffffff61049216565b9150506101c3565b60006103a7600254610368670de0b6b3a764000061026f60015460045461053790919063ffffffff16565b905060006103c0600454846104f590919063ffffffff16565b90506103e782610368670de0b6b3a764000061026f6003548661053790919063ffffffff16565b93505050506101c3565b610404846220148063ffffffff61059016565b60025561041d610257622014808363ffffffff61053716565b600155610433826220148063ffffffff61059016565b60038190556004829055600254600154604080519283526020830191909152818101929092526060810183905290517f6960ab234c7ef4b0c9197100f5393cfcde7c453ac910a27bd2000aa1dd4c068d9181900360800190a150505050565b6000828201838110156104ec576040805162461bcd60e51b815260206004820152601b60248201527f536166654d6174683a206164646974696f6e206f766572666c6f770000000000604482015290519081900360640190fd5b90505b92915050565b60006104ec83836040518060400160405280601e81526020017f536166654d6174683a207375627472616374696f6e206f766572666c6f7700008152506105d2565b600082610546575060006104ef565b8282028284828161055357fe5b04146104ec5760405162461bcd60e51b81526004018080602001828103825260218152602001806106cf6021913960400191505060405180910390fd5b60006104ec83836040518060400160405280601a81526020017f536166654d6174683a206469766973696f6e206279207a65726f000000000000815250610669565b600081848411156106615760405162461bcd60e51b81526004018080602001828103825283818151815260200191508051906020019080838360005b8381101561062657818101518382015260200161060e565b50505050905090810190601f1680156106535780820380516001836020036101000a031916815260200191505b509250505060405180910390fd5b505050900390565b600081836106b85760405162461bcd60e51b815260206004820181815283516024840152835190928392604490910191908501908083836000831561062657818101518382015260200161060e565b5060008385816106c457fe5b049594505050505056fe536166654d6174683a206d756c7469706c69636174696f6e206f766572666c6f776f6e6c7920746865206f776e6572206d61792063616c6c20746869732066756e6374696f6e2ea2646970667358221220f57cb4bfc1ec1bc4429a807302f8b014d8105773a87e087103a29a073707098f64736f6c63430006060033536166654d6174683a206d756c7469706c69636174696f6e206f766572666c6f774f776e61626c653a206e6577206f776e657220697320746865207a65726f206164647265737343616e742063726561746520612067726f7570206f6e636520616c726561647920696e206f6e65796f752063616e7420756772616465207965742c206c657373207468616e2074776f2064617973536166654d6174683a206d756c7469706c69636174696f6e206f766572666c6f774f776e61626c653a2063616c6c6572206973206e6f7420746865206f776e6572a2646970667358221220f02fa210e1932b59a1da20ca1fb6f8842682392941559a7670b4b6500bdc67fa64736f6c63430006060033",
  "immutableReferences": {},
  "source": "pragma solidity ^0.6.0;\n\nimport \"@openzeppelin/contracts/access/Ownable.sol\";\nimport \"@openzeppelin/contracts/math/SafeMath.sol\";\nimport \"./interfaces/WarpVaultSCI.sol\";\nimport \"./interfaces/WarpVaultLPI.sol\";\nimport \"./interfaces/WarpVaultLPFactoryI.sol\";\nimport \"./interfaces/WarpVaultSCFactoryI.sol\";\nimport \"./interfaces/UniswapLPOracleFactoryI.sol\";\nimport \"./compound/JumpRateModelV2.sol\";\nimport \"./compound/Exponential.sol\";\n\n////////////////////////////////////////////////////////////////////////////////////////////\n/// @title WarpControl\n/// @author Christopher Dixon\n////////////////////////////////////////////////////////////////////////////////////////////\n/**\nWarpControl is designed to coordinate Warp Vaults\nThis contract uses the OpenZeppelin contract Library to inherit functions from\n  Ownable.sol\n**/\n\ncontract WarpControl is Ownable, Exponential {\n    using SafeMath for uint256;\n\n    UniswapLPOracleFactoryI public Oracle; //oracle factory contract interface\n    WarpVaultLPFactoryI public WVLPF;\n    WarpVaultSCFactoryI public WVSCF;\n    address public warpTeam;\n    address public newWarpControl;\n    uint public graceSpace;\n\n    address[] public lpVaults;\n    address[] public scVaults;\n    address[] public launchParticipants;\n    address[] public groups;\n\n    mapping(address => address) public instanceLPTracker; //maps LP token address to the assets WarpVault\n    mapping(address => address) public instanceSCTracker;\n    mapping(address => address) public getVaultByAsset;\n    mapping(address => uint) public lockedLPValue;\n    mapping(address => bool) public isVault;\n    mapping(address => address[]) public refferalCodeTracker;\n    mapping(address => string) public refferalCodeToGroupName;\n    mapping(address => bool) public isParticipant;\n    mapping(address => bool) public existingRefferalCode;\n    mapping(address => bool) public isInGroup;\n    mapping(address => address) public groupsYourIn;\n\n    event NewLPVault(address _newVault);\n    event NewSCVault(address _newVault, address _interestRateModel);\n    event NewBorrow(address _borrower, address _StableCoin, uint _amountBorrowed);\n    event NotCompliant(address _account, uint _time);\n    event Liquidation(address _account, address liquidator);\n    event complianceReset(address _account, uint _time);\n    /**\n      @dev Throws if called by any account other than a warp vault\n     */\n    modifier onlyVault() {\n        require(isVault[msg.sender] == true);\n        _;\n    }\n\n    /**\n    @dev Throws if a function is called by anyone but the warp team\n    **/\n    modifier onlyWarpT() {\n        require(msg.sender == warpTeam);\n        _;\n    }\n\n    /**\n    @notice the constructor function is fired during the contract deployment process. The constructor can only be fired once and\n            is used to set up Oracle variables for the MoneyMarketFactory contract.\n    @param _oracle is the address for the UniswapOracleFactorycontract\n    @param _WVLPF is the address for the WarpVaultLPFactory used to produce LP Warp Vaults\n    @param _WVSCF is the address for the WarpVaultSCFactory used to produce Stable Coin Warp Vaults\n    @dev These factories are split into seperate contracts to avoid hitting the block gas limit\n    **/\n    constructor(\n        address _oracle,\n        address _WVLPF,\n        address _WVSCF,\n        address _warpTeam\n    ) public {\n        //instantiate the contracts\n        Oracle = UniswapLPOracleFactoryI(_oracle);\n        WVLPF = WarpVaultLPFactoryI(_WVLPF);\n        WVSCF = WarpVaultSCFactoryI(_WVSCF);\n        warpTeam = _warpTeam;\n    }\n///view functions for front end /////\n\n  /**\n  @notice viewNumLPVaults returns the number of lp vaults on the warp platform\n  **/\n    function viewNumLPVaults() external view returns(uint256) {\n        return lpVaults.length;\n    }\n\n  /**\n  @notice viewNumSCVaults returns the number of stablecoin vaults on the warp platform\n  **/\n    function viewNumSCVaults() external view returns(uint256) {\n        return scVaults.length;\n    }\n\n  /**\n  @notice viewLaunchParticipants returns an array of all launch participant addresses\n  **/\n    function viewLaunchParticipants() public view returns(address[] memory) {\n      return launchParticipants;\n    }\n\n  /**\n  @notice viewAllGroups returns an array of all group addresses\n  **/\n    function viewAllGroups() public view returns(address[] memory) {\n      return groups;\n    }\n\n  /**\n  @notice viewAllMembersOfAGroup returns an array of addresses containing the addresses of every member in a group\n  @param _refferalCode is the address that acts as a referral code for a group\n  **/\n    function viewAllMembersOfAGroup(address _refferalCode) public view returns(address[] memory) {\n      return refferalCodeTracker[_refferalCode];\n    }\n\n  /**\n  @notice getGroupName returns the name of a group\n  @param _refferalCode is the address that acts as a referral code for a group\n  **/\n    function getGroupName(address _refferalCode) public view returns(string memory) {\n      return refferalCodeToGroupName[_refferalCode];\n    }\n\n  /**\n  @notice getAccountsGroup returns the refferal code address of the team an account is on\n  @param _account is the address whos team is being retrieved\n  **/\n    function getAccountsGroup(address _account) public view returns(address) {\n      return groupsYourIn[_account];\n    }\n\n\n    /**\n    @notice createNewLPVault allows the contract owner to create a new WarpVaultLP contract for a specific LP token\n    @param _timelock is a variable representing the number of seconds the timeWizard will prevent withdraws and borrows from a contracts(one week is 605800 seconds)\n    @param _lp is the address for the LP token this Warp Vault will manage\n    @param _lpAsset1 is the address for the first asset in a pair that the LP token represents(ex: wETH in a wETH-wBTC uniswap pair)\n    @param _lpAsset2 is the address for the second asset in a pair that the LP token represents(ex: wBTC in a wETH-wBTC uniswap pair)\n    @param _lpName is the name of the LP token (ex:wETH-wBTC)\n    **/\n    function createNewLPVault(\n        uint256 _timelock,\n        address _lp,\n        address _lpAsset1,\n        address _lpAsset2,\n        string memory _lpName\n    ) public onlyOwner {\n        //create new oracles for this LP\n        Oracle.createNewOracles(_lpAsset1, _lpAsset2, _lp);\n        //create new Warp LP Vault\n        address _WarpVault = WVLPF.createWarpVaultLP(_timelock, _lp, _lpName);\n        //track the warp vault lp instance by the address of the LP it represents\n        instanceLPTracker[_lp] = _WarpVault;\n        //add new LP Vault to the array of all LP vaults\n        lpVaults.push(_WarpVault);\n        //set Warp vault address as an approved vault\n        isVault[_WarpVault] = true;\n        //track vault to asset\n        getVaultByAsset[_WarpVault] = _lp;\n        emit NewLPVault(_WarpVault);\n    }\n\n    /**\n    @notice createNewSCVault allows the contract owner to create a new WarpVaultLP contract for a specific LP token\n    @param _timelock is a variable representing the number of seconds the timeWizard will prevent withdraws and borrows from a contracts(one week is 605800 seconds)\n    @param _baseRatePerYear is the base rate per year(approx target base APR)\n    @param _multiplierPerYear is the multiplier per year(rate of increase in interest w/ utilizastion)\n    @param _jumpMultiplierPerYear is the Jump Multiplier Per Year(the multiplier per block after hitting a specific utilizastion point)\n    @param _optimal is the this is the utilizastion point or \"kink\" at which the jump multiplier is applied\n    @param _initialExchangeRate is the intitial exchange rate(the rate at which the initial exchange of asset/ART is set)\n    @param _StableCoin is the address of the StableCoin this Warp Vault will manage\n    **/\n    function createNewSCVault(\n        uint256 _timelock,\n        uint256 _baseRatePerYear,\n        uint256 _multiplierPerYear,\n        uint256 _jumpMultiplierPerYear,\n        uint256 _optimal,\n        uint256 _initialExchangeRate,\n        uint256 _reserveFactorMantissa,\n        address _StableCoin\n    ) public onlyOwner {\n        //create the interest rate model for this stablecoin\n        address IR = address(\n            new JumpRateModelV2(\n                _baseRatePerYear,\n                _multiplierPerYear,\n                _jumpMultiplierPerYear,\n                _optimal,\n                address(this)\n            )\n        );\n        //create the SC Warp vault\n        address _WarpVault = WVSCF.createNewWarpVaultSC(\n            IR,\n            _StableCoin,\n            warpTeam,\n            _initialExchangeRate,\n            _timelock,\n            _reserveFactorMantissa\n        );\n        //track the warp vault sc instance by the address of the stablecoin it represents\n        instanceSCTracker[_StableCoin] = _WarpVault;\n        //add new SC Vault to the array of all SC vaults\n        scVaults.push(_WarpVault);\n        //set Warp vault address as an approved vault\n        isVault[_WarpVault] = true;\n        //track vault to asset\n        getVaultByAsset[_WarpVault] = _StableCoin;\n        emit NewSCVault(_WarpVault, IR);\n    }\n\n    /**\n    @notice @createGroup is used to create a new group\n    @param _groupName is the name of the group being created\n    @dev the refferal code for this group is the address of the msg.sender\n    **/\n    function createGroup(string memory _groupName) public {\n        require(isInGroup[msg.sender] == false, \"Cant create a group once already in one\");\n\n        // Create group\n        existingRefferalCode[msg.sender] = true;\n        refferalCodeToGroupName[msg.sender] = _groupName;\n        groups.push(msg.sender);\n\n        // Join Group\n        refferalCodeTracker[msg.sender].push(msg.sender);\n        isInGroup[msg.sender] = true;\n        groupsYourIn[msg.sender] = msg.sender;\n\n        launchParticipants.push(msg.sender);\n    }\n\n    /**\n    @notice addMemberToGroup is used to add an account to a group\n    @param _refferalCode is the address used as a groups refferal code\n    @dev the member being added is the msg.sender\n    **/\n    function addMemberToGroup(address _refferalCode) public {\n        //Require a member is either not in a group OR has entered their groups refferal code\n        require(isInGroup[msg.sender] == false, \"Cant join more than one group\");\n        require(existingRefferalCode[_refferalCode] == true, \"Group doesn't exist.\");\n\n        // Join Group\n        refferalCodeTracker[_refferalCode].push(msg.sender);\n        isInGroup[msg.sender] = true;\n        groupsYourIn[msg.sender] = _refferalCode;\n\n        launchParticipants.push(msg.sender);\n    }\n\n\n\n\n    /**\n    @notice Figures out how much of a given LP token an account is allowed to withdraw\n    @param account is the account being checked\n    @param lpToken is the address of the lpToken the user wishes to withdraw\n    @dev this function runs calculations to accrue interest for an up to date amount\n     */\n    function getMaxWithdrawAllowed(address account, address lpToken) public returns (uint256) {\n        uint256 borrowedTotal = getTotalBorrowedValue(account);\n        uint256 collateralValue = getTotalAvailableCollateralValue(account);\n        uint256 requiredCollateral = calcCollateralRequired(borrowedTotal);\n        uint256 leftoverCollateral = collateralValue.sub(requiredCollateral);\n        uint256 lpValue = Oracle.getUnderlyingPrice(lpToken);\n        return leftoverCollateral.mul(1e18).div(lpValue);\n    }\n\n    /**\n    @notice Figures out how much of a given LP token an account is allowed to withdraw\n    @param account is the account being checked\n    @param lpToken is the address of the lpToken the user wishes to withdraw\n    @dev this function does not run calculations to accrue interest and returns the previously calculated amount\n     */\n    function viewMaxWithdrawAllowed(address account, address lpToken) public view returns (uint256) {\n        uint256 borrowedTotal = viewTotalBorrowedValue(account);\n        uint256 collateralValue = viewTotalAvailableCollateralValue(account);\n        uint256 requiredCollateral = calcCollateralRequired(borrowedTotal);\n        uint256 leftoverCollateral = collateralValue.sub(requiredCollateral);\n        uint256 lpValue = Oracle.viewUnderlyingPrice(lpToken);\n        return leftoverCollateral.mul(1e18).div(lpValue);\n    }\n\n    /**\n    @notice getTotalAvailableCollateralValue returns the total availible collaeral value for an account in USDC\n    @param _account is the address whos collateral is being retreived\n    @dev this function runs calculations to accrue interest for an up to date amount\n    **/\n    function getTotalAvailableCollateralValue(address _account)\n        public\n        returns (uint256)\n    {\n        //get the number of LP vaults the platform has\n        uint256 numVaults = lpVaults.length;\n        //initialize the totalCollateral variable to zero\n        uint256 totalCollateral = 0;\n        //loop through each lp wapr vault\n        for (uint256 i = 0; i < numVaults; ++i) {\n            //instantiate warp vault at that position\n            WarpVaultLPI vault = WarpVaultLPI(lpVaults[i]);\n            //retreive the address of its asset\n            address asset = vault.getAssetAdd();\n            //retrieve USD price of this asset\n            uint256 assetPrice = Oracle.getUnderlyingPrice(asset);\n\n            uint256 accountCollateral = vault.collateralOfAccount(_account);\n            //emit DebugValues(accountCollateral, assetPrice);\n\n            //multiply the amount of collateral by the asset price and return it\n            uint256 accountAssetsValue = accountCollateral.mul(assetPrice);\n            //add value to total collateral\n            totalCollateral = totalCollateral.add(accountAssetsValue);\n        }\n        //return total USDC value of all collateral\n        return totalCollateral.div(1e18);\n    }\n\n    /**\n    @notice getTotalAvailableCollateralValue returns the total availible collaeral value for an account in USDC\n    @param _account is the address whos collateral is being retreived\n    @dev this function does not run calculations to accrue interest and returns the previously calculated amount\n    **/\n    function viewTotalAvailableCollateralValue(address _account)\n        public\n        view\n        returns (uint256)\n    {\n        uint256 numVaults = lpVaults.length;\n        uint256 totalCollateral = 0;\n        //loop through each lp wapr vault\n        for (uint256 i = 0; i < numVaults; ++i) {\n            //instantiate warp vault at that position\n            WarpVaultLPI vault = WarpVaultLPI(lpVaults[i]);\n            //retreive the address of its asset\n            address asset = vault.getAssetAdd();\n            //retrieve USD price of this asset\n            uint256 assetPrice = Oracle.viewUnderlyingPrice(asset);\n\n            uint256 accountCollateral = vault.collateralOfAccount(_account);\n\n            //multiply the amount of collateral by the asset price and return it\n            uint256 accountAssetsValue = accountCollateral.mul(assetPrice);\n            //add value to total collateral\n            totalCollateral = totalCollateral.add(accountAssetsValue);\n        }\n        //return total USDC value of all collateral\n        return totalCollateral.div(1e18);\n    }\n\n    /**\n    @notice viewPriceOfCollateral returns the price of an lpToken\n    @param lpToken is the address of the lp token\n    @dev this function runs calculations to retrieve the current price\n    **/\n    function viewPriceOfCollateral(address lpToken) public view returns(uint256)\n    {\n        return Oracle.viewUnderlyingPrice(lpToken);\n    }\n\n    /**\n    @notice getPriceOfCollateral returns the price of an lpToken\n    @param lpToken is the address of the lp token\n    @dev this function does not run calculations amd returns the previously calculated price\n    **/\n    function getPriceOfCollateral(address lpToken) public returns(uint256)\n    {\n        return Oracle.getUnderlyingPrice(lpToken);\n    }\n\n    /**\n    @notice viewPriceOfToken retrieves the price of a stablecoin\n    @param token is the address of the stablecoin\n    @param amount is the amount of stablecoin\n    @dev this function runs calculations to retrieve the current price\n    **/\n    function viewPriceOfToken(address token, uint256 amount) public view returns(uint256)\n    {\n        return Oracle.viewPriceOfToken(token, amount);\n    }\n\n    /**\n    @notice viewPriceOfToken retrieves the price of a stablecoin\n    @param token is the address of the stablecoin\n    @param amount is the amount of stablecoin\n    @dev this function does not run calculations amd returns the previously calculated price\n    **/\n    function getPriceOfToken(address token, uint256 amount) public returns(uint256)\n    {\n        return Oracle.getPriceOfToken(token, amount);\n    }\n\n    /**\n    @notice viewTotalBorrowedValue returns the total borrowed value for an account in USDC\n    @param _account is the account whos borrowed value we are calculating\n    @dev this function returns previously calculated values\n    **/\n    function viewTotalBorrowedValue(address _account) public view returns (uint256) {\n        uint256 numSCVaults = scVaults.length;\n        //initialize the totalBorrowedValue variable to zero\n        uint256 totalBorrowedValue = 0;\n        //loop through all stable coin vaults\n        for (uint256 i = 0; i < numSCVaults; ++i) {\n            //instantiate each LP warp vault\n            WarpVaultSCI WVSC = WarpVaultSCI(scVaults[i]);\n            //retreive the amount user has borrowed from each stablecoin vault\n            uint256 borrowBalanceInStable = WVSC.borrowBalancePrior(_account);\n            if (borrowBalanceInStable == 0) {\n                continue;\n            }\n            uint256 usdcBorrowedAmount = viewPriceOfToken(WVSC.getSCAddress(), borrowBalanceInStable);\n            totalBorrowedValue = totalBorrowedValue.add(\n                usdcBorrowedAmount\n            );\n        }\n        //return total Borrowed Value\n        return totalBorrowedValue;\n    }\n\n    /**\n    @notice viewTotalBorrowedValue returns the total borrowed value for an account in USDC\n    @param _account is the account whos borrowed value we are calculating\n    @dev this function returns newly calculated values\n    **/\n    function getTotalBorrowedValue(address _account) public returns (uint256) {\n        uint256 numSCVaults = scVaults.length;\n        //initialize the totalBorrowedValue variable to zero\n        uint256 totalBorrowedValue = 0;\n        //loop through all stable coin vaults\n        for (uint256 i = 0; i < numSCVaults; ++i) {\n            //instantiate each LP warp vault\n            WarpVaultSCI WVSC = WarpVaultSCI(scVaults[i]);\n            //retreive the amount user has borrowed from each stablecoin vault\n            uint borrowBalanceInStable = WVSC.borrowBalanceCurrent(_account);\n            if (borrowBalanceInStable == 0) {\n                continue;\n            }\n            uint256 usdcBorrowedAmount = getPriceOfToken(WVSC.getSCAddress(), borrowBalanceInStable);\n            totalBorrowedValue = totalBorrowedValue.add(\n                usdcBorrowedAmount\n            );\n        }\n        //return total Borrowed Value\n        return totalBorrowedValue;\n    }\n\n    /**\n    @notice calcBorrowLimit is used to calculate the borrow limit for an account based on the input value of their collateral\n    @param _collateralValue is the USDC value of the users collateral\n    @dev this function divides the input value by 3 and then adds that value to itself so it can return 2/3rds of the availible collateral\n        as the borrow limit. If a usser has $150 USDC value in collateral this function will return $100 USDC as their borrow limit.\n    **/\n    function calcBorrowLimit(uint256 _collateralValue)\n        public\n        pure\n        returns (uint256)\n    {\n        //divide the collaterals value by 3 to get 1/3rd of its value\n        uint256 thirdCollatVal = _collateralValue.div(3);\n        //add this 1/3rd value to itself to get 2/3rds of the original value\n        return thirdCollatVal.add(thirdCollatVal);\n    }\n\n    /**\n    @notice calcCollateralRequired returns the amount of collateral needed for an input borrow value\n    @param _borrowAmount is the input borrow amount\n    **/\n    function calcCollateralRequired(uint256 _borrowAmount) public pure returns (uint256) {\n        return _borrowAmount.mul(3).div(2);\n    }\n\n    /**\n    @notice getBorrowLimit returns the borrow limit for an account\n    @param _account is the input account address\n    @dev this calculation uses current values for calculations\n    **/\n    function getBorrowLimit(address _account) public returns (uint256) {\n        uint256 availibleCollateralValue = getTotalAvailableCollateralValue(\n            _account\n        );\n\n        return calcBorrowLimit(availibleCollateralValue);\n    }\n\n    /**\n    @notice getBorrowLimit returns the borrow limit for an account\n    @param _account is the input account address\n    @dev this calculation uses previous values for calculations\n    **/\n    function viewBorrowLimit(address _account) public view returns (uint256) {\n        uint256 availibleCollateralValue = viewTotalAvailableCollateralValue(\n            _account\n        );\n        //return the users borrow limit\n        return calcBorrowLimit(availibleCollateralValue);\n    }\n\n    /**\n    @notice borrowSC is the function an end user will call when they wish to borrow a stablecoin from the warp platform\n    @param _StableCoin is the address of the stablecoin the user wishes to borrow\n    @param _amount is the amount of that stablecoin the user wants to borrow\n    **/\n    function borrowSC(address _StableCoin, uint256 _amount) public {\n        uint256 borrowedTotalInUSDC = getTotalBorrowedValue(msg.sender);\n        uint256 borrowLimitInUSDC = getBorrowLimit(msg.sender);\n        uint256 borrowAmountAllowedInUSDC = borrowLimitInUSDC.sub(borrowedTotalInUSDC);\n\n        uint256 borrowAmountInUSDC = getPriceOfToken(_StableCoin, _amount);\n\n        //require the amount being borrowed is less than or equal to the amount they are aloud to borrow\n        require(borrowAmountAllowedInUSDC >= borrowAmountInUSDC, \"Borrowing more than allowed\");\n        //track USDC value of locked LP\n        lockedLPValue[msg.sender] = lockedLPValue[msg.sender].add(_amount);\n        //retreive stablecoin vault address being borrowed from and instantiate it\n        WarpVaultSCI WV = WarpVaultSCI(instanceSCTracker[_StableCoin]);\n        //call _borrow function on the stablecoin warp vault\n        WV._borrow(_amount, msg.sender);\n        emit NewBorrow(msg.sender, _StableCoin, _amount);\n    }\n\n\n\n    /**\n    @notice liquidateAccount is used to liquidate a non-compliant loan after it has reached its 30 minute grace period\n    @param _borrower is the address of the borrower whos loan is non-compliant\n    **/\n    function liquidateAccount(address _borrower) public {\n         //require the liquidator is not also the borrower\n        require(msg.sender != _borrower, \"you cant liquidate yourself\");\n        //retreive the number of stablecoin vaults in the warp platform\n        uint256 numSCVaults = scVaults.length;\n        //retreive the number of LP vaults in the warp platform\n        uint256 numLPVaults = lpVaults.length;\n        // This is how much USDC worth of Stablecoin the user has borrowed\n        uint256 borrowedAmount = 0;\n        //initialize the stable coin balances array\n        uint256[] memory scBalances = new uint256[](numSCVaults);\n        // loop through and retreive the Borrowed Amount From All Vaults\n        for (uint256 i = 0; i < numSCVaults; ++i) {\n            //instantiate the vault at the current  position in the array\n            WarpVaultSCI scVault = WarpVaultSCI(scVaults[i]);\n            //retreive the borrowers borrow balance from this vault and add it to the scBalances array\n            scBalances[i] = scVault.borrowBalanceCurrent(_borrower);\n            uint256 borrowedAmountInUSDC = viewPriceOfToken(getVaultByAsset[address(scVault)], scBalances[i]);\n\n            //add the borrowed amount to the total borrowed balance\n            borrowedAmount = borrowedAmount.add(borrowedAmountInUSDC);\n        }\n        //retreve the USDC borrow limit for the borrower\n        uint256 borrowLimit = getBorrowLimit(_borrower);\n        //check if the borrow is less than the borrowed amount\n        if (borrowLimit <= borrowedAmount) {\n            // If it is Liquidate the account\n            //loop through each SC vault so the  Liquidator can pay off Stable Coin loans\n            for (uint256 i = 0; i < numSCVaults; ++i) {\n                //instantiate the Warp SC Vault at the current position\n                WarpVaultSCI scVault = WarpVaultSCI(scVaults[i]);\n                //call repayLiquidatedLoan function to repay the loan\n                scVault._repayLiquidatedLoan(\n                    _borrower,\n                    msg.sender,\n                    scBalances[i]\n                );\n            }\n            //loop through each LP vault so the Liquidator gets the LP tokens the borrower had\n            for (uint256 i = 0; i < numLPVaults; ++i) {\n                //instantiate the Warp LP Vault at the current position\n                WarpVaultLPI lpVault = WarpVaultLPI(lpVaults[i]);\n                //call liquidateAccount function on that LP vault\n                lpVault._liquidateAccount(_borrower, msg.sender);\n            }\n            emit Liquidation(_borrower, msg.sender);\n        }\n    }\n\n    /**\n    @notice updateInterestRateModel allows the warp team to update the interest rate model for a stablecoin\n    @param _token is the address of the stablecoin whos vault is having its interest rate updated\n    @param _baseRatePerYear is the base rate per year(approx target base APR)\n    @param _multiplierPerYear is the multiplier per year(rate of increase in interest w/ utilizastion)\n    @param _jumpMultiplierPerYear is the Jump Multiplier Per Year(the multiplier per block after hitting a specific utilizastion point)\n    @param _optimal is the this is the utilizastion point or \"kink\" at which the jump multiplier is applied\n    **/\n    function updateInterestRateModel(\n        address _token,\n        uint256 _baseRatePerYear,\n        uint256 _multiplierPerYear,\n        uint256 _jumpMultiplierPerYear,\n        uint256 _optimal\n      ) public onlyWarpT {\n      address IR = address(\n          new JumpRateModelV2(\n              _baseRatePerYear,\n              _multiplierPerYear,\n              _jumpMultiplierPerYear,\n              _optimal,\n              address(this)\n          )\n      );\n      address vault = instanceSCTracker[_token];\n      WarpVaultSCI WV = WarpVaultSCI(vault);\n      WV.setNewInterestModel(IR);\n    }\n\n    /**\n    @notice startUpgradeTimer starts a two day timer signaling that this contract will soon be updated to a new version\n    @param _newWarpControl is the address of the new Warp control contract being upgraded to\n    **/\n    function startUpgradeTimer(address _newWarpControl) public onlyWarpT{\n      newWarpControl = _newWarpControl;\n      graceSpace = now.add(172800);\n    }\n\n    /**\n    @notice upgradeWarp is used to upgrade the Warp platform to use a new version of the WarpControl contract\n    **/\n    function upgradeWarp() public onlyOwner {\n      require(now >= graceSpace, \"you cant ugrade yet, less than two days\");\n        uint256 numVaults = lpVaults.length;\n        uint256 numSCVaults = scVaults.length;\n      for (uint256 i = 0; i < numVaults; ++i) {\n          WarpVaultLPI vault = WarpVaultLPI(lpVaults[i]);\n          vault.upgrade(newWarpControl);\n    }\n\n      for (uint256 i = 0; i < numSCVaults; ++i) {\n          //instantiate each LP warp vault\n          WarpVaultSCI WVSC = WarpVaultSCI(scVaults[i]);\n            WVSC.upgrade(newWarpControl);\n        }\n          WVLPF.transferOwnership(newWarpControl);\n          WVSCF.transferOwnership(newWarpControl);\n          Oracle.transferOwnership(newWarpControl);\n  }\n\n/**\n@notice transferWarpTeam allows the wapr team address to be changed by the owner account\n@param _newWarp is the address of the new warp team\n**/\n    function transferWarpTeam(address _newWarp) public onlyOwner {\n      warpTeam = _newWarp;\n    }\n}\n",
  "sourcePath": "/home/stan36/repos/Warp/Smart-Contracts/contracts/WarpControl.sol",
  "compiler": {
    "name": "solc",
    "version": "0.6.6+commit.6c089d02.Emscripten.clang"
  },
  "schemaVersion": "3.3.2",
  "updatedAt": "2020-12-09T01:33:09.729Z",
  "devdoc": {
    "methods": {
      "addMemberToGroup(address)": {
        "details": "the member being added is the msg.sender*",
        "params": {
          "_refferalCode": "is the address used as a groups refferal code"
        }
      },
      "borrowSC(address,uint256)": {
        "params": {
          "_StableCoin": "is the address of the stablecoin the user wishes to borrow",
          "_amount": "is the amount of that stablecoin the user wants to borrow*"
        }
      },
      "calcBorrowLimit(uint256)": {
        "details": "this function divides the input value by 3 and then adds that value to itself so it can return 2/3rds of the availible collateral as the borrow limit. If a usser has $150 USDC value in collateral this function will return $100 USDC as their borrow limit.*",
        "params": {
          "_collateralValue": "is the USDC value of the users collateral"
        }
      },
      "calcCollateralRequired(uint256)": {
        "params": {
          "_borrowAmount": "is the input borrow amount*"
        }
      },
      "constructor": {
        "details": "These factories are split into seperate contracts to avoid hitting the block gas limit*",
        "params": {
          "_WVLPF": "is the address for the WarpVaultLPFactory used to produce LP Warp Vaults",
          "_WVSCF": "is the address for the WarpVaultSCFactory used to produce Stable Coin Warp Vaults",
          "_oracle": "is the address for the UniswapOracleFactorycontract"
        }
      },
      "createGroup(string)": {
        "details": "the refferal code for this group is the address of the msg.sender*",
        "params": {
          "_groupName": "is the name of the group being created"
        }
      },
      "createNewLPVault(uint256,address,address,address,string)": {
        "params": {
          "_lp": "is the address for the LP token this Warp Vault will manage",
          "_lpAsset1": "is the address for the first asset in a pair that the LP token represents(ex: wETH in a wETH-wBTC uniswap pair)",
          "_lpAsset2": "is the address for the second asset in a pair that the LP token represents(ex: wBTC in a wETH-wBTC uniswap pair)",
          "_lpName": "is the name of the LP token (ex:wETH-wBTC)*",
          "_timelock": "is a variable representing the number of seconds the timeWizard will prevent withdraws and borrows from a contracts(one week is 605800 seconds)"
        }
      },
      "createNewSCVault(uint256,uint256,uint256,uint256,uint256,uint256,uint256,address)": {
        "params": {
          "_StableCoin": "is the address of the StableCoin this Warp Vault will manage*",
          "_baseRatePerYear": "is the base rate per year(approx target base APR)",
          "_initialExchangeRate": "is the intitial exchange rate(the rate at which the initial exchange of asset/ART is set)",
          "_jumpMultiplierPerYear": "is the Jump Multiplier Per Year(the multiplier per block after hitting a specific utilizastion point)",
          "_multiplierPerYear": "is the multiplier per year(rate of increase in interest w/ utilizastion)",
          "_optimal": "is the this is the utilizastion point or \"kink\" at which the jump multiplier is applied",
          "_timelock": "is a variable representing the number of seconds the timeWizard will prevent withdraws and borrows from a contracts(one week is 605800 seconds)"
        }
      },
      "getAccountsGroup(address)": {
        "params": {
          "_account": "is the address whos team is being retrieved*"
        }
      },
      "getBorrowLimit(address)": {
        "details": "this calculation uses current values for calculations*",
        "params": {
          "_account": "is the input account address"
        }
      },
      "getGroupName(address)": {
        "params": {
          "_refferalCode": "is the address that acts as a referral code for a group*"
        }
      },
      "getMaxWithdrawAllowed(address,address)": {
        "details": "this function runs calculations to accrue interest for an up to date amount",
        "params": {
          "account": "is the account being checked",
          "lpToken": "is the address of the lpToken the user wishes to withdraw"
        }
      },
      "getPriceOfCollateral(address)": {
        "details": "this function does not run calculations amd returns the previously calculated price*",
        "params": {
          "lpToken": "is the address of the lp token"
        }
      },
      "getPriceOfToken(address,uint256)": {
        "details": "this function does not run calculations amd returns the previously calculated price*",
        "params": {
          "amount": "is the amount of stablecoin",
          "token": "is the address of the stablecoin"
        }
      },
      "getTotalAvailableCollateralValue(address)": {
        "details": "this function runs calculations to accrue interest for an up to date amount*",
        "params": {
          "_account": "is the address whos collateral is being retreived"
        }
      },
      "getTotalBorrowedValue(address)": {
        "details": "this function returns newly calculated values*",
        "params": {
          "_account": "is the account whos borrowed value we are calculating"
        }
      },
      "liquidateAccount(address)": {
        "params": {
          "_borrower": "is the address of the borrower whos loan is non-compliant*"
        }
      },
      "owner()": {
        "details": "Returns the address of the current owner."
      },
      "renounceOwnership()": {
        "details": "Leaves the contract without owner. It will not be possible to call `onlyOwner` functions anymore. Can only be called by the current owner.     * NOTE: Renouncing ownership will leave the contract without an owner, thereby removing any functionality that is only available to the owner."
      },
      "startUpgradeTimer(address)": {
        "params": {
          "_newWarpControl": "is the address of the new Warp control contract being upgraded to*"
        }
      },
      "transferOwnership(address)": {
        "details": "Transfers ownership of the contract to a new account (`newOwner`). Can only be called by the current owner."
      },
      "transferWarpTeam(address)": {
        "params": {
          "_newWarp": "is the address of the new warp team*"
        }
      },
      "updateInterestRateModel(address,uint256,uint256,uint256,uint256)": {
        "params": {
          "_baseRatePerYear": "is the base rate per year(approx target base APR)",
          "_jumpMultiplierPerYear": "is the Jump Multiplier Per Year(the multiplier per block after hitting a specific utilizastion point)",
          "_multiplierPerYear": "is the multiplier per year(rate of increase in interest w/ utilizastion)",
          "_optimal": "is the this is the utilizastion point or \"kink\" at which the jump multiplier is applied*",
          "_token": "is the address of the stablecoin whos vault is having its interest rate updated"
        }
      },
      "viewAllMembersOfAGroup(address)": {
        "params": {
          "_refferalCode": "is the address that acts as a referral code for a group*"
        }
      },
      "viewBorrowLimit(address)": {
        "details": "this calculation uses previous values for calculations*",
        "params": {
          "_account": "is the input account address"
        }
      },
      "viewMaxWithdrawAllowed(address,address)": {
        "details": "this function does not run calculations to accrue interest and returns the previously calculated amount",
        "params": {
          "account": "is the account being checked",
          "lpToken": "is the address of the lpToken the user wishes to withdraw"
        }
      },
      "viewPriceOfCollateral(address)": {
        "details": "this function runs calculations to retrieve the current price*",
        "params": {
          "lpToken": "is the address of the lp token"
        }
      },
      "viewPriceOfToken(address,uint256)": {
        "details": "this function runs calculations to retrieve the current price*",
        "params": {
          "amount": "is the amount of stablecoin",
          "token": "is the address of the stablecoin"
        }
      },
      "viewTotalAvailableCollateralValue(address)": {
        "details": "this function does not run calculations to accrue interest and returns the previously calculated amount*",
        "params": {
          "_account": "is the address whos collateral is being retreived"
        }
      },
      "viewTotalBorrowedValue(address)": {
        "details": "this function returns previously calculated values*",
        "params": {
          "_account": "is the account whos borrowed value we are calculating"
        }
      }
    }
  },
  "userdoc": {
    "methods": {
      "addMemberToGroup(address)": {
        "notice": "addMemberToGroup is used to add an account to a group"
      },
      "borrowSC(address,uint256)": {
        "notice": "borrowSC is the function an end user will call when they wish to borrow a stablecoin from the warp platform"
      },
      "calcBorrowLimit(uint256)": {
        "notice": "calcBorrowLimit is used to calculate the borrow limit for an account based on the input value of their collateral"
      },
      "calcCollateralRequired(uint256)": {
        "notice": "calcCollateralRequired returns the amount of collateral needed for an input borrow value"
      },
      "constructor": "the constructor function is fired during the contract deployment process. The constructor can only be fired once and is used to set up Oracle variables for the MoneyMarketFactory contract.",
      "createGroup(string)": {
        "notice": "@createGroup is used to create a new group"
      },
      "createNewLPVault(uint256,address,address,address,string)": {
        "notice": "createNewLPVault allows the contract owner to create a new WarpVaultLP contract for a specific LP token"
      },
      "createNewSCVault(uint256,uint256,uint256,uint256,uint256,uint256,uint256,address)": {
        "notice": "createNewSCVault allows the contract owner to create a new WarpVaultLP contract for a specific LP token"
      },
      "getAccountsGroup(address)": {
        "notice": "getAccountsGroup returns the refferal code address of the team an account is on"
      },
      "getBorrowLimit(address)": {
        "notice": "getBorrowLimit returns the borrow limit for an account"
      },
      "getGroupName(address)": {
        "notice": "getGroupName returns the name of a group"
      },
      "getMaxWithdrawAllowed(address,address)": {
        "notice": "Figures out how much of a given LP token an account is allowed to withdraw"
      },
      "getPriceOfCollateral(address)": {
        "notice": "getPriceOfCollateral returns the price of an lpToken"
      },
      "getPriceOfToken(address,uint256)": {
        "notice": "viewPriceOfToken retrieves the price of a stablecoin"
      },
      "getTotalAvailableCollateralValue(address)": {
        "notice": "getTotalAvailableCollateralValue returns the total availible collaeral value for an account in USDC"
      },
      "getTotalBorrowedValue(address)": {
        "notice": "viewTotalBorrowedValue returns the total borrowed value for an account in USDC"
      },
      "liquidateAccount(address)": {
        "notice": "liquidateAccount is used to liquidate a non-compliant loan after it has reached its 30 minute grace period"
      },
      "startUpgradeTimer(address)": {
        "notice": "startUpgradeTimer starts a two day timer signaling that this contract will soon be updated to a new version"
      },
      "transferWarpTeam(address)": {
        "notice": "transferWarpTeam allows the wapr team address to be changed by the owner account"
      },
      "updateInterestRateModel(address,uint256,uint256,uint256,uint256)": {
        "notice": "updateInterestRateModel allows the warp team to update the interest rate model for a stablecoin"
      },
      "upgradeWarp()": {
        "notice": "upgradeWarp is used to upgrade the Warp platform to use a new version of the WarpControl contract*"
      },
      "viewAllGroups()": {
        "notice": "viewAllGroups returns an array of all group addresses*"
      },
      "viewAllMembersOfAGroup(address)": {
        "notice": "viewAllMembersOfAGroup returns an array of addresses containing the addresses of every member in a group"
      },
      "viewBorrowLimit(address)": {
        "notice": "getBorrowLimit returns the borrow limit for an account"
      },
      "viewLaunchParticipants()": {
        "notice": "viewLaunchParticipants returns an array of all launch participant addresses*"
      },
      "viewMaxWithdrawAllowed(address,address)": {
        "notice": "Figures out how much of a given LP token an account is allowed to withdraw"
      },
      "viewNumLPVaults()": {
        "notice": "viewNumLPVaults returns the number of lp vaults on the warp platform*"
      },
      "viewNumSCVaults()": {
        "notice": "viewNumSCVaults returns the number of stablecoin vaults on the warp platform*"
      },
      "viewPriceOfCollateral(address)": {
        "notice": "viewPriceOfCollateral returns the price of an lpToken"
      },
      "viewPriceOfToken(address,uint256)": {
        "notice": "viewPriceOfToken retrieves the price of a stablecoin"
      },
      "viewTotalAvailableCollateralValue(address)": {
        "notice": "getTotalAvailableCollateralValue returns the total availible collaeral value for an account in USDC"
      },
      "viewTotalBorrowedValue(address)": {
        "notice": "viewTotalBorrowedValue returns the total borrowed value for an account in USDC"
      }
    },
    "notice": "WarpControl is designed to coordinate Warp Vaults This contract uses the OpenZeppelin contract Library to inherit functions from Ownable.sol*"
  }
}