{
  "contractName": "WarpVaultLPFactory",
  "abi": [
    {
      "anonymous": false,
      "inputs": [
        {
          "indexed": true,
          "internalType": "address",
          "name": "previousOwner",
          "type": "address"
        },
        {
          "indexed": true,
          "internalType": "address",
          "name": "newOwner",
          "type": "address"
        }
      ],
      "name": "OwnershipTransferred",
      "type": "event"
    },
    {
      "inputs": [],
      "name": "owner",
      "outputs": [
        {
          "internalType": "address",
          "name": "",
          "type": "address"
        }
      ],
      "stateMutability": "view",
      "type": "function",
      "constant": true
    },
    {
      "inputs": [],
      "name": "renounceOwnership",
      "outputs": [],
      "stateMutability": "nonpayable",
      "type": "function"
    },
    {
      "inputs": [
        {
          "internalType": "address",
          "name": "newOwner",
          "type": "address"
        }
      ],
      "name": "transferOwnership",
      "outputs": [],
      "stateMutability": "nonpayable",
      "type": "function"
    },
    {
      "inputs": [
        {
          "internalType": "uint256",
          "name": "_timelock",
          "type": "uint256"
        },
        {
          "internalType": "address",
          "name": "_lp",
          "type": "address"
        },
        {
          "internalType": "string",
          "name": "_lpName",
          "type": "string"
        }
      ],
      "name": "createWarpVaultLP",
      "outputs": [
        {
          "internalType": "address",
          "name": "",
          "type": "address"
        }
      ],
      "stateMutability": "nonpayable",
      "type": "function"
    }
  ],
  "bytecode": "0x608060405260006100176001600160e01b0361006616565b600080546001600160a01b0319166001600160a01b0383169081178255604051929350917f8be0079c531659141344cd1fd0a4f28419497f9722a3daafe3b4186f6b6457e0908290a35061006a565b3390565b611663806100796000396000f3fe608060405234801561001057600080fd5b506004361061004c5760003560e01c8063715018a6146100515780638da5cb5b1461005b578063a8edf1151461007f578063f2fde38b1461013a575b600080fd5b610059610160565b005b610063610214565b604080516001600160a01b039092168252519081900360200190f35b6100636004803603606081101561009557600080fd5b8135916001600160a01b03602082013516918101906060810160408201356401000000008111156100c557600080fd5b8201836020820111156100d757600080fd5b803590602001918460018302840111640100000000831117156100f957600080fd5b91908080601f016020809104026020016040519081016040528093929190818152602001838380828437600092019190915250929550610223945050505050565b6100596004803603602081101561015057600080fd5b50356001600160a01b031661036c565b610168610476565b6000546001600160a01b039081169116146101ca576040805162461bcd60e51b815260206004820181905260248201527f4f776e61626c653a2063616c6c6572206973206e6f7420746865206f776e6572604482015290519081900360640190fd5b600080546040516001600160a01b03909116907f8be0079c531659141344cd1fd0a4f28419497f9722a3daafe3b4186f6b6457e0908390a3600080546001600160a01b0319169055565b6000546001600160a01b031690565b600061022d610476565b6000546001600160a01b0390811691161461028f576040805162461bcd60e51b815260206004820181905260248201527f4f776e61626c653a2063616c6c6572206973206e6f7420746865206f776e6572604482015290519081900360640190fd5b6000848433856040516102a19061047a565b80858152602001846001600160a01b03166001600160a01b03168152602001836001600160a01b03166001600160a01b0316815260200180602001828103825283818151815260200191508051906020019080838360005b838110156103115781810151838201526020016102f9565b50505050905090810190601f16801561033e5780820380516001836020036101000a031916815260200191505b5095505050505050604051809103906000f080158015610362573d6000803e3d6000fd5b5095945050505050565b610374610476565b6000546001600160a01b039081169116146103d6576040805162461bcd60e51b815260206004820181905260248201527f4f776e61626c653a2063616c6c6572206973206e6f7420746865206f776e6572604482015290519081900360640190fd5b6001600160a01b03811661041b5760405162461bcd60e51b81526004018080602001828103825260268152602001806116086026913960400191505060405180910390fd5b600080546040516001600160a01b03808516939216917f8be0079c531659141344cd1fd0a4f28419497f9722a3daafe3b4186f6b6457e091a3600080546001600160a01b0319166001600160a01b0392909216919091179055565b3390565b611180806104888339019056fe60806040523480156200001157600080fd5b506040516200118038038062001180833981810160405260808110156200003757600080fd5b8151602083015160408085015160608601805192519496939591949391820192846401000000008211156200006b57600080fd5b9083019060208201858111156200008157600080fd5b82516401000000008111828201881017156200009c57600080fd5b82525081516020918201929091019080838360005b83811015620000cb578181015183820152602001620000b1565b50505050905090810190601f168015620000f95780820380516001836020036101000a031916815260200191505b50604052505050600062000112620001ca60201b60201c565b600080546001600160a01b0319166001600160a01b0383169081178255604051929350917f8be0079c531659141344cd1fd0a4f28419497f9722a3daafe3b4186f6b6457e0908290a35080516200017190600290602084019062000231565b50600380546001600160a01b03199081166001600160a01b038681169190911790925560048054909116918416919091179055620001bc4285620001cf602090811b62000c7617901c565b60015550620002d392505050565b335b90565b6000828201838110156200022a576040805162461bcd60e51b815260206004820152601b60248201527f536166654d6174683a206164646974696f6e206f766572666c6f770000000000604482015290519081900360640190fd5b9392505050565b828054600181600116156101000203166002900490600052602060002090601f016020900481019282601f106200027457805160ff1916838001178555620002a4565b82800160010185558215620002a4579182015b82811115620002a457825182559160200191906001019062000287565b50620002b2929150620002b6565b5090565b620001cc91905b80821115620002b25760008155600101620002bd565b610e9d80620002e36000396000f3fe608060405234801561001057600080fd5b50600436106100ea5760003560e01c8063a1e849811161008c578063cb7b420611610066578063cb7b420614610259578063f2fde38b14610261578063f4b5e3e414610287578063f919b4bf146102b5576100ea565b8063a1e84981146101ff578063c14cba3e1461022b578063c453e55714610233576100ea565b80636112fe2e116100c85780636112fe2e14610198578063715018a6146101b7578063763e4a0d146101bf5780638da5cb5b146101f7576100ea565b8063122b5818146100ef57806346cd6801146101135780634c20ac7414610190575b600080fd5b6100f76102db565b604080516001600160a01b039092168252519081900360200190f35b61011b6102ea565b6040805160208082528351818301528351919283929083019185019080838360005b8381101561015557818101518382015260200161013d565b50505050905090810190601f1680156101825780820380516001836020036101000a031916815260200191505b509250505060405180910390f35b6100f7610375565b6101b5600480360360208110156101ae57600080fd5b5035610384565b005b6101b561059c565b6101e5600480360360208110156101d557600080fd5b50356001600160a01b0316610650565b60408051918252519081900360200190f35b6100f7610662565b6101b56004803603604081101561021557600080fd5b50803590602001356001600160a01b0316610671565b6100f7610962565b6101e56004803603602081101561024957600080fd5b50356001600160a01b0316610971565b6101e5610a29565b6101b56004803603602081101561027757600080fd5b50356001600160a01b0316610a2f565b6101b56004803603604081101561029d57600080fd5b506001600160a01b0381358116916020013516610b39565b6101e5600480360360208110156102cb57600080fd5b50356001600160a01b0316610c0c565b6004546001600160a01b031681565b6002805460408051602060018416156101000260001901909316849004601f8101849004840282018401909252818152929183018282801561036d5780601f106103425761010080835404028352916020019161036d565b820191906000526020600020905b81548152906001019060200180831161035057829003601f168201915b505050505081565b6003546001600160a01b031690565b600480546003546040805163ab5e2c9960e01b815233948101949094526001600160a01b039182166024850152518493919092169163ab5e2c99916044808201926020929091908290030181600087803b1580156103e157600080fd5b505af11580156103f5573d6000803e3d6000fd5b505050506040513d602081101561040b57600080fd5b50511161045f576040805162461bcd60e51b815260206004820152601b60248201527f547279696e6720746f20776974686472617720746f6f206d7563680000000000604482015290519081900360640190fd5b336000908152600560205260409020548111156104ad5760405162461bcd60e51b815260040180806020018281038252603f815260200180610dc1603f913960400191505060405180910390fd5b336000908152600560205260409020546104cd908263ffffffff610c2716565b33600081815260056020908152604080832094909455600354845163a9059cbb60e01b815260048101949094526024840186905293516001600160a01b039094169363a9059cbb93604480820194918390030190829087803b15801561053257600080fd5b505af1158015610546573d6000803e3d6000fd5b505050506040513d602081101561055c57600080fd5b5050604080513381526020810183905281517f92682d28e4c16f4a2ddb833ecdd2bab2f2da69e2f325cda58d421e7d634b8e27929181900390910190a150565b6105a4610c72565b6000546001600160a01b03908116911614610606576040805162461bcd60e51b815260206004820181905260248201527f4f776e61626c653a2063616c6c6572206973206e6f7420746865206f776e6572604482015290519081900360640190fd5b600080546040516001600160a01b03909116907f8be0079c531659141344cd1fd0a4f28419497f9722a3daafe3b4186f6b6457e0908390a3600080546001600160a01b0319169055565b60056020526000908152604090205481565b6000546001600160a01b031690565b60035460408051636eb1769f60e11b8152336004820152306024820152905184926001600160a01b03169163dd62ed3e916044808301926020929190829003018186803b1580156106c157600080fd5b505afa1580156106d5573d6000803e3d6000fd5b505050506040513d60208110156106eb57600080fd5b5051101561072a5760405162461bcd60e51b8152600401808060200182810382526021815260200180610e476021913960400191505060405180910390fd5b600354604080516370a0823160e01b8152336004820152905184926001600160a01b0316916370a08231916024808301926020929190829003018186803b15801561077457600080fd5b505afa158015610788573d6000803e3d6000fd5b505050506040513d602081101561079e57600080fd5b505110156107f3576040805162461bcd60e51b815260206004820152601e60248201527f4d757374206861766520656e6f756768204c5020746f2070726f766964650000604482015290519081900360640190fd5b600354604080516323b872dd60e01b81523360048201523060248201526044810185905290516001600160a01b03909216916323b872dd916064808201926020929091908290030181600087803b15801561084d57600080fd5b505af1158015610861573d6000803e3d6000fd5b505050506040513d602081101561087757600080fd5b505033600090815260056020526040902054610899908363ffffffff610c7616565b33600090815260056020526040902055600154421161092357600480546040805163856d836b60e01b81526001600160a01b03858116948201949094523360248201529051929091169163856d836b9160448082019260009290919082900301818387803b15801561090a57600080fd5b505af115801561091e573d6000803e3d6000fd5b505050505b604080513381526020810184905281517f304548d20eea45684a7db179080f94dce8e4442923ddd63688ab5b7e270a4849929181900390910190a15050565b6003546001600160a01b031681565b600480546003546040805163272c85f760e11b81526001600160a01b03928316948101949094525160009384939290921691634e590bee916024808301926020929190829003018186803b1580156109c857600080fd5b505afa1580156109dc573d6000803e3d6000fd5b505050506040513d60208110156109f257600080fd5b50516001600160a01b03841660009081526005602052604081205491925090610a21908363ffffffff610cd016565b949350505050565b60015481565b610a37610c72565b6000546001600160a01b03908116911614610a99576040805162461bcd60e51b815260206004820181905260248201527f4f776e61626c653a2063616c6c6572206973206e6f7420746865206f776e6572604482015290519081900360640190fd5b6001600160a01b038116610ade5760405162461bcd60e51b8152600401808060200182810382526026815260200180610e006026913960400191505060405180910390fd5b600080546040516001600160a01b03808516939216917f8be0079c531659141344cd1fd0a4f28419497f9722a3daafe3b4186f6b6457e091a3600080546001600160a01b0319166001600160a01b0392909216919091179055565b6004546001600160a01b03163314610b5057600080fd5b6001544211610b5e57600080fd5b6003546001600160a01b03838116600090815260056020908152604080832054815163a9059cbb60e01b8152878616600482015260248101919091529051939094169363a9059cbb9360448083019491928390030190829087803b158015610bc557600080fd5b505af1158015610bd9573d6000803e3d6000fd5b505050506040513d6020811015610bef57600080fd5b5050506001600160a01b0316600090815260056020526040812055565b6001600160a01b031660009081526005602052604090205490565b6000610c6983836040518060400160405280601e81526020017f536166654d6174683a207375627472616374696f6e206f766572666c6f770000815250610d29565b90505b92915050565b3390565b600082820183811015610c69576040805162461bcd60e51b815260206004820152601b60248201527f536166654d6174683a206164646974696f6e206f766572666c6f770000000000604482015290519081900360640190fd5b600082610cdf57506000610c6c565b82820282848281610cec57fe5b0414610c695760405162461bcd60e51b8152600401808060200182810382526021815260200180610e266021913960400191505060405180910390fd5b60008184841115610db85760405162461bcd60e51b81526004018080602001828103825283818151815260200191508051906020019080838360005b83811015610d7d578181015183820152602001610d65565b50505050905090810190601f168015610daa5780820380516001836020036101000a031916815260200191505b509250505060405180910390fd5b50505090039056fe796f752061726520747279696e6720746f207769746864726177206d6f726520636f6c6c61746572616c207468616e20796f752068617665206c6f636b65644f776e61626c653a206e6577206f776e657220697320746865207a65726f2061646472657373536166654d6174683a206d756c7469706c69636174696f6e206f766572666c6f775661756c74206d757374206861766520656e6f75676820616c6c6f77616e63652ea2646970667358221220a5172d33494d539b449d58b4682e6fd072f2e819a20a31aecbcb0c128a1466ca64736f6c634300060600334f776e61626c653a206e6577206f776e657220697320746865207a65726f2061646472657373a2646970667358221220c206c37b7eb9381711ea2bd32134e621533b76c8273a15227b88d2f87fab965464736f6c63430006060033",
  "immutableReferences": {},
  "source": "pragma solidity ^0.6.0;\n\nimport \"./WarpVaultLP.sol\";\nimport \"@openzeppelin/contracts/access/Ownable.sol\";\n\n////////////////////////////////////////////////////////////////////////////////////////////\n/// @title WarpVaultLPFactory\n/// @author Christopher Dixon\n////////////////////////////////////////////////////////////////////////////////////////////\n/**\nThe WarpVaultLPFactory contract is designed to produce individual WarpVaultLP contracts\nThis contract uses the OpenZeppelin contract Library to inherit functions from\n  Ownable.sol\n**/\n\ncontract WarpVaultLPFactory is Ownable {\n    /**\n        @notice createWarpVaultLP allows the contract owner to create a new WarpVaultLP contract for a specific LP token\n        @param _timelock is a variable representing the number of seconds the timeWizard will prevent withdraws and borrows from a contracts(one week is 605800 seconds)\n        @param _lp is the address for the LP token this Warp Vault will manage\n        @param _lpName is the name of the LP token (ex:wETH-wBTC)\n        **/\n    function createWarpVaultLP(uint256 _timelock, address _lp, string memory _lpName)\n        public\n        onlyOwner\n        returns (address)\n    {\n        address _WVLP = address(new WarpVaultLP(_timelock, _lp, msg.sender, _lpName));\n\n        return _WVLP;\n    }\n}\n",
  "sourcePath": "/home/stan36/repos/Warp/Smart-Contracts/contracts/WarpVaultLPFactory.sol",
  "compiler": {
    "name": "solc",
    "version": "0.6.6+commit.6c089d02.Emscripten.clang"
  },
  "schemaVersion": "3.3.2",
  "updatedAt": "2020-12-01T01:09:08.428Z",
  "networkType": "ethereum",
  "devdoc": {
    "methods": {
      "createWarpVaultLP(uint256,address,string)": {
        "params": {
          "_lp": "is the address for the LP token this Warp Vault will manage",
          "_lpName": "is the name of the LP token (ex:wETH-wBTC)*",
          "_timelock": "is a variable representing the number of seconds the timeWizard will prevent withdraws and borrows from a contracts(one week is 605800 seconds)"
        }
      },
      "owner()": {
        "details": "Returns the address of the current owner."
      },
      "renounceOwnership()": {
        "details": "Leaves the contract without owner. It will not be possible to call `onlyOwner` functions anymore. Can only be called by the current owner.     * NOTE: Renouncing ownership will leave the contract without an owner, thereby removing any functionality that is only available to the owner."
      },
      "transferOwnership(address)": {
        "details": "Transfers ownership of the contract to a new account (`newOwner`). Can only be called by the current owner."
      }
    }
  },
  "userdoc": {
    "methods": {
      "createWarpVaultLP(uint256,address,string)": {
        "notice": "createWarpVaultLP allows the contract owner to create a new WarpVaultLP contract for a specific LP token"
      }
    },
    "notice": "The WarpVaultLPFactory contract is designed to produce individual WarpVaultLP contracts This contract uses the OpenZeppelin contract Library to inherit functions from Ownable.sol*"
  }
}