{
  "contractName": "WarpVaultSC",
  "abi": [
    {
      "inputs": [
        {
          "internalType": "address",
          "name": "_InterestRate",
          "type": "address"
        },
        {
          "internalType": "address",
          "name": "_StableCoin",
          "type": "address"
        },
        {
          "internalType": "address",
          "name": "_warpControl",
          "type": "address"
        },
        {
          "internalType": "address",
          "name": "_warpTeam",
          "type": "address"
        },
        {
          "internalType": "uint256",
          "name": "_initialExchangeRate",
          "type": "uint256"
        },
        {
          "internalType": "uint256",
          "name": "_timelock",
          "type": "uint256"
        },
        {
          "internalType": "uint256",
          "name": "_reserveFactorMantissa",
          "type": "uint256"
        }
      ],
      "stateMutability": "nonpayable",
      "type": "constructor"
    },
    {
      "anonymous": false,
      "inputs": [
        {
          "indexed": false,
          "internalType": "uint256",
          "name": "accrualBlockNumber",
          "type": "uint256"
        },
        {
          "indexed": false,
          "internalType": "uint256",
          "name": "borrowIndex",
          "type": "uint256"
        },
        {
          "indexed": false,
          "internalType": "uint256",
          "name": "totalBorrows",
          "type": "uint256"
        },
        {
          "indexed": false,
          "internalType": "uint256",
          "name": "totalReserves",
          "type": "uint256"
        }
      ],
      "name": "InterestAccrued",
      "type": "event"
    },
    {
      "anonymous": false,
      "inputs": [
        {
          "indexed": false,
          "internalType": "address",
          "name": "_borrower",
          "type": "address"
        },
        {
          "indexed": false,
          "internalType": "uint256",
          "name": "_repayAmount",
          "type": "uint256"
        },
        {
          "indexed": false,
          "internalType": "uint256",
          "name": "remainingPrinciple",
          "type": "uint256"
        },
        {
          "indexed": false,
          "internalType": "uint256",
          "name": "remainingInterest",
          "type": "uint256"
        }
      ],
      "name": "LoanRepayed",
      "type": "event"
    },
    {
      "anonymous": false,
      "inputs": [
        {
          "indexed": true,
          "internalType": "address",
          "name": "previousOwner",
          "type": "address"
        },
        {
          "indexed": true,
          "internalType": "address",
          "name": "newOwner",
          "type": "address"
        }
      ],
      "name": "OwnershipTransferred",
      "type": "event"
    },
    {
      "anonymous": false,
      "inputs": [
        {
          "indexed": false,
          "internalType": "uint256",
          "name": "_amount",
          "type": "uint256"
        }
      ],
      "name": "ReserveWithdraw",
      "type": "event"
    },
    {
      "anonymous": false,
      "inputs": [
        {
          "indexed": false,
          "internalType": "address",
          "name": "_lender",
          "type": "address"
        },
        {
          "indexed": false,
          "internalType": "uint256",
          "name": "_amountLent",
          "type": "uint256"
        },
        {
          "indexed": false,
          "internalType": "uint256",
          "name": "_amountOfWarpMinted",
          "type": "uint256"
        }
      ],
      "name": "StableCoinLent",
      "type": "event"
    },
    {
      "anonymous": false,
      "inputs": [
        {
          "indexed": false,
          "internalType": "address",
          "name": "_lender",
          "type": "address"
        },
        {
          "indexed": false,
          "internalType": "uint256",
          "name": "_amountWithdrawn",
          "type": "uint256"
        },
        {
          "indexed": false,
          "internalType": "uint256",
          "name": "_amountOfWarpBurnt",
          "type": "uint256"
        }
      ],
      "name": "StableCoinWithdraw",
      "type": "event"
    },
    {
      "inputs": [],
      "name": "InterestRate",
      "outputs": [
        {
          "internalType": "contract InterestRateModel",
          "name": "",
          "type": "address"
        }
      ],
      "stateMutability": "view",
      "type": "function"
    },
    {
      "inputs": [],
      "name": "WC",
      "outputs": [
        {
          "internalType": "contract WarpControlI",
          "name": "",
          "type": "address"
        }
      ],
      "stateMutability": "view",
      "type": "function"
    },
    {
      "inputs": [
        {
          "internalType": "address",
          "name": "",
          "type": "address"
        }
      ],
      "name": "accountBorrows",
      "outputs": [
        {
          "internalType": "uint256",
          "name": "principal",
          "type": "uint256"
        },
        {
          "internalType": "uint256",
          "name": "interestIndex",
          "type": "uint256"
        }
      ],
      "stateMutability": "view",
      "type": "function"
    },
    {
      "inputs": [],
      "name": "accrualBlockNumber",
      "outputs": [
        {
          "internalType": "uint256",
          "name": "",
          "type": "uint256"
        }
      ],
      "stateMutability": "view",
      "type": "function"
    },
    {
      "inputs": [],
      "name": "borrowIndex",
      "outputs": [
        {
          "internalType": "uint256",
          "name": "",
          "type": "uint256"
        }
      ],
      "stateMutability": "view",
      "type": "function"
    },
    {
      "inputs": [],
      "name": "divisor",
      "outputs": [
        {
          "internalType": "uint256",
          "name": "",
          "type": "uint256"
        }
      ],
      "stateMutability": "view",
      "type": "function"
    },
    {
      "inputs": [
        {
          "internalType": "address",
          "name": "",
          "type": "address"
        }
      ],
      "name": "historicalReward",
      "outputs": [
        {
          "internalType": "uint256",
          "name": "",
          "type": "uint256"
        }
      ],
      "stateMutability": "view",
      "type": "function"
    },
    {
      "inputs": [],
      "name": "owner",
      "outputs": [
        {
          "internalType": "address",
          "name": "",
          "type": "address"
        }
      ],
      "stateMutability": "view",
      "type": "function"
    },
    {
      "inputs": [],
      "name": "percent",
      "outputs": [
        {
          "internalType": "uint256",
          "name": "",
          "type": "uint256"
        }
      ],
      "stateMutability": "view",
      "type": "function"
    },
    {
      "inputs": [
        {
          "internalType": "address",
          "name": "",
          "type": "address"
        }
      ],
      "name": "principalBalance",
      "outputs": [
        {
          "internalType": "uint256",
          "name": "",
          "type": "uint256"
        }
      ],
      "stateMutability": "view",
      "type": "function"
    },
    {
      "inputs": [],
      "name": "renounceOwnership",
      "outputs": [],
      "stateMutability": "nonpayable",
      "type": "function"
    },
    {
      "inputs": [],
      "name": "reserveFactorMantissa",
      "outputs": [
        {
          "internalType": "uint256",
          "name": "",
          "type": "uint256"
        }
      ],
      "stateMutability": "view",
      "type": "function"
    },
    {
      "inputs": [],
      "name": "stablecoin",
      "outputs": [
        {
          "internalType": "contract ERC20",
          "name": "",
          "type": "address"
        }
      ],
      "stateMutability": "view",
      "type": "function"
    },
    {
      "inputs": [],
      "name": "timeWizard",
      "outputs": [
        {
          "internalType": "uint256",
          "name": "",
          "type": "uint256"
        }
      ],
      "stateMutability": "view",
      "type": "function"
    },
    {
      "inputs": [],
      "name": "totalBorrows",
      "outputs": [
        {
          "internalType": "uint256",
          "name": "",
          "type": "uint256"
        }
      ],
      "stateMutability": "view",
      "type": "function"
    },
    {
      "inputs": [],
      "name": "totalReserves",
      "outputs": [
        {
          "internalType": "uint256",
          "name": "",
          "type": "uint256"
        }
      ],
      "stateMutability": "view",
      "type": "function"
    },
    {
      "inputs": [
        {
          "internalType": "address",
          "name": "newOwner",
          "type": "address"
        }
      ],
      "name": "transferOwnership",
      "outputs": [],
      "stateMutability": "nonpayable",
      "type": "function"
    },
    {
      "inputs": [],
      "name": "wStableCoin",
      "outputs": [
        {
          "internalType": "contract WarpWrapperToken",
          "name": "",
          "type": "address"
        }
      ],
      "stateMutability": "view",
      "type": "function"
    },
    {
      "inputs": [],
      "name": "warpTeam",
      "outputs": [
        {
          "internalType": "address",
          "name": "",
          "type": "address"
        }
      ],
      "stateMutability": "view",
      "type": "function"
    },
    {
      "inputs": [],
      "name": "getSCDecimals",
      "outputs": [
        {
          "internalType": "uint8",
          "name": "",
          "type": "uint8"
        }
      ],
      "stateMutability": "view",
      "type": "function"
    },
    {
      "inputs": [],
      "name": "getSCAddress",
      "outputs": [
        {
          "internalType": "address",
          "name": "",
          "type": "address"
        }
      ],
      "stateMutability": "view",
      "type": "function"
    },
    {
      "inputs": [
        {
          "internalType": "address",
          "name": "_warpControl",
          "type": "address"
        }
      ],
      "name": "upgrade",
      "outputs": [],
      "stateMutability": "nonpayable",
      "type": "function"
    },
    {
      "inputs": [
        {
          "internalType": "address",
          "name": "_team",
          "type": "address"
        }
      ],
      "name": "updateTeam",
      "outputs": [],
      "stateMutability": "nonpayable",
      "type": "function"
    },
    {
      "inputs": [],
      "name": "getCashPrior",
      "outputs": [
        {
          "internalType": "uint256",
          "name": "",
          "type": "uint256"
        }
      ],
      "stateMutability": "view",
      "type": "function"
    },
    {
      "inputs": [
        {
          "internalType": "uint256",
          "name": "_payedAmount",
          "type": "uint256"
        }
      ],
      "name": "calculateFee",
      "outputs": [
        {
          "internalType": "uint256",
          "name": "",
          "type": "uint256"
        }
      ],
      "stateMutability": "view",
      "type": "function"
    },
    {
      "inputs": [
        {
          "internalType": "uint256",
          "name": "_amount",
          "type": "uint256"
        }
      ],
      "name": "withdrawReserves",
      "outputs": [],
      "stateMutability": "nonpayable",
      "type": "function"
    },
    {
      "inputs": [
        {
          "internalType": "address",
          "name": "_newModel",
          "type": "address"
        }
      ],
      "name": "setNewInterestModel",
      "outputs": [],
      "stateMutability": "nonpayable",
      "type": "function"
    },
    {
      "inputs": [
        {
          "internalType": "uint256",
          "name": "_newReserveMantissa",
          "type": "uint256"
        }
      ],
      "name": "updateReserve",
      "outputs": [],
      "stateMutability": "nonpayable",
      "type": "function"
    },
    {
      "inputs": [],
      "name": "accrueInterest",
      "outputs": [],
      "stateMutability": "nonpayable",
      "type": "function"
    },
    {
      "inputs": [
        {
          "internalType": "address",
          "name": "account",
          "type": "address"
        }
      ],
      "name": "borrowBalancePrior",
      "outputs": [
        {
          "internalType": "uint256",
          "name": "",
          "type": "uint256"
        }
      ],
      "stateMutability": "view",
      "type": "function"
    },
    {
      "inputs": [
        {
          "internalType": "address",
          "name": "account",
          "type": "address"
        }
      ],
      "name": "borrowBalanceCurrent",
      "outputs": [
        {
          "internalType": "uint256",
          "name": "",
          "type": "uint256"
        }
      ],
      "stateMutability": "nonpayable",
      "type": "function"
    },
    {
      "inputs": [],
      "name": "borrowRatePerBlock",
      "outputs": [
        {
          "internalType": "uint256",
          "name": "",
          "type": "uint256"
        }
      ],
      "stateMutability": "view",
      "type": "function"
    },
    {
      "inputs": [],
      "name": "supplyRatePerBlock",
      "outputs": [
        {
          "internalType": "uint256",
          "name": "",
          "type": "uint256"
        }
      ],
      "stateMutability": "view",
      "type": "function"
    },
    {
      "inputs": [],
      "name": "totalBorrowsCurrent",
      "outputs": [
        {
          "internalType": "uint256",
          "name": "",
          "type": "uint256"
        }
      ],
      "stateMutability": "nonpayable",
      "type": "function"
    },
    {
      "inputs": [],
      "name": "exchangeRatePrior",
      "outputs": [
        {
          "internalType": "uint256",
          "name": "",
          "type": "uint256"
        }
      ],
      "stateMutability": "view",
      "type": "function"
    },
    {
      "inputs": [],
      "name": "exchangeRateCurrent",
      "outputs": [
        {
          "internalType": "uint256",
          "name": "",
          "type": "uint256"
        }
      ],
      "stateMutability": "nonpayable",
      "type": "function"
    },
    {
      "inputs": [],
      "name": "getCash",
      "outputs": [
        {
          "internalType": "uint256",
          "name": "",
          "type": "uint256"
        }
      ],
      "stateMutability": "view",
      "type": "function"
    },
    {
      "inputs": [
        {
          "internalType": "uint256",
          "name": "_amount",
          "type": "uint256"
        }
      ],
      "name": "lendToWarpVault",
      "outputs": [],
      "stateMutability": "nonpayable",
      "type": "function"
    },
    {
      "inputs": [
        {
          "internalType": "uint256",
          "name": "_amount",
          "type": "uint256"
        }
      ],
      "name": "redeem",
      "outputs": [],
      "stateMutability": "nonpayable",
      "type": "function"
    },
    {
      "inputs": [
        {
          "internalType": "address",
          "name": "_account",
          "type": "address"
        }
      ],
      "name": "viewAccountBalance",
      "outputs": [
        {
          "internalType": "uint256",
          "name": "",
          "type": "uint256"
        }
      ],
      "stateMutability": "view",
      "type": "function"
    },
    {
      "inputs": [
        {
          "internalType": "address",
          "name": "_account",
          "type": "address"
        }
      ],
      "name": "viewHistoricalReward",
      "outputs": [
        {
          "internalType": "uint256",
          "name": "",
          "type": "uint256"
        }
      ],
      "stateMutability": "view",
      "type": "function"
    },
    {
      "inputs": [
        {
          "internalType": "uint256",
          "name": "_borrowAmount",
          "type": "uint256"
        },
        {
          "internalType": "address",
          "name": "_borrower",
          "type": "address"
        }
      ],
      "name": "_borrow",
      "outputs": [],
      "stateMutability": "nonpayable",
      "type": "function"
    },
    {
      "inputs": [
        {
          "internalType": "uint256",
          "name": "_repayAmount",
          "type": "uint256"
        }
      ],
      "name": "repayBorrow",
      "outputs": [],
      "stateMutability": "nonpayable",
      "type": "function"
    },
    {
      "inputs": [
        {
          "internalType": "address",
          "name": "_borrower",
          "type": "address"
        },
        {
          "internalType": "address",
          "name": "_liquidator",
          "type": "address"
        },
        {
          "internalType": "uint256",
          "name": "_amount",
          "type": "uint256"
        }
      ],
      "name": "_repayLiquidatedLoan",
      "outputs": [],
      "stateMutability": "nonpayable",
      "type": "function"
    }
  ],
  "bytecode": "0x60806040526105dc6007556127106008553480156200001d57600080fd5b50604051620041d3380380620041d3833981810160405260e08110156200004357600080fd5b508051602082015160408301516060840151608085015160a086015160c09096015194959394929391929091906000620000856001600160e01b036200052216565b600080546001600160a01b0319166001600160a01b0383169081178255604051929350917f8be0079c531659141344cd1fd0a4f28419497f9722a3daafe3b4186f6b6457e0908290a350600d80546001600160a01b038088166001600160a01b031992831617909255600b8054898416908316179055600e8054928a16929091169190911790556200011f6001600160e01b036200052616565b600355670de0b6b3a76400006004556001839055600a80546001600160a01b0319166001600160a01b0386161790556200016642836200052a602090811b6200214e17901c565b6009556002819055600b54604080516306fdde0360e01b815290516001600160a01b039092169182916306fdde03916004808301926000929190829003018186803b158015620001b557600080fd5b505afa158015620001ca573d6000803e3d6000fd5b505050506040513d6000823e601f3d908101601f191682016040526020811015620001f457600080fd5b81019080805160405193929190846401000000008211156200021557600080fd5b9083019060208201858111156200022b57600080fd5b82516401000000008111828201881017156200024657600080fd5b82525081516020918201929091019080838360005b83811015620002755781810151838201526020016200025b565b50505050905090810190601f168015620002a35780820380516001836020036101000a031916815260200191505b506040818152600b546395d89b4160e01b835290516001600160a01b0390911694506395d89b41935060048083019350600092829003018186803b158015620002eb57600080fd5b505afa15801562000300573d6000803e3d6000fd5b505050506040513d6000823e601f3d908101601f1916820160405260208110156200032a57600080fd5b81019080805160405193929190846401000000008211156200034b57600080fd5b9083019060208201858111156200036157600080fd5b82516401000000008111828201881017156200037c57600080fd5b82525081516020918201929091019080838360005b83811015620003ab57818101518382015260200162000391565b50505050905090810190601f168015620003d95780820380516001836020036101000a031916815260200191505b50604052505050604051620003ee906200058c565b6001600160a01b0384168152606060208083018281528551928401929092528451604084019160808501919087019080838360005b838110156200043d57818101518382015260200162000423565b50505050905090810190601f1680156200046b5780820380516001836020036101000a031916815260200191505b50838103825284518152845160209182019186019080838360005b83811015620004a057818101518382015260200162000486565b50505050905090810190601f168015620004ce5780820380516001836020036101000a031916815260200191505b5095505050505050604051809103906000f080158015620004f3573d6000803e3d6000fd5b50600c80546001600160a01b0319166001600160a01b0392909216919091179055506200059a95505050505050565b3390565b4390565b60008282018381101562000585576040805162461bcd60e51b815260206004820152601b60248201527f536166654d6174683a206164646974696f6e206f766572666c6f770000000000604482015290519081900360640190fd5b9392505050565b6113a18062002e3283390190565b61288880620005aa6000396000f3fe608060405234801561001057600080fd5b50600436106102745760003560e01c80638f7bf4fd11610151578063bd6d894d116100c3578063dd5a612c11610087578063dd5a612c146105c8578063e6136ab6146105d0578063e68fc0ee146105f6578063e9cbd8221461061c578063f2fde38b14610624578063f8f9da281461064a57610274565b8063bd6d894d14610554578063cb7b42061461055c578063cd5c6f5714610564578063d40e8f4a1461056c578063db006a75146105ab57610274565b8063a6afed9511610115578063a6afed95146104ba578063aa5af0fd146104c2578063ab292f9b146104ca578063ae9d70b014610500578063b1be82f114610508578063b23f35941461052e57610274565b80638f7bf4fd146104345780638f840ddd1461045a57806394d359901461046257806398aa8c331461048057806399a5d7471461049d57610274565b806348dc0b6e116101ea5780636c540baf116101ae5780636c540baf146103e657806370ba1113146103ee578063715018a6146103f657806373acee98146103fe5780637746efab146104065780638da5cb5b1461042c57610274565b806348dc0b6e146103a95780634ee8acc0146103b157806357d32b7a146103b9578063591cec86146103d65780635cf57389146103de57610274565b80631f2dc5ef1161023c5780631f2dc5ef14610322578063232d46d21461032a5780633662454d1461035657806336820e4b146103735780633b1d21a21461039957806347bd3718146103a157610274565b80630900f010146102795780630e752702146102a1578063122b5818146102be578063173b9904146102e257806317bfdfbc146102fc575b600080fd5b61029f6004803603602081101561028f57600080fd5b50356001600160a01b0316610652565b005b61029f600480360360208110156102b757600080fd5b503561068b565b6102c661097b565b604080516001600160a01b039092168252519081900360200190f35b6102ea61098a565b60408051918252519081900360200190f35b6102ea6004803603602081101561031257600080fd5b50356001600160a01b0316610990565b6102ea6109ab565b61029f6004803603604081101561034057600080fd5b50803590602001356001600160a01b03166109b1565b61029f6004803603602081101561036c57600080fd5b5035610af3565b6102ea6004803603602081101561038957600080fd5b50356001600160a01b0316610b0f565b6102ea610b21565b6102ea610b31565b6102c6610b37565b6102c6610b46565b61029f600480360360208110156103cf57600080fd5b5035610b55565b6102c6610c8f565b6102c6610c9e565b6102ea610cad565b6102ea610cb3565b61029f610cb9565b6102ea610d6d565b6102ea6004803603602081101561041c57600080fd5b50356001600160a01b0316610d7e565b6102c6610e21565b6102ea6004803603602081101561044a57600080fd5b50356001600160a01b0316610e30565b6102ea610ee5565b61046a610eeb565b6040805160ff9092168252519081900360200190f35b61029f6004803603602081101561049657600080fd5b5035610f61565b6102ea600480360360208110156104b357600080fd5b5035611028565b61029f611059565b6102ea6112ce565b61029f600480360360608110156104e057600080fd5b506001600160a01b038135811691602081013590911690604001356112d4565b6102ea611376565b61029f6004803603602081101561051e57600080fd5b50356001600160a01b03166113e4565b61029f6004803603602081101561054457600080fd5b50356001600160a01b031661141d565b6102ea611456565b6102ea6115a7565b6102ea6115ad565b6105926004803603602081101561058257600080fd5b50356001600160a01b03166115f2565b6040805192835260208301919091528051918290030190f35b61029f600480360360208110156105c157600080fd5b503561160b565b6102ea611ab6565b6102ea600480360360208110156105e657600080fd5b50356001600160a01b0316611b01565b6102ea6004803603602081101561060c57600080fd5b50356001600160a01b0316611c3b565b6102c6611c4d565b61029f6004803603602081101561063a57600080fd5b50356001600160a01b0316611c5c565b6102ea611d66565b600d546001600160a01b0316331461066957600080fd5b600d80546001600160a01b0319166001600160a01b0392909216919091179055565b600954421161069957600080fd5b6106a161263c565b6106aa33610990565b606082018190528211156106ef5760405162461bcd60e51b815260040180806020018281038252602c81526020018061272f602c913960400191505060405180910390fd5b81610703576060810151602082015261070b565b602081018290525b602080820151600b54604080516370a0823160e01b8152336004820152905192936001600160a01b03909216926370a0823192602480840193919291829003018186803b15801561075b57600080fd5b505afa15801561076f573d6000803e3d6000fd5b505050506040513d602081101561078557600080fd5b505110156107da576040805162461bcd60e51b815260206004820152601e60248201527f4e6f7420656e6f75676820737461626c65636f696e20746f2072657061790000604482015290519081900360640190fd5b6020810151600b54610801916001600160a01b03909116903390309063ffffffff611dca16565b61081381606001518260200151611e2a565b608083018190528282600381111561082757fe5b600381111561083257fe5b905250600090508151600381111561084657fe5b146108825760405162461bcd60e51b81526004018080602001828103825260338152602001806127c56033913960400191505060405180910390fd5b6108926005548260200151611e2a565b60a08301819052828260038111156108a657fe5b60038111156108b157fe5b90525060009050815160038111156108c557fe5b146109015760405162461bcd60e51b81526004018080602001828103825260318152602001806127f86031913960400191505060405180910390fd5b60a0810151600555608080820151336000818152600f60209081526040918290208481556004546001909101819055825193845290830187905282820193909352606082019290925290517f0bc102cfc64751888477c44e529873a602bf746175b1e41c6b54e45f926f90f9929181900390910190a15050565b600d546001600160a01b031681565b60025481565b600061099a611059565b6109a382610d7e565b90505b919050565b60085481565b600d546001600160a01b031633146109c857600080fd5b60095442116109d657600080fd5b6109de612689565b826109e7611ab6565b11610a39576040805162461bcd60e51b815260206004820152601960248201527f4e6f7420656e6f75676820746f6b656e7320746f206c656e6400000000000000604482015290519081900360640190fd5b610a4282610d7e565b60208201819052610a539084611e50565b6040830181905282826003811115610a6757fe5b6003811115610a7257fe5b8152505050610a8360055484611e50565b6060830181905282826003811115610a9757fe5b6003811115610aa257fe5b905250506040808201516001600160a01b038085166000908152600f602052929092209081556004546001909101556060820151600555600b54610aee9116838563ffffffff611e7616565b505050565b600a546001600160a01b03163314610b0a57600080fd5b600255565b60116020526000908152604090205481565b6000610b2b611ab6565b90505b90565b60055481565b600e546001600160a01b031681565b600c546001600160a01b031681565b610b5d6126b2565b610b65611456565b602080830191825260408051918201905290518152610b85908390611ec8565b6040830181905282826003811115610b9957fe5b6003811115610ba457fe5b90525050600b54610bc6906001600160a01b031633308563ffffffff611dca16565b33600081815260106020526040808220805486019055600c548482015182516340c10f1960e01b81526004810195909552602485015290516001600160a01b03909116926340c10f1992604480830193919282900301818387803b158015610c2d57600080fd5b505af1158015610c41573d6000803e3d6000fd5b5050506040808301518151338152602081018690528083019190915290517fac45f50416433593e7c9a1f3e0d5f887c530c22d776e1057ecaacb750d24b94092509081900360600190a15050565b600b546001600160a01b031690565b600a546001600160a01b031681565b60035481565b60075481565b610cc1611f1b565b6000546001600160a01b03908116911614610d23576040805162461bcd60e51b815260206004820181905260248201527f4f776e61626c653a2063616c6c6572206973206e6f7420746865206f776e6572604482015290519081900360640190fd5b600080546040516001600160a01b03909116907f8be0079c531659141344cd1fd0a4f28419497f9722a3daafe3b4186f6b6457e0908390a3600080546001600160a01b0319169055565b6000610d77611059565b5060055490565b6001600160a01b0381166000908152600f60205260408120805482918291829190610db05760009450505050506109a6565b610dc08160000154600454611f1f565b90945092506000846003811115610dd357fe5b14610de55760009450505050506109a6565b610df3838260010154611f5e565b90945091506000846003811115610e0657fe5b14610e185760009450505050506109a6565b50949350505050565b6000546001600160a01b031690565b600080610e3b6115ad565b600c54604080516370a0823160e01b81526001600160a01b038781166004830152915193945060009391909216916370a08231916024808301926020929190829003018186803b158015610e8e57600080fd5b505afa158015610ea2573d6000803e3d6000fd5b505050506040513d6020811015610eb857600080fd5b505160408051602081019091528381529091506000908190610eda9084611f89565b979650505050505050565b60065481565b600b546040805163313ce56760e01b815290516000926001600160a01b03169163313ce567916004808301926020929190829003018186803b158015610f3057600080fd5b505afa158015610f44573d6000803e3d6000fd5b505050506040513d6020811015610f5a57600080fd5b5051905090565b600a546001600160a01b03163314610f7857600080fd5b806006541015610fb95760405162461bcd60e51b81526004018080602001828103825260238152602001806127816023913960400191505060405180910390fd5b600654610fcc908263ffffffff611fa016565b600655600a54600b54610ff2916001600160a01b0391821691168363ffffffff611e7616565b6040805182815290517f2b33eb7f7ae0d9bb1596ccbff4b5ed6460dd64eb6bef0c24870065aa469bbb749181900360200190a150565b60008061105260085461104660075486611feb90919063ffffffff16565b9063ffffffff61204416565b9392505050565b6000611063612086565b600354909150808214156110be576040805162461bcd60e51b815260206004820152601f60248201527f547279696e6720746f2061636372756520696e74657265737420747769636500604482015290519081900360640190fd5b60006110c8611ab6565b60055460065460048054600e54604080516315f2405360e01b81529384018790526024840186905260448401859052519596509394929390926000926001600160a01b03909216916315f24053916064808301926020929190829003018186803b15801561113557600080fd5b505afa158015611149573d6000803e3d6000fd5b505050506040513d602081101561115f57600080fd5b5051905065048c273950008111156111be576040805162461bcd60e51b815260206004820152601a60248201527f426f72726f772052617465206d616e7469737361206572726f72000000000000604482015290519081900360640190fd5b6000806111cb8989611e2a565b915091506111d76126dd565b6000806000806111f560405180602001604052808a8152508761208a565b9097509450611204858c611f89565b9097509350611213848c611e50565b60408051602081019091526002548152919850935061123390858c6120f2565b9097509150611243858a806120f2565b80925081985050508d6003819055508060048190555082600581905550816006819055507fe3972ae250606e82c6683843383cb8a51755588d2f443af42e8cb5b1e085392d6003546004546005546006546040518085815260200184815260200183815260200182815260200194505050505060405180910390a15050505050505050505050505050565b60045481565b600d546001600160a01b031633146112eb57600080fd5b60095442116112f957600080fd5b600b54611317906001600160a01b031683308463ffffffff611dca16565b600061132282611028565b600654909150611338908263ffffffff61214e16565b6006556001600160a01b0384166000908152600f602052604081208181556001015560055461136d908363ffffffff611fa016565b60055550505050565b600e546000906001600160a01b031663b8168816611392611ab6565b6005546006546002546040518563ffffffff1660e01b81526004018085815260200184815260200183815260200182815260200194505050505060206040518083038186803b158015610f3057600080fd5b600d546001600160a01b031633146113fb57600080fd5b600e80546001600160a01b0319166001600160a01b0392909216919091179055565b600d546001600160a01b0316331461143457600080fd5b600a80546001600160a01b0319166001600160a01b0392909216919091179055565b6000611460611059565b600c60009054906101000a90046001600160a01b03166001600160a01b03166318160ddd6040518163ffffffff1660e01b815260040160206040518083038186803b1580156114ae57600080fd5b505afa1580156114c2573d6000803e3d6000fd5b505050506040513d60208110156114d857600080fd5b50516114e75750600154610b2e565b60006114f1611ab6565b905060006114fd6126dd565b600061150e846005546006546121a8565b809450819250505061159983600c60009054906101000a90046001600160a01b03166001600160a01b03166318160ddd6040518163ffffffff1660e01b815260040160206040518083038186803b15801561156857600080fd5b505afa15801561157c573d6000803e3d6000fd5b505050506040513d602081101561159257600080fd5b50516121e6565b519550610b2e945050505050565b60095481565b600c54604080516318160ddd60e01b815290516000926001600160a01b0316916318160ddd916004808301926020929190829003018186803b1580156114ae57600080fd5b600f602052600090815260409020805460019091015482565b6116136126f0565b600c54604080516370a0823160e01b815233600482015290516001600160a01b03909216916370a0823191602480820192602092909190829003018186803b15801561165e57600080fd5b505afa158015611672573d6000803e3d6000fd5b505050506040513d602081101561168857600080fd5b50516060820152611697611456565b60208083019182526040805191820190529051815260608201516116bb9190611f89565b60808301819052828260038111156116cf57fe5b60038111156116da57fe5b90525050816116f257608081015160c08201526116fa565b60c081018290525b61171a8160c0015160405180602001604052808460200151815250611ec8565b604083018190528282600381111561172e57fe5b600381111561173957fe5b9052505060c0810151600b54604080516370a0823160e01b815230600482015290516001600160a01b03909216916370a0823191602480820192602092909190829003018186803b15801561178d57600080fd5b505afa1580156117a1573d6000803e3d6000fd5b505050506040513d60208110156117b757600080fd5b5051101561180c576040805162461bcd60e51b815260206004820152601f60248201527f4e6f7420656e6f75676820737461626c65636f696e20696e207661756c742e00604482015290519081900360640190fd5b336000908152601060205260408120546080830151111561184e5733600090815260106020526040902054608083015161184b9163ffffffff611fa016565b90505b60c0820151611863908263ffffffff611fa016565b60a083015260c082015181116119405733600090815260116020526040902054611893908263ffffffff61214e16565b3360009081526011602090815260408083209390935560109052205460a08301511115611907576040805162461bcd60e51b815260206004820152601960248201527f4572726f722063616c63756c6174696e67207265776172642e00000000000000604482015290519081900360640190fd5b60a08201513360009081526010602052604090205461192b9163ffffffff611fa016565b33600090815260106020526040902055611975565b60c0820151336000908152601160205260409020546119649163ffffffff61214e16565b336000908152601160205260409020555b600c546040808401518151632770a7eb60e21b8152336004820152602481019190915290516001600160a01b0390921691639dc29fac9160448082019260009290919082900301818387803b1580156119cd57600080fd5b505af11580156119e1573d6000803e3d6000fd5b5050600b5460c08501516040805163a9059cbb60e01b81523360048201526024810192909252516001600160a01b03909216935063a9059cbb92506044808201926020929091908290030181600087803b158015611a3e57600080fd5b505af1158015611a52573d6000803e3d6000fd5b505050506040513d6020811015611a6857600080fd5b505060c08201516040808401518151338152602081019390935282820152517fac45f50416433593e7c9a1f3e0d5f887c530c22d776e1057ecaacb750d24b9409181900360600190a1505050565b600b54604080516370a0823160e01b815230600482015290516000926001600160a01b0316916370a08231916024808301926020929190829003018186803b158015610f3057600080fd5b600080611b0c6115ad565b600c54604080516370a0823160e01b81526001600160a01b038781166004830152915193945060009391909216916370a08231916024808301926020929190829003018186803b158015611b5f57600080fd5b505afa158015611b73573d6000803e3d6000fd5b505050506040513d6020811015611b8957600080fd5b50516001600160a01b03851660009081526010602052604090205490915081611bce57505050506001600160a01b0381166000908152601160205260409020546109a6565b600080611be960405180602001604052808781525085611f89565b90925090506000611c00828563ffffffff611fa016565b6001600160a01b03891660009081526011602052604081205491925090611c2e90839063ffffffff61214e16565b9998505050505050505050565b60106020526000908152604090205481565b600b546001600160a01b031681565b611c64611f1b565b6000546001600160a01b03908116911614611cc6576040805162461bcd60e51b815260206004820181905260248201527f4f776e61626c653a2063616c6c6572206973206e6f7420746865206f776e6572604482015290519081900360640190fd5b6001600160a01b038116611d0b5760405162461bcd60e51b815260040180806020018281038252602681526020018061275b6026913960400191505060405180910390fd5b600080546040516001600160a01b03808516939216917f8be0079c531659141344cd1fd0a4f28419497f9722a3daafe3b4186f6b6457e091a3600080546001600160a01b0319166001600160a01b0392909216919091179055565b600e546000906001600160a01b03166315f24053611d82611ab6565b6005546006546040518463ffffffff1660e01b815260040180848152602001838152602001828152602001935050505060206040518083038186803b158015610f3057600080fd5b604080516001600160a01b0380861660248301528416604482015260648082018490528251808303909101815260849091019091526020810180516001600160e01b03166323b872dd60e01b179052611e24908590612297565b50505050565b600080838311611e41575060009050818303611e49565b506003905060005b9250929050565b600080838301848110611e6857600092509050611e49565b506002915060009050611e49565b604080516001600160a01b038416602482015260448082018490528251808303909101815260649091019091526020810180516001600160e01b031663a9059cbb60e01b179052610aee908490612297565b6000806000611ed56126dd565b611edf8686612348565b90925090506000826003811115611ef257fe5b14611f035750915060009050611e49565b6000611f0e826123a7565b9350935050509250929050565b3390565b60008083611f3257506000905080611e49565b83830283858281611f3f57fe5b0414611f5357506002915060009050611e49565b600092509050611e49565b60008082611f725750600190506000611e49565b6000838581611f7d57fe5b04915091509250929050565b6000806000611f966126dd565b611edf868661208a565b6000611fe283836040518060400160405280601e81526020017f536166654d6174683a207375627472616374696f6e206f766572666c6f7700008152506123b6565b90505b92915050565b600082611ffa57506000611fe5565b8282028284828161200757fe5b0414611fe25760405162461bcd60e51b81526004018080602001828103825260218152602001806127a46021913960400191505060405180910390fd5b6000611fe283836040518060400160405280601a81526020017f536166654d6174683a206469766973696f6e206279207a65726f00000000000081525061244d565b4390565b60006120946126dd565b6000806120a5866000015186611f1f565b909250905060008260038111156120b857fe5b146120d757506040805160208101909152600081529092509050611e49565b60408051602081019091529081526000969095509350505050565b60008060006120ff6126dd565b612109878761208a565b9092509050600082600381111561211c57fe5b1461212d5750915060009050612146565b61213f612139826123a7565b86611e50565b9350935050505b935093915050565b600082820183811015611fe2576040805162461bcd60e51b815260206004820152601b60248201527f536166654d6174683a206164646974696f6e206f766572666c6f770000000000604482015290519081900360640190fd5b6000806000806121b88787611e50565b909250905060008260038111156121cb57fe5b146121dc5750915060009050612146565b61213f8186611e2a565b60006121f06126dd565b60008061220586670de0b6b3a7640000611f1f565b9092509050600082600381111561221857fe5b1461223757506040805160208101909152600081529092509050611e49565b6000806122448388611f5e565b9092509050600082600381111561225757fe5b1461227a5781604051806020016040528060008152509550955050505050611e49565b604080516020810190915290815260009890975095505050505050565b60606122ec826040518060400160405280602081526020017f5361666545524332303a206c6f772d6c6576656c2063616c6c206661696c6564815250856001600160a01b03166124b29092919063ffffffff16565b805190915015610aee5780806020019051602081101561230b57600080fd5b5051610aee5760405162461bcd60e51b815260040180806020018281038252602a815260200180612829602a913960400191505060405180910390fd5b60006123526126dd565b600080612367670de0b6b3a764000087611f1f565b9092509050600082600381111561237a57fe5b1461239957506040805160208101909152600081529092509050611e49565b611f0e8186600001516121e6565b51670de0b6b3a7640000900490565b600081848411156124455760405162461bcd60e51b81526004018080602001828103825283818151815260200191508051906020019080838360005b8381101561240a5781810151838201526020016123f2565b50505050905090810190601f1680156124375780820380516001836020036101000a031916815260200191505b509250505060405180910390fd5b505050900390565b6000818361249c5760405162461bcd60e51b815260206004820181815283516024840152835190928392604490910191908501908083836000831561240a5781810151838201526020016123f2565b5060008385816124a857fe5b0495945050505050565b60606124c184846000856124c9565b949350505050565b60606124d485612636565b612525576040805162461bcd60e51b815260206004820152601d60248201527f416464726573733a2063616c6c20746f206e6f6e2d636f6e7472616374000000604482015290519081900360640190fd5b60006060866001600160a01b031685876040518082805190602001908083835b602083106125645780518252601f199092019160209182019101612545565b6001836020036101000a03801982511681845116808217855250505050505090500191505060006040518083038185875af1925050503d80600081146125c6576040519150601f19603f3d011682016040523d82523d6000602084013e6125cb565b606091505b509150915081156125df5791506124c19050565b8051156125ef5780518082602001fd5b60405162461bcd60e51b815260206004820181815286516024840152865187939192839260440191908501908083836000831561240a5781810151838201526020016123f2565b3b151590565b604080516101208101909152806000815260200160008152602001600081526020016000815260200160008152602001600081526020016000815260200160008152602001600081525090565b604080516080810190915280600081526020016000815260200160008152602001600081525090565b6040805160808101909152806000815260200160008152602001600081526020016000151581525090565b6040518060200160405280600081525090565b6040805160e081019091528060008152602001600081526020016000815260200160008152602001600081526020016000815260200160008152509056fe596f752061726520747279696e6720746f20706179206261636b206d6f7265207468616e20796f75206f77654f776e61626c653a206e6577206f776e657220697320746865207a65726f2061646472657373596f752061726520747279696e6720746f20776974686472617720746f6f206d756368536166654d6174683a206d756c7469706c69636174696f6e206f766572666c6f77526570617920626f72726f77206e6577206163636f756e742062616c616e63652063616c63756c6174696f6e206661696c6564526570617920626f72726f77206e657720746f74616c2062616c616e63652063616c63756c6174696f6e206661696c65645361666545524332303a204552433230206f7065726174696f6e20646964206e6f742073756363656564a2646970667358221220bcb501100e11f57e27d9cc8cae17024cad356f9fe325fb1b9f6cc51ebd288fdf64736f6c6343000606003360806040523480156200001157600080fd5b50604051620013a1380380620013a1833981810160405260608110156200003757600080fd5b8151602083018051604051929492938301929190846401000000008211156200005f57600080fd5b9083019060208201858111156200007557600080fd5b82516401000000008111828201881017156200009057600080fd5b82525081516020918201929091019080838360005b83811015620000bf578181015183820152602001620000a5565b50505050905090810190601f168015620000ed5780820380516001836020036101000a031916815260200191505b50604052602001805160405193929190846401000000008211156200011157600080fd5b9083019060208201858111156200012757600080fd5b82516401000000008111828201881017156200014257600080fd5b82525081516020918201929091019080838360005b838110156200017157818101518382015260200162000157565b50505050905090810190601f1680156200019f5780820380516001836020036101000a031916815260200191505b5060405250505080826000620001ba6200026c60201b60201c565b600080546001600160a01b0319166001600160a01b0383169081178255604051929350917f8be0079c531659141344cd1fd0a4f28419497f9722a3daafe3b4186f6b6457e0908290a35081516200021990600490602085019062000271565b5080516200022f90600590602084019062000271565b5050600680546001600160a01b0390951661010002610100600160a81b031960ff1990961660121795909516949094179093555062000313915050565b335b90565b828054600181600116156101000203166002900490600052602060002090601f016020900481019282601f10620002b457805160ff1916838001178555620002e4565b82800160010185558215620002e4579182015b82811115620002e4578251825591602001919060010190620002c7565b50620002f2929150620002f6565b5090565b6200026e91905b80821115620002f25760008155600101620002fd565b61107e80620003236000396000f3fe608060405234801561001057600080fd5b506004361061010b5760003560e01c8063715018a6116100a2578063a457c2d711610071578063a457c2d71461031b578063a9059cbb14610347578063dd62ed3e14610373578063e9cbd822146103a1578063f2fde38b146103a95761010b565b8063715018a6146102bb5780638da5cb5b146102c357806395d89b41146102e75780639dc29fac146102ef5761010b565b8063313ce567116100de578063313ce5671461021d578063395093511461023b57806340c10f191461026757806370a08231146102955761010b565b806306fdde0314610110578063095ea7b31461018d57806318160ddd146101cd57806323b872dd146101e7575b600080fd5b6101186103cf565b6040805160208082528351818301528351919283929083019185019080838360005b8381101561015257818101518382015260200161013a565b50505050905090810190601f16801561017f5780820380516001836020036101000a031916815260200191505b509250505060405180910390f35b6101b9600480360360408110156101a357600080fd5b506001600160a01b038135169060200135610465565b604080519115158252519081900360200190f35b6101d5610482565b60408051918252519081900360200190f35b6101b9600480360360608110156101fd57600080fd5b506001600160a01b03813581169160208101359091169060400135610488565b610225610515565b6040805160ff9092168252519081900360200190f35b6101b96004803603604081101561025157600080fd5b506001600160a01b03813516906020013561051e565b6102936004803603604081101561027d57600080fd5b506001600160a01b038135169060200135610572565b005b6101d5600480360360208110156102ab57600080fd5b50356001600160a01b03166105d8565b6102936105f3565b6102cb610695565b604080516001600160a01b039092168252519081900360200190f35b6101186106a4565b6102936004803603604081101561030557600080fd5b506001600160a01b038135169060200135610705565b6101b96004803603604081101561033157600080fd5b506001600160a01b038135169060200135610767565b6101b96004803603604081101561035d57600080fd5b506001600160a01b0381351690602001356107d5565b6101d56004803603604081101561038957600080fd5b506001600160a01b03813581169160200135166107e9565b6102cb610814565b610293600480360360208110156103bf57600080fd5b50356001600160a01b0316610828565b60048054604080516020601f600260001961010060018816150201909516949094049384018190048102820181019092528281526060939092909183018282801561045b5780601f106104305761010080835404028352916020019161045b565b820191906000526020600020905b81548152906001019060200180831161043e57829003601f168201915b5050505050905090565b6000610479610472610920565b8484610924565b50600192915050565b60035490565b6000610495848484610a10565b61050b846104a1610920565b61050685604051806060016040528060288152602001610f72602891396001600160a01b038a166000908152600260205260408120906104df610920565b6001600160a01b03168152602081019190915260400160002054919063ffffffff610b7916565b610924565b5060019392505050565b60065460ff1690565b600061047961052b610920565b84610506856002600061053c610920565b6001600160a01b03908116825260208083019390935260409182016000908120918c16815292529020549063ffffffff610c1016565b61057a610920565b6000546001600160a01b039081169116146105ca576040805162461bcd60e51b81526020600482018190526024820152600080516020610f9a833981519152604482015290519081900360640190fd5b6105d48282610c71565b5050565b6001600160a01b031660009081526001602052604090205490565b6105fb610920565b6000546001600160a01b0390811691161461064b576040805162461bcd60e51b81526020600482018190526024820152600080516020610f9a833981519152604482015290519081900360640190fd5b600080546040516001600160a01b03909116907f8be0079c531659141344cd1fd0a4f28419497f9722a3daafe3b4186f6b6457e0908390a3600080546001600160a01b0319169055565b6000546001600160a01b031690565b60058054604080516020601f600260001961010060018816150201909516949094049384018190048102820181019092528281526060939092909183018282801561045b5780601f106104305761010080835404028352916020019161045b565b61070d610920565b6000546001600160a01b0390811691161461075d576040805162461bcd60e51b81526020600482018190526024820152600080516020610f9a833981519152604482015290519081900360640190fd5b6105d48282610d6f565b6000610479610774610920565b8461050685604051806060016040528060258152602001611024602591396002600061079e610920565b6001600160a01b03908116825260208083019390935260409182016000908120918d1681529252902054919063ffffffff610b7916565b60006104796107e2610920565b8484610a10565b6001600160a01b03918216600090815260026020908152604080832093909416825291909152205490565b60065461010090046001600160a01b031681565b610830610920565b6000546001600160a01b03908116911614610880576040805162461bcd60e51b81526020600482018190526024820152600080516020610f9a833981519152604482015290519081900360640190fd5b6001600160a01b0381166108c55760405162461bcd60e51b8152600401808060200182810382526026815260200180610f046026913960400191505060405180910390fd5b600080546040516001600160a01b03808516939216917f8be0079c531659141344cd1fd0a4f28419497f9722a3daafe3b4186f6b6457e091a3600080546001600160a01b0319166001600160a01b0392909216919091179055565b3390565b6001600160a01b0383166109695760405162461bcd60e51b81526004018080602001828103825260248152602001806110006024913960400191505060405180910390fd5b6001600160a01b0382166109ae5760405162461bcd60e51b8152600401808060200182810382526022815260200180610f2a6022913960400191505060405180910390fd5b6001600160a01b03808416600081815260026020908152604080832094871680845294825291829020859055815185815291517f8c5be1e5ebec7d5bd14f71427d1e84f3dd0314c0f7b2291e5b200ac8c7c3b9259281900390910190a3505050565b6001600160a01b038316610a555760405162461bcd60e51b8152600401808060200182810382526025815260200180610fdb6025913960400191505060405180910390fd5b6001600160a01b038216610a9a5760405162461bcd60e51b8152600401808060200182810382526023815260200180610ebf6023913960400191505060405180910390fd5b610aa5838383610e77565b610ae881604051806060016040528060268152602001610f4c602691396001600160a01b038616600090815260016020526040902054919063ffffffff610b7916565b6001600160a01b038085166000908152600160205260408082209390935590841681522054610b1d908263ffffffff610c1016565b6001600160a01b0380841660008181526001602090815260409182902094909455805185815290519193928716927fddf252ad1be2c89b69c2b068fc378daa952ba7f163c4a11628f55a4df523b3ef92918290030190a3505050565b60008184841115610c085760405162461bcd60e51b81526004018080602001828103825283818151815260200191508051906020019080838360005b83811015610bcd578181015183820152602001610bb5565b50505050905090810190601f168015610bfa5780820380516001836020036101000a031916815260200191505b509250505060405180910390fd5b505050900390565b600082820183811015610c6a576040805162461bcd60e51b815260206004820152601b60248201527f536166654d6174683a206164646974696f6e206f766572666c6f770000000000604482015290519081900360640190fd5b9392505050565b6001600160a01b038216610ccc576040805162461bcd60e51b815260206004820152601f60248201527f45524332303a206d696e7420746f20746865207a65726f206164647265737300604482015290519081900360640190fd5b610cd860008383610e77565b600354610ceb908263ffffffff610c1016565b6003556001600160a01b038216600090815260016020526040902054610d17908263ffffffff610c1016565b6001600160a01b03831660008181526001602090815260408083209490945583518581529351929391927fddf252ad1be2c89b69c2b068fc378daa952ba7f163c4a11628f55a4df523b3ef9281900390910190a35050565b6001600160a01b038216610db45760405162461bcd60e51b8152600401808060200182810382526021815260200180610fba6021913960400191505060405180910390fd5b610dc082600083610e77565b610e0381604051806060016040528060228152602001610ee2602291396001600160a01b038516600090815260016020526040902054919063ffffffff610b7916565b6001600160a01b038316600090815260016020526040902055600354610e2f908263ffffffff610e7c16565b6003556040805182815290516000916001600160a01b038516917fddf252ad1be2c89b69c2b068fc378daa952ba7f163c4a11628f55a4df523b3ef9181900360200190a35050565b505050565b6000610c6a83836040518060400160405280601e81526020017f536166654d6174683a207375627472616374696f6e206f766572666c6f770000815250610b7956fe45524332303a207472616e7366657220746f20746865207a65726f206164647265737345524332303a206275726e20616d6f756e7420657863656564732062616c616e63654f776e61626c653a206e6577206f776e657220697320746865207a65726f206164647265737345524332303a20617070726f766520746f20746865207a65726f206164647265737345524332303a207472616e7366657220616d6f756e7420657863656564732062616c616e636545524332303a207472616e7366657220616d6f756e74206578636565647320616c6c6f77616e63654f776e61626c653a2063616c6c6572206973206e6f7420746865206f776e657245524332303a206275726e2066726f6d20746865207a65726f206164647265737345524332303a207472616e736665722066726f6d20746865207a65726f206164647265737345524332303a20617070726f76652066726f6d20746865207a65726f206164647265737345524332303a2064656372656173656420616c6c6f77616e63652062656c6f77207a65726fa26469706673582212204534f3b589de5159f884ad9db3a386e94aa6877e24127adfc82af7f80e993adc64736f6c63430006060033",
  "immutableReferences": {},
  "source": "pragma solidity ^0.6.2;\n\nimport \"@openzeppelin/contracts/access/Ownable.sol\";\nimport \"@openzeppelin/contracts/math/SafeMath.sol\";\nimport \"@openzeppelin/contracts/token/ERC20/ERC20.sol\";\nimport \"@openzeppelin/contracts/token/ERC20/SafeERC20.sol\";\n\nimport \"./compound/Exponential.sol\";\nimport \"./compound/InterestRateModel.sol\";\nimport \"./interfaces/UniswapLPOracleFactoryI.sol\";\nimport \"./WarpWrapperToken.sol\";\nimport \"./interfaces/WarpControlI.sol\";\n\n////////////////////////////////////////////////////////////////////////////////////////////\n/// @title WarpVaultSC\n/// @author Christopher Dixon\n////////////////////////////////////////////////////////////////////////////////////////////\n/**\n@notice the WarpVaultSC contract is the main point of interface for a specific LP asset class and an end user in the\nWarp lending platform. This contract is responsible for distributing WarpWrapper tokens in exchange for stablecoin assets,\nholding and accounting of stablecoins and LP tokens and all associates lending/borrowing calculations for a specific Warp LP asset class.\nThis contract inherits Ownership and ERC20 functionality from the Open Zeppelin Library as well as Exponential and the InterestRateModel contracts\nfrom the coumpound protocol.\n**/\n\ncontract WarpVaultSC is Ownable, Exponential {\n    using SafeMath for uint256;\n    using SafeERC20 for ERC20;\n\n    uint256 internal initialExchangeRateMantissa;\n    uint256 public reserveFactorMantissa;\n    uint256 public accrualBlockNumber;\n    uint256 public borrowIndex;\n    uint256 public totalBorrows;\n    uint256 public totalReserves;\n    uint256 internal constant borrowRateMaxMantissa = 0.0005e16;\n    uint256 public percent = 1500;\n    uint256 public divisor = 10000;\n    uint256 public timeWizard;\n    address public warpTeam;\n\n    ERC20 public stablecoin;\n    WarpWrapperToken public wStableCoin;\n    WarpControlI public WC;\n    InterestRateModel public InterestRate;\n\n    mapping(address => BorrowSnapshot) public accountBorrows;\n    mapping(address => uint256) public principalBalance;\n    mapping(address => uint256) public historicalReward;\n\n    event InterestAccrued(uint accrualBlockNumber, uint borrowIndex, uint totalBorrows, uint totalReserves);\n    event StableCoinLent(address _lender, uint _amountLent, uint _amountOfWarpMinted);\n    event StableCoinWithdraw(address _lender, uint _amountWithdrawn, uint _amountOfWarpBurnt);\n    event LoanRepayed(address _borrower, uint _repayAmount, uint remainingPrinciple, uint remainingInterest);\n    event ReserveWithdraw(uint _amount);\n\n    /**\n    @notice struct for borrow balance information\n    @member principal Total balance (with accrued interest), after applying the most recent balance-changing action\n    @member interestIndex Global borrowIndex as of the most recent balance-changing action\n    */\n    struct BorrowSnapshot {\n        uint256 principal;\n        uint256 interestIndex;\n    }\n\n    /**\n    @dev Throws if called by any account other than a warp control\n    **/\n    modifier onlyWC() {\n        require(msg.sender == address(WC));\n        _;\n    }\n\n    /**\n    @dev Throws if a function is called before the time wizard allows it\n    **/\n        modifier angryWizard() {\n            require(now > timeWizard);\n            _;\n        }\n\n    /**\n    @dev Throws if a function is called by anyone but the warp team\n    **/\n        modifier onlyWarpT() {\n              require(msg.sender == warpTeam);\n              _;\n          }\n\n    /**\n    @notice constructor sets up token names and symbols for the WarpWrapperToken\n    @param _InterestRate is the address of the Interest Rate Model this vault will be using\n    @param _StableCoin is the address of the stablecoin this vault will manage\n    @param _warpTeam is the address of the Warp Team used for fees\n    @param _initialExchangeRate is the initial exchange rate mantissa used to determine how a Warp wrapper token will be distributed when stablecoin is received\n    @param _timelock is a variable representing the number of seconds the timeWizard will prevent withdraws and borrows from a contracts(one week is 605800 seconds)\n    **/\n    constructor(\n        address _InterestRate,\n        address _StableCoin,\n        address _warpControl,\n        address _warpTeam,\n        uint256 _initialExchangeRate,\n        uint256 _timelock,\n        uint256 _reserveFactorMantissa\n    ) public {\n        WC = WarpControlI(_warpControl);\n        stablecoin = ERC20(_StableCoin);\n        InterestRate = InterestRateModel(_InterestRate);\n        accrualBlockNumber = getBlockNumber();\n        borrowIndex = mantissaOne;\n        initialExchangeRateMantissa = _initialExchangeRate; //sets the initialExchangeRateMantissa\n        warpTeam = _warpTeam;\n        timeWizard = now.add(_timelock);\n        reserveFactorMantissa = _reserveFactorMantissa;\n        wStableCoin = new WarpWrapperToken(\n            address(stablecoin),\n            stablecoin.name(),\n            stablecoin.symbol()\n        );\n    }\n    /**\n    @notice getSCDecimals allows for easy retrieval of the vaults stablecoin decimals\n    **/\n    function getSCDecimals() public view returns(uint8) {\n        return stablecoin.decimals();\n    }\n\n    /**\n    @notice getSCAddress allows for the easy retrieval of the vaults stablecoin address\n    **/\n    function getSCAddress() public view returns(address) {\n        return address(stablecoin);\n    }\n\n    /**\n    @notice upgrade is used when upgrading to a new version of the WarpControl contracts\n    @dev this is a protected function that can only be called by the WarpControl contract\n    **/\n    function upgrade(address _warpControl) public onlyWC {\n        WC = WarpControlI(_warpControl);\n    }\n\n    function updateTeam(address _team) public onlyWC {\n        warpTeam = _team;\n    }\n\n    /**\n    @notice getCashPrior is a view funcion that returns the USD balance of all held underlying stablecoin assets\n    **/\n    function getCashPrior() public view returns (uint256) {\n        return stablecoin.balanceOf(address(this));\n    }\n\n    /**\n    @notice calculateFee is used to calculate the fee earned by the Warp Platform\n    @param _payedAmount is a uint representing the full amount of stablecoin earned as interest\n        **/\n    function calculateFee(uint256 _payedAmount) public view returns(uint256) {\n        uint256 fee = _payedAmount.mul(percent).div(divisor);\n        return fee;\n    }\n\n    /**\n    @notice withdrawReserves allows the warp team to withdraw the reserves earned by fees\n    @param _amount is the amount of a stablecoin being withdrawn\n    @dev this is a protected function that can only be called by the warpTeam address\n    **/\n    function withdrawReserves(uint _amount) public onlyWarpT{\n      require(totalReserves >= _amount, \"You are trying to withdraw too much\");\n      totalReserves = totalReserves.sub(_amount);\n      stablecoin.safeTransfer(warpTeam, _amount);\n      emit ReserveWithdraw(_amount);\n    }\n\n    /**\n    @notice setNewInterestModel allows for a new interest rate model to be set for this vault\n    @param _newModel is the address of the new interest rate model contract\n    @dev this is a protected function that can only be called by the WarpControl contract\n    **/\n    function setNewInterestModel(address _newModel) public onlyWC {\n      InterestRate = InterestRateModel(_newModel);\n    }\n\n    /**\n    @notice updateReserve allows for a new reserv percentage to be set\n    @param _newReserveMantissa is the reserve percentage scaled by 1e18\n    **/\n    function updateReserve(uint _newReserveMantissa) public onlyWarpT {\n      reserveFactorMantissa = _newReserveMantissa;\n    }\n\n    /**\n    @notice Applies accrued interest to total borrows and reserves\n    @dev This calculates interest accrued from the last checkpointed block\n        up to the current block and writes new checkpoint to storage.\n    **/\n    function accrueInterest() public {\n        //Remember the initial block number\n        uint256 currentBlockNumber = getBlockNumber();\n        uint256 accrualBlockNumberPrior = accrualBlockNumber;\n        //Short-circuit accumulating 0 interest\n        require(accrualBlockNumberPrior != currentBlockNumber, \"Trying to accrue interest twice\");\n        //Read the previous values out of storage\n        uint256 cashPrior = getCashPrior();\n        uint256 borrowsPrior = totalBorrows;\n        uint256 reservesPrior = totalReserves;\n        uint256 borrowIndexPrior = borrowIndex;\n        //Calculate the current borrow interest rate\n        uint256 borrowRateMantissa = InterestRate.getBorrowRate(\n            cashPrior,\n            borrowsPrior,\n            reservesPrior\n        );\n        require(borrowRateMantissa <= borrowRateMaxMantissa, \"Borrow Rate mantissa error\");\n        //Calculate the number of blocks elapsed since the last accrual\n        (MathError mathErr, uint256 blockDelta) = subUInt(\n            currentBlockNumber,\n            accrualBlockNumberPrior\n        );\n        //Calculate the interest accumulated into borrows and reserves and the new index:\n        Exp memory simpleInterestFactor;\n        uint256 interestAccumulated;\n        uint256 totalBorrowsNew;\n        uint256 totalReservesNew;\n        uint256 borrowIndexNew;\n        //simpleInterestFactor = borrowRate * blockDelta\n        (mathErr, simpleInterestFactor) = mulScalar(\n            Exp({mantissa: borrowRateMantissa}),\n            blockDelta\n        );\n        //interestAccumulated = simpleInterestFactor * totalBorrows\n        (mathErr, interestAccumulated) = mulScalarTruncate(\n            simpleInterestFactor,\n            borrowsPrior\n        );\n        //totalBorrowsNew = interestAccumulated + totalBorrows\n        (mathErr, totalBorrowsNew) = addUInt(interestAccumulated, borrowsPrior);\n        //totalReservesNew = interestAccumulated * reserveFactor + totalReserves\n        (mathErr, totalReservesNew) = mulScalarTruncateAddUInt(\n            Exp({mantissa: reserveFactorMantissa}),\n            interestAccumulated,\n            reservesPrior\n        );\n        //borrowIndexNew = simpleInterestFactor * borrowIndex + borrowIndex\n        (mathErr, borrowIndexNew) = mulScalarTruncateAddUInt(\n            simpleInterestFactor,\n            borrowIndexPrior,\n            borrowIndexPrior\n        );\n\n        //Write the previously calculated values into storage\n        accrualBlockNumber = currentBlockNumber;\n        borrowIndex = borrowIndexNew;\n        totalBorrows = totalBorrowsNew;\n        totalReserves = totalReservesNew;\n        emit InterestAccrued(accrualBlockNumber, borrowIndex, totalBorrows, totalReserves);\n    }\n\n    /**\n    @notice returns last calculated account's borrow balance using the prior borrowIndex\n    @param account The address whose balance should be calculated after updating borrowIndex\n    @return The calculated balance\n    **/\n    function borrowBalancePrior(address account) public view returns (uint256) {\n        MathError mathErr;\n        uint256 principalTimesIndex;\n        uint256 result;\n\n        //Get borrowBalance and borrowIndex\n        BorrowSnapshot storage borrowSnapshot = accountBorrows[account];\n        //If borrowBalance = 0 then borrowIndex is likely also 0.\n        //Rather than failing the calculation with a division by 0, we immediately return 0 in this case.\n        if (borrowSnapshot.principal == 0) {\n            return (0);\n        }\n        //Calculate new borrow balance using the interest index:\n        //recentBorrowBalance = borrower.borrowBalance * market.borrowIndex / borrower.borrowIndex\n        (mathErr, principalTimesIndex) = mulUInt(\n            borrowSnapshot.principal,\n            borrowIndex\n        );\n        //if theres a math error return zero so as not to fail\n        if (mathErr != MathError.NO_ERROR) {\n            return (0);\n        }\n        (mathErr, result) = divUInt(\n            principalTimesIndex,\n            borrowSnapshot.interestIndex\n        );\n        //if theres a math error return zero so as not to fail\n        if (mathErr != MathError.NO_ERROR) {\n            return (0);\n        }\n        return (result);\n    }\n\n    /**\n    @notice Accrue interest to updated borrowIndex and then calculate account's borrow balance using the updated borrowIndex\n    @param account The address whose balance should be calculated after updating borrowIndex\n    @return The calculated balance\n    **/\n    function borrowBalanceCurrent(address account) public returns (uint256) {\n        accrueInterest();\n        return borrowBalancePrior(account);\n    }\n\n    /**\n    @notice getBlockNumber allows for easy retrieval of block number\n    **/\n    function getBlockNumber() internal view returns (uint256) {\n        return block.number;\n    }\n\n    /**\n    @notice Returns the current per-block borrow interest rate for this cToken\n    @return The borrow interest rate per block, scaled by 1e18\n    **/\n    function borrowRatePerBlock() public view returns (uint256) {\n        return\n            InterestRate.getBorrowRate(\n                getCashPrior(),\n                totalBorrows,\n                totalReserves\n            );\n    }\n\n    /**\n    @notice Returns the current per-block supply interest rate for this cToken\n    @return The supply interest rate per block, scaled by 1e18\n    **/\n    function supplyRatePerBlock() public view returns (uint256) {\n        return\n            InterestRate.getSupplyRate(\n                getCashPrior(),\n                totalBorrows,\n                totalReserves,\n                reserveFactorMantissa\n            );\n    }\n\n    /**\n     @notice Returns the current total borrows plus accrued interest\n     @return The total borrows with interest\n     **/\n    function totalBorrowsCurrent() external returns (uint256) {\n        accrueInterest();\n        return totalBorrows;\n    }\n\n    /**\n    @notice  return the not up-to-date exchange rate\n    @return Calculated exchange rate scaled by 1e18\n    **/\n    function exchangeRatePrior() public view returns (uint256) {\n        if (wStableCoin.totalSupply() == 0) {\n            //If there are no tokens minted: exchangeRate = initialExchangeRate\n            return initialExchangeRateMantissa;\n        } else {\n            //Otherwise: exchangeRate = (totalCash + totalBorrows - totalReserves) / totalSupply\n            uint256 totalCash = getCashPrior(); //get contract asset balance\n            uint256 cashPlusBorrowsMinusReserves;\n            Exp memory exchangeRate;\n            MathError mathErr;\n            //calculate total value held by contract plus owed to contract\n            (mathErr, cashPlusBorrowsMinusReserves) = addThenSubUInt(\n                totalCash,\n                totalBorrows,\n                totalReserves\n            );\n            //calculate exchange rate\n            (mathErr, exchangeRate) = getExp(\n                cashPlusBorrowsMinusReserves,\n                wStableCoin.totalSupply()\n            );\n            return (exchangeRate.mantissa);\n        }\n    }\n\n    /**\n     @notice Accrue interest then return the up-to-date exchange rate\n     @return Calculated exchange rate scaled by 1e18\n     **/\n    function exchangeRateCurrent() public returns (uint256) {\n        accrueInterest();\n\n        if (wStableCoin.totalSupply() == 0) {\n            //If there are no tokens minted: exchangeRate = initialExchangeRate\n            return initialExchangeRateMantissa;\n        } else {\n            //Otherwise: exchangeRate = (totalCash + totalBorrows - totalReserves) / totalSupply\n            uint256 totalCash = getCashPrior(); //get contract asset balance\n            uint256 cashPlusBorrowsMinusReserves;\n            Exp memory exchangeRate;\n            MathError mathErr;\n            //calculate total value held by contract plus owed to contract\n            (mathErr, cashPlusBorrowsMinusReserves) = addThenSubUInt(\n                totalCash,\n                totalBorrows,\n                totalReserves\n            );\n            //calculate exchange rate\n            (mathErr, exchangeRate) = getExp(\n                cashPlusBorrowsMinusReserves,\n                wStableCoin.totalSupply()\n            );\n            return (exchangeRate.mantissa);\n        }\n    }\n\n    /**\n    @notice Get cash balance of this cToken in the underlying asset in other contracts\n    @return The quantity of underlying asset owned by this contract\n    **/\n    function getCash() external view returns (uint256) {\n        return getCashPrior();\n    }\n\n    //struct used by mint to avoid stack too deep errors\n    struct MintLocalVars {\n        MathError mathErr;\n        uint256 exchangeRateMantissa;\n        uint256 mintTokens;\n        bool isMember;\n    }\n\n    /**\n    @notice lendToWarpVault is used to lend stablecoin assets to a WaprVault\n    @param _amount is the amount of the asset being lent\n    @dev the user will need to first approve the transfer of the underlying asset\n    **/\n    function lendToWarpVault(uint256 _amount) public {\n        //declare struct\n        MintLocalVars memory vars;\n        //retrieve exchange rate\n        vars.exchangeRateMantissa = exchangeRateCurrent();\n        //We get the current exchange rate and calculate the number of WarpWrapperToken to be minted:\n        //mintTokens = _amount / exchangeRate\n        (vars.mathErr, vars.mintTokens) = divScalarByExpTruncate(\n            _amount,\n            Exp({mantissa: vars.exchangeRateMantissa})\n        );\n\n        //transfer appropriate amount of DAI from msg.sender to the Vault\n        stablecoin.safeTransferFrom(msg.sender, address(this), _amount);\n\n        principalBalance[msg.sender] = principalBalance[msg.sender] + _amount;\n\n\n        //mint appropriate Warp DAI\n        wStableCoin.mint(msg.sender, vars.mintTokens);\n        emit StableCoinLent(msg.sender, _amount, vars.mintTokens);\n    }\n\n    struct RedeemLocalVars {\n        MathError mathErr;\n        uint256 exchangeRateMantissa;\n        uint256 burnTokens;\n        uint256 currentWarpBalance;\n        uint256 currentCoinBalance;\n        uint256 principalRedeemed;\n        uint256 amount;\n    }\n\n    /**\n    @notice redeem allows a user to redeem their Warp Wrapper Token for the appropriate amount of underlying stablecoin asset\n    @param _amount is the amount of StableCoin the user wishes to exchange\n    **/\n    function redeem(uint256 _amount) public  {\n\n        RedeemLocalVars memory vars;\n        //retreive the users current Warp Wrapper balance\n        vars.currentWarpBalance = wStableCoin.balanceOf(msg.sender);\n        //retreive current exchange rate\n        vars.exchangeRateMantissa = exchangeRateCurrent();\n\n        (vars.mathErr, vars.currentCoinBalance) = mulScalarTruncate(\n          Exp({mantissa: vars.exchangeRateMantissa}),\n          vars.currentWarpBalance\n        );\n          if(_amount == 0) {\n                vars.amount = vars.currentCoinBalance;\n            } else {\n                vars.amount = _amount;\n            }\n          //We get the current exchange rate and calculate the number of WarpWrapperToken to be burned:\n          //burnTokens = _amount / exchangeRate\n          (vars.mathErr, vars.burnTokens) = divScalarByExpTruncate(\n              vars.amount,\n              Exp({mantissa: vars.exchangeRateMantissa})\n          );\n          //require the vault has enough stablecoin\n        require(stablecoin.balanceOf(address(this)) >= vars.amount, \"Not enough stablecoin in vault.\");\n        //calculate the users current stablecoin balance\n\n        //calculate and record balances for historical tracking\n        uint256 currentStableCoinReward = 0;\n        if (vars.currentCoinBalance > principalBalance[msg.sender]) {\n            currentStableCoinReward = vars.currentCoinBalance.sub(principalBalance[msg.sender]);\n        }\n        vars.principalRedeemed = vars.amount.sub(currentStableCoinReward);\n\n        if (vars.amount >= currentStableCoinReward) {\n            historicalReward[msg.sender] = historicalReward[msg.sender].add(currentStableCoinReward);\n            require(vars.principalRedeemed <= principalBalance[msg.sender], \"Error calculating reward.\");\n            principalBalance[msg.sender] = principalBalance[msg.sender].sub(vars.principalRedeemed);\n        } else {\n            historicalReward[msg.sender] = historicalReward[msg.sender].add(vars.amount);\n        }\n        wStableCoin.burn(msg.sender, vars.burnTokens);\n        stablecoin.transfer(msg.sender, vars.amount);\n        emit StableCoinLent(msg.sender, vars.amount, vars.burnTokens);\n    }\n\n    /**\n    @notice viewAccountBalance is used to view the current balance of an account\n    @param _account is the account whos balance is being viewed\n    **/\n    function viewAccountBalance(address _account) public view returns (uint256) {\n        uint256 exchangeRate = exchangeRatePrior();\n        uint256 accountBalance = wStableCoin.balanceOf(_account);\n\n        MathError mathError;\n        uint256 balance;\n       (mathError, balance) =  mulScalarTruncate(\n            Exp({mantissa: exchangeRate}),\n            accountBalance\n        );\n\n        return balance;\n    }\n\n    /**\n    @notice viewHistoricalReward is used to view the total gains of an account\n    @param _account is the account whos gains are being viewed\n    **/\n    function viewHistoricalReward(address _account) public view returns (uint256) {\n        uint256 exchangeRate = exchangeRatePrior();\n        uint256 currentWarpBalance = wStableCoin.balanceOf(_account);\n        uint256 principal = principalBalance[_account];\n\n        if (currentWarpBalance == 0) {\n            return historicalReward[_account];\n        }\n\n        MathError mathError;\n        uint256 currentStableCoinBalance;\n        (mathError, currentStableCoinBalance) =  mulScalarTruncate(\n            Exp({mantissa: exchangeRate}),\n            currentWarpBalance\n        );\n\n        uint256 currentGains = currentStableCoinBalance.sub(principal);\n        uint256 totalGains = currentGains.add(historicalReward[_account]);\n\n        return totalGains;\n    }\n\n    //struct used by borrow function to avoid stack too deep errors\n    struct BorrowLocalVars {\n        MathError mathErr;\n        uint256 accountBorrows;\n        uint256 accountBorrowsNew;\n        uint256 totalBorrowsNew;\n    }\n\n    /**\n    @notice Sender borrows stablecoin assets from the protocol to their own address\n    @param _borrowAmount The amount of the underlying asset to borrow\n    */\n    function _borrow(uint256 _borrowAmount, address _borrower) external onlyWC angryWizard{\n        //create local vars storage\n        BorrowLocalVars memory vars;\n\n        //Fail if protocol has insufficient underlying cash\n        require(getCashPrior() > _borrowAmount, \"Not enough tokens to lend\");\n        //calculate the new borrower and total borrow balances, failing on overflow:\n        vars.accountBorrows = borrowBalancePrior(_borrower);\n        //accountBorrowsNew = accountBorrows + borrowAmount\n        (vars.mathErr, vars.accountBorrowsNew) = addUInt(\n            vars.accountBorrows,\n            _borrowAmount\n        );\n        //totalBorrowsNew = totalBorrows + borrowAmount\n        (vars.mathErr, vars.totalBorrowsNew) = addUInt(\n            totalBorrows,\n            _borrowAmount\n        );\n        //We write the previously calculated values into storage\n        accountBorrows[_borrower].principal = vars.accountBorrowsNew;\n        accountBorrows[_borrower].interestIndex = borrowIndex;\n        totalBorrows = vars.totalBorrowsNew;\n        //send them their loaned asset\n        stablecoin.safeTransfer(_borrower, _borrowAmount);\n    }\n\n    struct RepayBorrowLocalVars {\n        MathError mathErr;\n        uint256 repayAmount;\n        uint256 borrowerIndex;\n        uint256 accountBorrows;\n        uint256 accountBorrowsNew;\n        uint256 totalBorrowsNew;\n        uint256 totalOwed;\n        uint256 borrowPrinciple;\n        uint256 interestPayed;\n    }\n\n    /**\n    @notice Sender repays their own borrow\n    @param _repayAmount The amount to repay\n    */\n    function repayBorrow(uint256 _repayAmount) public angryWizard{\n        //create local vars storage\n        RepayBorrowLocalVars memory vars;\n\n        //We fetch the amount the borrower owes, with accumulated interest\n        vars.accountBorrows = borrowBalanceCurrent(msg.sender);\n        //require the borrower cant pay more than they owe\n        require(_repayAmount <= vars.accountBorrows, \"You are trying to pay back more than you owe\");\n\n        //If repayAmount == 0, repayAmount = accountBorrows\n        if (_repayAmount == 0) {\n            vars.repayAmount = vars.accountBorrows;\n        } else {\n            vars.repayAmount = _repayAmount;\n        }\n\n        require(stablecoin.balanceOf(msg.sender) >= vars.repayAmount, \"Not enough stablecoin to repay\");\n        //transfer the stablecoin from the borrower\n        stablecoin.safeTransferFrom(msg.sender, address(this), vars.repayAmount);\n\n        //We calculate the new borrower and total borrow balances\n        //accountBorrowsNew = accountBorrows - actualRepayAmount\n        (vars.mathErr, vars.accountBorrowsNew) = subUInt(\n            vars.accountBorrows,\n            vars.repayAmount\n        );\n        require(vars.mathErr == MathError.NO_ERROR, \"Repay borrow new account balance calculation failed\");\n\n        //totalBorrowsNew = totalBorrows - actualRepayAmount\n        (vars.mathErr, vars.totalBorrowsNew) = subUInt(\n            totalBorrows,\n            vars.repayAmount\n        );\n        require(vars.mathErr == MathError.NO_ERROR, \"Repay borrow new total balance calculation failed\");\n\n        /* We write the previously calculated values into storage */\n        totalBorrows = vars.totalBorrowsNew;\n        accountBorrows[msg.sender].principal = vars.accountBorrowsNew;\n        accountBorrows[msg.sender].interestIndex = borrowIndex;\n\n\n        emit LoanRepayed(msg.sender, _repayAmount, accountBorrows[msg.sender].principal, accountBorrows[msg.sender].interestIndex);\n    }\n\n    /**\n    @notice repayLiquidatedLoan is a function used by the Warp Control contract to repay a loan on behalf of a liquidator\n    @param _borrower is the address of the borrower who took out the loan\n    @param _liquidator is the address of the account who is liquidating the loan\n    @param _amount is the amount of StableCoin being repayed\n    @dev this function uses the onlyWC modifier which means it can only be called by the Warp Control contract\n    **/\n    function _repayLiquidatedLoan(\n        address _borrower,\n        address _liquidator,\n        uint256 _amount\n    ) public onlyWC angryWizard{\n      stablecoin.safeTransferFrom(_liquidator, address(this), _amount);\n        //calculate the fee on the principle received\n        uint256 fee = calculateFee(_amount);\n        //transfer fee amount to Warp team\n        totalReserves = totalReserves.add(fee);\n        // Clear the borrowers loan\n        accountBorrows[_borrower].principal = 0;\n        accountBorrows[_borrower].interestIndex = 0;\n        totalBorrows = totalBorrows.sub(_amount);\n\n        //transfer the owed amount of stablecoin from the borrower to this contract\n    }\n\n\n}\n",
  "sourcePath": "/home/stan36/repos/Warp/Smart-Contracts/contracts/WarpVaultSC.sol",
  "compiler": {
    "name": "solc",
    "version": "0.6.6+commit.6c089d02.Emscripten.clang"
  },
  "schemaVersion": "3.3.2",
  "updatedAt": "2020-12-10T23:21:40.455Z",
  "devdoc": {
    "methods": {
      "_borrow(uint256,address)": {
        "params": {
          "_borrowAmount": "The amount of the underlying asset to borrow"
        }
      },
      "_repayLiquidatedLoan(address,address,uint256)": {
        "details": "this function uses the onlyWC modifier which means it can only be called by the Warp Control contract*",
        "params": {
          "_amount": "is the amount of StableCoin being repayed",
          "_borrower": "is the address of the borrower who took out the loan",
          "_liquidator": "is the address of the account who is liquidating the loan"
        }
      },
      "accrueInterest()": {
        "details": "This calculates interest accrued from the last checkpointed block up to the current block and writes new checkpoint to storage.*"
      },
      "borrowBalanceCurrent(address)": {
        "params": {
          "account": "The address whose balance should be calculated after updating borrowIndex"
        },
        "returns": {
          "_0": "The calculated balance*"
        }
      },
      "borrowBalancePrior(address)": {
        "params": {
          "account": "The address whose balance should be calculated after updating borrowIndex"
        },
        "returns": {
          "_0": "The calculated balance*"
        }
      },
      "calculateFee(uint256)": {
        "params": {
          "_payedAmount": "is a uint representing the full amount of stablecoin earned as interest*"
        }
      },
      "constructor": {
        "params": {
          "_InterestRate": "is the address of the Interest Rate Model this vault will be using",
          "_StableCoin": "is the address of the stablecoin this vault will manage",
          "_initialExchangeRate": "is the initial exchange rate mantissa used to determine how a Warp wrapper token will be distributed when stablecoin is received",
          "_timelock": "is a variable representing the number of seconds the timeWizard will prevent withdraws and borrows from a contracts(one week is 605800 seconds)*",
          "_warpTeam": "is the address of the Warp Team used for fees"
        }
      },
      "lendToWarpVault(uint256)": {
        "details": "the user will need to first approve the transfer of the underlying asset*",
        "params": {
          "_amount": "is the amount of the asset being lent"
        }
      },
      "owner()": {
        "details": "Returns the address of the current owner."
      },
      "redeem(uint256)": {
        "params": {
          "_amount": "is the amount of StableCoin the user wishes to exchange*"
        }
      },
      "renounceOwnership()": {
        "details": "Leaves the contract without owner. It will not be possible to call `onlyOwner` functions anymore. Can only be called by the current owner.     * NOTE: Renouncing ownership will leave the contract without an owner, thereby removing any functionality that is only available to the owner."
      },
      "repayBorrow(uint256)": {
        "params": {
          "_repayAmount": "The amount to repay"
        }
      },
      "setNewInterestModel(address)": {
        "details": "this is a protected function that can only be called by the WarpControl contract*",
        "params": {
          "_newModel": "is the address of the new interest rate model contract"
        }
      },
      "transferOwnership(address)": {
        "details": "Transfers ownership of the contract to a new account (`newOwner`). Can only be called by the current owner."
      },
      "updateReserve(uint256)": {
        "params": {
          "_newReserveMantissa": "is the reserve percentage scaled by 1e18*"
        }
      },
      "upgrade(address)": {
        "details": "this is a protected function that can only be called by the WarpControl contract*"
      },
      "viewAccountBalance(address)": {
        "params": {
          "_account": "is the account whos balance is being viewed*"
        }
      },
      "viewHistoricalReward(address)": {
        "params": {
          "_account": "is the account whos gains are being viewed*"
        }
      },
      "withdrawReserves(uint256)": {
        "details": "this is a protected function that can only be called by the warpTeam address*",
        "params": {
          "_amount": "is the amount of a stablecoin being withdrawn"
        }
      }
    }
  },
  "userdoc": {
    "methods": {
      "_borrow(uint256,address)": {
        "notice": "Sender borrows stablecoin assets from the protocol to their own address"
      },
      "_repayLiquidatedLoan(address,address,uint256)": {
        "notice": "repayLiquidatedLoan is a function used by the Warp Control contract to repay a loan on behalf of a liquidator"
      },
      "accrueInterest()": {
        "notice": "Applies accrued interest to total borrows and reserves"
      },
      "borrowBalanceCurrent(address)": {
        "notice": "Accrue interest to updated borrowIndex and then calculate account's borrow balance using the updated borrowIndex"
      },
      "borrowBalancePrior(address)": {
        "notice": "returns last calculated account's borrow balance using the prior borrowIndex"
      },
      "borrowRatePerBlock()": {
        "notice": "Returns the current per-block borrow interest rate for this cToken"
      },
      "calculateFee(uint256)": {
        "notice": "calculateFee is used to calculate the fee earned by the Warp Platform"
      },
      "constructor": "constructor sets up token names and symbols for the WarpWrapperToken",
      "exchangeRateCurrent()": {
        "notice": "Accrue interest then return the up-to-date exchange rate"
      },
      "exchangeRatePrior()": {
        "notice": "return the not up-to-date exchange rate"
      },
      "getCash()": {
        "notice": "Get cash balance of this cToken in the underlying asset in other contracts"
      },
      "getCashPrior()": {
        "notice": "getCashPrior is a view funcion that returns the USD balance of all held underlying stablecoin assets*"
      },
      "getSCAddress()": {
        "notice": "getSCAddress allows for the easy retrieval of the vaults stablecoin address*"
      },
      "getSCDecimals()": {
        "notice": "getSCDecimals allows for easy retrieval of the vaults stablecoin decimals*"
      },
      "lendToWarpVault(uint256)": {
        "notice": "lendToWarpVault is used to lend stablecoin assets to a WaprVault"
      },
      "redeem(uint256)": {
        "notice": "redeem allows a user to redeem their Warp Wrapper Token for the appropriate amount of underlying stablecoin asset"
      },
      "repayBorrow(uint256)": {
        "notice": "Sender repays their own borrow"
      },
      "setNewInterestModel(address)": {
        "notice": "setNewInterestModel allows for a new interest rate model to be set for this vault"
      },
      "supplyRatePerBlock()": {
        "notice": "Returns the current per-block supply interest rate for this cToken"
      },
      "totalBorrowsCurrent()": {
        "notice": "Returns the current total borrows plus accrued interest"
      },
      "updateReserve(uint256)": {
        "notice": "updateReserve allows for a new reserv percentage to be set"
      },
      "upgrade(address)": {
        "notice": "upgrade is used when upgrading to a new version of the WarpControl contracts"
      },
      "viewAccountBalance(address)": {
        "notice": "viewAccountBalance is used to view the current balance of an account"
      },
      "viewHistoricalReward(address)": {
        "notice": "viewHistoricalReward is used to view the total gains of an account"
      },
      "withdrawReserves(uint256)": {
        "notice": "withdrawReserves allows the warp team to withdraw the reserves earned by fees"
      }
    },
    "notice": "the WarpVaultSC contract is the main point of interface for a specific LP asset class and an end user in the Warp lending platform. This contract is responsible for distributing WarpWrapper tokens in exchange for stablecoin assets, holding and accounting of stablecoins and LP tokens and all associates lending/borrowing calculations for a specific Warp LP asset class. This contract inherits Ownership and ERC20 functionality from the Open Zeppelin Library as well as Exponential and the InterestRateModel contracts from the coumpound protocol.*"
  }
}