{
  "contractName": "WarpControl",
  "abi": [
    {
      "inputs": [
        {
          "internalType": "address",
          "name": "_oracle",
          "type": "address"
        },
        {
          "internalType": "address",
          "name": "_DAI",
          "type": "address"
        },
        {
          "internalType": "address",
          "name": "_USDC",
          "type": "address"
        },
        {
          "internalType": "address",
          "name": "_USDT",
          "type": "address"
        },
        {
          "internalType": "uint256",
          "name": "_baseRatePerYear",
          "type": "uint256"
        },
        {
          "internalType": "uint256",
          "name": "_multiplierPerYear",
          "type": "uint256"
        },
        {
          "internalType": "uint256",
          "name": "_jumpMultiplierPerYear",
          "type": "uint256"
        },
        {
          "internalType": "uint256",
          "name": "_optimal",
          "type": "uint256"
        },
        {
          "internalType": "uint256",
          "name": "_initialExchangeRate",
          "type": "uint256"
        }
      ],
      "stateMutability": "nonpayable",
      "type": "constructor"
    },
    {
      "anonymous": false,
      "inputs": [
        {
          "indexed": true,
          "internalType": "address",
          "name": "previousOwner",
          "type": "address"
        },
        {
          "indexed": true,
          "internalType": "address",
          "name": "newOwner",
          "type": "address"
        }
      ],
      "name": "OwnershipTransferred",
      "type": "event"
    },
    {
      "inputs": [],
      "name": "Oracle",
      "outputs": [
        {
          "internalType": "contract UniswapLPOracleFactoryI",
          "name": "",
          "type": "address"
        }
      ],
      "stateMutability": "view",
      "type": "function"
    },
    {
      "inputs": [],
      "name": "WVLPF",
      "outputs": [
        {
          "internalType": "contract WarpVaultLPFactoryI",
          "name": "",
          "type": "address"
        }
      ],
      "stateMutability": "view",
      "type": "function"
    },
    {
      "inputs": [],
      "name": "WVSC",
      "outputs": [
        {
          "internalType": "contract WarpVaultSC",
          "name": "",
          "type": "address"
        }
      ],
      "stateMutability": "view",
      "type": "function"
    },
    {
      "inputs": [
        {
          "internalType": "address",
          "name": "",
          "type": "address"
        }
      ],
      "name": "instanceTracker",
      "outputs": [
        {
          "internalType": "address",
          "name": "",
          "type": "address"
        }
      ],
      "stateMutability": "view",
      "type": "function"
    },
    {
      "inputs": [],
      "name": "liquidationIncentiveMantissa",
      "outputs": [
        {
          "internalType": "uint256",
          "name": "",
          "type": "uint256"
        }
      ],
      "stateMutability": "view",
      "type": "function"
    },
    {
      "inputs": [
        {
          "internalType": "uint256",
          "name": "",
          "type": "uint256"
        }
      ],
      "name": "lpVaults",
      "outputs": [
        {
          "internalType": "address",
          "name": "",
          "type": "address"
        }
      ],
      "stateMutability": "view",
      "type": "function"
    },
    {
      "inputs": [],
      "name": "owner",
      "outputs": [
        {
          "internalType": "address",
          "name": "",
          "type": "address"
        }
      ],
      "stateMutability": "view",
      "type": "function"
    },
    {
      "inputs": [],
      "name": "renounceOwnership",
      "outputs": [],
      "stateMutability": "nonpayable",
      "type": "function"
    },
    {
      "inputs": [
        {
          "internalType": "address",
          "name": "newOwner",
          "type": "address"
        }
      ],
      "name": "transferOwnership",
      "outputs": [],
      "stateMutability": "nonpayable",
      "type": "function"
    },
    {
      "inputs": [
        {
          "internalType": "address",
          "name": "_WVLPF",
          "type": "address"
        },
        {
          "internalType": "address",
          "name": "_lp",
          "type": "address"
        },
        {
          "internalType": "address",
          "name": "_lpAsset1",
          "type": "address"
        },
        {
          "internalType": "address",
          "name": "_lpAsset2",
          "type": "address"
        },
        {
          "internalType": "string",
          "name": "_lpName",
          "type": "string"
        }
      ],
      "name": "createNewLPVault",
      "outputs": [],
      "stateMutability": "nonpayable",
      "type": "function"
    },
    {
      "inputs": [
        {
          "internalType": "address",
          "name": "_borrower",
          "type": "address"
        },
        {
          "internalType": "address",
          "name": "_WVLP",
          "type": "address"
        },
        {
          "internalType": "uint256",
          "name": "_amount",
          "type": "uint256"
        }
      ],
      "name": "lockCollateralUp",
      "outputs": [],
      "stateMutability": "nonpayable",
      "type": "function"
    },
    {
      "inputs": [
        {
          "internalType": "address",
          "name": "_borrower",
          "type": "address"
        },
        {
          "internalType": "address",
          "name": "_redeemer",
          "type": "address"
        },
        {
          "internalType": "address",
          "name": "_WVLP",
          "type": "address"
        },
        {
          "internalType": "uint256",
          "name": "_amount",
          "type": "uint256"
        }
      ],
      "name": "lockCollateralDown",
      "outputs": [],
      "stateMutability": "nonpayable",
      "type": "function"
    },
    {
      "inputs": [
        {
          "internalType": "address",
          "name": "_LP",
          "type": "address"
        }
      ],
      "name": "checkLPprice",
      "outputs": [
        {
          "internalType": "uint256",
          "name": "",
          "type": "uint256"
        }
      ],
      "stateMutability": "view",
      "type": "function"
    },
    {
      "inputs": [
        {
          "internalType": "address",
          "name": "_borrower",
          "type": "address"
        },
        {
          "internalType": "address",
          "name": "collateralVault",
          "type": "address"
        }
      ],
      "name": "checkLockedCollateral",
      "outputs": [
        {
          "internalType": "uint256",
          "name": "",
          "type": "uint256"
        }
      ],
      "stateMutability": "view",
      "type": "function"
    },
    {
      "inputs": [
        {
          "internalType": "address",
          "name": "_borrower",
          "type": "address"
        },
        {
          "internalType": "address",
          "name": "_WarpVault",
          "type": "address"
        }
      ],
      "name": "checkAvailibleCollateralValue",
      "outputs": [
        {
          "internalType": "uint256",
          "name": "",
          "type": "uint256"
        }
      ],
      "stateMutability": "view",
      "type": "function"
    },
    {
      "inputs": [
        {
          "internalType": "address",
          "name": "_borrower",
          "type": "address"
        },
        {
          "internalType": "address",
          "name": "_WarpVault",
          "type": "address"
        }
      ],
      "name": "checkLockedCollateralValue",
      "outputs": [
        {
          "internalType": "uint256",
          "name": "",
          "type": "uint256"
        }
      ],
      "stateMutability": "view",
      "type": "function"
    }
  ],
  "bytecode": "0x60806040526714d1120d7b16000060015534801561001c57600080fd5b506040516200673138038062006731833981810160405261012081101561004257600080fd5b508051602082015160408301516060840151608085015160a086015160c087015160e08801516101009098015196979596949593949293919290919060006100916001600160e01b036101e716565b600080546001600160a01b0319166001600160a01b0383169081178255604051929350917f8be0079c531659141344cd1fd0a4f28419497f9722a3daafe3b4186f6b6457e0908290a350600280546001600160a01b0319166001600160a01b038b161790556040516000908690869086908690309061010f906101eb565b948552602085019390935260408085019290925260608401526001600160a01b039091166080830152519081900360a001906000f080158015610156573d6000803e3d6000fd5b509050808989898560405161016a906101f9565b6001600160a01b039586168152938516602085015291841660408085019190915293166060830152608082015290519081900360a001906000f0801580156101b6573d6000803e3d6000fd5b50600480546001600160a01b0319166001600160a01b03929092169190911790555061020798505050505050505050565b3390565b610a228062000fc983390190565b614d4680620019eb83390190565b610db280620002176000396000f3fe608060405234801561001057600080fd5b50600436106100d05760003560e01c80632ae18226146100d55780633373a447146101a35780633726ff76146101e55780634ada90af146102255780636012b4311461022d578063622263081461025b5780636af5f75214610278578063715018a6146102805780637a96aa61146102885780637ed2d495146102c457806385a801e9146102ea57806387365998146102f25780638da5cb5b14610328578063dba8010114610330578063f24a534e1461035e578063f2fde38b14610366575b600080fd5b6101a1600480360360a08110156100eb57600080fd5b6001600160a01b03823581169260208101358216926040820135831692606083013516919081019060a081016080820135600160201b81111561012d57600080fd5b82018360208201111561013f57600080fd5b803590602001918460018302840111600160201b8311171561016057600080fd5b91908080601f01602080910402602001604051908101604052809392919081815260200183838082843760009201919091525092955061038c945050505050565b005b6101c9600480360360208110156101b957600080fd5b50356001600160a01b03166105c8565b604080516001600160a01b039092168252519081900360200190f35b610213600480360360408110156101fb57600080fd5b506001600160a01b03813581169160200135166105e3565b60408051918252519081900360200190f35b610213610772565b6102136004803603604081101561024357600080fd5b506001600160a01b0381358116916020013516610778565b6101c96004803603602081101561027157600080fd5b50356108b4565b6101c96108db565b6101a16108ea565b6101a16004803603608081101561029e57600080fd5b506001600160a01b0381358116916020810135821691604082013516906060013561097a565b610213600480360360208110156102da57600080fd5b50356001600160a01b03166109fa565b6101c9610a7d565b6101a16004803603606081101561030857600080fd5b506001600160a01b03813581169160208101359091169060400135610a8c565b6101c9610b03565b6102136004803603604081101561034657600080fd5b506001600160a01b0381358116916020013516610b12565b6101c9610b9c565b6101a16004803603602081101561037c57600080fd5b50356001600160a01b0316610bab565b610394610c91565b6000546001600160a01b039081169116146103e4576040805162461bcd60e51b81526020600482018190526024820152600080516020610d3d833981519152604482015290519081900360640190fd5b60025460408051634a42dd6d60e11b81526001600160a01b0386811660048301528581166024830152878116604483015291519190921691639485bada91606480830192600092919082900301818387803b15801561044257600080fd5b505af1158015610456573d6000803e3d6000fd5b5050600380546001600160a01b0319166001600160a01b03898116919091179182905560408051631d75e5c160e21b81528983166004820190815260248201928352875160448301528751600097509490931694506375d79704938a9388939092909160649091019060208501908083838c5b838110156104e15781810151838201526020016104c9565b50505050905090810190601f16801561050e5780820380516001836020036101000a031916815260200191505b509350505050602060405180830381600087803b15801561052e57600080fd5b505af1158015610542573d6000803e3d6000fd5b505050506040513d602081101561055857600080fd5b50516001600160a01b0395861660009081526006602052604081208054979092166001600160a01b031997881681179092556005805460018101825591527f036b6384b5eca791c62761152d0c79bb0604c104a5fb6f4eb0703f3154bb3db0018054909616179094555050505050565b6006602052600090815260409020546001600160a01b031681565b6000808290506000816001600160a01b0316634c20ac746040518163ffffffff1660e01b815260040160206040518083038186803b15801561062457600080fd5b505afa158015610638573d6000803e3d6000fd5b505050506040513d602081101561064e57600080fd5b50516002546040805163fc57d4df60e01b81526001600160a01b0380851660048301529151939450600093919092169163fc57d4df916024808301926020929190829003018186803b1580156106a357600080fd5b505afa1580156106b7573d6000803e3d6000fd5b505050506040513d60208110156106cd57600080fd5b5051604080516323fc902d60e11b81526001600160a01b03898116600483015288811660248301529151929350600092918616916347f9205a91604480820192602092909190829003018186803b15801561072757600080fd5b505afa15801561073b573d6000803e3d6000fd5b505050506040513d602081101561075157600080fd5b50519050610765818363ffffffff610c9516565b9450505050505b92915050565b60015481565b6000808290506000816001600160a01b0316634c20ac746040518163ffffffff1660e01b815260040160206040518083038186803b1580156107b957600080fd5b505afa1580156107cd573d6000803e3d6000fd5b505050506040513d60208110156107e357600080fd5b50516002546040805163fc57d4df60e01b81526001600160a01b0380851660048301529151939450600093919092169163fc57d4df916024808301926020929190829003018186803b15801561083857600080fd5b505afa15801561084c573d6000803e3d6000fd5b505050506040513d602081101561086257600080fd5b505160408051632711999760e21b81526001600160a01b038981166004830152915192935060009291861691639c46665c91602480820192602092909190829003018186803b15801561072757600080fd5b600581815481106108c157fe5b6000918252602090912001546001600160a01b0316905081565b6003546001600160a01b031681565b6108f2610c91565b6000546001600160a01b03908116911614610942576040805162461bcd60e51b81526020600482018190526024820152600080516020610d3d833981519152604482015290519081900360640190fd5b600080546040516001600160a01b0390911690600080516020610d5d833981519152908390a3600080546001600160a01b0319169055565b60408051633834bd7f60e11b81526001600160a01b03868116600483015285811660248301528416604482018190526064820184905291518492916370697afe91608480830192600092919082900301818387803b1580156109db57600080fd5b505af11580156109ef573d6000803e3d6000fd5b505050505050505050565b6002546040805163fc57d4df60e01b81526001600160a01b0384811660048301529151600093929092169163fc57d4df91602480820192602092909190829003018186803b158015610a4b57600080fd5b505afa158015610a5f573d6000803e3d6000fd5b505050506040513d6020811015610a7557600080fd5b505192915050565b6004546001600160a01b031681565b6040805163172bc11560e21b81526001600160a01b038581166004830152841660248201819052604482018490529151849291635caf045491606480830192600092919082900301818387803b158015610ae557600080fd5b505af1158015610af9573d6000803e3d6000fd5b5050505050505050565b6000546001600160a01b031690565b604080516323fc902d60e11b81526001600160a01b0384811660048301528316602482018190529151600092849290916347f9205a91604480820192602092909190829003018186803b158015610b6857600080fd5b505afa158015610b7c573d6000803e3d6000fd5b505050506040513d6020811015610b9257600080fd5b5051949350505050565b6002546001600160a01b031681565b610bb3610c91565b6000546001600160a01b03908116911614610c03576040805162461bcd60e51b81526020600482018190526024820152600080516020610d3d833981519152604482015290519081900360640190fd5b6001600160a01b038116610c485760405162461bcd60e51b8152600401808060200182810382526026815260200180610cf66026913960400191505060405180910390fd5b600080546040516001600160a01b0380851693921691600080516020610d5d83398151915291a3600080546001600160a01b0319166001600160a01b0392909216919091179055565b3390565b600082610ca45750600061076c565b82820282848281610cb157fe5b0414610cee5760405162461bcd60e51b8152600401808060200182810382526021815260200180610d1c6021913960400191505060405180910390fd5b939250505056fe4f776e61626c653a206e6577206f776e657220697320746865207a65726f2061646472657373536166654d6174683a206d756c7469706c69636174696f6e206f766572666c6f774f776e61626c653a2063616c6c6572206973206e6f7420746865206f776e65728be0079c531659141344cd1fd0a4f28419497f9722a3daafe3b4186f6b6457e0a26469706673582212200a554fe1d1f0c8a664c9d94be9e70f56fb592a85892dd72dd42ae35f8cd3097c64736f6c63430006060033608060405234801561001057600080fd5b50604051610a22380380610a22833981810160405260a081101561003357600080fd5b508051602082015160408301516060840151608090940151600080546001600160a01b0319166001600160a01b03831617905592939192909190848484848461007e8585858561008d565b505050505050505050506102bc565b6100a7622014808561017060201b61057e1790919060201c565b6002556100f66100c562201480836101c1602090811b61052517901c565b6100e4670de0b6b3a7640000866101c160201b6105251790919060201c565b61017060201b61057e1790919060201c565b6001556101118262201480610170602090811b61057e17901c565b60038190556004829055600254600154604080519283526020830191909152818101929092526060810183905290517f6960ab234c7ef4b0c9197100f5393cfcde7c453ac910a27bd2000aa1dd4c068d9181900360800190a150505050565b60006101b883836040518060400160405280601a81526020017f536166654d6174683a206469766973696f6e206279207a65726f00000000000081525061021a60201b60201c565b90505b92915050565b6000826101d0575060006101bb565b828202828482816101dd57fe5b04146101b85760405162461bcd60e51b8152600401808060200182810382526021815260200180610a016021913960400191505060405180910390fd5b600081836102a65760405162461bcd60e51b81526004018080602001828103825283818151815260200191508051906020019080838360005b8381101561026b578181015183820152602001610253565b50505050905090810190601f1680156102985780820380516001836020036101000a031916815260200191505b509250505060405180910390fd5b5060008385816102b257fe5b0495945050505050565b610736806102cb6000396000f3fe608060405234801561001057600080fd5b506004361061008e5760003560e01c806315f24053146100935780632037f3e7146100ce5780636e71e2d8146100ff5780638726bb89146101285780638da5cb5b14610130578063a385fb9614610154578063b81688161461015c578063b9f9850a1461018b578063f14039de14610193578063fd2da3391461019b575b600080fd5b6100bc600480360360608110156100a957600080fd5b50803590602081013590604001356101a3565b60408051918252519081900360200190f35b6100fd600480360360808110156100e457600080fd5b50803590602081013590604081013590606001356101ba565b005b6100bc6004803603606081101561011557600080fd5b5080359060208101359060400135610215565b6100bc61026b565b610138610271565b604080516001600160a01b039092168252519081900360200190f35b6100bc610280565b6100bc6004803603608081101561017257600080fd5b5080359060208101359060408101359060600135610287565b6100bc610306565b6100bc61030c565b6100bc610312565b60006101b0848484610318565b90505b9392505050565b6000546001600160a01b031633146102035760405162461bcd60e51b81526004018080602001828103825260268152602001806106db6026913960400191505060405180910390fd5b61020f848484846103e1565b50505050565b600082610224575060006101b3565b6101b06102478361023b878763ffffffff61048216565b9063ffffffff6104e316565b61025f85670de0b6b3a764000063ffffffff61052516565b9063ffffffff61057e16565b60015481565b6000546001600160a01b031681565b6220148081565b6000806102a2670de0b6b3a76400008463ffffffff6104e316565b905060006102b1878787610318565b905060006102d1670de0b6b3a764000061025f848663ffffffff61052516565b90506102fa670de0b6b3a764000061025f836102ee8c8c8c610215565b9063ffffffff61052516565b98975050505050505050565b60035481565b60025481565b60045481565b600080610326858585610215565b9050600454811161036c57610364600254610358670de0b6b3a764000061025f6001548661052590919063ffffffff16565b9063ffffffff61048216565b9150506101b3565b6000610397600254610358670de0b6b3a764000061025f60015460045461052590919063ffffffff16565b905060006103b0600454846104e390919063ffffffff16565b90506103d782610358670de0b6b3a764000061025f6003548661052590919063ffffffff16565b93505050506101b3565b6103f4846220148063ffffffff61057e16565b60025561040d610247622014808363ffffffff61052516565b600155610423826220148063ffffffff61057e16565b60038190556004829055600254600154604080519283526020830191909152818101929092526060810183905290517f6960ab234c7ef4b0c9197100f5393cfcde7c453ac910a27bd2000aa1dd4c068d9181900360800190a150505050565b6000828201838110156104da576040805162461bcd60e51b815260206004820152601b60248201527a536166654d6174683a206164646974696f6e206f766572666c6f7760281b604482015290519081900360640190fd5b90505b92915050565b60006104da83836040518060400160405280601e81526020017f536166654d6174683a207375627472616374696f6e206f766572666c6f7700008152506105bd565b600082610534575060006104dd565b8282028284828161054157fe5b04146104da5760405162461bcd60e51b81526004018080602001828103825260218152602001806106ba6021913960400191505060405180910390fd5b60006104da83836040518060400160405280601a815260200179536166654d6174683a206469766973696f6e206279207a65726f60301b815250610654565b6000818484111561064c5760405162461bcd60e51b81526004018080602001828103825283818151815260200191508051906020019080838360005b838110156106115781810151838201526020016105f9565b50505050905090810190601f16801561063e5780820380516001836020036101000a031916815260200191505b509250505060405180910390fd5b505050900390565b600081836106a35760405162461bcd60e51b81526020600482018181528351602484015283519092839260449091019190850190808383600083156106115781810151838201526020016105f9565b5060008385816106af57fe5b049594505050505056fe536166654d6174683a206d756c7469706c69636174696f6e206f766572666c6f776f6e6c7920746865206f776e6572206d61792063616c6c20746869732066756e6374696f6e2ea264697066735822122027d6c97186e85c5362aa98276aa2af6aa81caa7a2a8ee763cad018c8d1529da864736f6c63430006060033536166654d6174683a206d756c7469706c69636174696f6e206f766572666c6f7760806040526714d1120d7b1600006007553480156200001d57600080fd5b5060405162004d4638038062004d46833981810160405260a08110156200004357600080fd5b508051602082015160408301516060840151608090940151929391929091906000620000776001600160e01b036200035116565b600080546001600160a01b0319166001600160a01b0383169081178255604051929350917f8be0079c531659141344cd1fd0a4f28419497f9722a3daafe3b4186f6b6457e0908290a350600e8054336001600160a01b03199182161790915560088054610100600160a81b0319166101006001600160a01b0388811682029290921792839055600980548516888416179055600a80548516878416179055600f805490941689831617909355604051929091041690620001379062000359565b6001600160a01b03909116815260606020820181905260089082015267576172702044414960c01b608082015260a06040808301829052600491830191909152635744414960e01b60c0830152519081900360e001906000f080158015620001a3573d6000803e3d6000fd5b50600b80546001600160a01b0319166001600160a01b03928316179055600954604051911690620001d49062000359565b6001600160a01b0390911681526060602082018190526013908201527f5761727020555320446f6c6c617220436f696e00000000000000000000000000608082015260a0604080830182905260059183019190915264575553444360d81b60c0830152519081900360e001906000f08015801562000256573d6000803e3d6000fd5b50600c80546001600160a01b0319166001600160a01b03928316179055600a54604051911690620002879062000359565b6001600160a01b0390911681526060602082018190526015908201527f5761727020555320446f6c6c6172205465746865720000000000000000000000608082015260a060408083018290526005918301919091526415d554d11560da1b60c0830152519081900360e001906000f08015801562000309573d6000803e3d6000fd5b50600d80546001600160a01b0319166001600160a01b03929092169190911790556200033462000355565b600355670de0b6b3a7640000600455600155506200036792505050565b3390565b4390565b61135580620039f183390190565b61367a80620003776000396000f3fe608060405234801561001057600080fd5b50600436106101f95760003560e01c806302de574c146101fe578063122b58181461023d578063158ef93e14610261578063173b99041461027d5780631d0ca7a81461029757806324a045ca1461029f5780632b49f40d146102c557806338b0dcce146102e25780633b1d21a21461030757806347bd37181461030f57806348dc0b6e146103175780634ada90af1461031f578063503d37ea1461032757806350a9f64e1461032f57806351e03bf9146103525780635357daea1461038857806367a895fd146103b45780636c540baf146103da578063715018a6146103e257806373acee98146103ea5780637cbc2373146103f257806389a30271146104155780638da5cb5b1461041d5780638f840ddd146104255780639f560dd51461042d578063a2f97bf514610435578063a6afed951461043d578063a907b3ef14610445578063aa5af0fd1461046b578063ae9d70b014610473578063b713e5c71461047b578063bbae21e9146104a1578063c39973e6146104cf578063c54e44eb146104ec578063cbe22f27146104f4578063d1400d221461051a578063d6bda0c014610540578063e0bab4c414610572578063e4ef8b201461057a578063ee69f8ae14610582578063efb818ce146105a8578063f2fde38b146105d4578063f8f9da28146105fa575b600080fd5b6102246004803603602081101561021457600080fd5b50356001600160a01b0316610602565b6040805192835260208301919091528051918290030190f35b61024561061b565b604080516001600160a01b039092168252519081900360200190f35b61026961062a565b604080519115158252519081900360200190f35b610285610633565b60408051918252519081900360200190f35b610245610639565b610269600480360360208110156102b557600080fd5b50356001600160a01b0316610648565b610285600480360360208110156102db57600080fd5b503561065d565b610305600480360360408110156102f857600080fd5b50803590602001356107c9565b005b610285611025565b610285611034565b61024561103a565b610285611049565b61028561104f565b6103056004803603604081101561034557600080fd5b508035906020013561106c565b6103056004803603606081101561036857600080fd5b506001600160a01b038135811691602081013591604090910135166113ea565b6102856004803603604081101561039e57600080fd5b506001600160a01b038135169060200135611ae8565b610224600480360360208110156103ca57600080fd5b50356001600160a01b0316611c07565b610285611c20565b610305611c26565b610285611cb6565b6103056004803603604081101561040857600080fd5b5080359060200135611cc7565b6102456121d9565b6102456121e8565b6102856121f7565b6102856121fd565b61024561220e565b61030561221d565b6102456004803603602081101561045b57600080fd5b50356001600160a01b031661239a565b6102856123b5565b6102856123bb565b6102856004803603602081101561049157600080fd5b50356001600160a01b031661245a565b610305600480360360408110156104b757600080fd5b506001600160a01b038135811691602001351661246c565b610285600480360360208110156104e557600080fd5b50356124c8565b61024561254f565b6102246004803603602081101561050a57600080fd5b50356001600160a01b031661255e565b6102856004803603602081101561053057600080fd5b50356001600160a01b0316612577565b6103056004803603606081101561055657600080fd5b50803590602081013590604001356001600160a01b0316612589565b610245612c26565b610245612c3a565b6102856004803603602081101561059857600080fd5b50356001600160a01b0316612c49565b610285600480360360408110156105be57600080fd5b506001600160a01b038135169060200135612c5b565b610305600480360360208110156105ea57600080fd5b50356001600160a01b0316612c76565b610285612d5c565b6012602052600090815260409020805460019091015482565b600e546001600160a01b031681565b60085460ff1681565b60025481565b600c546001600160a01b031681565b60176020526000908152604090205460ff1681565b60008082600114156106775750600b546001600160a01b03165b826001141561068e5750600c546001600160a01b03165b82600114156106a55750600d546001600160a01b03165b806001600160a01b03166318160ddd6040518163ffffffff1660e01b815260040160206040518083038186803b1580156106de57600080fd5b505afa1580156106f2573d6000803e3d6000fd5b505050506040513d602081101561070857600080fd5b50516107185750506001546107c4565b6000610722612dc0565b9050600061072e6134e1565b600061073f84600554600654612f64565b80945081925050506107b583866001600160a01b03166318160ddd6040518163ffffffff1660e01b815260040160206040518083038186803b15801561078457600080fd5b505afa158015610798573d6000803e3d6000fd5b505050506040513d60208110156107ae57600080fd5b5051612fb1565b5196506107c495505050505050565b919050565b6107d161221d565b600181101580156107e3575060038111155b6107ec57600080fd5b6107f46134f4565b8160011415610aa857600854604080516323b872dd60e01b81523360048201523060248201526044810186905290516101009092046001600160a01b0316916323b872dd916064808201926020929091908290030181600087803b15801561085b57600080fd5b505af115801561086f573d6000803e3d6000fd5b505050506040513d602081101561088557600080fd5b5050336000818152601060205260409081902060010154908301526108aa9083612c5b565b6060820152826108c357606081015160208201526108cb565b602081018390525b6108dd81606001518260200151613064565b60808301819052828260038111156108f157fe5b60038111156108fc57fe5b81525050506109116005548260200151613064565b60a083018190528282600381111561092557fe5b600381111561093057fe5b9052505060808101513360009081526010602052604090209081556004546001820190815560a083015160055554905461096f9163ffffffff61308716565b60c08201819052610aa857600e543360008181526016602090815260409182902054825163dba8010160e01b815260048101949094526001600160a01b0390811660248501529151919093169263dba801019260448082019391829003018186803b1580156109dd57600080fd5b505afa1580156109f1573d6000803e3d6000fd5b505050506040513d6020811015610a0757600080fd5b505160e08201908152336000818152601760209081526040808320805460ff19169055600e5460169092528083205494518151637a96aa6160e01b81526004810186905260248101959095526001600160a01b039586166044860152606485015251931692637a96aa6192608480820193929182900301818387803b158015610a8f57600080fd5b505af1158015610aa3573d6000803e3d6000fd5b505050505b8160021415610d6457600954604080516323b872dd60e01b81523360048201523060248201526044810186905290516001600160a01b03909216916323b872dd916064808201926020929091908290030181600087803b158015610b0b57600080fd5b505af1158015610b1f573d6000803e3d6000fd5b505050506040513d6020811015610b3557600080fd5b505033600081815260116020526040908190206001015490830152610b5a9083612c5b565b606082015282610b735760608101516020820152610b7b565b602081018390525b610b8d81606001518260200151613064565b6080830181905282826003811115610ba157fe5b6003811115610bac57fe5b8152505050610bc16005548260200151613064565b60a0830181905282826003811115610bd557fe5b6003811115610be057fe5b90525050608081015133600090815260116020908152604080832093845560045460019485015560a085015160055560109091529020908101549054610c2b9163ffffffff61308716565b60c08201819052610d6457600e543360008181526016602090815260409182902054825163dba8010160e01b815260048101949094526001600160a01b0390811660248501529151919093169263dba801019260448082019391829003018186803b158015610c9957600080fd5b505afa158015610cad573d6000803e3d6000fd5b505050506040513d6020811015610cc357600080fd5b505160e08201908152336000818152601760209081526040808320805460ff19169055600e5460169092528083205494518151637a96aa6160e01b81526004810186905260248101959095526001600160a01b039586166044860152606485015251931692637a96aa6192608480820193929182900301818387803b158015610d4b57600080fd5b505af1158015610d5f573d6000803e3d6000fd5b505050505b816003141561102057600a54604080516323b872dd60e01b81523360048201523060248201526044810186905290516001600160a01b03909216916323b872dd916064808201926020929091908290030181600087803b158015610dc757600080fd5b505af1158015610ddb573d6000803e3d6000fd5b505050506040513d6020811015610df157600080fd5b505033600081815260116020526040908190206001015490830152610e169083612c5b565b606082015282610e2f5760608101516020820152610e37565b602081018390525b610e4981606001518260200151613064565b6080830181905282826003811115610e5d57fe5b6003811115610e6857fe5b8152505050610e7d6005548260200151613064565b60a0830181905282826003811115610e9157fe5b6003811115610e9c57fe5b90525050608081015133600090815260116020908152604080832093845560045460019485015560a085015160055560109091529020908101549054610ee79163ffffffff61308716565b60c0820181905261102057600e543360008181526016602090815260409182902054825163dba8010160e01b815260048101949094526001600160a01b0390811660248501529151919093169263dba801019260448082019391829003018186803b158015610f5557600080fd5b505afa158015610f69573d6000803e3d6000fd5b505050506040513d6020811015610f7f57600080fd5b505160e08201908152336000818152601760209081526040808320805460ff19169055600e5460169092528083205494518151637a96aa6160e01b81526004810186905260248101959095526001600160a01b039586166044860152606485015251931692637a96aa6192608480820193929182900301818387803b15801561100757600080fd5b505af115801561101b573d6000803e3d6000fd5b505050505b505050565b600061102f612dc0565b905090565b60055481565b600f546001600160a01b031681565b60075481565b600061102f62243394611060612d5c565b9063ffffffff6130e616565b6001811015801561107e575060038111155b61108757600080fd5b61108f61353a565b611098826124c8565b6020808301918252604080519182019052905181526110b890849061313f565b60408301819052828260038111156110cc57fe5b60038111156110d757fe5b9052505060018214156111eb57600854604080516323b872dd60e01b81523360048201523060248201526044810186905290516101009092046001600160a01b0316916323b872dd916064808201926020929091908290030181600087803b15801561114257600080fd5b505af1158015611156573d6000803e3d6000fd5b505050506040513d602081101561116c57600080fd5b505033600081815260136020526040808220869055600b548482015182516340c10f1960e01b81526004810195909552602485015290516001600160a01b03909116926340c10f1992604480830193919282900301818387803b1580156111d257600080fd5b505af11580156111e6573d6000803e3d6000fd5b505050505b81600214156112f757600954604080516323b872dd60e01b81523360048201523060248201526044810186905290516001600160a01b03909216916323b872dd916064808201926020929091908290030181600087803b15801561124e57600080fd5b505af1158015611262573d6000803e3d6000fd5b505050506040513d602081101561127857600080fd5b505033600081815260146020526040808220869055600c548482015182516340c10f1960e01b81526004810195909552602485015290516001600160a01b03909116926340c10f1992604480830193919282900301818387803b1580156112de57600080fd5b505af11580156112f2573d6000803e3d6000fd5b505050505b816003141561102057600a54604080516323b872dd60e01b81523360048201523060248201526044810186905290516001600160a01b03909216916323b872dd916064808201926020929091908290030181600087803b15801561135a57600080fd5b505af115801561136e573d6000803e3d6000fd5b505050506040513d602081101561138457600080fd5b505033600081815260156020526040808220869055600d548482015182516340c10f1960e01b81526004810195909552602485015290516001600160a01b03909116926340c10f1992604480830193919282900301818387803b15801561100757600080fd5b6113f261221d565b60018210158015611404575060038211155b61140d57600080fd5b6001600160a01b038084166000908152601860209081526040808320938516835292905220546114459061070863ffffffff61308716565b42101561145157600080fd5b61145961355c565b6001600160a01b038085166000908152601660205260409020541681526114808484612c5b565b602080830191909152600e5460408051631b937fbb60e11b81526001600160a01b038881166004830152868116602483015291519190921692633726ff769260448082019391829003018186803b1580156114da57600080fd5b505afa1580156114ee573d6000803e3d6000fd5b505050506040513d602081101561150457600080fd5b50516060820181905261151e90600263ffffffff61319216565b6080820181905260608201516115399163ffffffff61308716565b606082015260208101516005546115559163ffffffff6131d116565b6005556020810151606082015111611ab757826001141561172f57600854602082810151604080516323b872dd60e01b81523360048201523060248201526044810192909252516101009093046001600160a01b0316926323b872dd926064808401939192918290030181600087803b1580156115d157600080fd5b505af11580156115e5573d6000803e3d6000fd5b505050506040513d60208110156115fb57600080fd5b5050600e5481516040805163dba8010160e01b81526001600160a01b03888116600483015292831660248201529051919092169163dba80101916044808301926020929190829003018186803b15801561165457600080fd5b505afa158015611668573d6000803e3d6000fd5b505050506040513d602081101561167e57600080fd5b505160408083019182526001600160a01b03808716600081815260176020908152848220805460ff1916905560109052838120818155600101819055600e54865195518551637a96aa6160e01b815260048101949094523360248501529584166044840152606483019590955292519390911692637a96aa619260848084019391929182900301818387803b15801561171657600080fd5b505af115801561172a573d6000803e3d6000fd5b505050505b82600214156118f357600954602080830151604080516323b872dd60e01b81523360048201523060248201526044810192909252516001600160a01b03909316926323b872dd926064808401939192918290030181600087803b15801561179557600080fd5b505af11580156117a9573d6000803e3d6000fd5b505050506040513d60208110156117bf57600080fd5b5050600e5481516040805163dba8010160e01b81526001600160a01b03888116600483015292831660248201529051919092169163dba80101916044808301926020929190829003018186803b15801561181857600080fd5b505afa15801561182c573d6000803e3d6000fd5b505050506040513d602081101561184257600080fd5b505160408083019182526001600160a01b03808716600081815260176020908152848220805460ff1916905560119052838120818155600101819055600e54865195518551637a96aa6160e01b815260048101949094523360248501529584166044840152606483019590955292519390911692637a96aa619260848084019391929182900301818387803b1580156118da57600080fd5b505af11580156118ee573d6000803e3d6000fd5b505050505b8260031415611ab757600a54602080830151604080516323b872dd60e01b81523360048201523060248201526044810192909252516001600160a01b03909316926323b872dd926064808401939192918290030181600087803b15801561195957600080fd5b505af115801561196d573d6000803e3d6000fd5b505050506040513d602081101561198357600080fd5b5050600e5481516040805163dba8010160e01b81526001600160a01b03888116600483015292831660248201529051919092169163dba80101916044808301926020929190829003018186803b1580156119dc57600080fd5b505afa1580156119f0573d6000803e3d6000fd5b505050506040513d6020811015611a0657600080fd5b505160408083019182526001600160a01b03808716600081815260176020908152848220805460ff1916905560119052838120818155600101819055600e54865195518551637a96aa6160e01b815260048101949094523360248501529584166044840152606483019590955292519390911692637a96aa619260848084019391929182900301818387803b158015611a9e57600080fd5b505af1158015611ab2573d6000803e3d6000fd5b505050505b506001600160a01b039283166000908152601860209081526040808320939095168252919091529182209190915550565b6000806000808460011415611b95576001600160a01b03861660009081526010602052604090208054611b22576000945050505050611c01565b611b328160000154600454613213565b90945092506000846003811115611b4557fe5b14611b57576000945050505050611c01565b611b65838260010154613252565b90945091506000846003811115611b7857fe5b14611b8a576000945050505050611c01565b509250611c01915050565b8460021415611bc9576001600160a01b03861660009081526011602052604090208054611b22576000945050505050611c01565b8460031415611bfd576001600160a01b03861660009081526012602052604090208054611b22576000945050505050611c01565b5050505b92915050565b6010602052600090815260409020805460019091015482565b60035481565b611c2e61327d565b6000546001600160a01b03908116911614611c7e576040805162461bcd60e51b81526020600482018190526024820152600080516020613605833981519152604482015290519081900360640190fd5b600080546040516001600160a01b0390911690600080516020613625833981519152908390a3600080546001600160a01b0319169055565b6000611cc061221d565b5060055490565b611ccf61221d565b81611cd957600080fd5b60018110158015611ceb575060038111155b611cf457600080fd5b611cfc61353a565b611d05826124c8565b602080830191825260408051918201905290518152611d249084613281565b6040830181905282826003811115611d3857fe5b6003811115611d4357fe5b905250506001821415611ed15760408181015160085482516370a0823160e01b8152306004820152925191926101009091046001600160a01b0316916370a0823191602480820192602092909190829003018186803b158015611da557600080fd5b505afa158015611db9573d6000803e3d6000fd5b505050506040513d6020811015611dcf57600080fd5b50511015611ddc57600080fd5b600b5460408051632770a7eb60e21b81523360048201526024810186905290516001600160a01b0390921691639dc29fac9160448082019260009290919082900301818387803b158015611e2f57600080fd5b505af1158015611e43573d6000803e3d6000fd5b5050600854604084810151815163a9059cbb60e01b8152336004820152602481019190915290516101009092046001600160a01b0316935063a9059cbb92506044808201926020929091908290030181600087803b158015611ea457600080fd5b505af1158015611eb8573d6000803e3d6000fd5b505050506040513d6020811015611ece57600080fd5b50505b81600214156120535760408082015160095482516370a0823160e01b8152306004820152925191926001600160a01b03909116916370a0823191602480820192602092909190829003018186803b158015611f2b57600080fd5b505afa158015611f3f573d6000803e3d6000fd5b505050506040513d6020811015611f5557600080fd5b50511015611f6257600080fd5b600c5460408051632770a7eb60e21b81523360048201526024810186905290516001600160a01b0390921691639dc29fac9160448082019260009290919082900301818387803b158015611fb557600080fd5b505af1158015611fc9573d6000803e3d6000fd5b5050600954604080850151815163a9059cbb60e01b8152336004820152602481019190915290516001600160a01b03909216935063a9059cbb92506044808201926020929091908290030181600087803b15801561202657600080fd5b505af115801561203a573d6000803e3d6000fd5b505050506040513d602081101561205057600080fd5b50505b816003141561102057604080820151600a5482516370a0823160e01b8152306004820152925191926001600160a01b03909116916370a0823191602480820192602092909190829003018186803b1580156120ad57600080fd5b505afa1580156120c1573d6000803e3d6000fd5b505050506040513d60208110156120d757600080fd5b505110156120e457600080fd5b600d5460408051632770a7eb60e21b81523360048201526024810186905290516001600160a01b0390921691639dc29fac9160448082019260009290919082900301818387803b15801561213757600080fd5b505af115801561214b573d6000803e3d6000fd5b5050600a54604080850151815163a9059cbb60e01b8152336004820152602481019190915290516001600160a01b03909216935063a9059cbb92506044808201926020929091908290030181600087803b1580156121a857600080fd5b505af11580156121bc573d6000803e3d6000fd5b505050506040513d60208110156121d257600080fd5b5050505050565b6009546001600160a01b031681565b6000546001600160a01b031690565b60065481565b600061102f622433946110606123bb565b600b546001600160a01b031681565b6000612227613298565b6003549091508082141561223a57600080fd5b6000612244612dc0565b60055460065460048054600f54604080516315f2405360e01b81529384018790526024840186905260448401859052519596509394929390926000926001600160a01b03909216916315f24053916064808301926020929190829003018186803b1580156122b157600080fd5b505afa1580156122c5573d6000803e3d6000fd5b505050506040513d60208110156122db57600080fd5b5051905065048c273950008111156122f257600080fd5b6000806122ff8989613064565b9150915061230b6134e1565b60008060008061232960405180602001604052808a8152508761329c565b9097509450612338858c613281565b9097509350612347848c613304565b60408051602081019091526002548152919850935061236790858c61332a565b9097509150612377858a8061332a565b60039f909f55505060049c909c5560055550505060069790975550505050505050565b6016602052600090815260409020546001600160a01b031681565b60045481565b600f546000906001600160a01b031663b81688166123d7612dc0565b6005546006546002546040518563ffffffff1660e01b81526004018085815260200184815260200183815260200182815260200194505050505060206040518083038186803b15801561242957600080fd5b505afa15801561243d573d6000803e3d6000fd5b505050506040513d602081101561245357600080fd5b5051905090565b60146020526000908152604090205481565b6001600160a01b038083166000908152601860209081526040808320938516835292905220541561249c57600080fd5b6001600160a01b0391821660009081526018602090815260408083209390941682529190915220429055565b60006124d261221d565b600082600114156106775750600b546001600160a01b0316826001141561068e5750600c546001600160a01b031682600114156106a55750600d546001600160a01b0316806001600160a01b03166318160ddd6040518163ffffffff1660e01b815260040160206040518083038186803b1580156106de57600080fd5b600a546001600160a01b031681565b6011602052600090815260409020805460019091015482565b60156020526000908152604090205481565b61259161221d565b600182101580156125a3575060038211155b6125ac57600080fd5b600e5460408051636012b43160e01b81523360048201526001600160a01b03848116602483015291516000939290921691636012b43191604480820192602092909190829003018186803b15801561260357600080fd5b505afa158015612617573d6000803e3d6000fd5b505050506040513d602081101561262d57600080fd5b505190508084111561263e57600080fd5b336000908152601660205260409020546001600160a01b038381169116148061267757503360009081526017602052604090205460ff16155b61268057600080fd5b612688613594565b836001141561283357600854604080516370a0823160e01b81523060048201529051879261010090046001600160a01b0316916370a08231916024808301926020929190829003018186803b1580156126e057600080fd5b505afa1580156126f4573d6000803e3d6000fd5b505050506040513d602081101561270a57600080fd5b50511161271657600080fd5b6127203385612c5b565b602082018190526127319086613304565b604083018190528282600381111561274557fe5b600381111561275057fe5b815250505061276160055486613304565b606083018190528282600381111561277557fe5b600381111561278057fe5b9052505060408082015133600081815260106020908152848220938455600480546001909501949094556060860151600555600854855163a9059cbb60e01b815294850193909352602484018a905293516101009092046001600160a01b03169363a9059cbb936044808201949293918390030190829087803b15801561280657600080fd5b505af115801561281a573d6000803e3d6000fd5b505050506040513d602081101561283057600080fd5b50505b83600214156129d557600954604080516370a0823160e01b8152306004820152905187926001600160a01b0316916370a08231916024808301926020929190829003018186803b15801561288657600080fd5b505afa15801561289a573d6000803e3d6000fd5b505050506040513d60208110156128b057600080fd5b5051116128bc57600080fd5b6128c63385612c5b565b602082018190526128d79086613304565b60408301819052828260038111156128eb57fe5b60038111156128f657fe5b815250505061290760055486613304565b606083018190528282600381111561291b57fe5b600381111561292657fe5b9052505060408181015133600081815260116020908152848220938455600480546001909501949094556060860151600555600954855163a9059cbb60e01b815294850193909352602484018a905293516001600160a01b039092169363a9059cbb936044808201949293918390030190829087803b1580156129a857600080fd5b505af11580156129bc573d6000803e3d6000fd5b505050506040513d60208110156129d257600080fd5b50505b8360031415612b7757600a54604080516370a0823160e01b8152306004820152905187926001600160a01b0316916370a08231916024808301926020929190829003018186803b158015612a2857600080fd5b505afa158015612a3c573d6000803e3d6000fd5b505050506040513d6020811015612a5257600080fd5b505111612a5e57600080fd5b612a683385612c5b565b60208201819052612a799086613304565b6040830181905282826003811115612a8d57fe5b6003811115612a9857fe5b8152505050612aa960055486613304565b6060830181905282826003811115612abd57fe5b6003811115612ac857fe5b9052505060408181015133600081815260126020908152848220938455600480546001909501949094556060860151600555600a54855163a9059cbb60e01b815294850193909352602484018a905293516001600160a01b039092169363a9059cbb936044808201949293918390030190829087803b158015612b4a57600080fd5b505af1158015612b5e573d6000803e3d6000fd5b505050506040513d6020811015612b7457600080fd5b50505b33600081815260166020908152604080832080546001600160a01b0319166001600160a01b038981169182179092556017909352818420805460ff19166001179055600e5482516310e6cb3360e31b815260048101969096526024860193909352604485018a90529051911692638736599892606480830193919282900301818387803b158015612c0757600080fd5b505af1158015612c1b573d6000803e3d6000fd5b505050505050505050565b60085461010090046001600160a01b031681565b600d546001600160a01b031681565b60136020526000908152604090205481565b6000612c6561221d565b612c6f8383611ae8565b5092915050565b612c7e61327d565b6000546001600160a01b03908116911614612cce576040805162461bcd60e51b81526020600482018190526024820152600080516020613605833981519152604482015290519081900360640190fd5b6001600160a01b038116612d135760405162461bcd60e51b81526004018080602001828103825260268152602001806135be6026913960400191505060405180910390fd5b600080546040516001600160a01b038085169392169160008051602061362583398151915291a3600080546001600160a01b0319166001600160a01b0392909216919091179055565b600f546000906001600160a01b03166315f24053612d78612dc0565b6005546006546040518463ffffffff1660e01b815260040180848152602001838152602001828152602001935050505060206040518083038186803b15801561242957600080fd5b600854604080516370a0823160e01b8152306004820152905160009283926101009091046001600160a01b0316916370a0823191602480820192602092909190829003018186803b158015612e1457600080fd5b505afa158015612e28573d6000803e3d6000fd5b505050506040513d6020811015612e3e57600080fd5b5051600954604080516370a0823160e01b815230600482015290519293506000926001600160a01b03909216916370a0823191602480820192602092909190829003018186803b158015612e9157600080fd5b505afa158015612ea5573d6000803e3d6000fd5b505050506040513d6020811015612ebb57600080fd5b5051600a54604080516370a0823160e01b815230600482015290519293506000926001600160a01b03909216916370a0823191602480820192602092909190829003018186803b158015612f0e57600080fd5b505afa158015612f22573d6000803e3d6000fd5b505050506040513d6020811015612f3857600080fd5b50519050612f5c81612f50858563ffffffff61308716565b9063ffffffff61308716565b935050505090565b600080600080612f748787613304565b90925090506000826003811115612f8757fe5b14612f985750915060009050612fa9565b612fa28186613064565b9350935050505b935093915050565b6000612fbb6134e1565b600080612fd086670de0b6b3a7640000613213565b90925090506000826003811115612fe357fe5b146130025750604080516020810190915260008152909250905061305d565b60008061300f8388613252565b9092509050600082600381111561302257fe5b14613045578160405180602001604052806000815250955095505050505061305d565b60408051602081019091529081526000955093505050505b9250929050565b60008083831161307b57506000905081830361305d565b5060039050600061305d565b6000828201838110156130df576040805162461bcd60e51b815260206004820152601b60248201527a536166654d6174683a206164646974696f6e206f766572666c6f7760281b604482015290519081900360640190fd5b9392505050565b6000826130f557506000611c01565b8282028284828161310257fe5b04146130df5760405162461bcd60e51b81526004018080602001828103825260218152602001806135e46021913960400191505060405180910390fd5b600080600061314c6134e1565b6131568686613377565b9092509050600082600381111561316957fe5b1461317a575091506000905061305d565b6000613185826133d6565b9350935050509250929050565b60006130df83836040518060400160405280601a815260200179536166654d6174683a206469766973696f6e206279207a65726f60301b8152506133e5565b60006130df83836040518060400160405280601e81526020017f536166654d6174683a207375627472616374696f6e206f766572666c6f770000815250613487565b600080836132265750600090508061305d565b8383028385828161323357fe5b04146132475750600291506000905061305d565b60009250905061305d565b60008082613266575060019050600061305d565b600083858161327157fe5b04915091509250929050565b3390565b600080600061328e6134e1565b613156868661329c565b4390565b60006132a66134e1565b6000806132b7866000015186613213565b909250905060008260038111156132ca57fe5b146132e95750604080516020810190915260008152909250905061305d565b60408051602081019091529081526000969095509350505050565b60008083830184811061331c5760009250905061305d565b50600291506000905061305d565b60008060006133376134e1565b613341878761329c565b9092509050600082600381111561335457fe5b146133655750915060009050612fa9565b612fa2613371826133d6565b86613304565b60006133816134e1565b600080613396670de0b6b3a764000087613213565b909250905060008260038111156133a957fe5b146133c85750604080516020810190915260008152909250905061305d565b613185818660000151612fb1565b51670de0b6b3a7640000900490565b600081836134715760405162461bcd60e51b81526004018080602001828103825283818151815260200191508051906020019080838360005b8381101561343657818101518382015260200161341e565b50505050905090810190601f1680156134635780820380516001836020036101000a031916815260200191505b509250505060405180910390fd5b50600083858161347d57fe5b0495945050505050565b600081848411156134d95760405162461bcd60e51b815260206004820181815283516024840152835190928392604490910191908501908083836000831561343657818101518382015260200161341e565b505050900390565b6040518060200160405280600081525090565b6040805161010081019091528060008152602001600081526020016000815260200160008152602001600081526020016000815260200160008152602001600081525090565b6040805160608101909152806000815260200160008152602001600081525090565b6040518060a0016040528060006001600160a01b03168152602001600081526020016000815260200160008152602001600081525090565b60408051608081019091528060008152602001600081526020016000815260200160008152509056fe4f776e61626c653a206e6577206f776e657220697320746865207a65726f2061646472657373536166654d6174683a206d756c7469706c69636174696f6e206f766572666c6f774f776e61626c653a2063616c6c6572206973206e6f7420746865206f776e65728be0079c531659141344cd1fd0a4f28419497f9722a3daafe3b4186f6b6457e0a264697066735822122027896094b57ab42aa74bb7bc8ce25f9b00a4118eabecf64ac2e027b59c39063a64736f6c6343000606003360806040523480156200001157600080fd5b506040516200135538038062001355833981810160405260608110156200003757600080fd5b8151602083018051604051929492938301929190846401000000008211156200005f57600080fd5b9083019060208201858111156200007557600080fd5b82516401000000008111828201881017156200009057600080fd5b82525081516020918201929091019080838360005b83811015620000bf578181015183820152602001620000a5565b50505050905090810190601f168015620000ed5780820380516001836020036101000a031916815260200191505b50604052602001805160405193929190846401000000008211156200011157600080fd5b9083019060208201858111156200012757600080fd5b82516401000000008111828201881017156200014257600080fd5b82525081516020918201929091019080838360005b838110156200017157818101518382015260200162000157565b50505050905090810190601f1680156200019f5780820380516001836020036101000a031916815260200191505b5060405250505080826000620001ba6200026c60201b60201c565b600080546001600160a01b0319166001600160a01b0383169081178255604051929350917f8be0079c531659141344cd1fd0a4f28419497f9722a3daafe3b4186f6b6457e0908290a35081516200021990600490602085019062000271565b5080516200022f90600590602084019062000271565b5050600680546001600160a01b0390951661010002610100600160a81b031960ff1990961660121795909516949094179093555062000313915050565b335b90565b828054600181600116156101000203166002900490600052602060002090601f016020900481019282601f10620002b457805160ff1916838001178555620002e4565b82800160010185558215620002e4579182015b82811115620002e4578251825591602001919060010190620002c7565b50620002f2929150620002f6565b5090565b6200026e91905b80821115620002f25760008155600101620002fd565b61103280620003236000396000f3fe608060405234801561001057600080fd5b50600436106100db5760003560e01c806306fdde03146100e0578063095ea7b31461015d57806318160ddd1461019d57806323b872dd146101b7578063313ce567146101ed578063395093511461020b57806340c10f191461023757806370a0823114610265578063715018a61461028b5780638da5cb5b1461029357806395d89b41146102b75780639dc29fac146102bf578063a457c2d7146102eb578063a9059cbb14610317578063dd62ed3e14610343578063e9cbd82214610371578063f2fde38b14610379575b600080fd5b6100e861039f565b6040805160208082528351818301528351919283929083019185019080838360005b8381101561012257818101518382015260200161010a565b50505050905090810190601f16801561014f5780820380516001836020036101000a031916815260200191505b509250505060405180910390f35b6101896004803603604081101561017357600080fd5b506001600160a01b038135169060200135610435565b604080519115158252519081900360200190f35b6101a5610452565b60408051918252519081900360200190f35b610189600480360360608110156101cd57600080fd5b506001600160a01b03813581169160208101359091169060400135610458565b6101f56104e5565b6040805160ff9092168252519081900360200190f35b6101896004803603604081101561022157600080fd5b506001600160a01b0381351690602001356104ee565b6102636004803603604081101561024d57600080fd5b506001600160a01b038135169060200135610542565b005b6101a56004803603602081101561027b57600080fd5b50356001600160a01b03166105a8565b6102636105c3565b61029b610653565b604080516001600160a01b039092168252519081900360200190f35b6100e8610662565b610263600480360360408110156102d557600080fd5b506001600160a01b0381351690602001356106c3565b6101896004803603604081101561030157600080fd5b506001600160a01b038135169060200135610725565b6101896004803603604081101561032d57600080fd5b506001600160a01b038135169060200135610793565b6101a56004803603604081101561035957600080fd5b506001600160a01b03813581169160200135166107a7565b61029b6107d2565b6102636004803603602081101561038f57600080fd5b50356001600160a01b03166107e6565b60048054604080516020601f600260001961010060018816150201909516949094049384018190048102820181019092528281526060939092909183018282801561042b5780601f106104005761010080835404028352916020019161042b565b820191906000526020600020905b81548152906001019060200180831161040e57829003601f168201915b5050505050905090565b60006104496104426108cc565b84846108d0565b50600192915050565b60035490565b60006104658484846109bc565b6104db846104716108cc565b6104d685604051806060016040528060288152602001610ee6602891396001600160a01b038a166000908152600260205260408120906104af6108cc565b6001600160a01b03168152602081019190915260400160002054919063ffffffff610b1316565b6108d0565b5060019392505050565b60065460ff1690565b60006104496104fb6108cc565b846104d6856002600061050c6108cc565b6001600160a01b03908116825260208083019390935260409182016000908120918c16815292529020549063ffffffff610baa16565b61054a6108cc565b6000546001600160a01b0390811691161461059a576040805162461bcd60e51b81526020600482018190526024820152600080516020610f0e833981519152604482015290519081900360640190fd5b6105a48282610c09565b5050565b6001600160a01b031660009081526001602052604090205490565b6105cb6108cc565b6000546001600160a01b0390811691161461061b576040805162461bcd60e51b81526020600482018190526024820152600080516020610f0e833981519152604482015290519081900360640190fd5b600080546040516001600160a01b0390911690600080516020610f2e833981519152908390a3600080546001600160a01b0319169055565b6000546001600160a01b031690565b60058054604080516020601f600260001961010060018816150201909516949094049384018190048102820181019092528281526060939092909183018282801561042b5780601f106104005761010080835404028352916020019161042b565b6106cb6108cc565b6000546001600160a01b0390811691161461071b576040805162461bcd60e51b81526020600482018190526024820152600080516020610f0e833981519152604482015290519081900360640190fd5b6105a48282610cf5565b60006104496107326108cc565b846104d685604051806060016040528060258152602001610fd8602591396002600061075c6108cc565b6001600160a01b03908116825260208083019390935260409182016000908120918d1681529252902054919063ffffffff610b1316565b60006104496107a06108cc565b84846109bc565b6001600160a01b03918216600090815260026020908152604080832093909416825291909152205490565b60065461010090046001600160a01b031681565b6107ee6108cc565b6000546001600160a01b0390811691161461083e576040805162461bcd60e51b81526020600482018190526024820152600080516020610f0e833981519152604482015290519081900360640190fd5b6001600160a01b0381166108835760405162461bcd60e51b8152600401808060200182810382526026815260200180610e786026913960400191505060405180910390fd5b600080546040516001600160a01b0380851693921691600080516020610f2e83398151915291a3600080546001600160a01b0319166001600160a01b0392909216919091179055565b3390565b6001600160a01b0383166109155760405162461bcd60e51b8152600401808060200182810382526024815260200180610fb46024913960400191505060405180910390fd5b6001600160a01b03821661095a5760405162461bcd60e51b8152600401808060200182810382526022815260200180610e9e6022913960400191505060405180910390fd5b6001600160a01b03808416600081815260026020908152604080832094871680845294825291829020859055815185815291517f8c5be1e5ebec7d5bd14f71427d1e84f3dd0314c0f7b2291e5b200ac8c7c3b9259281900390910190a3505050565b6001600160a01b038316610a015760405162461bcd60e51b8152600401808060200182810382526025815260200180610f8f6025913960400191505060405180910390fd5b6001600160a01b038216610a465760405162461bcd60e51b8152600401808060200182810382526023815260200180610e336023913960400191505060405180910390fd5b610a51838383610deb565b610a9481604051806060016040528060268152602001610ec0602691396001600160a01b038616600090815260016020526040902054919063ffffffff610b1316565b6001600160a01b038085166000908152600160205260408082209390935590841681522054610ac9908263ffffffff610baa16565b6001600160a01b038084166000818152600160209081526040918290209490945580518581529051919392871692600080516020610f4e83398151915292918290030190a3505050565b60008184841115610ba25760405162461bcd60e51b81526004018080602001828103825283818151815260200191508051906020019080838360005b83811015610b67578181015183820152602001610b4f565b50505050905090810190601f168015610b945780820380516001836020036101000a031916815260200191505b509250505060405180910390fd5b505050900390565b600082820183811015610c02576040805162461bcd60e51b815260206004820152601b60248201527a536166654d6174683a206164646974696f6e206f766572666c6f7760281b604482015290519081900360640190fd5b9392505050565b6001600160a01b038216610c64576040805162461bcd60e51b815260206004820152601f60248201527f45524332303a206d696e7420746f20746865207a65726f206164647265737300604482015290519081900360640190fd5b610c7060008383610deb565b600354610c83908263ffffffff610baa16565b6003556001600160a01b038216600090815260016020526040902054610caf908263ffffffff610baa16565b6001600160a01b0383166000818152600160209081526040808320949094558351858152935192939192600080516020610f4e8339815191529281900390910190a35050565b6001600160a01b038216610d3a5760405162461bcd60e51b8152600401808060200182810382526021815260200180610f6e6021913960400191505060405180910390fd5b610d4682600083610deb565b610d8981604051806060016040528060228152602001610e56602291396001600160a01b038516600090815260016020526040902054919063ffffffff610b1316565b6001600160a01b038316600090815260016020526040902055600354610db5908263ffffffff610df016565b6003556040805182815290516000916001600160a01b03851691600080516020610f4e8339815191529181900360200190a35050565b505050565b6000610c0283836040518060400160405280601e81526020017f536166654d6174683a207375627472616374696f6e206f766572666c6f770000815250610b1356fe45524332303a207472616e7366657220746f20746865207a65726f206164647265737345524332303a206275726e20616d6f756e7420657863656564732062616c616e63654f776e61626c653a206e6577206f776e657220697320746865207a65726f206164647265737345524332303a20617070726f766520746f20746865207a65726f206164647265737345524332303a207472616e7366657220616d6f756e7420657863656564732062616c616e636545524332303a207472616e7366657220616d6f756e74206578636565647320616c6c6f77616e63654f776e61626c653a2063616c6c6572206973206e6f7420746865206f776e65728be0079c531659141344cd1fd0a4f28419497f9722a3daafe3b4186f6b6457e0ddf252ad1be2c89b69c2b068fc378daa952ba7f163c4a11628f55a4df523b3ef45524332303a206275726e2066726f6d20746865207a65726f206164647265737345524332303a207472616e736665722066726f6d20746865207a65726f206164647265737345524332303a20617070726f76652066726f6d20746865207a65726f206164647265737345524332303a2064656372656173656420616c6c6f77616e63652062656c6f77207a65726fa264697066735822122031be152ed6520da8d6af1af43c8b44a9656953c334cb61126cade981debcf43064736f6c63430006060033",
  "immutableReferences": {},
  "source": "pragma solidity ^0.6.0;\n\nimport \"@openzeppelin/contracts/access/Ownable.sol\";\nimport \"@openzeppelin/contracts/math/SafeMath.sol\";\nimport \"@openzeppelin/contracts/token/ERC20/IERC20.sol\";\nimport \"./WarpVaultSC.sol\";\nimport \"./interfaces/WarpVaultLPI.sol\";\nimport \"./interfaces/WarpVaultLPFactoryI.sol\";\nimport \"./interfaces/UniswapLPOracleFactoryI.sol\";\nimport \"./compound/JumpRateModelV2.sol\";\nimport \"./compound/Exponential.sol\";\n\n////////////////////////////////////////////////////////////////////////////////////////////\n/// @title WarpControl\n/// @author Christopher Dixon\n////////////////////////////////////////////////////////////////////////////////////////////\n/**\nWarpControl is designed to coordinate Warp Vaults\nThis contract uses the OpenZeppelin contract Library to inherit functions from\n  Ownable.sol\n**/\n\ncontract WarpControl is Ownable, Exponential {\n    using SafeMath for uint256;\n\n    uint256 public liquidationIncentiveMantissa = 1.5e18; // 1.5\n\n    UniswapLPOracleFactoryI public Oracle; //oracle factory contract interface\n    WarpVaultLPFactoryI public WVLPF;\n    WarpVaultSC public WVSC;\n\n    address[] public lpVaults;\n\n    mapping(address => address) public instanceTracker; //maps LP token address to the assets WarpVault\n\n    /**\n@notice the constructor function is fired during the contract deployment process. The constructor can only be fired once and\n        is used to set up Oracle variables for the MoneyMarketFactory contract.\n@param _oracle is the address for the UniswapOracleFactorycontract\n**/\n    constructor(\n        address _oracle,\n        address _DAI,\n        address _USDC,\n        address _USDT,\n        uint256 _baseRatePerYear,\n        uint256 _multiplierPerYear,\n        uint256 _jumpMultiplierPerYear,\n        uint256 _optimal,\n        uint256 _initialExchangeRate\n    ) public {\n        Oracle = UniswapLPOracleFactoryI(_oracle);\n\n        address IR = address(\n            new JumpRateModelV2(\n                _baseRatePerYear,\n                _multiplierPerYear,\n                _jumpMultiplierPerYear,\n                _optimal,\n                address(this)\n            )\n        );\n\n        WVSC = new WarpVaultSC(IR, _DAI, _USDC, _USDT, _initialExchangeRate);\n    }\n\n    /**\n@notice createNewVault allows the contract owner to create a new WarpVaultLP contract along with its associated Warp Wrapper Tokens\n**/\n    function createNewLPVault(\n        address _WVLPF,\n        address _lp,\n        address _lpAsset1,\n        address _lpAsset2,\n        string memory _lpName\n    ) public onlyOwner {\n        Oracle.createNewOracles(_lpAsset1, _lpAsset2, _lp);\n        WVLPF = WarpVaultLPFactoryI(_WVLPF);\n        address _WarpVault = WVLPF.createWarpVaultLP(_lp, _lpName);\n        instanceTracker[_lp] = _WarpVault;\n        lpVaults.push(_WarpVault);\n    }\n\n    /**\n  @notice lockCollateralUp is an external function used to track locked collateral amounts globally as they increase\n  @param _borrower is the address of the borrower\n  @param _amount is the USDC value thats looking to be locked up\n  **/\n    function lockCollateralUp(\n        address _borrower,\n        address _WVLP,\n        uint256 _amount\n    ) external {\n        WarpVaultLPI WV = WarpVaultLPI(_WVLP);\n        WV.lockWLP(_borrower, _WVLP, _amount);\n    }\n\n    /**\n   @notice lockCollateralDown is an external function used to track locked collateral amounts globally as they decrease\n   @param _borrower is the address of the borrower\n   @param _amount is the amount of LP being collateralized\n   **/\n    function lockCollateralDown(\n        address _borrower,\n        address _redeemer,\n        address _WVLP,\n        uint256 _amount\n    ) external {\n        WarpVaultLPI WV = WarpVaultLPI(_WVLP);\n        WV.unlockWLP(_borrower, _redeemer, _WVLP, _amount);\n    }\n\n    function checkLPprice(address _LP) public view returns (uint256) {\n        return Oracle.getUnderlyingPrice(_LP);\n    }\n\n    function checkLockedCollateral(address _borrower, address collateralVault)\n        public\n        view\n        returns (uint256)\n    {\n        WarpVaultLPI WV = WarpVaultLPI(collateralVault);\n        return WV.lockedWLPbalanceOf(_borrower, collateralVault);\n    }\n\n    /**\n@notice checkCollateralValue is a view function that accepts an account address and returns the total USDC value\n        of the accounts locked collateral\n@param _borrower is the address whos collateral value we are looking up\n **/\n    function checkAvailibleCollateralValue(\n        address _borrower,\n        address _WarpVault\n    ) external view returns (uint256) {\n        //instantiate warp vault at that position\n        WarpVaultLPI WV = WarpVaultLPI(_WarpVault);\n        //retreive the address of its asset\n        address asset = WV.getAssetAdd();\n        //retrieve USD price of this asset\n        uint256 priceOfAsset = Oracle.getUnderlyingPrice(asset);\n        //retrieve the amount of the asset locked as collateral\n        uint256 amountOfAssetCollat = WV.lpBalanceOf(_borrower);\n        //multiply the amount of collateral by the asset price and return it\n        return amountOfAssetCollat.mul(priceOfAsset);\n    }\n\n    /**\n    @notice checkCollateralValue is a view function that accepts an account address and returns the total USDC value\n            of the accounts locked collateral\n    @param _borrower is the address whos collateral value we are looking up\n     **/\n    function checkLockedCollateralValue(address _borrower, address _WarpVault)\n        external\n        view\n        returns (uint256)\n    {\n        WarpVaultLPI WV = WarpVaultLPI(_WarpVault);\n        //retreive the address of its asset\n        address asset = WV.getAssetAdd();\n        //retrieve USD price of this asset\n        uint256 priceOfAsset = Oracle.getUnderlyingPrice(asset);\n        //retrieve the amount of the asset locked as collateral\n        uint256 amountOfAssetCollat = WV.lockedWLPbalanceOf(\n            _borrower,\n            _WarpVault\n        );\n        //multiply the amount of collateral by the asset price and return it\n        return amountOfAssetCollat.mul(priceOfAsset);\n    }\n}\n",
  "sourcePath": "/home/stan36/repos/Warp/Smart-Contracts/contracts/WarpControl.sol",
  "compiler": {
    "name": "solc",
    "version": "0.6.6+commit.6c089d02.Emscripten.clang"
  },
  "schemaVersion": "3.2.4",
  "updatedAt": "2020-11-04T03:26:07.115Z",
  "devdoc": {
    "methods": {
      "checkAvailibleCollateralValue(address,address)": {
        "params": {
          "_borrower": "is the address whos collateral value we are looking up*"
        }
      },
      "checkLockedCollateralValue(address,address)": {
        "params": {
          "_borrower": "is the address whos collateral value we are looking up*"
        }
      },
      "constructor": {
        "params": {
          "_oracle": "is the address for the UniswapOracleFactorycontract*"
        }
      },
      "lockCollateralDown(address,address,address,uint256)": {
        "params": {
          "_amount": "is the amount of LP being collateralized*",
          "_borrower": "is the address of the borrower"
        }
      },
      "lockCollateralUp(address,address,uint256)": {
        "params": {
          "_amount": "is the USDC value thats looking to be locked up*",
          "_borrower": "is the address of the borrower"
        }
      },
      "owner()": {
        "details": "Returns the address of the current owner."
      },
      "renounceOwnership()": {
        "details": "Leaves the contract without owner. It will not be possible to call `onlyOwner` functions anymore. Can only be called by the current owner.     * NOTE: Renouncing ownership will leave the contract without an owner, thereby removing any functionality that is only available to the owner."
      },
      "transferOwnership(address)": {
        "details": "Transfers ownership of the contract to a new account (`newOwner`). Can only be called by the current owner."
      }
    }
  },
  "userdoc": {
    "methods": {
      "checkAvailibleCollateralValue(address,address)": {
        "notice": "checkCollateralValue is a view function that accepts an account address and returns the total USDC value of the accounts locked collateral"
      },
      "checkLockedCollateralValue(address,address)": {
        "notice": "checkCollateralValue is a view function that accepts an account address and returns the total USDC value of the accounts locked collateral"
      },
      "constructor": "the constructor function is fired during the contract deployment process. The constructor can only be fired once and is used to set up Oracle variables for the MoneyMarketFactory contract.",
      "createNewLPVault(address,address,address,address,string)": {
        "notice": "createNewVault allows the contract owner to create a new WarpVaultLP contract along with its associated Warp Wrapper Tokens*"
      },
      "lockCollateralDown(address,address,address,uint256)": {
        "notice": "lockCollateralDown is an external function used to track locked collateral amounts globally as they decrease"
      },
      "lockCollateralUp(address,address,uint256)": {
        "notice": "lockCollateralUp is an external function used to track locked collateral amounts globally as they increase"
      }
    },
    "notice": "WarpControl is designed to coordinate Warp Vaults This contract uses the OpenZeppelin contract Library to inherit functions from Ownable.sol*"
  }
}