{
  "contractName": "WarpControl",
  "abi": [
    {
      "inputs": [
        {
          "internalType": "address",
          "name": "_oracle",
          "type": "address"
        },
        {
          "internalType": "address",
          "name": "_WVLPF",
          "type": "address"
        },
        {
          "internalType": "address",
          "name": "_WVSCF",
          "type": "address"
        },
        {
          "internalType": "address",
          "name": "_warpTeam",
          "type": "address"
        }
      ],
      "stateMutability": "nonpayable",
      "type": "constructor"
    },
    {
      "anonymous": false,
      "inputs": [
        {
          "indexed": false,
          "internalType": "address",
          "name": "_account",
          "type": "address"
        },
        {
          "indexed": false,
          "internalType": "address",
          "name": "liquidator",
          "type": "address"
        }
      ],
      "name": "Liquidation",
      "type": "event"
    },
    {
      "anonymous": false,
      "inputs": [
        {
          "indexed": false,
          "internalType": "address",
          "name": "_borrower",
          "type": "address"
        },
        {
          "indexed": false,
          "internalType": "address",
          "name": "_StableCoin",
          "type": "address"
        },
        {
          "indexed": false,
          "internalType": "uint256",
          "name": "_amountBorrowed",
          "type": "uint256"
        }
      ],
      "name": "NewBorrow",
      "type": "event"
    },
    {
      "anonymous": false,
      "inputs": [
        {
          "indexed": false,
          "internalType": "address",
          "name": "_newVault",
          "type": "address"
        }
      ],
      "name": "NewLPVault",
      "type": "event"
    },
    {
      "anonymous": false,
      "inputs": [
        {
          "indexed": false,
          "internalType": "address",
          "name": "_newVault",
          "type": "address"
        },
        {
          "indexed": false,
          "internalType": "address",
          "name": "_interestRateModel",
          "type": "address"
        }
      ],
      "name": "NewSCVault",
      "type": "event"
    },
    {
      "anonymous": false,
      "inputs": [
        {
          "indexed": false,
          "internalType": "address",
          "name": "_account",
          "type": "address"
        },
        {
          "indexed": false,
          "internalType": "uint256",
          "name": "_time",
          "type": "uint256"
        }
      ],
      "name": "NotCompliant",
      "type": "event"
    },
    {
      "anonymous": false,
      "inputs": [
        {
          "indexed": true,
          "internalType": "address",
          "name": "previousOwner",
          "type": "address"
        },
        {
          "indexed": true,
          "internalType": "address",
          "name": "newOwner",
          "type": "address"
        }
      ],
      "name": "OwnershipTransferred",
      "type": "event"
    },
    {
      "anonymous": false,
      "inputs": [
        {
          "indexed": false,
          "internalType": "address",
          "name": "_account",
          "type": "address"
        },
        {
          "indexed": false,
          "internalType": "uint256",
          "name": "_time",
          "type": "uint256"
        }
      ],
      "name": "complianceReset",
      "type": "event"
    },
    {
      "inputs": [],
      "name": "Oracle",
      "outputs": [
        {
          "internalType": "contract UniswapLPOracleFactoryI",
          "name": "",
          "type": "address"
        }
      ],
      "stateMutability": "view",
      "type": "function"
    },
    {
      "inputs": [],
      "name": "WVLPF",
      "outputs": [
        {
          "internalType": "contract WarpVaultLPFactoryI",
          "name": "",
          "type": "address"
        }
      ],
      "stateMutability": "view",
      "type": "function"
    },
    {
      "inputs": [],
      "name": "WVSCF",
      "outputs": [
        {
          "internalType": "contract WarpVaultSCFactoryI",
          "name": "",
          "type": "address"
        }
      ],
      "stateMutability": "view",
      "type": "function"
    },
    {
      "inputs": [
        {
          "internalType": "address",
          "name": "",
          "type": "address"
        }
      ],
      "name": "existingRefferalCode",
      "outputs": [
        {
          "internalType": "bool",
          "name": "",
          "type": "bool"
        }
      ],
      "stateMutability": "view",
      "type": "function"
    },
    {
      "inputs": [
        {
          "internalType": "address",
          "name": "",
          "type": "address"
        }
      ],
      "name": "getVaultByAsset",
      "outputs": [
        {
          "internalType": "address",
          "name": "",
          "type": "address"
        }
      ],
      "stateMutability": "view",
      "type": "function"
    },
    {
      "inputs": [],
      "name": "graceSpace",
      "outputs": [
        {
          "internalType": "uint256",
          "name": "",
          "type": "uint256"
        }
      ],
      "stateMutability": "view",
      "type": "function"
    },
    {
      "inputs": [
        {
          "internalType": "uint256",
          "name": "",
          "type": "uint256"
        }
      ],
      "name": "groups",
      "outputs": [
        {
          "internalType": "address",
          "name": "",
          "type": "address"
        }
      ],
      "stateMutability": "view",
      "type": "function"
    },
    {
      "inputs": [
        {
          "internalType": "address",
          "name": "",
          "type": "address"
        }
      ],
      "name": "groupsYourIn",
      "outputs": [
        {
          "internalType": "address",
          "name": "",
          "type": "address"
        }
      ],
      "stateMutability": "view",
      "type": "function"
    },
    {
      "inputs": [
        {
          "internalType": "address",
          "name": "",
          "type": "address"
        }
      ],
      "name": "instanceLPTracker",
      "outputs": [
        {
          "internalType": "address",
          "name": "",
          "type": "address"
        }
      ],
      "stateMutability": "view",
      "type": "function"
    },
    {
      "inputs": [
        {
          "internalType": "address",
          "name": "",
          "type": "address"
        }
      ],
      "name": "instanceSCTracker",
      "outputs": [
        {
          "internalType": "address",
          "name": "",
          "type": "address"
        }
      ],
      "stateMutability": "view",
      "type": "function"
    },
    {
      "inputs": [
        {
          "internalType": "address",
          "name": "",
          "type": "address"
        }
      ],
      "name": "isInGroup",
      "outputs": [
        {
          "internalType": "bool",
          "name": "",
          "type": "bool"
        }
      ],
      "stateMutability": "view",
      "type": "function"
    },
    {
      "inputs": [
        {
          "internalType": "address",
          "name": "",
          "type": "address"
        }
      ],
      "name": "isParticipant",
      "outputs": [
        {
          "internalType": "bool",
          "name": "",
          "type": "bool"
        }
      ],
      "stateMutability": "view",
      "type": "function"
    },
    {
      "inputs": [
        {
          "internalType": "address",
          "name": "",
          "type": "address"
        }
      ],
      "name": "isVault",
      "outputs": [
        {
          "internalType": "bool",
          "name": "",
          "type": "bool"
        }
      ],
      "stateMutability": "view",
      "type": "function"
    },
    {
      "inputs": [
        {
          "internalType": "uint256",
          "name": "",
          "type": "uint256"
        }
      ],
      "name": "launchParticipants",
      "outputs": [
        {
          "internalType": "address",
          "name": "",
          "type": "address"
        }
      ],
      "stateMutability": "view",
      "type": "function"
    },
    {
      "inputs": [
        {
          "internalType": "address",
          "name": "",
          "type": "address"
        }
      ],
      "name": "lockedLPValue",
      "outputs": [
        {
          "internalType": "uint256",
          "name": "",
          "type": "uint256"
        }
      ],
      "stateMutability": "view",
      "type": "function"
    },
    {
      "inputs": [
        {
          "internalType": "uint256",
          "name": "",
          "type": "uint256"
        }
      ],
      "name": "lpVaults",
      "outputs": [
        {
          "internalType": "address",
          "name": "",
          "type": "address"
        }
      ],
      "stateMutability": "view",
      "type": "function"
    },
    {
      "inputs": [],
      "name": "owner",
      "outputs": [
        {
          "internalType": "address",
          "name": "",
          "type": "address"
        }
      ],
      "stateMutability": "view",
      "type": "function"
    },
    {
      "inputs": [
        {
          "internalType": "address",
          "name": "",
          "type": "address"
        }
      ],
      "name": "refferalCodeToGroupName",
      "outputs": [
        {
          "internalType": "string",
          "name": "",
          "type": "string"
        }
      ],
      "stateMutability": "view",
      "type": "function"
    },
    {
      "inputs": [
        {
          "internalType": "address",
          "name": "",
          "type": "address"
        },
        {
          "internalType": "uint256",
          "name": "",
          "type": "uint256"
        }
      ],
      "name": "refferalCodeTracker",
      "outputs": [
        {
          "internalType": "address",
          "name": "",
          "type": "address"
        }
      ],
      "stateMutability": "view",
      "type": "function"
    },
    {
      "inputs": [],
      "name": "renounceOwnership",
      "outputs": [],
      "stateMutability": "nonpayable",
      "type": "function"
    },
    {
      "inputs": [
        {
          "internalType": "uint256",
          "name": "",
          "type": "uint256"
        }
      ],
      "name": "scVaults",
      "outputs": [
        {
          "internalType": "address",
          "name": "",
          "type": "address"
        }
      ],
      "stateMutability": "view",
      "type": "function"
    },
    {
      "inputs": [
        {
          "internalType": "address",
          "name": "newOwner",
          "type": "address"
        }
      ],
      "name": "transferOwnership",
      "outputs": [],
      "stateMutability": "nonpayable",
      "type": "function"
    },
    {
      "inputs": [],
      "name": "warpTeam",
      "outputs": [
        {
          "internalType": "address",
          "name": "",
          "type": "address"
        }
      ],
      "stateMutability": "view",
      "type": "function"
    },
    {
      "inputs": [],
      "name": "viewNumLPVaults",
      "outputs": [
        {
          "internalType": "uint256",
          "name": "",
          "type": "uint256"
        }
      ],
      "stateMutability": "view",
      "type": "function"
    },
    {
      "inputs": [],
      "name": "viewNumSCVaults",
      "outputs": [
        {
          "internalType": "uint256",
          "name": "",
          "type": "uint256"
        }
      ],
      "stateMutability": "view",
      "type": "function"
    },
    {
      "inputs": [],
      "name": "viewLaunchParticipants",
      "outputs": [
        {
          "internalType": "address[]",
          "name": "",
          "type": "address[]"
        }
      ],
      "stateMutability": "view",
      "type": "function"
    },
    {
      "inputs": [],
      "name": "viewAllGroups",
      "outputs": [
        {
          "internalType": "address[]",
          "name": "",
          "type": "address[]"
        }
      ],
      "stateMutability": "view",
      "type": "function"
    },
    {
      "inputs": [
        {
          "internalType": "address",
          "name": "_refferalCode",
          "type": "address"
        }
      ],
      "name": "viewAllMembersOfAGroup",
      "outputs": [
        {
          "internalType": "address[]",
          "name": "",
          "type": "address[]"
        }
      ],
      "stateMutability": "view",
      "type": "function"
    },
    {
      "inputs": [
        {
          "internalType": "address",
          "name": "_refferalCode",
          "type": "address"
        }
      ],
      "name": "getGroupName",
      "outputs": [
        {
          "internalType": "string",
          "name": "",
          "type": "string"
        }
      ],
      "stateMutability": "view",
      "type": "function"
    },
    {
      "inputs": [
        {
          "internalType": "address",
          "name": "_account",
          "type": "address"
        }
      ],
      "name": "getAccountsGroup",
      "outputs": [
        {
          "internalType": "address",
          "name": "",
          "type": "address"
        }
      ],
      "stateMutability": "view",
      "type": "function"
    },
    {
      "inputs": [
        {
          "internalType": "uint256",
          "name": "_timelock",
          "type": "uint256"
        },
        {
          "internalType": "address",
          "name": "_lp",
          "type": "address"
        },
        {
          "internalType": "address",
          "name": "_lpAsset1",
          "type": "address"
        },
        {
          "internalType": "address",
          "name": "_lpAsset2",
          "type": "address"
        },
        {
          "internalType": "string",
          "name": "_lpName",
          "type": "string"
        }
      ],
      "name": "createNewLPVault",
      "outputs": [],
      "stateMutability": "nonpayable",
      "type": "function"
    },
    {
      "inputs": [
        {
          "internalType": "uint256",
          "name": "_timelock",
          "type": "uint256"
        },
        {
          "internalType": "uint256",
          "name": "_baseRatePerYear",
          "type": "uint256"
        },
        {
          "internalType": "uint256",
          "name": "_multiplierPerYear",
          "type": "uint256"
        },
        {
          "internalType": "uint256",
          "name": "_jumpMultiplierPerYear",
          "type": "uint256"
        },
        {
          "internalType": "uint256",
          "name": "_optimal",
          "type": "uint256"
        },
        {
          "internalType": "uint256",
          "name": "_initialExchangeRate",
          "type": "uint256"
        },
        {
          "internalType": "uint256",
          "name": "_reserveFactorMantissa",
          "type": "uint256"
        },
        {
          "internalType": "address",
          "name": "_StableCoin",
          "type": "address"
        }
      ],
      "name": "createNewSCVault",
      "outputs": [],
      "stateMutability": "nonpayable",
      "type": "function"
    },
    {
      "inputs": [
        {
          "internalType": "string",
          "name": "_groupName",
          "type": "string"
        }
      ],
      "name": "createGroup",
      "outputs": [],
      "stateMutability": "nonpayable",
      "type": "function"
    },
    {
      "inputs": [
        {
          "internalType": "address",
          "name": "_refferalCode",
          "type": "address"
        },
        {
          "internalType": "address",
          "name": "_member",
          "type": "address"
        }
      ],
      "name": "addMemberToGroup",
      "outputs": [],
      "stateMutability": "nonpayable",
      "type": "function"
    },
    {
      "inputs": [
        {
          "internalType": "address",
          "name": "account",
          "type": "address"
        },
        {
          "internalType": "address",
          "name": "lpToken",
          "type": "address"
        }
      ],
      "name": "getMaxWithdrawAllowed",
      "outputs": [
        {
          "internalType": "uint256",
          "name": "",
          "type": "uint256"
        }
      ],
      "stateMutability": "nonpayable",
      "type": "function"
    },
    {
      "inputs": [
        {
          "internalType": "address",
          "name": "account",
          "type": "address"
        },
        {
          "internalType": "address",
          "name": "lpToken",
          "type": "address"
        }
      ],
      "name": "viewMaxWithdrawAllowed",
      "outputs": [
        {
          "internalType": "uint256",
          "name": "",
          "type": "uint256"
        }
      ],
      "stateMutability": "view",
      "type": "function"
    },
    {
      "inputs": [
        {
          "internalType": "address",
          "name": "_account",
          "type": "address"
        }
      ],
      "name": "getTotalAvailableCollateralValue",
      "outputs": [
        {
          "internalType": "uint256",
          "name": "",
          "type": "uint256"
        }
      ],
      "stateMutability": "nonpayable",
      "type": "function"
    },
    {
      "inputs": [
        {
          "internalType": "address",
          "name": "_account",
          "type": "address"
        }
      ],
      "name": "viewTotalAvailableCollateralValue",
      "outputs": [
        {
          "internalType": "uint256",
          "name": "",
          "type": "uint256"
        }
      ],
      "stateMutability": "view",
      "type": "function"
    },
    {
      "inputs": [
        {
          "internalType": "address",
          "name": "lpToken",
          "type": "address"
        }
      ],
      "name": "viewPriceOfCollateral",
      "outputs": [
        {
          "internalType": "uint256",
          "name": "",
          "type": "uint256"
        }
      ],
      "stateMutability": "view",
      "type": "function"
    },
    {
      "inputs": [
        {
          "internalType": "address",
          "name": "token",
          "type": "address"
        }
      ],
      "name": "viewPriceOfToken",
      "outputs": [
        {
          "internalType": "uint256",
          "name": "",
          "type": "uint256"
        }
      ],
      "stateMutability": "view",
      "type": "function"
    },
    {
      "inputs": [
        {
          "internalType": "address",
          "name": "_account",
          "type": "address"
        }
      ],
      "name": "viewTotalBorrowedValue",
      "outputs": [
        {
          "internalType": "uint256",
          "name": "",
          "type": "uint256"
        }
      ],
      "stateMutability": "view",
      "type": "function"
    },
    {
      "inputs": [
        {
          "internalType": "address",
          "name": "_account",
          "type": "address"
        }
      ],
      "name": "getTotalBorrowedValue",
      "outputs": [
        {
          "internalType": "uint256",
          "name": "",
          "type": "uint256"
        }
      ],
      "stateMutability": "nonpayable",
      "type": "function"
    },
    {
      "inputs": [
        {
          "internalType": "uint256",
          "name": "_collateralValue",
          "type": "uint256"
        }
      ],
      "name": "calcBorrowLimit",
      "outputs": [
        {
          "internalType": "uint256",
          "name": "",
          "type": "uint256"
        }
      ],
      "stateMutability": "pure",
      "type": "function"
    },
    {
      "inputs": [
        {
          "internalType": "uint256",
          "name": "_borrowAmount",
          "type": "uint256"
        }
      ],
      "name": "calcCollateralRequired",
      "outputs": [
        {
          "internalType": "uint256",
          "name": "",
          "type": "uint256"
        }
      ],
      "stateMutability": "view",
      "type": "function"
    },
    {
      "inputs": [
        {
          "internalType": "address",
          "name": "_account",
          "type": "address"
        }
      ],
      "name": "getBorrowLimit",
      "outputs": [
        {
          "internalType": "uint256",
          "name": "",
          "type": "uint256"
        }
      ],
      "stateMutability": "nonpayable",
      "type": "function"
    },
    {
      "inputs": [
        {
          "internalType": "address",
          "name": "_account",
          "type": "address"
        }
      ],
      "name": "viewBorrowLimit",
      "outputs": [
        {
          "internalType": "uint256",
          "name": "",
          "type": "uint256"
        }
      ],
      "stateMutability": "view",
      "type": "function"
    },
    {
      "inputs": [
        {
          "internalType": "address",
          "name": "_StableCoin",
          "type": "address"
        },
        {
          "internalType": "uint256",
          "name": "_amount",
          "type": "uint256"
        }
      ],
      "name": "borrowSC",
      "outputs": [],
      "stateMutability": "nonpayable",
      "type": "function"
    },
    {
      "inputs": [
        {
          "internalType": "address",
          "name": "_borrower",
          "type": "address"
        }
      ],
      "name": "liquidateAccount",
      "outputs": [],
      "stateMutability": "nonpayable",
      "type": "function"
    },
    {
      "inputs": [
        {
          "internalType": "address",
          "name": "_token",
          "type": "address"
        },
        {
          "internalType": "uint256",
          "name": "_baseRatePerYear",
          "type": "uint256"
        },
        {
          "internalType": "uint256",
          "name": "_multiplierPerYear",
          "type": "uint256"
        },
        {
          "internalType": "uint256",
          "name": "_jumpMultiplierPerYear",
          "type": "uint256"
        },
        {
          "internalType": "uint256",
          "name": "_optimal",
          "type": "uint256"
        }
      ],
      "name": "updateInterestRateModel",
      "outputs": [],
      "stateMutability": "nonpayable",
      "type": "function"
    },
    {
      "inputs": [],
      "name": "startUpgradeTimer",
      "outputs": [],
      "stateMutability": "nonpayable",
      "type": "function"
    },
    {
      "inputs": [
        {
          "internalType": "address",
          "name": "_newWarpControl",
          "type": "address"
        }
      ],
      "name": "upgradeWarp",
      "outputs": [],
      "stateMutability": "nonpayable",
      "type": "function"
    }
  ],
  "bytecode": "0x60806040523480156200001157600080fd5b5060405162003bee38038062003bee833981810160405260808110156200003757600080fd5b50805160208201516040830151606090930151919290916000620000636001600160e01b036200010116565b600080546001600160a01b0319166001600160a01b0383169081178255604051929350917f8be0079c531659141344cd1fd0a4f28419497f9722a3daafe3b4186f6b6457e0908290a350600180546001600160a01b039586166001600160a01b031991821617909155600280549486169482169490941790935560038054928516928416929092179091556004805491909316911617905562000105565b3390565b613ad980620001156000396000f3fe60806040523480156200001157600080fd5b50600436106200033a5760003560e01c806396324bd411620001c5578063da4f7fb211620000ff578063ea7184fd11620000b1578063efdebdf51162000087578063efdebdf51462000bf5578063f24a534e1462000bff578063f2fde38b1462000c09578063f3c7f9871462000c32576200033a565b8063ea7184fd1462000b83578063ed6072f61462000bac578063ed85fdff1462000bcc576200033a565b8063da4f7fb21462000990578063dc2ddcae14620009b0578063e1535d121462000a5c578063e3c351b81462000a66578063e50f4a301462000a8f578063e7b34be31462000b63576200033a565b8063acc9e5b11162000177578063be9287e3116200014d578063be9287e314620008ce578063cf23073814620008f7578063d38ca6d91462000938578063d6fff56f1462000961576200033a565b8063acc9e5b1146200085c578063b04207921462000885578063bc64cd4e14620008a5576200033a565b806396324bd414620007a55780639da7875714620007c5578063a092b71814620007ee578063a2b35d9d14620007f8578063a372e01c1462000821578063ab5e2c99146200082b576200033a565b80636222630811620002975780637c17d23711620002495780638ac5d4a3116200021f5780638ac5d4a314620007205780638c34b48014620007495780638da5cb5b1462000772578063929066f5146200077c576200033a565b80637c17d237146200062557806384c38dd8146200064e578063856d836b14620006ef576200033a565b80636222630814620005955780636467a7b014620005b5578063652b9b4114620005bf5780636af5f75214620005e8578063715018a614620005f25780637af70ba614620005fc576200033a565b80632d23adbd11620002f15780632d23adbd146200045857806348cca25414620004815780634e590bee14620004fc5780635136f31514620005255780635cf5738914620005625780635d34f08a146200056c576200033a565b80630a555989146200033f5780630a8a4d3f14620003705780630c1e2b92146200038c578063169d4b1414620003d15780631dbb0b8114620003fa5780632792bdd01462000404575b600080fd5b6200036e600480360360408110156200035757600080fd5b506001600160a01b03813516906020013562000c63565b005b6200037a62000deb565b60408051918252519081900360200190f35b620003b560048036036020811015620003a457600080fd5b50356001600160a01b031662000df1565b604080516001600160a01b039092168252519081900360200190f35b6200037a60048036036020811015620003e957600080fd5b50356001600160a01b031662000e0c565b6200037a62000e2e565b6200036e60048036036101008110156200041d57600080fd5b5080359060208101359060408101359060608101359060808101359060a08101359060c08101359060e001356001600160a01b031662000e35565b620003b5600480360360208110156200047057600080fd5b50356001600160a01b031662001077565b620004aa600480360360208110156200049957600080fd5b50356001600160a01b031662001092565b60408051602080825283518183015283519192839290830191858101910280838360005b83811015620004e8578181015183820152602001620004ce565b505050509050019250505060405180910390f35b6200037a600480360360208110156200051457600080fd5b50356001600160a01b03166200110a565b6200054e600480360360208110156200053d57600080fd5b50356001600160a01b031662001190565b604080519115158252519081900360200190f35b620003b5620011a5565b620003b5600480360360208110156200058457600080fd5b50356001600160a01b0316620011b4565b620003b560048036036020811015620005ad57600080fd5b5035620011d2565b6200036e620011fa565b6200054e60048036036020811015620005d757600080fd5b50356001600160a01b03166200122c565b620003b562001241565b6200036e62001250565b6200037a600480360360208110156200061457600080fd5b50356001600160a01b0316620012f6565b6200037a600480360360208110156200063d57600080fd5b50356001600160a01b0316620014f6565b62000677600480360360208110156200066657600080fd5b50356001600160a01b031662001504565b6040805160208082528351818301528351919283929083019185019080838360005b83811015620006b357818101518382015260200162000699565b50505050905090810190601f168015620006e15780820380516001836020036101000a031916815260200191505b509250505060405180910390f35b6200036e600480360360408110156200070757600080fd5b506001600160a01b0381358116916020013516620015a9565b6200036e600480360360208110156200073857600080fd5b50356001600160a01b031662001730565b6200036e600480360360208110156200076157600080fd5b50356001600160a01b031662001b4a565b620003b562001de7565b6200054e600480360360208110156200079457600080fd5b50356001600160a01b031662001df6565b620003b560048036036020811015620007bd57600080fd5b503562001e0b565b6200067760048036036020811015620007dd57600080fd5b50356001600160a01b031662001e19565b620004aa62001eb8565b6200037a600480360360208110156200081057600080fd5b50356001600160a01b031662001f1c565b620004aa62002070565b6200037a600480360360408110156200084357600080fd5b506001600160a01b0381358116916020013516620020d2565b620003b5600480360360208110156200087457600080fd5b50356001600160a01b0316620021b3565b620003b5600480360360208110156200089d57600080fd5b5035620021ce565b6200037a60048036036020811015620008bd57600080fd5b50356001600160a01b0316620021dc565b6200037a60048036036020811015620008e657600080fd5b50356001600160a01b0316620023b8565b6200036e600480360360a08110156200090f57600080fd5b506001600160a01b03813516906020810135906040810135906060810135906080013562002503565b6200037a600480360360208110156200095057600080fd5b50356001600160a01b03166200263e565b620003b5600480360360408110156200097957600080fd5b506001600160a01b03813516906020013562002690565b6200037a60048036036020811015620009a857600080fd5b5035620026c6565b6200036e60048036036020811015620009c857600080fd5b810190602081018135640100000000811115620009e457600080fd5b820183602082011115620009f757600080fd5b8035906020019184600183028401116401000000008311171562000a1a57600080fd5b91908080601f0160208091040260200160405190810160405280939291908181526020018383808284376000920191909152509295506200277b945050505050565b6200037a6200283e565b6200037a6004803603602081101562000a7e57600080fd5b50356001600160a01b031662002844565b6200036e600480360360a081101562000aa757600080fd5b8135916001600160a01b03602082013581169260408301358216926060810135909216919081019060a08101608082013564010000000081111562000aeb57600080fd5b82018360208201111562000afe57600080fd5b8035906020019184600183028401116401000000008311171562000b2157600080fd5b91908080601f01602080910402602001604051908101604052809392919081815260200183838082843760009201919091525092955062002856945050505050565b620003b56004803603602081101562000b7b57600080fd5b503562002aec565b6200054e6004803603602081101562000b9b57600080fd5b50356001600160a01b031662002afa565b6200037a6004803603602081101562000bc457600080fd5b503562002b0f565b620003b56004803603602081101562000be457600080fd5b50356001600160a01b031662002b39565b620003b562002b54565b620003b562002b63565b6200036e6004803603602081101562000c2157600080fd5b50356001600160a01b031662002b72565b6200037a6004803603604081101562000c4a57600080fd5b506001600160a01b038135811691602001351662002c70565b600062000c703362001f1c565b9050600062000c7f33620014f6565b9050600062000c95828463ffffffff62002d0c16565b90508381101562000ced576040805162461bcd60e51b815260206004820152601b60248201527f426f72726f77696e67206d6f7265207468616e20616c6c6f7765640000000000604482015290519081900360640190fd5b336000908152600d602052604090205462000d0f908563ffffffff62002d5016565b336000818152600d60209081526040808320949094556001600160a01b038981168352600b909152838220548451631196a36960e11b8152600481018a905260248101949094529351931692839263232d46d292604480830193919282900301818387803b15801562000d8157600080fd5b505af115801562000d96573d6000803e3d6000fd5b5050604080513381526001600160a01b038a16602082015280820189905290517f39afaad37daff6f7a5998bf9de35bb3f46d51f73227bb182d92c016c981a82909350908190036060019150a1505050505050565b60055481565b600b602052600090815260409020546001600160a01b031681565b60008062000e1a83620021dc565b905062000e278162002b0f565b9392505050565b6007545b90565b62000e3f62002dab565b6000546001600160a01b0390811691161462000e91576040805162461bcd60e51b8152602060048201819052602482015260008051602062003a84833981519152604482015290519081900360640190fd5b6000878787873060405162000ea69062002f55565b948552602085019390935260408085019290925260608401526001600160a01b039091166080830152519081900360a001906000f08015801562000eee573d6000803e3d6000fd5b506003546004805460408051630f10a94560e31b81526001600160a01b03808716948201949094528784166024820152918316604483015260648201899052608482018e905260a482018890525193945060009391909216916378854a289160c480830192602092919082900301818787803b15801562000f6e57600080fd5b505af115801562000f83573d6000803e3d6000fd5b505050506040513d602081101562000f9a57600080fd5b50516001600160a01b038085166000818152600b6020908152604080832080548688166001600160a01b031991821681179092556007805460018181019092557fa66cc928b5edb82af9bd49922954155ab7b0942694bea4ce44661d9a8736c688018054831684179055828652600e8552838620805460ff19169091179055600c845293829020805490941690941790925581519283529286169282019290925281519293507f2c3b5544df8032e6313fd1e59faede21004ab06bb69c1f6640a41566225cb00a929081900390910190a150505050505050505050565b6014602052600090815260409020546001600160a01b031681565b6001600160a01b0381166000908152600f6020908152604091829020805483518184028101840190945280845260609392830182828015620010fe57602002820191906000526020600020905b81546001600160a01b03168152600190910190602001808311620010df575b50505050509050919050565b6001546040805163b04c6d3f60e01b81526001600160a01b0384811660048301529151600093929092169163b04c6d3f91602480820192602092909190829003018186803b1580156200115c57600080fd5b505afa15801562001171573d6000803e3d6000fd5b505050506040513d60208110156200118857600080fd5b505192915050565b60126020526000908152604090205460ff1681565b6004546001600160a01b031681565b6001600160a01b039081166000908152601460205260409020541690565b60068181548110620011e057fe5b6000918252602090912001546001600160a01b0316905081565b6004546001600160a01b031633146200121257600080fd5b62001227426202a30063ffffffff62002d5016565b600555565b600e6020526000908152604090205460ff1681565b6002546001600160a01b031681565b6200125a62002dab565b6000546001600160a01b03908116911614620012ac576040805162461bcd60e51b8152602060048201819052602482015260008051602062003a84833981519152604482015290519081900360640190fd5b600080546040516001600160a01b03909116907f8be0079c531659141344cd1fd0a4f28419497f9722a3daafe3b4186f6b6457e0908390a3600080546001600160a01b0319169055565b60065460009081805b82811015620014d3576000600682815481106200131857fe5b6000918252602080832090910154604080516313082b1d60e21b815290516001600160a01b0390921694508492634c20ac7492600480840193829003018186803b1580156200136657600080fd5b505afa1580156200137b573d6000803e3d6000fd5b505050506040513d60208110156200139257600080fd5b50516001546040805163fc57d4df60e01b81526001600160a01b0380851660048301529151939450600093919092169163fc57d4df91602480830192602092919082900301818787803b158015620013e957600080fd5b505af1158015620013fe573d6000803e3d6000fd5b505050506040513d60208110156200141557600080fd5b50516040805163f919b4bf60e01b81526001600160a01b038b8116600483015291519293506000929186169163f919b4bf91602480820192602092909190829003018186803b1580156200146857600080fd5b505afa1580156200147d573d6000803e3d6000fd5b505050506040513d60208110156200149457600080fd5b505190506000620014ac828463ffffffff62002daf16565b9050620014c0878263ffffffff62002d5016565b96505050505050806001019050620012ff565b50620014ee81670de0b6b3a764000063ffffffff62002e0d16565b949350505050565b60008062000e1a83620012f6565b6001600160a01b03811660009081526010602090815260409182902080548351601f6002600019610100600186161502019093169290920491820184900484028101840190945280845260609392830182828015620010fe5780601f106200157b57610100808354040283529160200191620010fe565b820191906000526020600020905b815481529060010190602001808311620015895750939695505050505050565b336000908152600e602052604090205460ff161515600114620015cb57600080fd5b6001600160a01b03811660009081526013602052604090205460ff1615806200161057506001600160a01b038181166000908152601460205260409020548116908316145b62001662576040805162461bcd60e51b815260206004820152601d60248201527f43616e74206a6f696e206d6f7265207468616e206f6e652067726f7570000000604482015290519081900360640190fd5b6001600160a01b038083166000818152600f602090815260408083208054600181810183559185528385200180549688166001600160a01b03199788168117909155845260138352818420805460ff19169091179055601482528083208054909516909317909355601190925290205460ff166200172c5760088054600181019091557ff3f7a9fe364faab93b216da50a3214154f22a0a2b415b23a84c8169e8b636ee30180546001600160a01b0319166001600160a01b03831690811790915560005260116020525b5050565b336001600160a01b03821614156200174757600080fd5b600754600654600060608367ffffffffffffffff811180156200176957600080fd5b5060405190808252806020026020018201604052801562001794578160200160208202803683370190505b50905060005b848110156200195557600060078281548110620017b357fe5b6000918252602080832090910154604080516305eff7ef60e21b81526001600160a01b038c81166004830152915191909216945084936317bfdfbc93602480850194919392918390030190829087803b1580156200181057600080fd5b505af115801562001825573d6000803e3d6000fd5b505050506040513d60208110156200183c57600080fd5b505183518490849081106200184d57fe5b6020026020010181815250506000816001600160a01b03166394d359906040518163ffffffff1660e01b815260040160206040518083038186803b1580156200189557600080fd5b505afa158015620018aa573d6000803e3d6000fd5b505050506040513d6020811015620018c157600080fd5b50516001600160a01b038084166000908152600c602052604081205492935091620018ed91166200263e565b905060006200192f83600a0a620019228888815181106200190a57fe5b60200260200101518562002daf90919063ffffffff16565b9063ffffffff62002e0d16565b905062001943878263ffffffff62002d5016565b9650505050508060010190506200179a565b5060006200196386620014f6565b905082811162001b425760005b8581101562001a5e576000600782815481106200198957fe5b9060005260206000200160009054906101000a90046001600160a01b03169050806001600160a01b031663ab292f9b8933878681518110620019c757fe5b60200260200101516040518463ffffffff1660e01b815260040180846001600160a01b03166001600160a01b03168152602001836001600160a01b03166001600160a01b031681526020018281526020019350505050600060405180830381600087803b15801562001a3857600080fd5b505af115801562001a4d573d6000803e3d6000fd5b505050505080600101905062001970565b5060005b8481101562001afd5760006006828154811062001a7b57fe5b600091825260208220015460408051633d2d78f960e21b81526001600160a01b038c811660048301523360248301529151919092169350839263f4b5e3e4926044808201939182900301818387803b15801562001ad757600080fd5b505af115801562001aec573d6000803e3d6000fd5b505050505080600101905062001a62565b50604080516001600160a01b038816815233602082015281517fce054da468b0607d4d65949d7572acd17087e593b3e5be27ba665ba1a60ad75b929181900390910190a15b505050505050565b6004546001600160a01b0316331462001b6257600080fd5b60055442101562001b7257600080fd5b60065460075460005b8281101562001c105760006006828154811062001b9457fe5b60009182526020822001546040805163f2fde38b60e01b81526001600160a01b0389811660048301529151919092169350839263f2fde38b926024808201939182900301818387803b15801562001bea57600080fd5b505af115801562001bff573d6000803e3d6000fd5b505050505080600101905062001b7b565b5060005b8181101562001ca95760006007828154811062001c2d57fe5b60009182526020822001546040805163f2fde38b60e01b81526001600160a01b0389811660048301529151919092169350839263f2fde38b926024808201939182900301818387803b15801562001c8357600080fd5b505af115801562001c98573d6000803e3d6000fd5b505050505080600101905062001c14565b506002546040805163f2fde38b60e01b81526001600160a01b0386811660048301529151919092169163f2fde38b91602480830192600092919082900301818387803b15801562001cf957600080fd5b505af115801562001d0e573d6000803e3d6000fd5b50506003546040805163f2fde38b60e01b81526001600160a01b038881166004830152915191909216935063f2fde38b9250602480830192600092919082900301818387803b15801562001d6157600080fd5b505af115801562001d76573d6000803e3d6000fd5b50506001546040805163f2fde38b60e01b81526001600160a01b038881166004830152915191909216935063f2fde38b9250602480830192600092919082900301818387803b15801562001dc957600080fd5b505af115801562001dde573d6000803e3d6000fd5b50505050505050565b6000546001600160a01b031690565b60116020526000908152604090205460ff1681565b60098181548110620011e057fe5b60106020908152600091825260409182902080548351601f60026000196101006001861615020190931692909204918201849004840281018401909452808452909183018282801562001eb05780601f1062001e845761010080835404028352916020019162001eb0565b820191906000526020600020905b81548152906001019060200180831162001e9257829003601f168201915b505050505081565b6060600980548060200260200160405190810160405280929190818152602001828054801562001f1257602002820191906000526020600020905b81546001600160a01b0316815260019091019060200180831162001ef3575b5050505050905090565b60075460009081805b82811015620020685760006007828154811062001f3e57fe5b6000918252602080832090910154604080516305eff7ef60e21b81526001600160a01b038b81166004830152915191909216945084926317bfdfbc926024808201939182900301818787803b15801562001f9757600080fd5b505af115801562001fac573d6000803e3d6000fd5b505050506040513d602081101562001fc357600080fd5b50516040805163094d359960e41b815290519192506000916001600160a01b038516916394d35990916004808301926020929190829003018186803b1580156200200c57600080fd5b505afa15801562002021573d6000803e3d6000fd5b505050506040513d60208110156200203857600080fd5b5051905062002057600a82900a62001922878563ffffffff62002d5016565b945050505080600101905062001f25565b509392505050565b6060600880548060200260200160405190810160405280929190818152602001828054801562001f12576020028201919060005260206000209081546001600160a01b0316815260019091019060200180831162001ef3575050505050905090565b600080620020e08462001f1c565b90506000620020ef85620012f6565b9050600062002105828463ffffffff62002d0c16565b6001546040805163fc57d4df60e01b81526001600160a01b0389811660048301529151939450600093919092169163fc57d4df91602480830192602092919082900301818787803b1580156200215a57600080fd5b505af11580156200216f573d6000803e3d6000fd5b505050506040513d60208110156200218657600080fd5b50519050620021a681620019228464e8d4a5100063ffffffff62002daf16565b9450505050505b92915050565b600a602052600090815260409020546001600160a01b031681565b60078181548110620011e057fe5b60065460009081805b82811015620014d357600060068281548110620021fe57fe5b6000918252602080832090910154604080516313082b1d60e21b815290516001600160a01b0390921694508492634c20ac7492600480840193829003018186803b1580156200224c57600080fd5b505afa15801562002261573d6000803e3d6000fd5b505050506040513d60208110156200227857600080fd5b50516001546040805163b04c6d3f60e01b81526001600160a01b0380851660048301529151939450600093919092169163b04c6d3f916024808301926020929190829003018186803b158015620022ce57600080fd5b505afa158015620022e3573d6000803e3d6000fd5b505050506040513d6020811015620022fa57600080fd5b50516040805163f919b4bf60e01b81526001600160a01b038b8116600483015291519293506000929186169163f919b4bf91602480820192602092909190829003018186803b1580156200234d57600080fd5b505afa15801562002362573d6000803e3d6000fd5b505050506040513d60208110156200237957600080fd5b50519050600062002391828463ffffffff62002daf16565b9050620023a5878263ffffffff62002d5016565b96505050505050806001019050620021e5565b60075460009081805b828110156200206857600060078281548110620023da57fe5b600091825260208083209091015460408051637746efab60e01b81526001600160a01b038b8116600483015291519190921694508492637746efab9260248082019391829003018186803b1580156200243257600080fd5b505afa15801562002447573d6000803e3d6000fd5b505050506040513d60208110156200245e57600080fd5b50516040805163094d359960e41b815290519192506000916001600160a01b038516916394d35990916004808301926020929190829003018186803b158015620024a757600080fd5b505afa158015620024bc573d6000803e3d6000fd5b505050506040513d6020811015620024d357600080fd5b50519050620024f2600a82900a62001922878563ffffffff62002d5016565b9450505050806001019050620023c1565b6200250d62002dab565b6000546001600160a01b039081169116146200255f576040805162461bcd60e51b8152602060048201819052602482015260008051602062003a84833981519152604482015290519081900360640190fd5b60008484848430604051620025749062002f55565b948552602085019390935260408085019290925260608401526001600160a01b039091166080830152519081900360a001906000f080158015620025bc573d6000803e3d6000fd5b506001600160a01b038088166000908152600b602052604080822054815163b1be82f160e01b815284861660048201529151949550909216928392839263b1be82f19260248084019382900301818387803b1580156200261b57600080fd5b505af115801562002630573d6000803e3d6000fd5b505050505050505050505050565b6001546040805163d38ca6d960e01b81526001600160a01b0384811660048301529151600093929092169163d38ca6d991602480820192602092909190829003018186803b1580156200115c57600080fd5b600f6020528160005260406000208181548110620026aa57fe5b6000918252602090912001546001600160a01b03169150829050565b600080600160009054906101000a90046001600160a01b03166001600160a01b031663fa7827d26040518163ffffffff1660e01b815260040160206040518083038186803b1580156200271857600080fd5b505afa1580156200272d573d6000803e3d6000fd5b505050506040513d60208110156200274457600080fd5b50519050600062002767620027598362002b0f565b839063ffffffff62002e0d16565b9050620014ee848263ffffffff62002daf16565b3360009081526012602052604090205460ff16156200279957600080fd5b336000818152600f602090815260408083208054600181810183559185528385200180546001600160a01b0319168617905593835260128252808320805460ff1916909417909355601081529190208251620027f89284019062002f63565b5050600980546001810182556000919091527f6e1540171b6c0c960b71a7020d9f60077f6af931a8bbf590da0223dacf75c7af0180546001600160a01b03191633179055565b60065490565b600d6020526000908152604090205481565b6200286062002dab565b6000546001600160a01b03908116911614620028b2576040805162461bcd60e51b8152602060048201819052602482015260008051602062003a84833981519152604482015290519081900360640190fd5b60015460408051634a42dd6d60e11b81526001600160a01b0386811660048301528581166024830152878116604483015291519190921691639485bada91606480830192600092919082900301818387803b1580156200291157600080fd5b505af115801562002926573d6000803e3d6000fd5b505060025460405163a8edf11560e01b8152600481018981526001600160a01b0389811660248401526060604484019081528751606485015287516000975091909416945063a8edf115938b938b9389939092916084019060208501908083838d5b83811015620029a257818101518382015260200162002988565b50505050905090810190601f168015620029d05780820380516001836020036101000a031916815260200191505b50945050505050602060405180830381600087803b158015620029f257600080fd5b505af115801562002a07573d6000803e3d6000fd5b505050506040513d602081101562002a1e57600080fd5b50516001600160a01b038681166000818152600a6020908152604080832080546001600160a01b03199081169688169687179091556006805460018181019092557ff652222313e28459528d920b65115c16c04f3efc82aaedc97be59f3f377c0d3f018054831688179055868552600e8452828520805460ff19169091179055600c8352928190208054909316909317909155815192835290519293507fe4136410250c225cb6546e2f16dccea79b35b32f295f337362d04375101342ff92918290030190a1505050505050565b60088181548110620011e057fe5b60136020526000908152604090205460ff1681565b60008062002b2583600363ffffffff62002e0d16565b905062000e27818063ffffffff62002d5016565b600c602052600090815260409020546001600160a01b031681565b6003546001600160a01b031681565b6001546001600160a01b031681565b62002b7c62002dab565b6000546001600160a01b0390811691161462002bce576040805162461bcd60e51b8152602060048201819052602482015260008051602062003a84833981519152604482015290519081900360640190fd5b6001600160a01b03811662002c155760405162461bcd60e51b815260040180806020018281038252602681526020018062003a3d6026913960400191505060405180910390fd5b600080546040516001600160a01b03808516939216917f8be0079c531659141344cd1fd0a4f28419497f9722a3daafe3b4186f6b6457e091a3600080546001600160a01b0319166001600160a01b0392909216919091179055565b60008062002c7e84620023b8565b9050600062002c8d85620021dc565b9050600062002ca3828463ffffffff62002d0c16565b6001546040805163b04c6d3f60e01b81526001600160a01b0389811660048301529151939450600093919092169163b04c6d3f916024808301926020929190829003018186803b15801562002cf757600080fd5b505afa1580156200216f573d6000803e3d6000fd5b600062000e2783836040518060400160405280601e81526020017f536166654d6174683a207375627472616374696f6e206f766572666c6f77000081525062002e51565b60008282018381101562000e27576040805162461bcd60e51b815260206004820152601b60248201527f536166654d6174683a206164646974696f6e206f766572666c6f770000000000604482015290519081900360640190fd5b3390565b60008262002dc057506000620021ad565b8282028284828162002dce57fe5b041462000e275760405162461bcd60e51b815260040180806020018281038252602181526020018062003a636021913960400191505060405180910390fd5b600062000e2783836040518060400160405280601a81526020017f536166654d6174683a206469766973696f6e206279207a65726f00000000000081525062002eec565b6000818484111562002ee45760405162461bcd60e51b81526004018080602001828103825283818151815260200191508051906020019080838360005b8381101562002ea857818101518382015260200162002e8e565b50505050905090810190601f16801562002ed65780820380516001836020036101000a031916815260200191505b509250505060405180910390fd5b505050900390565b6000818362002f3e5760405162461bcd60e51b815260206004820181815283516024840152835190928392604490910191908501908083836000831562002ea857818101518382015260200162002e8e565b50600083858162002f4b57fe5b0495945050505050565b610a37806200300683390190565b828054600181600116156101000203166002900490600052602060002090601f016020900481019282601f1062002fa657805160ff191683800117855562002fd6565b8280016001018555821562002fd6579182015b8281111562002fd657825182559160200191906001019062002fb9565b5062002fe492915062002fe8565b5090565b62000e3291905b8082111562002fe4576000815560010162002fef56fe608060405234801561001057600080fd5b50604051610a37380380610a37833981810160405260a081101561003357600080fd5b508051602082015160408301516060840151608090940151600080546001600160a01b0319166001600160a01b03831617905592939192909190848484848461007e8585858561008d565b505050505050505050506102bc565b6100a7622014808561017060201b6105901790919060201c565b6002556100f66100c562201480836101c1602090811b61053717901c565b6100e4670de0b6b3a7640000866101c160201b6105371790919060201c565b61017060201b6105901790919060201c565b6001556101118262201480610170602090811b61059017901c565b60038190556004829055600254600154604080519283526020830191909152818101929092526060810183905290517f6960ab234c7ef4b0c9197100f5393cfcde7c453ac910a27bd2000aa1dd4c068d9181900360800190a150505050565b60006101b883836040518060400160405280601a81526020017f536166654d6174683a206469766973696f6e206279207a65726f00000000000081525061021a60201b60201c565b90505b92915050565b6000826101d0575060006101bb565b828202828482816101dd57fe5b04146101b85760405162461bcd60e51b8152600401808060200182810382526021815260200180610a166021913960400191505060405180910390fd5b600081836102a65760405162461bcd60e51b81526004018080602001828103825283818151815260200191508051906020019080838360005b8381101561026b578181015183820152602001610253565b50505050905090810190601f1680156102985780820380516001836020036101000a031916815260200191505b509250505060405180910390fd5b5060008385816102b257fe5b0495945050505050565b61074b806102cb6000396000f3fe608060405234801561001057600080fd5b506004361061009e5760003560e01c8063a385fb9611610066578063a385fb9614610164578063b81688161461016c578063b9f9850a1461019b578063f14039de146101a3578063fd2da339146101ab5761009e565b806315f24053146100a35780632037f3e7146100de5780636e71e2d81461010f5780638726bb89146101385780638da5cb5b14610140575b600080fd5b6100cc600480360360608110156100b957600080fd5b50803590602081013590604001356101b3565b60408051918252519081900360200190f35b61010d600480360360808110156100f457600080fd5b50803590602081013590604081013590606001356101ca565b005b6100cc6004803603606081101561012557600080fd5b5080359060208101359060400135610225565b6100cc61027b565b610148610281565b604080516001600160a01b039092168252519081900360200190f35b6100cc610290565b6100cc6004803603608081101561018257600080fd5b5080359060208101359060408101359060600135610297565b6100cc610316565b6100cc61031c565b6100cc610322565b60006101c0848484610328565b90505b9392505050565b6000546001600160a01b031633146102135760405162461bcd60e51b81526004018080602001828103825260268152602001806106f06026913960400191505060405180910390fd5b61021f848484846103f1565b50505050565b600082610234575060006101c3565b6101c06102578361024b878763ffffffff61049216565b9063ffffffff6104f516565b61026f85670de0b6b3a764000063ffffffff61053716565b9063ffffffff61059016565b60015481565b6000546001600160a01b031681565b6220148081565b6000806102b2670de0b6b3a76400008463ffffffff6104f516565b905060006102c1878787610328565b905060006102e1670de0b6b3a764000061026f848663ffffffff61053716565b905061030a670de0b6b3a764000061026f836102fe8c8c8c610225565b9063ffffffff61053716565b98975050505050505050565b60035481565b60025481565b60045481565b600080610336858585610225565b9050600454811161037c57610374600254610368670de0b6b3a764000061026f6001548661053790919063ffffffff16565b9063ffffffff61049216565b9150506101c3565b60006103a7600254610368670de0b6b3a764000061026f60015460045461053790919063ffffffff16565b905060006103c0600454846104f590919063ffffffff16565b90506103e782610368670de0b6b3a764000061026f6003548661053790919063ffffffff16565b93505050506101c3565b610404846220148063ffffffff61059016565b60025561041d610257622014808363ffffffff61053716565b600155610433826220148063ffffffff61059016565b60038190556004829055600254600154604080519283526020830191909152818101929092526060810183905290517f6960ab234c7ef4b0c9197100f5393cfcde7c453ac910a27bd2000aa1dd4c068d9181900360800190a150505050565b6000828201838110156104ec576040805162461bcd60e51b815260206004820152601b60248201527f536166654d6174683a206164646974696f6e206f766572666c6f770000000000604482015290519081900360640190fd5b90505b92915050565b60006104ec83836040518060400160405280601e81526020017f536166654d6174683a207375627472616374696f6e206f766572666c6f7700008152506105d2565b600082610546575060006104ef565b8282028284828161055357fe5b04146104ec5760405162461bcd60e51b81526004018080602001828103825260218152602001806106cf6021913960400191505060405180910390fd5b60006104ec83836040518060400160405280601a81526020017f536166654d6174683a206469766973696f6e206279207a65726f000000000000815250610669565b600081848411156106615760405162461bcd60e51b81526004018080602001828103825283818151815260200191508051906020019080838360005b8381101561062657818101518382015260200161060e565b50505050905090810190601f1680156106535780820380516001836020036101000a031916815260200191505b509250505060405180910390fd5b505050900390565b600081836106b85760405162461bcd60e51b815260206004820181815283516024840152835190928392604490910191908501908083836000831561062657818101518382015260200161060e565b5060008385816106c457fe5b049594505050505056fe536166654d6174683a206d756c7469706c69636174696f6e206f766572666c6f776f6e6c7920746865206f776e6572206d61792063616c6c20746869732066756e6374696f6e2ea2646970667358221220f57cb4bfc1ec1bc4429a807302f8b014d8105773a87e087103a29a073707098f64736f6c63430006060033536166654d6174683a206d756c7469706c69636174696f6e206f766572666c6f774f776e61626c653a206e6577206f776e657220697320746865207a65726f2061646472657373536166654d6174683a206d756c7469706c69636174696f6e206f766572666c6f774f776e61626c653a2063616c6c6572206973206e6f7420746865206f776e6572a26469706673582212201f5260a4a425e1c6b4ffbba1aac88d980df90848866a339733382fbc2e76739064736f6c63430006060033",
  "immutableReferences": {},
  "source": "pragma solidity ^0.6.0;\n\nimport \"@openzeppelin/contracts/access/Ownable.sol\";\nimport \"@openzeppelin/contracts/math/SafeMath.sol\";\nimport \"./interfaces/ExtendedIERC20.sol\";\nimport \"./interfaces/WarpVaultSCI.sol\";\nimport \"./interfaces/WarpVaultLPI.sol\";\nimport \"./interfaces/WarpVaultLPFactoryI.sol\";\nimport \"./interfaces/WarpVaultSCFactoryI.sol\";\nimport \"./interfaces/UniswapLPOracleFactoryI.sol\";\nimport \"./compound/JumpRateModelV2.sol\";\nimport \"./compound/Exponential.sol\";\n\n////////////////////////////////////////////////////////////////////////////////////////////\n/// @title WarpControl\n/// @author Christopher Dixon\n////////////////////////////////////////////////////////////////////////////////////////////\n/**\nWarpControl is designed to coordinate Warp Vaults\nThis contract uses the OpenZeppelin contract Library to inherit functions from\n  Ownable.sol\n**/\n\ncontract WarpControl is Ownable, Exponential {\n    using SafeMath for uint256;\n\n    UniswapLPOracleFactoryI public Oracle; //oracle factory contract interface\n    WarpVaultLPFactoryI public WVLPF;\n    WarpVaultSCFactoryI public WVSCF;\n    address public warpTeam;\n    uint public graceSpace;\n\n    address[] public lpVaults;\n    address[] public scVaults;\n    address[] public launchParticipants;\n    address[] public groups;\n\n    mapping(address => address) public instanceLPTracker; //maps LP token address to the assets WarpVault\n    mapping(address => address) public instanceSCTracker;\n    mapping(address => address) public getVaultByAsset;\n    mapping(address => uint) public lockedLPValue;\n    mapping(address => bool) public isVault;\n    mapping(address => address[]) public refferalCodeTracker;\n    mapping(address => string) public refferalCodeToGroupName;\n    mapping(address => bool) public isParticipant;\n    mapping(address => bool) public existingRefferalCode;\n    mapping(address => bool) public isInGroup;\n    mapping(address => address) public groupsYourIn;\n\n    event NewLPVault(address _newVault);\n    event NewSCVault(address _newVault, address _interestRateModel);\n    event NewBorrow(address _borrower, address _StableCoin, uint _amountBorrowed);\n    event NotCompliant(address _account, uint _time);\n    event Liquidation(address _account, address liquidator);\n    event complianceReset(address _account, uint _time);\n    /**\n      @dev Throws if called by any account other than a warp vault\n     */\n    modifier onlyVault() {\n        require(isVault[msg.sender] == true);\n        _;\n    }\n\n    /**\n    @dev Throws if a function is called by anyone but the warp team\n    **/\n    modifier onlyWarpT() {\n        require(msg.sender == warpTeam);\n        _;\n    }\n\n    /**\n    @notice the constructor function is fired during the contract deployment process. The constructor can only be fired once and\n            is used to set up Oracle variables for the MoneyMarketFactory contract.\n    @param _oracle is the address for the UniswapOracleFactorycontract\n    @param _WVLPF is the address for the WarpVaultLPFactory used to produce LP Warp Vaults\n    @param _WVSCF is the address for the WarpVaultSCFactory used to produce Stable Coin Warp Vaults\n    @dev These factories are split into seperate contracts to avoid hitting the block gas limit\n    **/\n    constructor(\n        address _oracle,\n        address _WVLPF,\n        address _WVSCF,\n        address _warpTeam\n    ) public {\n        //instantiate the contracts\n        Oracle = UniswapLPOracleFactoryI(_oracle);\n        WVLPF = WarpVaultLPFactoryI(_WVLPF);\n        WVSCF = WarpVaultSCFactoryI(_WVSCF);\n        warpTeam = _warpTeam;\n    }\n///view functions for front end /////\n    function viewNumLPVaults() external view returns(uint256) {\n        return lpVaults.length;\n    }\n\n    function viewNumSCVaults() external view returns(uint256) {\n        return scVaults.length;\n    }\n\n    function viewLaunchParticipants() public view returns(address[] memory) {\n      return launchParticipants;\n    }\n\n    function viewAllGroups() public view returns(address[] memory) {\n      return groups;\n    }\n\n    function viewAllMembersOfAGroup(address _refferalCode) public view returns(address[] memory) {\n      return refferalCodeTracker[_refferalCode];\n    }\n\n    function getGroupName(address _refferalCode) public view returns(string memory) {\n      return refferalCodeToGroupName[_refferalCode];\n    }\n\n    function getAccountsGroup(address _account) public view returns(address) {\n      return groupsYourIn[_account];\n    }\n\n\n    /**\n    @notice createNewLPVault allows the contract owner to create a new WarpVaultLP contract for a specific LP token\n    @param _timelock is a variable representing the number of seconds the timeWizard will prevent withdraws and borrows from a contracts(one week is 605800 seconds)\n    @param _lp is the address for the LP token this Warp Vault will manage\n    @param _lpAsset1 is the address for the first asset in a pair that the LP token represents(ex: wETH in a wETH-wBTC uniswap pair)\n    @param _lpAsset2 is the address for the second asset in a pair that the LP token represents(ex: wBTC in a wETH-wBTC uniswap pair)\n    @param _lpName is the name of the LP token (ex:wETH-wBTC)\n    **/\n    function createNewLPVault(\n        uint256 _timelock,\n        address _lp,\n        address _lpAsset1,\n        address _lpAsset2,\n        string memory _lpName\n    ) public onlyOwner {\n        //create new oracles for this LP\n        Oracle.createNewOracles(_lpAsset1, _lpAsset2, _lp);\n        //create new Warp LP Vault\n        address _WarpVault = WVLPF.createWarpVaultLP(_timelock, _lp, _lpName);\n        //track the warp vault lp instance by the address of the LP it represents\n        instanceLPTracker[_lp] = _WarpVault;\n        //add new LP Vault to the array of all LP vaults\n        lpVaults.push(_WarpVault);\n        //set Warp vault address as an approved vault\n        isVault[_WarpVault] = true;\n        //track vault to asset\n        getVaultByAsset[_WarpVault] = _lp;\n        emit NewLPVault(_WarpVault);\n    }\n\n    /**\n    @notice createNewSCVault allows the contract owner to create a new WarpVaultLP contract for a specific LP token\n    @param _timelock is a variable representing the number of seconds the timeWizard will prevent withdraws and borrows from a contracts(one week is 605800 seconds)\n    @param _baseRatePerYear is the base rate per year(approx target base APR)\n    @param _multiplierPerYear is the multiplier per year(rate of increase in interest w/ utilizastion)\n    @param _jumpMultiplierPerYear is the Jump Multiplier Per Year(the multiplier per block after hitting a specific utilizastion point)\n    @param _optimal is the this is the utilizastion point or \"kink\" at which the jump multiplier is applied\n    @param _initialExchangeRate is the intitial exchange rate(the rate at which the initial exchange of asset/ART is set)\n    @param _StableCoin is the address of the StableCoin this Warp Vault will manage\n    **/\n    function createNewSCVault(\n        uint256 _timelock,\n        uint256 _baseRatePerYear,\n        uint256 _multiplierPerYear,\n        uint256 _jumpMultiplierPerYear,\n        uint256 _optimal,\n        uint256 _initialExchangeRate,\n        uint256 _reserveFactorMantissa,\n        address _StableCoin\n    ) public onlyOwner {\n        //create the interest rate model for this stablecoin\n        address IR = address(\n            new JumpRateModelV2(\n                _baseRatePerYear,\n                _multiplierPerYear,\n                _jumpMultiplierPerYear,\n                _optimal,\n                address(this)\n            )\n        );\n        //create the SC Warp vault\n        address _WarpVault = WVSCF.createNewWarpVaultSC(\n            IR,\n            _StableCoin,\n            warpTeam,\n            _initialExchangeRate,\n            _timelock,\n            _reserveFactorMantissa\n        );\n        //track the warp vault sc instance by the address of the stablecoin it represents\n        instanceSCTracker[_StableCoin] = _WarpVault;\n        //add new SC Vault to the array of all SC vaults\n        scVaults.push(_WarpVault);\n        //set Warp vault address as an approved vault\n        isVault[_WarpVault] = true;\n        //track vault to asset\n        getVaultByAsset[_WarpVault] = _StableCoin;\n        emit NewSCVault(_WarpVault, IR);\n    }\n\n\n    function createGroup(string memory _groupName) public {\n      require(existingRefferalCode[msg.sender] == false);\n        refferalCodeTracker[msg.sender].push(msg.sender);\n          existingRefferalCode[msg.sender] = true;\n          refferalCodeToGroupName[msg.sender] = _groupName;\n          groups.push(msg.sender);\n    }\n\n    function addMemberToGroup(address _refferalCode, address _member) public onlyVault {\n      //Require a member is either not in a group OR has entered their groups refferal code\n      require(isInGroup[_member] == false || groupsYourIn[_member] == _refferalCode, \"Cant join more than one group\");\n        refferalCodeTracker[_refferalCode].push(_member);\n        isInGroup[_member] = true;\n        groupsYourIn[_member] = _refferalCode;\n            //add the mebers address to the total participants member array\n      if(isParticipant[_member] == false) {\n        launchParticipants.push(_member);\n        isParticipant[_member] == true;\n      }\n    }\n\n\n\n\n    /**\n    @notice Figures out how much of a given LP token an account is allowed to withdraw\n     */\n    function getMaxWithdrawAllowed(address account, address lpToken) public returns (uint256) {\n      //gets how much a user has borrowed against in USDC\n        uint256 borrowedTotal = getTotalBorrowedValue(account);\n      //gets the total USDC value of a users availible collateral\n        uint256 collateralValue = getTotalAvailableCollateralValue(account);\n      //determines usable collateral value\n        uint256 usableCollateral = collateralValue.sub(borrowedTotal);\n      //get current price of one LP token\n        uint256 lpValue = Oracle.getUnderlyingPrice(lpToken);\n      //return usable collateral value devided by the price of one lp token for maximum withdrawable lps(scale by 1e18)\n        return usableCollateral.mul(1e12).div(lpValue);\n    }\n\n    function viewMaxWithdrawAllowed(address account, address lpToken) public view returns (uint256) {\n        uint256 borrowedTotal = viewTotalBorrowedValue(account);\n        uint256 collateralValue = viewTotalAvailableCollateralValue(account);\n        uint256 usableCollateral = collateralValue.sub(borrowedTotal);\n        uint256 lpValue = Oracle.viewUnderlyingPrice(lpToken);\n        return usableCollateral.mul(1e12).div(lpValue);\n    }\n\n    function getTotalAvailableCollateralValue(address _account)\n        public\n        returns (uint256)\n    {\n        //get the number of LP vaults the platform has\n        uint256 numVaults = lpVaults.length;\n        //initialize the totalCollateral variable to zero\n        uint256 totalCollateral = 0;\n        //loop through each lp wapr vault\n        for (uint256 i = 0; i < numVaults; ++i) {\n            //instantiate warp vault at that position\n            WarpVaultLPI vault = WarpVaultLPI(lpVaults[i]);\n            //retreive the address of its asset\n            address asset = vault.getAssetAdd();\n            //retrieve USD price of this asset\n            uint256 assetPrice = Oracle.getUnderlyingPrice(asset);\n\n            uint256 accountCollateral = vault.collateralOfAccount(_account);\n            //emit DebugValues(accountCollateral, assetPrice);\n\n            //multiply the amount of collateral by the asset price and return it\n            uint256 accountAssetsValue = accountCollateral.mul(assetPrice);\n            //add value to total collateral\n            totalCollateral = totalCollateral.add(accountAssetsValue);\n        }\n        //return total USDC value of all collateral\n        return totalCollateral.div(1e18);\n    }\n\n    function viewTotalAvailableCollateralValue(address _account)\n        public\n        view\n        returns (uint256)\n    {\n        uint256 numVaults = lpVaults.length;\n        uint256 totalCollateral = 0;\n        //loop through each lp wapr vault\n        for (uint256 i = 0; i < numVaults; ++i) {\n            //instantiate warp vault at that position\n            WarpVaultLPI vault = WarpVaultLPI(lpVaults[i]);\n            //retreive the address of its asset\n            address asset = vault.getAssetAdd();\n            //retrieve USD price of this asset\n            uint256 assetPrice = Oracle.viewUnderlyingPrice(asset);\n\n            uint256 accountCollateral = vault.collateralOfAccount(_account);\n\n            //multiply the amount of collateral by the asset price and return it\n            uint256 accountAssetsValue = accountCollateral.mul(assetPrice);\n            //add value to total collateral\n            totalCollateral = totalCollateral.add(accountAssetsValue);\n        }\n        //return total USDC value of all collateral\n        return totalCollateral.div(1e18);\n    }\n\n    function viewPriceOfCollateral(address lpToken) public view returns(uint256)\n    {\n        return Oracle.viewUnderlyingPrice(lpToken);\n    }\n\n    function viewPriceOfToken(address token) public view returns(uint256)\n    {\n        return Oracle.viewPriceOfToken(token);\n    }\n\n    function viewTotalBorrowedValue(address _account) public view returns (uint256) {\n        uint256 numSCVaults = scVaults.length;\n        //initialize the totalBorrowedValue variable to zero\n        uint256 totalBorrowedValue = 0;\n        //loop through all stable coin vaults\n        for (uint256 i = 0; i < numSCVaults; ++i) {\n            //instantiate each LP warp vault\n            WarpVaultSCI WVSC = WarpVaultSCI(scVaults[i]);\n            //retreive the amount user has borrowed from each stablecoin vault\n                uint borrowBalanceInStable = WVSC.borrowBalancePrior(_account);\n                uint decimals = WVSC.getSCDecimals();\n                totalBorrowedValue = totalBorrowedValue.add(\n                  borrowBalanceInStable\n                ).div(\n                  uint256(10) ** decimals\n                );\n\n        }\n        //return total Borrowed Value\n        return totalBorrowedValue;\n    }\n\n    function getTotalBorrowedValue(address _account) public returns (uint256) {\n        uint256 numSCVaults = scVaults.length;\n        //initialize the totalBorrowedValue variable to zero\n        uint256 totalBorrowedValue = 0;\n        //loop through all stable coin vaults\n        for (uint256 i = 0; i < numSCVaults; ++i) {\n            //instantiate each LP warp vault\n            WarpVaultSCI WVSC = WarpVaultSCI(scVaults[i]);\n            //retreive the amount user has borrowed from each stablecoin vault\n            uint borrowBalanceInStable = WVSC.borrowBalanceCurrent(_account);\n            uint decimals = WVSC.getSCDecimals();\n            totalBorrowedValue = totalBorrowedValue.add(\n              borrowBalanceInStable\n            ).div(\n              uint256(10) ** decimals\n            );\n        }\n        //return total Borrowed Value\n        return totalBorrowedValue;\n    }\n\n    /**\n    @notice calcBorrowLimit is used to calculate the borrow limit for an account based on the input value of their collateral\n    @param _collateralValue is the USDC value of the users collateral\n    @dev this function divides the input value by 3 and then adds that value to itself so it can return 2/3rds of the availible collateral\n        as the borrow limit. If a usser has $150 USDC value in collateral this function will return $100 USDC as their borrow limit.\n    **/\n    function calcBorrowLimit(uint256 _collateralValue)\n        public\n        pure\n        returns (uint256)\n    {\n        //divide the collaterals value by 3 to get 1/3rd of its value\n        uint256 thirdCollatVal = _collateralValue.div(3);\n        //add this 1/3rd value to itself to get 2/3rds of the original value\n        return thirdCollatVal.add(thirdCollatVal);\n    }\n\n    function calcCollateralRequired(uint256 _borrowAmount) public view returns (uint256) {\n        uint256 oneUSDC = Oracle.OneUSDC();\n        uint256 factor = oneUSDC.div(calcBorrowLimit(oneUSDC));\n        return _borrowAmount.mul(factor);\n    }\n\n    function getBorrowLimit(address _account) public returns (uint256) {\n        uint256 availibleCollateralValue = getTotalAvailableCollateralValue(\n            _account\n        );\n\n        return calcBorrowLimit(availibleCollateralValue);\n    }\n\n    function viewBorrowLimit(address _account) public view returns (uint256) {\n        uint256 availibleCollateralValue = viewTotalAvailableCollateralValue(\n            _account\n        );\n        //return the users borrow limit\n        return calcBorrowLimit(availibleCollateralValue);\n    }\n\n    /**\n@notice borrowSC is the function an end user will call when they wish to borrow a stablecoin from the warp platform\n@param _StableCoin is the address of the stablecoin the user wishes to borrow\n@param _amount is the amount of that stablecoin the user wants to borrow\n**/\n    function borrowSC(address _StableCoin, uint256 _amount) public {\n        uint256 borrowedTotal = getTotalBorrowedValue(msg.sender);\n        uint256 availibleCollateralValue = getBorrowLimit(msg.sender);\n        //calculate USDC amount of what the user is allowed to borrow\n        uint256 borrowAmountAllowed = availibleCollateralValue.sub(\n            borrowedTotal\n        );\n        //require the amount being borrowed is less than or equal to the amount they are aloud to borrow\n        require(borrowAmountAllowed >= _amount, \"Borrowing more than allowed\");\n        //track USDC value of locked LP\n        lockedLPValue[msg.sender] = lockedLPValue[msg.sender].add(_amount);\n        //retreive stablecoin vault address being borrowed from and instantiate it\n        WarpVaultSCI WV = WarpVaultSCI(instanceSCTracker[_StableCoin]);\n        //call _borrow function on the stablecoin warp vault\n        WV._borrow(_amount, msg.sender);\n        emit NewBorrow(msg.sender, _StableCoin, _amount);\n    }\n\n\n\n    /**\n@notice liquidateAccount is used to liquidate a non-compliant loan after it has reached its 30 minute grace period\n@param _borrower is the address of the borrower whos loan is non-compliant\n**/\n    function liquidateAccount(address _borrower) public {\n        //require the liquidator is not also the borrower\n        require(msg.sender != _borrower);\n        //retreive the number of stablecoin vaults in the warp platform\n        uint256 numSCVaults = scVaults.length;\n        //retreive the number of LP vaults in the warp platform\n        uint256 numLPVaults = lpVaults.length;\n        // This is how much USDC worth of Stablecoin the user has borrowed\n        uint256 borrowedAmount = 0;\n        //initialize the stable coin balances array\n        uint256[] memory scBalances = new uint256[](numSCVaults);\n        // loop through and retreive the Borrowed Amount From All Vaults\n        for (uint256 i = 0; i < numSCVaults; ++i) {\n            //instantiate the vault at the current  position in the array\n            WarpVaultSCI scVault = WarpVaultSCI(scVaults[i]);\n            //retreive the borrowers borrow balance from this vault and add it to the scBalances array\n            scBalances[i] = scVault.borrowBalanceCurrent(_borrower);\n            uint256 tokenDecimals = uint256(scVault.getSCDecimals());\n            uint256 priceOfTokenInUSDC = viewPriceOfToken(getVaultByAsset[address(scVault)]);\n\n            uint256 borrowedAmountInUSDC = (priceOfTokenInUSDC.mul(scBalances[i])).div(uint256(10) ** tokenDecimals);\n\n            //add the borrowed amount to the total borrowed balance\n            borrowedAmount = borrowedAmount.add(borrowedAmountInUSDC);\n        }\n        //retreve the USDC borrow limit for the borrower\n        uint256 borrowLimit = getBorrowLimit(_borrower);\n        //check if the borrow is less than the borrowed amount\n        if (borrowLimit <= borrowedAmount) {\n            // If it is Liquidate the account\n            //loop through each SC vault so the  Liquidator can pay off Stable Coin loans\n            for (uint256 i = 0; i < numSCVaults; ++i) {\n                //instantiate the Warp SC Vault at the current position\n                WarpVaultSCI scVault = WarpVaultSCI(scVaults[i]);\n                //call repayLiquidatedLoan function to repay the loan\n                scVault._repayLiquidatedLoan(\n                    _borrower,\n                    msg.sender,\n                    scBalances[i]\n                );\n            }\n            //loop through each LP vault so the Liquidator gets the LP tokens the borrower had\n            for (uint256 i = 0; i < numLPVaults; ++i) {\n                //instantiate the Warp LP Vault at the current position\n                WarpVaultLPI lpVault = WarpVaultLPI(lpVaults[i]);\n                //call liquidateAccount function on that LP vault\n                lpVault._liquidateAccount(_borrower, msg.sender);\n            }\n            emit Liquidation(_borrower, msg.sender);\n        }\n    }\n\n    function updateInterestRateModel(\n        address _token,\n        uint256 _baseRatePerYear,\n        uint256 _multiplierPerYear,\n        uint256 _jumpMultiplierPerYear,\n        uint256 _optimal\n      ) public onlyOwner {\n      address IR = address(\n          new JumpRateModelV2(\n              _baseRatePerYear,\n              _multiplierPerYear,\n              _jumpMultiplierPerYear,\n              _optimal,\n              address(this)\n          )\n      );\n      address vault = instanceSCTracker[_token];\n      WarpVaultSCI WV = WarpVaultSCI(vault);\n      WV.setNewInterestModel(IR);\n    }\n\n    function startUpgradeTimer() public onlyWarpT{\n      graceSpace = now.add(172800);\n    }\n\n    function upgradeWarp(address _newWarpControl) public onlyWarpT {\n      require(now >= graceSpace);\n        uint256 numVaults = lpVaults.length;\n        uint256 numSCVaults = scVaults.length;\n      for (uint256 i = 0; i < numVaults; ++i) {\n          WarpVaultLPI vault = WarpVaultLPI(lpVaults[i]);\n          vault.transferOwnership(_newWarpControl);\n    }\n\n      for (uint256 i = 0; i < numSCVaults; ++i) {\n          //instantiate each LP warp vault\n          WarpVaultSCI WVSC = WarpVaultSCI(scVaults[i]);\n            WVSC.transferOwnership(_newWarpControl);\n        }\n          WVLPF.transferOwnership(_newWarpControl);\n          WVSCF.transferOwnership(_newWarpControl);\n          Oracle.transferOwnership(_newWarpControl);\n  }\n}\n",
  "sourcePath": "/home/stan36/repos/Warp/Smart-Contracts/contracts/WarpControl.sol",
  "compiler": {
    "name": "solc",
    "version": "0.6.6+commit.6c089d02.Emscripten.clang"
  },
  "schemaVersion": "3.3.2",
  "updatedAt": "2020-12-01T22:15:57.602Z",
  "devdoc": {
    "methods": {
      "borrowSC(address,uint256)": {
        "params": {
          "_StableCoin": "is the address of the stablecoin the user wishes to borrow",
          "_amount": "is the amount of that stablecoin the user wants to borrow*"
        }
      },
      "calcBorrowLimit(uint256)": {
        "details": "this function divides the input value by 3 and then adds that value to itself so it can return 2/3rds of the availible collateral as the borrow limit. If a usser has $150 USDC value in collateral this function will return $100 USDC as their borrow limit.*",
        "params": {
          "_collateralValue": "is the USDC value of the users collateral"
        }
      },
      "constructor": {
        "details": "These factories are split into seperate contracts to avoid hitting the block gas limit*",
        "params": {
          "_WVLPF": "is the address for the WarpVaultLPFactory used to produce LP Warp Vaults",
          "_WVSCF": "is the address for the WarpVaultSCFactory used to produce Stable Coin Warp Vaults",
          "_oracle": "is the address for the UniswapOracleFactorycontract"
        }
      },
      "createNewLPVault(uint256,address,address,address,string)": {
        "params": {
          "_lp": "is the address for the LP token this Warp Vault will manage",
          "_lpAsset1": "is the address for the first asset in a pair that the LP token represents(ex: wETH in a wETH-wBTC uniswap pair)",
          "_lpAsset2": "is the address for the second asset in a pair that the LP token represents(ex: wBTC in a wETH-wBTC uniswap pair)",
          "_lpName": "is the name of the LP token (ex:wETH-wBTC)*",
          "_timelock": "is a variable representing the number of seconds the timeWizard will prevent withdraws and borrows from a contracts(one week is 605800 seconds)"
        }
      },
      "createNewSCVault(uint256,uint256,uint256,uint256,uint256,uint256,uint256,address)": {
        "params": {
          "_StableCoin": "is the address of the StableCoin this Warp Vault will manage*",
          "_baseRatePerYear": "is the base rate per year(approx target base APR)",
          "_initialExchangeRate": "is the intitial exchange rate(the rate at which the initial exchange of asset/ART is set)",
          "_jumpMultiplierPerYear": "is the Jump Multiplier Per Year(the multiplier per block after hitting a specific utilizastion point)",
          "_multiplierPerYear": "is the multiplier per year(rate of increase in interest w/ utilizastion)",
          "_optimal": "is the this is the utilizastion point or \"kink\" at which the jump multiplier is applied",
          "_timelock": "is a variable representing the number of seconds the timeWizard will prevent withdraws and borrows from a contracts(one week is 605800 seconds)"
        }
      },
      "liquidateAccount(address)": {
        "params": {
          "_borrower": "is the address of the borrower whos loan is non-compliant*"
        }
      },
      "owner()": {
        "details": "Returns the address of the current owner."
      },
      "renounceOwnership()": {
        "details": "Leaves the contract without owner. It will not be possible to call `onlyOwner` functions anymore. Can only be called by the current owner.     * NOTE: Renouncing ownership will leave the contract without an owner, thereby removing any functionality that is only available to the owner."
      },
      "transferOwnership(address)": {
        "details": "Transfers ownership of the contract to a new account (`newOwner`). Can only be called by the current owner."
      }
    }
  },
  "userdoc": {
    "methods": {
      "borrowSC(address,uint256)": {
        "notice": "borrowSC is the function an end user will call when they wish to borrow a stablecoin from the warp platform"
      },
      "calcBorrowLimit(uint256)": {
        "notice": "calcBorrowLimit is used to calculate the borrow limit for an account based on the input value of their collateral"
      },
      "constructor": "the constructor function is fired during the contract deployment process. The constructor can only be fired once and is used to set up Oracle variables for the MoneyMarketFactory contract.",
      "createNewLPVault(uint256,address,address,address,string)": {
        "notice": "createNewLPVault allows the contract owner to create a new WarpVaultLP contract for a specific LP token"
      },
      "createNewSCVault(uint256,uint256,uint256,uint256,uint256,uint256,uint256,address)": {
        "notice": "createNewSCVault allows the contract owner to create a new WarpVaultLP contract for a specific LP token"
      },
      "getMaxWithdrawAllowed(address,address)": {
        "notice": "Figures out how much of a given LP token an account is allowed to withdraw"
      },
      "liquidateAccount(address)": {
        "notice": "liquidateAccount is used to liquidate a non-compliant loan after it has reached its 30 minute grace period"
      },
      "viewNumLPVaults()": {
        "notice": "view functions for front end /////"
      }
    },
    "notice": "WarpControl is designed to coordinate Warp Vaults This contract uses the OpenZeppelin contract Library to inherit functions from Ownable.sol*"
  }
}