{
  "contractName": "WarpVaultSCFactory",
  "abi": [
    {
      "anonymous": false,
      "inputs": [
        {
          "indexed": true,
          "internalType": "address",
          "name": "previousOwner",
          "type": "address"
        },
        {
          "indexed": true,
          "internalType": "address",
          "name": "newOwner",
          "type": "address"
        }
      ],
      "name": "OwnershipTransferred",
      "type": "event"
    },
    {
      "inputs": [],
      "name": "owner",
      "outputs": [
        {
          "internalType": "address",
          "name": "",
          "type": "address"
        }
      ],
      "stateMutability": "view",
      "type": "function"
    },
    {
      "inputs": [],
      "name": "renounceOwnership",
      "outputs": [],
      "stateMutability": "nonpayable",
      "type": "function"
    },
    {
      "inputs": [
        {
          "internalType": "address",
          "name": "newOwner",
          "type": "address"
        }
      ],
      "name": "transferOwnership",
      "outputs": [],
      "stateMutability": "nonpayable",
      "type": "function"
    },
    {
      "inputs": [
        {
          "internalType": "address",
          "name": "_InterestRate",
          "type": "address"
        },
        {
          "internalType": "address",
          "name": "_StableCoin",
          "type": "address"
        },
        {
          "internalType": "uint256",
          "name": "_initialExchangeRate",
          "type": "uint256"
        }
      ],
      "name": "createNewWarpVaultSC",
      "outputs": [
        {
          "internalType": "address",
          "name": "",
          "type": "address"
        }
      ],
      "stateMutability": "nonpayable",
      "type": "function"
    }
  ],
  "bytecode": "0x608060405260006100176001600160e01b0361006616565b600080546001600160a01b0319166001600160a01b0383169081178255604051929350917f8be0079c531659141344cd1fd0a4f28419497f9722a3daafe3b4186f6b6457e0908290a35061006a565b3390565b6138b5806100796000396000f3fe608060405234801561001057600080fd5b506004361061004c5760003560e01c80632a5cd0d114610051578063715018a6146100a35780638da5cb5b146100ad578063f2fde38b146100b5575b600080fd5b6100876004803603606081101561006757600080fd5b506001600160a01b038135811691602081013590911690604001356100db565b604080516001600160a01b039092168252519081900360200190f35b6100ab610198565b005b610087610228565b6100ab600480360360208110156100cb57600080fd5b50356001600160a01b0316610237565b60006100e561031d565b6000546001600160a01b03908116911614610135576040805162461bcd60e51b81526020600482018190526024820152600080516020613840833981519152604482015290519081900360640190fd5b60008484338560405161014790610321565b6001600160a01b039485168152928416602084015292166040808301919091526060820192909252905190819003608001906000f08015801561018e573d6000803e3d6000fd5b5095945050505050565b6101a061031d565b6000546001600160a01b039081169116146101f0576040805162461bcd60e51b81526020600482018190526024820152600080516020613840833981519152604482015290519081900360640190fd5b600080546040516001600160a01b0390911690600080516020613860833981519152908390a3600080546001600160a01b0319169055565b6000546001600160a01b031690565b61023f61031d565b6000546001600160a01b0390811691161461028f576040805162461bcd60e51b81526020600482018190526024820152600080516020613840833981519152604482015290519081900360640190fd5b6001600160a01b0381166102d45760405162461bcd60e51b815260040180806020018281038252602681526020018061381a6026913960400191505060405180910390fd5b600080546040516001600160a01b038085169392169160008051602061386083398151915291a3600080546001600160a01b0319166001600160a01b0392909216919091179055565b3390565b6134eb8061032f8339019056fe60806040526714d1120d7b1600006007553480156200001d57600080fd5b50604051620034eb380380620034eb833981810160405260808110156200004357600080fd5b508051602082015160408301516060909301519192909160006200006f6001600160e01b03620004cd16565b600080546001600160a01b0319166001600160a01b0383169081178255604051929350917f8be0079c531659141344cd1fd0a4f28419497f9722a3daafe3b4186f6b6457e0908290a350600a80546001600160a01b038085166001600160a01b03199283161790925560088054868416908316179055600b805492871692909116919091179055620001096001600160e01b03620004d116565b600355670de0b6b3a764000060049081556001829055600854604080516306fdde0360e01b815290516001600160a01b039092169283926306fdde03928083019260009291829003018186803b1580156200016357600080fd5b505afa15801562000178573d6000803e3d6000fd5b505050506040513d6000823e601f3d908101601f191682016040526020811015620001a257600080fd5b8101908080516040519392919084640100000000821115620001c357600080fd5b908301906020820185811115620001d957600080fd5b8251640100000000811182820188101715620001f457600080fd5b82525081516020918201929091019080838360005b838110156200022357818101518382015260200162000209565b50505050905090810190601f168015620002515780820380516001836020036101000a031916815260200191505b5060408181526008546395d89b4160e01b835290516001600160a01b0390911694506395d89b41935060048083019350600092829003018186803b1580156200029957600080fd5b505afa158015620002ae573d6000803e3d6000fd5b505050506040513d6000823e601f3d908101601f191682016040526020811015620002d857600080fd5b8101908080516040519392919084640100000000821115620002f957600080fd5b9083019060208201858111156200030f57600080fd5b82516401000000008111828201881017156200032a57600080fd5b82525081516020918201929091019080838360005b83811015620003595781810151838201526020016200033f565b50505050905090810190601f168015620003875780820380516001836020036101000a031916815260200191505b506040525050506040516200039c90620004d5565b6001600160a01b0384168152606060208083018281528551928401929092528451604084019160808501919087019080838360005b83811015620003eb578181015183820152602001620003d1565b50505050905090810190601f168015620004195780820380516001836020036101000a031916815260200191505b50838103825284518152845160209182019186019080838360005b838110156200044e57818101518382015260200162000434565b50505050905090810190601f1680156200047c5780820380516001836020036101000a031916815260200191505b5095505050505050604051809103906000f080158015620004a1573d6000803e3d6000fd5b50600980546001600160a01b0319166001600160a01b039290921691909117905550620004e392505050565b3390565b4390565b611355806200219683390190565b611ca380620004f36000396000f3fe608060405234801561001057600080fd5b50600436106101965760003560e01c80630e7527021461019b578063122b5818146101ba578063173b9904146101de57806317bfdfbc146101f857806324a045ca1461021e5780633b1d21a21461025857806347bd37181461026057806348dc0b6e146102685780634ada90af146102705780634b3fd148146102785780634ee8acc0146102a4578063503d37ea146102ac57806357d32b7a146102b457806368b58180146102d15780636c540baf146102f7578063715018a6146102ff57806373acee98146103075780637746efab1461030f5780638da5cb5b146103355780638f840ddd1461033d5780639f560dd514610345578063a6afed951461034d578063a907b3ef14610355578063aa5af0fd1461037b578063ac97902814610383578063ae9d70b0146103b1578063bbae21e9146103b9578063bd6d894d146103e7578063cd5c6f57146103ef578063d40e8f4a146103f7578063db006a7514610436578063e9cbd82214610453578063f2fde38b1461045b578063f8f9da2814610481575b600080fd5b6101b8600480360360208110156101b157600080fd5b5035610489565b005b6101c261068d565b604080516001600160a01b039092168252519081900360200190f35b6101e661069c565b60408051918252519081900360200190f35b6101e66004803603602081101561020e57600080fd5b50356001600160a01b03166106a2565b6102446004803603602081101561023457600080fd5b50356001600160a01b03166106bb565b604080519115158252519081900360200190f35b6101e66106d0565b6101e66106e0565b6101c26106e6565b6101e66106f5565b6101b86004803603604081101561028e57600080fd5b50803590602001356001600160a01b03166106fb565b6101c2610855565b6101e6610864565b6101b8600480360360208110156102ca57600080fd5b5035610881565b6101e6600480360360208110156102e757600080fd5b50356001600160a01b03166109be565b6101e66109d0565b6101b86109d6565b6101e6610a66565b6101e66004803603602081101561032557600080fd5b50356001600160a01b0316610a77565b6101c2610b1c565b6101e6610b2b565b6101e6610b31565b6101b8610b42565b6101c26004803603602081101561036b57600080fd5b50356001600160a01b0316610cbf565b6101e6610cda565b6101b86004803603604081101561039957600080fd5b506001600160a01b0381358116916020013516610ce0565b6101e6610f5c565b6101b8600480360360408110156103cf57600080fd5b506001600160a01b0381358116916020013516610ffb565b6101e6611057565b6101e66111a8565b61041d6004803603602081101561040d57600080fd5b50356001600160a01b03166111ed565b6040805192835260208301919091528051918290030190f35b6101b86004803603602081101561044c57600080fd5b5035611206565b6101c26113e6565b6101b86004803603602081101561047157600080fd5b50356001600160a01b03166113f5565b6101e66114db565b610491610b42565b610499611b0a565b600854604080516323b872dd60e01b81523360048201523060248201526044810185905290516001600160a01b03909216916323b872dd916064808201926020929091908290030181600087803b1580156104f357600080fd5b505af1158015610507573d6000803e3d6000fd5b505050506040513d602081101561051d57600080fd5b5050336000818152600c6020526040908190206001015490830152610541906106a2565b60608201528161055a5760608101516020820152610562565b602081018290525b6105748160600151826020015161153f565b608083018190528282600381111561058857fe5b600381111561059357fe5b81525050506105a8600554826020015161153f565b60a08301819052828260038111156105bc57fe5b60038111156105c757fe5b905250506080810151336000908152600c602052604090209081556004546001820190815560a08301516005555490546106069163ffffffff61156516565b60c0820181905261068957600a5460e082015160408051632ae7a48b60e11b8152336004820181905260248201526044810192909252516001600160a01b03909216916355cf49169160648082019260009290919082900301818387803b15801561067057600080fd5b505af1158015610684573d6000803e3d6000fd5b505050505b5050565b600a546001600160a01b031681565b60025481565b60006106ac610b42565b6106b582610a77565b50919050565b600f6020526000908152604090205460ff1681565b60006106da6115c6565b90505b90565b60055481565b600b546001600160a01b031681565b60075481565b600a546001600160a01b0316331461071257600080fd5b61071a610b42565b610722611b50565b8261072b6115c6565b1161073557600080fd5b61073e826106a2565b6020820181905261074f9084611611565b604083018190528282600381111561076357fe5b600381111561076e57fe5b815250505061077f60055484611611565b606083018190528282600381111561079357fe5b600381111561079e57fe5b905250506040808201516001600160a01b038085166000818152600c6020908152858220948555600480546001909601959095556060870151600555600854865163a9059cbb60e01b815295860193909352602485018990529451919092169363a9059cbb93604480820194929392918390030190829087803b15801561082457600080fd5b505af1158015610838573d6000803e3d6000fd5b505050506040513d602081101561084e57600080fd5b5050505050565b6009546001600160a01b031681565b60006106da622433946108756114db565b9063ffffffff61163716565b610889611b79565b610891611057565b6020808301918252604080519182019052905181526108b1908390611690565b60408301819052828260038111156108c557fe5b60038111156108d057fe5b90525050600854604080516323b872dd60e01b81523360048201523060248201526044810185905290516001600160a01b03909216916323b872dd916064808201926020929091908290030181600087803b15801561092e57600080fd5b505af1158015610942573d6000803e3d6000fd5b505050506040513d602081101561095857600080fd5b5050336000818152600d60205260408082208590556009548482015182516340c10f1960e01b81526004810195909552602485015290516001600160a01b03909116926340c10f1992604480830193919282900301818387803b15801561067057600080fd5b600d6020526000908152604090205481565b60035481565b6109de6116e3565b6000546001600160a01b03908116911614610a2e576040805162461bcd60e51b81526020600482018190526024820152600080516020611c2e833981519152604482015290519081900360640190fd5b600080546040516001600160a01b0390911690600080516020611c4e833981519152908390a3600080546001600160a01b0319169055565b6000610a70610b42565b5060055490565b6001600160a01b0381166000908152600c60205260408120805482918291829190610aa9576000945050505050610b17565b610ab981600001546004546116e7565b90945092506000846003811115610acc57fe5b14610ade576000945050505050610b17565b610aec838260010154611726565b90945091506000846003811115610aff57fe5b14610b11576000945050505050610b17565b50925050505b919050565b6000546001600160a01b031690565b60065481565b60006106da62243394610875610f5c565b6000610b4c611751565b60035490915080821415610b5f57600080fd5b6000610b696115c6565b60055460065460048054600b54604080516315f2405360e01b81529384018790526024840186905260448401859052519596509394929390926000926001600160a01b03909216916315f24053916064808301926020929190829003018186803b158015610bd657600080fd5b505afa158015610bea573d6000803e3d6000fd5b505050506040513d6020811015610c0057600080fd5b5051905065048c27395000811115610c1757600080fd5b600080610c24898961153f565b91509150610c30611b9b565b600080600080610c4e60405180602001604052808a81525087611755565b9097509450610c5d858c6117bd565b9097509350610c6c848c611611565b604080516020810190915260025481529198509350610c8c90858c6117d4565b9097509150610c9c858a806117d4565b60039f909f55505060049c909c5560055550505060069790975550505050505050565b600e602052600090815260409020546001600160a01b031681565b60045481565b610ce8610b42565b6001600160a01b03808316600090815260106020908152604080832093851683529290522054610d209061070863ffffffff61156516565b421015610d2c57600080fd5b610d34611bae565b610d3d836106a2565b602080830191909152600a54604080516359a08bad60e11b81526001600160a01b0387811660048301529151919092169263b341175a9260248082019391829003018186803b158015610d8f57600080fd5b505afa158015610da3573d6000803e3d6000fd5b505050506040513d6020811015610db957600080fd5b505160608201819052610dd390600263ffffffff61183016565b608082018190526060820151610dee9163ffffffff61156516565b60608201526020810151600554610e0a9163ffffffff61186f16565b6005556020810151606082015111610f2f57600854602080830151604080516323b872dd60e01b81523360048201523060248201526044810192909252516001600160a01b03909316926323b872dd926064808401939192918290030181600087803b158015610e7957600080fd5b505af1158015610e8d573d6000803e3d6000fd5b505050506040513d6020811015610ea357600080fd5b50506001600160a01b038084166000818152600c6020526040808220828155600101829055600a54858201518251632ae7a48b60e11b81526004810195909552336024860152604485015290519316926355cf491692606480820193929182900301818387803b158015610f1657600080fd5b505af1158015610f2a573d6000803e3d6000fd5b505050505b506001600160a01b0391821660009081526010602090815260408083209390941682529190915290812055565b600b546000906001600160a01b031663b8168816610f786115c6565b6005546006546002546040518563ffffffff1660e01b81526004018085815260200184815260200183815260200182815260200194505050505060206040518083038186803b158015610fca57600080fd5b505afa158015610fde573d6000803e3d6000fd5b505050506040513d6020811015610ff457600080fd5b5051905090565b6001600160a01b038083166000908152601060209081526040808320938516835292905220541561102b57600080fd5b6001600160a01b0391821660009081526010602090815260408083209390941682529190915220429055565b6000611061610b42565b600960009054906101000a90046001600160a01b03166001600160a01b03166318160ddd6040518163ffffffff1660e01b815260040160206040518083038186803b1580156110af57600080fd5b505afa1580156110c3573d6000803e3d6000fd5b505050506040513d60208110156110d957600080fd5b50516110e857506001546106dd565b60006110f26115c6565b905060006110fe611b9b565b600061110f846005546006546118b1565b809450819250505061119a83600960009054906101000a90046001600160a01b03166001600160a01b03166318160ddd6040518163ffffffff1660e01b815260040160206040518083038186803b15801561116957600080fd5b505afa15801561117d573d6000803e3d6000fd5b505050506040513d602081101561119357600080fd5b50516118ef565b5195506106dd945050505050565b600954604080516318160ddd60e01b815290516000926001600160a01b0316916318160ddd916004808301926020929190829003018186803b1580156110af57600080fd5b600c602052600090815260409020805460019091015482565b61120e610b42565b8061121857600080fd5b611220611b79565b611228611057565b60208083019182526040805191820190529051815261124790836117bd565b604083018190528282600381111561125b57fe5b600381111561126657fe5b9052505060408082015160085482516370a0823160e01b8152306004820152925191926001600160a01b03909116916370a0823191602480820192602092909190829003018186803b1580156112bb57600080fd5b505afa1580156112cf573d6000803e3d6000fd5b505050506040513d60208110156112e557600080fd5b505110156112f257600080fd5b60095460408051632770a7eb60e21b81523360048201526024810185905290516001600160a01b0390921691639dc29fac9160448082019260009290919082900301818387803b15801561134557600080fd5b505af1158015611359573d6000803e3d6000fd5b5050600854604080850151815163a9059cbb60e01b8152336004820152602481019190915290516001600160a01b03909216935063a9059cbb92506044808201926020929091908290030181600087803b1580156113b657600080fd5b505af11580156113ca573d6000803e3d6000fd5b505050506040513d60208110156113e057600080fd5b50505050565b6008546001600160a01b031681565b6113fd6116e3565b6000546001600160a01b0390811691161461144d576040805162461bcd60e51b81526020600482018190526024820152600080516020611c2e833981519152604482015290519081900360640190fd5b6001600160a01b0381166114925760405162461bcd60e51b8152600401808060200182810382526026815260200180611be76026913960400191505060405180910390fd5b600080546040516001600160a01b0380851693921691600080516020611c4e83398151915291a3600080546001600160a01b0319166001600160a01b0392909216919091179055565b600b546000906001600160a01b03166315f240536114f76115c6565b6005546006546040518463ffffffff1660e01b815260040180848152602001838152602001828152602001935050505060206040518083038186803b158015610fca57600080fd5b60008083831161155657506000905081830361155e565b506003905060005b9250929050565b6000828201838110156115bd576040805162461bcd60e51b815260206004820152601b60248201527a536166654d6174683a206164646974696f6e206f766572666c6f7760281b604482015290519081900360640190fd5b90505b92915050565b600854604080516370a0823160e01b815230600482015290516000926001600160a01b0316916370a08231916024808301926020929190829003018186803b158015610fca57600080fd5b6000808383018481106116295760009250905061155e565b50600291506000905061155e565b600082611646575060006115c0565b8282028284828161165357fe5b04146115bd5760405162461bcd60e51b8152600401808060200182810382526021815260200180611c0d6021913960400191505060405180910390fd5b600080600061169d611b9b565b6116a786866119a0565b909250905060008260038111156116ba57fe5b146116cb575091506000905061155e565b60006116d6826119ff565b9350935050509250929050565b3390565b600080836116fa5750600090508061155e565b8383028385828161170757fe5b041461171b5750600291506000905061155e565b60009250905061155e565b6000808261173a575060019050600061155e565b600083858161174557fe5b04915091509250929050565b4390565b600061175f611b9b565b6000806117708660000151866116e7565b9092509050600082600381111561178357fe5b146117a25750604080516020810190915260008152909250905061155e565b60408051602081019091529081526000969095509350505050565b60008060006117ca611b9b565b6116a78686611755565b60008060006117e1611b9b565b6117eb8787611755565b909250905060008260038111156117fe57fe5b1461180f5750915060009050611828565b61182161181b826119ff565b86611611565b9350935050505b935093915050565b60006115bd83836040518060400160405280601a815260200179536166654d6174683a206469766973696f6e206279207a65726f60301b815250611a0e565b60006115bd83836040518060400160405280601e81526020017f536166654d6174683a207375627472616374696f6e206f766572666c6f770000815250611ab0565b6000806000806118c18787611611565b909250905060008260038111156118d457fe5b146118e55750915060009050611828565b611821818661153f565b60006118f9611b9b565b60008061190e86670de0b6b3a76400006116e7565b9092509050600082600381111561192157fe5b146119405750604080516020810190915260008152909250905061155e565b60008061194d8388611726565b9092509050600082600381111561196057fe5b14611983578160405180602001604052806000815250955095505050505061155e565b604080516020810190915290815260009890975095505050505050565b60006119aa611b9b565b6000806119bf670de0b6b3a7640000876116e7565b909250905060008260038111156119d257fe5b146119f15750604080516020810190915260008152909250905061155e565b6116d68186600001516118ef565b51670de0b6b3a7640000900490565b60008183611a9a5760405162461bcd60e51b81526004018080602001828103825283818151815260200191508051906020019080838360005b83811015611a5f578181015183820152602001611a47565b50505050905090810190601f168015611a8c5780820380516001836020036101000a031916815260200191505b509250505060405180910390fd5b506000838581611aa657fe5b0495945050505050565b60008184841115611b025760405162461bcd60e51b8152602060048201818152835160248401528351909283926044909101919085019080838360008315611a5f578181015183820152602001611a47565b505050900390565b6040805161010081019091528060008152602001600081526020016000815260200160008152602001600081526020016000815260200160008152602001600081525090565b604080516080810190915280600081526020016000815260200160008152602001600081525090565b6040805160608101909152806000815260200160008152602001600081525090565b6040518060200160405280600081525090565b6040518060a0016040528060006001600160a01b0316815260200160008152602001600081526020016000815260200160008152509056fe4f776e61626c653a206e6577206f776e657220697320746865207a65726f2061646472657373536166654d6174683a206d756c7469706c69636174696f6e206f766572666c6f774f776e61626c653a2063616c6c6572206973206e6f7420746865206f776e65728be0079c531659141344cd1fd0a4f28419497f9722a3daafe3b4186f6b6457e0a26469706673582212202d97f3fe6658d6afc9700db3bbc01a360bf298df711a6ad64918885324e64f6964736f6c6343000606003360806040523480156200001157600080fd5b506040516200135538038062001355833981810160405260608110156200003757600080fd5b8151602083018051604051929492938301929190846401000000008211156200005f57600080fd5b9083019060208201858111156200007557600080fd5b82516401000000008111828201881017156200009057600080fd5b82525081516020918201929091019080838360005b83811015620000bf578181015183820152602001620000a5565b50505050905090810190601f168015620000ed5780820380516001836020036101000a031916815260200191505b50604052602001805160405193929190846401000000008211156200011157600080fd5b9083019060208201858111156200012757600080fd5b82516401000000008111828201881017156200014257600080fd5b82525081516020918201929091019080838360005b838110156200017157818101518382015260200162000157565b50505050905090810190601f1680156200019f5780820380516001836020036101000a031916815260200191505b5060405250505080826000620001ba6200026c60201b60201c565b600080546001600160a01b0319166001600160a01b0383169081178255604051929350917f8be0079c531659141344cd1fd0a4f28419497f9722a3daafe3b4186f6b6457e0908290a35081516200021990600490602085019062000271565b5080516200022f90600590602084019062000271565b5050600680546001600160a01b0390951661010002610100600160a81b031960ff1990961660121795909516949094179093555062000313915050565b335b90565b828054600181600116156101000203166002900490600052602060002090601f016020900481019282601f10620002b457805160ff1916838001178555620002e4565b82800160010185558215620002e4579182015b82811115620002e4578251825591602001919060010190620002c7565b50620002f2929150620002f6565b5090565b6200026e91905b80821115620002f25760008155600101620002fd565b61103280620003236000396000f3fe608060405234801561001057600080fd5b50600436106100db5760003560e01c806306fdde03146100e0578063095ea7b31461015d57806318160ddd1461019d57806323b872dd146101b7578063313ce567146101ed578063395093511461020b57806340c10f191461023757806370a0823114610265578063715018a61461028b5780638da5cb5b1461029357806395d89b41146102b75780639dc29fac146102bf578063a457c2d7146102eb578063a9059cbb14610317578063dd62ed3e14610343578063e9cbd82214610371578063f2fde38b14610379575b600080fd5b6100e861039f565b6040805160208082528351818301528351919283929083019185019080838360005b8381101561012257818101518382015260200161010a565b50505050905090810190601f16801561014f5780820380516001836020036101000a031916815260200191505b509250505060405180910390f35b6101896004803603604081101561017357600080fd5b506001600160a01b038135169060200135610435565b604080519115158252519081900360200190f35b6101a5610452565b60408051918252519081900360200190f35b610189600480360360608110156101cd57600080fd5b506001600160a01b03813581169160208101359091169060400135610458565b6101f56104e5565b6040805160ff9092168252519081900360200190f35b6101896004803603604081101561022157600080fd5b506001600160a01b0381351690602001356104ee565b6102636004803603604081101561024d57600080fd5b506001600160a01b038135169060200135610542565b005b6101a56004803603602081101561027b57600080fd5b50356001600160a01b03166105a8565b6102636105c3565b61029b610653565b604080516001600160a01b039092168252519081900360200190f35b6100e8610662565b610263600480360360408110156102d557600080fd5b506001600160a01b0381351690602001356106c3565b6101896004803603604081101561030157600080fd5b506001600160a01b038135169060200135610725565b6101896004803603604081101561032d57600080fd5b506001600160a01b038135169060200135610793565b6101a56004803603604081101561035957600080fd5b506001600160a01b03813581169160200135166107a7565b61029b6107d2565b6102636004803603602081101561038f57600080fd5b50356001600160a01b03166107e6565b60048054604080516020601f600260001961010060018816150201909516949094049384018190048102820181019092528281526060939092909183018282801561042b5780601f106104005761010080835404028352916020019161042b565b820191906000526020600020905b81548152906001019060200180831161040e57829003601f168201915b5050505050905090565b60006104496104426108cc565b84846108d0565b50600192915050565b60035490565b60006104658484846109bc565b6104db846104716108cc565b6104d685604051806060016040528060288152602001610ee6602891396001600160a01b038a166000908152600260205260408120906104af6108cc565b6001600160a01b03168152602081019190915260400160002054919063ffffffff610b1316565b6108d0565b5060019392505050565b60065460ff1690565b60006104496104fb6108cc565b846104d6856002600061050c6108cc565b6001600160a01b03908116825260208083019390935260409182016000908120918c16815292529020549063ffffffff610baa16565b61054a6108cc565b6000546001600160a01b0390811691161461059a576040805162461bcd60e51b81526020600482018190526024820152600080516020610f0e833981519152604482015290519081900360640190fd5b6105a48282610c09565b5050565b6001600160a01b031660009081526001602052604090205490565b6105cb6108cc565b6000546001600160a01b0390811691161461061b576040805162461bcd60e51b81526020600482018190526024820152600080516020610f0e833981519152604482015290519081900360640190fd5b600080546040516001600160a01b0390911690600080516020610f2e833981519152908390a3600080546001600160a01b0319169055565b6000546001600160a01b031690565b60058054604080516020601f600260001961010060018816150201909516949094049384018190048102820181019092528281526060939092909183018282801561042b5780601f106104005761010080835404028352916020019161042b565b6106cb6108cc565b6000546001600160a01b0390811691161461071b576040805162461bcd60e51b81526020600482018190526024820152600080516020610f0e833981519152604482015290519081900360640190fd5b6105a48282610cf5565b60006104496107326108cc565b846104d685604051806060016040528060258152602001610fd8602591396002600061075c6108cc565b6001600160a01b03908116825260208083019390935260409182016000908120918d1681529252902054919063ffffffff610b1316565b60006104496107a06108cc565b84846109bc565b6001600160a01b03918216600090815260026020908152604080832093909416825291909152205490565b60065461010090046001600160a01b031681565b6107ee6108cc565b6000546001600160a01b0390811691161461083e576040805162461bcd60e51b81526020600482018190526024820152600080516020610f0e833981519152604482015290519081900360640190fd5b6001600160a01b0381166108835760405162461bcd60e51b8152600401808060200182810382526026815260200180610e786026913960400191505060405180910390fd5b600080546040516001600160a01b0380851693921691600080516020610f2e83398151915291a3600080546001600160a01b0319166001600160a01b0392909216919091179055565b3390565b6001600160a01b0383166109155760405162461bcd60e51b8152600401808060200182810382526024815260200180610fb46024913960400191505060405180910390fd5b6001600160a01b03821661095a5760405162461bcd60e51b8152600401808060200182810382526022815260200180610e9e6022913960400191505060405180910390fd5b6001600160a01b03808416600081815260026020908152604080832094871680845294825291829020859055815185815291517f8c5be1e5ebec7d5bd14f71427d1e84f3dd0314c0f7b2291e5b200ac8c7c3b9259281900390910190a3505050565b6001600160a01b038316610a015760405162461bcd60e51b8152600401808060200182810382526025815260200180610f8f6025913960400191505060405180910390fd5b6001600160a01b038216610a465760405162461bcd60e51b8152600401808060200182810382526023815260200180610e336023913960400191505060405180910390fd5b610a51838383610deb565b610a9481604051806060016040528060268152602001610ec0602691396001600160a01b038616600090815260016020526040902054919063ffffffff610b1316565b6001600160a01b038085166000908152600160205260408082209390935590841681522054610ac9908263ffffffff610baa16565b6001600160a01b038084166000818152600160209081526040918290209490945580518581529051919392871692600080516020610f4e83398151915292918290030190a3505050565b60008184841115610ba25760405162461bcd60e51b81526004018080602001828103825283818151815260200191508051906020019080838360005b83811015610b67578181015183820152602001610b4f565b50505050905090810190601f168015610b945780820380516001836020036101000a031916815260200191505b509250505060405180910390fd5b505050900390565b600082820183811015610c02576040805162461bcd60e51b815260206004820152601b60248201527a536166654d6174683a206164646974696f6e206f766572666c6f7760281b604482015290519081900360640190fd5b9392505050565b6001600160a01b038216610c64576040805162461bcd60e51b815260206004820152601f60248201527f45524332303a206d696e7420746f20746865207a65726f206164647265737300604482015290519081900360640190fd5b610c7060008383610deb565b600354610c83908263ffffffff610baa16565b6003556001600160a01b038216600090815260016020526040902054610caf908263ffffffff610baa16565b6001600160a01b0383166000818152600160209081526040808320949094558351858152935192939192600080516020610f4e8339815191529281900390910190a35050565b6001600160a01b038216610d3a5760405162461bcd60e51b8152600401808060200182810382526021815260200180610f6e6021913960400191505060405180910390fd5b610d4682600083610deb565b610d8981604051806060016040528060228152602001610e56602291396001600160a01b038516600090815260016020526040902054919063ffffffff610b1316565b6001600160a01b038316600090815260016020526040902055600354610db5908263ffffffff610df016565b6003556040805182815290516000916001600160a01b03851691600080516020610f4e8339815191529181900360200190a35050565b505050565b6000610c0283836040518060400160405280601e81526020017f536166654d6174683a207375627472616374696f6e206f766572666c6f770000815250610b1356fe45524332303a207472616e7366657220746f20746865207a65726f206164647265737345524332303a206275726e20616d6f756e7420657863656564732062616c616e63654f776e61626c653a206e6577206f776e657220697320746865207a65726f206164647265737345524332303a20617070726f766520746f20746865207a65726f206164647265737345524332303a207472616e7366657220616d6f756e7420657863656564732062616c616e636545524332303a207472616e7366657220616d6f756e74206578636565647320616c6c6f77616e63654f776e61626c653a2063616c6c6572206973206e6f7420746865206f776e65728be0079c531659141344cd1fd0a4f28419497f9722a3daafe3b4186f6b6457e0ddf252ad1be2c89b69c2b068fc378daa952ba7f163c4a11628f55a4df523b3ef45524332303a206275726e2066726f6d20746865207a65726f206164647265737345524332303a207472616e736665722066726f6d20746865207a65726f206164647265737345524332303a20617070726f76652066726f6d20746865207a65726f206164647265737345524332303a2064656372656173656420616c6c6f77616e63652062656c6f77207a65726fa264697066735822122031be152ed6520da8d6af1af43c8b44a9656953c334cb61126cade981debcf43064736f6c634300060600334f776e61626c653a206e6577206f776e657220697320746865207a65726f20616464726573734f776e61626c653a2063616c6c6572206973206e6f7420746865206f776e65728be0079c531659141344cd1fd0a4f28419497f9722a3daafe3b4186f6b6457e0a2646970667358221220268dd21b5155e8c40dc9994da44d8f0d0aabcb734ae6439a84a29242c420f1f264736f6c63430006060033",
  "immutableReferences": {},
  "source": "pragma solidity ^0.6.0;\n\nimport \"./WarpVaultSC.sol\";\nimport \"@openzeppelin/contracts/access/Ownable.sol\";\n\n////////////////////////////////////////////////////////////////////////////////////////////\n/// @title WarpVaultLPFactory\n/// @author Christopher Dixon\n////////////////////////////////////////////////////////////////////////////////////////////\n/**\nThe WarpVaultLPFactory contract is designed to produce individual WarpVaultLP contracts\nThis contract uses the OpenZeppelin contract Library to inherit functions from\n  Ownable.sol\n**/\n\ncontract WarpVaultSCFactory is Ownable {\n    function createNewWarpVaultSC(\n        address _InterestRate,\n        address _StableCoin,\n        uint256 _initialExchangeRate\n    ) public onlyOwner returns (address) {\n        address _WVSC = address(\n            new WarpVaultSC(\n                _InterestRate,\n                _StableCoin,\n                msg.sender,\n                _initialExchangeRate\n            )\n        );\n\n        return _WVSC;\n    }\n}\n",
  "sourcePath": "/home/stan36/repos/Warp/Smart-Contracts/contracts/WarpVaultSCFactory.sol",
  "compiler": {
    "name": "solc",
    "version": "0.6.6+commit.6c089d02.Emscripten.clang"
  },
  "schemaVersion": "3.3.1",
  "updatedAt": "2020-11-05T04:41:25.805Z",
  "devdoc": {
    "methods": {
      "owner()": {
        "details": "Returns the address of the current owner."
      },
      "renounceOwnership()": {
        "details": "Leaves the contract without owner. It will not be possible to call `onlyOwner` functions anymore. Can only be called by the current owner.     * NOTE: Renouncing ownership will leave the contract without an owner, thereby removing any functionality that is only available to the owner."
      },
      "transferOwnership(address)": {
        "details": "Transfers ownership of the contract to a new account (`newOwner`). Can only be called by the current owner."
      }
    }
  },
  "userdoc": {
    "methods": {},
    "notice": "The WarpVaultLPFactory contract is designed to produce individual WarpVaultLP contracts This contract uses the OpenZeppelin contract Library to inherit functions from Ownable.sol*"
  }
}