{
  "contractName": "WarpVaultLPFactory",
  "abi": [
    {
      "anonymous": false,
      "inputs": [
        {
          "indexed": true,
          "internalType": "address",
          "name": "previousOwner",
          "type": "address"
        },
        {
          "indexed": true,
          "internalType": "address",
          "name": "newOwner",
          "type": "address"
        }
      ],
      "name": "OwnershipTransferred",
      "type": "event"
    },
    {
      "inputs": [],
      "name": "owner",
      "outputs": [
        {
          "internalType": "address",
          "name": "",
          "type": "address"
        }
      ],
      "stateMutability": "view",
      "type": "function"
    },
    {
      "inputs": [],
      "name": "renounceOwnership",
      "outputs": [],
      "stateMutability": "nonpayable",
      "type": "function"
    },
    {
      "inputs": [
        {
          "internalType": "address",
          "name": "newOwner",
          "type": "address"
        }
      ],
      "name": "transferOwnership",
      "outputs": [],
      "stateMutability": "nonpayable",
      "type": "function"
    },
    {
      "inputs": [
        {
          "internalType": "address",
          "name": "_lp",
          "type": "address"
        },
        {
          "internalType": "string",
          "name": "_lpName",
          "type": "string"
        }
      ],
      "name": "createWarpVaultLP",
      "outputs": [
        {
          "internalType": "address",
          "name": "",
          "type": "address"
        }
      ],
      "stateMutability": "nonpayable",
      "type": "function"
    }
  ],
  "bytecode": "0x608060405260006100176001600160e01b0361006616565b600080546001600160a01b0319166001600160a01b0383169081178255604051929350917f8be0079c531659141344cd1fd0a4f28419497f9722a3daafe3b4186f6b6457e0908290a35061006a565b3390565b611089806100796000396000f3fe608060405234801561001057600080fd5b506004361061004c5760003560e01c8063715018a61461005157806375d797041461005b5780638da5cb5b1461012b578063f2fde38b14610133575b600080fd5b610059610159565b005b61010f6004803603604081101561007157600080fd5b6001600160a01b038235169190810190604081016020820135600160201b81111561009b57600080fd5b8201836020820111156100ad57600080fd5b803590602001918460018302840111600160201b831117156100ce57600080fd5b91908080601f0160208091040260200160405190810160405280939291908181526020018383808284376000920191909152509295506101e9945050505050565b604080516001600160a01b039092168252519081900360200190f35b61010f610317565b6100596004803603602081101561014957600080fd5b50356001600160a01b0316610326565b61016161040c565b6000546001600160a01b039081169116146101b1576040805162461bcd60e51b81526020600482018190526024820152600080516020611014833981519152604482015290519081900360640190fd5b600080546040516001600160a01b0390911690600080516020611034833981519152908390a3600080546001600160a01b0319169055565b60006101f361040c565b6000546001600160a01b03908116911614610243576040805162461bcd60e51b81526020600482018190526024820152600080516020611014833981519152604482015290519081900360640190fd5b600083338460405161025490610410565b80846001600160a01b03166001600160a01b03168152602001836001600160a01b03166001600160a01b0316815260200180602001828103825283818151815260200191508051906020019080838360005b838110156102be5781810151838201526020016102a6565b50505050905090810190601f1680156102eb5780820380516001836020036101000a031916815260200191505b50945050505050604051809103906000f08015801561030e573d6000803e3d6000fd5b50949350505050565b6000546001600160a01b031690565b61032e61040c565b6000546001600160a01b0390811691161461037e576040805162461bcd60e51b81526020600482018190526024820152600080516020611014833981519152604482015290519081900360640190fd5b6001600160a01b0381166103c35760405162461bcd60e51b8152600401808060200182810382526026815260200180610fee6026913960400191505060405180910390fd5b600080546040516001600160a01b038085169392169160008051602061103483398151915291a3600080546001600160a01b0319166001600160a01b0392909216919091179055565b3390565b610bd08061041e8339019056fe608060405234801561001057600080fd5b50604051610bd0380380610bd08339818101604052606081101561003357600080fd5b8151602083015160408085018051915193959294830192918464010000000082111561005e57600080fd5b90830190602082018581111561007357600080fd5b825164010000000081118282018810171561008d57600080fd5b82525081516020918201929091019080838360005b838110156100ba5781810151838201526020016100a2565b50505050905090810190601f1680156100e75780820380516001836020036101000a031916815260200191505b5060405250505060006100fe61018e60201b60201c565b600080546001600160a01b0319166001600160a01b0383169081178255604051929350917f8be0079c531659141344cd1fd0a4f28419497f9722a3daafe3b4186f6b6457e0908290a350805161015b906001906020840190610193565b5050600280546001600160a01b039384166001600160a01b0319918216179091556004805492909316911617905561022b565b335b90565b828054600181600116156101000203166002900490600052602060002090601f016020900481019282601f106101d457805160ff1916838001178555610201565b82800160010185558215610201579182015b828111156102015782518255916020019190600101906101e6565b5061020d929150610211565b5090565b61019091905b8082111561020d5760008155600101610217565b6109968061023a6000396000f3fe608060405234801561001057600080fd5b50600436106100af5760003560e01c8063122b5818146100b45780631938ebeb146100d857806346cd6801146101105780634c20ac741461018d5780636ea184bd14610195578063715018a6146101b2578063763e4a0d146101ba5780638da5cb5b146101f25780639ab23701146101fa578063c14cba3e14610202578063dfd33e251461020a578063e4456ecb14610230578063f2fde38b1461024d575b600080fd5b6100bc610273565b604080516001600160a01b039092168252519081900360200190f35b61010e600480360360608110156100ee57600080fd5b506001600160a01b03813581169160208101359091169060400135610282565b005b61011861035a565b6040805160208082528351818301528351919283929083019185019080838360005b8381101561015257818101518382015260200161013a565b50505050905090810190601f16801561017f5780820380516001836020036101000a031916815260200191505b509250505060405180910390f35b6100bc6103e7565b61010e600480360360208110156101ab57600080fd5b50356103f6565b61010e6104af565b6101e0600480360360208110156101d057600080fd5b50356001600160a01b031661053f565b60408051918252519081900360200190f35b6100bc610551565b6100bc610560565b6100bc61056f565b6101e06004803603602081101561022057600080fd5b50356001600160a01b031661057e565b61010e6004803603602081101561024657600080fd5b5035610599565b61010e6004803603602081101561026357600080fd5b50356001600160a01b03166106d8565b6004546001600160a01b031681565b6004546001600160a01b0316331461029957600080fd5b6001600160a01b0383166000908152600560205260409020546102c2908263ffffffff6107be16565b6001600160a01b03808516600090815260056020908152604080832094909455600254845163a9059cbb60e01b8152878516600482015260248101879052945193169363a9059cbb9360448083019491928390030190829087803b15801561032957600080fd5b505af115801561033d573d6000803e3d6000fd5b505050506040513d602081101561035357600080fd5b5050505050565b60018054604080516020600284861615610100026000190190941693909304601f810184900484028201840190925281815292918301828280156103df5780601f106103b4576101008083540402835291602001916103df565b820191906000526020600020905b8154815290600101906020018083116103c257829003601f168201915b505050505081565b6002546001600160a01b031690565b600254604080516323b872dd60e01b81523360048201523060248201526044810184905290516001600160a01b03909216916323b872dd916064808201926020929091908290030181600087803b15801561045057600080fd5b505af1158015610464573d6000803e3d6000fd5b505050506040513d602081101561047a57600080fd5b50503360009081526005602052604090205461049c908263ffffffff61080716565b3360009081526005602052604090205550565b6104b761085f565b6000546001600160a01b03908116911614610507576040805162461bcd60e51b81526020600482018190526024820152600080516020610921833981519152604482015290519081900360640190fd5b600080546040516001600160a01b0390911690600080516020610941833981519152908390a3600080546001600160a01b0319169055565b60056020526000908152604090205481565b6000546001600160a01b031690565b6003546001600160a01b031681565b6002546001600160a01b031681565b6001600160a01b031660009081526005602052604090205490565b6004805460408051636012b43160e01b815233938101939093523060248401525183926001600160a01b0390921691636012b431916044808301926020929190829003018186803b1580156105ed57600080fd5b505afa158015610601573d6000803e3d6000fd5b505050506040513d602081101561061757600080fd5b5051101561062457600080fd5b33600090815260056020526040902054610644908263ffffffff6107be16565b33600081815260056020908152604080832094909455600254845163a9059cbb60e01b815260048101949094526024840186905293516001600160a01b039094169363a9059cbb93604480820194918390030190829087803b1580156106a957600080fd5b505af11580156106bd573d6000803e3d6000fd5b505050506040513d60208110156106d357600080fd5b505050565b6106e061085f565b6000546001600160a01b03908116911614610730576040805162461bcd60e51b81526020600482018190526024820152600080516020610921833981519152604482015290519081900360640190fd5b6001600160a01b0381166107755760405162461bcd60e51b81526004018080602001828103825260268152602001806108fb6026913960400191505060405180910390fd5b600080546040516001600160a01b038085169392169160008051602061094183398151915291a3600080546001600160a01b0319166001600160a01b0392909216919091179055565b600061080083836040518060400160405280601e81526020017f536166654d6174683a207375627472616374696f6e206f766572666c6f770000815250610863565b9392505050565b600082820183811015610800576040805162461bcd60e51b815260206004820152601b60248201527a536166654d6174683a206164646974696f6e206f766572666c6f7760281b604482015290519081900360640190fd5b3390565b600081848411156108f25760405162461bcd60e51b81526004018080602001828103825283818151815260200191508051906020019080838360005b838110156108b757818101518382015260200161089f565b50505050905090810190601f1680156108e45780820380516001836020036101000a031916815260200191505b509250505060405180910390fd5b50505090039056fe4f776e61626c653a206e6577206f776e657220697320746865207a65726f20616464726573734f776e61626c653a2063616c6c6572206973206e6f7420746865206f776e65728be0079c531659141344cd1fd0a4f28419497f9722a3daafe3b4186f6b6457e0a26469706673582212205f5945131e4030bb7af33bf85d1ab1de40c246d2bb2a5dee00abd5c3e363df5264736f6c634300060600334f776e61626c653a206e6577206f776e657220697320746865207a65726f20616464726573734f776e61626c653a2063616c6c6572206973206e6f7420746865206f776e65728be0079c531659141344cd1fd0a4f28419497f9722a3daafe3b4186f6b6457e0a2646970667358221220a7848f4d6008680db5f49ecbb8be1af5046368c76065e90d667f3266fb41466264736f6c63430006060033",
  "immutableReferences": {},
  "source": "pragma solidity ^0.6.0;\n\nimport \"./WarpVaultLP.sol\";\nimport \"@openzeppelin/contracts/access/Ownable.sol\";\n\n////////////////////////////////////////////////////////////////////////////////////////////\n/// @title WarpVaultLPFactory\n/// @author Christopher Dixon\n////////////////////////////////////////////////////////////////////////////////////////////\n/**\nThe WarpVaultLPFactory contract is designed to produce individual WarpVaultLP contracts\nThis contract uses the OpenZeppelin contract Library to inherit functions from\n  Ownable.sol\n**/\n\ncontract WarpVaultLPFactory is Ownable {\n    function createWarpVaultLP(address _lp, string memory _lpName)\n        public\n        onlyOwner\n        returns (address)\n    {\n        address _WVLP = address(new WarpVaultLP(_lp, msg.sender, _lpName));\n\n        return _WVLP;\n    }\n}\n",
  "sourcePath": "/home/stan36/repos/Warp/Smart-Contracts/contracts/WarpVaultLPFactory.sol",
  "compiler": {
    "name": "solc",
    "version": "0.6.6+commit.6c089d02.Emscripten.clang"
  },
  "schemaVersion": "3.3.1",
  "updatedAt": "2020-11-05T04:44:30.921Z",
  "devdoc": {
    "methods": {
      "owner()": {
        "details": "Returns the address of the current owner."
      },
      "renounceOwnership()": {
        "details": "Leaves the contract without owner. It will not be possible to call `onlyOwner` functions anymore. Can only be called by the current owner.     * NOTE: Renouncing ownership will leave the contract without an owner, thereby removing any functionality that is only available to the owner."
      },
      "transferOwnership(address)": {
        "details": "Transfers ownership of the contract to a new account (`newOwner`). Can only be called by the current owner."
      }
    }
  },
  "userdoc": {
    "methods": {},
    "notice": "The WarpVaultLPFactory contract is designed to produce individual WarpVaultLP contracts This contract uses the OpenZeppelin contract Library to inherit functions from Ownable.sol*"
  }
}