{
  "contractName": "WarpControl",
  "abi": [
    {
      "inputs": [
        {
          "internalType": "address",
          "name": "_oracle",
          "type": "address"
        },
        {
          "internalType": "address",
          "name": "_WVLPF",
          "type": "address"
        },
        {
          "internalType": "address",
          "name": "_WVSCF",
          "type": "address"
        },
        {
          "internalType": "address",
          "name": "_warpTeam",
          "type": "address"
        }
      ],
      "stateMutability": "nonpayable",
      "type": "constructor"
    },
    {
      "anonymous": false,
      "inputs": [
        {
          "indexed": false,
          "internalType": "address",
          "name": "_account",
          "type": "address"
        },
        {
          "indexed": false,
          "internalType": "address",
          "name": "liquidator",
          "type": "address"
        }
      ],
      "name": "Liquidation",
      "type": "event"
    },
    {
      "anonymous": false,
      "inputs": [
        {
          "indexed": false,
          "internalType": "address",
          "name": "_borrower",
          "type": "address"
        },
        {
          "indexed": false,
          "internalType": "address",
          "name": "_StableCoin",
          "type": "address"
        },
        {
          "indexed": false,
          "internalType": "uint256",
          "name": "_amountBorrowed",
          "type": "uint256"
        }
      ],
      "name": "NewBorrow",
      "type": "event"
    },
    {
      "anonymous": false,
      "inputs": [
        {
          "indexed": false,
          "internalType": "address",
          "name": "_newVault",
          "type": "address"
        }
      ],
      "name": "NewLPVault",
      "type": "event"
    },
    {
      "anonymous": false,
      "inputs": [
        {
          "indexed": false,
          "internalType": "address",
          "name": "_newVault",
          "type": "address"
        },
        {
          "indexed": false,
          "internalType": "address",
          "name": "_interestRateModel",
          "type": "address"
        }
      ],
      "name": "NewSCVault",
      "type": "event"
    },
    {
      "anonymous": false,
      "inputs": [
        {
          "indexed": false,
          "internalType": "address",
          "name": "_account",
          "type": "address"
        },
        {
          "indexed": false,
          "internalType": "uint256",
          "name": "_time",
          "type": "uint256"
        }
      ],
      "name": "NotCompliant",
      "type": "event"
    },
    {
      "anonymous": false,
      "inputs": [
        {
          "indexed": true,
          "internalType": "address",
          "name": "previousOwner",
          "type": "address"
        },
        {
          "indexed": true,
          "internalType": "address",
          "name": "newOwner",
          "type": "address"
        }
      ],
      "name": "OwnershipTransferred",
      "type": "event"
    },
    {
      "anonymous": false,
      "inputs": [
        {
          "indexed": false,
          "internalType": "address",
          "name": "_account",
          "type": "address"
        },
        {
          "indexed": false,
          "internalType": "uint256",
          "name": "_time",
          "type": "uint256"
        }
      ],
      "name": "complianceReset",
      "type": "event"
    },
    {
      "inputs": [],
      "name": "Oracle",
      "outputs": [
        {
          "internalType": "contract UniswapLPOracleFactoryI",
          "name": "",
          "type": "address"
        }
      ],
      "stateMutability": "view",
      "type": "function"
    },
    {
      "inputs": [],
      "name": "WVLPF",
      "outputs": [
        {
          "internalType": "contract WarpVaultLPFactoryI",
          "name": "",
          "type": "address"
        }
      ],
      "stateMutability": "view",
      "type": "function"
    },
    {
      "inputs": [],
      "name": "WVSCF",
      "outputs": [
        {
          "internalType": "contract WarpVaultSCFactoryI",
          "name": "",
          "type": "address"
        }
      ],
      "stateMutability": "view",
      "type": "function"
    },
    {
      "inputs": [
        {
          "internalType": "address",
          "name": "",
          "type": "address"
        }
      ],
      "name": "existingRefferalCode",
      "outputs": [
        {
          "internalType": "bool",
          "name": "",
          "type": "bool"
        }
      ],
      "stateMutability": "view",
      "type": "function"
    },
    {
      "inputs": [
        {
          "internalType": "uint256",
          "name": "",
          "type": "uint256"
        }
      ],
      "name": "groups",
      "outputs": [
        {
          "internalType": "address",
          "name": "",
          "type": "address"
        }
      ],
      "stateMutability": "view",
      "type": "function"
    },
    {
      "inputs": [
        {
          "internalType": "address",
          "name": "",
          "type": "address"
        }
      ],
      "name": "instanceLPTracker",
      "outputs": [
        {
          "internalType": "address",
          "name": "",
          "type": "address"
        }
      ],
      "stateMutability": "view",
      "type": "function"
    },
    {
      "inputs": [
        {
          "internalType": "address",
          "name": "",
          "type": "address"
        }
      ],
      "name": "instanceSCTracker",
      "outputs": [
        {
          "internalType": "address",
          "name": "",
          "type": "address"
        }
      ],
      "stateMutability": "view",
      "type": "function"
    },
    {
      "inputs": [
        {
          "internalType": "address",
          "name": "",
          "type": "address"
        }
      ],
      "name": "isGroupMember",
      "outputs": [
        {
          "internalType": "bool",
          "name": "",
          "type": "bool"
        }
      ],
      "stateMutability": "view",
      "type": "function"
    },
    {
      "inputs": [
        {
          "internalType": "address",
          "name": "",
          "type": "address"
        }
      ],
      "name": "isVault",
      "outputs": [
        {
          "internalType": "bool",
          "name": "",
          "type": "bool"
        }
      ],
      "stateMutability": "view",
      "type": "function"
    },
    {
      "inputs": [
        {
          "internalType": "uint256",
          "name": "",
          "type": "uint256"
        }
      ],
      "name": "launchParticipants",
      "outputs": [
        {
          "internalType": "address",
          "name": "",
          "type": "address"
        }
      ],
      "stateMutability": "view",
      "type": "function"
    },
    {
      "inputs": [
        {
          "internalType": "address",
          "name": "",
          "type": "address"
        }
      ],
      "name": "lockedLPValue",
      "outputs": [
        {
          "internalType": "uint256",
          "name": "",
          "type": "uint256"
        }
      ],
      "stateMutability": "view",
      "type": "function"
    },
    {
      "inputs": [
        {
          "internalType": "uint256",
          "name": "",
          "type": "uint256"
        }
      ],
      "name": "lpVaults",
      "outputs": [
        {
          "internalType": "address",
          "name": "",
          "type": "address"
        }
      ],
      "stateMutability": "view",
      "type": "function"
    },
    {
      "inputs": [],
      "name": "owner",
      "outputs": [
        {
          "internalType": "address",
          "name": "",
          "type": "address"
        }
      ],
      "stateMutability": "view",
      "type": "function"
    },
    {
      "inputs": [
        {
          "internalType": "address",
          "name": "",
          "type": "address"
        },
        {
          "internalType": "uint256",
          "name": "",
          "type": "uint256"
        }
      ],
      "name": "refferalCodeTracker",
      "outputs": [
        {
          "internalType": "address",
          "name": "",
          "type": "address"
        }
      ],
      "stateMutability": "view",
      "type": "function"
    },
    {
      "inputs": [],
      "name": "renounceOwnership",
      "outputs": [],
      "stateMutability": "nonpayable",
      "type": "function"
    },
    {
      "inputs": [
        {
          "internalType": "uint256",
          "name": "",
          "type": "uint256"
        }
      ],
      "name": "scVaults",
      "outputs": [
        {
          "internalType": "address",
          "name": "",
          "type": "address"
        }
      ],
      "stateMutability": "view",
      "type": "function"
    },
    {
      "inputs": [
        {
          "internalType": "address",
          "name": "newOwner",
          "type": "address"
        }
      ],
      "name": "transferOwnership",
      "outputs": [],
      "stateMutability": "nonpayable",
      "type": "function"
    },
    {
      "inputs": [],
      "name": "warpTeam",
      "outputs": [
        {
          "internalType": "address",
          "name": "",
          "type": "address"
        }
      ],
      "stateMutability": "view",
      "type": "function"
    },
    {
      "inputs": [],
      "name": "viewNumLPVaults",
      "outputs": [
        {
          "internalType": "uint256",
          "name": "",
          "type": "uint256"
        }
      ],
      "stateMutability": "view",
      "type": "function"
    },
    {
      "inputs": [],
      "name": "viewNumSCVaults",
      "outputs": [
        {
          "internalType": "uint256",
          "name": "",
          "type": "uint256"
        }
      ],
      "stateMutability": "view",
      "type": "function"
    },
    {
      "inputs": [],
      "name": "viewLaunchParticipants",
      "outputs": [
        {
          "internalType": "address[]",
          "name": "",
          "type": "address[]"
        }
      ],
      "stateMutability": "view",
      "type": "function"
    },
    {
      "inputs": [],
      "name": "viewAllGroups",
      "outputs": [
        {
          "internalType": "address[]",
          "name": "",
          "type": "address[]"
        }
      ],
      "stateMutability": "view",
      "type": "function"
    },
    {
      "inputs": [
        {
          "internalType": "address",
          "name": "_refferalCode",
          "type": "address"
        }
      ],
      "name": "viewAllMembersOfAGroup",
      "outputs": [
        {
          "internalType": "address[]",
          "name": "",
          "type": "address[]"
        }
      ],
      "stateMutability": "view",
      "type": "function"
    },
    {
      "inputs": [
        {
          "internalType": "address",
          "name": "_account",
          "type": "address"
        }
      ],
      "name": "checkIfGroupMember",
      "outputs": [
        {
          "internalType": "bool",
          "name": "",
          "type": "bool"
        }
      ],
      "stateMutability": "view",
      "type": "function"
    },
    {
      "inputs": [
        {
          "internalType": "uint256",
          "name": "_timelock",
          "type": "uint256"
        },
        {
          "internalType": "address",
          "name": "_lp",
          "type": "address"
        },
        {
          "internalType": "address",
          "name": "_lpAsset1",
          "type": "address"
        },
        {
          "internalType": "address",
          "name": "_lpAsset2",
          "type": "address"
        },
        {
          "internalType": "string",
          "name": "_lpName",
          "type": "string"
        }
      ],
      "name": "createNewLPVault",
      "outputs": [],
      "stateMutability": "nonpayable",
      "type": "function"
    },
    {
      "inputs": [
        {
          "internalType": "uint256",
          "name": "_timelock",
          "type": "uint256"
        },
        {
          "internalType": "uint256",
          "name": "_baseRatePerYear",
          "type": "uint256"
        },
        {
          "internalType": "uint256",
          "name": "_multiplierPerYear",
          "type": "uint256"
        },
        {
          "internalType": "uint256",
          "name": "_jumpMultiplierPerYear",
          "type": "uint256"
        },
        {
          "internalType": "uint256",
          "name": "_optimal",
          "type": "uint256"
        },
        {
          "internalType": "uint256",
          "name": "_initialExchangeRate",
          "type": "uint256"
        },
        {
          "internalType": "address",
          "name": "_StableCoin",
          "type": "address"
        }
      ],
      "name": "createNewSCVault",
      "outputs": [],
      "stateMutability": "nonpayable",
      "type": "function"
    },
    {
      "inputs": [
        {
          "internalType": "address",
          "name": "_refferalCode",
          "type": "address"
        },
        {
          "internalType": "address",
          "name": "_member",
          "type": "address"
        }
      ],
      "name": "addMemberToGroup",
      "outputs": [],
      "stateMutability": "nonpayable",
      "type": "function"
    },
    {
      "inputs": [
        {
          "internalType": "address",
          "name": "account",
          "type": "address"
        },
        {
          "internalType": "address",
          "name": "lpToken",
          "type": "address"
        }
      ],
      "name": "getMaxWithdrawAllowed",
      "outputs": [
        {
          "internalType": "uint256",
          "name": "",
          "type": "uint256"
        }
      ],
      "stateMutability": "nonpayable",
      "type": "function"
    },
    {
      "inputs": [
        {
          "internalType": "address",
          "name": "account",
          "type": "address"
        },
        {
          "internalType": "address",
          "name": "lpToken",
          "type": "address"
        }
      ],
      "name": "viewMaxWithdrawAllowed",
      "outputs": [
        {
          "internalType": "uint256",
          "name": "",
          "type": "uint256"
        }
      ],
      "stateMutability": "view",
      "type": "function"
    },
    {
      "inputs": [
        {
          "internalType": "address",
          "name": "_account",
          "type": "address"
        }
      ],
      "name": "getTotalAvailableCollateralValue",
      "outputs": [
        {
          "internalType": "uint256",
          "name": "",
          "type": "uint256"
        }
      ],
      "stateMutability": "nonpayable",
      "type": "function"
    },
    {
      "inputs": [
        {
          "internalType": "address",
          "name": "_account",
          "type": "address"
        }
      ],
      "name": "viewTotalAvailableCollateralValue",
      "outputs": [
        {
          "internalType": "uint256",
          "name": "",
          "type": "uint256"
        }
      ],
      "stateMutability": "view",
      "type": "function"
    },
    {
      "inputs": [
        {
          "internalType": "address",
          "name": "lpToken",
          "type": "address"
        }
      ],
      "name": "viewPriceOfCollateral",
      "outputs": [
        {
          "internalType": "uint256",
          "name": "",
          "type": "uint256"
        }
      ],
      "stateMutability": "view",
      "type": "function"
    },
    {
      "inputs": [
        {
          "internalType": "address",
          "name": "token",
          "type": "address"
        }
      ],
      "name": "viewPriceOfToken",
      "outputs": [
        {
          "internalType": "uint256",
          "name": "",
          "type": "uint256"
        }
      ],
      "stateMutability": "view",
      "type": "function"
    },
    {
      "inputs": [
        {
          "internalType": "address",
          "name": "_account",
          "type": "address"
        }
      ],
      "name": "viewTotalBorrowedValue",
      "outputs": [
        {
          "internalType": "uint256",
          "name": "",
          "type": "uint256"
        }
      ],
      "stateMutability": "view",
      "type": "function"
    },
    {
      "inputs": [
        {
          "internalType": "address",
          "name": "_account",
          "type": "address"
        }
      ],
      "name": "getTotalBorrowedValue",
      "outputs": [
        {
          "internalType": "uint256",
          "name": "",
          "type": "uint256"
        }
      ],
      "stateMutability": "nonpayable",
      "type": "function"
    },
    {
      "inputs": [
        {
          "internalType": "uint256",
          "name": "_collateralValue",
          "type": "uint256"
        }
      ],
      "name": "calcBorrowLimit",
      "outputs": [
        {
          "internalType": "uint256",
          "name": "",
          "type": "uint256"
        }
      ],
      "stateMutability": "pure",
      "type": "function"
    },
    {
      "inputs": [
        {
          "internalType": "uint256",
          "name": "_borrowAmount",
          "type": "uint256"
        }
      ],
      "name": "calcCollateralRequired",
      "outputs": [
        {
          "internalType": "uint256",
          "name": "",
          "type": "uint256"
        }
      ],
      "stateMutability": "view",
      "type": "function"
    },
    {
      "inputs": [
        {
          "internalType": "address",
          "name": "_account",
          "type": "address"
        }
      ],
      "name": "getBorrowLimit",
      "outputs": [
        {
          "internalType": "uint256",
          "name": "",
          "type": "uint256"
        }
      ],
      "stateMutability": "nonpayable",
      "type": "function"
    },
    {
      "inputs": [
        {
          "internalType": "address",
          "name": "_account",
          "type": "address"
        }
      ],
      "name": "viewBorrowLimit",
      "outputs": [
        {
          "internalType": "uint256",
          "name": "",
          "type": "uint256"
        }
      ],
      "stateMutability": "view",
      "type": "function"
    },
    {
      "inputs": [
        {
          "internalType": "address",
          "name": "_StableCoin",
          "type": "address"
        },
        {
          "internalType": "uint256",
          "name": "_amount",
          "type": "uint256"
        }
      ],
      "name": "borrowSC",
      "outputs": [],
      "stateMutability": "nonpayable",
      "type": "function"
    },
    {
      "inputs": [
        {
          "internalType": "address",
          "name": "_borrower",
          "type": "address"
        }
      ],
      "name": "markAccountNonCompliant",
      "outputs": [],
      "stateMutability": "nonpayable",
      "type": "function"
    },
    {
      "inputs": [
        {
          "internalType": "address",
          "name": "_borrower",
          "type": "address"
        }
      ],
      "name": "liquidateAccount",
      "outputs": [],
      "stateMutability": "nonpayable",
      "type": "function"
    }
  ],
  "bytecode": "0x608060405234801561001057600080fd5b5060405162003118380380620031188339818101604052608081101561003557600080fd5b5080516020820151604083015160609093015191929091600061005f6001600160e01b036100fc16565b600080546001600160a01b0319166001600160a01b0383169081178255604051929350917f8be0079c531659141344cd1fd0a4f28419497f9722a3daafe3b4186f6b6457e0908290a350600180546001600160a01b039586166001600160a01b0319918216179091556002805494861694821694909417909355600380549285169284169290921790915560048054919093169116179055610100565b3390565b61300880620001106000396000f3fe60806040523480156200001157600080fd5b50600436106200021a5760003560e01c80630a555989146200021f5780630c1e2b921462000250578063169d4b1414620002955780631dbb0b8114620002d057806341f4118914620002da57806348cca25414620003035780634e590bee146200037e5780635136f31514620003a75780635cf5738914620003e45780636222630814620003ee578063652b9b41146200040e5780636af5f7521462000437578063715018a614620004415780637a29fea3146200044b5780637af70ba614620004745780637c17d237146200049d578063856d836b14620004c65780638ac5d4a314620004f75780638da5cb5b146200052057806391e0414a146200052a57806396324bd41462000553578063a092b7181462000573578063a2b35d9d146200057d578063a372e01c14620005a6578063ab5e2c9914620005b0578063acc9e5b114620005e1578063b0420792146200060a578063bc64cd4e146200062a578063be9287e31462000653578063d38ca6d9146200067c578063d6fff56f14620006a5578063da4f7fb214620006d4578063db1dfc4614620006f4578063e1535d121462000741578063e3c351b8146200074b578063e50f4a301462000774578063e7b34be31462000846578063ed6072f61462000866578063efdebdf51462000886578063f24a534e1462000890578063f2fde38b146200089a578063f3c7f98714620008c3575b600080fd5b6200024e600480360360408110156200023757600080fd5b506001600160a01b038135169060200135620008f4565b005b62000279600480360360208110156200026857600080fd5b50356001600160a01b031662000a7a565b604080516001600160a01b039092168252519081900360200190f35b620002be60048036036020811015620002ad57600080fd5b50356001600160a01b031662000a95565b60408051918252519081900360200190f35b620002be62000ab7565b6200024e60048036036020811015620002f257600080fd5b50356001600160a01b031662000abd565b6200032c600480360360208110156200031b57600080fd5b50356001600160a01b031662000c9a565b60408051602080825283518183015283519192839290830191858101910280838360005b838110156200036a57818101518382015260200162000350565b505050509050019250505060405180910390f35b620002be600480360360208110156200039657600080fd5b50356001600160a01b031662000d12565b620003d060048036036020811015620003bf57600080fd5b50356001600160a01b031662000d98565b604080519115158252519081900360200190f35b6200027962000dad565b62000279600480360360208110156200040657600080fd5b503562000dbc565b620003d0600480360360208110156200042657600080fd5b50356001600160a01b031662000de4565b6200027962000df9565b6200024e62000e08565b620003d0600480360360208110156200046357600080fd5b50356001600160a01b031662000e9d565b620002be600480360360208110156200048c57600080fd5b50356001600160a01b031662000ebb565b620002be60048036036020811015620004b557600080fd5b50356001600160a01b0316620010a0565b6200024e60048036036040811015620004de57600080fd5b506001600160a01b0381358116916020013516620010ae565b6200024e600480360360208110156200050f57600080fd5b50356001600160a01b0316620011e8565b62000279620015ae565b620003d0600480360360208110156200054257600080fd5b50356001600160a01b0316620015bd565b62000279600480360360208110156200056b57600080fd5b5035620015d2565b6200032c620015e0565b620002be600480360360208110156200059557600080fd5b50356001600160a01b031662001644565b6200032c6200170f565b620002be60048036036040811015620005c857600080fd5b506001600160a01b038135811691602001351662001771565b6200027960048036036020811015620005f957600080fd5b50356001600160a01b031662001848565b62000279600480360360208110156200062257600080fd5b503562001863565b620002be600480360360208110156200064257600080fd5b50356001600160a01b031662001871565b620002be600480360360208110156200066b57600080fd5b50356001600160a01b031662001a4d565b620002be600480360360208110156200069457600080fd5b50356001600160a01b031662001aec565b6200027960048036036040811015620006bd57600080fd5b506001600160a01b03813516906020013562001b3e565b620002be60048036036020811015620006ec57600080fd5b503562001b74565b6200024e600480360360e08110156200070c57600080fd5b5080359060208101359060408101359060608101359060808101359060a08101359060c001356001600160a01b031662001c31565b620002be62001e59565b620002be600480360360208110156200076357600080fd5b50356001600160a01b031662001e5f565b6200024e600480360360a08110156200078c57600080fd5b8135916001600160a01b03602082013581169260408301358216926060810135909216919081019060a081016080820135600160201b811115620007cf57600080fd5b820183602082011115620007e257600080fd5b803590602001918460018302840111600160201b831117156200080457600080fd5b91908080601f01602080910402602001604051908101604052809392919081815260200183838082843760009201919091525092955062001e71945050505050565b62000279600480360360208110156200085e57600080fd5b5035620020f8565b620002be600480360360208110156200087e57600080fd5b503562002106565b6200027962002130565b620002796200213f565b6200024e60048036036020811015620008b257600080fd5b50356001600160a01b03166200214e565b620002be60048036036040811015620008db57600080fd5b506001600160a01b03813581169160200135166200223b565b6000620009013362001644565b905060006200091033620010a0565b9050600062000926828463ffffffff620022d716565b9050838110156200097c576040805162461bcd60e51b815260206004820152601b60248201527a109bdc9c9bddda5b99c81b5bdc99481d1a185b88185b1b1bddd959602a1b604482015290519081900360640190fd5b336000908152600b60205260409020546200099e908563ffffffff6200231b16565b336000818152600b60209081526040808320949094556001600160a01b038981168352600a909152838220548451631196a36960e11b8152600481018a905260248101949094529351931692839263232d46d292604480830193919282900301818387803b15801562000a1057600080fd5b505af115801562000a25573d6000803e3d6000fd5b5050604080513381526001600160a01b038a16602082015280820189905290517f39afaad37daff6f7a5998bf9de35bb3f46d51f73227bb182d92c016c981a82909350908190036060019150a1505050505050565b600a602052600090815260409020546001600160a01b031681565b60008062000aa38362001871565b905062000ab08162002106565b9392505050565b60065490565b60065460006060826001600160401b038111801562000adb57600080fd5b5060405190808252806020026020018201604052801562000b06578160200160208202803683370190505b50905060005b8381101562000c005760006006828154811062000b2557fe5b6000918252602080832090910154604080516305eff7ef60e21b81526001600160a01b038b81166004830152915191909216945084936317bfdfbc93602480850194919392918390030190829087803b15801562000b8257600080fd5b505af115801562000b97573d6000803e3d6000fd5b505050506040513d602081101562000bae57600080fd5b5051835184908490811062000bbf57fe5b60200260200101818152505062000bf483838151811062000bdc57fe5b6020026020010151856200231b90919063ffffffff16565b93505060010162000b0c565b50600062000c0e85620010a0565b905082811162000c93576001600160a01b0385166000908152600c60205260409020541562000c3c57600080fd5b6001600160a01b0385166000818152600c6020908152604091829020429081905582519384529083015280517f8c8c19ede31d34679a9546f29f1c360e588c89ffb0792c110c317a3463f7288c9281900390910190a15b5050505050565b6001600160a01b0381166000908152600e602090815260409182902080548351818402810184019094528084526060939283018282801562000d0657602002820191906000526020600020905b81546001600160a01b0316815260019091019060200180831162000ce7575b50505050509050919050565b6001546040805163b04c6d3f60e01b81526001600160a01b0384811660048301529151600093929092169163b04c6d3f91602480820192602092909190829003018186803b15801562000d6457600080fd5b505afa15801562000d79573d6000803e3d6000fd5b505050506040513d602081101562000d9057600080fd5b505192915050565b600f6020526000908152604090205460ff1681565b6004546001600160a01b031681565b6005818154811062000dca57fe5b6000918252602090912001546001600160a01b0316905081565b600d6020526000908152604090205460ff1681565b6002546001600160a01b031681565b62000e1262002374565b6000546001600160a01b0390811691161462000e64576040805162461bcd60e51b8152602060048201819052602482015260008051602062002f93833981519152604482015290519081900360640190fd5b600080546040516001600160a01b039091169060008051602062002fb3833981519152908390a3600080546001600160a01b0319169055565b6001600160a01b031660009081526010602052604090205460ff1690565b60055460009081805b82811015620010985760006005828154811062000edd57fe5b6000918252602080832090910154604080516313082b1d60e21b815290516001600160a01b0390921694508492634c20ac7492600480840193829003018186803b15801562000f2b57600080fd5b505afa15801562000f40573d6000803e3d6000fd5b505050506040513d602081101562000f5757600080fd5b50516001546040805163fc57d4df60e01b81526001600160a01b0380851660048301529151939450600093919092169163fc57d4df91602480830192602092919082900301818787803b15801562000fae57600080fd5b505af115801562000fc3573d6000803e3d6000fd5b505050506040513d602081101562000fda57600080fd5b50516040805163f919b4bf60e01b81526001600160a01b038b8116600483015291519293506000929186169163f919b4bf91602480820192602092909190829003018186803b1580156200102d57600080fd5b505afa15801562001042573d6000803e3d6000fd5b505050506040513d60208110156200105957600080fd5b50519050600062001071828463ffffffff6200237816565b905062001085878263ffffffff6200231b16565b9650505050505080600101905062000ec4565b509392505050565b60008062000aa38362000ebb565b336000908152600d602052604090205460ff161515600114620010d057600080fd5b6001600160a01b03811660009081526010602052604090205460ff1615620010f757600080fd5b6001600160a01b038083166000818152600e6020908152604082208054600181810183559184528284200180549587166001600160a01b0319968716811790915560109092526007805491820181559092527fa66cc928b5edb82af9bd49922954155ab7b0942694bea4ce44661d9a8736c688909101805490931681179092551415620011e4576001600160a01b0382166000818152600f60205260408120805460ff191660019081179091556008805491820181559091527ff3f7a9fe364faab93b216da50a3214154f22a0a2b415b23a84c8169e8b636ee30180546001600160a01b03191690911790555b5050565b336001600160a01b0382161415620011ff57600080fd5b6001600160a01b0381166000908152600c60205260409020546200122c9061070863ffffffff6200231b16565b4210156200123957600080fd5b60065460055460006060836001600160401b03811180156200125a57600080fd5b5060405190808252806020026020018201604052801562001285578160200160208202803683370190505b50905060005b848110156200136757600060068281548110620012a457fe5b6000918252602080832090910154604080516305eff7ef60e21b81526001600160a01b038c81166004830152915191909216945084936317bfdfbc93602480850194919392918390030190829087803b1580156200130157600080fd5b505af115801562001316573d6000803e3d6000fd5b505050506040513d60208110156200132d57600080fd5b505183518490849081106200133e57fe5b6020026020010181815250506200135b83838151811062000bdc57fe5b9350506001016200128b565b5060006200137586620010a0565b9050828111620015515760005b8581101562001470576000600682815481106200139b57fe5b9060005260206000200160009054906101000a90046001600160a01b03169050806001600160a01b031663ab292f9b8933878681518110620013d957fe5b60200260200101516040518463ffffffff1660e01b815260040180846001600160a01b03166001600160a01b03168152602001836001600160a01b03166001600160a01b031681526020018281526020019350505050600060405180830381600087803b1580156200144a57600080fd5b505af11580156200145f573d6000803e3d6000fd5b505050505080600101905062001382565b5060005b848110156200154f576000600582815481106200148d57fe5b600091825260208220015460408051633d2d78f960e21b81526001600160a01b038c811660048301523360248301529151919092169350839263f4b5e3e4926044808201939182900301818387803b158015620014e957600080fd5b505af1158015620014fe573d6000803e3d6000fd5b5050604080516001600160a01b038c16815233602082015281517fce054da468b0607d4d65949d7572acd17087e593b3e5be27ba665ba1a60ad75b9450908190039091019150a15060010162001474565b505b6001600160a01b0386166000818152600c60209081526040808320929092558151928352429083015280517f693c96c553edae7cfbc0a30a15d746ffd508e26a931f968b41b03057a68793b89281900390910190a1505050505050565b6000546001600160a01b031690565b60106020526000908152604090205460ff1681565b6008818154811062000dca57fe5b606060088054806020026020016040519081016040528092919081815260200182805480156200163a57602002820191906000526020600020905b81546001600160a01b031681526001909101906020018083116200161b575b5050505050905090565b60065460009081805b8281101562001098576000600682815481106200166657fe5b6000918252602080832090910154604080516305eff7ef60e21b81526001600160a01b038b811660048301529151919092169450620017039385936317bfdfbc936024808201949293918390030190829087803b158015620016c757600080fd5b505af1158015620016dc573d6000803e3d6000fd5b505050506040513d6020811015620016f357600080fd5b5051849063ffffffff6200231b16565b9250506001016200164d565b606060078054806020026020016040519081016040528092919081815260200182805480156200163a576020028201919060005260206000209081546001600160a01b031681526001909101906020018083116200161b575050505050905090565b6000806200177f8462001644565b905060006200178e8562000ebb565b90506000620017a4828463ffffffff620022d716565b6001546040805163fc57d4df60e01b81526001600160a01b0389811660048301529151939450600093919092169163fc57d4df91602480830192602092919082900301818787803b158015620017f957600080fd5b505af11580156200180e573d6000803e3d6000fd5b505050506040513d60208110156200182557600080fd5b505190506200183b828263ffffffff6200237816565b9450505050505b92915050565b6009602052600090815260409020546001600160a01b031681565b6006818154811062000dca57fe5b60055460009081805b8281101562001098576000600582815481106200189357fe5b6000918252602080832090910154604080516313082b1d60e21b815290516001600160a01b0390921694508492634c20ac7492600480840193829003018186803b158015620018e157600080fd5b505afa158015620018f6573d6000803e3d6000fd5b505050506040513d60208110156200190d57600080fd5b50516001546040805163b04c6d3f60e01b81526001600160a01b0380851660048301529151939450600093919092169163b04c6d3f916024808301926020929190829003018186803b1580156200196357600080fd5b505afa15801562001978573d6000803e3d6000fd5b505050506040513d60208110156200198f57600080fd5b50516040805163f919b4bf60e01b81526001600160a01b038b8116600483015291519293506000929186169163f919b4bf91602480820192602092909190829003018186803b158015620019e257600080fd5b505afa158015620019f7573d6000803e3d6000fd5b505050506040513d602081101562001a0e57600080fd5b50519050600062001a26828463ffffffff6200237816565b905062001a3a878263ffffffff6200231b16565b965050505050508060010190506200187a565b60065460009081805b82811015620010985760006006828154811062001a6f57fe5b6000918252602091829020015460408051637746efab60e01b81526001600160a01b038a81166004830152915191909216935062001ae0928492637746efab9260248083019392829003018186803b15801562001acb57600080fd5b505afa158015620016dc573d6000803e3d6000fd5b92505060010162001a56565b6001546040805163d38ca6d960e01b81526001600160a01b0384811660048301529151600093929092169163d38ca6d991602480820192602092909190829003018186803b15801562000d6457600080fd5b600e602052816000526040600020818154811062001b5857fe5b6000918252602090912001546001600160a01b03169150829050565b600080600160009054906101000a90046001600160a01b03166001600160a01b031663fa7827d26040518163ffffffff1660e01b815260040160206040518083038186803b15801562001bc657600080fd5b505afa15801562001bdb573d6000803e3d6000fd5b505050506040513d602081101562001bf257600080fd5b50519050600062001c1562001c078362002106565b839063ffffffff620023d616565b905062001c29848263ffffffff6200237816565b949350505050565b62001c3b62002374565b6000546001600160a01b0390811691161462001c8d576040805162461bcd60e51b8152602060048201819052602482015260008051602062002f93833981519152604482015290519081900360640190fd5b6000868686863060405162001ca2906200251b565b948552602085019390935260408085019290925260608401526001600160a01b039091166080830152519081900360a001906000f08015801562001cea573d6000803e3d6000fd5b506003546004805460408051636770252b60e11b81526001600160a01b03808716948201949094528784166024820152918316604483015260648201889052608482018d905251939450600093919092169163cee04a569160a480830192602092919082900301818787803b15801562001d6357600080fd5b505af115801562001d78573d6000803e3d6000fd5b505050506040513d602081101562001d8f57600080fd5b50516001600160a01b038085166000908152600a6020908152604080832080548587166001600160a01b031991821681179092556006805460018181019092557ff652222313e28459528d920b65115c16c04f3efc82aaedc97be59f3f377c0d3f0180549092168317909155818552600d845293829020805460ff191690941790935580519283529286169082015281519293507f2c3b5544df8032e6313fd1e59faede21004ab06bb69c1f6640a41566225cb00a929081900390910190a1505050505050505050565b60055490565b600b6020526000908152604090205481565b62001e7b62002374565b6000546001600160a01b0390811691161462001ecd576040805162461bcd60e51b8152602060048201819052602482015260008051602062002f93833981519152604482015290519081900360640190fd5b60015460408051634a42dd6d60e11b81526001600160a01b0386811660048301528581166024830152878116604483015291519190921691639485bada91606480830192600092919082900301818387803b15801562001f2c57600080fd5b505af115801562001f41573d6000803e3d6000fd5b505060025460405163a8edf11560e01b8152600481018981526001600160a01b0389811660248401526060604484019081528751606485015287516000975091909416945063a8edf115938b938b9389939092916084019060208501908083838d5b8381101562001fbd57818101518382015260200162001fa3565b50505050905090810190601f16801562001feb5780820380516001836020036101000a031916815260200191505b50945050505050602060405180830381600087803b1580156200200d57600080fd5b505af115801562002022573d6000803e3d6000fd5b505050506040513d60208110156200203957600080fd5b50516001600160a01b03868116600090815260096020908152604080832080546001600160a01b03199081169587169586179091556005805460018181019092557f036b6384b5eca791c62761152d0c79bb0604c104a5fb6f4eb0703f3154bb3db00180549092168617909155848452600d835292819020805460ff1916909317909255815192835290519293507fe4136410250c225cb6546e2f16dccea79b35b32f295f337362d04375101342ff92918290030190a1505050505050565b6007818154811062000dca57fe5b6000806200211c83600363ffffffff620023d616565b905062000ab0818063ffffffff6200231b16565b6003546001600160a01b031681565b6001546001600160a01b031681565b6200215862002374565b6000546001600160a01b03908116911614620021aa576040805162461bcd60e51b8152602060048201819052602482015260008051602062002f93833981519152604482015290519081900360640190fd5b6001600160a01b038116620021f15760405162461bcd60e51b815260040180806020018281038252602681526020018062002f4c6026913960400191505060405180910390fd5b600080546040516001600160a01b038085169392169160008051602062002fb383398151915291a3600080546001600160a01b0319166001600160a01b0392909216919091179055565b600080620022498462001a4d565b90506000620022588562001871565b905060006200226e828463ffffffff620022d716565b6001546040805163b04c6d3f60e01b81526001600160a01b0389811660048301529151939450600093919092169163b04c6d3f916024808301926020929190829003018186803b158015620022c257600080fd5b505afa1580156200180e573d6000803e3d6000fd5b600062000ab083836040518060400160405280601e81526020017f536166654d6174683a207375627472616374696f6e206f766572666c6f77000081525062002417565b60008282018381101562000ab0576040805162461bcd60e51b815260206004820152601b60248201527a536166654d6174683a206164646974696f6e206f766572666c6f7760281b604482015290519081900360640190fd5b3390565b600082620023895750600062001842565b828202828482816200239757fe5b041462000ab05760405162461bcd60e51b815260040180806020018281038252602181526020018062002f726021913960400191505060405180910390fd5b600062000ab083836040518060400160405280601a815260200179536166654d6174683a206469766973696f6e206279207a65726f60301b815250620024b2565b60008184841115620024aa5760405162461bcd60e51b81526004018080602001828103825283818151815260200191508051906020019080838360005b838110156200246e57818101518382015260200162002454565b50505050905090810190601f1680156200249c5780820380516001836020036101000a031916815260200191505b509250505060405180910390fd5b505050900390565b60008183620025045760405162461bcd60e51b81526020600482018181528351602484015283519092839260449091019190850190808383600083156200246e57818101518382015260200162002454565b5060008385816200251157fe5b0495945050505050565b610a22806200252a8339019056fe608060405234801561001057600080fd5b50604051610a22380380610a22833981810160405260a081101561003357600080fd5b508051602082015160408301516060840151608090940151600080546001600160a01b0319166001600160a01b03831617905592939192909190848484848461007e8585858561008d565b505050505050505050506102bc565b6100a7622014808561017060201b61057e1790919060201c565b6002556100f66100c562201480836101c1602090811b61052517901c565b6100e4670de0b6b3a7640000866101c160201b6105251790919060201c565b61017060201b61057e1790919060201c565b6001556101118262201480610170602090811b61057e17901c565b60038190556004829055600254600154604080519283526020830191909152818101929092526060810183905290517f6960ab234c7ef4b0c9197100f5393cfcde7c453ac910a27bd2000aa1dd4c068d9181900360800190a150505050565b60006101b883836040518060400160405280601a81526020017f536166654d6174683a206469766973696f6e206279207a65726f00000000000081525061021a60201b60201c565b90505b92915050565b6000826101d0575060006101bb565b828202828482816101dd57fe5b04146101b85760405162461bcd60e51b8152600401808060200182810382526021815260200180610a016021913960400191505060405180910390fd5b600081836102a65760405162461bcd60e51b81526004018080602001828103825283818151815260200191508051906020019080838360005b8381101561026b578181015183820152602001610253565b50505050905090810190601f1680156102985780820380516001836020036101000a031916815260200191505b509250505060405180910390fd5b5060008385816102b257fe5b0495945050505050565b610736806102cb6000396000f3fe608060405234801561001057600080fd5b506004361061008e5760003560e01c806315f24053146100935780632037f3e7146100ce5780636e71e2d8146100ff5780638726bb89146101285780638da5cb5b14610130578063a385fb9614610154578063b81688161461015c578063b9f9850a1461018b578063f14039de14610193578063fd2da3391461019b575b600080fd5b6100bc600480360360608110156100a957600080fd5b50803590602081013590604001356101a3565b60408051918252519081900360200190f35b6100fd600480360360808110156100e457600080fd5b50803590602081013590604081013590606001356101ba565b005b6100bc6004803603606081101561011557600080fd5b5080359060208101359060400135610215565b6100bc61026b565b610138610271565b604080516001600160a01b039092168252519081900360200190f35b6100bc610280565b6100bc6004803603608081101561017257600080fd5b5080359060208101359060408101359060600135610287565b6100bc610306565b6100bc61030c565b6100bc610312565b60006101b0848484610318565b90505b9392505050565b6000546001600160a01b031633146102035760405162461bcd60e51b81526004018080602001828103825260268152602001806106db6026913960400191505060405180910390fd5b61020f848484846103e1565b50505050565b600082610224575060006101b3565b6101b06102478361023b878763ffffffff61048216565b9063ffffffff6104e316565b61025f85670de0b6b3a764000063ffffffff61052516565b9063ffffffff61057e16565b60015481565b6000546001600160a01b031681565b6220148081565b6000806102a2670de0b6b3a76400008463ffffffff6104e316565b905060006102b1878787610318565b905060006102d1670de0b6b3a764000061025f848663ffffffff61052516565b90506102fa670de0b6b3a764000061025f836102ee8c8c8c610215565b9063ffffffff61052516565b98975050505050505050565b60035481565b60025481565b60045481565b600080610326858585610215565b9050600454811161036c57610364600254610358670de0b6b3a764000061025f6001548661052590919063ffffffff16565b9063ffffffff61048216565b9150506101b3565b6000610397600254610358670de0b6b3a764000061025f60015460045461052590919063ffffffff16565b905060006103b0600454846104e390919063ffffffff16565b90506103d782610358670de0b6b3a764000061025f6003548661052590919063ffffffff16565b93505050506101b3565b6103f4846220148063ffffffff61057e16565b60025561040d610247622014808363ffffffff61052516565b600155610423826220148063ffffffff61057e16565b60038190556004829055600254600154604080519283526020830191909152818101929092526060810183905290517f6960ab234c7ef4b0c9197100f5393cfcde7c453ac910a27bd2000aa1dd4c068d9181900360800190a150505050565b6000828201838110156104da576040805162461bcd60e51b815260206004820152601b60248201527a536166654d6174683a206164646974696f6e206f766572666c6f7760281b604482015290519081900360640190fd5b90505b92915050565b60006104da83836040518060400160405280601e81526020017f536166654d6174683a207375627472616374696f6e206f766572666c6f7700008152506105bd565b600082610534575060006104dd565b8282028284828161054157fe5b04146104da5760405162461bcd60e51b81526004018080602001828103825260218152602001806106ba6021913960400191505060405180910390fd5b60006104da83836040518060400160405280601a815260200179536166654d6174683a206469766973696f6e206279207a65726f60301b815250610654565b6000818484111561064c5760405162461bcd60e51b81526004018080602001828103825283818151815260200191508051906020019080838360005b838110156106115781810151838201526020016105f9565b50505050905090810190601f16801561063e5780820380516001836020036101000a031916815260200191505b509250505060405180910390fd5b505050900390565b600081836106a35760405162461bcd60e51b81526020600482018181528351602484015283519092839260449091019190850190808383600083156106115781810151838201526020016105f9565b5060008385816106af57fe5b049594505050505056fe536166654d6174683a206d756c7469706c69636174696f6e206f766572666c6f776f6e6c7920746865206f776e6572206d61792063616c6c20746869732066756e6374696f6e2ea264697066735822122035d6d0aa1f8af11c35463166a687a3478a7b8a918059f546ac03fced611ef87a64736f6c63430006060033536166654d6174683a206d756c7469706c69636174696f6e206f766572666c6f774f776e61626c653a206e6577206f776e657220697320746865207a65726f2061646472657373536166654d6174683a206d756c7469706c69636174696f6e206f766572666c6f774f776e61626c653a2063616c6c6572206973206e6f7420746865206f776e65728be0079c531659141344cd1fd0a4f28419497f9722a3daafe3b4186f6b6457e0a26469706673582212206f3356034fbec30c709fdd9f5d7aa0a821b06eddcbf4526d063f58207274065e64736f6c63430006060033",
  "immutableReferences": {},
  "source": "pragma solidity ^0.6.0;\r\n\r\nimport \"@openzeppelin/contracts/access/Ownable.sol\";\r\nimport \"@openzeppelin/contracts/math/SafeMath.sol\";\r\nimport \"@openzeppelin/contracts/token/ERC20/IERC20.sol\";\r\nimport \"./interfaces/WarpVaultSCI.sol\";\r\nimport \"./interfaces/WarpVaultLPI.sol\";\r\nimport \"./interfaces/WarpVaultLPFactoryI.sol\";\r\nimport \"./interfaces/WarpVaultSCFactoryI.sol\";\r\nimport \"./interfaces/UniswapLPOracleFactoryI.sol\";\r\nimport \"./compound/JumpRateModelV2.sol\";\r\nimport \"./compound/Exponential.sol\";\r\n\r\n////////////////////////////////////////////////////////////////////////////////////////////\r\n/// @title WarpControl\r\n/// @author Christopher Dixon\r\n////////////////////////////////////////////////////////////////////////////////////////////\r\n/**\r\nWarpControl is designed to coordinate Warp Vaults\r\nThis contract uses the OpenZeppelin contract Library to inherit functions from\r\n  Ownable.sol\r\n**/\r\n\r\ncontract WarpControl is Ownable, Exponential {\r\n    using SafeMath for uint256;\r\n\r\n    UniswapLPOracleFactoryI public Oracle; //oracle factory contract interface\r\n    WarpVaultLPFactoryI public WVLPF;\r\n    WarpVaultSCFactoryI public WVSCF;\r\n    address public warpTeam;\r\n\r\n    address[] public lpVaults;\r\n    address[] public scVaults;\r\n    address[] public launchParticipants;\r\n    address[] public groups;\r\n\r\n    mapping(address => address) public instanceLPTracker; //maps LP token address to the assets WarpVault\r\n    mapping(address => address) public instanceSCTracker;\r\n    mapping(address => uint256) public lockedLPValue;\r\n    mapping(address => uint256) nonCompliant;\r\n    mapping(address => bool) public isVault;\r\n    mapping(address => address[]) public refferalCodeTracker;\r\n    mapping(address => bool) public existingRefferalCode;\r\n    mapping(address => bool) public isGroupMember;\r\n\r\n    event NewLPVault(address _newVault);\r\n    event NewSCVault(address _newVault, address _interestRateModel);\r\n    event NewBorrow(address _borrower, address _StableCoin, uint _amountBorrowed);\r\n    event NotCompliant(address _account, uint _time);\r\n    event Liquidation(address _account, address liquidator);\r\n    event complianceReset(address _account, uint _time);\r\n    /**\r\n      @dev Throws if called by any account other than a warp vault\r\n     */\r\n    modifier onlyVault() {\r\n        require(isVault[msg.sender] == true);\r\n        _;\r\n    }\r\n\r\n    /**\r\n    @notice the constructor function is fired during the contract deployment process. The constructor can only be fired once and\r\n            is used to set up Oracle variables for the MoneyMarketFactory contract.\r\n    @param _oracle is the address for the UniswapOracleFactorycontract\r\n    @param _WVLPF is the address for the WarpVaultLPFactory used to produce LP Warp Vaults\r\n    @param _WVSCF is the address for the WarpVaultSCFactory used to produce Stable Coin Warp Vaults\r\n    @dev These factories are split into seperate contracts to avoid hitting the block gas limit\r\n    **/\r\n    constructor(\r\n        address _oracle,\r\n        address _WVLPF,\r\n        address _WVSCF,\r\n        address _warpTeam\r\n    ) public {\r\n        //instantiate the contracts\r\n        Oracle = UniswapLPOracleFactoryI(_oracle);\r\n        WVLPF = WarpVaultLPFactoryI(_WVLPF);\r\n        WVSCF = WarpVaultSCFactoryI(_WVSCF);\r\n        warpTeam = _warpTeam;\r\n    }\r\n///view functions for front end /////\r\n    function viewNumLPVaults() external view returns(uint256) {\r\n        return lpVaults.length;\r\n    }\r\n\r\n    function viewNumSCVaults() external view returns(uint256) {\r\n        return scVaults.length;\r\n    }\r\n\r\n    function viewLaunchParticipants() public view returns(address[] memory) {\r\n      return launchParticipants;\r\n    }\r\n\r\n    function viewAllGroups() public view returns(address[] memory) {\r\n      return groups;\r\n    }\r\n\r\n    function viewAllMembersOfAGroup(address _refferalCode) public view returns(address[] memory) {\r\n      return refferalCodeTracker[_refferalCode];\r\n    }\r\n\r\n    function checkIfGroupMember(address _account) public view returns(bool)  {\r\n      return isGroupMember[_account];\r\n    }\r\n    /**\r\n    @notice createNewLPVault allows the contract owner to create a new WarpVaultLP contract for a specific LP token\r\n    @param _timelock is a variable representing the number of seconds the timeWizard will prevent withdraws and borrows from a contracts(one week is 605800 seconds)\r\n    @param _lp is the address for the LP token this Warp Vault will manage\r\n    @param _lpAsset1 is the address for the first asset in a pair that the LP token represents(ex: wETH in a wETH-wBTC uniswap pair)\r\n    @param _lpAsset2 is the address for the second asset in a pair that the LP token represents(ex: wBTC in a wETH-wBTC uniswap pair)\r\n    @param _lpName is the name of the LP token (ex:wETH-wBTC)\r\n    **/\r\n    function createNewLPVault(\r\n        uint256 _timelock,\r\n        address _lp,\r\n        address _lpAsset1,\r\n        address _lpAsset2,\r\n        string memory _lpName\r\n    ) public onlyOwner {\r\n        //create new oracles for this LP\r\n        Oracle.createNewOracles(_lpAsset1, _lpAsset2, _lp);\r\n        //create new Warp LP Vault\r\n        address _WarpVault = WVLPF.createWarpVaultLP(_timelock, _lp, _lpName);\r\n        //track the warp vault lp instance by the address of the LP it represents\r\n        instanceLPTracker[_lp] = _WarpVault;\r\n        //add new LP Vault to the array of all LP vaults\r\n        lpVaults.push(_WarpVault);\r\n        //set Warp vault address as an approved vault\r\n        isVault[_WarpVault] = true;\r\n        emit NewLPVault(_WarpVault);\r\n    }\r\n\r\n    /**\r\n    @notice createNewSCVault allows the contract owner to create a new WarpVaultLP contract for a specific LP token\r\n    @param _timelock is a variable representing the number of seconds the timeWizard will prevent withdraws and borrows from a contracts(one week is 605800 seconds)\r\n    @param _baseRatePerYear is the base rate per year(approx target base APR)\r\n    @param _multiplierPerYear is the multiplier per year(rate of increase in interest w/ utilizastion)\r\n    @param _jumpMultiplierPerYear is the Jump Multiplier Per Year(the multiplier per block after hitting a specific utilizastion point)\r\n    @param _optimal is the this is the utilizastion point or \"kink\" at which the jump multiplier is applied\r\n    @param _initialExchangeRate is the intitial exchange rate(the rate at which the initial exchange of asset/ART is set)\r\n    @param _StableCoin is the address of the StableCoin this Warp Vault will manage\r\n    **/\r\n    function createNewSCVault(\r\n        uint256 _timelock,\r\n        uint256 _baseRatePerYear,\r\n        uint256 _multiplierPerYear,\r\n        uint256 _jumpMultiplierPerYear,\r\n        uint256 _optimal,\r\n        uint256 _initialExchangeRate,\r\n        address _StableCoin\r\n    ) public onlyOwner {\r\n        //create the interest rate model for this stablecoin\r\n        address IR = address(\r\n            new JumpRateModelV2(\r\n                _baseRatePerYear,\r\n                _multiplierPerYear,\r\n                _jumpMultiplierPerYear,\r\n                _optimal,\r\n                address(this)\r\n            )\r\n        );\r\n        //create the SC Warp vault\r\n        address _WarpVault = WVSCF.createNewWarpVaultSC(\r\n            IR,\r\n            _StableCoin,\r\n            warpTeam,\r\n            _initialExchangeRate,\r\n            _timelock\r\n        );\r\n        //track the warp vault sc instance by the address of the stablecoin it represents\r\n        instanceSCTracker[_StableCoin] = _WarpVault;\r\n        //add new SC Vault to the array of all SC vaults\r\n        scVaults.push(_WarpVault);\r\n        //set Warp vault address as an approved vault\r\n        isVault[_WarpVault] = true;\r\n        emit NewSCVault(_WarpVault, IR);\r\n    }\r\n\r\n    function addMemberToGroup(address _refferalCode, address _member) public onlyVault {\r\n      //require the member is not in a group\r\n      require(isGroupMember[_member] == false);\r\n      //add member to the member array for the input referal code\r\n      refferalCodeTracker[_refferalCode].push(_member);\r\n      //mark the member as part of a group so they cant be added to a new group\r\n      isGroupMember[_member] == true;\r\n      //add the mebers address to the total participants member array\r\n      launchParticipants.push(_member);\r\n      //if the member is using thier own address as a refferal code create a new group with their address as a refferal code\r\n      if(_refferalCode == _member) {\r\n        existingRefferalCode[_refferalCode] = true;\r\n        groups.push(_refferalCode);\r\n      }\r\n    }\r\n\r\n\r\n\r\n\r\n    /**\r\n    @notice Figures out how much of a given LP token an account is allowed to withdraw\r\n     */\r\n    function getMaxWithdrawAllowed(address account, address lpToken) public returns (uint256) {\r\n      //gets how much a user has borrowed against in USDC\r\n        uint256 borrowedTotal = getTotalBorrowedValue(account);\r\n      //gets the total USDC value of a users availible collateral\r\n        uint256 collateralValue = getTotalAvailableCollateralValue(account);\r\n      //determines usable collateral value\r\n        uint256 usableCollateral = collateralValue.sub(borrowedTotal);\r\n      //get current price of one LP token\r\n        uint256 lpValue = Oracle.getUnderlyingPrice(lpToken);\r\n      //return one lp value multiplied by their usable collateral for total LPs that are usable(or can be withdrawn)\r\n        return usableCollateral.mul(lpValue);\r\n    }\r\n\r\n    function viewMaxWithdrawAllowed(address account, address lpToken) public view returns (uint256) {\r\n        uint256 borrowedTotal = viewTotalBorrowedValue(account);\r\n        uint256 collateralValue = viewTotalAvailableCollateralValue(account);\r\n        uint256 usableCollateral = collateralValue.sub(borrowedTotal);\r\n        uint256 lpValue = Oracle.viewUnderlyingPrice(lpToken);\r\n        return usableCollateral.mul(lpValue);\r\n    }\r\n\r\n    function getTotalAvailableCollateralValue(address _account)\r\n        public\r\n        returns (uint256)\r\n    {\r\n        //get the number of LP vaults the platform has\r\n        uint256 numVaults = lpVaults.length;\r\n        //initialize the totalCollateral variable to zero\r\n        uint256 totalCollateral = 0;\r\n        //loop through each lp wapr vault\r\n        for (uint256 i = 0; i < numVaults; ++i) {\r\n            //instantiate warp vault at that position\r\n            WarpVaultLPI vault = WarpVaultLPI(lpVaults[i]);\r\n            //retreive the address of its asset\r\n            address asset = vault.getAssetAdd();\r\n            //retrieve USD price of this asset\r\n            uint256 assetPrice = Oracle.getUnderlyingPrice(asset);\r\n\r\n            uint256 accountCollateral = vault.collateralOfAccount(_account);\r\n            //emit DebugValues(accountCollateral, assetPrice);\r\n\r\n            //multiply the amount of collateral by the asset price and return it\r\n            uint256 accountAssetsValue = accountCollateral.mul(assetPrice);\r\n            //add value to total collateral\r\n            totalCollateral = totalCollateral.add(accountAssetsValue);\r\n        }\r\n        //return total USDC value of all collateral\r\n        return totalCollateral;\r\n    }\r\n\r\n    function viewTotalAvailableCollateralValue(address _account)\r\n        public\r\n        view\r\n        returns (uint256)\r\n    {\r\n        uint256 numVaults = lpVaults.length;\r\n        uint256 totalCollateral = 0;\r\n        //loop through each lp wapr vault\r\n        for (uint256 i = 0; i < numVaults; ++i) {\r\n            //instantiate warp vault at that position\r\n            WarpVaultLPI vault = WarpVaultLPI(lpVaults[i]);\r\n            //retreive the address of its asset\r\n            address asset = vault.getAssetAdd();\r\n            //retrieve USD price of this asset\r\n            uint256 assetPrice = Oracle.viewUnderlyingPrice(asset);\r\n\r\n            uint256 accountCollateral = vault.collateralOfAccount(_account);\r\n\r\n            //multiply the amount of collateral by the asset price and return it\r\n            uint256 accountAssetsValue = accountCollateral.mul(assetPrice);\r\n            //add value to total collateral\r\n            totalCollateral = totalCollateral.add(accountAssetsValue);\r\n        }\r\n        //return total USDC value of all collateral\r\n        return totalCollateral;\r\n    }\r\n\r\n    function viewPriceOfCollateral(address lpToken) public view returns(uint256)\r\n    {\r\n        return Oracle.viewUnderlyingPrice(lpToken);\r\n    }\r\n\r\n    function viewPriceOfToken(address token) public view returns(uint256)\r\n    {\r\n        return Oracle.viewPriceOfToken(token);\r\n    }\r\n\r\n    function viewTotalBorrowedValue(address _account) public view returns (uint256) {\r\n        uint256 numSCVaults = scVaults.length;\r\n        //initialize the totalBorrowedValue variable to zero\r\n        uint256 totalBorrowedValue = 0;\r\n        //loop through all stable coin vaults\r\n        for (uint256 i = 0; i < numSCVaults; ++i) {\r\n            //instantiate each LP warp vault\r\n            WarpVaultSCI WVSC = WarpVaultSCI(scVaults[i]);\r\n            //retreive the amount user has borrowed from each stablecoin vault\r\n            totalBorrowedValue = totalBorrowedValue.add(\r\n                WVSC.borrowBalancePrior(_account)\r\n            );\r\n        }\r\n        //return total Borrowed Value\r\n        return totalBorrowedValue;\r\n    }\r\n\r\n    function getTotalBorrowedValue(address _account) public returns (uint256) {\r\n        uint256 numSCVaults = scVaults.length;\r\n        //initialize the totalBorrowedValue variable to zero\r\n        uint256 totalBorrowedValue = 0;\r\n        //loop through all stable coin vaults\r\n        for (uint256 i = 0; i < numSCVaults; ++i) {\r\n            //instantiate each LP warp vault\r\n            WarpVaultSCI WVSC = WarpVaultSCI(scVaults[i]);\r\n            //retreive the amount user has borrowed from each stablecoin vault\r\n            totalBorrowedValue = totalBorrowedValue.add(\r\n                WVSC.borrowBalanceCurrent(_account)\r\n            );\r\n        }\r\n        //return total Borrowed Value\r\n        return totalBorrowedValue;\r\n    }\r\n\r\n    /**\r\n    @notice calcBorrowLimit is used to calculate the borrow limit for an account based on the input value of their collateral\r\n    @param _collateralValue is the USDC value of the users collateral\r\n    @dev this function divides the input value by 3 and then adds that value to itself so it can return 2/3rds of the availible collateral\r\n        as the borrow limit. If a usser has $150 USDC value in collateral this function will return $100 USDC as their borrow limit.\r\n    **/\r\n    function calcBorrowLimit(uint256 _collateralValue)\r\n        public\r\n        pure\r\n        returns (uint256)\r\n    {\r\n        //divide the collaterals value by 3 to get 1/3rd of its value\r\n        uint256 thirdCollatVal = _collateralValue.div(3);\r\n        //add this 1/3rd value to itself to get 2/3rds of the original value\r\n        return thirdCollatVal.add(thirdCollatVal);\r\n    }\r\n\r\n    function calcCollateralRequired(uint256 _borrowAmount) public view returns (uint256) {\r\n        uint256 oneUSDC = Oracle.OneUSDC();\r\n        uint256 factor = oneUSDC.div(calcBorrowLimit(oneUSDC));\r\n        return _borrowAmount.mul(factor);\r\n    }\r\n\r\n    function getBorrowLimit(address _account) public returns (uint256) {\r\n        uint256 availibleCollateralValue = getTotalAvailableCollateralValue(\r\n            _account\r\n        );\r\n\r\n        return calcBorrowLimit(availibleCollateralValue);\r\n    }\r\n\r\n    function viewBorrowLimit(address _account) public view returns (uint256) {\r\n        uint256 availibleCollateralValue = viewTotalAvailableCollateralValue(\r\n            _account\r\n        );\r\n        //return the users borrow limit\r\n        return calcBorrowLimit(availibleCollateralValue);\r\n    }\r\n\r\n    /**\r\n@notice borrowSC is the function an end user will call when they wish to borrow a stablecoin from the warp platform\r\n@param _StableCoin is the address of the stablecoin the user wishes to borrow\r\n@param _amount is the amount of that stablecoin the user wants to borrow\r\n**/\r\n    function borrowSC(address _StableCoin, uint256 _amount) public {\r\n        uint256 borrowedTotal = getTotalBorrowedValue(msg.sender);\r\n        uint256 availibleCollateralValue = getBorrowLimit(msg.sender);\r\n        //calculate USDC amount of what the user is allowed to borrow\r\n        uint256 borrowAmountAllowed = availibleCollateralValue.sub(\r\n            borrowedTotal\r\n        );\r\n        //require the amount being borrowed is less than or equal to the amount they are aloud to borrow\r\n        require(borrowAmountAllowed >= _amount, \"Borrowing more than allowed\");\r\n        //track USDC value of locked LP\r\n        lockedLPValue[msg.sender] = lockedLPValue[msg.sender].add(_amount);\r\n        //retreive stablecoin vault address being borrowed from and instantiate it\r\n        WarpVaultSCI WV = WarpVaultSCI(instanceSCTracker[_StableCoin]);\r\n        //call _borrow function on the stablecoin warp vault\r\n        WV._borrow(_amount, msg.sender);\r\n        emit NewBorrow(msg.sender, _StableCoin, _amount);\r\n    }\r\n\r\n    /**\r\n      @notice markAccountNonCompliant is used by a potential liquidator to mark an account as non compliant which starts its 30 minute timer\r\n      @param _borrower is the address of the non compliant borrower\r\n      **/\r\n    function markAccountNonCompliant(address _borrower) public {\r\n      //retreive the number of LP vaults in the warp platform\r\n        uint256 numSCVaults = scVaults.length;\r\n        //initialize the borrowedAmount variable\r\n        uint256 borrowedAmount = 0;\r\n        //initialize the stable coin balances array\r\n        uint256[] memory scBalances = new uint256[](numSCVaults);\r\n        for (uint256 i = 0; i < numSCVaults; ++i) {\r\n            //instantiate the vault at the current  position in the array\r\n            WarpVaultSCI scVault = WarpVaultSCI(scVaults[i]);\r\n            //retreive the borrowers borrow balance from this vault and add it to the scBalances array\r\n            scBalances[i] = scVault.borrowBalanceCurrent(_borrower);\r\n            //add the borrowed amount to the total borrowed balance\r\n            borrowedAmount = borrowedAmount.add(scBalances[i]);\r\n        }\r\n        //retreve the USDC borrow limit for the borrower\r\n        uint256 borrowLimit = getBorrowLimit(_borrower);\r\n        //check if the borrow is less than the borrowed amount\r\n        if (borrowLimit <= borrowedAmount) {\r\n          //require the borrower isnt already non compliant\r\n        require(nonCompliant[_borrower] == 0);\r\n        //record the time of non compliance\r\n        nonCompliant[_borrower] = now;\r\n        emit NotCompliant(_borrower, now);\r\n      }\r\n    }\r\n\r\n    /**\r\n@notice liquidateAccount is used to liquidate a non-compliant loan after it has reached its 30 minute grace period\r\n@param _borrower is the address of the borrower whos loan is non-compliant\r\n**/\r\n    function liquidateAccount(address _borrower) public {\r\n        //require the liquidator is not also the borrower\r\n        require(msg.sender != _borrower);\r\n        //require is has been a half hour since the loan was first seen to be non-compliant\r\n        require(now >= nonCompliant[_borrower].add(1800));\r\n        //retreive the number of stablecoin vaults in the warp platform\r\n        uint256 numSCVaults = scVaults.length;\r\n        //retreive the number of LP vaults in the warp platform\r\n        uint256 numLPVaults = lpVaults.length;\r\n        //initialize the borrowedAmount variable\r\n        uint256 borrowedAmount = 0;\r\n        //initialize the stable coin balances array\r\n        uint256[] memory scBalances = new uint256[](numSCVaults);\r\n        // loop through and retreive the Borrowed Amount From All Vaults\r\n        for (uint256 i = 0; i < numSCVaults; ++i) {\r\n            //instantiate the vault at the current  position in the array\r\n            WarpVaultSCI scVault = WarpVaultSCI(scVaults[i]);\r\n            //retreive the borrowers borrow balance from this vault and add it to the scBalances array\r\n            scBalances[i] = scVault.borrowBalanceCurrent(_borrower);\r\n            //add the borrowed amount to the total borrowed balance\r\n            borrowedAmount = borrowedAmount.add(scBalances[i]);\r\n        }\r\n        //retreve the USDC borrow limit for the borrower\r\n        uint256 borrowLimit = getBorrowLimit(_borrower);\r\n        //check if the borrow is less than the borrowed amount\r\n        if (borrowLimit <= borrowedAmount) {\r\n            // If it is Liquidate the account\r\n            //loop through each SC vault so the  Liquidator can pay off Stable Coin loans\r\n            for (uint256 i = 0; i < numSCVaults; ++i) {\r\n                //instantiate the Warp SC Vault at the current position\r\n                WarpVaultSCI scVault = WarpVaultSCI(scVaults[i]);\r\n                //call repayLiquidatedLoan function to repay the loan\r\n                scVault._repayLiquidatedLoan(\r\n                    _borrower,\r\n                    msg.sender,\r\n                    scBalances[i]\r\n                );\r\n            }\r\n            //loop through each LP vault so the Liquidator gets the LP tokens the borrower had\r\n            for (uint256 i = 0; i < numLPVaults; ++i) {\r\n                //instantiate the Wapr LP Vault at the current position\r\n                WarpVaultLPI lpVault = WarpVaultLPI(lpVaults[i]);\r\n                //call liquidateAccount function on that LP vault\r\n                lpVault._liquidateAccount(_borrower, msg.sender);\r\n                emit Liquidation(_borrower, msg.sender);\r\n            }\r\n        }\r\n        //no matter what the compliance tracker for the borrowers account is reset\r\n        nonCompliant[_borrower] = 0;\r\n        emit complianceReset(_borrower, now);\r\n    }\r\n}\r\n",
  "sourcePath": "E:/dOrg/warp/Smart-Contracts/contracts/WarpControl.sol",
  "compiler": {
    "name": "solc",
    "version": "0.6.6+commit.6c089d02.Emscripten.clang"
  },
  "schemaVersion": "3.3.1",
  "updatedAt": "2020-11-25T23:07:03.114Z",
  "devdoc": {
    "methods": {
      "borrowSC(address,uint256)": {
        "params": {
          "_StableCoin": "is the address of the stablecoin the user wishes to borrow",
          "_amount": "is the amount of that stablecoin the user wants to borrow*"
        }
      },
      "calcBorrowLimit(uint256)": {
        "details": "this function divides the input value by 3 and then adds that value to itself so it can return 2/3rds of the availible collateral as the borrow limit. If a usser has $150 USDC value in collateral this function will return $100 USDC as their borrow limit.*",
        "params": {
          "_collateralValue": "is the USDC value of the users collateral"
        }
      },
      "constructor": {
        "details": "These factories are split into seperate contracts to avoid hitting the block gas limit*",
        "params": {
          "_WVLPF": "is the address for the WarpVaultLPFactory used to produce LP Warp Vaults",
          "_WVSCF": "is the address for the WarpVaultSCFactory used to produce Stable Coin Warp Vaults",
          "_oracle": "is the address for the UniswapOracleFactorycontract"
        }
      },
      "createNewLPVault(uint256,address,address,address,string)": {
        "params": {
          "_lp": "is the address for the LP token this Warp Vault will manage",
          "_lpAsset1": "is the address for the first asset in a pair that the LP token represents(ex: wETH in a wETH-wBTC uniswap pair)",
          "_lpAsset2": "is the address for the second asset in a pair that the LP token represents(ex: wBTC in a wETH-wBTC uniswap pair)",
          "_lpName": "is the name of the LP token (ex:wETH-wBTC)*",
          "_timelock": "is a variable representing the number of seconds the timeWizard will prevent withdraws and borrows from a contracts(one week is 605800 seconds)"
        }
      },
      "createNewSCVault(uint256,uint256,uint256,uint256,uint256,uint256,address)": {
        "params": {
          "_StableCoin": "is the address of the StableCoin this Warp Vault will manage*",
          "_baseRatePerYear": "is the base rate per year(approx target base APR)",
          "_initialExchangeRate": "is the intitial exchange rate(the rate at which the initial exchange of asset/ART is set)",
          "_jumpMultiplierPerYear": "is the Jump Multiplier Per Year(the multiplier per block after hitting a specific utilizastion point)",
          "_multiplierPerYear": "is the multiplier per year(rate of increase in interest w/ utilizastion)",
          "_optimal": "is the this is the utilizastion point or \"kink\" at which the jump multiplier is applied",
          "_timelock": "is a variable representing the number of seconds the timeWizard will prevent withdraws and borrows from a contracts(one week is 605800 seconds)"
        }
      },
      "liquidateAccount(address)": {
        "params": {
          "_borrower": "is the address of the borrower whos loan is non-compliant*"
        }
      },
      "markAccountNonCompliant(address)": {
        "params": {
          "_borrower": "is the address of the non compliant borrower*"
        }
      },
      "owner()": {
        "details": "Returns the address of the current owner."
      },
      "renounceOwnership()": {
        "details": "Leaves the contract without owner. It will not be possible to call `onlyOwner` functions anymore. Can only be called by the current owner.     * NOTE: Renouncing ownership will leave the contract without an owner, thereby removing any functionality that is only available to the owner."
      },
      "transferOwnership(address)": {
        "details": "Transfers ownership of the contract to a new account (`newOwner`). Can only be called by the current owner."
      }
    }
  },
  "userdoc": {
    "methods": {
      "borrowSC(address,uint256)": {
        "notice": "borrowSC is the function an end user will call when they wish to borrow a stablecoin from the warp platform"
      },
      "calcBorrowLimit(uint256)": {
        "notice": "calcBorrowLimit is used to calculate the borrow limit for an account based on the input value of their collateral"
      },
      "constructor": "the constructor function is fired during the contract deployment process. The constructor can only be fired once and is used to set up Oracle variables for the MoneyMarketFactory contract.",
      "createNewLPVault(uint256,address,address,address,string)": {
        "notice": "createNewLPVault allows the contract owner to create a new WarpVaultLP contract for a specific LP token"
      },
      "createNewSCVault(uint256,uint256,uint256,uint256,uint256,uint256,address)": {
        "notice": "createNewSCVault allows the contract owner to create a new WarpVaultLP contract for a specific LP token"
      },
      "getMaxWithdrawAllowed(address,address)": {
        "notice": "Figures out how much of a given LP token an account is allowed to withdraw"
      },
      "liquidateAccount(address)": {
        "notice": "liquidateAccount is used to liquidate a non-compliant loan after it has reached its 30 minute grace period"
      },
      "markAccountNonCompliant(address)": {
        "notice": "markAccountNonCompliant is used by a potential liquidator to mark an account as non compliant which starts its 30 minute timer"
      },
      "viewNumLPVaults()": {
        "notice": "view functions for front end /////"
      }
    },
    "notice": "WarpControl is designed to coordinate Warp Vaults This contract uses the OpenZeppelin contract Library to inherit functions from Ownable.sol*"
  }
}